{
  "contractName": "AccessControlEnumerableMock",
  "abi": [
    {
      "inputs": [],
      "stateMutability": "nonpayable",
      "type": "constructor"
    },
    {
      "anonymous": false,
      "inputs": [
        {
          "indexed": true,
          "internalType": "bytes32",
          "name": "role",
          "type": "bytes32"
        },
        {
          "indexed": true,
          "internalType": "bytes32",
          "name": "previousAdminRole",
          "type": "bytes32"
        },
        {
          "indexed": true,
          "internalType": "bytes32",
          "name": "newAdminRole",
          "type": "bytes32"
        }
      ],
      "name": "RoleAdminChanged",
      "type": "event"
    },
    {
      "anonymous": false,
      "inputs": [
        {
          "indexed": true,
          "internalType": "bytes32",
          "name": "role",
          "type": "bytes32"
        },
        {
          "indexed": true,
          "internalType": "address",
          "name": "account",
          "type": "address"
        },
        {
          "indexed": true,
          "internalType": "address",
          "name": "sender",
          "type": "address"
        }
      ],
      "name": "RoleGranted",
      "type": "event"
    },
    {
      "anonymous": false,
      "inputs": [
        {
          "indexed": true,
          "internalType": "bytes32",
          "name": "role",
          "type": "bytes32"
        },
        {
          "indexed": true,
          "internalType": "address",
          "name": "account",
          "type": "address"
        },
        {
          "indexed": true,
          "internalType": "address",
          "name": "sender",
          "type": "address"
        }
      ],
      "name": "RoleRevoked",
      "type": "event"
    },
    {
      "inputs": [],
      "name": "DEFAULT_ADMIN_ROLE",
      "outputs": [
        {
          "internalType": "bytes32",
          "name": "",
          "type": "bytes32"
        }
      ],
      "stateMutability": "view",
      "type": "function"
    },
    {
      "inputs": [
        {
          "internalType": "bytes32",
          "name": "role",
          "type": "bytes32"
        }
      ],
      "name": "getRoleAdmin",
      "outputs": [
        {
          "internalType": "bytes32",
          "name": "",
          "type": "bytes32"
        }
      ],
      "stateMutability": "view",
      "type": "function"
    },
    {
      "inputs": [
        {
          "internalType": "bytes32",
          "name": "role",
          "type": "bytes32"
        },
        {
          "internalType": "uint256",
          "name": "index",
          "type": "uint256"
        }
      ],
      "name": "getRoleMember",
      "outputs": [
        {
          "internalType": "address",
          "name": "",
          "type": "address"
        }
      ],
      "stateMutability": "view",
      "type": "function"
    },
    {
      "inputs": [
        {
          "internalType": "bytes32",
          "name": "role",
          "type": "bytes32"
        }
      ],
      "name": "getRoleMemberCount",
      "outputs": [
        {
          "internalType": "uint256",
          "name": "",
          "type": "uint256"
        }
      ],
      "stateMutability": "view",
      "type": "function"
    },
    {
      "inputs": [
        {
          "internalType": "bytes32",
          "name": "role",
          "type": "bytes32"
        },
        {
          "internalType": "address",
          "name": "account",
          "type": "address"
        }
      ],
      "name": "grantRole",
      "outputs": [],
      "stateMutability": "nonpayable",
      "type": "function"
    },
    {
      "inputs": [
        {
          "internalType": "bytes32",
          "name": "role",
          "type": "bytes32"
        },
        {
          "internalType": "address",
          "name": "account",
          "type": "address"
        }
      ],
      "name": "hasRole",
      "outputs": [
        {
          "internalType": "bool",
          "name": "",
          "type": "bool"
        }
      ],
      "stateMutability": "view",
      "type": "function"
    },
    {
      "inputs": [
        {
          "internalType": "bytes32",
          "name": "role",
          "type": "bytes32"
        },
        {
          "internalType": "address",
          "name": "account",
          "type": "address"
        }
      ],
      "name": "renounceRole",
      "outputs": [],
      "stateMutability": "nonpayable",
      "type": "function"
    },
    {
      "inputs": [
        {
          "internalType": "bytes32",
          "name": "role",
          "type": "bytes32"
        },
        {
          "internalType": "address",
          "name": "account",
          "type": "address"
        }
      ],
      "name": "revokeRole",
      "outputs": [],
      "stateMutability": "nonpayable",
      "type": "function"
    },
    {
      "inputs": [
        {
          "internalType": "bytes4",
          "name": "interfaceId",
          "type": "bytes4"
        }
      ],
      "name": "supportsInterface",
      "outputs": [
        {
          "internalType": "bool",
          "name": "",
          "type": "bool"
        }
      ],
      "stateMutability": "view",
      "type": "function"
    },
    {
      "inputs": [
        {
          "internalType": "bytes32",
          "name": "roleId",
          "type": "bytes32"
        },
        {
          "internalType": "bytes32",
          "name": "adminRoleId",
          "type": "bytes32"
        }
      ],
      "name": "setRoleAdmin",
      "outputs": [],
      "stateMutability": "nonpayable",
      "type": "function"
    },
    {
      "inputs": [
        {
          "internalType": "bytes32",
          "name": "roleId",
          "type": "bytes32"
        }
      ],
      "name": "senderProtected",
      "outputs": [],
      "stateMutability": "nonpayable",
      "type": "function"
    }
  ],
  "bytecode": "0x60806040523480156200001157600080fd5b50620000366000801b6200002a6200003c60201b60201c565b6200004460201b60201c565b620002d2565b600033905090565b6200005b82826200008c60201b620004651760201c565b620000878160016000858152602001908152602001600020620000a260201b620004731790919060201c565b505050565b6200009e8282620000da60201b60201c565b5050565b6000620000d2836000018373ffffffffffffffffffffffffffffffffffffffff1660001b620001cb60201b60201c565b905092915050565b620000ec82826200024560201b60201c565b620001c757600160008084815260200190815260200160002060000160008373ffffffffffffffffffffffffffffffffffffffff1673ffffffffffffffffffffffffffffffffffffffff16815260200190815260200160002060006101000a81548160ff0219169083151502179055506200016c6200003c60201b60201c565b73ffffffffffffffffffffffffffffffffffffffff168173ffffffffffffffffffffffffffffffffffffffff16837f2f8788117e7eff1d82e926ec794901d17c78024a50270940304540a733656f0d60405160405180910390a45b5050565b6000620001df8383620002af60201b60201c565b6200023a5782600001829080600181540180825580915050600190039060005260206000200160009091909190915055826000018054905083600101600084815260200190815260200160002081905550600190506200023f565b600090505b92915050565b600080600084815260200190815260200160002060000160008373ffffffffffffffffffffffffffffffffffffffff1673ffffffffffffffffffffffffffffffffffffffff16815260200190815260200160002060009054906101000a900460ff16905092915050565b600080836001016000848152602001908152602001600020541415905092915050565b61155180620002e26000396000f3fe608060405234801561001057600080fd5b50600436106100a95760003560e01c80634b9304a4116100715780634b9304a4146101625780639010d07c1461017e57806391d14854146101ae578063a217fddf146101de578063ca15c873146101fc578063d547741f1461022c576100a9565b806301ffc9a7146100ae5780631e4e0091146100de578063248a9ca3146100fa5780632f2ff15d1461012a57806336568abe14610146575b600080fd5b6100c860048036038101906100c39190610ed6565b610248565b6040516100d5919061108a565b60405180910390f35b6100f860048036038101906100f39190610e56565b6102c2565b005b610114600480360381019061010f9190610de9565b6102d0565b60405161012191906110a5565b60405180910390f35b610144600480360381019061013f9190610e16565b6102ef565b005b610160600480360381019061015b9190610e16565b610323565b005b61017c60048036038101906101779190610de9565b610357565b005b61019860048036038101906101939190610e96565b61036d565b6040516101a5919061106f565b60405180910390f35b6101c860048036038101906101c39190610e16565b61039c565b6040516101d5919061108a565b60405180910390f35b6101e6610406565b6040516101f391906110a5565b60405180910390f35b61021660048036038101906102119190610de9565b61040d565b6040516102239190611122565b60405180910390f35b61024660048036038101906102419190610e16565b610431565b005b60007f5a05180f000000000000000000000000000000000000000000000000000000007bffffffffffffffffffffffffffffffffffffffffffffffffffffffff1916827bffffffffffffffffffffffffffffffffffffffffffffffffffffffff191614806102bb57506102ba826104a3565b5b9050919050565b6102cc828261051d565b5050565b6000806000838152602001908152602001600020600101549050919050565b6102f98282610572565b61031e816001600085815260200190815260200160002061047390919063ffffffff16565b505050565b61032d828261059b565b610352816001600085815260200190815260200160002061061e90919063ffffffff16565b505050565b806103698161036461064e565b610656565b5050565b600061039482600160008681526020019081526020016000206106f390919063ffffffff16565b905092915050565b600080600084815260200190815260200160002060000160008373ffffffffffffffffffffffffffffffffffffffff1673ffffffffffffffffffffffffffffffffffffffff16815260200190815260200160002060009054906101000a900460ff16905092915050565b6000801b81565b600061042a6001600084815260200190815260200160002061070d565b9050919050565b61043b8282610722565b610460816001600085815260200190815260200160002061061e90919063ffffffff16565b505050565b61046f828261074b565b5050565b600061049b836000018373ffffffffffffffffffffffffffffffffffffffff1660001b61082b565b905092915050565b60007f7965db0b000000000000000000000000000000000000000000000000000000007bffffffffffffffffffffffffffffffffffffffffffffffffffffffff1916827bffffffffffffffffffffffffffffffffffffffffffffffffffffffff1916148061051657506105158261089b565b5b9050919050565b80610527836102d0565b837fbd79b86ffe0ab8e8776151514217cd7cacd52c909f66475c3af44e129f0b00ff60405160405180910390a480600080848152602001908152602001600020600101819055505050565b61057b826102d0565b61058c8161058761064e565b610656565b610596838361074b565b505050565b6105a361064e565b73ffffffffffffffffffffffffffffffffffffffff168173ffffffffffffffffffffffffffffffffffffffff1614610610576040517f08c379a000000000000000000000000000000000000000000000000000000000815260040161060790611102565b60405180910390fd5b61061a8282610905565b5050565b6000610646836000018373ffffffffffffffffffffffffffffffffffffffff1660001b6109e6565b905092915050565b600033905090565b610660828261039c565b6106ef576106858173ffffffffffffffffffffffffffffffffffffffff166014610afa565b6106938360001c6020610afa565b6040516020016106a4929190611035565b6040516020818303038152906040526040517f08c379a00000000000000000000000000000000000000000000000000000000081526004016106e691906110c0565b60405180910390fd5b5050565b60006107028360000183610d36565b60001c905092915050565b600061071b82600001610d61565b9050919050565b61072b826102d0565b61073c8161073761064e565b610656565b6107468383610905565b505050565b610755828261039c565b61082757600160008084815260200190815260200160002060000160008373ffffffffffffffffffffffffffffffffffffffff1673ffffffffffffffffffffffffffffffffffffffff16815260200190815260200160002060006101000a81548160ff0219169083151502179055506107cc61064e565b73ffffffffffffffffffffffffffffffffffffffff168173ffffffffffffffffffffffffffffffffffffffff16837f2f8788117e7eff1d82e926ec794901d17c78024a50270940304540a733656f0d60405160405180910390a45b5050565b60006108378383610d72565b610890578260000182908060018154018082558091505060019003906000526020600020016000909190919091505582600001805490508360010160008481526020019081526020016000208190555060019050610895565b600090505b92915050565b60007f01ffc9a7000000000000000000000000000000000000000000000000000000007bffffffffffffffffffffffffffffffffffffffffffffffffffffffff1916827bffffffffffffffffffffffffffffffffffffffffffffffffffffffff1916149050919050565b61090f828261039c565b156109e257600080600084815260200190815260200160002060000160008373ffffffffffffffffffffffffffffffffffffffff1673ffffffffffffffffffffffffffffffffffffffff16815260200190815260200160002060006101000a81548160ff02191690831515021790555061098761064e565b73ffffffffffffffffffffffffffffffffffffffff168173ffffffffffffffffffffffffffffffffffffffff16837ff6391f5c32d9c69d2a47ea670b442974b53935d1edc7fd64eb21e047a839171b60405160405180910390a45b5050565b60008083600101600084815260200190815260200160002054905060008114610aee576000600182610a189190611214565b9050600060018660000180549050610a309190611214565b9050818114610a9f576000866000018281548110610a5157610a50611381565b5b9060005260206000200154905080876000018481548110610a7557610a74611381565b5b90600052602060002001819055508387600101600083815260200190815260200160002081905550505b85600001805480610ab357610ab2611352565b5b600190038181906000526020600020016000905590558560010160008681526020019081526020016000206000905560019350505050610af4565b60009150505b92915050565b606060006002836002610b0d91906111ba565b610b179190611164565b67ffffffffffffffff811115610b3057610b2f6113b0565b5b6040519080825280601f01601f191660200182016040528015610b625781602001600182028036833780820191505090505b5090507f300000000000000000000000000000000000000000000000000000000000000081600081518110610b9a57610b99611381565b5b60200101907effffffffffffffffffffffffffffffffffffffffffffffffffffffffffffff1916908160001a9053507f780000000000000000000000000000000000000000000000000000000000000081600181518110610bfe57610bfd611381565b5b60200101907effffffffffffffffffffffffffffffffffffffffffffffffffffffffffffff1916908160001a90535060006001846002610c3e91906111ba565b610c489190611164565b90505b6001811115610ce8577f3031323334353637383961626364656600000000000000000000000000000000600f861660108110610c8a57610c89611381565b5b1a60f81b828281518110610ca157610ca0611381565b5b60200101907effffffffffffffffffffffffffffffffffffffffffffffffffffffffffffff1916908160001a905350600485901c945080610ce1906112f9565b9050610c4b565b5060008414610d2c576040517f08c379a0000000000000000000000000000000000000000000000000000000008152600401610d23906110e2565b60405180910390fd5b8091505092915050565b6000826000018281548110610d4e57610d4d611381565b5b9060005260206000200154905092915050565b600081600001805490509050919050565b600080836001016000848152602001908152602001600020541415905092915050565b600081359050610da4816114bf565b92915050565b600081359050610db9816114d6565b92915050565b600081359050610dce816114ed565b92915050565b600081359050610de381611504565b92915050565b600060208284031215610dff57610dfe6113df565b5b6000610e0d84828501610daa565b91505092915050565b60008060408385031215610e2d57610e2c6113df565b5b6000610e3b85828601610daa565b9250506020610e4c85828601610d95565b9150509250929050565b60008060408385031215610e6d57610e6c6113df565b5b6000610e7b85828601610daa565b9250506020610e8c85828601610daa565b9150509250929050565b60008060408385031215610ead57610eac6113df565b5b6000610ebb85828601610daa565b9250506020610ecc85828601610dd4565b9150509250929050565b600060208284031215610eec57610eeb6113df565b5b6000610efa84828501610dbf565b91505092915050565b610f0c81611248565b82525050565b610f1b8161125a565b82525050565b610f2a81611266565b82525050565b6000610f3b8261113d565b610f458185611148565b9350610f558185602086016112c6565b610f5e816113e4565b840191505092915050565b6000610f748261113d565b610f7e8185611159565b9350610f8e8185602086016112c6565b80840191505092915050565b6000610fa7602083611148565b9150610fb2826113f5565b602082019050919050565b6000610fca601783611159565b9150610fd58261141e565b601782019050919050565b6000610fed601183611159565b9150610ff882611447565b601182019050919050565b6000611010602f83611148565b915061101b82611470565b604082019050919050565b61102f816112bc565b82525050565b600061104082610fbd565b915061104c8285610f69565b915061105782610fe0565b91506110638284610f69565b91508190509392505050565b60006020820190506110846000830184610f03565b92915050565b600060208201905061109f6000830184610f12565b92915050565b60006020820190506110ba6000830184610f21565b92915050565b600060208201905081810360008301526110da8184610f30565b905092915050565b600060208201905081810360008301526110fb81610f9a565b9050919050565b6000602082019050818103600083015261111b81611003565b9050919050565b60006020820190506111376000830184611026565b92915050565b600081519050919050565b600082825260208201905092915050565b600081905092915050565b600061116f826112bc565b915061117a836112bc565b9250827fffffffffffffffffffffffffffffffffffffffffffffffffffffffffffffffff038211156111af576111ae611323565b5b828201905092915050565b60006111c5826112bc565b91506111d0836112bc565b9250817fffffffffffffffffffffffffffffffffffffffffffffffffffffffffffffffff048311821515161561120957611208611323565b5b828202905092915050565b600061121f826112bc565b915061122a836112bc565b92508282101561123d5761123c611323565b5b828203905092915050565b60006112538261129c565b9050919050565b60008115159050919050565b6000819050919050565b60007fffffffff0000000000000000000000000000000000000000000000000000000082169050919050565b600073ffffffffffffffffffffffffffffffffffffffff82169050919050565b6000819050919050565b60005b838110156112e45780820151818401526020810190506112c9565b838111156112f3576000848401525b50505050565b6000611304826112bc565b9150600082141561131857611317611323565b5b600182039050919050565b7f4e487b7100000000000000000000000000000000000000000000000000000000600052601160045260246000fd5b7f4e487b7100000000000000000000000000000000000000000000000000000000600052603160045260246000fd5b7f4e487b7100000000000000000000000000000000000000000000000000000000600052603260045260246000fd5b7f4e487b7100000000000000000000000000000000000000000000000000000000600052604160045260246000fd5b600080fd5b6000601f19601f8301169050919050565b7f537472696e67733a20686578206c656e67746820696e73756666696369656e74600082015250565b7f416363657373436f6e74726f6c3a206163636f756e7420000000000000000000600082015250565b7f206973206d697373696e6720726f6c6520000000000000000000000000000000600082015250565b7f416363657373436f6e74726f6c3a2063616e206f6e6c792072656e6f756e636560008201527f20726f6c657320666f722073656c660000000000000000000000000000000000602082015250565b6114c881611248565b81146114d357600080fd5b50565b6114df81611266565b81146114ea57600080fd5b50565b6114f681611270565b811461150157600080fd5b50565b61150d816112bc565b811461151857600080fd5b5056fea26469706673582212201d9fb3385d212a04dfcfeae161270bb2c11f4d3f1e53617040e047ff0e3ec03f64736f6c63430008060033",
  "immutableReferences": {},
  "source": "// SPDX-License-Identifier: MIT\n\npragma solidity ^0.8.0;\n\nimport \"../access/AccessControlEnumerable.sol\";\n\ncontract AccessControlEnumerableMock is AccessControlEnumerable {\n    constructor() {\n        _setupRole(DEFAULT_ADMIN_ROLE, _msgSender());\n    }\n\n    function setRoleAdmin(bytes32 roleId, bytes32 adminRoleId) public {\n        _setRoleAdmin(roleId, adminRoleId);\n    }\n\n    function senderProtected(bytes32 roleId) public onlyRole(roleId) {}\n}\n",
  "sourcePath": "C:/Users/Husnain/Documents/Projects/Fanbase/New/fanbase/packages/ethereum/contracts/solidity/openzeppelin/contracts/mocks/AccessControlEnumerableMock.sol",
  "compiler": {
    "name": "solc",
    "version": "0.8.6+commit.11564f7e.Emscripten.clang"
  },
  "schemaVersion": "3.4.1",
  "updatedAt": "2021-07-05T16:18:57.725Z",
  "devdoc": {
    "kind": "dev",
    "methods": {
      "getRoleAdmin(bytes32)": {
        "details": "Returns the admin role that controls `role`. See {grantRole} and {revokeRole}. To change a role's admin, use {_setRoleAdmin}."
      },
      "getRoleMember(bytes32,uint256)": {
        "details": "Returns one of the accounts that have `role`. `index` must be a value between 0 and {getRoleMemberCount}, non-inclusive. Role bearers are not sorted in any particular way, and their ordering may change at any point. WARNING: When using {getRoleMember} and {getRoleMemberCount}, make sure you perform all queries on the same block. See the following https://forum.openzeppelin.com/t/iterating-over-elements-on-enumerableset-in-openzeppelin-contracts/2296[forum post] for more information."
      },
      "getRoleMemberCount(bytes32)": {
        "details": "Returns the number of accounts that have `role`. Can be used together with {getRoleMember} to enumerate all bearers of a role."
      },
      "grantRole(bytes32,address)": {
        "details": "Overload {grantRole} to track enumerable memberships"
      },
      "hasRole(bytes32,address)": {
        "details": "Returns `true` if `account` has been granted `role`."
      },
      "renounceRole(bytes32,address)": {
        "details": "Overload {renounceRole} to track enumerable memberships"
      },
      "revokeRole(bytes32,address)": {
        "details": "Overload {revokeRole} to track enumerable memberships"
      },
      "supportsInterface(bytes4)": {
        "details": "See {IERC165-supportsInterface}."
      }
    },
    "version": 1
  },
  "userdoc": {
    "kind": "user",
    "methods": {},
    "version": 1
  }
}