{
  "contractName": "ClonesMock",
  "abi": [
    {
      "anonymous": false,
      "inputs": [
        {
          "indexed": false,
          "internalType": "address",
          "name": "instance",
          "type": "address"
        }
      ],
      "name": "NewInstance",
      "type": "event"
    },
    {
      "inputs": [
        {
          "internalType": "address",
          "name": "implementation",
          "type": "address"
        },
        {
          "internalType": "bytes",
          "name": "initdata",
          "type": "bytes"
        }
      ],
      "name": "clone",
      "outputs": [],
      "stateMutability": "payable",
      "type": "function"
    },
    {
      "inputs": [
        {
          "internalType": "address",
          "name": "implementation",
          "type": "address"
        },
        {
          "internalType": "bytes32",
          "name": "salt",
          "type": "bytes32"
        },
        {
          "internalType": "bytes",
          "name": "initdata",
          "type": "bytes"
        }
      ],
      "name": "cloneDeterministic",
      "outputs": [],
      "stateMutability": "payable",
      "type": "function"
    },
    {
      "inputs": [
        {
          "internalType": "address",
          "name": "implementation",
          "type": "address"
        },
        {
          "internalType": "bytes32",
          "name": "salt",
          "type": "bytes32"
        }
      ],
      "name": "predictDeterministicAddress",
      "outputs": [
        {
          "internalType": "address",
          "name": "predicted",
          "type": "address"
        }
      ],
      "stateMutability": "view",
      "type": "function"
    }
  ],
  "bytecode": "0x608060405234801561001057600080fd5b50610bcd806100206000396000f3fe6080604052600436106100345760003560e01c80630fbe133c14610039578063360d0fad146100555780636e9ebc8114610092575b600080fd5b610053600480360381019061004e9190610772565b6100ae565b005b34801561006157600080fd5b5061007c600480360381019061007791906106be565b61011f565b60405161008991906108ee565b60405180910390f35b6100ac60048036038101906100a791906106fe565b610152565b005b61011a6100d08473ffffffffffffffffffffffffffffffffffffffff166101ce565b83838080601f016020809104026020016040519081016040528093929190818152602001838380828437600081840152601f19601f820116905080830192505050505050506102a3565b505050565b600061014a828473ffffffffffffffffffffffffffffffffffffffff1661031590919063ffffffff16565b905092915050565b6101c861017e848673ffffffffffffffffffffffffffffffffffffffff1661032a90919063ffffffff16565b83838080601f016020809104026020016040519081016040528093929190818152602001838380828437600081840152601f19601f820116905080830192505050505050506102a3565b50505050565b60006040517f3d602d80600a3d3981f3363d3d373d3d3d363d7300000000000000000000000081528260601b60148201527f5af43d82803e903d91602b57fd5bf3000000000000000000000000000000000060288201526037816000f0915050600073ffffffffffffffffffffffffffffffffffffffff168173ffffffffffffffffffffffffffffffffffffffff16141561029e576040517f08c379a00000000000000000000000000000000000000000000000000000000081526004016102959061096b565b60405180910390fd5b919050565b6000815111156102da576102d881348473ffffffffffffffffffffffffffffffffffffffff166104019092919063ffffffff16565b505b7f39a773f10839d86923d91d5ce7d6642f2f63a95d850495abb1f162e38aa04ea58260405161030991906108ee565b60405180910390a15050565b6000610322838330610430565b905092915050565b60006040517f3d602d80600a3d3981f3363d3d373d3d3d363d7300000000000000000000000081528360601b60148201527f5af43d82803e903d91602b57fd5bf300000000000000000000000000000000006028820152826037826000f5915050600073ffffffffffffffffffffffffffffffffffffffff168173ffffffffffffffffffffffffffffffffffffffff1614156103fb576040517f08c379a00000000000000000000000000000000000000000000000000000000081526004016103f29061092b565b60405180910390fd5b92915050565b6060610427848484604051806060016040528060298152602001610b6f602991396104b0565b90509392505050565b60006040517f3d602d80600a3d3981f3363d3d373d3d3d363d7300000000000000000000000081528460601b60148201527f5af43d82803e903d91602b57fd5bf3ff0000000000000000000000000000000060288201528260601b603882015283604c82015260378120606c820152605560378201209150509392505050565b6060824710156104f5576040517f08c379a00000000000000000000000000000000000000000000000000000000081526004016104ec9061094b565b60405180910390fd5b6104fe856105c4565b61053d576040517f08c379a00000000000000000000000000000000000000000000000000000000081526004016105349061098b565b60405180910390fd5b6000808673ffffffffffffffffffffffffffffffffffffffff16858760405161056691906108d7565b60006040518083038185875af1925050503d80600081146105a3576040519150601f19603f3d011682016040523d82523d6000602084013e6105a8565b606091505b50915091506105b88282866105d7565b92505050949350505050565b600080823b905060008111915050919050565b606083156105e757829050610637565b6000835111156105fa5782518084602001fd5b816040517f08c379a000000000000000000000000000000000000000000000000000000000815260040161062e9190610909565b60405180910390fd5b9392505050565b60008135905061064d81610b40565b92915050565b60008135905061066281610b57565b92915050565b60008083601f84011261067e5761067d610a51565b5b8235905067ffffffffffffffff81111561069b5761069a610a4c565b5b6020830191508360018202830111156106b7576106b6610a56565b5b9250929050565b600080604083850312156106d5576106d4610a60565b5b60006106e38582860161063e565b92505060206106f485828601610653565b9150509250929050565b6000806000806060858703121561071857610717610a60565b5b60006107268782880161063e565b945050602061073787828801610653565b935050604085013567ffffffffffffffff81111561075857610757610a5b565b5b61076487828801610668565b925092505092959194509250565b60008060006040848603121561078b5761078a610a60565b5b60006107998682870161063e565b935050602084013567ffffffffffffffff8111156107ba576107b9610a5b565b5b6107c686828701610668565b92509250509250925092565b6107db816109dd565b82525050565b60006107ec826109ab565b6107f681856109c1565b9350610806818560208601610a19565b80840191505092915050565b600061081d826109b6565b61082781856109cc565b9350610837818560208601610a19565b61084081610a65565b840191505092915050565b60006108586017836109cc565b915061086382610a76565b602082019050919050565b600061087b6026836109cc565b915061088682610a9f565b604082019050919050565b600061089e6016836109cc565b91506108a982610aee565b602082019050919050565b60006108c1601d836109cc565b91506108cc82610b17565b602082019050919050565b60006108e382846107e1565b915081905092915050565b600060208201905061090360008301846107d2565b92915050565b600060208201905081810360008301526109238184610812565b905092915050565b600060208201905081810360008301526109448161084b565b9050919050565b600060208201905081810360008301526109648161086e565b9050919050565b6000602082019050818103600083015261098481610891565b9050919050565b600060208201905081810360008301526109a4816108b4565b9050919050565b600081519050919050565b600081519050919050565b600081905092915050565b600082825260208201905092915050565b60006109e8826109f9565b9050919050565b6000819050919050565b600073ffffffffffffffffffffffffffffffffffffffff82169050919050565b60005b83811015610a37578082015181840152602081019050610a1c565b83811115610a46576000848401525b50505050565b600080fd5b600080fd5b600080fd5b600080fd5b600080fd5b6000601f19601f8301169050919050565b7f455243313136373a2063726561746532206661696c6564000000000000000000600082015250565b7f416464726573733a20696e73756666696369656e742062616c616e636520666f60008201527f722063616c6c0000000000000000000000000000000000000000000000000000602082015250565b7f455243313136373a20637265617465206661696c656400000000000000000000600082015250565b7f416464726573733a2063616c6c20746f206e6f6e2d636f6e7472616374000000600082015250565b610b49816109dd565b8114610b5457600080fd5b50565b610b60816109ef565b8114610b6b57600080fd5b5056fe416464726573733a206c6f772d6c6576656c2063616c6c20776974682076616c7565206661696c6564a2646970667358221220c98f93af59cc29c971e5f6c0bc35d3286f7f1e605c0fb2a144ecd7e4475bca3964736f6c63430008070033",
  "immutableReferences": {},
  "source": "// SPDX-License-Identifier: MIT\r\n\r\npragma solidity ^0.8.0;\r\n\r\nimport \"../proxy/Clones.sol\";\r\nimport \"../utils/Address.sol\";\r\n\r\ncontract ClonesMock {\r\n    using Address for address;\r\n    using Clones for address;\r\n\r\n    event NewInstance(address instance);\r\n\r\n    function clone(address implementation, bytes calldata initdata) public payable {\r\n        _initAndEmit(implementation.clone(), initdata);\r\n    }\r\n\r\n    function cloneDeterministic(address implementation, bytes32 salt, bytes calldata initdata) public payable {\r\n        _initAndEmit(implementation.cloneDeterministic(salt), initdata);\r\n    }\r\n\r\n    function predictDeterministicAddress(address implementation, bytes32 salt) public view returns (address predicted) {\r\n        return implementation.predictDeterministicAddress(salt);\r\n    }\r\n\r\n    function _initAndEmit(address instance, bytes memory initdata) private {\r\n        if (initdata.length > 0) {\r\n            instance.functionCallWithValue(initdata, msg.value);\r\n        }\r\n        emit NewInstance(instance);\r\n    }\r\n}\r\n",
  "sourcePath": "C:/Users/Husnain/Documents/Projects/Fanbase/fanbase/packages/ethereum/contracts/solidity/openzeppelin/contracts/mocks/ClonesMock.sol",
  "compiler": {
    "name": "solc",
    "version": "0.8.7+commit.e28d00a7.Emscripten.clang"
  },
  "schemaVersion": "3.4.1",
  "updatedAt": "2021-08-24T16:48:46.682Z",
  "devdoc": {
    "kind": "dev",
    "methods": {},
    "version": 1
  },
  "userdoc": {
    "kind": "user",
    "methods": {},
    "version": 1
  }
}