{
  "contractName": "ContextMockCaller",
  "abi": [
    {
      "inputs": [
        {
          "internalType": "contract ContextMock",
          "name": "context",
          "type": "address"
        }
      ],
      "name": "callSender",
      "outputs": [],
      "stateMutability": "nonpayable",
      "type": "function"
    },
    {
      "inputs": [
        {
          "internalType": "contract ContextMock",
          "name": "context",
          "type": "address"
        },
        {
          "internalType": "uint256",
          "name": "integerValue",
          "type": "uint256"
        },
        {
          "internalType": "string",
          "name": "stringValue",
          "type": "string"
        }
      ],
      "name": "callData",
      "outputs": [],
      "stateMutability": "nonpayable",
      "type": "function"
    }
  ],
  "bytecode": "0x608060405234801561001057600080fd5b506104e0806100206000396000f3fe608060405234801561001057600080fd5b50600436106100355760003560e01c80628604591461003a5780633207ad9614610056575b600080fd5b610054600480360381019061004f919061020e565b610072565b005b610070600480360381019061006b91906101e1565b6100e4565b005b8273ffffffffffffffffffffffffffffffffffffffff1663376bf26283836040518363ffffffff1660e01b81526004016100ad9291906102c5565b600060405180830381600087803b1580156100c757600080fd5b505af11580156100db573d6000803e3d6000fd5b50505050505050565b8073ffffffffffffffffffffffffffffffffffffffff1663d737d0c76040518163ffffffff1660e01b8152600401600060405180830381600087803b15801561012c57600080fd5b505af1158015610140573d6000803e3d6000fd5b5050505050565b600061015a6101558461031a565b6102f5565b9050828152602081018484840111156101765761017561045c565b5b6101818482856103b5565b509392505050565b6000813590506101988161047c565b92915050565b600082601f8301126101b3576101b2610457565b5b81356101c3848260208601610147565b91505092915050565b6000813590506101db81610493565b92915050565b6000602082840312156101f7576101f6610466565b5b600061020584828501610189565b91505092915050565b60008060006060848603121561022757610226610466565b5b600061023586828701610189565b9350506020610246868287016101cc565b925050604084013567ffffffffffffffff81111561026757610266610461565b5b6102738682870161019e565b9150509250925092565b60006102888261034b565b6102928185610356565b93506102a28185602086016103c4565b6102ab8161046b565b840191505092915050565b6102bf816103ab565b82525050565b60006040820190506102da60008301856102b6565b81810360208301526102ec818461027d565b90509392505050565b60006102ff610310565b905061030b82826103f7565b919050565b6000604051905090565b600067ffffffffffffffff82111561033557610334610428565b5b61033e8261046b565b9050602081019050919050565b600081519050919050565b600082825260208201905092915050565b60006103728261038b565b9050919050565b600061038482610367565b9050919050565b600073ffffffffffffffffffffffffffffffffffffffff82169050919050565b6000819050919050565b82818337600083830152505050565b60005b838110156103e25780820151818401526020810190506103c7565b838111156103f1576000848401525b50505050565b6104008261046b565b810181811067ffffffffffffffff8211171561041f5761041e610428565b5b80604052505050565b7f4e487b7100000000000000000000000000000000000000000000000000000000600052604160045260246000fd5b600080fd5b600080fd5b600080fd5b600080fd5b6000601f19601f8301169050919050565b61048581610379565b811461049057600080fd5b50565b61049c816103ab565b81146104a757600080fd5b5056fea2646970667358221220cc6c79c2f8a1d9042664cf1d84b3ae198eb2fcbab812a4712de28987082eb33664736f6c63430008070033",
  "immutableReferences": {},
  "source": "// SPDX-License-Identifier: MIT\n\npragma solidity ^0.8.0;\n\nimport \"../utils/Context.sol\";\n\ncontract ContextMock is Context {\n    event Sender(address sender);\n\n    function msgSender() public {\n        emit Sender(_msgSender());\n    }\n\n    event Data(bytes data, uint256 integerValue, string stringValue);\n\n    function msgData(uint256 integerValue, string memory stringValue) public {\n        emit Data(_msgData(), integerValue, stringValue);\n    }\n}\n\ncontract ContextMockCaller {\n    function callSender(ContextMock context) public {\n        context.msgSender();\n    }\n\n    function callData(ContextMock context, uint256 integerValue, string memory stringValue) public {\n        context.msgData(integerValue, stringValue);\n    }\n}\n",
  "sourcePath": "C:/Users/Husnain/Documents/Projects/Fanbase/New/fanbase/packages/ethereum/contracts/solidity/openzeppelin/contracts/mocks/ContextMock.sol",
  "compiler": {
    "name": "solc",
    "version": "0.8.7+commit.e28d00a7.Emscripten.clang"
  },
  "schemaVersion": "3.4.1",
  "updatedAt": "2021-08-16T20:02:45.052Z",
  "devdoc": {
    "kind": "dev",
    "methods": {},
    "version": 1
  },
  "userdoc": {
    "kind": "user",
    "methods": {},
    "version": 1
  }
}