{
  "contractName": "Create2Impl",
  "abi": [
    {
      "stateMutability": "payable",
      "type": "receive"
    },
    {
      "inputs": [
        {
          "internalType": "uint256",
          "name": "value",
          "type": "uint256"
        },
        {
          "internalType": "bytes32",
          "name": "salt",
          "type": "bytes32"
        },
        {
          "internalType": "bytes",
          "name": "code",
          "type": "bytes"
        }
      ],
      "name": "deploy",
      "outputs": [],
      "stateMutability": "nonpayable",
      "type": "function"
    },
    {
      "inputs": [
        {
          "internalType": "uint256",
          "name": "value",
          "type": "uint256"
        },
        {
          "internalType": "bytes32",
          "name": "salt",
          "type": "bytes32"
        }
      ],
      "name": "deployERC1820Implementer",
      "outputs": [],
      "stateMutability": "nonpayable",
      "type": "function"
    },
    {
      "inputs": [
        {
          "internalType": "bytes32",
          "name": "salt",
          "type": "bytes32"
        },
        {
          "internalType": "bytes32",
          "name": "codeHash",
          "type": "bytes32"
        }
      ],
      "name": "computeAddress",
      "outputs": [
        {
          "internalType": "address",
          "name": "",
          "type": "address"
        }
      ],
      "stateMutability": "view",
      "type": "function"
    },
    {
      "inputs": [
        {
          "internalType": "bytes32",
          "name": "salt",
          "type": "bytes32"
        },
        {
          "internalType": "bytes32",
          "name": "codeHash",
          "type": "bytes32"
        },
        {
          "internalType": "address",
          "name": "deployer",
          "type": "address"
        }
      ],
      "name": "computeAddressWithDeployer",
      "outputs": [
        {
          "internalType": "address",
          "name": "",
          "type": "address"
        }
      ],
      "stateMutability": "pure",
      "type": "function"
    }
  ],
  "bytecode": "0x608060405234801561001057600080fd5b50610b6e806100206000396000f3fe6080604052600436106100435760003560e01c8063076c37b21461004f578063481286e61461007857806356299481146100b557806366cfa057146100f25761004a565b3661004a57005b600080fd5b34801561005b57600080fd5b5061007660048036038101906100719190610442565b61011b565b005b34801561008457600080fd5b5061009f600480360381019061009a91906103af565b61014e565b6040516100ac91906105fc565b60405180910390f35b3480156100c157600080fd5b506100dc60048036038101906100d791906103ef565b610162565b6040516100e991906105fc565b60405180910390f35b3480156100fe57600080fd5b5061011960048036038101906101149190610482565b610178565b005b610149828260405180602001610130906102f3565b6020820181038252601f19601f82011660405250610189565b505050565b600061015a838361029a565b905092915050565b600061016f8484846102af565b90509392505050565b610183838383610189565b50505050565b600080844710156101cf576040517f08c379a00000000000000000000000000000000000000000000000000000000081526004016101c690610657565b60405180910390fd5b600083511415610214576040517f08c379a000000000000000000000000000000000000000000000000000000000815260040161020b90610617565b60405180910390fd5b8383516020850187f59050600073ffffffffffffffffffffffffffffffffffffffff168173ffffffffffffffffffffffffffffffffffffffff16141561028f576040517f08c379a000000000000000000000000000000000000000000000000000000000815260040161028690610637565b60405180910390fd5b809150509392505050565b60006102a78383306102af565b905092915050565b60008060ff60f81b8386866040516020016102cd94939291906105ae565b6040516020818303038152906040528051906020012090508060001c9150509392505050565b61024f806108ea83390190565b600061031361030e8461069c565b610677565b90508281526020810184848401111561032f5761032e6107fc565b5b61033a848285610750565b509392505050565b600081359050610351816108a4565b92915050565b600081359050610366816108bb565b92915050565b600082601f830112610381576103806107f7565b5b8135610391848260208601610300565b91505092915050565b6000813590506103a9816108d2565b92915050565b600080604083850312156103c6576103c5610806565b5b60006103d485828601610357565b92505060206103e585828601610357565b9150509250929050565b60008060006060848603121561040857610407610806565b5b600061041686828701610357565b935050602061042786828701610357565b925050604061043886828701610342565b9150509250925092565b6000806040838503121561045957610458610806565b5b60006104678582860161039a565b925050602061047885828601610357565b9150509250929050565b60008060006060848603121561049b5761049a610806565b5b60006104a98682870161039a565b93505060206104ba86828701610357565b925050604084013567ffffffffffffffff8111156104db576104da610801565b5b6104e78682870161036c565b9150509250925092565b6104fa816106de565b82525050565b61051161050c826106de565b610790565b82525050565b610528610523826106f0565b6107a2565b82525050565b61053f61053a8261071c565b6107ac565b82525050565b60006105526020836106cd565b915061055d82610829565b602082019050919050565b60006105756019836106cd565b915061058082610852565b602082019050919050565b6000610598601d836106cd565b91506105a38261087b565b602082019050919050565b60006105ba8287610517565b6001820191506105ca8286610500565b6014820191506105da828561052e565b6020820191506105ea828461052e565b60208201915081905095945050505050565b600060208201905061061160008301846104f1565b92915050565b6000602082019050818103600083015261063081610545565b9050919050565b6000602082019050818103600083015261065081610568565b9050919050565b600060208201905081810360008301526106708161058b565b9050919050565b6000610681610692565b905061068d828261075f565b919050565b6000604051905090565b600067ffffffffffffffff8211156106b7576106b66107c8565b5b6106c08261080b565b9050602081019050919050565b600082825260208201905092915050565b60006106e982610726565b9050919050565b60007fff0000000000000000000000000000000000000000000000000000000000000082169050919050565b6000819050919050565b600073ffffffffffffffffffffffffffffffffffffffff82169050919050565b6000819050919050565b82818337600083830152505050565b6107688261080b565b810181811067ffffffffffffffff82111715610787576107866107c8565b5b80604052505050565b600061079b826107b6565b9050919050565b6000819050919050565b6000819050919050565b60006107c18261081c565b9050919050565b7f4e487b7100000000000000000000000000000000000000000000000000000000600052604160045260246000fd5b600080fd5b600080fd5b600080fd5b600080fd5b6000601f19601f8301169050919050565b60008160601b9050919050565b7f437265617465323a2062797465636f6465206c656e677468206973207a65726f600082015250565b7f437265617465323a204661696c6564206f6e206465706c6f7900000000000000600082015250565b7f437265617465323a20696e73756666696369656e742062616c616e6365000000600082015250565b6108ad816106de565b81146108b857600080fd5b50565b6108c48161071c565b81146108cf57600080fd5b50565b6108db81610746565b81146108e657600080fd5b5056fe608060405234801561001057600080fd5b5061022f806100206000396000f3fe608060405234801561001057600080fd5b506004361061002b5760003560e01c8063249cb3fa14610030575b600080fd5b61004a60048036038101906100459190610120565b610060565b604051610057919061016f565b60405180910390f35b600080600084815260200190815260200160002060008373ffffffffffffffffffffffffffffffffffffffff1673ffffffffffffffffffffffffffffffffffffffff16815260200190815260200160002060009054906101000a900460ff166100cc576000801b6100ee565b7fa2ef4600d742022d532d4747cb3547474667d6f13804902513b2ec01c848f4b45b905092915050565b600081359050610105816101cb565b92915050565b60008135905061011a816101e2565b92915050565b60008060408385031215610137576101366101c6565b5b60006101458582860161010b565b9250506020610156858286016100f6565b9150509250929050565b6101698161019c565b82525050565b60006020820190506101846000830184610160565b92915050565b6000610195826101a6565b9050919050565b6000819050919050565b600073ffffffffffffffffffffffffffffffffffffffff82169050919050565b600080fd5b6101d48161018a565b81146101df57600080fd5b50565b6101eb8161019c565b81146101f657600080fd5b5056fea2646970667358221220d742158151f7936fe2ffebb7b42e81a15ecf0846f2e9d8dd7d8081919227259164736f6c63430008070033a2646970667358221220acd9082d727517853c65aee318604992200bcec5cfc50e3d7b2e780a3c53f4f464736f6c63430008070033",
  "immutableReferences": {},
  "source": "// SPDX-License-Identifier: MIT\r\n\r\npragma solidity ^0.8.0;\r\n\r\nimport \"../utils/Create2.sol\";\r\nimport \"../utils/introspection/ERC1820Implementer.sol\";\r\n\r\ncontract Create2Impl {\r\n    function deploy(uint256 value, bytes32 salt, bytes memory code) public {\r\n        Create2.deploy(value, salt, code);\r\n    }\r\n\r\n    function deployERC1820Implementer(uint256 value, bytes32 salt) public {\r\n        // solhint-disable-next-line indent\r\n        Create2.deploy(value, salt, type(ERC1820Implementer).creationCode);\r\n    }\r\n\r\n    function computeAddress(bytes32 salt, bytes32 codeHash) public view returns (address) {\r\n        return Create2.computeAddress(salt, codeHash);\r\n    }\r\n\r\n    function computeAddressWithDeployer(bytes32 salt, bytes32 codeHash, address deployer) public pure returns (address) {\r\n        return Create2.computeAddress(salt, codeHash, deployer);\r\n    }\r\n\r\n    receive() external payable {}\r\n}\r\n",
  "sourcePath": "C:/Users/Husnain/Documents/Projects/Fanbase/fanbase/packages/ethereum/contracts/solidity/openzeppelin/contracts/mocks/Create2Impl.sol",
  "compiler": {
    "name": "solc",
    "version": "0.8.7+commit.e28d00a7.Emscripten.clang"
  },
  "schemaVersion": "3.4.1",
  "updatedAt": "2021-08-24T16:48:46.700Z",
  "devdoc": {
    "kind": "dev",
    "methods": {},
    "version": 1
  },
  "userdoc": {
    "kind": "user",
    "methods": {},
    "version": 1
  }
}