{
  "contractName": "Crowdsale",
  "abi": [
    {
      "inputs": [
        {
          "internalType": "address",
          "name": "coin",
          "type": "address"
        },
        {
          "internalType": "address",
          "name": "currency",
          "type": "address"
        },
        {
          "internalType": "address",
          "name": "exchange",
          "type": "address"
        }
      ],
      "stateMutability": "nonpayable",
      "type": "constructor"
    },
    {
      "inputs": [],
      "name": "communityPct",
      "outputs": [
        {
          "internalType": "uint256",
          "name": "",
          "type": "uint256"
        }
      ],
      "stateMutability": "view",
      "type": "function"
    },
    {
      "inputs": [],
      "name": "foundersPct",
      "outputs": [
        {
          "internalType": "uint256",
          "name": "",
          "type": "uint256"
        }
      ],
      "stateMutability": "view",
      "type": "function"
    },
    {
      "inputs": [],
      "name": "icoMaxSupply",
      "outputs": [
        {
          "internalType": "uint256",
          "name": "",
          "type": "uint256"
        }
      ],
      "stateMutability": "view",
      "type": "function"
    },
    {
      "inputs": [],
      "name": "icoRaised",
      "outputs": [
        {
          "internalType": "uint256",
          "name": "",
          "type": "uint256"
        }
      ],
      "stateMutability": "view",
      "type": "function"
    },
    {
      "inputs": [],
      "name": "icoSold",
      "outputs": [
        {
          "internalType": "uint256",
          "name": "",
          "type": "uint256"
        }
      ],
      "stateMutability": "view",
      "type": "function"
    },
    {
      "inputs": [],
      "name": "icoStarted",
      "outputs": [
        {
          "internalType": "bool",
          "name": "",
          "type": "bool"
        }
      ],
      "stateMutability": "view",
      "type": "function"
    },
    {
      "inputs": [],
      "name": "investmentSold",
      "outputs": [
        {
          "internalType": "uint256",
          "name": "",
          "type": "uint256"
        }
      ],
      "stateMutability": "view",
      "type": "function"
    },
    {
      "inputs": [],
      "name": "investorsPct",
      "outputs": [
        {
          "internalType": "uint256",
          "name": "",
          "type": "uint256"
        }
      ],
      "stateMutability": "view",
      "type": "function"
    },
    {
      "inputs": [],
      "name": "liquidityPct",
      "outputs": [
        {
          "internalType": "uint256",
          "name": "",
          "type": "uint256"
        }
      ],
      "stateMutability": "view",
      "type": "function"
    },
    {
      "inputs": [],
      "name": "preIcoMaxSupply",
      "outputs": [
        {
          "internalType": "uint256",
          "name": "",
          "type": "uint256"
        }
      ],
      "stateMutability": "view",
      "type": "function"
    },
    {
      "inputs": [],
      "name": "teamPct",
      "outputs": [
        {
          "internalType": "uint256",
          "name": "",
          "type": "uint256"
        }
      ],
      "stateMutability": "view",
      "type": "function"
    },
    {
      "inputs": [
        {
          "internalType": "address",
          "name": "founder",
          "type": "address"
        },
        {
          "internalType": "address",
          "name": "team",
          "type": "address"
        }
      ],
      "name": "start",
      "outputs": [],
      "stateMutability": "nonpayable",
      "type": "function"
    },
    {
      "inputs": [
        {
          "internalType": "uint256",
          "name": "quantity",
          "type": "uint256"
        }
      ],
      "name": "buy",
      "outputs": [],
      "stateMutability": "nonpayable",
      "type": "function"
    },
    {
      "inputs": [],
      "name": "release",
      "outputs": [],
      "stateMutability": "nonpayable",
      "type": "function"
    },
    {
      "inputs": [],
      "name": "withdraw",
      "outputs": [],
      "stateMutability": "nonpayable",
      "type": "function"
    }
  ],
  "bytecode": "0x6080604052614e20600055611388600155611388600255614e2060035561c3506004556000600a556000600b556000600c60006101000a81548160ff02191690831515021790555060006011556000601255600060135560006014556000601660006101000a81548160ff0219169083600181111562000084576200008362000234565b5b021790555060056017553480156200009b57600080fd5b5060405162001854380380620018548339818101604052810190620000c19190620001a4565b82600760006101000a81548173ffffffffffffffffffffffffffffffffffffffff021916908373ffffffffffffffffffffffffffffffffffffffff16021790555081600860006101000a81548173ffffffffffffffffffffffffffffffffffffffff021916908373ffffffffffffffffffffffffffffffffffffffff16021790555080600960006101000a81548173ffffffffffffffffffffffffffffffffffffffff021916908373ffffffffffffffffffffffffffffffffffffffff16021790555050505062000282565b6000815190506200019e8162000268565b92915050565b600080600060608486031215620001c057620001bf62000263565b5b6000620001d0868287016200018d565b9350506020620001e3868287016200018d565b9250506040620001f6868287016200018d565b9150509250925092565b60006200020d8262000214565b9050919050565b600073ffffffffffffffffffffffffffffffffffffffff82169050919050565b7f4e487b7100000000000000000000000000000000000000000000000000000000600052602160045260246000fd5b600080fd5b620002738162000200565b81146200027f57600080fd5b50565b6115c280620002926000396000f3fe608060405234801561001057600080fd5b50600436106100f55760003560e01c80635b29f2e411610097578063b6be9c1b11610066578063b6be9c1b1461021a578063c78a4c9814610238578063d96a094a14610256578063ec65930314610272576100f5565b80635b29f2e4146101b657806386d1a69f146101d45780639748ce37146101de578063ab230a38146101fc576100f5565b80633ccfd60b116100d35780633ccfd60b146101545780633ccfe8871461015e5780634812a3e81461017a5780635a8bc58614610198576100f5565b80630b5e89f4146100fa5780631b13f2f51461011857806334032e9214610136575b600080fd5b610102610290565b60405161010f9190611085565b60405180910390f35b6101206102a3565b60405161012d9190611100565b60405180910390f35b61013e6102a9565b60405161014b9190611100565b60405180910390f35b61015c6102af565b005b61017860048036038101906101739190610e84565b61042e565b005b6101826104c5565b60405161018f9190611100565b60405180910390f35b6101a06104cb565b6040516101ad9190611100565b60405180910390f35b6101be6104d1565b6040516101cb9190611100565b60405180910390f35b6101dc6104d7565b005b6101e6610752565b6040516101f39190611100565b60405180910390f35b610204610758565b6040516102119190611100565b60405180910390f35b61022261075e565b60405161022f9190611100565b60405180910390f35b610240610764565b60405161024d9190611100565b60405180910390f35b610270600480360381019061026b9190610ef1565b61076a565b005b61027a610cf8565b6040516102879190611100565b60405180910390f35b600c60009054906101000a900460ff1681565b600f5481565b60005481565b6000600660003373ffffffffffffffffffffffffffffffffffffffff1673ffffffffffffffffffffffffffffffffffffffff16815260200190815260200160002054905060008111610336576040517f08c379a000000000000000000000000000000000000000000000000000000000815260040161032d906110c0565b60405180910390fd5b6000600660003373ffffffffffffffffffffffffffffffffffffffff1673ffffffffffffffffffffffffffffffffffffffff16815260200190815260200160002081905550600760009054906101000a900473ffffffffffffffffffffffffffffffffffffffff1673ffffffffffffffffffffffffffffffffffffffff1663a9059cbb33836040518363ffffffff1660e01b81526004016103d892919061105c565b602060405180830381600087803b1580156103f257600080fd5b505af1158015610406573d6000803e3d6000fd5b505050506040513d601f19601f8201168201806040525081019061042a9190610ec4565b5050565b6104428260005462ed4e0062278d00610cfe565b6104568160015462ed4e0062278d00610cfe565b620186a0600354600b5461046a9190611324565b6104749190611182565b6011819055506001600c60006101000a81548160ff02191690831515021790555062278d00426104a4919061112c565b600d8190555062278d00600d546104bb919061112c565b600e819055505050565b60045481565b60025481565b60135481565b6000600560003373ffffffffffffffffffffffffffffffffffffffff1673ffffffffffffffffffffffffffffffffffffffff1681526020019081526020016000206040518060e00160405290816000820154815260200160018201548152602001600282015481526020016003820154815260200160048201548152602001600582015481526020016006820160009054906101000a900460ff16151515158152505090508060c001516105c0576040517f08c379a00000000000000000000000000000000000000000000000000000000081526004016105b7906110a0565b60405180910390fd5b6000816060015182604001516105d6919061137e565b90508160200151421161069f5760008260a0015183608001516105f99190611182565b9050600083600001514261060d919061137e565b905060008460a00151826106219190611182565b905060008386604001516106359190611182565b826106409190611324565b905085606001518111610688576040517f08c379a000000000000000000000000000000000000000000000000000000000815260040161067f906110e0565b60405180910390fd5b856060015181610698919061137e565b9450505050505b80600560003373ffffffffffffffffffffffffffffffffffffffff1673ffffffffffffffffffffffffffffffffffffffff16815260200190815260200160002060030160008282546106f1919061112c565b9250508190555080600660003373ffffffffffffffffffffffffffffffffffffffff1673ffffffffffffffffffffffffffffffffffffffff1681526020019081526020016000206000828254610747919061112c565b925050819055505050565b60105481565b60125481565b60035481565b60145481565b60125460115461077a919061137e565b81111561078657600080fd5b6103e8601560003373ffffffffffffffffffffffffffffffffffffffff1673ffffffffffffffffffffffffffffffffffffffff1681526020019081526020016000205411156107d457600080fd5b42600d5410610809576001601660006101000a81548160ff0219169083600181111561080357610802611465565b5b02179055505b60018081111561081c5761081b611465565b5b601660009054906101000a900460ff16600181111561083e5761083d611465565b5b14801561084c5750600e5442115b1561087d576000601660006101000a81548160ff0219169083600181111561087757610876611465565b5b02179055505b600060058261088c9190611324565b90506001808111156108a1576108a0611465565b5b601660009054906101000a900460ff1660018111156108c3576108c2611465565b5b14156108da57601754826108d79190611324565b90505b80600860009054906101000a900473ffffffffffffffffffffffffffffffffffffffff1673ffffffffffffffffffffffffffffffffffffffff166370a08231336040518263ffffffff1660e01b81526004016109369190610fe1565b60206040518083038186803b15801561094e57600080fd5b505afa158015610962573d6000803e3d6000fd5b505050506040513d601f19601f820116820180604052508101906109869190610f1e565b101561099157600080fd5b80600860009054906101000a900473ffffffffffffffffffffffffffffffffffffffff1673ffffffffffffffffffffffffffffffffffffffff1663dd62ed3e33306040518363ffffffff1660e01b81526004016109ef929190610ffc565b60206040518083038186803b158015610a0757600080fd5b505afa158015610a1b573d6000803e3d6000fd5b505050506040513d601f19601f82011682018060405250810190610a3f9190610f1e565b1015610a4a57600080fd5b600860009054906101000a900473ffffffffffffffffffffffffffffffffffffffff1673ffffffffffffffffffffffffffffffffffffffff166323b872dd3330846040518463ffffffff1660e01b8152600401610aa993929190611025565b602060405180830381600087803b158015610ac357600080fd5b505af1158015610ad7573d6000803e3d6000fd5b505050506040513d601f19601f82011682018060405250810190610afb9190610ec4565b5080600a6000828254610b0e919061112c565b925050819055506002600a54610b249190611206565b60178190555060006001811115610b3e57610b3d611465565b5b601660009054906101000a900460ff166001811115610b6057610b5f611465565b5b1415610bbd5781601560003373ffffffffffffffffffffffffffffffffffffffff1673ffffffffffffffffffffffffffffffffffffffff1681526020019081526020016000206000828254610bb5919061112c565b925050819055505b600760009054906101000a900473ffffffffffffffffffffffffffffffffffffffff1673ffffffffffffffffffffffffffffffffffffffff1663a9059cbb33846040518363ffffffff1660e01b8152600401610c1a92919061105c565b602060405180830381600087803b158015610c3457600080fd5b505af1158015610c48573d6000803e3d6000fd5b505050506040513d601f19601f82011682018060405250810190610c6c9190610ec4565b50600180811115610c8057610c7f611465565b5b601660009054906101000a900460ff166001811115610ca257610ca1611465565b5b1415610cdb578160136000828254610cba919061112c565b925050819055508060146000828254610cd3919061112c565b925050819055505b8160126000828254610ced919061112c565b925050819055505050565b60015481565b6000620186a084600b54610d129190611324565b610d1c9190611182565b9050600042905060008462ed4e0083610d35919061112c565b610d3f919061112c565b905060008282610d4f919061137e565b90506040518060e001604052808481526020018381526020018581526020016000815260200182815260200186815260200160011515815250600560008a73ffffffffffffffffffffffffffffffffffffffff1673ffffffffffffffffffffffffffffffffffffffff168152602001908152602001600020600082015181600001556020820151816001015560408201518160020155606082015181600301556080820151816004015560a0820151816005015560c08201518160060160006101000a81548160ff0219169083151502179055509050505050505050505050565b600081359050610e3f81611547565b92915050565b600081519050610e548161155e565b92915050565b600081359050610e6981611575565b92915050565b600081519050610e7e81611575565b92915050565b60008060408385031215610e9b57610e9a611494565b5b6000610ea985828601610e30565b9250506020610eba85828601610e30565b9150509250929050565b600060208284031215610eda57610ed9611494565b5b6000610ee884828501610e45565b91505092915050565b600060208284031215610f0757610f06611494565b5b6000610f1584828501610e5a565b91505092915050565b600060208284031215610f3457610f33611494565b5b6000610f4284828501610e6f565b91505092915050565b610f54816113b2565b82525050565b610f63816113c4565b82525050565b6000610f76601a8361111b565b9150610f81826114a6565b602082019050919050565b6000610f99601d8361111b565b9150610fa4826114cf565b602082019050919050565b6000610fbc60218361111b565b9150610fc7826114f8565b604082019050919050565b610fdb816113f0565b82525050565b6000602082019050610ff66000830184610f4b565b92915050565b60006040820190506110116000830185610f4b565b61101e6020830184610f4b565b9392505050565b600060608201905061103a6000830186610f4b565b6110476020830185610f4b565b6110546040830184610fd2565b949350505050565b60006040820190506110716000830185610f4b565b61107e6020830184610fd2565b9392505050565b600060208201905061109a6000830184610f5a565b92915050565b600060208201905081810360008301526110b981610f69565b9050919050565b600060208201905081810360008301526110d981610f8c565b9050919050565b600060208201905081810360008301526110f981610faf565b9050919050565b60006020820190506111156000830184610fd2565b92915050565b600082825260208201905092915050565b6000611137826113f0565b9150611142836113f0565b9250827fffffffffffffffffffffffffffffffffffffffffffffffffffffffffffffffff0382111561117757611176611407565b5b828201905092915050565b600061118d826113f0565b9150611198836113f0565b9250826111a8576111a7611436565b5b828204905092915050565b6000808291508390505b60018511156111fd578086048111156111d9576111d8611407565b5b60018516156111e85780820291505b80810290506111f685611499565b94506111bd565b94509492505050565b6000611211826113f0565b915061121c836113fa565b92506112497fffffffffffffffffffffffffffffffffffffffffffffffffffffffffffffffff8484611251565b905092915050565b600082611261576001905061131d565b8161126f576000905061131d565b8160018114611285576002811461128f576112be565b600191505061131d565b60ff8411156112a1576112a0611407565b5b8360020a9150848211156112b8576112b7611407565b5b5061131d565b5060208310610133831016604e8410600b84101617156112f35782820a9050838111156112ee576112ed611407565b5b61131d565b61130084848460016111b3565b9250905081840481111561131757611316611407565b5b81810290505b9392505050565b600061132f826113f0565b915061133a836113f0565b9250817fffffffffffffffffffffffffffffffffffffffffffffffffffffffffffffffff048311821515161561137357611372611407565b5b828202905092915050565b6000611389826113f0565b9150611394836113f0565b9250828210156113a7576113a6611407565b5b828203905092915050565b60006113bd826113d0565b9050919050565b60008115159050919050565b600073ffffffffffffffffffffffffffffffffffffffff82169050919050565b6000819050919050565b600060ff82169050919050565b7f4e487b7100000000000000000000000000000000000000000000000000000000600052601160045260246000fd5b7f4e487b7100000000000000000000000000000000000000000000000000000000600052601260045260246000fd5b7f4e487b7100000000000000000000000000000000000000000000000000000000600052602160045260246000fd5b600080fd5b60008160011c9050919050565b7f596f752068617665206e6f2076657374656420616d6f756e742e000000000000600082015250565b7f596f752068617665206e6f7468696e6720746f2077697468647261772e000000600082015250565b7f596f752063616e6e6f7420776974686472617720617420746869732074696d6560008201527f2e00000000000000000000000000000000000000000000000000000000000000602082015250565b611550816113b2565b811461155b57600080fd5b50565b611567816113c4565b811461157257600080fd5b50565b61157e816113f0565b811461158957600080fd5b5056fea2646970667358221220cd37fac9eb82054a396f4e3a678700c37dd95386e8798a176029cf759dd9e24764736f6c63430008060033",
  "immutableReferences": {},
  "source": "// SPDX-License-Identifier: MIT\r\npragma solidity ^0.8.0;\r\n\r\nimport \"./openzeppelin/contracts/token/ERC20/IERC20.sol\";\r\n\r\nstruct Vesting {\r\n  uint startDate;\r\n  uint endDate;\r\n  uint amount;\r\n  uint amountPaid;\r\n  uint duration;\r\n  uint interval;\r\n  bool exists;\r\n}\r\n\r\ncontract Crowdsale {\r\n  uint private constant HUNDRED_PERCENT = 10**5;\r\n  uint private constant CLIFF_IN_DAYS = 180 days;\r\n\r\n  uint public foundersPct = 20000;\r\n  uint public teamPct = 5000;\r\n  uint public communityPct = 5000;\r\n  uint public investorsPct = 20000;\r\n  uint public liquidityPct = 50000;\r\n\r\n  mapping(address => Vesting) private _vested;\r\n  mapping(address => uint) private _due;\r\n\r\n  address private _coin;\r\n  address private _currency;\r\n  address private _exchange;\r\n\r\n  uint private _reserve = 0;\r\n  uint private totalSupply = 0;\r\n\r\n  enum Stage { PRE_ICO, ICO }\r\n\r\n  bool public icoStarted = false;\r\n\r\n  uint private icoStart;\r\n  uint private icoEnd;\r\n\r\n  uint public preIcoMaxSupply;\r\n  uint public icoMaxSupply;\r\n\r\n  uint maxInvestmentSupply = 0;\r\n  uint public investmentSold = 0;\r\n\r\n  uint public icoSold = 0;\r\n  uint public icoRaised = 0;\r\n\r\n  mapping(address => uint) _preIcoBought;\r\n\r\n  Stage private currentStage = Stage.PRE_ICO;\r\n  \r\n  constructor(address coin, address currency, address exchange) {\r\n    _coin = coin;\r\n    _currency = currency;\r\n    _exchange = exchange;\r\n  }\r\n\r\n  function start(\r\n    address founder,\r\n    address team\r\n  ) public {\r\n    vest(founder, foundersPct, 180 days, 30 days);\r\n    vest(team, teamPct, 180 days, 30 days);\r\n\r\n    maxInvestmentSupply = (totalSupply * investorsPct) / HUNDRED_PERCENT;\r\n    \r\n    icoStarted = true;\r\n\r\n    icoStart = block.timestamp + 30 days;\r\n    icoEnd = icoStart + 30 days;\r\n  }\r\n\r\n  uint private icoPrice = 5; \r\n\r\n  function buy(uint quantity) public {\r\n    require(quantity <= (maxInvestmentSupply - investmentSold));\r\n    require(_preIcoBought[msg.sender] <= 1000);\r\n\r\n    if (icoStart >= block.timestamp) {\r\n      currentStage = Stage.ICO;\r\n    }\r\n\r\n    if (currentStage == Stage.ICO && block.timestamp > icoEnd) {\r\n      currentStage = Stage.PRE_ICO;\r\n    }\r\n\r\n    uint price = quantity * 5;\r\n\r\n    if (currentStage == Stage.ICO) {\r\n      price = quantity * icoPrice;\r\n    }\r\n\r\n    require(IERC20(_currency).balanceOf(msg.sender) >= price);\r\n    require(IERC20(_currency).allowance(msg.sender, address(this)) >= price);\r\n\r\n    IERC20(_currency).transferFrom(msg.sender, address(this), price);\r\n\r\n    _reserve += price;\r\n    icoPrice = _reserve**2;\r\n    \r\n    if (currentStage == Stage.PRE_ICO) {\r\n      _preIcoBought[msg.sender] += quantity;\r\n    }\r\n\r\n    IERC20(_coin).transfer(msg.sender, quantity);\r\n\r\n    if (currentStage == Stage.ICO) {\r\n      icoSold += quantity;\r\n      icoRaised += price;\r\n    }\r\n\r\n    investmentSold += quantity;\r\n  }\r\n\r\n  function vest(address account, uint pct,uint durationInDays, uint intervalInDays) private {\r\n    uint amount = (totalSupply * pct) / HUNDRED_PERCENT;\r\n\r\n    uint startDate = block.timestamp;\r\n    uint endDate = startDate + CLIFF_IN_DAYS + durationInDays;\r\n    uint duration = endDate - startDate;\r\n\r\n    _vested[account] = Vesting(\r\n      startDate,\r\n      endDate,\r\n      amount,\r\n      0,\r\n      duration,\r\n      intervalInDays,\r\n      true\r\n    );\r\n  }\r\n\r\n  function release() public {\r\n    Vesting memory vesting = _vested[msg.sender];\r\n\r\n    require(vesting.exists, \"You have no vested amount.\");\r\n\r\n    uint toRelease = vesting.amount - vesting.amountPaid;\r\n\r\n    if (block.timestamp <= vesting.endDate) {\r\n      uint paydays = vesting.duration / vesting.interval; // 3 paydays - 90 days total - 30 day interval\r\n\r\n      uint timeElapsed = block.timestamp - vesting.startDate; // 45 days elapsed\r\n\r\n      uint pastPaydays = timeElapsed / vesting.interval; // 45 days / 3 = 1.5 past paydays;\r\n\r\n      uint totalEarned = pastPaydays * (vesting.amount / paydays);\r\n\r\n      require(totalEarned > vesting.amountPaid, \"You cannot withdraw at this time.\");\r\n      \r\n      toRelease = totalEarned - vesting.amountPaid;\r\n    }\r\n\r\n    _vested[msg.sender].amountPaid += toRelease;\r\n\r\n    _due[msg.sender] += toRelease;\r\n  }\r\n\r\n  function withdraw() public {\r\n    uint balance = _due[msg.sender];\r\n\r\n    require(balance > 0, \"You have nothing to withdraw.\");\r\n    _due[msg.sender] = 0;\r\n\r\n    IERC20(_coin).transfer(msg.sender, balance);\r\n  }\r\n\r\n  function lockLiqudity() private {}\r\n}",
  "sourcePath": "C:/Users/Husnain/Documents/Projects/Fanbase/New/fanbase/packages/ethereum/contracts/solidity/Crowdsale.sol",
  "compiler": {
    "name": "solc",
    "version": "0.8.6+commit.11564f7e.Emscripten.clang"
  },
  "schemaVersion": "3.4.1",
  "updatedAt": "2021-07-12T17:20:01.071Z",
  "devdoc": {
    "kind": "dev",
    "methods": {},
    "version": 1
  },
  "userdoc": {
    "kind": "user",
    "methods": {},
    "version": 1
  }
}