{
  "contractName": "CRTR",
  "abi": [
    {
      "inputs": [
        {
          "internalType": "address",
          "name": "creator",
          "type": "address"
        },
        {
          "internalType": "string",
          "name": "name",
          "type": "string"
        },
        {
          "internalType": "string",
          "name": "ticker",
          "type": "string"
        },
        {
          "internalType": "address",
          "name": "currency",
          "type": "address"
        }
      ],
      "stateMutability": "nonpayable",
      "type": "constructor"
    },
    {
      "anonymous": false,
      "inputs": [
        {
          "indexed": true,
          "internalType": "address",
          "name": "owner",
          "type": "address"
        },
        {
          "indexed": true,
          "internalType": "address",
          "name": "spender",
          "type": "address"
        },
        {
          "indexed": false,
          "internalType": "uint256",
          "name": "value",
          "type": "uint256"
        }
      ],
      "name": "Approval",
      "type": "event"
    },
    {
      "anonymous": false,
      "inputs": [
        {
          "indexed": true,
          "internalType": "address",
          "name": "previousOwner",
          "type": "address"
        },
        {
          "indexed": true,
          "internalType": "address",
          "name": "newOwner",
          "type": "address"
        }
      ],
      "name": "OwnershipTransferred",
      "type": "event"
    },
    {
      "anonymous": false,
      "inputs": [
        {
          "indexed": true,
          "internalType": "address",
          "name": "from",
          "type": "address"
        },
        {
          "indexed": true,
          "internalType": "address",
          "name": "to",
          "type": "address"
        },
        {
          "indexed": false,
          "internalType": "uint256",
          "name": "value",
          "type": "uint256"
        }
      ],
      "name": "Transfer",
      "type": "event"
    },
    {
      "inputs": [
        {
          "internalType": "address",
          "name": "owner",
          "type": "address"
        },
        {
          "internalType": "address",
          "name": "spender",
          "type": "address"
        }
      ],
      "name": "allowance",
      "outputs": [
        {
          "internalType": "uint256",
          "name": "",
          "type": "uint256"
        }
      ],
      "stateMutability": "view",
      "type": "function"
    },
    {
      "inputs": [
        {
          "internalType": "address",
          "name": "spender",
          "type": "address"
        },
        {
          "internalType": "uint256",
          "name": "amount",
          "type": "uint256"
        }
      ],
      "name": "approve",
      "outputs": [
        {
          "internalType": "bool",
          "name": "",
          "type": "bool"
        }
      ],
      "stateMutability": "nonpayable",
      "type": "function"
    },
    {
      "inputs": [
        {
          "internalType": "address",
          "name": "account",
          "type": "address"
        }
      ],
      "name": "balanceOf",
      "outputs": [
        {
          "internalType": "uint256",
          "name": "",
          "type": "uint256"
        }
      ],
      "stateMutability": "view",
      "type": "function"
    },
    {
      "inputs": [],
      "name": "burnOnTransfer",
      "outputs": [
        {
          "internalType": "bool",
          "name": "",
          "type": "bool"
        }
      ],
      "stateMutability": "view",
      "type": "function"
    },
    {
      "inputs": [],
      "name": "burnOnTransferPct",
      "outputs": [
        {
          "internalType": "uint256",
          "name": "",
          "type": "uint256"
        }
      ],
      "stateMutability": "view",
      "type": "function"
    },
    {
      "inputs": [],
      "name": "decimals",
      "outputs": [
        {
          "internalType": "uint8",
          "name": "",
          "type": "uint8"
        }
      ],
      "stateMutability": "view",
      "type": "function"
    },
    {
      "inputs": [
        {
          "internalType": "address",
          "name": "spender",
          "type": "address"
        },
        {
          "internalType": "uint256",
          "name": "subtractedValue",
          "type": "uint256"
        }
      ],
      "name": "decreaseAllowance",
      "outputs": [
        {
          "internalType": "bool",
          "name": "",
          "type": "bool"
        }
      ],
      "stateMutability": "nonpayable",
      "type": "function"
    },
    {
      "inputs": [],
      "name": "foundersReward",
      "outputs": [
        {
          "internalType": "bool",
          "name": "",
          "type": "bool"
        }
      ],
      "stateMutability": "view",
      "type": "function"
    },
    {
      "inputs": [],
      "name": "foundersRewardPct",
      "outputs": [
        {
          "internalType": "uint256",
          "name": "",
          "type": "uint256"
        }
      ],
      "stateMutability": "view",
      "type": "function"
    },
    {
      "inputs": [
        {
          "internalType": "address",
          "name": "spender",
          "type": "address"
        },
        {
          "internalType": "uint256",
          "name": "addedValue",
          "type": "uint256"
        }
      ],
      "name": "increaseAllowance",
      "outputs": [
        {
          "internalType": "bool",
          "name": "",
          "type": "bool"
        }
      ],
      "stateMutability": "nonpayable",
      "type": "function"
    },
    {
      "inputs": [],
      "name": "name",
      "outputs": [
        {
          "internalType": "string",
          "name": "",
          "type": "string"
        }
      ],
      "stateMutability": "view",
      "type": "function"
    },
    {
      "inputs": [],
      "name": "owner",
      "outputs": [
        {
          "internalType": "address",
          "name": "",
          "type": "address"
        }
      ],
      "stateMutability": "view",
      "type": "function"
    },
    {
      "inputs": [],
      "name": "renounceOwnership",
      "outputs": [],
      "stateMutability": "nonpayable",
      "type": "function"
    },
    {
      "inputs": [],
      "name": "symbol",
      "outputs": [
        {
          "internalType": "string",
          "name": "",
          "type": "string"
        }
      ],
      "stateMutability": "view",
      "type": "function"
    },
    {
      "inputs": [],
      "name": "totalSupply",
      "outputs": [
        {
          "internalType": "uint256",
          "name": "",
          "type": "uint256"
        }
      ],
      "stateMutability": "view",
      "type": "function"
    },
    {
      "inputs": [
        {
          "internalType": "address",
          "name": "recipient",
          "type": "address"
        },
        {
          "internalType": "uint256",
          "name": "amount",
          "type": "uint256"
        }
      ],
      "name": "transfer",
      "outputs": [
        {
          "internalType": "bool",
          "name": "",
          "type": "bool"
        }
      ],
      "stateMutability": "nonpayable",
      "type": "function"
    },
    {
      "inputs": [
        {
          "internalType": "address",
          "name": "sender",
          "type": "address"
        },
        {
          "internalType": "address",
          "name": "recipient",
          "type": "address"
        },
        {
          "internalType": "uint256",
          "name": "amount",
          "type": "uint256"
        }
      ],
      "name": "transferFrom",
      "outputs": [
        {
          "internalType": "bool",
          "name": "",
          "type": "bool"
        }
      ],
      "stateMutability": "nonpayable",
      "type": "function"
    },
    {
      "inputs": [
        {
          "internalType": "address",
          "name": "newOwner",
          "type": "address"
        }
      ],
      "name": "transferOwnership",
      "outputs": [],
      "stateMutability": "nonpayable",
      "type": "function"
    },
    {
      "inputs": [],
      "name": "mintPrice",
      "outputs": [
        {
          "internalType": "uint256",
          "name": "price",
          "type": "uint256"
        }
      ],
      "stateMutability": "view",
      "type": "function"
    },
    {
      "inputs": [
        {
          "internalType": "uint256",
          "name": "quantity",
          "type": "uint256"
        }
      ],
      "name": "mint",
      "outputs": [],
      "stateMutability": "nonpayable",
      "type": "function"
    },
    {
      "inputs": [
        {
          "internalType": "uint256",
          "name": "quantity",
          "type": "uint256"
        }
      ],
      "name": "burn",
      "outputs": [],
      "stateMutability": "nonpayable",
      "type": "function"
    },
    {
      "inputs": [
        {
          "internalType": "bool",
          "name": "on",
          "type": "bool"
        }
      ],
      "name": "setBurnOnTransfer",
      "outputs": [],
      "stateMutability": "nonpayable",
      "type": "function"
    },
    {
      "inputs": [
        {
          "internalType": "uint256",
          "name": "pct",
          "type": "uint256"
        }
      ],
      "name": "setBurnOnTransferPct",
      "outputs": [],
      "stateMutability": "nonpayable",
      "type": "function"
    },
    {
      "inputs": [
        {
          "internalType": "bool",
          "name": "on",
          "type": "bool"
        }
      ],
      "name": "setFoundersReward",
      "outputs": [],
      "stateMutability": "nonpayable",
      "type": "function"
    },
    {
      "inputs": [
        {
          "internalType": "uint256",
          "name": "pct",
          "type": "uint256"
        }
      ],
      "name": "setFoundersRewardPct",
      "outputs": [],
      "stateMutability": "nonpayable",
      "type": "function"
    }
  ],
  "bytecode": "0x6080604052620186a06006556001600760006101000a81548160ff0219169083151502179055506103e86008556001600960006101000a81548160ff0219169083151502179055506103e8600a556064600b556001600c553480156200006457600080fd5b5060405162002e4338038062002e4383398181016040528101906200008a91906200037f565b82828160039080519060200190620000a49291906200023a565b508060049080519060200190620000bd9291906200023a565b505050620000e0620000d46200016c60201b60201c565b6200017460201b60201c565b83600d60006101000a81548173ffffffffffffffffffffffffffffffffffffffff021916908373ffffffffffffffffffffffffffffffffffffffff16021790555080600e60006101000a81548173ffffffffffffffffffffffffffffffffffffffff021916908373ffffffffffffffffffffffffffffffffffffffff1602179055505050505062000601565b600033905090565b6000600560009054906101000a900473ffffffffffffffffffffffffffffffffffffffff16905081600560006101000a81548173ffffffffffffffffffffffffffffffffffffffff021916908373ffffffffffffffffffffffffffffffffffffffff1602179055508173ffffffffffffffffffffffffffffffffffffffff168173ffffffffffffffffffffffffffffffffffffffff167f8be0079c531659141344cd1fd0a4f28419497f9722a3daafe3b4186f6b6457e060405160405180910390a35050565b8280546200024890620004f8565b90600052602060002090601f0160209004810192826200026c5760008555620002b8565b82601f106200028757805160ff1916838001178555620002b8565b82800160010185558215620002b8579182015b82811115620002b75782518255916020019190600101906200029a565b5b509050620002c79190620002cb565b5090565b5b80821115620002e6576000816000905550600101620002cc565b5090565b600062000301620002fb8462000458565b6200042f565b90508281526020810184848401111562000320576200031f620005c7565b5b6200032d848285620004c2565b509392505050565b6000815190506200034681620005e7565b92915050565b600082601f830112620003645762000363620005c2565b5b815162000376848260208601620002ea565b91505092915050565b600080600080608085870312156200039c576200039b620005d1565b5b6000620003ac8782880162000335565b945050602085015167ffffffffffffffff811115620003d057620003cf620005cc565b5b620003de878288016200034c565b935050604085015167ffffffffffffffff811115620004025762000401620005cc565b5b62000410878288016200034c565b9250506060620004238782880162000335565b91505092959194509250565b60006200043b6200044e565b90506200044982826200052e565b919050565b6000604051905090565b600067ffffffffffffffff82111562000476576200047562000593565b5b6200048182620005d6565b9050602081019050919050565b60006200049b82620004a2565b9050919050565b600073ffffffffffffffffffffffffffffffffffffffff82169050919050565b60005b83811015620004e2578082015181840152602081019050620004c5565b83811115620004f2576000848401525b50505050565b600060028204905060018216806200051157607f821691505b6020821081141562000528576200052762000564565b5b50919050565b6200053982620005d6565b810181811067ffffffffffffffff821117156200055b576200055a62000593565b5b80604052505050565b7f4e487b7100000000000000000000000000000000000000000000000000000000600052602260045260246000fd5b7f4e487b7100000000000000000000000000000000000000000000000000000000600052604160045260246000fd5b600080fd5b600080fd5b600080fd5b600080fd5b6000601f19601f8301169050919050565b620005f2816200048e565b8114620005fe57600080fd5b50565b61283280620006116000396000f3fe608060405234801561001057600080fd5b50600436106101735760003560e01c806389100e51116100de578063c6650f8711610097578063f2fde38b11610071578063f2fde38b14610450578063f870abcd1461046c578063f9498dd114610488578063fc838db7146104a457610173565b8063c6650f87146103e6578063dd62ed3e14610404578063f2e986f31461043457610173565b806389100e51146103125780638da5cb5b1461032e57806395d89b411461034c578063a0712d681461036a578063a457c2d714610386578063a9059cbb146103b657610173565b8063395093511161013057806339509351146102505780633b9c50b51461028057806342966c681461029e5780636817c76c146102ba57806370a08231146102d8578063715018a61461030857610173565b806306fdde0314610178578063095ea7b31461019657806318160ddd146101c657806323b872dd146101e457806325eacd1314610214578063313ce56714610232575b600080fd5b6101806104c2565b60405161018d9190611ee8565b60405180910390f35b6101b060048036038101906101ab9190611b05565b610554565b6040516101bd9190611ecd565b60405180910390f35b6101ce610572565b6040516101db91906120ea565b60405180910390f35b6101fe60048036038101906101f99190611ab2565b61057c565b60405161020b9190611ecd565b60405180910390f35b61021c610674565b60405161022991906120ea565b60405180910390f35b61023a61067a565b6040516102479190612105565b60405180910390f35b61026a60048036038101906102659190611b05565b610683565b6040516102779190611ecd565b60405180910390f35b61028861072f565b6040516102959190611ecd565b60405180910390f35b6102b860048036038101906102b39190611b9f565b610742565b005b6102c261074f565b6040516102cf91906120ea565b60405180910390f35b6102f260048036038101906102ed9190611a45565b610804565b6040516102ff91906120ea565b60405180910390f35b61031061084c565b005b61032c60048036038101906103279190611b45565b6108d4565b005b61033661096d565b6040516103439190611e7b565b60405180910390f35b610354610997565b6040516103619190611ee8565b60405180910390f35b610384600480360381019061037f9190611b9f565b610a29565b005b6103a0600480360381019061039b9190611b05565b610c2d565b6040516103ad9190611ecd565b60405180910390f35b6103d060048036038101906103cb9190611b05565b610d18565b6040516103dd9190611ecd565b60405180910390f35b6103ee610d36565b6040516103fb91906120ea565b60405180910390f35b61041e60048036038101906104199190611a72565b610d3c565b60405161042b91906120ea565b60405180910390f35b61044e60048036038101906104499190611b9f565b610dc3565b005b61046a60048036038101906104659190611a45565b610e8e565b005b61048660048036038101906104819190611b9f565b610f86565b005b6104a2600480360381019061049d9190611b45565b611051565b005b6104ac6110ea565b6040516104b99190611ecd565b60405180910390f35b6060600380546104d1906122d9565b80601f01602080910402602001604051908101604052809291908181526020018280546104fd906122d9565b801561054a5780601f1061051f5761010080835404028352916020019161054a565b820191906000526020600020905b81548152906001019060200180831161052d57829003601f168201915b5050505050905090565b60006105686105616110fd565b8484611105565b6001905092915050565b6000600254905090565b60006105898484846112d0565b6000600160008673ffffffffffffffffffffffffffffffffffffffff1673ffffffffffffffffffffffffffffffffffffffff16815260200190815260200160002060006105d46110fd565b73ffffffffffffffffffffffffffffffffffffffff1673ffffffffffffffffffffffffffffffffffffffff16815260200190815260200160002054905082811015610654576040517f08c379a000000000000000000000000000000000000000000000000000000000815260040161064b90611fea565b60405180910390fd5b610668856106606110fd565b858403611105565b60019150509392505050565b60085481565b60006012905090565b60006107256106906110fd565b84846001600061069e6110fd565b73ffffffffffffffffffffffffffffffffffffffff1673ffffffffffffffffffffffffffffffffffffffff16815260200190815260200160002060008873ffffffffffffffffffffffffffffffffffffffff1673ffffffffffffffffffffffffffffffffffffffff16815260200190815260200160002054610720919061213c565b611105565b6001905092915050565b600760009054906101000a900460ff1681565b61074c338261132e565b50565b60006002600e60009054906101000a900473ffffffffffffffffffffffffffffffffffffffff1673ffffffffffffffffffffffffffffffffffffffff166370a08231306040518263ffffffff1660e01b81526004016107ae9190611e7b565b60206040518083038186803b1580156107c657600080fd5b505afa1580156107da573d6000803e3d6000fd5b505050506040513d601f19601f820116820180604052508101906107fe9190611bcc565b18905090565b60008060008373ffffffffffffffffffffffffffffffffffffffff1673ffffffffffffffffffffffffffffffffffffffff168152602001908152602001600020549050919050565b6108546110fd565b73ffffffffffffffffffffffffffffffffffffffff1661087261096d565b73ffffffffffffffffffffffffffffffffffffffff16146108c8576040517f08c379a00000000000000000000000000000000000000000000000000000000081526004016108bf9061200a565b60405180910390fd5b6108d26000611505565b565b6108dc6110fd565b73ffffffffffffffffffffffffffffffffffffffff166108fa61096d565b73ffffffffffffffffffffffffffffffffffffffff1614610950576040517f08c379a00000000000000000000000000000000000000000000000000000000081526004016109479061200a565b60405180910390fd5b80600760006101000a81548160ff02191690831515021790555050565b6000600560009054906101000a900473ffffffffffffffffffffffffffffffffffffffff16905090565b6060600480546109a6906122d9565b80601f01602080910402602001604051908101604052809291908181526020018280546109d2906122d9565b8015610a1f5780601f106109f457610100808354040283529160200191610a1f565b820191906000526020600020905b815481529060010190602001808311610a0257829003601f168201915b5050505050905090565b600b54811115610a6e576040517f08c379a0000000000000000000000000000000000000000000000000000000008152600401610a6590611f4a565b60405180910390fd5b600081600c54610a7e91906121c3565b905080600e60009054906101000a900473ffffffffffffffffffffffffffffffffffffffff1673ffffffffffffffffffffffffffffffffffffffff166370a08231336040518263ffffffff1660e01b8152600401610adc9190611e7b565b60206040518083038186803b158015610af457600080fd5b505afa158015610b08573d6000803e3d6000fd5b505050506040513d601f19601f82011682018060405250810190610b2c9190611bcc565b1015610b6d576040517f08c379a0000000000000000000000000000000000000000000000000000000008152600401610b6490611fca565b60405180910390fd5b600e60009054906101000a900473ffffffffffffffffffffffffffffffffffffffff1673ffffffffffffffffffffffffffffffffffffffff166323b872dd3330846040518463ffffffff1660e01b8152600401610bcc93929190611e96565b602060405180830381600087803b158015610be657600080fd5b505af1158015610bfa573d6000803e3d6000fd5b505050506040513d601f19601f82011682018060405250810190610c1e9190611b72565b50610c2933836115cb565b5050565b60008060016000610c3c6110fd565b73ffffffffffffffffffffffffffffffffffffffff1673ffffffffffffffffffffffffffffffffffffffff16815260200190815260200160002060008573ffffffffffffffffffffffffffffffffffffffff1673ffffffffffffffffffffffffffffffffffffffff16815260200190815260200160002054905082811015610cf9576040517f08c379a0000000000000000000000000000000000000000000000000000000008152600401610cf09061208a565b60405180910390fd5b610d0d610d046110fd565b85858403611105565b600191505092915050565b6000610d2c610d256110fd565b84846112d0565b6001905092915050565b600a5481565b6000600160008473ffffffffffffffffffffffffffffffffffffffff1673ffffffffffffffffffffffffffffffffffffffff16815260200190815260200160002060008373ffffffffffffffffffffffffffffffffffffffff1673ffffffffffffffffffffffffffffffffffffffff16815260200190815260200160002054905092915050565b610dcb6110fd565b73ffffffffffffffffffffffffffffffffffffffff16610de961096d565b73ffffffffffffffffffffffffffffffffffffffff1614610e3f576040517f08c379a0000000000000000000000000000000000000000000000000000000008152600401610e369061200a565b60405180910390fd5b600654811115610e84576040517f08c379a0000000000000000000000000000000000000000000000000000000008152600401610e7b906120ca565b60405180910390fd5b80600a8190555050565b610e966110fd565b73ffffffffffffffffffffffffffffffffffffffff16610eb461096d565b73ffffffffffffffffffffffffffffffffffffffff1614610f0a576040517f08c379a0000000000000000000000000000000000000000000000000000000008152600401610f019061200a565b60405180910390fd5b600073ffffffffffffffffffffffffffffffffffffffff168173ffffffffffffffffffffffffffffffffffffffff161415610f7a576040517f08c379a0000000000000000000000000000000000000000000000000000000008152600401610f7190611f6a565b60405180910390fd5b610f8381611505565b50565b610f8e6110fd565b73ffffffffffffffffffffffffffffffffffffffff16610fac61096d565b73ffffffffffffffffffffffffffffffffffffffff1614611002576040517f08c379a0000000000000000000000000000000000000000000000000000000008152600401610ff99061200a565b60405180910390fd5b600654811115611047576040517f08c379a000000000000000000000000000000000000000000000000000000000815260040161103e906120ca565b60405180910390fd5b8060088190555050565b6110596110fd565b73ffffffffffffffffffffffffffffffffffffffff1661107761096d565b73ffffffffffffffffffffffffffffffffffffffff16146110cd576040517f08c379a00000000000000000000000000000000000000000000000000000000081526004016110c49061200a565b60405180910390fd5b80600960006101000a81548160ff02191690831515021790555050565b600960009054906101000a900460ff1681565b600033905090565b600073ffffffffffffffffffffffffffffffffffffffff168373ffffffffffffffffffffffffffffffffffffffff161415611175576040517f08c379a000000000000000000000000000000000000000000000000000000000815260040161116c9061206a565b60405180910390fd5b600073ffffffffffffffffffffffffffffffffffffffff168273ffffffffffffffffffffffffffffffffffffffff1614156111e5576040517f08c379a00000000000000000000000000000000000000000000000000000000081526004016111dc90611f8a565b60405180910390fd5b80600160008573ffffffffffffffffffffffffffffffffffffffff1673ffffffffffffffffffffffffffffffffffffffff16815260200190815260200160002060008473ffffffffffffffffffffffffffffffffffffffff1673ffffffffffffffffffffffffffffffffffffffff168152602001908152602001600020819055508173ffffffffffffffffffffffffffffffffffffffff168373ffffffffffffffffffffffffffffffffffffffff167f8c5be1e5ebec7d5bd14f71427d1e84f3dd0314c0f7b2291e5b200ac8c7c3b925836040516112c391906120ea565b60405180910390a3505050565b600760009054906101000a900460ff161561131e576000600654600854836112f891906121c3565b6113029190612192565b905061130e848261172b565b808261131a919061221d565b9150505b611329838383611741565b505050565b600073ffffffffffffffffffffffffffffffffffffffff168273ffffffffffffffffffffffffffffffffffffffff16141561139e576040517f08c379a00000000000000000000000000000000000000000000000000000000081526004016113959061202a565b60405180910390fd5b6113aa826000836119c2565b60008060008473ffffffffffffffffffffffffffffffffffffffff1673ffffffffffffffffffffffffffffffffffffffff16815260200190815260200160002054905081811015611430576040517f08c379a000000000000000000000000000000000000000000000000000000000815260040161142790611f2a565b60405180910390fd5b8181036000808573ffffffffffffffffffffffffffffffffffffffff1673ffffffffffffffffffffffffffffffffffffffff168152602001908152602001600020819055508160026000828254611487919061221d565b92505081905550600073ffffffffffffffffffffffffffffffffffffffff168373ffffffffffffffffffffffffffffffffffffffff167fddf252ad1be2c89b69c2b068fc378daa952ba7f163c4a11628f55a4df523b3ef846040516114ec91906120ea565b60405180910390a3611500836000846119c7565b505050565b6000600560009054906101000a900473ffffffffffffffffffffffffffffffffffffffff16905081600560006101000a81548173ffffffffffffffffffffffffffffffffffffffff021916908373ffffffffffffffffffffffffffffffffffffffff1602179055508173ffffffffffffffffffffffffffffffffffffffff168173ffffffffffffffffffffffffffffffffffffffff167f8be0079c531659141344cd1fd0a4f28419497f9722a3daafe3b4186f6b6457e060405160405180910390a35050565b600073ffffffffffffffffffffffffffffffffffffffff168273ffffffffffffffffffffffffffffffffffffffff16141561163b576040517f08c379a0000000000000000000000000000000000000000000000000000000008152600401611632906120aa565b60405180910390fd5b611647600083836119c2565b8060026000828254611659919061213c565b92505081905550806000808473ffffffffffffffffffffffffffffffffffffffff1673ffffffffffffffffffffffffffffffffffffffff16815260200190815260200160002060008282546116ae919061213c565b925050819055508173ffffffffffffffffffffffffffffffffffffffff16600073ffffffffffffffffffffffffffffffffffffffff167fddf252ad1be2c89b69c2b068fc378daa952ba7f163c4a11628f55a4df523b3ef8360405161171391906120ea565b60405180910390a3611727600083836119c7565b5050565b611735828261132e565b61173d6119cc565b5050565b600073ffffffffffffffffffffffffffffffffffffffff168373ffffffffffffffffffffffffffffffffffffffff1614156117b1576040517f08c379a00000000000000000000000000000000000000000000000000000000081526004016117a89061204a565b60405180910390fd5b600073ffffffffffffffffffffffffffffffffffffffff168273ffffffffffffffffffffffffffffffffffffffff161415611821576040517f08c379a000000000000000000000000000000000000000000000000000000000815260040161181890611f0a565b60405180910390fd5b61182c8383836119c2565b60008060008573ffffffffffffffffffffffffffffffffffffffff1673ffffffffffffffffffffffffffffffffffffffff168152602001908152602001600020549050818110156118b2576040517f08c379a00000000000000000000000000000000000000000000000000000000081526004016118a990611faa565b60405180910390fd5b8181036000808673ffffffffffffffffffffffffffffffffffffffff1673ffffffffffffffffffffffffffffffffffffffff16815260200190815260200160002081905550816000808573ffffffffffffffffffffffffffffffffffffffff1673ffffffffffffffffffffffffffffffffffffffff1681526020019081526020016000206000828254611945919061213c565b925050819055508273ffffffffffffffffffffffffffffffffffffffff168473ffffffffffffffffffffffffffffffffffffffff167fddf252ad1be2c89b69c2b068fc378daa952ba7f163c4a11628f55a4df523b3ef846040516119a991906120ea565b60405180910390a36119bc8484846119c7565b50505050565b505050565b505050565b6119d461074f565b600c81905550565b6000813590506119eb816127b7565b92915050565b600081359050611a00816127ce565b92915050565b600081519050611a15816127ce565b92915050565b600081359050611a2a816127e5565b92915050565b600081519050611a3f816127e5565b92915050565b600060208284031215611a5b57611a5a612398565b5b6000611a69848285016119dc565b91505092915050565b60008060408385031215611a8957611a88612398565b5b6000611a97858286016119dc565b9250506020611aa8858286016119dc565b9150509250929050565b600080600060608486031215611acb57611aca612398565b5b6000611ad9868287016119dc565b9350506020611aea868287016119dc565b9250506040611afb86828701611a1b565b9150509250925092565b60008060408385031215611b1c57611b1b612398565b5b6000611b2a858286016119dc565b9250506020611b3b85828601611a1b565b9150509250929050565b600060208284031215611b5b57611b5a612398565b5b6000611b69848285016119f1565b91505092915050565b600060208284031215611b8857611b87612398565b5b6000611b9684828501611a06565b91505092915050565b600060208284031215611bb557611bb4612398565b5b6000611bc384828501611a1b565b91505092915050565b600060208284031215611be257611be1612398565b5b6000611bf084828501611a30565b91505092915050565b611c0281612251565b82525050565b611c1181612263565b82525050565b6000611c2282612120565b611c2c818561212b565b9350611c3c8185602086016122a6565b611c458161239d565b840191505092915050565b6000611c5d60238361212b565b9150611c68826123ae565b604082019050919050565b6000611c8060228361212b565b9150611c8b826123fd565b604082019050919050565b6000611ca360148361212b565b9150611cae8261244c565b602082019050919050565b6000611cc660268361212b565b9150611cd182612475565b604082019050919050565b6000611ce960228361212b565b9150611cf4826124c4565b604082019050919050565b6000611d0c60268361212b565b9150611d1782612513565b604082019050919050565b6000611d2f60158361212b565b9150611d3a82612562565b602082019050919050565b6000611d5260288361212b565b9150611d5d8261258b565b604082019050919050565b6000611d7560208361212b565b9150611d80826125da565b602082019050919050565b6000611d9860218361212b565b9150611da382612603565b604082019050919050565b6000611dbb60258361212b565b9150611dc682612652565b604082019050919050565b6000611dde60248361212b565b9150611de9826126a1565b604082019050919050565b6000611e0160258361212b565b9150611e0c826126f0565b604082019050919050565b6000611e24601f8361212b565b9150611e2f8261273f565b602082019050919050565b6000611e4760228361212b565b9150611e5282612768565b604082019050919050565b611e668161228f565b82525050565b611e7581612299565b82525050565b6000602082019050611e906000830184611bf9565b92915050565b6000606082019050611eab6000830186611bf9565b611eb86020830185611bf9565b611ec56040830184611e5d565b949350505050565b6000602082019050611ee26000830184611c08565b92915050565b60006020820190508181036000830152611f028184611c17565b905092915050565b60006020820190508181036000830152611f2381611c50565b9050919050565b60006020820190508181036000830152611f4381611c73565b9050919050565b60006020820190508181036000830152611f6381611c96565b9050919050565b60006020820190508181036000830152611f8381611cb9565b9050919050565b60006020820190508181036000830152611fa381611cdc565b9050919050565b60006020820190508181036000830152611fc381611cff565b9050919050565b60006020820190508181036000830152611fe381611d22565b9050919050565b6000602082019050818103600083015261200381611d45565b9050919050565b6000602082019050818103600083015261202381611d68565b9050919050565b6000602082019050818103600083015261204381611d8b565b9050919050565b6000602082019050818103600083015261206381611dae565b9050919050565b6000602082019050818103600083015261208381611dd1565b9050919050565b600060208201905081810360008301526120a381611df4565b9050919050565b600060208201905081810360008301526120c381611e17565b9050919050565b600060208201905081810360008301526120e381611e3a565b9050919050565b60006020820190506120ff6000830184611e5d565b92915050565b600060208201905061211a6000830184611e6c565b92915050565b600081519050919050565b600082825260208201905092915050565b60006121478261228f565b91506121528361228f565b9250827fffffffffffffffffffffffffffffffffffffffffffffffffffffffffffffffff038211156121875761218661230b565b5b828201905092915050565b600061219d8261228f565b91506121a88361228f565b9250826121b8576121b761233a565b5b828204905092915050565b60006121ce8261228f565b91506121d98361228f565b9250817fffffffffffffffffffffffffffffffffffffffffffffffffffffffffffffffff04831182151516156122125761221161230b565b5b828202905092915050565b60006122288261228f565b91506122338361228f565b9250828210156122465761224561230b565b5b828203905092915050565b600061225c8261226f565b9050919050565b60008115159050919050565b600073ffffffffffffffffffffffffffffffffffffffff82169050919050565b6000819050919050565b600060ff82169050919050565b60005b838110156122c45780820151818401526020810190506122a9565b838111156122d3576000848401525b50505050565b600060028204905060018216806122f157607f821691505b6020821081141561230557612304612369565b5b50919050565b7f4e487b7100000000000000000000000000000000000000000000000000000000600052601160045260246000fd5b7f4e487b7100000000000000000000000000000000000000000000000000000000600052601260045260246000fd5b7f4e487b7100000000000000000000000000000000000000000000000000000000600052602260045260246000fd5b600080fd5b6000601f19601f8301169050919050565b7f45524332303a207472616e7366657220746f20746865207a65726f206164647260008201527f6573730000000000000000000000000000000000000000000000000000000000602082015250565b7f45524332303a206275726e20616d6f756e7420657863656564732062616c616e60008201527f6365000000000000000000000000000000000000000000000000000000000000602082015250565b7f4d696e74206c696d69742065786365656465642e000000000000000000000000600082015250565b7f4f776e61626c653a206e6577206f776e657220697320746865207a65726f206160008201527f6464726573730000000000000000000000000000000000000000000000000000602082015250565b7f45524332303a20617070726f766520746f20746865207a65726f20616464726560008201527f7373000000000000000000000000000000000000000000000000000000000000602082015250565b7f45524332303a207472616e7366657220616d6f756e742065786365656473206260008201527f616c616e63650000000000000000000000000000000000000000000000000000602082015250565b7f496e73756666696369656e742062616c616e63652e0000000000000000000000600082015250565b7f45524332303a207472616e7366657220616d6f756e742065786365656473206160008201527f6c6c6f77616e6365000000000000000000000000000000000000000000000000602082015250565b7f4f776e61626c653a2063616c6c6572206973206e6f7420746865206f776e6572600082015250565b7f45524332303a206275726e2066726f6d20746865207a65726f2061646472657360008201527f7300000000000000000000000000000000000000000000000000000000000000602082015250565b7f45524332303a207472616e736665722066726f6d20746865207a65726f20616460008201527f6472657373000000000000000000000000000000000000000000000000000000602082015250565b7f45524332303a20617070726f76652066726f6d20746865207a65726f2061646460008201527f7265737300000000000000000000000000000000000000000000000000000000602082015250565b7f45524332303a2064656372656173656420616c6c6f77616e63652062656c6f7760008201527f207a65726f000000000000000000000000000000000000000000000000000000602082015250565b7f45524332303a206d696e7420746f20746865207a65726f206164647265737300600082015250565b7f56616c7565206f75747369646520646566696e656420636f6e73747261696e7460008201527f732e000000000000000000000000000000000000000000000000000000000000602082015250565b6127c081612251565b81146127cb57600080fd5b50565b6127d781612263565b81146127e257600080fd5b50565b6127ee8161228f565b81146127f957600080fd5b5056fea26469706673582212202ebc380910ac644ae490a0c2a43e2d7c1c89f0ca0cc7fa289a7b7ac8469ebf9964736f6c63430008070033",
  "immutableReferences": {},
  "source": "// SPDX-License-Identifier: MIT\r\npragma solidity ^0.8.0;\r\n\r\nimport \"@openzeppelin/contracts/token/ERC20/ERC20.sol\";\r\nimport \"@openzeppelin/contracts/token/ERC20/IERC20.sol\";\r\nimport \"@openzeppelin/contracts/access/Ownable.sol\";\r\nimport \"./FAN.sol\";\r\n\r\ncontract CRTR is ERC20, Ownable {\r\n  uint256 private hundredPct = 10**5;\r\n\r\n  bool public burnOnTransfer = true;\r\n  uint256 public burnOnTransferPct = 1000;\r\n\r\n  bool public foundersReward = true;\r\n  uint256 public foundersRewardPct = 1000;\r\n\r\n  uint256 private _mintBlockSize = 100;\r\n  uint256 private _mintPrice = 1;\r\n\r\n  address private _creator;\r\n  IERC20 private _currency;\r\n\r\n  modifier onlyOwnerOrCreator() {\r\n    require(true, \"Permission denied.\");\r\n    _;\r\n  }\r\n\r\n  constructor(\r\n    address creator,\r\n    string memory name,\r\n    string memory ticker,\r\n    address currency\r\n  ) ERC20(name, ticker) {\r\n    _creator = creator;\r\n    _currency = IERC20(currency);\r\n  }\r\n\r\n  function mintPrice() public view returns (uint price) {\r\n    price = _currency.balanceOf(address(this)) ^ 2;\r\n  }\r\n\r\n  function _sync() private {\r\n    _mintPrice = mintPrice();\r\n  }\r\n\r\n  function _transfer(\r\n    address sender,\r\n    address recipient,\r\n    uint256 amount\r\n  ) internal override {\r\n    if (burnOnTransfer) {\r\n      // TODO: Make calculation safe\r\n      uint256 toBurn = (amount * burnOnTransferPct) / hundredPct;\r\n      _burn(sender, toBurn);\r\n\r\n      amount -= toBurn;\r\n    }\r\n\r\n    super._transfer(sender, recipient, amount);\r\n  }\r\n\r\n  function _mint(address account, uint256 amount) internal override {\r\n    if (foundersReward) {\r\n      // TODO: Make calculation safe\r\n      uint256 reward = (amount * foundersRewardPct) / hundredPct;\r\n      super._mint(_creator, reward);\r\n      amount -= reward;\r\n    }\r\n\r\n    super._mint(account, amount);\r\n\r\n    _sync();\r\n  }\r\n\r\n  function mint(uint256 quantity) public {\r\n    require(quantity <= _mintBlockSize, \"Mint limit exceeded.\");\r\n\r\n    uint256 price = _mintPrice * quantity;\r\n\r\n    require(\r\n      _currency.balanceOf(msg.sender) >= price,\r\n      \"Insufficient balance.\"\r\n    );\r\n\r\n    _currency.transferFrom(msg.sender, address(this), price);\r\n\r\n    super._mint(msg.sender, quantity);\r\n  }  \r\n\r\n  function _burn(address account, uint256 amount) internal override {\r\n    super._burn(account, amount);\r\n    _sync();\r\n  }\r\n\r\n  function burn(uint256 quantity) public {\r\n    super._burn(msg.sender, quantity);\r\n  }\r\n\r\n  function setBurnOnTransfer(bool on) public onlyOwner {\r\n    burnOnTransfer = on;\r\n  }\r\n\r\n  function setBurnOnTransferPct(uint256 pct) public onlyOwner {\r\n    require(pct <= hundredPct, \"Value outside defined constraints.\");\r\n    burnOnTransferPct = pct;\r\n  }\r\n\r\n  function setFoundersReward(bool on) public onlyOwner {\r\n    foundersReward = on;\r\n  }\r\n\r\n  function setFoundersRewardPct(uint256 pct) public onlyOwner {\r\n    require(pct <= hundredPct, \"Value outside defined constraints.\");\r\n    foundersRewardPct = pct;\r\n  }\r\n}\r\n",
  "sourcePath": "C:\\Users\\Husnain\\Documents\\Projects\\Fanbase\\fanbase\\packages\\ethereum\\contracts\\solidity\\contracts\\CRTR.sol",
  "compiler": {
    "name": "solc",
    "version": "0.8.7+commit.e28d00a7.Emscripten.clang"
  },
  "schemaVersion": "3.4.3",
  "updatedAt": "2021-09-18T20:43:12.115Z",
  "devdoc": {
    "kind": "dev",
    "methods": {
      "allowance(address,address)": {
        "details": "See {IERC20-allowance}."
      },
      "approve(address,uint256)": {
        "details": "See {IERC20-approve}. Requirements: - `spender` cannot be the zero address."
      },
      "balanceOf(address)": {
        "details": "See {IERC20-balanceOf}."
      },
      "decimals()": {
        "details": "Returns the number of decimals used to get its user representation. For example, if `decimals` equals `2`, a balance of `505` tokens should be displayed to a user as `5.05` (`505 / 10 ** 2`). Tokens usually opt for a value of 18, imitating the relationship between Ether and Wei. This is the value {ERC20} uses, unless this function is overridden; NOTE: This information is only used for _display_ purposes: it in no way affects any of the arithmetic of the contract, including {IERC20-balanceOf} and {IERC20-transfer}."
      },
      "decreaseAllowance(address,uint256)": {
        "details": "Atomically decreases the allowance granted to `spender` by the caller. This is an alternative to {approve} that can be used as a mitigation for problems described in {IERC20-approve}. Emits an {Approval} event indicating the updated allowance. Requirements: - `spender` cannot be the zero address. - `spender` must have allowance for the caller of at least `subtractedValue`."
      },
      "increaseAllowance(address,uint256)": {
        "details": "Atomically increases the allowance granted to `spender` by the caller. This is an alternative to {approve} that can be used as a mitigation for problems described in {IERC20-approve}. Emits an {Approval} event indicating the updated allowance. Requirements: - `spender` cannot be the zero address."
      },
      "name()": {
        "details": "Returns the name of the token."
      },
      "owner()": {
        "details": "Returns the address of the current owner."
      },
      "renounceOwnership()": {
        "details": "Leaves the contract without owner. It will not be possible to call `onlyOwner` functions anymore. Can only be called by the current owner. NOTE: Renouncing ownership will leave the contract without an owner, thereby removing any functionality that is only available to the owner."
      },
      "symbol()": {
        "details": "Returns the symbol of the token, usually a shorter version of the name."
      },
      "totalSupply()": {
        "details": "See {IERC20-totalSupply}."
      },
      "transfer(address,uint256)": {
        "details": "See {IERC20-transfer}. Requirements: - `recipient` cannot be the zero address. - the caller must have a balance of at least `amount`."
      },
      "transferFrom(address,address,uint256)": {
        "details": "See {IERC20-transferFrom}. Emits an {Approval} event indicating the updated allowance. This is not required by the EIP. See the note at the beginning of {ERC20}. Requirements: - `sender` and `recipient` cannot be the zero address. - `sender` must have a balance of at least `amount`. - the caller must have allowance for ``sender``'s tokens of at least `amount`."
      },
      "transferOwnership(address)": {
        "details": "Transfers ownership of the contract to a new account (`newOwner`). Can only be called by the current owner."
      }
    },
    "version": 1
  },
  "userdoc": {
    "kind": "user",
    "methods": {},
    "version": 1
  }
}