{
  "contractName": "CRTR",
  "abi": [
    {
      "inputs": [
        {
          "internalType": "address",
          "name": "creator",
          "type": "address"
        },
        {
          "internalType": "string",
          "name": "name",
          "type": "string"
        },
        {
          "internalType": "string",
          "name": "ticker",
          "type": "string"
        },
        {
          "internalType": "address",
          "name": "currency",
          "type": "address"
        }
      ],
      "stateMutability": "nonpayable",
      "type": "constructor"
    },
    {
      "anonymous": false,
      "inputs": [
        {
          "indexed": true,
          "internalType": "address",
          "name": "owner",
          "type": "address"
        },
        {
          "indexed": true,
          "internalType": "address",
          "name": "spender",
          "type": "address"
        },
        {
          "indexed": false,
          "internalType": "uint256",
          "name": "value",
          "type": "uint256"
        }
      ],
      "name": "Approval",
      "type": "event"
    },
    {
      "anonymous": false,
      "inputs": [
        {
          "indexed": true,
          "internalType": "address",
          "name": "previousOwner",
          "type": "address"
        },
        {
          "indexed": true,
          "internalType": "address",
          "name": "newOwner",
          "type": "address"
        }
      ],
      "name": "OwnershipTransferred",
      "type": "event"
    },
    {
      "anonymous": false,
      "inputs": [
        {
          "indexed": true,
          "internalType": "address",
          "name": "from",
          "type": "address"
        },
        {
          "indexed": true,
          "internalType": "address",
          "name": "to",
          "type": "address"
        },
        {
          "indexed": false,
          "internalType": "uint256",
          "name": "value",
          "type": "uint256"
        }
      ],
      "name": "Transfer",
      "type": "event"
    },
    {
      "inputs": [
        {
          "internalType": "address",
          "name": "owner",
          "type": "address"
        },
        {
          "internalType": "address",
          "name": "spender",
          "type": "address"
        }
      ],
      "name": "allowance",
      "outputs": [
        {
          "internalType": "uint256",
          "name": "",
          "type": "uint256"
        }
      ],
      "stateMutability": "view",
      "type": "function"
    },
    {
      "inputs": [
        {
          "internalType": "address",
          "name": "spender",
          "type": "address"
        },
        {
          "internalType": "uint256",
          "name": "amount",
          "type": "uint256"
        }
      ],
      "name": "approve",
      "outputs": [
        {
          "internalType": "bool",
          "name": "",
          "type": "bool"
        }
      ],
      "stateMutability": "nonpayable",
      "type": "function"
    },
    {
      "inputs": [
        {
          "internalType": "address",
          "name": "account",
          "type": "address"
        }
      ],
      "name": "balanceOf",
      "outputs": [
        {
          "internalType": "uint256",
          "name": "",
          "type": "uint256"
        }
      ],
      "stateMutability": "view",
      "type": "function"
    },
    {
      "inputs": [],
      "name": "burnOnTransfer",
      "outputs": [
        {
          "internalType": "bool",
          "name": "",
          "type": "bool"
        }
      ],
      "stateMutability": "view",
      "type": "function"
    },
    {
      "inputs": [],
      "name": "burnOnTransferPct",
      "outputs": [
        {
          "internalType": "uint256",
          "name": "",
          "type": "uint256"
        }
      ],
      "stateMutability": "view",
      "type": "function"
    },
    {
      "inputs": [],
      "name": "decimals",
      "outputs": [
        {
          "internalType": "uint8",
          "name": "",
          "type": "uint8"
        }
      ],
      "stateMutability": "view",
      "type": "function"
    },
    {
      "inputs": [
        {
          "internalType": "address",
          "name": "spender",
          "type": "address"
        },
        {
          "internalType": "uint256",
          "name": "subtractedValue",
          "type": "uint256"
        }
      ],
      "name": "decreaseAllowance",
      "outputs": [
        {
          "internalType": "bool",
          "name": "",
          "type": "bool"
        }
      ],
      "stateMutability": "nonpayable",
      "type": "function"
    },
    {
      "inputs": [],
      "name": "foundersReward",
      "outputs": [
        {
          "internalType": "bool",
          "name": "",
          "type": "bool"
        }
      ],
      "stateMutability": "view",
      "type": "function"
    },
    {
      "inputs": [],
      "name": "foundersRewardPct",
      "outputs": [
        {
          "internalType": "uint256",
          "name": "",
          "type": "uint256"
        }
      ],
      "stateMutability": "view",
      "type": "function"
    },
    {
      "inputs": [
        {
          "internalType": "address",
          "name": "spender",
          "type": "address"
        },
        {
          "internalType": "uint256",
          "name": "addedValue",
          "type": "uint256"
        }
      ],
      "name": "increaseAllowance",
      "outputs": [
        {
          "internalType": "bool",
          "name": "",
          "type": "bool"
        }
      ],
      "stateMutability": "nonpayable",
      "type": "function"
    },
    {
      "inputs": [],
      "name": "name",
      "outputs": [
        {
          "internalType": "string",
          "name": "",
          "type": "string"
        }
      ],
      "stateMutability": "view",
      "type": "function"
    },
    {
      "inputs": [],
      "name": "owner",
      "outputs": [
        {
          "internalType": "address",
          "name": "",
          "type": "address"
        }
      ],
      "stateMutability": "view",
      "type": "function"
    },
    {
      "inputs": [],
      "name": "renounceOwnership",
      "outputs": [],
      "stateMutability": "nonpayable",
      "type": "function"
    },
    {
      "inputs": [],
      "name": "symbol",
      "outputs": [
        {
          "internalType": "string",
          "name": "",
          "type": "string"
        }
      ],
      "stateMutability": "view",
      "type": "function"
    },
    {
      "inputs": [],
      "name": "totalSupply",
      "outputs": [
        {
          "internalType": "uint256",
          "name": "",
          "type": "uint256"
        }
      ],
      "stateMutability": "view",
      "type": "function"
    },
    {
      "inputs": [
        {
          "internalType": "address",
          "name": "recipient",
          "type": "address"
        },
        {
          "internalType": "uint256",
          "name": "amount",
          "type": "uint256"
        }
      ],
      "name": "transfer",
      "outputs": [
        {
          "internalType": "bool",
          "name": "",
          "type": "bool"
        }
      ],
      "stateMutability": "nonpayable",
      "type": "function"
    },
    {
      "inputs": [
        {
          "internalType": "address",
          "name": "sender",
          "type": "address"
        },
        {
          "internalType": "address",
          "name": "recipient",
          "type": "address"
        },
        {
          "internalType": "uint256",
          "name": "amount",
          "type": "uint256"
        }
      ],
      "name": "transferFrom",
      "outputs": [
        {
          "internalType": "bool",
          "name": "",
          "type": "bool"
        }
      ],
      "stateMutability": "nonpayable",
      "type": "function"
    },
    {
      "inputs": [
        {
          "internalType": "address",
          "name": "newOwner",
          "type": "address"
        }
      ],
      "name": "transferOwnership",
      "outputs": [],
      "stateMutability": "nonpayable",
      "type": "function"
    },
    {
      "inputs": [],
      "name": "mintPrice",
      "outputs": [
        {
          "internalType": "uint256",
          "name": "price",
          "type": "uint256"
        }
      ],
      "stateMutability": "view",
      "type": "function"
    },
    {
      "inputs": [
        {
          "internalType": "uint256",
          "name": "quantity",
          "type": "uint256"
        }
      ],
      "name": "burn",
      "outputs": [],
      "stateMutability": "nonpayable",
      "type": "function"
    },
    {
      "inputs": [
        {
          "internalType": "uint256",
          "name": "quantity",
          "type": "uint256"
        }
      ],
      "name": "mint",
      "outputs": [],
      "stateMutability": "nonpayable",
      "type": "function"
    },
    {
      "inputs": [
        {
          "internalType": "bool",
          "name": "on",
          "type": "bool"
        }
      ],
      "name": "setBurnOnTransfer",
      "outputs": [],
      "stateMutability": "nonpayable",
      "type": "function"
    },
    {
      "inputs": [
        {
          "internalType": "uint256",
          "name": "pct",
          "type": "uint256"
        }
      ],
      "name": "setBurnOnTransferPct",
      "outputs": [],
      "stateMutability": "nonpayable",
      "type": "function"
    }
  ],
  "bytecode": "0x6080604052620186a06006556001600760006101000a81548160ff0219169083151502179055506103e86008556001600960006101000a81548160ff0219169083151502179055506103e8600a556064600b556001600c553480156200006457600080fd5b5060405162002c7c38038062002c7c83398181016040528101906200008a91906200033e565b82828160039080519060200190620000a492919062000205565b508060049080519060200190620000bd92919062000205565b5050506000620000d2620001fd60201b60201c565b905080600560006101000a81548173ffffffffffffffffffffffffffffffffffffffff021916908373ffffffffffffffffffffffffffffffffffffffff1602179055508073ffffffffffffffffffffffffffffffffffffffff16600073ffffffffffffffffffffffffffffffffffffffff167f8be0079c531659141344cd1fd0a4f28419497f9722a3daafe3b4186f6b6457e060405160405180910390a35083600d60006101000a81548173ffffffffffffffffffffffffffffffffffffffff021916908373ffffffffffffffffffffffffffffffffffffffff16021790555080600e60006101000a81548173ffffffffffffffffffffffffffffffffffffffff021916908373ffffffffffffffffffffffffffffffffffffffff160217905550505050506200059a565b600033905090565b8280546200021390620004a5565b90600052602060002090601f01602090048101928262000237576000855562000283565b82601f106200025257805160ff191683800117855562000283565b8280016001018555821562000283579182015b828111156200028257825182559160200191906001019062000265565b5b50905062000292919062000296565b5090565b5b80821115620002b157600081600090555060010162000297565b5090565b6000620002cc620002c68462000405565b620003dc565b905082815260208101848484011115620002e557600080fd5b620002f28482856200046f565b509392505050565b6000815190506200030b8162000580565b92915050565b600082601f8301126200032357600080fd5b815162000335848260208601620002b5565b91505092915050565b600080600080608085870312156200035557600080fd5b60006200036587828801620002fa565b945050602085015167ffffffffffffffff8111156200038357600080fd5b620003918782880162000311565b935050604085015167ffffffffffffffff811115620003af57600080fd5b620003bd8782880162000311565b9250506060620003d087828801620002fa565b91505092959194509250565b6000620003e8620003fb565b9050620003f68282620004db565b919050565b6000604051905090565b600067ffffffffffffffff82111562000423576200042262000540565b5b6200042e826200056f565b9050602081019050919050565b600062000448826200044f565b9050919050565b600073ffffffffffffffffffffffffffffffffffffffff82169050919050565b60005b838110156200048f57808201518184015260208101905062000472565b838111156200049f576000848401525b50505050565b60006002820490506001821680620004be57607f821691505b60208210811415620004d557620004d462000511565b5b50919050565b620004e6826200056f565b810181811067ffffffffffffffff8211171562000508576200050762000540565b5b80604052505050565b7f4e487b7100000000000000000000000000000000000000000000000000000000600052602260045260246000fd5b7f4e487b7100000000000000000000000000000000000000000000000000000000600052604160045260246000fd5b6000601f19601f8301169050919050565b6200058b816200043b565b81146200059757600080fd5b50565b6126d280620005aa6000396000f3fe608060405234801561001057600080fd5b506004361061014d5760003560e01c8063715018a6116100c3578063a9059cbb1161007c578063a9059cbb14610390578063c6650f87146103c0578063dd62ed3e146103de578063f2fde38b1461040e578063f870abcd1461042a578063fc838db7146104465761014d565b8063715018a6146102e257806389100e51146102ec5780638da5cb5b1461030857806395d89b4114610326578063a0712d6814610344578063a457c2d7146103605761014d565b8063313ce56711610115578063313ce5671461020c578063395093511461022a5780633b9c50b51461025a57806342966c68146102785780636817c76c1461029457806370a08231146102b25761014d565b806306fdde0314610152578063095ea7b31461017057806318160ddd146101a057806323b872dd146101be57806325eacd13146101ee575b600080fd5b61015a610464565b6040516101679190611d8d565b60405180910390f35b61018a600480360381019061018591906119be565b6104f6565b6040516101979190611d72565b60405180910390f35b6101a8610514565b6040516101b59190611f8f565b60405180910390f35b6101d860048036038101906101d3919061196f565b61051e565b6040516101e59190611d72565b60405180910390f35b6101f6610616565b6040516102039190611f8f565b60405180910390f35b61021461061c565b6040516102219190611faa565b60405180910390f35b610244600480360381019061023f91906119be565b610625565b6040516102519190611d72565b60405180910390f35b6102626106d1565b60405161026f9190611d72565b60405180910390f35b610292600480360381019061028d9190611a4c565b6106e4565b005b61029c6106f1565b6040516102a99190611f8f565b60405180910390f35b6102cc60048036038101906102c7919061190a565b6107a6565b6040516102d99190611f8f565b60405180910390f35b6102ea6107ee565b005b610306600480360381019061030191906119fa565b61092b565b005b6103106109c4565b60405161031d9190611d20565b60405180910390f35b61032e6109ee565b60405161033b9190611d8d565b60405180910390f35b61035e60048036038101906103599190611a4c565b610a80565b005b61037a600480360381019061037591906119be565b610c84565b6040516103879190611d72565b60405180910390f35b6103aa60048036038101906103a591906119be565b610d6f565b6040516103b79190611d72565b60405180910390f35b6103c8610d8d565b6040516103d59190611f8f565b60405180910390f35b6103f860048036038101906103f39190611933565b610d93565b6040516104059190611f8f565b60405180910390f35b6104286004803603810190610423919061190a565b610e1a565b005b610444600480360381019061043f9190611a4c565b610fc6565b005b61044e61109d565b60405161045b9190611d72565b60405180910390f35b6060600380546104739061217e565b80601f016020809104026020016040519081016040528092919081815260200182805461049f9061217e565b80156104ec5780601f106104c1576101008083540402835291602001916104ec565b820191906000526020600020905b8154815290600101906020018083116104cf57829003601f168201915b5050505050905090565b600061050a6105036110b0565b84846110b8565b6001905092915050565b6000600254905090565b600061052b848484611283565b6000600160008673ffffffffffffffffffffffffffffffffffffffff1673ffffffffffffffffffffffffffffffffffffffff16815260200190815260200160002060006105766110b0565b73ffffffffffffffffffffffffffffffffffffffff1673ffffffffffffffffffffffffffffffffffffffff168152602001908152602001600020549050828110156105f6576040517f08c379a00000000000000000000000000000000000000000000000000000000081526004016105ed90611e8f565b60405180910390fd5b61060a856106026110b0565b8584036110b8565b60019150509392505050565b60085481565b60006012905090565b60006106c76106326110b0565b8484600160006106406110b0565b73ffffffffffffffffffffffffffffffffffffffff1673ffffffffffffffffffffffffffffffffffffffff16815260200190815260200160002060008873ffffffffffffffffffffffffffffffffffffffff1673ffffffffffffffffffffffffffffffffffffffff168152602001908152602001600020546106c29190611fe1565b6110b8565b6001905092915050565b600760009054906101000a900460ff1681565b6106ee33826112e1565b50565b60006002600e60009054906101000a900473ffffffffffffffffffffffffffffffffffffffff1673ffffffffffffffffffffffffffffffffffffffff166370a08231306040518263ffffffff1660e01b81526004016107509190611d20565b60206040518083038186803b15801561076857600080fd5b505afa15801561077c573d6000803e3d6000fd5b505050506040513d601f19601f820116820180604052508101906107a09190611a75565b18905090565b60008060008373ffffffffffffffffffffffffffffffffffffffff1673ffffffffffffffffffffffffffffffffffffffff168152602001908152602001600020549050919050565b6107f66110b0565b73ffffffffffffffffffffffffffffffffffffffff166108146109c4565b73ffffffffffffffffffffffffffffffffffffffff161461086a576040517f08c379a000000000000000000000000000000000000000000000000000000000815260040161086190611eaf565b60405180910390fd5b600073ffffffffffffffffffffffffffffffffffffffff16600560009054906101000a900473ffffffffffffffffffffffffffffffffffffffff1673ffffffffffffffffffffffffffffffffffffffff167f8be0079c531659141344cd1fd0a4f28419497f9722a3daafe3b4186f6b6457e060405160405180910390a36000600560006101000a81548173ffffffffffffffffffffffffffffffffffffffff021916908373ffffffffffffffffffffffffffffffffffffffff160217905550565b6109336110b0565b73ffffffffffffffffffffffffffffffffffffffff166109516109c4565b73ffffffffffffffffffffffffffffffffffffffff16146109a7576040517f08c379a000000000000000000000000000000000000000000000000000000000815260040161099e90611eaf565b60405180910390fd5b80600760006101000a81548160ff02191690831515021790555050565b6000600560009054906101000a900473ffffffffffffffffffffffffffffffffffffffff16905090565b6060600480546109fd9061217e565b80601f0160208091040260200160405190810160405280929190818152602001828054610a299061217e565b8015610a765780601f10610a4b57610100808354040283529160200191610a76565b820191906000526020600020905b815481529060010190602001808311610a5957829003601f168201915b5050505050905090565b600b54811115610ac5576040517f08c379a0000000000000000000000000000000000000000000000000000000008152600401610abc90611def565b60405180910390fd5b600081600c54610ad59190612068565b905080600e60009054906101000a900473ffffffffffffffffffffffffffffffffffffffff1673ffffffffffffffffffffffffffffffffffffffff166370a08231336040518263ffffffff1660e01b8152600401610b339190611d20565b60206040518083038186803b158015610b4b57600080fd5b505afa158015610b5f573d6000803e3d6000fd5b505050506040513d601f19601f82011682018060405250810190610b839190611a75565b1015610bc4576040517f08c379a0000000000000000000000000000000000000000000000000000000008152600401610bbb90611e6f565b60405180910390fd5b600e60009054906101000a900473ffffffffffffffffffffffffffffffffffffffff1673ffffffffffffffffffffffffffffffffffffffff166323b872dd3330846040518463ffffffff1660e01b8152600401610c2393929190611d3b565b602060405180830381600087803b158015610c3d57600080fd5b505af1158015610c51573d6000803e3d6000fd5b505050506040513d601f19601f82011682018060405250810190610c759190611a23565b50610c8033836114ac565b5050565b60008060016000610c936110b0565b73ffffffffffffffffffffffffffffffffffffffff1673ffffffffffffffffffffffffffffffffffffffff16815260200190815260200160002060008573ffffffffffffffffffffffffffffffffffffffff1673ffffffffffffffffffffffffffffffffffffffff16815260200190815260200160002054905082811015610d50576040517f08c379a0000000000000000000000000000000000000000000000000000000008152600401610d4790611f2f565b60405180910390fd5b610d64610d5b6110b0565b858584036110b8565b600191505092915050565b6000610d83610d7c6110b0565b8484611283565b6001905092915050565b600a5481565b6000600160008473ffffffffffffffffffffffffffffffffffffffff1673ffffffffffffffffffffffffffffffffffffffff16815260200190815260200160002060008373ffffffffffffffffffffffffffffffffffffffff1673ffffffffffffffffffffffffffffffffffffffff16815260200190815260200160002054905092915050565b610e226110b0565b73ffffffffffffffffffffffffffffffffffffffff16610e406109c4565b73ffffffffffffffffffffffffffffffffffffffff1614610e96576040517f08c379a0000000000000000000000000000000000000000000000000000000008152600401610e8d90611eaf565b60405180910390fd5b600073ffffffffffffffffffffffffffffffffffffffff168173ffffffffffffffffffffffffffffffffffffffff161415610f06576040517f08c379a0000000000000000000000000000000000000000000000000000000008152600401610efd90611e0f565b60405180910390fd5b8073ffffffffffffffffffffffffffffffffffffffff16600560009054906101000a900473ffffffffffffffffffffffffffffffffffffffff1673ffffffffffffffffffffffffffffffffffffffff167f8be0079c531659141344cd1fd0a4f28419497f9722a3daafe3b4186f6b6457e060405160405180910390a380600560006101000a81548173ffffffffffffffffffffffffffffffffffffffff021916908373ffffffffffffffffffffffffffffffffffffffff16021790555050565b610fce6110b0565b73ffffffffffffffffffffffffffffffffffffffff16610fec6109c4565b73ffffffffffffffffffffffffffffffffffffffff1614611042576040517f08c379a000000000000000000000000000000000000000000000000000000000815260040161103990611eaf565b60405180910390fd5b60008111801561105457506006548111155b611093576040517f08c379a000000000000000000000000000000000000000000000000000000000815260040161108a90611f6f565b60405180910390fd5b8060088190555050565b600960009054906101000a900460ff1681565b600033905090565b600073ffffffffffffffffffffffffffffffffffffffff168373ffffffffffffffffffffffffffffffffffffffff161415611128576040517f08c379a000000000000000000000000000000000000000000000000000000000815260040161111f90611f0f565b60405180910390fd5b600073ffffffffffffffffffffffffffffffffffffffff168273ffffffffffffffffffffffffffffffffffffffff161415611198576040517f08c379a000000000000000000000000000000000000000000000000000000000815260040161118f90611e2f565b60405180910390fd5b80600160008573ffffffffffffffffffffffffffffffffffffffff1673ffffffffffffffffffffffffffffffffffffffff16815260200190815260200160002060008473ffffffffffffffffffffffffffffffffffffffff1673ffffffffffffffffffffffffffffffffffffffff168152602001908152602001600020819055508173ffffffffffffffffffffffffffffffffffffffff168373ffffffffffffffffffffffffffffffffffffffff167f8c5be1e5ebec7d5bd14f71427d1e84f3dd0314c0f7b2291e5b200ac8c7c3b925836040516112769190611f8f565b60405180910390a3505050565b600760009054906101000a900460ff16156112d1576000600654600854836112ab9190612068565b6112b59190612037565b90506112c18482611600565b80826112cd91906120c2565b9150505b6112dc838383611616565b505050565b600073ffffffffffffffffffffffffffffffffffffffff168273ffffffffffffffffffffffffffffffffffffffff161415611351576040517f08c379a000000000000000000000000000000000000000000000000000000000815260040161134890611ecf565b60405180910390fd5b61135d8260008361188c565b60008060008473ffffffffffffffffffffffffffffffffffffffff1673ffffffffffffffffffffffffffffffffffffffff168152602001908152602001600020549050818110156113e3576040517f08c379a00000000000000000000000000000000000000000000000000000000081526004016113da90611dcf565b60405180910390fd5b8181036000808573ffffffffffffffffffffffffffffffffffffffff1673ffffffffffffffffffffffffffffffffffffffff16815260200190815260200160002081905550816002600082825461143a91906120c2565b92505081905550600073ffffffffffffffffffffffffffffffffffffffff168373ffffffffffffffffffffffffffffffffffffffff167fddf252ad1be2c89b69c2b068fc378daa952ba7f163c4a11628f55a4df523b3ef8460405161149f9190611f8f565b60405180910390a3505050565b600073ffffffffffffffffffffffffffffffffffffffff168273ffffffffffffffffffffffffffffffffffffffff16141561151c576040517f08c379a000000000000000000000000000000000000000000000000000000000815260040161151390611f4f565b60405180910390fd5b6115286000838361188c565b806002600082825461153a9190611fe1565b92505081905550806000808473ffffffffffffffffffffffffffffffffffffffff1673ffffffffffffffffffffffffffffffffffffffff168152602001908152602001600020600082825461158f9190611fe1565b925050819055508173ffffffffffffffffffffffffffffffffffffffff16600073ffffffffffffffffffffffffffffffffffffffff167fddf252ad1be2c89b69c2b068fc378daa952ba7f163c4a11628f55a4df523b3ef836040516115f49190611f8f565b60405180910390a35050565b61160a82826112e1565b611612611891565b5050565b600073ffffffffffffffffffffffffffffffffffffffff168373ffffffffffffffffffffffffffffffffffffffff161415611686576040517f08c379a000000000000000000000000000000000000000000000000000000000815260040161167d90611eef565b60405180910390fd5b600073ffffffffffffffffffffffffffffffffffffffff168273ffffffffffffffffffffffffffffffffffffffff1614156116f6576040517f08c379a00000000000000000000000000000000000000000000000000000000081526004016116ed90611daf565b60405180910390fd5b61170183838361188c565b60008060008573ffffffffffffffffffffffffffffffffffffffff1673ffffffffffffffffffffffffffffffffffffffff16815260200190815260200160002054905081811015611787576040517f08c379a000000000000000000000000000000000000000000000000000000000815260040161177e90611e4f565b60405180910390fd5b8181036000808673ffffffffffffffffffffffffffffffffffffffff1673ffffffffffffffffffffffffffffffffffffffff16815260200190815260200160002081905550816000808573ffffffffffffffffffffffffffffffffffffffff1673ffffffffffffffffffffffffffffffffffffffff168152602001908152602001600020600082825461181a9190611fe1565b925050819055508273ffffffffffffffffffffffffffffffffffffffff168473ffffffffffffffffffffffffffffffffffffffff167fddf252ad1be2c89b69c2b068fc378daa952ba7f163c4a11628f55a4df523b3ef8460405161187e9190611f8f565b60405180910390a350505050565b505050565b6118996106f1565b600c81905550565b6000813590506118b081612657565b92915050565b6000813590506118c58161266e565b92915050565b6000815190506118da8161266e565b92915050565b6000813590506118ef81612685565b92915050565b60008151905061190481612685565b92915050565b60006020828403121561191c57600080fd5b600061192a848285016118a1565b91505092915050565b6000806040838503121561194657600080fd5b6000611954858286016118a1565b9250506020611965858286016118a1565b9150509250929050565b60008060006060848603121561198457600080fd5b6000611992868287016118a1565b93505060206119a3868287016118a1565b92505060406119b4868287016118e0565b9150509250925092565b600080604083850312156119d157600080fd5b60006119df858286016118a1565b92505060206119f0858286016118e0565b9150509250929050565b600060208284031215611a0c57600080fd5b6000611a1a848285016118b6565b91505092915050565b600060208284031215611a3557600080fd5b6000611a43848285016118cb565b91505092915050565b600060208284031215611a5e57600080fd5b6000611a6c848285016118e0565b91505092915050565b600060208284031215611a8757600080fd5b6000611a95848285016118f5565b91505092915050565b611aa7816120f6565b82525050565b611ab681612108565b82525050565b6000611ac782611fc5565b611ad18185611fd0565b9350611ae181856020860161214b565b611aea8161223d565b840191505092915050565b6000611b02602383611fd0565b9150611b0d8261224e565b604082019050919050565b6000611b25602283611fd0565b9150611b308261229d565b604082019050919050565b6000611b48601483611fd0565b9150611b53826122ec565b602082019050919050565b6000611b6b602683611fd0565b9150611b7682612315565b604082019050919050565b6000611b8e602283611fd0565b9150611b9982612364565b604082019050919050565b6000611bb1602683611fd0565b9150611bbc826123b3565b604082019050919050565b6000611bd4601583611fd0565b9150611bdf82612402565b602082019050919050565b6000611bf7602883611fd0565b9150611c028261242b565b604082019050919050565b6000611c1a602083611fd0565b9150611c258261247a565b602082019050919050565b6000611c3d602183611fd0565b9150611c48826124a3565b604082019050919050565b6000611c60602583611fd0565b9150611c6b826124f2565b604082019050919050565b6000611c83602483611fd0565b9150611c8e82612541565b604082019050919050565b6000611ca6602583611fd0565b9150611cb182612590565b604082019050919050565b6000611cc9601f83611fd0565b9150611cd4826125df565b602082019050919050565b6000611cec602283611fd0565b9150611cf782612608565b604082019050919050565b611d0b81612134565b82525050565b611d1a8161213e565b82525050565b6000602082019050611d356000830184611a9e565b92915050565b6000606082019050611d506000830186611a9e565b611d5d6020830185611a9e565b611d6a6040830184611d02565b949350505050565b6000602082019050611d876000830184611aad565b92915050565b60006020820190508181036000830152611da78184611abc565b905092915050565b60006020820190508181036000830152611dc881611af5565b9050919050565b60006020820190508181036000830152611de881611b18565b9050919050565b60006020820190508181036000830152611e0881611b3b565b9050919050565b60006020820190508181036000830152611e2881611b5e565b9050919050565b60006020820190508181036000830152611e4881611b81565b9050919050565b60006020820190508181036000830152611e6881611ba4565b9050919050565b60006020820190508181036000830152611e8881611bc7565b9050919050565b60006020820190508181036000830152611ea881611bea565b9050919050565b60006020820190508181036000830152611ec881611c0d565b9050919050565b60006020820190508181036000830152611ee881611c30565b9050919050565b60006020820190508181036000830152611f0881611c53565b9050919050565b60006020820190508181036000830152611f2881611c76565b9050919050565b60006020820190508181036000830152611f4881611c99565b9050919050565b60006020820190508181036000830152611f6881611cbc565b9050919050565b60006020820190508181036000830152611f8881611cdf565b9050919050565b6000602082019050611fa46000830184611d02565b92915050565b6000602082019050611fbf6000830184611d11565b92915050565b600081519050919050565b600082825260208201905092915050565b6000611fec82612134565b9150611ff783612134565b9250827fffffffffffffffffffffffffffffffffffffffffffffffffffffffffffffffff0382111561202c5761202b6121b0565b5b828201905092915050565b600061204282612134565b915061204d83612134565b92508261205d5761205c6121df565b5b828204905092915050565b600061207382612134565b915061207e83612134565b9250817fffffffffffffffffffffffffffffffffffffffffffffffffffffffffffffffff04831182151516156120b7576120b66121b0565b5b828202905092915050565b60006120cd82612134565b91506120d883612134565b9250828210156120eb576120ea6121b0565b5b828203905092915050565b600061210182612114565b9050919050565b60008115159050919050565b600073ffffffffffffffffffffffffffffffffffffffff82169050919050565b6000819050919050565b600060ff82169050919050565b60005b8381101561216957808201518184015260208101905061214e565b83811115612178576000848401525b50505050565b6000600282049050600182168061219657607f821691505b602082108114156121aa576121a961220e565b5b50919050565b7f4e487b7100000000000000000000000000000000000000000000000000000000600052601160045260246000fd5b7f4e487b7100000000000000000000000000000000000000000000000000000000600052601260045260246000fd5b7f4e487b7100000000000000000000000000000000000000000000000000000000600052602260045260246000fd5b6000601f19601f8301169050919050565b7f45524332303a207472616e7366657220746f20746865207a65726f206164647260008201527f6573730000000000000000000000000000000000000000000000000000000000602082015250565b7f45524332303a206275726e20616d6f756e7420657863656564732062616c616e60008201527f6365000000000000000000000000000000000000000000000000000000000000602082015250565b7f4d696e74206c696d69742065786365656465642e000000000000000000000000600082015250565b7f4f776e61626c653a206e6577206f776e657220697320746865207a65726f206160008201527f6464726573730000000000000000000000000000000000000000000000000000602082015250565b7f45524332303a20617070726f766520746f20746865207a65726f20616464726560008201527f7373000000000000000000000000000000000000000000000000000000000000602082015250565b7f45524332303a207472616e7366657220616d6f756e742065786365656473206260008201527f616c616e63650000000000000000000000000000000000000000000000000000602082015250565b7f496e73756666696369656e742062616c616e63652e0000000000000000000000600082015250565b7f45524332303a207472616e7366657220616d6f756e742065786365656473206160008201527f6c6c6f77616e6365000000000000000000000000000000000000000000000000602082015250565b7f4f776e61626c653a2063616c6c6572206973206e6f7420746865206f776e6572600082015250565b7f45524332303a206275726e2066726f6d20746865207a65726f2061646472657360008201527f7300000000000000000000000000000000000000000000000000000000000000602082015250565b7f45524332303a207472616e736665722066726f6d20746865207a65726f20616460008201527f6472657373000000000000000000000000000000000000000000000000000000602082015250565b7f45524332303a20617070726f76652066726f6d20746865207a65726f2061646460008201527f7265737300000000000000000000000000000000000000000000000000000000602082015250565b7f45524332303a2064656372656173656420616c6c6f77616e63652062656c6f7760008201527f207a65726f000000000000000000000000000000000000000000000000000000602082015250565b7f45524332303a206d696e7420746f20746865207a65726f206164647265737300600082015250565b7f56616c7565206f75747369646520646566696e656420636f6e73747261696e7460008201527f732e000000000000000000000000000000000000000000000000000000000000602082015250565b612660816120f6565b811461266b57600080fd5b50565b61267781612108565b811461268257600080fd5b50565b61268e81612134565b811461269957600080fd5b5056fea264697066735822122098e48345e4743321002456fd190da684848f59d55aa58fd017e7183517eca6fb64736f6c63430008040033",
  "immutableReferences": {},
  "source": "// SPDX-License-Identifier: MIT\npragma solidity ^0.8.0;\n\nimport \"../openzeppelin/contracts/token/ERC20/ERC20.sol\";\nimport \"../openzeppelin/contracts/token/ERC20/IERC20.sol\";\nimport \"../openzeppelin/contracts/access/Ownable.sol\";\nimport \"./FAN.sol\";\n\ncontract CRTR is ERC20, Ownable {\n    uint256 private hundredPct = 10**5;\n\n    bool public burnOnTransfer = true;\n    uint256 public burnOnTransferPct = 1000;\n\n    bool public foundersReward = true;\n    uint256 public foundersRewardPct = 1000;\n\n    uint256 private _mintBlockSize = 100;\n    uint256 private _mintPrice = 1;\n\n    address private _creator;\n    IERC20 private _currency;\n\n    modifier onlyOwnerOrCreator() {\n        require(true, \"Permission denied.\");\n        _;\n    }\n\n    constructor(\n        address creator,\n        string memory name,\n        string memory ticker,\n        address currency\n    ) ERC20(name, ticker) {\n        _creator = creator;\n        _currency = IERC20(currency);\n    }\n\n    function mintPrice() public view returns (uint price) {\n        price = _currency.balanceOf(address(this)) ^ 2;\n    }\n\n    function _sync() private {\n        _mintPrice = mintPrice();\n    }\n\n    function _burn(address account, uint256 amount) internal override {\n        super._burn(account, amount);\n        _sync();\n    }\n\n    function burn(uint256 quantity) public {\n        super._burn(msg.sender, quantity);\n    }\n\n    function _transfer(\n        address sender,\n        address recipient,\n        uint256 amount\n    ) internal override {\n        if (burnOnTransfer) {\n            // TODO: Make calculation safe\n            uint256 toBurn = (amount * burnOnTransferPct) / hundredPct;\n            _burn(sender, toBurn);\n\n            amount -= toBurn;\n        }\n\n        super._transfer(sender, recipient, amount);\n    }\n\n    function _mint(address account, uint256 amount) internal override {\n        if (foundersReward) {\n            // TODO: Make calculation safe\n            uint256 reward = (amount * foundersRewardPct) / hundredPct;\n            super._mint(_creator, reward);\n            amount -= reward;\n        }\n\n        super._mint(account, amount);\n\n        _sync();\n    }\n\n    function mint(uint256 quantity) public {\n        require(quantity <= _mintBlockSize, \"Mint limit exceeded.\");\n\n        uint256 price = _mintPrice * quantity;\n\n        require(\n            _currency.balanceOf(msg.sender) >= price,\n            \"Insufficient balance.\"\n        );\n\n        _currency.transferFrom(msg.sender, address(this), price);\n\n        super._mint(msg.sender, quantity);\n    }\n\n    function setBurnOnTransfer(bool on) public onlyOwner {\n        burnOnTransfer = on;\n    }\n\n    function setBurnOnTransferPct(uint256 pct) public onlyOwner {\n        require(\n            pct > 0 && pct <= hundredPct,\n            \"Value outside defined constraints.\"\n        );\n\n        burnOnTransferPct = pct;\n    }\n}\n",
  "sourcePath": "C:\\Users\\Husnain\\Documents\\Projects\\Fanbase\\New\\fanbase\\packages\\ethereum\\contracts\\solidity\\tokens\\CRTR.sol",
  "compiler": {
    "name": "solc",
    "version": "0.8.4+commit.c7e474f2.Emscripten.clang"
  },
  "schemaVersion": "3.4.1",
  "updatedAt": "2021-06-06T20:07:32.397Z",
  "devdoc": {
    "kind": "dev",
    "methods": {
      "allowance(address,address)": {
        "details": "See {IERC20-allowance}."
      },
      "approve(address,uint256)": {
        "details": "See {IERC20-approve}. Requirements: - `spender` cannot be the zero address."
      },
      "balanceOf(address)": {
        "details": "See {IERC20-balanceOf}."
      },
      "decimals()": {
        "details": "Returns the number of decimals used to get its user representation. For example, if `decimals` equals `2`, a balance of `505` tokens should be displayed to a user as `5,05` (`505 / 10 ** 2`). Tokens usually opt for a value of 18, imitating the relationship between Ether and Wei. This is the value {ERC20} uses, unless this function is overridden; NOTE: This information is only used for _display_ purposes: it in no way affects any of the arithmetic of the contract, including {IERC20-balanceOf} and {IERC20-transfer}."
      },
      "decreaseAllowance(address,uint256)": {
        "details": "Atomically decreases the allowance granted to `spender` by the caller. This is an alternative to {approve} that can be used as a mitigation for problems described in {IERC20-approve}. Emits an {Approval} event indicating the updated allowance. Requirements: - `spender` cannot be the zero address. - `spender` must have allowance for the caller of at least `subtractedValue`."
      },
      "increaseAllowance(address,uint256)": {
        "details": "Atomically increases the allowance granted to `spender` by the caller. This is an alternative to {approve} that can be used as a mitigation for problems described in {IERC20-approve}. Emits an {Approval} event indicating the updated allowance. Requirements: - `spender` cannot be the zero address."
      },
      "name()": {
        "details": "Returns the name of the token."
      },
      "owner()": {
        "details": "Returns the address of the current owner."
      },
      "renounceOwnership()": {
        "details": "Leaves the contract without owner. It will not be possible to call `onlyOwner` functions anymore. Can only be called by the current owner. NOTE: Renouncing ownership will leave the contract without an owner, thereby removing any functionality that is only available to the owner."
      },
      "symbol()": {
        "details": "Returns the symbol of the token, usually a shorter version of the name."
      },
      "totalSupply()": {
        "details": "See {IERC20-totalSupply}."
      },
      "transfer(address,uint256)": {
        "details": "See {IERC20-transfer}. Requirements: - `recipient` cannot be the zero address. - the caller must have a balance of at least `amount`."
      },
      "transferFrom(address,address,uint256)": {
        "details": "See {IERC20-transferFrom}. Emits an {Approval} event indicating the updated allowance. This is not required by the EIP. See the note at the beginning of {ERC20}. Requirements: - `sender` and `recipient` cannot be the zero address. - `sender` must have a balance of at least `amount`. - the caller must have allowance for ``sender``'s tokens of at least `amount`."
      },
      "transferOwnership(address)": {
        "details": "Transfers ownership of the contract to a new account (`newOwner`). Can only be called by the current owner."
      }
    },
    "version": 1
  },
  "userdoc": {
    "kind": "user",
    "methods": {},
    "version": 1
  }
}