{
  "contractName": "CRTR",
  "abi": [
    {
      "inputs": [
        {
          "internalType": "address",
          "name": "creator",
          "type": "address"
        },
        {
          "internalType": "string",
          "name": "name",
          "type": "string"
        },
        {
          "internalType": "string",
          "name": "ticker",
          "type": "string"
        },
        {
          "internalType": "address",
          "name": "currency",
          "type": "address"
        }
      ],
      "stateMutability": "nonpayable",
      "type": "constructor"
    },
    {
      "anonymous": false,
      "inputs": [
        {
          "indexed": true,
          "internalType": "address",
          "name": "owner",
          "type": "address"
        },
        {
          "indexed": true,
          "internalType": "address",
          "name": "spender",
          "type": "address"
        },
        {
          "indexed": false,
          "internalType": "uint256",
          "name": "value",
          "type": "uint256"
        }
      ],
      "name": "Approval",
      "type": "event"
    },
    {
      "anonymous": false,
      "inputs": [
        {
          "indexed": true,
          "internalType": "address",
          "name": "previousOwner",
          "type": "address"
        },
        {
          "indexed": true,
          "internalType": "address",
          "name": "newOwner",
          "type": "address"
        }
      ],
      "name": "OwnershipTransferred",
      "type": "event"
    },
    {
      "anonymous": false,
      "inputs": [
        {
          "indexed": true,
          "internalType": "address",
          "name": "from",
          "type": "address"
        },
        {
          "indexed": true,
          "internalType": "address",
          "name": "to",
          "type": "address"
        },
        {
          "indexed": false,
          "internalType": "uint256",
          "name": "value",
          "type": "uint256"
        }
      ],
      "name": "Transfer",
      "type": "event"
    },
    {
      "inputs": [
        {
          "internalType": "address",
          "name": "owner",
          "type": "address"
        },
        {
          "internalType": "address",
          "name": "spender",
          "type": "address"
        }
      ],
      "name": "allowance",
      "outputs": [
        {
          "internalType": "uint256",
          "name": "",
          "type": "uint256"
        }
      ],
      "stateMutability": "view",
      "type": "function"
    },
    {
      "inputs": [
        {
          "internalType": "address",
          "name": "spender",
          "type": "address"
        },
        {
          "internalType": "uint256",
          "name": "amount",
          "type": "uint256"
        }
      ],
      "name": "approve",
      "outputs": [
        {
          "internalType": "bool",
          "name": "",
          "type": "bool"
        }
      ],
      "stateMutability": "nonpayable",
      "type": "function"
    },
    {
      "inputs": [
        {
          "internalType": "address",
          "name": "account",
          "type": "address"
        }
      ],
      "name": "balanceOf",
      "outputs": [
        {
          "internalType": "uint256",
          "name": "",
          "type": "uint256"
        }
      ],
      "stateMutability": "view",
      "type": "function"
    },
    {
      "inputs": [],
      "name": "burnOnTransfer",
      "outputs": [
        {
          "internalType": "bool",
          "name": "",
          "type": "bool"
        }
      ],
      "stateMutability": "view",
      "type": "function"
    },
    {
      "inputs": [],
      "name": "burnOnTransferPct",
      "outputs": [
        {
          "internalType": "uint256",
          "name": "",
          "type": "uint256"
        }
      ],
      "stateMutability": "view",
      "type": "function"
    },
    {
      "inputs": [],
      "name": "decimals",
      "outputs": [
        {
          "internalType": "uint8",
          "name": "",
          "type": "uint8"
        }
      ],
      "stateMutability": "view",
      "type": "function"
    },
    {
      "inputs": [
        {
          "internalType": "address",
          "name": "spender",
          "type": "address"
        },
        {
          "internalType": "uint256",
          "name": "subtractedValue",
          "type": "uint256"
        }
      ],
      "name": "decreaseAllowance",
      "outputs": [
        {
          "internalType": "bool",
          "name": "",
          "type": "bool"
        }
      ],
      "stateMutability": "nonpayable",
      "type": "function"
    },
    {
      "inputs": [],
      "name": "foundersReward",
      "outputs": [
        {
          "internalType": "bool",
          "name": "",
          "type": "bool"
        }
      ],
      "stateMutability": "view",
      "type": "function"
    },
    {
      "inputs": [],
      "name": "foundersRewardPct",
      "outputs": [
        {
          "internalType": "uint256",
          "name": "",
          "type": "uint256"
        }
      ],
      "stateMutability": "view",
      "type": "function"
    },
    {
      "inputs": [
        {
          "internalType": "address",
          "name": "spender",
          "type": "address"
        },
        {
          "internalType": "uint256",
          "name": "addedValue",
          "type": "uint256"
        }
      ],
      "name": "increaseAllowance",
      "outputs": [
        {
          "internalType": "bool",
          "name": "",
          "type": "bool"
        }
      ],
      "stateMutability": "nonpayable",
      "type": "function"
    },
    {
      "inputs": [],
      "name": "name",
      "outputs": [
        {
          "internalType": "string",
          "name": "",
          "type": "string"
        }
      ],
      "stateMutability": "view",
      "type": "function"
    },
    {
      "inputs": [],
      "name": "owner",
      "outputs": [
        {
          "internalType": "address",
          "name": "",
          "type": "address"
        }
      ],
      "stateMutability": "view",
      "type": "function"
    },
    {
      "inputs": [],
      "name": "renounceOwnership",
      "outputs": [],
      "stateMutability": "nonpayable",
      "type": "function"
    },
    {
      "inputs": [],
      "name": "symbol",
      "outputs": [
        {
          "internalType": "string",
          "name": "",
          "type": "string"
        }
      ],
      "stateMutability": "view",
      "type": "function"
    },
    {
      "inputs": [],
      "name": "totalSupply",
      "outputs": [
        {
          "internalType": "uint256",
          "name": "",
          "type": "uint256"
        }
      ],
      "stateMutability": "view",
      "type": "function"
    },
    {
      "inputs": [
        {
          "internalType": "address",
          "name": "recipient",
          "type": "address"
        },
        {
          "internalType": "uint256",
          "name": "amount",
          "type": "uint256"
        }
      ],
      "name": "transfer",
      "outputs": [
        {
          "internalType": "bool",
          "name": "",
          "type": "bool"
        }
      ],
      "stateMutability": "nonpayable",
      "type": "function"
    },
    {
      "inputs": [
        {
          "internalType": "address",
          "name": "sender",
          "type": "address"
        },
        {
          "internalType": "address",
          "name": "recipient",
          "type": "address"
        },
        {
          "internalType": "uint256",
          "name": "amount",
          "type": "uint256"
        }
      ],
      "name": "transferFrom",
      "outputs": [
        {
          "internalType": "bool",
          "name": "",
          "type": "bool"
        }
      ],
      "stateMutability": "nonpayable",
      "type": "function"
    },
    {
      "inputs": [
        {
          "internalType": "address",
          "name": "newOwner",
          "type": "address"
        }
      ],
      "name": "transferOwnership",
      "outputs": [],
      "stateMutability": "nonpayable",
      "type": "function"
    },
    {
      "inputs": [],
      "name": "mintPrice",
      "outputs": [
        {
          "internalType": "uint256",
          "name": "price",
          "type": "uint256"
        }
      ],
      "stateMutability": "view",
      "type": "function"
    },
    {
      "inputs": [
        {
          "internalType": "uint256",
          "name": "quantity",
          "type": "uint256"
        }
      ],
      "name": "mint",
      "outputs": [],
      "stateMutability": "nonpayable",
      "type": "function"
    },
    {
      "inputs": [
        {
          "internalType": "uint256",
          "name": "quantity",
          "type": "uint256"
        }
      ],
      "name": "burn",
      "outputs": [],
      "stateMutability": "nonpayable",
      "type": "function"
    },
    {
      "inputs": [
        {
          "internalType": "bool",
          "name": "on",
          "type": "bool"
        }
      ],
      "name": "setBurnOnTransfer",
      "outputs": [],
      "stateMutability": "nonpayable",
      "type": "function"
    },
    {
      "inputs": [
        {
          "internalType": "uint256",
          "name": "pct",
          "type": "uint256"
        }
      ],
      "name": "setBurnOnTransferPct",
      "outputs": [],
      "stateMutability": "nonpayable",
      "type": "function"
    },
    {
      "inputs": [
        {
          "internalType": "bool",
          "name": "on",
          "type": "bool"
        }
      ],
      "name": "setFoundersReward",
      "outputs": [],
      "stateMutability": "nonpayable",
      "type": "function"
    },
    {
      "inputs": [
        {
          "internalType": "uint256",
          "name": "pct",
          "type": "uint256"
        }
      ],
      "name": "setFoundersRewardPct",
      "outputs": [],
      "stateMutability": "nonpayable",
      "type": "function"
    }
  ],
  "bytecode": "0x6080604052620186a06006556001600760006101000a81548160ff0219169083151502179055506103e86008556001600960006101000a81548160ff0219169083151502179055506103e8600a556064600b556001600c553480156200006457600080fd5b5060405162002e8938038062002e8983398181016040528101906200008a91906200034a565b82828160039080519060200190620000a492919062000205565b508060049080519060200190620000bd92919062000205565b5050506000620000d2620001fd60201b60201c565b905080600560006101000a81548173ffffffffffffffffffffffffffffffffffffffff021916908373ffffffffffffffffffffffffffffffffffffffff1602179055508073ffffffffffffffffffffffffffffffffffffffff16600073ffffffffffffffffffffffffffffffffffffffff167f8be0079c531659141344cd1fd0a4f28419497f9722a3daafe3b4186f6b6457e060405160405180910390a35083600d60006101000a81548173ffffffffffffffffffffffffffffffffffffffff021916908373ffffffffffffffffffffffffffffffffffffffff16021790555080600e60006101000a81548173ffffffffffffffffffffffffffffffffffffffff021916908373ffffffffffffffffffffffffffffffffffffffff16021790555050505050620005cc565b600033905090565b8280546200021390620004c3565b90600052602060002090601f01602090048101928262000237576000855562000283565b82601f106200025257805160ff191683800117855562000283565b8280016001018555821562000283579182015b828111156200028257825182559160200191906001019062000265565b5b50905062000292919062000296565b5090565b5b80821115620002b157600081600090555060010162000297565b5090565b6000620002cc620002c68462000423565b620003fa565b905082815260208101848484011115620002eb57620002ea62000592565b5b620002f88482856200048d565b509392505050565b6000815190506200031181620005b2565b92915050565b600082601f8301126200032f576200032e6200058d565b5b815162000341848260208601620002b5565b91505092915050565b600080600080608085870312156200036757620003666200059c565b5b6000620003778782880162000300565b945050602085015167ffffffffffffffff8111156200039b576200039a62000597565b5b620003a98782880162000317565b935050604085015167ffffffffffffffff811115620003cd57620003cc62000597565b5b620003db8782880162000317565b9250506060620003ee8782880162000300565b91505092959194509250565b60006200040662000419565b9050620004148282620004f9565b919050565b6000604051905090565b600067ffffffffffffffff8211156200044157620004406200055e565b5b6200044c82620005a1565b9050602081019050919050565b600062000466826200046d565b9050919050565b600073ffffffffffffffffffffffffffffffffffffffff82169050919050565b60005b83811015620004ad57808201518184015260208101905062000490565b83811115620004bd576000848401525b50505050565b60006002820490506001821680620004dc57607f821691505b60208210811415620004f357620004f26200052f565b5b50919050565b6200050482620005a1565b810181811067ffffffffffffffff821117156200052657620005256200055e565b5b80604052505050565b7f4e487b7100000000000000000000000000000000000000000000000000000000600052602260045260246000fd5b7f4e487b7100000000000000000000000000000000000000000000000000000000600052604160045260246000fd5b600080fd5b600080fd5b600080fd5b600080fd5b6000601f19601f8301169050919050565b620005bd8162000459565b8114620005c957600080fd5b50565b6128ad80620005dc6000396000f3fe608060405234801561001057600080fd5b50600436106101735760003560e01c806389100e51116100de578063c6650f8711610097578063f2fde38b11610071578063f2fde38b14610450578063f870abcd1461046c578063f9498dd114610488578063fc838db7146104a457610173565b8063c6650f87146103e6578063dd62ed3e14610404578063f2e986f31461043457610173565b806389100e51146103125780638da5cb5b1461032e57806395d89b411461034c578063a0712d681461036a578063a457c2d714610386578063a9059cbb146103b657610173565b8063395093511161013057806339509351146102505780633b9c50b51461028057806342966c681461029e5780636817c76c146102ba57806370a08231146102d8578063715018a61461030857610173565b806306fdde0314610178578063095ea7b31461019657806318160ddd146101c657806323b872dd146101e457806325eacd1314610214578063313ce56714610232575b600080fd5b6101806104c2565b60405161018d9190611f63565b60405180910390f35b6101b060048036038101906101ab9190611b80565b610554565b6040516101bd9190611f48565b60405180910390f35b6101ce610572565b6040516101db9190612165565b60405180910390f35b6101fe60048036038101906101f99190611b2d565b61057c565b60405161020b9190611f48565b60405180910390f35b61021c610674565b6040516102299190612165565b60405180910390f35b61023a61067a565b6040516102479190612180565b60405180910390f35b61026a60048036038101906102659190611b80565b610683565b6040516102779190611f48565b60405180910390f35b61028861072f565b6040516102959190611f48565b60405180910390f35b6102b860048036038101906102b39190611c1a565b610742565b005b6102c261074f565b6040516102cf9190612165565b60405180910390f35b6102f260048036038101906102ed9190611ac0565b610804565b6040516102ff9190612165565b60405180910390f35b61031061084c565b005b61032c60048036038101906103279190611bc0565b610989565b005b610336610a22565b6040516103439190611ef6565b60405180910390f35b610354610a4c565b6040516103619190611f63565b60405180910390f35b610384600480360381019061037f9190611c1a565b610ade565b005b6103a0600480360381019061039b9190611b80565b610ce2565b6040516103ad9190611f48565b60405180910390f35b6103d060048036038101906103cb9190611b80565b610dcd565b6040516103dd9190611f48565b60405180910390f35b6103ee610deb565b6040516103fb9190612165565b60405180910390f35b61041e60048036038101906104199190611aed565b610df1565b60405161042b9190612165565b60405180910390f35b61044e60048036038101906104499190611c1a565b610e78565b005b61046a60048036038101906104659190611ac0565b610f43565b005b61048660048036038101906104819190611c1a565b6110ef565b005b6104a2600480360381019061049d9190611bc0565b6111ba565b005b6104ac611253565b6040516104b99190611f48565b60405180910390f35b6060600380546104d190612354565b80601f01602080910402602001604051908101604052809291908181526020018280546104fd90612354565b801561054a5780601f1061051f5761010080835404028352916020019161054a565b820191906000526020600020905b81548152906001019060200180831161052d57829003601f168201915b5050505050905090565b6000610568610561611266565b848461126e565b6001905092915050565b6000600254905090565b6000610589848484611439565b6000600160008673ffffffffffffffffffffffffffffffffffffffff1673ffffffffffffffffffffffffffffffffffffffff16815260200190815260200160002060006105d4611266565b73ffffffffffffffffffffffffffffffffffffffff1673ffffffffffffffffffffffffffffffffffffffff16815260200190815260200160002054905082811015610654576040517f08c379a000000000000000000000000000000000000000000000000000000000815260040161064b90612065565b60405180910390fd5b61066885610660611266565b85840361126e565b60019150509392505050565b60085481565b60006012905090565b6000610725610690611266565b84846001600061069e611266565b73ffffffffffffffffffffffffffffffffffffffff1673ffffffffffffffffffffffffffffffffffffffff16815260200190815260200160002060008873ffffffffffffffffffffffffffffffffffffffff1673ffffffffffffffffffffffffffffffffffffffff1681526020019081526020016000205461072091906121b7565b61126e565b6001905092915050565b600760009054906101000a900460ff1681565b61074c3382611497565b50565b60006002600e60009054906101000a900473ffffffffffffffffffffffffffffffffffffffff1673ffffffffffffffffffffffffffffffffffffffff166370a08231306040518263ffffffff1660e01b81526004016107ae9190611ef6565b60206040518083038186803b1580156107c657600080fd5b505afa1580156107da573d6000803e3d6000fd5b505050506040513d601f19601f820116820180604052508101906107fe9190611c47565b18905090565b60008060008373ffffffffffffffffffffffffffffffffffffffff1673ffffffffffffffffffffffffffffffffffffffff168152602001908152602001600020549050919050565b610854611266565b73ffffffffffffffffffffffffffffffffffffffff16610872610a22565b73ffffffffffffffffffffffffffffffffffffffff16146108c8576040517f08c379a00000000000000000000000000000000000000000000000000000000081526004016108bf90612085565b60405180910390fd5b600073ffffffffffffffffffffffffffffffffffffffff16600560009054906101000a900473ffffffffffffffffffffffffffffffffffffffff1673ffffffffffffffffffffffffffffffffffffffff167f8be0079c531659141344cd1fd0a4f28419497f9722a3daafe3b4186f6b6457e060405160405180910390a36000600560006101000a81548173ffffffffffffffffffffffffffffffffffffffff021916908373ffffffffffffffffffffffffffffffffffffffff160217905550565b610991611266565b73ffffffffffffffffffffffffffffffffffffffff166109af610a22565b73ffffffffffffffffffffffffffffffffffffffff1614610a05576040517f08c379a00000000000000000000000000000000000000000000000000000000081526004016109fc90612085565b60405180910390fd5b80600760006101000a81548160ff02191690831515021790555050565b6000600560009054906101000a900473ffffffffffffffffffffffffffffffffffffffff16905090565b606060048054610a5b90612354565b80601f0160208091040260200160405190810160405280929190818152602001828054610a8790612354565b8015610ad45780601f10610aa957610100808354040283529160200191610ad4565b820191906000526020600020905b815481529060010190602001808311610ab757829003601f168201915b5050505050905090565b600b54811115610b23576040517f08c379a0000000000000000000000000000000000000000000000000000000008152600401610b1a90611fc5565b60405180910390fd5b600081600c54610b33919061223e565b905080600e60009054906101000a900473ffffffffffffffffffffffffffffffffffffffff1673ffffffffffffffffffffffffffffffffffffffff166370a08231336040518263ffffffff1660e01b8152600401610b919190611ef6565b60206040518083038186803b158015610ba957600080fd5b505afa158015610bbd573d6000803e3d6000fd5b505050506040513d601f19601f82011682018060405250810190610be19190611c47565b1015610c22576040517f08c379a0000000000000000000000000000000000000000000000000000000008152600401610c1990612045565b60405180910390fd5b600e60009054906101000a900473ffffffffffffffffffffffffffffffffffffffff1673ffffffffffffffffffffffffffffffffffffffff166323b872dd3330846040518463ffffffff1660e01b8152600401610c8193929190611f11565b602060405180830381600087803b158015610c9b57600080fd5b505af1158015610caf573d6000803e3d6000fd5b505050506040513d601f19601f82011682018060405250810190610cd39190611bed565b50610cde3383611662565b5050565b60008060016000610cf1611266565b73ffffffffffffffffffffffffffffffffffffffff1673ffffffffffffffffffffffffffffffffffffffff16815260200190815260200160002060008573ffffffffffffffffffffffffffffffffffffffff1673ffffffffffffffffffffffffffffffffffffffff16815260200190815260200160002054905082811015610dae576040517f08c379a0000000000000000000000000000000000000000000000000000000008152600401610da590612105565b60405180910390fd5b610dc2610db9611266565b8585840361126e565b600191505092915050565b6000610de1610dda611266565b8484611439565b6001905092915050565b600a5481565b6000600160008473ffffffffffffffffffffffffffffffffffffffff1673ffffffffffffffffffffffffffffffffffffffff16815260200190815260200160002060008373ffffffffffffffffffffffffffffffffffffffff1673ffffffffffffffffffffffffffffffffffffffff16815260200190815260200160002054905092915050565b610e80611266565b73ffffffffffffffffffffffffffffffffffffffff16610e9e610a22565b73ffffffffffffffffffffffffffffffffffffffff1614610ef4576040517f08c379a0000000000000000000000000000000000000000000000000000000008152600401610eeb90612085565b60405180910390fd5b600654811115610f39576040517f08c379a0000000000000000000000000000000000000000000000000000000008152600401610f3090612145565b60405180910390fd5b80600a8190555050565b610f4b611266565b73ffffffffffffffffffffffffffffffffffffffff16610f69610a22565b73ffffffffffffffffffffffffffffffffffffffff1614610fbf576040517f08c379a0000000000000000000000000000000000000000000000000000000008152600401610fb690612085565b60405180910390fd5b600073ffffffffffffffffffffffffffffffffffffffff168173ffffffffffffffffffffffffffffffffffffffff16141561102f576040517f08c379a000000000000000000000000000000000000000000000000000000000815260040161102690611fe5565b60405180910390fd5b8073ffffffffffffffffffffffffffffffffffffffff16600560009054906101000a900473ffffffffffffffffffffffffffffffffffffffff1673ffffffffffffffffffffffffffffffffffffffff167f8be0079c531659141344cd1fd0a4f28419497f9722a3daafe3b4186f6b6457e060405160405180910390a380600560006101000a81548173ffffffffffffffffffffffffffffffffffffffff021916908373ffffffffffffffffffffffffffffffffffffffff16021790555050565b6110f7611266565b73ffffffffffffffffffffffffffffffffffffffff16611115610a22565b73ffffffffffffffffffffffffffffffffffffffff161461116b576040517f08c379a000000000000000000000000000000000000000000000000000000000815260040161116290612085565b60405180910390fd5b6006548111156111b0576040517f08c379a00000000000000000000000000000000000000000000000000000000081526004016111a790612145565b60405180910390fd5b8060088190555050565b6111c2611266565b73ffffffffffffffffffffffffffffffffffffffff166111e0610a22565b73ffffffffffffffffffffffffffffffffffffffff1614611236576040517f08c379a000000000000000000000000000000000000000000000000000000000815260040161122d90612085565b60405180910390fd5b80600960006101000a81548160ff02191690831515021790555050565b600960009054906101000a900460ff1681565b600033905090565b600073ffffffffffffffffffffffffffffffffffffffff168373ffffffffffffffffffffffffffffffffffffffff1614156112de576040517f08c379a00000000000000000000000000000000000000000000000000000000081526004016112d5906120e5565b60405180910390fd5b600073ffffffffffffffffffffffffffffffffffffffff168273ffffffffffffffffffffffffffffffffffffffff16141561134e576040517f08c379a000000000000000000000000000000000000000000000000000000000815260040161134590612005565b60405180910390fd5b80600160008573ffffffffffffffffffffffffffffffffffffffff1673ffffffffffffffffffffffffffffffffffffffff16815260200190815260200160002060008473ffffffffffffffffffffffffffffffffffffffff1673ffffffffffffffffffffffffffffffffffffffff168152602001908152602001600020819055508173ffffffffffffffffffffffffffffffffffffffff168373ffffffffffffffffffffffffffffffffffffffff167f8c5be1e5ebec7d5bd14f71427d1e84f3dd0314c0f7b2291e5b200ac8c7c3b9258360405161142c9190612165565b60405180910390a3505050565b600760009054906101000a900460ff161561148757600060065460085483611461919061223e565b61146b919061220d565b905061147784826117b6565b80826114839190612298565b9150505b6114928383836117cc565b505050565b600073ffffffffffffffffffffffffffffffffffffffff168273ffffffffffffffffffffffffffffffffffffffff161415611507576040517f08c379a00000000000000000000000000000000000000000000000000000000081526004016114fe906120a5565b60405180910390fd5b61151382600083611a42565b60008060008473ffffffffffffffffffffffffffffffffffffffff1673ffffffffffffffffffffffffffffffffffffffff16815260200190815260200160002054905081811015611599576040517f08c379a000000000000000000000000000000000000000000000000000000000815260040161159090611fa5565b60405180910390fd5b8181036000808573ffffffffffffffffffffffffffffffffffffffff1673ffffffffffffffffffffffffffffffffffffffff1681526020019081526020016000208190555081600260008282546115f09190612298565b92505081905550600073ffffffffffffffffffffffffffffffffffffffff168373ffffffffffffffffffffffffffffffffffffffff167fddf252ad1be2c89b69c2b068fc378daa952ba7f163c4a11628f55a4df523b3ef846040516116559190612165565b60405180910390a3505050565b600073ffffffffffffffffffffffffffffffffffffffff168273ffffffffffffffffffffffffffffffffffffffff1614156116d2576040517f08c379a00000000000000000000000000000000000000000000000000000000081526004016116c990612125565b60405180910390fd5b6116de60008383611a42565b80600260008282546116f091906121b7565b92505081905550806000808473ffffffffffffffffffffffffffffffffffffffff1673ffffffffffffffffffffffffffffffffffffffff168152602001908152602001600020600082825461174591906121b7565b925050819055508173ffffffffffffffffffffffffffffffffffffffff16600073ffffffffffffffffffffffffffffffffffffffff167fddf252ad1be2c89b69c2b068fc378daa952ba7f163c4a11628f55a4df523b3ef836040516117aa9190612165565b60405180910390a35050565b6117c08282611497565b6117c8611a47565b5050565b600073ffffffffffffffffffffffffffffffffffffffff168373ffffffffffffffffffffffffffffffffffffffff16141561183c576040517f08c379a0000000000000000000000000000000000000000000000000000000008152600401611833906120c5565b60405180910390fd5b600073ffffffffffffffffffffffffffffffffffffffff168273ffffffffffffffffffffffffffffffffffffffff1614156118ac576040517f08c379a00000000000000000000000000000000000000000000000000000000081526004016118a390611f85565b60405180910390fd5b6118b7838383611a42565b60008060008573ffffffffffffffffffffffffffffffffffffffff1673ffffffffffffffffffffffffffffffffffffffff1681526020019081526020016000205490508181101561193d576040517f08c379a000000000000000000000000000000000000000000000000000000000815260040161193490612025565b60405180910390fd5b8181036000808673ffffffffffffffffffffffffffffffffffffffff1673ffffffffffffffffffffffffffffffffffffffff16815260200190815260200160002081905550816000808573ffffffffffffffffffffffffffffffffffffffff1673ffffffffffffffffffffffffffffffffffffffff16815260200190815260200160002060008282546119d091906121b7565b925050819055508273ffffffffffffffffffffffffffffffffffffffff168473ffffffffffffffffffffffffffffffffffffffff167fddf252ad1be2c89b69c2b068fc378daa952ba7f163c4a11628f55a4df523b3ef84604051611a349190612165565b60405180910390a350505050565b505050565b611a4f61074f565b600c81905550565b600081359050611a6681612832565b92915050565b600081359050611a7b81612849565b92915050565b600081519050611a9081612849565b92915050565b600081359050611aa581612860565b92915050565b600081519050611aba81612860565b92915050565b600060208284031215611ad657611ad5612413565b5b6000611ae484828501611a57565b91505092915050565b60008060408385031215611b0457611b03612413565b5b6000611b1285828601611a57565b9250506020611b2385828601611a57565b9150509250929050565b600080600060608486031215611b4657611b45612413565b5b6000611b5486828701611a57565b9350506020611b6586828701611a57565b9250506040611b7686828701611a96565b9150509250925092565b60008060408385031215611b9757611b96612413565b5b6000611ba585828601611a57565b9250506020611bb685828601611a96565b9150509250929050565b600060208284031215611bd657611bd5612413565b5b6000611be484828501611a6c565b91505092915050565b600060208284031215611c0357611c02612413565b5b6000611c1184828501611a81565b91505092915050565b600060208284031215611c3057611c2f612413565b5b6000611c3e84828501611a96565b91505092915050565b600060208284031215611c5d57611c5c612413565b5b6000611c6b84828501611aab565b91505092915050565b611c7d816122cc565b82525050565b611c8c816122de565b82525050565b6000611c9d8261219b565b611ca781856121a6565b9350611cb7818560208601612321565b611cc081612418565b840191505092915050565b6000611cd86023836121a6565b9150611ce382612429565b604082019050919050565b6000611cfb6022836121a6565b9150611d0682612478565b604082019050919050565b6000611d1e6014836121a6565b9150611d29826124c7565b602082019050919050565b6000611d416026836121a6565b9150611d4c826124f0565b604082019050919050565b6000611d646022836121a6565b9150611d6f8261253f565b604082019050919050565b6000611d876026836121a6565b9150611d928261258e565b604082019050919050565b6000611daa6015836121a6565b9150611db5826125dd565b602082019050919050565b6000611dcd6028836121a6565b9150611dd882612606565b604082019050919050565b6000611df06020836121a6565b9150611dfb82612655565b602082019050919050565b6000611e136021836121a6565b9150611e1e8261267e565b604082019050919050565b6000611e366025836121a6565b9150611e41826126cd565b604082019050919050565b6000611e596024836121a6565b9150611e648261271c565b604082019050919050565b6000611e7c6025836121a6565b9150611e878261276b565b604082019050919050565b6000611e9f601f836121a6565b9150611eaa826127ba565b602082019050919050565b6000611ec26022836121a6565b9150611ecd826127e3565b604082019050919050565b611ee18161230a565b82525050565b611ef081612314565b82525050565b6000602082019050611f0b6000830184611c74565b92915050565b6000606082019050611f266000830186611c74565b611f336020830185611c74565b611f406040830184611ed8565b949350505050565b6000602082019050611f5d6000830184611c83565b92915050565b60006020820190508181036000830152611f7d8184611c92565b905092915050565b60006020820190508181036000830152611f9e81611ccb565b9050919050565b60006020820190508181036000830152611fbe81611cee565b9050919050565b60006020820190508181036000830152611fde81611d11565b9050919050565b60006020820190508181036000830152611ffe81611d34565b9050919050565b6000602082019050818103600083015261201e81611d57565b9050919050565b6000602082019050818103600083015261203e81611d7a565b9050919050565b6000602082019050818103600083015261205e81611d9d565b9050919050565b6000602082019050818103600083015261207e81611dc0565b9050919050565b6000602082019050818103600083015261209e81611de3565b9050919050565b600060208201905081810360008301526120be81611e06565b9050919050565b600060208201905081810360008301526120de81611e29565b9050919050565b600060208201905081810360008301526120fe81611e4c565b9050919050565b6000602082019050818103600083015261211e81611e6f565b9050919050565b6000602082019050818103600083015261213e81611e92565b9050919050565b6000602082019050818103600083015261215e81611eb5565b9050919050565b600060208201905061217a6000830184611ed8565b92915050565b60006020820190506121956000830184611ee7565b92915050565b600081519050919050565b600082825260208201905092915050565b60006121c28261230a565b91506121cd8361230a565b9250827fffffffffffffffffffffffffffffffffffffffffffffffffffffffffffffffff0382111561220257612201612386565b5b828201905092915050565b60006122188261230a565b91506122238361230a565b925082612233576122326123b5565b5b828204905092915050565b60006122498261230a565b91506122548361230a565b9250817fffffffffffffffffffffffffffffffffffffffffffffffffffffffffffffffff048311821515161561228d5761228c612386565b5b828202905092915050565b60006122a38261230a565b91506122ae8361230a565b9250828210156122c1576122c0612386565b5b828203905092915050565b60006122d7826122ea565b9050919050565b60008115159050919050565b600073ffffffffffffffffffffffffffffffffffffffff82169050919050565b6000819050919050565b600060ff82169050919050565b60005b8381101561233f578082015181840152602081019050612324565b8381111561234e576000848401525b50505050565b6000600282049050600182168061236c57607f821691505b602082108114156123805761237f6123e4565b5b50919050565b7f4e487b7100000000000000000000000000000000000000000000000000000000600052601160045260246000fd5b7f4e487b7100000000000000000000000000000000000000000000000000000000600052601260045260246000fd5b7f4e487b7100000000000000000000000000000000000000000000000000000000600052602260045260246000fd5b600080fd5b6000601f19601f8301169050919050565b7f45524332303a207472616e7366657220746f20746865207a65726f206164647260008201527f6573730000000000000000000000000000000000000000000000000000000000602082015250565b7f45524332303a206275726e20616d6f756e7420657863656564732062616c616e60008201527f6365000000000000000000000000000000000000000000000000000000000000602082015250565b7f4d696e74206c696d69742065786365656465642e000000000000000000000000600082015250565b7f4f776e61626c653a206e6577206f776e657220697320746865207a65726f206160008201527f6464726573730000000000000000000000000000000000000000000000000000602082015250565b7f45524332303a20617070726f766520746f20746865207a65726f20616464726560008201527f7373000000000000000000000000000000000000000000000000000000000000602082015250565b7f45524332303a207472616e7366657220616d6f756e742065786365656473206260008201527f616c616e63650000000000000000000000000000000000000000000000000000602082015250565b7f496e73756666696369656e742062616c616e63652e0000000000000000000000600082015250565b7f45524332303a207472616e7366657220616d6f756e742065786365656473206160008201527f6c6c6f77616e6365000000000000000000000000000000000000000000000000602082015250565b7f4f776e61626c653a2063616c6c6572206973206e6f7420746865206f776e6572600082015250565b7f45524332303a206275726e2066726f6d20746865207a65726f2061646472657360008201527f7300000000000000000000000000000000000000000000000000000000000000602082015250565b7f45524332303a207472616e736665722066726f6d20746865207a65726f20616460008201527f6472657373000000000000000000000000000000000000000000000000000000602082015250565b7f45524332303a20617070726f76652066726f6d20746865207a65726f2061646460008201527f7265737300000000000000000000000000000000000000000000000000000000602082015250565b7f45524332303a2064656372656173656420616c6c6f77616e63652062656c6f7760008201527f207a65726f000000000000000000000000000000000000000000000000000000602082015250565b7f45524332303a206d696e7420746f20746865207a65726f206164647265737300600082015250565b7f56616c7565206f75747369646520646566696e656420636f6e73747261696e7460008201527f732e000000000000000000000000000000000000000000000000000000000000602082015250565b61283b816122cc565b811461284657600080fd5b50565b612852816122de565b811461285d57600080fd5b50565b6128698161230a565b811461287457600080fd5b5056fea264697066735822122016d6909cf796f39b42692c3b07d322bc6c705255b8f6b09412157d0cdefd496e64736f6c63430008060033",
  "immutableReferences": {},
  "source": "// SPDX-License-Identifier: MIT\r\npragma solidity ^0.8.0;\r\n\r\nimport \"./openzeppelin/contracts/token/ERC20/ERC20.sol\";\r\nimport \"./openzeppelin/contracts/token/ERC20/IERC20.sol\";\r\nimport \"./openzeppelin/contracts/access/Ownable.sol\";\r\nimport \"./FAN.sol\";\r\n\r\ncontract CRTR is ERC20, Ownable {\r\n  uint256 private hundredPct = 10**5;\r\n\r\n  bool public burnOnTransfer = true;\r\n  uint256 public burnOnTransferPct = 1000;\r\n\r\n  bool public foundersReward = true;\r\n  uint256 public foundersRewardPct = 1000;\r\n\r\n  uint256 private _mintBlockSize = 100;\r\n  uint256 private _mintPrice = 1;\r\n\r\n  address private _creator;\r\n  IERC20 private _currency;\r\n\r\n  modifier onlyOwnerOrCreator() {\r\n    require(true, \"Permission denied.\");\r\n    _;\r\n  }\r\n\r\n  constructor(\r\n    address creator,\r\n    string memory name,\r\n    string memory ticker,\r\n    address currency\r\n  ) ERC20(name, ticker) {\r\n    _creator = creator;\r\n    _currency = IERC20(currency);\r\n  }\r\n\r\n  function mintPrice() public view returns (uint price) {\r\n    price = _currency.balanceOf(address(this)) ^ 2;\r\n  }\r\n\r\n  function _sync() private {\r\n    _mintPrice = mintPrice();\r\n  }\r\n\r\n  function _transfer(\r\n    address sender,\r\n    address recipient,\r\n    uint256 amount\r\n  ) internal override {\r\n    if (burnOnTransfer) {\r\n      // TODO: Make calculation safe\r\n      uint256 toBurn = (amount * burnOnTransferPct) / hundredPct;\r\n      _burn(sender, toBurn);\r\n\r\n      amount -= toBurn;\r\n    }\r\n\r\n    super._transfer(sender, recipient, amount);\r\n  }\r\n\r\n  function _mint(address account, uint256 amount) internal override {\r\n    if (foundersReward) {\r\n      // TODO: Make calculation safe\r\n      uint256 reward = (amount * foundersRewardPct) / hundredPct;\r\n      super._mint(_creator, reward);\r\n      amount -= reward;\r\n    }\r\n\r\n    super._mint(account, amount);\r\n\r\n    _sync();\r\n  }\r\n\r\n  function mint(uint256 quantity) public {\r\n    require(quantity <= _mintBlockSize, \"Mint limit exceeded.\");\r\n\r\n    uint256 price = _mintPrice * quantity;\r\n\r\n    require(\r\n      _currency.balanceOf(msg.sender) >= price,\r\n      \"Insufficient balance.\"\r\n    );\r\n\r\n    _currency.transferFrom(msg.sender, address(this), price);\r\n\r\n    super._mint(msg.sender, quantity);\r\n  }  \r\n\r\n  function _burn(address account, uint256 amount) internal override {\r\n    super._burn(account, amount);\r\n    _sync();\r\n  }\r\n\r\n  function burn(uint256 quantity) public {\r\n    super._burn(msg.sender, quantity);\r\n  }\r\n\r\n  function setBurnOnTransfer(bool on) public onlyOwner {\r\n    burnOnTransfer = on;\r\n  }\r\n\r\n  function setBurnOnTransferPct(uint256 pct) public onlyOwner {\r\n    require(pct <= hundredPct, \"Value outside defined constraints.\");\r\n    burnOnTransferPct = pct;\r\n  }\r\n\r\n  function setFoundersReward(bool on) public onlyOwner {\r\n    foundersReward = on;\r\n  }\r\n\r\n  function setFoundersRewardPct(uint256 pct) public onlyOwner {\r\n    require(pct <= hundredPct, \"Value outside defined constraints.\");\r\n    foundersRewardPct = pct;\r\n  }\r\n}\r\n",
  "sourcePath": "C:/Users/Husnain/Documents/Projects/Fanbase/New/fanbase/packages/ethereum/contracts/solidity/CRTR.sol",
  "compiler": {
    "name": "solc",
    "version": "0.8.6+commit.11564f7e.Emscripten.clang"
  },
  "schemaVersion": "3.4.1",
  "updatedAt": "2021-07-12T17:20:50.697Z",
  "devdoc": {
    "kind": "dev",
    "methods": {
      "allowance(address,address)": {
        "details": "See {IERC20-allowance}."
      },
      "approve(address,uint256)": {
        "details": "See {IERC20-approve}. Requirements: - `spender` cannot be the zero address."
      },
      "balanceOf(address)": {
        "details": "See {IERC20-balanceOf}."
      },
      "decimals()": {
        "details": "Returns the number of decimals used to get its user representation. For example, if `decimals` equals `2`, a balance of `505` tokens should be displayed to a user as `5,05` (`505 / 10 ** 2`). Tokens usually opt for a value of 18, imitating the relationship between Ether and Wei. This is the value {ERC20} uses, unless this function is overridden; NOTE: This information is only used for _display_ purposes: it in no way affects any of the arithmetic of the contract, including {IERC20-balanceOf} and {IERC20-transfer}."
      },
      "decreaseAllowance(address,uint256)": {
        "details": "Atomically decreases the allowance granted to `spender` by the caller. This is an alternative to {approve} that can be used as a mitigation for problems described in {IERC20-approve}. Emits an {Approval} event indicating the updated allowance. Requirements: - `spender` cannot be the zero address. - `spender` must have allowance for the caller of at least `subtractedValue`."
      },
      "increaseAllowance(address,uint256)": {
        "details": "Atomically increases the allowance granted to `spender` by the caller. This is an alternative to {approve} that can be used as a mitigation for problems described in {IERC20-approve}. Emits an {Approval} event indicating the updated allowance. Requirements: - `spender` cannot be the zero address."
      },
      "name()": {
        "details": "Returns the name of the token."
      },
      "owner()": {
        "details": "Returns the address of the current owner."
      },
      "renounceOwnership()": {
        "details": "Leaves the contract without owner. It will not be possible to call `onlyOwner` functions anymore. Can only be called by the current owner. NOTE: Renouncing ownership will leave the contract without an owner, thereby removing any functionality that is only available to the owner."
      },
      "symbol()": {
        "details": "Returns the symbol of the token, usually a shorter version of the name."
      },
      "totalSupply()": {
        "details": "See {IERC20-totalSupply}."
      },
      "transfer(address,uint256)": {
        "details": "See {IERC20-transfer}. Requirements: - `recipient` cannot be the zero address. - the caller must have a balance of at least `amount`."
      },
      "transferFrom(address,address,uint256)": {
        "details": "See {IERC20-transferFrom}. Emits an {Approval} event indicating the updated allowance. This is not required by the EIP. See the note at the beginning of {ERC20}. Requirements: - `sender` and `recipient` cannot be the zero address. - `sender` must have a balance of at least `amount`. - the caller must have allowance for ``sender``'s tokens of at least `amount`."
      },
      "transferOwnership(address)": {
        "details": "Transfers ownership of the contract to a new account (`newOwner`). Can only be called by the current owner."
      }
    },
    "version": 1
  },
  "userdoc": {
    "kind": "user",
    "methods": {},
    "version": 1
  }
}