{
  "contractName": "DummyImplementation",
  "abi": [
    {
      "inputs": [],
      "name": "text",
      "outputs": [
        {
          "internalType": "string",
          "name": "",
          "type": "string"
        }
      ],
      "stateMutability": "view",
      "type": "function"
    },
    {
      "inputs": [],
      "name": "value",
      "outputs": [
        {
          "internalType": "uint256",
          "name": "",
          "type": "uint256"
        }
      ],
      "stateMutability": "view",
      "type": "function"
    },
    {
      "inputs": [
        {
          "internalType": "uint256",
          "name": "",
          "type": "uint256"
        }
      ],
      "name": "values",
      "outputs": [
        {
          "internalType": "uint256",
          "name": "",
          "type": "uint256"
        }
      ],
      "stateMutability": "view",
      "type": "function"
    },
    {
      "inputs": [],
      "name": "initializeNonPayable",
      "outputs": [],
      "stateMutability": "nonpayable",
      "type": "function"
    },
    {
      "inputs": [],
      "name": "initializePayable",
      "outputs": [],
      "stateMutability": "payable",
      "type": "function"
    },
    {
      "inputs": [
        {
          "internalType": "uint256",
          "name": "_value",
          "type": "uint256"
        }
      ],
      "name": "initializeNonPayableWithValue",
      "outputs": [],
      "stateMutability": "nonpayable",
      "type": "function"
    },
    {
      "inputs": [
        {
          "internalType": "uint256",
          "name": "_value",
          "type": "uint256"
        }
      ],
      "name": "initializePayableWithValue",
      "outputs": [],
      "stateMutability": "payable",
      "type": "function"
    },
    {
      "inputs": [
        {
          "internalType": "uint256",
          "name": "_value",
          "type": "uint256"
        },
        {
          "internalType": "string",
          "name": "_text",
          "type": "string"
        },
        {
          "internalType": "uint256[]",
          "name": "_values",
          "type": "uint256[]"
        }
      ],
      "name": "initialize",
      "outputs": [],
      "stateMutability": "nonpayable",
      "type": "function"
    },
    {
      "inputs": [],
      "name": "get",
      "outputs": [
        {
          "internalType": "bool",
          "name": "",
          "type": "bool"
        }
      ],
      "stateMutability": "pure",
      "type": "function"
    },
    {
      "inputs": [],
      "name": "version",
      "outputs": [
        {
          "internalType": "string",
          "name": "",
          "type": "string"
        }
      ],
      "stateMutability": "pure",
      "type": "function"
    },
    {
      "inputs": [],
      "name": "reverts",
      "outputs": [],
      "stateMutability": "pure",
      "type": "function"
    }
  ],
  "bytecode": "0x608060405234801561001057600080fd5b506109e7806100206000396000f3fe60806040526004361061009c5760003560e01c80635e383d21116100645780635e383d21146101505780636d4ce63c1461018d578063763e2831146101b85780639fba1f9a146101e1578063d31f8b6b146101eb578063e79f5bee146102145761009c565b80631f1bd692146100a1578063227367d5146100cc5780633bccbbc9146100e35780633fa4f245146100fa57806354fd4d5014610125575b600080fd5b3480156100ad57600080fd5b506100b6610230565b6040516100c39190610733565b60405180910390f35b3480156100d857600080fd5b506100e16102be565b005b3480156100ef57600080fd5b506100f86102c8565b005b34801561010657600080fd5b5061010f61030b565b60405161011c9190610775565b60405180910390f35b34801561013157600080fd5b5061013a610311565b6040516101479190610733565b60405180910390f35b34801561015c57600080fd5b50610177600480360381019061017291906105e6565b61034e565b6040516101849190610775565b60405180910390f35b34801561019957600080fd5b506101a2610372565b6040516101af9190610718565b60405180910390f35b3480156101c457600080fd5b506101df60048036038101906101da91906105e6565b61037b565b005b6101e9610385565b005b3480156101f757600080fd5b50610212600480360381019061020d9190610613565b61038f565b005b61022e600480360381019061022991906105e6565b6103c9565b005b6001805461023d90610886565b80601f016020809104026020016040519081016040528092919081815260200182805461026990610886565b80156102b65780601f1061028b576101008083540402835291602001916102b6565b820191906000526020600020905b81548152906001019060200180831161029957829003601f168201915b505050505081565b600a600081905550565b6000610309576040517f08c379a000000000000000000000000000000000000000000000000000000000815260040161030090610755565b60405180910390fd5b565b60005481565b60606040518060400160405280600281526020017f5631000000000000000000000000000000000000000000000000000000000000815250905090565b6002818154811061035e57600080fd5b906000526020600020016000915090505481565b60006001905090565b8060008190555050565b6064600081905550565b8260008190555081600190805190602001906103ac9291906103d3565b5080600290805190602001906103c3929190610459565b50505050565b8060008190555050565b8280546103df90610886565b90600052602060002090601f0160209004810192826104015760008555610448565b82601f1061041a57805160ff1916838001178555610448565b82800160010185558215610448579182015b8281111561044757825182559160200191906001019061042c565b5b50905061045591906104a6565b5090565b828054828255906000526020600020908101928215610495579160200282015b82811115610494578251825591602001919060010190610479565b5b5090506104a291906104a6565b5090565b5b808211156104bf5760008160009055506001016104a7565b5090565b60006104d66104d1846107b5565b610790565b905080838252602082019050828560208602820111156104f9576104f861094c565b5b60005b85811015610529578161050f88826105d1565b8452602084019350602083019250506001810190506104fc565b5050509392505050565b6000610546610541846107e1565b610790565b90508281526020810184848401111561056257610561610951565b5b61056d848285610844565b509392505050565b600082601f83011261058a57610589610947565b5b813561059a8482602086016104c3565b91505092915050565b600082601f8301126105b8576105b7610947565b5b81356105c8848260208601610533565b91505092915050565b6000813590506105e08161099a565b92915050565b6000602082840312156105fc576105fb61095b565b5b600061060a848285016105d1565b91505092915050565b60008060006060848603121561062c5761062b61095b565b5b600061063a868287016105d1565b935050602084013567ffffffffffffffff81111561065b5761065a610956565b5b610667868287016105a3565b925050604084013567ffffffffffffffff81111561068857610687610956565b5b61069486828701610575565b9150509250925092565b6106a78161082e565b82525050565b60006106b882610812565b6106c2818561081d565b93506106d2818560208601610853565b6106db81610960565b840191505092915050565b60006106f3601c8361081d565b91506106fe82610971565b602082019050919050565b6107128161083a565b82525050565b600060208201905061072d600083018461069e565b92915050565b6000602082019050818103600083015261074d81846106ad565b905092915050565b6000602082019050818103600083015261076e816106e6565b9050919050565b600060208201905061078a6000830184610709565b92915050565b600061079a6107ab565b90506107a682826108b8565b919050565b6000604051905090565b600067ffffffffffffffff8211156107d0576107cf610918565b5b602082029050602081019050919050565b600067ffffffffffffffff8211156107fc576107fb610918565b5b61080582610960565b9050602081019050919050565b600081519050919050565b600082825260208201905092915050565b60008115159050919050565b6000819050919050565b82818337600083830152505050565b60005b83811015610871578082015181840152602081019050610856565b83811115610880576000848401525b50505050565b6000600282049050600182168061089e57607f821691505b602082108114156108b2576108b16108e9565b5b50919050565b6108c182610960565b810181811067ffffffffffffffff821117156108e0576108df610918565b5b80604052505050565b7f4e487b7100000000000000000000000000000000000000000000000000000000600052602260045260246000fd5b7f4e487b7100000000000000000000000000000000000000000000000000000000600052604160045260246000fd5b600080fd5b600080fd5b600080fd5b600080fd5b600080fd5b6000601f19601f8301169050919050565b7f44756d6d79496d706c656d656e746174696f6e20726576657274656400000000600082015250565b6109a38161083a565b81146109ae57600080fd5b5056fea2646970667358221220dd86d6e7e9c8b1809dc9c071a7556439e17139e2f2eda244afc4050c3926d35f64736f6c63430008070033",
  "immutableReferences": {},
  "source": "// SPDX-License-Identifier: MIT\n\npragma solidity ^0.8.0;\n\nabstract contract Impl {\n  function version() public pure virtual returns (string memory); \n}\n\ncontract DummyImplementation {\n  uint256 public value;\n  string public text;\n  uint256[] public values;\n\n  function initializeNonPayable() public {\n    value = 10;\n  }\n\n  function initializePayable() public payable {\n    value = 100;\n  }\n\n  function initializeNonPayableWithValue(uint256 _value) public {\n    value = _value;\n  }\n\n  function initializePayableWithValue(uint256 _value) public payable {\n    value = _value;\n  }\n\n  function initialize(uint256 _value, string memory _text, uint256[] memory _values) public {\n    value = _value;\n    text = _text;\n    values = _values;\n  }\n\n  function get() public pure returns (bool) {\n    return true;\n  }\n\n  function version() public pure virtual returns (string memory) {\n    return \"V1\";\n  }\n\n  function reverts() public pure {\n    require(false, \"DummyImplementation reverted\");\n  }\n}\n\ncontract DummyImplementationV2 is DummyImplementation {\n  function migrate(uint256 newVal) public payable {\n    value = newVal;\n  }\n\n  function version() public pure override returns (string memory) {\n    return \"V2\";\n  }\n}\n",
  "sourcePath": "C:/Users/Husnain/Documents/Projects/Fanbase/New/fanbase/packages/ethereum/contracts/solidity/openzeppelin/contracts/mocks/DummyImplementation.sol",
  "compiler": {
    "name": "solc",
    "version": "0.8.7+commit.e28d00a7.Emscripten.clang"
  },
  "schemaVersion": "3.4.1",
  "updatedAt": "2021-08-16T20:02:18.499Z",
  "devdoc": {
    "kind": "dev",
    "methods": {},
    "version": 1
  },
  "userdoc": {
    "kind": "user",
    "methods": {},
    "version": 1
  }
}