{
  "contractName": "EIP712External",
  "abi": [
    {
      "inputs": [
        {
          "internalType": "string",
          "name": "name",
          "type": "string"
        },
        {
          "internalType": "string",
          "name": "version",
          "type": "string"
        }
      ],
      "stateMutability": "nonpayable",
      "type": "constructor"
    },
    {
      "inputs": [],
      "name": "domainSeparator",
      "outputs": [
        {
          "internalType": "bytes32",
          "name": "",
          "type": "bytes32"
        }
      ],
      "stateMutability": "view",
      "type": "function"
    },
    {
      "inputs": [
        {
          "internalType": "bytes",
          "name": "signature",
          "type": "bytes"
        },
        {
          "internalType": "address",
          "name": "signer",
          "type": "address"
        },
        {
          "internalType": "address",
          "name": "mailTo",
          "type": "address"
        },
        {
          "internalType": "string",
          "name": "mailContents",
          "type": "string"
        }
      ],
      "name": "verify",
      "outputs": [],
      "stateMutability": "view",
      "type": "function"
    },
    {
      "inputs": [],
      "name": "getChainId",
      "outputs": [
        {
          "internalType": "uint256",
          "name": "",
          "type": "uint256"
        }
      ],
      "stateMutability": "view",
      "type": "function"
    }
  ],
  "bytecode": "0x6101206040523480156200001257600080fd5b506040516200108638038062001086833981810160405281019062000038919062000179565b818160008280519060200120905060008280519060200120905060007f8b73c3c69bb8fe3d512ecc4cf759cc79239f7b179b0ffacaa9a75d522b39400f90508260c081815250508160e081815250504660a08181525050620000a2818484620000bf60201b60201c565b6080818152505080610100818152505050505050505050620003f5565b60008383834630604051602001620000dc95949392919062000231565b6040516020818303038152906040528051906020012090509392505050565b6000620001126200010c84620002b7565b6200028e565b905082815260208101848484011115620001315762000130620003d5565b5b6200013e84828562000335565b509392505050565b600082601f8301126200015e576200015d620003d0565b5b815162000170848260208601620000fb565b91505092915050565b60008060408385031215620001935762000192620003df565b5b600083015167ffffffffffffffff811115620001b457620001b3620003da565b5b620001c28582860162000146565b925050602083015167ffffffffffffffff811115620001e657620001e5620003da565b5b620001f48582860162000146565b9150509250929050565b6200020981620002ed565b82525050565b6200021a8162000301565b82525050565b6200022b816200032b565b82525050565b600060a0820190506200024860008301886200020f565b6200025760208301876200020f565b6200026660408301866200020f565b62000275606083018562000220565b620002846080830184620001fe565b9695505050505050565b60006200029a620002ad565b9050620002a882826200036b565b919050565b6000604051905090565b600067ffffffffffffffff821115620002d557620002d4620003a1565b5b620002e082620003e4565b9050602081019050919050565b6000620002fa826200030b565b9050919050565b6000819050919050565b600073ffffffffffffffffffffffffffffffffffffffff82169050919050565b6000819050919050565b60005b838110156200035557808201518184015260208101905062000338565b8381111562000365576000848401525b50505050565b6200037682620003e4565b810181811067ffffffffffffffff82111715620003985762000397620003a1565b5b80604052505050565b7f4e487b7100000000000000000000000000000000000000000000000000000000600052604160045260246000fd5b600080fd5b600080fd5b600080fd5b600080fd5b6000601f19601f8301169050919050565b60805160a05160c05160e05161010051610c4c6200043a600039600061029c015260006102de015260006102bd01526000610249015260006102710152610c4c6000f3fe608060405234801561001057600080fd5b50600436106100415760003560e01c806308c6e079146100465780633408e47014610062578063f698da2514610080575b600080fd5b610060600480360381019061005b91906105f5565b61009e565b005b61006a61014a565b6040516100779190610937565b60405180910390f35b610088610152565b60405161009591906107cd565b60405180910390f35b60006100fa7f847fc9da8ec3c72cae85ca691245eaeb0a4a1e74f77c3a919c43afda231d39ba8484805190602001206040516020016100df939291906107e8565b60405160208183030381529060405280519060200120610161565b90506000610108828761017b565b90508473ffffffffffffffffffffffffffffffffffffffff168173ffffffffffffffffffffffffffffffffffffffff161461014257600080fd5b505050505050565b600046905090565b600061015c610245565b905090565b600061017461016e610245565b83610308565b9050919050565b6000806000806041855114156101a8576020850151925060408501519150606085015160001a905061022e565b6040855114156101f2576040850151602086015193507f7fffffffffffffffffffffffffffffffffffffffffffffffffffffffffffffff81169250601b8160ff1c0191505061022d565b6040517f08c379a0000000000000000000000000000000000000000000000000000000008152600401610224906108d7565b60405180910390fd5b5b61023a8682858561033b565b935050505092915050565b60007f0000000000000000000000000000000000000000000000000000000000000000461415610297577f00000000000000000000000000000000000000000000000000000000000000009050610305565b6103027f00000000000000000000000000000000000000000000000000000000000000007f00000000000000000000000000000000000000000000000000000000000000007f00000000000000000000000000000000000000000000000000000000000000006104c6565b90505b90565b6000828260405160200161031d929190610796565b60405160208183030381529060405280519060200120905092915050565b60007f7fffffffffffffffffffffffffffffff5d576e7357a4501ddfe92f46681b20a08260001c11156103a3576040517f08c379a000000000000000000000000000000000000000000000000000000000815260040161039a906108f7565b60405180910390fd5b601b8460ff1614806103b85750601c8460ff16145b6103f7576040517f08c379a00000000000000000000000000000000000000000000000000000000081526004016103ee90610917565b60405180910390fd5b60006001868686866040516000815260200160405260405161041c9493929190610872565b6020604051602081039080840390855afa15801561043e573d6000803e3d6000fd5b505050602060405103519050600073ffffffffffffffffffffffffffffffffffffffff168173ffffffffffffffffffffffffffffffffffffffff1614156104ba576040517f08c379a00000000000000000000000000000000000000000000000000000000081526004016104b1906108b7565b60405180910390fd5b80915050949350505050565b600083838346306040516020016104e195949392919061081f565b6040516020818303038152906040528051906020012090509392505050565b600061051361050e84610977565b610952565b90508281526020810184848401111561052f5761052e610ac6565b5b61053a848285610a48565b509392505050565b6000610555610550846109a8565b610952565b90508281526020810184848401111561057157610570610ac6565b5b61057c848285610a48565b509392505050565b60008135905061059381610bff565b92915050565b600082601f8301126105ae576105ad610ac1565b5b81356105be848260208601610500565b91505092915050565b600082601f8301126105dc576105db610ac1565b5b81356105ec848260208601610542565b91505092915050565b6000806000806080858703121561060f5761060e610ad0565b5b600085013567ffffffffffffffff81111561062d5761062c610acb565b5b61063987828801610599565b945050602061064a87828801610584565b935050604061065b87828801610584565b925050606085013567ffffffffffffffff81111561067c5761067b610acb565b5b610688878288016105c7565b91505092959194509250565b61069d816109f5565b82525050565b6106ac81610a07565b82525050565b6106c36106be82610a07565b610a88565b82525050565b60006106d66018836109d9565b91506106e182610ae6565b602082019050919050565b60006106f9601f836109d9565b915061070482610b0f565b602082019050919050565b600061071c6002836109ea565b915061072782610b38565b600282019050919050565b600061073f6022836109d9565b915061074a82610b61565b604082019050919050565b60006107626022836109d9565b915061076d82610bb0565b604082019050919050565b61078181610a31565b82525050565b61079081610a3b565b82525050565b60006107a18261070f565b91506107ad82856106b2565b6020820191506107bd82846106b2565b6020820191508190509392505050565b60006020820190506107e260008301846106a3565b92915050565b60006060820190506107fd60008301866106a3565b61080a6020830185610694565b61081760408301846106a3565b949350505050565b600060a08201905061083460008301886106a3565b61084160208301876106a3565b61084e60408301866106a3565b61085b6060830185610778565b6108686080830184610694565b9695505050505050565b600060808201905061088760008301876106a3565b6108946020830186610787565b6108a160408301856106a3565b6108ae60608301846106a3565b95945050505050565b600060208201905081810360008301526108d0816106c9565b9050919050565b600060208201905081810360008301526108f0816106ec565b9050919050565b6000602082019050818103600083015261091081610732565b9050919050565b6000602082019050818103600083015261093081610755565b9050919050565b600060208201905061094c6000830184610778565b92915050565b600061095c61096d565b90506109688282610a57565b919050565b6000604051905090565b600067ffffffffffffffff82111561099257610991610a92565b5b61099b82610ad5565b9050602081019050919050565b600067ffffffffffffffff8211156109c3576109c2610a92565b5b6109cc82610ad5565b9050602081019050919050565b600082825260208201905092915050565b600081905092915050565b6000610a0082610a11565b9050919050565b6000819050919050565b600073ffffffffffffffffffffffffffffffffffffffff82169050919050565b6000819050919050565b600060ff82169050919050565b82818337600083830152505050565b610a6082610ad5565b810181811067ffffffffffffffff82111715610a7f57610a7e610a92565b5b80604052505050565b6000819050919050565b7f4e487b7100000000000000000000000000000000000000000000000000000000600052604160045260246000fd5b600080fd5b600080fd5b600080fd5b600080fd5b6000601f19601f8301169050919050565b7f45434453413a20696e76616c6964207369676e61747572650000000000000000600082015250565b7f45434453413a20696e76616c6964207369676e6174757265206c656e67746800600082015250565b7f1901000000000000000000000000000000000000000000000000000000000000600082015250565b7f45434453413a20696e76616c6964207369676e6174757265202773272076616c60008201527f7565000000000000000000000000000000000000000000000000000000000000602082015250565b7f45434453413a20696e76616c6964207369676e6174757265202776272076616c60008201527f7565000000000000000000000000000000000000000000000000000000000000602082015250565b610c08816109f5565b8114610c1357600080fd5b5056fea26469706673582212209dcec956d9cc49dbb52c997c37299c5430ccbcfe812e4d437fe38fbf35a4dfeb64736f6c63430008070033",
  "immutableReferences": {
    "21423": [
      {
        "length": 32,
        "start": 625
      }
    ],
    "21425": [
      {
        "length": 32,
        "start": 585
      }
    ],
    "21427": [
      {
        "length": 32,
        "start": 701
      }
    ],
    "21429": [
      {
        "length": 32,
        "start": 734
      }
    ],
    "21431": [
      {
        "length": 32,
        "start": 668
      }
    ]
  },
  "source": "// SPDX-License-Identifier: MIT\r\n\r\npragma solidity ^0.8.0;\r\n\r\nimport \"../utils/cryptography/draft-EIP712.sol\";\r\nimport \"../utils/cryptography/ECDSA.sol\";\r\n\r\ncontract EIP712External is EIP712 {\r\n    constructor(string memory name, string memory version) EIP712(name, version) {}\r\n\r\n    function domainSeparator() external view returns (bytes32) {\r\n        return _domainSeparatorV4();\r\n    }\r\n\r\n    function verify(bytes memory signature, address signer, address mailTo, string memory mailContents) external view {\r\n        bytes32 digest = _hashTypedDataV4(keccak256(abi.encode(\r\n            keccak256(\"Mail(address to,string contents)\"),\r\n            mailTo,\r\n            keccak256(bytes(mailContents))\r\n        )));\r\n        address recoveredSigner = ECDSA.recover(digest, signature);\r\n        require(recoveredSigner == signer);\r\n    }\r\n\r\n    function getChainId() external view returns (uint256) {\r\n        return block.chainid;\r\n    }\r\n}\r\n",
  "sourcePath": "C:/Users/Husnain/Documents/Projects/Fanbase/fanbase/packages/ethereum/contracts/solidity/openzeppelin/contracts/mocks/EIP712External.sol",
  "compiler": {
    "name": "solc",
    "version": "0.8.7+commit.e28d00a7.Emscripten.clang"
  },
  "schemaVersion": "3.4.1",
  "updatedAt": "2021-08-29T17:48:47.857Z",
  "devdoc": {
    "kind": "dev",
    "methods": {},
    "version": 1
  },
  "userdoc": {
    "kind": "user",
    "methods": {},
    "version": 1
  }
}