{
  "contractName": "EnumerableMapMock",
  "abi": [
    {
      "anonymous": false,
      "inputs": [
        {
          "indexed": false,
          "internalType": "bool",
          "name": "result",
          "type": "bool"
        }
      ],
      "name": "OperationResult",
      "type": "event"
    },
    {
      "inputs": [
        {
          "internalType": "uint256",
          "name": "key",
          "type": "uint256"
        }
      ],
      "name": "contains",
      "outputs": [
        {
          "internalType": "bool",
          "name": "",
          "type": "bool"
        }
      ],
      "stateMutability": "view",
      "type": "function"
    },
    {
      "inputs": [
        {
          "internalType": "uint256",
          "name": "key",
          "type": "uint256"
        },
        {
          "internalType": "address",
          "name": "value",
          "type": "address"
        }
      ],
      "name": "set",
      "outputs": [],
      "stateMutability": "nonpayable",
      "type": "function"
    },
    {
      "inputs": [
        {
          "internalType": "uint256",
          "name": "key",
          "type": "uint256"
        }
      ],
      "name": "remove",
      "outputs": [],
      "stateMutability": "nonpayable",
      "type": "function"
    },
    {
      "inputs": [],
      "name": "length",
      "outputs": [
        {
          "internalType": "uint256",
          "name": "",
          "type": "uint256"
        }
      ],
      "stateMutability": "view",
      "type": "function"
    },
    {
      "inputs": [
        {
          "internalType": "uint256",
          "name": "index",
          "type": "uint256"
        }
      ],
      "name": "at",
      "outputs": [
        {
          "internalType": "uint256",
          "name": "key",
          "type": "uint256"
        },
        {
          "internalType": "address",
          "name": "value",
          "type": "address"
        }
      ],
      "stateMutability": "view",
      "type": "function"
    },
    {
      "inputs": [
        {
          "internalType": "uint256",
          "name": "key",
          "type": "uint256"
        }
      ],
      "name": "tryGet",
      "outputs": [
        {
          "internalType": "bool",
          "name": "",
          "type": "bool"
        },
        {
          "internalType": "address",
          "name": "",
          "type": "address"
        }
      ],
      "stateMutability": "view",
      "type": "function"
    },
    {
      "inputs": [
        {
          "internalType": "uint256",
          "name": "key",
          "type": "uint256"
        }
      ],
      "name": "get",
      "outputs": [
        {
          "internalType": "address",
          "name": "",
          "type": "address"
        }
      ],
      "stateMutability": "view",
      "type": "function"
    },
    {
      "inputs": [
        {
          "internalType": "uint256",
          "name": "key",
          "type": "uint256"
        },
        {
          "internalType": "string",
          "name": "errorMessage",
          "type": "string"
        }
      ],
      "name": "getWithMessage",
      "outputs": [
        {
          "internalType": "address",
          "name": "",
          "type": "address"
        }
      ],
      "stateMutability": "view",
      "type": "function"
    }
  ],
  "bytecode": "0x608060405234801561001057600080fd5b50610dd4806100206000396000f3fe608060405234801561001057600080fd5b50600436106100885760003560e01c80639507d39a1161005b5780639507d39a14610114578063c051a3a614610144578063c34052e014610174578063e0886f90146101a457610088565b80631f7b6d321461008d5780632f30c6f6146100ab5780634cc82215146100c7578063871394d9146100e3575b600080fd5b6100956101d5565b6040516100a29190610b81565b60405180910390f35b6100c560048036038101906100c091906109b7565b6101e6565b005b6100e160048036038101906100dc919061098a565b61023c565b005b6100fd60048036038101906100f8919061098a565b61028f565b60405161010b929190610b16565b60405180910390f35b61012e6004803603810190610129919061098a565b6102af565b60405161013b9190610ae0565b60405180910390f35b61015e600480360381019061015991906109f7565b6102cc565b60405161016b9190610ae0565b60405180910390f35b61018e6004803603810190610189919061098a565b610331565b60405161019b9190610afb565b60405180910390f35b6101be60048036038101906101b9919061098a565b61034e565b6040516101cc929190610b9c565b60405180910390f35b60006101e1600061036e565b905090565b60006101fe838360006103839092919063ffffffff16565b90507fed9840e0775590557ad736875d96c95cf1458b766335f74339951a32c82a9e338160405161022f9190610afb565b60405180910390a1505050565b60006102528260006103b890919063ffffffff16565b90507fed9840e0775590557ad736875d96c95cf1458b766335f74339951a32c82a9e33816040516102839190610afb565b60405180910390a15050565b6000806102a68360006103d290919063ffffffff16565b91509150915091565b60006102c58260006103fe90919063ffffffff16565b9050919050565b60006103288484848080601f016020809104026020016040519081016040528093929190818152602001838380828437600081840152601f19601f82011690508083019250505050505050600061041b9092919063ffffffff16565b90509392505050565b600061034782600061043a90919063ffffffff16565b9050919050565b60008061036583600061045490919063ffffffff16565b91509150915091565b600061037c82600001610480565b9050919050565b60006103af846000018460001b8473ffffffffffffffffffffffffffffffffffffffff1660001b610495565b90509392505050565b60006103ca836000018360001b6104d0565b905092915050565b6000806000806103e8866000018660001b610509565b91509150818160001c9350935050509250929050565b6000610410836000018360001b610559565b60001c905092915050565b600061042e846000018460001b846105d5565b60001c90509392505050565b600061044c836000018360001b610656565b905092915050565b6000806000806104678660000186610676565b915091508160001c8160001c9350935050509250929050565b600061048e826000016106b6565b9050919050565b600081846002016000858152602001908152602001600020819055506104c783856000016106cb90919063ffffffff16565b90509392505050565b60008260020160008381526020019081526020016000206000905561050182846000016106e290919063ffffffff16565b905092915050565b60008060008460020160008581526020019081526020016000205490506000801b8114156105495761053b8585610656565b6000801b9250925050610552565b60018192509250505b9250929050565b6000808360020160008481526020019081526020016000205490506000801b8114158061058c575061058b8484610656565b5b6105cb576040517f08c379a00000000000000000000000000000000000000000000000000000000081526004016105c290610b61565b60405180910390fd5b8091505092915050565b6000808460020160008581526020019081526020016000205490506000801b8114158061060857506106078585610656565b5b839061064a576040517f08c379a00000000000000000000000000000000000000000000000000000000081526004016106419190610b3f565b60405180910390fd5b50809150509392505050565b600061066e82846000016106f990919063ffffffff16565b905092915050565b6000806000610691848660000161071090919063ffffffff16565b9050808560020160008381526020019081526020016000205492509250509250929050565b60006106c482600001610727565b9050919050565b60006106da8360000183610738565b905092915050565b60006106f183600001836107a8565b905092915050565b600061070883600001836108bc565b905092915050565b600061071f83600001836108df565b905092915050565b600081600001805490509050919050565b600061074483836108bc565b61079d5782600001829080600181540180825580915050600190039060005260206000200160009091909190915055826000018054905083600101600084815260200190815260200160002081905550600190506107a2565b600090505b92915050565b600080836001016000848152602001908152602001600020549050600081146108b05760006001826107da9190610be1565b90506000600186600001805490506107f29190610be1565b905081811461086157600086600001828154811061081357610812610cee565b5b906000526020600020015490508087600001848154811061083757610836610cee565b5b90600052602060002001819055508387600101600083815260200190815260200160002081905550505b8560000180548061087557610874610cbf565b5b6001900381819060005260206000200160009055905585600101600086815260200190815260200160002060009055600193505050506108b6565b60009150505b92915050565b600080836001016000848152602001908152602001600020541415905092915050565b60008260000182815481106108f7576108f6610cee565b5b9060005260206000200154905092915050565b60008135905061091981610d70565b92915050565b60008083601f84011261093557610934610d22565b5b8235905067ffffffffffffffff81111561095257610951610d1d565b5b60208301915083600182028301111561096e5761096d610d27565b5b9250929050565b60008135905061098481610d87565b92915050565b6000602082840312156109a05761099f610d31565b5b60006109ae84828501610975565b91505092915050565b600080604083850312156109ce576109cd610d31565b5b60006109dc85828601610975565b92505060206109ed8582860161090a565b9150509250929050565b600080600060408486031215610a1057610a0f610d31565b5b6000610a1e86828701610975565b935050602084013567ffffffffffffffff811115610a3f57610a3e610d2c565b5b610a4b8682870161091f565b92509250509250925092565b610a6081610c15565b82525050565b610a6f81610c27565b82525050565b6000610a8082610bc5565b610a8a8185610bd0565b9350610a9a818560208601610c5d565b610aa381610d36565b840191505092915050565b6000610abb601e83610bd0565b9150610ac682610d47565b602082019050919050565b610ada81610c53565b82525050565b6000602082019050610af56000830184610a57565b92915050565b6000602082019050610b106000830184610a66565b92915050565b6000604082019050610b2b6000830185610a66565b610b386020830184610a57565b9392505050565b60006020820190508181036000830152610b598184610a75565b905092915050565b60006020820190508181036000830152610b7a81610aae565b9050919050565b6000602082019050610b966000830184610ad1565b92915050565b6000604082019050610bb16000830185610ad1565b610bbe6020830184610a57565b9392505050565b600081519050919050565b600082825260208201905092915050565b6000610bec82610c53565b9150610bf783610c53565b925082821015610c0a57610c09610c90565b5b828203905092915050565b6000610c2082610c33565b9050919050565b60008115159050919050565b600073ffffffffffffffffffffffffffffffffffffffff82169050919050565b6000819050919050565b60005b83811015610c7b578082015181840152602081019050610c60565b83811115610c8a576000848401525b50505050565b7f4e487b7100000000000000000000000000000000000000000000000000000000600052601160045260246000fd5b7f4e487b7100000000000000000000000000000000000000000000000000000000600052603160045260246000fd5b7f4e487b7100000000000000000000000000000000000000000000000000000000600052603260045260246000fd5b600080fd5b600080fd5b600080fd5b600080fd5b600080fd5b6000601f19601f8301169050919050565b7f456e756d657261626c654d61703a206e6f6e6578697374656e74206b65790000600082015250565b610d7981610c15565b8114610d8457600080fd5b50565b610d9081610c53565b8114610d9b57600080fd5b5056fea26469706673582212200b3d7102b6cc7ff18be2f595aac775f2b4235035a2a88c76c70edb363f58d46e64736f6c63430008070033",
  "immutableReferences": {},
  "source": "// SPDX-License-Identifier: MIT\r\n\r\npragma solidity ^0.8.0;\r\n\r\nimport \"../utils/structs/EnumerableMap.sol\";\r\n\r\ncontract EnumerableMapMock {\r\n    using EnumerableMap for EnumerableMap.UintToAddressMap;\r\n\r\n    event OperationResult(bool result);\r\n\r\n    EnumerableMap.UintToAddressMap private _map;\r\n\r\n    function contains(uint256 key) public view returns (bool) {\r\n        return _map.contains(key);\r\n    }\r\n\r\n    function set(uint256 key, address value) public {\r\n        bool result = _map.set(key, value);\r\n        emit OperationResult(result);\r\n    }\r\n\r\n    function remove(uint256 key) public {\r\n        bool result = _map.remove(key);\r\n        emit OperationResult(result);\r\n    }\r\n\r\n    function length() public view returns (uint256) {\r\n        return _map.length();\r\n    }\r\n\r\n    function at(uint256 index) public view returns (uint256 key, address value) {\r\n        return _map.at(index);\r\n    }\r\n\r\n\r\n    function tryGet(uint256 key) public view returns (bool, address) {\r\n        return _map.tryGet(key);\r\n    }\r\n\r\n    function get(uint256 key) public view returns (address) {\r\n        return _map.get(key);\r\n    }\r\n\r\n    function getWithMessage(uint256 key, string calldata errorMessage) public view returns (address) {\r\n        return _map.get(key, errorMessage);\r\n    }\r\n}\r\n",
  "sourcePath": "C:/Users/Husnain/Documents/Projects/Fanbase/fanbase/packages/ethereum/contracts/solidity/openzeppelin/contracts/mocks/EnumerableMapMock.sol",
  "compiler": {
    "name": "solc",
    "version": "0.8.7+commit.e28d00a7.Emscripten.clang"
  },
  "schemaVersion": "3.4.1",
  "updatedAt": "2021-08-29T17:48:48.984Z",
  "devdoc": {
    "kind": "dev",
    "methods": {},
    "version": 1
  },
  "userdoc": {
    "kind": "user",
    "methods": {},
    "version": 1
  }
}