{
  "contractName": "EnumerableUintSetMock",
  "abi": [
    {
      "anonymous": false,
      "inputs": [
        {
          "indexed": false,
          "internalType": "bool",
          "name": "result",
          "type": "bool"
        }
      ],
      "name": "OperationResult",
      "type": "event"
    },
    {
      "inputs": [
        {
          "internalType": "uint256",
          "name": "value",
          "type": "uint256"
        }
      ],
      "name": "contains",
      "outputs": [
        {
          "internalType": "bool",
          "name": "",
          "type": "bool"
        }
      ],
      "stateMutability": "view",
      "type": "function"
    },
    {
      "inputs": [
        {
          "internalType": "uint256",
          "name": "value",
          "type": "uint256"
        }
      ],
      "name": "add",
      "outputs": [],
      "stateMutability": "nonpayable",
      "type": "function"
    },
    {
      "inputs": [
        {
          "internalType": "uint256",
          "name": "value",
          "type": "uint256"
        }
      ],
      "name": "remove",
      "outputs": [],
      "stateMutability": "nonpayable",
      "type": "function"
    },
    {
      "inputs": [],
      "name": "length",
      "outputs": [
        {
          "internalType": "uint256",
          "name": "",
          "type": "uint256"
        }
      ],
      "stateMutability": "view",
      "type": "function"
    },
    {
      "inputs": [
        {
          "internalType": "uint256",
          "name": "index",
          "type": "uint256"
        }
      ],
      "name": "at",
      "outputs": [
        {
          "internalType": "uint256",
          "name": "",
          "type": "uint256"
        }
      ],
      "stateMutability": "view",
      "type": "function"
    }
  ],
  "bytecode": "0x608060405234801561001057600080fd5b50610622806100206000396000f3fe608060405234801561001057600080fd5b50600436106100575760003560e01c80631003e2d21461005c5780631f7b6d32146100785780634cc8221514610096578063c34052e0146100b2578063e0886f90146100e2575b600080fd5b61007660048036038101906100719190610478565b610112565b005b610080610165565b60405161008d91906104de565b60405180910390f35b6100b060048036038101906100ab9190610478565b610176565b005b6100cc60048036038101906100c79190610478565b6101c9565b6040516100d991906104c3565b60405180910390f35b6100fc60048036038101906100f79190610478565b6101e6565b60405161010991906104de565b60405180910390f35b600061012882600061020390919063ffffffff16565b90507fed9840e0775590557ad736875d96c95cf1458b766335f74339951a32c82a9e338160405161015991906104c3565b60405180910390a15050565b6000610171600061021d565b905090565b600061018c82600061023290919063ffffffff16565b90507fed9840e0775590557ad736875d96c95cf1458b766335f74339951a32c82a9e33816040516101bd91906104c3565b60405180910390a15050565b60006101df82600061024c90919063ffffffff16565b9050919050565b60006101fc82600061026690919063ffffffff16565b9050919050565b6000610215836000018360001b610280565b905092915050565b600061022b826000016102f0565b9050919050565b6000610244836000018360001b610301565b905092915050565b600061025e836000018360001b610415565b905092915050565b60006102758360000183610438565b60001c905092915050565b600061028c8383610415565b6102e55782600001829080600181540180825580915050600190039060005260206000200160009091909190915055826000018054905083600101600084815260200190815260200160002081905550600190506102ea565b600090505b92915050565b600081600001805490509050919050565b6000808360010160008481526020019081526020016000205490506000811461040957600060018261033391906104f9565b905060006001866000018054905061034b91906104f9565b90508181146103ba57600086600001828154811061036c5761036b6105a1565b5b90600052602060002001549050808760000184815481106103905761038f6105a1565b5b90600052602060002001819055508387600101600083815260200190815260200160002081905550505b856000018054806103ce576103cd610572565b5b60019003818190600052602060002001600090559055856001016000868152602001908152602001600020600090556001935050505061040f565b60009150505b92915050565b600080836001016000848152602001908152602001600020541415905092915050565b60008260000182815481106104505761044f6105a1565b5b9060005260206000200154905092915050565b600081359050610472816105d5565b92915050565b60006020828403121561048e5761048d6105d0565b5b600061049c84828501610463565b91505092915050565b6104ae8161052d565b82525050565b6104bd81610539565b82525050565b60006020820190506104d860008301846104a5565b92915050565b60006020820190506104f360008301846104b4565b92915050565b600061050482610539565b915061050f83610539565b92508282101561052257610521610543565b5b828203905092915050565b60008115159050919050565b6000819050919050565b7f4e487b7100000000000000000000000000000000000000000000000000000000600052601160045260246000fd5b7f4e487b7100000000000000000000000000000000000000000000000000000000600052603160045260246000fd5b7f4e487b7100000000000000000000000000000000000000000000000000000000600052603260045260246000fd5b600080fd5b6105de81610539565b81146105e957600080fd5b5056fea264697066735822122061e1d4ce7ea7875a1769c111da3aaf55cba475355cc0d594f12ea742a5895b9764736f6c63430008060033",
  "immutableReferences": {},
  "source": "// SPDX-License-Identifier: MIT\n\npragma solidity ^0.8.0;\n\nimport \"../utils/structs/EnumerableSet.sol\";\n\n// Bytes32Set\ncontract EnumerableBytes32SetMock {\n    using EnumerableSet for EnumerableSet.Bytes32Set;\n\n    event OperationResult(bool result);\n\n    EnumerableSet.Bytes32Set private _set;\n\n    function contains(bytes32 value) public view returns (bool) {\n        return _set.contains(value);\n    }\n\n    function add(bytes32 value) public {\n        bool result = _set.add(value);\n        emit OperationResult(result);\n    }\n\n    function remove(bytes32 value) public {\n        bool result = _set.remove(value);\n        emit OperationResult(result);\n    }\n\n    function length() public view returns (uint256) {\n        return _set.length();\n    }\n\n    function at(uint256 index) public view returns (bytes32) {\n        return _set.at(index);\n    }\n}\n\n// AddressSet\ncontract EnumerableAddressSetMock {\n    using EnumerableSet for EnumerableSet.AddressSet;\n\n    event OperationResult(bool result);\n\n    EnumerableSet.AddressSet private _set;\n\n    function contains(address value) public view returns (bool) {\n        return _set.contains(value);\n    }\n\n    function add(address value) public {\n        bool result = _set.add(value);\n        emit OperationResult(result);\n    }\n\n    function remove(address value) public {\n        bool result = _set.remove(value);\n        emit OperationResult(result);\n    }\n\n    function length() public view returns (uint256) {\n        return _set.length();\n    }\n\n    function at(uint256 index) public view returns (address) {\n        return _set.at(index);\n    }\n}\n\n// UintSet\ncontract EnumerableUintSetMock {\n    using EnumerableSet for EnumerableSet.UintSet;\n\n    event OperationResult(bool result);\n\n    EnumerableSet.UintSet private _set;\n\n    function contains(uint256 value) public view returns (bool) {\n        return _set.contains(value);\n    }\n\n    function add(uint256 value) public {\n        bool result = _set.add(value);\n        emit OperationResult(result);\n    }\n\n    function remove(uint256 value) public {\n        bool result = _set.remove(value);\n        emit OperationResult(result);\n    }\n\n    function length() public view returns (uint256) {\n        return _set.length();\n    }\n\n    function at(uint256 index) public view returns (uint256) {\n        return _set.at(index);\n    }\n}\n",
  "sourcePath": "C:/Users/Husnain/Documents/Projects/Fanbase/New/fanbase/packages/ethereum/contracts/solidity/openzeppelin/contracts/mocks/EnumerableSetMock.sol",
  "compiler": {
    "name": "solc",
    "version": "0.8.6+commit.11564f7e.Emscripten.clang"
  },
  "schemaVersion": "3.4.1",
  "updatedAt": "2021-07-06T14:02:45.879Z",
  "devdoc": {
    "kind": "dev",
    "methods": {},
    "version": 1
  },
  "userdoc": {
    "kind": "user",
    "methods": {},
    "version": 1
  }
}