{
  "contractName": "ERC1271WalletMock",
  "abi": [
    {
      "inputs": [
        {
          "internalType": "address",
          "name": "originalOwner",
          "type": "address"
        }
      ],
      "stateMutability": "nonpayable",
      "type": "constructor"
    },
    {
      "anonymous": false,
      "inputs": [
        {
          "indexed": true,
          "internalType": "address",
          "name": "previousOwner",
          "type": "address"
        },
        {
          "indexed": true,
          "internalType": "address",
          "name": "newOwner",
          "type": "address"
        }
      ],
      "name": "OwnershipTransferred",
      "type": "event"
    },
    {
      "inputs": [],
      "name": "owner",
      "outputs": [
        {
          "internalType": "address",
          "name": "",
          "type": "address"
        }
      ],
      "stateMutability": "view",
      "type": "function"
    },
    {
      "inputs": [],
      "name": "renounceOwnership",
      "outputs": [],
      "stateMutability": "nonpayable",
      "type": "function"
    },
    {
      "inputs": [
        {
          "internalType": "address",
          "name": "newOwner",
          "type": "address"
        }
      ],
      "name": "transferOwnership",
      "outputs": [],
      "stateMutability": "nonpayable",
      "type": "function"
    },
    {
      "inputs": [
        {
          "internalType": "bytes32",
          "name": "hash",
          "type": "bytes32"
        },
        {
          "internalType": "bytes",
          "name": "signature",
          "type": "bytes"
        }
      ],
      "name": "isValidSignature",
      "outputs": [
        {
          "internalType": "bytes4",
          "name": "magicValue",
          "type": "bytes4"
        }
      ],
      "stateMutability": "view",
      "type": "function"
    }
  ],
  "bytecode": "0x60806040523480156200001157600080fd5b50604051620011ec380380620011ec833981810160405281019062000037919062000306565b600062000049620000ff60201b60201c565b9050806000806101000a81548173ffffffffffffffffffffffffffffffffffffffff021916908373ffffffffffffffffffffffffffffffffffffffff1602179055508073ffffffffffffffffffffffffffffffffffffffff16600073ffffffffffffffffffffffffffffffffffffffff167f8be0079c531659141344cd1fd0a4f28419497f9722a3daafe3b4186f6b6457e060405160405180910390a350620000f8816200010760201b60201c565b50620004a6565b600033905090565b62000117620000ff60201b60201c565b73ffffffffffffffffffffffffffffffffffffffff166200013d620002c660201b60201c565b73ffffffffffffffffffffffffffffffffffffffff161462000196576040517f08c379a00000000000000000000000000000000000000000000000000000000081526004016200018d90620003a8565b60405180910390fd5b600073ffffffffffffffffffffffffffffffffffffffff168173ffffffffffffffffffffffffffffffffffffffff16141562000209576040517f08c379a0000000000000000000000000000000000000000000000000000000008152600401620002009062000386565b60405180910390fd5b8073ffffffffffffffffffffffffffffffffffffffff1660008054906101000a900473ffffffffffffffffffffffffffffffffffffffff1673ffffffffffffffffffffffffffffffffffffffff167f8be0079c531659141344cd1fd0a4f28419497f9722a3daafe3b4186f6b6457e060405160405180910390a3806000806101000a81548173ffffffffffffffffffffffffffffffffffffffff021916908373ffffffffffffffffffffffffffffffffffffffff16021790555050565b60008060009054906101000a900473ffffffffffffffffffffffffffffffffffffffff16905090565b60008151905062000300816200048c565b92915050565b6000602082840312156200031f576200031e6200040f565b5b60006200032f84828501620002ef565b91505092915050565b600062000347602683620003ca565b9150620003548262000414565b604082019050919050565b60006200036e602083620003ca565b91506200037b8262000463565b602082019050919050565b60006020820190508181036000830152620003a18162000338565b9050919050565b60006020820190508181036000830152620003c3816200035f565b9050919050565b600082825260208201905092915050565b6000620003e882620003ef565b9050919050565b600073ffffffffffffffffffffffffffffffffffffffff82169050919050565b600080fd5b7f4f776e61626c653a206e6577206f776e657220697320746865207a65726f206160008201527f6464726573730000000000000000000000000000000000000000000000000000602082015250565b7f4f776e61626c653a2063616c6c6572206973206e6f7420746865206f776e6572600082015250565b6200049781620003db565b8114620004a357600080fd5b50565b610d3680620004b66000396000f3fe608060405234801561001057600080fd5b506004361061004c5760003560e01c80631626ba7e14610051578063715018a6146100815780638da5cb5b1461008b578063f2fde38b146100a9575b600080fd5b61006b60048036038101906100669190610755565b6100c5565b604051610078919061091f565b60405180910390f35b610089610125565b005b61009361025f565b6040516100a091906108bf565b60405180910390f35b6100c360048036038101906100be9190610728565b610288565b005b60006100cf61025f565b73ffffffffffffffffffffffffffffffffffffffff166100ef8484610431565b73ffffffffffffffffffffffffffffffffffffffff161461011457600060e01b61011d565b631626ba7e60e01b5b905092915050565b61012d6104fb565b73ffffffffffffffffffffffffffffffffffffffff1661014b61025f565b73ffffffffffffffffffffffffffffffffffffffff16146101a1576040517f08c379a0000000000000000000000000000000000000000000000000000000008152600401610198906109da565b60405180910390fd5b600073ffffffffffffffffffffffffffffffffffffffff1660008054906101000a900473ffffffffffffffffffffffffffffffffffffffff1673ffffffffffffffffffffffffffffffffffffffff167f8be0079c531659141344cd1fd0a4f28419497f9722a3daafe3b4186f6b6457e060405160405180910390a360008060006101000a81548173ffffffffffffffffffffffffffffffffffffffff021916908373ffffffffffffffffffffffffffffffffffffffff160217905550565b60008060009054906101000a900473ffffffffffffffffffffffffffffffffffffffff16905090565b6102906104fb565b73ffffffffffffffffffffffffffffffffffffffff166102ae61025f565b73ffffffffffffffffffffffffffffffffffffffff1614610304576040517f08c379a00000000000000000000000000000000000000000000000000000000081526004016102fb906109da565b60405180910390fd5b600073ffffffffffffffffffffffffffffffffffffffff168173ffffffffffffffffffffffffffffffffffffffff161415610374576040517f08c379a000000000000000000000000000000000000000000000000000000000815260040161036b9061097a565b60405180910390fd5b8073ffffffffffffffffffffffffffffffffffffffff1660008054906101000a900473ffffffffffffffffffffffffffffffffffffffff1673ffffffffffffffffffffffffffffffffffffffff167f8be0079c531659141344cd1fd0a4f28419497f9722a3daafe3b4186f6b6457e060405160405180910390a3806000806101000a81548173ffffffffffffffffffffffffffffffffffffffff021916908373ffffffffffffffffffffffffffffffffffffffff16021790555050565b60008060008060418551141561045e576020850151925060408501519150606085015160001a90506104e4565b6040855114156104a8576040850151602086015193507f7fffffffffffffffffffffffffffffffffffffffffffffffffffffffffffffff81169250601b8160ff1c019150506104e3565b6040517f08c379a00000000000000000000000000000000000000000000000000000000081526004016104da9061095a565b60405180910390fd5b5b6104f086828585610503565b935050505092915050565b600033905090565b60007f7fffffffffffffffffffffffffffffff5d576e7357a4501ddfe92f46681b20a08260001c111561056b576040517f08c379a00000000000000000000000000000000000000000000000000000000081526004016105629061099a565b60405180910390fd5b601b8460ff1614806105805750601c8460ff16145b6105bf576040517f08c379a00000000000000000000000000000000000000000000000000000000081526004016105b6906109ba565b60405180910390fd5b6000600186868686604051600081526020016040526040516105e494939291906108da565b6020604051602081039080840390855afa158015610606573d6000803e3d6000fd5b505050602060405103519050600073ffffffffffffffffffffffffffffffffffffffff168173ffffffffffffffffffffffffffffffffffffffff161415610682576040517f08c379a00000000000000000000000000000000000000000000000000000000081526004016106799061093a565b60405180910390fd5b80915050949350505050565b60006106a161069c84610a1f565b6109fa565b9050828152602081018484840111156106bd576106bc610b4a565b5b6106c8848285610ad6565b509392505050565b6000813590506106df81610cd2565b92915050565b6000813590506106f481610ce9565b92915050565b600082601f83011261070f5761070e610b45565b5b813561071f84826020860161068e565b91505092915050565b60006020828403121561073e5761073d610b54565b5b600061074c848285016106d0565b91505092915050565b6000806040838503121561076c5761076b610b54565b5b600061077a858286016106e5565b925050602083013567ffffffffffffffff81111561079b5761079a610b4f565b5b6107a7858286016106fa565b9150509250929050565b6107ba81610a61565b82525050565b6107c981610a73565b82525050565b6107d881610a7d565b82525050565b60006107eb601883610a50565b91506107f682610b6a565b602082019050919050565b600061080e601f83610a50565b915061081982610b93565b602082019050919050565b6000610831602683610a50565b915061083c82610bbc565b604082019050919050565b6000610854602283610a50565b915061085f82610c0b565b604082019050919050565b6000610877602283610a50565b915061088282610c5a565b604082019050919050565b600061089a602083610a50565b91506108a582610ca9565b602082019050919050565b6108b981610ac9565b82525050565b60006020820190506108d460008301846107b1565b92915050565b60006080820190506108ef60008301876107c0565b6108fc60208301866108b0565b61090960408301856107c0565b61091660608301846107c0565b95945050505050565b600060208201905061093460008301846107cf565b92915050565b60006020820190508181036000830152610953816107de565b9050919050565b6000602082019050818103600083015261097381610801565b9050919050565b6000602082019050818103600083015261099381610824565b9050919050565b600060208201905081810360008301526109b381610847565b9050919050565b600060208201905081810360008301526109d38161086a565b9050919050565b600060208201905081810360008301526109f38161088d565b9050919050565b6000610a04610a15565b9050610a108282610ae5565b919050565b6000604051905090565b600067ffffffffffffffff821115610a3a57610a39610b16565b5b610a4382610b59565b9050602081019050919050565b600082825260208201905092915050565b6000610a6c82610aa9565b9050919050565b6000819050919050565b60007fffffffff0000000000000000000000000000000000000000000000000000000082169050919050565b600073ffffffffffffffffffffffffffffffffffffffff82169050919050565b600060ff82169050919050565b82818337600083830152505050565b610aee82610b59565b810181811067ffffffffffffffff82111715610b0d57610b0c610b16565b5b80604052505050565b7f4e487b7100000000000000000000000000000000000000000000000000000000600052604160045260246000fd5b600080fd5b600080fd5b600080fd5b600080fd5b6000601f19601f8301169050919050565b7f45434453413a20696e76616c6964207369676e61747572650000000000000000600082015250565b7f45434453413a20696e76616c6964207369676e6174757265206c656e67746800600082015250565b7f4f776e61626c653a206e6577206f776e657220697320746865207a65726f206160008201527f6464726573730000000000000000000000000000000000000000000000000000602082015250565b7f45434453413a20696e76616c6964207369676e6174757265202773272076616c60008201527f7565000000000000000000000000000000000000000000000000000000000000602082015250565b7f45434453413a20696e76616c6964207369676e6174757265202776272076616c60008201527f7565000000000000000000000000000000000000000000000000000000000000602082015250565b7f4f776e61626c653a2063616c6c6572206973206e6f7420746865206f776e6572600082015250565b610cdb81610a61565b8114610ce657600080fd5b50565b610cf281610a73565b8114610cfd57600080fd5b5056fea2646970667358221220340220bbc2e21b071d3d8ff526c13f83dbb7d453368ecea29363928fde6df65d64736f6c63430008060033",
  "immutableReferences": {},
  "source": "// SPDX-License-Identifier: MIT\n\npragma solidity ^0.8.0;\n\nimport \"../access/Ownable.sol\";\nimport \"../interfaces/IERC1271.sol\";\nimport \"../utils/cryptography/ECDSA.sol\";\n\ncontract ERC1271WalletMock is Ownable, IERC1271 {\n    constructor(address originalOwner) {\n        transferOwnership(originalOwner);\n    }\n\n    function isValidSignature(bytes32 hash, bytes memory signature) public view override returns (bytes4 magicValue) {\n        return ECDSA.recover(hash, signature) == owner() ? this.isValidSignature.selector : bytes4(0);\n    }\n}\n",
  "sourcePath": "C:/Users/Husnain/Documents/Projects/Fanbase/New/fanbase/packages/ethereum/contracts/solidity/openzeppelin/contracts/mocks/ERC1271WalletMock.sol",
  "compiler": {
    "name": "solc",
    "version": "0.8.6+commit.11564f7e.Emscripten.clang"
  },
  "schemaVersion": "3.4.1",
  "updatedAt": "2021-07-05T11:01:08.851Z",
  "devdoc": {
    "kind": "dev",
    "methods": {
      "isValidSignature(bytes32,bytes)": {
        "details": "Should return whether the signature provided is valid for the provided data",
        "params": {
          "hash": "Hash of the data to be signed",
          "signature": "Signature byte array associated with _data"
        }
      },
      "owner()": {
        "details": "Returns the address of the current owner."
      },
      "renounceOwnership()": {
        "details": "Leaves the contract without owner. It will not be possible to call `onlyOwner` functions anymore. Can only be called by the current owner. NOTE: Renouncing ownership will leave the contract without an owner, thereby removing any functionality that is only available to the owner."
      },
      "transferOwnership(address)": {
        "details": "Transfers ownership of the contract to a new account (`newOwner`). Can only be called by the current owner."
      }
    },
    "version": 1
  },
  "userdoc": {
    "kind": "user",
    "methods": {},
    "version": 1
  }
}