{
  "contractName": "ERC1271WalletMock",
  "abi": [
    {
      "inputs": [
        {
          "internalType": "address",
          "name": "originalOwner",
          "type": "address"
        }
      ],
      "stateMutability": "nonpayable",
      "type": "constructor"
    },
    {
      "anonymous": false,
      "inputs": [
        {
          "indexed": true,
          "internalType": "address",
          "name": "previousOwner",
          "type": "address"
        },
        {
          "indexed": true,
          "internalType": "address",
          "name": "newOwner",
          "type": "address"
        }
      ],
      "name": "OwnershipTransferred",
      "type": "event"
    },
    {
      "inputs": [],
      "name": "owner",
      "outputs": [
        {
          "internalType": "address",
          "name": "",
          "type": "address"
        }
      ],
      "stateMutability": "view",
      "type": "function"
    },
    {
      "inputs": [],
      "name": "renounceOwnership",
      "outputs": [],
      "stateMutability": "nonpayable",
      "type": "function"
    },
    {
      "inputs": [
        {
          "internalType": "address",
          "name": "newOwner",
          "type": "address"
        }
      ],
      "name": "transferOwnership",
      "outputs": [],
      "stateMutability": "nonpayable",
      "type": "function"
    },
    {
      "inputs": [
        {
          "internalType": "bytes32",
          "name": "hash",
          "type": "bytes32"
        },
        {
          "internalType": "bytes",
          "name": "signature",
          "type": "bytes"
        }
      ],
      "name": "isValidSignature",
      "outputs": [
        {
          "internalType": "bytes4",
          "name": "magicValue",
          "type": "bytes4"
        }
      ],
      "stateMutability": "view",
      "type": "function"
    }
  ],
  "bytecode": "0x60806040523480156200001157600080fd5b50604051620011b9380380620011b9833981810160405281019062000037919062000306565b600062000049620000ff60201b60201c565b9050806000806101000a81548173ffffffffffffffffffffffffffffffffffffffff021916908373ffffffffffffffffffffffffffffffffffffffff1602179055508073ffffffffffffffffffffffffffffffffffffffff16600073ffffffffffffffffffffffffffffffffffffffff167f8be0079c531659141344cd1fd0a4f28419497f9722a3daafe3b4186f6b6457e060405160405180910390a350620000f8816200010760201b60201c565b506200049b565b600033905090565b62000117620000ff60201b60201c565b73ffffffffffffffffffffffffffffffffffffffff166200013d620002c660201b60201c565b73ffffffffffffffffffffffffffffffffffffffff161462000196576040517f08c379a00000000000000000000000000000000000000000000000000000000081526004016200018d90620003a2565b60405180910390fd5b600073ffffffffffffffffffffffffffffffffffffffff168173ffffffffffffffffffffffffffffffffffffffff16141562000209576040517f08c379a0000000000000000000000000000000000000000000000000000000008152600401620002009062000380565b60405180910390fd5b8073ffffffffffffffffffffffffffffffffffffffff1660008054906101000a900473ffffffffffffffffffffffffffffffffffffffff1673ffffffffffffffffffffffffffffffffffffffff167f8be0079c531659141344cd1fd0a4f28419497f9722a3daafe3b4186f6b6457e060405160405180910390a3806000806101000a81548173ffffffffffffffffffffffffffffffffffffffff021916908373ffffffffffffffffffffffffffffffffffffffff16021790555050565b60008060009054906101000a900473ffffffffffffffffffffffffffffffffffffffff16905090565b600081519050620003008162000481565b92915050565b6000602082840312156200031957600080fd5b60006200032984828501620002ef565b91505092915050565b600062000341602683620003c4565b91506200034e8262000409565b604082019050919050565b600062000368602083620003c4565b9150620003758262000458565b602082019050919050565b600060208201905081810360008301526200039b8162000332565b9050919050565b60006020820190508181036000830152620003bd8162000359565b9050919050565b600082825260208201905092915050565b6000620003e282620003e9565b9050919050565b600073ffffffffffffffffffffffffffffffffffffffff82169050919050565b7f4f776e61626c653a206e6577206f776e657220697320746865207a65726f206160008201527f6464726573730000000000000000000000000000000000000000000000000000602082015250565b7f4f776e61626c653a2063616c6c6572206973206e6f7420746865206f776e6572600082015250565b6200048c81620003d5565b81146200049857600080fd5b50565b610d0e80620004ab6000396000f3fe608060405234801561001057600080fd5b506004361061004c5760003560e01c80631626ba7e14610051578063715018a6146100815780638da5cb5b1461008b578063f2fde38b146100a9575b600080fd5b61006b60048036038101906100669190610749565b6100c5565b604051610078919061090b565b60405180910390f35b610089610125565b005b61009361025f565b6040516100a091906108ab565b60405180910390f35b6100c360048036038101906100be9190610720565b610288565b005b60006100cf61025f565b73ffffffffffffffffffffffffffffffffffffffff166100ef8484610431565b73ffffffffffffffffffffffffffffffffffffffff161461011457600060e01b61011d565b631626ba7e60e01b5b905092915050565b61012d6104fb565b73ffffffffffffffffffffffffffffffffffffffff1661014b61025f565b73ffffffffffffffffffffffffffffffffffffffff16146101a1576040517f08c379a0000000000000000000000000000000000000000000000000000000008152600401610198906109c6565b60405180910390fd5b600073ffffffffffffffffffffffffffffffffffffffff1660008054906101000a900473ffffffffffffffffffffffffffffffffffffffff1673ffffffffffffffffffffffffffffffffffffffff167f8be0079c531659141344cd1fd0a4f28419497f9722a3daafe3b4186f6b6457e060405160405180910390a360008060006101000a81548173ffffffffffffffffffffffffffffffffffffffff021916908373ffffffffffffffffffffffffffffffffffffffff160217905550565b60008060009054906101000a900473ffffffffffffffffffffffffffffffffffffffff16905090565b6102906104fb565b73ffffffffffffffffffffffffffffffffffffffff166102ae61025f565b73ffffffffffffffffffffffffffffffffffffffff1614610304576040517f08c379a00000000000000000000000000000000000000000000000000000000081526004016102fb906109c6565b60405180910390fd5b600073ffffffffffffffffffffffffffffffffffffffff168173ffffffffffffffffffffffffffffffffffffffff161415610374576040517f08c379a000000000000000000000000000000000000000000000000000000000815260040161036b90610966565b60405180910390fd5b8073ffffffffffffffffffffffffffffffffffffffff1660008054906101000a900473ffffffffffffffffffffffffffffffffffffffff1673ffffffffffffffffffffffffffffffffffffffff167f8be0079c531659141344cd1fd0a4f28419497f9722a3daafe3b4186f6b6457e060405160405180910390a3806000806101000a81548173ffffffffffffffffffffffffffffffffffffffff021916908373ffffffffffffffffffffffffffffffffffffffff16021790555050565b60008060008060418551141561045e576020850151925060408501519150606085015160001a90506104e4565b6040855114156104a8576040850151602086015193507f7fffffffffffffffffffffffffffffffffffffffffffffffffffffffffffffff81169250601b8160ff1c019150506104e3565b6040517f08c379a00000000000000000000000000000000000000000000000000000000081526004016104da90610946565b60405180910390fd5b5b6104f086828585610503565b935050505092915050565b600033905090565b60007f7fffffffffffffffffffffffffffffff5d576e7357a4501ddfe92f46681b20a08260001c111561056b576040517f08c379a000000000000000000000000000000000000000000000000000000000815260040161056290610986565b60405180910390fd5b601b8460ff1614806105805750601c8460ff16145b6105bf576040517f08c379a00000000000000000000000000000000000000000000000000000000081526004016105b6906109a6565b60405180910390fd5b6000600186868686604051600081526020016040526040516105e494939291906108c6565b6020604051602081039080840390855afa158015610606573d6000803e3d6000fd5b505050602060405103519050600073ffffffffffffffffffffffffffffffffffffffff168173ffffffffffffffffffffffffffffffffffffffff161415610682576040517f08c379a000000000000000000000000000000000000000000000000000000000815260040161067990610926565b60405180910390fd5b80915050949350505050565b60006106a161069c84610a0b565b6109e6565b9050828152602081018484840111156106b957600080fd5b6106c4848285610ac2565b509392505050565b6000813590506106db81610caa565b92915050565b6000813590506106f081610cc1565b92915050565b600082601f83011261070757600080fd5b813561071784826020860161068e565b91505092915050565b60006020828403121561073257600080fd5b6000610740848285016106cc565b91505092915050565b6000806040838503121561075c57600080fd5b600061076a858286016106e1565b925050602083013567ffffffffffffffff81111561078757600080fd5b610793858286016106f6565b9150509250929050565b6107a681610a4d565b82525050565b6107b581610a5f565b82525050565b6107c481610a69565b82525050565b60006107d7601883610a3c565b91506107e282610b42565b602082019050919050565b60006107fa601f83610a3c565b915061080582610b6b565b602082019050919050565b600061081d602683610a3c565b915061082882610b94565b604082019050919050565b6000610840602283610a3c565b915061084b82610be3565b604082019050919050565b6000610863602283610a3c565b915061086e82610c32565b604082019050919050565b6000610886602083610a3c565b915061089182610c81565b602082019050919050565b6108a581610ab5565b82525050565b60006020820190506108c0600083018461079d565b92915050565b60006080820190506108db60008301876107ac565b6108e8602083018661089c565b6108f560408301856107ac565b61090260608301846107ac565b95945050505050565b600060208201905061092060008301846107bb565b92915050565b6000602082019050818103600083015261093f816107ca565b9050919050565b6000602082019050818103600083015261095f816107ed565b9050919050565b6000602082019050818103600083015261097f81610810565b9050919050565b6000602082019050818103600083015261099f81610833565b9050919050565b600060208201905081810360008301526109bf81610856565b9050919050565b600060208201905081810360008301526109df81610879565b9050919050565b60006109f0610a01565b90506109fc8282610ad1565b919050565b6000604051905090565b600067ffffffffffffffff821115610a2657610a25610b02565b5b610a2f82610b31565b9050602081019050919050565b600082825260208201905092915050565b6000610a5882610a95565b9050919050565b6000819050919050565b60007fffffffff0000000000000000000000000000000000000000000000000000000082169050919050565b600073ffffffffffffffffffffffffffffffffffffffff82169050919050565b600060ff82169050919050565b82818337600083830152505050565b610ada82610b31565b810181811067ffffffffffffffff82111715610af957610af8610b02565b5b80604052505050565b7f4e487b7100000000000000000000000000000000000000000000000000000000600052604160045260246000fd5b6000601f19601f8301169050919050565b7f45434453413a20696e76616c6964207369676e61747572650000000000000000600082015250565b7f45434453413a20696e76616c6964207369676e6174757265206c656e67746800600082015250565b7f4f776e61626c653a206e6577206f776e657220697320746865207a65726f206160008201527f6464726573730000000000000000000000000000000000000000000000000000602082015250565b7f45434453413a20696e76616c6964207369676e6174757265202773272076616c60008201527f7565000000000000000000000000000000000000000000000000000000000000602082015250565b7f45434453413a20696e76616c6964207369676e6174757265202776272076616c60008201527f7565000000000000000000000000000000000000000000000000000000000000602082015250565b7f4f776e61626c653a2063616c6c6572206973206e6f7420746865206f776e6572600082015250565b610cb381610a4d565b8114610cbe57600080fd5b50565b610cca81610a5f565b8114610cd557600080fd5b5056fea26469706673582212203bfb477536fb15d5cb5495fd433c9baf997d53a4ded09f34916fd98457a9d41f64736f6c63430008040033",
  "immutableReferences": {},
  "source": "// SPDX-License-Identifier: MIT\n\npragma solidity ^0.8.0;\n\nimport \"../access/Ownable.sol\";\nimport \"../interfaces/IERC1271.sol\";\nimport \"../utils/cryptography/ECDSA.sol\";\n\ncontract ERC1271WalletMock is Ownable, IERC1271 {\n    constructor(address originalOwner) {\n        transferOwnership(originalOwner);\n    }\n\n    function isValidSignature(bytes32 hash, bytes memory signature) public view override returns (bytes4 magicValue) {\n        return ECDSA.recover(hash, signature) == owner() ? this.isValidSignature.selector : bytes4(0);\n    }\n}\n",
  "sourcePath": "C:/Users/Husnain/Documents/Projects/Fanbase/New/fanbase/packages/ethereum/contracts/solidity/openzeppelin/contracts/mocks/ERC1271WalletMock.sol",
  "compiler": {
    "name": "solc",
    "version": "0.8.4+commit.c7e474f2.Emscripten.clang"
  },
  "schemaVersion": "3.4.1",
  "updatedAt": "2021-06-06T20:07:31.762Z",
  "devdoc": {
    "kind": "dev",
    "methods": {
      "isValidSignature(bytes32,bytes)": {
        "details": "Should return whether the signature provided is valid for the provided data",
        "params": {
          "hash": "Hash of the data to be signed",
          "signature": "Signature byte array associated with _data"
        }
      },
      "owner()": {
        "details": "Returns the address of the current owner."
      },
      "renounceOwnership()": {
        "details": "Leaves the contract without owner. It will not be possible to call `onlyOwner` functions anymore. Can only be called by the current owner. NOTE: Renouncing ownership will leave the contract without an owner, thereby removing any functionality that is only available to the owner."
      },
      "transferOwnership(address)": {
        "details": "Transfers ownership of the contract to a new account (`newOwner`). Can only be called by the current owner."
      }
    },
    "version": 1
  },
  "userdoc": {
    "kind": "user",
    "methods": {},
    "version": 1
  }
}