{
  "contractName": "ERC1155BurnableMock",
  "abi": [
    {
      "inputs": [
        {
          "internalType": "string",
          "name": "uri",
          "type": "string"
        }
      ],
      "stateMutability": "nonpayable",
      "type": "constructor"
    },
    {
      "anonymous": false,
      "inputs": [
        {
          "indexed": true,
          "internalType": "address",
          "name": "account",
          "type": "address"
        },
        {
          "indexed": true,
          "internalType": "address",
          "name": "operator",
          "type": "address"
        },
        {
          "indexed": false,
          "internalType": "bool",
          "name": "approved",
          "type": "bool"
        }
      ],
      "name": "ApprovalForAll",
      "type": "event"
    },
    {
      "anonymous": false,
      "inputs": [
        {
          "indexed": true,
          "internalType": "address",
          "name": "operator",
          "type": "address"
        },
        {
          "indexed": true,
          "internalType": "address",
          "name": "from",
          "type": "address"
        },
        {
          "indexed": true,
          "internalType": "address",
          "name": "to",
          "type": "address"
        },
        {
          "indexed": false,
          "internalType": "uint256[]",
          "name": "ids",
          "type": "uint256[]"
        },
        {
          "indexed": false,
          "internalType": "uint256[]",
          "name": "values",
          "type": "uint256[]"
        }
      ],
      "name": "TransferBatch",
      "type": "event"
    },
    {
      "anonymous": false,
      "inputs": [
        {
          "indexed": true,
          "internalType": "address",
          "name": "operator",
          "type": "address"
        },
        {
          "indexed": true,
          "internalType": "address",
          "name": "from",
          "type": "address"
        },
        {
          "indexed": true,
          "internalType": "address",
          "name": "to",
          "type": "address"
        },
        {
          "indexed": false,
          "internalType": "uint256",
          "name": "id",
          "type": "uint256"
        },
        {
          "indexed": false,
          "internalType": "uint256",
          "name": "value",
          "type": "uint256"
        }
      ],
      "name": "TransferSingle",
      "type": "event"
    },
    {
      "anonymous": false,
      "inputs": [
        {
          "indexed": false,
          "internalType": "string",
          "name": "value",
          "type": "string"
        },
        {
          "indexed": true,
          "internalType": "uint256",
          "name": "id",
          "type": "uint256"
        }
      ],
      "name": "URI",
      "type": "event"
    },
    {
      "inputs": [
        {
          "internalType": "address",
          "name": "account",
          "type": "address"
        },
        {
          "internalType": "uint256",
          "name": "id",
          "type": "uint256"
        }
      ],
      "name": "balanceOf",
      "outputs": [
        {
          "internalType": "uint256",
          "name": "",
          "type": "uint256"
        }
      ],
      "stateMutability": "view",
      "type": "function"
    },
    {
      "inputs": [
        {
          "internalType": "address[]",
          "name": "accounts",
          "type": "address[]"
        },
        {
          "internalType": "uint256[]",
          "name": "ids",
          "type": "uint256[]"
        }
      ],
      "name": "balanceOfBatch",
      "outputs": [
        {
          "internalType": "uint256[]",
          "name": "",
          "type": "uint256[]"
        }
      ],
      "stateMutability": "view",
      "type": "function"
    },
    {
      "inputs": [
        {
          "internalType": "address",
          "name": "account",
          "type": "address"
        },
        {
          "internalType": "uint256",
          "name": "id",
          "type": "uint256"
        },
        {
          "internalType": "uint256",
          "name": "value",
          "type": "uint256"
        }
      ],
      "name": "burn",
      "outputs": [],
      "stateMutability": "nonpayable",
      "type": "function"
    },
    {
      "inputs": [
        {
          "internalType": "address",
          "name": "account",
          "type": "address"
        },
        {
          "internalType": "uint256[]",
          "name": "ids",
          "type": "uint256[]"
        },
        {
          "internalType": "uint256[]",
          "name": "values",
          "type": "uint256[]"
        }
      ],
      "name": "burnBatch",
      "outputs": [],
      "stateMutability": "nonpayable",
      "type": "function"
    },
    {
      "inputs": [
        {
          "internalType": "address",
          "name": "account",
          "type": "address"
        },
        {
          "internalType": "address",
          "name": "operator",
          "type": "address"
        }
      ],
      "name": "isApprovedForAll",
      "outputs": [
        {
          "internalType": "bool",
          "name": "",
          "type": "bool"
        }
      ],
      "stateMutability": "view",
      "type": "function"
    },
    {
      "inputs": [
        {
          "internalType": "address",
          "name": "from",
          "type": "address"
        },
        {
          "internalType": "address",
          "name": "to",
          "type": "address"
        },
        {
          "internalType": "uint256[]",
          "name": "ids",
          "type": "uint256[]"
        },
        {
          "internalType": "uint256[]",
          "name": "amounts",
          "type": "uint256[]"
        },
        {
          "internalType": "bytes",
          "name": "data",
          "type": "bytes"
        }
      ],
      "name": "safeBatchTransferFrom",
      "outputs": [],
      "stateMutability": "nonpayable",
      "type": "function"
    },
    {
      "inputs": [
        {
          "internalType": "address",
          "name": "from",
          "type": "address"
        },
        {
          "internalType": "address",
          "name": "to",
          "type": "address"
        },
        {
          "internalType": "uint256",
          "name": "id",
          "type": "uint256"
        },
        {
          "internalType": "uint256",
          "name": "amount",
          "type": "uint256"
        },
        {
          "internalType": "bytes",
          "name": "data",
          "type": "bytes"
        }
      ],
      "name": "safeTransferFrom",
      "outputs": [],
      "stateMutability": "nonpayable",
      "type": "function"
    },
    {
      "inputs": [
        {
          "internalType": "address",
          "name": "operator",
          "type": "address"
        },
        {
          "internalType": "bool",
          "name": "approved",
          "type": "bool"
        }
      ],
      "name": "setApprovalForAll",
      "outputs": [],
      "stateMutability": "nonpayable",
      "type": "function"
    },
    {
      "inputs": [
        {
          "internalType": "bytes4",
          "name": "interfaceId",
          "type": "bytes4"
        }
      ],
      "name": "supportsInterface",
      "outputs": [
        {
          "internalType": "bool",
          "name": "",
          "type": "bool"
        }
      ],
      "stateMutability": "view",
      "type": "function"
    },
    {
      "inputs": [
        {
          "internalType": "uint256",
          "name": "",
          "type": "uint256"
        }
      ],
      "name": "uri",
      "outputs": [
        {
          "internalType": "string",
          "name": "",
          "type": "string"
        }
      ],
      "stateMutability": "view",
      "type": "function"
    },
    {
      "inputs": [
        {
          "internalType": "address",
          "name": "to",
          "type": "address"
        },
        {
          "internalType": "uint256",
          "name": "id",
          "type": "uint256"
        },
        {
          "internalType": "uint256",
          "name": "value",
          "type": "uint256"
        },
        {
          "internalType": "bytes",
          "name": "data",
          "type": "bytes"
        }
      ],
      "name": "mint",
      "outputs": [],
      "stateMutability": "nonpayable",
      "type": "function"
    }
  ],
  "bytecode": "0x60806040523480156200001157600080fd5b50604051620034683803806200346883398181016040528101906200003791906200019b565b8062000049816200005160201b60201c565b505062000370565b8060029080519060200190620000699291906200006d565b5050565b8280546200007b9062000281565b90600052602060002090601f0160209004810192826200009f5760008555620000eb565b82601f10620000ba57805160ff1916838001178555620000eb565b82800160010185558215620000eb579182015b82811115620000ea578251825591602001919060010190620000cd565b5b509050620000fa9190620000fe565b5090565b5b8082111562000119576000816000905550600101620000ff565b5090565b6000620001346200012e8462000215565b620001ec565b90508281526020810184848401111562000153576200015262000350565b5b620001608482856200024b565b509392505050565b600082601f83011262000180576200017f6200034b565b5b8151620001928482602086016200011d565b91505092915050565b600060208284031215620001b457620001b36200035a565b5b600082015167ffffffffffffffff811115620001d557620001d462000355565b5b620001e38482850162000168565b91505092915050565b6000620001f86200020b565b9050620002068282620002b7565b919050565b6000604051905090565b600067ffffffffffffffff8211156200023357620002326200031c565b5b6200023e826200035f565b9050602081019050919050565b60005b838110156200026b5780820151818401526020810190506200024e565b838111156200027b576000848401525b50505050565b600060028204905060018216806200029a57607f821691505b60208210811415620002b157620002b0620002ed565b5b50919050565b620002c2826200035f565b810181811067ffffffffffffffff82111715620002e457620002e36200031c565b5b80604052505050565b7f4e487b7100000000000000000000000000000000000000000000000000000000600052602260045260246000fd5b7f4e487b7100000000000000000000000000000000000000000000000000000000600052604160045260246000fd5b600080fd5b600080fd5b600080fd5b600080fd5b6000601f19601f8301169050919050565b6130e880620003806000396000f3fe608060405234801561001057600080fd5b50600436106100a85760003560e01c80636b20c454116100715780636b20c45414610189578063731133e9146101a5578063a22cb465146101c1578063e985e9c5146101dd578063f242432a1461020d578063f5298aca14610229576100a8565b8062fdd58e146100ad57806301ffc9a7146100dd5780630e89341c1461010d5780632eb2c2d61461013d5780634e1273f414610159575b600080fd5b6100c760048036038101906100c29190611f95565b610245565b6040516100d4919061278d565b60405180910390f35b6100f760048036038101906100f29190612123565b61030e565b60405161010491906125b0565b60405180910390f35b6101276004803603810190610122919061217d565b6103f0565b60405161013491906125cb565b60405180910390f35b61015760048036038101906101529190611d64565b610484565b005b610173600480360381019061016e91906120ab565b610525565b6040516101809190612557565b60405180910390f35b6101a3600480360381019061019e9190611eca565b61063e565b005b6101bf60048036038101906101ba9190612028565b6106db565b005b6101db60048036038101906101d69190611f55565b6106ed565b005b6101f760048036038101906101f29190611d24565b61086e565b60405161020491906125b0565b60405180910390f35b61022760048036038101906102229190611e33565b610902565b005b610243600480360381019061023e9190611fd5565b6109a3565b005b60008073ffffffffffffffffffffffffffffffffffffffff168373ffffffffffffffffffffffffffffffffffffffff1614156102b6576040517f08c379a00000000000000000000000000000000000000000000000000000000081526004016102ad9061262d565b60405180910390fd5b60008083815260200190815260200160002060008473ffffffffffffffffffffffffffffffffffffffff1673ffffffffffffffffffffffffffffffffffffffff16815260200190815260200160002054905092915050565b60007fd9b67a26000000000000000000000000000000000000000000000000000000007bffffffffffffffffffffffffffffffffffffffffffffffffffffffff1916827bffffffffffffffffffffffffffffffffffffffffffffffffffffffff191614806103d957507f0e89341c000000000000000000000000000000000000000000000000000000007bffffffffffffffffffffffffffffffffffffffffffffffffffffffff1916827bffffffffffffffffffffffffffffffffffffffffffffffffffffffff1916145b806103e957506103e882610a40565b5b9050919050565b6060600280546103ff906129fc565b80601f016020809104026020016040519081016040528092919081815260200182805461042b906129fc565b80156104785780601f1061044d57610100808354040283529160200191610478565b820191906000526020600020905b81548152906001019060200180831161045b57829003601f168201915b50505050509050919050565b61048c610aaa565b73ffffffffffffffffffffffffffffffffffffffff168573ffffffffffffffffffffffffffffffffffffffff1614806104d257506104d1856104cc610aaa565b61086e565b5b610511576040517f08c379a0000000000000000000000000000000000000000000000000000000008152600401610508906126ad565b60405180910390fd5b61051e8585858585610ab2565b5050505050565b6060815183511461056b576040517f08c379a00000000000000000000000000000000000000000000000000000000081526004016105629061272d565b60405180910390fd5b6000835167ffffffffffffffff81111561058857610587612b35565b5b6040519080825280602002602001820160405280156105b65781602001602082028036833780820191505090505b50905060005b8451811015610633576106038582815181106105db576105da612b06565b5b60200260200101518583815181106105f6576105f5612b06565b5b6020026020010151610245565b82828151811061061657610615612b06565b5b6020026020010181815250508061062c90612a5f565b90506105bc565b508091505092915050565b610646610aaa565b73ffffffffffffffffffffffffffffffffffffffff168373ffffffffffffffffffffffffffffffffffffffff16148061068c575061068b83610686610aaa565b61086e565b5b6106cb576040517f08c379a00000000000000000000000000000000000000000000000000000000081526004016106c29061266d565b60405180910390fd5b6106d6838383610dc6565b505050565b6106e784848484611077565b50505050565b8173ffffffffffffffffffffffffffffffffffffffff1661070c610aaa565b73ffffffffffffffffffffffffffffffffffffffff161415610763576040517f08c379a000000000000000000000000000000000000000000000000000000000815260040161075a9061270d565b60405180910390fd5b8060016000610770610aaa565b73ffffffffffffffffffffffffffffffffffffffff1673ffffffffffffffffffffffffffffffffffffffff16815260200190815260200160002060008473ffffffffffffffffffffffffffffffffffffffff1673ffffffffffffffffffffffffffffffffffffffff16815260200190815260200160002060006101000a81548160ff0219169083151502179055508173ffffffffffffffffffffffffffffffffffffffff1661081d610aaa565b73ffffffffffffffffffffffffffffffffffffffff167f17307eab39ab6107e8899845ad3d59bd9653f200f220920489ca2b5937696c318360405161086291906125b0565b60405180910390a35050565b6000600160008473ffffffffffffffffffffffffffffffffffffffff1673ffffffffffffffffffffffffffffffffffffffff16815260200190815260200160002060008373ffffffffffffffffffffffffffffffffffffffff1673ffffffffffffffffffffffffffffffffffffffff16815260200190815260200160002060009054906101000a900460ff16905092915050565b61090a610aaa565b73ffffffffffffffffffffffffffffffffffffffff168573ffffffffffffffffffffffffffffffffffffffff161480610950575061094f8561094a610aaa565b61086e565b5b61098f576040517f08c379a00000000000000000000000000000000000000000000000000000000081526004016109869061266d565b60405180910390fd5b61099c858585858561120d565b5050505050565b6109ab610aaa565b73ffffffffffffffffffffffffffffffffffffffff168373ffffffffffffffffffffffffffffffffffffffff1614806109f157506109f0836109eb610aaa565b61086e565b5b610a30576040517f08c379a0000000000000000000000000000000000000000000000000000000008152600401610a279061266d565b60405180910390fd5b610a3b83838361148f565b505050565b60007f01ffc9a7000000000000000000000000000000000000000000000000000000007bffffffffffffffffffffffffffffffffffffffffffffffffffffffff1916827bffffffffffffffffffffffffffffffffffffffffffffffffffffffff1916149050919050565b600033905090565b8151835114610af6576040517f08c379a0000000000000000000000000000000000000000000000000000000008152600401610aed9061274d565b60405180910390fd5b600073ffffffffffffffffffffffffffffffffffffffff168473ffffffffffffffffffffffffffffffffffffffff161415610b66576040517f08c379a0000000000000000000000000000000000000000000000000000000008152600401610b5d9061268d565b60405180910390fd5b6000610b70610aaa565b9050610b808187878787876116ac565b60005b8451811015610d31576000858281518110610ba157610ba0612b06565b5b602002602001015190506000858381518110610bc057610bbf612b06565b5b60200260200101519050600080600084815260200190815260200160002060008b73ffffffffffffffffffffffffffffffffffffffff1673ffffffffffffffffffffffffffffffffffffffff16815260200190815260200160002054905081811015610c61576040517f08c379a0000000000000000000000000000000000000000000000000000000008152600401610c58906126ed565b60405180910390fd5b81810360008085815260200190815260200160002060008c73ffffffffffffffffffffffffffffffffffffffff1673ffffffffffffffffffffffffffffffffffffffff168152602001908152602001600020819055508160008085815260200190815260200160002060008b73ffffffffffffffffffffffffffffffffffffffff1673ffffffffffffffffffffffffffffffffffffffff1681526020019081526020016000206000828254610d1691906128f0565b9250508190555050505080610d2a90612a5f565b9050610b83565b508473ffffffffffffffffffffffffffffffffffffffff168673ffffffffffffffffffffffffffffffffffffffff168273ffffffffffffffffffffffffffffffffffffffff167f4a39dc06d4c0dbc64b70af90fd698a233a518aa5d07e595d983b8c0526c8f7fb8787604051610da8929190612579565b60405180910390a4610dbe8187878787876116b4565b505050505050565b600073ffffffffffffffffffffffffffffffffffffffff168373ffffffffffffffffffffffffffffffffffffffff161415610e36576040517f08c379a0000000000000000000000000000000000000000000000000000000008152600401610e2d906126cd565b60405180910390fd5b8051825114610e7a576040517f08c379a0000000000000000000000000000000000000000000000000000000008152600401610e719061274d565b60405180910390fd5b6000610e84610aaa565b9050610ea4818560008686604051806020016040528060008152506116ac565b60005b8351811015610ff1576000848281518110610ec557610ec4612b06565b5b602002602001015190506000848381518110610ee457610ee3612b06565b5b60200260200101519050600080600084815260200190815260200160002060008973ffffffffffffffffffffffffffffffffffffffff1673ffffffffffffffffffffffffffffffffffffffff16815260200190815260200160002054905081811015610f85576040517f08c379a0000000000000000000000000000000000000000000000000000000008152600401610f7c9061264d565b60405180910390fd5b81810360008085815260200190815260200160002060008a73ffffffffffffffffffffffffffffffffffffffff1673ffffffffffffffffffffffffffffffffffffffff168152602001908152602001600020819055505050508080610fe990612a5f565b915050610ea7565b50600073ffffffffffffffffffffffffffffffffffffffff168473ffffffffffffffffffffffffffffffffffffffff168273ffffffffffffffffffffffffffffffffffffffff167f4a39dc06d4c0dbc64b70af90fd698a233a518aa5d07e595d983b8c0526c8f7fb8686604051611069929190612579565b60405180910390a450505050565b600073ffffffffffffffffffffffffffffffffffffffff168473ffffffffffffffffffffffffffffffffffffffff1614156110e7576040517f08c379a00000000000000000000000000000000000000000000000000000000081526004016110de9061276d565b60405180910390fd5b60006110f1610aaa565b9050611112816000876111038861189b565b61110c8861189b565b876116ac565b8260008086815260200190815260200160002060008773ffffffffffffffffffffffffffffffffffffffff1673ffffffffffffffffffffffffffffffffffffffff168152602001908152602001600020600082825461117191906128f0565b925050819055508473ffffffffffffffffffffffffffffffffffffffff16600073ffffffffffffffffffffffffffffffffffffffff168273ffffffffffffffffffffffffffffffffffffffff167fc3d58168c5ae7397731d063d5bbf3d657854427343f4c083240f7aacaa2d0f6287876040516111ef9291906127a8565b60405180910390a461120681600087878787611915565b5050505050565b600073ffffffffffffffffffffffffffffffffffffffff168473ffffffffffffffffffffffffffffffffffffffff16141561127d576040517f08c379a00000000000000000000000000000000000000000000000000000000081526004016112749061268d565b60405180910390fd5b6000611287610aaa565b90506112a78187876112988861189b565b6112a18861189b565b876116ac565b600080600086815260200190815260200160002060008873ffffffffffffffffffffffffffffffffffffffff1673ffffffffffffffffffffffffffffffffffffffff1681526020019081526020016000205490508381101561133e576040517f08c379a0000000000000000000000000000000000000000000000000000000008152600401611335906126ed565b60405180910390fd5b83810360008087815260200190815260200160002060008973ffffffffffffffffffffffffffffffffffffffff1673ffffffffffffffffffffffffffffffffffffffff168152602001908152602001600020819055508360008087815260200190815260200160002060008873ffffffffffffffffffffffffffffffffffffffff1673ffffffffffffffffffffffffffffffffffffffff16815260200190815260200160002060008282546113f391906128f0565b925050819055508573ffffffffffffffffffffffffffffffffffffffff168773ffffffffffffffffffffffffffffffffffffffff168373ffffffffffffffffffffffffffffffffffffffff167fc3d58168c5ae7397731d063d5bbf3d657854427343f4c083240f7aacaa2d0f6288886040516114709291906127a8565b60405180910390a4611486828888888888611915565b50505050505050565b600073ffffffffffffffffffffffffffffffffffffffff168373ffffffffffffffffffffffffffffffffffffffff1614156114ff576040517f08c379a00000000000000000000000000000000000000000000000000000000081526004016114f6906126cd565b60405180910390fd5b6000611509610aaa565b90506115398185600061151b8761189b565b6115248761189b565b604051806020016040528060008152506116ac565b600080600085815260200190815260200160002060008673ffffffffffffffffffffffffffffffffffffffff1673ffffffffffffffffffffffffffffffffffffffff168152602001908152602001600020549050828110156115d0576040517f08c379a00000000000000000000000000000000000000000000000000000000081526004016115c79061264d565b60405180910390fd5b82810360008086815260200190815260200160002060008773ffffffffffffffffffffffffffffffffffffffff1673ffffffffffffffffffffffffffffffffffffffff16815260200190815260200160002081905550600073ffffffffffffffffffffffffffffffffffffffff168573ffffffffffffffffffffffffffffffffffffffff168373ffffffffffffffffffffffffffffffffffffffff167fc3d58168c5ae7397731d063d5bbf3d657854427343f4c083240f7aacaa2d0f62878760405161169d9291906127a8565b60405180910390a45050505050565b505050505050565b6116d38473ffffffffffffffffffffffffffffffffffffffff16611afc565b15611893578373ffffffffffffffffffffffffffffffffffffffff1663bc197c8187878686866040518663ffffffff1660e01b8152600401611719959493929190612495565b602060405180830381600087803b15801561173357600080fd5b505af192505050801561176457506040513d601f19601f820116820180604052508101906117619190612150565b60015b61180a57611770612b64565b806308c379a014156117cd5750611785612fc0565b8061179057506117cf565b806040517f08c379a00000000000000000000000000000000000000000000000000000000081526004016117c491906125cb565b60405180910390fd5b505b6040517f08c379a0000000000000000000000000000000000000000000000000000000008152600401611801906125ed565b60405180910390fd5b63bc197c8160e01b7bffffffffffffffffffffffffffffffffffffffffffffffffffffffff1916817bffffffffffffffffffffffffffffffffffffffffffffffffffffffff191614611891576040517f08c379a00000000000000000000000000000000000000000000000000000000081526004016118889061260d565b60405180910390fd5b505b505050505050565b60606000600167ffffffffffffffff8111156118ba576118b9612b35565b5b6040519080825280602002602001820160405280156118e85781602001602082028036833780820191505090505b5090508281600081518110611900576118ff612b06565b5b60200260200101818152505080915050919050565b6119348473ffffffffffffffffffffffffffffffffffffffff16611afc565b15611af4578373ffffffffffffffffffffffffffffffffffffffff1663f23a6e6187878686866040518663ffffffff1660e01b815260040161197a9594939291906124fd565b602060405180830381600087803b15801561199457600080fd5b505af19250505080156119c557506040513d601f19601f820116820180604052508101906119c29190612150565b60015b611a6b576119d1612b64565b806308c379a01415611a2e57506119e6612fc0565b806119f15750611a30565b806040517f08c379a0000000000000000000000000000000000000000000000000000000008152600401611a2591906125cb565b60405180910390fd5b505b6040517f08c379a0000000000000000000000000000000000000000000000000000000008152600401611a62906125ed565b60405180910390fd5b63f23a6e6160e01b7bffffffffffffffffffffffffffffffffffffffffffffffffffffffff1916817bffffffffffffffffffffffffffffffffffffffffffffffffffffffff191614611af2576040517f08c379a0000000000000000000000000000000000000000000000000000000008152600401611ae99061260d565b60405180910390fd5b505b505050505050565b600080823b905060008111915050919050565b6000611b22611b1d846127f6565b6127d1565b90508083825260208201905082856020860282011115611b4557611b44612b8b565b5b60005b85811015611b755781611b5b8882611c31565b845260208401935060208301925050600181019050611b48565b5050509392505050565b6000611b92611b8d84612822565b6127d1565b90508083825260208201905082856020860282011115611bb557611bb4612b8b565b5b60005b85811015611be55781611bcb8882611d0f565b845260208401935060208301925050600181019050611bb8565b5050509392505050565b6000611c02611bfd8461284e565b6127d1565b905082815260208101848484011115611c1e57611c1d612b90565b5b611c298482856129ba565b509392505050565b600081359050611c4081613056565b92915050565b600082601f830112611c5b57611c5a612b86565b5b8135611c6b848260208601611b0f565b91505092915050565b600082601f830112611c8957611c88612b86565b5b8135611c99848260208601611b7f565b91505092915050565b600081359050611cb18161306d565b92915050565b600081359050611cc681613084565b92915050565b600081519050611cdb81613084565b92915050565b600082601f830112611cf657611cf5612b86565b5b8135611d06848260208601611bef565b91505092915050565b600081359050611d1e8161309b565b92915050565b60008060408385031215611d3b57611d3a612b9a565b5b6000611d4985828601611c31565b9250506020611d5a85828601611c31565b9150509250929050565b600080600080600060a08688031215611d8057611d7f612b9a565b5b6000611d8e88828901611c31565b9550506020611d9f88828901611c31565b945050604086013567ffffffffffffffff811115611dc057611dbf612b95565b5b611dcc88828901611c74565b935050606086013567ffffffffffffffff811115611ded57611dec612b95565b5b611df988828901611c74565b925050608086013567ffffffffffffffff811115611e1a57611e19612b95565b5b611e2688828901611ce1565b9150509295509295909350565b600080600080600060a08688031215611e4f57611e4e612b9a565b5b6000611e5d88828901611c31565b9550506020611e6e88828901611c31565b9450506040611e7f88828901611d0f565b9350506060611e9088828901611d0f565b925050608086013567ffffffffffffffff811115611eb157611eb0612b95565b5b611ebd88828901611ce1565b9150509295509295909350565b600080600060608486031215611ee357611ee2612b9a565b5b6000611ef186828701611c31565b935050602084013567ffffffffffffffff811115611f1257611f11612b95565b5b611f1e86828701611c74565b925050604084013567ffffffffffffffff811115611f3f57611f3e612b95565b5b611f4b86828701611c74565b9150509250925092565b60008060408385031215611f6c57611f6b612b9a565b5b6000611f7a85828601611c31565b9250506020611f8b85828601611ca2565b9150509250929050565b60008060408385031215611fac57611fab612b9a565b5b6000611fba85828601611c31565b9250506020611fcb85828601611d0f565b9150509250929050565b600080600060608486031215611fee57611fed612b9a565b5b6000611ffc86828701611c31565b935050602061200d86828701611d0f565b925050604061201e86828701611d0f565b9150509250925092565b6000806000806080858703121561204257612041612b9a565b5b600061205087828801611c31565b945050602061206187828801611d0f565b935050604061207287828801611d0f565b925050606085013567ffffffffffffffff81111561209357612092612b95565b5b61209f87828801611ce1565b91505092959194509250565b600080604083850312156120c2576120c1612b9a565b5b600083013567ffffffffffffffff8111156120e0576120df612b95565b5b6120ec85828601611c46565b925050602083013567ffffffffffffffff81111561210d5761210c612b95565b5b61211985828601611c74565b9150509250929050565b60006020828403121561213957612138612b9a565b5b600061214784828501611cb7565b91505092915050565b60006020828403121561216657612165612b9a565b5b600061217484828501611ccc565b91505092915050565b60006020828403121561219357612192612b9a565b5b60006121a184828501611d0f565b91505092915050565b60006121b68383612477565b60208301905092915050565b6121cb81612946565b82525050565b60006121dc8261288f565b6121e681856128bd565b93506121f18361287f565b8060005b8381101561222257815161220988826121aa565b9750612214836128b0565b9250506001810190506121f5565b5085935050505092915050565b61223881612958565b82525050565b60006122498261289a565b61225381856128ce565b93506122638185602086016129c9565b61226c81612b9f565b840191505092915050565b6000612282826128a5565b61228c81856128df565b935061229c8185602086016129c9565b6122a581612b9f565b840191505092915050565b60006122bd6034836128df565b91506122c882612bbd565b604082019050919050565b60006122e06028836128df565b91506122eb82612c0c565b604082019050919050565b6000612303602b836128df565b915061230e82612c5b565b604082019050919050565b60006123266024836128df565b915061233182612caa565b604082019050919050565b60006123496029836128df565b915061235482612cf9565b604082019050919050565b600061236c6025836128df565b915061237782612d48565b604082019050919050565b600061238f6032836128df565b915061239a82612d97565b604082019050919050565b60006123b26023836128df565b91506123bd82612de6565b604082019050919050565b60006123d5602a836128df565b91506123e082612e35565b604082019050919050565b60006123f86029836128df565b915061240382612e84565b604082019050919050565b600061241b6029836128df565b915061242682612ed3565b604082019050919050565b600061243e6028836128df565b915061244982612f22565b604082019050919050565b60006124616021836128df565b915061246c82612f71565b604082019050919050565b612480816129b0565b82525050565b61248f816129b0565b82525050565b600060a0820190506124aa60008301886121c2565b6124b760208301876121c2565b81810360408301526124c981866121d1565b905081810360608301526124dd81856121d1565b905081810360808301526124f1818461223e565b90509695505050505050565b600060a08201905061251260008301886121c2565b61251f60208301876121c2565b61252c6040830186612486565b6125396060830185612486565b818103608083015261254b818461223e565b90509695505050505050565b6000602082019050818103600083015261257181846121d1565b905092915050565b6000604082019050818103600083015261259381856121d1565b905081810360208301526125a781846121d1565b90509392505050565b60006020820190506125c5600083018461222f565b92915050565b600060208201905081810360008301526125e58184612277565b905092915050565b60006020820190508181036000830152612606816122b0565b9050919050565b60006020820190508181036000830152612626816122d3565b9050919050565b60006020820190508181036000830152612646816122f6565b9050919050565b6000602082019050818103600083015261266681612319565b9050919050565b600060208201905081810360008301526126868161233c565b9050919050565b600060208201905081810360008301526126a68161235f565b9050919050565b600060208201905081810360008301526126c681612382565b9050919050565b600060208201905081810360008301526126e6816123a5565b9050919050565b60006020820190508181036000830152612706816123c8565b9050919050565b60006020820190508181036000830152612726816123eb565b9050919050565b600060208201905081810360008301526127468161240e565b9050919050565b6000602082019050818103600083015261276681612431565b9050919050565b6000602082019050818103600083015261278681612454565b9050919050565b60006020820190506127a26000830184612486565b92915050565b60006040820190506127bd6000830185612486565b6127ca6020830184612486565b9392505050565b60006127db6127ec565b90506127e78282612a2e565b919050565b6000604051905090565b600067ffffffffffffffff82111561281157612810612b35565b5b602082029050602081019050919050565b600067ffffffffffffffff82111561283d5761283c612b35565b5b602082029050602081019050919050565b600067ffffffffffffffff82111561286957612868612b35565b5b61287282612b9f565b9050602081019050919050565b6000819050602082019050919050565b600081519050919050565b600081519050919050565b600081519050919050565b6000602082019050919050565b600082825260208201905092915050565b600082825260208201905092915050565b600082825260208201905092915050565b60006128fb826129b0565b9150612906836129b0565b9250827fffffffffffffffffffffffffffffffffffffffffffffffffffffffffffffffff0382111561293b5761293a612aa8565b5b828201905092915050565b600061295182612990565b9050919050565b60008115159050919050565b60007fffffffff0000000000000000000000000000000000000000000000000000000082169050919050565b600073ffffffffffffffffffffffffffffffffffffffff82169050919050565b6000819050919050565b82818337600083830152505050565b60005b838110156129e75780820151818401526020810190506129cc565b838111156129f6576000848401525b50505050565b60006002820490506001821680612a1457607f821691505b60208210811415612a2857612a27612ad7565b5b50919050565b612a3782612b9f565b810181811067ffffffffffffffff82111715612a5657612a55612b35565b5b80604052505050565b6000612a6a826129b0565b91507fffffffffffffffffffffffffffffffffffffffffffffffffffffffffffffffff821415612a9d57612a9c612aa8565b5b600182019050919050565b7f4e487b7100000000000000000000000000000000000000000000000000000000600052601160045260246000fd5b7f4e487b7100000000000000000000000000000000000000000000000000000000600052602260045260246000fd5b7f4e487b7100000000000000000000000000000000000000000000000000000000600052603260045260246000fd5b7f4e487b7100000000000000000000000000000000000000000000000000000000600052604160045260246000fd5b600060033d1115612b835760046000803e612b80600051612bb0565b90505b90565b600080fd5b600080fd5b600080fd5b600080fd5b600080fd5b6000601f19601f8301169050919050565b60008160e01c9050919050565b7f455243313135353a207472616e7366657220746f206e6f6e204552433131353560008201527f526563656976657220696d706c656d656e746572000000000000000000000000602082015250565b7f455243313135353a204552433131353552656365697665722072656a6563746560008201527f6420746f6b656e73000000000000000000000000000000000000000000000000602082015250565b7f455243313135353a2062616c616e636520717565727920666f7220746865207a60008201527f65726f2061646472657373000000000000000000000000000000000000000000602082015250565b7f455243313135353a206275726e20616d6f756e7420657863656564732062616c60008201527f616e636500000000000000000000000000000000000000000000000000000000602082015250565b7f455243313135353a2063616c6c6572206973206e6f74206f776e6572206e6f7260008201527f20617070726f7665640000000000000000000000000000000000000000000000602082015250565b7f455243313135353a207472616e7366657220746f20746865207a65726f20616460008201527f6472657373000000000000000000000000000000000000000000000000000000602082015250565b7f455243313135353a207472616e736665722063616c6c6572206973206e6f742060008201527f6f776e6572206e6f7220617070726f7665640000000000000000000000000000602082015250565b7f455243313135353a206275726e2066726f6d20746865207a65726f206164647260008201527f6573730000000000000000000000000000000000000000000000000000000000602082015250565b7f455243313135353a20696e73756666696369656e742062616c616e636520666f60008201527f72207472616e7366657200000000000000000000000000000000000000000000602082015250565b7f455243313135353a2073657474696e6720617070726f76616c2073746174757360008201527f20666f722073656c660000000000000000000000000000000000000000000000602082015250565b7f455243313135353a206163636f756e747320616e6420696473206c656e67746860008201527f206d69736d617463680000000000000000000000000000000000000000000000602082015250565b7f455243313135353a2069647320616e6420616d6f756e7473206c656e6774682060008201527f6d69736d61746368000000000000000000000000000000000000000000000000602082015250565b7f455243313135353a206d696e7420746f20746865207a65726f2061646472657360008201527f7300000000000000000000000000000000000000000000000000000000000000602082015250565b600060443d1015612fd057613053565b612fd86127ec565b60043d036004823e80513d602482011167ffffffffffffffff82111715613000575050613053565b808201805167ffffffffffffffff81111561301e5750505050613053565b80602083010160043d03850181111561303b575050505050613053565b61304a82602001850186612a2e565b82955050505050505b90565b61305f81612946565b811461306a57600080fd5b50565b61307681612958565b811461308157600080fd5b50565b61308d81612964565b811461309857600080fd5b50565b6130a4816129b0565b81146130af57600080fd5b5056fea2646970667358221220e68d60fdf52a167f7a50974d261073e413db1de1705598b7b111a4736b08e1b964736f6c63430008060033",
  "immutableReferences": {},
  "source": "// SPDX-License-Identifier: MIT\n\npragma solidity ^0.8.0;\n\nimport \"../token/ERC1155/extensions/ERC1155Burnable.sol\";\n\ncontract ERC1155BurnableMock is ERC1155Burnable {\n    constructor(string memory uri) ERC1155(uri) { }\n\n    function mint(address to, uint256 id, uint256 value, bytes memory data) public {\n        _mint(to, id, value, data);\n    }\n}\n",
  "sourcePath": "C:/Users/Husnain/Documents/Projects/Fanbase/New/fanbase/packages/ethereum/contracts/solidity/openzeppelin/contracts/mocks/ERC1155BurnableMock.sol",
  "compiler": {
    "name": "solc",
    "version": "0.8.6+commit.11564f7e.Emscripten.clang"
  },
  "schemaVersion": "3.4.1",
  "updatedAt": "2021-07-13T12:16:31.664Z",
  "devdoc": {
    "kind": "dev",
    "methods": {
      "balanceOf(address,uint256)": {
        "details": "See {IERC1155-balanceOf}. Requirements: - `account` cannot be the zero address."
      },
      "balanceOfBatch(address[],uint256[])": {
        "details": "See {IERC1155-balanceOfBatch}. Requirements: - `accounts` and `ids` must have the same length."
      },
      "isApprovedForAll(address,address)": {
        "details": "See {IERC1155-isApprovedForAll}."
      },
      "safeBatchTransferFrom(address,address,uint256[],uint256[],bytes)": {
        "details": "See {IERC1155-safeBatchTransferFrom}."
      },
      "safeTransferFrom(address,address,uint256,uint256,bytes)": {
        "details": "See {IERC1155-safeTransferFrom}."
      },
      "setApprovalForAll(address,bool)": {
        "details": "See {IERC1155-setApprovalForAll}."
      },
      "supportsInterface(bytes4)": {
        "details": "See {IERC165-supportsInterface}."
      },
      "uri(uint256)": {
        "details": "See {IERC1155MetadataURI-uri}. This implementation returns the same URI for *all* token types. It relies on the token type ID substitution mechanism https://eips.ethereum.org/EIPS/eip-1155#metadata[defined in the EIP]. Clients calling this function must replace the `\\{id\\}` substring with the actual token type ID."
      }
    },
    "version": 1
  },
  "userdoc": {
    "kind": "user",
    "methods": {},
    "version": 1
  }
}