{
  "contractName": "ERC1820ImplementerMock",
  "abi": [
    {
      "inputs": [
        {
          "internalType": "bytes32",
          "name": "interfaceHash",
          "type": "bytes32"
        },
        {
          "internalType": "address",
          "name": "account",
          "type": "address"
        }
      ],
      "name": "canImplementInterfaceForAddress",
      "outputs": [
        {
          "internalType": "bytes32",
          "name": "",
          "type": "bytes32"
        }
      ],
      "stateMutability": "view",
      "type": "function"
    },
    {
      "inputs": [
        {
          "internalType": "bytes32",
          "name": "interfaceHash",
          "type": "bytes32"
        },
        {
          "internalType": "address",
          "name": "account",
          "type": "address"
        }
      ],
      "name": "registerInterfaceForAddress",
      "outputs": [],
      "stateMutability": "nonpayable",
      "type": "function"
    }
  ],
  "bytecode": "0x608060405234801561001057600080fd5b506102d0806100206000396000f3fe608060405234801561001057600080fd5b50600436106100365760003560e01c8063249cb3fa1461003b5780635536e45d1461006b575b600080fd5b610055600480360381019061005091906101c1565b610087565b6040516100629190610210565b60405180910390f35b610085600480360381019061008091906101c1565b61011d565b005b600080600084815260200190815260200160002060008373ffffffffffffffffffffffffffffffffffffffff1673ffffffffffffffffffffffffffffffffffffffff16815260200190815260200160002060009054906101000a900460ff166100f3576000801b610115565b7fa2ef4600d742022d532d4747cb3547474667d6f13804902513b2ec01c848f4b45b905092915050565b610127828261012b565b5050565b600160008084815260200190815260200160002060008373ffffffffffffffffffffffffffffffffffffffff1673ffffffffffffffffffffffffffffffffffffffff16815260200190815260200160002060006101000a81548160ff0219169083151502179055505050565b6000813590506101a68161026c565b92915050565b6000813590506101bb81610283565b92915050565b600080604083850312156101d8576101d7610267565b5b60006101e6858286016101ac565b92505060206101f785828601610197565b9150509250929050565b61020a8161023d565b82525050565b60006020820190506102256000830184610201565b92915050565b600061023682610247565b9050919050565b6000819050919050565b600073ffffffffffffffffffffffffffffffffffffffff82169050919050565b600080fd5b6102758161022b565b811461028057600080fd5b50565b61028c8161023d565b811461029757600080fd5b5056fea2646970667358221220209bce08783acac369b5f8e66a9f86455fb215aa9f025732c82ab8716e0e28a064736f6c63430008070033",
  "immutableReferences": {},
  "source": "// SPDX-License-Identifier: MIT\r\n\r\npragma solidity ^0.8.0;\r\n\r\nimport \"../utils/introspection/ERC1820Implementer.sol\";\r\n\r\ncontract ERC1820ImplementerMock is ERC1820Implementer {\r\n    function registerInterfaceForAddress(bytes32 interfaceHash, address account) public {\r\n        _registerInterfaceForAddress(interfaceHash, account);\r\n    }\r\n}\r\n",
  "sourcePath": "C:/Users/Husnain/Documents/Projects/Fanbase/fanbase/packages/ethereum/contracts/solidity/openzeppelin/contracts/mocks/ERC1820ImplementerMock.sol",
  "compiler": {
    "name": "solc",
    "version": "0.8.7+commit.e28d00a7.Emscripten.clang"
  },
  "schemaVersion": "3.4.1",
  "updatedAt": "2021-08-24T16:48:46.807Z",
  "devdoc": {
    "kind": "dev",
    "methods": {
      "canImplementInterfaceForAddress(bytes32,address)": {
        "details": "See {IERC1820Implementer-canImplementInterfaceForAddress}."
      }
    },
    "version": 1
  },
  "userdoc": {
    "kind": "user",
    "methods": {},
    "version": 1
  }
}