{
  "contractName": "ERC1155Mock",
  "abi": [
    {
      "inputs": [
        {
          "internalType": "string",
          "name": "uri",
          "type": "string"
        }
      ],
      "stateMutability": "nonpayable",
      "type": "constructor"
    },
    {
      "anonymous": false,
      "inputs": [
        {
          "indexed": true,
          "internalType": "address",
          "name": "account",
          "type": "address"
        },
        {
          "indexed": true,
          "internalType": "address",
          "name": "operator",
          "type": "address"
        },
        {
          "indexed": false,
          "internalType": "bool",
          "name": "approved",
          "type": "bool"
        }
      ],
      "name": "ApprovalForAll",
      "type": "event"
    },
    {
      "anonymous": false,
      "inputs": [
        {
          "indexed": true,
          "internalType": "address",
          "name": "operator",
          "type": "address"
        },
        {
          "indexed": true,
          "internalType": "address",
          "name": "from",
          "type": "address"
        },
        {
          "indexed": true,
          "internalType": "address",
          "name": "to",
          "type": "address"
        },
        {
          "indexed": false,
          "internalType": "uint256[]",
          "name": "ids",
          "type": "uint256[]"
        },
        {
          "indexed": false,
          "internalType": "uint256[]",
          "name": "values",
          "type": "uint256[]"
        }
      ],
      "name": "TransferBatch",
      "type": "event"
    },
    {
      "anonymous": false,
      "inputs": [
        {
          "indexed": true,
          "internalType": "address",
          "name": "operator",
          "type": "address"
        },
        {
          "indexed": true,
          "internalType": "address",
          "name": "from",
          "type": "address"
        },
        {
          "indexed": true,
          "internalType": "address",
          "name": "to",
          "type": "address"
        },
        {
          "indexed": false,
          "internalType": "uint256",
          "name": "id",
          "type": "uint256"
        },
        {
          "indexed": false,
          "internalType": "uint256",
          "name": "value",
          "type": "uint256"
        }
      ],
      "name": "TransferSingle",
      "type": "event"
    },
    {
      "anonymous": false,
      "inputs": [
        {
          "indexed": false,
          "internalType": "string",
          "name": "value",
          "type": "string"
        },
        {
          "indexed": true,
          "internalType": "uint256",
          "name": "id",
          "type": "uint256"
        }
      ],
      "name": "URI",
      "type": "event"
    },
    {
      "inputs": [
        {
          "internalType": "address",
          "name": "account",
          "type": "address"
        },
        {
          "internalType": "uint256",
          "name": "id",
          "type": "uint256"
        }
      ],
      "name": "balanceOf",
      "outputs": [
        {
          "internalType": "uint256",
          "name": "",
          "type": "uint256"
        }
      ],
      "stateMutability": "view",
      "type": "function"
    },
    {
      "inputs": [
        {
          "internalType": "address[]",
          "name": "accounts",
          "type": "address[]"
        },
        {
          "internalType": "uint256[]",
          "name": "ids",
          "type": "uint256[]"
        }
      ],
      "name": "balanceOfBatch",
      "outputs": [
        {
          "internalType": "uint256[]",
          "name": "",
          "type": "uint256[]"
        }
      ],
      "stateMutability": "view",
      "type": "function"
    },
    {
      "inputs": [
        {
          "internalType": "address",
          "name": "account",
          "type": "address"
        },
        {
          "internalType": "address",
          "name": "operator",
          "type": "address"
        }
      ],
      "name": "isApprovedForAll",
      "outputs": [
        {
          "internalType": "bool",
          "name": "",
          "type": "bool"
        }
      ],
      "stateMutability": "view",
      "type": "function"
    },
    {
      "inputs": [
        {
          "internalType": "address",
          "name": "from",
          "type": "address"
        },
        {
          "internalType": "address",
          "name": "to",
          "type": "address"
        },
        {
          "internalType": "uint256[]",
          "name": "ids",
          "type": "uint256[]"
        },
        {
          "internalType": "uint256[]",
          "name": "amounts",
          "type": "uint256[]"
        },
        {
          "internalType": "bytes",
          "name": "data",
          "type": "bytes"
        }
      ],
      "name": "safeBatchTransferFrom",
      "outputs": [],
      "stateMutability": "nonpayable",
      "type": "function"
    },
    {
      "inputs": [
        {
          "internalType": "address",
          "name": "from",
          "type": "address"
        },
        {
          "internalType": "address",
          "name": "to",
          "type": "address"
        },
        {
          "internalType": "uint256",
          "name": "id",
          "type": "uint256"
        },
        {
          "internalType": "uint256",
          "name": "amount",
          "type": "uint256"
        },
        {
          "internalType": "bytes",
          "name": "data",
          "type": "bytes"
        }
      ],
      "name": "safeTransferFrom",
      "outputs": [],
      "stateMutability": "nonpayable",
      "type": "function"
    },
    {
      "inputs": [
        {
          "internalType": "address",
          "name": "operator",
          "type": "address"
        },
        {
          "internalType": "bool",
          "name": "approved",
          "type": "bool"
        }
      ],
      "name": "setApprovalForAll",
      "outputs": [],
      "stateMutability": "nonpayable",
      "type": "function"
    },
    {
      "inputs": [
        {
          "internalType": "bytes4",
          "name": "interfaceId",
          "type": "bytes4"
        }
      ],
      "name": "supportsInterface",
      "outputs": [
        {
          "internalType": "bool",
          "name": "",
          "type": "bool"
        }
      ],
      "stateMutability": "view",
      "type": "function"
    },
    {
      "inputs": [
        {
          "internalType": "uint256",
          "name": "",
          "type": "uint256"
        }
      ],
      "name": "uri",
      "outputs": [
        {
          "internalType": "string",
          "name": "",
          "type": "string"
        }
      ],
      "stateMutability": "view",
      "type": "function"
    },
    {
      "inputs": [
        {
          "internalType": "string",
          "name": "newuri",
          "type": "string"
        }
      ],
      "name": "setURI",
      "outputs": [],
      "stateMutability": "nonpayable",
      "type": "function"
    },
    {
      "inputs": [
        {
          "internalType": "address",
          "name": "to",
          "type": "address"
        },
        {
          "internalType": "uint256",
          "name": "id",
          "type": "uint256"
        },
        {
          "internalType": "uint256",
          "name": "value",
          "type": "uint256"
        },
        {
          "internalType": "bytes",
          "name": "data",
          "type": "bytes"
        }
      ],
      "name": "mint",
      "outputs": [],
      "stateMutability": "nonpayable",
      "type": "function"
    },
    {
      "inputs": [
        {
          "internalType": "address",
          "name": "to",
          "type": "address"
        },
        {
          "internalType": "uint256[]",
          "name": "ids",
          "type": "uint256[]"
        },
        {
          "internalType": "uint256[]",
          "name": "values",
          "type": "uint256[]"
        },
        {
          "internalType": "bytes",
          "name": "data",
          "type": "bytes"
        }
      ],
      "name": "mintBatch",
      "outputs": [],
      "stateMutability": "nonpayable",
      "type": "function"
    },
    {
      "inputs": [
        {
          "internalType": "address",
          "name": "owner",
          "type": "address"
        },
        {
          "internalType": "uint256",
          "name": "id",
          "type": "uint256"
        },
        {
          "internalType": "uint256",
          "name": "value",
          "type": "uint256"
        }
      ],
      "name": "burn",
      "outputs": [],
      "stateMutability": "nonpayable",
      "type": "function"
    },
    {
      "inputs": [
        {
          "internalType": "address",
          "name": "owner",
          "type": "address"
        },
        {
          "internalType": "uint256[]",
          "name": "ids",
          "type": "uint256[]"
        },
        {
          "internalType": "uint256[]",
          "name": "values",
          "type": "uint256[]"
        }
      ],
      "name": "burnBatch",
      "outputs": [],
      "stateMutability": "nonpayable",
      "type": "function"
    }
  ],
  "bytecode": "0x60806040523480156200001157600080fd5b506040516200384a3803806200384a83398181016040528101906200003791906200019b565b8062000049816200005160201b60201c565b505062000370565b8060029080519060200190620000699291906200006d565b5050565b8280546200007b9062000281565b90600052602060002090601f0160209004810192826200009f5760008555620000eb565b82601f10620000ba57805160ff1916838001178555620000eb565b82800160010185558215620000eb579182015b82811115620000ea578251825591602001919060010190620000cd565b5b509050620000fa9190620000fe565b5090565b5b8082111562000119576000816000905550600101620000ff565b5090565b6000620001346200012e8462000215565b620001ec565b90508281526020810184848401111562000153576200015262000350565b5b620001608482856200024b565b509392505050565b600082601f83011262000180576200017f6200034b565b5b8151620001928482602086016200011d565b91505092915050565b600060208284031215620001b457620001b36200035a565b5b600082015167ffffffffffffffff811115620001d557620001d462000355565b5b620001e38482850162000168565b91505092915050565b6000620001f86200020b565b9050620002068282620002b7565b919050565b6000604051905090565b600067ffffffffffffffff8211156200023357620002326200031c565b5b6200023e826200035f565b9050602081019050919050565b60005b838110156200026b5780820151818401526020810190506200024e565b838111156200027b576000848401525b50505050565b600060028204905060018216806200029a57607f821691505b60208210811415620002b157620002b0620002ed565b5b50919050565b620002c2826200035f565b810181811067ffffffffffffffff82111715620002e457620002e36200031c565b5b80604052505050565b7f4e487b7100000000000000000000000000000000000000000000000000000000600052602260045260246000fd5b7f4e487b7100000000000000000000000000000000000000000000000000000000600052604160045260246000fd5b600080fd5b600080fd5b600080fd5b600080fd5b6000601f19601f8301169050919050565b6134ca80620003806000396000f3fe608060405234801561001057600080fd5b50600436106100ce5760003560e01c80634e1273f41161008c578063a22cb46511610066578063a22cb4651461021f578063e985e9c51461023b578063f242432a1461026b578063f5298aca14610287576100ce565b80634e1273f4146101b75780636b20c454146101e7578063731133e914610203576100ce565b8062fdd58e146100d357806301ffc9a71461010357806302fe5305146101335780630e89341c1461014f5780631f7fdffa1461017f5780632eb2c2d61461019b575b600080fd5b6100ed60048036038101906100e891906122fd565b6102a3565b6040516100fa9190612b3e565b60405180910390f35b61011d6004803603810190610118919061248b565b61036c565b60405161012a9190612961565b60405180910390f35b61014d600480360381019061014891906124e5565b61044e565b005b6101696004803603810190610164919061252e565b61045a565b604051610176919061297c565b60405180910390f35b61019960048036038101906101949190612202565b6104ee565b005b6101b560048036038101906101b09190612011565b610500565b005b6101d160048036038101906101cc9190612413565b6105a1565b6040516101de9190612908565b60405180910390f35b61020160048036038101906101fc9190612177565b6106ba565b005b61021d60048036038101906102189190612390565b6106ca565b005b610239600480360381019061023491906122bd565b6106dc565b005b61025560048036038101906102509190611fd1565b61085d565b6040516102629190612961565b60405180910390f35b610285600480360381019061028091906120e0565b6108f1565b005b6102a1600480360381019061029c919061233d565b610992565b005b60008073ffffffffffffffffffffffffffffffffffffffff168373ffffffffffffffffffffffffffffffffffffffff161415610314576040517f08c379a000000000000000000000000000000000000000000000000000000000815260040161030b906129de565b60405180910390fd5b60008083815260200190815260200160002060008473ffffffffffffffffffffffffffffffffffffffff1673ffffffffffffffffffffffffffffffffffffffff16815260200190815260200160002054905092915050565b60007fd9b67a26000000000000000000000000000000000000000000000000000000007bffffffffffffffffffffffffffffffffffffffffffffffffffffffff1916827bffffffffffffffffffffffffffffffffffffffffffffffffffffffff1916148061043757507f0e89341c000000000000000000000000000000000000000000000000000000007bffffffffffffffffffffffffffffffffffffffffffffffffffffffff1916827bffffffffffffffffffffffffffffffffffffffffffffffffffffffff1916145b806104475750610446826109a2565b5b9050919050565b61045781610a0c565b50565b60606002805461046990612dde565b80601f016020809104026020016040519081016040528092919081815260200182805461049590612dde565b80156104e25780601f106104b7576101008083540402835291602001916104e2565b820191906000526020600020905b8154815290600101906020018083116104c557829003601f168201915b50505050509050919050565b6104fa84848484610a26565b50505050565b610508610c44565b73ffffffffffffffffffffffffffffffffffffffff168573ffffffffffffffffffffffffffffffffffffffff16148061054e575061054d85610548610c44565b61085d565b5b61058d576040517f08c379a000000000000000000000000000000000000000000000000000000000815260040161058490612a5e565b60405180910390fd5b61059a8585858585610c4c565b5050505050565b606081518351146105e7576040517f08c379a00000000000000000000000000000000000000000000000000000000081526004016105de90612ade565b60405180910390fd5b6000835167ffffffffffffffff81111561060457610603612f17565b5b6040519080825280602002602001820160405280156106325781602001602082028036833780820191505090505b50905060005b84518110156106af5761067f85828151811061065757610656612ee8565b5b602002602001015185838151811061067257610671612ee8565b5b60200260200101516102a3565b82828151811061069257610691612ee8565b5b602002602001018181525050806106a890612e41565b9050610638565b508091505092915050565b6106c5838383610f60565b505050565b6106d684848484611211565b50505050565b8173ffffffffffffffffffffffffffffffffffffffff166106fb610c44565b73ffffffffffffffffffffffffffffffffffffffff161415610752576040517f08c379a000000000000000000000000000000000000000000000000000000000815260040161074990612abe565b60405180910390fd5b806001600061075f610c44565b73ffffffffffffffffffffffffffffffffffffffff1673ffffffffffffffffffffffffffffffffffffffff16815260200190815260200160002060008473ffffffffffffffffffffffffffffffffffffffff1673ffffffffffffffffffffffffffffffffffffffff16815260200190815260200160002060006101000a81548160ff0219169083151502179055508173ffffffffffffffffffffffffffffffffffffffff1661080c610c44565b73ffffffffffffffffffffffffffffffffffffffff167f17307eab39ab6107e8899845ad3d59bd9653f200f220920489ca2b5937696c31836040516108519190612961565b60405180910390a35050565b6000600160008473ffffffffffffffffffffffffffffffffffffffff1673ffffffffffffffffffffffffffffffffffffffff16815260200190815260200160002060008373ffffffffffffffffffffffffffffffffffffffff1673ffffffffffffffffffffffffffffffffffffffff16815260200190815260200160002060009054906101000a900460ff16905092915050565b6108f9610c44565b73ffffffffffffffffffffffffffffffffffffffff168573ffffffffffffffffffffffffffffffffffffffff16148061093f575061093e85610939610c44565b61085d565b5b61097e576040517f08c379a000000000000000000000000000000000000000000000000000000000815260040161097590612a1e565b60405180910390fd5b61098b85858585856113a7565b5050505050565b61099d838383611629565b505050565b60007f01ffc9a7000000000000000000000000000000000000000000000000000000007bffffffffffffffffffffffffffffffffffffffffffffffffffffffff1916827bffffffffffffffffffffffffffffffffffffffffffffffffffffffff1916149050919050565b8060029080519060200190610a22929190611ca9565b5050565b600073ffffffffffffffffffffffffffffffffffffffff168473ffffffffffffffffffffffffffffffffffffffff161415610a96576040517f08c379a0000000000000000000000000000000000000000000000000000000008152600401610a8d90612b1e565b60405180910390fd5b8151835114610ada576040517f08c379a0000000000000000000000000000000000000000000000000000000008152600401610ad190612afe565b60405180910390fd5b6000610ae4610c44565b9050610af581600087878787611846565b60005b8451811015610bae57838181518110610b1457610b13612ee8565b5b6020026020010151600080878481518110610b3257610b31612ee8565b5b6020026020010151815260200190815260200160002060008873ffffffffffffffffffffffffffffffffffffffff1673ffffffffffffffffffffffffffffffffffffffff1681526020019081526020016000206000828254610b949190612cd2565b925050819055508080610ba690612e41565b915050610af8565b508473ffffffffffffffffffffffffffffffffffffffff16600073ffffffffffffffffffffffffffffffffffffffff168273ffffffffffffffffffffffffffffffffffffffff167f4a39dc06d4c0dbc64b70af90fd698a233a518aa5d07e595d983b8c0526c8f7fb8787604051610c2692919061292a565b60405180910390a4610c3d8160008787878761184e565b5050505050565b600033905090565b8151835114610c90576040517f08c379a0000000000000000000000000000000000000000000000000000000008152600401610c8790612afe565b60405180910390fd5b600073ffffffffffffffffffffffffffffffffffffffff168473ffffffffffffffffffffffffffffffffffffffff161415610d00576040517f08c379a0000000000000000000000000000000000000000000000000000000008152600401610cf790612a3e565b60405180910390fd5b6000610d0a610c44565b9050610d1a818787878787611846565b60005b8451811015610ecb576000858281518110610d3b57610d3a612ee8565b5b602002602001015190506000858381518110610d5a57610d59612ee8565b5b60200260200101519050600080600084815260200190815260200160002060008b73ffffffffffffffffffffffffffffffffffffffff1673ffffffffffffffffffffffffffffffffffffffff16815260200190815260200160002054905081811015610dfb576040517f08c379a0000000000000000000000000000000000000000000000000000000008152600401610df290612a9e565b60405180910390fd5b81810360008085815260200190815260200160002060008c73ffffffffffffffffffffffffffffffffffffffff1673ffffffffffffffffffffffffffffffffffffffff168152602001908152602001600020819055508160008085815260200190815260200160002060008b73ffffffffffffffffffffffffffffffffffffffff1673ffffffffffffffffffffffffffffffffffffffff1681526020019081526020016000206000828254610eb09190612cd2565b9250508190555050505080610ec490612e41565b9050610d1d565b508473ffffffffffffffffffffffffffffffffffffffff168673ffffffffffffffffffffffffffffffffffffffff168273ffffffffffffffffffffffffffffffffffffffff167f4a39dc06d4c0dbc64b70af90fd698a233a518aa5d07e595d983b8c0526c8f7fb8787604051610f4292919061292a565b60405180910390a4610f5881878787878761184e565b505050505050565b600073ffffffffffffffffffffffffffffffffffffffff168373ffffffffffffffffffffffffffffffffffffffff161415610fd0576040517f08c379a0000000000000000000000000000000000000000000000000000000008152600401610fc790612a7e565b60405180910390fd5b8051825114611014576040517f08c379a000000000000000000000000000000000000000000000000000000000815260040161100b90612afe565b60405180910390fd5b600061101e610c44565b905061103e81856000868660405180602001604052806000815250611846565b60005b835181101561118b57600084828151811061105f5761105e612ee8565b5b60200260200101519050600084838151811061107e5761107d612ee8565b5b60200260200101519050600080600084815260200190815260200160002060008973ffffffffffffffffffffffffffffffffffffffff1673ffffffffffffffffffffffffffffffffffffffff1681526020019081526020016000205490508181101561111f576040517f08c379a0000000000000000000000000000000000000000000000000000000008152600401611116906129fe565b60405180910390fd5b81810360008085815260200190815260200160002060008a73ffffffffffffffffffffffffffffffffffffffff1673ffffffffffffffffffffffffffffffffffffffff16815260200190815260200160002081905550505050808061118390612e41565b915050611041565b50600073ffffffffffffffffffffffffffffffffffffffff168473ffffffffffffffffffffffffffffffffffffffff168273ffffffffffffffffffffffffffffffffffffffff167f4a39dc06d4c0dbc64b70af90fd698a233a518aa5d07e595d983b8c0526c8f7fb868660405161120392919061292a565b60405180910390a450505050565b600073ffffffffffffffffffffffffffffffffffffffff168473ffffffffffffffffffffffffffffffffffffffff161415611281576040517f08c379a000000000000000000000000000000000000000000000000000000000815260040161127890612b1e565b60405180910390fd5b600061128b610c44565b90506112ac8160008761129d88611a35565b6112a688611a35565b87611846565b8260008086815260200190815260200160002060008773ffffffffffffffffffffffffffffffffffffffff1673ffffffffffffffffffffffffffffffffffffffff168152602001908152602001600020600082825461130b9190612cd2565b925050819055508473ffffffffffffffffffffffffffffffffffffffff16600073ffffffffffffffffffffffffffffffffffffffff168273ffffffffffffffffffffffffffffffffffffffff167fc3d58168c5ae7397731d063d5bbf3d657854427343f4c083240f7aacaa2d0f628787604051611389929190612b59565b60405180910390a46113a081600087878787611aaf565b5050505050565b600073ffffffffffffffffffffffffffffffffffffffff168473ffffffffffffffffffffffffffffffffffffffff161415611417576040517f08c379a000000000000000000000000000000000000000000000000000000000815260040161140e90612a3e565b60405180910390fd5b6000611421610c44565b905061144181878761143288611a35565b61143b88611a35565b87611846565b600080600086815260200190815260200160002060008873ffffffffffffffffffffffffffffffffffffffff1673ffffffffffffffffffffffffffffffffffffffff168152602001908152602001600020549050838110156114d8576040517f08c379a00000000000000000000000000000000000000000000000000000000081526004016114cf90612a9e565b60405180910390fd5b83810360008087815260200190815260200160002060008973ffffffffffffffffffffffffffffffffffffffff1673ffffffffffffffffffffffffffffffffffffffff168152602001908152602001600020819055508360008087815260200190815260200160002060008873ffffffffffffffffffffffffffffffffffffffff1673ffffffffffffffffffffffffffffffffffffffff168152602001908152602001600020600082825461158d9190612cd2565b925050819055508573ffffffffffffffffffffffffffffffffffffffff168773ffffffffffffffffffffffffffffffffffffffff168373ffffffffffffffffffffffffffffffffffffffff167fc3d58168c5ae7397731d063d5bbf3d657854427343f4c083240f7aacaa2d0f62888860405161160a929190612b59565b60405180910390a4611620828888888888611aaf565b50505050505050565b600073ffffffffffffffffffffffffffffffffffffffff168373ffffffffffffffffffffffffffffffffffffffff161415611699576040517f08c379a000000000000000000000000000000000000000000000000000000000815260040161169090612a7e565b60405180910390fd5b60006116a3610c44565b90506116d3818560006116b587611a35565b6116be87611a35565b60405180602001604052806000815250611846565b600080600085815260200190815260200160002060008673ffffffffffffffffffffffffffffffffffffffff1673ffffffffffffffffffffffffffffffffffffffff1681526020019081526020016000205490508281101561176a576040517f08c379a0000000000000000000000000000000000000000000000000000000008152600401611761906129fe565b60405180910390fd5b82810360008086815260200190815260200160002060008773ffffffffffffffffffffffffffffffffffffffff1673ffffffffffffffffffffffffffffffffffffffff16815260200190815260200160002081905550600073ffffffffffffffffffffffffffffffffffffffff168573ffffffffffffffffffffffffffffffffffffffff168373ffffffffffffffffffffffffffffffffffffffff167fc3d58168c5ae7397731d063d5bbf3d657854427343f4c083240f7aacaa2d0f628787604051611837929190612b59565b60405180910390a45050505050565b505050505050565b61186d8473ffffffffffffffffffffffffffffffffffffffff16611c96565b15611a2d578373ffffffffffffffffffffffffffffffffffffffff1663bc197c8187878686866040518663ffffffff1660e01b81526004016118b3959493929190612846565b602060405180830381600087803b1580156118cd57600080fd5b505af19250505080156118fe57506040513d601f19601f820116820180604052508101906118fb91906124b8565b60015b6119a45761190a612f46565b806308c379a01415611967575061191f6133a2565b8061192a5750611969565b806040517f08c379a000000000000000000000000000000000000000000000000000000000815260040161195e919061297c565b60405180910390fd5b505b6040517f08c379a000000000000000000000000000000000000000000000000000000000815260040161199b9061299e565b60405180910390fd5b63bc197c8160e01b7bffffffffffffffffffffffffffffffffffffffffffffffffffffffff1916817bffffffffffffffffffffffffffffffffffffffffffffffffffffffff191614611a2b576040517f08c379a0000000000000000000000000000000000000000000000000000000008152600401611a22906129be565b60405180910390fd5b505b505050505050565b60606000600167ffffffffffffffff811115611a5457611a53612f17565b5b604051908082528060200260200182016040528015611a825781602001602082028036833780820191505090505b5090508281600081518110611a9a57611a99612ee8565b5b60200260200101818152505080915050919050565b611ace8473ffffffffffffffffffffffffffffffffffffffff16611c96565b15611c8e578373ffffffffffffffffffffffffffffffffffffffff1663f23a6e6187878686866040518663ffffffff1660e01b8152600401611b149594939291906128ae565b602060405180830381600087803b158015611b2e57600080fd5b505af1925050508015611b5f57506040513d601f19601f82011682018060405250810190611b5c91906124b8565b60015b611c0557611b6b612f46565b806308c379a01415611bc85750611b806133a2565b80611b8b5750611bca565b806040517f08c379a0000000000000000000000000000000000000000000000000000000008152600401611bbf919061297c565b60405180910390fd5b505b6040517f08c379a0000000000000000000000000000000000000000000000000000000008152600401611bfc9061299e565b60405180910390fd5b63f23a6e6160e01b7bffffffffffffffffffffffffffffffffffffffffffffffffffffffff1916817bffffffffffffffffffffffffffffffffffffffffffffffffffffffff191614611c8c576040517f08c379a0000000000000000000000000000000000000000000000000000000008152600401611c83906129be565b60405180910390fd5b505b505050505050565b600080823b905060008111915050919050565b828054611cb590612dde565b90600052602060002090601f016020900481019282611cd75760008555611d1e565b82601f10611cf057805160ff1916838001178555611d1e565b82800160010185558215611d1e579182015b82811115611d1d578251825591602001919060010190611d02565b5b509050611d2b9190611d2f565b5090565b5b80821115611d48576000816000905550600101611d30565b5090565b6000611d5f611d5a84612ba7565b612b82565b90508083825260208201905082856020860282011115611d8257611d81612f6d565b5b60005b85811015611db25781611d988882611eb0565b845260208401935060208301925050600181019050611d85565b5050509392505050565b6000611dcf611dca84612bd3565b612b82565b90508083825260208201905082856020860282011115611df257611df1612f6d565b5b60005b85811015611e225781611e088882611fbc565b845260208401935060208301925050600181019050611df5565b5050509392505050565b6000611e3f611e3a84612bff565b612b82565b905082815260208101848484011115611e5b57611e5a612f72565b5b611e66848285612d9c565b509392505050565b6000611e81611e7c84612c30565b612b82565b905082815260208101848484011115611e9d57611e9c612f72565b5b611ea8848285612d9c565b509392505050565b600081359050611ebf81613438565b92915050565b600082601f830112611eda57611ed9612f68565b5b8135611eea848260208601611d4c565b91505092915050565b600082601f830112611f0857611f07612f68565b5b8135611f18848260208601611dbc565b91505092915050565b600081359050611f308161344f565b92915050565b600081359050611f4581613466565b92915050565b600081519050611f5a81613466565b92915050565b600082601f830112611f7557611f74612f68565b5b8135611f85848260208601611e2c565b91505092915050565b600082601f830112611fa357611fa2612f68565b5b8135611fb3848260208601611e6e565b91505092915050565b600081359050611fcb8161347d565b92915050565b60008060408385031215611fe857611fe7612f7c565b5b6000611ff685828601611eb0565b925050602061200785828601611eb0565b9150509250929050565b600080600080600060a0868803121561202d5761202c612f7c565b5b600061203b88828901611eb0565b955050602061204c88828901611eb0565b945050604086013567ffffffffffffffff81111561206d5761206c612f77565b5b61207988828901611ef3565b935050606086013567ffffffffffffffff81111561209a57612099612f77565b5b6120a688828901611ef3565b925050608086013567ffffffffffffffff8111156120c7576120c6612f77565b5b6120d388828901611f60565b9150509295509295909350565b600080600080600060a086880312156120fc576120fb612f7c565b5b600061210a88828901611eb0565b955050602061211b88828901611eb0565b945050604061212c88828901611fbc565b935050606061213d88828901611fbc565b925050608086013567ffffffffffffffff81111561215e5761215d612f77565b5b61216a88828901611f60565b9150509295509295909350565b6000806000606084860312156121905761218f612f7c565b5b600061219e86828701611eb0565b935050602084013567ffffffffffffffff8111156121bf576121be612f77565b5b6121cb86828701611ef3565b925050604084013567ffffffffffffffff8111156121ec576121eb612f77565b5b6121f886828701611ef3565b9150509250925092565b6000806000806080858703121561221c5761221b612f7c565b5b600061222a87828801611eb0565b945050602085013567ffffffffffffffff81111561224b5761224a612f77565b5b61225787828801611ef3565b935050604085013567ffffffffffffffff81111561227857612277612f77565b5b61228487828801611ef3565b925050606085013567ffffffffffffffff8111156122a5576122a4612f77565b5b6122b187828801611f60565b91505092959194509250565b600080604083850312156122d4576122d3612f7c565b5b60006122e285828601611eb0565b92505060206122f385828601611f21565b9150509250929050565b6000806040838503121561231457612313612f7c565b5b600061232285828601611eb0565b925050602061233385828601611fbc565b9150509250929050565b60008060006060848603121561235657612355612f7c565b5b600061236486828701611eb0565b935050602061237586828701611fbc565b925050604061238686828701611fbc565b9150509250925092565b600080600080608085870312156123aa576123a9612f7c565b5b60006123b887828801611eb0565b94505060206123c987828801611fbc565b93505060406123da87828801611fbc565b925050606085013567ffffffffffffffff8111156123fb576123fa612f77565b5b61240787828801611f60565b91505092959194509250565b6000806040838503121561242a57612429612f7c565b5b600083013567ffffffffffffffff81111561244857612447612f77565b5b61245485828601611ec5565b925050602083013567ffffffffffffffff81111561247557612474612f77565b5b61248185828601611ef3565b9150509250929050565b6000602082840312156124a1576124a0612f7c565b5b60006124af84828501611f36565b91505092915050565b6000602082840312156124ce576124cd612f7c565b5b60006124dc84828501611f4b565b91505092915050565b6000602082840312156124fb576124fa612f7c565b5b600082013567ffffffffffffffff81111561251957612518612f77565b5b61252584828501611f8e565b91505092915050565b60006020828403121561254457612543612f7c565b5b600061255284828501611fbc565b91505092915050565b60006125678383612828565b60208301905092915050565b61257c81612d28565b82525050565b600061258d82612c71565b6125978185612c9f565b93506125a283612c61565b8060005b838110156125d35781516125ba888261255b565b97506125c583612c92565b9250506001810190506125a6565b5085935050505092915050565b6125e981612d3a565b82525050565b60006125fa82612c7c565b6126048185612cb0565b9350612614818560208601612dab565b61261d81612f81565b840191505092915050565b600061263382612c87565b61263d8185612cc1565b935061264d818560208601612dab565b61265681612f81565b840191505092915050565b600061266e603483612cc1565b915061267982612f9f565b604082019050919050565b6000612691602883612cc1565b915061269c82612fee565b604082019050919050565b60006126b4602b83612cc1565b91506126bf8261303d565b604082019050919050565b60006126d7602483612cc1565b91506126e28261308c565b604082019050919050565b60006126fa602983612cc1565b9150612705826130db565b604082019050919050565b600061271d602583612cc1565b91506127288261312a565b604082019050919050565b6000612740603283612cc1565b915061274b82613179565b604082019050919050565b6000612763602383612cc1565b915061276e826131c8565b604082019050919050565b6000612786602a83612cc1565b915061279182613217565b604082019050919050565b60006127a9602983612cc1565b91506127b482613266565b604082019050919050565b60006127cc602983612cc1565b91506127d7826132b5565b604082019050919050565b60006127ef602883612cc1565b91506127fa82613304565b604082019050919050565b6000612812602183612cc1565b915061281d82613353565b604082019050919050565b61283181612d92565b82525050565b61284081612d92565b82525050565b600060a08201905061285b6000830188612573565b6128686020830187612573565b818103604083015261287a8186612582565b9050818103606083015261288e8185612582565b905081810360808301526128a281846125ef565b90509695505050505050565b600060a0820190506128c36000830188612573565b6128d06020830187612573565b6128dd6040830186612837565b6128ea6060830185612837565b81810360808301526128fc81846125ef565b90509695505050505050565b600060208201905081810360008301526129228184612582565b905092915050565b600060408201905081810360008301526129448185612582565b905081810360208301526129588184612582565b90509392505050565b600060208201905061297660008301846125e0565b92915050565b600060208201905081810360008301526129968184612628565b905092915050565b600060208201905081810360008301526129b781612661565b9050919050565b600060208201905081810360008301526129d781612684565b9050919050565b600060208201905081810360008301526129f7816126a7565b9050919050565b60006020820190508181036000830152612a17816126ca565b9050919050565b60006020820190508181036000830152612a37816126ed565b9050919050565b60006020820190508181036000830152612a5781612710565b9050919050565b60006020820190508181036000830152612a7781612733565b9050919050565b60006020820190508181036000830152612a9781612756565b9050919050565b60006020820190508181036000830152612ab781612779565b9050919050565b60006020820190508181036000830152612ad78161279c565b9050919050565b60006020820190508181036000830152612af7816127bf565b9050919050565b60006020820190508181036000830152612b17816127e2565b9050919050565b60006020820190508181036000830152612b3781612805565b9050919050565b6000602082019050612b536000830184612837565b92915050565b6000604082019050612b6e6000830185612837565b612b7b6020830184612837565b9392505050565b6000612b8c612b9d565b9050612b988282612e10565b919050565b6000604051905090565b600067ffffffffffffffff821115612bc257612bc1612f17565b5b602082029050602081019050919050565b600067ffffffffffffffff821115612bee57612bed612f17565b5b602082029050602081019050919050565b600067ffffffffffffffff821115612c1a57612c19612f17565b5b612c2382612f81565b9050602081019050919050565b600067ffffffffffffffff821115612c4b57612c4a612f17565b5b612c5482612f81565b9050602081019050919050565b6000819050602082019050919050565b600081519050919050565b600081519050919050565b600081519050919050565b6000602082019050919050565b600082825260208201905092915050565b600082825260208201905092915050565b600082825260208201905092915050565b6000612cdd82612d92565b9150612ce883612d92565b9250827fffffffffffffffffffffffffffffffffffffffffffffffffffffffffffffffff03821115612d1d57612d1c612e8a565b5b828201905092915050565b6000612d3382612d72565b9050919050565b60008115159050919050565b60007fffffffff0000000000000000000000000000000000000000000000000000000082169050919050565b600073ffffffffffffffffffffffffffffffffffffffff82169050919050565b6000819050919050565b82818337600083830152505050565b60005b83811015612dc9578082015181840152602081019050612dae565b83811115612dd8576000848401525b50505050565b60006002820490506001821680612df657607f821691505b60208210811415612e0a57612e09612eb9565b5b50919050565b612e1982612f81565b810181811067ffffffffffffffff82111715612e3857612e37612f17565b5b80604052505050565b6000612e4c82612d92565b91507fffffffffffffffffffffffffffffffffffffffffffffffffffffffffffffffff821415612e7f57612e7e612e8a565b5b600182019050919050565b7f4e487b7100000000000000000000000000000000000000000000000000000000600052601160045260246000fd5b7f4e487b7100000000000000000000000000000000000000000000000000000000600052602260045260246000fd5b7f4e487b7100000000000000000000000000000000000000000000000000000000600052603260045260246000fd5b7f4e487b7100000000000000000000000000000000000000000000000000000000600052604160045260246000fd5b600060033d1115612f655760046000803e612f62600051612f92565b90505b90565b600080fd5b600080fd5b600080fd5b600080fd5b600080fd5b6000601f19601f8301169050919050565b60008160e01c9050919050565b7f455243313135353a207472616e7366657220746f206e6f6e204552433131353560008201527f526563656976657220696d706c656d656e746572000000000000000000000000602082015250565b7f455243313135353a204552433131353552656365697665722072656a6563746560008201527f6420746f6b656e73000000000000000000000000000000000000000000000000602082015250565b7f455243313135353a2062616c616e636520717565727920666f7220746865207a60008201527f65726f2061646472657373000000000000000000000000000000000000000000602082015250565b7f455243313135353a206275726e20616d6f756e7420657863656564732062616c60008201527f616e636500000000000000000000000000000000000000000000000000000000602082015250565b7f455243313135353a2063616c6c6572206973206e6f74206f776e6572206e6f7260008201527f20617070726f7665640000000000000000000000000000000000000000000000602082015250565b7f455243313135353a207472616e7366657220746f20746865207a65726f20616460008201527f6472657373000000000000000000000000000000000000000000000000000000602082015250565b7f455243313135353a207472616e736665722063616c6c6572206973206e6f742060008201527f6f776e6572206e6f7220617070726f7665640000000000000000000000000000602082015250565b7f455243313135353a206275726e2066726f6d20746865207a65726f206164647260008201527f6573730000000000000000000000000000000000000000000000000000000000602082015250565b7f455243313135353a20696e73756666696369656e742062616c616e636520666f60008201527f72207472616e7366657200000000000000000000000000000000000000000000602082015250565b7f455243313135353a2073657474696e6720617070726f76616c2073746174757360008201527f20666f722073656c660000000000000000000000000000000000000000000000602082015250565b7f455243313135353a206163636f756e747320616e6420696473206c656e67746860008201527f206d69736d617463680000000000000000000000000000000000000000000000602082015250565b7f455243313135353a2069647320616e6420616d6f756e7473206c656e6774682060008201527f6d69736d61746368000000000000000000000000000000000000000000000000602082015250565b7f455243313135353a206d696e7420746f20746865207a65726f2061646472657360008201527f7300000000000000000000000000000000000000000000000000000000000000602082015250565b600060443d10156133b257613435565b6133ba612b9d565b60043d036004823e80513d602482011167ffffffffffffffff821117156133e2575050613435565b808201805167ffffffffffffffff8111156134005750505050613435565b80602083010160043d03850181111561341d575050505050613435565b61342c82602001850186612e10565b82955050505050505b90565b61344181612d28565b811461344c57600080fd5b50565b61345881612d3a565b811461346357600080fd5b50565b61346f81612d46565b811461347a57600080fd5b50565b61348681612d92565b811461349157600080fd5b5056fea264697066735822122082fa4684b44801c656d8e784cf6d55d1235622399678bed31b5f442222f460cf64736f6c63430008070033",
  "immutableReferences": {},
  "source": "// SPDX-License-Identifier: MIT\r\n\r\npragma solidity ^0.8.0;\r\n\r\nimport \"../token/ERC1155/ERC1155.sol\";\r\n\r\n/**\r\n * @title ERC1155Mock\r\n * This mock just publicizes internal functions for testing purposes\r\n */\r\ncontract ERC1155Mock is ERC1155 {\r\n    constructor (string memory uri) ERC1155(uri) {\r\n        // solhint-disable-previous-line no-empty-blocks\r\n    }\r\n\r\n    function setURI(string memory newuri) public {\r\n        _setURI(newuri);\r\n    }\r\n\r\n    function mint(address to, uint256 id, uint256 value, bytes memory data) public {\r\n        _mint(to, id, value, data);\r\n    }\r\n\r\n    function mintBatch(address to, uint256[] memory ids, uint256[] memory values, bytes memory data) public {\r\n        _mintBatch(to, ids, values, data);\r\n    }\r\n\r\n    function burn(address owner, uint256 id, uint256 value) public {\r\n        _burn(owner, id, value);\r\n    }\r\n\r\n    function burnBatch(address owner, uint256[] memory ids, uint256[] memory values) public {\r\n        _burnBatch(owner, ids, values);\r\n    }\r\n}\r\n",
  "sourcePath": "C:/Users/Husnain/Documents/Projects/Fanbase/fanbase/packages/ethereum/contracts/solidity/openzeppelin/contracts/mocks/ERC1155Mock.sol",
  "compiler": {
    "name": "solc",
    "version": "0.8.7+commit.e28d00a7.Emscripten.clang"
  },
  "schemaVersion": "3.4.1",
  "updatedAt": "2021-08-24T16:49:29.179Z",
  "devdoc": {
    "kind": "dev",
    "methods": {
      "balanceOf(address,uint256)": {
        "details": "See {IERC1155-balanceOf}. Requirements: - `account` cannot be the zero address."
      },
      "balanceOfBatch(address[],uint256[])": {
        "details": "See {IERC1155-balanceOfBatch}. Requirements: - `accounts` and `ids` must have the same length."
      },
      "isApprovedForAll(address,address)": {
        "details": "See {IERC1155-isApprovedForAll}."
      },
      "safeBatchTransferFrom(address,address,uint256[],uint256[],bytes)": {
        "details": "See {IERC1155-safeBatchTransferFrom}."
      },
      "safeTransferFrom(address,address,uint256,uint256,bytes)": {
        "details": "See {IERC1155-safeTransferFrom}."
      },
      "setApprovalForAll(address,bool)": {
        "details": "See {IERC1155-setApprovalForAll}."
      },
      "supportsInterface(bytes4)": {
        "details": "See {IERC165-supportsInterface}."
      },
      "uri(uint256)": {
        "details": "See {IERC1155MetadataURI-uri}. This implementation returns the same URI for *all* token types. It relies on the token type ID substitution mechanism https://eips.ethereum.org/EIPS/eip-1155#metadata[defined in the EIP]. Clients calling this function must replace the `\\{id\\}` substring with the actual token type ID."
      }
    },
    "title": "ERC1155Mock This mock just publicizes internal functions for testing purposes",
    "version": 1
  },
  "userdoc": {
    "kind": "user",
    "methods": {},
    "version": 1
  }
}