{
  "contractName": "ERC20PermitMock",
  "abi": [
    {
      "inputs": [
        {
          "internalType": "string",
          "name": "name",
          "type": "string"
        },
        {
          "internalType": "string",
          "name": "symbol",
          "type": "string"
        },
        {
          "internalType": "address",
          "name": "initialAccount",
          "type": "address"
        },
        {
          "internalType": "uint256",
          "name": "initialBalance",
          "type": "uint256"
        }
      ],
      "stateMutability": "payable",
      "type": "constructor"
    },
    {
      "anonymous": false,
      "inputs": [
        {
          "indexed": true,
          "internalType": "address",
          "name": "owner",
          "type": "address"
        },
        {
          "indexed": true,
          "internalType": "address",
          "name": "spender",
          "type": "address"
        },
        {
          "indexed": false,
          "internalType": "uint256",
          "name": "value",
          "type": "uint256"
        }
      ],
      "name": "Approval",
      "type": "event"
    },
    {
      "anonymous": false,
      "inputs": [
        {
          "indexed": true,
          "internalType": "address",
          "name": "from",
          "type": "address"
        },
        {
          "indexed": true,
          "internalType": "address",
          "name": "to",
          "type": "address"
        },
        {
          "indexed": false,
          "internalType": "uint256",
          "name": "value",
          "type": "uint256"
        }
      ],
      "name": "Transfer",
      "type": "event"
    },
    {
      "inputs": [],
      "name": "DOMAIN_SEPARATOR",
      "outputs": [
        {
          "internalType": "bytes32",
          "name": "",
          "type": "bytes32"
        }
      ],
      "stateMutability": "view",
      "type": "function"
    },
    {
      "inputs": [
        {
          "internalType": "address",
          "name": "owner",
          "type": "address"
        },
        {
          "internalType": "address",
          "name": "spender",
          "type": "address"
        }
      ],
      "name": "allowance",
      "outputs": [
        {
          "internalType": "uint256",
          "name": "",
          "type": "uint256"
        }
      ],
      "stateMutability": "view",
      "type": "function"
    },
    {
      "inputs": [
        {
          "internalType": "address",
          "name": "spender",
          "type": "address"
        },
        {
          "internalType": "uint256",
          "name": "amount",
          "type": "uint256"
        }
      ],
      "name": "approve",
      "outputs": [
        {
          "internalType": "bool",
          "name": "",
          "type": "bool"
        }
      ],
      "stateMutability": "nonpayable",
      "type": "function"
    },
    {
      "inputs": [
        {
          "internalType": "address",
          "name": "account",
          "type": "address"
        }
      ],
      "name": "balanceOf",
      "outputs": [
        {
          "internalType": "uint256",
          "name": "",
          "type": "uint256"
        }
      ],
      "stateMutability": "view",
      "type": "function"
    },
    {
      "inputs": [],
      "name": "decimals",
      "outputs": [
        {
          "internalType": "uint8",
          "name": "",
          "type": "uint8"
        }
      ],
      "stateMutability": "view",
      "type": "function"
    },
    {
      "inputs": [
        {
          "internalType": "address",
          "name": "spender",
          "type": "address"
        },
        {
          "internalType": "uint256",
          "name": "subtractedValue",
          "type": "uint256"
        }
      ],
      "name": "decreaseAllowance",
      "outputs": [
        {
          "internalType": "bool",
          "name": "",
          "type": "bool"
        }
      ],
      "stateMutability": "nonpayable",
      "type": "function"
    },
    {
      "inputs": [
        {
          "internalType": "address",
          "name": "spender",
          "type": "address"
        },
        {
          "internalType": "uint256",
          "name": "addedValue",
          "type": "uint256"
        }
      ],
      "name": "increaseAllowance",
      "outputs": [
        {
          "internalType": "bool",
          "name": "",
          "type": "bool"
        }
      ],
      "stateMutability": "nonpayable",
      "type": "function"
    },
    {
      "inputs": [],
      "name": "name",
      "outputs": [
        {
          "internalType": "string",
          "name": "",
          "type": "string"
        }
      ],
      "stateMutability": "view",
      "type": "function"
    },
    {
      "inputs": [
        {
          "internalType": "address",
          "name": "owner",
          "type": "address"
        }
      ],
      "name": "nonces",
      "outputs": [
        {
          "internalType": "uint256",
          "name": "",
          "type": "uint256"
        }
      ],
      "stateMutability": "view",
      "type": "function"
    },
    {
      "inputs": [
        {
          "internalType": "address",
          "name": "owner",
          "type": "address"
        },
        {
          "internalType": "address",
          "name": "spender",
          "type": "address"
        },
        {
          "internalType": "uint256",
          "name": "value",
          "type": "uint256"
        },
        {
          "internalType": "uint256",
          "name": "deadline",
          "type": "uint256"
        },
        {
          "internalType": "uint8",
          "name": "v",
          "type": "uint8"
        },
        {
          "internalType": "bytes32",
          "name": "r",
          "type": "bytes32"
        },
        {
          "internalType": "bytes32",
          "name": "s",
          "type": "bytes32"
        }
      ],
      "name": "permit",
      "outputs": [],
      "stateMutability": "nonpayable",
      "type": "function"
    },
    {
      "inputs": [],
      "name": "symbol",
      "outputs": [
        {
          "internalType": "string",
          "name": "",
          "type": "string"
        }
      ],
      "stateMutability": "view",
      "type": "function"
    },
    {
      "inputs": [],
      "name": "totalSupply",
      "outputs": [
        {
          "internalType": "uint256",
          "name": "",
          "type": "uint256"
        }
      ],
      "stateMutability": "view",
      "type": "function"
    },
    {
      "inputs": [
        {
          "internalType": "address",
          "name": "recipient",
          "type": "address"
        },
        {
          "internalType": "uint256",
          "name": "amount",
          "type": "uint256"
        }
      ],
      "name": "transfer",
      "outputs": [
        {
          "internalType": "bool",
          "name": "",
          "type": "bool"
        }
      ],
      "stateMutability": "nonpayable",
      "type": "function"
    },
    {
      "inputs": [
        {
          "internalType": "address",
          "name": "sender",
          "type": "address"
        },
        {
          "internalType": "address",
          "name": "recipient",
          "type": "address"
        },
        {
          "internalType": "uint256",
          "name": "amount",
          "type": "uint256"
        }
      ],
      "name": "transferFrom",
      "outputs": [
        {
          "internalType": "bool",
          "name": "",
          "type": "bool"
        }
      ],
      "stateMutability": "nonpayable",
      "type": "function"
    },
    {
      "inputs": [],
      "name": "getChainId",
      "outputs": [
        {
          "internalType": "uint256",
          "name": "",
          "type": "uint256"
        }
      ],
      "stateMutability": "view",
      "type": "function"
    }
  ],
  "bytecode": "0x6101406040527f6e71edae12b1b97f4d1f60370fef10105fa2faae0126114a169c64845d6126c9610120908152506040516200278838038062002788833981810160405281019062000052919062000450565b83806040518060400160405280600181526020017f310000000000000000000000000000000000000000000000000000000000000081525086868160039080519060200190620000a492919062000300565b508060049080519060200190620000bd92919062000300565b50505060008280519060200120905060008280519060200120905060007f8b73c3c69bb8fe3d512ecc4cf759cc79239f7b179b0ffacaa9a75d522b39400f90508260c081815250508160e081815250504660a08181525050620001288184846200015a60201b60201c565b608081815250508061010081815250505050505050506200015082826200019660201b60201c565b5050505062000896565b600083838346306040516020016200017795949392919062000548565b6040516020818303038152906040528051906020012090509392505050565b600073ffffffffffffffffffffffffffffffffffffffff168273ffffffffffffffffffffffffffffffffffffffff16141562000209576040517f08c379a00000000000000000000000000000000000000000000000000000000081526004016200020090620005a5565b60405180910390fd5b6200021d60008383620002fb60201b60201c565b806002600082825462000231919062000654565b92505081905550806000808473ffffffffffffffffffffffffffffffffffffffff1673ffffffffffffffffffffffffffffffffffffffff168152602001908152602001600020600082825462000288919062000654565b925050819055508173ffffffffffffffffffffffffffffffffffffffff16600073ffffffffffffffffffffffffffffffffffffffff167fddf252ad1be2c89b69c2b068fc378daa952ba7f163c4a11628f55a4df523b3ef83604051620002ef9190620005c7565b60405180910390a35050565b505050565b8280546200030e906200072f565b90600052602060002090601f0160209004810192826200033257600085556200037e565b82601f106200034d57805160ff19168380011785556200037e565b828001600101855582156200037e579182015b828111156200037d57825182559160200191906001019062000360565b5b5090506200038d919062000391565b5090565b5b80821115620003ac57600081600090555060010162000392565b5090565b6000620003c7620003c1846200060d565b620005e4565b905082815260208101848484011115620003e057600080fd5b620003ed848285620006f9565b509392505050565b600081519050620004068162000862565b92915050565b600082601f8301126200041e57600080fd5b815162000430848260208601620003b0565b91505092915050565b6000815190506200044a816200087c565b92915050565b600080600080608085870312156200046757600080fd5b600085015167ffffffffffffffff8111156200048257600080fd5b62000490878288016200040c565b945050602085015167ffffffffffffffff811115620004ae57600080fd5b620004bc878288016200040c565b9350506040620004cf87828801620003f5565b9250506060620004e28782880162000439565b91505092959194509250565b620004f981620006b1565b82525050565b6200050a81620006c5565b82525050565b60006200051f601f8362000643565b91506200052c8262000839565b602082019050919050565b6200054281620006ef565b82525050565b600060a0820190506200055f6000830188620004ff565b6200056e6020830187620004ff565b6200057d6040830186620004ff565b6200058c606083018562000537565b6200059b6080830184620004ee565b9695505050505050565b60006020820190508181036000830152620005c08162000510565b9050919050565b6000602082019050620005de600083018462000537565b92915050565b6000620005f062000603565b9050620005fe828262000765565b919050565b6000604051905090565b600067ffffffffffffffff8211156200062b576200062a620007f9565b5b620006368262000828565b9050602081019050919050565b600082825260208201905092915050565b60006200066182620006ef565b91506200066e83620006ef565b9250827fffffffffffffffffffffffffffffffffffffffffffffffffffffffffffffffff03821115620006a657620006a56200079b565b5b828201905092915050565b6000620006be82620006cf565b9050919050565b6000819050919050565b600073ffffffffffffffffffffffffffffffffffffffff82169050919050565b6000819050919050565b60005b8381101562000719578082015181840152602081019050620006fc565b8381111562000729576000848401525b50505050565b600060028204905060018216806200074857607f821691505b602082108114156200075f576200075e620007ca565b5b50919050565b620007708262000828565b810181811067ffffffffffffffff82111715620007925762000791620007f9565b5b80604052505050565b7f4e487b7100000000000000000000000000000000000000000000000000000000600052601160045260246000fd5b7f4e487b7100000000000000000000000000000000000000000000000000000000600052602260045260246000fd5b7f4e487b7100000000000000000000000000000000000000000000000000000000600052604160045260246000fd5b6000601f19601f8301169050919050565b7f45524332303a206d696e7420746f20746865207a65726f206164647265737300600082015250565b6200086d81620006b1565b81146200087957600080fd5b50565b6200088781620006ef565b81146200089357600080fd5b50565b60805160a05160c05160e0516101005161012051611ea2620008e6600039600061084201526000610e6401526000610ea601526000610e8501526000610e1101526000610e390152611ea26000f3fe608060405234801561001057600080fd5b50600436106100f55760003560e01c80633950935111610097578063a457c2d711610066578063a457c2d71461029e578063a9059cbb146102ce578063d505accf146102fe578063dd62ed3e1461031a576100f5565b806339509351146101f057806370a08231146102205780637ecebe001461025057806395d89b4114610280576100f5565b806323b872dd116100d357806323b872dd14610166578063313ce567146101965780633408e470146101b45780633644e515146101d2576100f5565b806306fdde03146100fa578063095ea7b31461011857806318160ddd14610148575b600080fd5b61010261034a565b60405161010f9190611713565b60405180910390f35b610132600480360381019061012d919061130f565b6103dc565b60405161013f91906115e4565b60405180910390f35b6101506103fa565b60405161015d91906118b5565b60405180910390f35b610180600480360381019061017b9190611222565b610404565b60405161018d91906115e4565b60405180910390f35b61019e6104fc565b6040516101ab91906118d0565b60405180910390f35b6101bc610505565b6040516101c991906118b5565b60405180910390f35b6101da61050d565b6040516101e791906115ff565b60405180910390f35b61020a6004803603810190610205919061130f565b61051c565b60405161021791906115e4565b60405180910390f35b61023a600480360381019061023591906111bd565b6105c8565b60405161024791906118b5565b60405180910390f35b61026a600480360381019061026591906111bd565b610610565b60405161027791906118b5565b60405180910390f35b610288610660565b6040516102959190611713565b60405180910390f35b6102b860048036038101906102b3919061130f565b6106f2565b6040516102c591906115e4565b60405180910390f35b6102e860048036038101906102e3919061130f565b6107dd565b6040516102f591906115e4565b60405180910390f35b61031860048036038101906103139190611271565b6107fb565b005b610334600480360381019061032f91906111e6565b61093d565b60405161034191906118b5565b60405180910390f35b606060038054610359906119fa565b80601f0160208091040260200160405190810160405280929190818152602001828054610385906119fa565b80156103d25780601f106103a7576101008083540402835291602001916103d2565b820191906000526020600020905b8154815290600101906020018083116103b557829003601f168201915b5050505050905090565b60006103f06103e96109c4565b84846109cc565b6001905092915050565b6000600254905090565b6000610411848484610b97565b6000600160008673ffffffffffffffffffffffffffffffffffffffff1673ffffffffffffffffffffffffffffffffffffffff168152602001908152602001600020600061045c6109c4565b73ffffffffffffffffffffffffffffffffffffffff1673ffffffffffffffffffffffffffffffffffffffff168152602001908152602001600020549050828110156104dc576040517f08c379a00000000000000000000000000000000000000000000000000000000081526004016104d390611835565b60405180910390fd5b6104f0856104e86109c4565b8584036109cc565b60019150509392505050565b60006012905090565b600046905090565b6000610517610e0d565b905090565b60006105be6105296109c4565b8484600160006105376109c4565b73ffffffffffffffffffffffffffffffffffffffff1673ffffffffffffffffffffffffffffffffffffffff16815260200190815260200160002060008873ffffffffffffffffffffffffffffffffffffffff1673ffffffffffffffffffffffffffffffffffffffff168152602001908152602001600020546105b99190611912565b6109cc565b6001905092915050565b60008060008373ffffffffffffffffffffffffffffffffffffffff1673ffffffffffffffffffffffffffffffffffffffff168152602001908152602001600020549050919050565b6000610659600560008473ffffffffffffffffffffffffffffffffffffffff1673ffffffffffffffffffffffffffffffffffffffff168152602001908152602001600020610ed0565b9050919050565b60606004805461066f906119fa565b80601f016020809104026020016040519081016040528092919081815260200182805461069b906119fa565b80156106e85780601f106106bd576101008083540402835291602001916106e8565b820191906000526020600020905b8154815290600101906020018083116106cb57829003601f168201915b5050505050905090565b600080600160006107016109c4565b73ffffffffffffffffffffffffffffffffffffffff1673ffffffffffffffffffffffffffffffffffffffff16815260200190815260200160002060008573ffffffffffffffffffffffffffffffffffffffff1673ffffffffffffffffffffffffffffffffffffffff168152602001908152602001600020549050828110156107be576040517f08c379a00000000000000000000000000000000000000000000000000000000081526004016107b590611895565b60405180910390fd5b6107d26107c96109c4565b858584036109cc565b600191505092915050565b60006107f16107ea6109c4565b8484610b97565b6001905092915050565b8342111561083e576040517f08c379a000000000000000000000000000000000000000000000000000000000815260040161083590611795565b60405180910390fd5b60007f000000000000000000000000000000000000000000000000000000000000000088888861086d8c610ede565b896040516020016108839695949392919061161a565b60405160208183030381529060405280519060200120905060006108a682610f3c565b905060006108b682878787610f56565b90508973ffffffffffffffffffffffffffffffffffffffff168173ffffffffffffffffffffffffffffffffffffffff1614610926576040517f08c379a000000000000000000000000000000000000000000000000000000000815260040161091d90611815565b60405180910390fd5b6109318a8a8a6109cc565b50505050505050505050565b6000600160008473ffffffffffffffffffffffffffffffffffffffff1673ffffffffffffffffffffffffffffffffffffffff16815260200190815260200160002060008373ffffffffffffffffffffffffffffffffffffffff1673ffffffffffffffffffffffffffffffffffffffff16815260200190815260200160002054905092915050565b600033905090565b600073ffffffffffffffffffffffffffffffffffffffff168373ffffffffffffffffffffffffffffffffffffffff161415610a3c576040517f08c379a0000000000000000000000000000000000000000000000000000000008152600401610a3390611875565b60405180910390fd5b600073ffffffffffffffffffffffffffffffffffffffff168273ffffffffffffffffffffffffffffffffffffffff161415610aac576040517f08c379a0000000000000000000000000000000000000000000000000000000008152600401610aa390611775565b60405180910390fd5b80600160008573ffffffffffffffffffffffffffffffffffffffff1673ffffffffffffffffffffffffffffffffffffffff16815260200190815260200160002060008473ffffffffffffffffffffffffffffffffffffffff1673ffffffffffffffffffffffffffffffffffffffff168152602001908152602001600020819055508173ffffffffffffffffffffffffffffffffffffffff168373ffffffffffffffffffffffffffffffffffffffff167f8c5be1e5ebec7d5bd14f71427d1e84f3dd0314c0f7b2291e5b200ac8c7c3b92583604051610b8a91906118b5565b60405180910390a3505050565b600073ffffffffffffffffffffffffffffffffffffffff168373ffffffffffffffffffffffffffffffffffffffff161415610c07576040517f08c379a0000000000000000000000000000000000000000000000000000000008152600401610bfe90611855565b60405180910390fd5b600073ffffffffffffffffffffffffffffffffffffffff168273ffffffffffffffffffffffffffffffffffffffff161415610c77576040517f08c379a0000000000000000000000000000000000000000000000000000000008152600401610c6e90611755565b60405180910390fd5b610c828383836110e1565b60008060008573ffffffffffffffffffffffffffffffffffffffff1673ffffffffffffffffffffffffffffffffffffffff16815260200190815260200160002054905081811015610d08576040517f08c379a0000000000000000000000000000000000000000000000000000000008152600401610cff906117b5565b60405180910390fd5b8181036000808673ffffffffffffffffffffffffffffffffffffffff1673ffffffffffffffffffffffffffffffffffffffff16815260200190815260200160002081905550816000808573ffffffffffffffffffffffffffffffffffffffff1673ffffffffffffffffffffffffffffffffffffffff1681526020019081526020016000206000828254610d9b9190611912565b925050819055508273ffffffffffffffffffffffffffffffffffffffff168473ffffffffffffffffffffffffffffffffffffffff167fddf252ad1be2c89b69c2b068fc378daa952ba7f163c4a11628f55a4df523b3ef84604051610dff91906118b5565b60405180910390a350505050565b60007f0000000000000000000000000000000000000000000000000000000000000000461415610e5f577f00000000000000000000000000000000000000000000000000000000000000009050610ecd565b610eca7f00000000000000000000000000000000000000000000000000000000000000007f00000000000000000000000000000000000000000000000000000000000000007f00000000000000000000000000000000000000000000000000000000000000006110e6565b90505b90565b600081600001549050919050565b600080600560008473ffffffffffffffffffffffffffffffffffffffff1673ffffffffffffffffffffffffffffffffffffffff1681526020019081526020016000209050610f2b81610ed0565b9150610f3681611120565b50919050565b6000610f4f610f49610e0d565b83611136565b9050919050565b60007f7fffffffffffffffffffffffffffffff5d576e7357a4501ddfe92f46681b20a08260001c1115610fbe576040517f08c379a0000000000000000000000000000000000000000000000000000000008152600401610fb5906117d5565b60405180910390fd5b601b8460ff161480610fd35750601c8460ff16145b611012576040517f08c379a0000000000000000000000000000000000000000000000000000000008152600401611009906117f5565b60405180910390fd5b60006001868686866040516000815260200160405260405161103794939291906116ce565b6020604051602081039080840390855afa158015611059573d6000803e3d6000fd5b505050602060405103519050600073ffffffffffffffffffffffffffffffffffffffff168173ffffffffffffffffffffffffffffffffffffffff1614156110d5576040517f08c379a00000000000000000000000000000000000000000000000000000000081526004016110cc90611735565b60405180910390fd5b80915050949350505050565b505050565b6000838383463060405160200161110195949392919061167b565b6040516020818303038152906040528051906020012090509392505050565b6001816000016000828254019250508190555050565b6000828260405160200161114b9291906115ad565b60405160208183030381529060405280519060200120905092915050565b60008135905061117881611e10565b92915050565b60008135905061118d81611e27565b92915050565b6000813590506111a281611e3e565b92915050565b6000813590506111b781611e55565b92915050565b6000602082840312156111cf57600080fd5b60006111dd84828501611169565b91505092915050565b600080604083850312156111f957600080fd5b600061120785828601611169565b925050602061121885828601611169565b9150509250929050565b60008060006060848603121561123757600080fd5b600061124586828701611169565b935050602061125686828701611169565b925050604061126786828701611193565b9150509250925092565b600080600080600080600060e0888a03121561128c57600080fd5b600061129a8a828b01611169565b97505060206112ab8a828b01611169565b96505060406112bc8a828b01611193565b95505060606112cd8a828b01611193565b94505060806112de8a828b016111a8565b93505060a06112ef8a828b0161117e565b92505060c06113008a828b0161117e565b91505092959891949750929550565b6000806040838503121561132257600080fd5b600061133085828601611169565b925050602061134185828601611193565b9150509250929050565b61135481611968565b82525050565b6113638161197a565b82525050565b61137281611986565b82525050565b61138961138482611986565b611a2c565b82525050565b600061139a826118eb565b6113a481856118f6565b93506113b48185602086016119c7565b6113bd81611a94565b840191505092915050565b60006113d56018836118f6565b91506113e082611aa5565b602082019050919050565b60006113f86023836118f6565b915061140382611ace565b604082019050919050565b600061141b6022836118f6565b915061142682611b1d565b604082019050919050565b600061143e600283611907565b915061144982611b6c565b600282019050919050565b6000611461601d836118f6565b915061146c82611b95565b602082019050919050565b60006114846026836118f6565b915061148f82611bbe565b604082019050919050565b60006114a76022836118f6565b91506114b282611c0d565b604082019050919050565b60006114ca6022836118f6565b91506114d582611c5c565b604082019050919050565b60006114ed601e836118f6565b91506114f882611cab565b602082019050919050565b60006115106028836118f6565b915061151b82611cd4565b604082019050919050565b60006115336025836118f6565b915061153e82611d23565b604082019050919050565b60006115566024836118f6565b915061156182611d72565b604082019050919050565b60006115796025836118f6565b915061158482611dc1565b604082019050919050565b611598816119b0565b82525050565b6115a7816119ba565b82525050565b60006115b882611431565b91506115c48285611378565b6020820191506115d48284611378565b6020820191508190509392505050565b60006020820190506115f9600083018461135a565b92915050565b60006020820190506116146000830184611369565b92915050565b600060c08201905061162f6000830189611369565b61163c602083018861134b565b611649604083018761134b565b611656606083018661158f565b611663608083018561158f565b61167060a083018461158f565b979650505050505050565b600060a0820190506116906000830188611369565b61169d6020830187611369565b6116aa6040830186611369565b6116b7606083018561158f565b6116c4608083018461134b565b9695505050505050565b60006080820190506116e36000830187611369565b6116f0602083018661159e565b6116fd6040830185611369565b61170a6060830184611369565b95945050505050565b6000602082019050818103600083015261172d818461138f565b905092915050565b6000602082019050818103600083015261174e816113c8565b9050919050565b6000602082019050818103600083015261176e816113eb565b9050919050565b6000602082019050818103600083015261178e8161140e565b9050919050565b600060208201905081810360008301526117ae81611454565b9050919050565b600060208201905081810360008301526117ce81611477565b9050919050565b600060208201905081810360008301526117ee8161149a565b9050919050565b6000602082019050818103600083015261180e816114bd565b9050919050565b6000602082019050818103600083015261182e816114e0565b9050919050565b6000602082019050818103600083015261184e81611503565b9050919050565b6000602082019050818103600083015261186e81611526565b9050919050565b6000602082019050818103600083015261188e81611549565b9050919050565b600060208201905081810360008301526118ae8161156c565b9050919050565b60006020820190506118ca600083018461158f565b92915050565b60006020820190506118e5600083018461159e565b92915050565b600081519050919050565b600082825260208201905092915050565b600081905092915050565b600061191d826119b0565b9150611928836119b0565b9250827fffffffffffffffffffffffffffffffffffffffffffffffffffffffffffffffff0382111561195d5761195c611a36565b5b828201905092915050565b600061197382611990565b9050919050565b60008115159050919050565b6000819050919050565b600073ffffffffffffffffffffffffffffffffffffffff82169050919050565b6000819050919050565b600060ff82169050919050565b60005b838110156119e55780820151818401526020810190506119ca565b838111156119f4576000848401525b50505050565b60006002820490506001821680611a1257607f821691505b60208210811415611a2657611a25611a65565b5b50919050565b6000819050919050565b7f4e487b7100000000000000000000000000000000000000000000000000000000600052601160045260246000fd5b7f4e487b7100000000000000000000000000000000000000000000000000000000600052602260045260246000fd5b6000601f19601f8301169050919050565b7f45434453413a20696e76616c6964207369676e61747572650000000000000000600082015250565b7f45524332303a207472616e7366657220746f20746865207a65726f206164647260008201527f6573730000000000000000000000000000000000000000000000000000000000602082015250565b7f45524332303a20617070726f766520746f20746865207a65726f20616464726560008201527f7373000000000000000000000000000000000000000000000000000000000000602082015250565b7f1901000000000000000000000000000000000000000000000000000000000000600082015250565b7f45524332305065726d69743a206578706972656420646561646c696e65000000600082015250565b7f45524332303a207472616e7366657220616d6f756e742065786365656473206260008201527f616c616e63650000000000000000000000000000000000000000000000000000602082015250565b7f45434453413a20696e76616c6964207369676e6174757265202773272076616c60008201527f7565000000000000000000000000000000000000000000000000000000000000602082015250565b7f45434453413a20696e76616c6964207369676e6174757265202776272076616c60008201527f7565000000000000000000000000000000000000000000000000000000000000602082015250565b7f45524332305065726d69743a20696e76616c6964207369676e61747572650000600082015250565b7f45524332303a207472616e7366657220616d6f756e742065786365656473206160008201527f6c6c6f77616e6365000000000000000000000000000000000000000000000000602082015250565b7f45524332303a207472616e736665722066726f6d20746865207a65726f20616460008201527f6472657373000000000000000000000000000000000000000000000000000000602082015250565b7f45524332303a20617070726f76652066726f6d20746865207a65726f2061646460008201527f7265737300000000000000000000000000000000000000000000000000000000602082015250565b7f45524332303a2064656372656173656420616c6c6f77616e63652062656c6f7760008201527f207a65726f000000000000000000000000000000000000000000000000000000602082015250565b611e1981611968565b8114611e2457600080fd5b50565b611e3081611986565b8114611e3b57600080fd5b50565b611e47816119b0565b8114611e5257600080fd5b50565b611e5e816119ba565b8114611e6957600080fd5b5056fea264697066735822122067ee2b32eaa940782faf0eaef76c68483ff397941c61adfd452ea80947a1636f64736f6c63430008040033",
  "immutableReferences": {
    "13582": [
      {
        "length": 32,
        "start": 2114
      }
    ],
    "18579": [
      {
        "length": 32,
        "start": 3641
      }
    ],
    "18581": [
      {
        "length": 32,
        "start": 3601
      }
    ],
    "18583": [
      {
        "length": 32,
        "start": 3717
      }
    ],
    "18585": [
      {
        "length": 32,
        "start": 3750
      }
    ],
    "18587": [
      {
        "length": 32,
        "start": 3684
      }
    ]
  },
  "source": "// SPDX-License-Identifier: MIT\n\npragma solidity ^0.8.0;\n\n\nimport \"../token/ERC20/extensions/draft-ERC20Permit.sol\";\n\ncontract ERC20PermitMock is ERC20Permit {\n    constructor (\n        string memory name,\n        string memory symbol,\n        address initialAccount,\n        uint256 initialBalance\n    ) payable ERC20(name, symbol) ERC20Permit(name) {\n        _mint(initialAccount, initialBalance);\n    }\n\n    function getChainId() external view returns (uint256) {\n        return block.chainid;\n    }\n}\n",
  "sourcePath": "C:/Users/Husnain/Documents/Projects/Fanbase/New/fanbase/packages/ethereum/contracts/solidity/openzeppelin/contracts/mocks/ERC20PermitMock.sol",
  "compiler": {
    "name": "solc",
    "version": "0.8.4+commit.c7e474f2.Emscripten.clang"
  },
  "schemaVersion": "3.4.1",
  "updatedAt": "2021-06-06T20:07:31.822Z",
  "devdoc": {
    "kind": "dev",
    "methods": {
      "DOMAIN_SEPARATOR()": {
        "details": "See {IERC20Permit-DOMAIN_SEPARATOR}."
      },
      "allowance(address,address)": {
        "details": "See {IERC20-allowance}."
      },
      "approve(address,uint256)": {
        "details": "See {IERC20-approve}. Requirements: - `spender` cannot be the zero address."
      },
      "balanceOf(address)": {
        "details": "See {IERC20-balanceOf}."
      },
      "decimals()": {
        "details": "Returns the number of decimals used to get its user representation. For example, if `decimals` equals `2`, a balance of `505` tokens should be displayed to a user as `5,05` (`505 / 10 ** 2`). Tokens usually opt for a value of 18, imitating the relationship between Ether and Wei. This is the value {ERC20} uses, unless this function is overridden; NOTE: This information is only used for _display_ purposes: it in no way affects any of the arithmetic of the contract, including {IERC20-balanceOf} and {IERC20-transfer}."
      },
      "decreaseAllowance(address,uint256)": {
        "details": "Atomically decreases the allowance granted to `spender` by the caller. This is an alternative to {approve} that can be used as a mitigation for problems described in {IERC20-approve}. Emits an {Approval} event indicating the updated allowance. Requirements: - `spender` cannot be the zero address. - `spender` must have allowance for the caller of at least `subtractedValue`."
      },
      "increaseAllowance(address,uint256)": {
        "details": "Atomically increases the allowance granted to `spender` by the caller. This is an alternative to {approve} that can be used as a mitigation for problems described in {IERC20-approve}. Emits an {Approval} event indicating the updated allowance. Requirements: - `spender` cannot be the zero address."
      },
      "name()": {
        "details": "Returns the name of the token."
      },
      "nonces(address)": {
        "details": "See {IERC20Permit-nonces}."
      },
      "permit(address,address,uint256,uint256,uint8,bytes32,bytes32)": {
        "details": "See {IERC20Permit-permit}."
      },
      "symbol()": {
        "details": "Returns the symbol of the token, usually a shorter version of the name."
      },
      "totalSupply()": {
        "details": "See {IERC20-totalSupply}."
      },
      "transfer(address,uint256)": {
        "details": "See {IERC20-transfer}. Requirements: - `recipient` cannot be the zero address. - the caller must have a balance of at least `amount`."
      },
      "transferFrom(address,address,uint256)": {
        "details": "See {IERC20-transferFrom}. Emits an {Approval} event indicating the updated allowance. This is not required by the EIP. See the note at the beginning of {ERC20}. Requirements: - `sender` and `recipient` cannot be the zero address. - `sender` must have a balance of at least `amount`. - the caller must have allowance for ``sender``'s tokens of at least `amount`."
      }
    },
    "version": 1
  },
  "userdoc": {
    "kind": "user",
    "methods": {},
    "version": 1
  }
}