{
  "contractName": "ERC2771ContextMock",
  "abi": [
    {
      "inputs": [
        {
          "internalType": "address",
          "name": "trustedForwarder",
          "type": "address"
        }
      ],
      "stateMutability": "nonpayable",
      "type": "constructor"
    },
    {
      "anonymous": false,
      "inputs": [
        {
          "indexed": false,
          "internalType": "bytes",
          "name": "data",
          "type": "bytes"
        },
        {
          "indexed": false,
          "internalType": "uint256",
          "name": "integerValue",
          "type": "uint256"
        },
        {
          "indexed": false,
          "internalType": "string",
          "name": "stringValue",
          "type": "string"
        }
      ],
      "name": "Data",
      "type": "event"
    },
    {
      "anonymous": false,
      "inputs": [
        {
          "indexed": false,
          "internalType": "address",
          "name": "sender",
          "type": "address"
        }
      ],
      "name": "Sender",
      "type": "event"
    },
    {
      "inputs": [
        {
          "internalType": "address",
          "name": "forwarder",
          "type": "address"
        }
      ],
      "name": "isTrustedForwarder",
      "outputs": [
        {
          "internalType": "bool",
          "name": "",
          "type": "bool"
        }
      ],
      "stateMutability": "view",
      "type": "function"
    },
    {
      "inputs": [
        {
          "internalType": "uint256",
          "name": "integerValue",
          "type": "uint256"
        },
        {
          "internalType": "string",
          "name": "stringValue",
          "type": "string"
        }
      ],
      "name": "msgData",
      "outputs": [],
      "stateMutability": "nonpayable",
      "type": "function"
    },
    {
      "inputs": [],
      "name": "msgSender",
      "outputs": [],
      "stateMutability": "nonpayable",
      "type": "function"
    }
  ],
  "bytecode": "0x60a060405234801561001057600080fd5b5060405161082238038061082283398181016040528101906100329190610086565b808073ffffffffffffffffffffffffffffffffffffffff1660808173ffffffffffffffffffffffffffffffffffffffff1660601b815250505050610101565b600081519050610080816100ea565b92915050565b60006020828403121561009c5761009b6100e5565b5b60006100aa84828501610071565b91505092915050565b60006100be826100c5565b9050919050565b600073ffffffffffffffffffffffffffffffffffffffff82169050919050565b600080fd5b6100f3816100b3565b81146100fe57600080fd5b50565b60805160601c61070461011e600039600060e701526107046000f3fe608060405234801561001057600080fd5b50600436106100415760003560e01c8063376bf26214610046578063572b6c0514610062578063d737d0c714610092575b600080fd5b610060600480360381019061005b91906102fa565b61009c565b005b61007c600480360381019061007791906102cd565b6100e3565b6040516100899190610404565b60405180910390f35b61009a61013b565b005b7faf235354a0a47c91ee171961326335cb2d1a8e55b8a89859b0e61eb049e50ea06100c561017b565b84846040516100d7949392919061041f565b60405180910390a15050565b60007f000000000000000000000000000000000000000000000000000000000000000073ffffffffffffffffffffffffffffffffffffffff168273ffffffffffffffffffffffffffffffffffffffff16149050919050565b7fd6558c3ed910d959271054471fd1c326679d9fece99c5091b00ed89627cf2bfc61016461018e565b60405161017191906103e9565b60405180910390a1565b36600061018661019d565b915091509091565b60006101986101ec565b905090565b3660006101a9336100e3565b156101db57600036600090601460003690506101c59190610524565b926101d2939291906104e9565b915091506101e8565b6101e361021e565b915091505b9091565b60006101f7336100e3565b1561020b57601436033560601c905061021a565b61021361022b565b905061021b565b5b90565b3660008036915091509091565b600033905090565b60006102466102418461048b565b610466565b90508281526020810184848401111561026257610261610680565b5b61026d8482856105a0565b509392505050565b600081359050610284816106a0565b92915050565b600082601f83011261029f5761029e610671565b5b81356102af848260208601610233565b91505092915050565b6000813590506102c7816106b7565b92915050565b6000602082840312156102e3576102e261068a565b5b60006102f184828501610275565b91505092915050565b600080604083850312156103115761031061068a565b5b600061031f858286016102b8565b925050602083013567ffffffffffffffff8111156103405761033f610685565b5b61034c8582860161028a565b9150509250929050565b61035f81610558565b82525050565b61036e8161056a565b82525050565b600061038083856104c7565b935061038d8385846105a0565b6103968361068f565b840190509392505050565b60006103ac826104bc565b6103b681856104d8565b93506103c68185602086016105af565b6103cf8161068f565b840191505092915050565b6103e381610596565b82525050565b60006020820190506103fe6000830184610356565b92915050565b60006020820190506104196000830184610365565b92915050565b6000606082019050818103600083015261043a818688610374565b905061044960208301856103da565b818103604083015261045b81846103a1565b905095945050505050565b6000610470610481565b905061047c82826105e2565b919050565b6000604051905090565b600067ffffffffffffffff8211156104a6576104a5610642565b5b6104af8261068f565b9050602081019050919050565b600081519050919050565b600082825260208201905092915050565b600082825260208201905092915050565b600080858511156104fd576104fc61067b565b5b8386111561050e5761050d610676565b5b6001850283019150848603905094509492505050565b600061052f82610596565b915061053a83610596565b92508282101561054d5761054c610613565b5b828203905092915050565b600061056382610576565b9050919050565b60008115159050919050565b600073ffffffffffffffffffffffffffffffffffffffff82169050919050565b6000819050919050565b82818337600083830152505050565b60005b838110156105cd5780820151818401526020810190506105b2565b838111156105dc576000848401525b50505050565b6105eb8261068f565b810181811067ffffffffffffffff8211171561060a57610609610642565b5b80604052505050565b7f4e487b7100000000000000000000000000000000000000000000000000000000600052601160045260246000fd5b7f4e487b7100000000000000000000000000000000000000000000000000000000600052604160045260246000fd5b600080fd5b600080fd5b600080fd5b600080fd5b600080fd5b600080fd5b6000601f19601f8301169050919050565b6106a981610558565b81146106b457600080fd5b50565b6106c081610596565b81146106cb57600080fd5b5056fea2646970667358221220871629f0c25cf91817fab1bb6866966715a9bba4c5e5c391dbe3120fc12dccb764736f6c63430008070033",
  "immutableReferences": {
    "5175": [
      {
        "length": 32,
        "start": 231
      }
    ]
  },
  "source": "// SPDX-License-Identifier: MIT\r\n\r\npragma solidity ^0.8.0;\r\n\r\nimport \"./ContextMock.sol\";\r\nimport \"../metatx/ERC2771Context.sol\";\r\n\r\n// By inheriting from ERC2771Context, Context's internal functions are overridden automatically\r\ncontract ERC2771ContextMock is ContextMock, ERC2771Context {\r\n    constructor(address trustedForwarder) ERC2771Context(trustedForwarder) {}\r\n\r\n    function _msgSender() internal override(Context, ERC2771Context) view virtual returns (address) {\r\n        return ERC2771Context._msgSender();\r\n    }\r\n\r\n    function _msgData() internal override(Context, ERC2771Context) view virtual returns (bytes calldata) {\r\n        return ERC2771Context._msgData();\r\n    }\r\n}\r\n",
  "sourcePath": "C:/Users/Husnain/Documents/Projects/Fanbase/fanbase/packages/ethereum/contracts/solidity/openzeppelin/contracts/mocks/ERC2771ContextMock.sol",
  "compiler": {
    "name": "solc",
    "version": "0.8.7+commit.e28d00a7.Emscripten.clang"
  },
  "schemaVersion": "3.4.1",
  "updatedAt": "2021-08-29T17:48:48.755Z",
  "devdoc": {
    "kind": "dev",
    "methods": {},
    "version": 1
  },
  "userdoc": {
    "kind": "user",
    "methods": {},
    "version": 1
  }
}