{
  "contractName": "ERC20PresetMinterPauser",
  "abi": [
    {
      "inputs": [
        {
          "internalType": "string",
          "name": "name",
          "type": "string"
        },
        {
          "internalType": "string",
          "name": "symbol",
          "type": "string"
        }
      ],
      "stateMutability": "nonpayable",
      "type": "constructor"
    },
    {
      "anonymous": false,
      "inputs": [
        {
          "indexed": true,
          "internalType": "address",
          "name": "owner",
          "type": "address"
        },
        {
          "indexed": true,
          "internalType": "address",
          "name": "spender",
          "type": "address"
        },
        {
          "indexed": false,
          "internalType": "uint256",
          "name": "value",
          "type": "uint256"
        }
      ],
      "name": "Approval",
      "type": "event"
    },
    {
      "anonymous": false,
      "inputs": [
        {
          "indexed": false,
          "internalType": "address",
          "name": "account",
          "type": "address"
        }
      ],
      "name": "Paused",
      "type": "event"
    },
    {
      "anonymous": false,
      "inputs": [
        {
          "indexed": true,
          "internalType": "bytes32",
          "name": "role",
          "type": "bytes32"
        },
        {
          "indexed": true,
          "internalType": "bytes32",
          "name": "previousAdminRole",
          "type": "bytes32"
        },
        {
          "indexed": true,
          "internalType": "bytes32",
          "name": "newAdminRole",
          "type": "bytes32"
        }
      ],
      "name": "RoleAdminChanged",
      "type": "event"
    },
    {
      "anonymous": false,
      "inputs": [
        {
          "indexed": true,
          "internalType": "bytes32",
          "name": "role",
          "type": "bytes32"
        },
        {
          "indexed": true,
          "internalType": "address",
          "name": "account",
          "type": "address"
        },
        {
          "indexed": true,
          "internalType": "address",
          "name": "sender",
          "type": "address"
        }
      ],
      "name": "RoleGranted",
      "type": "event"
    },
    {
      "anonymous": false,
      "inputs": [
        {
          "indexed": true,
          "internalType": "bytes32",
          "name": "role",
          "type": "bytes32"
        },
        {
          "indexed": true,
          "internalType": "address",
          "name": "account",
          "type": "address"
        },
        {
          "indexed": true,
          "internalType": "address",
          "name": "sender",
          "type": "address"
        }
      ],
      "name": "RoleRevoked",
      "type": "event"
    },
    {
      "anonymous": false,
      "inputs": [
        {
          "indexed": true,
          "internalType": "address",
          "name": "from",
          "type": "address"
        },
        {
          "indexed": true,
          "internalType": "address",
          "name": "to",
          "type": "address"
        },
        {
          "indexed": false,
          "internalType": "uint256",
          "name": "value",
          "type": "uint256"
        }
      ],
      "name": "Transfer",
      "type": "event"
    },
    {
      "anonymous": false,
      "inputs": [
        {
          "indexed": false,
          "internalType": "address",
          "name": "account",
          "type": "address"
        }
      ],
      "name": "Unpaused",
      "type": "event"
    },
    {
      "inputs": [],
      "name": "DEFAULT_ADMIN_ROLE",
      "outputs": [
        {
          "internalType": "bytes32",
          "name": "",
          "type": "bytes32"
        }
      ],
      "stateMutability": "view",
      "type": "function"
    },
    {
      "inputs": [],
      "name": "MINTER_ROLE",
      "outputs": [
        {
          "internalType": "bytes32",
          "name": "",
          "type": "bytes32"
        }
      ],
      "stateMutability": "view",
      "type": "function"
    },
    {
      "inputs": [],
      "name": "PAUSER_ROLE",
      "outputs": [
        {
          "internalType": "bytes32",
          "name": "",
          "type": "bytes32"
        }
      ],
      "stateMutability": "view",
      "type": "function"
    },
    {
      "inputs": [
        {
          "internalType": "address",
          "name": "owner",
          "type": "address"
        },
        {
          "internalType": "address",
          "name": "spender",
          "type": "address"
        }
      ],
      "name": "allowance",
      "outputs": [
        {
          "internalType": "uint256",
          "name": "",
          "type": "uint256"
        }
      ],
      "stateMutability": "view",
      "type": "function"
    },
    {
      "inputs": [
        {
          "internalType": "address",
          "name": "spender",
          "type": "address"
        },
        {
          "internalType": "uint256",
          "name": "amount",
          "type": "uint256"
        }
      ],
      "name": "approve",
      "outputs": [
        {
          "internalType": "bool",
          "name": "",
          "type": "bool"
        }
      ],
      "stateMutability": "nonpayable",
      "type": "function"
    },
    {
      "inputs": [
        {
          "internalType": "address",
          "name": "account",
          "type": "address"
        }
      ],
      "name": "balanceOf",
      "outputs": [
        {
          "internalType": "uint256",
          "name": "",
          "type": "uint256"
        }
      ],
      "stateMutability": "view",
      "type": "function"
    },
    {
      "inputs": [
        {
          "internalType": "uint256",
          "name": "amount",
          "type": "uint256"
        }
      ],
      "name": "burn",
      "outputs": [],
      "stateMutability": "nonpayable",
      "type": "function"
    },
    {
      "inputs": [
        {
          "internalType": "address",
          "name": "account",
          "type": "address"
        },
        {
          "internalType": "uint256",
          "name": "amount",
          "type": "uint256"
        }
      ],
      "name": "burnFrom",
      "outputs": [],
      "stateMutability": "nonpayable",
      "type": "function"
    },
    {
      "inputs": [],
      "name": "decimals",
      "outputs": [
        {
          "internalType": "uint8",
          "name": "",
          "type": "uint8"
        }
      ],
      "stateMutability": "view",
      "type": "function"
    },
    {
      "inputs": [
        {
          "internalType": "address",
          "name": "spender",
          "type": "address"
        },
        {
          "internalType": "uint256",
          "name": "subtractedValue",
          "type": "uint256"
        }
      ],
      "name": "decreaseAllowance",
      "outputs": [
        {
          "internalType": "bool",
          "name": "",
          "type": "bool"
        }
      ],
      "stateMutability": "nonpayable",
      "type": "function"
    },
    {
      "inputs": [
        {
          "internalType": "bytes32",
          "name": "role",
          "type": "bytes32"
        }
      ],
      "name": "getRoleAdmin",
      "outputs": [
        {
          "internalType": "bytes32",
          "name": "",
          "type": "bytes32"
        }
      ],
      "stateMutability": "view",
      "type": "function"
    },
    {
      "inputs": [
        {
          "internalType": "bytes32",
          "name": "role",
          "type": "bytes32"
        },
        {
          "internalType": "uint256",
          "name": "index",
          "type": "uint256"
        }
      ],
      "name": "getRoleMember",
      "outputs": [
        {
          "internalType": "address",
          "name": "",
          "type": "address"
        }
      ],
      "stateMutability": "view",
      "type": "function"
    },
    {
      "inputs": [
        {
          "internalType": "bytes32",
          "name": "role",
          "type": "bytes32"
        }
      ],
      "name": "getRoleMemberCount",
      "outputs": [
        {
          "internalType": "uint256",
          "name": "",
          "type": "uint256"
        }
      ],
      "stateMutability": "view",
      "type": "function"
    },
    {
      "inputs": [
        {
          "internalType": "bytes32",
          "name": "role",
          "type": "bytes32"
        },
        {
          "internalType": "address",
          "name": "account",
          "type": "address"
        }
      ],
      "name": "grantRole",
      "outputs": [],
      "stateMutability": "nonpayable",
      "type": "function"
    },
    {
      "inputs": [
        {
          "internalType": "bytes32",
          "name": "role",
          "type": "bytes32"
        },
        {
          "internalType": "address",
          "name": "account",
          "type": "address"
        }
      ],
      "name": "hasRole",
      "outputs": [
        {
          "internalType": "bool",
          "name": "",
          "type": "bool"
        }
      ],
      "stateMutability": "view",
      "type": "function"
    },
    {
      "inputs": [
        {
          "internalType": "address",
          "name": "spender",
          "type": "address"
        },
        {
          "internalType": "uint256",
          "name": "addedValue",
          "type": "uint256"
        }
      ],
      "name": "increaseAllowance",
      "outputs": [
        {
          "internalType": "bool",
          "name": "",
          "type": "bool"
        }
      ],
      "stateMutability": "nonpayable",
      "type": "function"
    },
    {
      "inputs": [],
      "name": "name",
      "outputs": [
        {
          "internalType": "string",
          "name": "",
          "type": "string"
        }
      ],
      "stateMutability": "view",
      "type": "function"
    },
    {
      "inputs": [],
      "name": "paused",
      "outputs": [
        {
          "internalType": "bool",
          "name": "",
          "type": "bool"
        }
      ],
      "stateMutability": "view",
      "type": "function"
    },
    {
      "inputs": [
        {
          "internalType": "bytes32",
          "name": "role",
          "type": "bytes32"
        },
        {
          "internalType": "address",
          "name": "account",
          "type": "address"
        }
      ],
      "name": "renounceRole",
      "outputs": [],
      "stateMutability": "nonpayable",
      "type": "function"
    },
    {
      "inputs": [
        {
          "internalType": "bytes32",
          "name": "role",
          "type": "bytes32"
        },
        {
          "internalType": "address",
          "name": "account",
          "type": "address"
        }
      ],
      "name": "revokeRole",
      "outputs": [],
      "stateMutability": "nonpayable",
      "type": "function"
    },
    {
      "inputs": [
        {
          "internalType": "bytes4",
          "name": "interfaceId",
          "type": "bytes4"
        }
      ],
      "name": "supportsInterface",
      "outputs": [
        {
          "internalType": "bool",
          "name": "",
          "type": "bool"
        }
      ],
      "stateMutability": "view",
      "type": "function"
    },
    {
      "inputs": [],
      "name": "symbol",
      "outputs": [
        {
          "internalType": "string",
          "name": "",
          "type": "string"
        }
      ],
      "stateMutability": "view",
      "type": "function"
    },
    {
      "inputs": [],
      "name": "totalSupply",
      "outputs": [
        {
          "internalType": "uint256",
          "name": "",
          "type": "uint256"
        }
      ],
      "stateMutability": "view",
      "type": "function"
    },
    {
      "inputs": [
        {
          "internalType": "address",
          "name": "recipient",
          "type": "address"
        },
        {
          "internalType": "uint256",
          "name": "amount",
          "type": "uint256"
        }
      ],
      "name": "transfer",
      "outputs": [
        {
          "internalType": "bool",
          "name": "",
          "type": "bool"
        }
      ],
      "stateMutability": "nonpayable",
      "type": "function"
    },
    {
      "inputs": [
        {
          "internalType": "address",
          "name": "sender",
          "type": "address"
        },
        {
          "internalType": "address",
          "name": "recipient",
          "type": "address"
        },
        {
          "internalType": "uint256",
          "name": "amount",
          "type": "uint256"
        }
      ],
      "name": "transferFrom",
      "outputs": [
        {
          "internalType": "bool",
          "name": "",
          "type": "bool"
        }
      ],
      "stateMutability": "nonpayable",
      "type": "function"
    },
    {
      "inputs": [
        {
          "internalType": "address",
          "name": "to",
          "type": "address"
        },
        {
          "internalType": "uint256",
          "name": "amount",
          "type": "uint256"
        }
      ],
      "name": "mint",
      "outputs": [],
      "stateMutability": "nonpayable",
      "type": "function"
    },
    {
      "inputs": [],
      "name": "pause",
      "outputs": [],
      "stateMutability": "nonpayable",
      "type": "function"
    },
    {
      "inputs": [],
      "name": "unpause",
      "outputs": [],
      "stateMutability": "nonpayable",
      "type": "function"
    }
  ],
  "bytecode": "0x60806040523480156200001157600080fd5b5060405162003ad538038062003ad58339818101604052810190620000379190620004ee565b8181816005908051906020019062000051929190620003cc565b5080600690805190602001906200006a929190620003cc565b5050506000600760006101000a81548160ff021916908315150217905550620000ac6000801b620000a06200013660201b60201c565b6200013e60201b60201c565b620000ed7f9f2df0fed2c77648de5860a4cc508cd0818c85b8b8a1ab4ceeef8d981c8956a6620000e16200013660201b60201c565b6200013e60201b60201c565b6200012e7f65d7a28e3265b37a6474929f336521b332c1681b933f6cb9f3376673440d862a620001226200013660201b60201c565b6200013e60201b60201c565b5050620006d1565b600033905090565b6200015582826200018660201b62000ee01760201c565b6200018181600160008581526020019081526020016000206200019c60201b62000eee1790919060201c565b505050565b620001988282620001d460201b60201c565b5050565b6000620001cc836000018373ffffffffffffffffffffffffffffffffffffffff1660001b620002c560201b60201c565b905092915050565b620001e682826200033f60201b60201c565b620002c157600160008084815260200190815260200160002060000160008373ffffffffffffffffffffffffffffffffffffffff1673ffffffffffffffffffffffffffffffffffffffff16815260200190815260200160002060006101000a81548160ff021916908315150217905550620002666200013660201b60201c565b73ffffffffffffffffffffffffffffffffffffffff168173ffffffffffffffffffffffffffffffffffffffff16837f2f8788117e7eff1d82e926ec794901d17c78024a50270940304540a733656f0d60405160405180910390a45b5050565b6000620002d98383620003a960201b60201c565b6200033457826000018290806001815401808255809150506001900390600052602060002001600090919091909150558260000180549050836001016000848152602001908152602001600020819055506001905062000339565b600090505b92915050565b600080600084815260200190815260200160002060000160008373ffffffffffffffffffffffffffffffffffffffff1673ffffffffffffffffffffffffffffffffffffffff16815260200190815260200160002060009054906101000a900460ff16905092915050565b600080836001016000848152602001908152602001600020541415905092915050565b828054620003da90620005f6565b90600052602060002090601f016020900481019282620003fe57600085556200044a565b82601f106200041957805160ff19168380011785556200044a565b828001600101855582156200044a579182015b82811115620004495782518255916020019190600101906200042c565b5b5090506200045991906200045d565b5090565b5b80821115620004785760008160009055506001016200045e565b5090565b6000620004936200048d846200058a565b62000561565b905082815260208101848484011115620004ac57600080fd5b620004b9848285620005c0565b509392505050565b600082601f830112620004d357600080fd5b8151620004e58482602086016200047c565b91505092915050565b600080604083850312156200050257600080fd5b600083015167ffffffffffffffff8111156200051d57600080fd5b6200052b85828601620004c1565b925050602083015167ffffffffffffffff8111156200054957600080fd5b6200055785828601620004c1565b9150509250929050565b60006200056d62000580565b90506200057b82826200062c565b919050565b6000604051905090565b600067ffffffffffffffff821115620005a857620005a762000691565b5b620005b382620006c0565b9050602081019050919050565b60005b83811015620005e0578082015181840152602081019050620005c3565b83811115620005f0576000848401525b50505050565b600060028204905060018216806200060f57607f821691505b6020821081141562000626576200062562000662565b5b50919050565b6200063782620006c0565b810181811067ffffffffffffffff8211171562000659576200065862000691565b5b80604052505050565b7f4e487b7100000000000000000000000000000000000000000000000000000000600052602260045260246000fd5b7f4e487b7100000000000000000000000000000000000000000000000000000000600052604160045260246000fd5b6000601f19601f8301169050919050565b6133f480620006e16000396000f3fe608060405234801561001057600080fd5b50600436106101c45760003560e01c806370a08231116100f9578063a457c2d711610097578063d539139311610071578063d53913931461052d578063d547741f1461054b578063dd62ed3e14610567578063e63ab1e914610597576101c4565b8063a457c2d71461049d578063a9059cbb146104cd578063ca15c873146104fd576101c4565b80639010d07c116100d35780639010d07c1461040157806391d148541461043157806395d89b4114610461578063a217fddf1461047f576101c4565b806370a08231146103ab57806379cc6790146103db5780638456cb59146103f7576101c4565b8063313ce567116101665780633f4ba83a116101405780633f4ba83a1461034b57806340c10f191461035557806342966c68146103715780635c975abb1461038d576101c4565b8063313ce567146102e157806336568abe146102ff578063395093511461031b576101c4565b806318160ddd116101a257806318160ddd1461024757806323b872dd14610265578063248a9ca3146102955780632f2ff15d146102c5576101c4565b806301ffc9a7146101c957806306fdde03146101f9578063095ea7b314610217575b600080fd5b6101e360048036038101906101de919061240e565b6105b5565b6040516101f09190612849565b60405180910390f35b61020161062f565b60405161020e919061287f565b60405180910390f35b610231600480360381019061022c9190612331565b6106c1565b60405161023e9190612849565b60405180910390f35b61024f6106df565b60405161025c9190612b01565b60405180910390f35b61027f600480360381019061027a91906122e2565b6106e9565b60405161028c9190612849565b60405180910390f35b6102af60048036038101906102aa919061236d565b6107e1565b6040516102bc9190612864565b60405180910390f35b6102df60048036038101906102da9190612396565b610800565b005b6102e9610834565b6040516102f69190612b1c565b60405180910390f35b61031960048036038101906103149190612396565b61083d565b005b61033560048036038101906103309190612331565b610871565b6040516103429190612849565b60405180910390f35b61035361091d565b005b61036f600480360381019061036a9190612331565b610997565b005b61038b60048036038101906103869190612437565b610a15565b005b610395610a29565b6040516103a29190612849565b60405180910390f35b6103c560048036038101906103c0919061227d565b610a40565b6040516103d29190612b01565b60405180910390f35b6103f560048036038101906103f09190612331565b610a89565b005b6103ff610b04565b005b61041b600480360381019061041691906123d2565b610b7e565b604051610428919061282e565b60405180910390f35b61044b60048036038101906104469190612396565b610bad565b6040516104589190612849565b60405180910390f35b610469610c17565b604051610476919061287f565b60405180910390f35b610487610ca9565b6040516104949190612864565b60405180910390f35b6104b760048036038101906104b29190612331565b610cb0565b6040516104c49190612849565b60405180910390f35b6104e760048036038101906104e29190612331565b610d9b565b6040516104f49190612849565b60405180910390f35b6105176004803603810190610512919061236d565b610db9565b6040516105249190612b01565b60405180910390f35b610535610ddd565b6040516105429190612864565b60405180910390f35b61056560048036038101906105609190612396565b610e01565b005b610581600480360381019061057c91906122a6565b610e35565b60405161058e9190612b01565b60405180910390f35b61059f610ebc565b6040516105ac9190612864565b60405180910390f35b60007f5a05180f000000000000000000000000000000000000000000000000000000007bffffffffffffffffffffffffffffffffffffffffffffffffffffffff1916827bffffffffffffffffffffffffffffffffffffffffffffffffffffffff19161480610628575061062782610f1e565b5b9050919050565b60606005805461063e90612d2a565b80601f016020809104026020016040519081016040528092919081815260200182805461066a90612d2a565b80156106b75780601f1061068c576101008083540402835291602001916106b7565b820191906000526020600020905b81548152906001019060200180831161069a57829003601f168201915b5050505050905090565b60006106d56106ce610f98565b8484610fa0565b6001905092915050565b6000600454905090565b60006106f684848461116b565b6000600360008673ffffffffffffffffffffffffffffffffffffffff1673ffffffffffffffffffffffffffffffffffffffff1681526020019081526020016000206000610741610f98565b73ffffffffffffffffffffffffffffffffffffffff1673ffffffffffffffffffffffffffffffffffffffff168152602001908152602001600020549050828110156107c1576040517f08c379a00000000000000000000000000000000000000000000000000000000081526004016107b8906129a1565b60405180910390fd5b6107d5856107cd610f98565b858403610fa0565b60019150509392505050565b6000806000838152602001908152602001600020600101549050919050565b61080a82826113e4565b61082f8160016000858152602001908152602001600020610eee90919063ffffffff16565b505050565b60006012905090565b610847828261140d565b61086c816001600085815260200190815260200160002061149090919063ffffffff16565b505050565b600061091361087e610f98565b84846003600061088c610f98565b73ffffffffffffffffffffffffffffffffffffffff1673ffffffffffffffffffffffffffffffffffffffff16815260200190815260200160002060008873ffffffffffffffffffffffffffffffffffffffff1673ffffffffffffffffffffffffffffffffffffffff1681526020019081526020016000205461090e9190612b5e565b610fa0565b6001905092915050565b61094e7f65d7a28e3265b37a6474929f336521b332c1681b933f6cb9f3376673440d862a610949610f98565b610bad565b61098d576040517f08c379a000000000000000000000000000000000000000000000000000000000815260040161098490612921565b60405180910390fd5b6109956114c0565b565b6109c87f9f2df0fed2c77648de5860a4cc508cd0818c85b8b8a1ab4ceeef8d981c8956a66109c3610f98565b610bad565b610a07576040517f08c379a00000000000000000000000000000000000000000000000000000000081526004016109fe906129c1565b60405180910390fd5b610a118282611562565b5050565b610a26610a20610f98565b826116b7565b50565b6000600760009054906101000a900460ff16905090565b6000600260008373ffffffffffffffffffffffffffffffffffffffff1673ffffffffffffffffffffffffffffffffffffffff168152602001908152602001600020549050919050565b6000610a9c83610a97610f98565b610e35565b905081811015610ae1576040517f08c379a0000000000000000000000000000000000000000000000000000000008152600401610ad8906129e1565b60405180910390fd5b610af583610aed610f98565b848403610fa0565b610aff83836116b7565b505050565b610b357f65d7a28e3265b37a6474929f336521b332c1681b933f6cb9f3376673440d862a610b30610f98565b610bad565b610b74576040517f08c379a0000000000000000000000000000000000000000000000000000000008152600401610b6b90612a61565b60405180910390fd5b610b7c611884565b565b6000610ba5826001600086815260200190815260200160002061192790919063ffffffff16565b905092915050565b600080600084815260200190815260200160002060000160008373ffffffffffffffffffffffffffffffffffffffff1673ffffffffffffffffffffffffffffffffffffffff16815260200190815260200160002060009054906101000a900460ff16905092915050565b606060068054610c2690612d2a565b80601f0160208091040260200160405190810160405280929190818152602001828054610c5290612d2a565b8015610c9f5780601f10610c7457610100808354040283529160200191610c9f565b820191906000526020600020905b815481529060010190602001808311610c8257829003601f168201915b5050505050905090565b6000801b81565b60008060036000610cbf610f98565b73ffffffffffffffffffffffffffffffffffffffff1673ffffffffffffffffffffffffffffffffffffffff16815260200190815260200160002060008573ffffffffffffffffffffffffffffffffffffffff1673ffffffffffffffffffffffffffffffffffffffff16815260200190815260200160002054905082811015610d7c576040517f08c379a0000000000000000000000000000000000000000000000000000000008152600401610d7390612a81565b60405180910390fd5b610d90610d87610f98565b85858403610fa0565b600191505092915050565b6000610daf610da8610f98565b848461116b565b6001905092915050565b6000610dd660016000848152602001908152602001600020611941565b9050919050565b7f9f2df0fed2c77648de5860a4cc508cd0818c85b8b8a1ab4ceeef8d981c8956a681565b610e0b8282611956565b610e30816001600085815260200190815260200160002061149090919063ffffffff16565b505050565b6000600360008473ffffffffffffffffffffffffffffffffffffffff1673ffffffffffffffffffffffffffffffffffffffff16815260200190815260200160002060008373ffffffffffffffffffffffffffffffffffffffff1673ffffffffffffffffffffffffffffffffffffffff16815260200190815260200160002054905092915050565b7f65d7a28e3265b37a6474929f336521b332c1681b933f6cb9f3376673440d862a81565b610eea828261197f565b5050565b6000610f16836000018373ffffffffffffffffffffffffffffffffffffffff1660001b611a5f565b905092915050565b60007f7965db0b000000000000000000000000000000000000000000000000000000007bffffffffffffffffffffffffffffffffffffffffffffffffffffffff1916827bffffffffffffffffffffffffffffffffffffffffffffffffffffffff19161480610f915750610f9082611acf565b5b9050919050565b600033905090565b600073ffffffffffffffffffffffffffffffffffffffff168373ffffffffffffffffffffffffffffffffffffffff161415611010576040517f08c379a000000000000000000000000000000000000000000000000000000000815260040161100790612a41565b60405180910390fd5b600073ffffffffffffffffffffffffffffffffffffffff168273ffffffffffffffffffffffffffffffffffffffff161415611080576040517f08c379a000000000000000000000000000000000000000000000000000000000815260040161107790612941565b60405180910390fd5b80600360008573ffffffffffffffffffffffffffffffffffffffff1673ffffffffffffffffffffffffffffffffffffffff16815260200190815260200160002060008473ffffffffffffffffffffffffffffffffffffffff1673ffffffffffffffffffffffffffffffffffffffff168152602001908152602001600020819055508173ffffffffffffffffffffffffffffffffffffffff168373ffffffffffffffffffffffffffffffffffffffff167f8c5be1e5ebec7d5bd14f71427d1e84f3dd0314c0f7b2291e5b200ac8c7c3b9258360405161115e9190612b01565b60405180910390a3505050565b600073ffffffffffffffffffffffffffffffffffffffff168373ffffffffffffffffffffffffffffffffffffffff1614156111db576040517f08c379a00000000000000000000000000000000000000000000000000000000081526004016111d290612a21565b60405180910390fd5b600073ffffffffffffffffffffffffffffffffffffffff168273ffffffffffffffffffffffffffffffffffffffff16141561124b576040517f08c379a0000000000000000000000000000000000000000000000000000000008152600401611242906128c1565b60405180910390fd5b611256838383611b39565b6000600260008573ffffffffffffffffffffffffffffffffffffffff1673ffffffffffffffffffffffffffffffffffffffff168152602001908152602001600020549050818110156112dd576040517f08c379a00000000000000000000000000000000000000000000000000000000081526004016112d490612961565b60405180910390fd5b818103600260008673ffffffffffffffffffffffffffffffffffffffff1673ffffffffffffffffffffffffffffffffffffffff1681526020019081526020016000208190555081600260008573ffffffffffffffffffffffffffffffffffffffff1673ffffffffffffffffffffffffffffffffffffffff16815260200190815260200160002060008282546113729190612b5e565b925050819055508273ffffffffffffffffffffffffffffffffffffffff168473ffffffffffffffffffffffffffffffffffffffff167fddf252ad1be2c89b69c2b068fc378daa952ba7f163c4a11628f55a4df523b3ef846040516113d69190612b01565b60405180910390a350505050565b6113ed826107e1565b6113fe816113f9610f98565b611b49565b611408838361197f565b505050565b611415610f98565b73ffffffffffffffffffffffffffffffffffffffff168173ffffffffffffffffffffffffffffffffffffffff1614611482576040517f08c379a000000000000000000000000000000000000000000000000000000000815260040161147990612aa1565b60405180910390fd5b61148c8282611be6565b5050565b60006114b8836000018373ffffffffffffffffffffffffffffffffffffffff1660001b611cc7565b905092915050565b6114c8610a29565b611507576040517f08c379a00000000000000000000000000000000000000000000000000000000081526004016114fe906128e1565b60405180910390fd5b6000600760006101000a81548160ff0219169083151502179055507f5db9ee0a495bf2e6ff9c91a7834c1ba4fdd244a5e8aa4e537bd38aeae4b073aa61154b610f98565b604051611558919061282e565b60405180910390a1565b600073ffffffffffffffffffffffffffffffffffffffff168273ffffffffffffffffffffffffffffffffffffffff1614156115d2576040517f08c379a00000000000000000000000000000000000000000000000000000000081526004016115c990612ac1565b60405180910390fd5b6115de60008383611b39565b80600460008282546115f09190612b5e565b9250508190555080600260008473ffffffffffffffffffffffffffffffffffffffff1673ffffffffffffffffffffffffffffffffffffffff16815260200190815260200160002060008282546116469190612b5e565b925050819055508173ffffffffffffffffffffffffffffffffffffffff16600073ffffffffffffffffffffffffffffffffffffffff167fddf252ad1be2c89b69c2b068fc378daa952ba7f163c4a11628f55a4df523b3ef836040516116ab9190612b01565b60405180910390a35050565b600073ffffffffffffffffffffffffffffffffffffffff168273ffffffffffffffffffffffffffffffffffffffff161415611727576040517f08c379a000000000000000000000000000000000000000000000000000000000815260040161171e90612a01565b60405180910390fd5b61173382600083611b39565b6000600260008473ffffffffffffffffffffffffffffffffffffffff1673ffffffffffffffffffffffffffffffffffffffff168152602001908152602001600020549050818110156117ba576040517f08c379a00000000000000000000000000000000000000000000000000000000081526004016117b190612901565b60405180910390fd5b818103600260008573ffffffffffffffffffffffffffffffffffffffff1673ffffffffffffffffffffffffffffffffffffffff1681526020019081526020016000208190555081600460008282546118129190612c0e565b92505081905550600073ffffffffffffffffffffffffffffffffffffffff168373ffffffffffffffffffffffffffffffffffffffff167fddf252ad1be2c89b69c2b068fc378daa952ba7f163c4a11628f55a4df523b3ef846040516118779190612b01565b60405180910390a3505050565b61188c610a29565b156118cc576040517f08c379a00000000000000000000000000000000000000000000000000000000081526004016118c390612981565b60405180910390fd5b6001600760006101000a81548160ff0219169083151502179055507f62e78cea01bee320cd4e420270b5ea74000d11b0c9f74754ebdbfc544b05a258611910610f98565b60405161191d919061282e565b60405180910390a1565b60006119368360000183611e4d565b60001c905092915050565b600061194f82600001611e9e565b9050919050565b61195f826107e1565b6119708161196b610f98565b611b49565b61197a8383611be6565b505050565b6119898282610bad565b611a5b57600160008084815260200190815260200160002060000160008373ffffffffffffffffffffffffffffffffffffffff1673ffffffffffffffffffffffffffffffffffffffff16815260200190815260200160002060006101000a81548160ff021916908315150217905550611a00610f98565b73ffffffffffffffffffffffffffffffffffffffff168173ffffffffffffffffffffffffffffffffffffffff16837f2f8788117e7eff1d82e926ec794901d17c78024a50270940304540a733656f0d60405160405180910390a45b5050565b6000611a6b8383611eaf565b611ac4578260000182908060018154018082558091505060019003906000526020600020016000909190919091505582600001805490508360010160008481526020019081526020016000208190555060019050611ac9565b600090505b92915050565b60007f01ffc9a7000000000000000000000000000000000000000000000000000000007bffffffffffffffffffffffffffffffffffffffffffffffffffffffff1916827bffffffffffffffffffffffffffffffffffffffffffffffffffffffff1916149050919050565b611b44838383611ed2565b505050565b611b538282610bad565b611be257611b788173ffffffffffffffffffffffffffffffffffffffff166014611f2a565b611b868360001c6020611f2a565b604051602001611b979291906127f4565b6040516020818303038152906040526040517f08c379a0000000000000000000000000000000000000000000000000000000008152600401611bd9919061287f565b60405180910390fd5b5050565b611bf08282610bad565b15611cc357600080600084815260200190815260200160002060000160008373ffffffffffffffffffffffffffffffffffffffff1673ffffffffffffffffffffffffffffffffffffffff16815260200190815260200160002060006101000a81548160ff021916908315150217905550611c68610f98565b73ffffffffffffffffffffffffffffffffffffffff168173ffffffffffffffffffffffffffffffffffffffff16837ff6391f5c32d9c69d2a47ea670b442974b53935d1edc7fd64eb21e047a839171b60405160405180910390a45b5050565b60008083600101600084815260200190815260200160002054905060008114611e41576000600182611cf99190612c0e565b9050600060018660000180549050611d119190612c0e565b9050818114611dcc576000866000018281548110611d58577f4e487b7100000000000000000000000000000000000000000000000000000000600052603260045260246000fd5b9060005260206000200154905080876000018481548110611da2577f4e487b7100000000000000000000000000000000000000000000000000000000600052603260045260246000fd5b90600052602060002001819055508387600101600083815260200190815260200160002081905550505b85600001805480611e06577f4e487b7100000000000000000000000000000000000000000000000000000000600052603160045260246000fd5b600190038181906000526020600020016000905590558560010160008681526020019081526020016000206000905560019350505050611e47565b60009150505b92915050565b6000826000018281548110611e8b577f4e487b7100000000000000000000000000000000000000000000000000000000600052603260045260246000fd5b9060005260206000200154905092915050565b600081600001805490509050919050565b600080836001016000848152602001908152602001600020541415905092915050565b611edd838383612224565b611ee5610a29565b15611f25576040517f08c379a0000000000000000000000000000000000000000000000000000000008152600401611f1c90612ae1565b60405180910390fd5b505050565b606060006002836002611f3d9190612bb4565b611f479190612b5e565b67ffffffffffffffff811115611f86577f4e487b7100000000000000000000000000000000000000000000000000000000600052604160045260246000fd5b6040519080825280601f01601f191660200182016040528015611fb85781602001600182028036833780820191505090505b5090507f300000000000000000000000000000000000000000000000000000000000000081600081518110612016577f4e487b7100000000000000000000000000000000000000000000000000000000600052603260045260246000fd5b60200101907effffffffffffffffffffffffffffffffffffffffffffffffffffffffffffff1916908160001a9053507f7800000000000000000000000000000000000000000000000000000000000000816001815181106120a0577f4e487b7100000000000000000000000000000000000000000000000000000000600052603260045260246000fd5b60200101907effffffffffffffffffffffffffffffffffffffffffffffffffffffffffffff1916908160001a905350600060018460026120e09190612bb4565b6120ea9190612b5e565b90505b60018111156121d6577f3031323334353637383961626364656600000000000000000000000000000000600f861660108110612152577f4e487b7100000000000000000000000000000000000000000000000000000000600052603260045260246000fd5b1a60f81b82828151811061218f577f4e487b7100000000000000000000000000000000000000000000000000000000600052603260045260246000fd5b60200101907effffffffffffffffffffffffffffffffffffffffffffffffffffffffffffff1916908160001a905350600485901c9450806121cf90612d00565b90506120ed565b506000841461221a576040517f08c379a0000000000000000000000000000000000000000000000000000000008152600401612211906128a1565b60405180910390fd5b8091505092915050565b505050565b60008135905061223881613362565b92915050565b60008135905061224d81613379565b92915050565b60008135905061226281613390565b92915050565b600081359050612277816133a7565b92915050565b60006020828403121561228f57600080fd5b600061229d84828501612229565b91505092915050565b600080604083850312156122b957600080fd5b60006122c785828601612229565b92505060206122d885828601612229565b9150509250929050565b6000806000606084860312156122f757600080fd5b600061230586828701612229565b935050602061231686828701612229565b925050604061232786828701612268565b9150509250925092565b6000806040838503121561234457600080fd5b600061235285828601612229565b925050602061236385828601612268565b9150509250929050565b60006020828403121561237f57600080fd5b600061238d8482850161223e565b91505092915050565b600080604083850312156123a957600080fd5b60006123b78582860161223e565b92505060206123c885828601612229565b9150509250929050565b600080604083850312156123e557600080fd5b60006123f38582860161223e565b925050602061240485828601612268565b9150509250929050565b60006020828403121561242057600080fd5b600061242e84828501612253565b91505092915050565b60006020828403121561244957600080fd5b600061245784828501612268565b91505092915050565b61246981612c42565b82525050565b61247881612c54565b82525050565b61248781612c60565b82525050565b600061249882612b37565b6124a28185612b42565b93506124b2818560208601612ccd565b6124bb81612dba565b840191505092915050565b60006124d182612b37565b6124db8185612b53565b93506124eb818560208601612ccd565b80840191505092915050565b6000612504602083612b42565b915061250f82612dcb565b602082019050919050565b6000612527602383612b42565b915061253282612df4565b604082019050919050565b600061254a601483612b42565b915061255582612e43565b602082019050919050565b600061256d602283612b42565b915061257882612e6c565b604082019050919050565b6000612590603983612b42565b915061259b82612ebb565b604082019050919050565b60006125b3602283612b42565b91506125be82612f0a565b604082019050919050565b60006125d6602683612b42565b91506125e182612f59565b604082019050919050565b60006125f9601083612b42565b915061260482612fa8565b602082019050919050565b600061261c602883612b42565b915061262782612fd1565b604082019050919050565b600061263f603683612b42565b915061264a82613020565b604082019050919050565b6000612662602483612b42565b915061266d8261306f565b604082019050919050565b6000612685602183612b42565b9150612690826130be565b604082019050919050565b60006126a8602583612b42565b91506126b38261310d565b604082019050919050565b60006126cb602483612b42565b91506126d68261315c565b604082019050919050565b60006126ee603783612b42565b91506126f9826131ab565b604082019050919050565b6000612711601783612b53565b915061271c826131fa565b601782019050919050565b6000612734602583612b42565b915061273f82613223565b604082019050919050565b6000612757601183612b53565b915061276282613272565b601182019050919050565b600061277a602f83612b42565b91506127858261329b565b604082019050919050565b600061279d601f83612b42565b91506127a8826132ea565b602082019050919050565b60006127c0602a83612b42565b91506127cb82613313565b604082019050919050565b6127df81612cb6565b82525050565b6127ee81612cc0565b82525050565b60006127ff82612704565b915061280b82856124c6565b91506128168261274a565b915061282282846124c6565b91508190509392505050565b60006020820190506128436000830184612460565b92915050565b600060208201905061285e600083018461246f565b92915050565b6000602082019050612879600083018461247e565b92915050565b60006020820190508181036000830152612899818461248d565b905092915050565b600060208201905081810360008301526128ba816124f7565b9050919050565b600060208201905081810360008301526128da8161251a565b9050919050565b600060208201905081810360008301526128fa8161253d565b9050919050565b6000602082019050818103600083015261291a81612560565b9050919050565b6000602082019050818103600083015261293a81612583565b9050919050565b6000602082019050818103600083015261295a816125a6565b9050919050565b6000602082019050818103600083015261297a816125c9565b9050919050565b6000602082019050818103600083015261299a816125ec565b9050919050565b600060208201905081810360008301526129ba8161260f565b9050919050565b600060208201905081810360008301526129da81612632565b9050919050565b600060208201905081810360008301526129fa81612655565b9050919050565b60006020820190508181036000830152612a1a81612678565b9050919050565b60006020820190508181036000830152612a3a8161269b565b9050919050565b60006020820190508181036000830152612a5a816126be565b9050919050565b60006020820190508181036000830152612a7a816126e1565b9050919050565b60006020820190508181036000830152612a9a81612727565b9050919050565b60006020820190508181036000830152612aba8161276d565b9050919050565b60006020820190508181036000830152612ada81612790565b9050919050565b60006020820190508181036000830152612afa816127b3565b9050919050565b6000602082019050612b1660008301846127d6565b92915050565b6000602082019050612b3160008301846127e5565b92915050565b600081519050919050565b600082825260208201905092915050565b600081905092915050565b6000612b6982612cb6565b9150612b7483612cb6565b9250827fffffffffffffffffffffffffffffffffffffffffffffffffffffffffffffffff03821115612ba957612ba8612d5c565b5b828201905092915050565b6000612bbf82612cb6565b9150612bca83612cb6565b9250817fffffffffffffffffffffffffffffffffffffffffffffffffffffffffffffffff0483118215151615612c0357612c02612d5c565b5b828202905092915050565b6000612c1982612cb6565b9150612c2483612cb6565b925082821015612c3757612c36612d5c565b5b828203905092915050565b6000612c4d82612c96565b9050919050565b60008115159050919050565b6000819050919050565b60007fffffffff0000000000000000000000000000000000000000000000000000000082169050919050565b600073ffffffffffffffffffffffffffffffffffffffff82169050919050565b6000819050919050565b600060ff82169050919050565b60005b83811015612ceb578082015181840152602081019050612cd0565b83811115612cfa576000848401525b50505050565b6000612d0b82612cb6565b91506000821415612d1f57612d1e612d5c565b5b600182039050919050565b60006002820490506001821680612d4257607f821691505b60208210811415612d5657612d55612d8b565b5b50919050565b7f4e487b7100000000000000000000000000000000000000000000000000000000600052601160045260246000fd5b7f4e487b7100000000000000000000000000000000000000000000000000000000600052602260045260246000fd5b6000601f19601f8301169050919050565b7f537472696e67733a20686578206c656e67746820696e73756666696369656e74600082015250565b7f45524332303a207472616e7366657220746f20746865207a65726f206164647260008201527f6573730000000000000000000000000000000000000000000000000000000000602082015250565b7f5061757361626c653a206e6f7420706175736564000000000000000000000000600082015250565b7f45524332303a206275726e20616d6f756e7420657863656564732062616c616e60008201527f6365000000000000000000000000000000000000000000000000000000000000602082015250565b7f45524332305072657365744d696e7465725061757365723a206d75737420686160008201527f76652070617573657220726f6c6520746f20756e706175736500000000000000602082015250565b7f45524332303a20617070726f766520746f20746865207a65726f20616464726560008201527f7373000000000000000000000000000000000000000000000000000000000000602082015250565b7f45524332303a207472616e7366657220616d6f756e742065786365656473206260008201527f616c616e63650000000000000000000000000000000000000000000000000000602082015250565b7f5061757361626c653a2070617573656400000000000000000000000000000000600082015250565b7f45524332303a207472616e7366657220616d6f756e742065786365656473206160008201527f6c6c6f77616e6365000000000000000000000000000000000000000000000000602082015250565b7f45524332305072657365744d696e7465725061757365723a206d75737420686160008201527f7665206d696e74657220726f6c6520746f206d696e7400000000000000000000602082015250565b7f45524332303a206275726e20616d6f756e74206578636565647320616c6c6f7760008201527f616e636500000000000000000000000000000000000000000000000000000000602082015250565b7f45524332303a206275726e2066726f6d20746865207a65726f2061646472657360008201527f7300000000000000000000000000000000000000000000000000000000000000602082015250565b7f45524332303a207472616e736665722066726f6d20746865207a65726f20616460008201527f6472657373000000000000000000000000000000000000000000000000000000602082015250565b7f45524332303a20617070726f76652066726f6d20746865207a65726f2061646460008201527f7265737300000000000000000000000000000000000000000000000000000000602082015250565b7f45524332305072657365744d696e7465725061757365723a206d75737420686160008201527f76652070617573657220726f6c6520746f207061757365000000000000000000602082015250565b7f416363657373436f6e74726f6c3a206163636f756e7420000000000000000000600082015250565b7f45524332303a2064656372656173656420616c6c6f77616e63652062656c6f7760008201527f207a65726f000000000000000000000000000000000000000000000000000000602082015250565b7f206973206d697373696e6720726f6c6520000000000000000000000000000000600082015250565b7f416363657373436f6e74726f6c3a2063616e206f6e6c792072656e6f756e636560008201527f20726f6c657320666f722073656c660000000000000000000000000000000000602082015250565b7f45524332303a206d696e7420746f20746865207a65726f206164647265737300600082015250565b7f45524332305061757361626c653a20746f6b656e207472616e7366657220776860008201527f696c652070617573656400000000000000000000000000000000000000000000602082015250565b61336b81612c42565b811461337657600080fd5b50565b61338281612c60565b811461338d57600080fd5b50565b61339981612c6a565b81146133a457600080fd5b50565b6133b081612cb6565b81146133bb57600080fd5b5056fea2646970667358221220f08785bec6f33dface90b2f62c8522413b10bc25b9b1cf5c59f67dc83dd2f4a264736f6c63430008040033",
  "immutableReferences": {},
  "source": "// SPDX-License-Identifier: MIT\n\npragma solidity ^0.8.0;\n\nimport \"../ERC20.sol\";\nimport \"../extensions/ERC20Burnable.sol\";\nimport \"../extensions/ERC20Pausable.sol\";\nimport \"../../../access/AccessControlEnumerable.sol\";\nimport \"../../../utils/Context.sol\";\n\n/**\n * @dev {ERC20} token, including:\n *\n *  - ability for holders to burn (destroy) their tokens\n *  - a minter role that allows for token minting (creation)\n *  - a pauser role that allows to stop all token transfers\n *\n * This contract uses {AccessControl} to lock permissioned functions using the\n * different roles - head to its documentation for details.\n *\n * The account that deploys the contract will be granted the minter and pauser\n * roles, as well as the default admin role, which will let it grant both minter\n * and pauser roles to other accounts.\n */\ncontract ERC20PresetMinterPauser is Context, AccessControlEnumerable, ERC20Burnable, ERC20Pausable {\n    bytes32 public constant MINTER_ROLE = keccak256(\"MINTER_ROLE\");\n    bytes32 public constant PAUSER_ROLE = keccak256(\"PAUSER_ROLE\");\n\n    /**\n     * @dev Grants `DEFAULT_ADMIN_ROLE`, `MINTER_ROLE` and `PAUSER_ROLE` to the\n     * account that deploys the contract.\n     *\n     * See {ERC20-constructor}.\n     */\n    constructor(string memory name, string memory symbol) ERC20(name, symbol) {\n        _setupRole(DEFAULT_ADMIN_ROLE, _msgSender());\n\n        _setupRole(MINTER_ROLE, _msgSender());\n        _setupRole(PAUSER_ROLE, _msgSender());\n    }\n\n    /**\n     * @dev Creates `amount` new tokens for `to`.\n     *\n     * See {ERC20-_mint}.\n     *\n     * Requirements:\n     *\n     * - the caller must have the `MINTER_ROLE`.\n     */\n    function mint(address to, uint256 amount) public virtual {\n        require(hasRole(MINTER_ROLE, _msgSender()), \"ERC20PresetMinterPauser: must have minter role to mint\");\n        _mint(to, amount);\n    }\n\n    /**\n     * @dev Pauses all token transfers.\n     *\n     * See {ERC20Pausable} and {Pausable-_pause}.\n     *\n     * Requirements:\n     *\n     * - the caller must have the `PAUSER_ROLE`.\n     */\n    function pause() public virtual {\n        require(hasRole(PAUSER_ROLE, _msgSender()), \"ERC20PresetMinterPauser: must have pauser role to pause\");\n        _pause();\n    }\n\n    /**\n     * @dev Unpauses all token transfers.\n     *\n     * See {ERC20Pausable} and {Pausable-_unpause}.\n     *\n     * Requirements:\n     *\n     * - the caller must have the `PAUSER_ROLE`.\n     */\n    function unpause() public virtual {\n        require(hasRole(PAUSER_ROLE, _msgSender()), \"ERC20PresetMinterPauser: must have pauser role to unpause\");\n        _unpause();\n    }\n\n    function _beforeTokenTransfer(address from, address to, uint256 amount) internal virtual override(ERC20, ERC20Pausable) {\n        super._beforeTokenTransfer(from, to, amount);\n    }\n}\n",
  "sourcePath": "C:/Users/Husnain/Documents/Projects/Fanbase/New/fanbase/packages/ethereum/contracts/solidity/openzeppelin/contracts/token/ERC20/presets/ERC20PresetMinterPauser.sol",
  "compiler": {
    "name": "solc",
    "version": "0.8.4+commit.c7e474f2.Emscripten.clang"
  },
  "schemaVersion": "3.4.1",
  "updatedAt": "2021-06-06T20:07:32.230Z",
  "devdoc": {
    "details": "{ERC20} token, including:  - ability for holders to burn (destroy) their tokens  - a minter role that allows for token minting (creation)  - a pauser role that allows to stop all token transfers This contract uses {AccessControl} to lock permissioned functions using the different roles - head to its documentation for details. The account that deploys the contract will be granted the minter and pauser roles, as well as the default admin role, which will let it grant both minter and pauser roles to other accounts.",
    "kind": "dev",
    "methods": {
      "allowance(address,address)": {
        "details": "See {IERC20-allowance}."
      },
      "approve(address,uint256)": {
        "details": "See {IERC20-approve}. Requirements: - `spender` cannot be the zero address."
      },
      "balanceOf(address)": {
        "details": "See {IERC20-balanceOf}."
      },
      "burn(uint256)": {
        "details": "Destroys `amount` tokens from the caller. See {ERC20-_burn}."
      },
      "burnFrom(address,uint256)": {
        "details": "Destroys `amount` tokens from `account`, deducting from the caller's allowance. See {ERC20-_burn} and {ERC20-allowance}. Requirements: - the caller must have allowance for ``accounts``'s tokens of at least `amount`."
      },
      "constructor": {
        "details": "Grants `DEFAULT_ADMIN_ROLE`, `MINTER_ROLE` and `PAUSER_ROLE` to the account that deploys the contract. See {ERC20-constructor}."
      },
      "decimals()": {
        "details": "Returns the number of decimals used to get its user representation. For example, if `decimals` equals `2`, a balance of `505` tokens should be displayed to a user as `5,05` (`505 / 10 ** 2`). Tokens usually opt for a value of 18, imitating the relationship between Ether and Wei. This is the value {ERC20} uses, unless this function is overridden; NOTE: This information is only used for _display_ purposes: it in no way affects any of the arithmetic of the contract, including {IERC20-balanceOf} and {IERC20-transfer}."
      },
      "decreaseAllowance(address,uint256)": {
        "details": "Atomically decreases the allowance granted to `spender` by the caller. This is an alternative to {approve} that can be used as a mitigation for problems described in {IERC20-approve}. Emits an {Approval} event indicating the updated allowance. Requirements: - `spender` cannot be the zero address. - `spender` must have allowance for the caller of at least `subtractedValue`."
      },
      "getRoleAdmin(bytes32)": {
        "details": "Returns the admin role that controls `role`. See {grantRole} and {revokeRole}. To change a role's admin, use {_setRoleAdmin}."
      },
      "getRoleMember(bytes32,uint256)": {
        "details": "Returns one of the accounts that have `role`. `index` must be a value between 0 and {getRoleMemberCount}, non-inclusive. Role bearers are not sorted in any particular way, and their ordering may change at any point. WARNING: When using {getRoleMember} and {getRoleMemberCount}, make sure you perform all queries on the same block. See the following https://forum.openzeppelin.com/t/iterating-over-elements-on-enumerableset-in-openzeppelin-contracts/2296[forum post] for more information."
      },
      "getRoleMemberCount(bytes32)": {
        "details": "Returns the number of accounts that have `role`. Can be used together with {getRoleMember} to enumerate all bearers of a role."
      },
      "grantRole(bytes32,address)": {
        "details": "Overload {grantRole} to track enumerable memberships"
      },
      "hasRole(bytes32,address)": {
        "details": "Returns `true` if `account` has been granted `role`."
      },
      "increaseAllowance(address,uint256)": {
        "details": "Atomically increases the allowance granted to `spender` by the caller. This is an alternative to {approve} that can be used as a mitigation for problems described in {IERC20-approve}. Emits an {Approval} event indicating the updated allowance. Requirements: - `spender` cannot be the zero address."
      },
      "mint(address,uint256)": {
        "details": "Creates `amount` new tokens for `to`. See {ERC20-_mint}. Requirements: - the caller must have the `MINTER_ROLE`."
      },
      "name()": {
        "details": "Returns the name of the token."
      },
      "pause()": {
        "details": "Pauses all token transfers. See {ERC20Pausable} and {Pausable-_pause}. Requirements: - the caller must have the `PAUSER_ROLE`."
      },
      "paused()": {
        "details": "Returns true if the contract is paused, and false otherwise."
      },
      "renounceRole(bytes32,address)": {
        "details": "Overload {renounceRole} to track enumerable memberships"
      },
      "revokeRole(bytes32,address)": {
        "details": "Overload {revokeRole} to track enumerable memberships"
      },
      "supportsInterface(bytes4)": {
        "details": "See {IERC165-supportsInterface}."
      },
      "symbol()": {
        "details": "Returns the symbol of the token, usually a shorter version of the name."
      },
      "totalSupply()": {
        "details": "See {IERC20-totalSupply}."
      },
      "transfer(address,uint256)": {
        "details": "See {IERC20-transfer}. Requirements: - `recipient` cannot be the zero address. - the caller must have a balance of at least `amount`."
      },
      "transferFrom(address,address,uint256)": {
        "details": "See {IERC20-transferFrom}. Emits an {Approval} event indicating the updated allowance. This is not required by the EIP. See the note at the beginning of {ERC20}. Requirements: - `sender` and `recipient` cannot be the zero address. - `sender` must have a balance of at least `amount`. - the caller must have allowance for ``sender``'s tokens of at least `amount`."
      },
      "unpause()": {
        "details": "Unpauses all token transfers. See {ERC20Pausable} and {Pausable-_unpause}. Requirements: - the caller must have the `PAUSER_ROLE`."
      }
    },
    "version": 1
  },
  "userdoc": {
    "kind": "user",
    "methods": {},
    "version": 1
  }
}