{
  "contractName": "ERC20SnapshotMock",
  "abi": [
    {
      "inputs": [
        {
          "internalType": "string",
          "name": "name",
          "type": "string"
        },
        {
          "internalType": "string",
          "name": "symbol",
          "type": "string"
        },
        {
          "internalType": "address",
          "name": "initialAccount",
          "type": "address"
        },
        {
          "internalType": "uint256",
          "name": "initialBalance",
          "type": "uint256"
        }
      ],
      "stateMutability": "nonpayable",
      "type": "constructor"
    },
    {
      "anonymous": false,
      "inputs": [
        {
          "indexed": true,
          "internalType": "address",
          "name": "owner",
          "type": "address"
        },
        {
          "indexed": true,
          "internalType": "address",
          "name": "spender",
          "type": "address"
        },
        {
          "indexed": false,
          "internalType": "uint256",
          "name": "value",
          "type": "uint256"
        }
      ],
      "name": "Approval",
      "type": "event"
    },
    {
      "anonymous": false,
      "inputs": [
        {
          "indexed": false,
          "internalType": "uint256",
          "name": "id",
          "type": "uint256"
        }
      ],
      "name": "Snapshot",
      "type": "event"
    },
    {
      "anonymous": false,
      "inputs": [
        {
          "indexed": true,
          "internalType": "address",
          "name": "from",
          "type": "address"
        },
        {
          "indexed": true,
          "internalType": "address",
          "name": "to",
          "type": "address"
        },
        {
          "indexed": false,
          "internalType": "uint256",
          "name": "value",
          "type": "uint256"
        }
      ],
      "name": "Transfer",
      "type": "event"
    },
    {
      "inputs": [
        {
          "internalType": "address",
          "name": "owner",
          "type": "address"
        },
        {
          "internalType": "address",
          "name": "spender",
          "type": "address"
        }
      ],
      "name": "allowance",
      "outputs": [
        {
          "internalType": "uint256",
          "name": "",
          "type": "uint256"
        }
      ],
      "stateMutability": "view",
      "type": "function"
    },
    {
      "inputs": [
        {
          "internalType": "address",
          "name": "spender",
          "type": "address"
        },
        {
          "internalType": "uint256",
          "name": "amount",
          "type": "uint256"
        }
      ],
      "name": "approve",
      "outputs": [
        {
          "internalType": "bool",
          "name": "",
          "type": "bool"
        }
      ],
      "stateMutability": "nonpayable",
      "type": "function"
    },
    {
      "inputs": [
        {
          "internalType": "address",
          "name": "account",
          "type": "address"
        }
      ],
      "name": "balanceOf",
      "outputs": [
        {
          "internalType": "uint256",
          "name": "",
          "type": "uint256"
        }
      ],
      "stateMutability": "view",
      "type": "function"
    },
    {
      "inputs": [
        {
          "internalType": "address",
          "name": "account",
          "type": "address"
        },
        {
          "internalType": "uint256",
          "name": "snapshotId",
          "type": "uint256"
        }
      ],
      "name": "balanceOfAt",
      "outputs": [
        {
          "internalType": "uint256",
          "name": "",
          "type": "uint256"
        }
      ],
      "stateMutability": "view",
      "type": "function"
    },
    {
      "inputs": [],
      "name": "decimals",
      "outputs": [
        {
          "internalType": "uint8",
          "name": "",
          "type": "uint8"
        }
      ],
      "stateMutability": "view",
      "type": "function"
    },
    {
      "inputs": [
        {
          "internalType": "address",
          "name": "spender",
          "type": "address"
        },
        {
          "internalType": "uint256",
          "name": "subtractedValue",
          "type": "uint256"
        }
      ],
      "name": "decreaseAllowance",
      "outputs": [
        {
          "internalType": "bool",
          "name": "",
          "type": "bool"
        }
      ],
      "stateMutability": "nonpayable",
      "type": "function"
    },
    {
      "inputs": [
        {
          "internalType": "address",
          "name": "spender",
          "type": "address"
        },
        {
          "internalType": "uint256",
          "name": "addedValue",
          "type": "uint256"
        }
      ],
      "name": "increaseAllowance",
      "outputs": [
        {
          "internalType": "bool",
          "name": "",
          "type": "bool"
        }
      ],
      "stateMutability": "nonpayable",
      "type": "function"
    },
    {
      "inputs": [],
      "name": "name",
      "outputs": [
        {
          "internalType": "string",
          "name": "",
          "type": "string"
        }
      ],
      "stateMutability": "view",
      "type": "function"
    },
    {
      "inputs": [],
      "name": "symbol",
      "outputs": [
        {
          "internalType": "string",
          "name": "",
          "type": "string"
        }
      ],
      "stateMutability": "view",
      "type": "function"
    },
    {
      "inputs": [],
      "name": "totalSupply",
      "outputs": [
        {
          "internalType": "uint256",
          "name": "",
          "type": "uint256"
        }
      ],
      "stateMutability": "view",
      "type": "function"
    },
    {
      "inputs": [
        {
          "internalType": "uint256",
          "name": "snapshotId",
          "type": "uint256"
        }
      ],
      "name": "totalSupplyAt",
      "outputs": [
        {
          "internalType": "uint256",
          "name": "",
          "type": "uint256"
        }
      ],
      "stateMutability": "view",
      "type": "function"
    },
    {
      "inputs": [
        {
          "internalType": "address",
          "name": "recipient",
          "type": "address"
        },
        {
          "internalType": "uint256",
          "name": "amount",
          "type": "uint256"
        }
      ],
      "name": "transfer",
      "outputs": [
        {
          "internalType": "bool",
          "name": "",
          "type": "bool"
        }
      ],
      "stateMutability": "nonpayable",
      "type": "function"
    },
    {
      "inputs": [
        {
          "internalType": "address",
          "name": "sender",
          "type": "address"
        },
        {
          "internalType": "address",
          "name": "recipient",
          "type": "address"
        },
        {
          "internalType": "uint256",
          "name": "amount",
          "type": "uint256"
        }
      ],
      "name": "transferFrom",
      "outputs": [
        {
          "internalType": "bool",
          "name": "",
          "type": "bool"
        }
      ],
      "stateMutability": "nonpayable",
      "type": "function"
    },
    {
      "inputs": [],
      "name": "snapshot",
      "outputs": [],
      "stateMutability": "nonpayable",
      "type": "function"
    },
    {
      "inputs": [
        {
          "internalType": "address",
          "name": "account",
          "type": "address"
        },
        {
          "internalType": "uint256",
          "name": "amount",
          "type": "uint256"
        }
      ],
      "name": "mint",
      "outputs": [],
      "stateMutability": "nonpayable",
      "type": "function"
    },
    {
      "inputs": [
        {
          "internalType": "address",
          "name": "account",
          "type": "address"
        },
        {
          "internalType": "uint256",
          "name": "amount",
          "type": "uint256"
        }
      ],
      "name": "burn",
      "outputs": [],
      "stateMutability": "nonpayable",
      "type": "function"
    }
  ],
  "bytecode": "0x60806040523480156200001157600080fd5b5060405162002b3a38038062002b3a83398181016040528101906200003791906200062f565b8383816003908051906020019062000051929190620004d3565b5080600490805190602001906200006a929190620004d3565b5050506200007f82826200008960201b60201c565b5050505062000a7c565b600073ffffffffffffffffffffffffffffffffffffffff168273ffffffffffffffffffffffffffffffffffffffff161415620000fc576040517f08c379a0000000000000000000000000000000000000000000000000000000008152600401620000f39062000717565b60405180910390fd5b6200011060008383620001ee60201b60201c565b8060026000828254620001249190620007c6565b92505081905550806000808473ffffffffffffffffffffffffffffffffffffffff1673ffffffffffffffffffffffffffffffffffffffff16815260200190815260200160002060008282546200017b9190620007c6565b925050819055508173ffffffffffffffffffffffffffffffffffffffff16600073ffffffffffffffffffffffffffffffffffffffff167fddf252ad1be2c89b69c2b068fc378daa952ba7f163c4a11628f55a4df523b3ef83604051620001e2919062000739565b60405180910390a35050565b62000206838383620002e960201b620009081760201c565b600073ffffffffffffffffffffffffffffffffffffffff168373ffffffffffffffffffffffffffffffffffffffff16141562000263576200024d82620002ee60201b60201c565b6200025d6200035160201b60201c565b620002e4565b600073ffffffffffffffffffffffffffffffffffffffff168273ffffffffffffffffffffffffffffffffffffffff161415620002c057620002aa83620002ee60201b60201c565b620002ba6200035160201b60201c565b620002e3565b620002d183620002ee60201b60201c565b620002e282620002ee60201b60201c565b5b5b505050565b505050565b6200034e600560008373ffffffffffffffffffffffffffffffffffffffff1673ffffffffffffffffffffffffffffffffffffffff16815260200190815260200160002062000342836200037560201b60201c565b620003bd60201b60201c565b50565b620003736006620003676200044960201b60201c565b620003bd60201b60201c565b565b60008060008373ffffffffffffffffffffffffffffffffffffffff1673ffffffffffffffffffffffffffffffffffffffff168152602001908152602001600020549050919050565b6000620003cf6200045360201b60201c565b905080620003e6846000016200047160201b60201c565b1015620004445782600001819080600181540180825580915050600190039060005260206000200160009091909190915055826001018290806001815401808255809150506001900390600052602060002001600090919091909150555b505050565b6000600254905090565b60006200046c6008620004c560201b6200090d1760201c565b905090565b600080828054905014156200048a5760009050620004c0565b81600183805490506200049e919062000823565b81548110620004b257620004b16200099c565b5b906000526020600020015490505b919050565b600081600001549050919050565b828054620004e190620008d2565b90600052602060002090601f01602090048101928262000505576000855562000551565b82601f106200052057805160ff191683800117855562000551565b8280016001018555821562000551579182015b828111156200055057825182559160200191906001019062000533565b5b50905062000560919062000564565b5090565b5b808211156200057f57600081600090555060010162000565565b5090565b60006200059a62000594846200077f565b62000756565b905082815260208101848484011115620005b957620005b8620009ff565b5b620005c68482856200089c565b509392505050565b600081519050620005df8162000a48565b92915050565b600082601f830112620005fd57620005fc620009fa565b5b81516200060f84826020860162000583565b91505092915050565b600081519050620006298162000a62565b92915050565b600080600080608085870312156200064c576200064b62000a09565b5b600085015167ffffffffffffffff8111156200066d576200066c62000a04565b5b6200067b87828801620005e5565b945050602085015167ffffffffffffffff8111156200069f576200069e62000a04565b5b620006ad87828801620005e5565b9350506040620006c087828801620005ce565b9250506060620006d38782880162000618565b91505092959194509250565b6000620006ee601f83620007b5565b9150620006fb8262000a1f565b602082019050919050565b620007118162000892565b82525050565b600060208201905081810360008301526200073281620006df565b9050919050565b600060208201905062000750600083018462000706565b92915050565b60006200076262000775565b905062000770828262000908565b919050565b6000604051905090565b600067ffffffffffffffff8211156200079d576200079c620009cb565b5b620007a88262000a0e565b9050602081019050919050565b600082825260208201905092915050565b6000620007d38262000892565b9150620007e08362000892565b9250827fffffffffffffffffffffffffffffffffffffffffffffffffffffffffffffffff038211156200081857620008176200093e565b5b828201905092915050565b6000620008308262000892565b91506200083d8362000892565b9250828210156200085357620008526200093e565b5b828203905092915050565b60006200086b8262000872565b9050919050565b600073ffffffffffffffffffffffffffffffffffffffff82169050919050565b6000819050919050565b60005b83811015620008bc5780820151818401526020810190506200089f565b83811115620008cc576000848401525b50505050565b60006002820490506001821680620008eb57607f821691505b602082108114156200090257620009016200096d565b5b50919050565b620009138262000a0e565b810181811067ffffffffffffffff82111715620009355762000934620009cb565b5b80604052505050565b7f4e487b7100000000000000000000000000000000000000000000000000000000600052601160045260246000fd5b7f4e487b7100000000000000000000000000000000000000000000000000000000600052602260045260246000fd5b7f4e487b7100000000000000000000000000000000000000000000000000000000600052603260045260246000fd5b7f4e487b7100000000000000000000000000000000000000000000000000000000600052604160045260246000fd5b600080fd5b600080fd5b600080fd5b600080fd5b6000601f19601f8301169050919050565b7f45524332303a206d696e7420746f20746865207a65726f206164647265737300600082015250565b62000a53816200085e565b811462000a5f57600080fd5b50565b62000a6d8162000892565b811462000a7957600080fd5b50565b6120ae8062000a8c6000396000f3fe608060405234801561001057600080fd5b50600436106101005760003560e01c806370a08231116100975780639dc29fac116100665780639dc29fac146102c3578063a457c2d7146102df578063a9059cbb1461030f578063dd62ed3e1461033f57610100565b806370a082311461023b57806395d89b411461026b5780639711715a14610289578063981b24d01461029357610100565b8063313ce567116100d3578063313ce567146101a157806339509351146101bf57806340c10f19146101ef5780634ee2cd7e1461020b57610100565b806306fdde0314610105578063095ea7b31461012357806318160ddd1461015357806323b872dd14610171575b600080fd5b61010d61036f565b60405161011a919061189c565b60405180910390f35b61013d6004803603810190610138919061160a565b610401565b60405161014a9190611881565b60405180910390f35b61015b61041f565b6040516101689190611a3e565b60405180910390f35b61018b600480360381019061018691906115b7565b610429565b6040516101989190611881565b60405180910390f35b6101a9610521565b6040516101b69190611a59565b60405180910390f35b6101d960048036038101906101d4919061160a565b61052a565b6040516101e69190611881565b60405180910390f35b6102096004803603810190610204919061160a565b6105d6565b005b6102256004803603810190610220919061160a565b6105e4565b6040516102329190611a3e565b60405180910390f35b6102556004803603810190610250919061154a565b610654565b6040516102629190611a3e565b60405180910390f35b61027361069c565b604051610280919061189c565b60405180910390f35b61029161072e565b005b6102ad60048036038101906102a8919061164a565b610739565b6040516102ba9190611a3e565b60405180910390f35b6102dd60048036038101906102d8919061160a565b61076a565b005b6102f960048036038101906102f4919061160a565b610778565b6040516103069190611881565b60405180910390f35b6103296004803603810190610324919061160a565b610863565b6040516103369190611881565b60405180910390f35b61035960048036038101906103549190611577565b610881565b6040516103669190611a3e565b60405180910390f35b60606003805461037e90611bd3565b80601f01602080910402602001604051908101604052809291908181526020018280546103aa90611bd3565b80156103f75780601f106103cc576101008083540402835291602001916103f7565b820191906000526020600020905b8154815290600101906020018083116103da57829003601f168201915b5050505050905090565b600061041561040e61091b565b8484610923565b6001905092915050565b6000600254905090565b6000610436848484610aee565b6000600160008673ffffffffffffffffffffffffffffffffffffffff1673ffffffffffffffffffffffffffffffffffffffff168152602001908152602001600020600061048161091b565b73ffffffffffffffffffffffffffffffffffffffff1673ffffffffffffffffffffffffffffffffffffffff16815260200190815260200160002054905082811015610501576040517f08c379a00000000000000000000000000000000000000000000000000000000081526004016104f89061195e565b60405180910390fd5b6105158561050d61091b565b858403610923565b60019150509392505050565b60006012905090565b60006105cc61053761091b565b84846001600061054561091b565b73ffffffffffffffffffffffffffffffffffffffff1673ffffffffffffffffffffffffffffffffffffffff16815260200190815260200160002060008873ffffffffffffffffffffffffffffffffffffffff1673ffffffffffffffffffffffffffffffffffffffff168152602001908152602001600020546105c79190611a90565b610923565b6001905092915050565b6105e08282610d64565b5050565b600080600061063184600560008873ffffffffffffffffffffffffffffffffffffffff1673ffffffffffffffffffffffffffffffffffffffff168152602001908152602001600020610eb8565b91509150816106485761064385610654565b61064a565b805b9250505092915050565b60008060008373ffffffffffffffffffffffffffffffffffffffff1673ffffffffffffffffffffffffffffffffffffffff168152602001908152602001600020549050919050565b6060600480546106ab90611bd3565b80601f01602080910402602001604051908101604052809291908181526020018280546106d790611bd3565b80156107245780601f106106f957610100808354040283529160200191610724565b820191906000526020600020905b81548152906001019060200180831161070757829003601f168201915b5050505050905090565b610736610fae565b50565b6000806000610749846006610eb8565b915091508161075f5761075a61041f565b610761565b805b92505050919050565b6107748282611004565b5050565b6000806001600061078761091b565b73ffffffffffffffffffffffffffffffffffffffff1673ffffffffffffffffffffffffffffffffffffffff16815260200190815260200160002060008573ffffffffffffffffffffffffffffffffffffffff1673ffffffffffffffffffffffffffffffffffffffff16815260200190815260200160002054905082811015610844576040517f08c379a000000000000000000000000000000000000000000000000000000000815260040161083b906119fe565b60405180910390fd5b61085861084f61091b565b85858403610923565b600191505092915050565b600061087761087061091b565b8484610aee565b6001905092915050565b6000600160008473ffffffffffffffffffffffffffffffffffffffff1673ffffffffffffffffffffffffffffffffffffffff16815260200190815260200160002060008373ffffffffffffffffffffffffffffffffffffffff1673ffffffffffffffffffffffffffffffffffffffff16815260200190815260200160002054905092915050565b505050565b600081600001549050919050565b600033905090565b600073ffffffffffffffffffffffffffffffffffffffff168373ffffffffffffffffffffffffffffffffffffffff161415610993576040517f08c379a000000000000000000000000000000000000000000000000000000000815260040161098a906119be565b60405180910390fd5b600073ffffffffffffffffffffffffffffffffffffffff168273ffffffffffffffffffffffffffffffffffffffff161415610a03576040517f08c379a00000000000000000000000000000000000000000000000000000000081526004016109fa9061191e565b60405180910390fd5b80600160008573ffffffffffffffffffffffffffffffffffffffff1673ffffffffffffffffffffffffffffffffffffffff16815260200190815260200160002060008473ffffffffffffffffffffffffffffffffffffffff1673ffffffffffffffffffffffffffffffffffffffff168152602001908152602001600020819055508173ffffffffffffffffffffffffffffffffffffffff168373ffffffffffffffffffffffffffffffffffffffff167f8c5be1e5ebec7d5bd14f71427d1e84f3dd0314c0f7b2291e5b200ac8c7c3b92583604051610ae19190611a3e565b60405180910390a3505050565b600073ffffffffffffffffffffffffffffffffffffffff168373ffffffffffffffffffffffffffffffffffffffff161415610b5e576040517f08c379a0000000000000000000000000000000000000000000000000000000008152600401610b559061199e565b60405180910390fd5b600073ffffffffffffffffffffffffffffffffffffffff168273ffffffffffffffffffffffffffffffffffffffff161415610bce576040517f08c379a0000000000000000000000000000000000000000000000000000000008152600401610bc5906118de565b60405180910390fd5b610bd98383836111cf565b60008060008573ffffffffffffffffffffffffffffffffffffffff1673ffffffffffffffffffffffffffffffffffffffff16815260200190815260200160002054905081811015610c5f576040517f08c379a0000000000000000000000000000000000000000000000000000000008152600401610c569061193e565b60405180910390fd5b8181036000808673ffffffffffffffffffffffffffffffffffffffff1673ffffffffffffffffffffffffffffffffffffffff16815260200190815260200160002081905550816000808573ffffffffffffffffffffffffffffffffffffffff1673ffffffffffffffffffffffffffffffffffffffff1681526020019081526020016000206000828254610cf29190611a90565b925050819055508273ffffffffffffffffffffffffffffffffffffffff168473ffffffffffffffffffffffffffffffffffffffff167fddf252ad1be2c89b69c2b068fc378daa952ba7f163c4a11628f55a4df523b3ef84604051610d569190611a3e565b60405180910390a350505050565b600073ffffffffffffffffffffffffffffffffffffffff168273ffffffffffffffffffffffffffffffffffffffff161415610dd4576040517f08c379a0000000000000000000000000000000000000000000000000000000008152600401610dcb90611a1e565b60405180910390fd5b610de0600083836111cf565b8060026000828254610df29190611a90565b92505081905550806000808473ffffffffffffffffffffffffffffffffffffffff1673ffffffffffffffffffffffffffffffffffffffff1681526020019081526020016000206000828254610e479190611a90565b925050819055508173ffffffffffffffffffffffffffffffffffffffff16600073ffffffffffffffffffffffffffffffffffffffff167fddf252ad1be2c89b69c2b068fc378daa952ba7f163c4a11628f55a4df523b3ef83604051610eac9190611a3e565b60405180910390a35050565b60008060008411610efe576040517f08c379a0000000000000000000000000000000000000000000000000000000008152600401610ef5906119de565b60405180910390fd5b610f06611289565b841115610f48576040517f08c379a0000000000000000000000000000000000000000000000000000000008152600401610f3f906118be565b60405180910390fd5b6000610f60858560000161129a90919063ffffffff16565b90508360000180549050811415610f7e576000809250925050610fa7565b6001846001018281548110610f9657610f95611cc3565b5b906000526020600020015492509250505b9250929050565b6000610fba6008611374565b6000610fc4611289565b90507f8030e83b04d87bef53480e26263266d6ca66863aa8506aca6f2559d18aa1cb6781604051610ff59190611a3e565b60405180910390a18091505090565b600073ffffffffffffffffffffffffffffffffffffffff168273ffffffffffffffffffffffffffffffffffffffff161415611074576040517f08c379a000000000000000000000000000000000000000000000000000000000815260040161106b9061197e565b60405180910390fd5b611080826000836111cf565b60008060008473ffffffffffffffffffffffffffffffffffffffff1673ffffffffffffffffffffffffffffffffffffffff16815260200190815260200160002054905081811015611106576040517f08c379a00000000000000000000000000000000000000000000000000000000081526004016110fd906118fe565b60405180910390fd5b8181036000808573ffffffffffffffffffffffffffffffffffffffff1673ffffffffffffffffffffffffffffffffffffffff16815260200190815260200160002081905550816002600082825461115d9190611b17565b92505081905550600073ffffffffffffffffffffffffffffffffffffffff168373ffffffffffffffffffffffffffffffffffffffff167fddf252ad1be2c89b69c2b068fc378daa952ba7f163c4a11628f55a4df523b3ef846040516111c29190611a3e565b60405180910390a3505050565b6111da838383610908565b600073ffffffffffffffffffffffffffffffffffffffff168373ffffffffffffffffffffffffffffffffffffffff161415611225576112188261138a565b6112206113dd565b611284565b600073ffffffffffffffffffffffffffffffffffffffff168273ffffffffffffffffffffffffffffffffffffffff161415611270576112638361138a565b61126b6113dd565b611283565b6112798361138a565b6112828261138a565b5b5b505050565b6000611295600861090d565b905090565b600080838054905014156112b1576000905061136e565b600080848054905090505b808210156113155760006112d083836113f1565b9050848682815481106112e6576112e5611cc3565b5b906000526020600020015411156112ff5780915061130f565b60018161130c9190611a90565b92505b506112bc565b60008211801561134d5750838560018461132f9190611b17565b815481106113405761133f611cc3565b5b9060005260206000200154145b156113685760018261135f9190611b17565b9250505061136e565b81925050505b92915050565b6001816000016000828254019250508190555050565b6113da600560008373ffffffffffffffffffffffffffffffffffffffff1673ffffffffffffffffffffffffffffffffffffffff1681526020019081526020016000206113d583610654565b611458565b50565b6113ef60066113ea61041f565b611458565b565b6000600280836114019190611c05565b60028561140e9190611c05565b6114189190611a90565b6114229190611ae6565b60028361142f9190611ae6565b60028561143c9190611ae6565b6114469190611a90565b6114509190611a90565b905092915050565b6000611462611289565b905080611471846000016114d3565b10156114ce5782600001819080600181540180825580915050600190039060005260206000200160009091909190915055826001018290806001815401808255809150506001900390600052602060002001600090919091909150555b505050565b600080828054905014156114ea576000905061151b565b81600183805490506114fc9190611b17565b8154811061150d5761150c611cc3565b5b906000526020600020015490505b919050565b60008135905061152f8161204a565b92915050565b60008135905061154481612061565b92915050565b6000602082840312156115605761155f611cf2565b5b600061156e84828501611520565b91505092915050565b6000806040838503121561158e5761158d611cf2565b5b600061159c85828601611520565b92505060206115ad85828601611520565b9150509250929050565b6000806000606084860312156115d0576115cf611cf2565b5b60006115de86828701611520565b93505060206115ef86828701611520565b925050604061160086828701611535565b9150509250925092565b6000806040838503121561162157611620611cf2565b5b600061162f85828601611520565b925050602061164085828601611535565b9150509250929050565b6000602082840312156116605761165f611cf2565b5b600061166e84828501611535565b91505092915050565b61168081611b5d565b82525050565b600061169182611a74565b61169b8185611a7f565b93506116ab818560208601611ba0565b6116b481611cf7565b840191505092915050565b60006116cc601d83611a7f565b91506116d782611d08565b602082019050919050565b60006116ef602383611a7f565b91506116fa82611d31565b604082019050919050565b6000611712602283611a7f565b915061171d82611d80565b604082019050919050565b6000611735602283611a7f565b915061174082611dcf565b604082019050919050565b6000611758602683611a7f565b915061176382611e1e565b604082019050919050565b600061177b602883611a7f565b915061178682611e6d565b604082019050919050565b600061179e602183611a7f565b91506117a982611ebc565b604082019050919050565b60006117c1602583611a7f565b91506117cc82611f0b565b604082019050919050565b60006117e4602483611a7f565b91506117ef82611f5a565b604082019050919050565b6000611807601683611a7f565b915061181282611fa9565b602082019050919050565b600061182a602583611a7f565b915061183582611fd2565b604082019050919050565b600061184d601f83611a7f565b915061185882612021565b602082019050919050565b61186c81611b89565b82525050565b61187b81611b93565b82525050565b60006020820190506118966000830184611677565b92915050565b600060208201905081810360008301526118b68184611686565b905092915050565b600060208201905081810360008301526118d7816116bf565b9050919050565b600060208201905081810360008301526118f7816116e2565b9050919050565b6000602082019050818103600083015261191781611705565b9050919050565b6000602082019050818103600083015261193781611728565b9050919050565b600060208201905081810360008301526119578161174b565b9050919050565b600060208201905081810360008301526119778161176e565b9050919050565b6000602082019050818103600083015261199781611791565b9050919050565b600060208201905081810360008301526119b7816117b4565b9050919050565b600060208201905081810360008301526119d7816117d7565b9050919050565b600060208201905081810360008301526119f7816117fa565b9050919050565b60006020820190508181036000830152611a178161181d565b9050919050565b60006020820190508181036000830152611a3781611840565b9050919050565b6000602082019050611a536000830184611863565b92915050565b6000602082019050611a6e6000830184611872565b92915050565b600081519050919050565b600082825260208201905092915050565b6000611a9b82611b89565b9150611aa683611b89565b9250827fffffffffffffffffffffffffffffffffffffffffffffffffffffffffffffffff03821115611adb57611ada611c36565b5b828201905092915050565b6000611af182611b89565b9150611afc83611b89565b925082611b0c57611b0b611c65565b5b828204905092915050565b6000611b2282611b89565b9150611b2d83611b89565b925082821015611b4057611b3f611c36565b5b828203905092915050565b6000611b5682611b69565b9050919050565b60008115159050919050565b600073ffffffffffffffffffffffffffffffffffffffff82169050919050565b6000819050919050565b600060ff82169050919050565b60005b83811015611bbe578082015181840152602081019050611ba3565b83811115611bcd576000848401525b50505050565b60006002820490506001821680611beb57607f821691505b60208210811415611bff57611bfe611c94565b5b50919050565b6000611c1082611b89565b9150611c1b83611b89565b925082611c2b57611c2a611c65565b5b828206905092915050565b7f4e487b7100000000000000000000000000000000000000000000000000000000600052601160045260246000fd5b7f4e487b7100000000000000000000000000000000000000000000000000000000600052601260045260246000fd5b7f4e487b7100000000000000000000000000000000000000000000000000000000600052602260045260246000fd5b7f4e487b7100000000000000000000000000000000000000000000000000000000600052603260045260246000fd5b600080fd5b6000601f19601f8301169050919050565b7f4552433230536e617073686f743a206e6f6e6578697374656e74206964000000600082015250565b7f45524332303a207472616e7366657220746f20746865207a65726f206164647260008201527f6573730000000000000000000000000000000000000000000000000000000000602082015250565b7f45524332303a206275726e20616d6f756e7420657863656564732062616c616e60008201527f6365000000000000000000000000000000000000000000000000000000000000602082015250565b7f45524332303a20617070726f766520746f20746865207a65726f20616464726560008201527f7373000000000000000000000000000000000000000000000000000000000000602082015250565b7f45524332303a207472616e7366657220616d6f756e742065786365656473206260008201527f616c616e63650000000000000000000000000000000000000000000000000000602082015250565b7f45524332303a207472616e7366657220616d6f756e742065786365656473206160008201527f6c6c6f77616e6365000000000000000000000000000000000000000000000000602082015250565b7f45524332303a206275726e2066726f6d20746865207a65726f2061646472657360008201527f7300000000000000000000000000000000000000000000000000000000000000602082015250565b7f45524332303a207472616e736665722066726f6d20746865207a65726f20616460008201527f6472657373000000000000000000000000000000000000000000000000000000602082015250565b7f45524332303a20617070726f76652066726f6d20746865207a65726f2061646460008201527f7265737300000000000000000000000000000000000000000000000000000000602082015250565b7f4552433230536e617073686f743a206964206973203000000000000000000000600082015250565b7f45524332303a2064656372656173656420616c6c6f77616e63652062656c6f7760008201527f207a65726f000000000000000000000000000000000000000000000000000000602082015250565b7f45524332303a206d696e7420746f20746865207a65726f206164647265737300600082015250565b61205381611b4b565b811461205e57600080fd5b50565b61206a81611b89565b811461207557600080fd5b5056fea2646970667358221220c8533bac26e5f5b1fc5c84a1a917856df4387e5764887f0bfe80c2d392aff3eb64736f6c63430008070033",
  "immutableReferences": {},
  "source": "// SPDX-License-Identifier: MIT\r\n\r\npragma solidity ^0.8.0;\r\n\r\nimport \"../token/ERC20/extensions/ERC20Snapshot.sol\";\r\n\r\n\r\ncontract ERC20SnapshotMock is ERC20Snapshot {\r\n    constructor(\r\n        string memory name,\r\n        string memory symbol,\r\n        address initialAccount,\r\n        uint256 initialBalance\r\n    ) ERC20(name, symbol) {\r\n        _mint(initialAccount, initialBalance);\r\n    }\r\n\r\n    function snapshot() public {\r\n        _snapshot();\r\n    }\r\n\r\n    function mint(address account, uint256 amount) public {\r\n        _mint(account, amount);\r\n    }\r\n\r\n    function burn(address account, uint256 amount) public {\r\n        _burn(account, amount);\r\n    }\r\n}\r\n",
  "sourcePath": "C:/Users/Husnain/Documents/Projects/Fanbase/fanbase/packages/ethereum/contracts/solidity/openzeppelin/contracts/mocks/ERC20SnapshotMock.sol",
  "compiler": {
    "name": "solc",
    "version": "0.8.7+commit.e28d00a7.Emscripten.clang"
  },
  "schemaVersion": "3.4.1",
  "updatedAt": "2021-08-29T17:48:48.518Z",
  "devdoc": {
    "kind": "dev",
    "methods": {
      "allowance(address,address)": {
        "details": "See {IERC20-allowance}."
      },
      "approve(address,uint256)": {
        "details": "See {IERC20-approve}. Requirements: - `spender` cannot be the zero address."
      },
      "balanceOf(address)": {
        "details": "See {IERC20-balanceOf}."
      },
      "balanceOfAt(address,uint256)": {
        "details": "Retrieves the balance of `account` at the time `snapshotId` was created."
      },
      "decimals()": {
        "details": "Returns the number of decimals used to get its user representation. For example, if `decimals` equals `2`, a balance of `505` tokens should be displayed to a user as `5,05` (`505 / 10 ** 2`). Tokens usually opt for a value of 18, imitating the relationship between Ether and Wei. This is the value {ERC20} uses, unless this function is overridden; NOTE: This information is only used for _display_ purposes: it in no way affects any of the arithmetic of the contract, including {IERC20-balanceOf} and {IERC20-transfer}."
      },
      "decreaseAllowance(address,uint256)": {
        "details": "Atomically decreases the allowance granted to `spender` by the caller. This is an alternative to {approve} that can be used as a mitigation for problems described in {IERC20-approve}. Emits an {Approval} event indicating the updated allowance. Requirements: - `spender` cannot be the zero address. - `spender` must have allowance for the caller of at least `subtractedValue`."
      },
      "increaseAllowance(address,uint256)": {
        "details": "Atomically increases the allowance granted to `spender` by the caller. This is an alternative to {approve} that can be used as a mitigation for problems described in {IERC20-approve}. Emits an {Approval} event indicating the updated allowance. Requirements: - `spender` cannot be the zero address."
      },
      "name()": {
        "details": "Returns the name of the token."
      },
      "symbol()": {
        "details": "Returns the symbol of the token, usually a shorter version of the name."
      },
      "totalSupply()": {
        "details": "See {IERC20-totalSupply}."
      },
      "totalSupplyAt(uint256)": {
        "details": "Retrieves the total supply at the time `snapshotId` was created."
      },
      "transfer(address,uint256)": {
        "details": "See {IERC20-transfer}. Requirements: - `recipient` cannot be the zero address. - the caller must have a balance of at least `amount`."
      },
      "transferFrom(address,address,uint256)": {
        "details": "See {IERC20-transferFrom}. Emits an {Approval} event indicating the updated allowance. This is not required by the EIP. See the note at the beginning of {ERC20}. Requirements: - `sender` and `recipient` cannot be the zero address. - `sender` must have a balance of at least `amount`. - the caller must have allowance for ``sender``'s tokens of at least `amount`."
      }
    },
    "version": 1
  },
  "userdoc": {
    "kind": "user",
    "methods": {},
    "version": 1
  }
}