{
  "contractName": "ERC20VotesMock",
  "abi": [
    {
      "inputs": [
        {
          "internalType": "string",
          "name": "name",
          "type": "string"
        },
        {
          "internalType": "string",
          "name": "symbol",
          "type": "string"
        }
      ],
      "stateMutability": "nonpayable",
      "type": "constructor"
    },
    {
      "anonymous": false,
      "inputs": [
        {
          "indexed": true,
          "internalType": "address",
          "name": "owner",
          "type": "address"
        },
        {
          "indexed": true,
          "internalType": "address",
          "name": "spender",
          "type": "address"
        },
        {
          "indexed": false,
          "internalType": "uint256",
          "name": "value",
          "type": "uint256"
        }
      ],
      "name": "Approval",
      "type": "event"
    },
    {
      "anonymous": false,
      "inputs": [
        {
          "indexed": true,
          "internalType": "address",
          "name": "delegator",
          "type": "address"
        },
        {
          "indexed": true,
          "internalType": "address",
          "name": "fromDelegate",
          "type": "address"
        },
        {
          "indexed": true,
          "internalType": "address",
          "name": "toDelegate",
          "type": "address"
        }
      ],
      "name": "DelegateChanged",
      "type": "event"
    },
    {
      "anonymous": false,
      "inputs": [
        {
          "indexed": true,
          "internalType": "address",
          "name": "delegate",
          "type": "address"
        },
        {
          "indexed": false,
          "internalType": "uint256",
          "name": "previousBalance",
          "type": "uint256"
        },
        {
          "indexed": false,
          "internalType": "uint256",
          "name": "newBalance",
          "type": "uint256"
        }
      ],
      "name": "DelegateVotesChanged",
      "type": "event"
    },
    {
      "anonymous": false,
      "inputs": [
        {
          "indexed": true,
          "internalType": "address",
          "name": "from",
          "type": "address"
        },
        {
          "indexed": true,
          "internalType": "address",
          "name": "to",
          "type": "address"
        },
        {
          "indexed": false,
          "internalType": "uint256",
          "name": "value",
          "type": "uint256"
        }
      ],
      "name": "Transfer",
      "type": "event"
    },
    {
      "inputs": [],
      "name": "DOMAIN_SEPARATOR",
      "outputs": [
        {
          "internalType": "bytes32",
          "name": "",
          "type": "bytes32"
        }
      ],
      "stateMutability": "view",
      "type": "function"
    },
    {
      "inputs": [
        {
          "internalType": "address",
          "name": "owner",
          "type": "address"
        },
        {
          "internalType": "address",
          "name": "spender",
          "type": "address"
        }
      ],
      "name": "allowance",
      "outputs": [
        {
          "internalType": "uint256",
          "name": "",
          "type": "uint256"
        }
      ],
      "stateMutability": "view",
      "type": "function"
    },
    {
      "inputs": [
        {
          "internalType": "address",
          "name": "spender",
          "type": "address"
        },
        {
          "internalType": "uint256",
          "name": "amount",
          "type": "uint256"
        }
      ],
      "name": "approve",
      "outputs": [
        {
          "internalType": "bool",
          "name": "",
          "type": "bool"
        }
      ],
      "stateMutability": "nonpayable",
      "type": "function"
    },
    {
      "inputs": [
        {
          "internalType": "address",
          "name": "account",
          "type": "address"
        }
      ],
      "name": "balanceOf",
      "outputs": [
        {
          "internalType": "uint256",
          "name": "",
          "type": "uint256"
        }
      ],
      "stateMutability": "view",
      "type": "function"
    },
    {
      "inputs": [
        {
          "internalType": "address",
          "name": "account",
          "type": "address"
        },
        {
          "internalType": "uint32",
          "name": "pos",
          "type": "uint32"
        }
      ],
      "name": "checkpoints",
      "outputs": [
        {
          "components": [
            {
              "internalType": "uint32",
              "name": "fromBlock",
              "type": "uint32"
            },
            {
              "internalType": "uint224",
              "name": "votes",
              "type": "uint224"
            }
          ],
          "internalType": "struct IERC20Votes.Checkpoint",
          "name": "",
          "type": "tuple"
        }
      ],
      "stateMutability": "view",
      "type": "function"
    },
    {
      "inputs": [],
      "name": "decimals",
      "outputs": [
        {
          "internalType": "uint8",
          "name": "",
          "type": "uint8"
        }
      ],
      "stateMutability": "view",
      "type": "function"
    },
    {
      "inputs": [
        {
          "internalType": "address",
          "name": "spender",
          "type": "address"
        },
        {
          "internalType": "uint256",
          "name": "subtractedValue",
          "type": "uint256"
        }
      ],
      "name": "decreaseAllowance",
      "outputs": [
        {
          "internalType": "bool",
          "name": "",
          "type": "bool"
        }
      ],
      "stateMutability": "nonpayable",
      "type": "function"
    },
    {
      "inputs": [
        {
          "internalType": "address",
          "name": "delegatee",
          "type": "address"
        }
      ],
      "name": "delegate",
      "outputs": [],
      "stateMutability": "nonpayable",
      "type": "function"
    },
    {
      "inputs": [
        {
          "internalType": "address",
          "name": "delegatee",
          "type": "address"
        },
        {
          "internalType": "uint256",
          "name": "nonce",
          "type": "uint256"
        },
        {
          "internalType": "uint256",
          "name": "expiry",
          "type": "uint256"
        },
        {
          "internalType": "uint8",
          "name": "v",
          "type": "uint8"
        },
        {
          "internalType": "bytes32",
          "name": "r",
          "type": "bytes32"
        },
        {
          "internalType": "bytes32",
          "name": "s",
          "type": "bytes32"
        }
      ],
      "name": "delegateBySig",
      "outputs": [],
      "stateMutability": "nonpayable",
      "type": "function"
    },
    {
      "inputs": [
        {
          "internalType": "address",
          "name": "account",
          "type": "address"
        }
      ],
      "name": "delegates",
      "outputs": [
        {
          "internalType": "address",
          "name": "",
          "type": "address"
        }
      ],
      "stateMutability": "view",
      "type": "function"
    },
    {
      "inputs": [
        {
          "internalType": "address",
          "name": "account",
          "type": "address"
        }
      ],
      "name": "getCurrentVotes",
      "outputs": [
        {
          "internalType": "uint256",
          "name": "",
          "type": "uint256"
        }
      ],
      "stateMutability": "view",
      "type": "function"
    },
    {
      "inputs": [
        {
          "internalType": "uint256",
          "name": "blockNumber",
          "type": "uint256"
        }
      ],
      "name": "getPriorTotalSupply",
      "outputs": [
        {
          "internalType": "uint256",
          "name": "",
          "type": "uint256"
        }
      ],
      "stateMutability": "view",
      "type": "function"
    },
    {
      "inputs": [
        {
          "internalType": "address",
          "name": "account",
          "type": "address"
        },
        {
          "internalType": "uint256",
          "name": "blockNumber",
          "type": "uint256"
        }
      ],
      "name": "getPriorVotes",
      "outputs": [
        {
          "internalType": "uint256",
          "name": "",
          "type": "uint256"
        }
      ],
      "stateMutability": "view",
      "type": "function"
    },
    {
      "inputs": [
        {
          "internalType": "address",
          "name": "spender",
          "type": "address"
        },
        {
          "internalType": "uint256",
          "name": "addedValue",
          "type": "uint256"
        }
      ],
      "name": "increaseAllowance",
      "outputs": [
        {
          "internalType": "bool",
          "name": "",
          "type": "bool"
        }
      ],
      "stateMutability": "nonpayable",
      "type": "function"
    },
    {
      "inputs": [],
      "name": "name",
      "outputs": [
        {
          "internalType": "string",
          "name": "",
          "type": "string"
        }
      ],
      "stateMutability": "view",
      "type": "function"
    },
    {
      "inputs": [
        {
          "internalType": "address",
          "name": "owner",
          "type": "address"
        }
      ],
      "name": "nonces",
      "outputs": [
        {
          "internalType": "uint256",
          "name": "",
          "type": "uint256"
        }
      ],
      "stateMutability": "view",
      "type": "function"
    },
    {
      "inputs": [
        {
          "internalType": "address",
          "name": "account",
          "type": "address"
        }
      ],
      "name": "numCheckpoints",
      "outputs": [
        {
          "internalType": "uint32",
          "name": "",
          "type": "uint32"
        }
      ],
      "stateMutability": "view",
      "type": "function"
    },
    {
      "inputs": [
        {
          "internalType": "address",
          "name": "owner",
          "type": "address"
        },
        {
          "internalType": "address",
          "name": "spender",
          "type": "address"
        },
        {
          "internalType": "uint256",
          "name": "value",
          "type": "uint256"
        },
        {
          "internalType": "uint256",
          "name": "deadline",
          "type": "uint256"
        },
        {
          "internalType": "uint8",
          "name": "v",
          "type": "uint8"
        },
        {
          "internalType": "bytes32",
          "name": "r",
          "type": "bytes32"
        },
        {
          "internalType": "bytes32",
          "name": "s",
          "type": "bytes32"
        }
      ],
      "name": "permit",
      "outputs": [],
      "stateMutability": "nonpayable",
      "type": "function"
    },
    {
      "inputs": [],
      "name": "symbol",
      "outputs": [
        {
          "internalType": "string",
          "name": "",
          "type": "string"
        }
      ],
      "stateMutability": "view",
      "type": "function"
    },
    {
      "inputs": [],
      "name": "totalSupply",
      "outputs": [
        {
          "internalType": "uint256",
          "name": "",
          "type": "uint256"
        }
      ],
      "stateMutability": "view",
      "type": "function"
    },
    {
      "inputs": [
        {
          "internalType": "address",
          "name": "recipient",
          "type": "address"
        },
        {
          "internalType": "uint256",
          "name": "amount",
          "type": "uint256"
        }
      ],
      "name": "transfer",
      "outputs": [
        {
          "internalType": "bool",
          "name": "",
          "type": "bool"
        }
      ],
      "stateMutability": "nonpayable",
      "type": "function"
    },
    {
      "inputs": [
        {
          "internalType": "address",
          "name": "sender",
          "type": "address"
        },
        {
          "internalType": "address",
          "name": "recipient",
          "type": "address"
        },
        {
          "internalType": "uint256",
          "name": "amount",
          "type": "uint256"
        }
      ],
      "name": "transferFrom",
      "outputs": [
        {
          "internalType": "bool",
          "name": "",
          "type": "bool"
        }
      ],
      "stateMutability": "nonpayable",
      "type": "function"
    },
    {
      "inputs": [
        {
          "internalType": "address",
          "name": "account",
          "type": "address"
        },
        {
          "internalType": "uint256",
          "name": "amount",
          "type": "uint256"
        }
      ],
      "name": "mint",
      "outputs": [],
      "stateMutability": "nonpayable",
      "type": "function"
    },
    {
      "inputs": [
        {
          "internalType": "address",
          "name": "account",
          "type": "address"
        },
        {
          "internalType": "uint256",
          "name": "amount",
          "type": "uint256"
        }
      ],
      "name": "burn",
      "outputs": [],
      "stateMutability": "nonpayable",
      "type": "function"
    },
    {
      "inputs": [],
      "name": "getChainId",
      "outputs": [
        {
          "internalType": "uint256",
          "name": "",
          "type": "uint256"
        }
      ],
      "stateMutability": "view",
      "type": "function"
    }
  ],
  "bytecode": "0x6101406040527f6e71edae12b1b97f4d1f60370fef10105fa2faae0126114a169c64845d6126c9610120908152503480156200003a57600080fd5b506040516200402e3803806200402e8339818101604052810190620000609190620002b2565b81806040518060400160405280600181526020017f310000000000000000000000000000000000000000000000000000000000000081525084848160039080519060200190620000b292919062000190565b508060049080519060200190620000cb92919062000190565b50505060008280519060200120905060008280519060200120905060007f8b73c3c69bb8fe3d512ecc4cf759cc79239f7b179b0ffacaa9a75d522b39400f90508260c081815250508160e081815250504660a08181525050620001368184846200015460201b60201c565b6080818152505080610100818152505050505050505050506200056d565b600083838346306040516020016200017195949392919062000358565b6040516020818303038152906040528051906020012090509392505050565b8280546200019e9062000492565b90600052602060002090601f016020900481019282620001c257600085556200020e565b82601f10620001dd57805160ff19168380011785556200020e565b828001600101855582156200020e579182015b828111156200020d578251825591602001919060010190620001f0565b5b5090506200021d919062000221565b5090565b5b808211156200023c57600081600090555060010162000222565b5090565b6000620002576200025184620003de565b620003b5565b9050828152602081018484840111156200027057600080fd5b6200027d8482856200045c565b509392505050565b600082601f8301126200029757600080fd5b8151620002a984826020860162000240565b91505092915050565b60008060408385031215620002c657600080fd5b600083015167ffffffffffffffff811115620002e157600080fd5b620002ef8582860162000285565b925050602083015167ffffffffffffffff8111156200030d57600080fd5b6200031b8582860162000285565b9150509250929050565b620003308162000414565b82525050565b620003418162000428565b82525050565b620003528162000452565b82525050565b600060a0820190506200036f600083018862000336565b6200037e602083018762000336565b6200038d604083018662000336565b6200039c606083018562000347565b620003ab608083018462000325565b9695505050505050565b6000620003c1620003d4565b9050620003cf8282620004c8565b919050565b6000604051905090565b600067ffffffffffffffff821115620003fc57620003fb6200052d565b5b62000407826200055c565b9050602081019050919050565b6000620004218262000432565b9050919050565b6000819050919050565b600073ffffffffffffffffffffffffffffffffffffffff82169050919050565b6000819050919050565b60005b838110156200047c5780820151818401526020810190506200045f565b838111156200048c576000848401525b50505050565b60006002820490506001821680620004ab57607f821691505b60208210811415620004c257620004c1620004fe565b5b50919050565b620004d3826200055c565b810181811067ffffffffffffffff82111715620004f557620004f46200052d565b5b80604052505050565b7f4e487b7100000000000000000000000000000000000000000000000000000000600052602260045260246000fd5b7f4e487b7100000000000000000000000000000000000000000000000000000000600052604160045260246000fd5b6000601f19601f8301169050919050565b60805160a05160c05160e0516101005161012051613a71620005bd6000396000610e61015260006117110152600061175301526000611732015260006116be015260006116e60152613a716000f3fe608060405234801561001057600080fd5b50600436106101725760003560e01c80636fcfff45116100de578063a457c2d711610097578063c3cda52011610071578063c3cda520146104bf578063d505accf146104db578063dd62ed3e146104f7578063f1127ed81461052757610172565b8063a457c2d71461042f578063a9059cbb1461045f578063b4b5ea571461048f57610172565b80636fcfff451461033557806370a0823114610365578063782d6fe1146103955780637ecebe00146103c557806395d89b41146103f55780639dc29fac1461041357610172565b80633408e470116101305780633408e470146102615780633644e5151461027f578063395093511461029d57806340c10f19146102cd578063587cde1e146102e95780635c19a95c1461031957610172565b80629f7e211461017757806306fdde03146101a7578063095ea7b3146101c557806318160ddd146101f557806323b872dd14610213578063313ce56714610243575b600080fd5b610191600480360381019061018c9190612838565b610557565b60405161019e91906130fd565b60405180910390f35b6101af6105ad565b6040516101bc9190612e20565b60405180910390f35b6101df60048036038101906101da9190612737565b61063f565b6040516101ec9190612cac565b60405180910390f35b6101fd61065d565b60405161020a91906130fd565b60405180910390f35b61022d6004803603810190610228919061264a565b610667565b60405161023a9190612cac565b60405180910390f35b61024b61075f565b604051610258919061315c565b60405180910390f35b610269610768565b60405161027691906130fd565b60405180910390f35b610287610770565b6040516102949190612cc7565b60405180910390f35b6102b760048036038101906102b29190612737565b61077f565b6040516102c49190612cac565b60405180910390f35b6102e760048036038101906102e29190612737565b61082b565b005b61030360048036038101906102fe91906125e5565b610839565b6040516103109190612c91565b60405180910390f35b610333600480360381019061032e91906125e5565b6108a2565b005b61034f600480360381019061034a91906125e5565b6108b6565b60405161035c9190613141565b60405180910390f35b61037f600480360381019061037a91906125e5565b61090a565b60405161038c91906130fd565b60405180910390f35b6103af60048036038101906103aa9190612737565b610952565b6040516103bc91906130fd565b60405180910390f35b6103df60048036038101906103da91906125e5565b6109e6565b6040516103ec91906130fd565b60405180910390f35b6103fd610a36565b60405161040a9190612e20565b60405180910390f35b61042d60048036038101906104289190612737565b610ac8565b005b61044960048036038101906104449190612737565b610ad6565b6040516104569190612cac565b60405180910390f35b61047960048036038101906104749190612737565b610bc1565b6040516104869190612cac565b60405180910390f35b6104a960048036038101906104a491906125e5565b610bdf565b6040516104b691906130fd565b60405180910390f35b6104d960048036038101906104d49190612773565b610d16565b005b6104f560048036038101906104f09190612699565b610e1a565b005b610511600480360381019061050c919061260e565b610f5c565b60405161051e91906130fd565b60405180910390f35b610541600480360381019061053c91906127fc565b610fe3565b60405161054e91906130e2565b60405180910390f35b600043821061059b576040517f08c379a000000000000000000000000000000000000000000000000000000000815260040161059290612e82565b60405180910390fd5b6105a6600883611119565b9050919050565b6060600380546105bc90613323565b80601f01602080910402602001604051908101604052809291908181526020018280546105e890613323565b80156106355780601f1061060a57610100808354040283529160200191610635565b820191906000526020600020905b81548152906001019060200180831161061857829003601f168201915b5050505050905090565b600061065361064c611271565b8484611279565b6001905092915050565b6000600254905090565b6000610674848484611444565b6000600160008673ffffffffffffffffffffffffffffffffffffffff1673ffffffffffffffffffffffffffffffffffffffff16815260200190815260200160002060006106bf611271565b73ffffffffffffffffffffffffffffffffffffffff1673ffffffffffffffffffffffffffffffffffffffff1681526020019081526020016000205490508281101561073f576040517f08c379a000000000000000000000000000000000000000000000000000000000815260040161073690612fc2565b60405180910390fd5b6107538561074b611271565b858403611279565b60019150509392505050565b60006012905090565b600046905090565b600061077a6116ba565b905090565b600061082161078c611271565b84846001600061079a611271565b73ffffffffffffffffffffffffffffffffffffffff1673ffffffffffffffffffffffffffffffffffffffff16815260200190815260200160002060008873ffffffffffffffffffffffffffffffffffffffff1673ffffffffffffffffffffffffffffffffffffffff1681526020019081526020016000205461081c919061319e565b611279565b6001905092915050565b610835828261177d565b5050565b6000600660008373ffffffffffffffffffffffffffffffffffffffff1673ffffffffffffffffffffffffffffffffffffffff16815260200190815260200160002060009054906101000a900473ffffffffffffffffffffffffffffffffffffffff169050919050565b6108b36108ad611271565b82611803565b50565b6000610903600760008473ffffffffffffffffffffffffffffffffffffffff1673ffffffffffffffffffffffffffffffffffffffff1681526020019081526020016000208054905061191d565b9050919050565b60008060008373ffffffffffffffffffffffffffffffffffffffff1673ffffffffffffffffffffffffffffffffffffffff168152602001908152602001600020549050919050565b6000438210610996576040517f08c379a000000000000000000000000000000000000000000000000000000000815260040161098d90612e82565b60405180910390fd5b6109de600760008573ffffffffffffffffffffffffffffffffffffffff1673ffffffffffffffffffffffffffffffffffffffff16815260200190815260200160002083611119565b905092915050565b6000610a2f600560008473ffffffffffffffffffffffffffffffffffffffff1673ffffffffffffffffffffffffffffffffffffffff16815260200190815260200160002061196e565b9050919050565b606060048054610a4590613323565b80601f0160208091040260200160405190810160405280929190818152602001828054610a7190613323565b8015610abe5780601f10610a9357610100808354040283529160200191610abe565b820191906000526020600020905b815481529060010190602001808311610aa157829003601f168201915b5050505050905090565b610ad2828261197c565b5050565b60008060016000610ae5611271565b73ffffffffffffffffffffffffffffffffffffffff1673ffffffffffffffffffffffffffffffffffffffff16815260200190815260200160002060008573ffffffffffffffffffffffffffffffffffffffff1673ffffffffffffffffffffffffffffffffffffffff16815260200190815260200160002054905082811015610ba2576040517f08c379a0000000000000000000000000000000000000000000000000000000008152600401610b99906130a2565b60405180910390fd5b610bb6610bad611271565b85858403611279565b600191505092915050565b6000610bd5610bce611271565b8484611444565b6001905092915050565b600080600760008473ffffffffffffffffffffffffffffffffffffffff1673ffffffffffffffffffffffffffffffffffffffff16815260200190815260200160002080549050905060008114610ced57600760008473ffffffffffffffffffffffffffffffffffffffff1673ffffffffffffffffffffffffffffffffffffffff168152602001908152602001600020600182610c7b9190613225565b81548110610cb2577f4e487b7100000000000000000000000000000000000000000000000000000000600052603260045260246000fd5b9060005260206000200160000160049054906101000a90047bffffffffffffffffffffffffffffffffffffffffffffffffffffffff16610cf0565b60005b7bffffffffffffffffffffffffffffffffffffffffffffffffffffffff16915050919050565b83421115610d59576040517f08c379a0000000000000000000000000000000000000000000000000000000008152600401610d5090612ea2565b60405180910390fd5b6000610dbb610db37fe48329057bfd03d55e49b547132e39cffd9c1820ad7b9d4c5307691425d15adf898989604051602001610d989493929190612d43565b6040516020818303038152906040528051906020012061199a565b8585856119b4565b9050610dc681611b3f565b8614610e07576040517f08c379a0000000000000000000000000000000000000000000000000000000008152600401610dfe90612ee2565b60405180910390fd5b610e118188611803565b50505050505050565b83421115610e5d576040517f08c379a0000000000000000000000000000000000000000000000000000000008152600401610e5490612f22565b60405180910390fd5b60007f0000000000000000000000000000000000000000000000000000000000000000888888610e8c8c611b3f565b89604051602001610ea296959493929190612ce2565b6040516020818303038152906040528051906020012090506000610ec58261199a565b90506000610ed5828787876119b4565b90508973ffffffffffffffffffffffffffffffffffffffff168173ffffffffffffffffffffffffffffffffffffffff1614610f45576040517f08c379a0000000000000000000000000000000000000000000000000000000008152600401610f3c90612fa2565b60405180910390fd5b610f508a8a8a611279565b50505050505050505050565b6000600160008473ffffffffffffffffffffffffffffffffffffffff1673ffffffffffffffffffffffffffffffffffffffff16815260200190815260200160002060008373ffffffffffffffffffffffffffffffffffffffff1673ffffffffffffffffffffffffffffffffffffffff16815260200190815260200160002054905092915050565b610feb61253e565b600760008473ffffffffffffffffffffffffffffffffffffffff1673ffffffffffffffffffffffffffffffffffffffff1681526020019081526020016000208263ffffffff1681548110611068577f4e487b7100000000000000000000000000000000000000000000000000000000600052603260045260246000fd5b906000526020600020016040518060400160405290816000820160009054906101000a900463ffffffff1663ffffffff1663ffffffff1681526020016000820160049054906101000a90047bffffffffffffffffffffffffffffffffffffffffffffffffffffffff167bffffffffffffffffffffffffffffffffffffffffffffffffffffffff167bffffffffffffffffffffffffffffffffffffffffffffffffffffffff1681525050905092915050565b6000808380549050905060005b818110156111be57600061113a8284611b9d565b905084868281548110611176577f4e487b7100000000000000000000000000000000000000000000000000000000600052603260045260246000fd5b9060005260206000200160000160009054906101000a900463ffffffff1663ffffffff1611156111a8578092506111b8565b6001816111b5919061319e565b91505b50611126565b6000821461124657846001836111d49190613225565b8154811061120b577f4e487b7100000000000000000000000000000000000000000000000000000000600052603260045260246000fd5b9060005260206000200160000160049054906101000a90047bffffffffffffffffffffffffffffffffffffffffffffffffffffffff16611249565b60005b7bffffffffffffffffffffffffffffffffffffffffffffffffffffffff169250505092915050565b600033905090565b600073ffffffffffffffffffffffffffffffffffffffff168373ffffffffffffffffffffffffffffffffffffffff1614156112e9576040517f08c379a00000000000000000000000000000000000000000000000000000000081526004016112e090613062565b60405180910390fd5b600073ffffffffffffffffffffffffffffffffffffffff168273ffffffffffffffffffffffffffffffffffffffff161415611359576040517f08c379a000000000000000000000000000000000000000000000000000000000815260040161135090612f02565b60405180910390fd5b80600160008573ffffffffffffffffffffffffffffffffffffffff1673ffffffffffffffffffffffffffffffffffffffff16815260200190815260200160002060008473ffffffffffffffffffffffffffffffffffffffff1673ffffffffffffffffffffffffffffffffffffffff168152602001908152602001600020819055508173ffffffffffffffffffffffffffffffffffffffff168373ffffffffffffffffffffffffffffffffffffffff167f8c5be1e5ebec7d5bd14f71427d1e84f3dd0314c0f7b2291e5b200ac8c7c3b9258360405161143791906130fd565b60405180910390a3505050565b600073ffffffffffffffffffffffffffffffffffffffff168373ffffffffffffffffffffffffffffffffffffffff1614156114b4576040517f08c379a00000000000000000000000000000000000000000000000000000000081526004016114ab90613022565b60405180910390fd5b600073ffffffffffffffffffffffffffffffffffffffff168273ffffffffffffffffffffffffffffffffffffffff161415611524576040517f08c379a000000000000000000000000000000000000000000000000000000000815260040161151b90612e62565b60405180910390fd5b61152f838383611c04565b60008060008573ffffffffffffffffffffffffffffffffffffffff1673ffffffffffffffffffffffffffffffffffffffff168152602001908152602001600020549050818110156115b5576040517f08c379a00000000000000000000000000000000000000000000000000000000081526004016115ac90612f42565b60405180910390fd5b8181036000808673ffffffffffffffffffffffffffffffffffffffff1673ffffffffffffffffffffffffffffffffffffffff16815260200190815260200160002081905550816000808573ffffffffffffffffffffffffffffffffffffffff1673ffffffffffffffffffffffffffffffffffffffff1681526020019081526020016000206000828254611648919061319e565b925050819055508273ffffffffffffffffffffffffffffffffffffffff168473ffffffffffffffffffffffffffffffffffffffff167fddf252ad1be2c89b69c2b068fc378daa952ba7f163c4a11628f55a4df523b3ef846040516116ac91906130fd565b60405180910390a350505050565b60007f000000000000000000000000000000000000000000000000000000000000000046141561170c577f0000000000000000000000000000000000000000000000000000000000000000905061177a565b6117777f00000000000000000000000000000000000000000000000000000000000000007f00000000000000000000000000000000000000000000000000000000000000007f0000000000000000000000000000000000000000000000000000000000000000611c24565b90505b90565b6117878282611c5e565b7bffffffffffffffffffffffffffffffffffffffffffffffffffffffff80166117ae61065d565b11156117ef576040517f08c379a00000000000000000000000000000000000000000000000000000000081526004016117e690613082565b60405180910390fd5b6117fd6008611db283611dc8565b50505050565b600061180e83610839565b9050600061181b8461090a565b905082600660008673ffffffffffffffffffffffffffffffffffffffff1673ffffffffffffffffffffffffffffffffffffffff16815260200190815260200160002060006101000a81548173ffffffffffffffffffffffffffffffffffffffff021916908373ffffffffffffffffffffffffffffffffffffffff1602179055508273ffffffffffffffffffffffffffffffffffffffff168273ffffffffffffffffffffffffffffffffffffffff168573ffffffffffffffffffffffffffffffffffffffff167f3134e8a2e6d97e929a7e54011ea5485d7d196dd5f0ba4d4ef95803e8e3fc257f60405160405180910390a46119178284836120b2565b50505050565b60006401000000008210611966576040517f08c379a000000000000000000000000000000000000000000000000000000000815260040161195d90613042565b60405180910390fd5b819050919050565b600081600001549050919050565b61198682826122ab565b611994600861247683611dc8565b50505050565b60006119ad6119a76116ba565b8361248c565b9050919050565b60007f7fffffffffffffffffffffffffffffff5d576e7357a4501ddfe92f46681b20a08260001c1115611a1c576040517f08c379a0000000000000000000000000000000000000000000000000000000008152600401611a1390612f62565b60405180910390fd5b601b8460ff161480611a315750601c8460ff16145b611a70576040517f08c379a0000000000000000000000000000000000000000000000000000000008152600401611a6790612f82565b60405180910390fd5b600060018686868660405160008152602001604052604051611a959493929190612ddb565b6020604051602081039080840390855afa158015611ab7573d6000803e3d6000fd5b505050602060405103519050600073ffffffffffffffffffffffffffffffffffffffff168173ffffffffffffffffffffffffffffffffffffffff161415611b33576040517f08c379a0000000000000000000000000000000000000000000000000000000008152600401611b2a90612e42565b60405180910390fd5b80915050949350505050565b600080600560008473ffffffffffffffffffffffffffffffffffffffff1673ffffffffffffffffffffffffffffffffffffffff1681526020019081526020016000209050611b8c8161196e565b9150611b97816124bf565b50919050565b600060028083611bad919061335f565b600285611bba919061335f565b611bc4919061319e565b611bce91906131f4565b600283611bdb91906131f4565b600285611be891906131f4565b611bf2919061319e565b611bfc919061319e565b905092915050565b611c1f611c1084610839565b611c1984610839565b836120b2565b505050565b60008383834630604051602001611c3f959493929190612d88565b6040516020818303038152906040528051906020012090509392505050565b600073ffffffffffffffffffffffffffffffffffffffff168273ffffffffffffffffffffffffffffffffffffffff161415611cce576040517f08c379a0000000000000000000000000000000000000000000000000000000008152600401611cc5906130c2565b60405180910390fd5b611cda60008383611c04565b8060026000828254611cec919061319e565b92505081905550806000808473ffffffffffffffffffffffffffffffffffffffff1673ffffffffffffffffffffffffffffffffffffffff1681526020019081526020016000206000828254611d41919061319e565b925050819055508173ffffffffffffffffffffffffffffffffffffffff16600073ffffffffffffffffffffffffffffffffffffffff167fddf252ad1be2c89b69c2b068fc378daa952ba7f163c4a11628f55a4df523b3ef83604051611da691906130fd565b60405180910390a35050565b60008183611dc0919061319e565b905092915050565b60008060008580549050905060008114611e5c5785600182611dea9190613225565b81548110611e21577f4e487b7100000000000000000000000000000000000000000000000000000000600052603260045260246000fd5b9060005260206000200160000160049054906101000a90047bffffffffffffffffffffffffffffffffffffffffffffffffffffffff16611e5f565b60005b7bffffffffffffffffffffffffffffffffffffffffffffffffffffffff169250611e8d83858763ffffffff16565b9150600081118015611f0657504386600183611ea99190613225565b81548110611ee0577f4e487b7100000000000000000000000000000000000000000000000000000000600052603260045260246000fd5b9060005260206000200160000160009054906101000a900463ffffffff1663ffffffff16145b15611fb957611f14826124d5565b86600183611f229190613225565b81548110611f59577f4e487b7100000000000000000000000000000000000000000000000000000000600052603260045260246000fd5b9060005260206000200160000160046101000a8154817bffffffffffffffffffffffffffffffffffffffffffffffffffffffff02191690837bffffffffffffffffffffffffffffffffffffffffffffffffffffffff1602179055506120a9565b856040518060400160405280611fce4361191d565b63ffffffff168152602001611fe2856124d5565b7bffffffffffffffffffffffffffffffffffffffffffffffffffffffff168152509080600181540180825580915050600190039060005260206000200160009091909190915060008201518160000160006101000a81548163ffffffff021916908363ffffffff16021790555060208201518160000160046101000a8154817bffffffffffffffffffffffffffffffffffffffffffffffffffffffff02191690837bffffffffffffffffffffffffffffffffffffffffffffffffffffffff16021790555050505b50935093915050565b8173ffffffffffffffffffffffffffffffffffffffff168373ffffffffffffffffffffffffffffffffffffffff16141580156120ee5750600081115b156122a657600073ffffffffffffffffffffffffffffffffffffffff168373ffffffffffffffffffffffffffffffffffffffff16146121cc57600080612175600760008773ffffffffffffffffffffffffffffffffffffffff1673ffffffffffffffffffffffffffffffffffffffff16815260200190815260200160002061247685611dc8565b915091508473ffffffffffffffffffffffffffffffffffffffff167fdec2bacdd2f05b59de34da9b523dff8be42e5e38e818c82fdb0bae774387a72483836040516121c1929190613118565b60405180910390a250505b600073ffffffffffffffffffffffffffffffffffffffff168273ffffffffffffffffffffffffffffffffffffffff16146122a55760008061224e600760008673ffffffffffffffffffffffffffffffffffffffff1673ffffffffffffffffffffffffffffffffffffffff168152602001908152602001600020611db285611dc8565b915091508373ffffffffffffffffffffffffffffffffffffffff167fdec2bacdd2f05b59de34da9b523dff8be42e5e38e818c82fdb0bae774387a724838360405161229a929190613118565b60405180910390a250505b5b505050565b600073ffffffffffffffffffffffffffffffffffffffff168273ffffffffffffffffffffffffffffffffffffffff16141561231b576040517f08c379a000000000000000000000000000000000000000000000000000000000815260040161231290613002565b60405180910390fd5b61232782600083611c04565b60008060008473ffffffffffffffffffffffffffffffffffffffff1673ffffffffffffffffffffffffffffffffffffffff168152602001908152602001600020549050818110156123ad576040517f08c379a00000000000000000000000000000000000000000000000000000000081526004016123a490612ec2565b60405180910390fd5b8181036000808573ffffffffffffffffffffffffffffffffffffffff1673ffffffffffffffffffffffffffffffffffffffff1681526020019081526020016000208190555081600260008282546124049190613225565b92505081905550600073ffffffffffffffffffffffffffffffffffffffff168373ffffffffffffffffffffffffffffffffffffffff167fddf252ad1be2c89b69c2b068fc378daa952ba7f163c4a11628f55a4df523b3ef8460405161246991906130fd565b60405180910390a3505050565b600081836124849190613225565b905092915050565b600082826040516020016124a1929190612c5a565b60405160208183030381529060405280519060200120905092915050565b6001816000016000828254019250508190555050565b60007c01000000000000000000000000000000000000000000000000000000008210612536576040517f08c379a000000000000000000000000000000000000000000000000000000000815260040161252d90612fe2565b60405180910390fd5b819050919050565b6040518060400160405280600063ffffffff16815260200160007bffffffffffffffffffffffffffffffffffffffffffffffffffffffff1681525090565b60008135905061258b816139c8565b92915050565b6000813590506125a0816139df565b92915050565b6000813590506125b5816139f6565b92915050565b6000813590506125ca81613a0d565b92915050565b6000813590506125df81613a24565b92915050565b6000602082840312156125f757600080fd5b60006126058482850161257c565b91505092915050565b6000806040838503121561262157600080fd5b600061262f8582860161257c565b92505060206126408582860161257c565b9150509250929050565b60008060006060848603121561265f57600080fd5b600061266d8682870161257c565b935050602061267e8682870161257c565b925050604061268f868287016125a6565b9150509250925092565b600080600080600080600060e0888a0312156126b457600080fd5b60006126c28a828b0161257c565b97505060206126d38a828b0161257c565b96505060406126e48a828b016125a6565b95505060606126f58a828b016125a6565b94505060806127068a828b016125d0565b93505060a06127178a828b01612591565b92505060c06127288a828b01612591565b91505092959891949750929550565b6000806040838503121561274a57600080fd5b60006127588582860161257c565b9250506020612769858286016125a6565b9150509250929050565b60008060008060008060c0878903121561278c57600080fd5b600061279a89828a0161257c565b96505060206127ab89828a016125a6565b95505060406127bc89828a016125a6565b94505060606127cd89828a016125d0565b93505060806127de89828a01612591565b92505060a06127ef89828a01612591565b9150509295509295509295565b6000806040838503121561280f57600080fd5b600061281d8582860161257c565b925050602061282e858286016125bb565b9150509250929050565b60006020828403121561284a57600080fd5b6000612858848285016125a6565b91505092915050565b61286a81613259565b82525050565b6128798161326b565b82525050565b61288881613277565b82525050565b61289f61289a82613277565b613355565b82525050565b60006128b082613177565b6128ba8185613182565b93506128ca8185602086016132f0565b6128d38161341d565b840191505092915050565b60006128eb601883613182565b91506128f68261342e565b602082019050919050565b600061290e602383613182565b915061291982613457565b604082019050919050565b6000612931601f83613182565b915061293c826134a6565b602082019050919050565b6000612954601d83613182565b915061295f826134cf565b602082019050919050565b6000612977602283613182565b9150612982826134f8565b604082019050919050565b600061299a601983613182565b91506129a582613547565b602082019050919050565b60006129bd602283613182565b91506129c882613570565b604082019050919050565b60006129e0600283613193565b91506129eb826135bf565b600282019050919050565b6000612a03601d83613182565b9150612a0e826135e8565b602082019050919050565b6000612a26602683613182565b9150612a3182613611565b604082019050919050565b6000612a49602283613182565b9150612a5482613660565b604082019050919050565b6000612a6c602283613182565b9150612a77826136af565b604082019050919050565b6000612a8f601e83613182565b9150612a9a826136fe565b602082019050919050565b6000612ab2602883613182565b9150612abd82613727565b604082019050919050565b6000612ad5602783613182565b9150612ae082613776565b604082019050919050565b6000612af8602183613182565b9150612b03826137c5565b604082019050919050565b6000612b1b602583613182565b9150612b2682613814565b604082019050919050565b6000612b3e602683613182565b9150612b4982613863565b604082019050919050565b6000612b61602483613182565b9150612b6c826138b2565b604082019050919050565b6000612b84602783613182565b9150612b8f82613901565b604082019050919050565b6000612ba7602583613182565b9150612bb282613950565b604082019050919050565b6000612bca601f83613182565b9150612bd58261399f565b602082019050919050565b604082016000820151612bf66000850182612c2d565b506020820151612c096020850182612c0f565b50505050565b612c18816132a1565b82525050565b612c27816132c9565b82525050565b612c36816132d3565b82525050565b612c45816132d3565b82525050565b612c54816132e3565b82525050565b6000612c65826129d3565b9150612c71828561288e565b602082019150612c81828461288e565b6020820191508190509392505050565b6000602082019050612ca66000830184612861565b92915050565b6000602082019050612cc16000830184612870565b92915050565b6000602082019050612cdc600083018461287f565b92915050565b600060c082019050612cf7600083018961287f565b612d046020830188612861565b612d116040830187612861565b612d1e6060830186612c1e565b612d2b6080830185612c1e565b612d3860a0830184612c1e565b979650505050505050565b6000608082019050612d58600083018761287f565b612d656020830186612861565b612d726040830185612c1e565b612d7f6060830184612c1e565b95945050505050565b600060a082019050612d9d600083018861287f565b612daa602083018761287f565b612db7604083018661287f565b612dc46060830185612c1e565b612dd16080830184612861565b9695505050505050565b6000608082019050612df0600083018761287f565b612dfd6020830186612c4b565b612e0a604083018561287f565b612e17606083018461287f565b95945050505050565b60006020820190508181036000830152612e3a81846128a5565b905092915050565b60006020820190508181036000830152612e5b816128de565b9050919050565b60006020820190508181036000830152612e7b81612901565b9050919050565b60006020820190508181036000830152612e9b81612924565b9050919050565b60006020820190508181036000830152612ebb81612947565b9050919050565b60006020820190508181036000830152612edb8161296a565b9050919050565b60006020820190508181036000830152612efb8161298d565b9050919050565b60006020820190508181036000830152612f1b816129b0565b9050919050565b60006020820190508181036000830152612f3b816129f6565b9050919050565b60006020820190508181036000830152612f5b81612a19565b9050919050565b60006020820190508181036000830152612f7b81612a3c565b9050919050565b60006020820190508181036000830152612f9b81612a5f565b9050919050565b60006020820190508181036000830152612fbb81612a82565b9050919050565b60006020820190508181036000830152612fdb81612aa5565b9050919050565b60006020820190508181036000830152612ffb81612ac8565b9050919050565b6000602082019050818103600083015261301b81612aeb565b9050919050565b6000602082019050818103600083015261303b81612b0e565b9050919050565b6000602082019050818103600083015261305b81612b31565b9050919050565b6000602082019050818103600083015261307b81612b54565b9050919050565b6000602082019050818103600083015261309b81612b77565b9050919050565b600060208201905081810360008301526130bb81612b9a565b9050919050565b600060208201905081810360008301526130db81612bbd565b9050919050565b60006040820190506130f76000830184612be0565b92915050565b60006020820190506131126000830184612c1e565b92915050565b600060408201905061312d6000830185612c1e565b61313a6020830184612c1e565b9392505050565b60006020820190506131566000830184612c3c565b92915050565b60006020820190506131716000830184612c4b565b92915050565b600081519050919050565b600082825260208201905092915050565b600081905092915050565b60006131a9826132c9565b91506131b4836132c9565b9250827fffffffffffffffffffffffffffffffffffffffffffffffffffffffffffffffff038211156131e9576131e8613390565b5b828201905092915050565b60006131ff826132c9565b915061320a836132c9565b92508261321a576132196133bf565b5b828204905092915050565b6000613230826132c9565b915061323b836132c9565b92508282101561324e5761324d613390565b5b828203905092915050565b600061326482613281565b9050919050565b60008115159050919050565b6000819050919050565b600073ffffffffffffffffffffffffffffffffffffffff82169050919050565b60007bffffffffffffffffffffffffffffffffffffffffffffffffffffffff82169050919050565b6000819050919050565b600063ffffffff82169050919050565b600060ff82169050919050565b60005b8381101561330e5780820151818401526020810190506132f3565b8381111561331d576000848401525b50505050565b6000600282049050600182168061333b57607f821691505b6020821081141561334f5761334e6133ee565b5b50919050565b6000819050919050565b600061336a826132c9565b9150613375836132c9565b925082613385576133846133bf565b5b828206905092915050565b7f4e487b7100000000000000000000000000000000000000000000000000000000600052601160045260246000fd5b7f4e487b7100000000000000000000000000000000000000000000000000000000600052601260045260246000fd5b7f4e487b7100000000000000000000000000000000000000000000000000000000600052602260045260246000fd5b6000601f19601f8301169050919050565b7f45434453413a20696e76616c6964207369676e61747572650000000000000000600082015250565b7f45524332303a207472616e7366657220746f20746865207a65726f206164647260008201527f6573730000000000000000000000000000000000000000000000000000000000602082015250565b7f4552433230566f7465733a20626c6f636b206e6f7420796574206d696e656400600082015250565b7f4552433230566f7465733a207369676e61747572652065787069726564000000600082015250565b7f45524332303a206275726e20616d6f756e7420657863656564732062616c616e60008201527f6365000000000000000000000000000000000000000000000000000000000000602082015250565b7f4552433230566f7465733a20696e76616c6964206e6f6e636500000000000000600082015250565b7f45524332303a20617070726f766520746f20746865207a65726f20616464726560008201527f7373000000000000000000000000000000000000000000000000000000000000602082015250565b7f1901000000000000000000000000000000000000000000000000000000000000600082015250565b7f45524332305065726d69743a206578706972656420646561646c696e65000000600082015250565b7f45524332303a207472616e7366657220616d6f756e742065786365656473206260008201527f616c616e63650000000000000000000000000000000000000000000000000000602082015250565b7f45434453413a20696e76616c6964207369676e6174757265202773272076616c60008201527f7565000000000000000000000000000000000000000000000000000000000000602082015250565b7f45434453413a20696e76616c6964207369676e6174757265202776272076616c60008201527f7565000000000000000000000000000000000000000000000000000000000000602082015250565b7f45524332305065726d69743a20696e76616c6964207369676e61747572650000600082015250565b7f45524332303a207472616e7366657220616d6f756e742065786365656473206160008201527f6c6c6f77616e6365000000000000000000000000000000000000000000000000602082015250565b7f53616665436173743a2076616c756520646f65736e27742066697420696e203260008201527f3234206269747300000000000000000000000000000000000000000000000000602082015250565b7f45524332303a206275726e2066726f6d20746865207a65726f2061646472657360008201527f7300000000000000000000000000000000000000000000000000000000000000602082015250565b7f45524332303a207472616e736665722066726f6d20746865207a65726f20616460008201527f6472657373000000000000000000000000000000000000000000000000000000602082015250565b7f53616665436173743a2076616c756520646f65736e27742066697420696e203360008201527f3220626974730000000000000000000000000000000000000000000000000000602082015250565b7f45524332303a20617070726f76652066726f6d20746865207a65726f2061646460008201527f7265737300000000000000000000000000000000000000000000000000000000602082015250565b7f4552433230566f7465733a20746f74616c20737570706c79206578636565647360008201527f20322a2a32323400000000000000000000000000000000000000000000000000602082015250565b7f45524332303a2064656372656173656420616c6c6f77616e63652062656c6f7760008201527f207a65726f000000000000000000000000000000000000000000000000000000602082015250565b7f45524332303a206d696e7420746f20746865207a65726f206164647265737300600082015250565b6139d181613259565b81146139dc57600080fd5b50565b6139e881613277565b81146139f357600080fd5b50565b6139ff816132c9565b8114613a0a57600080fd5b50565b613a16816132d3565b8114613a2157600080fd5b50565b613a2d816132e3565b8114613a3857600080fd5b5056fea2646970667358221220a44a5e4856aacfbeb6f80c708fef2d0080ce1a022bdc3281aa962a8aaf26653964736f6c63430008040033",
  "immutableReferences": {
    "13582": [
      {
        "length": 32,
        "start": 3681
      }
    ],
    "18579": [
      {
        "length": 32,
        "start": 5862
      }
    ],
    "18581": [
      {
        "length": 32,
        "start": 5822
      }
    ],
    "18583": [
      {
        "length": 32,
        "start": 5938
      }
    ],
    "18585": [
      {
        "length": 32,
        "start": 5971
      }
    ],
    "18587": [
      {
        "length": 32,
        "start": 5905
      }
    ]
  },
  "source": "// SPDX-License-Identifier: MIT\n\npragma solidity ^0.8.0;\n\n\nimport \"../token/ERC20/extensions/ERC20Votes.sol\";\n\ncontract ERC20VotesMock is ERC20Votes {\n    constructor (string memory name, string memory symbol)\n    ERC20(name, symbol)\n    ERC20Permit(name)\n    {}\n\n    function mint(address account, uint256 amount) public {\n        _mint(account, amount);\n    }\n\n    function burn(address account, uint256 amount) public {\n        _burn(account, amount);\n    }\n\n    function getChainId() external view returns (uint256) {\n        return block.chainid;\n    }\n}\n",
  "sourcePath": "C:/Users/Husnain/Documents/Projects/Fanbase/New/fanbase/packages/ethereum/contracts/solidity/openzeppelin/contracts/mocks/ERC20VotesMock.sol",
  "compiler": {
    "name": "solc",
    "version": "0.8.4+commit.c7e474f2.Emscripten.clang"
  },
  "schemaVersion": "3.4.1",
  "updatedAt": "2021-06-06T20:07:31.842Z",
  "devdoc": {
    "kind": "dev",
    "methods": {
      "DOMAIN_SEPARATOR()": {
        "details": "See {IERC20Permit-DOMAIN_SEPARATOR}."
      },
      "allowance(address,address)": {
        "details": "See {IERC20-allowance}."
      },
      "approve(address,uint256)": {
        "details": "See {IERC20-approve}. Requirements: - `spender` cannot be the zero address."
      },
      "balanceOf(address)": {
        "details": "See {IERC20-balanceOf}."
      },
      "checkpoints(address,uint32)": {
        "details": "Get the `pos`-th checkpoint for `account`."
      },
      "decimals()": {
        "details": "Returns the number of decimals used to get its user representation. For example, if `decimals` equals `2`, a balance of `505` tokens should be displayed to a user as `5,05` (`505 / 10 ** 2`). Tokens usually opt for a value of 18, imitating the relationship between Ether and Wei. This is the value {ERC20} uses, unless this function is overridden; NOTE: This information is only used for _display_ purposes: it in no way affects any of the arithmetic of the contract, including {IERC20-balanceOf} and {IERC20-transfer}."
      },
      "decreaseAllowance(address,uint256)": {
        "details": "Atomically decreases the allowance granted to `spender` by the caller. This is an alternative to {approve} that can be used as a mitigation for problems described in {IERC20-approve}. Emits an {Approval} event indicating the updated allowance. Requirements: - `spender` cannot be the zero address. - `spender` must have allowance for the caller of at least `subtractedValue`."
      },
      "delegate(address)": {
        "details": "Delegate votes from the sender to `delegatee`."
      },
      "delegateBySig(address,uint256,uint256,uint8,bytes32,bytes32)": {
        "details": "Delegates votes from signer to `delegatee`"
      },
      "delegates(address)": {
        "details": "Get the address `account` is currently delegating to."
      },
      "getCurrentVotes(address)": {
        "details": "Gets the current votes balance for `account`"
      },
      "getPriorTotalSupply(uint256)": {
        "details": "Retrieve the `totalSupply` at the end of `blockNumber`. Note, this value is the sum of all balances. It is but NOT the sum of all the delegated votes! Requirements: - `blockNumber` must have been already mined"
      },
      "getPriorVotes(address,uint256)": {
        "details": "Retrieve the number of votes for `account` at the end of `blockNumber`. Requirements: - `blockNumber` must have been already mined"
      },
      "increaseAllowance(address,uint256)": {
        "details": "Atomically increases the allowance granted to `spender` by the caller. This is an alternative to {approve} that can be used as a mitigation for problems described in {IERC20-approve}. Emits an {Approval} event indicating the updated allowance. Requirements: - `spender` cannot be the zero address."
      },
      "name()": {
        "details": "Returns the name of the token."
      },
      "nonces(address)": {
        "details": "See {IERC20Permit-nonces}."
      },
      "numCheckpoints(address)": {
        "details": "Get number of checkpoints for `account`."
      },
      "permit(address,address,uint256,uint256,uint8,bytes32,bytes32)": {
        "details": "See {IERC20Permit-permit}."
      },
      "symbol()": {
        "details": "Returns the symbol of the token, usually a shorter version of the name."
      },
      "totalSupply()": {
        "details": "See {IERC20-totalSupply}."
      },
      "transfer(address,uint256)": {
        "details": "See {IERC20-transfer}. Requirements: - `recipient` cannot be the zero address. - the caller must have a balance of at least `amount`."
      },
      "transferFrom(address,address,uint256)": {
        "details": "See {IERC20-transferFrom}. Emits an {Approval} event indicating the updated allowance. This is not required by the EIP. See the note at the beginning of {ERC20}. Requirements: - `sender` and `recipient` cannot be the zero address. - `sender` must have a balance of at least `amount`. - the caller must have allowance for ``sender``'s tokens of at least `amount`."
      }
    },
    "version": 1
  },
  "userdoc": {
    "kind": "user",
    "methods": {},
    "version": 1
  }
}