{
  "contractName": "ERC20FlashMintMock",
  "abi": [
    {
      "inputs": [
        {
          "internalType": "string",
          "name": "name",
          "type": "string"
        },
        {
          "internalType": "string",
          "name": "symbol",
          "type": "string"
        },
        {
          "internalType": "address",
          "name": "initialAccount",
          "type": "address"
        },
        {
          "internalType": "uint256",
          "name": "initialBalance",
          "type": "uint256"
        }
      ],
      "stateMutability": "nonpayable",
      "type": "constructor"
    },
    {
      "anonymous": false,
      "inputs": [
        {
          "indexed": true,
          "internalType": "address",
          "name": "owner",
          "type": "address"
        },
        {
          "indexed": true,
          "internalType": "address",
          "name": "spender",
          "type": "address"
        },
        {
          "indexed": false,
          "internalType": "uint256",
          "name": "value",
          "type": "uint256"
        }
      ],
      "name": "Approval",
      "type": "event"
    },
    {
      "anonymous": false,
      "inputs": [
        {
          "indexed": true,
          "internalType": "address",
          "name": "from",
          "type": "address"
        },
        {
          "indexed": true,
          "internalType": "address",
          "name": "to",
          "type": "address"
        },
        {
          "indexed": false,
          "internalType": "uint256",
          "name": "value",
          "type": "uint256"
        }
      ],
      "name": "Transfer",
      "type": "event"
    },
    {
      "inputs": [
        {
          "internalType": "address",
          "name": "owner",
          "type": "address"
        },
        {
          "internalType": "address",
          "name": "spender",
          "type": "address"
        }
      ],
      "name": "allowance",
      "outputs": [
        {
          "internalType": "uint256",
          "name": "",
          "type": "uint256"
        }
      ],
      "stateMutability": "view",
      "type": "function"
    },
    {
      "inputs": [
        {
          "internalType": "address",
          "name": "spender",
          "type": "address"
        },
        {
          "internalType": "uint256",
          "name": "amount",
          "type": "uint256"
        }
      ],
      "name": "approve",
      "outputs": [
        {
          "internalType": "bool",
          "name": "",
          "type": "bool"
        }
      ],
      "stateMutability": "nonpayable",
      "type": "function"
    },
    {
      "inputs": [
        {
          "internalType": "address",
          "name": "account",
          "type": "address"
        }
      ],
      "name": "balanceOf",
      "outputs": [
        {
          "internalType": "uint256",
          "name": "",
          "type": "uint256"
        }
      ],
      "stateMutability": "view",
      "type": "function"
    },
    {
      "inputs": [],
      "name": "decimals",
      "outputs": [
        {
          "internalType": "uint8",
          "name": "",
          "type": "uint8"
        }
      ],
      "stateMutability": "view",
      "type": "function"
    },
    {
      "inputs": [
        {
          "internalType": "address",
          "name": "spender",
          "type": "address"
        },
        {
          "internalType": "uint256",
          "name": "subtractedValue",
          "type": "uint256"
        }
      ],
      "name": "decreaseAllowance",
      "outputs": [
        {
          "internalType": "bool",
          "name": "",
          "type": "bool"
        }
      ],
      "stateMutability": "nonpayable",
      "type": "function"
    },
    {
      "inputs": [
        {
          "internalType": "address",
          "name": "token",
          "type": "address"
        },
        {
          "internalType": "uint256",
          "name": "amount",
          "type": "uint256"
        }
      ],
      "name": "flashFee",
      "outputs": [
        {
          "internalType": "uint256",
          "name": "",
          "type": "uint256"
        }
      ],
      "stateMutability": "view",
      "type": "function"
    },
    {
      "inputs": [
        {
          "internalType": "contract IERC3156FlashBorrower",
          "name": "receiver",
          "type": "address"
        },
        {
          "internalType": "address",
          "name": "token",
          "type": "address"
        },
        {
          "internalType": "uint256",
          "name": "amount",
          "type": "uint256"
        },
        {
          "internalType": "bytes",
          "name": "data",
          "type": "bytes"
        }
      ],
      "name": "flashLoan",
      "outputs": [
        {
          "internalType": "bool",
          "name": "",
          "type": "bool"
        }
      ],
      "stateMutability": "nonpayable",
      "type": "function"
    },
    {
      "inputs": [
        {
          "internalType": "address",
          "name": "spender",
          "type": "address"
        },
        {
          "internalType": "uint256",
          "name": "addedValue",
          "type": "uint256"
        }
      ],
      "name": "increaseAllowance",
      "outputs": [
        {
          "internalType": "bool",
          "name": "",
          "type": "bool"
        }
      ],
      "stateMutability": "nonpayable",
      "type": "function"
    },
    {
      "inputs": [
        {
          "internalType": "address",
          "name": "token",
          "type": "address"
        }
      ],
      "name": "maxFlashLoan",
      "outputs": [
        {
          "internalType": "uint256",
          "name": "",
          "type": "uint256"
        }
      ],
      "stateMutability": "view",
      "type": "function"
    },
    {
      "inputs": [],
      "name": "name",
      "outputs": [
        {
          "internalType": "string",
          "name": "",
          "type": "string"
        }
      ],
      "stateMutability": "view",
      "type": "function"
    },
    {
      "inputs": [],
      "name": "symbol",
      "outputs": [
        {
          "internalType": "string",
          "name": "",
          "type": "string"
        }
      ],
      "stateMutability": "view",
      "type": "function"
    },
    {
      "inputs": [],
      "name": "totalSupply",
      "outputs": [
        {
          "internalType": "uint256",
          "name": "",
          "type": "uint256"
        }
      ],
      "stateMutability": "view",
      "type": "function"
    },
    {
      "inputs": [
        {
          "internalType": "address",
          "name": "recipient",
          "type": "address"
        },
        {
          "internalType": "uint256",
          "name": "amount",
          "type": "uint256"
        }
      ],
      "name": "transfer",
      "outputs": [
        {
          "internalType": "bool",
          "name": "",
          "type": "bool"
        }
      ],
      "stateMutability": "nonpayable",
      "type": "function"
    },
    {
      "inputs": [
        {
          "internalType": "address",
          "name": "sender",
          "type": "address"
        },
        {
          "internalType": "address",
          "name": "recipient",
          "type": "address"
        },
        {
          "internalType": "uint256",
          "name": "amount",
          "type": "uint256"
        }
      ],
      "name": "transferFrom",
      "outputs": [
        {
          "internalType": "bool",
          "name": "",
          "type": "bool"
        }
      ],
      "stateMutability": "nonpayable",
      "type": "function"
    }
  ],
  "bytecode": "0x60806040523480156200001157600080fd5b506040516200270c3803806200270c83398181016040528101906200003791906200034f565b8383816003908051906020019062000051929190620001f3565b5080600490805190602001906200006a929190620001f3565b5050506200007f82826200008960201b60201c565b5050505062000732565b600073ffffffffffffffffffffffffffffffffffffffff168273ffffffffffffffffffffffffffffffffffffffff161415620000fc576040517f08c379a0000000000000000000000000000000000000000000000000000000008152600401620000f39062000437565b60405180910390fd5b6200011060008383620001ee60201b60201c565b8060026000828254620001249190620004e6565b92505081905550806000808473ffffffffffffffffffffffffffffffffffffffff1673ffffffffffffffffffffffffffffffffffffffff16815260200190815260200160002060008282546200017b9190620004e6565b925050819055508173ffffffffffffffffffffffffffffffffffffffff16600073ffffffffffffffffffffffffffffffffffffffff167fddf252ad1be2c89b69c2b068fc378daa952ba7f163c4a11628f55a4df523b3ef83604051620001e2919062000459565b60405180910390a35050565b505050565b8280546200020190620005b7565b90600052602060002090601f01602090048101928262000225576000855562000271565b82601f106200024057805160ff191683800117855562000271565b8280016001018555821562000271579182015b828111156200027057825182559160200191906001019062000253565b5b50905062000280919062000284565b5090565b5b808211156200029f57600081600090555060010162000285565b5090565b6000620002ba620002b4846200049f565b62000476565b905082815260208101848484011115620002d957620002d8620006b5565b5b620002e684828562000581565b509392505050565b600081519050620002ff81620006fe565b92915050565b600082601f8301126200031d576200031c620006b0565b5b81516200032f848260208601620002a3565b91505092915050565b600081519050620003498162000718565b92915050565b600080600080608085870312156200036c576200036b620006bf565b5b600085015167ffffffffffffffff8111156200038d576200038c620006ba565b5b6200039b8782880162000305565b945050602085015167ffffffffffffffff811115620003bf57620003be620006ba565b5b620003cd8782880162000305565b9350506040620003e087828801620002ee565b9250506060620003f38782880162000338565b91505092959194509250565b60006200040e601f83620004d5565b91506200041b82620006d5565b602082019050919050565b620004318162000577565b82525050565b600060208201905081810360008301526200045281620003ff565b9050919050565b600060208201905062000470600083018462000426565b92915050565b60006200048262000495565b9050620004908282620005ed565b919050565b6000604051905090565b600067ffffffffffffffff821115620004bd57620004bc62000681565b5b620004c882620006c4565b9050602081019050919050565b600082825260208201905092915050565b6000620004f38262000577565b9150620005008362000577565b9250827fffffffffffffffffffffffffffffffffffffffffffffffffffffffffffffffff0382111562000538576200053762000623565b5b828201905092915050565b6000620005508262000557565b9050919050565b600073ffffffffffffffffffffffffffffffffffffffff82169050919050565b6000819050919050565b60005b83811015620005a157808201518184015260208101905062000584565b83811115620005b1576000848401525b50505050565b60006002820490506001821680620005d057607f821691505b60208210811415620005e757620005e662000652565b5b50919050565b620005f882620006c4565b810181811067ffffffffffffffff821117156200061a576200061962000681565b5b80604052505050565b7f4e487b7100000000000000000000000000000000000000000000000000000000600052601160045260246000fd5b7f4e487b7100000000000000000000000000000000000000000000000000000000600052602260045260246000fd5b7f4e487b7100000000000000000000000000000000000000000000000000000000600052604160045260246000fd5b600080fd5b600080fd5b600080fd5b600080fd5b6000601f19601f8301169050919050565b7f45524332303a206d696e7420746f20746865207a65726f206164647265737300600082015250565b620007098162000543565b81146200071557600080fd5b50565b620007238162000577565b81146200072f57600080fd5b50565b611fca80620007426000396000f3fe608060405234801561001057600080fd5b50600436106100ea5760003560e01c8063613255ab1161008c578063a457c2d711610066578063a457c2d714610287578063a9059cbb146102b7578063d9d98ce4146102e7578063dd62ed3e14610317576100ea565b8063613255ab1461020957806370a082311461023957806395d89b4114610269576100ea565b806323b872dd116100c857806323b872dd1461015b578063313ce5671461018b57806339509351146101a95780635cffe9de146101d9576100ea565b806306fdde03146100ef578063095ea7b31461010d57806318160ddd1461013d575b600080fd5b6100f7610347565b6040516101049190611765565b60405180910390f35b61012760048036038101906101229190611390565b6103d9565b604051610134919061174a565b60405180910390f35b6101456103f7565b6040516101529190611927565b60405180910390f35b6101756004803603810190610170919061133d565b610401565b604051610182919061174a565b60405180910390f35b6101936104f9565b6040516101a09190611942565b60405180910390f35b6101c360048036038101906101be9190611390565b610502565b6040516101d0919061174a565b60405180910390f35b6101f360048036038101906101ee91906113fd565b6105ae565b604051610200919061174a565b60405180910390f35b610223600480360381019061021e91906112d0565b61075e565b6040516102309190611927565b60405180910390f35b610253600480360381019061024e91906112d0565b6107d5565b6040516102609190611927565b60405180910390f35b61027161081d565b60405161027e9190611765565b60405180910390f35b6102a1600480360381019061029c9190611390565b6108af565b6040516102ae919061174a565b60405180910390f35b6102d160048036038101906102cc9190611390565b61099a565b6040516102de919061174a565b60405180910390f35b61030160048036038101906102fc9190611390565b6109b8565b60405161030e9190611927565b60405180910390f35b610331600480360381019061032c91906112fd565b610a32565b60405161033e9190611927565b60405180910390f35b60606003805461035690611ac7565b80601f016020809104026020016040519081016040528092919081815260200182805461038290611ac7565b80156103cf5780601f106103a4576101008083540402835291602001916103cf565b820191906000526020600020905b8154815290600101906020018083116103b257829003601f168201915b5050505050905090565b60006103ed6103e6610ab9565b8484610ac1565b6001905092915050565b6000600254905090565b600061040e848484610c8c565b6000600160008673ffffffffffffffffffffffffffffffffffffffff1673ffffffffffffffffffffffffffffffffffffffff1681526020019081526020016000206000610459610ab9565b73ffffffffffffffffffffffffffffffffffffffff1673ffffffffffffffffffffffffffffffffffffffff168152602001908152602001600020549050828110156104d9576040517f08c379a00000000000000000000000000000000000000000000000000000000081526004016104d090611847565b60405180910390fd5b6104ed856104e5610ab9565b858403610ac1565b60019150509392505050565b60006012905090565b60006105a461050f610ab9565b84846001600061051d610ab9565b73ffffffffffffffffffffffffffffffffffffffff1673ffffffffffffffffffffffffffffffffffffffff16815260200190815260200160002060008873ffffffffffffffffffffffffffffffffffffffff1673ffffffffffffffffffffffffffffffffffffffff1681526020019081526020016000205461059f919061198a565b610ac1565b6001905092915050565b6000806105bb86866109b8565b90506105c78786610f02565b7f439148f0bbc682ca079e46d6e2c2f0c1e3b820f1a291b069d8882abf8cf18dd98773ffffffffffffffffffffffffffffffffffffffff166323e30c8b338989868a8a6040518763ffffffff1660e01b815260040161062b969594939291906116ee565b602060405180830381600087803b15801561064557600080fd5b505af1158015610659573d6000803e3d6000fd5b505050506040513d601f19601f8201168201806040525081019061067d91906113d0565b146106bd576040517f08c379a00000000000000000000000000000000000000000000000000000000081526004016106b490611807565b60405180910390fd5b60006106c98830610a32565b905081866106d7919061198a565b811015610719576040517f08c379a0000000000000000000000000000000000000000000000000000000008152600401610710906118c7565b60405180910390fd5b61073a883084898561072b91906119e0565b61073591906119e0565b610ac1565b61074f88838861074a919061198a565b611056565b60019250505095945050505050565b60003073ffffffffffffffffffffffffffffffffffffffff168273ffffffffffffffffffffffffffffffffffffffff161461079a5760006107ce565b6107a26103f7565b7fffffffffffffffffffffffffffffffffffffffffffffffffffffffffffffffff6107cd91906119e0565b5b9050919050565b60008060008373ffffffffffffffffffffffffffffffffffffffff1673ffffffffffffffffffffffffffffffffffffffff168152602001908152602001600020549050919050565b60606004805461082c90611ac7565b80601f016020809104026020016040519081016040528092919081815260200182805461085890611ac7565b80156108a55780601f1061087a576101008083540402835291602001916108a5565b820191906000526020600020905b81548152906001019060200180831161088857829003601f168201915b5050505050905090565b600080600160006108be610ab9565b73ffffffffffffffffffffffffffffffffffffffff1673ffffffffffffffffffffffffffffffffffffffff16815260200190815260200160002060008573ffffffffffffffffffffffffffffffffffffffff1673ffffffffffffffffffffffffffffffffffffffff1681526020019081526020016000205490508281101561097b576040517f08c379a0000000000000000000000000000000000000000000000000000000008152600401610972906118e7565b60405180910390fd5b61098f610986610ab9565b85858403610ac1565b600191505092915050565b60006109ae6109a7610ab9565b8484610c8c565b6001905092915050565b60003073ffffffffffffffffffffffffffffffffffffffff168373ffffffffffffffffffffffffffffffffffffffff1614610a28576040517f08c379a0000000000000000000000000000000000000000000000000000000008152600401610a1f90611827565b60405180910390fd5b6000905092915050565b6000600160008473ffffffffffffffffffffffffffffffffffffffff1673ffffffffffffffffffffffffffffffffffffffff16815260200190815260200160002060008373ffffffffffffffffffffffffffffffffffffffff1673ffffffffffffffffffffffffffffffffffffffff16815260200190815260200160002054905092915050565b600033905090565b600073ffffffffffffffffffffffffffffffffffffffff168373ffffffffffffffffffffffffffffffffffffffff161415610b31576040517f08c379a0000000000000000000000000000000000000000000000000000000008152600401610b28906118a7565b60405180910390fd5b600073ffffffffffffffffffffffffffffffffffffffff168273ffffffffffffffffffffffffffffffffffffffff161415610ba1576040517f08c379a0000000000000000000000000000000000000000000000000000000008152600401610b98906117c7565b60405180910390fd5b80600160008573ffffffffffffffffffffffffffffffffffffffff1673ffffffffffffffffffffffffffffffffffffffff16815260200190815260200160002060008473ffffffffffffffffffffffffffffffffffffffff1673ffffffffffffffffffffffffffffffffffffffff168152602001908152602001600020819055508173ffffffffffffffffffffffffffffffffffffffff168373ffffffffffffffffffffffffffffffffffffffff167f8c5be1e5ebec7d5bd14f71427d1e84f3dd0314c0f7b2291e5b200ac8c7c3b92583604051610c7f9190611927565b60405180910390a3505050565b600073ffffffffffffffffffffffffffffffffffffffff168373ffffffffffffffffffffffffffffffffffffffff161415610cfc576040517f08c379a0000000000000000000000000000000000000000000000000000000008152600401610cf390611887565b60405180910390fd5b600073ffffffffffffffffffffffffffffffffffffffff168273ffffffffffffffffffffffffffffffffffffffff161415610d6c576040517f08c379a0000000000000000000000000000000000000000000000000000000008152600401610d6390611787565b60405180910390fd5b610d77838383611221565b60008060008573ffffffffffffffffffffffffffffffffffffffff1673ffffffffffffffffffffffffffffffffffffffff16815260200190815260200160002054905081811015610dfd576040517f08c379a0000000000000000000000000000000000000000000000000000000008152600401610df4906117e7565b60405180910390fd5b8181036000808673ffffffffffffffffffffffffffffffffffffffff1673ffffffffffffffffffffffffffffffffffffffff16815260200190815260200160002081905550816000808573ffffffffffffffffffffffffffffffffffffffff1673ffffffffffffffffffffffffffffffffffffffff1681526020019081526020016000206000828254610e90919061198a565b925050819055508273ffffffffffffffffffffffffffffffffffffffff168473ffffffffffffffffffffffffffffffffffffffff167fddf252ad1be2c89b69c2b068fc378daa952ba7f163c4a11628f55a4df523b3ef84604051610ef49190611927565b60405180910390a350505050565b600073ffffffffffffffffffffffffffffffffffffffff168273ffffffffffffffffffffffffffffffffffffffff161415610f72576040517f08c379a0000000000000000000000000000000000000000000000000000000008152600401610f6990611907565b60405180910390fd5b610f7e60008383611221565b8060026000828254610f90919061198a565b92505081905550806000808473ffffffffffffffffffffffffffffffffffffffff1673ffffffffffffffffffffffffffffffffffffffff1681526020019081526020016000206000828254610fe5919061198a565b925050819055508173ffffffffffffffffffffffffffffffffffffffff16600073ffffffffffffffffffffffffffffffffffffffff167fddf252ad1be2c89b69c2b068fc378daa952ba7f163c4a11628f55a4df523b3ef8360405161104a9190611927565b60405180910390a35050565b600073ffffffffffffffffffffffffffffffffffffffff168273ffffffffffffffffffffffffffffffffffffffff1614156110c6576040517f08c379a00000000000000000000000000000000000000000000000000000000081526004016110bd90611867565b60405180910390fd5b6110d282600083611221565b60008060008473ffffffffffffffffffffffffffffffffffffffff1673ffffffffffffffffffffffffffffffffffffffff16815260200190815260200160002054905081811015611158576040517f08c379a000000000000000000000000000000000000000000000000000000000815260040161114f906117a7565b60405180910390fd5b8181036000808573ffffffffffffffffffffffffffffffffffffffff1673ffffffffffffffffffffffffffffffffffffffff1681526020019081526020016000208190555081600260008282546111af91906119e0565b92505081905550600073ffffffffffffffffffffffffffffffffffffffff168373ffffffffffffffffffffffffffffffffffffffff167fddf252ad1be2c89b69c2b068fc378daa952ba7f163c4a11628f55a4df523b3ef846040516112149190611927565b60405180910390a3505050565b505050565b60008135905061123581611f38565b92915050565b60008151905061124a81611f4f565b92915050565b60008083601f84011261126657611265611b5c565b5b8235905067ffffffffffffffff81111561128357611282611b57565b5b60208301915083600182028301111561129f5761129e611b61565b5b9250929050565b6000813590506112b581611f66565b92915050565b6000813590506112ca81611f7d565b92915050565b6000602082840312156112e6576112e5611b6b565b5b60006112f484828501611226565b91505092915050565b6000806040838503121561131457611313611b6b565b5b600061132285828601611226565b925050602061133385828601611226565b9150509250929050565b60008060006060848603121561135657611355611b6b565b5b600061136486828701611226565b935050602061137586828701611226565b9250506040611386868287016112bb565b9150509250925092565b600080604083850312156113a7576113a6611b6b565b5b60006113b585828601611226565b92505060206113c6858286016112bb565b9150509250929050565b6000602082840312156113e6576113e5611b6b565b5b60006113f48482850161123b565b91505092915050565b60008060008060006080868803121561141957611418611b6b565b5b6000611427888289016112a6565b955050602061143888828901611226565b9450506040611449888289016112bb565b935050606086013567ffffffffffffffff81111561146a57611469611b66565b5b61147688828901611250565b92509250509295509295909350565b61148e81611a14565b82525050565b61149d81611a26565b82525050565b60006114af8385611968565b93506114bc838584611a85565b6114c583611b70565b840190509392505050565b60006114db8261195d565b6114e58185611979565b93506114f5818560208601611a94565b6114fe81611b70565b840191505092915050565b6000611516602383611979565b915061152182611b81565b604082019050919050565b6000611539602283611979565b915061154482611bd0565b604082019050919050565b600061155c602283611979565b915061156782611c1f565b604082019050919050565b600061157f602683611979565b915061158a82611c6e565b604082019050919050565b60006115a2602483611979565b91506115ad82611cbd565b604082019050919050565b60006115c5601b83611979565b91506115d082611d0c565b602082019050919050565b60006115e8602883611979565b91506115f382611d35565b604082019050919050565b600061160b602183611979565b915061161682611d84565b604082019050919050565b600061162e602583611979565b915061163982611dd3565b604082019050919050565b6000611651602483611979565b915061165c82611e22565b604082019050919050565b6000611674602f83611979565b915061167f82611e71565b604082019050919050565b6000611697602583611979565b91506116a282611ec0565b604082019050919050565b60006116ba601f83611979565b91506116c582611f0f565b602082019050919050565b6116d981611a6e565b82525050565b6116e881611a78565b82525050565b600060a0820190506117036000830189611485565b6117106020830188611485565b61171d60408301876116d0565b61172a60608301866116d0565b818103608083015261173d8184866114a3565b9050979650505050505050565b600060208201905061175f6000830184611494565b92915050565b6000602082019050818103600083015261177f81846114d0565b905092915050565b600060208201905081810360008301526117a081611509565b9050919050565b600060208201905081810360008301526117c08161152c565b9050919050565b600060208201905081810360008301526117e08161154f565b9050919050565b6000602082019050818103600083015261180081611572565b9050919050565b6000602082019050818103600083015261182081611595565b9050919050565b60006020820190508181036000830152611840816115b8565b9050919050565b60006020820190508181036000830152611860816115db565b9050919050565b60006020820190508181036000830152611880816115fe565b9050919050565b600060208201905081810360008301526118a081611621565b9050919050565b600060208201905081810360008301526118c081611644565b9050919050565b600060208201905081810360008301526118e081611667565b9050919050565b600060208201905081810360008301526119008161168a565b9050919050565b60006020820190508181036000830152611920816116ad565b9050919050565b600060208201905061193c60008301846116d0565b92915050565b600060208201905061195760008301846116df565b92915050565b600081519050919050565b600082825260208201905092915050565b600082825260208201905092915050565b600061199582611a6e565b91506119a083611a6e565b9250827fffffffffffffffffffffffffffffffffffffffffffffffffffffffffffffffff038211156119d5576119d4611af9565b5b828201905092915050565b60006119eb82611a6e565b91506119f683611a6e565b925082821015611a0957611a08611af9565b5b828203905092915050565b6000611a1f82611a4e565b9050919050565b60008115159050919050565b6000819050919050565b6000611a4782611a14565b9050919050565b600073ffffffffffffffffffffffffffffffffffffffff82169050919050565b6000819050919050565b600060ff82169050919050565b82818337600083830152505050565b60005b83811015611ab2578082015181840152602081019050611a97565b83811115611ac1576000848401525b50505050565b60006002820490506001821680611adf57607f821691505b60208210811415611af357611af2611b28565b5b50919050565b7f4e487b7100000000000000000000000000000000000000000000000000000000600052601160045260246000fd5b7f4e487b7100000000000000000000000000000000000000000000000000000000600052602260045260246000fd5b600080fd5b600080fd5b600080fd5b600080fd5b600080fd5b6000601f19601f8301169050919050565b7f45524332303a207472616e7366657220746f20746865207a65726f206164647260008201527f6573730000000000000000000000000000000000000000000000000000000000602082015250565b7f45524332303a206275726e20616d6f756e7420657863656564732062616c616e60008201527f6365000000000000000000000000000000000000000000000000000000000000602082015250565b7f45524332303a20617070726f766520746f20746865207a65726f20616464726560008201527f7373000000000000000000000000000000000000000000000000000000000000602082015250565b7f45524332303a207472616e7366657220616d6f756e742065786365656473206260008201527f616c616e63650000000000000000000000000000000000000000000000000000602082015250565b7f4552433230466c6173684d696e743a20696e76616c69642072657475726e207660008201527f616c756500000000000000000000000000000000000000000000000000000000602082015250565b7f4552433230466c6173684d696e743a2077726f6e6720746f6b656e0000000000600082015250565b7f45524332303a207472616e7366657220616d6f756e742065786365656473206160008201527f6c6c6f77616e6365000000000000000000000000000000000000000000000000602082015250565b7f45524332303a206275726e2066726f6d20746865207a65726f2061646472657360008201527f7300000000000000000000000000000000000000000000000000000000000000602082015250565b7f45524332303a207472616e736665722066726f6d20746865207a65726f20616460008201527f6472657373000000000000000000000000000000000000000000000000000000602082015250565b7f45524332303a20617070726f76652066726f6d20746865207a65726f2061646460008201527f7265737300000000000000000000000000000000000000000000000000000000602082015250565b7f4552433230466c6173684d696e743a20616c6c6f77616e636520646f6573206e60008201527f6f7420616c6c6f7720726566756e640000000000000000000000000000000000602082015250565b7f45524332303a2064656372656173656420616c6c6f77616e63652062656c6f7760008201527f207a65726f000000000000000000000000000000000000000000000000000000602082015250565b7f45524332303a206d696e7420746f20746865207a65726f206164647265737300600082015250565b611f4181611a14565b8114611f4c57600080fd5b50565b611f5881611a32565b8114611f6357600080fd5b50565b611f6f81611a3c565b8114611f7a57600080fd5b50565b611f8681611a6e565b8114611f9157600080fd5b5056fea26469706673582212204090bdca14c2da5cf976715d2125ab3920e3bb8753827cbb05fab099a08b076564736f6c63430008070033",
  "immutableReferences": {},
  "source": "// SPDX-License-Identifier: MIT\r\n\r\npragma solidity ^0.8.0;\r\n\r\n\r\nimport \"../token/ERC20/extensions/ERC20FlashMint.sol\";\r\n\r\ncontract ERC20FlashMintMock is ERC20FlashMint {\r\n    constructor (\r\n        string memory name,\r\n        string memory symbol,\r\n        address initialAccount,\r\n        uint256 initialBalance\r\n    ) ERC20(name, symbol) {\r\n        _mint(initialAccount, initialBalance);\r\n    }\r\n}\r\n",
  "sourcePath": "C:/Users/Husnain/Documents/Projects/Fanbase/fanbase/packages/ethereum/contracts/solidity/openzeppelin/contracts/mocks/ERC20FlashMintMock.sol",
  "compiler": {
    "name": "solc",
    "version": "0.8.7+commit.e28d00a7.Emscripten.clang"
  },
  "schemaVersion": "3.4.1",
  "updatedAt": "2021-08-29T17:48:48.318Z",
  "devdoc": {
    "kind": "dev",
    "methods": {
      "allowance(address,address)": {
        "details": "See {IERC20-allowance}."
      },
      "approve(address,uint256)": {
        "details": "See {IERC20-approve}. Requirements: - `spender` cannot be the zero address."
      },
      "balanceOf(address)": {
        "details": "See {IERC20-balanceOf}."
      },
      "decimals()": {
        "details": "Returns the number of decimals used to get its user representation. For example, if `decimals` equals `2`, a balance of `505` tokens should be displayed to a user as `5,05` (`505 / 10 ** 2`). Tokens usually opt for a value of 18, imitating the relationship between Ether and Wei. This is the value {ERC20} uses, unless this function is overridden; NOTE: This information is only used for _display_ purposes: it in no way affects any of the arithmetic of the contract, including {IERC20-balanceOf} and {IERC20-transfer}."
      },
      "decreaseAllowance(address,uint256)": {
        "details": "Atomically decreases the allowance granted to `spender` by the caller. This is an alternative to {approve} that can be used as a mitigation for problems described in {IERC20-approve}. Emits an {Approval} event indicating the updated allowance. Requirements: - `spender` cannot be the zero address. - `spender` must have allowance for the caller of at least `subtractedValue`."
      },
      "flashFee(address,uint256)": {
        "details": "Returns the fee applied when doing flash loans. By default this implementation has 0 fees. This function can be overloaded to make the flash loan mechanism deflationary.",
        "params": {
          "amount": "The amount of tokens to be loaned.",
          "token": "The token to be flash loaned."
        },
        "returns": {
          "_0": "The fees applied to the corresponding flash loan."
        }
      },
      "flashLoan(address,address,uint256,bytes)": {
        "details": "Performs a flash loan. New tokens are minted and sent to the `receiver`, who is required to implement the {IERC3156FlashBorrower} interface. By the end of the flash loan, the receiver is expected to own amount + fee tokens and have them approved back to the token contract itself so they can be burned.",
        "params": {
          "amount": "The amount of tokens to be loaned.",
          "data": "An arbitrary datafield that is passed to the receiver.",
          "receiver": "The receiver of the flash loan. Should implement the {IERC3156FlashBorrower.onFlashLoan} interface.",
          "token": "The token to be flash loaned. Only `address(this)` is supported."
        },
        "returns": {
          "_0": "`true` is the flash loan was successfull."
        }
      },
      "increaseAllowance(address,uint256)": {
        "details": "Atomically increases the allowance granted to `spender` by the caller. This is an alternative to {approve} that can be used as a mitigation for problems described in {IERC20-approve}. Emits an {Approval} event indicating the updated allowance. Requirements: - `spender` cannot be the zero address."
      },
      "maxFlashLoan(address)": {
        "details": "Returns the maximum amount of tokens available for loan.",
        "params": {
          "token": "The address of the token that is requested."
        },
        "returns": {
          "_0": "The amont of token that can be loaned."
        }
      },
      "name()": {
        "details": "Returns the name of the token."
      },
      "symbol()": {
        "details": "Returns the symbol of the token, usually a shorter version of the name."
      },
      "totalSupply()": {
        "details": "See {IERC20-totalSupply}."
      },
      "transfer(address,uint256)": {
        "details": "See {IERC20-transfer}. Requirements: - `recipient` cannot be the zero address. - the caller must have a balance of at least `amount`."
      },
      "transferFrom(address,address,uint256)": {
        "details": "See {IERC20-transferFrom}. Emits an {Approval} event indicating the updated allowance. This is not required by the EIP. See the note at the beginning of {ERC20}. Requirements: - `sender` and `recipient` cannot be the zero address. - `sender` must have a balance of at least `amount`. - the caller must have allowance for ``sender``'s tokens of at least `amount`."
      }
    },
    "version": 1
  },
  "userdoc": {
    "kind": "user",
    "methods": {},
    "version": 1
  }
}