{
  "contractName": "ERC2771ContextMock",
  "abi": [
    {
      "inputs": [
        {
          "internalType": "address",
          "name": "trustedForwarder",
          "type": "address"
        }
      ],
      "stateMutability": "nonpayable",
      "type": "constructor"
    },
    {
      "anonymous": false,
      "inputs": [
        {
          "indexed": false,
          "internalType": "bytes",
          "name": "data",
          "type": "bytes"
        },
        {
          "indexed": false,
          "internalType": "uint256",
          "name": "integerValue",
          "type": "uint256"
        },
        {
          "indexed": false,
          "internalType": "string",
          "name": "stringValue",
          "type": "string"
        }
      ],
      "name": "Data",
      "type": "event"
    },
    {
      "anonymous": false,
      "inputs": [
        {
          "indexed": false,
          "internalType": "address",
          "name": "sender",
          "type": "address"
        }
      ],
      "name": "Sender",
      "type": "event"
    },
    {
      "inputs": [
        {
          "internalType": "address",
          "name": "forwarder",
          "type": "address"
        }
      ],
      "name": "isTrustedForwarder",
      "outputs": [
        {
          "internalType": "bool",
          "name": "",
          "type": "bool"
        }
      ],
      "stateMutability": "view",
      "type": "function"
    },
    {
      "inputs": [
        {
          "internalType": "uint256",
          "name": "integerValue",
          "type": "uint256"
        },
        {
          "internalType": "string",
          "name": "stringValue",
          "type": "string"
        }
      ],
      "name": "msgData",
      "outputs": [],
      "stateMutability": "nonpayable",
      "type": "function"
    },
    {
      "inputs": [],
      "name": "msgSender",
      "outputs": [],
      "stateMutability": "nonpayable",
      "type": "function"
    }
  ],
  "bytecode": "0x60a060405234801561001057600080fd5b506040516107df3803806107df83398181016040528101906100329190610086565b808073ffffffffffffffffffffffffffffffffffffffff1660808173ffffffffffffffffffffffffffffffffffffffff1660601b8152505050506100f8565b600081519050610080816100e1565b92915050565b60006020828403121561009857600080fd5b60006100a684828501610071565b91505092915050565b60006100ba826100c1565b9050919050565b600073ffffffffffffffffffffffffffffffffffffffff82169050919050565b6100ea816100af565b81146100f557600080fd5b50565b60805160601c6106ca610115600039600060e701526106ca6000f3fe608060405234801561001057600080fd5b50600436106100415760003560e01c8063376bf26214610046578063572b6c0514610062578063d737d0c714610092575b600080fd5b610060600480360381019061005b91906102ee565b61009c565b005b61007c600480360381019061007791906102c5565b6100e3565b60405161008991906103f0565b60405180910390f35b61009a61013b565b005b7faf235354a0a47c91ee171961326335cb2d1a8e55b8a89859b0e61eb049e50ea06100c561017b565b84846040516100d7949392919061040b565b60405180910390a15050565b60007f000000000000000000000000000000000000000000000000000000000000000073ffffffffffffffffffffffffffffffffffffffff168273ffffffffffffffffffffffffffffffffffffffff16149050919050565b7fd6558c3ed910d959271054471fd1c326679d9fece99c5091b00ed89627cf2bfc61016461018e565b60405161017191906103d5565b60405180910390a1565b36600061018661019d565b915091509091565b60006101986101ec565b905090565b3660006101a9336100e3565b156101db57600036600090601460003690506101c59190610508565b926101d2939291906104d5565b915091506101e8565b6101e361021e565b915091505b9091565b60006101f7336100e3565b1561020b57601436033560601c905061021a565b61021361022b565b905061021b565b5b90565b3660008036915091509091565b600033905090565b600061024661024184610477565b610452565b90508281526020810184848401111561025e57600080fd5b610269848285610584565b509392505050565b60008135905061028081610666565b92915050565b600082601f83011261029757600080fd5b81356102a7848260208601610233565b91505092915050565b6000813590506102bf8161067d565b92915050565b6000602082840312156102d757600080fd5b60006102e584828501610271565b91505092915050565b6000806040838503121561030157600080fd5b600061030f858286016102b0565b925050602083013567ffffffffffffffff81111561032c57600080fd5b61033885828601610286565b9150509250929050565b61034b8161053c565b82525050565b61035a8161054e565b82525050565b600061036c83856104b3565b9350610379838584610584565b61038283610655565b840190509392505050565b6000610398826104a8565b6103a281856104c4565b93506103b2818560208601610593565b6103bb81610655565b840191505092915050565b6103cf8161057a565b82525050565b60006020820190506103ea6000830184610342565b92915050565b60006020820190506104056000830184610351565b92915050565b60006060820190508181036000830152610426818688610360565b905061043560208301856103c6565b8181036040830152610447818461038d565b905095945050505050565b600061045c61046d565b905061046882826105c6565b919050565b6000604051905090565b600067ffffffffffffffff82111561049257610491610626565b5b61049b82610655565b9050602081019050919050565b600081519050919050565b600082825260208201905092915050565b600082825260208201905092915050565b600080858511156104e557600080fd5b838611156104f257600080fd5b6001850283019150848603905094509492505050565b60006105138261057a565b915061051e8361057a565b925082821015610531576105306105f7565b5b828203905092915050565b60006105478261055a565b9050919050565b60008115159050919050565b600073ffffffffffffffffffffffffffffffffffffffff82169050919050565b6000819050919050565b82818337600083830152505050565b60005b838110156105b1578082015181840152602081019050610596565b838111156105c0576000848401525b50505050565b6105cf82610655565b810181811067ffffffffffffffff821117156105ee576105ed610626565b5b80604052505050565b7f4e487b7100000000000000000000000000000000000000000000000000000000600052601160045260246000fd5b7f4e487b7100000000000000000000000000000000000000000000000000000000600052604160045260246000fd5b6000601f19601f8301169050919050565b61066f8161053c565b811461067a57600080fd5b50565b6106868161057a565b811461069157600080fd5b5056fea264697066735822122041dda57e0dd4619324f83aa9376b18398b1896194962ac50b2f022d582a2e4e264736f6c63430008040033",
  "immutableReferences": {
    "2331": [
      {
        "length": 32,
        "start": 231
      }
    ]
  },
  "source": "// SPDX-License-Identifier: MIT\n\npragma solidity ^0.8.0;\n\nimport \"./ContextMock.sol\";\nimport \"../metatx/ERC2771Context.sol\";\n\n// By inheriting from ERC2771Context, Context's internal functions are overridden automatically\ncontract ERC2771ContextMock is ContextMock, ERC2771Context {\n    constructor(address trustedForwarder) ERC2771Context(trustedForwarder) {}\n\n    function _msgSender() internal override(Context, ERC2771Context) view virtual returns (address) {\n        return ERC2771Context._msgSender();\n    }\n\n    function _msgData() internal override(Context, ERC2771Context) view virtual returns (bytes calldata) {\n        return ERC2771Context._msgData();\n    }\n}\n",
  "sourcePath": "C:/Users/Husnain/Documents/Projects/Fanbase/New/fanbase/packages/ethereum/contracts/solidity/openzeppelin/contracts/mocks/ERC2771ContextMock.sol",
  "compiler": {
    "name": "solc",
    "version": "0.8.4+commit.c7e474f2.Emscripten.clang"
  },
  "schemaVersion": "3.4.1",
  "updatedAt": "2021-06-06T20:07:31.856Z",
  "devdoc": {
    "kind": "dev",
    "methods": {},
    "version": 1
  },
  "userdoc": {
    "kind": "user",
    "methods": {},
    "version": 1
  }
}