{
  "contractName": "ERC20SnapshotMock",
  "abi": [
    {
      "inputs": [
        {
          "internalType": "string",
          "name": "name",
          "type": "string"
        },
        {
          "internalType": "string",
          "name": "symbol",
          "type": "string"
        },
        {
          "internalType": "address",
          "name": "initialAccount",
          "type": "address"
        },
        {
          "internalType": "uint256",
          "name": "initialBalance",
          "type": "uint256"
        }
      ],
      "stateMutability": "nonpayable",
      "type": "constructor"
    },
    {
      "anonymous": false,
      "inputs": [
        {
          "indexed": true,
          "internalType": "address",
          "name": "owner",
          "type": "address"
        },
        {
          "indexed": true,
          "internalType": "address",
          "name": "spender",
          "type": "address"
        },
        {
          "indexed": false,
          "internalType": "uint256",
          "name": "value",
          "type": "uint256"
        }
      ],
      "name": "Approval",
      "type": "event"
    },
    {
      "anonymous": false,
      "inputs": [
        {
          "indexed": false,
          "internalType": "uint256",
          "name": "id",
          "type": "uint256"
        }
      ],
      "name": "Snapshot",
      "type": "event"
    },
    {
      "anonymous": false,
      "inputs": [
        {
          "indexed": true,
          "internalType": "address",
          "name": "from",
          "type": "address"
        },
        {
          "indexed": true,
          "internalType": "address",
          "name": "to",
          "type": "address"
        },
        {
          "indexed": false,
          "internalType": "uint256",
          "name": "value",
          "type": "uint256"
        }
      ],
      "name": "Transfer",
      "type": "event"
    },
    {
      "inputs": [
        {
          "internalType": "address",
          "name": "owner",
          "type": "address"
        },
        {
          "internalType": "address",
          "name": "spender",
          "type": "address"
        }
      ],
      "name": "allowance",
      "outputs": [
        {
          "internalType": "uint256",
          "name": "",
          "type": "uint256"
        }
      ],
      "stateMutability": "view",
      "type": "function"
    },
    {
      "inputs": [
        {
          "internalType": "address",
          "name": "spender",
          "type": "address"
        },
        {
          "internalType": "uint256",
          "name": "amount",
          "type": "uint256"
        }
      ],
      "name": "approve",
      "outputs": [
        {
          "internalType": "bool",
          "name": "",
          "type": "bool"
        }
      ],
      "stateMutability": "nonpayable",
      "type": "function"
    },
    {
      "inputs": [
        {
          "internalType": "address",
          "name": "account",
          "type": "address"
        }
      ],
      "name": "balanceOf",
      "outputs": [
        {
          "internalType": "uint256",
          "name": "",
          "type": "uint256"
        }
      ],
      "stateMutability": "view",
      "type": "function"
    },
    {
      "inputs": [
        {
          "internalType": "address",
          "name": "account",
          "type": "address"
        },
        {
          "internalType": "uint256",
          "name": "snapshotId",
          "type": "uint256"
        }
      ],
      "name": "balanceOfAt",
      "outputs": [
        {
          "internalType": "uint256",
          "name": "",
          "type": "uint256"
        }
      ],
      "stateMutability": "view",
      "type": "function"
    },
    {
      "inputs": [],
      "name": "decimals",
      "outputs": [
        {
          "internalType": "uint8",
          "name": "",
          "type": "uint8"
        }
      ],
      "stateMutability": "view",
      "type": "function"
    },
    {
      "inputs": [
        {
          "internalType": "address",
          "name": "spender",
          "type": "address"
        },
        {
          "internalType": "uint256",
          "name": "subtractedValue",
          "type": "uint256"
        }
      ],
      "name": "decreaseAllowance",
      "outputs": [
        {
          "internalType": "bool",
          "name": "",
          "type": "bool"
        }
      ],
      "stateMutability": "nonpayable",
      "type": "function"
    },
    {
      "inputs": [
        {
          "internalType": "address",
          "name": "spender",
          "type": "address"
        },
        {
          "internalType": "uint256",
          "name": "addedValue",
          "type": "uint256"
        }
      ],
      "name": "increaseAllowance",
      "outputs": [
        {
          "internalType": "bool",
          "name": "",
          "type": "bool"
        }
      ],
      "stateMutability": "nonpayable",
      "type": "function"
    },
    {
      "inputs": [],
      "name": "name",
      "outputs": [
        {
          "internalType": "string",
          "name": "",
          "type": "string"
        }
      ],
      "stateMutability": "view",
      "type": "function"
    },
    {
      "inputs": [],
      "name": "symbol",
      "outputs": [
        {
          "internalType": "string",
          "name": "",
          "type": "string"
        }
      ],
      "stateMutability": "view",
      "type": "function"
    },
    {
      "inputs": [],
      "name": "totalSupply",
      "outputs": [
        {
          "internalType": "uint256",
          "name": "",
          "type": "uint256"
        }
      ],
      "stateMutability": "view",
      "type": "function"
    },
    {
      "inputs": [
        {
          "internalType": "uint256",
          "name": "snapshotId",
          "type": "uint256"
        }
      ],
      "name": "totalSupplyAt",
      "outputs": [
        {
          "internalType": "uint256",
          "name": "",
          "type": "uint256"
        }
      ],
      "stateMutability": "view",
      "type": "function"
    },
    {
      "inputs": [
        {
          "internalType": "address",
          "name": "recipient",
          "type": "address"
        },
        {
          "internalType": "uint256",
          "name": "amount",
          "type": "uint256"
        }
      ],
      "name": "transfer",
      "outputs": [
        {
          "internalType": "bool",
          "name": "",
          "type": "bool"
        }
      ],
      "stateMutability": "nonpayable",
      "type": "function"
    },
    {
      "inputs": [
        {
          "internalType": "address",
          "name": "sender",
          "type": "address"
        },
        {
          "internalType": "address",
          "name": "recipient",
          "type": "address"
        },
        {
          "internalType": "uint256",
          "name": "amount",
          "type": "uint256"
        }
      ],
      "name": "transferFrom",
      "outputs": [
        {
          "internalType": "bool",
          "name": "",
          "type": "bool"
        }
      ],
      "stateMutability": "nonpayable",
      "type": "function"
    },
    {
      "inputs": [],
      "name": "snapshot",
      "outputs": [],
      "stateMutability": "nonpayable",
      "type": "function"
    },
    {
      "inputs": [
        {
          "internalType": "address",
          "name": "account",
          "type": "address"
        },
        {
          "internalType": "uint256",
          "name": "amount",
          "type": "uint256"
        }
      ],
      "name": "mint",
      "outputs": [],
      "stateMutability": "nonpayable",
      "type": "function"
    },
    {
      "inputs": [
        {
          "internalType": "address",
          "name": "account",
          "type": "address"
        },
        {
          "internalType": "uint256",
          "name": "amount",
          "type": "uint256"
        }
      ],
      "name": "burn",
      "outputs": [],
      "stateMutability": "nonpayable",
      "type": "function"
    }
  ],
  "bytecode": "0x60806040523480156200001157600080fd5b5060405162002b4d38038062002b4d833981810160405281019062000037919062000647565b8383816003908051906020019062000051929190620004f7565b5080600490805190602001906200006a929190620004f7565b5050506200007f82826200008960201b60201c565b5050505062000a3f565b600073ffffffffffffffffffffffffffffffffffffffff168273ffffffffffffffffffffffffffffffffffffffff161415620000fc576040517f08c379a0000000000000000000000000000000000000000000000000000000008152600401620000f3906200071d565b60405180910390fd5b6200011060008383620001ee60201b60201c565b8060026000828254620001249190620007cc565b92505081905550806000808473ffffffffffffffffffffffffffffffffffffffff1673ffffffffffffffffffffffffffffffffffffffff16815260200190815260200160002060008282546200017b9190620007cc565b925050819055508173ffffffffffffffffffffffffffffffffffffffff16600073ffffffffffffffffffffffffffffffffffffffff167fddf252ad1be2c89b69c2b068fc378daa952ba7f163c4a11628f55a4df523b3ef83604051620001e291906200073f565b60405180910390a35050565b62000206838383620002e960201b620009081760201c565b600073ffffffffffffffffffffffffffffffffffffffff168373ffffffffffffffffffffffffffffffffffffffff16141562000263576200024d82620002ee60201b60201c565b6200025d6200035160201b60201c565b620002e4565b600073ffffffffffffffffffffffffffffffffffffffff168273ffffffffffffffffffffffffffffffffffffffff161415620002c057620002aa83620002ee60201b60201c565b620002ba6200035160201b60201c565b620002e3565b620002d183620002ee60201b60201c565b620002e282620002ee60201b60201c565b5b5b505050565b505050565b6200034e600560008373ffffffffffffffffffffffffffffffffffffffff1673ffffffffffffffffffffffffffffffffffffffff16815260200190815260200160002062000342836200037560201b60201c565b620003bd60201b60201c565b50565b620003736006620003676200044960201b60201c565b620003bd60201b60201c565b565b60008060008373ffffffffffffffffffffffffffffffffffffffff1673ffffffffffffffffffffffffffffffffffffffff168152602001908152602001600020549050919050565b6000620003cf6200045360201b60201c565b905080620003e6846000016200047160201b60201c565b1015620004445782600001819080600181540180825580915050600190039060005260206000200160009091909190915055826001018290806001815401808255809150506001900390600052602060002001600090919091909150555b505050565b6000600254905090565b60006200046c6008620004e960201b6200090d1760201c565b905090565b600080828054905014156200048a5760009050620004e4565b81600183805490506200049e919062000829565b81548110620004d6577f4e487b7100000000000000000000000000000000000000000000000000000000600052603260045260246000fd5b906000526020600020015490505b919050565b600081600001549050919050565b8280546200050590620008d8565b90600052602060002090601f01602090048101928262000529576000855562000575565b82601f106200054457805160ff191683800117855562000575565b8280016001018555821562000575579182015b828111156200057457825182559160200191906001019062000557565b5b50905062000584919062000588565b5090565b5b80821115620005a357600081600090555060010162000589565b5090565b6000620005be620005b88462000785565b6200075c565b905082815260208101848484011115620005d757600080fd5b620005e4848285620008a2565b509392505050565b600081519050620005fd8162000a0b565b92915050565b600082601f8301126200061557600080fd5b815162000627848260208601620005a7565b91505092915050565b600081519050620006418162000a25565b92915050565b600080600080608085870312156200065e57600080fd5b600085015167ffffffffffffffff8111156200067957600080fd5b620006878782880162000603565b945050602085015167ffffffffffffffff811115620006a557600080fd5b620006b38782880162000603565b9350506040620006c687828801620005ec565b9250506060620006d98782880162000630565b91505092959194509250565b6000620006f4601f83620007bb565b91506200070182620009e2565b602082019050919050565b620007178162000898565b82525050565b600060208201905081810360008301526200073881620006e5565b9050919050565b60006020820190506200075660008301846200070c565b92915050565b6000620007686200077b565b90506200077682826200090e565b919050565b6000604051905090565b600067ffffffffffffffff821115620007a357620007a2620009a2565b5b620007ae82620009d1565b9050602081019050919050565b600082825260208201905092915050565b6000620007d98262000898565b9150620007e68362000898565b9250827fffffffffffffffffffffffffffffffffffffffffffffffffffffffffffffffff038211156200081e576200081d62000944565b5b828201905092915050565b6000620008368262000898565b9150620008438362000898565b92508282101562000859576200085862000944565b5b828203905092915050565b6000620008718262000878565b9050919050565b600073ffffffffffffffffffffffffffffffffffffffff82169050919050565b6000819050919050565b60005b83811015620008c2578082015181840152602081019050620008a5565b83811115620008d2576000848401525b50505050565b60006002820490506001821680620008f157607f821691505b6020821081141562000908576200090762000973565b5b50919050565b6200091982620009d1565b810181811067ffffffffffffffff821117156200093b576200093a620009a2565b5b80604052505050565b7f4e487b7100000000000000000000000000000000000000000000000000000000600052601160045260246000fd5b7f4e487b7100000000000000000000000000000000000000000000000000000000600052602260045260246000fd5b7f4e487b7100000000000000000000000000000000000000000000000000000000600052604160045260246000fd5b6000601f19601f8301169050919050565b7f45524332303a206d696e7420746f20746865207a65726f206164647265737300600082015250565b62000a168162000864565b811462000a2257600080fd5b50565b62000a308162000898565b811462000a3c57600080fd5b50565b6120fe8062000a4f6000396000f3fe608060405234801561001057600080fd5b50600436106101005760003560e01c806370a08231116100975780639dc29fac116100665780639dc29fac146102c3578063a457c2d7146102df578063a9059cbb1461030f578063dd62ed3e1461033f57610100565b806370a082311461023b57806395d89b411461026b5780639711715a14610289578063981b24d01461029357610100565b8063313ce567116100d3578063313ce567146101a157806339509351146101bf57806340c10f19146101ef5780634ee2cd7e1461020b57610100565b806306fdde0314610105578063095ea7b31461012357806318160ddd1461015357806323b872dd14610171575b600080fd5b61010d61036f565b60405161011a9190611920565b60405180910390f35b61013d60048036038101906101389190611696565b610401565b60405161014a9190611905565b60405180910390f35b61015b61041f565b6040516101689190611ac2565b60405180910390f35b61018b60048036038101906101869190611647565b610429565b6040516101989190611905565b60405180910390f35b6101a9610521565b6040516101b69190611add565b60405180910390f35b6101d960048036038101906101d49190611696565b61052a565b6040516101e69190611905565b60405180910390f35b61020960048036038101906102049190611696565b6105d6565b005b61022560048036038101906102209190611696565b6105e4565b6040516102329190611ac2565b60405180910390f35b610255600480360381019061025091906115e2565b610654565b6040516102629190611ac2565b60405180910390f35b61027361069c565b6040516102809190611920565b60405180910390f35b61029161072e565b005b6102ad60048036038101906102a891906116d2565b610739565b6040516102ba9190611ac2565b60405180910390f35b6102dd60048036038101906102d89190611696565b61076a565b005b6102f960048036038101906102f49190611696565b610778565b6040516103069190611905565b60405180910390f35b61032960048036038101906103249190611696565b610863565b6040516103369190611905565b60405180910390f35b6103596004803603810190610354919061160b565b610881565b6040516103669190611ac2565b60405180910390f35b60606003805461037e90611c57565b80601f01602080910402602001604051908101604052809291908181526020018280546103aa90611c57565b80156103f75780601f106103cc576101008083540402835291602001916103f7565b820191906000526020600020905b8154815290600101906020018083116103da57829003601f168201915b5050505050905090565b600061041561040e61091b565b8484610923565b6001905092915050565b6000600254905090565b6000610436848484610aee565b6000600160008673ffffffffffffffffffffffffffffffffffffffff1673ffffffffffffffffffffffffffffffffffffffff168152602001908152602001600020600061048161091b565b73ffffffffffffffffffffffffffffffffffffffff1673ffffffffffffffffffffffffffffffffffffffff16815260200190815260200160002054905082811015610501576040517f08c379a00000000000000000000000000000000000000000000000000000000081526004016104f8906119e2565b60405180910390fd5b6105158561050d61091b565b858403610923565b60019150509392505050565b60006012905090565b60006105cc61053761091b565b84846001600061054561091b565b73ffffffffffffffffffffffffffffffffffffffff1673ffffffffffffffffffffffffffffffffffffffff16815260200190815260200160002060008873ffffffffffffffffffffffffffffffffffffffff1673ffffffffffffffffffffffffffffffffffffffff168152602001908152602001600020546105c79190611b14565b610923565b6001905092915050565b6105e08282610d64565b5050565b600080600061063184600560008873ffffffffffffffffffffffffffffffffffffffff1673ffffffffffffffffffffffffffffffffffffffff168152602001908152602001600020610eb8565b91509150816106485761064385610654565b61064a565b805b9250505092915050565b60008060008373ffffffffffffffffffffffffffffffffffffffff1673ffffffffffffffffffffffffffffffffffffffff168152602001908152602001600020549050919050565b6060600480546106ab90611c57565b80601f01602080910402602001604051908101604052809291908181526020018280546106d790611c57565b80156107245780601f106106f957610100808354040283529160200191610724565b820191906000526020600020905b81548152906001019060200180831161070757829003601f168201915b5050505050905090565b610736610fd4565b50565b6000806000610749846006610eb8565b915091508161075f5761075a61041f565b610761565b805b92505050919050565b610774828261102a565b5050565b6000806001600061078761091b565b73ffffffffffffffffffffffffffffffffffffffff1673ffffffffffffffffffffffffffffffffffffffff16815260200190815260200160002060008573ffffffffffffffffffffffffffffffffffffffff1673ffffffffffffffffffffffffffffffffffffffff16815260200190815260200160002054905082811015610844576040517f08c379a000000000000000000000000000000000000000000000000000000000815260040161083b90611a82565b60405180910390fd5b61085861084f61091b565b85858403610923565b600191505092915050565b600061087761087061091b565b8484610aee565b6001905092915050565b6000600160008473ffffffffffffffffffffffffffffffffffffffff1673ffffffffffffffffffffffffffffffffffffffff16815260200190815260200160002060008373ffffffffffffffffffffffffffffffffffffffff1673ffffffffffffffffffffffffffffffffffffffff16815260200190815260200160002054905092915050565b505050565b600081600001549050919050565b600033905090565b600073ffffffffffffffffffffffffffffffffffffffff168373ffffffffffffffffffffffffffffffffffffffff161415610993576040517f08c379a000000000000000000000000000000000000000000000000000000000815260040161098a90611a42565b60405180910390fd5b600073ffffffffffffffffffffffffffffffffffffffff168273ffffffffffffffffffffffffffffffffffffffff161415610a03576040517f08c379a00000000000000000000000000000000000000000000000000000000081526004016109fa906119a2565b60405180910390fd5b80600160008573ffffffffffffffffffffffffffffffffffffffff1673ffffffffffffffffffffffffffffffffffffffff16815260200190815260200160002060008473ffffffffffffffffffffffffffffffffffffffff1673ffffffffffffffffffffffffffffffffffffffff168152602001908152602001600020819055508173ffffffffffffffffffffffffffffffffffffffff168373ffffffffffffffffffffffffffffffffffffffff167f8c5be1e5ebec7d5bd14f71427d1e84f3dd0314c0f7b2291e5b200ac8c7c3b92583604051610ae19190611ac2565b60405180910390a3505050565b600073ffffffffffffffffffffffffffffffffffffffff168373ffffffffffffffffffffffffffffffffffffffff161415610b5e576040517f08c379a0000000000000000000000000000000000000000000000000000000008152600401610b5590611a22565b60405180910390fd5b600073ffffffffffffffffffffffffffffffffffffffff168273ffffffffffffffffffffffffffffffffffffffff161415610bce576040517f08c379a0000000000000000000000000000000000000000000000000000000008152600401610bc590611962565b60405180910390fd5b610bd98383836111f5565b60008060008573ffffffffffffffffffffffffffffffffffffffff1673ffffffffffffffffffffffffffffffffffffffff16815260200190815260200160002054905081811015610c5f576040517f08c379a0000000000000000000000000000000000000000000000000000000008152600401610c56906119c2565b60405180910390fd5b8181036000808673ffffffffffffffffffffffffffffffffffffffff1673ffffffffffffffffffffffffffffffffffffffff16815260200190815260200160002081905550816000808573ffffffffffffffffffffffffffffffffffffffff1673ffffffffffffffffffffffffffffffffffffffff1681526020019081526020016000206000828254610cf29190611b14565b925050819055508273ffffffffffffffffffffffffffffffffffffffff168473ffffffffffffffffffffffffffffffffffffffff167fddf252ad1be2c89b69c2b068fc378daa952ba7f163c4a11628f55a4df523b3ef84604051610d569190611ac2565b60405180910390a350505050565b600073ffffffffffffffffffffffffffffffffffffffff168273ffffffffffffffffffffffffffffffffffffffff161415610dd4576040517f08c379a0000000000000000000000000000000000000000000000000000000008152600401610dcb90611aa2565b60405180910390fd5b610de0600083836111f5565b8060026000828254610df29190611b14565b92505081905550806000808473ffffffffffffffffffffffffffffffffffffffff1673ffffffffffffffffffffffffffffffffffffffff1681526020019081526020016000206000828254610e479190611b14565b925050819055508173ffffffffffffffffffffffffffffffffffffffff16600073ffffffffffffffffffffffffffffffffffffffff167fddf252ad1be2c89b69c2b068fc378daa952ba7f163c4a11628f55a4df523b3ef83604051610eac9190611ac2565b60405180910390a35050565b60008060008411610efe576040517f08c379a0000000000000000000000000000000000000000000000000000000008152600401610ef590611a62565b60405180910390fd5b610f066112af565b841115610f48576040517f08c379a0000000000000000000000000000000000000000000000000000000008152600401610f3f90611942565b60405180910390fd5b6000610f6085856000016112c090919063ffffffff16565b90508360000180549050811415610f7e576000809250925050610fcd565b6001846001018281548110610fbc577f4e487b7100000000000000000000000000000000000000000000000000000000600052603260045260246000fd5b906000526020600020015492509250505b9250929050565b6000610fe060086113e6565b6000610fea6112af565b90507f8030e83b04d87bef53480e26263266d6ca66863aa8506aca6f2559d18aa1cb678160405161101b9190611ac2565b60405180910390a18091505090565b600073ffffffffffffffffffffffffffffffffffffffff168273ffffffffffffffffffffffffffffffffffffffff16141561109a576040517f08c379a000000000000000000000000000000000000000000000000000000000815260040161109190611a02565b60405180910390fd5b6110a6826000836111f5565b60008060008473ffffffffffffffffffffffffffffffffffffffff1673ffffffffffffffffffffffffffffffffffffffff1681526020019081526020016000205490508181101561112c576040517f08c379a000000000000000000000000000000000000000000000000000000000815260040161112390611982565b60405180910390fd5b8181036000808573ffffffffffffffffffffffffffffffffffffffff1673ffffffffffffffffffffffffffffffffffffffff1681526020019081526020016000208190555081600260008282546111839190611b9b565b92505081905550600073ffffffffffffffffffffffffffffffffffffffff168373ffffffffffffffffffffffffffffffffffffffff167fddf252ad1be2c89b69c2b068fc378daa952ba7f163c4a11628f55a4df523b3ef846040516111e89190611ac2565b60405180910390a3505050565b611200838383610908565b600073ffffffffffffffffffffffffffffffffffffffff168373ffffffffffffffffffffffffffffffffffffffff16141561124b5761123e826113fc565b61124661144f565b6112aa565b600073ffffffffffffffffffffffffffffffffffffffff168273ffffffffffffffffffffffffffffffffffffffff16141561129657611289836113fc565b61129161144f565b6112a9565b61129f836113fc565b6112a8826113fc565b5b5b505050565b60006112bb600861090d565b905090565b600080838054905014156112d757600090506113e0565b600080848054905090505b808210156113615760006112f68383611463565b905084868281548110611332577f4e487b7100000000000000000000000000000000000000000000000000000000600052603260045260246000fd5b9060005260206000200154111561134b5780915061135b565b6001816113589190611b14565b92505b506112e2565b6000821180156113bf5750838560018461137b9190611b9b565b815481106113b2577f4e487b7100000000000000000000000000000000000000000000000000000000600052603260045260246000fd5b9060005260206000200154145b156113da576001826113d19190611b9b565b925050506113e0565b81925050505b92915050565b6001816000016000828254019250508190555050565b61144c600560008373ffffffffffffffffffffffffffffffffffffffff1673ffffffffffffffffffffffffffffffffffffffff16815260200190815260200160002061144783610654565b6114ca565b50565b611461600661145c61041f565b6114ca565b565b6000600280836114739190611c89565b6002856114809190611c89565b61148a9190611b14565b6114949190611b6a565b6002836114a19190611b6a565b6002856114ae9190611b6a565b6114b89190611b14565b6114c29190611b14565b905092915050565b60006114d46112af565b9050806114e384600001611545565b10156115405782600001819080600181540180825580915050600190039060005260206000200160009091909190915055826001018290806001815401808255809150506001900390600052602060002001600090919091909150555b505050565b6000808280549050141561155c57600090506115b3565b816001838054905061156e9190611b9b565b815481106115a5577f4e487b7100000000000000000000000000000000000000000000000000000000600052603260045260246000fd5b906000526020600020015490505b919050565b6000813590506115c78161209a565b92915050565b6000813590506115dc816120b1565b92915050565b6000602082840312156115f457600080fd5b6000611602848285016115b8565b91505092915050565b6000806040838503121561161e57600080fd5b600061162c858286016115b8565b925050602061163d858286016115b8565b9150509250929050565b60008060006060848603121561165c57600080fd5b600061166a868287016115b8565b935050602061167b868287016115b8565b925050604061168c868287016115cd565b9150509250925092565b600080604083850312156116a957600080fd5b60006116b7858286016115b8565b92505060206116c8858286016115cd565b9150509250929050565b6000602082840312156116e457600080fd5b60006116f2848285016115cd565b91505092915050565b61170481611be1565b82525050565b600061171582611af8565b61171f8185611b03565b935061172f818560208601611c24565b61173881611d47565b840191505092915050565b6000611750601d83611b03565b915061175b82611d58565b602082019050919050565b6000611773602383611b03565b915061177e82611d81565b604082019050919050565b6000611796602283611b03565b91506117a182611dd0565b604082019050919050565b60006117b9602283611b03565b91506117c482611e1f565b604082019050919050565b60006117dc602683611b03565b91506117e782611e6e565b604082019050919050565b60006117ff602883611b03565b915061180a82611ebd565b604082019050919050565b6000611822602183611b03565b915061182d82611f0c565b604082019050919050565b6000611845602583611b03565b915061185082611f5b565b604082019050919050565b6000611868602483611b03565b915061187382611faa565b604082019050919050565b600061188b601683611b03565b915061189682611ff9565b602082019050919050565b60006118ae602583611b03565b91506118b982612022565b604082019050919050565b60006118d1601f83611b03565b91506118dc82612071565b602082019050919050565b6118f081611c0d565b82525050565b6118ff81611c17565b82525050565b600060208201905061191a60008301846116fb565b92915050565b6000602082019050818103600083015261193a818461170a565b905092915050565b6000602082019050818103600083015261195b81611743565b9050919050565b6000602082019050818103600083015261197b81611766565b9050919050565b6000602082019050818103600083015261199b81611789565b9050919050565b600060208201905081810360008301526119bb816117ac565b9050919050565b600060208201905081810360008301526119db816117cf565b9050919050565b600060208201905081810360008301526119fb816117f2565b9050919050565b60006020820190508181036000830152611a1b81611815565b9050919050565b60006020820190508181036000830152611a3b81611838565b9050919050565b60006020820190508181036000830152611a5b8161185b565b9050919050565b60006020820190508181036000830152611a7b8161187e565b9050919050565b60006020820190508181036000830152611a9b816118a1565b9050919050565b60006020820190508181036000830152611abb816118c4565b9050919050565b6000602082019050611ad760008301846118e7565b92915050565b6000602082019050611af260008301846118f6565b92915050565b600081519050919050565b600082825260208201905092915050565b6000611b1f82611c0d565b9150611b2a83611c0d565b9250827fffffffffffffffffffffffffffffffffffffffffffffffffffffffffffffffff03821115611b5f57611b5e611cba565b5b828201905092915050565b6000611b7582611c0d565b9150611b8083611c0d565b925082611b9057611b8f611ce9565b5b828204905092915050565b6000611ba682611c0d565b9150611bb183611c0d565b925082821015611bc457611bc3611cba565b5b828203905092915050565b6000611bda82611bed565b9050919050565b60008115159050919050565b600073ffffffffffffffffffffffffffffffffffffffff82169050919050565b6000819050919050565b600060ff82169050919050565b60005b83811015611c42578082015181840152602081019050611c27565b83811115611c51576000848401525b50505050565b60006002820490506001821680611c6f57607f821691505b60208210811415611c8357611c82611d18565b5b50919050565b6000611c9482611c0d565b9150611c9f83611c0d565b925082611caf57611cae611ce9565b5b828206905092915050565b7f4e487b7100000000000000000000000000000000000000000000000000000000600052601160045260246000fd5b7f4e487b7100000000000000000000000000000000000000000000000000000000600052601260045260246000fd5b7f4e487b7100000000000000000000000000000000000000000000000000000000600052602260045260246000fd5b6000601f19601f8301169050919050565b7f4552433230536e617073686f743a206e6f6e6578697374656e74206964000000600082015250565b7f45524332303a207472616e7366657220746f20746865207a65726f206164647260008201527f6573730000000000000000000000000000000000000000000000000000000000602082015250565b7f45524332303a206275726e20616d6f756e7420657863656564732062616c616e60008201527f6365000000000000000000000000000000000000000000000000000000000000602082015250565b7f45524332303a20617070726f766520746f20746865207a65726f20616464726560008201527f7373000000000000000000000000000000000000000000000000000000000000602082015250565b7f45524332303a207472616e7366657220616d6f756e742065786365656473206260008201527f616c616e63650000000000000000000000000000000000000000000000000000602082015250565b7f45524332303a207472616e7366657220616d6f756e742065786365656473206160008201527f6c6c6f77616e6365000000000000000000000000000000000000000000000000602082015250565b7f45524332303a206275726e2066726f6d20746865207a65726f2061646472657360008201527f7300000000000000000000000000000000000000000000000000000000000000602082015250565b7f45524332303a207472616e736665722066726f6d20746865207a65726f20616460008201527f6472657373000000000000000000000000000000000000000000000000000000602082015250565b7f45524332303a20617070726f76652066726f6d20746865207a65726f2061646460008201527f7265737300000000000000000000000000000000000000000000000000000000602082015250565b7f4552433230536e617073686f743a206964206973203000000000000000000000600082015250565b7f45524332303a2064656372656173656420616c6c6f77616e63652062656c6f7760008201527f207a65726f000000000000000000000000000000000000000000000000000000602082015250565b7f45524332303a206d696e7420746f20746865207a65726f206164647265737300600082015250565b6120a381611bcf565b81146120ae57600080fd5b50565b6120ba81611c0d565b81146120c557600080fd5b5056fea2646970667358221220b7458684a7904b895c419c16d2afbc672ef1daeb9471163dbe389ad75f90052664736f6c63430008040033",
  "immutableReferences": {},
  "source": "// SPDX-License-Identifier: MIT\n\npragma solidity ^0.8.0;\n\nimport \"../token/ERC20/extensions/ERC20Snapshot.sol\";\n\n\ncontract ERC20SnapshotMock is ERC20Snapshot {\n    constructor(\n        string memory name,\n        string memory symbol,\n        address initialAccount,\n        uint256 initialBalance\n    ) ERC20(name, symbol) {\n        _mint(initialAccount, initialBalance);\n    }\n\n    function snapshot() public {\n        _snapshot();\n    }\n\n    function mint(address account, uint256 amount) public {\n        _mint(account, amount);\n    }\n\n    function burn(address account, uint256 amount) public {\n        _burn(account, amount);\n    }\n}\n",
  "sourcePath": "C:/Users/Husnain/Documents/Projects/Fanbase/New/fanbase/packages/ethereum/contracts/solidity/openzeppelin/contracts/mocks/ERC20SnapshotMock.sol",
  "compiler": {
    "name": "solc",
    "version": "0.8.4+commit.c7e474f2.Emscripten.clang"
  },
  "schemaVersion": "3.4.1",
  "updatedAt": "2021-06-06T20:07:31.833Z",
  "devdoc": {
    "kind": "dev",
    "methods": {
      "allowance(address,address)": {
        "details": "See {IERC20-allowance}."
      },
      "approve(address,uint256)": {
        "details": "See {IERC20-approve}. Requirements: - `spender` cannot be the zero address."
      },
      "balanceOf(address)": {
        "details": "See {IERC20-balanceOf}."
      },
      "balanceOfAt(address,uint256)": {
        "details": "Retrieves the balance of `account` at the time `snapshotId` was created."
      },
      "decimals()": {
        "details": "Returns the number of decimals used to get its user representation. For example, if `decimals` equals `2`, a balance of `505` tokens should be displayed to a user as `5,05` (`505 / 10 ** 2`). Tokens usually opt for a value of 18, imitating the relationship between Ether and Wei. This is the value {ERC20} uses, unless this function is overridden; NOTE: This information is only used for _display_ purposes: it in no way affects any of the arithmetic of the contract, including {IERC20-balanceOf} and {IERC20-transfer}."
      },
      "decreaseAllowance(address,uint256)": {
        "details": "Atomically decreases the allowance granted to `spender` by the caller. This is an alternative to {approve} that can be used as a mitigation for problems described in {IERC20-approve}. Emits an {Approval} event indicating the updated allowance. Requirements: - `spender` cannot be the zero address. - `spender` must have allowance for the caller of at least `subtractedValue`."
      },
      "increaseAllowance(address,uint256)": {
        "details": "Atomically increases the allowance granted to `spender` by the caller. This is an alternative to {approve} that can be used as a mitigation for problems described in {IERC20-approve}. Emits an {Approval} event indicating the updated allowance. Requirements: - `spender` cannot be the zero address."
      },
      "name()": {
        "details": "Returns the name of the token."
      },
      "symbol()": {
        "details": "Returns the symbol of the token, usually a shorter version of the name."
      },
      "totalSupply()": {
        "details": "See {IERC20-totalSupply}."
      },
      "totalSupplyAt(uint256)": {
        "details": "Retrieves the total supply at the time `snapshotId` was created."
      },
      "transfer(address,uint256)": {
        "details": "See {IERC20-transfer}. Requirements: - `recipient` cannot be the zero address. - the caller must have a balance of at least `amount`."
      },
      "transferFrom(address,address,uint256)": {
        "details": "See {IERC20-transferFrom}. Emits an {Approval} event indicating the updated allowance. This is not required by the EIP. See the note at the beginning of {ERC20}. Requirements: - `sender` and `recipient` cannot be the zero address. - `sender` must have a balance of at least `amount`. - the caller must have allowance for ``sender``'s tokens of at least `amount`."
      }
    },
    "version": 1
  },
  "userdoc": {
    "kind": "user",
    "methods": {},
    "version": 1
  }
}