{
  "contractName": "ERC20ReturnTrueMock",
  "abi": [
    {
      "inputs": [
        {
          "internalType": "address",
          "name": "",
          "type": "address"
        },
        {
          "internalType": "uint256",
          "name": "",
          "type": "uint256"
        }
      ],
      "name": "transfer",
      "outputs": [
        {
          "internalType": "bool",
          "name": "",
          "type": "bool"
        }
      ],
      "stateMutability": "nonpayable",
      "type": "function"
    },
    {
      "inputs": [
        {
          "internalType": "address",
          "name": "",
          "type": "address"
        },
        {
          "internalType": "address",
          "name": "",
          "type": "address"
        },
        {
          "internalType": "uint256",
          "name": "",
          "type": "uint256"
        }
      ],
      "name": "transferFrom",
      "outputs": [
        {
          "internalType": "bool",
          "name": "",
          "type": "bool"
        }
      ],
      "stateMutability": "nonpayable",
      "type": "function"
    },
    {
      "inputs": [
        {
          "internalType": "address",
          "name": "",
          "type": "address"
        },
        {
          "internalType": "uint256",
          "name": "",
          "type": "uint256"
        }
      ],
      "name": "approve",
      "outputs": [
        {
          "internalType": "bool",
          "name": "",
          "type": "bool"
        }
      ],
      "stateMutability": "nonpayable",
      "type": "function"
    },
    {
      "inputs": [
        {
          "internalType": "uint256",
          "name": "allowance_",
          "type": "uint256"
        }
      ],
      "name": "setAllowance",
      "outputs": [],
      "stateMutability": "nonpayable",
      "type": "function"
    },
    {
      "inputs": [
        {
          "internalType": "address",
          "name": "owner",
          "type": "address"
        },
        {
          "internalType": "address",
          "name": "",
          "type": "address"
        }
      ],
      "name": "allowance",
      "outputs": [
        {
          "internalType": "uint256",
          "name": "",
          "type": "uint256"
        }
      ],
      "stateMutability": "view",
      "type": "function"
    }
  ],
  "bytecode": "0x608060405234801561001057600080fd5b5061043f806100206000396000f3fe608060405234801561001057600080fd5b50600436106100575760003560e01c8063095ea7b31461005c57806323b872dd1461008c5780633ba93f26146100bc578063a9059cbb146100d8578063dd62ed3e14610108575b600080fd5b610076600480360381019061007191906102cd565b610138565b6040516100839190610358565b60405180910390f35b6100a660048036038101906100a1919061027a565b61014b565b6040516100b39190610358565b60405180910390f35b6100d660048036038101906100d1919061030d565b61015f565b005b6100f260048036038101906100ed91906102cd565b6101ac565b6040516100ff9190610358565b60405180910390f35b610122600480360381019061011d919061023a565b6101bf565b60405161012f9190610373565b60405180910390f35b6000806001819055506001905092915050565b600080600181905550600190509392505050565b8060008061016b610208565b73ffffffffffffffffffffffffffffffffffffffff1673ffffffffffffffffffffffffffffffffffffffff1681526020019081526020016000208190555050565b6000806001819055506001905092915050565b60008060008473ffffffffffffffffffffffffffffffffffffffff1673ffffffffffffffffffffffffffffffffffffffff16815260200190815260200160002054905092915050565b600033905090565b60008135905061021f816103db565b92915050565b600081359050610234816103f2565b92915050565b60008060408385031215610251576102506103d6565b5b600061025f85828601610210565b925050602061027085828601610210565b9150509250929050565b600080600060608486031215610293576102926103d6565b5b60006102a186828701610210565b93505060206102b286828701610210565b92505060406102c386828701610225565b9150509250925092565b600080604083850312156102e4576102e36103d6565b5b60006102f285828601610210565b925050602061030385828601610225565b9150509250929050565b600060208284031215610323576103226103d6565b5b600061033184828501610225565b91505092915050565b610343816103a0565b82525050565b610352816103cc565b82525050565b600060208201905061036d600083018461033a565b92915050565b60006020820190506103886000830184610349565b92915050565b6000610399826103ac565b9050919050565b60008115159050919050565b600073ffffffffffffffffffffffffffffffffffffffff82169050919050565b6000819050919050565b600080fd5b6103e48161038e565b81146103ef57600080fd5b50565b6103fb816103cc565b811461040657600080fd5b5056fea264697066735822122079096e1aa9a514a73c15ba962172aa55bd5f305e5c35049530e9d5bcd4b51dda64736f6c63430008060033",
  "immutableReferences": {},
  "source": "// SPDX-License-Identifier: MIT\n\npragma solidity ^0.8.0;\n\nimport \"../utils/Context.sol\";\nimport \"../token/ERC20/IERC20.sol\";\nimport \"../token/ERC20/utils/SafeERC20.sol\";\n\ncontract ERC20ReturnFalseMock is Context {\n    uint256 private _allowance;\n\n    // IERC20's functions are not pure, but these mock implementations are: to prevent Solidity from issuing warnings,\n    // we write to a dummy state variable.\n    uint256 private _dummy;\n\n    function transfer(address, uint256) public returns (bool) {\n        _dummy = 0;\n        return false;\n    }\n\n    function transferFrom(address, address, uint256) public returns (bool) {\n        _dummy = 0;\n        return false;\n    }\n\n    function approve(address, uint256) public returns (bool) {\n        _dummy = 0;\n        return false;\n    }\n\n    function allowance(address, address) public view returns (uint256) {\n        require(_dummy == 0); // Duummy read from a state variable so that the function is view\n        return 0;\n    }\n}\n\ncontract ERC20ReturnTrueMock is Context {\n    mapping (address => uint256) private _allowances;\n\n    // IERC20's functions are not pure, but these mock implementations are: to prevent Solidity from issuing warnings,\n    // we write to a dummy state variable.\n    uint256 private _dummy;\n\n    function transfer(address, uint256) public returns (bool) {\n        _dummy = 0;\n        return true;\n    }\n\n    function transferFrom(address, address, uint256) public returns (bool) {\n        _dummy = 0;\n        return true;\n    }\n\n    function approve(address, uint256) public returns (bool) {\n        _dummy = 0;\n        return true;\n    }\n\n    function setAllowance(uint256 allowance_) public {\n        _allowances[_msgSender()] = allowance_;\n    }\n\n    function allowance(address owner, address) public view returns (uint256) {\n        return _allowances[owner];\n    }\n}\n\ncontract ERC20NoReturnMock is Context {\n    mapping (address => uint256) private _allowances;\n\n    // IERC20's functions are not pure, but these mock implementations are: to prevent Solidity from issuing warnings,\n    // we write to a dummy state variable.\n    uint256 private _dummy;\n\n    function transfer(address, uint256) public {\n        _dummy = 0;\n    }\n\n    function transferFrom(address, address, uint256) public {\n        _dummy = 0;\n    }\n\n    function approve(address, uint256) public {\n        _dummy = 0;\n    }\n\n    function setAllowance(uint256 allowance_) public {\n        _allowances[_msgSender()] = allowance_;\n    }\n\n    function allowance(address owner, address) public view returns (uint256) {\n        return _allowances[owner];\n    }\n}\n\ncontract SafeERC20Wrapper is Context {\n    using SafeERC20 for IERC20;\n\n    IERC20 private _token;\n\n    constructor (IERC20 token) {\n        _token = token;\n    }\n\n    function transfer() public {\n        _token.safeTransfer(address(0), 0);\n    }\n\n    function transferFrom() public {\n        _token.safeTransferFrom(address(0), address(0), 0);\n    }\n\n    function approve(uint256 amount) public {\n        _token.safeApprove(address(0), amount);\n    }\n\n    function increaseAllowance(uint256 amount) public {\n        _token.safeIncreaseAllowance(address(0), amount);\n    }\n\n    function decreaseAllowance(uint256 amount) public {\n        _token.safeDecreaseAllowance(address(0), amount);\n    }\n\n    function setAllowance(uint256 allowance_) public {\n        ERC20ReturnTrueMock(address(_token)).setAllowance(allowance_);\n    }\n\n    function allowance() public view returns (uint256) {\n        return _token.allowance(address(0), address(0));\n    }\n}\n",
  "sourcePath": "C:/Users/Husnain/Documents/Projects/Fanbase/New/fanbase/packages/ethereum/contracts/solidity/openzeppelin/contracts/mocks/SafeERC20Helper.sol",
  "compiler": {
    "name": "solc",
    "version": "0.8.6+commit.11564f7e.Emscripten.clang"
  },
  "schemaVersion": "3.4.1",
  "updatedAt": "2021-07-06T14:02:45.970Z",
  "devdoc": {
    "kind": "dev",
    "methods": {},
    "version": 1
  },
  "userdoc": {
    "kind": "user",
    "methods": {},
    "version": 1
  }
}