{
  "contractName": "ERC20VotesMock",
  "abi": [
    {
      "inputs": [
        {
          "internalType": "string",
          "name": "name",
          "type": "string"
        },
        {
          "internalType": "string",
          "name": "symbol",
          "type": "string"
        }
      ],
      "stateMutability": "nonpayable",
      "type": "constructor"
    },
    {
      "anonymous": false,
      "inputs": [
        {
          "indexed": true,
          "internalType": "address",
          "name": "owner",
          "type": "address"
        },
        {
          "indexed": true,
          "internalType": "address",
          "name": "spender",
          "type": "address"
        },
        {
          "indexed": false,
          "internalType": "uint256",
          "name": "value",
          "type": "uint256"
        }
      ],
      "name": "Approval",
      "type": "event"
    },
    {
      "anonymous": false,
      "inputs": [
        {
          "indexed": true,
          "internalType": "address",
          "name": "delegator",
          "type": "address"
        },
        {
          "indexed": true,
          "internalType": "address",
          "name": "fromDelegate",
          "type": "address"
        },
        {
          "indexed": true,
          "internalType": "address",
          "name": "toDelegate",
          "type": "address"
        }
      ],
      "name": "DelegateChanged",
      "type": "event"
    },
    {
      "anonymous": false,
      "inputs": [
        {
          "indexed": true,
          "internalType": "address",
          "name": "delegate",
          "type": "address"
        },
        {
          "indexed": false,
          "internalType": "uint256",
          "name": "previousBalance",
          "type": "uint256"
        },
        {
          "indexed": false,
          "internalType": "uint256",
          "name": "newBalance",
          "type": "uint256"
        }
      ],
      "name": "DelegateVotesChanged",
      "type": "event"
    },
    {
      "anonymous": false,
      "inputs": [
        {
          "indexed": true,
          "internalType": "address",
          "name": "from",
          "type": "address"
        },
        {
          "indexed": true,
          "internalType": "address",
          "name": "to",
          "type": "address"
        },
        {
          "indexed": false,
          "internalType": "uint256",
          "name": "value",
          "type": "uint256"
        }
      ],
      "name": "Transfer",
      "type": "event"
    },
    {
      "inputs": [],
      "name": "DOMAIN_SEPARATOR",
      "outputs": [
        {
          "internalType": "bytes32",
          "name": "",
          "type": "bytes32"
        }
      ],
      "stateMutability": "view",
      "type": "function"
    },
    {
      "inputs": [
        {
          "internalType": "address",
          "name": "owner",
          "type": "address"
        },
        {
          "internalType": "address",
          "name": "spender",
          "type": "address"
        }
      ],
      "name": "allowance",
      "outputs": [
        {
          "internalType": "uint256",
          "name": "",
          "type": "uint256"
        }
      ],
      "stateMutability": "view",
      "type": "function"
    },
    {
      "inputs": [
        {
          "internalType": "address",
          "name": "spender",
          "type": "address"
        },
        {
          "internalType": "uint256",
          "name": "amount",
          "type": "uint256"
        }
      ],
      "name": "approve",
      "outputs": [
        {
          "internalType": "bool",
          "name": "",
          "type": "bool"
        }
      ],
      "stateMutability": "nonpayable",
      "type": "function"
    },
    {
      "inputs": [
        {
          "internalType": "address",
          "name": "account",
          "type": "address"
        }
      ],
      "name": "balanceOf",
      "outputs": [
        {
          "internalType": "uint256",
          "name": "",
          "type": "uint256"
        }
      ],
      "stateMutability": "view",
      "type": "function"
    },
    {
      "inputs": [
        {
          "internalType": "address",
          "name": "account",
          "type": "address"
        },
        {
          "internalType": "uint32",
          "name": "pos",
          "type": "uint32"
        }
      ],
      "name": "checkpoints",
      "outputs": [
        {
          "components": [
            {
              "internalType": "uint32",
              "name": "fromBlock",
              "type": "uint32"
            },
            {
              "internalType": "uint224",
              "name": "votes",
              "type": "uint224"
            }
          ],
          "internalType": "struct IERC20Votes.Checkpoint",
          "name": "",
          "type": "tuple"
        }
      ],
      "stateMutability": "view",
      "type": "function"
    },
    {
      "inputs": [],
      "name": "decimals",
      "outputs": [
        {
          "internalType": "uint8",
          "name": "",
          "type": "uint8"
        }
      ],
      "stateMutability": "view",
      "type": "function"
    },
    {
      "inputs": [
        {
          "internalType": "address",
          "name": "spender",
          "type": "address"
        },
        {
          "internalType": "uint256",
          "name": "subtractedValue",
          "type": "uint256"
        }
      ],
      "name": "decreaseAllowance",
      "outputs": [
        {
          "internalType": "bool",
          "name": "",
          "type": "bool"
        }
      ],
      "stateMutability": "nonpayable",
      "type": "function"
    },
    {
      "inputs": [
        {
          "internalType": "address",
          "name": "delegatee",
          "type": "address"
        }
      ],
      "name": "delegate",
      "outputs": [],
      "stateMutability": "nonpayable",
      "type": "function"
    },
    {
      "inputs": [
        {
          "internalType": "address",
          "name": "delegatee",
          "type": "address"
        },
        {
          "internalType": "uint256",
          "name": "nonce",
          "type": "uint256"
        },
        {
          "internalType": "uint256",
          "name": "expiry",
          "type": "uint256"
        },
        {
          "internalType": "uint8",
          "name": "v",
          "type": "uint8"
        },
        {
          "internalType": "bytes32",
          "name": "r",
          "type": "bytes32"
        },
        {
          "internalType": "bytes32",
          "name": "s",
          "type": "bytes32"
        }
      ],
      "name": "delegateBySig",
      "outputs": [],
      "stateMutability": "nonpayable",
      "type": "function"
    },
    {
      "inputs": [
        {
          "internalType": "address",
          "name": "account",
          "type": "address"
        }
      ],
      "name": "delegates",
      "outputs": [
        {
          "internalType": "address",
          "name": "",
          "type": "address"
        }
      ],
      "stateMutability": "view",
      "type": "function"
    },
    {
      "inputs": [
        {
          "internalType": "address",
          "name": "account",
          "type": "address"
        }
      ],
      "name": "getCurrentVotes",
      "outputs": [
        {
          "internalType": "uint256",
          "name": "",
          "type": "uint256"
        }
      ],
      "stateMutability": "view",
      "type": "function"
    },
    {
      "inputs": [
        {
          "internalType": "uint256",
          "name": "blockNumber",
          "type": "uint256"
        }
      ],
      "name": "getPriorTotalSupply",
      "outputs": [
        {
          "internalType": "uint256",
          "name": "",
          "type": "uint256"
        }
      ],
      "stateMutability": "view",
      "type": "function"
    },
    {
      "inputs": [
        {
          "internalType": "address",
          "name": "account",
          "type": "address"
        },
        {
          "internalType": "uint256",
          "name": "blockNumber",
          "type": "uint256"
        }
      ],
      "name": "getPriorVotes",
      "outputs": [
        {
          "internalType": "uint256",
          "name": "",
          "type": "uint256"
        }
      ],
      "stateMutability": "view",
      "type": "function"
    },
    {
      "inputs": [
        {
          "internalType": "address",
          "name": "spender",
          "type": "address"
        },
        {
          "internalType": "uint256",
          "name": "addedValue",
          "type": "uint256"
        }
      ],
      "name": "increaseAllowance",
      "outputs": [
        {
          "internalType": "bool",
          "name": "",
          "type": "bool"
        }
      ],
      "stateMutability": "nonpayable",
      "type": "function"
    },
    {
      "inputs": [],
      "name": "name",
      "outputs": [
        {
          "internalType": "string",
          "name": "",
          "type": "string"
        }
      ],
      "stateMutability": "view",
      "type": "function"
    },
    {
      "inputs": [
        {
          "internalType": "address",
          "name": "owner",
          "type": "address"
        }
      ],
      "name": "nonces",
      "outputs": [
        {
          "internalType": "uint256",
          "name": "",
          "type": "uint256"
        }
      ],
      "stateMutability": "view",
      "type": "function"
    },
    {
      "inputs": [
        {
          "internalType": "address",
          "name": "account",
          "type": "address"
        }
      ],
      "name": "numCheckpoints",
      "outputs": [
        {
          "internalType": "uint32",
          "name": "",
          "type": "uint32"
        }
      ],
      "stateMutability": "view",
      "type": "function"
    },
    {
      "inputs": [
        {
          "internalType": "address",
          "name": "owner",
          "type": "address"
        },
        {
          "internalType": "address",
          "name": "spender",
          "type": "address"
        },
        {
          "internalType": "uint256",
          "name": "value",
          "type": "uint256"
        },
        {
          "internalType": "uint256",
          "name": "deadline",
          "type": "uint256"
        },
        {
          "internalType": "uint8",
          "name": "v",
          "type": "uint8"
        },
        {
          "internalType": "bytes32",
          "name": "r",
          "type": "bytes32"
        },
        {
          "internalType": "bytes32",
          "name": "s",
          "type": "bytes32"
        }
      ],
      "name": "permit",
      "outputs": [],
      "stateMutability": "nonpayable",
      "type": "function"
    },
    {
      "inputs": [],
      "name": "symbol",
      "outputs": [
        {
          "internalType": "string",
          "name": "",
          "type": "string"
        }
      ],
      "stateMutability": "view",
      "type": "function"
    },
    {
      "inputs": [],
      "name": "totalSupply",
      "outputs": [
        {
          "internalType": "uint256",
          "name": "",
          "type": "uint256"
        }
      ],
      "stateMutability": "view",
      "type": "function"
    },
    {
      "inputs": [
        {
          "internalType": "address",
          "name": "recipient",
          "type": "address"
        },
        {
          "internalType": "uint256",
          "name": "amount",
          "type": "uint256"
        }
      ],
      "name": "transfer",
      "outputs": [
        {
          "internalType": "bool",
          "name": "",
          "type": "bool"
        }
      ],
      "stateMutability": "nonpayable",
      "type": "function"
    },
    {
      "inputs": [
        {
          "internalType": "address",
          "name": "sender",
          "type": "address"
        },
        {
          "internalType": "address",
          "name": "recipient",
          "type": "address"
        },
        {
          "internalType": "uint256",
          "name": "amount",
          "type": "uint256"
        }
      ],
      "name": "transferFrom",
      "outputs": [
        {
          "internalType": "bool",
          "name": "",
          "type": "bool"
        }
      ],
      "stateMutability": "nonpayable",
      "type": "function"
    },
    {
      "inputs": [
        {
          "internalType": "address",
          "name": "account",
          "type": "address"
        },
        {
          "internalType": "uint256",
          "name": "amount",
          "type": "uint256"
        }
      ],
      "name": "mint",
      "outputs": [],
      "stateMutability": "nonpayable",
      "type": "function"
    },
    {
      "inputs": [
        {
          "internalType": "address",
          "name": "account",
          "type": "address"
        },
        {
          "internalType": "uint256",
          "name": "amount",
          "type": "uint256"
        }
      ],
      "name": "burn",
      "outputs": [],
      "stateMutability": "nonpayable",
      "type": "function"
    },
    {
      "inputs": [],
      "name": "getChainId",
      "outputs": [
        {
          "internalType": "uint256",
          "name": "",
          "type": "uint256"
        }
      ],
      "stateMutability": "view",
      "type": "function"
    }
  ],
  "bytecode": "0x6101406040527f6e71edae12b1b97f4d1f60370fef10105fa2faae0126114a169c64845d6126c9610120908152503480156200003a57600080fd5b5060405162003faa38038062003faa8339818101604052810190620000609190620002be565b81806040518060400160405280600181526020017f310000000000000000000000000000000000000000000000000000000000000081525084848160039080519060200190620000b292919062000190565b508060049080519060200190620000cb92919062000190565b50505060008280519060200120905060008280519060200120905060007f8b73c3c69bb8fe3d512ecc4cf759cc79239f7b179b0ffacaa9a75d522b39400f90508260c081815250508160e081815250504660a08181525050620001368184846200015460201b60201c565b6080818152505080610100818152505050505050505050506200059f565b600083838346306040516020016200017195949392919062000376565b6040516020818303038152906040528051906020012090509392505050565b8280546200019e90620004b0565b90600052602060002090601f016020900481019282620001c257600085556200020e565b82601f10620001dd57805160ff19168380011785556200020e565b828001600101855582156200020e579182015b828111156200020d578251825591602001919060010190620001f0565b5b5090506200021d919062000221565b5090565b5b808211156200023c57600081600090555060010162000222565b5090565b6000620002576200025184620003fc565b620003d3565b9050828152602081018484840111156200027657620002756200057f565b5b620002838482856200047a565b509392505050565b600082601f830112620002a357620002a26200057a565b5b8151620002b584826020860162000240565b91505092915050565b60008060408385031215620002d857620002d762000589565b5b600083015167ffffffffffffffff811115620002f957620002f862000584565b5b62000307858286016200028b565b925050602083015167ffffffffffffffff8111156200032b576200032a62000584565b5b62000339858286016200028b565b9150509250929050565b6200034e8162000432565b82525050565b6200035f8162000446565b82525050565b620003708162000470565b82525050565b600060a0820190506200038d600083018862000354565b6200039c602083018762000354565b620003ab604083018662000354565b620003ba606083018562000365565b620003c9608083018462000343565b9695505050505050565b6000620003df620003f2565b9050620003ed8282620004e6565b919050565b6000604051905090565b600067ffffffffffffffff8211156200041a57620004196200054b565b5b62000425826200058e565b9050602081019050919050565b60006200043f8262000450565b9050919050565b6000819050919050565b600073ffffffffffffffffffffffffffffffffffffffff82169050919050565b6000819050919050565b60005b838110156200049a5780820151818401526020810190506200047d565b83811115620004aa576000848401525b50505050565b60006002820490506001821680620004c957607f821691505b60208210811415620004e057620004df6200051c565b5b50919050565b620004f1826200058e565b810181811067ffffffffffffffff821117156200051357620005126200054b565b5b80604052505050565b7f4e487b7100000000000000000000000000000000000000000000000000000000600052602260045260246000fd5b7f4e487b7100000000000000000000000000000000000000000000000000000000600052604160045260246000fd5b600080fd5b600080fd5b600080fd5b600080fd5b6000601f19601f8301169050919050565b60805160a05160c05160e05161010051610120516139bb620005ef6000396000610e3b01526000611679015260006116bb0152600061169a015260006116260152600061164e01526139bb6000f3fe608060405234801561001057600080fd5b50600436106101725760003560e01c80636fcfff45116100de578063a457c2d711610097578063c3cda52011610071578063c3cda520146104bf578063d505accf146104db578063dd62ed3e146104f7578063f1127ed81461052757610172565b8063a457c2d71461042f578063a9059cbb1461045f578063b4b5ea571461048f57610172565b80636fcfff451461033557806370a0823114610365578063782d6fe1146103955780637ecebe00146103c557806395d89b41146103f55780639dc29fac1461041357610172565b80633408e470116101305780633408e470146102615780633644e5151461027f578063395093511461029d57806340c10f19146102cd578063587cde1e146102e95780635c19a95c1461031957610172565b80629f7e211461017757806306fdde03146101a7578063095ea7b3146101c557806318160ddd146101f557806323b872dd14610213578063313ce56714610243575b600080fd5b610191600480360381019061018c919061274a565b610557565b60405161019e9190613013565b60405180910390f35b6101af6105ad565b6040516101bc9190612d36565b60405180910390f35b6101df60048036038101906101da919061263d565b61063f565b6040516101ec9190612bc2565b60405180910390f35b6101fd61065d565b60405161020a9190613013565b60405180910390f35b61022d60048036038101906102289190612548565b610667565b60405161023a9190612bc2565b60405180910390f35b61024b61075f565b6040516102589190613072565b60405180910390f35b610269610768565b6040516102769190613013565b60405180910390f35b610287610770565b6040516102949190612bdd565b60405180910390f35b6102b760048036038101906102b2919061263d565b61077f565b6040516102c49190612bc2565b60405180910390f35b6102e760048036038101906102e2919061263d565b61082b565b005b61030360048036038101906102fe91906124db565b610839565b6040516103109190612ba7565b60405180910390f35b610333600480360381019061032e91906124db565b6108a2565b005b61034f600480360381019061034a91906124db565b6108b6565b60405161035c9190613057565b60405180910390f35b61037f600480360381019061037a91906124db565b61090a565b60405161038c9190613013565b60405180910390f35b6103af60048036038101906103aa919061263d565b610952565b6040516103bc9190613013565b60405180910390f35b6103df60048036038101906103da91906124db565b6109e6565b6040516103ec9190613013565b60405180910390f35b6103fd610a36565b60405161040a9190612d36565b60405180910390f35b61042d6004803603810190610428919061263d565b610ac8565b005b6104496004803603810190610444919061263d565b610ad6565b6040516104569190612bc2565b60405180910390f35b6104796004803603810190610474919061263d565b610bc1565b6040516104869190612bc2565b60405180910390f35b6104a960048036038101906104a491906124db565b610bdf565b6040516104b69190613013565b60405180910390f35b6104d960048036038101906104d4919061267d565b610cf0565b005b6104f560048036038101906104f0919061259b565b610df4565b005b610511600480360381019061050c9190612508565b610f36565b60405161051e9190613013565b60405180910390f35b610541600480360381019061053c919061270a565b610fbd565b60405161054e9190612ff8565b60405180910390f35b600043821061059b576040517f08c379a000000000000000000000000000000000000000000000000000000000815260040161059290612d98565b60405180910390fd5b6105a66008836110cd565b9050919050565b6060600380546105bc90613239565b80601f01602080910402602001604051908101604052809291908181526020018280546105e890613239565b80156106355780601f1061060a57610100808354040283529160200191610635565b820191906000526020600020905b81548152906001019060200180831161061857829003601f168201915b5050505050905090565b600061065361064c6111d9565b84846111e1565b6001905092915050565b6000600254905090565b60006106748484846113ac565b6000600160008673ffffffffffffffffffffffffffffffffffffffff1673ffffffffffffffffffffffffffffffffffffffff16815260200190815260200160002060006106bf6111d9565b73ffffffffffffffffffffffffffffffffffffffff1673ffffffffffffffffffffffffffffffffffffffff1681526020019081526020016000205490508281101561073f576040517f08c379a000000000000000000000000000000000000000000000000000000000815260040161073690612ed8565b60405180910390fd5b6107538561074b6111d9565b8584036111e1565b60019150509392505050565b60006012905090565b600046905090565b600061077a611622565b905090565b600061082161078c6111d9565b84846001600061079a6111d9565b73ffffffffffffffffffffffffffffffffffffffff1673ffffffffffffffffffffffffffffffffffffffff16815260200190815260200160002060008873ffffffffffffffffffffffffffffffffffffffff1673ffffffffffffffffffffffffffffffffffffffff1681526020019081526020016000205461081c91906130b4565b6111e1565b6001905092915050565b61083582826116e5565b5050565b6000600660008373ffffffffffffffffffffffffffffffffffffffff1673ffffffffffffffffffffffffffffffffffffffff16815260200190815260200160002060009054906101000a900473ffffffffffffffffffffffffffffffffffffffff169050919050565b6108b36108ad6111d9565b8261176b565b50565b6000610903600760008473ffffffffffffffffffffffffffffffffffffffff1673ffffffffffffffffffffffffffffffffffffffff16815260200190815260200160002080549050611885565b9050919050565b60008060008373ffffffffffffffffffffffffffffffffffffffff1673ffffffffffffffffffffffffffffffffffffffff168152602001908152602001600020549050919050565b6000438210610996576040517f08c379a000000000000000000000000000000000000000000000000000000000815260040161098d90612d98565b60405180910390fd5b6109de600760008573ffffffffffffffffffffffffffffffffffffffff1673ffffffffffffffffffffffffffffffffffffffff168152602001908152602001600020836110cd565b905092915050565b6000610a2f600560008473ffffffffffffffffffffffffffffffffffffffff1673ffffffffffffffffffffffffffffffffffffffff1681526020019081526020016000206118d6565b9050919050565b606060048054610a4590613239565b80601f0160208091040260200160405190810160405280929190818152602001828054610a7190613239565b8015610abe5780601f10610a9357610100808354040283529160200191610abe565b820191906000526020600020905b815481529060010190602001808311610aa157829003601f168201915b5050505050905090565b610ad282826118e4565b5050565b60008060016000610ae56111d9565b73ffffffffffffffffffffffffffffffffffffffff1673ffffffffffffffffffffffffffffffffffffffff16815260200190815260200160002060008573ffffffffffffffffffffffffffffffffffffffff1673ffffffffffffffffffffffffffffffffffffffff16815260200190815260200160002054905082811015610ba2576040517f08c379a0000000000000000000000000000000000000000000000000000000008152600401610b9990612fb8565b60405180910390fd5b610bb6610bad6111d9565b858584036111e1565b600191505092915050565b6000610bd5610bce6111d9565b84846113ac565b6001905092915050565b600080600760008473ffffffffffffffffffffffffffffffffffffffff1673ffffffffffffffffffffffffffffffffffffffff16815260200190815260200160002080549050905060008114610cc757600760008473ffffffffffffffffffffffffffffffffffffffff1673ffffffffffffffffffffffffffffffffffffffff168152602001908152602001600020600182610c7b919061313b565b81548110610c8c57610c8b613333565b5b9060005260206000200160000160049054906101000a90047bffffffffffffffffffffffffffffffffffffffffffffffffffffffff16610cca565b60005b7bffffffffffffffffffffffffffffffffffffffffffffffffffffffff16915050919050565b83421115610d33576040517f08c379a0000000000000000000000000000000000000000000000000000000008152600401610d2a90612db8565b60405180910390fd5b6000610d95610d8d7fe48329057bfd03d55e49b547132e39cffd9c1820ad7b9d4c5307691425d15adf898989604051602001610d729493929190612c59565b60405160208183030381529060405280519060200120611902565b85858561191c565b9050610da081611aa7565b8614610de1576040517f08c379a0000000000000000000000000000000000000000000000000000000008152600401610dd890612df8565b60405180910390fd5b610deb818861176b565b50505050505050565b83421115610e37576040517f08c379a0000000000000000000000000000000000000000000000000000000008152600401610e2e90612e38565b60405180910390fd5b60007f0000000000000000000000000000000000000000000000000000000000000000888888610e668c611aa7565b89604051602001610e7c96959493929190612bf8565b6040516020818303038152906040528051906020012090506000610e9f82611902565b90506000610eaf8287878761191c565b90508973ffffffffffffffffffffffffffffffffffffffff168173ffffffffffffffffffffffffffffffffffffffff1614610f1f576040517f08c379a0000000000000000000000000000000000000000000000000000000008152600401610f1690612eb8565b60405180910390fd5b610f2a8a8a8a6111e1565b50505050505050505050565b6000600160008473ffffffffffffffffffffffffffffffffffffffff1673ffffffffffffffffffffffffffffffffffffffff16815260200190815260200160002060008373ffffffffffffffffffffffffffffffffffffffff1673ffffffffffffffffffffffffffffffffffffffff16815260200190815260200160002054905092915050565b610fc5612434565b600760008473ffffffffffffffffffffffffffffffffffffffff1673ffffffffffffffffffffffffffffffffffffffff1681526020019081526020016000208263ffffffff168154811061101c5761101b613333565b5b906000526020600020016040518060400160405290816000820160009054906101000a900463ffffffff1663ffffffff1663ffffffff1681526020016000820160049054906101000a90047bffffffffffffffffffffffffffffffffffffffffffffffffffffffff167bffffffffffffffffffffffffffffffffffffffffffffffffffffffff167bffffffffffffffffffffffffffffffffffffffffffffffffffffffff1681525050905092915050565b6000808380549050905060005b8181101561114c5760006110ee8284611b05565b90508486828154811061110457611103613333565b5b9060005260206000200160000160009054906101000a900463ffffffff1663ffffffff16111561113657809250611146565b60018161114391906130b4565b91505b506110da565b600082146111ae5784600183611162919061313b565b8154811061117357611172613333565b5b9060005260206000200160000160049054906101000a90047bffffffffffffffffffffffffffffffffffffffffffffffffffffffff166111b1565b60005b7bffffffffffffffffffffffffffffffffffffffffffffffffffffffff169250505092915050565b600033905090565b600073ffffffffffffffffffffffffffffffffffffffff168373ffffffffffffffffffffffffffffffffffffffff161415611251576040517f08c379a000000000000000000000000000000000000000000000000000000000815260040161124890612f78565b60405180910390fd5b600073ffffffffffffffffffffffffffffffffffffffff168273ffffffffffffffffffffffffffffffffffffffff1614156112c1576040517f08c379a00000000000000000000000000000000000000000000000000000000081526004016112b890612e18565b60405180910390fd5b80600160008573ffffffffffffffffffffffffffffffffffffffff1673ffffffffffffffffffffffffffffffffffffffff16815260200190815260200160002060008473ffffffffffffffffffffffffffffffffffffffff1673ffffffffffffffffffffffffffffffffffffffff168152602001908152602001600020819055508173ffffffffffffffffffffffffffffffffffffffff168373ffffffffffffffffffffffffffffffffffffffff167f8c5be1e5ebec7d5bd14f71427d1e84f3dd0314c0f7b2291e5b200ac8c7c3b9258360405161139f9190613013565b60405180910390a3505050565b600073ffffffffffffffffffffffffffffffffffffffff168373ffffffffffffffffffffffffffffffffffffffff16141561141c576040517f08c379a000000000000000000000000000000000000000000000000000000000815260040161141390612f38565b60405180910390fd5b600073ffffffffffffffffffffffffffffffffffffffff168273ffffffffffffffffffffffffffffffffffffffff16141561148c576040517f08c379a000000000000000000000000000000000000000000000000000000000815260040161148390612d78565b60405180910390fd5b611497838383611b6c565b60008060008573ffffffffffffffffffffffffffffffffffffffff1673ffffffffffffffffffffffffffffffffffffffff1681526020019081526020016000205490508181101561151d576040517f08c379a000000000000000000000000000000000000000000000000000000000815260040161151490612e58565b60405180910390fd5b8181036000808673ffffffffffffffffffffffffffffffffffffffff1673ffffffffffffffffffffffffffffffffffffffff16815260200190815260200160002081905550816000808573ffffffffffffffffffffffffffffffffffffffff1673ffffffffffffffffffffffffffffffffffffffff16815260200190815260200160002060008282546115b091906130b4565b925050819055508273ffffffffffffffffffffffffffffffffffffffff168473ffffffffffffffffffffffffffffffffffffffff167fddf252ad1be2c89b69c2b068fc378daa952ba7f163c4a11628f55a4df523b3ef846040516116149190613013565b60405180910390a350505050565b60007f0000000000000000000000000000000000000000000000000000000000000000461415611674577f000000000000000000000000000000000000000000000000000000000000000090506116e2565b6116df7f00000000000000000000000000000000000000000000000000000000000000007f00000000000000000000000000000000000000000000000000000000000000007f0000000000000000000000000000000000000000000000000000000000000000611b8c565b90505b90565b6116ef8282611bc6565b7bffffffffffffffffffffffffffffffffffffffffffffffffffffffff801661171661065d565b1115611757576040517f08c379a000000000000000000000000000000000000000000000000000000000815260040161174e90612f98565b60405180910390fd5b6117656008611d1a83611d30565b50505050565b600061177683610839565b905060006117838461090a565b905082600660008673ffffffffffffffffffffffffffffffffffffffff1673ffffffffffffffffffffffffffffffffffffffff16815260200190815260200160002060006101000a81548173ffffffffffffffffffffffffffffffffffffffff021916908373ffffffffffffffffffffffffffffffffffffffff1602179055508273ffffffffffffffffffffffffffffffffffffffff168273ffffffffffffffffffffffffffffffffffffffff168573ffffffffffffffffffffffffffffffffffffffff167f3134e8a2e6d97e929a7e54011ea5485d7d196dd5f0ba4d4ef95803e8e3fc257f60405160405180910390a461187f828483611fa8565b50505050565b600064010000000082106118ce576040517f08c379a00000000000000000000000000000000000000000000000000000000081526004016118c590612f58565b60405180910390fd5b819050919050565b600081600001549050919050565b6118ee82826121a1565b6118fc600861236c83611d30565b50505050565b600061191561190f611622565b83612382565b9050919050565b60007f7fffffffffffffffffffffffffffffff5d576e7357a4501ddfe92f46681b20a08260001c1115611984576040517f08c379a000000000000000000000000000000000000000000000000000000000815260040161197b90612e78565b60405180910390fd5b601b8460ff1614806119995750601c8460ff16145b6119d8576040517f08c379a00000000000000000000000000000000000000000000000000000000081526004016119cf90612e98565b60405180910390fd5b6000600186868686604051600081526020016040526040516119fd9493929190612cf1565b6020604051602081039080840390855afa158015611a1f573d6000803e3d6000fd5b505050602060405103519050600073ffffffffffffffffffffffffffffffffffffffff168173ffffffffffffffffffffffffffffffffffffffff161415611a9b576040517f08c379a0000000000000000000000000000000000000000000000000000000008152600401611a9290612d58565b60405180910390fd5b80915050949350505050565b600080600560008473ffffffffffffffffffffffffffffffffffffffff1673ffffffffffffffffffffffffffffffffffffffff1681526020019081526020016000209050611af4816118d6565b9150611aff816123b5565b50919050565b600060028083611b159190613275565b600285611b229190613275565b611b2c91906130b4565b611b36919061310a565b600283611b43919061310a565b600285611b50919061310a565b611b5a91906130b4565b611b6491906130b4565b905092915050565b611b87611b7884610839565b611b8184610839565b83611fa8565b505050565b60008383834630604051602001611ba7959493929190612c9e565b6040516020818303038152906040528051906020012090509392505050565b600073ffffffffffffffffffffffffffffffffffffffff168273ffffffffffffffffffffffffffffffffffffffff161415611c36576040517f08c379a0000000000000000000000000000000000000000000000000000000008152600401611c2d90612fd8565b60405180910390fd5b611c4260008383611b6c565b8060026000828254611c5491906130b4565b92505081905550806000808473ffffffffffffffffffffffffffffffffffffffff1673ffffffffffffffffffffffffffffffffffffffff1681526020019081526020016000206000828254611ca991906130b4565b925050819055508173ffffffffffffffffffffffffffffffffffffffff16600073ffffffffffffffffffffffffffffffffffffffff167fddf252ad1be2c89b69c2b068fc378daa952ba7f163c4a11628f55a4df523b3ef83604051611d0e9190613013565b60405180910390a35050565b60008183611d2891906130b4565b905092915050565b60008060008580549050905060008114611d9e5785600182611d52919061313b565b81548110611d6357611d62613333565b5b9060005260206000200160000160049054906101000a90047bffffffffffffffffffffffffffffffffffffffffffffffffffffffff16611da1565b60005b7bffffffffffffffffffffffffffffffffffffffffffffffffffffffff169250611dcf83858763ffffffff16565b9150600081118015611e2257504386600183611deb919061313b565b81548110611dfc57611dfb613333565b5b9060005260206000200160000160009054906101000a900463ffffffff1663ffffffff16145b15611eaf57611e30826123cb565b86600183611e3e919061313b565b81548110611e4f57611e4e613333565b5b9060005260206000200160000160046101000a8154817bffffffffffffffffffffffffffffffffffffffffffffffffffffffff02191690837bffffffffffffffffffffffffffffffffffffffffffffffffffffffff160217905550611f9f565b856040518060400160405280611ec443611885565b63ffffffff168152602001611ed8856123cb565b7bffffffffffffffffffffffffffffffffffffffffffffffffffffffff168152509080600181540180825580915050600190039060005260206000200160009091909190915060008201518160000160006101000a81548163ffffffff021916908363ffffffff16021790555060208201518160000160046101000a8154817bffffffffffffffffffffffffffffffffffffffffffffffffffffffff02191690837bffffffffffffffffffffffffffffffffffffffffffffffffffffffff16021790555050505b50935093915050565b8173ffffffffffffffffffffffffffffffffffffffff168373ffffffffffffffffffffffffffffffffffffffff1614158015611fe45750600081115b1561219c57600073ffffffffffffffffffffffffffffffffffffffff168373ffffffffffffffffffffffffffffffffffffffff16146120c25760008061206b600760008773ffffffffffffffffffffffffffffffffffffffff1673ffffffffffffffffffffffffffffffffffffffff16815260200190815260200160002061236c85611d30565b915091508473ffffffffffffffffffffffffffffffffffffffff167fdec2bacdd2f05b59de34da9b523dff8be42e5e38e818c82fdb0bae774387a72483836040516120b792919061302e565b60405180910390a250505b600073ffffffffffffffffffffffffffffffffffffffff168273ffffffffffffffffffffffffffffffffffffffff161461219b57600080612144600760008673ffffffffffffffffffffffffffffffffffffffff1673ffffffffffffffffffffffffffffffffffffffff168152602001908152602001600020611d1a85611d30565b915091508373ffffffffffffffffffffffffffffffffffffffff167fdec2bacdd2f05b59de34da9b523dff8be42e5e38e818c82fdb0bae774387a724838360405161219092919061302e565b60405180910390a250505b5b505050565b600073ffffffffffffffffffffffffffffffffffffffff168273ffffffffffffffffffffffffffffffffffffffff161415612211576040517f08c379a000000000000000000000000000000000000000000000000000000000815260040161220890612f18565b60405180910390fd5b61221d82600083611b6c565b60008060008473ffffffffffffffffffffffffffffffffffffffff1673ffffffffffffffffffffffffffffffffffffffff168152602001908152602001600020549050818110156122a3576040517f08c379a000000000000000000000000000000000000000000000000000000000815260040161229a90612dd8565b60405180910390fd5b8181036000808573ffffffffffffffffffffffffffffffffffffffff1673ffffffffffffffffffffffffffffffffffffffff1681526020019081526020016000208190555081600260008282546122fa919061313b565b92505081905550600073ffffffffffffffffffffffffffffffffffffffff168373ffffffffffffffffffffffffffffffffffffffff167fddf252ad1be2c89b69c2b068fc378daa952ba7f163c4a11628f55a4df523b3ef8460405161235f9190613013565b60405180910390a3505050565b6000818361237a919061313b565b905092915050565b60008282604051602001612397929190612b70565b60405160208183030381529060405280519060200120905092915050565b6001816000016000828254019250508190555050565b60007c0100000000000000000000000000000000000000000000000000000000821061242c576040517f08c379a000000000000000000000000000000000000000000000000000000000815260040161242390612ef8565b60405180910390fd5b819050919050565b6040518060400160405280600063ffffffff16815260200160007bffffffffffffffffffffffffffffffffffffffffffffffffffffffff1681525090565b60008135905061248181613912565b92915050565b60008135905061249681613929565b92915050565b6000813590506124ab81613940565b92915050565b6000813590506124c081613957565b92915050565b6000813590506124d58161396e565b92915050565b6000602082840312156124f1576124f0613362565b5b60006124ff84828501612472565b91505092915050565b6000806040838503121561251f5761251e613362565b5b600061252d85828601612472565b925050602061253e85828601612472565b9150509250929050565b60008060006060848603121561256157612560613362565b5b600061256f86828701612472565b935050602061258086828701612472565b92505060406125918682870161249c565b9150509250925092565b600080600080600080600060e0888a0312156125ba576125b9613362565b5b60006125c88a828b01612472565b97505060206125d98a828b01612472565b96505060406125ea8a828b0161249c565b95505060606125fb8a828b0161249c565b945050608061260c8a828b016124c6565b93505060a061261d8a828b01612487565b92505060c061262e8a828b01612487565b91505092959891949750929550565b6000806040838503121561265457612653613362565b5b600061266285828601612472565b92505060206126738582860161249c565b9150509250929050565b60008060008060008060c0878903121561269a57612699613362565b5b60006126a889828a01612472565b96505060206126b989828a0161249c565b95505060406126ca89828a0161249c565b94505060606126db89828a016124c6565b93505060806126ec89828a01612487565b92505060a06126fd89828a01612487565b9150509295509295509295565b6000806040838503121561272157612720613362565b5b600061272f85828601612472565b9250506020612740858286016124b1565b9150509250929050565b6000602082840312156127605761275f613362565b5b600061276e8482850161249c565b91505092915050565b6127808161316f565b82525050565b61278f81613181565b82525050565b61279e8161318d565b82525050565b6127b56127b08261318d565b61326b565b82525050565b60006127c68261308d565b6127d08185613098565b93506127e0818560208601613206565b6127e981613367565b840191505092915050565b6000612801601883613098565b915061280c82613378565b602082019050919050565b6000612824602383613098565b915061282f826133a1565b604082019050919050565b6000612847601f83613098565b9150612852826133f0565b602082019050919050565b600061286a601d83613098565b915061287582613419565b602082019050919050565b600061288d602283613098565b915061289882613442565b604082019050919050565b60006128b0601983613098565b91506128bb82613491565b602082019050919050565b60006128d3602283613098565b91506128de826134ba565b604082019050919050565b60006128f66002836130a9565b915061290182613509565b600282019050919050565b6000612919601d83613098565b915061292482613532565b602082019050919050565b600061293c602683613098565b91506129478261355b565b604082019050919050565b600061295f602283613098565b915061296a826135aa565b604082019050919050565b6000612982602283613098565b915061298d826135f9565b604082019050919050565b60006129a5601e83613098565b91506129b082613648565b602082019050919050565b60006129c8602883613098565b91506129d382613671565b604082019050919050565b60006129eb602783613098565b91506129f6826136c0565b604082019050919050565b6000612a0e602183613098565b9150612a198261370f565b604082019050919050565b6000612a31602583613098565b9150612a3c8261375e565b604082019050919050565b6000612a54602683613098565b9150612a5f826137ad565b604082019050919050565b6000612a77602483613098565b9150612a82826137fc565b604082019050919050565b6000612a9a602783613098565b9150612aa58261384b565b604082019050919050565b6000612abd602583613098565b9150612ac88261389a565b604082019050919050565b6000612ae0601f83613098565b9150612aeb826138e9565b602082019050919050565b604082016000820151612b0c6000850182612b43565b506020820151612b1f6020850182612b25565b50505050565b612b2e816131b7565b82525050565b612b3d816131df565b82525050565b612b4c816131e9565b82525050565b612b5b816131e9565b82525050565b612b6a816131f9565b82525050565b6000612b7b826128e9565b9150612b8782856127a4565b602082019150612b9782846127a4565b6020820191508190509392505050565b6000602082019050612bbc6000830184612777565b92915050565b6000602082019050612bd76000830184612786565b92915050565b6000602082019050612bf26000830184612795565b92915050565b600060c082019050612c0d6000830189612795565b612c1a6020830188612777565b612c276040830187612777565b612c346060830186612b34565b612c416080830185612b34565b612c4e60a0830184612b34565b979650505050505050565b6000608082019050612c6e6000830187612795565b612c7b6020830186612777565b612c886040830185612b34565b612c956060830184612b34565b95945050505050565b600060a082019050612cb36000830188612795565b612cc06020830187612795565b612ccd6040830186612795565b612cda6060830185612b34565b612ce76080830184612777565b9695505050505050565b6000608082019050612d066000830187612795565b612d136020830186612b61565b612d206040830185612795565b612d2d6060830184612795565b95945050505050565b60006020820190508181036000830152612d5081846127bb565b905092915050565b60006020820190508181036000830152612d71816127f4565b9050919050565b60006020820190508181036000830152612d9181612817565b9050919050565b60006020820190508181036000830152612db18161283a565b9050919050565b60006020820190508181036000830152612dd18161285d565b9050919050565b60006020820190508181036000830152612df181612880565b9050919050565b60006020820190508181036000830152612e11816128a3565b9050919050565b60006020820190508181036000830152612e31816128c6565b9050919050565b60006020820190508181036000830152612e518161290c565b9050919050565b60006020820190508181036000830152612e718161292f565b9050919050565b60006020820190508181036000830152612e9181612952565b9050919050565b60006020820190508181036000830152612eb181612975565b9050919050565b60006020820190508181036000830152612ed181612998565b9050919050565b60006020820190508181036000830152612ef1816129bb565b9050919050565b60006020820190508181036000830152612f11816129de565b9050919050565b60006020820190508181036000830152612f3181612a01565b9050919050565b60006020820190508181036000830152612f5181612a24565b9050919050565b60006020820190508181036000830152612f7181612a47565b9050919050565b60006020820190508181036000830152612f9181612a6a565b9050919050565b60006020820190508181036000830152612fb181612a8d565b9050919050565b60006020820190508181036000830152612fd181612ab0565b9050919050565b60006020820190508181036000830152612ff181612ad3565b9050919050565b600060408201905061300d6000830184612af6565b92915050565b60006020820190506130286000830184612b34565b92915050565b60006040820190506130436000830185612b34565b6130506020830184612b34565b9392505050565b600060208201905061306c6000830184612b52565b92915050565b60006020820190506130876000830184612b61565b92915050565b600081519050919050565b600082825260208201905092915050565b600081905092915050565b60006130bf826131df565b91506130ca836131df565b9250827fffffffffffffffffffffffffffffffffffffffffffffffffffffffffffffffff038211156130ff576130fe6132a6565b5b828201905092915050565b6000613115826131df565b9150613120836131df565b9250826131305761312f6132d5565b5b828204905092915050565b6000613146826131df565b9150613151836131df565b925082821015613164576131636132a6565b5b828203905092915050565b600061317a82613197565b9050919050565b60008115159050919050565b6000819050919050565b600073ffffffffffffffffffffffffffffffffffffffff82169050919050565b60007bffffffffffffffffffffffffffffffffffffffffffffffffffffffff82169050919050565b6000819050919050565b600063ffffffff82169050919050565b600060ff82169050919050565b60005b83811015613224578082015181840152602081019050613209565b83811115613233576000848401525b50505050565b6000600282049050600182168061325157607f821691505b6020821081141561326557613264613304565b5b50919050565b6000819050919050565b6000613280826131df565b915061328b836131df565b92508261329b5761329a6132d5565b5b828206905092915050565b7f4e487b7100000000000000000000000000000000000000000000000000000000600052601160045260246000fd5b7f4e487b7100000000000000000000000000000000000000000000000000000000600052601260045260246000fd5b7f4e487b7100000000000000000000000000000000000000000000000000000000600052602260045260246000fd5b7f4e487b7100000000000000000000000000000000000000000000000000000000600052603260045260246000fd5b600080fd5b6000601f19601f8301169050919050565b7f45434453413a20696e76616c6964207369676e61747572650000000000000000600082015250565b7f45524332303a207472616e7366657220746f20746865207a65726f206164647260008201527f6573730000000000000000000000000000000000000000000000000000000000602082015250565b7f4552433230566f7465733a20626c6f636b206e6f7420796574206d696e656400600082015250565b7f4552433230566f7465733a207369676e61747572652065787069726564000000600082015250565b7f45524332303a206275726e20616d6f756e7420657863656564732062616c616e60008201527f6365000000000000000000000000000000000000000000000000000000000000602082015250565b7f4552433230566f7465733a20696e76616c6964206e6f6e636500000000000000600082015250565b7f45524332303a20617070726f766520746f20746865207a65726f20616464726560008201527f7373000000000000000000000000000000000000000000000000000000000000602082015250565b7f1901000000000000000000000000000000000000000000000000000000000000600082015250565b7f45524332305065726d69743a206578706972656420646561646c696e65000000600082015250565b7f45524332303a207472616e7366657220616d6f756e742065786365656473206260008201527f616c616e63650000000000000000000000000000000000000000000000000000602082015250565b7f45434453413a20696e76616c6964207369676e6174757265202773272076616c60008201527f7565000000000000000000000000000000000000000000000000000000000000602082015250565b7f45434453413a20696e76616c6964207369676e6174757265202776272076616c60008201527f7565000000000000000000000000000000000000000000000000000000000000602082015250565b7f45524332305065726d69743a20696e76616c6964207369676e61747572650000600082015250565b7f45524332303a207472616e7366657220616d6f756e742065786365656473206160008201527f6c6c6f77616e6365000000000000000000000000000000000000000000000000602082015250565b7f53616665436173743a2076616c756520646f65736e27742066697420696e203260008201527f3234206269747300000000000000000000000000000000000000000000000000602082015250565b7f45524332303a206275726e2066726f6d20746865207a65726f2061646472657360008201527f7300000000000000000000000000000000000000000000000000000000000000602082015250565b7f45524332303a207472616e736665722066726f6d20746865207a65726f20616460008201527f6472657373000000000000000000000000000000000000000000000000000000602082015250565b7f53616665436173743a2076616c756520646f65736e27742066697420696e203360008201527f3220626974730000000000000000000000000000000000000000000000000000602082015250565b7f45524332303a20617070726f76652066726f6d20746865207a65726f2061646460008201527f7265737300000000000000000000000000000000000000000000000000000000602082015250565b7f4552433230566f7465733a20746f74616c20737570706c79206578636565647360008201527f20322a2a32323400000000000000000000000000000000000000000000000000602082015250565b7f45524332303a2064656372656173656420616c6c6f77616e63652062656c6f7760008201527f207a65726f000000000000000000000000000000000000000000000000000000602082015250565b7f45524332303a206d696e7420746f20746865207a65726f206164647265737300600082015250565b61391b8161316f565b811461392657600080fd5b50565b6139328161318d565b811461393d57600080fd5b50565b613949816131df565b811461395457600080fd5b50565b613960816131e9565b811461396b57600080fd5b50565b613977816131f9565b811461398257600080fd5b5056fea26469706673582212204dfe18d6c2cb01cc1f234ac63380b2850bae466ba111b0f3ff5573f1a7545e2264736f6c63430008070033",
  "immutableReferences": {
    "16426": [
      {
        "length": 32,
        "start": 3643
      }
    ],
    "21423": [
      {
        "length": 32,
        "start": 5710
      }
    ],
    "21425": [
      {
        "length": 32,
        "start": 5670
      }
    ],
    "21427": [
      {
        "length": 32,
        "start": 5786
      }
    ],
    "21429": [
      {
        "length": 32,
        "start": 5819
      }
    ],
    "21431": [
      {
        "length": 32,
        "start": 5753
      }
    ]
  },
  "source": "// SPDX-License-Identifier: MIT\r\n\r\npragma solidity ^0.8.0;\r\n\r\n\r\nimport \"../token/ERC20/extensions/ERC20Votes.sol\";\r\n\r\ncontract ERC20VotesMock is ERC20Votes {\r\n    constructor (string memory name, string memory symbol)\r\n    ERC20(name, symbol)\r\n    ERC20Permit(name)\r\n    {}\r\n\r\n    function mint(address account, uint256 amount) public {\r\n        _mint(account, amount);\r\n    }\r\n\r\n    function burn(address account, uint256 amount) public {\r\n        _burn(account, amount);\r\n    }\r\n\r\n    function getChainId() external view returns (uint256) {\r\n        return block.chainid;\r\n    }\r\n}\r\n",
  "sourcePath": "C:/Users/Husnain/Documents/Projects/Fanbase/fanbase/packages/ethereum/contracts/solidity/openzeppelin/contracts/mocks/ERC20VotesMock.sol",
  "compiler": {
    "name": "solc",
    "version": "0.8.7+commit.e28d00a7.Emscripten.clang"
  },
  "schemaVersion": "3.4.1",
  "updatedAt": "2021-08-24T16:48:46.881Z",
  "devdoc": {
    "kind": "dev",
    "methods": {
      "DOMAIN_SEPARATOR()": {
        "details": "See {IERC20Permit-DOMAIN_SEPARATOR}."
      },
      "allowance(address,address)": {
        "details": "See {IERC20-allowance}."
      },
      "approve(address,uint256)": {
        "details": "See {IERC20-approve}. Requirements: - `spender` cannot be the zero address."
      },
      "balanceOf(address)": {
        "details": "See {IERC20-balanceOf}."
      },
      "checkpoints(address,uint32)": {
        "details": "Get the `pos`-th checkpoint for `account`."
      },
      "decimals()": {
        "details": "Returns the number of decimals used to get its user representation. For example, if `decimals` equals `2`, a balance of `505` tokens should be displayed to a user as `5,05` (`505 / 10 ** 2`). Tokens usually opt for a value of 18, imitating the relationship between Ether and Wei. This is the value {ERC20} uses, unless this function is overridden; NOTE: This information is only used for _display_ purposes: it in no way affects any of the arithmetic of the contract, including {IERC20-balanceOf} and {IERC20-transfer}."
      },
      "decreaseAllowance(address,uint256)": {
        "details": "Atomically decreases the allowance granted to `spender` by the caller. This is an alternative to {approve} that can be used as a mitigation for problems described in {IERC20-approve}. Emits an {Approval} event indicating the updated allowance. Requirements: - `spender` cannot be the zero address. - `spender` must have allowance for the caller of at least `subtractedValue`."
      },
      "delegate(address)": {
        "details": "Delegate votes from the sender to `delegatee`."
      },
      "delegateBySig(address,uint256,uint256,uint8,bytes32,bytes32)": {
        "details": "Delegates votes from signer to `delegatee`"
      },
      "delegates(address)": {
        "details": "Get the address `account` is currently delegating to."
      },
      "getCurrentVotes(address)": {
        "details": "Gets the current votes balance for `account`"
      },
      "getPriorTotalSupply(uint256)": {
        "details": "Retrieve the `totalSupply` at the end of `blockNumber`. Note, this value is the sum of all balances. It is but NOT the sum of all the delegated votes! Requirements: - `blockNumber` must have been already mined"
      },
      "getPriorVotes(address,uint256)": {
        "details": "Retrieve the number of votes for `account` at the end of `blockNumber`. Requirements: - `blockNumber` must have been already mined"
      },
      "increaseAllowance(address,uint256)": {
        "details": "Atomically increases the allowance granted to `spender` by the caller. This is an alternative to {approve} that can be used as a mitigation for problems described in {IERC20-approve}. Emits an {Approval} event indicating the updated allowance. Requirements: - `spender` cannot be the zero address."
      },
      "name()": {
        "details": "Returns the name of the token."
      },
      "nonces(address)": {
        "details": "See {IERC20Permit-nonces}."
      },
      "numCheckpoints(address)": {
        "details": "Get number of checkpoints for `account`."
      },
      "permit(address,address,uint256,uint256,uint8,bytes32,bytes32)": {
        "details": "See {IERC20Permit-permit}."
      },
      "symbol()": {
        "details": "Returns the symbol of the token, usually a shorter version of the name."
      },
      "totalSupply()": {
        "details": "See {IERC20-totalSupply}."
      },
      "transfer(address,uint256)": {
        "details": "See {IERC20-transfer}. Requirements: - `recipient` cannot be the zero address. - the caller must have a balance of at least `amount`."
      },
      "transferFrom(address,address,uint256)": {
        "details": "See {IERC20-transferFrom}. Emits an {Approval} event indicating the updated allowance. This is not required by the EIP. See the note at the beginning of {ERC20}. Requirements: - `sender` and `recipient` cannot be the zero address. - `sender` must have a balance of at least `amount`. - the caller must have allowance for ``sender``'s tokens of at least `amount`."
      }
    },
    "version": 1
  },
  "userdoc": {
    "kind": "user",
    "methods": {},
    "version": 1
  }
}