{
  "contractName": "ERC20CappedMock",
  "abi": [
    {
      "inputs": [
        {
          "internalType": "string",
          "name": "name",
          "type": "string"
        },
        {
          "internalType": "string",
          "name": "symbol",
          "type": "string"
        },
        {
          "internalType": "uint256",
          "name": "cap",
          "type": "uint256"
        }
      ],
      "stateMutability": "nonpayable",
      "type": "constructor"
    },
    {
      "anonymous": false,
      "inputs": [
        {
          "indexed": true,
          "internalType": "address",
          "name": "owner",
          "type": "address"
        },
        {
          "indexed": true,
          "internalType": "address",
          "name": "spender",
          "type": "address"
        },
        {
          "indexed": false,
          "internalType": "uint256",
          "name": "value",
          "type": "uint256"
        }
      ],
      "name": "Approval",
      "type": "event"
    },
    {
      "anonymous": false,
      "inputs": [
        {
          "indexed": true,
          "internalType": "address",
          "name": "from",
          "type": "address"
        },
        {
          "indexed": true,
          "internalType": "address",
          "name": "to",
          "type": "address"
        },
        {
          "indexed": false,
          "internalType": "uint256",
          "name": "value",
          "type": "uint256"
        }
      ],
      "name": "Transfer",
      "type": "event"
    },
    {
      "inputs": [
        {
          "internalType": "address",
          "name": "owner",
          "type": "address"
        },
        {
          "internalType": "address",
          "name": "spender",
          "type": "address"
        }
      ],
      "name": "allowance",
      "outputs": [
        {
          "internalType": "uint256",
          "name": "",
          "type": "uint256"
        }
      ],
      "stateMutability": "view",
      "type": "function"
    },
    {
      "inputs": [
        {
          "internalType": "address",
          "name": "spender",
          "type": "address"
        },
        {
          "internalType": "uint256",
          "name": "amount",
          "type": "uint256"
        }
      ],
      "name": "approve",
      "outputs": [
        {
          "internalType": "bool",
          "name": "",
          "type": "bool"
        }
      ],
      "stateMutability": "nonpayable",
      "type": "function"
    },
    {
      "inputs": [
        {
          "internalType": "address",
          "name": "account",
          "type": "address"
        }
      ],
      "name": "balanceOf",
      "outputs": [
        {
          "internalType": "uint256",
          "name": "",
          "type": "uint256"
        }
      ],
      "stateMutability": "view",
      "type": "function"
    },
    {
      "inputs": [],
      "name": "cap",
      "outputs": [
        {
          "internalType": "uint256",
          "name": "",
          "type": "uint256"
        }
      ],
      "stateMutability": "view",
      "type": "function"
    },
    {
      "inputs": [],
      "name": "decimals",
      "outputs": [
        {
          "internalType": "uint8",
          "name": "",
          "type": "uint8"
        }
      ],
      "stateMutability": "view",
      "type": "function"
    },
    {
      "inputs": [
        {
          "internalType": "address",
          "name": "spender",
          "type": "address"
        },
        {
          "internalType": "uint256",
          "name": "subtractedValue",
          "type": "uint256"
        }
      ],
      "name": "decreaseAllowance",
      "outputs": [
        {
          "internalType": "bool",
          "name": "",
          "type": "bool"
        }
      ],
      "stateMutability": "nonpayable",
      "type": "function"
    },
    {
      "inputs": [
        {
          "internalType": "address",
          "name": "spender",
          "type": "address"
        },
        {
          "internalType": "uint256",
          "name": "addedValue",
          "type": "uint256"
        }
      ],
      "name": "increaseAllowance",
      "outputs": [
        {
          "internalType": "bool",
          "name": "",
          "type": "bool"
        }
      ],
      "stateMutability": "nonpayable",
      "type": "function"
    },
    {
      "inputs": [],
      "name": "name",
      "outputs": [
        {
          "internalType": "string",
          "name": "",
          "type": "string"
        }
      ],
      "stateMutability": "view",
      "type": "function"
    },
    {
      "inputs": [],
      "name": "symbol",
      "outputs": [
        {
          "internalType": "string",
          "name": "",
          "type": "string"
        }
      ],
      "stateMutability": "view",
      "type": "function"
    },
    {
      "inputs": [],
      "name": "totalSupply",
      "outputs": [
        {
          "internalType": "uint256",
          "name": "",
          "type": "uint256"
        }
      ],
      "stateMutability": "view",
      "type": "function"
    },
    {
      "inputs": [
        {
          "internalType": "address",
          "name": "recipient",
          "type": "address"
        },
        {
          "internalType": "uint256",
          "name": "amount",
          "type": "uint256"
        }
      ],
      "name": "transfer",
      "outputs": [
        {
          "internalType": "bool",
          "name": "",
          "type": "bool"
        }
      ],
      "stateMutability": "nonpayable",
      "type": "function"
    },
    {
      "inputs": [
        {
          "internalType": "address",
          "name": "sender",
          "type": "address"
        },
        {
          "internalType": "address",
          "name": "recipient",
          "type": "address"
        },
        {
          "internalType": "uint256",
          "name": "amount",
          "type": "uint256"
        }
      ],
      "name": "transferFrom",
      "outputs": [
        {
          "internalType": "bool",
          "name": "",
          "type": "bool"
        }
      ],
      "stateMutability": "nonpayable",
      "type": "function"
    },
    {
      "inputs": [
        {
          "internalType": "address",
          "name": "to",
          "type": "address"
        },
        {
          "internalType": "uint256",
          "name": "tokenId",
          "type": "uint256"
        }
      ],
      "name": "mint",
      "outputs": [],
      "stateMutability": "nonpayable",
      "type": "function"
    }
  ],
  "bytecode": "0x60a06040523480156200001157600080fd5b5060405162001bb238038062001bb283398181016040528101906200003791906200020b565b808383816003908051906020019062000052929190620000c6565b5080600490805190602001906200006b929190620000c6565b50505060008111620000b4576040517f08c379a0000000000000000000000000000000000000000000000000000000008152600401620000ab90620002cc565b60405180910390fd5b806080818152505050505050620004d0565b828054620000d4906200039e565b90600052602060002090601f016020900481019282620000f8576000855562000144565b82601f106200011357805160ff191683800117855562000144565b8280016001018555821562000144579182015b828111156200014357825182559160200191906001019062000126565b5b50905062000153919062000157565b5090565b5b808211156200017257600081600090555060010162000158565b5090565b60006200018d620001878462000317565b620002ee565b905082815260208101848484011115620001ac57620001ab6200046d565b5b620001b984828562000368565b509392505050565b600082601f830112620001d957620001d862000468565b5b8151620001eb84826020860162000176565b91505092915050565b6000815190506200020581620004b6565b92915050565b60008060006060848603121562000227576200022662000477565b5b600084015167ffffffffffffffff81111562000248576200024762000472565b5b6200025686828701620001c1565b935050602084015167ffffffffffffffff8111156200027a576200027962000472565b5b6200028886828701620001c1565b92505060406200029b86828701620001f4565b9150509250925092565b6000620002b46015836200034d565b9150620002c1826200048d565b602082019050919050565b60006020820190508181036000830152620002e781620002a5565b9050919050565b6000620002fa6200030d565b9050620003088282620003d4565b919050565b6000604051905090565b600067ffffffffffffffff82111562000335576200033462000439565b5b62000340826200047c565b9050602081019050919050565b600082825260208201905092915050565b6000819050919050565b60005b83811015620003885780820151818401526020810190506200036b565b8381111562000398576000848401525b50505050565b60006002820490506001821680620003b757607f821691505b60208210811415620003ce57620003cd6200040a565b5b50919050565b620003df826200047c565b810181811067ffffffffffffffff8211171562000401576200040062000439565b5b80604052505050565b7f4e487b7100000000000000000000000000000000000000000000000000000000600052602260045260246000fd5b7f4e487b7100000000000000000000000000000000000000000000000000000000600052604160045260246000fd5b600080fd5b600080fd5b600080fd5b600080fd5b6000601f19601f8301169050919050565b7f45524332304361707065643a2063617020697320300000000000000000000000600082015250565b620004c1816200035e565b8114620004cd57600080fd5b50565b6080516116c6620004ec600039600061049501526116c66000f3fe608060405234801561001057600080fd5b50600436106100cf5760003560e01c8063395093511161008c57806395d89b411161006657806395d89b4114610228578063a457c2d714610246578063a9059cbb14610276578063dd62ed3e146102a6576100cf565b806339509351146101ac57806340c10f19146101dc57806370a08231146101f8576100cf565b806306fdde03146100d4578063095ea7b3146100f257806318160ddd1461012257806323b872dd14610140578063313ce56714610170578063355274ea1461018e575b600080fd5b6100dc6102d6565b6040516100e991906110cf565b60405180910390f35b61010c60048036038101906101079190610ed3565b610368565b60405161011991906110b4565b60405180910390f35b61012a610386565b6040516101379190611211565b60405180910390f35b61015a60048036038101906101559190610e80565b610390565b60405161016791906110b4565b60405180910390f35b610178610488565b604051610185919061122c565b60405180910390f35b610196610491565b6040516101a39190611211565b60405180910390f35b6101c660048036038101906101c19190610ed3565b6104b9565b6040516101d391906110b4565b60405180910390f35b6101f660048036038101906101f19190610ed3565b610565565b005b610212600480360381019061020d9190610e13565b610573565b60405161021f9190611211565b60405180910390f35b6102306105bb565b60405161023d91906110cf565b60405180910390f35b610260600480360381019061025b9190610ed3565b61064d565b60405161026d91906110b4565b60405180910390f35b610290600480360381019061028b9190610ed3565b610738565b60405161029d91906110b4565b60405180910390f35b6102c060048036038101906102bb9190610e40565b610756565b6040516102cd9190611211565b60405180910390f35b6060600380546102e590611341565b80601f016020809104026020016040519081016040528092919081815260200182805461031190611341565b801561035e5780601f106103335761010080835404028352916020019161035e565b820191906000526020600020905b81548152906001019060200180831161034157829003601f168201915b5050505050905090565b600061037c6103756107dd565b84846107e5565b6001905092915050565b6000600254905090565b600061039d8484846109b0565b6000600160008673ffffffffffffffffffffffffffffffffffffffff1673ffffffffffffffffffffffffffffffffffffffff16815260200190815260200160002060006103e86107dd565b73ffffffffffffffffffffffffffffffffffffffff1673ffffffffffffffffffffffffffffffffffffffff16815260200190815260200160002054905082811015610468576040517f08c379a000000000000000000000000000000000000000000000000000000000815260040161045f90611151565b60405180910390fd5b61047c856104746107dd565b8584036107e5565b60019150509392505050565b60006012905090565b60007f0000000000000000000000000000000000000000000000000000000000000000905090565b600061055b6104c66107dd565b8484600160006104d46107dd565b73ffffffffffffffffffffffffffffffffffffffff1673ffffffffffffffffffffffffffffffffffffffff16815260200190815260200160002060008873ffffffffffffffffffffffffffffffffffffffff1673ffffffffffffffffffffffffffffffffffffffff168152602001908152602001600020546105569190611263565b6107e5565b6001905092915050565b61056f8282610c26565b5050565b60008060008373ffffffffffffffffffffffffffffffffffffffff1673ffffffffffffffffffffffffffffffffffffffff168152602001908152602001600020549050919050565b6060600480546105ca90611341565b80601f01602080910402602001604051908101604052809291908181526020018280546105f690611341565b80156106435780601f1061061857610100808354040283529160200191610643565b820191906000526020600020905b81548152906001019060200180831161062657829003601f168201915b5050505050905090565b6000806001600061065c6107dd565b73ffffffffffffffffffffffffffffffffffffffff1673ffffffffffffffffffffffffffffffffffffffff16815260200190815260200160002060008573ffffffffffffffffffffffffffffffffffffffff1673ffffffffffffffffffffffffffffffffffffffff16815260200190815260200160002054905082811015610719576040517f08c379a0000000000000000000000000000000000000000000000000000000008152600401610710906111d1565b60405180910390fd5b61072d6107246107dd565b858584036107e5565b600191505092915050565b600061074c6107456107dd565b84846109b0565b6001905092915050565b6000600160008473ffffffffffffffffffffffffffffffffffffffff1673ffffffffffffffffffffffffffffffffffffffff16815260200190815260200160002060008373ffffffffffffffffffffffffffffffffffffffff1673ffffffffffffffffffffffffffffffffffffffff16815260200190815260200160002054905092915050565b600033905090565b600073ffffffffffffffffffffffffffffffffffffffff168373ffffffffffffffffffffffffffffffffffffffff161415610855576040517f08c379a000000000000000000000000000000000000000000000000000000000815260040161084c906111b1565b60405180910390fd5b600073ffffffffffffffffffffffffffffffffffffffff168273ffffffffffffffffffffffffffffffffffffffff1614156108c5576040517f08c379a00000000000000000000000000000000000000000000000000000000081526004016108bc90611111565b60405180910390fd5b80600160008573ffffffffffffffffffffffffffffffffffffffff1673ffffffffffffffffffffffffffffffffffffffff16815260200190815260200160002060008473ffffffffffffffffffffffffffffffffffffffff1673ffffffffffffffffffffffffffffffffffffffff168152602001908152602001600020819055508173ffffffffffffffffffffffffffffffffffffffff168373ffffffffffffffffffffffffffffffffffffffff167f8c5be1e5ebec7d5bd14f71427d1e84f3dd0314c0f7b2291e5b200ac8c7c3b925836040516109a39190611211565b60405180910390a3505050565b600073ffffffffffffffffffffffffffffffffffffffff168373ffffffffffffffffffffffffffffffffffffffff161415610a20576040517f08c379a0000000000000000000000000000000000000000000000000000000008152600401610a1790611171565b60405180910390fd5b600073ffffffffffffffffffffffffffffffffffffffff168273ffffffffffffffffffffffffffffffffffffffff161415610a90576040517f08c379a0000000000000000000000000000000000000000000000000000000008152600401610a87906110f1565b60405180910390fd5b610a9b838383610c90565b60008060008573ffffffffffffffffffffffffffffffffffffffff1673ffffffffffffffffffffffffffffffffffffffff16815260200190815260200160002054905081811015610b21576040517f08c379a0000000000000000000000000000000000000000000000000000000008152600401610b1890611131565b60405180910390fd5b8181036000808673ffffffffffffffffffffffffffffffffffffffff1673ffffffffffffffffffffffffffffffffffffffff16815260200190815260200160002081905550816000808573ffffffffffffffffffffffffffffffffffffffff1673ffffffffffffffffffffffffffffffffffffffff1681526020019081526020016000206000828254610bb49190611263565b925050819055508273ffffffffffffffffffffffffffffffffffffffff168473ffffffffffffffffffffffffffffffffffffffff167fddf252ad1be2c89b69c2b068fc378daa952ba7f163c4a11628f55a4df523b3ef84604051610c189190611211565b60405180910390a350505050565b610c2e610491565b81610c37610386565b610c419190611263565b1115610c82576040517f08c379a0000000000000000000000000000000000000000000000000000000008152600401610c7990611191565b60405180910390fd5b610c8c8282610c95565b5050565b505050565b600073ffffffffffffffffffffffffffffffffffffffff168273ffffffffffffffffffffffffffffffffffffffff161415610d05576040517f08c379a0000000000000000000000000000000000000000000000000000000008152600401610cfc906111f1565b60405180910390fd5b610d1160008383610c90565b8060026000828254610d239190611263565b92505081905550806000808473ffffffffffffffffffffffffffffffffffffffff1673ffffffffffffffffffffffffffffffffffffffff1681526020019081526020016000206000828254610d789190611263565b925050819055508173ffffffffffffffffffffffffffffffffffffffff16600073ffffffffffffffffffffffffffffffffffffffff167fddf252ad1be2c89b69c2b068fc378daa952ba7f163c4a11628f55a4df523b3ef83604051610ddd9190611211565b60405180910390a35050565b600081359050610df881611662565b92915050565b600081359050610e0d81611679565b92915050565b600060208284031215610e2957610e286113d1565b5b6000610e3784828501610de9565b91505092915050565b60008060408385031215610e5757610e566113d1565b5b6000610e6585828601610de9565b9250506020610e7685828601610de9565b9150509250929050565b600080600060608486031215610e9957610e986113d1565b5b6000610ea786828701610de9565b9350506020610eb886828701610de9565b9250506040610ec986828701610dfe565b9150509250925092565b60008060408385031215610eea57610ee96113d1565b5b6000610ef885828601610de9565b9250506020610f0985828601610dfe565b9150509250929050565b610f1c816112cb565b82525050565b6000610f2d82611247565b610f378185611252565b9350610f4781856020860161130e565b610f50816113d6565b840191505092915050565b6000610f68602383611252565b9150610f73826113e7565b604082019050919050565b6000610f8b602283611252565b9150610f9682611436565b604082019050919050565b6000610fae602683611252565b9150610fb982611485565b604082019050919050565b6000610fd1602883611252565b9150610fdc826114d4565b604082019050919050565b6000610ff4602583611252565b9150610fff82611523565b604082019050919050565b6000611017601983611252565b915061102282611572565b602082019050919050565b600061103a602483611252565b91506110458261159b565b604082019050919050565b600061105d602583611252565b9150611068826115ea565b604082019050919050565b6000611080601f83611252565b915061108b82611639565b602082019050919050565b61109f816112f7565b82525050565b6110ae81611301565b82525050565b60006020820190506110c96000830184610f13565b92915050565b600060208201905081810360008301526110e98184610f22565b905092915050565b6000602082019050818103600083015261110a81610f5b565b9050919050565b6000602082019050818103600083015261112a81610f7e565b9050919050565b6000602082019050818103600083015261114a81610fa1565b9050919050565b6000602082019050818103600083015261116a81610fc4565b9050919050565b6000602082019050818103600083015261118a81610fe7565b9050919050565b600060208201905081810360008301526111aa8161100a565b9050919050565b600060208201905081810360008301526111ca8161102d565b9050919050565b600060208201905081810360008301526111ea81611050565b9050919050565b6000602082019050818103600083015261120a81611073565b9050919050565b60006020820190506112266000830184611096565b92915050565b600060208201905061124160008301846110a5565b92915050565b600081519050919050565b600082825260208201905092915050565b600061126e826112f7565b9150611279836112f7565b9250827fffffffffffffffffffffffffffffffffffffffffffffffffffffffffffffffff038211156112ae576112ad611373565b5b828201905092915050565b60006112c4826112d7565b9050919050565b60008115159050919050565b600073ffffffffffffffffffffffffffffffffffffffff82169050919050565b6000819050919050565b600060ff82169050919050565b60005b8381101561132c578082015181840152602081019050611311565b8381111561133b576000848401525b50505050565b6000600282049050600182168061135957607f821691505b6020821081141561136d5761136c6113a2565b5b50919050565b7f4e487b7100000000000000000000000000000000000000000000000000000000600052601160045260246000fd5b7f4e487b7100000000000000000000000000000000000000000000000000000000600052602260045260246000fd5b600080fd5b6000601f19601f8301169050919050565b7f45524332303a207472616e7366657220746f20746865207a65726f206164647260008201527f6573730000000000000000000000000000000000000000000000000000000000602082015250565b7f45524332303a20617070726f766520746f20746865207a65726f20616464726560008201527f7373000000000000000000000000000000000000000000000000000000000000602082015250565b7f45524332303a207472616e7366657220616d6f756e742065786365656473206260008201527f616c616e63650000000000000000000000000000000000000000000000000000602082015250565b7f45524332303a207472616e7366657220616d6f756e742065786365656473206160008201527f6c6c6f77616e6365000000000000000000000000000000000000000000000000602082015250565b7f45524332303a207472616e736665722066726f6d20746865207a65726f20616460008201527f6472657373000000000000000000000000000000000000000000000000000000602082015250565b7f45524332304361707065643a2063617020657863656564656400000000000000600082015250565b7f45524332303a20617070726f76652066726f6d20746865207a65726f2061646460008201527f7265737300000000000000000000000000000000000000000000000000000000602082015250565b7f45524332303a2064656372656173656420616c6c6f77616e63652062656c6f7760008201527f207a65726f000000000000000000000000000000000000000000000000000000602082015250565b7f45524332303a206d696e7420746f20746865207a65726f206164647265737300600082015250565b61166b816112b9565b811461167657600080fd5b50565b611682816112f7565b811461168d57600080fd5b5056fea26469706673582212202d9454387ffff2a6d7d08c4ca5f4bc611497cdc20656c0d8711379f035bbed4264736f6c63430008070033",
  "immutableReferences": {
    "15075": [
      {
        "length": 32,
        "start": 1173
      }
    ]
  },
  "source": "// SPDX-License-Identifier: MIT\r\n\r\npragma solidity ^0.8.0;\r\n\r\nimport \"../token/ERC20/extensions/ERC20Capped.sol\";\r\n\r\ncontract ERC20CappedMock is ERC20Capped {\r\n    constructor (string memory name, string memory symbol, uint256 cap)\r\n        ERC20(name, symbol) ERC20Capped(cap)\r\n    { }\r\n\r\n    function mint(address to, uint256 tokenId) public {\r\n        _mint(to, tokenId);\r\n    }\r\n}\r\n",
  "sourcePath": "C:/Users/Husnain/Documents/Projects/Fanbase/fanbase/packages/ethereum/contracts/solidity/openzeppelin/contracts/mocks/ERC20CappedMock.sol",
  "compiler": {
    "name": "solc",
    "version": "0.8.7+commit.e28d00a7.Emscripten.clang"
  },
  "schemaVersion": "3.4.1",
  "updatedAt": "2021-08-24T16:48:46.817Z",
  "devdoc": {
    "kind": "dev",
    "methods": {
      "allowance(address,address)": {
        "details": "See {IERC20-allowance}."
      },
      "approve(address,uint256)": {
        "details": "See {IERC20-approve}. Requirements: - `spender` cannot be the zero address."
      },
      "balanceOf(address)": {
        "details": "See {IERC20-balanceOf}."
      },
      "cap()": {
        "details": "Returns the cap on the token's total supply."
      },
      "decimals()": {
        "details": "Returns the number of decimals used to get its user representation. For example, if `decimals` equals `2`, a balance of `505` tokens should be displayed to a user as `5,05` (`505 / 10 ** 2`). Tokens usually opt for a value of 18, imitating the relationship between Ether and Wei. This is the value {ERC20} uses, unless this function is overridden; NOTE: This information is only used for _display_ purposes: it in no way affects any of the arithmetic of the contract, including {IERC20-balanceOf} and {IERC20-transfer}."
      },
      "decreaseAllowance(address,uint256)": {
        "details": "Atomically decreases the allowance granted to `spender` by the caller. This is an alternative to {approve} that can be used as a mitigation for problems described in {IERC20-approve}. Emits an {Approval} event indicating the updated allowance. Requirements: - `spender` cannot be the zero address. - `spender` must have allowance for the caller of at least `subtractedValue`."
      },
      "increaseAllowance(address,uint256)": {
        "details": "Atomically increases the allowance granted to `spender` by the caller. This is an alternative to {approve} that can be used as a mitigation for problems described in {IERC20-approve}. Emits an {Approval} event indicating the updated allowance. Requirements: - `spender` cannot be the zero address."
      },
      "name()": {
        "details": "Returns the name of the token."
      },
      "symbol()": {
        "details": "Returns the symbol of the token, usually a shorter version of the name."
      },
      "totalSupply()": {
        "details": "See {IERC20-totalSupply}."
      },
      "transfer(address,uint256)": {
        "details": "See {IERC20-transfer}. Requirements: - `recipient` cannot be the zero address. - the caller must have a balance of at least `amount`."
      },
      "transferFrom(address,address,uint256)": {
        "details": "See {IERC20-transferFrom}. Emits an {Approval} event indicating the updated allowance. This is not required by the EIP. See the note at the beginning of {ERC20}. Requirements: - `sender` and `recipient` cannot be the zero address. - `sender` must have a balance of at least `amount`. - the caller must have allowance for ``sender``'s tokens of at least `amount`."
      }
    },
    "version": 1
  },
  "userdoc": {
    "kind": "user",
    "methods": {},
    "version": 1
  }
}