{
  "contractName": "ERC721PausableMock",
  "abi": [
    {
      "inputs": [
        {
          "internalType": "string",
          "name": "name",
          "type": "string"
        },
        {
          "internalType": "string",
          "name": "symbol",
          "type": "string"
        }
      ],
      "stateMutability": "nonpayable",
      "type": "constructor"
    },
    {
      "anonymous": false,
      "inputs": [
        {
          "indexed": true,
          "internalType": "address",
          "name": "owner",
          "type": "address"
        },
        {
          "indexed": true,
          "internalType": "address",
          "name": "approved",
          "type": "address"
        },
        {
          "indexed": true,
          "internalType": "uint256",
          "name": "tokenId",
          "type": "uint256"
        }
      ],
      "name": "Approval",
      "type": "event"
    },
    {
      "anonymous": false,
      "inputs": [
        {
          "indexed": true,
          "internalType": "address",
          "name": "owner",
          "type": "address"
        },
        {
          "indexed": true,
          "internalType": "address",
          "name": "operator",
          "type": "address"
        },
        {
          "indexed": false,
          "internalType": "bool",
          "name": "approved",
          "type": "bool"
        }
      ],
      "name": "ApprovalForAll",
      "type": "event"
    },
    {
      "anonymous": false,
      "inputs": [
        {
          "indexed": false,
          "internalType": "address",
          "name": "account",
          "type": "address"
        }
      ],
      "name": "Paused",
      "type": "event"
    },
    {
      "anonymous": false,
      "inputs": [
        {
          "indexed": true,
          "internalType": "address",
          "name": "from",
          "type": "address"
        },
        {
          "indexed": true,
          "internalType": "address",
          "name": "to",
          "type": "address"
        },
        {
          "indexed": true,
          "internalType": "uint256",
          "name": "tokenId",
          "type": "uint256"
        }
      ],
      "name": "Transfer",
      "type": "event"
    },
    {
      "anonymous": false,
      "inputs": [
        {
          "indexed": false,
          "internalType": "address",
          "name": "account",
          "type": "address"
        }
      ],
      "name": "Unpaused",
      "type": "event"
    },
    {
      "inputs": [
        {
          "internalType": "address",
          "name": "to",
          "type": "address"
        },
        {
          "internalType": "uint256",
          "name": "tokenId",
          "type": "uint256"
        }
      ],
      "name": "approve",
      "outputs": [],
      "stateMutability": "nonpayable",
      "type": "function"
    },
    {
      "inputs": [
        {
          "internalType": "address",
          "name": "owner",
          "type": "address"
        }
      ],
      "name": "balanceOf",
      "outputs": [
        {
          "internalType": "uint256",
          "name": "",
          "type": "uint256"
        }
      ],
      "stateMutability": "view",
      "type": "function"
    },
    {
      "inputs": [
        {
          "internalType": "uint256",
          "name": "tokenId",
          "type": "uint256"
        }
      ],
      "name": "getApproved",
      "outputs": [
        {
          "internalType": "address",
          "name": "",
          "type": "address"
        }
      ],
      "stateMutability": "view",
      "type": "function"
    },
    {
      "inputs": [
        {
          "internalType": "address",
          "name": "owner",
          "type": "address"
        },
        {
          "internalType": "address",
          "name": "operator",
          "type": "address"
        }
      ],
      "name": "isApprovedForAll",
      "outputs": [
        {
          "internalType": "bool",
          "name": "",
          "type": "bool"
        }
      ],
      "stateMutability": "view",
      "type": "function"
    },
    {
      "inputs": [],
      "name": "name",
      "outputs": [
        {
          "internalType": "string",
          "name": "",
          "type": "string"
        }
      ],
      "stateMutability": "view",
      "type": "function"
    },
    {
      "inputs": [
        {
          "internalType": "uint256",
          "name": "tokenId",
          "type": "uint256"
        }
      ],
      "name": "ownerOf",
      "outputs": [
        {
          "internalType": "address",
          "name": "",
          "type": "address"
        }
      ],
      "stateMutability": "view",
      "type": "function"
    },
    {
      "inputs": [],
      "name": "paused",
      "outputs": [
        {
          "internalType": "bool",
          "name": "",
          "type": "bool"
        }
      ],
      "stateMutability": "view",
      "type": "function"
    },
    {
      "inputs": [
        {
          "internalType": "address",
          "name": "from",
          "type": "address"
        },
        {
          "internalType": "address",
          "name": "to",
          "type": "address"
        },
        {
          "internalType": "uint256",
          "name": "tokenId",
          "type": "uint256"
        }
      ],
      "name": "safeTransferFrom",
      "outputs": [],
      "stateMutability": "nonpayable",
      "type": "function"
    },
    {
      "inputs": [
        {
          "internalType": "address",
          "name": "from",
          "type": "address"
        },
        {
          "internalType": "address",
          "name": "to",
          "type": "address"
        },
        {
          "internalType": "uint256",
          "name": "tokenId",
          "type": "uint256"
        },
        {
          "internalType": "bytes",
          "name": "_data",
          "type": "bytes"
        }
      ],
      "name": "safeTransferFrom",
      "outputs": [],
      "stateMutability": "nonpayable",
      "type": "function"
    },
    {
      "inputs": [
        {
          "internalType": "address",
          "name": "operator",
          "type": "address"
        },
        {
          "internalType": "bool",
          "name": "approved",
          "type": "bool"
        }
      ],
      "name": "setApprovalForAll",
      "outputs": [],
      "stateMutability": "nonpayable",
      "type": "function"
    },
    {
      "inputs": [
        {
          "internalType": "bytes4",
          "name": "interfaceId",
          "type": "bytes4"
        }
      ],
      "name": "supportsInterface",
      "outputs": [
        {
          "internalType": "bool",
          "name": "",
          "type": "bool"
        }
      ],
      "stateMutability": "view",
      "type": "function"
    },
    {
      "inputs": [],
      "name": "symbol",
      "outputs": [
        {
          "internalType": "string",
          "name": "",
          "type": "string"
        }
      ],
      "stateMutability": "view",
      "type": "function"
    },
    {
      "inputs": [
        {
          "internalType": "uint256",
          "name": "tokenId",
          "type": "uint256"
        }
      ],
      "name": "tokenURI",
      "outputs": [
        {
          "internalType": "string",
          "name": "",
          "type": "string"
        }
      ],
      "stateMutability": "view",
      "type": "function"
    },
    {
      "inputs": [
        {
          "internalType": "address",
          "name": "from",
          "type": "address"
        },
        {
          "internalType": "address",
          "name": "to",
          "type": "address"
        },
        {
          "internalType": "uint256",
          "name": "tokenId",
          "type": "uint256"
        }
      ],
      "name": "transferFrom",
      "outputs": [],
      "stateMutability": "nonpayable",
      "type": "function"
    },
    {
      "inputs": [],
      "name": "pause",
      "outputs": [],
      "stateMutability": "nonpayable",
      "type": "function"
    },
    {
      "inputs": [],
      "name": "unpause",
      "outputs": [],
      "stateMutability": "nonpayable",
      "type": "function"
    },
    {
      "inputs": [
        {
          "internalType": "uint256",
          "name": "tokenId",
          "type": "uint256"
        }
      ],
      "name": "exists",
      "outputs": [
        {
          "internalType": "bool",
          "name": "",
          "type": "bool"
        }
      ],
      "stateMutability": "view",
      "type": "function"
    },
    {
      "inputs": [
        {
          "internalType": "address",
          "name": "to",
          "type": "address"
        },
        {
          "internalType": "uint256",
          "name": "tokenId",
          "type": "uint256"
        }
      ],
      "name": "mint",
      "outputs": [],
      "stateMutability": "nonpayable",
      "type": "function"
    },
    {
      "inputs": [
        {
          "internalType": "address",
          "name": "to",
          "type": "address"
        },
        {
          "internalType": "uint256",
          "name": "tokenId",
          "type": "uint256"
        },
        {
          "internalType": "bytes",
          "name": "_data",
          "type": "bytes"
        }
      ],
      "name": "safeMint",
      "outputs": [],
      "stateMutability": "nonpayable",
      "type": "function"
    },
    {
      "inputs": [
        {
          "internalType": "address",
          "name": "to",
          "type": "address"
        },
        {
          "internalType": "uint256",
          "name": "tokenId",
          "type": "uint256"
        }
      ],
      "name": "safeMint",
      "outputs": [],
      "stateMutability": "nonpayable",
      "type": "function"
    },
    {
      "inputs": [
        {
          "internalType": "uint256",
          "name": "tokenId",
          "type": "uint256"
        }
      ],
      "name": "burn",
      "outputs": [],
      "stateMutability": "nonpayable",
      "type": "function"
    }
  ],
  "bytecode": "0x60806040523480156200001157600080fd5b50604051620030f8380380620030f88339818101604052810190620000379190620001be565b818181600090805190602001906200005192919062000090565b5080600190805190602001906200006a92919062000090565b5050506000600660006101000a81548160ff0219169083151502179055505050620003c7565b8280546200009e90620002d8565b90600052602060002090601f016020900481019282620000c257600085556200010e565b82601f10620000dd57805160ff19168380011785556200010e565b828001600101855582156200010e579182015b828111156200010d578251825591602001919060010190620000f0565b5b5090506200011d919062000121565b5090565b5b808211156200013c57600081600090555060010162000122565b5090565b60006200015762000151846200026c565b62000243565b905082815260208101848484011115620001765762000175620003a7565b5b62000183848285620002a2565b509392505050565b600082601f830112620001a357620001a2620003a2565b5b8151620001b584826020860162000140565b91505092915050565b60008060408385031215620001d857620001d7620003b1565b5b600083015167ffffffffffffffff811115620001f957620001f8620003ac565b5b62000207858286016200018b565b925050602083015167ffffffffffffffff8111156200022b576200022a620003ac565b5b62000239858286016200018b565b9150509250929050565b60006200024f62000262565b90506200025d82826200030e565b919050565b6000604051905090565b600067ffffffffffffffff8211156200028a576200028962000373565b5b6200029582620003b6565b9050602081019050919050565b60005b83811015620002c2578082015181840152602081019050620002a5565b83811115620002d2576000848401525b50505050565b60006002820490506001821680620002f157607f821691505b6020821081141562000308576200030762000344565b5b50919050565b6200031982620003b6565b810181811067ffffffffffffffff821117156200033b576200033a62000373565b5b80604052505050565b7f4e487b7100000000000000000000000000000000000000000000000000000000600052602260045260246000fd5b7f4e487b7100000000000000000000000000000000000000000000000000000000600052604160045260246000fd5b600080fd5b600080fd5b600080fd5b600080fd5b6000601f19601f8301169050919050565b612d2180620003d76000396000f3fe608060405234801561001057600080fd5b50600436106101375760003560e01c80635c975abb116100b857806395d89b411161007c57806395d89b4114610324578063a144819414610342578063a22cb4651461035e578063b88d4fde1461037a578063c87b56dd14610396578063e985e9c5146103c657610137565b80635c975abb146102805780636352211e1461029e57806370a08231146102ce5780638456cb59146102fe5780638832e6e31461030857610137565b80633f4ba83a116100ff5780633f4ba83a146101f257806340c10f19146101fc57806342842e0e1461021857806342966c68146102345780634f558e791461025057610137565b806301ffc9a71461013c57806306fdde031461016c578063081812fc1461018a578063095ea7b3146101ba57806323b872dd146101d6575b600080fd5b61015660048036038101906101519190611d6a565b6103f6565b604051610163919061219f565b60405180910390f35b6101746104d8565b60405161018191906121ba565b60405180910390f35b6101a4600480360381019061019f9190611dc4565b61056a565b6040516101b19190612138565b60405180910390f35b6101d460048036038101906101cf9190611cbb565b6105ef565b005b6101f060048036038101906101eb9190611ba5565b610707565b005b6101fa610767565b005b61021660048036038101906102119190611cbb565b610771565b005b610232600480360381019061022d9190611ba5565b61077f565b005b61024e60048036038101906102499190611dc4565b61079f565b005b61026a60048036038101906102659190611dc4565b6107ab565b604051610277919061219f565b60405180910390f35b6102886107bd565b604051610295919061219f565b60405180910390f35b6102b860048036038101906102b39190611dc4565b6107d4565b6040516102c59190612138565b60405180910390f35b6102e860048036038101906102e39190611b38565b610886565b6040516102f591906123fc565b60405180910390f35b61030661093e565b005b610322600480360381019061031d9190611cfb565b610948565b005b61032c610958565b60405161033991906121ba565b60405180910390f35b61035c60048036038101906103579190611cbb565b6109ea565b005b61037860048036038101906103739190611c7b565b6109f8565b005b610394600480360381019061038f9190611bf8565b610b79565b005b6103b060048036038101906103ab9190611dc4565b610bdb565b6040516103bd91906121ba565b60405180910390f35b6103e060048036038101906103db9190611b65565b610c82565b6040516103ed919061219f565b60405180910390f35b60007f80ac58cd000000000000000000000000000000000000000000000000000000007bffffffffffffffffffffffffffffffffffffffffffffffffffffffff1916827bffffffffffffffffffffffffffffffffffffffffffffffffffffffff191614806104c157507f5b5e139f000000000000000000000000000000000000000000000000000000007bffffffffffffffffffffffffffffffffffffffffffffffffffffffff1916827bffffffffffffffffffffffffffffffffffffffffffffffffffffffff1916145b806104d157506104d082610d16565b5b9050919050565b6060600080546104e790612621565b80601f016020809104026020016040519081016040528092919081815260200182805461051390612621565b80156105605780601f1061053557610100808354040283529160200191610560565b820191906000526020600020905b81548152906001019060200180831161054357829003601f168201915b5050505050905090565b600061057582610d80565b6105b4576040517f08c379a00000000000000000000000000000000000000000000000000000000081526004016105ab9061235c565b60405180910390fd5b6004600083815260200190815260200160002060009054906101000a900473ffffffffffffffffffffffffffffffffffffffff169050919050565b60006105fa826107d4565b90508073ffffffffffffffffffffffffffffffffffffffff168373ffffffffffffffffffffffffffffffffffffffff16141561066b576040517f08c379a0000000000000000000000000000000000000000000000000000000008152600401610662906123bc565b60405180910390fd5b8073ffffffffffffffffffffffffffffffffffffffff1661068a610dec565b73ffffffffffffffffffffffffffffffffffffffff1614806106b957506106b8816106b3610dec565b610c82565b5b6106f8576040517f08c379a00000000000000000000000000000000000000000000000000000000081526004016106ef906122dc565b60405180910390fd5b6107028383610df4565b505050565b610718610712610dec565b82610ead565b610757576040517f08c379a000000000000000000000000000000000000000000000000000000000815260040161074e906123dc565b60405180910390fd5b610762838383610f8b565b505050565b61076f6111e7565b565b61077b8282611289565b5050565b61079a83838360405180602001604052806000815250610b79565b505050565b6107a881611457565b50565b60006107b682610d80565b9050919050565b6000600660009054906101000a900460ff16905090565b6000806002600084815260200190815260200160002060009054906101000a900473ffffffffffffffffffffffffffffffffffffffff169050600073ffffffffffffffffffffffffffffffffffffffff168173ffffffffffffffffffffffffffffffffffffffff16141561087d576040517f08c379a00000000000000000000000000000000000000000000000000000000081526004016108749061231c565b60405180910390fd5b80915050919050565b60008073ffffffffffffffffffffffffffffffffffffffff168273ffffffffffffffffffffffffffffffffffffffff1614156108f7576040517f08c379a00000000000000000000000000000000000000000000000000000000081526004016108ee906122fc565b60405180910390fd5b600360008373ffffffffffffffffffffffffffffffffffffffff1673ffffffffffffffffffffffffffffffffffffffff168152602001908152602001600020549050919050565b610946611568565b565b61095383838361160b565b505050565b60606001805461096790612621565b80601f016020809104026020016040519081016040528092919081815260200182805461099390612621565b80156109e05780601f106109b5576101008083540402835291602001916109e0565b820191906000526020600020905b8154815290600101906020018083116109c357829003601f168201915b5050505050905090565b6109f48282611666565b5050565b610a00610dec565b73ffffffffffffffffffffffffffffffffffffffff168273ffffffffffffffffffffffffffffffffffffffff161415610a6e576040517f08c379a0000000000000000000000000000000000000000000000000000000008152600401610a659061227c565b60405180910390fd5b8060056000610a7b610dec565b73ffffffffffffffffffffffffffffffffffffffff1673ffffffffffffffffffffffffffffffffffffffff16815260200190815260200160002060008473ffffffffffffffffffffffffffffffffffffffff1673ffffffffffffffffffffffffffffffffffffffff16815260200190815260200160002060006101000a81548160ff0219169083151502179055508173ffffffffffffffffffffffffffffffffffffffff16610b28610dec565b73ffffffffffffffffffffffffffffffffffffffff167f17307eab39ab6107e8899845ad3d59bd9653f200f220920489ca2b5937696c3183604051610b6d919061219f565b60405180910390a35050565b610b8a610b84610dec565b83610ead565b610bc9576040517f08c379a0000000000000000000000000000000000000000000000000000000008152600401610bc0906123dc565b60405180910390fd5b610bd584848484611684565b50505050565b6060610be682610d80565b610c25576040517f08c379a0000000000000000000000000000000000000000000000000000000008152600401610c1c9061239c565b60405180910390fd5b6000610c2f6116e0565b90506000815111610c4f5760405180602001604052806000815250610c7a565b80610c59846116f7565b604051602001610c6a929190612114565b6040516020818303038152906040525b915050919050565b6000600560008473ffffffffffffffffffffffffffffffffffffffff1673ffffffffffffffffffffffffffffffffffffffff16815260200190815260200160002060008373ffffffffffffffffffffffffffffffffffffffff1673ffffffffffffffffffffffffffffffffffffffff16815260200190815260200160002060009054906101000a900460ff16905092915050565b60007f01ffc9a7000000000000000000000000000000000000000000000000000000007bffffffffffffffffffffffffffffffffffffffffffffffffffffffff1916827bffffffffffffffffffffffffffffffffffffffffffffffffffffffff1916149050919050565b60008073ffffffffffffffffffffffffffffffffffffffff166002600084815260200190815260200160002060009054906101000a900473ffffffffffffffffffffffffffffffffffffffff1673ffffffffffffffffffffffffffffffffffffffff1614159050919050565b600033905090565b816004600083815260200190815260200160002060006101000a81548173ffffffffffffffffffffffffffffffffffffffff021916908373ffffffffffffffffffffffffffffffffffffffff160217905550808273ffffffffffffffffffffffffffffffffffffffff16610e67836107d4565b73ffffffffffffffffffffffffffffffffffffffff167f8c5be1e5ebec7d5bd14f71427d1e84f3dd0314c0f7b2291e5b200ac8c7c3b92560405160405180910390a45050565b6000610eb882610d80565b610ef7576040517f08c379a0000000000000000000000000000000000000000000000000000000008152600401610eee9061229c565b60405180910390fd5b6000610f02836107d4565b90508073ffffffffffffffffffffffffffffffffffffffff168473ffffffffffffffffffffffffffffffffffffffff161480610f7157508373ffffffffffffffffffffffffffffffffffffffff16610f598461056a565b73ffffffffffffffffffffffffffffffffffffffff16145b80610f825750610f818185610c82565b5b91505092915050565b8273ffffffffffffffffffffffffffffffffffffffff16610fab826107d4565b73ffffffffffffffffffffffffffffffffffffffff1614611001576040517f08c379a0000000000000000000000000000000000000000000000000000000008152600401610ff89061237c565b60405180910390fd5b600073ffffffffffffffffffffffffffffffffffffffff168273ffffffffffffffffffffffffffffffffffffffff161415611071576040517f08c379a00000000000000000000000000000000000000000000000000000000081526004016110689061225c565b60405180910390fd5b61107c838383611858565b611087600082610df4565b6001600360008573ffffffffffffffffffffffffffffffffffffffff1673ffffffffffffffffffffffffffffffffffffffff16815260200190815260200160002060008282546110d79190612537565b925050819055506001600360008473ffffffffffffffffffffffffffffffffffffffff1673ffffffffffffffffffffffffffffffffffffffff168152602001908152602001600020600082825461112e91906124b0565b92505081905550816002600083815260200190815260200160002060006101000a81548173ffffffffffffffffffffffffffffffffffffffff021916908373ffffffffffffffffffffffffffffffffffffffff160217905550808273ffffffffffffffffffffffffffffffffffffffff168473ffffffffffffffffffffffffffffffffffffffff167fddf252ad1be2c89b69c2b068fc378daa952ba7f163c4a11628f55a4df523b3ef60405160405180910390a4505050565b6111ef6107bd565b61122e576040517f08c379a0000000000000000000000000000000000000000000000000000000008152600401611225906121fc565b60405180910390fd5b6000600660006101000a81548160ff0219169083151502179055507f5db9ee0a495bf2e6ff9c91a7834c1ba4fdd244a5e8aa4e537bd38aeae4b073aa611272610dec565b60405161127f9190612138565b60405180910390a1565b600073ffffffffffffffffffffffffffffffffffffffff168273ffffffffffffffffffffffffffffffffffffffff1614156112f9576040517f08c379a00000000000000000000000000000000000000000000000000000000081526004016112f09061233c565b60405180910390fd5b61130281610d80565b15611342576040517f08c379a00000000000000000000000000000000000000000000000000000000081526004016113399061223c565b60405180910390fd5b61134e60008383611858565b6001600360008473ffffffffffffffffffffffffffffffffffffffff1673ffffffffffffffffffffffffffffffffffffffff168152602001908152602001600020600082825461139e91906124b0565b92505081905550816002600083815260200190815260200160002060006101000a81548173ffffffffffffffffffffffffffffffffffffffff021916908373ffffffffffffffffffffffffffffffffffffffff160217905550808273ffffffffffffffffffffffffffffffffffffffff16600073ffffffffffffffffffffffffffffffffffffffff167fddf252ad1be2c89b69c2b068fc378daa952ba7f163c4a11628f55a4df523b3ef60405160405180910390a45050565b6000611462826107d4565b905061147081600084611858565b61147b600083610df4565b6001600360008373ffffffffffffffffffffffffffffffffffffffff1673ffffffffffffffffffffffffffffffffffffffff16815260200190815260200160002060008282546114cb9190612537565b925050819055506002600083815260200190815260200160002060006101000a81549073ffffffffffffffffffffffffffffffffffffffff021916905581600073ffffffffffffffffffffffffffffffffffffffff168273ffffffffffffffffffffffffffffffffffffffff167fddf252ad1be2c89b69c2b068fc378daa952ba7f163c4a11628f55a4df523b3ef60405160405180910390a45050565b6115706107bd565b156115b0576040517f08c379a00000000000000000000000000000000000000000000000000000000081526004016115a7906122bc565b60405180910390fd5b6001600660006101000a81548160ff0219169083151502179055507f62e78cea01bee320cd4e420270b5ea74000d11b0c9f74754ebdbfc544b05a2586115f4610dec565b6040516116019190612138565b60405180910390a1565b6116158383611289565b61162260008484846118b0565b611661576040517f08c379a00000000000000000000000000000000000000000000000000000000081526004016116589061221c565b60405180910390fd5b505050565b61168082826040518060200160405280600081525061160b565b5050565b61168f848484610f8b565b61169b848484846118b0565b6116da576040517f08c379a00000000000000000000000000000000000000000000000000000000081526004016116d19061221c565b60405180910390fd5b50505050565b606060405180602001604052806000815250905090565b6060600082141561173f576040518060400160405280600181526020017f30000000000000000000000000000000000000000000000000000000000000008152509050611853565b600082905060005b6000821461177157808061175a90612684565b915050600a8261176a9190612506565b9150611747565b60008167ffffffffffffffff81111561178d5761178c6127ba565b5b6040519080825280601f01601f1916602001820160405280156117bf5781602001600182028036833780820191505090505b5090505b6000851461184c576001826117d89190612537565b9150600a856117e791906126cd565b60306117f391906124b0565b60f81b8183815181106118095761180861278b565b5b60200101907effffffffffffffffffffffffffffffffffffffffffffffffffffffffffffff1916908160001a905350600a856118459190612506565b94506117c3565b8093505050505b919050565b611863838383611a47565b61186b6107bd565b156118ab576040517f08c379a00000000000000000000000000000000000000000000000000000000081526004016118a2906121dc565b60405180910390fd5b505050565b60006118d18473ffffffffffffffffffffffffffffffffffffffff16611a4c565b15611a3a578373ffffffffffffffffffffffffffffffffffffffff1663150b7a026118fa610dec565b8786866040518563ffffffff1660e01b815260040161191c9493929190612153565b602060405180830381600087803b15801561193657600080fd5b505af192505050801561196757506040513d601f19601f820116820180604052508101906119649190611d97565b60015b6119ea573d8060008114611997576040519150601f19603f3d011682016040523d82523d6000602084013e61199c565b606091505b506000815114156119e2576040517f08c379a00000000000000000000000000000000000000000000000000000000081526004016119d99061221c565b60405180910390fd5b805181602001fd5b63150b7a0260e01b7bffffffffffffffffffffffffffffffffffffffffffffffffffffffff1916817bffffffffffffffffffffffffffffffffffffffffffffffffffffffff191614915050611a3f565b600190505b949350505050565b505050565b600080823b905060008111915050919050565b6000611a72611a6d8461243c565b612417565b905082815260208101848484011115611a8e57611a8d6127ee565b5b611a998482856125df565b509392505050565b600081359050611ab081612c8f565b92915050565b600081359050611ac581612ca6565b92915050565b600081359050611ada81612cbd565b92915050565b600081519050611aef81612cbd565b92915050565b600082601f830112611b0a57611b096127e9565b5b8135611b1a848260208601611a5f565b91505092915050565b600081359050611b3281612cd4565b92915050565b600060208284031215611b4e57611b4d6127f8565b5b6000611b5c84828501611aa1565b91505092915050565b60008060408385031215611b7c57611b7b6127f8565b5b6000611b8a85828601611aa1565b9250506020611b9b85828601611aa1565b9150509250929050565b600080600060608486031215611bbe57611bbd6127f8565b5b6000611bcc86828701611aa1565b9350506020611bdd86828701611aa1565b9250506040611bee86828701611b23565b9150509250925092565b60008060008060808587031215611c1257611c116127f8565b5b6000611c2087828801611aa1565b9450506020611c3187828801611aa1565b9350506040611c4287828801611b23565b925050606085013567ffffffffffffffff811115611c6357611c626127f3565b5b611c6f87828801611af5565b91505092959194509250565b60008060408385031215611c9257611c916127f8565b5b6000611ca085828601611aa1565b9250506020611cb185828601611ab6565b9150509250929050565b60008060408385031215611cd257611cd16127f8565b5b6000611ce085828601611aa1565b9250506020611cf185828601611b23565b9150509250929050565b600080600060608486031215611d1457611d136127f8565b5b6000611d2286828701611aa1565b9350506020611d3386828701611b23565b925050604084013567ffffffffffffffff811115611d5457611d536127f3565b5b611d6086828701611af5565b9150509250925092565b600060208284031215611d8057611d7f6127f8565b5b6000611d8e84828501611acb565b91505092915050565b600060208284031215611dad57611dac6127f8565b5b6000611dbb84828501611ae0565b91505092915050565b600060208284031215611dda57611dd96127f8565b5b6000611de884828501611b23565b91505092915050565b611dfa8161256b565b82525050565b611e098161257d565b82525050565b6000611e1a8261246d565b611e248185612483565b9350611e348185602086016125ee565b611e3d816127fd565b840191505092915050565b6000611e5382612478565b611e5d8185612494565b9350611e6d8185602086016125ee565b611e76816127fd565b840191505092915050565b6000611e8c82612478565b611e9681856124a5565b9350611ea68185602086016125ee565b80840191505092915050565b6000611ebf602b83612494565b9150611eca8261280e565b604082019050919050565b6000611ee2601483612494565b9150611eed8261285d565b602082019050919050565b6000611f05603283612494565b9150611f1082612886565b604082019050919050565b6000611f28601c83612494565b9150611f33826128d5565b602082019050919050565b6000611f4b602483612494565b9150611f56826128fe565b604082019050919050565b6000611f6e601983612494565b9150611f798261294d565b602082019050919050565b6000611f91602c83612494565b9150611f9c82612976565b604082019050919050565b6000611fb4601083612494565b9150611fbf826129c5565b602082019050919050565b6000611fd7603883612494565b9150611fe2826129ee565b604082019050919050565b6000611ffa602a83612494565b915061200582612a3d565b604082019050919050565b600061201d602983612494565b915061202882612a8c565b604082019050919050565b6000612040602083612494565b915061204b82612adb565b602082019050919050565b6000612063602c83612494565b915061206e82612b04565b604082019050919050565b6000612086602983612494565b915061209182612b53565b604082019050919050565b60006120a9602f83612494565b91506120b482612ba2565b604082019050919050565b60006120cc602183612494565b91506120d782612bf1565b604082019050919050565b60006120ef603183612494565b91506120fa82612c40565b604082019050919050565b61210e816125d5565b82525050565b60006121208285611e81565b915061212c8284611e81565b91508190509392505050565b600060208201905061214d6000830184611df1565b92915050565b60006080820190506121686000830187611df1565b6121756020830186611df1565b6121826040830185612105565b81810360608301526121948184611e0f565b905095945050505050565b60006020820190506121b46000830184611e00565b92915050565b600060208201905081810360008301526121d48184611e48565b905092915050565b600060208201905081810360008301526121f581611eb2565b9050919050565b6000602082019050818103600083015261221581611ed5565b9050919050565b6000602082019050818103600083015261223581611ef8565b9050919050565b6000602082019050818103600083015261225581611f1b565b9050919050565b6000602082019050818103600083015261227581611f3e565b9050919050565b6000602082019050818103600083015261229581611f61565b9050919050565b600060208201905081810360008301526122b581611f84565b9050919050565b600060208201905081810360008301526122d581611fa7565b9050919050565b600060208201905081810360008301526122f581611fca565b9050919050565b6000602082019050818103600083015261231581611fed565b9050919050565b6000602082019050818103600083015261233581612010565b9050919050565b6000602082019050818103600083015261235581612033565b9050919050565b6000602082019050818103600083015261237581612056565b9050919050565b6000602082019050818103600083015261239581612079565b9050919050565b600060208201905081810360008301526123b58161209c565b9050919050565b600060208201905081810360008301526123d5816120bf565b9050919050565b600060208201905081810360008301526123f5816120e2565b9050919050565b60006020820190506124116000830184612105565b92915050565b6000612421612432565b905061242d8282612653565b919050565b6000604051905090565b600067ffffffffffffffff821115612457576124566127ba565b5b612460826127fd565b9050602081019050919050565b600081519050919050565b600081519050919050565b600082825260208201905092915050565b600082825260208201905092915050565b600081905092915050565b60006124bb826125d5565b91506124c6836125d5565b9250827fffffffffffffffffffffffffffffffffffffffffffffffffffffffffffffffff038211156124fb576124fa6126fe565b5b828201905092915050565b6000612511826125d5565b915061251c836125d5565b92508261252c5761252b61272d565b5b828204905092915050565b6000612542826125d5565b915061254d836125d5565b9250828210156125605761255f6126fe565b5b828203905092915050565b6000612576826125b5565b9050919050565b60008115159050919050565b60007fffffffff0000000000000000000000000000000000000000000000000000000082169050919050565b600073ffffffffffffffffffffffffffffffffffffffff82169050919050565b6000819050919050565b82818337600083830152505050565b60005b8381101561260c5780820151818401526020810190506125f1565b8381111561261b576000848401525b50505050565b6000600282049050600182168061263957607f821691505b6020821081141561264d5761264c61275c565b5b50919050565b61265c826127fd565b810181811067ffffffffffffffff8211171561267b5761267a6127ba565b5b80604052505050565b600061268f826125d5565b91507fffffffffffffffffffffffffffffffffffffffffffffffffffffffffffffffff8214156126c2576126c16126fe565b5b600182019050919050565b60006126d8826125d5565b91506126e3836125d5565b9250826126f3576126f261272d565b5b828206905092915050565b7f4e487b7100000000000000000000000000000000000000000000000000000000600052601160045260246000fd5b7f4e487b7100000000000000000000000000000000000000000000000000000000600052601260045260246000fd5b7f4e487b7100000000000000000000000000000000000000000000000000000000600052602260045260246000fd5b7f4e487b7100000000000000000000000000000000000000000000000000000000600052603260045260246000fd5b7f4e487b7100000000000000000000000000000000000000000000000000000000600052604160045260246000fd5b600080fd5b600080fd5b600080fd5b600080fd5b6000601f19601f8301169050919050565b7f4552433732315061757361626c653a20746f6b656e207472616e73666572207760008201527f68696c6520706175736564000000000000000000000000000000000000000000602082015250565b7f5061757361626c653a206e6f7420706175736564000000000000000000000000600082015250565b7f4552433732313a207472616e7366657220746f206e6f6e20455243373231526560008201527f63656976657220696d706c656d656e7465720000000000000000000000000000602082015250565b7f4552433732313a20746f6b656e20616c7265616479206d696e74656400000000600082015250565b7f4552433732313a207472616e7366657220746f20746865207a65726f2061646460008201527f7265737300000000000000000000000000000000000000000000000000000000602082015250565b7f4552433732313a20617070726f766520746f2063616c6c657200000000000000600082015250565b7f4552433732313a206f70657261746f7220717565727920666f72206e6f6e657860008201527f697374656e7420746f6b656e0000000000000000000000000000000000000000602082015250565b7f5061757361626c653a2070617573656400000000000000000000000000000000600082015250565b7f4552433732313a20617070726f76652063616c6c6572206973206e6f74206f7760008201527f6e6572206e6f7220617070726f76656420666f7220616c6c0000000000000000602082015250565b7f4552433732313a2062616c616e636520717565727920666f7220746865207a6560008201527f726f206164647265737300000000000000000000000000000000000000000000602082015250565b7f4552433732313a206f776e657220717565727920666f72206e6f6e657869737460008201527f656e7420746f6b656e0000000000000000000000000000000000000000000000602082015250565b7f4552433732313a206d696e7420746f20746865207a65726f2061646472657373600082015250565b7f4552433732313a20617070726f76656420717565727920666f72206e6f6e657860008201527f697374656e7420746f6b656e0000000000000000000000000000000000000000602082015250565b7f4552433732313a207472616e73666572206f6620746f6b656e2074686174206960008201527f73206e6f74206f776e0000000000000000000000000000000000000000000000602082015250565b7f4552433732314d657461646174613a2055524920717565727920666f72206e6f60008201527f6e6578697374656e7420746f6b656e0000000000000000000000000000000000602082015250565b7f4552433732313a20617070726f76616c20746f2063757272656e74206f776e6560008201527f7200000000000000000000000000000000000000000000000000000000000000602082015250565b7f4552433732313a207472616e736665722063616c6c6572206973206e6f74206f60008201527f776e6572206e6f7220617070726f766564000000000000000000000000000000602082015250565b612c988161256b565b8114612ca357600080fd5b50565b612caf8161257d565b8114612cba57600080fd5b50565b612cc681612589565b8114612cd157600080fd5b50565b612cdd816125d5565b8114612ce857600080fd5b5056fea26469706673582212201854be595f4c212dc766bccf61ace96e256f0a7f410ea0bf7bad93ba6f991cfc64736f6c63430008070033",
  "immutableReferences": {},
  "source": "// SPDX-License-Identifier: MIT\r\n\r\npragma solidity ^0.8.0;\r\n\r\nimport \"../token/ERC721/extensions/ERC721Pausable.sol\";\r\n\r\n/**\r\n * @title ERC721PausableMock\r\n * This mock just provides a public mint, burn and exists functions for testing purposes\r\n */\r\ncontract ERC721PausableMock is ERC721Pausable {\r\n    constructor (string memory name, string memory symbol) ERC721(name, symbol) { }\r\n\r\n    function pause() external {\r\n        _pause();\r\n    }\r\n\r\n    function unpause() external {\r\n        _unpause();\r\n    }\r\n\r\n    function exists(uint256 tokenId) public view returns (bool) {\r\n        return _exists(tokenId);\r\n    }\r\n\r\n    function mint(address to, uint256 tokenId) public {\r\n        _mint(to, tokenId);\r\n    }\r\n\r\n    function safeMint(address to, uint256 tokenId) public {\r\n        _safeMint(to, tokenId);\r\n    }\r\n\r\n    function safeMint(address to, uint256 tokenId, bytes memory _data) public {\r\n        _safeMint(to, tokenId, _data);\r\n    }\r\n\r\n    function burn(uint256 tokenId) public {\r\n        _burn(tokenId);\r\n    }\r\n}\r\n",
  "sourcePath": "C:/Users/Husnain/Documents/Projects/Fanbase/fanbase/packages/ethereum/contracts/solidity/openzeppelin/contracts/mocks/ERC721PausableMock.sol",
  "compiler": {
    "name": "solc",
    "version": "0.8.7+commit.e28d00a7.Emscripten.clang"
  },
  "schemaVersion": "3.4.1",
  "updatedAt": "2021-08-29T17:48:48.906Z",
  "devdoc": {
    "kind": "dev",
    "methods": {
      "approve(address,uint256)": {
        "details": "See {IERC721-approve}."
      },
      "balanceOf(address)": {
        "details": "See {IERC721-balanceOf}."
      },
      "getApproved(uint256)": {
        "details": "See {IERC721-getApproved}."
      },
      "isApprovedForAll(address,address)": {
        "details": "See {IERC721-isApprovedForAll}."
      },
      "name()": {
        "details": "See {IERC721Metadata-name}."
      },
      "ownerOf(uint256)": {
        "details": "See {IERC721-ownerOf}."
      },
      "paused()": {
        "details": "Returns true if the contract is paused, and false otherwise."
      },
      "safeTransferFrom(address,address,uint256)": {
        "details": "See {IERC721-safeTransferFrom}."
      },
      "safeTransferFrom(address,address,uint256,bytes)": {
        "details": "See {IERC721-safeTransferFrom}."
      },
      "setApprovalForAll(address,bool)": {
        "details": "See {IERC721-setApprovalForAll}."
      },
      "supportsInterface(bytes4)": {
        "details": "See {IERC165-supportsInterface}."
      },
      "symbol()": {
        "details": "See {IERC721Metadata-symbol}."
      },
      "tokenURI(uint256)": {
        "details": "See {IERC721Metadata-tokenURI}."
      },
      "transferFrom(address,address,uint256)": {
        "details": "See {IERC721-transferFrom}."
      }
    },
    "title": "ERC721PausableMock This mock just provides a public mint, burn and exists functions for testing purposes",
    "version": 1
  },
  "userdoc": {
    "kind": "user",
    "methods": {},
    "version": 1
  }
}