{
  "contractName": "ERC721Mock",
  "abi": [
    {
      "inputs": [
        {
          "internalType": "string",
          "name": "name",
          "type": "string"
        },
        {
          "internalType": "string",
          "name": "symbol",
          "type": "string"
        }
      ],
      "stateMutability": "nonpayable",
      "type": "constructor"
    },
    {
      "anonymous": false,
      "inputs": [
        {
          "indexed": true,
          "internalType": "address",
          "name": "owner",
          "type": "address"
        },
        {
          "indexed": true,
          "internalType": "address",
          "name": "approved",
          "type": "address"
        },
        {
          "indexed": true,
          "internalType": "uint256",
          "name": "tokenId",
          "type": "uint256"
        }
      ],
      "name": "Approval",
      "type": "event"
    },
    {
      "anonymous": false,
      "inputs": [
        {
          "indexed": true,
          "internalType": "address",
          "name": "owner",
          "type": "address"
        },
        {
          "indexed": true,
          "internalType": "address",
          "name": "operator",
          "type": "address"
        },
        {
          "indexed": false,
          "internalType": "bool",
          "name": "approved",
          "type": "bool"
        }
      ],
      "name": "ApprovalForAll",
      "type": "event"
    },
    {
      "anonymous": false,
      "inputs": [
        {
          "indexed": true,
          "internalType": "address",
          "name": "from",
          "type": "address"
        },
        {
          "indexed": true,
          "internalType": "address",
          "name": "to",
          "type": "address"
        },
        {
          "indexed": true,
          "internalType": "uint256",
          "name": "tokenId",
          "type": "uint256"
        }
      ],
      "name": "Transfer",
      "type": "event"
    },
    {
      "inputs": [
        {
          "internalType": "address",
          "name": "to",
          "type": "address"
        },
        {
          "internalType": "uint256",
          "name": "tokenId",
          "type": "uint256"
        }
      ],
      "name": "approve",
      "outputs": [],
      "stateMutability": "nonpayable",
      "type": "function"
    },
    {
      "inputs": [
        {
          "internalType": "address",
          "name": "owner",
          "type": "address"
        }
      ],
      "name": "balanceOf",
      "outputs": [
        {
          "internalType": "uint256",
          "name": "",
          "type": "uint256"
        }
      ],
      "stateMutability": "view",
      "type": "function"
    },
    {
      "inputs": [
        {
          "internalType": "uint256",
          "name": "tokenId",
          "type": "uint256"
        }
      ],
      "name": "getApproved",
      "outputs": [
        {
          "internalType": "address",
          "name": "",
          "type": "address"
        }
      ],
      "stateMutability": "view",
      "type": "function"
    },
    {
      "inputs": [
        {
          "internalType": "address",
          "name": "owner",
          "type": "address"
        },
        {
          "internalType": "address",
          "name": "operator",
          "type": "address"
        }
      ],
      "name": "isApprovedForAll",
      "outputs": [
        {
          "internalType": "bool",
          "name": "",
          "type": "bool"
        }
      ],
      "stateMutability": "view",
      "type": "function"
    },
    {
      "inputs": [],
      "name": "name",
      "outputs": [
        {
          "internalType": "string",
          "name": "",
          "type": "string"
        }
      ],
      "stateMutability": "view",
      "type": "function"
    },
    {
      "inputs": [
        {
          "internalType": "uint256",
          "name": "tokenId",
          "type": "uint256"
        }
      ],
      "name": "ownerOf",
      "outputs": [
        {
          "internalType": "address",
          "name": "",
          "type": "address"
        }
      ],
      "stateMutability": "view",
      "type": "function"
    },
    {
      "inputs": [
        {
          "internalType": "address",
          "name": "from",
          "type": "address"
        },
        {
          "internalType": "address",
          "name": "to",
          "type": "address"
        },
        {
          "internalType": "uint256",
          "name": "tokenId",
          "type": "uint256"
        }
      ],
      "name": "safeTransferFrom",
      "outputs": [],
      "stateMutability": "nonpayable",
      "type": "function"
    },
    {
      "inputs": [
        {
          "internalType": "address",
          "name": "from",
          "type": "address"
        },
        {
          "internalType": "address",
          "name": "to",
          "type": "address"
        },
        {
          "internalType": "uint256",
          "name": "tokenId",
          "type": "uint256"
        },
        {
          "internalType": "bytes",
          "name": "_data",
          "type": "bytes"
        }
      ],
      "name": "safeTransferFrom",
      "outputs": [],
      "stateMutability": "nonpayable",
      "type": "function"
    },
    {
      "inputs": [
        {
          "internalType": "address",
          "name": "operator",
          "type": "address"
        },
        {
          "internalType": "bool",
          "name": "approved",
          "type": "bool"
        }
      ],
      "name": "setApprovalForAll",
      "outputs": [],
      "stateMutability": "nonpayable",
      "type": "function"
    },
    {
      "inputs": [
        {
          "internalType": "bytes4",
          "name": "interfaceId",
          "type": "bytes4"
        }
      ],
      "name": "supportsInterface",
      "outputs": [
        {
          "internalType": "bool",
          "name": "",
          "type": "bool"
        }
      ],
      "stateMutability": "view",
      "type": "function"
    },
    {
      "inputs": [],
      "name": "symbol",
      "outputs": [
        {
          "internalType": "string",
          "name": "",
          "type": "string"
        }
      ],
      "stateMutability": "view",
      "type": "function"
    },
    {
      "inputs": [
        {
          "internalType": "uint256",
          "name": "tokenId",
          "type": "uint256"
        }
      ],
      "name": "tokenURI",
      "outputs": [
        {
          "internalType": "string",
          "name": "",
          "type": "string"
        }
      ],
      "stateMutability": "view",
      "type": "function"
    },
    {
      "inputs": [
        {
          "internalType": "address",
          "name": "from",
          "type": "address"
        },
        {
          "internalType": "address",
          "name": "to",
          "type": "address"
        },
        {
          "internalType": "uint256",
          "name": "tokenId",
          "type": "uint256"
        }
      ],
      "name": "transferFrom",
      "outputs": [],
      "stateMutability": "nonpayable",
      "type": "function"
    },
    {
      "inputs": [],
      "name": "baseURI",
      "outputs": [
        {
          "internalType": "string",
          "name": "",
          "type": "string"
        }
      ],
      "stateMutability": "view",
      "type": "function"
    },
    {
      "inputs": [
        {
          "internalType": "uint256",
          "name": "tokenId",
          "type": "uint256"
        }
      ],
      "name": "exists",
      "outputs": [
        {
          "internalType": "bool",
          "name": "",
          "type": "bool"
        }
      ],
      "stateMutability": "view",
      "type": "function"
    },
    {
      "inputs": [
        {
          "internalType": "address",
          "name": "to",
          "type": "address"
        },
        {
          "internalType": "uint256",
          "name": "tokenId",
          "type": "uint256"
        }
      ],
      "name": "mint",
      "outputs": [],
      "stateMutability": "nonpayable",
      "type": "function"
    },
    {
      "inputs": [
        {
          "internalType": "address",
          "name": "to",
          "type": "address"
        },
        {
          "internalType": "uint256",
          "name": "tokenId",
          "type": "uint256"
        },
        {
          "internalType": "bytes",
          "name": "_data",
          "type": "bytes"
        }
      ],
      "name": "safeMint",
      "outputs": [],
      "stateMutability": "nonpayable",
      "type": "function"
    },
    {
      "inputs": [
        {
          "internalType": "address",
          "name": "to",
          "type": "address"
        },
        {
          "internalType": "uint256",
          "name": "tokenId",
          "type": "uint256"
        }
      ],
      "name": "safeMint",
      "outputs": [],
      "stateMutability": "nonpayable",
      "type": "function"
    },
    {
      "inputs": [
        {
          "internalType": "uint256",
          "name": "tokenId",
          "type": "uint256"
        }
      ],
      "name": "burn",
      "outputs": [],
      "stateMutability": "nonpayable",
      "type": "function"
    }
  ],
  "bytecode": "0x60806040523480156200001157600080fd5b5060405162002d9038038062002d908339818101604052810190620000379190620001a3565b818181600090805190602001906200005192919062000075565b5080600190805190602001906200006a92919062000075565b5050505050620003ac565b8280546200008390620002bd565b90600052602060002090601f016020900481019282620000a75760008555620000f3565b82601f10620000c257805160ff1916838001178555620000f3565b82800160010185558215620000f3579182015b82811115620000f2578251825591602001919060010190620000d5565b5b50905062000102919062000106565b5090565b5b808211156200012157600081600090555060010162000107565b5090565b60006200013c620001368462000251565b62000228565b9050828152602081018484840111156200015b576200015a6200038c565b5b6200016884828562000287565b509392505050565b600082601f83011262000188576200018762000387565b5b81516200019a84826020860162000125565b91505092915050565b60008060408385031215620001bd57620001bc62000396565b5b600083015167ffffffffffffffff811115620001de57620001dd62000391565b5b620001ec8582860162000170565b925050602083015167ffffffffffffffff81111562000210576200020f62000391565b5b6200021e8582860162000170565b9150509250929050565b60006200023462000247565b9050620002428282620002f3565b919050565b6000604051905090565b600067ffffffffffffffff8211156200026f576200026e62000358565b5b6200027a826200039b565b9050602081019050919050565b60005b83811015620002a75780820151818401526020810190506200028a565b83811115620002b7576000848401525b50505050565b60006002820490506001821680620002d657607f821691505b60208210811415620002ed57620002ec62000329565b5b50919050565b620002fe826200039b565b810181811067ffffffffffffffff8211171562000320576200031f62000358565b5b80604052505050565b7f4e487b7100000000000000000000000000000000000000000000000000000000600052602260045260246000fd5b7f4e487b7100000000000000000000000000000000000000000000000000000000600052604160045260246000fd5b600080fd5b600080fd5b600080fd5b600080fd5b6000601f19601f8301169050919050565b6129d480620003bc6000396000f3fe608060405234801561001057600080fd5b50600436106101215760003560e01c80636352211e116100ad578063a144819411610071578063a144819414610318578063a22cb46514610334578063b88d4fde14610350578063c87b56dd1461036c578063e985e9c51461039c57610121565b80636352211e146102605780636c0360eb1461029057806370a08231146102ae5780638832e6e3146102de57806395d89b41146102fa57610121565b806323b872dd116100f457806323b872dd146101c057806340c10f19146101dc57806342842e0e146101f857806342966c68146102145780634f558e791461023057610121565b806301ffc9a71461012657806306fdde0314610156578063081812fc14610174578063095ea7b3146101a4575b600080fd5b610140600480360381019061013b9190611b87565b6103cc565b60405161014d9190611f53565b60405180910390f35b61015e6104ae565b60405161016b9190611f6e565b60405180910390f35b61018e60048036038101906101899190611be1565b610540565b60405161019b9190611eec565b60405180910390f35b6101be60048036038101906101b99190611ad8565b6105c5565b005b6101da60048036038101906101d591906119c2565b6106dd565b005b6101f660048036038101906101f19190611ad8565b61073d565b005b610212600480360381019061020d91906119c2565b61074b565b005b61022e60048036038101906102299190611be1565b61076b565b005b61024a60048036038101906102459190611be1565b610777565b6040516102579190611f53565b60405180910390f35b61027a60048036038101906102759190611be1565b610789565b6040516102879190611eec565b60405180910390f35b61029861083b565b6040516102a59190611f6e565b60405180910390f35b6102c860048036038101906102c39190611955565b61084a565b6040516102d59190612150565b60405180910390f35b6102f860048036038101906102f39190611b18565b610902565b005b610302610912565b60405161030f9190611f6e565b60405180910390f35b610332600480360381019061032d9190611ad8565b6109a4565b005b61034e60048036038101906103499190611a98565b6109b2565b005b61036a60048036038101906103659190611a15565b610b33565b005b61038660048036038101906103819190611be1565b610b95565b6040516103939190611f6e565b60405180910390f35b6103b660048036038101906103b19190611982565b610c3c565b6040516103c39190611f53565b60405180910390f35b60007f80ac58cd000000000000000000000000000000000000000000000000000000007bffffffffffffffffffffffffffffffffffffffffffffffffffffffff1916827bffffffffffffffffffffffffffffffffffffffffffffffffffffffff1916148061049757507f5b5e139f000000000000000000000000000000000000000000000000000000007bffffffffffffffffffffffffffffffffffffffffffffffffffffffff1916827bffffffffffffffffffffffffffffffffffffffffffffffffffffffff1916145b806104a757506104a682610cd0565b5b9050919050565b6060600080546104bd90612375565b80601f01602080910402602001604051908101604052809291908181526020018280546104e990612375565b80156105365780601f1061050b57610100808354040283529160200191610536565b820191906000526020600020905b81548152906001019060200180831161051957829003601f168201915b5050505050905090565b600061054b82610d3a565b61058a576040517f08c379a0000000000000000000000000000000000000000000000000000000008152600401610581906120b0565b60405180910390fd5b6004600083815260200190815260200160002060009054906101000a900473ffffffffffffffffffffffffffffffffffffffff169050919050565b60006105d082610789565b90508073ffffffffffffffffffffffffffffffffffffffff168373ffffffffffffffffffffffffffffffffffffffff161415610641576040517f08c379a000000000000000000000000000000000000000000000000000000000815260040161063890612110565b60405180910390fd5b8073ffffffffffffffffffffffffffffffffffffffff16610660610da6565b73ffffffffffffffffffffffffffffffffffffffff16148061068f575061068e81610689610da6565b610c3c565b5b6106ce576040517f08c379a00000000000000000000000000000000000000000000000000000000081526004016106c590612030565b60405180910390fd5b6106d88383610dae565b505050565b6106ee6106e8610da6565b82610e67565b61072d576040517f08c379a000000000000000000000000000000000000000000000000000000000815260040161072490612130565b60405180910390fd5b610738838383610f45565b505050565b61074782826111a1565b5050565b61076683838360405180602001604052806000815250610b33565b505050565b6107748161136f565b50565b600061078282610d3a565b9050919050565b6000806002600084815260200190815260200160002060009054906101000a900473ffffffffffffffffffffffffffffffffffffffff169050600073ffffffffffffffffffffffffffffffffffffffff168173ffffffffffffffffffffffffffffffffffffffff161415610832576040517f08c379a000000000000000000000000000000000000000000000000000000000815260040161082990612070565b60405180910390fd5b80915050919050565b6060610845611480565b905090565b60008073ffffffffffffffffffffffffffffffffffffffff168273ffffffffffffffffffffffffffffffffffffffff1614156108bb576040517f08c379a00000000000000000000000000000000000000000000000000000000081526004016108b290612050565b60405180910390fd5b600360008373ffffffffffffffffffffffffffffffffffffffff1673ffffffffffffffffffffffffffffffffffffffff168152602001908152602001600020549050919050565b61090d838383611497565b505050565b60606001805461092190612375565b80601f016020809104026020016040519081016040528092919081815260200182805461094d90612375565b801561099a5780601f1061096f5761010080835404028352916020019161099a565b820191906000526020600020905b81548152906001019060200180831161097d57829003601f168201915b5050505050905090565b6109ae82826114f2565b5050565b6109ba610da6565b73ffffffffffffffffffffffffffffffffffffffff168273ffffffffffffffffffffffffffffffffffffffff161415610a28576040517f08c379a0000000000000000000000000000000000000000000000000000000008152600401610a1f90611ff0565b60405180910390fd5b8060056000610a35610da6565b73ffffffffffffffffffffffffffffffffffffffff1673ffffffffffffffffffffffffffffffffffffffff16815260200190815260200160002060008473ffffffffffffffffffffffffffffffffffffffff1673ffffffffffffffffffffffffffffffffffffffff16815260200190815260200160002060006101000a81548160ff0219169083151502179055508173ffffffffffffffffffffffffffffffffffffffff16610ae2610da6565b73ffffffffffffffffffffffffffffffffffffffff167f17307eab39ab6107e8899845ad3d59bd9653f200f220920489ca2b5937696c3183604051610b279190611f53565b60405180910390a35050565b610b44610b3e610da6565b83610e67565b610b83576040517f08c379a0000000000000000000000000000000000000000000000000000000008152600401610b7a90612130565b60405180910390fd5b610b8f84848484611510565b50505050565b6060610ba082610d3a565b610bdf576040517f08c379a0000000000000000000000000000000000000000000000000000000008152600401610bd6906120f0565b60405180910390fd5b6000610be9611480565b90506000815111610c095760405180602001604052806000815250610c34565b80610c138461156c565b604051602001610c24929190611ec8565b6040516020818303038152906040525b915050919050565b6000600560008473ffffffffffffffffffffffffffffffffffffffff1673ffffffffffffffffffffffffffffffffffffffff16815260200190815260200160002060008373ffffffffffffffffffffffffffffffffffffffff1673ffffffffffffffffffffffffffffffffffffffff16815260200190815260200160002060009054906101000a900460ff16905092915050565b60007f01ffc9a7000000000000000000000000000000000000000000000000000000007bffffffffffffffffffffffffffffffffffffffffffffffffffffffff1916827bffffffffffffffffffffffffffffffffffffffffffffffffffffffff1916149050919050565b60008073ffffffffffffffffffffffffffffffffffffffff166002600084815260200190815260200160002060009054906101000a900473ffffffffffffffffffffffffffffffffffffffff1673ffffffffffffffffffffffffffffffffffffffff1614159050919050565b600033905090565b816004600083815260200190815260200160002060006101000a81548173ffffffffffffffffffffffffffffffffffffffff021916908373ffffffffffffffffffffffffffffffffffffffff160217905550808273ffffffffffffffffffffffffffffffffffffffff16610e2183610789565b73ffffffffffffffffffffffffffffffffffffffff167f8c5be1e5ebec7d5bd14f71427d1e84f3dd0314c0f7b2291e5b200ac8c7c3b92560405160405180910390a45050565b6000610e7282610d3a565b610eb1576040517f08c379a0000000000000000000000000000000000000000000000000000000008152600401610ea890612010565b60405180910390fd5b6000610ebc83610789565b90508073ffffffffffffffffffffffffffffffffffffffff168473ffffffffffffffffffffffffffffffffffffffff161480610f2b57508373ffffffffffffffffffffffffffffffffffffffff16610f1384610540565b73ffffffffffffffffffffffffffffffffffffffff16145b80610f3c5750610f3b8185610c3c565b5b91505092915050565b8273ffffffffffffffffffffffffffffffffffffffff16610f6582610789565b73ffffffffffffffffffffffffffffffffffffffff1614610fbb576040517f08c379a0000000000000000000000000000000000000000000000000000000008152600401610fb2906120d0565b60405180910390fd5b600073ffffffffffffffffffffffffffffffffffffffff168273ffffffffffffffffffffffffffffffffffffffff16141561102b576040517f08c379a000000000000000000000000000000000000000000000000000000000815260040161102290611fd0565b60405180910390fd5b6110368383836116cd565b611041600082610dae565b6001600360008573ffffffffffffffffffffffffffffffffffffffff1673ffffffffffffffffffffffffffffffffffffffff1681526020019081526020016000206000828254611091919061228b565b925050819055506001600360008473ffffffffffffffffffffffffffffffffffffffff1673ffffffffffffffffffffffffffffffffffffffff16815260200190815260200160002060008282546110e89190612204565b92505081905550816002600083815260200190815260200160002060006101000a81548173ffffffffffffffffffffffffffffffffffffffff021916908373ffffffffffffffffffffffffffffffffffffffff160217905550808273ffffffffffffffffffffffffffffffffffffffff168473ffffffffffffffffffffffffffffffffffffffff167fddf252ad1be2c89b69c2b068fc378daa952ba7f163c4a11628f55a4df523b3ef60405160405180910390a4505050565b600073ffffffffffffffffffffffffffffffffffffffff168273ffffffffffffffffffffffffffffffffffffffff161415611211576040517f08c379a000000000000000000000000000000000000000000000000000000000815260040161120890612090565b60405180910390fd5b61121a81610d3a565b1561125a576040517f08c379a000000000000000000000000000000000000000000000000000000000815260040161125190611fb0565b60405180910390fd5b611266600083836116cd565b6001600360008473ffffffffffffffffffffffffffffffffffffffff1673ffffffffffffffffffffffffffffffffffffffff16815260200190815260200160002060008282546112b69190612204565b92505081905550816002600083815260200190815260200160002060006101000a81548173ffffffffffffffffffffffffffffffffffffffff021916908373ffffffffffffffffffffffffffffffffffffffff160217905550808273ffffffffffffffffffffffffffffffffffffffff16600073ffffffffffffffffffffffffffffffffffffffff167fddf252ad1be2c89b69c2b068fc378daa952ba7f163c4a11628f55a4df523b3ef60405160405180910390a45050565b600061137a82610789565b9050611388816000846116cd565b611393600083610dae565b6001600360008373ffffffffffffffffffffffffffffffffffffffff1673ffffffffffffffffffffffffffffffffffffffff16815260200190815260200160002060008282546113e3919061228b565b925050819055506002600083815260200190815260200160002060006101000a81549073ffffffffffffffffffffffffffffffffffffffff021916905581600073ffffffffffffffffffffffffffffffffffffffff168273ffffffffffffffffffffffffffffffffffffffff167fddf252ad1be2c89b69c2b068fc378daa952ba7f163c4a11628f55a4df523b3ef60405160405180910390a45050565b606060405180602001604052806000815250905090565b6114a183836111a1565b6114ae60008484846116d2565b6114ed576040517f08c379a00000000000000000000000000000000000000000000000000000000081526004016114e490611f90565b60405180910390fd5b505050565b61150c828260405180602001604052806000815250611497565b5050565b61151b848484610f45565b611527848484846116d2565b611566576040517f08c379a000000000000000000000000000000000000000000000000000000000815260040161155d90611f90565b60405180910390fd5b50505050565b606060008214156115b4576040518060400160405280600181526020017f300000000000000000000000000000000000000000000000000000000000000081525090506116c8565b600082905060005b600082146115e65780806115cf906123d8565b915050600a826115df919061225a565b91506115bc565b60008167ffffffffffffffff8111156116025761160161250e565b5b6040519080825280601f01601f1916602001820160405280156116345781602001600182028036833780820191505090505b5090505b600085146116c15760018261164d919061228b565b9150600a8561165c9190612421565b60306116689190612204565b60f81b81838151811061167e5761167d6124df565b5b60200101907effffffffffffffffffffffffffffffffffffffffffffffffffffffffffffff1916908160001a905350600a856116ba919061225a565b9450611638565b8093505050505b919050565b505050565b60006116f38473ffffffffffffffffffffffffffffffffffffffff16611869565b1561185c578373ffffffffffffffffffffffffffffffffffffffff1663150b7a0261171c610da6565b8786866040518563ffffffff1660e01b815260040161173e9493929190611f07565b602060405180830381600087803b15801561175857600080fd5b505af192505050801561178957506040513d601f19601f820116820180604052508101906117869190611bb4565b60015b61180c573d80600081146117b9576040519150601f19603f3d011682016040523d82523d6000602084013e6117be565b606091505b50600081511415611804576040517f08c379a00000000000000000000000000000000000000000000000000000000081526004016117fb90611f90565b60405180910390fd5b805181602001fd5b63150b7a0260e01b7bffffffffffffffffffffffffffffffffffffffffffffffffffffffff1916817bffffffffffffffffffffffffffffffffffffffffffffffffffffffff191614915050611861565b600190505b949350505050565b600080823b905060008111915050919050565b600061188f61188a84612190565b61216b565b9050828152602081018484840111156118ab576118aa612542565b5b6118b6848285612333565b509392505050565b6000813590506118cd81612942565b92915050565b6000813590506118e281612959565b92915050565b6000813590506118f781612970565b92915050565b60008151905061190c81612970565b92915050565b600082601f8301126119275761192661253d565b5b813561193784826020860161187c565b91505092915050565b60008135905061194f81612987565b92915050565b60006020828403121561196b5761196a61254c565b5b6000611979848285016118be565b91505092915050565b600080604083850312156119995761199861254c565b5b60006119a7858286016118be565b92505060206119b8858286016118be565b9150509250929050565b6000806000606084860312156119db576119da61254c565b5b60006119e9868287016118be565b93505060206119fa868287016118be565b9250506040611a0b86828701611940565b9150509250925092565b60008060008060808587031215611a2f57611a2e61254c565b5b6000611a3d878288016118be565b9450506020611a4e878288016118be565b9350506040611a5f87828801611940565b925050606085013567ffffffffffffffff811115611a8057611a7f612547565b5b611a8c87828801611912565b91505092959194509250565b60008060408385031215611aaf57611aae61254c565b5b6000611abd858286016118be565b9250506020611ace858286016118d3565b9150509250929050565b60008060408385031215611aef57611aee61254c565b5b6000611afd858286016118be565b9250506020611b0e85828601611940565b9150509250929050565b600080600060608486031215611b3157611b3061254c565b5b6000611b3f868287016118be565b9350506020611b5086828701611940565b925050604084013567ffffffffffffffff811115611b7157611b70612547565b5b611b7d86828701611912565b9150509250925092565b600060208284031215611b9d57611b9c61254c565b5b6000611bab848285016118e8565b91505092915050565b600060208284031215611bca57611bc961254c565b5b6000611bd8848285016118fd565b91505092915050565b600060208284031215611bf757611bf661254c565b5b6000611c0584828501611940565b91505092915050565b611c17816122bf565b82525050565b611c26816122d1565b82525050565b6000611c37826121c1565b611c4181856121d7565b9350611c51818560208601612342565b611c5a81612551565b840191505092915050565b6000611c70826121cc565b611c7a81856121e8565b9350611c8a818560208601612342565b611c9381612551565b840191505092915050565b6000611ca9826121cc565b611cb381856121f9565b9350611cc3818560208601612342565b80840191505092915050565b6000611cdc6032836121e8565b9150611ce782612562565b604082019050919050565b6000611cff601c836121e8565b9150611d0a826125b1565b602082019050919050565b6000611d226024836121e8565b9150611d2d826125da565b604082019050919050565b6000611d456019836121e8565b9150611d5082612629565b602082019050919050565b6000611d68602c836121e8565b9150611d7382612652565b604082019050919050565b6000611d8b6038836121e8565b9150611d96826126a1565b604082019050919050565b6000611dae602a836121e8565b9150611db9826126f0565b604082019050919050565b6000611dd16029836121e8565b9150611ddc8261273f565b604082019050919050565b6000611df46020836121e8565b9150611dff8261278e565b602082019050919050565b6000611e17602c836121e8565b9150611e22826127b7565b604082019050919050565b6000611e3a6029836121e8565b9150611e4582612806565b604082019050919050565b6000611e5d602f836121e8565b9150611e6882612855565b604082019050919050565b6000611e806021836121e8565b9150611e8b826128a4565b604082019050919050565b6000611ea36031836121e8565b9150611eae826128f3565b604082019050919050565b611ec281612329565b82525050565b6000611ed48285611c9e565b9150611ee08284611c9e565b91508190509392505050565b6000602082019050611f016000830184611c0e565b92915050565b6000608082019050611f1c6000830187611c0e565b611f296020830186611c0e565b611f366040830185611eb9565b8181036060830152611f488184611c2c565b905095945050505050565b6000602082019050611f686000830184611c1d565b92915050565b60006020820190508181036000830152611f888184611c65565b905092915050565b60006020820190508181036000830152611fa981611ccf565b9050919050565b60006020820190508181036000830152611fc981611cf2565b9050919050565b60006020820190508181036000830152611fe981611d15565b9050919050565b6000602082019050818103600083015261200981611d38565b9050919050565b6000602082019050818103600083015261202981611d5b565b9050919050565b6000602082019050818103600083015261204981611d7e565b9050919050565b6000602082019050818103600083015261206981611da1565b9050919050565b6000602082019050818103600083015261208981611dc4565b9050919050565b600060208201905081810360008301526120a981611de7565b9050919050565b600060208201905081810360008301526120c981611e0a565b9050919050565b600060208201905081810360008301526120e981611e2d565b9050919050565b6000602082019050818103600083015261210981611e50565b9050919050565b6000602082019050818103600083015261212981611e73565b9050919050565b6000602082019050818103600083015261214981611e96565b9050919050565b60006020820190506121656000830184611eb9565b92915050565b6000612175612186565b905061218182826123a7565b919050565b6000604051905090565b600067ffffffffffffffff8211156121ab576121aa61250e565b5b6121b482612551565b9050602081019050919050565b600081519050919050565b600081519050919050565b600082825260208201905092915050565b600082825260208201905092915050565b600081905092915050565b600061220f82612329565b915061221a83612329565b9250827fffffffffffffffffffffffffffffffffffffffffffffffffffffffffffffffff0382111561224f5761224e612452565b5b828201905092915050565b600061226582612329565b915061227083612329565b9250826122805761227f612481565b5b828204905092915050565b600061229682612329565b91506122a183612329565b9250828210156122b4576122b3612452565b5b828203905092915050565b60006122ca82612309565b9050919050565b60008115159050919050565b60007fffffffff0000000000000000000000000000000000000000000000000000000082169050919050565b600073ffffffffffffffffffffffffffffffffffffffff82169050919050565b6000819050919050565b82818337600083830152505050565b60005b83811015612360578082015181840152602081019050612345565b8381111561236f576000848401525b50505050565b6000600282049050600182168061238d57607f821691505b602082108114156123a1576123a06124b0565b5b50919050565b6123b082612551565b810181811067ffffffffffffffff821117156123cf576123ce61250e565b5b80604052505050565b60006123e382612329565b91507fffffffffffffffffffffffffffffffffffffffffffffffffffffffffffffffff82141561241657612415612452565b5b600182019050919050565b600061242c82612329565b915061243783612329565b92508261244757612446612481565b5b828206905092915050565b7f4e487b7100000000000000000000000000000000000000000000000000000000600052601160045260246000fd5b7f4e487b7100000000000000000000000000000000000000000000000000000000600052601260045260246000fd5b7f4e487b7100000000000000000000000000000000000000000000000000000000600052602260045260246000fd5b7f4e487b7100000000000000000000000000000000000000000000000000000000600052603260045260246000fd5b7f4e487b7100000000000000000000000000000000000000000000000000000000600052604160045260246000fd5b600080fd5b600080fd5b600080fd5b600080fd5b6000601f19601f8301169050919050565b7f4552433732313a207472616e7366657220746f206e6f6e20455243373231526560008201527f63656976657220696d706c656d656e7465720000000000000000000000000000602082015250565b7f4552433732313a20746f6b656e20616c7265616479206d696e74656400000000600082015250565b7f4552433732313a207472616e7366657220746f20746865207a65726f2061646460008201527f7265737300000000000000000000000000000000000000000000000000000000602082015250565b7f4552433732313a20617070726f766520746f2063616c6c657200000000000000600082015250565b7f4552433732313a206f70657261746f7220717565727920666f72206e6f6e657860008201527f697374656e7420746f6b656e0000000000000000000000000000000000000000602082015250565b7f4552433732313a20617070726f76652063616c6c6572206973206e6f74206f7760008201527f6e6572206e6f7220617070726f76656420666f7220616c6c0000000000000000602082015250565b7f4552433732313a2062616c616e636520717565727920666f7220746865207a6560008201527f726f206164647265737300000000000000000000000000000000000000000000602082015250565b7f4552433732313a206f776e657220717565727920666f72206e6f6e657869737460008201527f656e7420746f6b656e0000000000000000000000000000000000000000000000602082015250565b7f4552433732313a206d696e7420746f20746865207a65726f2061646472657373600082015250565b7f4552433732313a20617070726f76656420717565727920666f72206e6f6e657860008201527f697374656e7420746f6b656e0000000000000000000000000000000000000000602082015250565b7f4552433732313a207472616e73666572206f6620746f6b656e2074686174206960008201527f73206e6f74206f776e0000000000000000000000000000000000000000000000602082015250565b7f4552433732314d657461646174613a2055524920717565727920666f72206e6f60008201527f6e6578697374656e7420746f6b656e0000000000000000000000000000000000602082015250565b7f4552433732313a20617070726f76616c20746f2063757272656e74206f776e6560008201527f7200000000000000000000000000000000000000000000000000000000000000602082015250565b7f4552433732313a207472616e736665722063616c6c6572206973206e6f74206f60008201527f776e6572206e6f7220617070726f766564000000000000000000000000000000602082015250565b61294b816122bf565b811461295657600080fd5b50565b612962816122d1565b811461296d57600080fd5b50565b612979816122dd565b811461298457600080fd5b50565b61299081612329565b811461299b57600080fd5b5056fea264697066735822122066450630eee94358e074b026997377bd1731df2b564a7f12cf58f025a889fbce64736f6c63430008060033",
  "immutableReferences": {},
  "source": "// SPDX-License-Identifier: MIT\n\npragma solidity ^0.8.0;\n\nimport \"../token/ERC721/ERC721.sol\";\n\n/**\n * @title ERC721Mock\n * This mock just provides a public safeMint, mint, and burn functions for testing purposes\n */\ncontract ERC721Mock is ERC721 {\n    constructor (string memory name, string memory symbol) ERC721(name, symbol) { }\n\n    function baseURI() public view returns (string memory) {\n        return _baseURI();\n    }\n\n    function exists(uint256 tokenId) public view returns (bool) {\n        return _exists(tokenId);\n    }\n\n    function mint(address to, uint256 tokenId) public {\n        _mint(to, tokenId);\n    }\n\n    function safeMint(address to, uint256 tokenId) public {\n        _safeMint(to, tokenId);\n    }\n\n    function safeMint(address to, uint256 tokenId, bytes memory _data) public {\n        _safeMint(to, tokenId, _data);\n    }\n\n    function burn(uint256 tokenId) public {\n        _burn(tokenId);\n    }\n}\n",
  "sourcePath": "C:/Users/Husnain/Documents/Projects/Fanbase/New/fanbase/packages/ethereum/contracts/solidity/openzeppelin/contracts/mocks/ERC721Mock.sol",
  "compiler": {
    "name": "solc",
    "version": "0.8.6+commit.11564f7e.Emscripten.clang"
  },
  "schemaVersion": "3.4.1",
  "updatedAt": "2021-07-06T14:02:45.801Z",
  "devdoc": {
    "kind": "dev",
    "methods": {
      "approve(address,uint256)": {
        "details": "See {IERC721-approve}."
      },
      "balanceOf(address)": {
        "details": "See {IERC721-balanceOf}."
      },
      "getApproved(uint256)": {
        "details": "See {IERC721-getApproved}."
      },
      "isApprovedForAll(address,address)": {
        "details": "See {IERC721-isApprovedForAll}."
      },
      "name()": {
        "details": "See {IERC721Metadata-name}."
      },
      "ownerOf(uint256)": {
        "details": "See {IERC721-ownerOf}."
      },
      "safeTransferFrom(address,address,uint256)": {
        "details": "See {IERC721-safeTransferFrom}."
      },
      "safeTransferFrom(address,address,uint256,bytes)": {
        "details": "See {IERC721-safeTransferFrom}."
      },
      "setApprovalForAll(address,bool)": {
        "details": "See {IERC721-setApprovalForAll}."
      },
      "supportsInterface(bytes4)": {
        "details": "See {IERC165-supportsInterface}."
      },
      "symbol()": {
        "details": "See {IERC721Metadata-symbol}."
      },
      "tokenURI(uint256)": {
        "details": "See {IERC721Metadata-tokenURI}."
      },
      "transferFrom(address,address,uint256)": {
        "details": "See {IERC721-transferFrom}."
      }
    },
    "title": "ERC721Mock This mock just provides a public safeMint, mint, and burn functions for testing purposes",
    "version": 1
  },
  "userdoc": {
    "kind": "user",
    "methods": {},
    "version": 1
  }
}