{
  "contractName": "LauncherV1",
  "abi": [
    {
      "inputs": [],
      "stateMutability": "nonpayable",
      "type": "constructor"
    },
    {
      "anonymous": false,
      "inputs": [
        {
          "indexed": false,
          "internalType": "address",
          "name": "creator",
          "type": "address"
        },
        {
          "indexed": false,
          "internalType": "string",
          "name": "name",
          "type": "string"
        },
        {
          "indexed": false,
          "internalType": "uint256",
          "name": "quantity",
          "type": "uint256"
        },
        {
          "indexed": false,
          "internalType": "address",
          "name": "instance",
          "type": "address"
        },
        {
          "indexed": false,
          "internalType": "string",
          "name": "message",
          "type": "string"
        }
      ],
      "name": "Launched",
      "type": "event"
    },
    {
      "anonymous": false,
      "inputs": [
        {
          "indexed": true,
          "internalType": "bytes32",
          "name": "role",
          "type": "bytes32"
        },
        {
          "indexed": true,
          "internalType": "bytes32",
          "name": "previousAdminRole",
          "type": "bytes32"
        },
        {
          "indexed": true,
          "internalType": "bytes32",
          "name": "newAdminRole",
          "type": "bytes32"
        }
      ],
      "name": "RoleAdminChanged",
      "type": "event"
    },
    {
      "anonymous": false,
      "inputs": [
        {
          "indexed": true,
          "internalType": "bytes32",
          "name": "role",
          "type": "bytes32"
        },
        {
          "indexed": true,
          "internalType": "address",
          "name": "account",
          "type": "address"
        },
        {
          "indexed": true,
          "internalType": "address",
          "name": "sender",
          "type": "address"
        }
      ],
      "name": "RoleGranted",
      "type": "event"
    },
    {
      "anonymous": false,
      "inputs": [
        {
          "indexed": true,
          "internalType": "bytes32",
          "name": "role",
          "type": "bytes32"
        },
        {
          "indexed": true,
          "internalType": "address",
          "name": "account",
          "type": "address"
        },
        {
          "indexed": true,
          "internalType": "address",
          "name": "sender",
          "type": "address"
        }
      ],
      "name": "RoleRevoked",
      "type": "event"
    },
    {
      "inputs": [],
      "name": "ADMIN_ROLE",
      "outputs": [
        {
          "internalType": "bytes32",
          "name": "",
          "type": "bytes32"
        }
      ],
      "stateMutability": "view",
      "type": "function"
    },
    {
      "inputs": [],
      "name": "DEFAULT_ADMIN_ROLE",
      "outputs": [
        {
          "internalType": "bytes32",
          "name": "",
          "type": "bytes32"
        }
      ],
      "stateMutability": "view",
      "type": "function"
    },
    {
      "inputs": [
        {
          "internalType": "uint256",
          "name": "",
          "type": "uint256"
        }
      ],
      "name": "collections",
      "outputs": [
        {
          "internalType": "address",
          "name": "",
          "type": "address"
        }
      ],
      "stateMutability": "view",
      "type": "function"
    },
    {
      "inputs": [
        {
          "internalType": "bytes32",
          "name": "role",
          "type": "bytes32"
        }
      ],
      "name": "getRoleAdmin",
      "outputs": [
        {
          "internalType": "bytes32",
          "name": "",
          "type": "bytes32"
        }
      ],
      "stateMutability": "view",
      "type": "function"
    },
    {
      "inputs": [
        {
          "internalType": "bytes32",
          "name": "role",
          "type": "bytes32"
        },
        {
          "internalType": "address",
          "name": "account",
          "type": "address"
        }
      ],
      "name": "grantRole",
      "outputs": [],
      "stateMutability": "nonpayable",
      "type": "function"
    },
    {
      "inputs": [
        {
          "internalType": "bytes32",
          "name": "role",
          "type": "bytes32"
        },
        {
          "internalType": "address",
          "name": "account",
          "type": "address"
        }
      ],
      "name": "hasRole",
      "outputs": [
        {
          "internalType": "bool",
          "name": "",
          "type": "bool"
        }
      ],
      "stateMutability": "view",
      "type": "function"
    },
    {
      "inputs": [
        {
          "internalType": "bytes32",
          "name": "role",
          "type": "bytes32"
        },
        {
          "internalType": "address",
          "name": "account",
          "type": "address"
        }
      ],
      "name": "renounceRole",
      "outputs": [],
      "stateMutability": "nonpayable",
      "type": "function"
    },
    {
      "inputs": [
        {
          "internalType": "bytes32",
          "name": "role",
          "type": "bytes32"
        },
        {
          "internalType": "address",
          "name": "account",
          "type": "address"
        }
      ],
      "name": "revokeRole",
      "outputs": [],
      "stateMutability": "nonpayable",
      "type": "function"
    },
    {
      "inputs": [
        {
          "internalType": "bytes4",
          "name": "interfaceId",
          "type": "bytes4"
        }
      ],
      "name": "supportsInterface",
      "outputs": [
        {
          "internalType": "bool",
          "name": "",
          "type": "bool"
        }
      ],
      "stateMutability": "view",
      "type": "function"
    },
    {
      "inputs": [
        {
          "internalType": "address",
          "name": "creator",
          "type": "address"
        },
        {
          "internalType": "string",
          "name": "collectionName",
          "type": "string"
        },
        {
          "internalType": "uint256",
          "name": "maxSupply",
          "type": "uint256"
        },
        {
          "internalType": "string",
          "name": "message",
          "type": "string"
        },
        {
          "components": [
            {
              "internalType": "uint256",
              "name": "expiry",
              "type": "uint256"
            },
            {
              "internalType": "uint256",
              "name": "salt",
              "type": "uint256"
            },
            {
              "internalType": "bytes",
              "name": "sig",
              "type": "bytes"
            }
          ],
          "internalType": "struct LauncherV1.Approval",
          "name": "approval",
          "type": "tuple"
        }
      ],
      "name": "launch",
      "outputs": [],
      "stateMutability": "nonpayable",
      "type": "function"
    },
    {
      "inputs": [
        {
          "internalType": "address",
          "name": "creator",
          "type": "address"
        },
        {
          "internalType": "string",
          "name": "collectionName",
          "type": "string"
        },
        {
          "internalType": "uint256",
          "name": "quantity",
          "type": "uint256"
        },
        {
          "internalType": "string",
          "name": "message",
          "type": "string"
        },
        {
          "internalType": "uint256",
          "name": "expiry",
          "type": "uint256"
        },
        {
          "internalType": "uint256",
          "name": "salt",
          "type": "uint256"
        }
      ],
      "name": "getApprovalHash",
      "outputs": [
        {
          "internalType": "bytes32",
          "name": "",
          "type": "bytes32"
        }
      ],
      "stateMutability": "view",
      "type": "function"
    },
    {
      "inputs": [],
      "name": "allCollections",
      "outputs": [
        {
          "internalType": "address[]",
          "name": "",
          "type": "address[]"
        }
      ],
      "stateMutability": "view",
      "type": "function"
    }
  ],
  "bytecode": "0x60806040523480156200001157600080fd5b50620000276000801b336200009460201b60201c565b620000597fa49807205ce4d355092ef5a8a18f56e8913cf4a201fbe287825b095693c21775336200009460201b60201c565b6200008e7fa49807205ce4d355092ef5a8a18f56e8913cf4a201fbe287825b095693c217756000801b620000aa60201b60201c565b6200028f565b620000a682826200010d60201b60201c565b5050565b6000620000bd83620001fe60201b60201c565b905081600080858152602001908152602001600020600101819055508181847fbd79b86ffe0ab8e8776151514217cd7cacd52c909f66475c3af44e129f0b00ff60405160405180910390a4505050565b6200011f82826200021d60201b60201c565b620001fa57600160008084815260200190815260200160002060000160008373ffffffffffffffffffffffffffffffffffffffff1673ffffffffffffffffffffffffffffffffffffffff16815260200190815260200160002060006101000a81548160ff0219169083151502179055506200019f6200028760201b60201c565b73ffffffffffffffffffffffffffffffffffffffff168173ffffffffffffffffffffffffffffffffffffffff16837f2f8788117e7eff1d82e926ec794901d17c78024a50270940304540a733656f0d60405160405180910390a45b5050565b6000806000838152602001908152602001600020600101549050919050565b600080600084815260200190815260200160002060000160008373ffffffffffffffffffffffffffffffffffffffff1673ffffffffffffffffffffffffffffffffffffffff16815260200190815260200160002060009054906101000a900460ff16905092915050565b600033905090565b61514c806200029f6000396000f3fe60806040523480156200001157600080fd5b5060043610620000c45760003560e01c806375b238fc116200007b57806375b238fc14620001cb57806391d1485414620001ed578063a217fddf1462000223578063d547741f1462000245578063e40d45441462000265578063fdbda0ec146200028757620000c4565b806301ffc9a714620000c9578063248a9ca314620000ff5780632a0bbe6914620001355780632f2ff15d146200015557806336568abe146200017557806372cef5351462000195575b600080fd5b620000e76004803603810190620000e1919062001304565b620002bd565b604051620000f6919062001353565b60405180910390f35b6200011d6004803603810190620001179190620013ab565b6200033a565b6040516200012c9190620013ee565b60405180910390f35b6200015360048036038101906200014d919062001540565b62000359565b005b6200017360048036038101906200016d91906200162e565b62000665565b005b6200019360048036038101906200018d91906200162e565b62000696565b005b620001b36004803603810190620001ad919062001675565b62000720565b604051620001c29190620013ee565b60405180910390f35b620001d562000769565b604051620001e49190620013ee565b60405180910390f35b6200020b60048036038101906200020591906200162e565b6200078d565b6040516200021a919062001353565b60405180910390f35b6200022d620007f7565b6040516200023c9190620013ee565b60405180910390f35b6200026360048036038101906200025d91906200162e565b620007fe565b005b6200026f6200082f565b6040516200027e919062001827565b60405180910390f35b620002a560048036038101906200029f91906200184b565b620008bf565b604051620002b491906200188e565b60405180910390f35b60007f7965db0b000000000000000000000000000000000000000000000000000000007bffffffffffffffffffffffffffffffffffffffffffffffffffffffff1916827bffffffffffffffffffffffffffffffffffffffffffffffffffffffff191614806200033357506200033282620008ff565b5b9050919050565b6000806000838152602001908152602001600020600101549050919050565b42816000013511620003a2576040517f08c379a000000000000000000000000000000000000000000000000000000000815260040162000399906200190c565b60405180910390fd5b6000620003be8888888888888860000135896020013562000720565b90506001600082815260200190815260200160002060009054906101000a900460ff161562000424576040517f08c379a00000000000000000000000000000000000000000000000000000000081526004016200041b906200197e565b60405180910390fd5b6000620004998380604001906200043c9190620019af565b8080601f016020809104026020016040519081016040528093929190818152602001838380828437600081840152601f19601f820116905080830192505050505050506200048a8462000969565b6200099b90919063ffffffff16565b9050600073ffffffffffffffffffffffffffffffffffffffff168173ffffffffffffffffffffffffffffffffffffffff1614158015620005015750620005007fa49807205ce4d355092ef5a8a18f56e8913cf4a201fbe287825b095693c21775826200078d565b5b62000543576040517f08c379a00000000000000000000000000000000000000000000000000000000081526004016200053a9062001a6b565b60405180910390fd5b600180600084815260200190815260200160002060006101000a81548160ff02191690831515021790555060008989898960405162000582906200128f565b62000591949392919062001af1565b604051809103906000f080158015620005ae573d6000803e3d6000fd5b5090506002819080600181540180825580915050600190039060005260206000200160009091909190916101000a81548173ffffffffffffffffffffffffffffffffffffffff021916908373ffffffffffffffffffffffffffffffffffffffff1602179055507f1f99e887bb644842d415f328aff2fac1e3385692145852617fff111f45efd9638a8a8a8a858b8b60405162000651979695949392919062001b37565b60405180910390a150505050505050505050565b62000670826200033a565b62000685816200067f620009c6565b620009ce565b62000691838362000a76565b505050565b620006a0620009c6565b73ffffffffffffffffffffffffffffffffffffffff168173ffffffffffffffffffffffffffffffffffffffff161462000710576040517f08c379a0000000000000000000000000000000000000000000000000000000008152600401620007079062001c1c565b60405180910390fd5b6200071c828262000b5b565b5050565b6000308989898989898989604051602001620007459998979695949392919062001ce7565b60405160208183030381529060405280519060200120905098975050505050505050565b7fa49807205ce4d355092ef5a8a18f56e8913cf4a201fbe287825b095693c2177581565b600080600084815260200190815260200160002060000160008373ffffffffffffffffffffffffffffffffffffffff1673ffffffffffffffffffffffffffffffffffffffff16815260200190815260200160002060009054906101000a900460ff16905092915050565b6000801b81565b62000809826200033a565b6200081e8162000818620009c6565b620009ce565b6200082a838362000b5b565b505050565b60606002805480602002602001604051908101604052809291908181526020018280548015620008b557602002820191906000526020600020905b8160009054906101000a900473ffffffffffffffffffffffffffffffffffffffff1673ffffffffffffffffffffffffffffffffffffffff16815260200190600101908083116200086a575b5050505050905090565b60028181548110620008d057600080fd5b906000526020600020016000915054906101000a900473ffffffffffffffffffffffffffffffffffffffff1681565b60007f01ffc9a7000000000000000000000000000000000000000000000000000000007bffffffffffffffffffffffffffffffffffffffffffffffffffffffff1916827bffffffffffffffffffffffffffffffffffffffffffffffffffffffff1916149050919050565b6000816040516020016200097e919062001de7565b604051602081830303815290604052805190602001209050919050565b6000806000620009ac858562000c41565b91509150620009bb8162000ccc565b819250505092915050565b600033905090565b620009da82826200078d565b62000a725762000a028173ffffffffffffffffffffffffffffffffffffffff16601462000ecd565b62000a128360001c602062000ecd565b60405160200162000a2592919062001f29565b6040516020818303038152906040526040517f08c379a000000000000000000000000000000000000000000000000000000000815260040162000a69919062001fac565b60405180910390fd5b5050565b62000a8282826200078d565b62000b5757600160008084815260200190815260200160002060000160008373ffffffffffffffffffffffffffffffffffffffff1673ffffffffffffffffffffffffffffffffffffffff16815260200190815260200160002060006101000a81548160ff02191690831515021790555062000afc620009c6565b73ffffffffffffffffffffffffffffffffffffffff168173ffffffffffffffffffffffffffffffffffffffff16837f2f8788117e7eff1d82e926ec794901d17c78024a50270940304540a733656f0d60405160405180910390a45b5050565b62000b6782826200078d565b1562000c3d57600080600084815260200190815260200160002060000160008373ffffffffffffffffffffffffffffffffffffffff1673ffffffffffffffffffffffffffffffffffffffff16815260200190815260200160002060006101000a81548160ff02191690831515021790555062000be2620009c6565b73ffffffffffffffffffffffffffffffffffffffff168173ffffffffffffffffffffffffffffffffffffffff16837ff6391f5c32d9c69d2a47ea670b442974b53935d1edc7fd64eb21e047a839171b60405160405180910390a45b5050565b60008060418351141562000c875760008060006020860151925060408601519150606086015160001a905062000c7a8782858562001128565b9450945050505062000cc5565b60408351141562000cbc57600080602085015191506040850151905062000cb08683836200123f565b93509350505062000cc5565b60006002915091505b9250929050565b6000600481111562000ce35762000ce262001fd0565b5b81600481111562000cf95762000cf862001fd0565b5b141562000d065762000eca565b6001600481111562000d1d5762000d1c62001fd0565b5b81600481111562000d335762000d3262001fd0565b5b141562000d77576040517f08c379a000000000000000000000000000000000000000000000000000000000815260040162000d6e906200204f565b60405180910390fd5b6002600481111562000d8e5762000d8d62001fd0565b5b81600481111562000da45762000da362001fd0565b5b141562000de8576040517f08c379a000000000000000000000000000000000000000000000000000000000815260040162000ddf90620020c1565b60405180910390fd5b6003600481111562000dff5762000dfe62001fd0565b5b81600481111562000e155762000e1462001fd0565b5b141562000e59576040517f08c379a000000000000000000000000000000000000000000000000000000000815260040162000e509062002159565b60405180910390fd5b60048081111562000e6f5762000e6e62001fd0565b5b81600481111562000e855762000e8462001fd0565b5b141562000ec9576040517f08c379a000000000000000000000000000000000000000000000000000000000815260040162000ec090620021f1565b60405180910390fd5b5b50565b60606000600283600262000ee2919062002242565b62000eee9190620022a3565b67ffffffffffffffff81111562000f0a5762000f0962002300565b5b6040519080825280601f01601f19166020018201604052801562000f3d5781602001600182028036833780820191505090505b5090507f30000000000000000000000000000000000000000000000000000000000000008160008151811062000f785762000f776200232f565b5b60200101907effffffffffffffffffffffffffffffffffffffffffffffffffffffffffffff1916908160001a9053507f78000000000000000000000000000000000000000000000000000000000000008160018151811062000fdf5762000fde6200232f565b5b60200101907effffffffffffffffffffffffffffffffffffffffffffffffffffffffffffff1916908160001a9053506000600184600262001021919062002242565b6200102d9190620022a3565b90505b6001811115620010d7577f3031323334353637383961626364656600000000000000000000000000000000600f8616601081106200107357620010726200232f565b5b1a60f81b8282815181106200108d576200108c6200232f565b5b60200101907effffffffffffffffffffffffffffffffffffffffffffffffffffffffffffff1916908160001a905350600485901c945080620010cf906200235e565b905062001030565b50600084146200111e576040517f08c379a00000000000000000000000000000000000000000000000000000000081526004016200111590620023dd565b60405180910390fd5b8091505092915050565b6000807f7fffffffffffffffffffffffffffffff5d576e7357a4501ddfe92f46681b20a08360001c11156200116557600060039150915062001236565b601b8560ff16141580156200117e5750601c8560ff1614155b156200119257600060049150915062001236565b600060018787878760405160008152602001604052604051620011b994939291906200241d565b6020604051602081039080840390855afa158015620011dc573d6000803e3d6000fd5b505050602060405103519050600073ffffffffffffffffffffffffffffffffffffffff168173ffffffffffffffffffffffffffffffffffffffff1614156200122d5760006001925092505062001236565b80600092509250505b94509492505050565b6000806000807f7fffffffffffffffffffffffffffffffffffffffffffffffffffffffffffffff85169150601b8560ff1c019050620012818782888562001128565b935093505050935093915050565b612cac806200246b83390190565b600080fd5b600080fd5b60007fffffffff0000000000000000000000000000000000000000000000000000000082169050919050565b620012de81620012a7565b8114620012ea57600080fd5b50565b600081359050620012fe81620012d3565b92915050565b6000602082840312156200131d576200131c6200129d565b5b60006200132d84828501620012ed565b91505092915050565b60008115159050919050565b6200134d8162001336565b82525050565b60006020820190506200136a600083018462001342565b92915050565b6000819050919050565b620013858162001370565b81146200139157600080fd5b50565b600081359050620013a5816200137a565b92915050565b600060208284031215620013c457620013c36200129d565b5b6000620013d48482850162001394565b91505092915050565b620013e88162001370565b82525050565b6000602082019050620014056000830184620013dd565b92915050565b600073ffffffffffffffffffffffffffffffffffffffff82169050919050565b600062001438826200140b565b9050919050565b6200144a816200142b565b81146200145657600080fd5b50565b6000813590506200146a816200143f565b92915050565b600080fd5b600080fd5b600080fd5b60008083601f84011262001498576200149762001470565b5b8235905067ffffffffffffffff811115620014b857620014b762001475565b5b602083019150836001820283011115620014d757620014d66200147a565b5b9250929050565b6000819050919050565b620014f381620014de565b8114620014ff57600080fd5b50565b6000813590506200151381620014e8565b92915050565b600080fd5b60006060828403121562001537576200153662001519565b5b81905092915050565b600080600080600080600060a0888a0312156200156257620015616200129d565b5b6000620015728a828b0162001459565b975050602088013567ffffffffffffffff811115620015965762001595620012a2565b5b620015a48a828b016200147f565b96509650506040620015b98a828b0162001502565b945050606088013567ffffffffffffffff811115620015dd57620015dc620012a2565b5b620015eb8a828b016200147f565b9350935050608088013567ffffffffffffffff811115620016115762001610620012a2565b5b6200161f8a828b016200151e565b91505092959891949750929550565b600080604083850312156200164857620016476200129d565b5b6000620016588582860162001394565b92505060206200166b8582860162001459565b9150509250929050565b60008060008060008060008060c0898b0312156200169857620016976200129d565b5b6000620016a88b828c0162001459565b985050602089013567ffffffffffffffff811115620016cc57620016cb620012a2565b5b620016da8b828c016200147f565b97509750506040620016ef8b828c0162001502565b955050606089013567ffffffffffffffff811115620017135762001712620012a2565b5b620017218b828c016200147f565b94509450506080620017368b828c0162001502565b92505060a0620017498b828c0162001502565b9150509295985092959890939650565b600081519050919050565b600082825260208201905092915050565b6000819050602082019050919050565b62001790816200142b565b82525050565b6000620017a4838362001785565b60208301905092915050565b6000602082019050919050565b6000620017ca8262001759565b620017d6818562001764565b9350620017e38362001775565b8060005b838110156200181a578151620017fe888262001796565b97506200180b83620017b0565b925050600181019050620017e7565b5085935050505092915050565b60006020820190508181036000830152620018438184620017bd565b905092915050565b6000602082840312156200186457620018636200129d565b5b6000620018748482850162001502565b91505092915050565b62001888816200142b565b82525050565b6000602082019050620018a560008301846200187d565b92915050565b600082825260208201905092915050565b7f417070726f76616c20657870697265642e000000000000000000000000000000600082015250565b6000620018f4601183620018ab565b91506200190182620018bc565b602082019050919050565b600060208201905081810360008301526200192781620018e5565b9050919050565b7f417070726f76616c206578686175737465642e00000000000000000000000000600082015250565b600062001966601383620018ab565b915062001973826200192e565b602082019050919050565b60006020820190508181036000830152620019998162001957565b9050919050565b600080fd5b600080fd5b600080fd5b60008083356001602003843603038112620019cf57620019ce620019a0565b5b80840192508235915067ffffffffffffffff821115620019f457620019f3620019a5565b5b60208301925060018202360383131562001a135762001a12620019aa565b5b509250929050565b7f496e76616c6964207369676e61747572652e0000000000000000000000000000600082015250565b600062001a53601283620018ab565b915062001a608262001a1b565b602082019050919050565b6000602082019050818103600083015262001a868162001a44565b9050919050565b82818337600083830152505050565b6000601f19601f8301169050919050565b600062001abb8385620018ab565b935062001aca83858462001a8d565b62001ad58362001a9c565b840190509392505050565b62001aeb81620014de565b82525050565b600060608201905062001b0860008301876200187d565b818103602083015262001b1d81858762001aad565b905062001b2e604083018462001ae0565b95945050505050565b600060a08201905062001b4e600083018a6200187d565b818103602083015262001b6381888a62001aad565b905062001b74604083018762001ae0565b62001b8360608301866200187d565b818103608083015262001b9881848662001aad565b905098975050505050505050565b7f416363657373436f6e74726f6c3a2063616e206f6e6c792072656e6f756e636560008201527f20726f6c657320666f722073656c660000000000000000000000000000000000602082015250565b600062001c04602f83620018ab565b915062001c118262001ba6565b604082019050919050565b6000602082019050818103600083015262001c378162001bf5565b9050919050565b60008160601b9050919050565b600062001c588262001c3e565b9050919050565b600062001c6c8262001c4b565b9050919050565b62001c8862001c82826200142b565b62001c5f565b82525050565b600081905092915050565b600062001ca7838562001c8e565b935062001cb683858462001a8d565b82840190509392505050565b6000819050919050565b62001ce162001cdb82620014de565b62001cc2565b82525050565b600062001cf5828c62001c73565b60148201915062001d07828b62001c73565b60148201915062001d1a82898b62001c99565b915062001d28828862001ccc565b60208201915062001d3b82868862001c99565b915062001d49828562001ccc565b60208201915062001d5b828462001ccc565b6020820191508190509a9950505050505050505050565b7f19457468657265756d205369676e6564204d6573736167653a0a333200000000600082015250565b600062001daa601c8362001c8e565b915062001db78262001d72565b601c82019050919050565b6000819050919050565b62001de162001ddb8262001370565b62001dc2565b82525050565b600062001df48262001d9b565b915062001e02828462001dcc565b60208201915081905092915050565b7f416363657373436f6e74726f6c3a206163636f756e7420000000000000000000600082015250565b600062001e4960178362001c8e565b915062001e568262001e11565b601782019050919050565b600081519050919050565b60005b8381101562001e8c57808201518184015260208101905062001e6f565b8381111562001e9c576000848401525b50505050565b600062001eaf8262001e61565b62001ebb818562001c8e565b935062001ecd81856020860162001e6c565b80840191505092915050565b7f206973206d697373696e6720726f6c6520000000000000000000000000000000600082015250565b600062001f1160118362001c8e565b915062001f1e8262001ed9565b601182019050919050565b600062001f368262001e3a565b915062001f44828562001ea2565b915062001f518262001f02565b915062001f5f828462001ea2565b91508190509392505050565b600062001f788262001e61565b62001f848185620018ab565b935062001f9681856020860162001e6c565b62001fa18162001a9c565b840191505092915050565b6000602082019050818103600083015262001fc8818462001f6b565b905092915050565b7f4e487b7100000000000000000000000000000000000000000000000000000000600052602160045260246000fd5b7f45434453413a20696e76616c6964207369676e61747572650000000000000000600082015250565b600062002037601883620018ab565b9150620020448262001fff565b602082019050919050565b600060208201905081810360008301526200206a8162002028565b9050919050565b7f45434453413a20696e76616c6964207369676e6174757265206c656e67746800600082015250565b6000620020a9601f83620018ab565b9150620020b68262002071565b602082019050919050565b60006020820190508181036000830152620020dc816200209a565b9050919050565b7f45434453413a20696e76616c6964207369676e6174757265202773272076616c60008201527f7565000000000000000000000000000000000000000000000000000000000000602082015250565b600062002141602283620018ab565b91506200214e82620020e3565b604082019050919050565b60006020820190508181036000830152620021748162002132565b9050919050565b7f45434453413a20696e76616c6964207369676e6174757265202776272076616c60008201527f7565000000000000000000000000000000000000000000000000000000000000602082015250565b6000620021d9602283620018ab565b9150620021e6826200217b565b604082019050919050565b600060208201905081810360008301526200220c81620021ca565b9050919050565b7f4e487b7100000000000000000000000000000000000000000000000000000000600052601160045260246000fd5b60006200224f82620014de565b91506200225c83620014de565b9250817fffffffffffffffffffffffffffffffffffffffffffffffffffffffffffffffff048311821515161562002298576200229762002213565b5b828202905092915050565b6000620022b082620014de565b9150620022bd83620014de565b9250827fffffffffffffffffffffffffffffffffffffffffffffffffffffffffffffffff03821115620022f557620022f462002213565b5b828201905092915050565b7f4e487b7100000000000000000000000000000000000000000000000000000000600052604160045260246000fd5b7f4e487b7100000000000000000000000000000000000000000000000000000000600052603260045260246000fd5b60006200236b82620014de565b9150600082141562002382576200238162002213565b5b600182039050919050565b7f537472696e67733a20686578206c656e67746820696e73756666696369656e74600082015250565b6000620023c5602083620018ab565b9150620023d2826200238d565b602082019050919050565b60006020820190508181036000830152620023f881620023b6565b9050919050565b600060ff82169050919050565b6200241781620023ff565b82525050565b6000608082019050620024346000830187620013dd565b6200244360208301866200240c565b620024526040830185620013dd565b620024616060830184620013dd565b9594505050505056fe608060405260006008553480156200001657600080fd5b5060405162002cac38038062002cac83398181016040528101906200003c9190620003e5565b816040518060400160405280600381526020017f465354000000000000000000000000000000000000000000000000000000000081525081600090805190602001906200008b929190620000f8565b508060019080519060200190620000a4929190620000f8565b50505082600660006101000a81548173ffffffffffffffffffffffffffffffffffffffff021916908373ffffffffffffffffffffffffffffffffffffffff16021790555080600781905550505050620004c5565b82805462000106906200048f565b90600052602060002090601f0160209004810192826200012a576000855562000176565b82601f106200014557805160ff191683800117855562000176565b8280016001018555821562000176579182015b828111156200017557825182559160200191906001019062000158565b5b50905062000185919062000189565b5090565b5b80821115620001a45760008160009055506001016200018a565b5090565b6000604051905090565b600080fd5b600080fd5b600073ffffffffffffffffffffffffffffffffffffffff82169050919050565b6000620001e982620001bc565b9050919050565b620001fb81620001dc565b81146200020757600080fd5b50565b6000815190506200021b81620001f0565b92915050565b600080fd5b600080fd5b6000601f19601f8301169050919050565b7f4e487b7100000000000000000000000000000000000000000000000000000000600052604160045260246000fd5b62000276826200022b565b810181811067ffffffffffffffff821117156200029857620002976200023c565b5b80604052505050565b6000620002ad620001a8565b9050620002bb82826200026b565b919050565b600067ffffffffffffffff821115620002de57620002dd6200023c565b5b620002e9826200022b565b9050602081019050919050565b60005b8381101562000316578082015181840152602081019050620002f9565b8381111562000326576000848401525b50505050565b6000620003436200033d84620002c0565b620002a1565b90508281526020810184848401111562000362576200036162000226565b5b6200036f848285620002f6565b509392505050565b600082601f8301126200038f576200038e62000221565b5b8151620003a18482602086016200032c565b91505092915050565b6000819050919050565b620003bf81620003aa565b8114620003cb57600080fd5b50565b600081519050620003df81620003b4565b92915050565b600080600060608486031215620004015762000400620001b2565b5b600062000411868287016200020a565b935050602084015167ffffffffffffffff811115620004355762000434620001b7565b5b620004438682870162000377565b92505060406200045686828701620003ce565b9150509250925092565b7f4e487b7100000000000000000000000000000000000000000000000000000000600052602260045260246000fd5b60006002820490506001821680620004a857607f821691505b60208210811415620004bf57620004be62000460565b5b50919050565b6127d780620004d56000396000f3fe608060405234801561001057600080fd5b50600436106100ea5760003560e01c80636352211e1161008c578063a22cb46511610066578063a22cb46514610249578063b88d4fde14610265578063c87b56dd14610281578063e985e9c5146102b1576100ea565b80636352211e146101cb57806370a08231146101fb57806395d89b411461022b576100ea565b8063095ea7b3116100c8578063095ea7b31461016d5780631249c58b1461018957806323b872dd1461019357806342842e0e146101af576100ea565b806301ffc9a7146100ef57806306fdde031461011f578063081812fc1461013d575b600080fd5b610109600480360381019061010491906116ee565b6102e1565b6040516101169190611736565b60405180910390f35b6101276103c3565b60405161013491906117ea565b60405180910390f35b61015760048036038101906101529190611842565b610455565b60405161016491906118b0565b60405180910390f35b610187600480360381019061018291906118f7565b6104da565b005b6101916105f2565b005b6101ad60048036038101906101a89190611937565b61065a565b005b6101c960048036038101906101c49190611937565b6106ba565b005b6101e560048036038101906101e09190611842565b6106da565b6040516101f291906118b0565b60405180910390f35b6102156004803603810190610210919061198a565b61078c565b60405161022291906119c6565b60405180910390f35b610233610844565b60405161024091906117ea565b60405180910390f35b610263600480360381019061025e9190611a0d565b6108d6565b005b61027f600480360381019061027a9190611b82565b6108ec565b005b61029b60048036038101906102969190611842565b61094e565b6040516102a891906117ea565b60405180910390f35b6102cb60048036038101906102c69190611c05565b6109f5565b6040516102d89190611736565b60405180910390f35b60007f80ac58cd000000000000000000000000000000000000000000000000000000007bffffffffffffffffffffffffffffffffffffffffffffffffffffffff1916827bffffffffffffffffffffffffffffffffffffffffffffffffffffffff191614806103ac57507f5b5e139f000000000000000000000000000000000000000000000000000000007bffffffffffffffffffffffffffffffffffffffffffffffffffffffff1916827bffffffffffffffffffffffffffffffffffffffffffffffffffffffff1916145b806103bc57506103bb82610a89565b5b9050919050565b6060600080546103d290611c74565b80601f01602080910402602001604051908101604052809291908181526020018280546103fe90611c74565b801561044b5780601f106104205761010080835404028352916020019161044b565b820191906000526020600020905b81548152906001019060200180831161042e57829003601f168201915b5050505050905090565b600061046082610af3565b61049f576040517f08c379a000000000000000000000000000000000000000000000000000000000815260040161049690611d18565b60405180910390fd5b6004600083815260200190815260200160002060009054906101000a900473ffffffffffffffffffffffffffffffffffffffff169050919050565b60006104e5826106da565b90508073ffffffffffffffffffffffffffffffffffffffff168373ffffffffffffffffffffffffffffffffffffffff161415610556576040517f08c379a000000000000000000000000000000000000000000000000000000000815260040161054d90611daa565b60405180910390fd5b8073ffffffffffffffffffffffffffffffffffffffff16610575610b5f565b73ffffffffffffffffffffffffffffffffffffffff1614806105a457506105a38161059e610b5f565b6109f5565b5b6105e3576040517f08c379a00000000000000000000000000000000000000000000000000000000081526004016105da90611e3c565b60405180910390fd5b6105ed8383610b67565b505050565b60075460085410610638576040517f08c379a000000000000000000000000000000000000000000000000000000000815260040161062f90611ea8565b60405180910390fd5b610658336008600081548092919061064f90611ef7565b91905055610c20565b565b61066b610665610b5f565b82610c3e565b6106aa576040517f08c379a00000000000000000000000000000000000000000000000000000000081526004016106a190611fb2565b60405180910390fd5b6106b5838383610d1c565b505050565b6106d5838383604051806020016040528060008152506108ec565b505050565b6000806002600084815260200190815260200160002060009054906101000a900473ffffffffffffffffffffffffffffffffffffffff169050600073ffffffffffffffffffffffffffffffffffffffff168173ffffffffffffffffffffffffffffffffffffffff161415610783576040517f08c379a000000000000000000000000000000000000000000000000000000000815260040161077a90612044565b60405180910390fd5b80915050919050565b60008073ffffffffffffffffffffffffffffffffffffffff168273ffffffffffffffffffffffffffffffffffffffff1614156107fd576040517f08c379a00000000000000000000000000000000000000000000000000000000081526004016107f4906120d6565b60405180910390fd5b600360008373ffffffffffffffffffffffffffffffffffffffff1673ffffffffffffffffffffffffffffffffffffffff168152602001908152602001600020549050919050565b60606001805461085390611c74565b80601f016020809104026020016040519081016040528092919081815260200182805461087f90611c74565b80156108cc5780601f106108a1576101008083540402835291602001916108cc565b820191906000526020600020905b8154815290600101906020018083116108af57829003601f168201915b5050505050905090565b6108e86108e1610b5f565b8383610f78565b5050565b6108fd6108f7610b5f565b83610c3e565b61093c576040517f08c379a000000000000000000000000000000000000000000000000000000000815260040161093390611fb2565b60405180910390fd5b610948848484846110e5565b50505050565b606061095982610af3565b610998576040517f08c379a000000000000000000000000000000000000000000000000000000000815260040161098f90612168565b60405180910390fd5b60006109a2611141565b905060008151116109c257604051806020016040528060008152506109ed565b806109cc84611158565b6040516020016109dd9291906121c4565b6040516020818303038152906040525b915050919050565b6000600560008473ffffffffffffffffffffffffffffffffffffffff1673ffffffffffffffffffffffffffffffffffffffff16815260200190815260200160002060008373ffffffffffffffffffffffffffffffffffffffff1673ffffffffffffffffffffffffffffffffffffffff16815260200190815260200160002060009054906101000a900460ff16905092915050565b60007f01ffc9a7000000000000000000000000000000000000000000000000000000007bffffffffffffffffffffffffffffffffffffffffffffffffffffffff1916827bffffffffffffffffffffffffffffffffffffffffffffffffffffffff1916149050919050565b60008073ffffffffffffffffffffffffffffffffffffffff166002600084815260200190815260200160002060009054906101000a900473ffffffffffffffffffffffffffffffffffffffff1673ffffffffffffffffffffffffffffffffffffffff1614159050919050565b600033905090565b816004600083815260200190815260200160002060006101000a81548173ffffffffffffffffffffffffffffffffffffffff021916908373ffffffffffffffffffffffffffffffffffffffff160217905550808273ffffffffffffffffffffffffffffffffffffffff16610bda836106da565b73ffffffffffffffffffffffffffffffffffffffff167f8c5be1e5ebec7d5bd14f71427d1e84f3dd0314c0f7b2291e5b200ac8c7c3b92560405160405180910390a45050565b610c3a8282604051806020016040528060008152506112b9565b5050565b6000610c4982610af3565b610c88576040517f08c379a0000000000000000000000000000000000000000000000000000000008152600401610c7f9061225a565b60405180910390fd5b6000610c93836106da565b90508073ffffffffffffffffffffffffffffffffffffffff168473ffffffffffffffffffffffffffffffffffffffff161480610d0257508373ffffffffffffffffffffffffffffffffffffffff16610cea84610455565b73ffffffffffffffffffffffffffffffffffffffff16145b80610d135750610d1281856109f5565b5b91505092915050565b8273ffffffffffffffffffffffffffffffffffffffff16610d3c826106da565b73ffffffffffffffffffffffffffffffffffffffff1614610d92576040517f08c379a0000000000000000000000000000000000000000000000000000000008152600401610d89906122ec565b60405180910390fd5b600073ffffffffffffffffffffffffffffffffffffffff168273ffffffffffffffffffffffffffffffffffffffff161415610e02576040517f08c379a0000000000000000000000000000000000000000000000000000000008152600401610df99061237e565b60405180910390fd5b610e0d838383611314565b610e18600082610b67565b6001600360008573ffffffffffffffffffffffffffffffffffffffff1673ffffffffffffffffffffffffffffffffffffffff1681526020019081526020016000206000828254610e68919061239e565b925050819055506001600360008473ffffffffffffffffffffffffffffffffffffffff1673ffffffffffffffffffffffffffffffffffffffff1681526020019081526020016000206000828254610ebf91906123d2565b92505081905550816002600083815260200190815260200160002060006101000a81548173ffffffffffffffffffffffffffffffffffffffff021916908373ffffffffffffffffffffffffffffffffffffffff160217905550808273ffffffffffffffffffffffffffffffffffffffff168473ffffffffffffffffffffffffffffffffffffffff167fddf252ad1be2c89b69c2b068fc378daa952ba7f163c4a11628f55a4df523b3ef60405160405180910390a4505050565b8173ffffffffffffffffffffffffffffffffffffffff168373ffffffffffffffffffffffffffffffffffffffff161415610fe7576040517f08c379a0000000000000000000000000000000000000000000000000000000008152600401610fde90612474565b60405180910390fd5b80600560008573ffffffffffffffffffffffffffffffffffffffff1673ffffffffffffffffffffffffffffffffffffffff16815260200190815260200160002060008473ffffffffffffffffffffffffffffffffffffffff1673ffffffffffffffffffffffffffffffffffffffff16815260200190815260200160002060006101000a81548160ff0219169083151502179055508173ffffffffffffffffffffffffffffffffffffffff168373ffffffffffffffffffffffffffffffffffffffff167f17307eab39ab6107e8899845ad3d59bd9653f200f220920489ca2b5937696c31836040516110d89190611736565b60405180910390a3505050565b6110f0848484610d1c565b6110fc84848484611319565b61113b576040517f08c379a000000000000000000000000000000000000000000000000000000000815260040161113290612506565b60405180910390fd5b50505050565b606060405180602001604052806000815250905090565b606060008214156111a0576040518060400160405280600181526020017f300000000000000000000000000000000000000000000000000000000000000081525090506112b4565b600082905060005b600082146111d25780806111bb90611ef7565b915050600a826111cb9190612555565b91506111a8565b60008167ffffffffffffffff8111156111ee576111ed611a57565b5b6040519080825280601f01601f1916602001820160405280156112205781602001600182028036833780820191505090505b5090505b600085146112ad57600182611239919061239e565b9150600a856112489190612586565b603061125491906123d2565b60f81b81838151811061126a576112696125b7565b5b60200101907effffffffffffffffffffffffffffffffffffffffffffffffffffffffffffff1916908160001a905350600a856112a69190612555565b9450611224565b8093505050505b919050565b6112c383836114a1565b6112d06000848484611319565b61130f576040517f08c379a000000000000000000000000000000000000000000000000000000000815260040161130690612506565b60405180910390fd5b505050565b505050565b600061133a8473ffffffffffffffffffffffffffffffffffffffff1661166f565b15611494578373ffffffffffffffffffffffffffffffffffffffff1663150b7a02611363610b5f565b8786866040518563ffffffff1660e01b8152600401611385949392919061263b565b6020604051808303816000875af19250505080156113c157506040513d601f19601f820116820180604052508101906113be919061269c565b60015b611444573d80600081146113f1576040519150601f19603f3d011682016040523d82523d6000602084013e6113f6565b606091505b5060008151141561143c576040517f08c379a000000000000000000000000000000000000000000000000000000000815260040161143390612506565b60405180910390fd5b805181602001fd5b63150b7a0260e01b7bffffffffffffffffffffffffffffffffffffffffffffffffffffffff1916817bffffffffffffffffffffffffffffffffffffffffffffffffffffffff191614915050611499565b600190505b949350505050565b600073ffffffffffffffffffffffffffffffffffffffff168273ffffffffffffffffffffffffffffffffffffffff161415611511576040517f08c379a000000000000000000000000000000000000000000000000000000000815260040161150890612715565b60405180910390fd5b61151a81610af3565b1561155a576040517f08c379a000000000000000000000000000000000000000000000000000000000815260040161155190612781565b60405180910390fd5b61156660008383611314565b6001600360008473ffffffffffffffffffffffffffffffffffffffff1673ffffffffffffffffffffffffffffffffffffffff16815260200190815260200160002060008282546115b691906123d2565b92505081905550816002600083815260200190815260200160002060006101000a81548173ffffffffffffffffffffffffffffffffffffffff021916908373ffffffffffffffffffffffffffffffffffffffff160217905550808273ffffffffffffffffffffffffffffffffffffffff16600073ffffffffffffffffffffffffffffffffffffffff167fddf252ad1be2c89b69c2b068fc378daa952ba7f163c4a11628f55a4df523b3ef60405160405180910390a45050565b600080823b905060008111915050919050565b6000604051905090565b600080fd5b600080fd5b60007fffffffff0000000000000000000000000000000000000000000000000000000082169050919050565b6116cb81611696565b81146116d657600080fd5b50565b6000813590506116e8816116c2565b92915050565b6000602082840312156117045761170361168c565b5b6000611712848285016116d9565b91505092915050565b60008115159050919050565b6117308161171b565b82525050565b600060208201905061174b6000830184611727565b92915050565b600081519050919050565b600082825260208201905092915050565b60005b8381101561178b578082015181840152602081019050611770565b8381111561179a576000848401525b50505050565b6000601f19601f8301169050919050565b60006117bc82611751565b6117c6818561175c565b93506117d681856020860161176d565b6117df816117a0565b840191505092915050565b6000602082019050818103600083015261180481846117b1565b905092915050565b6000819050919050565b61181f8161180c565b811461182a57600080fd5b50565b60008135905061183c81611816565b92915050565b6000602082840312156118585761185761168c565b5b60006118668482850161182d565b91505092915050565b600073ffffffffffffffffffffffffffffffffffffffff82169050919050565b600061189a8261186f565b9050919050565b6118aa8161188f565b82525050565b60006020820190506118c560008301846118a1565b92915050565b6118d48161188f565b81146118df57600080fd5b50565b6000813590506118f1816118cb565b92915050565b6000806040838503121561190e5761190d61168c565b5b600061191c858286016118e2565b925050602061192d8582860161182d565b9150509250929050565b6000806000606084860312156119505761194f61168c565b5b600061195e868287016118e2565b935050602061196f868287016118e2565b92505060406119808682870161182d565b9150509250925092565b6000602082840312156119a05761199f61168c565b5b60006119ae848285016118e2565b91505092915050565b6119c08161180c565b82525050565b60006020820190506119db60008301846119b7565b92915050565b6119ea8161171b565b81146119f557600080fd5b50565b600081359050611a07816119e1565b92915050565b60008060408385031215611a2457611a2361168c565b5b6000611a32858286016118e2565b9250506020611a43858286016119f8565b9150509250929050565b600080fd5b600080fd5b7f4e487b7100000000000000000000000000000000000000000000000000000000600052604160045260246000fd5b611a8f826117a0565b810181811067ffffffffffffffff82111715611aae57611aad611a57565b5b80604052505050565b6000611ac1611682565b9050611acd8282611a86565b919050565b600067ffffffffffffffff821115611aed57611aec611a57565b5b611af6826117a0565b9050602081019050919050565b82818337600083830152505050565b6000611b25611b2084611ad2565b611ab7565b905082815260208101848484011115611b4157611b40611a52565b5b611b4c848285611b03565b509392505050565b600082601f830112611b6957611b68611a4d565b5b8135611b79848260208601611b12565b91505092915050565b60008060008060808587031215611b9c57611b9b61168c565b5b6000611baa878288016118e2565b9450506020611bbb878288016118e2565b9350506040611bcc8782880161182d565b925050606085013567ffffffffffffffff811115611bed57611bec611691565b5b611bf987828801611b54565b91505092959194509250565b60008060408385031215611c1c57611c1b61168c565b5b6000611c2a858286016118e2565b9250506020611c3b858286016118e2565b9150509250929050565b7f4e487b7100000000000000000000000000000000000000000000000000000000600052602260045260246000fd5b60006002820490506001821680611c8c57607f821691505b60208210811415611ca057611c9f611c45565b5b50919050565b7f4552433732313a20617070726f76656420717565727920666f72206e6f6e657860008201527f697374656e7420746f6b656e0000000000000000000000000000000000000000602082015250565b6000611d02602c8361175c565b9150611d0d82611ca6565b604082019050919050565b60006020820190508181036000830152611d3181611cf5565b9050919050565b7f4552433732313a20617070726f76616c20746f2063757272656e74206f776e6560008201527f7200000000000000000000000000000000000000000000000000000000000000602082015250565b6000611d9460218361175c565b9150611d9f82611d38565b604082019050919050565b60006020820190508181036000830152611dc381611d87565b9050919050565b7f4552433732313a20617070726f76652063616c6c6572206973206e6f74206f7760008201527f6e6572206e6f7220617070726f76656420666f7220616c6c0000000000000000602082015250565b6000611e2660388361175c565b9150611e3182611dca565b604082019050919050565b60006020820190508181036000830152611e5581611e19565b9050919050565b7f4d696e7420776f756c6420657863656564206d617820737570706c792e000000600082015250565b6000611e92601d8361175c565b9150611e9d82611e5c565b602082019050919050565b60006020820190508181036000830152611ec181611e85565b9050919050565b7f4e487b7100000000000000000000000000000000000000000000000000000000600052601160045260246000fd5b6000611f028261180c565b91507fffffffffffffffffffffffffffffffffffffffffffffffffffffffffffffffff821415611f3557611f34611ec8565b5b600182019050919050565b7f4552433732313a207472616e736665722063616c6c6572206973206e6f74206f60008201527f776e6572206e6f7220617070726f766564000000000000000000000000000000602082015250565b6000611f9c60318361175c565b9150611fa782611f40565b604082019050919050565b60006020820190508181036000830152611fcb81611f8f565b9050919050565b7f4552433732313a206f776e657220717565727920666f72206e6f6e657869737460008201527f656e7420746f6b656e0000000000000000000000000000000000000000000000602082015250565b600061202e60298361175c565b915061203982611fd2565b604082019050919050565b6000602082019050818103600083015261205d81612021565b9050919050565b7f4552433732313a2062616c616e636520717565727920666f7220746865207a6560008201527f726f206164647265737300000000000000000000000000000000000000000000602082015250565b60006120c0602a8361175c565b91506120cb82612064565b604082019050919050565b600060208201905081810360008301526120ef816120b3565b9050919050565b7f4552433732314d657461646174613a2055524920717565727920666f72206e6f60008201527f6e6578697374656e7420746f6b656e0000000000000000000000000000000000602082015250565b6000612152602f8361175c565b915061215d826120f6565b604082019050919050565b6000602082019050818103600083015261218181612145565b9050919050565b600081905092915050565b600061219e82611751565b6121a88185612188565b93506121b881856020860161176d565b80840191505092915050565b60006121d08285612193565b91506121dc8284612193565b91508190509392505050565b7f4552433732313a206f70657261746f7220717565727920666f72206e6f6e657860008201527f697374656e7420746f6b656e0000000000000000000000000000000000000000602082015250565b6000612244602c8361175c565b915061224f826121e8565b604082019050919050565b6000602082019050818103600083015261227381612237565b9050919050565b7f4552433732313a207472616e73666572206f6620746f6b656e2074686174206960008201527f73206e6f74206f776e0000000000000000000000000000000000000000000000602082015250565b60006122d660298361175c565b91506122e18261227a565b604082019050919050565b60006020820190508181036000830152612305816122c9565b9050919050565b7f4552433732313a207472616e7366657220746f20746865207a65726f2061646460008201527f7265737300000000000000000000000000000000000000000000000000000000602082015250565b600061236860248361175c565b91506123738261230c565b604082019050919050565b600060208201905081810360008301526123978161235b565b9050919050565b60006123a98261180c565b91506123b48361180c565b9250828210156123c7576123c6611ec8565b5b828203905092915050565b60006123dd8261180c565b91506123e88361180c565b9250827fffffffffffffffffffffffffffffffffffffffffffffffffffffffffffffffff0382111561241d5761241c611ec8565b5b828201905092915050565b7f4552433732313a20617070726f766520746f2063616c6c657200000000000000600082015250565b600061245e60198361175c565b915061246982612428565b602082019050919050565b6000602082019050818103600083015261248d81612451565b9050919050565b7f4552433732313a207472616e7366657220746f206e6f6e20455243373231526560008201527f63656976657220696d706c656d656e7465720000000000000000000000000000602082015250565b60006124f060328361175c565b91506124fb82612494565b604082019050919050565b6000602082019050818103600083015261251f816124e3565b9050919050565b7f4e487b7100000000000000000000000000000000000000000000000000000000600052601260045260246000fd5b60006125608261180c565b915061256b8361180c565b92508261257b5761257a612526565b5b828204905092915050565b60006125918261180c565b915061259c8361180c565b9250826125ac576125ab612526565b5b828206905092915050565b7f4e487b7100000000000000000000000000000000000000000000000000000000600052603260045260246000fd5b600081519050919050565b600082825260208201905092915050565b600061260d826125e6565b61261781856125f1565b935061262781856020860161176d565b612630816117a0565b840191505092915050565b600060808201905061265060008301876118a1565b61265d60208301866118a1565b61266a60408301856119b7565b818103606083015261267c8184612602565b905095945050505050565b600081519050612696816116c2565b92915050565b6000602082840312156126b2576126b161168c565b5b60006126c084828501612687565b91505092915050565b7f4552433732313a206d696e7420746f20746865207a65726f2061646472657373600082015250565b60006126ff60208361175c565b915061270a826126c9565b602082019050919050565b6000602082019050818103600083015261272e816126f2565b9050919050565b7f4552433732313a20746f6b656e20616c7265616479206d696e74656400000000600082015250565b600061276b601c8361175c565b915061277682612735565b602082019050919050565b6000602082019050818103600083015261279a8161275e565b905091905056fea26469706673582212208dcd692d20e0baa150f99327c60763d8104fbee0257ecb53d00dd54ecc1b65e764736f6c634300080b0033a264697066735822122034af352309eb977687e4578d48a17f19ea75a4f25a747b2457ee1d866983cbf764736f6c634300080b0033",
  "immutableReferences": {},
  "source": "// SPDX-License-Identifier: MIT\npragma solidity ^0.8.0;\n\nimport '@openzeppelin/contracts/access/AccessControl.sol';\nimport '@openzeppelin/contracts/utils/cryptography/ECDSA.sol';\n\nimport './CollectionV1.sol';\n\ncontract LauncherV1 is AccessControl {\n  using ECDSA for bytes32;\n\n  event Launched(\n    address creator,\n    string name,\n    uint256 quantity,\n    address instance,\n    string message\n  );\n\n  bytes32 public constant ADMIN_ROLE = keccak256('ADMIN_ROLE');\n\n  constructor() {\n    _setupRole(DEFAULT_ADMIN_ROLE, msg.sender);\n\n    _setupRole(ADMIN_ROLE, msg.sender);\n    _setRoleAdmin(ADMIN_ROLE, DEFAULT_ADMIN_ROLE);\n  }\n\n  struct Approval {\n    uint256 expiry;\n    uint256 salt;\n    bytes sig;\n  }\n\n  mapping(bytes32 => bool) private _approvalsExhausted;\n\n  address[] public collections;\n\n  function launch(\n    address creator,\n    string calldata collectionName,\n    uint256 maxSupply,\n    string calldata message,\n    Approval calldata approval\n  ) public {\n    require(approval.expiry > block.timestamp, 'Approval expired.');\n\n    bytes32 approvalHash = getApprovalHash(\n      creator,\n      collectionName,\n      maxSupply,\n      message,\n      approval.expiry,\n      approval.salt\n    );\n    require(!_approvalsExhausted[approvalHash], 'Approval exhausted.');\n\n    address recoveredAddress = approvalHash.toEthSignedMessageHash().recover(\n      approval.sig\n    );\n\n    require(\n      recoveredAddress != address(0) && hasRole(ADMIN_ROLE, recoveredAddress),\n      'Invalid signature.'\n    );\n\n    _approvalsExhausted[approvalHash] = true;\n\n    address newCollection = address(\n      new CollectionV1(creator, collectionName, maxSupply)\n    );\n\n    collections.push(newCollection);\n\n    emit Launched(creator, collectionName, maxSupply, newCollection, message);\n  }\n\n  function getApprovalHash(\n    address creator,\n    string calldata collectionName,\n    uint256 quantity,\n    string calldata message,\n    uint256 expiry,\n    uint256 salt\n  ) public view returns (bytes32) {\n    return\n      keccak256(\n        abi.encodePacked(\n          address(this),\n          creator,\n          collectionName,\n          quantity,\n          message,\n          expiry,\n          salt\n        )\n      );\n  }\n\n  function allCollections() public view returns (address[] memory) {\n    return collections;\n  }\n}\n",
  "sourcePath": "/Users/husnain/Desktop/other/fest/packages/ethereum/contracts/solidity/contracts/LauncherV1.sol",
  "compiler": {
    "name": "solc",
    "version": "0.8.11+commit.d7f03943.Emscripten.clang"
  },
  "schemaVersion": "3.4.4",
  "updatedAt": "2022-02-11T15:53:07.402Z",
  "devdoc": {
    "kind": "dev",
    "methods": {
      "getRoleAdmin(bytes32)": {
        "details": "Returns the admin role that controls `role`. See {grantRole} and {revokeRole}. To change a role's admin, use {_setRoleAdmin}."
      },
      "grantRole(bytes32,address)": {
        "details": "Grants `role` to `account`. If `account` had not been already granted `role`, emits a {RoleGranted} event. Requirements: - the caller must have ``role``'s admin role."
      },
      "hasRole(bytes32,address)": {
        "details": "Returns `true` if `account` has been granted `role`."
      },
      "renounceRole(bytes32,address)": {
        "details": "Revokes `role` from the calling account. Roles are often managed via {grantRole} and {revokeRole}: this function's purpose is to provide a mechanism for accounts to lose their privileges if they are compromised (such as when a trusted device is misplaced). If the calling account had been revoked `role`, emits a {RoleRevoked} event. Requirements: - the caller must be `account`."
      },
      "revokeRole(bytes32,address)": {
        "details": "Revokes `role` from `account`. If `account` had been granted `role`, emits a {RoleRevoked} event. Requirements: - the caller must have ``role``'s admin role."
      },
      "supportsInterface(bytes4)": {
        "details": "See {IERC165-supportsInterface}."
      }
    },
    "version": 1
  },
  "userdoc": {
    "kind": "user",
    "methods": {},
    "version": 1
  }
}