{
  "contractName": "ListingMarketV1",
  "abi": [
    {
      "inputs": [],
      "stateMutability": "nonpayable",
      "type": "constructor"
    },
    {
      "inputs": [],
      "name": "ApprovalExhausted",
      "type": "error"
    },
    {
      "inputs": [],
      "name": "ApprovalExpired",
      "type": "error"
    },
    {
      "inputs": [
        {
          "internalType": "uint256",
          "name": "desired",
          "type": "uint256"
        },
        {
          "internalType": "uint256",
          "name": "actual",
          "type": "uint256"
        }
      ],
      "name": "InsufficientBalance",
      "type": "error"
    },
    {
      "inputs": [
        {
          "internalType": "uint256",
          "name": "desired",
          "type": "uint256"
        },
        {
          "internalType": "uint256",
          "name": "actual",
          "type": "uint256"
        }
      ],
      "name": "InsufficientQuantity",
      "type": "error"
    },
    {
      "inputs": [],
      "name": "InvalidSignature",
      "type": "error"
    },
    {
      "inputs": [
        {
          "internalType": "uint256",
          "name": "id",
          "type": "uint256"
        }
      ],
      "name": "ListingInactive",
      "type": "error"
    },
    {
      "inputs": [
        {
          "internalType": "uint256",
          "name": "maxAllowed",
          "type": "uint256"
        },
        {
          "internalType": "uint256",
          "name": "purchased",
          "type": "uint256"
        },
        {
          "internalType": "uint256",
          "name": "desiredTotal",
          "type": "uint256"
        }
      ],
      "name": "PurchaseQuantityExceeded",
      "type": "error"
    },
    {
      "inputs": [],
      "name": "Unauthorized",
      "type": "error"
    },
    {
      "anonymous": false,
      "inputs": [
        {
          "indexed": false,
          "internalType": "uint256",
          "name": "listingId",
          "type": "uint256"
        },
        {
          "indexed": true,
          "internalType": "address",
          "name": "operator",
          "type": "address"
        },
        {
          "indexed": true,
          "internalType": "address",
          "name": "token",
          "type": "address"
        },
        {
          "indexed": false,
          "internalType": "uint256",
          "name": "tokenId",
          "type": "uint256"
        },
        {
          "indexed": false,
          "internalType": "uint256",
          "name": "returned",
          "type": "uint256"
        }
      ],
      "name": "Cancel",
      "type": "event"
    },
    {
      "anonymous": false,
      "inputs": [
        {
          "indexed": false,
          "internalType": "uint256",
          "name": "listingId",
          "type": "uint256"
        },
        {
          "indexed": true,
          "internalType": "address",
          "name": "seller",
          "type": "address"
        },
        {
          "indexed": true,
          "internalType": "address",
          "name": "token",
          "type": "address"
        },
        {
          "indexed": false,
          "internalType": "uint256",
          "name": "tokenId",
          "type": "uint256"
        },
        {
          "indexed": false,
          "internalType": "uint256",
          "name": "quantity",
          "type": "uint256"
        },
        {
          "indexed": false,
          "internalType": "address",
          "name": "currency",
          "type": "address"
        },
        {
          "indexed": false,
          "internalType": "uint256",
          "name": "price",
          "type": "uint256"
        },
        {
          "indexed": false,
          "internalType": "uint256",
          "name": "maxPerBuyer",
          "type": "uint256"
        },
        {
          "indexed": true,
          "internalType": "uint256",
          "name": "expiry",
          "type": "uint256"
        }
      ],
      "name": "ListToken",
      "type": "event"
    },
    {
      "anonymous": false,
      "inputs": [
        {
          "indexed": false,
          "internalType": "address",
          "name": "account",
          "type": "address"
        }
      ],
      "name": "Paused",
      "type": "event"
    },
    {
      "anonymous": false,
      "inputs": [
        {
          "indexed": true,
          "internalType": "bytes32",
          "name": "role",
          "type": "bytes32"
        },
        {
          "indexed": true,
          "internalType": "bytes32",
          "name": "previousAdminRole",
          "type": "bytes32"
        },
        {
          "indexed": true,
          "internalType": "bytes32",
          "name": "newAdminRole",
          "type": "bytes32"
        }
      ],
      "name": "RoleAdminChanged",
      "type": "event"
    },
    {
      "anonymous": false,
      "inputs": [
        {
          "indexed": true,
          "internalType": "bytes32",
          "name": "role",
          "type": "bytes32"
        },
        {
          "indexed": true,
          "internalType": "address",
          "name": "account",
          "type": "address"
        },
        {
          "indexed": true,
          "internalType": "address",
          "name": "sender",
          "type": "address"
        }
      ],
      "name": "RoleGranted",
      "type": "event"
    },
    {
      "anonymous": false,
      "inputs": [
        {
          "indexed": true,
          "internalType": "bytes32",
          "name": "role",
          "type": "bytes32"
        },
        {
          "indexed": true,
          "internalType": "address",
          "name": "account",
          "type": "address"
        },
        {
          "indexed": true,
          "internalType": "address",
          "name": "sender",
          "type": "address"
        }
      ],
      "name": "RoleRevoked",
      "type": "event"
    },
    {
      "anonymous": false,
      "inputs": [
        {
          "indexed": true,
          "internalType": "address",
          "name": "token",
          "type": "address"
        },
        {
          "indexed": false,
          "internalType": "uint256",
          "name": "tokenId",
          "type": "uint256"
        },
        {
          "indexed": true,
          "internalType": "address",
          "name": "receiver",
          "type": "address"
        },
        {
          "indexed": true,
          "internalType": "address",
          "name": "currency",
          "type": "address"
        },
        {
          "indexed": false,
          "internalType": "uint256",
          "name": "amount",
          "type": "uint256"
        }
      ],
      "name": "RoyaltyPayment",
      "type": "event"
    },
    {
      "anonymous": false,
      "inputs": [
        {
          "indexed": true,
          "internalType": "address",
          "name": "recipient",
          "type": "address"
        },
        {
          "indexed": true,
          "internalType": "address",
          "name": "currency",
          "type": "address"
        },
        {
          "indexed": false,
          "internalType": "uint256",
          "name": "amount",
          "type": "uint256"
        }
      ],
      "name": "SalePayment",
      "type": "event"
    },
    {
      "anonymous": false,
      "inputs": [
        {
          "indexed": false,
          "internalType": "uint256",
          "name": "tradeId",
          "type": "uint256"
        },
        {
          "indexed": true,
          "internalType": "address",
          "name": "seller",
          "type": "address"
        },
        {
          "indexed": true,
          "internalType": "address",
          "name": "buyer",
          "type": "address"
        },
        {
          "indexed": true,
          "internalType": "address",
          "name": "token",
          "type": "address"
        },
        {
          "indexed": false,
          "internalType": "uint256",
          "name": "tokenId",
          "type": "uint256"
        },
        {
          "indexed": false,
          "internalType": "uint256",
          "name": "quantity",
          "type": "uint256"
        },
        {
          "indexed": false,
          "internalType": "address",
          "name": "currency",
          "type": "address"
        },
        {
          "indexed": false,
          "internalType": "uint256",
          "name": "amount",
          "type": "uint256"
        }
      ],
      "name": "Trade",
      "type": "event"
    },
    {
      "anonymous": false,
      "inputs": [
        {
          "indexed": false,
          "internalType": "address",
          "name": "account",
          "type": "address"
        }
      ],
      "name": "Unpaused",
      "type": "event"
    },
    {
      "inputs": [],
      "name": "DEFAULT_ADMIN_ROLE",
      "outputs": [
        {
          "internalType": "bytes32",
          "name": "",
          "type": "bytes32"
        }
      ],
      "stateMutability": "view",
      "type": "function",
      "constant": true
    },
    {
      "inputs": [
        {
          "internalType": "address",
          "name": "owner",
          "type": "address"
        },
        {
          "internalType": "address",
          "name": "currency",
          "type": "address"
        }
      ],
      "name": "balance",
      "outputs": [
        {
          "internalType": "uint256",
          "name": "",
          "type": "uint256"
        }
      ],
      "stateMutability": "view",
      "type": "function",
      "constant": true
    },
    {
      "inputs": [
        {
          "internalType": "bytes32",
          "name": "role",
          "type": "bytes32"
        }
      ],
      "name": "getRoleAdmin",
      "outputs": [
        {
          "internalType": "bytes32",
          "name": "",
          "type": "bytes32"
        }
      ],
      "stateMutability": "view",
      "type": "function",
      "constant": true
    },
    {
      "inputs": [
        {
          "internalType": "bytes32",
          "name": "role",
          "type": "bytes32"
        },
        {
          "internalType": "address",
          "name": "account",
          "type": "address"
        }
      ],
      "name": "grantRole",
      "outputs": [],
      "stateMutability": "nonpayable",
      "type": "function"
    },
    {
      "inputs": [
        {
          "internalType": "bytes32",
          "name": "role",
          "type": "bytes32"
        },
        {
          "internalType": "address",
          "name": "account",
          "type": "address"
        }
      ],
      "name": "hasRole",
      "outputs": [
        {
          "internalType": "bool",
          "name": "",
          "type": "bool"
        }
      ],
      "stateMutability": "view",
      "type": "function",
      "constant": true
    },
    {
      "inputs": [],
      "name": "hundredPct",
      "outputs": [
        {
          "internalType": "uint256",
          "name": "",
          "type": "uint256"
        }
      ],
      "stateMutability": "view",
      "type": "function",
      "constant": true
    },
    {
      "inputs": [],
      "name": "name",
      "outputs": [
        {
          "internalType": "string",
          "name": "",
          "type": "string"
        }
      ],
      "stateMutability": "view",
      "type": "function",
      "constant": true
    },
    {
      "inputs": [
        {
          "internalType": "address",
          "name": "",
          "type": "address"
        },
        {
          "internalType": "address",
          "name": "",
          "type": "address"
        },
        {
          "internalType": "uint256[]",
          "name": "",
          "type": "uint256[]"
        },
        {
          "internalType": "uint256[]",
          "name": "",
          "type": "uint256[]"
        },
        {
          "internalType": "bytes",
          "name": "",
          "type": "bytes"
        }
      ],
      "name": "onERC1155BatchReceived",
      "outputs": [
        {
          "internalType": "bytes4",
          "name": "",
          "type": "bytes4"
        }
      ],
      "stateMutability": "nonpayable",
      "type": "function"
    },
    {
      "inputs": [
        {
          "internalType": "address",
          "name": "",
          "type": "address"
        },
        {
          "internalType": "address",
          "name": "",
          "type": "address"
        },
        {
          "internalType": "uint256",
          "name": "",
          "type": "uint256"
        },
        {
          "internalType": "uint256",
          "name": "",
          "type": "uint256"
        },
        {
          "internalType": "bytes",
          "name": "",
          "type": "bytes"
        }
      ],
      "name": "onERC1155Received",
      "outputs": [
        {
          "internalType": "bytes4",
          "name": "",
          "type": "bytes4"
        }
      ],
      "stateMutability": "nonpayable",
      "type": "function"
    },
    {
      "inputs": [
        {
          "internalType": "address",
          "name": "",
          "type": "address"
        },
        {
          "internalType": "address",
          "name": "",
          "type": "address"
        },
        {
          "internalType": "uint256",
          "name": "",
          "type": "uint256"
        },
        {
          "internalType": "bytes",
          "name": "",
          "type": "bytes"
        }
      ],
      "name": "onERC721Received",
      "outputs": [
        {
          "internalType": "bytes4",
          "name": "",
          "type": "bytes4"
        }
      ],
      "stateMutability": "nonpayable",
      "type": "function"
    },
    {
      "inputs": [],
      "name": "paused",
      "outputs": [
        {
          "internalType": "bool",
          "name": "",
          "type": "bool"
        }
      ],
      "stateMutability": "view",
      "type": "function",
      "constant": true
    },
    {
      "inputs": [
        {
          "internalType": "bytes32",
          "name": "role",
          "type": "bytes32"
        },
        {
          "internalType": "address",
          "name": "account",
          "type": "address"
        }
      ],
      "name": "renounceRole",
      "outputs": [],
      "stateMutability": "nonpayable",
      "type": "function"
    },
    {
      "inputs": [
        {
          "internalType": "bytes32",
          "name": "role",
          "type": "bytes32"
        },
        {
          "internalType": "address",
          "name": "account",
          "type": "address"
        }
      ],
      "name": "revokeRole",
      "outputs": [],
      "stateMutability": "nonpayable",
      "type": "function"
    },
    {
      "inputs": [
        {
          "internalType": "address",
          "name": "beneficiary",
          "type": "address"
        }
      ],
      "name": "setFeeBeneficiary",
      "outputs": [],
      "stateMutability": "nonpayable",
      "type": "function"
    },
    {
      "inputs": [
        {
          "internalType": "bool",
          "name": "paused",
          "type": "bool"
        }
      ],
      "name": "setPaused",
      "outputs": [],
      "stateMutability": "nonpayable",
      "type": "function"
    },
    {
      "inputs": [
        {
          "internalType": "bytes4",
          "name": "interfaceID",
          "type": "bytes4"
        }
      ],
      "name": "supportsInterface",
      "outputs": [
        {
          "internalType": "bool",
          "name": "",
          "type": "bool"
        }
      ],
      "stateMutability": "view",
      "type": "function",
      "constant": true
    },
    {
      "inputs": [],
      "name": "version",
      "outputs": [
        {
          "internalType": "string",
          "name": "",
          "type": "string"
        }
      ],
      "stateMutability": "view",
      "type": "function",
      "constant": true
    },
    {
      "inputs": [
        {
          "internalType": "address",
          "name": "currency",
          "type": "address"
        },
        {
          "internalType": "uint256",
          "name": "amount",
          "type": "uint256"
        }
      ],
      "name": "withdraw",
      "outputs": [],
      "stateMutability": "nonpayable",
      "type": "function"
    },
    {
      "inputs": [
        {
          "internalType": "uint256",
          "name": "listingId",
          "type": "uint256"
        },
        {
          "internalType": "uint256",
          "name": "quantity",
          "type": "uint256"
        }
      ],
      "name": "buy",
      "outputs": [],
      "stateMutability": "nonpayable",
      "type": "function"
    },
    {
      "inputs": [
        {
          "internalType": "uint256",
          "name": "listingId",
          "type": "uint256"
        }
      ],
      "name": "get",
      "outputs": [
        {
          "components": [
            {
              "internalType": "uint256",
              "name": "id",
              "type": "uint256"
            },
            {
              "internalType": "address",
              "name": "seller",
              "type": "address"
            },
            {
              "internalType": "address",
              "name": "token",
              "type": "address"
            },
            {
              "internalType": "uint256",
              "name": "tokenId",
              "type": "uint256"
            },
            {
              "internalType": "uint256",
              "name": "quantity",
              "type": "uint256"
            },
            {
              "internalType": "address",
              "name": "currency",
              "type": "address"
            },
            {
              "internalType": "uint256",
              "name": "price",
              "type": "uint256"
            },
            {
              "components": [
                {
                  "internalType": "uint256",
                  "name": "buyerPct",
                  "type": "uint256"
                },
                {
                  "internalType": "uint256",
                  "name": "sellerPct",
                  "type": "uint256"
                }
              ],
              "internalType": "struct MarketV1.Fees",
              "name": "fees",
              "type": "tuple"
            },
            {
              "internalType": "uint256",
              "name": "available",
              "type": "uint256"
            },
            {
              "internalType": "uint256",
              "name": "maxPerBuyer",
              "type": "uint256"
            },
            {
              "internalType": "uint256",
              "name": "expiry",
              "type": "uint256"
            },
            {
              "internalType": "enum ListingMarketV1.ListingStatus",
              "name": "status",
              "type": "uint8"
            }
          ],
          "internalType": "struct ListingMarketV1.Listing",
          "name": "",
          "type": "tuple"
        }
      ],
      "stateMutability": "view",
      "type": "function",
      "constant": true
    },
    {
      "inputs": [
        {
          "internalType": "address",
          "name": "seller",
          "type": "address"
        },
        {
          "internalType": "address",
          "name": "token",
          "type": "address"
        },
        {
          "internalType": "uint256",
          "name": "tokenId",
          "type": "uint256"
        },
        {
          "internalType": "uint256",
          "name": "quantity",
          "type": "uint256"
        },
        {
          "internalType": "address",
          "name": "currency",
          "type": "address"
        },
        {
          "internalType": "uint256",
          "name": "price",
          "type": "uint256"
        },
        {
          "components": [
            {
              "internalType": "uint256",
              "name": "buyerPct",
              "type": "uint256"
            },
            {
              "internalType": "uint256",
              "name": "sellerPct",
              "type": "uint256"
            }
          ],
          "internalType": "struct MarketV1.Fees",
          "name": "fees",
          "type": "tuple"
        },
        {
          "internalType": "uint256",
          "name": "maxPerBuyer",
          "type": "uint256"
        },
        {
          "internalType": "uint256",
          "name": "expiry",
          "type": "uint256"
        },
        {
          "internalType": "uint256",
          "name": "nonce",
          "type": "uint256"
        },
        {
          "internalType": "uint256",
          "name": "deadline",
          "type": "uint256"
        }
      ],
      "name": "listingHash",
      "outputs": [
        {
          "internalType": "bytes32",
          "name": "",
          "type": "bytes32"
        }
      ],
      "stateMutability": "view",
      "type": "function",
      "constant": true
    },
    {
      "inputs": [
        {
          "internalType": "address",
          "name": "seller",
          "type": "address"
        },
        {
          "internalType": "address",
          "name": "token",
          "type": "address"
        },
        {
          "internalType": "uint256",
          "name": "tokenId",
          "type": "uint256"
        },
        {
          "internalType": "uint256",
          "name": "quantity",
          "type": "uint256"
        },
        {
          "internalType": "address",
          "name": "currency",
          "type": "address"
        },
        {
          "internalType": "uint256",
          "name": "price",
          "type": "uint256"
        },
        {
          "components": [
            {
              "internalType": "uint256",
              "name": "buyerPct",
              "type": "uint256"
            },
            {
              "internalType": "uint256",
              "name": "sellerPct",
              "type": "uint256"
            }
          ],
          "internalType": "struct MarketV1.Fees",
          "name": "fees",
          "type": "tuple"
        },
        {
          "internalType": "uint256",
          "name": "maxPerBuyer",
          "type": "uint256"
        },
        {
          "internalType": "uint256",
          "name": "expiry",
          "type": "uint256"
        },
        {
          "components": [
            {
              "internalType": "uint256",
              "name": "nonce",
              "type": "uint256"
            },
            {
              "internalType": "uint256",
              "name": "expiry",
              "type": "uint256"
            },
            {
              "internalType": "bytes",
              "name": "signature",
              "type": "bytes"
            }
          ],
          "internalType": "struct MarketV1.Approval",
          "name": "approval",
          "type": "tuple"
        }
      ],
      "name": "listForSale",
      "outputs": [],
      "stateMutability": "nonpayable",
      "type": "function"
    },
    {
      "inputs": [
        {
          "internalType": "uint256",
          "name": "listingId",
          "type": "uint256"
        }
      ],
      "name": "cancel",
      "outputs": [],
      "stateMutability": "nonpayable",
      "type": "function"
    }
  ],
  "bytecode": "0x608060405260006004553480156200001657600080fd5b506000600160006101000a81548160ff021916908315150217905550620000476000801b33620000f460201b60201c565b620000797fa49807205ce4d355092ef5a8a18f56e8913cf4a201fbe287825b095693c2177533620000f460201b60201c565b620000ae7fa49807205ce4d355092ef5a8a18f56e8913cf4a201fbe287825b095693c217756000801b6200010a60201b60201c565b336001806101000a81548173ffffffffffffffffffffffffffffffffffffffff021916908373ffffffffffffffffffffffffffffffffffffffff160217905550620002ef565b6200010682826200016d60201b60201c565b5050565b60006200011d836200025e60201b60201c565b905081600080858152602001908152602001600020600101819055508181847fbd79b86ffe0ab8e8776151514217cd7cacd52c909f66475c3af44e129f0b00ff60405160405180910390a4505050565b6200017f82826200027d60201b60201c565b6200025a57600160008084815260200190815260200160002060000160008373ffffffffffffffffffffffffffffffffffffffff1673ffffffffffffffffffffffffffffffffffffffff16815260200190815260200160002060006101000a81548160ff021916908315150217905550620001ff620002e760201b60201c565b73ffffffffffffffffffffffffffffffffffffffff168173ffffffffffffffffffffffffffffffffffffffff16837f2f8788117e7eff1d82e926ec794901d17c78024a50270940304540a733656f0d60405160405180910390a45b5050565b6000806000838152602001908152602001600020600101549050919050565b600080600084815260200190815260200160002060000160008373ffffffffffffffffffffffffffffffffffffffff1673ffffffffffffffffffffffffffffffffffffffff16815260200190815260200160002060009054906101000a900460ff16905092915050565b600033905090565b614a1480620002ff6000396000f3fe608060405234801561001057600080fd5b506004361061014d5760003560e01c80637bbedb3e116100c3578063bc197c811161007c578063bc197c81146103c2578063d428dc2b146103f2578063d547741f14610410578063d6febde81461042c578063f23a6e6114610448578063f3fef3a3146104785761014d565b80637bbedb3e146102c857806391d14854146102f85780639507d39a14610328578063a217fddf14610358578063b203bb9914610376578063b54db962146103a65761014d565b80632f2ff15d116101155780632f2ff15d1461021c57806336568abe1461023857806340e58ee51461025457806354fd4d50146102705780635a0a3d821461028e5780635c975abb146102aa5761014d565b806301ffc9a71461015257806306fdde0314610182578063150b7a02146101a057806316c38b3c146101d0578063248a9ca3146101ec575b600080fd5b61016c60048036038101906101679190612e46565b610494565b6040516101799190612e8e565b60405180910390f35b61018a6104a6565b6040516101979190612f42565b60405180910390f35b6101ba60048036038101906101b5919061312d565b6104df565b6040516101c791906131bf565b60405180910390f35b6101ea60048036038101906101e59190613206565b6104f3565b005b61020660048036038101906102019190613269565b610528565b60405161021391906132a5565b60405180910390f35b610236600480360381019061023191906132c0565b610547565b005b610252600480360381019061024d91906132c0565b610570565b005b61026e60048036038101906102699190613300565b6105f3565b005b6102786108ad565b6040516102859190612f42565b60405180910390f35b6102a860048036038101906102a3919061332d565b6108e6565b005b6102b261093f565b6040516102bf9190612e8e565b60405180910390f35b6102e260048036038101906102dd91906133af565b610956565b6040516102ef91906132a5565b60405180910390f35b610312600480360381019061030d91906132c0565b6109c5565b60405161031f9190612e8e565b60405180910390f35b610342600480360381019061033d9190613300565b610a2f565b60405161034f919061365e565b60405180910390f35b610360610c08565b60405161036d91906132a5565b60405180910390f35b610390600480360381019061038b919061367a565b610c0f565b60405161039d91906136c9565b60405180910390f35b6103c060048036038101906103bb9190613708565b610c96565b005b6103dc60048036038101906103d791906138cc565b61122b565b6040516103e991906131bf565b60405180910390f35b6103fa611240565b60405161040791906136c9565b60405180910390f35b61042a600480360381019061042591906132c0565b611246565b005b6104466004803603810190610441919061399b565b61126f565b005b610462600480360381019061045d91906139db565b6116f7565b60405161046f91906131bf565b60405180910390f35b610492600480360381019061048d9190613a72565b61170c565b005b600061049f826119a9565b9050919050565b6040518060400160405280600f81526020017f46657374204e4654204d61726b6574000000000000000000000000000000000081525081565b600063150b7a0260e01b9050949350505050565b6000801b61050881610503611a23565b611a2b565b811561051b57610516611ac8565b610524565b610523611b6a565b5b5050565b6000806000838152602001908152602001600020600101549050919050565b61055082610528565b6105618161055c611a23565b611a2b565b61056b8383611c0c565b505050565b610578611a23565b73ffffffffffffffffffffffffffffffffffffffff168173ffffffffffffffffffffffffffffffffffffffff16146105e5576040517f08c379a00000000000000000000000000000000000000000000000000000000081526004016105dc90613b24565b60405180910390fd5b6105ef8282611cec565b5050565b6105fb61093f565b1561063b576040517f08c379a000000000000000000000000000000000000000000000000000000000815260040161063290613b90565b60405180910390fd5b600060056000838152602001908152602001600020905060006002811115610666576106656134f1565b5b81600c0160009054906101000a900460ff16600281111561068a576106896134f1565b5b146106cc57816040517f161bec970000000000000000000000000000000000000000000000000000000081526004016106c391906136c9565b60405180910390fd5b8060010160009054906101000a900473ffffffffffffffffffffffffffffffffffffffff1673ffffffffffffffffffffffffffffffffffffffff163373ffffffffffffffffffffffffffffffffffffffff161415801561075357506107517fa49807205ce4d355092ef5a8a18f56e8913cf4a201fbe287825b095693c21775336109c5565b155b1561078a576040517f82b4290000000000000000000000000000000000000000000000000000000000815260040160405180910390fd5b600281600c0160006101000a81548160ff021916908360028111156107b2576107b16134f1565b5b0217905550610814308260010160009054906101000a900473ffffffffffffffffffffffffffffffffffffffff168360020160009054906101000a900473ffffffffffffffffffffffffffffffffffffffff1684600301548560090154611dcd565b8060020160009054906101000a900473ffffffffffffffffffffffffffffffffffffffff1673ffffffffffffffffffffffffffffffffffffffff163373ffffffffffffffffffffffffffffffffffffffff167fca5fbf354151ee18d2ff58712c9ed7be34397aa5983abfaf40e2d8485867d96684846003015485600901546040516108a193929190613bb0565b60405180910390a35050565b6040518060400160405280600381526020017f312e30000000000000000000000000000000000000000000000000000000000081525081565b6000801b6108fb816108f6611a23565b611a2b565b816001806101000a81548173ffffffffffffffffffffffffffffffffffffffff021916908373ffffffffffffffffffffffffffffffffffffffff1602179055505050565b6000600160009054906101000a900460ff16905090565b6000308c8c8c8c8c8c8c6040516020016109709190613c16565b6040516020818303038152906040528c8c8c8c60405160200161099e9c9b9a99989796959493929190613ce1565b6040516020818303038152906040528051906020012090509b9a5050505050505050505050565b600080600084815260200190815260200160002060000160008373ffffffffffffffffffffffffffffffffffffffff1673ffffffffffffffffffffffffffffffffffffffff16815260200190815260200160002060009054906101000a900460ff16905092915050565b610a37612d05565b6005600083815260200190815260200160002060405180610180016040529081600082015481526020016001820160009054906101000a900473ffffffffffffffffffffffffffffffffffffffff1673ffffffffffffffffffffffffffffffffffffffff1673ffffffffffffffffffffffffffffffffffffffff1681526020016002820160009054906101000a900473ffffffffffffffffffffffffffffffffffffffff1673ffffffffffffffffffffffffffffffffffffffff1673ffffffffffffffffffffffffffffffffffffffff16815260200160038201548152602001600482015481526020016005820160009054906101000a900473ffffffffffffffffffffffffffffffffffffffff1673ffffffffffffffffffffffffffffffffffffffff1673ffffffffffffffffffffffffffffffffffffffff168152602001600682015481526020016007820160405180604001604052908160008201548152602001600182015481525050815260200160098201548152602001600a8201548152602001600b8201548152602001600c820160009054906101000a900460ff166002811115610beb57610bea6134f1565b5b6002811115610bfd57610bfc6134f1565b5b815250509050919050565b6000801b81565b6000600260008473ffffffffffffffffffffffffffffffffffffffff1673ffffffffffffffffffffffffffffffffffffffff16815260200190815260200160002060008373ffffffffffffffffffffffffffffffffffffffff1673ffffffffffffffffffffffffffffffffffffffff16815260200190815260200160002054905092915050565b610c9e61093f565b15610cde576040517f08c379a0000000000000000000000000000000000000000000000000000000008152600401610cd590613b90565b60405180910390fd5b60008711610d21576040517f08c379a0000000000000000000000000000000000000000000000000000000008152600401610d1890613e25565b60405180910390fd5b6000821115610d6d57814210610d6c576040517f08c379a0000000000000000000000000000000000000000000000000000000008152600401610d6390613eb7565b60405180910390fd5b5b610d7a8a308b8b8b611dcd565b42816020013511610db7576040517f955b334a00000000000000000000000000000000000000000000000000000000815260040160405180910390fd5b6000610dd48b8b8b8b8b8b8b8b8b8b600001358c60200135610956565b90506003600082815260200190815260200160002060009054906101000a900460ff1615610e2e576040517fb9ae9fd800000000000000000000000000000000000000000000000000000000815260040160405180910390fd5b6000610e9d838060400190610e439190613ee6565b8080601f016020809104026020016040519081016040528093929190818152602001838380828437600081840152601f19601f82011690508083019250505050505050610e8f84611fad565b611fdd90919063ffffffff16565b9050600073ffffffffffffffffffffffffffffffffffffffff168173ffffffffffffffffffffffffffffffffffffffff161480610f015750610eff7fa49807205ce4d355092ef5a8a18f56e8913cf4a201fbe287825b095693c21775826109c5565b155b15610f38576040517f8baa579f00000000000000000000000000000000000000000000000000000000815260040160405180910390fd5b60016003600084815260200190815260200160002060006101000a81548160ff02191690831515021790555060046000815480929190610f7790613f78565b919050555060405180610180016040528060045481526020018d73ffffffffffffffffffffffffffffffffffffffff1681526020018c73ffffffffffffffffffffffffffffffffffffffff1681526020018b81526020018a81526020018973ffffffffffffffffffffffffffffffffffffffff1681526020018881526020018781526020018a815260200186815260200185815260200160006002811115611022576110216134f1565b5b8152506005600060045481526020019081526020016000206000820151816000015560208201518160010160006101000a81548173ffffffffffffffffffffffffffffffffffffffff021916908373ffffffffffffffffffffffffffffffffffffffff16021790555060408201518160020160006101000a81548173ffffffffffffffffffffffffffffffffffffffff021916908373ffffffffffffffffffffffffffffffffffffffff160217905550606082015181600301556080820151816004015560a08201518160050160006101000a81548173ffffffffffffffffffffffffffffffffffffffff021916908373ffffffffffffffffffffffffffffffffffffffff16021790555060c0820151816006015560e08201518160070160008201518160000155602082015181600101555050610100820151816009015561012082015181600a015561014082015181600b015561016082015181600c0160006101000a81548160ff021916908360028111156111a3576111a26134f1565b5b0217905550905050838b73ffffffffffffffffffffffffffffffffffffffff168d73ffffffffffffffffffffffffffffffffffffffff167fcdce8504f547095cb92e860730e0efd477bbe8f879add75358f99c787c78f4666004548e8e8e8e8d60405161121596959493929190613fcf565b60405180910390a4505050505050505050505050565b600063bc197c8160e01b905095945050505050565b61271081565b61124f82610528565b6112608161125b611a23565b611a2b565b61126a8383611cec565b505050565b61127761093f565b156112b7576040517f08c379a00000000000000000000000000000000000000000000000000000000081526004016112ae90613b90565b60405180910390fd5b6000600560008481526020019081526020016000209050600060028111156112e2576112e16134f1565b5b81600c0160009054906101000a900460ff166002811115611306576113056134f1565b5b1461134857826040517f161bec9700000000000000000000000000000000000000000000000000000000815260040161133f91906136c9565b60405180910390fd5b8060090154821115611397578181600901546040517f3d346c4700000000000000000000000000000000000000000000000000000000815260040161138e929190614030565b60405180910390fd5b600081600b015411156113ed574281600b0154116113ec57826040517f161bec970000000000000000000000000000000000000000000000000000000081526004016113e391906136c9565b60405180910390fd5b5b600082600660003373ffffffffffffffffffffffffffffffffffffffff1673ffffffffffffffffffffffffffffffffffffffff16815260200190815260200160002060008681526020019081526020016000205461144b9190614059565b9050600082600a015411156114fc5781600a01548111156114fb5781600a0154600660003373ffffffffffffffffffffffffffffffffffffffff1673ffffffffffffffffffffffffffffffffffffffff168152602001908152602001600020600086815260200190815260200160002054826040517f8731b6bd0000000000000000000000000000000000000000000000000000000081526004016114f293929190613bb0565b60405180910390fd5b5b82600660003373ffffffffffffffffffffffffffffffffffffffff1673ffffffffffffffffffffffffffffffffffffffff16815260200190815260200160002060008460000154815260200190815260200160002060008282546115609190614059565b9250508190555082826009015461157791906140af565b826009018190555060008260090154036115b957600182600c0160006101000a81548160ff021916908360028111156115b3576115b26134f1565b5b02179055505b6116f16004546040518060e001604052808560010160009054906101000a900473ffffffffffffffffffffffffffffffffffffffff1673ffffffffffffffffffffffffffffffffffffffff1681526020013373ffffffffffffffffffffffffffffffffffffffff1681526020018560020160009054906101000a900473ffffffffffffffffffffffffffffffffffffffff1673ffffffffffffffffffffffffffffffffffffffff168152602001856003015481526020018681526020018560050160009054906101000a900473ffffffffffffffffffffffffffffffffffffffff1673ffffffffffffffffffffffffffffffffffffffff1681526020018560060154876116c691906140e3565b8152508460070160405180604001604052908160008201548152602001600182015481525050612004565b50505050565b600063f23a6e6160e01b905095945050505050565b61171461093f565b15611754576040517f08c379a000000000000000000000000000000000000000000000000000000000815260040161174b90613b90565b60405180910390fd5b80600260003373ffffffffffffffffffffffffffffffffffffffff1673ffffffffffffffffffffffffffffffffffffffff16815260200190815260200160002060008473ffffffffffffffffffffffffffffffffffffffff1673ffffffffffffffffffffffffffffffffffffffff1681526020019081526020016000205410156118935780600260003373ffffffffffffffffffffffffffffffffffffffff1673ffffffffffffffffffffffffffffffffffffffff16815260200190815260200160002060008473ffffffffffffffffffffffffffffffffffffffff1673ffffffffffffffffffffffffffffffffffffffff168152602001908152602001600020546040517fcf47918100000000000000000000000000000000000000000000000000000000815260040161188a929190614030565b60405180910390fd5b80600260003373ffffffffffffffffffffffffffffffffffffffff1673ffffffffffffffffffffffffffffffffffffffff16815260200190815260200160002060008473ffffffffffffffffffffffffffffffffffffffff1673ffffffffffffffffffffffffffffffffffffffff168152602001908152602001600020600082825461191f91906140af565b925050819055508173ffffffffffffffffffffffffffffffffffffffff1663a9059cbb33836040518363ffffffff1660e01b815260040161196192919061413d565b6020604051808303816000875af1158015611980573d6000803e3d6000fd5b505050506040513d601f19601f820116820180604052508101906119a4919061417b565b505050565b60007f4e2312e0000000000000000000000000000000000000000000000000000000007bffffffffffffffffffffffffffffffffffffffffffffffffffffffff1916827bffffffffffffffffffffffffffffffffffffffffffffffffffffffff19161480611a1c5750611a1b826123a2565b5b9050919050565b600033905090565b611a3582826109c5565b611ac457611a5a8173ffffffffffffffffffffffffffffffffffffffff16601461241c565b611a688360001c602061241c565b604051602001611a7992919061427c565b6040516020818303038152906040526040517f08c379a0000000000000000000000000000000000000000000000000000000008152600401611abb9190612f42565b60405180910390fd5b5050565b611ad061093f565b15611b10576040517f08c379a0000000000000000000000000000000000000000000000000000000008152600401611b0790613b90565b60405180910390fd5b60018060006101000a81548160ff0219169083151502179055507f62e78cea01bee320cd4e420270b5ea74000d11b0c9f74754ebdbfc544b05a258611b53611a23565b604051611b6091906142b6565b60405180910390a1565b611b7261093f565b611bb1576040517f08c379a0000000000000000000000000000000000000000000000000000000008152600401611ba89061431d565b60405180910390fd5b6000600160006101000a81548160ff0219169083151502179055507f5db9ee0a495bf2e6ff9c91a7834c1ba4fdd244a5e8aa4e537bd38aeae4b073aa611bf5611a23565b604051611c0291906142b6565b60405180910390a1565b611c1682826109c5565b611ce857600160008084815260200190815260200160002060000160008373ffffffffffffffffffffffffffffffffffffffff1673ffffffffffffffffffffffffffffffffffffffff16815260200190815260200160002060006101000a81548160ff021916908315150217905550611c8d611a23565b73ffffffffffffffffffffffffffffffffffffffff168173ffffffffffffffffffffffffffffffffffffffff16837f2f8788117e7eff1d82e926ec794901d17c78024a50270940304540a733656f0d60405160405180910390a45b5050565b611cf682826109c5565b15611dc957600080600084815260200190815260200160002060000160008373ffffffffffffffffffffffffffffffffffffffff1673ffffffffffffffffffffffffffffffffffffffff16815260200190815260200160002060006101000a81548160ff021916908315150217905550611d6e611a23565b73ffffffffffffffffffffffffffffffffffffffff168173ffffffffffffffffffffffffffffffffffffffff16837ff6391f5c32d9c69d2a47ea670b442974b53935d1edc7fd64eb21e047a839171b60405160405180910390a45b5050565b8273ffffffffffffffffffffffffffffffffffffffff166301ffc9a77fd9b67a26000000000000000000000000000000000000000000000000000000006040518263ffffffff1660e01b8152600401611e2691906131bf565b602060405180830381865afa158015611e43573d6000803e3d6000fd5b505050506040513d601f19601f82011682018060405250810190611e67919061417b565b15611ef3578273ffffffffffffffffffffffffffffffffffffffff1663f242432a86868585604051806020016040528060008152506040518663ffffffff1660e01b8152600401611ebc959493929190614387565b600060405180830381600087803b158015611ed657600080fd5b505af1158015611eea573d6000803e3d6000fd5b50505050611fa6565b60018114611f36576040517f08c379a0000000000000000000000000000000000000000000000000000000008152600401611f2d90614453565b60405180910390fd5b8273ffffffffffffffffffffffffffffffffffffffff166342842e0e8686856040518463ffffffff1660e01b8152600401611f7393929190614473565b600060405180830381600087803b158015611f8d57600080fd5b505af1158015611fa1573d6000803e3d6000fd5b505050505b5050505050565b600081604051602001611fc09190614517565b604051602081830303815290604052805190602001209050919050565b6000806000611fec8585612658565b91509150611ff9816126d9565b819250505092915050565b60008260c00151905060008060008311156122dd576120278385600001516128a5565b91506120378385602001516128a5565b9050818560c00181815161204b9190614059565b915081815250508460a0015173ffffffffffffffffffffffffffffffffffffffff166323b872dd8660200151308860c001516040518463ffffffff1660e01b815260040161209b93929190614473565b6020604051808303816000875af11580156120ba573d6000803e3d6000fd5b505050506040513d601f19601f820116820180604052508101906120de919061417b565b5080836120eb91906140af565b9250612105856040015186606001518760a00151866128f7565b8361211091906140af565b92508260026000876000015173ffffffffffffffffffffffffffffffffffffffff1673ffffffffffffffffffffffffffffffffffffffff16815260200190815260200160002060008760a0015173ffffffffffffffffffffffffffffffffffffffff1673ffffffffffffffffffffffffffffffffffffffff16815260200190815260200160002060008282546121a69190614059565b9250508190555080826121b99190614059565b6002600060018054906101000a900473ffffffffffffffffffffffffffffffffffffffff1673ffffffffffffffffffffffffffffffffffffffff1673ffffffffffffffffffffffffffffffffffffffff16815260200190815260200160002060008760a0015173ffffffffffffffffffffffffffffffffffffffff1673ffffffffffffffffffffffffffffffffffffffff16815260200190815260200160002060008282546122689190614059565b925050819055508460a0015173ffffffffffffffffffffffffffffffffffffffff16856000015173ffffffffffffffffffffffffffffffffffffffff167f0e6a0834f53a765461a75a7f7d14e9862025ea792ed50f4816bbe9cd7e11684f856040516122d491906136c9565b60405180910390a35b6122fa308660200151876040015188606001518960800151611dcd565b846040015173ffffffffffffffffffffffffffffffffffffffff16856020015173ffffffffffffffffffffffffffffffffffffffff16866000015173ffffffffffffffffffffffffffffffffffffffff167fef4bd84be5e89fce71c28f17c33402b95bf57ac8f87621968ef2b6e3d11f0e908989606001518a608001518b60a001518c60c0015160405161239295949392919061453d565b60405180910390a4505050505050565b60007f7965db0b000000000000000000000000000000000000000000000000000000007bffffffffffffffffffffffffffffffffffffffffffffffffffffffff1916827bffffffffffffffffffffffffffffffffffffffffffffffffffffffff19161480612415575061241482612b41565b5b9050919050565b60606000600283600261242f91906140e3565b6124399190614059565b67ffffffffffffffff81111561245257612451613002565b5b6040519080825280601f01601f1916602001820160405280156124845781602001600182028036833780820191505090505b5090507f3000000000000000000000000000000000000000000000000000000000000000816000815181106124bc576124bb614590565b5b60200101907effffffffffffffffffffffffffffffffffffffffffffffffffffffffffffff1916908160001a9053507f7800000000000000000000000000000000000000000000000000000000000000816001815181106125205761251f614590565b5b60200101907effffffffffffffffffffffffffffffffffffffffffffffffffffffffffffff1916908160001a9053506000600184600261256091906140e3565b61256a9190614059565b90505b600181111561260a577f3031323334353637383961626364656600000000000000000000000000000000600f8616601081106125ac576125ab614590565b5b1a60f81b8282815181106125c3576125c2614590565b5b60200101907effffffffffffffffffffffffffffffffffffffffffffffffffffffffffffff1916908160001a905350600485901c945080612603906145bf565b905061256d565b506000841461264e576040517f08c379a000000000000000000000000000000000000000000000000000000000815260040161264590614634565b60405180910390fd5b8091505092915050565b60008060418351036126995760008060006020860151925060408601519150606086015160001a905061268d87828585612bab565b945094505050506126d2565b60408351036126c95760008060208501519150604085015190506126be868383612cb7565b9350935050506126d2565b60006002915091505b9250929050565b600060048111156126ed576126ec6134f1565b5b816004811115612700576126ff6134f1565b5b03156128a2576001600481111561271a576127196134f1565b5b81600481111561272d5761272c6134f1565b5b0361276d576040517f08c379a0000000000000000000000000000000000000000000000000000000008152600401612764906146a0565b60405180910390fd5b60026004811115612781576127806134f1565b5b816004811115612794576127936134f1565b5b036127d4576040517f08c379a00000000000000000000000000000000000000000000000000000000081526004016127cb9061470c565b60405180910390fd5b600360048111156127e8576127e76134f1565b5b8160048111156127fb576127fa6134f1565b5b0361283b576040517f08c379a00000000000000000000000000000000000000000000000000000000081526004016128329061479e565b60405180910390fd5b60048081111561284e5761284d6134f1565b5b816004811115612861576128606134f1565b5b036128a1576040517f08c379a000000000000000000000000000000000000000000000000000000000815260040161289890614830565b60405180910390fd5b5b50565b600080831180156128b65750600082115b156128f157600082846128c991906140e3565b90506127108110156128de57600191506128ef565b612710816128ec919061487f565b91505b505b92915050565b6000808573ffffffffffffffffffffffffffffffffffffffff166301ffc9a7632a55205a6040518263ffffffff1660e01b815260040161293791906148f8565b602060405180830381865afa158015612954573d6000803e3d6000fd5b505050506040513d601f19601f82011682018060405250810190612978919061417b565b905080612989576000915050612b39565b6000808773ffffffffffffffffffffffffffffffffffffffff16632a55205a88876040518363ffffffff1660e01b81526004016129c7929190614030565b6040805180830381865afa1580156129e3573d6000803e3d6000fd5b505050506040513d601f19601f82011682018060405250810190612a07919061493d565b915091506000811115612b325784811115612a20578490505b80600260008473ffffffffffffffffffffffffffffffffffffffff1673ffffffffffffffffffffffffffffffffffffffff16815260200190815260200160002060008873ffffffffffffffffffffffffffffffffffffffff1673ffffffffffffffffffffffffffffffffffffffff1681526020019081526020016000206000828254612aac9190614059565b925050819055508573ffffffffffffffffffffffffffffffffffffffff168273ffffffffffffffffffffffffffffffffffffffff168973ffffffffffffffffffffffffffffffffffffffff167f27c4f0403323142b599832f26acd21c74a9e5b809f2215726e244a4ac588cd7d8a85604051612b29929190614030565b60405180910390a45b8093505050505b949350505050565b60007f01ffc9a7000000000000000000000000000000000000000000000000000000007bffffffffffffffffffffffffffffffffffffffffffffffffffffffff1916827bffffffffffffffffffffffffffffffffffffffffffffffffffffffff1916149050919050565b6000807f7fffffffffffffffffffffffffffffff5d576e7357a4501ddfe92f46681b20a08360001c1115612be6576000600391509150612cae565b601b8560ff1614158015612bfe5750601c8560ff1614155b15612c10576000600491509150612cae565b600060018787878760405160008152602001604052604051612c359493929190614999565b6020604051602081039080840390855afa158015612c57573d6000803e3d6000fd5b505050602060405103519050600073ffffffffffffffffffffffffffffffffffffffff168173ffffffffffffffffffffffffffffffffffffffff1603612ca557600060019250925050612cae565b80600092509250505b94509492505050565b6000806000807f7fffffffffffffffffffffffffffffffffffffffffffffffffffffffffffffff85169150601b8560ff1c019050612cf787828885612bab565b935093505050935093915050565b60405180610180016040528060008152602001600073ffffffffffffffffffffffffffffffffffffffff168152602001600073ffffffffffffffffffffffffffffffffffffffff1681526020016000815260200160008152602001600073ffffffffffffffffffffffffffffffffffffffff16815260200160008152602001612d8c612dc0565b815260200160008152602001600081526020016000815260200160006002811115612dba57612db96134f1565b5b81525090565b604051806040016040528060008152602001600081525090565b6000604051905090565b600080fd5b600080fd5b60007fffffffff0000000000000000000000000000000000000000000000000000000082169050919050565b612e2381612dee565b8114612e2e57600080fd5b50565b600081359050612e4081612e1a565b92915050565b600060208284031215612e5c57612e5b612de4565b5b6000612e6a84828501612e31565b91505092915050565b60008115159050919050565b612e8881612e73565b82525050565b6000602082019050612ea36000830184612e7f565b92915050565b600081519050919050565b600082825260208201905092915050565b60005b83811015612ee3578082015181840152602081019050612ec8565b83811115612ef2576000848401525b50505050565b6000601f19601f8301169050919050565b6000612f1482612ea9565b612f1e8185612eb4565b9350612f2e818560208601612ec5565b612f3781612ef8565b840191505092915050565b60006020820190508181036000830152612f5c8184612f09565b905092915050565b600073ffffffffffffffffffffffffffffffffffffffff82169050919050565b6000612f8f82612f64565b9050919050565b612f9f81612f84565b8114612faa57600080fd5b50565b600081359050612fbc81612f96565b92915050565b6000819050919050565b612fd581612fc2565b8114612fe057600080fd5b50565b600081359050612ff281612fcc565b92915050565b600080fd5b600080fd5b7f4e487b7100000000000000000000000000000000000000000000000000000000600052604160045260246000fd5b61303a82612ef8565b810181811067ffffffffffffffff8211171561305957613058613002565b5b80604052505050565b600061306c612dda565b90506130788282613031565b919050565b600067ffffffffffffffff82111561309857613097613002565b5b6130a182612ef8565b9050602081019050919050565b82818337600083830152505050565b60006130d06130cb8461307d565b613062565b9050828152602081018484840111156130ec576130eb612ffd565b5b6130f78482856130ae565b509392505050565b600082601f83011261311457613113612ff8565b5b81356131248482602086016130bd565b91505092915050565b6000806000806080858703121561314757613146612de4565b5b600061315587828801612fad565b945050602061316687828801612fad565b935050604061317787828801612fe3565b925050606085013567ffffffffffffffff81111561319857613197612de9565b5b6131a4878288016130ff565b91505092959194509250565b6131b981612dee565b82525050565b60006020820190506131d460008301846131b0565b92915050565b6131e381612e73565b81146131ee57600080fd5b50565b600081359050613200816131da565b92915050565b60006020828403121561321c5761321b612de4565b5b600061322a848285016131f1565b91505092915050565b6000819050919050565b61324681613233565b811461325157600080fd5b50565b6000813590506132638161323d565b92915050565b60006020828403121561327f5761327e612de4565b5b600061328d84828501613254565b91505092915050565b61329f81613233565b82525050565b60006020820190506132ba6000830184613296565b92915050565b600080604083850312156132d7576132d6612de4565b5b60006132e585828601613254565b92505060206132f685828601612fad565b9150509250929050565b60006020828403121561331657613315612de4565b5b600061332484828501612fe3565b91505092915050565b60006020828403121561334357613342612de4565b5b600061335184828501612fad565b91505092915050565b600080fd5b6000604082840312156133755761337461335a565b5b61337f6040613062565b9050600061338f84828501612fe3565b60008301525060206133a384828501612fe3565b60208301525092915050565b60008060008060008060008060008060006101808c8e0312156133d5576133d4612de4565b5b60006133e38e828f01612fad565b9b505060206133f48e828f01612fad565b9a505060406134058e828f01612fe3565b99505060606134168e828f01612fe3565b98505060806134278e828f01612fad565b97505060a06134388e828f01612fe3565b96505060c06134498e828f0161335f565b95505061010061345b8e828f01612fe3565b94505061012061346d8e828f01612fe3565b93505061014061347f8e828f01612fe3565b9250506101606134918e828f01612fe3565b9150509295989b509295989b9093969950565b6134ad81612fc2565b82525050565b6134bc81612f84565b82525050565b6040820160008201516134d860008501826134a4565b5060208201516134eb60208501826134a4565b50505050565b7f4e487b7100000000000000000000000000000000000000000000000000000000600052602160045260246000fd5b60038110613531576135306134f1565b5b50565b600081905061354282613520565b919050565b600061355282613534565b9050919050565b61356281613547565b82525050565b6101a08201600082015161357f60008501826134a4565b50602082015161359260208501826134b3565b5060408201516135a560408501826134b3565b5060608201516135b860608501826134a4565b5060808201516135cb60808501826134a4565b5060a08201516135de60a08501826134b3565b5060c08201516135f160c08501826134a4565b5060e082015161360460e08501826134c2565b506101008201516136196101208501826134a4565b5061012082015161362e6101408501826134a4565b506101408201516136436101608501826134a4565b50610160820151613658610180850182613559565b50505050565b60006101a0820190506136746000830184613568565b92915050565b6000806040838503121561369157613690612de4565b5b600061369f85828601612fad565b92505060206136b085828601612fad565b9150509250929050565b6136c381612fc2565b82525050565b60006020820190506136de60008301846136ba565b92915050565b600080fd5b6000606082840312156136ff576136fe6136e4565b5b81905092915050565b6000806000806000806000806000806101608b8d03121561372c5761372b612de4565b5b600061373a8d828e01612fad565b9a5050602061374b8d828e01612fad565b995050604061375c8d828e01612fe3565b985050606061376d8d828e01612fe3565b975050608061377e8d828e01612fad565b96505060a061378f8d828e01612fe3565b95505060c06137a08d828e0161335f565b9450506101006137b28d828e01612fe3565b9350506101206137c48d828e01612fe3565b9250506101408b013567ffffffffffffffff8111156137e6576137e5612de9565b5b6137f28d828e016136e9565b9150509295989b9194979a5092959850565b600067ffffffffffffffff82111561381f5761381e613002565b5b602082029050602081019050919050565b600080fd5b600061384861384384613804565b613062565b9050808382526020820190506020840283018581111561386b5761386a613830565b5b835b8181101561389457806138808882612fe3565b84526020840193505060208101905061386d565b5050509392505050565b600082601f8301126138b3576138b2612ff8565b5b81356138c3848260208601613835565b91505092915050565b600080600080600060a086880312156138e8576138e7612de4565b5b60006138f688828901612fad565b955050602061390788828901612fad565b945050604086013567ffffffffffffffff81111561392857613927612de9565b5b6139348882890161389e565b935050606086013567ffffffffffffffff81111561395557613954612de9565b5b6139618882890161389e565b925050608086013567ffffffffffffffff81111561398257613981612de9565b5b61398e888289016130ff565b9150509295509295909350565b600080604083850312156139b2576139b1612de4565b5b60006139c085828601612fe3565b92505060206139d185828601612fe3565b9150509250929050565b600080600080600060a086880312156139f7576139f6612de4565b5b6000613a0588828901612fad565b9550506020613a1688828901612fad565b9450506040613a2788828901612fe3565b9350506060613a3888828901612fe3565b925050608086013567ffffffffffffffff811115613a5957613a58612de9565b5b613a65888289016130ff565b9150509295509295909350565b60008060408385031215613a8957613a88612de4565b5b6000613a9785828601612fad565b9250506020613aa885828601612fe3565b9150509250929050565b7f416363657373436f6e74726f6c3a2063616e206f6e6c792072656e6f756e636560008201527f20726f6c657320666f722073656c660000000000000000000000000000000000602082015250565b6000613b0e602f83612eb4565b9150613b1982613ab2565b604082019050919050565b60006020820190508181036000830152613b3d81613b01565b9050919050565b7f5061757361626c653a2070617573656400000000000000000000000000000000600082015250565b6000613b7a601083612eb4565b9150613b8582613b44565b602082019050919050565b60006020820190508181036000830152613ba981613b6d565b9050919050565b6000606082019050613bc560008301866136ba565b613bd260208301856136ba565b613bdf60408301846136ba565b949350505050565b604082016000820151613bfd60008501826134a4565b506020820151613c1060208501826134a4565b50505050565b6000604082019050613c2b6000830184613be7565b92915050565b60008160601b9050919050565b6000613c4982613c31565b9050919050565b6000613c5b82613c3e565b9050919050565b613c73613c6e82612f84565b613c50565b82525050565b6000819050919050565b613c94613c8f82612fc2565b613c79565b82525050565b600081519050919050565b600081905092915050565b6000613cbb82613c9a565b613cc58185613ca5565b9350613cd5818560208601612ec5565b80840191505092915050565b6000613ced828f613c62565b601482019150613cfd828e613c62565b601482019150613d0d828d613c62565b601482019150613d1d828c613c83565b602082019150613d2d828b613c83565b602082019150613d3d828a613c62565b601482019150613d4d8289613c83565b602082019150613d5d8288613cb0565b9150613d698287613c83565b602082019150613d798286613c83565b602082019150613d898285613c83565b602082019150613d998284613c83565b6020820191508190509d9c50505050505050505050505050565b7f5175616e74697479206e6565647320746f206265206174206c65617374206f6e60008201527f652e000000000000000000000000000000000000000000000000000000000000602082015250565b6000613e0f602283612eb4565b9150613e1a82613db3565b604082019050919050565b60006020820190508181036000830152613e3e81613e02565b9050919050565b7f457870697279206e6565647320746f20626520696e207468652066757475726560008201527f2e00000000000000000000000000000000000000000000000000000000000000602082015250565b6000613ea1602183612eb4565b9150613eac82613e45565b604082019050919050565b60006020820190508181036000830152613ed081613e94565b9050919050565b600080fd5b600080fd5b600080fd5b60008083356001602003843603038112613f0357613f02613ed7565b5b80840192508235915067ffffffffffffffff821115613f2557613f24613edc565b5b602083019250600182023603831315613f4157613f40613ee1565b5b509250929050565b7f4e487b7100000000000000000000000000000000000000000000000000000000600052601160045260246000fd5b6000613f8382612fc2565b91507fffffffffffffffffffffffffffffffffffffffffffffffffffffffffffffffff8203613fb557613fb4613f49565b5b600182019050919050565b613fc981612f84565b82525050565b600060c082019050613fe460008301896136ba565b613ff160208301886136ba565b613ffe60408301876136ba565b61400b6060830186613fc0565b61401860808301856136ba565b61402560a08301846136ba565b979650505050505050565b600060408201905061404560008301856136ba565b61405260208301846136ba565b9392505050565b600061406482612fc2565b915061406f83612fc2565b9250827fffffffffffffffffffffffffffffffffffffffffffffffffffffffffffffffff038211156140a4576140a3613f49565b5b828201905092915050565b60006140ba82612fc2565b91506140c583612fc2565b9250828210156140d8576140d7613f49565b5b828203905092915050565b60006140ee82612fc2565b91506140f983612fc2565b9250817fffffffffffffffffffffffffffffffffffffffffffffffffffffffffffffffff048311821515161561413257614131613f49565b5b828202905092915050565b60006040820190506141526000830185613fc0565b61415f60208301846136ba565b9392505050565b600081519050614175816131da565b92915050565b60006020828403121561419157614190612de4565b5b600061419f84828501614166565b91505092915050565b600081905092915050565b7f416363657373436f6e74726f6c3a206163636f756e7420000000000000000000600082015250565b60006141e96017836141a8565b91506141f4826141b3565b601782019050919050565b600061420a82612ea9565b61421481856141a8565b9350614224818560208601612ec5565b80840191505092915050565b7f206973206d697373696e6720726f6c6520000000000000000000000000000000600082015250565b60006142666011836141a8565b915061427182614230565b601182019050919050565b6000614287826141dc565b915061429382856141ff565b915061429e82614259565b91506142aa82846141ff565b91508190509392505050565b60006020820190506142cb6000830184613fc0565b92915050565b7f5061757361626c653a206e6f7420706175736564000000000000000000000000600082015250565b6000614307601483612eb4565b9150614312826142d1565b602082019050919050565b60006020820190508181036000830152614336816142fa565b9050919050565b600082825260208201905092915050565b600061435982613c9a565b614363818561433d565b9350614373818560208601612ec5565b61437c81612ef8565b840191505092915050565b600060a08201905061439c6000830188613fc0565b6143a96020830187613fc0565b6143b660408301866136ba565b6143c360608301856136ba565b81810360808301526143d5818461434e565b90509695505050505050565b7f5175616e74697479206e6565647320746f20626520657175616c20746f206f6e60008201527f652e000000000000000000000000000000000000000000000000000000000000602082015250565b600061443d602283612eb4565b9150614448826143e1565b604082019050919050565b6000602082019050818103600083015261446c81614430565b9050919050565b60006060820190506144886000830186613fc0565b6144956020830185613fc0565b6144a260408301846136ba565b949350505050565b7f19457468657265756d205369676e6564204d6573736167653a0a333200000000600082015250565b60006144e0601c836141a8565b91506144eb826144aa565b601c82019050919050565b6000819050919050565b61451161450c82613233565b6144f6565b82525050565b6000614522826144d3565b915061452e8284614500565b60208201915081905092915050565b600060a08201905061455260008301886136ba565b61455f60208301876136ba565b61456c60408301866136ba565b6145796060830185613fc0565b61458660808301846136ba565b9695505050505050565b7f4e487b7100000000000000000000000000000000000000000000000000000000600052603260045260246000fd5b60006145ca82612fc2565b9150600082036145dd576145dc613f49565b5b600182039050919050565b7f537472696e67733a20686578206c656e67746820696e73756666696369656e74600082015250565b600061461e602083612eb4565b9150614629826145e8565b602082019050919050565b6000602082019050818103600083015261464d81614611565b9050919050565b7f45434453413a20696e76616c6964207369676e61747572650000000000000000600082015250565b600061468a601883612eb4565b915061469582614654565b602082019050919050565b600060208201905081810360008301526146b98161467d565b9050919050565b7f45434453413a20696e76616c6964207369676e6174757265206c656e67746800600082015250565b60006146f6601f83612eb4565b9150614701826146c0565b602082019050919050565b60006020820190508181036000830152614725816146e9565b9050919050565b7f45434453413a20696e76616c6964207369676e6174757265202773272076616c60008201527f7565000000000000000000000000000000000000000000000000000000000000602082015250565b6000614788602283612eb4565b91506147938261472c565b604082019050919050565b600060208201905081810360008301526147b78161477b565b9050919050565b7f45434453413a20696e76616c6964207369676e6174757265202776272076616c60008201527f7565000000000000000000000000000000000000000000000000000000000000602082015250565b600061481a602283612eb4565b9150614825826147be565b604082019050919050565b600060208201905081810360008301526148498161480d565b9050919050565b7f4e487b7100000000000000000000000000000000000000000000000000000000600052601260045260246000fd5b600061488a82612fc2565b915061489583612fc2565b9250826148a5576148a4614850565b5b828204905092915050565b6000819050919050565b60008160e01b9050919050565b60006148e26148dd6148d8846148b0565b6148ba565b612dee565b9050919050565b6148f2816148c7565b82525050565b600060208201905061490d60008301846148e9565b92915050565b60008151905061492281612f96565b92915050565b60008151905061493781612fcc565b92915050565b6000806040838503121561495457614953612de4565b5b600061496285828601614913565b925050602061497385828601614928565b9150509250929050565b600060ff82169050919050565b6149938161497d565b82525050565b60006080820190506149ae6000830187613296565b6149bb602083018661498a565b6149c86040830185613296565b6149d56060830184613296565b9594505050505056fea2646970667358221220ae494375ddd63caeecbc942b49e21898116ad0359dde9381a5de2bec4071b7a664736f6c634300080e0033",
  "immutableReferences": {},
  "source": "// SPDX-License-Identifier: MIT\npragma solidity ^0.8.13;\n\nimport \"@openzeppelin/contracts/utils/cryptography/ECDSA.sol\";\n\nimport \"./MarketV1.sol\";\nimport \"../interfaces/IERC2981.sol\";\n\ncontract ListingMarketV1 is MarketV1 {\n  using ECDSA for bytes32;\n\n  enum ListingStatus {\n    Active,\n    Sold,\n    Cancelled\n  }\n\n  struct Listing {\n    uint256 id;\n    address seller;\n    address token;\n    uint256 tokenId;\n    uint256 quantity;\n    address currency;\n    uint256 price;\n    Fees fees;\n    uint256 available;\n    uint256 maxPerBuyer;\n    uint256 expiry;\n    ListingStatus status;\n  }\n\n  event ListToken(\n    uint256 listingId,\n    address indexed seller,\n    address indexed token,\n    uint256 tokenId,\n    uint256 quantity,\n    address currency,\n    uint256 price,\n    uint256 maxPerBuyer,\n    uint256 indexed expiry\n  );\n\n  event Cancel(\n    uint256 listingId,\n    address indexed operator,\n    address indexed token,\n    uint256 tokenId,\n    uint256 returned\n  );\n\n  error InsufficientQuantity(\n    uint256 desired,\n    uint256 actual\n  );\n  error ListingInactive(uint256 id);\n  error PurchaseQuantityExceeded(\n    uint256 maxAllowed,\n    uint256 purchased,\n    uint256 desiredTotal\n  );\n\n  mapping(bytes32 => bool) private _approvalsExhausted;\n\n  uint256 private _listingId = 0;\n  mapping(uint256 => Listing) private _listings;\n\n  mapping(address => mapping(uint256 => uint256))\n    private _purchases;\n\n  constructor() {}\n\n  function buy(uint256 listingId, uint256 quantity)\n    external\n    whenNotPaused\n  {\n    Listing storage listing = _listings[listingId];\n\n    if (listing.status != ListingStatus.Active) {\n      revert ListingInactive({ id: listingId });\n    }\n\n    if (quantity > listing.available) {\n      revert InsufficientQuantity({\n        desired: quantity,\n        actual: listing.available\n      });\n    }\n\n    if (listing.expiry > 0) {\n      if (listing.expiry <= block.timestamp) {\n        revert ListingInactive({ id: listingId });\n      }\n    }\n\n    uint256 desiredTotal = _purchases[msg.sender][\n      listingId\n    ] + quantity;\n\n    if (listing.maxPerBuyer > 0) {\n      if (desiredTotal > listing.maxPerBuyer) {\n        revert PurchaseQuantityExceeded({\n          maxAllowed: listing.maxPerBuyer,\n          purchased: _purchases[msg.sender][listingId],\n          desiredTotal: desiredTotal\n        });\n      }\n    }\n\n    _purchases[msg.sender][listing.id] += quantity;\n\n    listing.available = listing.available - quantity;\n    if (listing.available == 0) {\n      listing.status = ListingStatus.Sold;\n    }\n\n    _trade(\n      _listingId,\n      TokenTrade(\n        listing.seller,\n        msg.sender,\n        listing.token,\n        listing.tokenId,\n        quantity,\n        listing.currency,\n        quantity * listing.price\n      ),\n      listing.fees\n    );\n  }\n\n  function get(uint256 listingId)\n    external\n    view\n    returns (Listing memory)\n  {\n    return _listings[listingId];\n  }\n\n  function listingHash(\n    address seller,\n    address token,\n    uint256 tokenId,\n    uint256 quantity,\n    address currency,\n    uint256 price,\n    Fees memory fees,\n    uint256 maxPerBuyer,\n    uint256 expiry,\n    uint256 nonce,\n    uint256 deadline\n  ) public view returns (bytes32) {\n    return\n      keccak256(\n        abi.encodePacked(\n          address(this),\n          seller,\n          token,\n          tokenId,\n          quantity,\n          currency,\n          price,\n          abi.encode(fees),\n          maxPerBuyer,\n          expiry,\n          nonce,\n          deadline\n        )\n      );\n  }\n\n  function listForSale(\n    address seller,\n    address token,\n    uint256 tokenId,\n    uint256 quantity,\n    address currency,\n    uint256 price,\n    Fees memory fees,\n    uint256 maxPerBuyer,\n    uint256 expiry,\n    Approval calldata approval\n  ) external whenNotPaused {\n    require(\n      quantity > 0,\n      \"Quantity needs to be at least one.\"\n    );\n\n    if (expiry > 0) {\n      require(\n        block.timestamp < expiry,\n        \"Expiry needs to be in the future.\"\n      );\n    }\n\n    _transfer(\n      seller,\n      address(this),\n      token,\n      tokenId,\n      quantity\n    );\n\n    if (approval.expiry <= block.timestamp) {\n      revert ApprovalExpired();\n    }\n\n    bytes32 listingHash_ = listingHash(\n      seller,\n      token,\n      tokenId,\n      quantity,\n      currency,\n      price,\n      fees,\n      maxPerBuyer,\n      expiry,\n      approval.nonce,\n      approval.expiry\n    );\n\n    if (_approvalsExhausted[listingHash_]) {\n      revert ApprovalExhausted();\n    }\n\n    address recoveredAddress = listingHash_\n      .toEthSignedMessageHash()\n      .recover(approval.signature);\n\n    if (\n      recoveredAddress == address(0) ||\n      !hasRole(ADMIN_ROLE, recoveredAddress)\n    ) {\n      revert InvalidSignature();\n    }\n\n    _approvalsExhausted[listingHash_] = true;\n\n    _listingId++;\n\n    _listings[_listingId] = Listing(\n      _listingId,\n      seller,\n      token,\n      tokenId,\n      quantity,\n      currency,\n      price,\n      fees,\n      quantity,\n      maxPerBuyer,\n      expiry,\n      ListingStatus.Active\n    );\n\n    emit ListToken(\n      _listingId,\n      seller,\n      token,\n      tokenId,\n      quantity,\n      currency,\n      price,\n      maxPerBuyer,\n      expiry\n    );\n  }\n\n  function cancel(uint256 listingId)\n    external\n    whenNotPaused\n  {\n    Listing storage listing = _listings[listingId];\n\n    if (listing.status != ListingStatus.Active) {\n      revert ListingInactive({ id: listingId });\n    }\n\n    if (\n      msg.sender != listing.seller &&\n      !hasRole(ADMIN_ROLE, msg.sender)\n    ) {\n      revert Unauthorized();\n    }\n\n    listing.status = ListingStatus.Cancelled;\n\n    _transfer(\n      address(this),\n      listing.seller,\n      listing.token,\n      listing.tokenId,\n      listing.available\n    );\n\n    emit Cancel(\n      listingId,\n      msg.sender,\n      listing.token,\n      listing.tokenId,\n      listing.available\n    );\n  }\n}\n",
  "sourcePath": "/Users/husnain/Desktop/other/fest/packages/ethereum/contracts/solidity/contracts/market/ListingMarketV1.sol",
  "compiler": {
    "name": "solc",
    "version": "0.8.14+commit.80d49f37.Emscripten.clang"
  },
  "schemaVersion": "3.4.4",
  "updatedAt": "2022-06-04T17:26:29.140Z",
  "networkType": "ethereum",
  "devdoc": {
    "kind": "dev",
    "methods": {
      "balance(address,address)": {
        "params": {
          "currency": "ERC20 token address in which the balance has been earned.",
          "owner": "Wallet address to enquire about."
        },
        "returns": {
          "_0": "_ ERC20 amount available."
        }
      },
      "getRoleAdmin(bytes32)": {
        "details": "Returns the admin role that controls `role`. See {grantRole} and {revokeRole}. To change a role's admin, use {_setRoleAdmin}."
      },
      "grantRole(bytes32,address)": {
        "details": "Grants `role` to `account`. If `account` had not been already granted `role`, emits a {RoleGranted} event. Requirements: - the caller must have ``role``'s admin role."
      },
      "hasRole(bytes32,address)": {
        "details": "Returns `true` if `account` has been granted `role`."
      },
      "onERC721Received(address,address,uint256,bytes)": {
        "details": "See {IERC721Receiver-onERC721Received}. Always returns `IERC721Receiver.onERC721Received.selector`."
      },
      "paused()": {
        "details": "Returns true if the contract is paused, and false otherwise."
      },
      "renounceRole(bytes32,address)": {
        "details": "Revokes `role` from the calling account. Roles are often managed via {grantRole} and {revokeRole}: this function's purpose is to provide a mechanism for accounts to lose their privileges if they are compromised (such as when a trusted device is misplaced). If the calling account had been revoked `role`, emits a {RoleRevoked} event. Requirements: - the caller must be `account`."
      },
      "revokeRole(bytes32,address)": {
        "details": "Revokes `role` from `account`. If `account` had been granted `role`, emits a {RoleRevoked} event. Requirements: - the caller must have ``role``'s admin role."
      },
      "setFeeBeneficiary(address)": {
        "params": {
          "beneficiary": "Receiving wallet address."
        }
      },
      "setPaused(bool)": {
        "params": {
          "paused": "Boolean indicating whether to pause/unpause."
        }
      },
      "withdraw(address,uint256)": {
        "params": {
          "amount": "Amount to withdraw.",
          "currency": "Address of the ERC20 token earned."
        }
      }
    },
    "version": 1
  },
  "userdoc": {
    "kind": "user",
    "methods": {
      "balance(address,address)": {
        "notice": "Get the earned amount in a given currency."
      },
      "setFeeBeneficiary(address)": {
        "notice": "Set the recipient of market fees."
      },
      "setPaused(bool)": {
        "notice": "Set whether certain transactions can be executed."
      },
      "withdraw(address,uint256)": {
        "notice": "Withdraw own market earnings."
      }
    },
    "version": 1
  }
}