{
  "contractName": "MarketV1",
  "abi": [
    {
      "inputs": [
        {
          "internalType": "contract MarketWalletV1",
          "name": "wallet",
          "type": "address"
        }
      ],
      "stateMutability": "nonpayable",
      "type": "constructor"
    },
    {
      "anonymous": false,
      "inputs": [
        {
          "indexed": false,
          "internalType": "uint256",
          "name": "listingId",
          "type": "uint256"
        },
        {
          "indexed": false,
          "internalType": "address",
          "name": "operator",
          "type": "address"
        },
        {
          "indexed": false,
          "internalType": "address",
          "name": "tokenContract",
          "type": "address"
        },
        {
          "indexed": false,
          "internalType": "uint256",
          "name": "tokenId",
          "type": "uint256"
        },
        {
          "indexed": false,
          "internalType": "uint256",
          "name": "returned",
          "type": "uint256"
        }
      ],
      "name": "CancelListing",
      "type": "event"
    },
    {
      "anonymous": false,
      "inputs": [
        {
          "indexed": false,
          "internalType": "uint256",
          "name": "listingId",
          "type": "uint256"
        },
        {
          "indexed": false,
          "internalType": "address",
          "name": "seller",
          "type": "address"
        },
        {
          "indexed": false,
          "internalType": "address",
          "name": "tokenContract",
          "type": "address"
        },
        {
          "indexed": false,
          "internalType": "uint256",
          "name": "tokenId",
          "type": "uint256"
        },
        {
          "indexed": false,
          "internalType": "uint256",
          "name": "quantity",
          "type": "uint256"
        },
        {
          "indexed": false,
          "internalType": "address",
          "name": "currency",
          "type": "address"
        },
        {
          "indexed": false,
          "internalType": "uint256",
          "name": "price",
          "type": "uint256"
        },
        {
          "indexed": false,
          "internalType": "uint256",
          "name": "maxPurchasable",
          "type": "uint256"
        }
      ],
      "name": "ListForSale",
      "type": "event"
    },
    {
      "anonymous": false,
      "inputs": [
        {
          "indexed": true,
          "internalType": "bytes32",
          "name": "role",
          "type": "bytes32"
        },
        {
          "indexed": true,
          "internalType": "bytes32",
          "name": "previousAdminRole",
          "type": "bytes32"
        },
        {
          "indexed": true,
          "internalType": "bytes32",
          "name": "newAdminRole",
          "type": "bytes32"
        }
      ],
      "name": "RoleAdminChanged",
      "type": "event"
    },
    {
      "anonymous": false,
      "inputs": [
        {
          "indexed": true,
          "internalType": "bytes32",
          "name": "role",
          "type": "bytes32"
        },
        {
          "indexed": true,
          "internalType": "address",
          "name": "account",
          "type": "address"
        },
        {
          "indexed": true,
          "internalType": "address",
          "name": "sender",
          "type": "address"
        }
      ],
      "name": "RoleGranted",
      "type": "event"
    },
    {
      "anonymous": false,
      "inputs": [
        {
          "indexed": true,
          "internalType": "bytes32",
          "name": "role",
          "type": "bytes32"
        },
        {
          "indexed": true,
          "internalType": "address",
          "name": "account",
          "type": "address"
        },
        {
          "indexed": true,
          "internalType": "address",
          "name": "sender",
          "type": "address"
        }
      ],
      "name": "RoleRevoked",
      "type": "event"
    },
    {
      "anonymous": false,
      "inputs": [
        {
          "indexed": false,
          "internalType": "address",
          "name": "token",
          "type": "address"
        },
        {
          "indexed": false,
          "internalType": "uint256",
          "name": "tokenId",
          "type": "uint256"
        },
        {
          "indexed": false,
          "internalType": "address",
          "name": "beneficiary",
          "type": "address"
        },
        {
          "indexed": false,
          "internalType": "address",
          "name": "currency",
          "type": "address"
        },
        {
          "indexed": false,
          "internalType": "uint256",
          "name": "amount",
          "type": "uint256"
        }
      ],
      "name": "RoyaltyPayment",
      "type": "event"
    },
    {
      "anonymous": false,
      "inputs": [
        {
          "indexed": false,
          "internalType": "uint256",
          "name": "listingId",
          "type": "uint256"
        },
        {
          "indexed": false,
          "internalType": "address",
          "name": "buyer",
          "type": "address"
        },
        {
          "indexed": false,
          "internalType": "address",
          "name": "seller",
          "type": "address"
        },
        {
          "indexed": false,
          "internalType": "uint256",
          "name": "quantity",
          "type": "uint256"
        },
        {
          "indexed": false,
          "internalType": "address",
          "name": "currency",
          "type": "address"
        },
        {
          "indexed": false,
          "internalType": "uint256",
          "name": "price",
          "type": "uint256"
        }
      ],
      "name": "Trade",
      "type": "event"
    },
    {
      "inputs": [],
      "name": "ADMIN_ROLE",
      "outputs": [
        {
          "internalType": "bytes32",
          "name": "",
          "type": "bytes32"
        }
      ],
      "stateMutability": "view",
      "type": "function"
    },
    {
      "inputs": [],
      "name": "DEFAULT_ADMIN_ROLE",
      "outputs": [
        {
          "internalType": "bytes32",
          "name": "",
          "type": "bytes32"
        }
      ],
      "stateMutability": "view",
      "type": "function"
    },
    {
      "inputs": [
        {
          "internalType": "uint256",
          "name": "",
          "type": "uint256"
        },
        {
          "internalType": "address",
          "name": "",
          "type": "address"
        }
      ],
      "name": "_listingPurchasesForBuyer",
      "outputs": [
        {
          "internalType": "uint256",
          "name": "",
          "type": "uint256"
        }
      ],
      "stateMutability": "view",
      "type": "function"
    },
    {
      "inputs": [],
      "name": "buyerFeePct",
      "outputs": [
        {
          "internalType": "uint256",
          "name": "",
          "type": "uint256"
        }
      ],
      "stateMutability": "view",
      "type": "function"
    },
    {
      "inputs": [
        {
          "internalType": "bytes32",
          "name": "role",
          "type": "bytes32"
        }
      ],
      "name": "getRoleAdmin",
      "outputs": [
        {
          "internalType": "bytes32",
          "name": "",
          "type": "bytes32"
        }
      ],
      "stateMutability": "view",
      "type": "function"
    },
    {
      "inputs": [
        {
          "internalType": "bytes32",
          "name": "role",
          "type": "bytes32"
        },
        {
          "internalType": "address",
          "name": "account",
          "type": "address"
        }
      ],
      "name": "grantRole",
      "outputs": [],
      "stateMutability": "nonpayable",
      "type": "function"
    },
    {
      "inputs": [
        {
          "internalType": "bytes32",
          "name": "role",
          "type": "bytes32"
        },
        {
          "internalType": "address",
          "name": "account",
          "type": "address"
        }
      ],
      "name": "hasRole",
      "outputs": [
        {
          "internalType": "bool",
          "name": "",
          "type": "bool"
        }
      ],
      "stateMutability": "view",
      "type": "function"
    },
    {
      "inputs": [],
      "name": "hundredPct",
      "outputs": [
        {
          "internalType": "uint256",
          "name": "",
          "type": "uint256"
        }
      ],
      "stateMutability": "view",
      "type": "function"
    },
    {
      "inputs": [],
      "name": "maxListingQuantity",
      "outputs": [
        {
          "internalType": "uint256",
          "name": "",
          "type": "uint256"
        }
      ],
      "stateMutability": "view",
      "type": "function"
    },
    {
      "inputs": [],
      "name": "maxTokenPrice",
      "outputs": [
        {
          "internalType": "uint256",
          "name": "",
          "type": "uint256"
        }
      ],
      "stateMutability": "view",
      "type": "function"
    },
    {
      "inputs": [],
      "name": "minTokenPrice",
      "outputs": [
        {
          "internalType": "uint256",
          "name": "",
          "type": "uint256"
        }
      ],
      "stateMutability": "view",
      "type": "function"
    },
    {
      "inputs": [
        {
          "internalType": "bytes32",
          "name": "role",
          "type": "bytes32"
        },
        {
          "internalType": "address",
          "name": "account",
          "type": "address"
        }
      ],
      "name": "renounceRole",
      "outputs": [],
      "stateMutability": "nonpayable",
      "type": "function"
    },
    {
      "inputs": [
        {
          "internalType": "bytes32",
          "name": "role",
          "type": "bytes32"
        },
        {
          "internalType": "address",
          "name": "account",
          "type": "address"
        }
      ],
      "name": "revokeRole",
      "outputs": [],
      "stateMutability": "nonpayable",
      "type": "function"
    },
    {
      "inputs": [],
      "name": "sellerFeePct",
      "outputs": [
        {
          "internalType": "uint256",
          "name": "",
          "type": "uint256"
        }
      ],
      "stateMutability": "view",
      "type": "function"
    },
    {
      "inputs": [
        {
          "internalType": "bytes4",
          "name": "interfaceID",
          "type": "bytes4"
        }
      ],
      "name": "supportsInterface",
      "outputs": [
        {
          "internalType": "bool",
          "name": "",
          "type": "bool"
        }
      ],
      "stateMutability": "view",
      "type": "function"
    },
    {
      "inputs": [
        {
          "internalType": "uint256",
          "name": "listingId",
          "type": "uint256"
        }
      ],
      "name": "get",
      "outputs": [
        {
          "components": [
            {
              "internalType": "uint256",
              "name": "id",
              "type": "uint256"
            },
            {
              "internalType": "address",
              "name": "seller",
              "type": "address"
            },
            {
              "internalType": "address",
              "name": "token",
              "type": "address"
            },
            {
              "internalType": "uint256",
              "name": "tokenId",
              "type": "uint256"
            },
            {
              "internalType": "uint256",
              "name": "quantity",
              "type": "uint256"
            },
            {
              "internalType": "uint256",
              "name": "available",
              "type": "uint256"
            },
            {
              "internalType": "address",
              "name": "currency",
              "type": "address"
            },
            {
              "internalType": "uint256",
              "name": "price",
              "type": "uint256"
            },
            {
              "internalType": "uint256",
              "name": "maxPurchasable",
              "type": "uint256"
            },
            {
              "internalType": "enum ListingStatus",
              "name": "status",
              "type": "uint8"
            }
          ],
          "internalType": "struct Listing",
          "name": "",
          "type": "tuple"
        }
      ],
      "stateMutability": "view",
      "type": "function"
    },
    {
      "inputs": [
        {
          "internalType": "uint256",
          "name": "listingId",
          "type": "uint256"
        },
        {
          "internalType": "uint256",
          "name": "quantity",
          "type": "uint256"
        }
      ],
      "name": "buy",
      "outputs": [],
      "stateMutability": "nonpayable",
      "type": "function"
    },
    {
      "inputs": [
        {
          "internalType": "address",
          "name": "seller",
          "type": "address"
        },
        {
          "internalType": "address",
          "name": "token",
          "type": "address"
        },
        {
          "internalType": "uint256",
          "name": "tokenId",
          "type": "uint256"
        },
        {
          "internalType": "uint256",
          "name": "quantity",
          "type": "uint256"
        },
        {
          "internalType": "address",
          "name": "currency",
          "type": "address"
        },
        {
          "internalType": "uint256",
          "name": "price",
          "type": "uint256"
        },
        {
          "internalType": "uint256",
          "name": "expiry",
          "type": "uint256"
        },
        {
          "internalType": "uint256",
          "name": "salt",
          "type": "uint256"
        }
      ],
      "name": "getSaleAuthorizationHash",
      "outputs": [
        {
          "internalType": "bytes32",
          "name": "",
          "type": "bytes32"
        }
      ],
      "stateMutability": "view",
      "type": "function"
    },
    {
      "inputs": [
        {
          "internalType": "address",
          "name": "seller",
          "type": "address"
        },
        {
          "internalType": "address",
          "name": "token",
          "type": "address"
        },
        {
          "internalType": "uint256",
          "name": "tokenId",
          "type": "uint256"
        },
        {
          "internalType": "uint256",
          "name": "quantity",
          "type": "uint256"
        },
        {
          "internalType": "address",
          "name": "currency",
          "type": "address"
        },
        {
          "internalType": "uint256",
          "name": "price",
          "type": "uint256"
        },
        {
          "internalType": "uint256",
          "name": "maxPurchasable",
          "type": "uint256"
        },
        {
          "internalType": "uint256",
          "name": "expiry",
          "type": "uint256"
        },
        {
          "internalType": "uint256",
          "name": "salt",
          "type": "uint256"
        },
        {
          "internalType": "bytes",
          "name": "signature",
          "type": "bytes"
        }
      ],
      "name": "listForSale",
      "outputs": [],
      "stateMutability": "nonpayable",
      "type": "function"
    },
    {
      "inputs": [
        {
          "internalType": "uint256",
          "name": "listingId",
          "type": "uint256"
        }
      ],
      "name": "cancel",
      "outputs": [],
      "stateMutability": "nonpayable",
      "type": "function"
    },
    {
      "inputs": [
        {
          "internalType": "address",
          "name": "currency",
          "type": "address"
        },
        {
          "internalType": "address",
          "name": "account",
          "type": "address"
        }
      ],
      "name": "getBalance",
      "outputs": [
        {
          "internalType": "uint256",
          "name": "",
          "type": "uint256"
        }
      ],
      "stateMutability": "view",
      "type": "function"
    },
    {
      "inputs": [
        {
          "internalType": "address",
          "name": "currency",
          "type": "address"
        },
        {
          "internalType": "uint256",
          "name": "amount",
          "type": "uint256"
        }
      ],
      "name": "withdraw",
      "outputs": [],
      "stateMutability": "nonpayable",
      "type": "function"
    },
    {
      "inputs": [
        {
          "internalType": "uint256",
          "name": "listingId",
          "type": "uint256"
        },
        {
          "internalType": "address",
          "name": "buyer",
          "type": "address"
        }
      ],
      "name": "listingPurchasesForBuyer",
      "outputs": [
        {
          "internalType": "uint256",
          "name": "",
          "type": "uint256"
        }
      ],
      "stateMutability": "view",
      "type": "function"
    },
    {
      "inputs": [
        {
          "internalType": "address",
          "name": "token",
          "type": "address"
        }
      ],
      "name": "isTokenApproved",
      "outputs": [
        {
          "internalType": "bool",
          "name": "",
          "type": "bool"
        }
      ],
      "stateMutability": "view",
      "type": "function"
    },
    {
      "inputs": [
        {
          "internalType": "address",
          "name": "currency",
          "type": "address"
        }
      ],
      "name": "isCurrencyApproved",
      "outputs": [
        {
          "internalType": "bool",
          "name": "",
          "type": "bool"
        }
      ],
      "stateMutability": "view",
      "type": "function"
    },
    {
      "inputs": [
        {
          "internalType": "address[]",
          "name": "tokens",
          "type": "address[]"
        },
        {
          "internalType": "bool",
          "name": "isApproved",
          "type": "bool"
        }
      ],
      "name": "setTokensApproval",
      "outputs": [],
      "stateMutability": "nonpayable",
      "type": "function"
    },
    {
      "inputs": [
        {
          "internalType": "address[]",
          "name": "currencies",
          "type": "address[]"
        },
        {
          "internalType": "bool",
          "name": "isApproved",
          "type": "bool"
        }
      ],
      "name": "setCurrenciesApproval",
      "outputs": [],
      "stateMutability": "nonpayable",
      "type": "function"
    },
    {
      "inputs": [
        {
          "internalType": "uint256",
          "name": "price",
          "type": "uint256"
        }
      ],
      "name": "setMaxTokenPriceEther",
      "outputs": [],
      "stateMutability": "nonpayable",
      "type": "function"
    },
    {
      "inputs": [
        {
          "internalType": "uint256",
          "name": "price",
          "type": "uint256"
        }
      ],
      "name": "setMaxTokenPriceWei",
      "outputs": [],
      "stateMutability": "nonpayable",
      "type": "function"
    },
    {
      "inputs": [
        {
          "internalType": "uint256",
          "name": "quantity",
          "type": "uint256"
        }
      ],
      "name": "setMaxListingQuantity",
      "outputs": [],
      "stateMutability": "nonpayable",
      "type": "function"
    },
    {
      "inputs": [
        {
          "internalType": "uint256",
          "name": "pct",
          "type": "uint256"
        }
      ],
      "name": "setBuyerFeePct",
      "outputs": [],
      "stateMutability": "nonpayable",
      "type": "function"
    },
    {
      "inputs": [
        {
          "internalType": "uint256",
          "name": "pct",
          "type": "uint256"
        }
      ],
      "name": "setSellerFeePct",
      "outputs": [],
      "stateMutability": "nonpayable",
      "type": "function"
    },
    {
      "inputs": [
        {
          "internalType": "address",
          "name": "beneficiary",
          "type": "address"
        }
      ],
      "name": "setFeeBeneficiary",
      "outputs": [],
      "stateMutability": "nonpayable",
      "type": "function"
    }
  ],
  "bytecode": "0x6080604052611388600155611388600255620186a0600355620f424060045560035460055569d3c21bcecceda100000060065560006009553480156200004457600080fd5b506040516200565b3803806200565b83398181016040528101906200006a9190620003e8565b6200007f6000801b336200016f60201b60201c565b620000b17fa49807205ce4d355092ef5a8a18f56e8913cf4a201fbe287825b095693c21775336200016f60201b60201c565b620000e67fa49807205ce4d355092ef5a8a18f56e8913cf4a201fbe287825b095693c217756000801b6200018560201b60201c565b33600860006101000a81548173ffffffffffffffffffffffffffffffffffffffff021916908373ffffffffffffffffffffffffffffffffffffffff16021790555080600760006101000a81548173ffffffffffffffffffffffffffffffffffffffff021916908373ffffffffffffffffffffffffffffffffffffffff160217905550506200041a565b620001818282620001e860201b60201c565b5050565b60006200019883620002d960201b60201c565b905081600080858152602001908152602001600020600101819055508181847fbd79b86ffe0ab8e8776151514217cd7cacd52c909f66475c3af44e129f0b00ff60405160405180910390a4505050565b620001fa8282620002f860201b60201c565b620002d557600160008084815260200190815260200160002060000160008373ffffffffffffffffffffffffffffffffffffffff1673ffffffffffffffffffffffffffffffffffffffff16815260200190815260200160002060006101000a81548160ff0219169083151502179055506200027a6200036260201b60201c565b73ffffffffffffffffffffffffffffffffffffffff168173ffffffffffffffffffffffffffffffffffffffff16837f2f8788117e7eff1d82e926ec794901d17c78024a50270940304540a733656f0d60405160405180910390a45b5050565b6000806000838152602001908152602001600020600101549050919050565b600080600084815260200190815260200160002060000160008373ffffffffffffffffffffffffffffffffffffffff1673ffffffffffffffffffffffffffffffffffffffff16815260200190815260200160002060009054906101000a900460ff16905092915050565b600033905090565b600080fd5b600073ffffffffffffffffffffffffffffffffffffffff82169050919050565b60006200039c826200036f565b9050919050565b6000620003b0826200038f565b9050919050565b620003c281620003a3565b8114620003ce57600080fd5b50565b600081519050620003e281620003b7565b92915050565b6000602082840312156200040157620004006200036a565b5b60006200041184828501620003d1565b91505092915050565b615231806200042a6000396000f3fe608060405234801561001057600080fd5b50600436106101fb5760003560e01c806391d148541161011a578063d1177945116100ad578063d547741f1161007c578063d547741f146105e8578063d6febde814610604578063e45ad64a14610620578063f3fef3a31461063c578063fd1fc13e14610658576101fb565b8063d117794514610560578063d3d74af71461057c578063d428dc2b1461059a578063d4fac45d146105b8576101fb565b80639f609f44116100e95780639f609f44146104da578063a217fddf1461050a578063bca9981914610528578063c661b89d14610544576101fb565b806391d148541461042e57806391f819ac1461045e5780639507d39a1461047a5780639d93d352146104aa576101fb565b80635dabb20e1161019257806377e5c4a81161016157806377e5c4a8146103925780638662732e146103b05780638ab2394b146103e05780638ce5ab6a14610410576101fb565b80635dabb20e1461031e5780637167675a1461033c57806371f895981461035857806375b238fc14610374576101fb565b80632f2ff15d116101ce5780632f2ff15d146102ae57806336568abe146102ca57806340e58ee5146102e65780635a0a3d8214610302576101fb565b806301ffc9a7146102005780630d7b1acc14610230578063248a9ca3146102605780632b483c0314610290575b600080fd5b61021a60048036038101906102159190613337565b610674565b604051610227919061337f565b60405180910390f35b61024a600480360381019061024591906133f8565b610686565b604051610257919061337f565b60405180910390f35b61027a6004803603810190610275919061345b565b6106dc565b6040516102879190613497565b60405180910390f35b6102986106fb565b6040516102a591906134cb565b60405180910390f35b6102c860048036038101906102c391906134e6565b610701565b005b6102e460048036038101906102df91906134e6565b61072a565b005b61030060048036038101906102fb9190613552565b6107ad565b005b61031c600480360381019061031791906133f8565b610b89565b005b610326610be3565b60405161033391906134cb565b60405180910390f35b61035660048036038101906103519190613610565b610be9565b005b610372600480360381019061036d9190613552565b610cc1565b005b61037c610cfe565b6040516103899190613497565b60405180910390f35b61039a610d22565b6040516103a791906134cb565b60405180910390f35b6103ca60048036038101906103c59190613670565b610d28565b6040516103d79190613497565b60405180910390f35b6103fa60048036038101906103f59190613726565b610d6f565b60405161040791906134cb565b60405180910390f35b610418610d94565b60405161042591906134cb565b60405180910390f35b610448600480360381019061044391906134e6565b610d9a565b604051610455919061337f565b60405180910390f35b610478600480360381019061047391906137bc565b610e04565b005b610494600480360381019061048f9190613552565b6115a4565b6040516104a19190613a1d565b60405180910390f35b6104c460048036038101906104bf91906133f8565b61174b565b6040516104d1919061337f565b60405180910390f35b6104f460048036038101906104ef9190613726565b6117a1565b60405161050191906134cb565b60405180910390f35b6105126117fc565b60405161051f9190613497565b60405180910390f35b610542600480360381019061053d9190613552565b611803565b005b61055e60048036038101906105599190613552565b611853565b005b61057a60048036038101906105759190613610565b6118d5565b005b6105846119ad565b60405161059191906134cb565b60405180910390f35b6105a26119b3565b6040516105af91906134cb565b60405180910390f35b6105d260048036038101906105cd9190613a39565b6119b9565b6040516105df91906134cb565b60405180910390f35b61060260048036038101906105fd91906134e6565b611a40565b005b61061e60048036038101906106199190613a79565b611a69565b005b61063a60048036038101906106359190613552565b6120fd565b005b61065660048036038101906106519190613ab9565b61217f565b005b610672600480360381019061066d9190613552565b612354565b005b600061067f82612391565b9050919050565b6000600d60008373ffffffffffffffffffffffffffffffffffffffff1673ffffffffffffffffffffffffffffffffffffffff16815260200190815260200160002060009054906101000a900460ff169050919050565b6000806000838152602001908152602001600020600101549050919050565b60025481565b61070a826106dc565b61071b8161071661240b565b612413565b61072583836124b0565b505050565b61073261240b565b73ffffffffffffffffffffffffffffffffffffffff168173ffffffffffffffffffffffffffffffffffffffff161461079f576040517f08c379a000000000000000000000000000000000000000000000000000000000815260040161079690613b7c565b60405180910390fd5b6107a98282612590565b5050565b6000600a600083815260200190815260200160002060405180610140016040529081600082015481526020016001820160009054906101000a900473ffffffffffffffffffffffffffffffffffffffff1673ffffffffffffffffffffffffffffffffffffffff1673ffffffffffffffffffffffffffffffffffffffff1681526020016002820160009054906101000a900473ffffffffffffffffffffffffffffffffffffffff1673ffffffffffffffffffffffffffffffffffffffff1673ffffffffffffffffffffffffffffffffffffffff1681526020016003820154815260200160048201548152602001600582015481526020016006820160009054906101000a900473ffffffffffffffffffffffffffffffffffffffff1673ffffffffffffffffffffffffffffffffffffffff1673ffffffffffffffffffffffffffffffffffffffff16815260200160078201548152602001600882015481526020016009820160009054906101000a900460ff166002811115610931576109306138da565b5b6002811115610943576109426138da565b5b8152505090506000600281111561095d5761095c6138da565b5b8161012001516002811115610975576109746138da565b5b146109b5576040517f08c379a00000000000000000000000000000000000000000000000000000000081526004016109ac90613c0e565b60405180910390fd5b806020015173ffffffffffffffffffffffffffffffffffffffff163373ffffffffffffffffffffffffffffffffffffffff161480610a195750610a187fa49807205ce4d355092ef5a8a18f56e8913cf4a201fbe287825b095693c2177533610d9a565b5b610a58576040517f08c379a0000000000000000000000000000000000000000000000000000000008152600401610a4f90613ca0565b60405180910390fd5b6002600a600084815260200190815260200160002060090160006101000a81548160ff02191690836002811115610a9257610a916138da565b5b0217905550600760009054906101000a900473ffffffffffffffffffffffffffffffffffffffff1673ffffffffffffffffffffffffffffffffffffffff16632ed7bae88260400151836020015184606001518560a001516040518563ffffffff1660e01b8152600401610b089493929190613ccf565b600060405180830381600087803b158015610b2257600080fd5b505af1158015610b36573d6000803e3d6000fd5b505050507f63e19a11045d43fb73999819f643b1db1182b457b8dff3c511f232d71abbe6398233836040015184606001518560a00151604051610b7d959493929190613d14565b60405180910390a15050565b6000801b610b9e81610b9961240b565b612413565b81600860006101000a81548173ffffffffffffffffffffffffffffffffffffffff021916908373ffffffffffffffffffffffffffffffffffffffff1602179055505050565b60055481565b7fa49807205ce4d355092ef5a8a18f56e8913cf4a201fbe287825b095693c21775610c1b81610c1661240b565b612413565b60005b84849050811015610cba5782600c6000878785818110610c4157610c40613d67565b5b9050602002016020810190610c5691906133f8565b73ffffffffffffffffffffffffffffffffffffffff1673ffffffffffffffffffffffffffffffffffffffff16815260200190815260200160002060006101000a81548160ff0219169083151502179055508080610cb290613dc5565b915050610c1e565b5050505050565b7fa49807205ce4d355092ef5a8a18f56e8913cf4a201fbe287825b095693c21775610cf381610cee61240b565b612413565b816004819055505050565b7fa49807205ce4d355092ef5a8a18f56e8913cf4a201fbe287825b095693c2177581565b60065481565b6000308989898989898989604051602001610d4b99989796959493929190613e77565b60405160208183030381529060405280519060200120905098975050505050505050565b600b602052816000526040600020602052806000526040600020600091509150505481565b60015481565b600080600084815260200190815260200160002060000160008373ffffffffffffffffffffffffffffffffffffffff1673ffffffffffffffffffffffffffffffffffffffff16815260200190815260200160002060009054906101000a900460ff16905092915050565b600554861015610e49576040517f08c379a0000000000000000000000000000000000000000000000000000000008152600401610e4090613f66565b60405180910390fd5b600654861115610e8e576040517f08c379a0000000000000000000000000000000000000000000000000000000008152600401610e8590613fd2565b60405180910390fd5b600454881115610ed3576040517f08c379a0000000000000000000000000000000000000000000000000000000008152600401610eca9061403e565b60405180910390fd5b600c60008b73ffffffffffffffffffffffffffffffffffffffff1673ffffffffffffffffffffffffffffffffffffffff16815260200190815260200160002060009054906101000a900460ff16610f5f576040517f08c379a0000000000000000000000000000000000000000000000000000000008152600401610f56906140aa565b60405180910390fd5b600d60008873ffffffffffffffffffffffffffffffffffffffff1673ffffffffffffffffffffffffffffffffffffffff16815260200190815260200160002060009054906101000a900460ff16610feb576040517f08c379a0000000000000000000000000000000000000000000000000000000008152600401610fe290614116565b60405180910390fd5b6110157fa49807205ce4d355092ef5a8a18f56e8913cf4a201fbe287825b095693c2177533610d9a565b6112045742841161105b576040517f08c379a000000000000000000000000000000000000000000000000000000000815260040161105290614182565b60405180910390fd5b600061106d8c8c8c8c8c8c8b8b610d28565b9050600e600082815260200190815260200160002060009054906101000a900460ff16156110d0576040517f08c379a00000000000000000000000000000000000000000000000000000000081526004016110c7906141ee565b60405180910390fd5b600061113184848080601f016020809104026020016040519081016040528093929190818152602001838380828437600081840152601f19601f8201169050808301925050505050505061112384612671565b6126a190919063ffffffff16565b9050600073ffffffffffffffffffffffffffffffffffffffff168173ffffffffffffffffffffffffffffffffffffffff161415801561119657506111957fa49807205ce4d355092ef5a8a18f56e8913cf4a201fbe287825b095693c2177582610d9a565b5b6111d5576040517f08c379a00000000000000000000000000000000000000000000000000000000081526004016111cc9061425a565b60405180910390fd5b6001600e600084815260200190815260200160002060006101000a81548160ff02191690831515021790555050505b8973ffffffffffffffffffffffffffffffffffffffff166301ffc9a77fd9b67a26000000000000000000000000000000000000000000000000000000006040518263ffffffff1660e01b815260040161125d9190614289565b602060405180830381865afa15801561127a573d6000803e3d6000fd5b505050506040513d601f19601f8201168201806040525081019061129e91906142b9565b6112a757600197505b600760009054906101000a900473ffffffffffffffffffffffffffffffffffffffff1673ffffffffffffffffffffffffffffffffffffffff166340fd58298b8d8c8c6040518563ffffffff1660e01b81526004016113089493929190613ccf565b600060405180830381600087803b15801561132257600080fd5b505af1158015611336573d6000803e3d6000fd5b505050506009600081548092919061134d90613dc5565b9190505550600060405180610140016040528060095481526020018d73ffffffffffffffffffffffffffffffffffffffff1681526020018c73ffffffffffffffffffffffffffffffffffffffff1681526020018b81526020018a81526020018a81526020018973ffffffffffffffffffffffffffffffffffffffff168152602001888152602001878152602001600060028111156113ee576113ed6138da565b5b815250905080600a600060095481526020019081526020016000206000820151816000015560208201518160010160006101000a81548173ffffffffffffffffffffffffffffffffffffffff021916908373ffffffffffffffffffffffffffffffffffffffff16021790555060408201518160020160006101000a81548173ffffffffffffffffffffffffffffffffffffffff021916908373ffffffffffffffffffffffffffffffffffffffff160217905550606082015181600301556080820151816004015560a0820151816005015560c08201518160060160006101000a81548173ffffffffffffffffffffffffffffffffffffffff021916908373ffffffffffffffffffffffffffffffffffffffff16021790555060e0820151816007015561010082015181600801556101208201518160090160006101000a81548160ff02191690836002811115611547576115466138da565b5b02179055509050507ff990bc524ffa015122cb22a87b1094a1f44aed4b9f73630255fdab0f1c815e0a6009548d8d8d8d8d8d8d60405161158e9897969594939291906142e6565b60405180910390a1505050505050505050505050565b6115ac613224565b600a600083815260200190815260200160002060405180610140016040529081600082015481526020016001820160009054906101000a900473ffffffffffffffffffffffffffffffffffffffff1673ffffffffffffffffffffffffffffffffffffffff1673ffffffffffffffffffffffffffffffffffffffff1681526020016002820160009054906101000a900473ffffffffffffffffffffffffffffffffffffffff1673ffffffffffffffffffffffffffffffffffffffff1673ffffffffffffffffffffffffffffffffffffffff1681526020016003820154815260200160048201548152602001600582015481526020016006820160009054906101000a900473ffffffffffffffffffffffffffffffffffffffff1673ffffffffffffffffffffffffffffffffffffffff1673ffffffffffffffffffffffffffffffffffffffff16815260200160078201548152602001600882015481526020016009820160009054906101000a900460ff16600281111561172e5761172d6138da565b5b60028111156117405761173f6138da565b5b815250509050919050565b6000600c60008373ffffffffffffffffffffffffffffffffffffffff1673ffffffffffffffffffffffffffffffffffffffff16815260200190815260200160002060009054906101000a900460ff169050919050565b6000600b600084815260200190815260200160002060008373ffffffffffffffffffffffffffffffffffffffff1673ffffffffffffffffffffffffffffffffffffffff16815260200190815260200160002054905092915050565b6000801b81565b7fa49807205ce4d355092ef5a8a18f56e8913cf4a201fbe287825b095693c217756118358161183061240b565b612413565b670de0b6b3a7640000826118499190614364565b6006819055505050565b7fa49807205ce4d355092ef5a8a18f56e8913cf4a201fbe287825b095693c217756118858161188061240b565b612413565b6003548211156118ca576040517f08c379a00000000000000000000000000000000000000000000000000000000081526004016118c190614430565b60405180910390fd5b816002819055505050565b7fa49807205ce4d355092ef5a8a18f56e8913cf4a201fbe287825b095693c217756119078161190261240b565b612413565b60005b848490508110156119a65782600d600087878581811061192d5761192c613d67565b5b905060200201602081019061194291906133f8565b73ffffffffffffffffffffffffffffffffffffffff1673ffffffffffffffffffffffffffffffffffffffff16815260200190815260200160002060006101000a81548160ff021916908315150217905550808061199e90613dc5565b91505061190a565b5050505050565b60045481565b60035481565b6000600f60008373ffffffffffffffffffffffffffffffffffffffff1673ffffffffffffffffffffffffffffffffffffffff16815260200190815260200160002060008473ffffffffffffffffffffffffffffffffffffffff1673ffffffffffffffffffffffffffffffffffffffff16815260200190815260200160002054905092915050565b611a49826106dc565b611a5a81611a5561240b565b612413565b611a648383612590565b505050565b6000600a600084815260200190815260200160002060405180610140016040529081600082015481526020016001820160009054906101000a900473ffffffffffffffffffffffffffffffffffffffff1673ffffffffffffffffffffffffffffffffffffffff1673ffffffffffffffffffffffffffffffffffffffff1681526020016002820160009054906101000a900473ffffffffffffffffffffffffffffffffffffffff1673ffffffffffffffffffffffffffffffffffffffff1673ffffffffffffffffffffffffffffffffffffffff1681526020016003820154815260200160048201548152602001600582015481526020016006820160009054906101000a900473ffffffffffffffffffffffffffffffffffffffff1673ffffffffffffffffffffffffffffffffffffffff1673ffffffffffffffffffffffffffffffffffffffff16815260200160078201548152602001600882015481526020016009820160009054906101000a900460ff166002811115611bed57611bec6138da565b5b6002811115611bff57611bfe6138da565b5b81525050905060008161010001511115611cb75780610100015182600b600086815260200190815260200160002060003373ffffffffffffffffffffffffffffffffffffffff1673ffffffffffffffffffffffffffffffffffffffff16815260200190815260200160002054611c759190614450565b1115611cb6576040517f08c379a0000000000000000000000000000000000000000000000000000000008152600401611cad90614518565b60405180910390fd5b5b60006002811115611ccb57611cca6138da565b5b8161012001516002811115611ce357611ce26138da565b5b14611d23576040517f08c379a0000000000000000000000000000000000000000000000000000000008152600401611d1a90614584565b60405180910390fd5b8060a00151821115611d6a576040517f08c379a0000000000000000000000000000000000000000000000000000000008152600401611d61906145f0565b60405180910390fd5b806020015173ffffffffffffffffffffffffffffffffffffffff163373ffffffffffffffffffffffffffffffffffffffff161415611ddd576040517f08c379a0000000000000000000000000000000000000000000000000000000008152600401611dd49061465c565b60405180910390fd5b6000828260e00151611def9190614364565b905060008260c001519050600080611e06846126c8565b9150915060008373ffffffffffffffffffffffffffffffffffffffff1663dd62ed3e33306040518363ffffffff1660e01b8152600401611e4792919061467c565b602060405180830381865afa158015611e64573d6000803e3d6000fd5b505050506040513d601f19601f82011682018060405250810190611e8891906146ba565b90508185611e969190614450565b811015611ed8576040517f08c379a0000000000000000000000000000000000000000000000000000000008152600401611ecf90614733565b60405180910390fd5b8373ffffffffffffffffffffffffffffffffffffffff166323b872dd33308589611f029190614450565b6040518463ffffffff1660e01b8152600401611f2093929190614753565b6020604051808303816000875af1158015611f3f573d6000803e3d6000fd5b505050506040513d601f19601f82011682018060405250810190611f6391906142b9565b50611fc68660200151338860c001518860405180604001604052808881526020018981525060405180606001604052808d6040015173ffffffffffffffffffffffffffffffffffffffff1681526020018d6060015181526020018e81525061270a565b86600b60008a815260200190815260200160002060003373ffffffffffffffffffffffffffffffffffffffff1673ffffffffffffffffffffffffffffffffffffffff16815260200190815260200160002060008282546120269190614450565b925050819055506000878760a0015161203f919061478a565b905080600a60008b81526020019081526020016000206005018190555060008114156120a5576001600a60008b815260200190815260200160002060090160006101000a81548160ff0219169083600281111561209f5761209e6138da565b5b02179055505b7fec6fba8bd56190929e7252cf572c1ebd0f9e8211aaf75cfcf3736b7726f376ff893389602001518b8b60c001518c60e001516040516120ea969594939291906147be565b60405180910390a1505050505050505050565b7fa49807205ce4d355092ef5a8a18f56e8913cf4a201fbe287825b095693c2177561212f8161212a61240b565b612413565b600354821115612174576040517f08c379a000000000000000000000000000000000000000000000000000000000815260040161216b90614430565b60405180910390fd5b816001819055505050565b80600f60003373ffffffffffffffffffffffffffffffffffffffff1673ffffffffffffffffffffffffffffffffffffffff16815260200190815260200160002060008473ffffffffffffffffffffffffffffffffffffffff1673ffffffffffffffffffffffffffffffffffffffff16815260200190815260200160002054101561223e576040517f08c379a000000000000000000000000000000000000000000000000000000000815260040161223590614891565b60405180910390fd5b80600f60003373ffffffffffffffffffffffffffffffffffffffff1673ffffffffffffffffffffffffffffffffffffffff16815260200190815260200160002060008473ffffffffffffffffffffffffffffffffffffffff1673ffffffffffffffffffffffffffffffffffffffff16815260200190815260200160002060008282546122ca919061478a565b925050819055508173ffffffffffffffffffffffffffffffffffffffff1663a9059cbb33836040518363ffffffff1660e01b815260040161230c9291906148b1565b6020604051808303816000875af115801561232b573d6000803e3d6000fd5b505050506040513d601f19601f8201168201806040525081019061234f91906142b9565b505050565b7fa49807205ce4d355092ef5a8a18f56e8913cf4a201fbe287825b095693c217756123868161238161240b565b612413565b816006819055505050565b60007f7965db0b000000000000000000000000000000000000000000000000000000007bffffffffffffffffffffffffffffffffffffffffffffffffffffffff1916827bffffffffffffffffffffffffffffffffffffffffffffffffffffffff191614806124045750612403826127e0565b5b9050919050565b600033905090565b61241d8282610d9a565b6124ac576124428173ffffffffffffffffffffffffffffffffffffffff16601461284a565b6124508360001c602061284a565b6040516020016124619291906149ec565b6040516020818303038152906040526040517f08c379a00000000000000000000000000000000000000000000000000000000081526004016124a39190614a70565b60405180910390fd5b5050565b6124ba8282610d9a565b61258c57600160008084815260200190815260200160002060000160008373ffffffffffffffffffffffffffffffffffffffff1673ffffffffffffffffffffffffffffffffffffffff16815260200190815260200160002060006101000a81548160ff02191690831515021790555061253161240b565b73ffffffffffffffffffffffffffffffffffffffff168173ffffffffffffffffffffffffffffffffffffffff16837f2f8788117e7eff1d82e926ec794901d17c78024a50270940304540a733656f0d60405160405180910390a45b5050565b61259a8282610d9a565b1561266d57600080600084815260200190815260200160002060000160008373ffffffffffffffffffffffffffffffffffffffff1673ffffffffffffffffffffffffffffffffffffffff16815260200190815260200160002060006101000a81548160ff02191690831515021790555061261261240b565b73ffffffffffffffffffffffffffffffffffffffff168173ffffffffffffffffffffffffffffffffffffffff16837ff6391f5c32d9c69d2a47ea670b442974b53935d1edc7fd64eb21e047a839171b60405160405180910390a45b5050565b6000816040516020016126849190614aff565b604051602081830303815290604052805190602001209050919050565b60008060006126b08585612a86565b915091506126bd81612b09565b819250505092915050565b600080600354600154846126dc9190614364565b6126e69190614b54565b9050600354600254846126f99190614364565b6127039190614b54565b9150915091565b600061272b8786868660200151876000015187600001518860200151612cde565b9050612738878683613031565b600760009054906101000a900473ffffffffffffffffffffffffffffffffffffffff1673ffffffffffffffffffffffffffffffffffffffff16632ed7bae8836000015188856020015186604001516040518563ffffffff1660e01b81526004016127a59493929190613ccf565b600060405180830381600087803b1580156127bf57600080fd5b505af11580156127d3573d6000803e3d6000fd5b5050505050505050505050565b60007f01ffc9a7000000000000000000000000000000000000000000000000000000007bffffffffffffffffffffffffffffffffffffffffffffffffffffffff1916827bffffffffffffffffffffffffffffffffffffffffffffffffffffffff1916149050919050565b60606000600283600261285d9190614364565b6128679190614450565b67ffffffffffffffff8111156128805761287f614b85565b5b6040519080825280601f01601f1916602001820160405280156128b25781602001600182028036833780820191505090505b5090507f3000000000000000000000000000000000000000000000000000000000000000816000815181106128ea576128e9613d67565b5b60200101907effffffffffffffffffffffffffffffffffffffffffffffffffffffffffffff1916908160001a9053507f78000000000000000000000000000000000000000000000000000000000000008160018151811061294e5761294d613d67565b5b60200101907effffffffffffffffffffffffffffffffffffffffffffffffffffffffffffff1916908160001a9053506000600184600261298e9190614364565b6129989190614450565b90505b6001811115612a38577f3031323334353637383961626364656600000000000000000000000000000000600f8616601081106129da576129d9613d67565b5b1a60f81b8282815181106129f1576129f0613d67565b5b60200101907effffffffffffffffffffffffffffffffffffffffffffffffffffffffffffff1916908160001a905350600485901c945080612a3190614bb4565b905061299b565b5060008414612a7c576040517f08c379a0000000000000000000000000000000000000000000000000000000008152600401612a7390614c2a565b60405180910390fd5b8091505092915050565b600080604183511415612ac85760008060006020860151925060408601519150606086015160001a9050612abc878285856130c9565b94509450505050612b02565b604083511415612af9576000806020850151915060408501519050612aee8683836131d6565b935093505050612b02565b60006002915091505b9250929050565b60006004811115612b1d57612b1c6138da565b5b816004811115612b3057612b2f6138da565b5b1415612b3b57612cdb565b60016004811115612b4f57612b4e6138da565b5b816004811115612b6257612b616138da565b5b1415612ba3576040517f08c379a0000000000000000000000000000000000000000000000000000000008152600401612b9a90614c96565b60405180910390fd5b60026004811115612bb757612bb66138da565b5b816004811115612bca57612bc96138da565b5b1415612c0b576040517f08c379a0000000000000000000000000000000000000000000000000000000008152600401612c0290614d02565b60405180910390fd5b60036004811115612c1f57612c1e6138da565b5b816004811115612c3257612c316138da565b5b1415612c73576040517f08c379a0000000000000000000000000000000000000000000000000000000008152600401612c6a90614d94565b60405180910390fd5b600480811115612c8657612c856138da565b5b816004811115612c9957612c986138da565b5b1415612cda576040517f08c379a0000000000000000000000000000000000000000000000000000000008152600401612cd190614e26565b60405180910390fd5b5b50565b600084861115612cf7578486612cf4919061478a565b95505b859050612d32600860009054906101000a900473ffffffffffffffffffffffffffffffffffffffff16888688612d2d9190614450565b613031565b8273ffffffffffffffffffffffffffffffffffffffff166301ffc9a763b779958460e01b6040518263ffffffff1660e01b8152600401612d729190614289565b602060405180830381865afa158015612d8f573d6000803e3d6000fd5b505050506040513d601f19601f82011682018060405250810190612db391906142b9565b612dbc57613026565b600083905060008173ffffffffffffffffffffffffffffffffffffffff1663b9c4d9fb856040518263ffffffff1660e01b8152600401612dfc91906134cb565b600060405180830381865afa158015612e19573d6000803e3d6000fd5b505050506040513d6000823e3d601f19601f82011682018060405250810190612e429190614f93565b905060008273ffffffffffffffffffffffffffffffffffffffff16630ebd4c7f866040518263ffffffff1660e01b8152600401612e7f91906134cb565b600060405180830381865afa158015612e9c573d6000803e3d6000fd5b505050506040513d6000823e3d601f19601f82011682018060405250810190612ec5919061509f565b905060005b8151811015613021578b73ffffffffffffffffffffffffffffffffffffffff16838281518110612efd57612efc613d67565b5b602002602001015173ffffffffffffffffffffffffffffffffffffffff161415612f265761300e565b6000851415612f3457613021565b6000600354838381518110612f4c57612f4b613d67565b5b60200260200101518c612f5f9190614364565b612f699190614b54565b905085811115612f7f5785905060009550612f8e565b8086612f8b919061478a565b95505b612fb3848381518110612fa457612fa3613d67565b5b60200260200101518d83613031565b7f27c4f0403323142b599832f26acd21c74a9e5b809f2215726e244a4ac588cd7d8888868581518110612fe957612fe8613d67565b5b60200260200101518f85604051613004959493929190615147565b60405180910390a1505b808061301990613dc5565b915050612eca565b505050505b979650505050505050565b80600f60008573ffffffffffffffffffffffffffffffffffffffff1673ffffffffffffffffffffffffffffffffffffffff16815260200190815260200160002060008473ffffffffffffffffffffffffffffffffffffffff1673ffffffffffffffffffffffffffffffffffffffff16815260200190815260200160002060008282546130bd9190614450565b92505081905550505050565b6000807f7fffffffffffffffffffffffffffffff5d576e7357a4501ddfe92f46681b20a08360001c11156131045760006003915091506131cd565b601b8560ff161415801561311c5750601c8560ff1614155b1561312e5760006004915091506131cd565b60006001878787876040516000815260200160405260405161315394939291906151b6565b6020604051602081039080840390855afa158015613175573d6000803e3d6000fd5b505050602060405103519050600073ffffffffffffffffffffffffffffffffffffffff168173ffffffffffffffffffffffffffffffffffffffff1614156131c4576000600192509250506131cd565b80600092509250505b94509492505050565b6000806000807f7fffffffffffffffffffffffffffffffffffffffffffffffffffffffffffffff85169150601b8560ff1c019050613216878288856130c9565b935093505050935093915050565b60405180610140016040528060008152602001600073ffffffffffffffffffffffffffffffffffffffff168152602001600073ffffffffffffffffffffffffffffffffffffffff168152602001600081526020016000815260200160008152602001600073ffffffffffffffffffffffffffffffffffffffff1681526020016000815260200160008152602001600060028111156132c5576132c46138da565b5b81525090565b6000604051905090565b600080fd5b600080fd5b60007fffffffff0000000000000000000000000000000000000000000000000000000082169050919050565b613314816132df565b811461331f57600080fd5b50565b6000813590506133318161330b565b92915050565b60006020828403121561334d5761334c6132d5565b5b600061335b84828501613322565b91505092915050565b60008115159050919050565b61337981613364565b82525050565b60006020820190506133946000830184613370565b92915050565b600073ffffffffffffffffffffffffffffffffffffffff82169050919050565b60006133c58261339a565b9050919050565b6133d5816133ba565b81146133e057600080fd5b50565b6000813590506133f2816133cc565b92915050565b60006020828403121561340e5761340d6132d5565b5b600061341c848285016133e3565b91505092915050565b6000819050919050565b61343881613425565b811461344357600080fd5b50565b6000813590506134558161342f565b92915050565b600060208284031215613471576134706132d5565b5b600061347f84828501613446565b91505092915050565b61349181613425565b82525050565b60006020820190506134ac6000830184613488565b92915050565b6000819050919050565b6134c5816134b2565b82525050565b60006020820190506134e060008301846134bc565b92915050565b600080604083850312156134fd576134fc6132d5565b5b600061350b85828601613446565b925050602061351c858286016133e3565b9150509250929050565b61352f816134b2565b811461353a57600080fd5b50565b60008135905061354c81613526565b92915050565b600060208284031215613568576135676132d5565b5b60006135768482850161353d565b91505092915050565b600080fd5b600080fd5b600080fd5b60008083601f8401126135a4576135a361357f565b5b8235905067ffffffffffffffff8111156135c1576135c0613584565b5b6020830191508360208202830111156135dd576135dc613589565b5b9250929050565b6135ed81613364565b81146135f857600080fd5b50565b60008135905061360a816135e4565b92915050565b600080600060408486031215613629576136286132d5565b5b600084013567ffffffffffffffff811115613647576136466132da565b5b6136538682870161358e565b93509350506020613666868287016135fb565b9150509250925092565b600080600080600080600080610100898b031215613691576136906132d5565b5b600061369f8b828c016133e3565b98505060206136b08b828c016133e3565b97505060406136c18b828c0161353d565b96505060606136d28b828c0161353d565b95505060806136e38b828c016133e3565b94505060a06136f48b828c0161353d565b93505060c06137058b828c0161353d565b92505060e06137168b828c0161353d565b9150509295985092959890939650565b6000806040838503121561373d5761373c6132d5565b5b600061374b8582860161353d565b925050602061375c858286016133e3565b9150509250929050565b60008083601f84011261377c5761377b61357f565b5b8235905067ffffffffffffffff81111561379957613798613584565b5b6020830191508360018202830111156137b5576137b4613589565b5b9250929050565b60008060008060008060008060008060006101408c8e0312156137e2576137e16132d5565b5b60006137f08e828f016133e3565b9b505060206138018e828f016133e3565b9a505060406138128e828f0161353d565b99505060606138238e828f0161353d565b98505060806138348e828f016133e3565b97505060a06138458e828f0161353d565b96505060c06138568e828f0161353d565b95505060e06138678e828f0161353d565b9450506101006138798e828f0161353d565b9350506101208c013567ffffffffffffffff81111561389b5761389a6132da565b5b6138a78e828f01613766565b92509250509295989b509295989b9093969950565b6138c5816134b2565b82525050565b6138d4816133ba565b82525050565b7f4e487b7100000000000000000000000000000000000000000000000000000000600052602160045260246000fd5b6003811061391a576139196138da565b5b50565b600081905061392b82613909565b919050565b600061393b8261391d565b9050919050565b61394b81613930565b82525050565b6101408201600082015161396860008501826138bc565b50602082015161397b60208501826138cb565b50604082015161398e60408501826138cb565b5060608201516139a160608501826138bc565b5060808201516139b460808501826138bc565b5060a08201516139c760a08501826138bc565b5060c08201516139da60c08501826138cb565b5060e08201516139ed60e08501826138bc565b50610100820151613a026101008501826138bc565b50610120820151613a17610120850182613942565b50505050565b600061014082019050613a336000830184613951565b92915050565b60008060408385031215613a5057613a4f6132d5565b5b6000613a5e858286016133e3565b9250506020613a6f858286016133e3565b9150509250929050565b60008060408385031215613a9057613a8f6132d5565b5b6000613a9e8582860161353d565b9250506020613aaf8582860161353d565b9150509250929050565b60008060408385031215613ad057613acf6132d5565b5b6000613ade858286016133e3565b9250506020613aef8582860161353d565b9150509250929050565b600082825260208201905092915050565b7f416363657373436f6e74726f6c3a2063616e206f6e6c792072656e6f756e636560008201527f20726f6c657320666f722073656c660000000000000000000000000000000000602082015250565b6000613b66602f83613af9565b9150613b7182613b0a565b604082019050919050565b60006020820190508181036000830152613b9581613b59565b9050919050565b7f4f6e6c79206f70656e206c697374696e67732063616e20626520636c6f73656460008201527f2e00000000000000000000000000000000000000000000000000000000000000602082015250565b6000613bf8602183613af9565b9150613c0382613b9c565b604082019050919050565b60006020820190508181036000830152613c2781613beb565b9050919050565b7f4f6e6c792073656c6c6572206f722061646d696e2063616e20636c6f7365207460008201527f6865206c697374696e672e000000000000000000000000000000000000000000602082015250565b6000613c8a602b83613af9565b9150613c9582613c2e565b604082019050919050565b60006020820190508181036000830152613cb981613c7d565b9050919050565b613cc9816133ba565b82525050565b6000608082019050613ce46000830187613cc0565b613cf16020830186613cc0565b613cfe60408301856134bc565b613d0b60608301846134bc565b95945050505050565b600060a082019050613d2960008301886134bc565b613d366020830187613cc0565b613d436040830186613cc0565b613d5060608301856134bc565b613d5d60808301846134bc565b9695505050505050565b7f4e487b7100000000000000000000000000000000000000000000000000000000600052603260045260246000fd5b7f4e487b7100000000000000000000000000000000000000000000000000000000600052601160045260246000fd5b6000613dd0826134b2565b91507fffffffffffffffffffffffffffffffffffffffffffffffffffffffffffffffff821415613e0357613e02613d96565b5b600182019050919050565b60008160601b9050919050565b6000613e2682613e0e565b9050919050565b6000613e3882613e1b565b9050919050565b613e50613e4b826133ba565b613e2d565b82525050565b6000819050919050565b613e71613e6c826134b2565b613e56565b82525050565b6000613e83828c613e3f565b601482019150613e93828b613e3f565b601482019150613ea3828a613e3f565b601482019150613eb38289613e60565b602082019150613ec38288613e60565b602082019150613ed38287613e3f565b601482019150613ee38286613e60565b602082019150613ef38285613e60565b602082019150613f038284613e60565b6020820191508190509a9950505050505050505050565b7f507269636520697320746f6f206c6f772e000000000000000000000000000000600082015250565b6000613f50601183613af9565b9150613f5b82613f1a565b602082019050919050565b60006020820190508181036000830152613f7f81613f43565b9050919050565b7f507269636520697320746f6f20686967682e0000000000000000000000000000600082015250565b6000613fbc601283613af9565b9150613fc782613f86565b602082019050919050565b60006020820190508181036000830152613feb81613faf565b9050919050565b7f5175616e746974792065786365656473206d6178696d756d2e00000000000000600082015250565b6000614028601983613af9565b915061403382613ff2565b602082019050919050565b600060208201905081810360008301526140578161401b565b9050919050565b7f546f6b656e20636f6e7472616374206973206e6f7420616c6c6f7765642e0000600082015250565b6000614094601e83613af9565b915061409f8261405e565b602082019050919050565b600060208201905081810360008301526140c381614087565b9050919050565b7f43757272656e6379206973206e6f7420616c6c6f7765642e0000000000000000600082015250565b6000614100601883613af9565b915061410b826140ca565b602082019050919050565b6000602082019050818103600083015261412f816140f3565b9050919050565b7f417070726f76616c20657870697265642e000000000000000000000000000000600082015250565b600061416c601183613af9565b915061417782614136565b602082019050919050565b6000602082019050818103600083015261419b8161415f565b9050919050565b7f417070726f76616c206578686175737465642e00000000000000000000000000600082015250565b60006141d8601383613af9565b91506141e3826141a2565b602082019050919050565b60006020820190508181036000830152614207816141cb565b9050919050565b7f496e76616c6964207369676e61747572652e0000000000000000000000000000600082015250565b6000614244601283613af9565b915061424f8261420e565b602082019050919050565b6000602082019050818103600083015261427381614237565b9050919050565b614283816132df565b82525050565b600060208201905061429e600083018461427a565b92915050565b6000815190506142b3816135e4565b92915050565b6000602082840312156142cf576142ce6132d5565b5b60006142dd848285016142a4565b91505092915050565b6000610100820190506142fc600083018b6134bc565b614309602083018a613cc0565b6143166040830189613cc0565b61432360608301886134bc565b61433060808301876134bc565b61433d60a0830186613cc0565b61434a60c08301856134bc565b61435760e08301846134bc565b9998505050505050505050565b600061436f826134b2565b915061437a836134b2565b9250817fffffffffffffffffffffffffffffffffffffffffffffffffffffffffffffffff04831182151516156143b3576143b2613d96565b5b828202905092915050565b7f4665652063616e6e6f7420626520686967686572207468616e2068756e64726560008201527f642070657263656e742e00000000000000000000000000000000000000000000602082015250565b600061441a602a83613af9565b9150614425826143be565b604082019050919050565b600060208201905081810360008301526144498161440d565b9050919050565b600061445b826134b2565b9150614466836134b2565b9250827fffffffffffffffffffffffffffffffffffffffffffffffffffffffffffffffff0382111561449b5761449a613d96565b5b828201905092915050565b7f5175616e746974792065786365656473206d6178696d756d20616c6c6f77656460008201527f207065722062757965722e000000000000000000000000000000000000000000602082015250565b6000614502602b83613af9565b915061450d826144a6565b604082019050919050565b60006020820190508181036000830152614531816144f5565b9050919050565b7f4c697374696e67206973206e6f74206f70656e2e000000000000000000000000600082015250565b600061456e601483613af9565b915061457982614538565b602082019050919050565b6000602082019050818103600083015261459d81614561565b9050919050565b7f4e6f7420656e6f75676820746f6b656e7320666f722073616c652e0000000000600082015250565b60006145da601b83613af9565b91506145e5826145a4565b602082019050919050565b60006020820190508181036000830152614609816145cd565b9050919050565b7f53656c6c65722063616e6e6f742062652062757965722e000000000000000000600082015250565b6000614646601783613af9565b915061465182614610565b602082019050919050565b6000602082019050818103600083015261467581614639565b9050919050565b60006040820190506146916000830185613cc0565b61469e6020830184613cc0565b9392505050565b6000815190506146b481613526565b92915050565b6000602082840312156146d0576146cf6132d5565b5b60006146de848285016146a5565b91505092915050565b7f416c6c6f77616e636520697320746f6f206c6f772e0000000000000000000000600082015250565b600061471d601583613af9565b9150614728826146e7565b602082019050919050565b6000602082019050818103600083015261474c81614710565b9050919050565b60006060820190506147686000830186613cc0565b6147756020830185613cc0565b61478260408301846134bc565b949350505050565b6000614795826134b2565b91506147a0836134b2565b9250828210156147b3576147b2613d96565b5b828203905092915050565b600060c0820190506147d360008301896134bc565b6147e06020830188613cc0565b6147ed6040830187613cc0565b6147fa60608301866134bc565b6148076080830185613cc0565b61481460a08301846134bc565b979650505050505050565b7f496e73756666696369656e742062616c616e636520746f20776974686472617760008201527f2e00000000000000000000000000000000000000000000000000000000000000602082015250565b600061487b602183613af9565b91506148868261481f565b604082019050919050565b600060208201905081810360008301526148aa8161486e565b9050919050565b60006040820190506148c66000830185613cc0565b6148d360208301846134bc565b9392505050565b600081905092915050565b7f416363657373436f6e74726f6c3a206163636f756e7420000000000000000000600082015250565b600061491b6017836148da565b9150614926826148e5565b601782019050919050565b600081519050919050565b60005b8381101561495a57808201518184015260208101905061493f565b83811115614969576000848401525b50505050565b600061497a82614931565b61498481856148da565b935061499481856020860161493c565b80840191505092915050565b7f206973206d697373696e6720726f6c6520000000000000000000000000000000600082015250565b60006149d66011836148da565b91506149e1826149a0565b601182019050919050565b60006149f78261490e565b9150614a03828561496f565b9150614a0e826149c9565b9150614a1a828461496f565b91508190509392505050565b6000601f19601f8301169050919050565b6000614a4282614931565b614a4c8185613af9565b9350614a5c81856020860161493c565b614a6581614a26565b840191505092915050565b60006020820190508181036000830152614a8a8184614a37565b905092915050565b7f19457468657265756d205369676e6564204d6573736167653a0a333200000000600082015250565b6000614ac8601c836148da565b9150614ad382614a92565b601c82019050919050565b6000819050919050565b614af9614af482613425565b614ade565b82525050565b6000614b0a82614abb565b9150614b168284614ae8565b60208201915081905092915050565b7f4e487b7100000000000000000000000000000000000000000000000000000000600052601260045260246000fd5b6000614b5f826134b2565b9150614b6a836134b2565b925082614b7a57614b79614b25565b5b828204905092915050565b7f4e487b7100000000000000000000000000000000000000000000000000000000600052604160045260246000fd5b6000614bbf826134b2565b91506000821415614bd357614bd2613d96565b5b600182039050919050565b7f537472696e67733a20686578206c656e67746820696e73756666696369656e74600082015250565b6000614c14602083613af9565b9150614c1f82614bde565b602082019050919050565b60006020820190508181036000830152614c4381614c07565b9050919050565b7f45434453413a20696e76616c6964207369676e61747572650000000000000000600082015250565b6000614c80601883613af9565b9150614c8b82614c4a565b602082019050919050565b60006020820190508181036000830152614caf81614c73565b9050919050565b7f45434453413a20696e76616c6964207369676e6174757265206c656e67746800600082015250565b6000614cec601f83613af9565b9150614cf782614cb6565b602082019050919050565b60006020820190508181036000830152614d1b81614cdf565b9050919050565b7f45434453413a20696e76616c6964207369676e6174757265202773272076616c60008201527f7565000000000000000000000000000000000000000000000000000000000000602082015250565b6000614d7e602283613af9565b9150614d8982614d22565b604082019050919050565b60006020820190508181036000830152614dad81614d71565b9050919050565b7f45434453413a20696e76616c6964207369676e6174757265202776272076616c60008201527f7565000000000000000000000000000000000000000000000000000000000000602082015250565b6000614e10602283613af9565b9150614e1b82614db4565b604082019050919050565b60006020820190508181036000830152614e3f81614e03565b9050919050565b614e4f82614a26565b810181811067ffffffffffffffff82111715614e6e57614e6d614b85565b5b80604052505050565b6000614e816132cb565b9050614e8d8282614e46565b919050565b600067ffffffffffffffff821115614ead57614eac614b85565b5b602082029050602081019050919050565b6000614ec98261339a565b9050919050565b614ed981614ebe565b8114614ee457600080fd5b50565b600081519050614ef681614ed0565b92915050565b6000614f0f614f0a84614e92565b614e77565b90508083825260208201905060208402830185811115614f3257614f31613589565b5b835b81811015614f5b5780614f478882614ee7565b845260208401935050602081019050614f34565b5050509392505050565b600082601f830112614f7a57614f7961357f565b5b8151614f8a848260208601614efc565b91505092915050565b600060208284031215614fa957614fa86132d5565b5b600082015167ffffffffffffffff811115614fc757614fc66132da565b5b614fd384828501614f65565b91505092915050565b600067ffffffffffffffff821115614ff757614ff6614b85565b5b602082029050602081019050919050565b600061501b61501684614fdc565b614e77565b9050808382526020820190506020840283018581111561503e5761503d613589565b5b835b81811015615067578061505388826146a5565b845260208401935050602081019050615040565b5050509392505050565b600082601f8301126150865761508561357f565b5b8151615096848260208601615008565b91505092915050565b6000602082840312156150b5576150b46132d5565b5b600082015167ffffffffffffffff8111156150d3576150d26132da565b5b6150df84828501615071565b91505092915050565b6000819050919050565b600061510d6151086151038461339a565b6150e8565b61339a565b9050919050565b600061511f826150f2565b9050919050565b600061513182615114565b9050919050565b61514181615126565b82525050565b600060a08201905061515c6000830188613cc0565b61516960208301876134bc565b6151766040830186615138565b6151836060830185613cc0565b61519060808301846134bc565b9695505050505050565b600060ff82169050919050565b6151b08161519a565b82525050565b60006080820190506151cb6000830187613488565b6151d860208301866151a7565b6151e56040830185613488565b6151f26060830184613488565b9594505050505056fea2646970667358221220a533c08e639fa61da861279f8a6342a9118e6f7332fb1e4c284126a0ed1be93664736f6c634300080b0033",
  "immutableReferences": {},
  "source": "// SPDX-License-Identifier: MIT\npragma solidity ^0.8.0;\n\nimport '@openzeppelin/contracts/access/AccessControl.sol';\nimport '@openzeppelin/contracts/token/ERC20/IERC20.sol';\nimport '@openzeppelin/contracts/utils/cryptography/ECDSA.sol';\n\nimport './MarketWalletV1.sol';\nimport './HasSecondarySaleFees.sol';\n\nenum ListingStatus {\n  Active,\n  Sold,\n  Cancelled\n}\n\nstruct Listing {\n  uint256 id;\n  address seller;\n  address token;\n  uint256 tokenId;\n  uint256 quantity;\n  uint256 available;\n  address currency;\n  uint256 price;\n  uint256 maxPurchasable;\n  ListingStatus status;\n}\n\nstruct MarketFees {\n  uint256 buyer;\n  uint256 seller;\n}\n\nstruct TokenOrder {\n  address token;\n  uint256 id;\n  uint256 quantity;\n}\n\ncontract MarketV1 is AccessControl {\n  using ECDSA for bytes32;\n\n  bytes internal constant EMPTY = '';\n\n  uint256 public buyerFeePct = 5000;\n  uint256 public sellerFeePct = 5000;\n  uint256 public hundredPct = 10**5;\n\n  uint256 public maxListingQuantity = 10**6;\n  uint256 public minTokenPrice = hundredPct;\n  uint256 public maxTokenPrice = 10**6 * 1 ether;\n\n  MarketWalletV1 internal _wallet;\n  address internal _feeBeneficiary;\n\n  uint256 private _listingId = 0;\n  mapping(uint256 => Listing) private _listings;\n\n  mapping(uint256 => mapping(address => uint256))\n    public _listingPurchasesForBuyer;\n\n  // contract address => isAuthorized\n  mapping(address => bool) internal _approvedTokens;\n\n  // contract address => isAuthorized\n  mapping(address => bool) internal _approvedCurrencies;\n\n  mapping(bytes32 => bool) private _approvalsExhausted;\n\n  // seller => (currency => revenue)\n  mapping(address => mapping(address => uint256)) internal _earnings;\n\n  event ListForSale(\n    uint256 listingId,\n    address seller,\n    address tokenContract,\n    uint256 tokenId,\n    uint256 quantity,\n    address currency,\n    uint256 price,\n    uint256 maxPurchasable\n  );\n\n  event Trade(\n    uint256 listingId,\n    address buyer,\n    address seller,\n    uint256 quantity,\n    address currency,\n    uint256 price\n  );\n\n  event CancelListing(\n    uint256 listingId,\n    address operator,\n    address tokenContract,\n    uint256 tokenId,\n    uint256 returned\n  );\n\n  event RoyaltyPayment(\n    address token,\n    uint256 tokenId,\n    address beneficiary,\n    address currency,\n    uint256 amount\n  );\n\n  bytes32 public constant ADMIN_ROLE = keccak256('ADMIN_ROLE');\n\n  bytes4 private constant _INTERFACE_ID_FEES = 0xb7799584;\n\n  constructor(MarketWalletV1 wallet) {\n    _setupRole(DEFAULT_ADMIN_ROLE, msg.sender);\n\n    _setupRole(ADMIN_ROLE, msg.sender);\n    _setRoleAdmin(ADMIN_ROLE, DEFAULT_ADMIN_ROLE);\n\n    _feeBeneficiary = msg.sender;\n    _wallet = wallet;\n  }\n\n  function supportsInterface(bytes4 interfaceID)\n    public\n    view\n    override(AccessControl)\n    returns (bool)\n  {\n    return super.supportsInterface(interfaceID);\n  }\n\n  function get(uint256 listingId) public view returns (Listing memory) {\n    return _listings[listingId];\n  }\n\n  function buy(uint256 listingId, uint256 quantity) public {\n    Listing memory listing = _listings[listingId];\n\n    if (listing.maxPurchasable > 0) {\n      require(\n        _listingPurchasesForBuyer[listingId][msg.sender] + quantity <=\n          listing.maxPurchasable,\n        'Quantity exceeds maximum allowed per buyer.'\n      );\n    }\n\n    // Require listing is still open\n    require(listing.status == ListingStatus.Active, 'Listing is not open.');\n\n    // Check quantity\n    require(quantity <= listing.available, 'Not enough tokens for sale.');\n\n    // Require buyer to be different from seller\n    require(msg.sender != listing.seller, 'Seller cannot be buyer.');\n\n    // Calculate prices\n    uint256 subtotal = listing.price * quantity;\n\n    IERC20 currency = IERC20(listing.currency);\n\n    (uint256 sellerFee, uint256 buyerFee) = calculateMarketFees(subtotal);\n\n    uint256 allowance = currency.allowance(msg.sender, address(this));\n    require(allowance >= subtotal + buyerFee, 'Allowance is too low.');\n\n    // Deposit currency for escrow\n    currency.transferFrom(msg.sender, address(this), subtotal + buyerFee);\n\n    exchange(\n      listing.seller,\n      msg.sender,\n      listing.currency,\n      subtotal,\n      MarketFees(buyerFee, sellerFee),\n      TokenOrder(listing.token, listing.tokenId, quantity)\n    );\n\n    _listingPurchasesForBuyer[listingId][msg.sender] += quantity;\n\n    uint256 available = listing.available - quantity;\n    _listings[listingId].available = available;\n\n    if (available == 0) {\n      _listings[listingId].status = ListingStatus.Sold;\n    }\n\n    emit Trade(\n      listingId,\n      msg.sender,\n      listing.seller,\n      quantity,\n      listing.currency,\n      listing.price\n    );\n  }\n\n  function exchange(\n    address seller,\n    address buyer,\n    address currency,\n    uint256 subtotal,\n    MarketFees memory fees,\n    TokenOrder memory order\n  ) internal {\n    uint256 sellerNet = payAfterFees(\n      seller,\n      currency,\n      subtotal,\n      fees.seller,\n      fees.buyer,\n      order.token,\n      order.id\n    );\n\n    pay(seller, currency, sellerNet);\n\n    _wallet.give(order.token, buyer, order.id, order.quantity);\n  }\n\n  function pay(\n    address account,\n    address currency,\n    uint256 amount\n  ) internal {\n    _earnings[account][currency] += amount;\n  }\n\n  function calculateMarketFees(uint256 subtotal)\n    internal\n    view\n    returns (uint256 sellerFee, uint256 buyerFee)\n  {\n    buyerFee = (subtotal * buyerFeePct) / hundredPct;\n    sellerFee = (subtotal * sellerFeePct) / hundredPct;\n  }\n\n  function payAfterFees(\n    address seller,\n    address currency,\n    uint256 subtotal,\n    uint256 sellerFee,\n    uint256 buyerFee,\n    address token,\n    uint256 tokenId\n  ) internal returns (uint256 sellerPay) {\n    if (subtotal > sellerFee) subtotal = subtotal - sellerFee;\n    sellerPay = subtotal;\n\n    // Pay market fees\n    pay(_feeBeneficiary, currency, sellerFee + buyerFee);\n\n    if (!IERC165(token).supportsInterface(_INTERFACE_ID_FEES)) return sellerPay;\n\n    HasSecondarySaleFees tokenWithFees = HasSecondarySaleFees(token);\n\n    address payable[] memory recipients = tokenWithFees.getFeeRecipients(\n      tokenId\n    );\n\n    uint256[] memory feeBps = tokenWithFees.getFeeBps(tokenId);\n\n    for (uint256 i = 0; i < feeBps.length; i++) {\n      if (recipients[i] == seller) continue;\n      if (sellerPay == 0) break;\n\n      uint256 fee = (subtotal * feeBps[i]) / hundredPct;\n\n      if (fee > sellerPay) {\n        fee = sellerPay;\n        sellerPay = 0;\n      } else {\n        sellerPay -= fee;\n      }\n\n      pay(recipients[i], currency, fee);\n\n      emit RoyaltyPayment(token, tokenId, recipients[i], currency, fee);\n    }\n  }\n\n  function getSaleAuthorizationHash(\n    address seller,\n    address token,\n    uint256 tokenId,\n    uint256 quantity,\n    address currency,\n    uint256 price,\n    uint256 expiry,\n    uint256 salt\n  ) public view returns (bytes32) {\n    return\n      keccak256(\n        abi.encodePacked(\n          address(this),\n          seller,\n          token,\n          tokenId,\n          quantity,\n          currency,\n          price,\n          expiry,\n          salt\n        )\n      );\n  }\n\n  function listForSale(\n    address seller,\n    address token,\n    uint256 tokenId,\n    uint256 quantity,\n    address currency,\n    uint256 price,\n    uint256 maxPurchasable,\n    uint256 expiry,\n    uint256 salt,\n    bytes calldata signature\n  ) public {\n    require(price >= minTokenPrice, 'Price is too low.');\n    require(price <= maxTokenPrice, 'Price is too high.');\n    require(quantity <= maxListingQuantity, 'Quantity exceeds maximum.');\n\n    require(_approvedTokens[token], 'Token contract is not allowed.');\n    require(_approvedCurrencies[currency], 'Currency is not allowed.');\n\n    if (!hasRole(ADMIN_ROLE, msg.sender)) {\n      require(expiry > block.timestamp, 'Approval expired.');\n\n      bytes32 saleHash = getSaleAuthorizationHash(\n        seller,\n        token,\n        tokenId,\n        quantity,\n        currency,\n        price,\n        expiry,\n        salt\n      );\n\n      require(!_approvalsExhausted[saleHash], 'Approval exhausted.');\n\n      address recoveredAddress = saleHash.toEthSignedMessageHash().recover(\n        signature\n      );\n\n      require(\n        recoveredAddress != address(0) && hasRole(ADMIN_ROLE, recoveredAddress),\n        'Invalid signature.'\n      );\n\n      _approvalsExhausted[saleHash] = true;\n    }\n\n    if (!IERC165(token).supportsInterface(type(IERC1155).interfaceId))\n      quantity = 1;\n\n    _wallet.take(token, seller, tokenId, quantity);\n\n    // Create listing\n    _listingId++;\n\n    Listing memory listing = Listing(\n      _listingId,\n      seller,\n      token,\n      tokenId,\n      quantity,\n      quantity,\n      currency,\n      price,\n      maxPurchasable,\n      ListingStatus.Active\n    );\n\n    _listings[_listingId] = listing;\n\n    emit ListForSale(\n      _listingId,\n      seller,\n      token,\n      tokenId,\n      quantity,\n      currency,\n      price,\n      maxPurchasable\n    );\n  }\n\n  function cancel(uint256 listingId) public {\n    Listing memory listing = _listings[listingId];\n\n    require(\n      listing.status == ListingStatus.Active,\n      'Only open listings can be closed.'\n    );\n\n    require(\n      msg.sender == listing.seller || hasRole(ADMIN_ROLE, msg.sender),\n      'Only seller or admin can close the listing.'\n    );\n\n    // Mark listing as cancelled\n    _listings[listingId].status = ListingStatus.Cancelled;\n\n    _wallet.give(\n      listing.token,\n      listing.seller,\n      listing.tokenId,\n      listing.available\n    );\n\n    emit CancelListing(\n      listingId,\n      msg.sender,\n      listing.token,\n      listing.tokenId,\n      listing.available\n    );\n  }\n\n  function getBalance(address currency, address account)\n    public\n    view\n    returns (uint256)\n  {\n    return _earnings[account][currency];\n  }\n\n  function withdraw(address currency, uint256 amount) public {\n    require(\n      _earnings[msg.sender][currency] >= amount,\n      'Insufficient balance to withdraw.'\n    );\n\n    _earnings[msg.sender][currency] -= amount;\n\n    IERC20(currency).transfer(msg.sender, amount);\n  }\n\n  function listingPurchasesForBuyer(uint256 listingId, address buyer)\n    public\n    view\n    returns (uint256)\n  {\n    return _listingPurchasesForBuyer[listingId][buyer];\n  }\n\n  function isTokenApproved(address token) public view returns (bool) {\n    return _approvedTokens[token];\n  }\n\n  function isCurrencyApproved(address currency) public view returns (bool) {\n    return _approvedCurrencies[currency];\n  }\n\n  function setTokensApproval(address[] calldata tokens, bool isApproved)\n    public\n    onlyRole(ADMIN_ROLE)\n  {\n    for (uint256 i = 0; i < tokens.length; i++) {\n      _approvedTokens[tokens[i]] = isApproved;\n    }\n  }\n\n  function setCurrenciesApproval(address[] calldata currencies, bool isApproved)\n    public\n    onlyRole(ADMIN_ROLE)\n  {\n    for (uint256 i = 0; i < currencies.length; i++) {\n      _approvedCurrencies[currencies[i]] = isApproved;\n    }\n  }\n\n  function setMaxTokenPriceEther(uint256 price) public onlyRole(ADMIN_ROLE) {\n    maxTokenPrice = price * 1 ether;\n  }\n\n  function setMaxTokenPriceWei(uint256 price) public onlyRole(ADMIN_ROLE) {\n    maxTokenPrice = price;\n  }\n\n  function setMaxListingQuantity(uint256 quantity) public onlyRole(ADMIN_ROLE) {\n    maxListingQuantity = quantity;\n  }\n\n  function setBuyerFeePct(uint256 pct) public onlyRole(ADMIN_ROLE) {\n    require(pct <= hundredPct, 'Fee cannot be higher than hundred percent.');\n    buyerFeePct = pct;\n  }\n\n  function setSellerFeePct(uint256 pct) public onlyRole(ADMIN_ROLE) {\n    require(pct <= hundredPct, 'Fee cannot be higher than hundred percent.');\n    sellerFeePct = pct;\n  }\n\n  function setFeeBeneficiary(address beneficiary)\n    public\n    onlyRole(DEFAULT_ADMIN_ROLE)\n  {\n    _feeBeneficiary = beneficiary;\n  }\n}\n",
  "sourcePath": "/Users/husnain/Desktop/other/fanbase/packages/ethereum/contracts/solidity/contracts/MarketV1.sol",
  "compiler": {
    "name": "solc",
    "version": "0.8.11+commit.d7f03943.Emscripten.clang"
  },
  "schemaVersion": "3.4.3",
  "updatedAt": "2022-01-23T21:19:04.225Z",
  "devdoc": {
    "kind": "dev",
    "methods": {
      "getRoleAdmin(bytes32)": {
        "details": "Returns the admin role that controls `role`. See {grantRole} and {revokeRole}. To change a role's admin, use {_setRoleAdmin}."
      },
      "grantRole(bytes32,address)": {
        "details": "Grants `role` to `account`. If `account` had not been already granted `role`, emits a {RoleGranted} event. Requirements: - the caller must have ``role``'s admin role."
      },
      "hasRole(bytes32,address)": {
        "details": "Returns `true` if `account` has been granted `role`."
      },
      "renounceRole(bytes32,address)": {
        "details": "Revokes `role` from the calling account. Roles are often managed via {grantRole} and {revokeRole}: this function's purpose is to provide a mechanism for accounts to lose their privileges if they are compromised (such as when a trusted device is misplaced). If the calling account had been granted `role`, emits a {RoleRevoked} event. Requirements: - the caller must be `account`."
      },
      "revokeRole(bytes32,address)": {
        "details": "Revokes `role` from `account`. If `account` had been granted `role`, emits a {RoleRevoked} event. Requirements: - the caller must have ``role``'s admin role."
      }
    },
    "version": 1
  },
  "userdoc": {
    "kind": "user",
    "methods": {},
    "version": 1
  }
}