{
  "contractName": "MarketV1",
  "abi": [
    {
      "inputs": [
        {
          "internalType": "contract MarketWalletV1",
          "name": "wallet",
          "type": "address"
        }
      ],
      "stateMutability": "nonpayable",
      "type": "constructor"
    },
    {
      "anonymous": false,
      "inputs": [
        {
          "indexed": false,
          "internalType": "uint256",
          "name": "tradeId",
          "type": "uint256"
        },
        {
          "indexed": false,
          "internalType": "address",
          "name": "buyer",
          "type": "address"
        },
        {
          "indexed": false,
          "internalType": "uint256",
          "name": "quantity",
          "type": "uint256"
        }
      ],
      "name": "Buy",
      "type": "event"
    },
    {
      "anonymous": false,
      "inputs": [
        {
          "indexed": true,
          "internalType": "uint256",
          "name": "tradeId",
          "type": "uint256"
        },
        {
          "indexed": false,
          "internalType": "address",
          "name": "operator",
          "type": "address"
        }
      ],
      "name": "Cancel",
      "type": "event"
    },
    {
      "anonymous": false,
      "inputs": [
        {
          "indexed": false,
          "internalType": "uint256",
          "name": "tradeId",
          "type": "uint256"
        },
        {
          "indexed": false,
          "internalType": "address",
          "name": "seller",
          "type": "address"
        },
        {
          "indexed": false,
          "internalType": "address",
          "name": "tokenContract",
          "type": "address"
        },
        {
          "indexed": false,
          "internalType": "uint256",
          "name": "tokenId",
          "type": "uint256"
        },
        {
          "indexed": false,
          "internalType": "uint256",
          "name": "quantity",
          "type": "uint256"
        },
        {
          "indexed": false,
          "internalType": "address",
          "name": "currency",
          "type": "address"
        },
        {
          "indexed": false,
          "internalType": "uint256",
          "name": "price",
          "type": "uint256"
        }
      ],
      "name": "ListForSale",
      "type": "event"
    },
    {
      "anonymous": false,
      "inputs": [
        {
          "indexed": false,
          "internalType": "address",
          "name": "account",
          "type": "address"
        }
      ],
      "name": "Paused",
      "type": "event"
    },
    {
      "anonymous": false,
      "inputs": [
        {
          "indexed": true,
          "internalType": "bytes32",
          "name": "role",
          "type": "bytes32"
        },
        {
          "indexed": true,
          "internalType": "bytes32",
          "name": "previousAdminRole",
          "type": "bytes32"
        },
        {
          "indexed": true,
          "internalType": "bytes32",
          "name": "newAdminRole",
          "type": "bytes32"
        }
      ],
      "name": "RoleAdminChanged",
      "type": "event"
    },
    {
      "anonymous": false,
      "inputs": [
        {
          "indexed": true,
          "internalType": "bytes32",
          "name": "role",
          "type": "bytes32"
        },
        {
          "indexed": true,
          "internalType": "address",
          "name": "account",
          "type": "address"
        },
        {
          "indexed": true,
          "internalType": "address",
          "name": "sender",
          "type": "address"
        }
      ],
      "name": "RoleGranted",
      "type": "event"
    },
    {
      "anonymous": false,
      "inputs": [
        {
          "indexed": true,
          "internalType": "bytes32",
          "name": "role",
          "type": "bytes32"
        },
        {
          "indexed": true,
          "internalType": "address",
          "name": "account",
          "type": "address"
        },
        {
          "indexed": true,
          "internalType": "address",
          "name": "sender",
          "type": "address"
        }
      ],
      "name": "RoleRevoked",
      "type": "event"
    },
    {
      "anonymous": false,
      "inputs": [
        {
          "indexed": false,
          "internalType": "uint256",
          "name": "tradeId",
          "type": "uint256"
        }
      ],
      "name": "Sell",
      "type": "event"
    },
    {
      "anonymous": false,
      "inputs": [
        {
          "indexed": false,
          "internalType": "address",
          "name": "account",
          "type": "address"
        }
      ],
      "name": "Unpaused",
      "type": "event"
    },
    {
      "inputs": [],
      "name": "ADMIN_ROLE",
      "outputs": [
        {
          "internalType": "bytes32",
          "name": "",
          "type": "bytes32"
        }
      ],
      "stateMutability": "view",
      "type": "function"
    },
    {
      "inputs": [],
      "name": "DEFAULT_ADMIN_ROLE",
      "outputs": [
        {
          "internalType": "bytes32",
          "name": "",
          "type": "bytes32"
        }
      ],
      "stateMutability": "view",
      "type": "function"
    },
    {
      "inputs": [],
      "name": "buyerFeePct",
      "outputs": [
        {
          "internalType": "uint256",
          "name": "",
          "type": "uint256"
        }
      ],
      "stateMutability": "view",
      "type": "function"
    },
    {
      "inputs": [
        {
          "internalType": "bytes32",
          "name": "role",
          "type": "bytes32"
        }
      ],
      "name": "getRoleAdmin",
      "outputs": [
        {
          "internalType": "bytes32",
          "name": "",
          "type": "bytes32"
        }
      ],
      "stateMutability": "view",
      "type": "function"
    },
    {
      "inputs": [
        {
          "internalType": "bytes32",
          "name": "role",
          "type": "bytes32"
        },
        {
          "internalType": "address",
          "name": "account",
          "type": "address"
        }
      ],
      "name": "grantRole",
      "outputs": [],
      "stateMutability": "nonpayable",
      "type": "function"
    },
    {
      "inputs": [
        {
          "internalType": "bytes32",
          "name": "role",
          "type": "bytes32"
        },
        {
          "internalType": "address",
          "name": "account",
          "type": "address"
        }
      ],
      "name": "hasRole",
      "outputs": [
        {
          "internalType": "bool",
          "name": "",
          "type": "bool"
        }
      ],
      "stateMutability": "view",
      "type": "function"
    },
    {
      "inputs": [],
      "name": "hundredPct",
      "outputs": [
        {
          "internalType": "uint256",
          "name": "",
          "type": "uint256"
        }
      ],
      "stateMutability": "view",
      "type": "function"
    },
    {
      "inputs": [],
      "name": "maxTokenPrice",
      "outputs": [
        {
          "internalType": "uint256",
          "name": "",
          "type": "uint256"
        }
      ],
      "stateMutability": "view",
      "type": "function"
    },
    {
      "inputs": [],
      "name": "maxTradeQuantity",
      "outputs": [
        {
          "internalType": "uint256",
          "name": "",
          "type": "uint256"
        }
      ],
      "stateMutability": "view",
      "type": "function"
    },
    {
      "inputs": [],
      "name": "minTokenPrice",
      "outputs": [
        {
          "internalType": "uint256",
          "name": "",
          "type": "uint256"
        }
      ],
      "stateMutability": "view",
      "type": "function"
    },
    {
      "inputs": [],
      "name": "paused",
      "outputs": [
        {
          "internalType": "bool",
          "name": "",
          "type": "bool"
        }
      ],
      "stateMutability": "view",
      "type": "function"
    },
    {
      "inputs": [
        {
          "internalType": "bytes32",
          "name": "role",
          "type": "bytes32"
        },
        {
          "internalType": "address",
          "name": "account",
          "type": "address"
        }
      ],
      "name": "renounceRole",
      "outputs": [],
      "stateMutability": "nonpayable",
      "type": "function"
    },
    {
      "inputs": [
        {
          "internalType": "bytes32",
          "name": "role",
          "type": "bytes32"
        },
        {
          "internalType": "address",
          "name": "account",
          "type": "address"
        }
      ],
      "name": "revokeRole",
      "outputs": [],
      "stateMutability": "nonpayable",
      "type": "function"
    },
    {
      "inputs": [],
      "name": "sellerFeePct",
      "outputs": [
        {
          "internalType": "uint256",
          "name": "",
          "type": "uint256"
        }
      ],
      "stateMutability": "view",
      "type": "function"
    },
    {
      "inputs": [
        {
          "internalType": "bytes",
          "name": "",
          "type": "bytes"
        },
        {
          "internalType": "uint256",
          "name": "",
          "type": "uint256"
        }
      ],
      "name": "tradeHistory",
      "outputs": [
        {
          "internalType": "uint256",
          "name": "",
          "type": "uint256"
        }
      ],
      "stateMutability": "view",
      "type": "function"
    },
    {
      "inputs": [
        {
          "internalType": "bytes4",
          "name": "interfaceID",
          "type": "bytes4"
        }
      ],
      "name": "supportsInterface",
      "outputs": [
        {
          "internalType": "bool",
          "name": "",
          "type": "bool"
        }
      ],
      "stateMutability": "view",
      "type": "function"
    },
    {
      "inputs": [
        {
          "internalType": "uint256",
          "name": "tradeId",
          "type": "uint256"
        }
      ],
      "name": "get",
      "outputs": [
        {
          "components": [
            {
              "internalType": "uint256",
              "name": "id",
              "type": "uint256"
            },
            {
              "internalType": "address",
              "name": "seller",
              "type": "address"
            },
            {
              "internalType": "address",
              "name": "token",
              "type": "address"
            },
            {
              "internalType": "uint256",
              "name": "tokenId",
              "type": "uint256"
            },
            {
              "internalType": "uint256",
              "name": "quantity",
              "type": "uint256"
            },
            {
              "internalType": "uint256",
              "name": "available",
              "type": "uint256"
            },
            {
              "internalType": "address",
              "name": "currency",
              "type": "address"
            },
            {
              "internalType": "uint256",
              "name": "price",
              "type": "uint256"
            },
            {
              "internalType": "enum TradeStatus",
              "name": "status",
              "type": "uint8"
            }
          ],
          "internalType": "struct Trade",
          "name": "",
          "type": "tuple"
        }
      ],
      "stateMutability": "view",
      "type": "function"
    },
    {
      "inputs": [
        {
          "internalType": "uint256",
          "name": "tradeId",
          "type": "uint256"
        },
        {
          "internalType": "uint256",
          "name": "quantity",
          "type": "uint256"
        }
      ],
      "name": "buy",
      "outputs": [],
      "stateMutability": "nonpayable",
      "type": "function"
    },
    {
      "inputs": [
        {
          "internalType": "address",
          "name": "seller",
          "type": "address"
        },
        {
          "internalType": "address",
          "name": "token",
          "type": "address"
        },
        {
          "internalType": "uint256",
          "name": "tokenId",
          "type": "uint256"
        },
        {
          "internalType": "uint256",
          "name": "quantity",
          "type": "uint256"
        },
        {
          "internalType": "address",
          "name": "currency",
          "type": "address"
        },
        {
          "internalType": "uint256",
          "name": "price",
          "type": "uint256"
        },
        {
          "internalType": "uint256",
          "name": "expiry",
          "type": "uint256"
        },
        {
          "internalType": "uint256",
          "name": "salt",
          "type": "uint256"
        }
      ],
      "name": "getSaleAuthorizationHash",
      "outputs": [
        {
          "internalType": "bytes32",
          "name": "",
          "type": "bytes32"
        }
      ],
      "stateMutability": "view",
      "type": "function"
    },
    {
      "inputs": [
        {
          "internalType": "address",
          "name": "seller",
          "type": "address"
        },
        {
          "internalType": "address",
          "name": "token",
          "type": "address"
        },
        {
          "internalType": "uint256",
          "name": "tokenId",
          "type": "uint256"
        },
        {
          "internalType": "uint256",
          "name": "quantity",
          "type": "uint256"
        },
        {
          "internalType": "address",
          "name": "currency",
          "type": "address"
        },
        {
          "internalType": "uint256",
          "name": "price",
          "type": "uint256"
        },
        {
          "internalType": "uint256",
          "name": "expiry",
          "type": "uint256"
        },
        {
          "internalType": "uint256",
          "name": "salt",
          "type": "uint256"
        },
        {
          "internalType": "bytes",
          "name": "signature",
          "type": "bytes"
        }
      ],
      "name": "listForSale",
      "outputs": [],
      "stateMutability": "nonpayable",
      "type": "function"
    },
    {
      "inputs": [
        {
          "internalType": "uint256",
          "name": "tradeId",
          "type": "uint256"
        }
      ],
      "name": "cancel",
      "outputs": [],
      "stateMutability": "nonpayable",
      "type": "function"
    },
    {
      "inputs": [
        {
          "internalType": "address",
          "name": "currency",
          "type": "address"
        },
        {
          "internalType": "address",
          "name": "account",
          "type": "address"
        }
      ],
      "name": "getBalance",
      "outputs": [
        {
          "internalType": "uint256",
          "name": "",
          "type": "uint256"
        }
      ],
      "stateMutability": "view",
      "type": "function"
    },
    {
      "inputs": [
        {
          "internalType": "address",
          "name": "currency",
          "type": "address"
        },
        {
          "internalType": "uint256",
          "name": "amount",
          "type": "uint256"
        }
      ],
      "name": "withdraw",
      "outputs": [],
      "stateMutability": "nonpayable",
      "type": "function"
    },
    {
      "inputs": [
        {
          "internalType": "address",
          "name": "beneficiary",
          "type": "address"
        }
      ],
      "name": "setFeeBeneficiary",
      "outputs": [],
      "stateMutability": "nonpayable",
      "type": "function"
    },
    {
      "inputs": [
        {
          "internalType": "address",
          "name": "token",
          "type": "address"
        },
        {
          "internalType": "bool",
          "name": "isApproved",
          "type": "bool"
        }
      ],
      "name": "setTokenApproval",
      "outputs": [],
      "stateMutability": "nonpayable",
      "type": "function"
    },
    {
      "inputs": [
        {
          "internalType": "address",
          "name": "currency",
          "type": "address"
        },
        {
          "internalType": "bool",
          "name": "isApproved",
          "type": "bool"
        }
      ],
      "name": "setCurrencyApproval",
      "outputs": [],
      "stateMutability": "nonpayable",
      "type": "function"
    },
    {
      "inputs": [
        {
          "internalType": "uint256",
          "name": "price",
          "type": "uint256"
        }
      ],
      "name": "setMaxTokenPriceEther",
      "outputs": [],
      "stateMutability": "nonpayable",
      "type": "function"
    },
    {
      "inputs": [
        {
          "internalType": "uint256",
          "name": "price",
          "type": "uint256"
        }
      ],
      "name": "setMaxTokenPriceWei",
      "outputs": [],
      "stateMutability": "nonpayable",
      "type": "function"
    },
    {
      "inputs": [
        {
          "internalType": "uint256",
          "name": "quantity",
          "type": "uint256"
        }
      ],
      "name": "setMaxTradeQuantity",
      "outputs": [],
      "stateMutability": "nonpayable",
      "type": "function"
    },
    {
      "inputs": [
        {
          "internalType": "uint256",
          "name": "pct",
          "type": "uint256"
        }
      ],
      "name": "setBuyerFeePct",
      "outputs": [],
      "stateMutability": "nonpayable",
      "type": "function"
    },
    {
      "inputs": [
        {
          "internalType": "uint256",
          "name": "pct",
          "type": "uint256"
        }
      ],
      "name": "setSellerFeePct",
      "outputs": [],
      "stateMutability": "nonpayable",
      "type": "function"
    },
    {
      "inputs": [],
      "name": "pause",
      "outputs": [],
      "stateMutability": "nonpayable",
      "type": "function"
    },
    {
      "inputs": [],
      "name": "resume",
      "outputs": [],
      "stateMutability": "nonpayable",
      "type": "function"
    }
  ],
  "bytecode": "0x6080604052611388600255611388600355620186a060045569d3c21bcecceda1000000600555620f424060065560045460075560006009556000600d556000600f553480156200004e57600080fd5b50604051620053bd380380620053bd8339818101604052810190620000749190620003a0565b6000600160006101000a81548160ff021916908315150217905550620000a46000801b336200019460201b60201c565b620000d67fa49807205ce4d355092ef5a8a18f56e8913cf4a201fbe287825b095693c21775336200019460201b60201c565b6200010b7fa49807205ce4d355092ef5a8a18f56e8913cf4a201fbe287825b095693c217756000801b620001aa60201b60201c565b33601160006101000a81548173ffffffffffffffffffffffffffffffffffffffff021916908373ffffffffffffffffffffffffffffffffffffffff16021790555080601260006101000a81548173ffffffffffffffffffffffffffffffffffffffff021916908373ffffffffffffffffffffffffffffffffffffffff1602179055505062000439565b620001a682826200020760201b60201c565b5050565b80620001bc83620002f860201b60201c565b837fbd79b86ffe0ab8e8776151514217cd7cacd52c909f66475c3af44e129f0b00ff60405160405180910390a480600080848152602001908152602001600020600101819055505050565b6200021982826200031760201b60201c565b620002f457600160008084815260200190815260200160002060000160008373ffffffffffffffffffffffffffffffffffffffff1673ffffffffffffffffffffffffffffffffffffffff16815260200190815260200160002060006101000a81548160ff021916908315150217905550620002996200038160201b60201c565b73ffffffffffffffffffffffffffffffffffffffff168173ffffffffffffffffffffffffffffffffffffffff16837f2f8788117e7eff1d82e926ec794901d17c78024a50270940304540a733656f0d60405160405180910390a45b5050565b6000806000838152602001908152602001600020600101549050919050565b600080600084815260200190815260200160002060000160008373ffffffffffffffffffffffffffffffffffffffff1673ffffffffffffffffffffffffffffffffffffffff16815260200190815260200160002060009054906101000a900460ff16905092915050565b600033905090565b6000815190506200039a816200041f565b92915050565b600060208284031215620003b957620003b86200041a565b5b6000620003c98482850162000389565b91505092915050565b6000620003df82620003fa565b9050919050565b6000620003f382620003d2565b9050919050565b600073ffffffffffffffffffffffffffffffffffffffff82169050919050565b600080fd5b6200042a81620003e6565b81146200043657600080fd5b50565b614f7480620004496000396000f3fe608060405234801561001057600080fd5b50600436106101fb5760003560e01c80638662732e1161011a578063d428dc2b116100ad578063e45ad64a1161007c578063e45ad64a14610576578063e6a5010014610592578063f3fef3a3146105ae578063fbb5470c146105ca578063fd1fc13e146105fa576101fb565b8063d428dc2b146104f0578063d4fac45d1461050e578063d547741f1461053e578063d6febde81461055a576101fb565b8063a217fddf116100e9578063a217fddf1461047e578063b8358a611461049c578063bca99819146104b8578063c661b89d146104d4576101fb565b80638662732e146103d05780638ce5ab6a1461040057806391d148541461041e5780639507d39a1461044e576101fb565b80635a0a3d821161019257806375b238fc1161016157806375b238fc1461036c57806377e5c4a81461038a5780638456cb59146103a857806385d561ae146103b2576101fb565b80635a0a3d82146102f85780635c975abb146103145780635dabb20e14610332578063670436f114610350576101fb565b80632b483c03116101ce5780632b483c03146102865780632f2ff15d146102a457806336568abe146102c057806340e58ee5146102dc576101fb565b806301ffc9a714610200578063046f7da21461023057806314d91c841461023a578063248a9ca314610256575b600080fd5b61021a600480360381019061021591906136ac565b610616565b6040516102279190613fcd565b60405180910390f35b610238610628565b005b610254600480360381019061024f9190613500565b610665565b005b610270600480360381019061026b919061363f565b6106f3565b60405161027d9190613fe8565b60405180910390f35b61028e610712565b60405161029b91906143a1565b60405180910390f35b6102be60048036038101906102b9919061366c565b610718565b005b6102da60048036038101906102d5919061366c565b610741565b005b6102f660048036038101906102f19190613735565b6107c4565b005b610312600480360381019061030d91906132f2565b610b7f565b005b61031c610bd9565b6040516103299190613fcd565b60405180910390f35b61033a610bf0565b60405161034791906143a1565b60405180910390f35b61036a60048036038101906103659190613500565b610bf6565b005b610374610c84565b6040516103819190613fe8565b60405180910390f35b610392610ca8565b60405161039f91906143a1565b60405180910390f35b6103b0610cae565b005b6103ba610ceb565b6040516103c791906143a1565b60405180910390f35b6103ea60048036038101906103e5919061335f565b610cf1565b6040516103f79190613fe8565b60405180910390f35b610408610d38565b60405161041591906143a1565b60405180910390f35b6104386004803603810190610433919061366c565b610d3e565b6040516104459190613fcd565b60405180910390f35b61046860048036038101906104639190613735565b610da8565b6040516104759190614385565b60405180910390f35b610486610f45565b6040516104939190613fe8565b60405180910390f35b6104b660048036038101906104b19190613415565b610f4c565b005b6104d260048036038101906104cd9190613735565b611797565b005b6104ee60048036038101906104e99190613735565b6117e7565b005b6104f8611869565b60405161050591906143a1565b60405180910390f35b6105286004803603810190610523919061331f565b61186f565b60405161053591906143a1565b60405180910390f35b6105586004803603810190610553919061366c565b6118f6565b005b610574600480360381019061056f919061378f565b61191f565b005b610590600480360381019061058b9190613735565b611f86565b005b6105ac60048036038101906105a79190613735565b612008565b005b6105c860048036038101906105c39190613540565b612045565b005b6105e460048036038101906105df91906136d9565b612229565b6040516105f191906143a1565b60405180910390f35b610614600480360381019061060f9190613735565b612270565b005b6000610621826122ad565b9050919050565b7fa49807205ce4d355092ef5a8a18f56e8913cf4a201fbe287825b095693c2177561065a81610655612327565b61232f565b6106626123cc565b50565b7fa49807205ce4d355092ef5a8a18f56e8913cf4a201fbe287825b095693c2177561069781610692612327565b61232f565b81600c60008573ffffffffffffffffffffffffffffffffffffffff1673ffffffffffffffffffffffffffffffffffffffff16815260200190815260200160002060006101000a81548160ff021916908315150217905550505050565b6000806000838152602001908152602001600020600101549050919050565b60035481565b610721826106f3565b6107328161072d612327565b61232f565b61073c838361246e565b505050565b610749612327565b73ffffffffffffffffffffffffffffffffffffffff168173ffffffffffffffffffffffffffffffffffffffff16146107b6576040517f08c379a00000000000000000000000000000000000000000000000000000000081526004016107ad90614365565b60405180910390fd5b6107c0828261254e565b5050565b6000600a600083815260200190815260200160002060405180610120016040529081600082015481526020016001820160009054906101000a900473ffffffffffffffffffffffffffffffffffffffff1673ffffffffffffffffffffffffffffffffffffffff1673ffffffffffffffffffffffffffffffffffffffff1681526020016002820160009054906101000a900473ffffffffffffffffffffffffffffffffffffffff1673ffffffffffffffffffffffffffffffffffffffff1673ffffffffffffffffffffffffffffffffffffffff1681526020016003820154815260200160048201548152602001600582015481526020016006820160009054906101000a900473ffffffffffffffffffffffffffffffffffffffff1673ffffffffffffffffffffffffffffffffffffffff1673ffffffffffffffffffffffffffffffffffffffff168152602001600782015481526020016008820160009054906101000a900460ff16600281111561093e5761093d6148a0565b5b60028111156109505761094f6148a0565b5b8152505090506000600281111561096a576109696148a0565b5b8161010001516002811115610982576109816148a0565b5b146109c2576040517f08c379a00000000000000000000000000000000000000000000000000000000081526004016109b990614165565b60405180910390fd5b806020015173ffffffffffffffffffffffffffffffffffffffff163373ffffffffffffffffffffffffffffffffffffffff161480610a265750610a257fa49807205ce4d355092ef5a8a18f56e8913cf4a201fbe287825b095693c2177533610d3e565b5b610a65576040517f08c379a0000000000000000000000000000000000000000000000000000000008152600401610a5c90614125565b60405180910390fd5b6002600a600084815260200190815260200160002060080160006101000a81548160ff02191690836002811115610a9f57610a9e6148a0565b5b0217905550601260009054906101000a900473ffffffffffffffffffffffffffffffffffffffff1673ffffffffffffffffffffffffffffffffffffffff16632ed7bae882604001513384606001518560a001516040518563ffffffff1660e01b8152600401610b119493929190613f5f565b600060405180830381600087803b158015610b2b57600080fd5b505af1158015610b3f573d6000803e3d6000fd5b50505050817f8dd3c361eb2366ff27c2db0eb07b9261f1d052570742ab8c9a0c326f37aa576d33604051610b739190613ee4565b60405180910390a25050565b6000801b610b9481610b8f612327565b61232f565b81601160006101000a81548173ffffffffffffffffffffffffffffffffffffffff021916908373ffffffffffffffffffffffffffffffffffffffff1602179055505050565b6000600160009054906101000a900460ff16905090565b60075481565b7fa49807205ce4d355092ef5a8a18f56e8913cf4a201fbe287825b095693c21775610c2881610c23612327565b61232f565b81600e60008573ffffffffffffffffffffffffffffffffffffffff1673ffffffffffffffffffffffffffffffffffffffff16815260200190815260200160002060006101000a81548160ff021916908315150217905550505050565b7fa49807205ce4d355092ef5a8a18f56e8913cf4a201fbe287825b095693c2177581565b60055481565b7fa49807205ce4d355092ef5a8a18f56e8913cf4a201fbe287825b095693c21775610ce081610cdb612327565b61232f565b610ce861262f565b50565b60065481565b6000308989898989898989604051602001610d1499989796959493929190613d9e565b60405160208183030381529060405280519060200120905098975050505050505050565b60025481565b600080600084815260200190815260200160002060000160008373ffffffffffffffffffffffffffffffffffffffff1673ffffffffffffffffffffffffffffffffffffffff16815260200190815260200160002060009054906101000a900460ff16905092915050565b610db0612fa8565b600a600083815260200190815260200160002060405180610120016040529081600082015481526020016001820160009054906101000a900473ffffffffffffffffffffffffffffffffffffffff1673ffffffffffffffffffffffffffffffffffffffff1673ffffffffffffffffffffffffffffffffffffffff1681526020016002820160009054906101000a900473ffffffffffffffffffffffffffffffffffffffff1673ffffffffffffffffffffffffffffffffffffffff1673ffffffffffffffffffffffffffffffffffffffff1681526020016003820154815260200160048201548152602001600582015481526020016006820160009054906101000a900473ffffffffffffffffffffffffffffffffffffffff1673ffffffffffffffffffffffffffffffffffffffff1673ffffffffffffffffffffffffffffffffffffffff168152602001600782015481526020016008820160009054906101000a900460ff166002811115610f2857610f276148a0565b5b6002811115610f3a57610f396148a0565b5b815250509050919050565b6000801b81565b610f54610bd9565b15610f94576040517f08c379a0000000000000000000000000000000000000000000000000000000008152600401610f8b906141e5565b60405180910390fd5b600754851015610fd9576040517f08c379a0000000000000000000000000000000000000000000000000000000008152600401610fd090614265565b60405180910390fd5b60055485111561101e576040517f08c379a000000000000000000000000000000000000000000000000000000000815260040161101590614205565b60405180910390fd5b600654871115611063576040517f08c379a000000000000000000000000000000000000000000000000000000000815260040161105a90614225565b60405180910390fd5b600c60008a73ffffffffffffffffffffffffffffffffffffffff1673ffffffffffffffffffffffffffffffffffffffff16815260200190815260200160002060009054906101000a900460ff166110ef576040517f08c379a00000000000000000000000000000000000000000000000000000000081526004016110e690614245565b60405180910390fd5b600e60008773ffffffffffffffffffffffffffffffffffffffff1673ffffffffffffffffffffffffffffffffffffffff16815260200190815260200160002060009054906101000a900460ff1661117b576040517f08c379a0000000000000000000000000000000000000000000000000000000008152600401611172906141a5565b60405180910390fd5b6111a57fa49807205ce4d355092ef5a8a18f56e8913cf4a201fbe287825b095693c2177533610d3e565b611394574284116111eb576040517f08c379a00000000000000000000000000000000000000000000000000000000081526004016111e2906142a5565b60405180910390fd5b60006111fd8b8b8b8b8b8b8b8b610cf1565b90506010600082815260200190815260200160002060009054906101000a900460ff1615611260576040517f08c379a0000000000000000000000000000000000000000000000000000000008152600401611257906142e5565b60405180910390fd5b60006112c184848080601f016020809104026020016040519081016040528093929190818152602001838380828437600081840152601f19601f820116905080830192505050505050506112b3846126d1565b61270190919063ffffffff16565b9050600073ffffffffffffffffffffffffffffffffffffffff168173ffffffffffffffffffffffffffffffffffffffff161415801561132657506113257fa49807205ce4d355092ef5a8a18f56e8913cf4a201fbe287825b095693c2177582610d3e565b5b611365576040517f08c379a000000000000000000000000000000000000000000000000000000000815260040161135c90614325565b60405180910390fd5b60016010600084815260200190815260200160002060006101000a81548160ff02191690831515021790555050505b8873ffffffffffffffffffffffffffffffffffffffff166301ffc9a77fd9b67a26000000000000000000000000000000000000000000000000000000006040518263ffffffff1660e01b81526004016113ed9190614048565b60206040518083038186803b15801561140557600080fd5b505afa158015611419573d6000803e3d6000fd5b505050506040513d601f19601f8201168201806040525081019061143d9190613612565b61144657600196505b601260009054906101000a900473ffffffffffffffffffffffffffffffffffffffff1673ffffffffffffffffffffffffffffffffffffffff166340fd58298a8c8b8b6040518563ffffffff1660e01b81526004016114a79493929190613f5f565b600060405180830381600087803b1580156114c157600080fd5b505af11580156114d5573d6000803e3d6000fd5b50505050600960008154809291906114ec906147c1565b9190505550600060405180610120016040528060095481526020018c73ffffffffffffffffffffffffffffffffffffffff1681526020018b73ffffffffffffffffffffffffffffffffffffffff1681526020018a81526020018981526020018981526020018873ffffffffffffffffffffffffffffffffffffffff16815260200187815260200160006002811115611587576115866148a0565b5b815250905080600a600060095481526020019081526020016000206000820151816000015560208201518160010160006101000a81548173ffffffffffffffffffffffffffffffffffffffff021916908373ffffffffffffffffffffffffffffffffffffffff16021790555060408201518160020160006101000a81548173ffffffffffffffffffffffffffffffffffffffff021916908373ffffffffffffffffffffffffffffffffffffffff160217905550606082015181600301556080820151816004015560a0820151816005015560c08201518160060160006101000a81548173ffffffffffffffffffffffffffffffffffffffff021916908373ffffffffffffffffffffffffffffffffffffffff16021790555060e082015181600701556101008201518160080160006101000a81548160ff021916908360028111156116d5576116d46148a0565b5b021790555090505060088a8a6040516020016116f2929190613e41565b60405160208183030381529060405260405161170e9190613e6d565b908152602001604051809103902060095490806001815401808255809150506001900390600052602060002001600090919091909150557f8c043961a2a3de4608ff0a3647fa6bdef2510bbf7ea923cd9b68bd43de4040e46009548c8c8c8c8c8c60405161178297969594939291906143bc565b60405180910390a15050505050505050505050565b7fa49807205ce4d355092ef5a8a18f56e8913cf4a201fbe287825b095693c217756117c9816117c4612327565b61232f565b670de0b6b3a7640000826117dd91906145d4565b6005819055505050565b7fa49807205ce4d355092ef5a8a18f56e8913cf4a201fbe287825b095693c2177561181981611814612327565b61232f565b60045482111561185e576040517f08c379a000000000000000000000000000000000000000000000000000000000815260040161185590614305565b60405180910390fd5b816003819055505050565b60045481565b6000600b60008373ffffffffffffffffffffffffffffffffffffffff1673ffffffffffffffffffffffffffffffffffffffff16815260200190815260200160002060008473ffffffffffffffffffffffffffffffffffffffff1673ffffffffffffffffffffffffffffffffffffffff16815260200190815260200160002054905092915050565b6118ff826106f3565b6119108161190b612327565b61232f565b61191a838361254e565b505050565b611927610bd9565b15611967576040517f08c379a000000000000000000000000000000000000000000000000000000000815260040161195e906141e5565b60405180910390fd5b6000600a600084815260200190815260200160002060405180610120016040529081600082015481526020016001820160009054906101000a900473ffffffffffffffffffffffffffffffffffffffff1673ffffffffffffffffffffffffffffffffffffffff1673ffffffffffffffffffffffffffffffffffffffff1681526020016002820160009054906101000a900473ffffffffffffffffffffffffffffffffffffffff1673ffffffffffffffffffffffffffffffffffffffff1673ffffffffffffffffffffffffffffffffffffffff1681526020016003820154815260200160048201548152602001600582015481526020016006820160009054906101000a900473ffffffffffffffffffffffffffffffffffffffff1673ffffffffffffffffffffffffffffffffffffffff1673ffffffffffffffffffffffffffffffffffffffff168152602001600782015481526020016008820160009054906101000a900460ff166002811115611ae157611ae06148a0565b5b6002811115611af357611af26148a0565b5b81525050905060006002811115611b0d57611b0c6148a0565b5b8161010001516002811115611b2557611b246148a0565b5b14611b65576040517f08c379a0000000000000000000000000000000000000000000000000000000008152600401611b5c90614145565b60405180910390fd5b8060a00151821115611bac576040517f08c379a0000000000000000000000000000000000000000000000000000000008152600401611ba3906140c5565b60405180910390fd5b806020015173ffffffffffffffffffffffffffffffffffffffff163373ffffffffffffffffffffffffffffffffffffffff161415611c1f576040517f08c379a0000000000000000000000000000000000000000000000000000000008152600401611c16906142c5565b60405180910390fd5b6000828260e00151611c3191906145d4565b905060008260c001519050600080611c48846127cb565b9150915060008373ffffffffffffffffffffffffffffffffffffffff1663dd62ed3e33306040518363ffffffff1660e01b8152600401611c89929190613eff565b60206040518083038186803b158015611ca157600080fd5b505afa158015611cb5573d6000803e3d6000fd5b505050506040513d601f19601f82011682018060405250810190611cd99190613762565b90508185611ce7919061454d565b811015611d29576040517f08c379a0000000000000000000000000000000000000000000000000000000008152600401611d20906141c5565b60405180910390fd5b8373ffffffffffffffffffffffffffffffffffffffff166323b872dd33308589611d53919061454d565b6040518463ffffffff1660e01b8152600401611d7193929190613f28565b602060405180830381600087803b158015611d8b57600080fd5b505af1158015611d9f573d6000803e3d6000fd5b505050506040513d601f19601f82011682018060405250810190611dc39190613612565b506000878760a00151611dd6919061462e565b905080600a60008b8152602001908152602001600020600501819055506000811415611e73576001600a60008b815260200190815260200160002060080160006101000a81548160ff02191690836002811115611e3657611e356148a0565b5b02179055507f522881958b3c4a6fc0840ad3b7fb947b881edc28c004245a62541647422ade9789604051611e6a91906143a1565b60405180910390a15b6000611e8f8786868b604001518c606001518d60c0015161280d565b9050611ea48860c00151896020015183612adf565b601260009054906101000a900473ffffffffffffffffffffffffffffffffffffffff1673ffffffffffffffffffffffffffffffffffffffff16632ed7bae88960400151338b606001518d6040518563ffffffff1660e01b8152600401611f0d9493929190613f5f565b600060405180830381600087803b158015611f2757600080fd5b505af1158015611f3b573d6000803e3d6000fd5b505050507f3b599f6217e39be59216b60e543ce0d4c7d534fe64dd9d962334924e7819894e8a338b604051611f729392919061442b565b60405180910390a150505050505050505050565b7fa49807205ce4d355092ef5a8a18f56e8913cf4a201fbe287825b095693c21775611fb881611fb3612327565b61232f565b600454821115611ffd576040517f08c379a0000000000000000000000000000000000000000000000000000000008152600401611ff490614305565b60405180910390fd5b816002819055505050565b7fa49807205ce4d355092ef5a8a18f56e8913cf4a201fbe287825b095693c2177561203a81612035612327565b61232f565b816006819055505050565b80600b60003373ffffffffffffffffffffffffffffffffffffffff1673ffffffffffffffffffffffffffffffffffffffff16815260200190815260200160002060008473ffffffffffffffffffffffffffffffffffffffff1673ffffffffffffffffffffffffffffffffffffffff168152602001908152602001600020541015612104576040517f08c379a00000000000000000000000000000000000000000000000000000000081526004016120fb90614345565b60405180910390fd5b80600b60003373ffffffffffffffffffffffffffffffffffffffff1673ffffffffffffffffffffffffffffffffffffffff16815260200190815260200160002060008473ffffffffffffffffffffffffffffffffffffffff1673ffffffffffffffffffffffffffffffffffffffff1681526020019081526020016000206000828254612190919061462e565b925050819055508173ffffffffffffffffffffffffffffffffffffffff1663a9059cbb33836040518363ffffffff1660e01b81526004016121d2929190613fa4565b602060405180830381600087803b1580156121ec57600080fd5b505af1158015612200573d6000803e3d6000fd5b505050506040513d601f19601f820116820180604052508101906122249190613612565b505050565b600882805160208101820180518482526020830160208501208183528095505050505050818154811061225b57600080fd5b90600052602060002001600091509150505481565b7fa49807205ce4d355092ef5a8a18f56e8913cf4a201fbe287825b095693c217756122a28161229d612327565b61232f565b816005819055505050565b60007f7965db0b000000000000000000000000000000000000000000000000000000007bffffffffffffffffffffffffffffffffffffffffffffffffffffffff1916827bffffffffffffffffffffffffffffffffffffffffffffffffffffffff19161480612320575061231f82612b77565b5b9050919050565b600033905090565b6123398282610d3e565b6123c85761235e8173ffffffffffffffffffffffffffffffffffffffff166014612be1565b61236c8360001c6020612be1565b60405160200161237d929190613eaa565b6040516020818303038152906040526040517f08c379a00000000000000000000000000000000000000000000000000000000081526004016123bf9190614063565b60405180910390fd5b5050565b6123d4610bd9565b612413576040517f08c379a000000000000000000000000000000000000000000000000000000000815260040161240a906140e5565b60405180910390fd5b6000600160006101000a81548160ff0219169083151502179055507f5db9ee0a495bf2e6ff9c91a7834c1ba4fdd244a5e8aa4e537bd38aeae4b073aa612457612327565b6040516124649190613ee4565b60405180910390a1565b6124788282610d3e565b61254a57600160008084815260200190815260200160002060000160008373ffffffffffffffffffffffffffffffffffffffff1673ffffffffffffffffffffffffffffffffffffffff16815260200190815260200160002060006101000a81548160ff0219169083151502179055506124ef612327565b73ffffffffffffffffffffffffffffffffffffffff168173ffffffffffffffffffffffffffffffffffffffff16837f2f8788117e7eff1d82e926ec794901d17c78024a50270940304540a733656f0d60405160405180910390a45b5050565b6125588282610d3e565b1561262b57600080600084815260200190815260200160002060000160008373ffffffffffffffffffffffffffffffffffffffff1673ffffffffffffffffffffffffffffffffffffffff16815260200190815260200160002060006101000a81548160ff0219169083151502179055506125d0612327565b73ffffffffffffffffffffffffffffffffffffffff168173ffffffffffffffffffffffffffffffffffffffff16837ff6391f5c32d9c69d2a47ea670b442974b53935d1edc7fd64eb21e047a839171b60405160405180910390a45b5050565b612637610bd9565b15612677576040517f08c379a000000000000000000000000000000000000000000000000000000000815260040161266e906141e5565b60405180910390fd5b60018060006101000a81548160ff0219169083151502179055507f62e78cea01bee320cd4e420270b5ea74000d11b0c9f74754ebdbfc544b05a2586126ba612327565b6040516126c79190613ee4565b60405180910390a1565b6000816040516020016126e49190613e84565b604051602081830303815290604052805190602001209050919050565b60008060008060418551141561272e576020850151925060408501519150606085015160001a90506127b4565b604085511415612778576040850151602086015193507f7fffffffffffffffffffffffffffffffffffffffffffffffffffffffffffffff81169250601b8160ff1c019150506127b3565b6040517f08c379a00000000000000000000000000000000000000000000000000000000081526004016127aa90614105565b60405180910390fd5b5b6127c086828585612e1d565b935050505092915050565b600080600454600254846127df91906145d4565b6127e991906145a3565b9050600454600354846127fc91906145d4565b61280691906145a3565b9150915091565b600085871115612826578587612823919061462e565b96505b86905061286182601160009054906101000a900473ffffffffffffffffffffffffffffffffffffffff16878961285c919061454d565b612adf565b8373ffffffffffffffffffffffffffffffffffffffff166301ffc9a763b779958460e01b6040518263ffffffff1660e01b81526004016128a19190614048565b60206040518083038186803b1580156128b957600080fd5b505afa1580156128cd573d6000803e3d6000fd5b505050506040513d601f19601f820116820180604052508101906128f19190613612565b6128fa57612ad5565b600084905060008173ffffffffffffffffffffffffffffffffffffffff1663b9c4d9fb866040518263ffffffff1660e01b815260040161293a91906143a1565b60006040518083038186803b15801561295257600080fd5b505afa158015612966573d6000803e3d6000fd5b505050506040513d6000823e3d601f19601f8201168201806040525081019061298f9190613580565b905060008273ffffffffffffffffffffffffffffffffffffffff16630ebd4c7f876040518263ffffffff1660e01b81526004016129cc91906143a1565b60006040518083038186803b1580156129e457600080fd5b505afa1580156129f8573d6000803e3d6000fd5b505050506040513d6000823e3d601f19601f82011682018060405250810190612a2191906135c9565b905060005b8151811015612ad0576000851415612a3d57612ad0565b6000600454838381518110612a5557612a546148cf565b5b60200260200101518d612a6891906145d4565b612a7291906145a3565b905085811115612a885785905060009550612a97565b8086612a94919061462e565b95505b612abc87858481518110612aae57612aad6148cf565b5b602002602001015183612adf565b508080612ac8906147c1565b915050612a26565b505050505b9695505050505050565b80600b60008473ffffffffffffffffffffffffffffffffffffffff1673ffffffffffffffffffffffffffffffffffffffff16815260200190815260200160002060008573ffffffffffffffffffffffffffffffffffffffff1673ffffffffffffffffffffffffffffffffffffffff1681526020019081526020016000206000828254612b6b919061454d565b92505081905550505050565b60007f01ffc9a7000000000000000000000000000000000000000000000000000000007bffffffffffffffffffffffffffffffffffffffffffffffffffffffff1916827bffffffffffffffffffffffffffffffffffffffffffffffffffffffff1916149050919050565b606060006002836002612bf491906145d4565b612bfe919061454d565b67ffffffffffffffff811115612c1757612c166148fe565b5b6040519080825280601f01601f191660200182016040528015612c495781602001600182028036833780820191505090505b5090507f300000000000000000000000000000000000000000000000000000000000000081600081518110612c8157612c806148cf565b5b60200101907effffffffffffffffffffffffffffffffffffffffffffffffffffffffffffff1916908160001a9053507f780000000000000000000000000000000000000000000000000000000000000081600181518110612ce557612ce46148cf565b5b60200101907effffffffffffffffffffffffffffffffffffffffffffffffffffffffffffff1916908160001a90535060006001846002612d2591906145d4565b612d2f919061454d565b90505b6001811115612dcf577f3031323334353637383961626364656600000000000000000000000000000000600f861660108110612d7157612d706148cf565b5b1a60f81b828281518110612d8857612d876148cf565b5b60200101907effffffffffffffffffffffffffffffffffffffffffffffffffffffffffffff1916908160001a905350600485901c945080612dc890614766565b9050612d32565b5060008414612e13576040517f08c379a0000000000000000000000000000000000000000000000000000000008152600401612e0a906140a5565b60405180910390fd5b8091505092915050565b60007f7fffffffffffffffffffffffffffffff5d576e7357a4501ddfe92f46681b20a08260001c1115612e85576040517f08c379a0000000000000000000000000000000000000000000000000000000008152600401612e7c90614185565b60405180910390fd5b601b8460ff161480612e9a5750601c8460ff16145b612ed9576040517f08c379a0000000000000000000000000000000000000000000000000000000008152600401612ed090614285565b60405180910390fd5b600060018686868660405160008152602001604052604051612efe9493929190614003565b6020604051602081039080840390855afa158015612f20573d6000803e3d6000fd5b505050602060405103519050600073ffffffffffffffffffffffffffffffffffffffff168173ffffffffffffffffffffffffffffffffffffffff161415612f9c576040517f08c379a0000000000000000000000000000000000000000000000000000000008152600401612f9390614085565b60405180910390fd5b80915050949350505050565b60405180610120016040528060008152602001600073ffffffffffffffffffffffffffffffffffffffff168152602001600073ffffffffffffffffffffffffffffffffffffffff168152602001600081526020016000815260200160008152602001600073ffffffffffffffffffffffffffffffffffffffff1681526020016000815260200160006002811115613042576130416148a0565b5b81525090565b600061305b61305684614487565b614462565b9050808382526020820190508285602086028201111561307e5761307d614937565b5b60005b858110156130ae5781613094888261317f565b845260208401935060208301925050600181019050613081565b5050509392505050565b60006130cb6130c6846144b3565b614462565b905080838252602082019050828560208602820111156130ee576130ed614937565b5b60005b8581101561311e578161310488826132dd565b8452602084019350602083019250506001810190506130f1565b5050509392505050565b600061313b613136846144df565b614462565b9050828152602081018484840111156131575761315661493c565b5b613162848285614724565b509392505050565b60008135905061317981614eb4565b92915050565b60008151905061318e81614ecb565b92915050565b600082601f8301126131a9576131a8614932565b5b81516131b9848260208601613048565b91505092915050565b600082601f8301126131d7576131d6614932565b5b81516131e78482602086016130b8565b91505092915050565b6000813590506131ff81614ee2565b92915050565b60008151905061321481614ee2565b92915050565b60008135905061322981614ef9565b92915050565b60008135905061323e81614f10565b92915050565b60008083601f84011261325a57613259614932565b5b8235905067ffffffffffffffff8111156132775761327661492d565b5b60208301915083600182028301111561329357613292614937565b5b9250929050565b600082601f8301126132af576132ae614932565b5b81356132bf848260208601613128565b91505092915050565b6000813590506132d781614f27565b92915050565b6000815190506132ec81614f27565b92915050565b60006020828403121561330857613307614946565b5b60006133168482850161316a565b91505092915050565b6000806040838503121561333657613335614946565b5b60006133448582860161316a565b92505060206133558582860161316a565b9150509250929050565b600080600080600080600080610100898b0312156133805761337f614946565b5b600061338e8b828c0161316a565b985050602061339f8b828c0161316a565b97505060406133b08b828c016132c8565b96505060606133c18b828c016132c8565b95505060806133d28b828c0161316a565b94505060a06133e38b828c016132c8565b93505060c06133f48b828c016132c8565b92505060e06134058b828c016132c8565b9150509295985092959890939650565b6000806000806000806000806000806101208b8d03121561343957613438614946565b5b60006134478d828e0161316a565b9a505060206134588d828e0161316a565b99505060406134698d828e016132c8565b985050606061347a8d828e016132c8565b975050608061348b8d828e0161316a565b96505060a061349c8d828e016132c8565b95505060c06134ad8d828e016132c8565b94505060e06134be8d828e016132c8565b9350506101008b013567ffffffffffffffff8111156134e0576134df614941565b5b6134ec8d828e01613244565b92509250509295989b9194979a5092959850565b6000806040838503121561351757613516614946565b5b60006135258582860161316a565b9250506020613536858286016131f0565b9150509250929050565b6000806040838503121561355757613556614946565b5b60006135658582860161316a565b9250506020613576858286016132c8565b9150509250929050565b60006020828403121561359657613595614946565b5b600082015167ffffffffffffffff8111156135b4576135b3614941565b5b6135c084828501613194565b91505092915050565b6000602082840312156135df576135de614946565b5b600082015167ffffffffffffffff8111156135fd576135fc614941565b5b613609848285016131c2565b91505092915050565b60006020828403121561362857613627614946565b5b600061363684828501613205565b91505092915050565b60006020828403121561365557613654614946565b5b60006136638482850161321a565b91505092915050565b6000806040838503121561368357613682614946565b5b60006136918582860161321a565b92505060206136a28582860161316a565b9150509250929050565b6000602082840312156136c2576136c1614946565b5b60006136d08482850161322f565b91505092915050565b600080604083850312156136f0576136ef614946565b5b600083013567ffffffffffffffff81111561370e5761370d614941565b5b61371a8582860161329a565b925050602061372b858286016132c8565b9150509250929050565b60006020828403121561374b5761374a614946565b5b6000613759848285016132c8565b91505092915050565b60006020828403121561377857613777614946565b5b6000613786848285016132dd565b91505092915050565b600080604083850312156137a6576137a5614946565b5b60006137b4858286016132c8565b92505060206137c5858286016132c8565b9150509250929050565b6137d881614662565b82525050565b6137e781614662565b82525050565b6137fe6137f982614662565b61480a565b82525050565b61380d81614686565b82525050565b61381c81614692565b82525050565b61383361382e82614692565b61481c565b82525050565b6138428161469c565b82525050565b600061385382614510565b61385d8185614526565b935061386d818560208601614733565b80840191505092915050565b61388281614712565b82525050565b60006138938261451b565b61389d8185614531565b93506138ad818560208601614733565b6138b68161494b565b840191505092915050565b60006138cc8261451b565b6138d68185614542565b93506138e6818560208601614733565b80840191505092915050565b60006138ff601883614531565b915061390a82614969565b602082019050919050565b6000613922602083614531565b915061392d82614992565b602082019050919050565b6000613945601b83614531565b9150613950826149bb565b602082019050919050565b6000613968601483614531565b9150613973826149e4565b602082019050919050565b600061398b601f83614531565b915061399682614a0d565b602082019050919050565b60006139ae601c83614542565b91506139b982614a36565b601c82019050919050565b60006139d1602983614531565b91506139dc82614a5f565b604082019050919050565b60006139f4601283614531565b91506139ff82614aae565b602082019050919050565b6000613a17601f83614531565b9150613a2282614ad7565b602082019050919050565b6000613a3a602283614531565b9150613a4582614b00565b604082019050919050565b6000613a5d601883614531565b9150613a6882614b4f565b602082019050919050565b6000613a80601583614531565b9150613a8b82614b78565b602082019050919050565b6000613aa3601083614531565b9150613aae82614ba1565b602082019050919050565b6000613ac6601283614531565b9150613ad182614bca565b602082019050919050565b6000613ae9601983614531565b9150613af482614bf3565b602082019050919050565b6000613b0c601e83614531565b9150613b1782614c1c565b602082019050919050565b6000613b2f601183614531565b9150613b3a82614c45565b602082019050919050565b6000613b52602283614531565b9150613b5d82614c6e565b604082019050919050565b6000613b75601183614531565b9150613b8082614cbd565b602082019050919050565b6000613b98601783614531565b9150613ba382614ce6565b602082019050919050565b6000613bbb601383614531565b9150613bc682614d0f565b602082019050919050565b6000613bde601783614542565b9150613be982614d38565b601782019050919050565b6000613c01602a83614531565b9150613c0c82614d61565b604082019050919050565b6000613c24601283614531565b9150613c2f82614db0565b602082019050919050565b6000613c47602183614531565b9150613c5282614dd9565b604082019050919050565b6000613c6a601183614542565b9150613c7582614e28565b601182019050919050565b6000613c8d602f83614531565b9150613c9882614e51565b604082019050919050565b61012082016000820151613cba6000850182613d5a565b506020820151613ccd60208501826137cf565b506040820151613ce060408501826137cf565b506060820151613cf36060850182613d5a565b506080820151613d066080850182613d5a565b5060a0820151613d1960a0850182613d5a565b5060c0820151613d2c60c08501826137cf565b5060e0820151613d3f60e0850182613d5a565b50610100820151613d54610100850182613879565b50505050565b613d63816146fb565b82525050565b613d72816146fb565b82525050565b613d89613d84826146fb565b614838565b82525050565b613d9881614705565b82525050565b6000613daa828c6137ed565b601482019150613dba828b6137ed565b601482019150613dca828a6137ed565b601482019150613dda8289613d78565b602082019150613dea8288613d78565b602082019150613dfa82876137ed565b601482019150613e0a8286613d78565b602082019150613e1a8285613d78565b602082019150613e2a8284613d78565b6020820191508190509a9950505050505050505050565b6000613e4d82856137ed565b601482019150613e5d8284613d78565b6020820191508190509392505050565b6000613e798284613848565b915081905092915050565b6000613e8f826139a1565b9150613e9b8284613822565b60208201915081905092915050565b6000613eb582613bd1565b9150613ec182856138c1565b9150613ecc82613c5d565b9150613ed882846138c1565b91508190509392505050565b6000602082019050613ef960008301846137de565b92915050565b6000604082019050613f1460008301856137de565b613f2160208301846137de565b9392505050565b6000606082019050613f3d60008301866137de565b613f4a60208301856137de565b613f576040830184613d69565b949350505050565b6000608082019050613f7460008301876137de565b613f8160208301866137de565b613f8e6040830185613d69565b613f9b6060830184613d69565b95945050505050565b6000604082019050613fb960008301856137de565b613fc66020830184613d69565b9392505050565b6000602082019050613fe26000830184613804565b92915050565b6000602082019050613ffd6000830184613813565b92915050565b60006080820190506140186000830187613813565b6140256020830186613d8f565b6140326040830185613813565b61403f6060830184613813565b95945050505050565b600060208201905061405d6000830184613839565b92915050565b6000602082019050818103600083015261407d8184613888565b905092915050565b6000602082019050818103600083015261409e816138f2565b9050919050565b600060208201905081810360008301526140be81613915565b9050919050565b600060208201905081810360008301526140de81613938565b9050919050565b600060208201905081810360008301526140fe8161395b565b9050919050565b6000602082019050818103600083015261411e8161397e565b9050919050565b6000602082019050818103600083015261413e816139c4565b9050919050565b6000602082019050818103600083015261415e816139e7565b9050919050565b6000602082019050818103600083015261417e81613a0a565b9050919050565b6000602082019050818103600083015261419e81613a2d565b9050919050565b600060208201905081810360008301526141be81613a50565b9050919050565b600060208201905081810360008301526141de81613a73565b9050919050565b600060208201905081810360008301526141fe81613a96565b9050919050565b6000602082019050818103600083015261421e81613ab9565b9050919050565b6000602082019050818103600083015261423e81613adc565b9050919050565b6000602082019050818103600083015261425e81613aff565b9050919050565b6000602082019050818103600083015261427e81613b22565b9050919050565b6000602082019050818103600083015261429e81613b45565b9050919050565b600060208201905081810360008301526142be81613b68565b9050919050565b600060208201905081810360008301526142de81613b8b565b9050919050565b600060208201905081810360008301526142fe81613bae565b9050919050565b6000602082019050818103600083015261431e81613bf4565b9050919050565b6000602082019050818103600083015261433e81613c17565b9050919050565b6000602082019050818103600083015261435e81613c3a565b9050919050565b6000602082019050818103600083015261437e81613c80565b9050919050565b60006101208201905061439b6000830184613ca3565b92915050565b60006020820190506143b66000830184613d69565b92915050565b600060e0820190506143d1600083018a613d69565b6143de60208301896137de565b6143eb60408301886137de565b6143f86060830187613d69565b6144056080830186613d69565b61441260a08301856137de565b61441f60c0830184613d69565b98975050505050505050565b60006060820190506144406000830186613d69565b61444d60208301856137de565b61445a6040830184613d69565b949350505050565b600061446c61447d565b90506144788282614790565b919050565b6000604051905090565b600067ffffffffffffffff8211156144a2576144a16148fe565b5b602082029050602081019050919050565b600067ffffffffffffffff8211156144ce576144cd6148fe565b5b602082029050602081019050919050565b600067ffffffffffffffff8211156144fa576144f96148fe565b5b6145038261494b565b9050602081019050919050565b600081519050919050565b600081519050919050565b600081905092915050565b600082825260208201905092915050565b600081905092915050565b6000614558826146fb565b9150614563836146fb565b9250827fffffffffffffffffffffffffffffffffffffffffffffffffffffffffffffffff0382111561459857614597614842565b5b828201905092915050565b60006145ae826146fb565b91506145b9836146fb565b9250826145c9576145c8614871565b5b828204905092915050565b60006145df826146fb565b91506145ea836146fb565b9250817fffffffffffffffffffffffffffffffffffffffffffffffffffffffffffffffff048311821515161561462357614622614842565b5b828202905092915050565b6000614639826146fb565b9150614644836146fb565b92508282101561465757614656614842565b5b828203905092915050565b600061466d826146db565b9050919050565b600061467f826146db565b9050919050565b60008115159050919050565b6000819050919050565b60007fffffffff0000000000000000000000000000000000000000000000000000000082169050919050565b60008190506146d682614ea0565b919050565b600073ffffffffffffffffffffffffffffffffffffffff82169050919050565b6000819050919050565b600060ff82169050919050565b600061471d826146c8565b9050919050565b82818337600083830152505050565b60005b83811015614751578082015181840152602081019050614736565b83811115614760576000848401525b50505050565b6000614771826146fb565b9150600082141561478557614784614842565b5b600182039050919050565b6147998261494b565b810181811067ffffffffffffffff821117156147b8576147b76148fe565b5b80604052505050565b60006147cc826146fb565b91507fffffffffffffffffffffffffffffffffffffffffffffffffffffffffffffffff8214156147ff576147fe614842565b5b600182019050919050565b600061481582614826565b9050919050565b6000819050919050565b60006148318261495c565b9050919050565b6000819050919050565b7f4e487b7100000000000000000000000000000000000000000000000000000000600052601160045260246000fd5b7f4e487b7100000000000000000000000000000000000000000000000000000000600052601260045260246000fd5b7f4e487b7100000000000000000000000000000000000000000000000000000000600052602160045260246000fd5b7f4e487b7100000000000000000000000000000000000000000000000000000000600052603260045260246000fd5b7f4e487b7100000000000000000000000000000000000000000000000000000000600052604160045260246000fd5b600080fd5b600080fd5b600080fd5b600080fd5b600080fd5b600080fd5b6000601f19601f8301169050919050565b60008160601b9050919050565b7f45434453413a20696e76616c6964207369676e61747572650000000000000000600082015250565b7f537472696e67733a20686578206c656e67746820696e73756666696369656e74600082015250565b7f4e6f7420656e6f75676820746f6b656e7320666f722073616c652e0000000000600082015250565b7f5061757361626c653a206e6f7420706175736564000000000000000000000000600082015250565b7f45434453413a20696e76616c6964207369676e6174757265206c656e67746800600082015250565b7f19457468657265756d205369676e6564204d6573736167653a0a333200000000600082015250565b7f4f6e6c792073656c6c6572206f722061646d696e2063616e20636c6f7365207460008201527f68652074726164652e0000000000000000000000000000000000000000000000602082015250565b7f5472616465206973206e6f74206f70656e2e0000000000000000000000000000600082015250565b7f4f6e6c79206f70656e207472616465732063616e20626520636c6f7365642e00600082015250565b7f45434453413a20696e76616c6964207369676e6174757265202773272076616c60008201527f7565000000000000000000000000000000000000000000000000000000000000602082015250565b7f43757272656e6379206973206e6f7420616c6c6f7765642e0000000000000000600082015250565b7f416c6c6f77616e636520697320746f6f206c6f772e0000000000000000000000600082015250565b7f5061757361626c653a2070617573656400000000000000000000000000000000600082015250565b7f507269636520697320746f6f20686967682e0000000000000000000000000000600082015250565b7f5175616e746974792065786365656473206d6178696d756d2e00000000000000600082015250565b7f546f6b656e20636f6e7472616374206973206e6f7420616c6c6f7765642e0000600082015250565b7f507269636520697320746f6f206c6f772e000000000000000000000000000000600082015250565b7f45434453413a20696e76616c6964207369676e6174757265202776272076616c60008201527f7565000000000000000000000000000000000000000000000000000000000000602082015250565b7f417070726f76616c20657870697265642e000000000000000000000000000000600082015250565b7f53656c6c65722063616e6e6f742062652062757965722e000000000000000000600082015250565b7f417070726f76616c206578686175737465642e00000000000000000000000000600082015250565b7f416363657373436f6e74726f6c3a206163636f756e7420000000000000000000600082015250565b7f4665652063616e6e6f7420626520686967686572207468616e2068756e64726560008201527f642070657263656e742e00000000000000000000000000000000000000000000602082015250565b7f496e76616c6964207369676e61747572652e0000000000000000000000000000600082015250565b7f496e73756666696369656e742062616c616e636520746f20776974686472617760008201527f2e00000000000000000000000000000000000000000000000000000000000000602082015250565b7f206973206d697373696e6720726f6c6520000000000000000000000000000000600082015250565b7f416363657373436f6e74726f6c3a2063616e206f6e6c792072656e6f756e636560008201527f20726f6c657320666f722073656c660000000000000000000000000000000000602082015250565b60038110614eb157614eb06148a0565b5b50565b614ebd81614662565b8114614ec857600080fd5b50565b614ed481614674565b8114614edf57600080fd5b50565b614eeb81614686565b8114614ef657600080fd5b50565b614f0281614692565b8114614f0d57600080fd5b50565b614f198161469c565b8114614f2457600080fd5b50565b614f30816146fb565b8114614f3b57600080fd5b5056fea2646970667358221220cb38599b8a5d2249a1e04fedbca70b5f44acde317dd112256cddbc79a7d453ca64736f6c63430008060033",
  "immutableReferences": {},
  "source": "// SPDX-License-Identifier: MIT\r\npragma solidity ^0.8.0;\r\n\r\nimport \"../openzeppelin/contracts/access/AccessControl.sol\";\r\nimport \"../openzeppelin/contracts/token/ERC20/IERC20.sol\";\r\nimport \"../openzeppelin/contracts/utils/cryptography/ECDSA.sol\";\r\nimport \"../openzeppelin/contracts/security/Pausable.sol\";\r\n\r\nimport \"./MarketWalletV1.sol\";\r\nimport \"./HasSecondarySaleFees.sol\";\r\n\r\nenum TradeStatus { Active, Sold, Cancelled }\r\n\r\nstruct Trade {\r\n  uint id;\r\n  address seller;\r\n  address token;\r\n  uint tokenId;\r\n  uint quantity;\r\n  uint available;\r\n  address currency;\r\n  uint price;\r\n  TradeStatus status;\r\n}\r\n\r\ncontract MarketV1 is AccessControl, Pausable {\r\n  using ECDSA for bytes32;\r\n\r\n  bytes internal constant EMPTY = \"\";\r\n\r\n  uint256 public buyerFeePct = 5000;\r\n  uint256 public sellerFeePct = 5000;\r\n  uint256 public hundredPct = 10**5;\r\n\r\n  uint256 public maxTokenPrice = 10**6 * 1 ether;\r\n  uint256 public maxTradeQuantity = 10**6;\r\n  uint256 public minTokenPrice = hundredPct;\r\n\r\n  mapping(bytes => uint[]) public tradeHistory;\r\n\r\n  uint private _tradeId = 0;\r\n\r\n  mapping(uint => Trade) private _trades;\r\n\r\n  // seller => (currency => revenue)\r\n  mapping(address => mapping(address => uint)) internal _earnings;\r\n\r\n  // contract address => isAuthorized\r\n  mapping(address => bool) internal _approvedTokens;\r\n  uint private _approvedTokenCount = 0;\r\n\r\n  // contract address => isAuthorized\r\n  mapping(address => bool) internal _approvedCurrencies;\r\n  uint private _approvedCurrenciesCount = 0;\r\n  \r\n  mapping(bytes32 => bool) private _approvalsExhausted;\r\n\r\n  address internal _feeBeneficiary;\r\n\r\n  MarketWalletV1 internal _wallet;\r\n\r\n  event ListForSale(\r\n    uint tradeId,\r\n    address seller,\r\n    address tokenContract,\r\n    uint tokenId,\r\n    uint quantity,\r\n    address currency,\r\n    uint price\r\n  );\r\n\r\n  event Sell(\r\n    uint tradeId\r\n  );\r\n\r\n  event Buy(\r\n    uint tradeId,\r\n    address buyer,\r\n    uint quantity\r\n  );\r\n\r\n  event Cancel(\r\n    uint indexed tradeId,\r\n    address operator\r\n  );\r\n  \r\n  bytes32 public constant ADMIN_ROLE = keccak256(\"ADMIN_ROLE\");\r\n\r\n  bytes4 private constant _INTERFACE_ID_FEES = 0xb7799584;\r\n\r\n  constructor(MarketWalletV1 wallet) {\r\n    _setupRole(DEFAULT_ADMIN_ROLE, msg.sender);\r\n    \r\n    _setupRole(ADMIN_ROLE, msg.sender);\r\n    _setRoleAdmin(ADMIN_ROLE, DEFAULT_ADMIN_ROLE);\r\n\r\n    _feeBeneficiary = msg.sender;\r\n    _wallet = wallet;\r\n  }\r\n  \r\n  function supportsInterface(bytes4 interfaceID) override(AccessControl)\r\n    public view returns (bool) {\r\n    return super.supportsInterface(interfaceID);\r\n  }\r\n\r\n  function get(uint tradeId) public view returns (Trade memory) {\r\n    return _trades[tradeId];\r\n  }\r\n\r\n  function buy(uint tradeId, uint quantity) public whenNotPaused {\r\n    Trade memory trade = _trades[tradeId];\r\n\r\n    // Require trade is still open\r\n    require(trade.status == TradeStatus.Active, \"Trade is not open.\");\r\n\r\n    // Check quantity\r\n    require(quantity <= trade.available, \"Not enough tokens for sale.\");\r\n\r\n    // Require buyer to be different from seller\r\n    require(msg.sender != trade.seller, \"Seller cannot be buyer.\");\r\n\r\n    // Calculate prices\r\n    uint subtotal = trade.price * quantity;\r\n\r\n    IERC20 currency = IERC20(trade.currency);\r\n\r\n    (uint sellerFee, uint buyerFee) = calculateMarketFees(subtotal);\r\n\r\n    uint allowance = currency.allowance(msg.sender, address(this));\r\n    require(allowance >= subtotal + buyerFee, \"Allowance is too low.\");\r\n\r\n    // Deposit currency for escrow\r\n    currency.transferFrom(\r\n      msg.sender,\r\n      address(this),\r\n      subtotal + buyerFee\r\n    );\r\n\r\n    uint available = trade.available - quantity;\r\n    _trades[tradeId].available = available;\r\n\r\n    if (available == 0) {\r\n      _trades[tradeId].status = TradeStatus.Sold;\r\n      emit Sell(tradeId);\r\n    }\r\n\r\n    uint sellerNet = payAfterFees(\r\n      subtotal,\r\n      sellerFee,\r\n      buyerFee,\r\n      trade.token,\r\n      trade.tokenId,\r\n      trade.currency\r\n    );\r\n\r\n    pay(trade.currency, trade.seller, sellerNet);\r\n\r\n    _wallet.give(\r\n      trade.token,\r\n      msg.sender,\r\n      trade.tokenId,\r\n      quantity\r\n    );\r\n\r\n    emit Buy(\r\n      tradeId,\r\n      msg.sender,\r\n      quantity\r\n    );\r\n  }\r\n\r\n  function pay(address currency, address account, uint amount) internal {\r\n    _earnings[account][currency] += amount;\r\n  }\r\n\r\n  function calculateMarketFees(uint subtotal)\r\n    internal view returns (uint sellerFee, uint buyerFee) {\r\n    buyerFee = (subtotal * buyerFeePct) / hundredPct;\r\n    sellerFee = (subtotal * sellerFeePct) / hundredPct;\r\n  }\r\n\r\n  function payAfterFees(\r\n    uint subtotal,\r\n    uint sellerFee,\r\n    uint buyerFee,\r\n    address token,\r\n    uint tokenId,\r\n    address currency\r\n  ) internal returns (uint sellerPay) {\r\n    if (subtotal > sellerFee)\r\n      subtotal = subtotal - sellerFee;\r\n      sellerPay = subtotal;\r\n    \r\n    // Pay market fees\r\n    pay(currency, _feeBeneficiary, sellerFee + buyerFee);\r\n\r\n    if (!IERC165(token).supportsInterface(_INTERFACE_ID_FEES))\r\n      return sellerPay;\r\n\r\n    HasSecondarySaleFees tokenWithFees = HasSecondarySaleFees(token);\r\n\r\n    address payable[] memory recipients =\r\n      tokenWithFees.getFeeRecipients(tokenId);\r\n\r\n    uint[] memory feeBps = tokenWithFees.getFeeBps(tokenId);\r\n\r\n    for (uint i = 0; i < feeBps.length; i++) {\r\n      if (sellerPay == 0) break;\r\n\r\n      uint fee = (subtotal * feeBps[i]) / hundredPct;\r\n\r\n      if (fee > sellerPay) {\r\n        fee = sellerPay;\r\n        sellerPay = 0;\r\n      } else {\r\n        sellerPay -= fee;\r\n      }\r\n\r\n      pay(currency, recipients[i], fee);\r\n    }\r\n  }\r\n\r\n  function getSaleAuthorizationHash(\r\n    address seller,\r\n    address token,\r\n    uint tokenId,\r\n    uint quantity,\r\n    address currency,\r\n    uint price,\r\n    uint expiry,\r\n    uint salt\r\n  ) public view returns (bytes32) {\r\n    return keccak256(abi.encodePacked(\r\n      address(this),\r\n      seller,\r\n      token,\r\n      tokenId,\r\n      quantity,\r\n      currency,\r\n      price,\r\n      expiry,\r\n      salt\r\n    ));\r\n  }\r\n\r\n  function listForSale(\r\n    address seller,\r\n    address token,\r\n    uint tokenId,\r\n    uint quantity,\r\n    address currency,\r\n    uint price,\r\n    uint expiry,\r\n    uint salt,\r\n    bytes calldata signature\r\n  ) public whenNotPaused {\r\n    require(price >= minTokenPrice, \"Price is too low.\");\r\n    require(price <= maxTokenPrice, \"Price is too high.\");\r\n    require(quantity <= maxTradeQuantity, \"Quantity exceeds maximum.\");\r\n\r\n    require(_approvedTokens[token], \"Token contract is not allowed.\");\r\n    require(_approvedCurrencies[currency], \"Currency is not allowed.\");\r\n\r\n    if (!hasRole(ADMIN_ROLE, msg.sender)) {\r\n      require(expiry > block.timestamp, \"Approval expired.\");\r\n\r\n      bytes32 saleHash = getSaleAuthorizationHash(\r\n        seller,\r\n        token,\r\n        tokenId,\r\n        quantity,\r\n        currency,\r\n        price,\r\n        expiry,\r\n        salt\r\n      );\r\n\r\n      require(!_approvalsExhausted[saleHash], \"Approval exhausted.\");\r\n      \r\n      address recoveredAddress = saleHash\r\n        .toEthSignedMessageHash()\r\n        .recover(signature);\r\n      \r\n      require(\r\n        recoveredAddress != address(0)\r\n          && hasRole(ADMIN_ROLE, recoveredAddress),\r\n        \"Invalid signature.\"\r\n      );\r\n\r\n      _approvalsExhausted[saleHash] = true;\r\n    }\r\n\r\n    if (!IERC165(token).supportsInterface(type(IERC1155).interfaceId))\r\n      quantity = 1;\r\n\r\n    _wallet.take(\r\n      token,\r\n      seller,\r\n      tokenId,\r\n      quantity\r\n    );\r\n\r\n    // Create trade\r\n    _tradeId++;\r\n\r\n    Trade memory trade = Trade(\r\n      _tradeId,\r\n      seller,\r\n      token,\r\n      tokenId,\r\n      quantity,\r\n      quantity,\r\n      currency,\r\n      price,\r\n      TradeStatus.Active\r\n    );\r\n\r\n    _trades[_tradeId] = trade;\r\n\r\n    tradeHistory[\r\n      abi.encodePacked(\r\n        token,\r\n        tokenId\r\n      )\r\n    ].push(_tradeId);\r\n\r\n    emit ListForSale(\r\n      _tradeId,\r\n      seller,\r\n      token,\r\n      tokenId,\r\n      quantity,\r\n      currency,\r\n      price\r\n    );\r\n  }\r\n\r\n  function cancel(uint256 tradeId) public {\r\n    Trade memory trade = _trades[tradeId];\r\n    \r\n    require(\r\n      trade.status == TradeStatus.Active,\r\n      \"Only open trades can be closed.\"\r\n    );\r\n\r\n    require(\r\n      msg.sender == trade.seller || hasRole(ADMIN_ROLE, msg.sender),\r\n      \"Only seller or admin can close the trade.\"\r\n    );\r\n    \r\n    // Mark trade as cancelled\r\n    _trades[tradeId].status = TradeStatus.Cancelled;\r\n\r\n    _wallet.give(\r\n      trade.token,\r\n      msg.sender,\r\n      trade.tokenId,\r\n      trade.available\r\n    );\r\n\r\n    emit Cancel(\r\n      tradeId,\r\n      msg.sender\r\n    );\r\n  }\r\n\r\n  function getBalance(address currency, address account) public view returns (uint) {\r\n    return _earnings[account][currency];\r\n  }\r\n\r\n  function withdraw(address currency, uint amount) public {\r\n    require(\r\n      _earnings[msg.sender][currency] >= amount,\r\n      \"Insufficient balance to withdraw.\"\r\n    );\r\n\r\n    _earnings[msg.sender][currency] -= amount;\r\n\r\n    IERC20(currency).transfer(msg.sender, amount);\r\n  }\r\n\r\n  function setFeeBeneficiary(address beneficiary) public onlyRole(DEFAULT_ADMIN_ROLE) {\r\n    _feeBeneficiary = beneficiary;\r\n  }\r\n\r\n  function setTokenApproval(address token, bool isApproved) public onlyRole(ADMIN_ROLE) {\r\n    _approvedTokens[token] = isApproved;\r\n  }\r\n\r\n  function setCurrencyApproval(address currency, bool isApproved) public onlyRole(ADMIN_ROLE) {\r\n    _approvedCurrencies[currency] = isApproved;\r\n  }\r\n  \r\n  function setMaxTokenPriceEther(uint256 price) public onlyRole(ADMIN_ROLE) {\r\n    maxTokenPrice = price * 1 ether;\r\n  }\r\n  \r\n  function setMaxTokenPriceWei(uint256 price) public onlyRole(ADMIN_ROLE) {\r\n    maxTokenPrice = price;\r\n  }\r\n  \r\n  function setMaxTradeQuantity(uint256 quantity) public onlyRole(ADMIN_ROLE) {\r\n    maxTradeQuantity = quantity;\r\n  }\r\n\r\n  function setBuyerFeePct(uint256 pct) public onlyRole(ADMIN_ROLE) {\r\n    require(pct <= hundredPct, \"Fee cannot be higher than hundred percent.\");\r\n    buyerFeePct = pct;\r\n  }\r\n  \r\n  function setSellerFeePct(uint256 pct) public onlyRole(ADMIN_ROLE) {\r\n    require(pct <= hundredPct, \"Fee cannot be higher than hundred percent.\");\r\n    sellerFeePct = pct;\r\n  }\r\n  \r\n  function pause() public onlyRole(ADMIN_ROLE) {\r\n    super._pause();\r\n  }\r\n\r\n  function resume() public onlyRole(ADMIN_ROLE) {\r\n    super._unpause();\r\n  }\r\n}\r\n",
  "sourcePath": "C:/Users/Husnain/Documents/Projects/Fanbase/New/fanbase/packages/ethereum/contracts/solidity/collectibles/MarketV1.sol",
  "compiler": {
    "name": "solc",
    "version": "0.8.6+commit.11564f7e.Emscripten.clang"
  },
  "schemaVersion": "3.4.1",
  "updatedAt": "2021-07-13T12:16:56.301Z",
  "devdoc": {
    "kind": "dev",
    "methods": {
      "getRoleAdmin(bytes32)": {
        "details": "Returns the admin role that controls `role`. See {grantRole} and {revokeRole}. To change a role's admin, use {_setRoleAdmin}."
      },
      "grantRole(bytes32,address)": {
        "details": "Grants `role` to `account`. If `account` had not been already granted `role`, emits a {RoleGranted} event. Requirements: - the caller must have ``role``'s admin role."
      },
      "hasRole(bytes32,address)": {
        "details": "Returns `true` if `account` has been granted `role`."
      },
      "paused()": {
        "details": "Returns true if the contract is paused, and false otherwise."
      },
      "renounceRole(bytes32,address)": {
        "details": "Revokes `role` from the calling account. Roles are often managed via {grantRole} and {revokeRole}: this function's purpose is to provide a mechanism for accounts to lose their privileges if they are compromised (such as when a trusted device is misplaced). If the calling account had been granted `role`, emits a {RoleRevoked} event. Requirements: - the caller must be `account`."
      },
      "revokeRole(bytes32,address)": {
        "details": "Revokes `role` from `account`. If `account` had been granted `role`, emits a {RoleRevoked} event. Requirements: - the caller must have ``role``'s admin role."
      }
    },
    "version": 1
  },
  "userdoc": {
    "kind": "user",
    "methods": {},
    "version": 1
  }
}