{
  "contractName": "MarketV1",
  "abi": [
    {
      "inputs": [
        {
          "internalType": "contract MarketWalletV1",
          "name": "wallet",
          "type": "address"
        }
      ],
      "stateMutability": "nonpayable",
      "type": "constructor"
    },
    {
      "anonymous": false,
      "inputs": [
        {
          "indexed": false,
          "internalType": "uint256",
          "name": "tradeId",
          "type": "uint256"
        },
        {
          "indexed": false,
          "internalType": "address",
          "name": "buyer",
          "type": "address"
        },
        {
          "indexed": false,
          "internalType": "uint256",
          "name": "quantity",
          "type": "uint256"
        }
      ],
      "name": "Buy",
      "type": "event"
    },
    {
      "anonymous": false,
      "inputs": [
        {
          "indexed": false,
          "internalType": "address",
          "name": "operator",
          "type": "address"
        },
        {
          "indexed": false,
          "internalType": "uint256",
          "name": "tradeId",
          "type": "uint256"
        },
        {
          "indexed": false,
          "internalType": "address",
          "name": "tokenContract",
          "type": "address"
        },
        {
          "indexed": false,
          "internalType": "uint256",
          "name": "tokenId",
          "type": "uint256"
        },
        {
          "indexed": false,
          "internalType": "uint256",
          "name": "returned",
          "type": "uint256"
        }
      ],
      "name": "CancelListing",
      "type": "event"
    },
    {
      "anonymous": false,
      "inputs": [
        {
          "indexed": false,
          "internalType": "uint256",
          "name": "tradeId",
          "type": "uint256"
        },
        {
          "indexed": false,
          "internalType": "address",
          "name": "seller",
          "type": "address"
        },
        {
          "indexed": false,
          "internalType": "address",
          "name": "tokenContract",
          "type": "address"
        },
        {
          "indexed": false,
          "internalType": "uint256",
          "name": "tokenId",
          "type": "uint256"
        },
        {
          "indexed": false,
          "internalType": "uint256",
          "name": "quantity",
          "type": "uint256"
        },
        {
          "indexed": false,
          "internalType": "address",
          "name": "currency",
          "type": "address"
        },
        {
          "indexed": false,
          "internalType": "uint256",
          "name": "price",
          "type": "uint256"
        }
      ],
      "name": "ListForSale",
      "type": "event"
    },
    {
      "anonymous": false,
      "inputs": [
        {
          "indexed": false,
          "internalType": "address",
          "name": "account",
          "type": "address"
        }
      ],
      "name": "Paused",
      "type": "event"
    },
    {
      "anonymous": false,
      "inputs": [
        {
          "indexed": true,
          "internalType": "bytes32",
          "name": "role",
          "type": "bytes32"
        },
        {
          "indexed": true,
          "internalType": "bytes32",
          "name": "previousAdminRole",
          "type": "bytes32"
        },
        {
          "indexed": true,
          "internalType": "bytes32",
          "name": "newAdminRole",
          "type": "bytes32"
        }
      ],
      "name": "RoleAdminChanged",
      "type": "event"
    },
    {
      "anonymous": false,
      "inputs": [
        {
          "indexed": true,
          "internalType": "bytes32",
          "name": "role",
          "type": "bytes32"
        },
        {
          "indexed": true,
          "internalType": "address",
          "name": "account",
          "type": "address"
        },
        {
          "indexed": true,
          "internalType": "address",
          "name": "sender",
          "type": "address"
        }
      ],
      "name": "RoleGranted",
      "type": "event"
    },
    {
      "anonymous": false,
      "inputs": [
        {
          "indexed": true,
          "internalType": "bytes32",
          "name": "role",
          "type": "bytes32"
        },
        {
          "indexed": true,
          "internalType": "address",
          "name": "account",
          "type": "address"
        },
        {
          "indexed": true,
          "internalType": "address",
          "name": "sender",
          "type": "address"
        }
      ],
      "name": "RoleRevoked",
      "type": "event"
    },
    {
      "anonymous": false,
      "inputs": [
        {
          "indexed": false,
          "internalType": "uint256",
          "name": "tradeId",
          "type": "uint256"
        }
      ],
      "name": "Sell",
      "type": "event"
    },
    {
      "anonymous": false,
      "inputs": [
        {
          "indexed": false,
          "internalType": "address",
          "name": "account",
          "type": "address"
        }
      ],
      "name": "Unpaused",
      "type": "event"
    },
    {
      "inputs": [],
      "name": "ADMIN_ROLE",
      "outputs": [
        {
          "internalType": "bytes32",
          "name": "",
          "type": "bytes32"
        }
      ],
      "stateMutability": "view",
      "type": "function"
    },
    {
      "inputs": [],
      "name": "DEFAULT_ADMIN_ROLE",
      "outputs": [
        {
          "internalType": "bytes32",
          "name": "",
          "type": "bytes32"
        }
      ],
      "stateMutability": "view",
      "type": "function"
    },
    {
      "inputs": [],
      "name": "buyerFeePct",
      "outputs": [
        {
          "internalType": "uint256",
          "name": "",
          "type": "uint256"
        }
      ],
      "stateMutability": "view",
      "type": "function"
    },
    {
      "inputs": [
        {
          "internalType": "bytes32",
          "name": "role",
          "type": "bytes32"
        }
      ],
      "name": "getRoleAdmin",
      "outputs": [
        {
          "internalType": "bytes32",
          "name": "",
          "type": "bytes32"
        }
      ],
      "stateMutability": "view",
      "type": "function"
    },
    {
      "inputs": [
        {
          "internalType": "bytes32",
          "name": "role",
          "type": "bytes32"
        },
        {
          "internalType": "address",
          "name": "account",
          "type": "address"
        }
      ],
      "name": "grantRole",
      "outputs": [],
      "stateMutability": "nonpayable",
      "type": "function"
    },
    {
      "inputs": [
        {
          "internalType": "bytes32",
          "name": "role",
          "type": "bytes32"
        },
        {
          "internalType": "address",
          "name": "account",
          "type": "address"
        }
      ],
      "name": "hasRole",
      "outputs": [
        {
          "internalType": "bool",
          "name": "",
          "type": "bool"
        }
      ],
      "stateMutability": "view",
      "type": "function"
    },
    {
      "inputs": [],
      "name": "hundredPct",
      "outputs": [
        {
          "internalType": "uint256",
          "name": "",
          "type": "uint256"
        }
      ],
      "stateMutability": "view",
      "type": "function"
    },
    {
      "inputs": [],
      "name": "maxTokenPrice",
      "outputs": [
        {
          "internalType": "uint256",
          "name": "",
          "type": "uint256"
        }
      ],
      "stateMutability": "view",
      "type": "function"
    },
    {
      "inputs": [],
      "name": "maxTradeQuantity",
      "outputs": [
        {
          "internalType": "uint256",
          "name": "",
          "type": "uint256"
        }
      ],
      "stateMutability": "view",
      "type": "function"
    },
    {
      "inputs": [],
      "name": "minTokenPrice",
      "outputs": [
        {
          "internalType": "uint256",
          "name": "",
          "type": "uint256"
        }
      ],
      "stateMutability": "view",
      "type": "function"
    },
    {
      "inputs": [],
      "name": "paused",
      "outputs": [
        {
          "internalType": "bool",
          "name": "",
          "type": "bool"
        }
      ],
      "stateMutability": "view",
      "type": "function"
    },
    {
      "inputs": [
        {
          "internalType": "bytes32",
          "name": "role",
          "type": "bytes32"
        },
        {
          "internalType": "address",
          "name": "account",
          "type": "address"
        }
      ],
      "name": "renounceRole",
      "outputs": [],
      "stateMutability": "nonpayable",
      "type": "function"
    },
    {
      "inputs": [
        {
          "internalType": "bytes32",
          "name": "role",
          "type": "bytes32"
        },
        {
          "internalType": "address",
          "name": "account",
          "type": "address"
        }
      ],
      "name": "revokeRole",
      "outputs": [],
      "stateMutability": "nonpayable",
      "type": "function"
    },
    {
      "inputs": [],
      "name": "sellerFeePct",
      "outputs": [
        {
          "internalType": "uint256",
          "name": "",
          "type": "uint256"
        }
      ],
      "stateMutability": "view",
      "type": "function"
    },
    {
      "inputs": [
        {
          "internalType": "bytes4",
          "name": "interfaceID",
          "type": "bytes4"
        }
      ],
      "name": "supportsInterface",
      "outputs": [
        {
          "internalType": "bool",
          "name": "",
          "type": "bool"
        }
      ],
      "stateMutability": "view",
      "type": "function"
    },
    {
      "inputs": [
        {
          "internalType": "uint256",
          "name": "tradeId",
          "type": "uint256"
        }
      ],
      "name": "get",
      "outputs": [
        {
          "components": [
            {
              "internalType": "uint256",
              "name": "id",
              "type": "uint256"
            },
            {
              "internalType": "address",
              "name": "seller",
              "type": "address"
            },
            {
              "internalType": "address",
              "name": "token",
              "type": "address"
            },
            {
              "internalType": "uint256",
              "name": "tokenId",
              "type": "uint256"
            },
            {
              "internalType": "uint256",
              "name": "quantity",
              "type": "uint256"
            },
            {
              "internalType": "uint256",
              "name": "available",
              "type": "uint256"
            },
            {
              "internalType": "address",
              "name": "currency",
              "type": "address"
            },
            {
              "internalType": "uint256",
              "name": "price",
              "type": "uint256"
            },
            {
              "internalType": "enum TradeStatus",
              "name": "status",
              "type": "uint8"
            }
          ],
          "internalType": "struct Trade",
          "name": "",
          "type": "tuple"
        }
      ],
      "stateMutability": "view",
      "type": "function"
    },
    {
      "inputs": [
        {
          "internalType": "uint256",
          "name": "tradeId",
          "type": "uint256"
        },
        {
          "internalType": "uint256",
          "name": "quantity",
          "type": "uint256"
        }
      ],
      "name": "buy",
      "outputs": [],
      "stateMutability": "nonpayable",
      "type": "function"
    },
    {
      "inputs": [
        {
          "internalType": "address",
          "name": "seller",
          "type": "address"
        },
        {
          "internalType": "address",
          "name": "token",
          "type": "address"
        },
        {
          "internalType": "uint256",
          "name": "tokenId",
          "type": "uint256"
        },
        {
          "internalType": "uint256",
          "name": "quantity",
          "type": "uint256"
        },
        {
          "internalType": "address",
          "name": "currency",
          "type": "address"
        },
        {
          "internalType": "uint256",
          "name": "price",
          "type": "uint256"
        },
        {
          "internalType": "uint256",
          "name": "expiry",
          "type": "uint256"
        },
        {
          "internalType": "uint256",
          "name": "salt",
          "type": "uint256"
        }
      ],
      "name": "getSaleAuthorizationHash",
      "outputs": [
        {
          "internalType": "bytes32",
          "name": "",
          "type": "bytes32"
        }
      ],
      "stateMutability": "view",
      "type": "function"
    },
    {
      "inputs": [
        {
          "internalType": "address",
          "name": "seller",
          "type": "address"
        },
        {
          "internalType": "address",
          "name": "token",
          "type": "address"
        },
        {
          "internalType": "uint256",
          "name": "tokenId",
          "type": "uint256"
        },
        {
          "internalType": "uint256",
          "name": "quantity",
          "type": "uint256"
        },
        {
          "internalType": "address",
          "name": "currency",
          "type": "address"
        },
        {
          "internalType": "uint256",
          "name": "price",
          "type": "uint256"
        },
        {
          "internalType": "uint256",
          "name": "expiry",
          "type": "uint256"
        },
        {
          "internalType": "uint256",
          "name": "salt",
          "type": "uint256"
        },
        {
          "internalType": "bytes",
          "name": "signature",
          "type": "bytes"
        }
      ],
      "name": "listForSale",
      "outputs": [],
      "stateMutability": "nonpayable",
      "type": "function"
    },
    {
      "inputs": [
        {
          "internalType": "uint256",
          "name": "tradeId",
          "type": "uint256"
        }
      ],
      "name": "cancel",
      "outputs": [],
      "stateMutability": "nonpayable",
      "type": "function"
    },
    {
      "inputs": [
        {
          "internalType": "address",
          "name": "currency",
          "type": "address"
        },
        {
          "internalType": "address",
          "name": "account",
          "type": "address"
        }
      ],
      "name": "getBalance",
      "outputs": [
        {
          "internalType": "uint256",
          "name": "",
          "type": "uint256"
        }
      ],
      "stateMutability": "view",
      "type": "function"
    },
    {
      "inputs": [
        {
          "internalType": "address",
          "name": "currency",
          "type": "address"
        },
        {
          "internalType": "uint256",
          "name": "amount",
          "type": "uint256"
        }
      ],
      "name": "withdraw",
      "outputs": [],
      "stateMutability": "nonpayable",
      "type": "function"
    },
    {
      "inputs": [
        {
          "internalType": "address",
          "name": "token",
          "type": "address"
        }
      ],
      "name": "isTokenApproved",
      "outputs": [
        {
          "internalType": "bool",
          "name": "",
          "type": "bool"
        }
      ],
      "stateMutability": "view",
      "type": "function"
    },
    {
      "inputs": [
        {
          "internalType": "address",
          "name": "currency",
          "type": "address"
        }
      ],
      "name": "isCurrencyApproved",
      "outputs": [
        {
          "internalType": "bool",
          "name": "",
          "type": "bool"
        }
      ],
      "stateMutability": "view",
      "type": "function"
    },
    {
      "inputs": [
        {
          "internalType": "address",
          "name": "token",
          "type": "address"
        },
        {
          "internalType": "bool",
          "name": "isApproved",
          "type": "bool"
        }
      ],
      "name": "setTokenApproval",
      "outputs": [],
      "stateMutability": "nonpayable",
      "type": "function"
    },
    {
      "inputs": [
        {
          "internalType": "address",
          "name": "currency",
          "type": "address"
        },
        {
          "internalType": "bool",
          "name": "isApproved",
          "type": "bool"
        }
      ],
      "name": "setCurrencyApproval",
      "outputs": [],
      "stateMutability": "nonpayable",
      "type": "function"
    },
    {
      "inputs": [
        {
          "internalType": "uint256",
          "name": "price",
          "type": "uint256"
        }
      ],
      "name": "setMaxTokenPriceEther",
      "outputs": [],
      "stateMutability": "nonpayable",
      "type": "function"
    },
    {
      "inputs": [
        {
          "internalType": "uint256",
          "name": "price",
          "type": "uint256"
        }
      ],
      "name": "setMaxTokenPriceWei",
      "outputs": [],
      "stateMutability": "nonpayable",
      "type": "function"
    },
    {
      "inputs": [
        {
          "internalType": "uint256",
          "name": "quantity",
          "type": "uint256"
        }
      ],
      "name": "setMaxTradeQuantity",
      "outputs": [],
      "stateMutability": "nonpayable",
      "type": "function"
    },
    {
      "inputs": [
        {
          "internalType": "uint256",
          "name": "pct",
          "type": "uint256"
        }
      ],
      "name": "setBuyerFeePct",
      "outputs": [],
      "stateMutability": "nonpayable",
      "type": "function"
    },
    {
      "inputs": [
        {
          "internalType": "uint256",
          "name": "pct",
          "type": "uint256"
        }
      ],
      "name": "setSellerFeePct",
      "outputs": [],
      "stateMutability": "nonpayable",
      "type": "function"
    },
    {
      "inputs": [
        {
          "internalType": "address",
          "name": "beneficiary",
          "type": "address"
        }
      ],
      "name": "setFeeBeneficiary",
      "outputs": [],
      "stateMutability": "nonpayable",
      "type": "function"
    },
    {
      "inputs": [],
      "name": "pause",
      "outputs": [],
      "stateMutability": "nonpayable",
      "type": "function"
    },
    {
      "inputs": [],
      "name": "resume",
      "outputs": [],
      "stateMutability": "nonpayable",
      "type": "function"
    }
  ],
  "bytecode": "0x6080604052611388600255611388600355620186a060045569d3c21bcecceda1000000600555620f424060065560045460075560006008556000600c556000600e553480156200004e57600080fd5b506040516200544f3803806200544f8339818101604052810190620000749190620003a6565b6000600160006101000a81548160ff021916908315150217905550620000a46000801b336200019460201b60201c565b620000d67fa49807205ce4d355092ef5a8a18f56e8913cf4a201fbe287825b095693c21775336200019460201b60201c565b6200010b7fa49807205ce4d355092ef5a8a18f56e8913cf4a201fbe287825b095693c217756000801b620001aa60201b60201c565b33601060006101000a81548173ffffffffffffffffffffffffffffffffffffffff021916908373ffffffffffffffffffffffffffffffffffffffff16021790555080601160006101000a81548173ffffffffffffffffffffffffffffffffffffffff021916908373ffffffffffffffffffffffffffffffffffffffff160217905550506200043f565b620001a682826200020d60201b60201c565b5050565b6000620001bd83620002fe60201b60201c565b905081600080858152602001908152602001600020600101819055508181847fbd79b86ffe0ab8e8776151514217cd7cacd52c909f66475c3af44e129f0b00ff60405160405180910390a4505050565b6200021f82826200031d60201b60201c565b620002fa57600160008084815260200190815260200160002060000160008373ffffffffffffffffffffffffffffffffffffffff1673ffffffffffffffffffffffffffffffffffffffff16815260200190815260200160002060006101000a81548160ff0219169083151502179055506200029f6200038760201b60201c565b73ffffffffffffffffffffffffffffffffffffffff168173ffffffffffffffffffffffffffffffffffffffff16837f2f8788117e7eff1d82e926ec794901d17c78024a50270940304540a733656f0d60405160405180910390a45b5050565b6000806000838152602001908152602001600020600101549050919050565b600080600084815260200190815260200160002060000160008373ffffffffffffffffffffffffffffffffffffffff1673ffffffffffffffffffffffffffffffffffffffff16815260200190815260200160002060009054906101000a900460ff16905092915050565b600033905090565b600081519050620003a08162000425565b92915050565b600060208284031215620003bf57620003be62000420565b5b6000620003cf848285016200038f565b91505092915050565b6000620003e58262000400565b9050919050565b6000620003f982620003d8565b9050919050565b600073ffffffffffffffffffffffffffffffffffffffff82169050919050565b600080fd5b6200043081620003ec565b81146200043c57600080fd5b50565b615000806200044f6000396000f3fe608060405234801561001057600080fd5b50600436106102065760003560e01c80638662732e1161011a578063c661b89d116100ad578063d6febde81161007c578063d6febde8146105c5578063e45ad64a146105e1578063e6a50100146105fd578063f3fef3a314610619578063fd1fc13e1461063557610206565b8063c661b89d1461053f578063d428dc2b1461055b578063d4fac45d14610579578063d547741f146105a957610206565b80639d93d352116100e95780639d93d352146104b9578063a217fddf146104e9578063b8358a6114610507578063bca998191461052357610206565b80638662732e1461040b5780638ce5ab6a1461043b57806391d14854146104595780639507d39a1461048957610206565b806340e58ee51161019d578063670436f11161016c578063670436f11461038b57806375b238fc146103a757806377e5c4a8146103c55780638456cb59146103e357806385d561ae146103ed57610206565b806340e58ee5146103175780635a0a3d82146103335780635c975abb1461034f5780635dabb20e1461036d57610206565b8063248a9ca3116101d9578063248a9ca3146102915780632b483c03146102c15780632f2ff15d146102df57806336568abe146102fb57610206565b806301ffc9a71461020b578063046f7da21461023b5780630d7b1acc1461024557806314d91c8414610275575b600080fd5b61022560048036038101906102209190613810565b610651565b60405161023291906140b4565b60405180910390f35b610243610663565b005b61025f600480360381019061025a9190613456565b6106a0565b60405161026c91906140b4565b60405180910390f35b61028f600480360381019061028a9190613664565b6106f6565b005b6102ab60048036038101906102a691906137a3565b610784565b6040516102b891906140cf565b60405180910390f35b6102c96107a3565b6040516102d69190614488565b60405180910390f35b6102f960048036038101906102f491906137d0565b6107a9565b005b610315600480360381019061031091906137d0565b6107d2565b005b610331600480360381019061032c919061383d565b610855565b005b61034d60048036038101906103489190613456565b610c27565b005b610357610c81565b60405161036491906140b4565b60405180910390f35b610375610c98565b6040516103829190614488565b60405180910390f35b6103a560048036038101906103a09190613664565b610c9e565b005b6103af610d2c565b6040516103bc91906140cf565b60405180910390f35b6103cd610d50565b6040516103da9190614488565b60405180910390f35b6103eb610d56565b005b6103f5610d93565b6040516104029190614488565b60405180910390f35b610425600480360381019061042091906134c3565b610d99565b60405161043291906140cf565b60405180910390f35b610443610de0565b6040516104509190614488565b60405180910390f35b610473600480360381019061046e91906137d0565b610de6565b60405161048091906140b4565b60405180910390f35b6104a3600480360381019061049e919061383d565b610e50565b6040516104b0919061446c565b60405180910390f35b6104d360048036038101906104ce9190613456565b610fed565b6040516104e091906140b4565b60405180910390f35b6104f1611043565b6040516104fe91906140cf565b60405180910390f35b610521600480360381019061051c9190613579565b61104a565b005b61053d6004803603810190610538919061383d565b61182d565b005b6105596004803603810190610554919061383d565b61187d565b005b6105636118ff565b6040516105709190614488565b60405180910390f35b610593600480360381019061058e9190613483565b611905565b6040516105a09190614488565b60405180910390f35b6105c360048036038101906105be91906137d0565b61198c565b005b6105df60048036038101906105da9190613897565b6119b5565b005b6105fb60048036038101906105f6919061383d565b61201c565b005b6106176004803603810190610612919061383d565b61209e565b005b610633600480360381019061062e91906136a4565b6120db565b005b61064f600480360381019061064a919061383d565b6122bf565b005b600061065c826122fc565b9050919050565b7fa49807205ce4d355092ef5a8a18f56e8913cf4a201fbe287825b095693c2177561069581610690612376565b61237e565b61069d61241b565b50565b6000600d60008373ffffffffffffffffffffffffffffffffffffffff1673ffffffffffffffffffffffffffffffffffffffff16815260200190815260200160002060009054906101000a900460ff169050919050565b7fa49807205ce4d355092ef5a8a18f56e8913cf4a201fbe287825b095693c2177561072881610723612376565b61237e565b81600b60008573ffffffffffffffffffffffffffffffffffffffff1673ffffffffffffffffffffffffffffffffffffffff16815260200190815260200160002060006101000a81548160ff021916908315150217905550505050565b6000806000838152602001908152602001600020600101549050919050565b60035481565b6107b282610784565b6107c3816107be612376565b61237e565b6107cd83836124bd565b505050565b6107da612376565b73ffffffffffffffffffffffffffffffffffffffff168173ffffffffffffffffffffffffffffffffffffffff1614610847576040517f08c379a000000000000000000000000000000000000000000000000000000000815260040161083e9061444c565b60405180910390fd5b610851828261259d565b5050565b60006009600083815260200190815260200160002060405180610120016040529081600082015481526020016001820160009054906101000a900473ffffffffffffffffffffffffffffffffffffffff1673ffffffffffffffffffffffffffffffffffffffff1673ffffffffffffffffffffffffffffffffffffffff1681526020016002820160009054906101000a900473ffffffffffffffffffffffffffffffffffffffff1673ffffffffffffffffffffffffffffffffffffffff1673ffffffffffffffffffffffffffffffffffffffff1681526020016003820154815260200160048201548152602001600582015481526020016006820160009054906101000a900473ffffffffffffffffffffffffffffffffffffffff1673ffffffffffffffffffffffffffffffffffffffff1673ffffffffffffffffffffffffffffffffffffffff168152602001600782015481526020016008820160009054906101000a900460ff1660028111156109cf576109ce614931565b5b60028111156109e1576109e0614931565b5b815250509050600060028111156109fb576109fa614931565b5b8161010001516002811115610a1357610a12614931565b5b14610a53576040517f08c379a0000000000000000000000000000000000000000000000000000000008152600401610a4a9061424c565b60405180910390fd5b806020015173ffffffffffffffffffffffffffffffffffffffff163373ffffffffffffffffffffffffffffffffffffffff161480610ab75750610ab67fa49807205ce4d355092ef5a8a18f56e8913cf4a201fbe287825b095693c2177533610de6565b5b610af6576040517f08c379a0000000000000000000000000000000000000000000000000000000008152600401610aed9061420c565b60405180910390fd5b60026009600084815260200190815260200160002060080160006101000a81548160ff02191690836002811115610b3057610b2f614931565b5b0217905550601160009054906101000a900473ffffffffffffffffffffffffffffffffffffffff1673ffffffffffffffffffffffffffffffffffffffff16632ed7bae88260400151836020015184606001518560a001516040518563ffffffff1660e01b8152600401610ba69493929190613ff3565b600060405180830381600087803b158015610bc057600080fd5b505af1158015610bd4573d6000803e3d6000fd5b505050507fc601fcdba72395d2bf26895fdc068bb88a1ff514bafce37723be90787ed0a4803383836040015184606001518560a00151604051610c1b959493929190614061565b60405180910390a15050565b6000801b610c3c81610c37612376565b61237e565b81601060006101000a81548173ffffffffffffffffffffffffffffffffffffffff021916908373ffffffffffffffffffffffffffffffffffffffff1602179055505050565b6000600160009054906101000a900460ff16905090565b60075481565b7fa49807205ce4d355092ef5a8a18f56e8913cf4a201fbe287825b095693c21775610cd081610ccb612376565b61237e565b81600d60008573ffffffffffffffffffffffffffffffffffffffff1673ffffffffffffffffffffffffffffffffffffffff16815260200190815260200160002060006101000a81548160ff021916908315150217905550505050565b7fa49807205ce4d355092ef5a8a18f56e8913cf4a201fbe287825b095693c2177581565b60055481565b7fa49807205ce4d355092ef5a8a18f56e8913cf4a201fbe287825b095693c21775610d8881610d83612376565b61237e565b610d9061267e565b50565b60065481565b6000308989898989898989604051602001610dbc99989796959493929190613e75565b60405160208183030381529060405280519060200120905098975050505050505050565b60025481565b600080600084815260200190815260200160002060000160008373ffffffffffffffffffffffffffffffffffffffff1673ffffffffffffffffffffffffffffffffffffffff16815260200190815260200160002060009054906101000a900460ff16905092915050565b610e5861317c565b6009600083815260200190815260200160002060405180610120016040529081600082015481526020016001820160009054906101000a900473ffffffffffffffffffffffffffffffffffffffff1673ffffffffffffffffffffffffffffffffffffffff1673ffffffffffffffffffffffffffffffffffffffff1681526020016002820160009054906101000a900473ffffffffffffffffffffffffffffffffffffffff1673ffffffffffffffffffffffffffffffffffffffff1673ffffffffffffffffffffffffffffffffffffffff1681526020016003820154815260200160048201548152602001600582015481526020016006820160009054906101000a900473ffffffffffffffffffffffffffffffffffffffff1673ffffffffffffffffffffffffffffffffffffffff1673ffffffffffffffffffffffffffffffffffffffff168152602001600782015481526020016008820160009054906101000a900460ff166002811115610fd057610fcf614931565b5b6002811115610fe257610fe1614931565b5b815250509050919050565b6000600b60008373ffffffffffffffffffffffffffffffffffffffff1673ffffffffffffffffffffffffffffffffffffffff16815260200190815260200160002060009054906101000a900460ff169050919050565b6000801b81565b611052610c81565b15611092576040517f08c379a0000000000000000000000000000000000000000000000000000000008152600401611089906142cc565b60405180910390fd5b6007548510156110d7576040517f08c379a00000000000000000000000000000000000000000000000000000000081526004016110ce9061434c565b60405180910390fd5b60055485111561111c576040517f08c379a0000000000000000000000000000000000000000000000000000000008152600401611113906142ec565b60405180910390fd5b600654871115611161576040517f08c379a00000000000000000000000000000000000000000000000000000000081526004016111589061430c565b60405180910390fd5b600b60008a73ffffffffffffffffffffffffffffffffffffffff1673ffffffffffffffffffffffffffffffffffffffff16815260200190815260200160002060009054906101000a900460ff166111ed576040517f08c379a00000000000000000000000000000000000000000000000000000000081526004016111e49061432c565b60405180910390fd5b600d60008773ffffffffffffffffffffffffffffffffffffffff1673ffffffffffffffffffffffffffffffffffffffff16815260200190815260200160002060009054906101000a900460ff16611279576040517f08c379a00000000000000000000000000000000000000000000000000000000081526004016112709061428c565b60405180910390fd5b6112a37fa49807205ce4d355092ef5a8a18f56e8913cf4a201fbe287825b095693c2177533610de6565b611492574284116112e9576040517f08c379a00000000000000000000000000000000000000000000000000000000081526004016112e09061438c565b60405180910390fd5b60006112fb8b8b8b8b8b8b8b8b610d99565b9050600f600082815260200190815260200160002060009054906101000a900460ff161561135e576040517f08c379a0000000000000000000000000000000000000000000000000000000008152600401611355906143cc565b60405180910390fd5b60006113bf84848080601f016020809104026020016040519081016040528093929190818152602001838380828437600081840152601f19601f820116905080830192505050505050506113b184612720565b61275090919063ffffffff16565b9050600073ffffffffffffffffffffffffffffffffffffffff168173ffffffffffffffffffffffffffffffffffffffff161415801561142457506114237fa49807205ce4d355092ef5a8a18f56e8913cf4a201fbe287825b095693c2177582610de6565b5b611463576040517f08c379a000000000000000000000000000000000000000000000000000000000815260040161145a9061440c565b60405180910390fd5b6001600f600084815260200190815260200160002060006101000a81548160ff02191690831515021790555050505b8873ffffffffffffffffffffffffffffffffffffffff166301ffc9a77fd9b67a26000000000000000000000000000000000000000000000000000000006040518263ffffffff1660e01b81526004016114eb919061412f565b60206040518083038186803b15801561150357600080fd5b505afa158015611517573d6000803e3d6000fd5b505050506040513d601f19601f8201168201806040525081019061153b9190613776565b61154457600196505b601160009054906101000a900473ffffffffffffffffffffffffffffffffffffffff1673ffffffffffffffffffffffffffffffffffffffff166340fd58298a8c8b8b6040518563ffffffff1660e01b81526004016115a59493929190613ff3565b600060405180830381600087803b1580156115bf57600080fd5b505af11580156115d3573d6000803e3d6000fd5b50505050600860008154809291906115ea90614852565b9190505550600060405180610120016040528060085481526020018c73ffffffffffffffffffffffffffffffffffffffff1681526020018b73ffffffffffffffffffffffffffffffffffffffff1681526020018a81526020018981526020018981526020018873ffffffffffffffffffffffffffffffffffffffff1681526020018781526020016000600281111561168557611684614931565b5b8152509050806009600060085481526020019081526020016000206000820151816000015560208201518160010160006101000a81548173ffffffffffffffffffffffffffffffffffffffff021916908373ffffffffffffffffffffffffffffffffffffffff16021790555060408201518160020160006101000a81548173ffffffffffffffffffffffffffffffffffffffff021916908373ffffffffffffffffffffffffffffffffffffffff160217905550606082015181600301556080820151816004015560a0820151816005015560c08201518160060160006101000a81548173ffffffffffffffffffffffffffffffffffffffff021916908373ffffffffffffffffffffffffffffffffffffffff16021790555060e082015181600701556101008201518160080160006101000a81548160ff021916908360028111156117d3576117d2614931565b5b02179055509050507f8c043961a2a3de4608ff0a3647fa6bdef2510bbf7ea923cd9b68bd43de4040e46008548c8c8c8c8c8c60405161181897969594939291906144a3565b60405180910390a15050505050505050505050565b7fa49807205ce4d355092ef5a8a18f56e8913cf4a201fbe287825b095693c2177561185f8161185a612376565b61237e565b670de0b6b3a7640000826118739190614674565b6005819055505050565b7fa49807205ce4d355092ef5a8a18f56e8913cf4a201fbe287825b095693c217756118af816118aa612376565b61237e565b6004548211156118f4576040517f08c379a00000000000000000000000000000000000000000000000000000000081526004016118eb906143ec565b60405180910390fd5b816003819055505050565b60045481565b6000600a60008373ffffffffffffffffffffffffffffffffffffffff1673ffffffffffffffffffffffffffffffffffffffff16815260200190815260200160002060008473ffffffffffffffffffffffffffffffffffffffff1673ffffffffffffffffffffffffffffffffffffffff16815260200190815260200160002054905092915050565b61199582610784565b6119a6816119a1612376565b61237e565b6119b0838361259d565b505050565b6119bd610c81565b156119fd576040517f08c379a00000000000000000000000000000000000000000000000000000000081526004016119f4906142cc565b60405180910390fd5b60006009600084815260200190815260200160002060405180610120016040529081600082015481526020016001820160009054906101000a900473ffffffffffffffffffffffffffffffffffffffff1673ffffffffffffffffffffffffffffffffffffffff1673ffffffffffffffffffffffffffffffffffffffff1681526020016002820160009054906101000a900473ffffffffffffffffffffffffffffffffffffffff1673ffffffffffffffffffffffffffffffffffffffff1673ffffffffffffffffffffffffffffffffffffffff1681526020016003820154815260200160048201548152602001600582015481526020016006820160009054906101000a900473ffffffffffffffffffffffffffffffffffffffff1673ffffffffffffffffffffffffffffffffffffffff1673ffffffffffffffffffffffffffffffffffffffff168152602001600782015481526020016008820160009054906101000a900460ff166002811115611b7757611b76614931565b5b6002811115611b8957611b88614931565b5b81525050905060006002811115611ba357611ba2614931565b5b8161010001516002811115611bbb57611bba614931565b5b14611bfb576040517f08c379a0000000000000000000000000000000000000000000000000000000008152600401611bf29061422c565b60405180910390fd5b8060a00151821115611c42576040517f08c379a0000000000000000000000000000000000000000000000000000000008152600401611c39906141ac565b60405180910390fd5b806020015173ffffffffffffffffffffffffffffffffffffffff163373ffffffffffffffffffffffffffffffffffffffff161415611cb5576040517f08c379a0000000000000000000000000000000000000000000000000000000008152600401611cac906143ac565b60405180910390fd5b6000828260e00151611cc79190614674565b905060008260c001519050600080611cde84612777565b9150915060008373ffffffffffffffffffffffffffffffffffffffff1663dd62ed3e33306040518363ffffffff1660e01b8152600401611d1f929190613f93565b60206040518083038186803b158015611d3757600080fd5b505afa158015611d4b573d6000803e3d6000fd5b505050506040513d601f19601f82011682018060405250810190611d6f919061386a565b90508185611d7d91906145ed565b811015611dbf576040517f08c379a0000000000000000000000000000000000000000000000000000000008152600401611db6906142ac565b60405180910390fd5b8373ffffffffffffffffffffffffffffffffffffffff166323b872dd33308589611de991906145ed565b6040518463ffffffff1660e01b8152600401611e0793929190613fbc565b602060405180830381600087803b158015611e2157600080fd5b505af1158015611e35573d6000803e3d6000fd5b505050506040513d601f19601f82011682018060405250810190611e599190613776565b506000878760a00151611e6c91906146ce565b905080600960008b8152602001908152602001600020600501819055506000811415611f09576001600960008b815260200190815260200160002060080160006101000a81548160ff02191690836002811115611ecc57611ecb614931565b5b02179055507f522881958b3c4a6fc0840ad3b7fb947b881edc28c004245a62541647422ade9789604051611f009190614488565b60405180910390a15b6000611f258786868b604001518c606001518d60c001516127b9565b9050611f3a8860c00151896020015183612a8b565b601160009054906101000a900473ffffffffffffffffffffffffffffffffffffffff1673ffffffffffffffffffffffffffffffffffffffff16632ed7bae88960400151338b606001518d6040518563ffffffff1660e01b8152600401611fa39493929190613ff3565b600060405180830381600087803b158015611fbd57600080fd5b505af1158015611fd1573d6000803e3d6000fd5b505050507f3b599f6217e39be59216b60e543ce0d4c7d534fe64dd9d962334924e7819894e8a338b60405161200893929190614512565b60405180910390a150505050505050505050565b7fa49807205ce4d355092ef5a8a18f56e8913cf4a201fbe287825b095693c2177561204e81612049612376565b61237e565b600454821115612093576040517f08c379a000000000000000000000000000000000000000000000000000000000815260040161208a906143ec565b60405180910390fd5b816002819055505050565b7fa49807205ce4d355092ef5a8a18f56e8913cf4a201fbe287825b095693c217756120d0816120cb612376565b61237e565b816006819055505050565b80600a60003373ffffffffffffffffffffffffffffffffffffffff1673ffffffffffffffffffffffffffffffffffffffff16815260200190815260200160002060008473ffffffffffffffffffffffffffffffffffffffff1673ffffffffffffffffffffffffffffffffffffffff16815260200190815260200160002054101561219a576040517f08c379a00000000000000000000000000000000000000000000000000000000081526004016121919061442c565b60405180910390fd5b80600a60003373ffffffffffffffffffffffffffffffffffffffff1673ffffffffffffffffffffffffffffffffffffffff16815260200190815260200160002060008473ffffffffffffffffffffffffffffffffffffffff1673ffffffffffffffffffffffffffffffffffffffff168152602001908152602001600020600082825461222691906146ce565b925050819055508173ffffffffffffffffffffffffffffffffffffffff1663a9059cbb33836040518363ffffffff1660e01b8152600401612268929190614038565b602060405180830381600087803b15801561228257600080fd5b505af1158015612296573d6000803e3d6000fd5b505050506040513d601f19601f820116820180604052508101906122ba9190613776565b505050565b7fa49807205ce4d355092ef5a8a18f56e8913cf4a201fbe287825b095693c217756122f1816122ec612376565b61237e565b816005819055505050565b60007f7965db0b000000000000000000000000000000000000000000000000000000007bffffffffffffffffffffffffffffffffffffffffffffffffffffffff1916827bffffffffffffffffffffffffffffffffffffffffffffffffffffffff1916148061236f575061236e82612b23565b5b9050919050565b600033905090565b6123888282610de6565b612417576123ad8173ffffffffffffffffffffffffffffffffffffffff166014612b8d565b6123bb8360001c6020612b8d565b6040516020016123cc929190613f3e565b6040516020818303038152906040526040517f08c379a000000000000000000000000000000000000000000000000000000000815260040161240e919061414a565b60405180910390fd5b5050565b612423610c81565b612462576040517f08c379a0000000000000000000000000000000000000000000000000000000008152600401612459906141cc565b60405180910390fd5b6000600160006101000a81548160ff0219169083151502179055507f5db9ee0a495bf2e6ff9c91a7834c1ba4fdd244a5e8aa4e537bd38aeae4b073aa6124a6612376565b6040516124b39190613f78565b60405180910390a1565b6124c78282610de6565b61259957600160008084815260200190815260200160002060000160008373ffffffffffffffffffffffffffffffffffffffff1673ffffffffffffffffffffffffffffffffffffffff16815260200190815260200160002060006101000a81548160ff02191690831515021790555061253e612376565b73ffffffffffffffffffffffffffffffffffffffff168173ffffffffffffffffffffffffffffffffffffffff16837f2f8788117e7eff1d82e926ec794901d17c78024a50270940304540a733656f0d60405160405180910390a45b5050565b6125a78282610de6565b1561267a57600080600084815260200190815260200160002060000160008373ffffffffffffffffffffffffffffffffffffffff1673ffffffffffffffffffffffffffffffffffffffff16815260200190815260200160002060006101000a81548160ff02191690831515021790555061261f612376565b73ffffffffffffffffffffffffffffffffffffffff168173ffffffffffffffffffffffffffffffffffffffff16837ff6391f5c32d9c69d2a47ea670b442974b53935d1edc7fd64eb21e047a839171b60405160405180910390a45b5050565b612686610c81565b156126c6576040517f08c379a00000000000000000000000000000000000000000000000000000000081526004016126bd906142cc565b60405180910390fd5b60018060006101000a81548160ff0219169083151502179055507f62e78cea01bee320cd4e420270b5ea74000d11b0c9f74754ebdbfc544b05a258612709612376565b6040516127169190613f78565b60405180910390a1565b6000816040516020016127339190613f18565b604051602081830303815290604052805190602001209050919050565b600080600061275f8585612dc9565b9150915061276c81612e4c565b819250505092915050565b6000806004546002548461278b9190614674565b6127959190614643565b9050600454600354846127a89190614674565b6127b29190614643565b9150915091565b6000858711156127d25785876127cf91906146ce565b96505b86905061280d82601060009054906101000a900473ffffffffffffffffffffffffffffffffffffffff16878961280891906145ed565b612a8b565b8373ffffffffffffffffffffffffffffffffffffffff166301ffc9a763b779958460e01b6040518263ffffffff1660e01b815260040161284d919061412f565b60206040518083038186803b15801561286557600080fd5b505afa158015612879573d6000803e3d6000fd5b505050506040513d601f19601f8201168201806040525081019061289d9190613776565b6128a657612a81565b600084905060008173ffffffffffffffffffffffffffffffffffffffff1663b9c4d9fb866040518263ffffffff1660e01b81526004016128e69190614488565b60006040518083038186803b1580156128fe57600080fd5b505afa158015612912573d6000803e3d6000fd5b505050506040513d6000823e3d601f19601f8201168201806040525081019061293b91906136e4565b905060008273ffffffffffffffffffffffffffffffffffffffff16630ebd4c7f876040518263ffffffff1660e01b81526004016129789190614488565b60006040518083038186803b15801561299057600080fd5b505afa1580156129a4573d6000803e3d6000fd5b505050506040513d6000823e3d601f19601f820116820180604052508101906129cd919061372d565b905060005b8151811015612a7c5760008514156129e957612a7c565b6000600454838381518110612a0157612a00614960565b5b60200260200101518d612a149190614674565b612a1e9190614643565b905085811115612a345785905060009550612a43565b8086612a4091906146ce565b95505b612a6887858481518110612a5a57612a59614960565b5b602002602001015183612a8b565b508080612a7490614852565b9150506129d2565b505050505b9695505050505050565b80600a60008473ffffffffffffffffffffffffffffffffffffffff1673ffffffffffffffffffffffffffffffffffffffff16815260200190815260200160002060008573ffffffffffffffffffffffffffffffffffffffff1673ffffffffffffffffffffffffffffffffffffffff1681526020019081526020016000206000828254612b1791906145ed565b92505081905550505050565b60007f01ffc9a7000000000000000000000000000000000000000000000000000000007bffffffffffffffffffffffffffffffffffffffffffffffffffffffff1916827bffffffffffffffffffffffffffffffffffffffffffffffffffffffff1916149050919050565b606060006002836002612ba09190614674565b612baa91906145ed565b67ffffffffffffffff811115612bc357612bc261498f565b5b6040519080825280601f01601f191660200182016040528015612bf55781602001600182028036833780820191505090505b5090507f300000000000000000000000000000000000000000000000000000000000000081600081518110612c2d57612c2c614960565b5b60200101907effffffffffffffffffffffffffffffffffffffffffffffffffffffffffffff1916908160001a9053507f780000000000000000000000000000000000000000000000000000000000000081600181518110612c9157612c90614960565b5b60200101907effffffffffffffffffffffffffffffffffffffffffffffffffffffffffffff1916908160001a90535060006001846002612cd19190614674565b612cdb91906145ed565b90505b6001811115612d7b577f3031323334353637383961626364656600000000000000000000000000000000600f861660108110612d1d57612d1c614960565b5b1a60f81b828281518110612d3457612d33614960565b5b60200101907effffffffffffffffffffffffffffffffffffffffffffffffffffffffffffff1916908160001a905350600485901c945080612d74906147f7565b9050612cde565b5060008414612dbf576040517f08c379a0000000000000000000000000000000000000000000000000000000008152600401612db69061418c565b60405180910390fd5b8091505092915050565b600080604183511415612e0b5760008060006020860151925060408601519150606086015160001a9050612dff87828585613021565b94509450505050612e45565b604083511415612e3c576000806020850151915060408501519050612e3186838361312e565b935093505050612e45565b60006002915091505b9250929050565b60006004811115612e6057612e5f614931565b5b816004811115612e7357612e72614931565b5b1415612e7e5761301e565b60016004811115612e9257612e91614931565b5b816004811115612ea557612ea4614931565b5b1415612ee6576040517f08c379a0000000000000000000000000000000000000000000000000000000008152600401612edd9061416c565b60405180910390fd5b60026004811115612efa57612ef9614931565b5b816004811115612f0d57612f0c614931565b5b1415612f4e576040517f08c379a0000000000000000000000000000000000000000000000000000000008152600401612f45906141ec565b60405180910390fd5b60036004811115612f6257612f61614931565b5b816004811115612f7557612f74614931565b5b1415612fb6576040517f08c379a0000000000000000000000000000000000000000000000000000000008152600401612fad9061426c565b60405180910390fd5b600480811115612fc957612fc8614931565b5b816004811115612fdc57612fdb614931565b5b141561301d576040517f08c379a00000000000000000000000000000000000000000000000000000000081526004016130149061436c565b60405180910390fd5b5b50565b6000807f7fffffffffffffffffffffffffffffff5d576e7357a4501ddfe92f46681b20a08360001c111561305c576000600391509150613125565b601b8560ff16141580156130745750601c8560ff1614155b15613086576000600491509150613125565b6000600187878787604051600081526020016040526040516130ab94939291906140ea565b6020604051602081039080840390855afa1580156130cd573d6000803e3d6000fd5b505050602060405103519050600073ffffffffffffffffffffffffffffffffffffffff168173ffffffffffffffffffffffffffffffffffffffff16141561311c57600060019250925050613125565b80600092509250505b94509492505050565b6000806000807f7fffffffffffffffffffffffffffffffffffffffffffffffffffffffffffffff85169150601b8560ff1c01905061316e87828885613021565b935093505050935093915050565b60405180610120016040528060008152602001600073ffffffffffffffffffffffffffffffffffffffff168152602001600073ffffffffffffffffffffffffffffffffffffffff168152602001600081526020016000815260200160008152602001600073ffffffffffffffffffffffffffffffffffffffff168152602001600081526020016000600281111561321657613215614931565b5b81525090565b600061322f61322a8461456e565b614549565b90508083825260208201905082856020860282011115613252576132516149c8565b5b60005b8581101561328257816132688882613311565b845260208401935060208301925050600181019050613255565b5050509392505050565b600061329f61329a8461459a565b614549565b905080838252602082019050828560208602820111156132c2576132c16149c8565b5b60005b858110156132f257816132d88882613441565b8452602084019350602083019250506001810190506132c5565b5050509392505050565b60008135905061330b81614f40565b92915050565b60008151905061332081614f57565b92915050565b600082601f83011261333b5761333a6149c3565b5b815161334b84826020860161321c565b91505092915050565b600082601f830112613369576133686149c3565b5b815161337984826020860161328c565b91505092915050565b60008135905061339181614f6e565b92915050565b6000815190506133a681614f6e565b92915050565b6000813590506133bb81614f85565b92915050565b6000813590506133d081614f9c565b92915050565b60008083601f8401126133ec576133eb6149c3565b5b8235905067ffffffffffffffff811115613409576134086149be565b5b602083019150836001820283011115613425576134246149c8565b5b9250929050565b60008135905061343b81614fb3565b92915050565b60008151905061345081614fb3565b92915050565b60006020828403121561346c5761346b6149d2565b5b600061347a848285016132fc565b91505092915050565b6000806040838503121561349a576134996149d2565b5b60006134a8858286016132fc565b92505060206134b9858286016132fc565b9150509250929050565b600080600080600080600080610100898b0312156134e4576134e36149d2565b5b60006134f28b828c016132fc565b98505060206135038b828c016132fc565b97505060406135148b828c0161342c565b96505060606135258b828c0161342c565b95505060806135368b828c016132fc565b94505060a06135478b828c0161342c565b93505060c06135588b828c0161342c565b92505060e06135698b828c0161342c565b9150509295985092959890939650565b6000806000806000806000806000806101208b8d03121561359d5761359c6149d2565b5b60006135ab8d828e016132fc565b9a505060206135bc8d828e016132fc565b99505060406135cd8d828e0161342c565b98505060606135de8d828e0161342c565b97505060806135ef8d828e016132fc565b96505060a06136008d828e0161342c565b95505060c06136118d828e0161342c565b94505060e06136228d828e0161342c565b9350506101008b013567ffffffffffffffff811115613644576136436149cd565b5b6136508d828e016133d6565b92509250509295989b9194979a5092959850565b6000806040838503121561367b5761367a6149d2565b5b6000613689858286016132fc565b925050602061369a85828601613382565b9150509250929050565b600080604083850312156136bb576136ba6149d2565b5b60006136c9858286016132fc565b92505060206136da8582860161342c565b9150509250929050565b6000602082840312156136fa576136f96149d2565b5b600082015167ffffffffffffffff811115613718576137176149cd565b5b61372484828501613326565b91505092915050565b600060208284031215613743576137426149d2565b5b600082015167ffffffffffffffff811115613761576137606149cd565b5b61376d84828501613354565b91505092915050565b60006020828403121561378c5761378b6149d2565b5b600061379a84828501613397565b91505092915050565b6000602082840312156137b9576137b86149d2565b5b60006137c7848285016133ac565b91505092915050565b600080604083850312156137e7576137e66149d2565b5b60006137f5858286016133ac565b9250506020613806858286016132fc565b9150509250929050565b600060208284031215613826576138256149d2565b5b6000613834848285016133c1565b91505092915050565b600060208284031215613853576138526149d2565b5b60006138618482850161342c565b91505092915050565b6000602082840312156138805761387f6149d2565b5b600061388e84828501613441565b91505092915050565b600080604083850312156138ae576138ad6149d2565b5b60006138bc8582860161342c565b92505060206138cd8582860161342c565b9150509250929050565b6138e081614702565b82525050565b6138ef81614702565b82525050565b61390661390182614702565b61489b565b82525050565b61391581614726565b82525050565b61392481614732565b82525050565b61393b61393682614732565b6148ad565b82525050565b61394a8161473c565b82525050565b613959816147b2565b82525050565b600061396a826145c6565b61397481856145d1565b93506139848185602086016147c4565b61398d816149d7565b840191505092915050565b60006139a3826145c6565b6139ad81856145e2565b93506139bd8185602086016147c4565b80840191505092915050565b60006139d66018836145d1565b91506139e1826149f5565b602082019050919050565b60006139f96020836145d1565b9150613a0482614a1e565b602082019050919050565b6000613a1c601b836145d1565b9150613a2782614a47565b602082019050919050565b6000613a3f6014836145d1565b9150613a4a82614a70565b602082019050919050565b6000613a62601f836145d1565b9150613a6d82614a99565b602082019050919050565b6000613a85601c836145e2565b9150613a9082614ac2565b601c82019050919050565b6000613aa86029836145d1565b9150613ab382614aeb565b604082019050919050565b6000613acb6012836145d1565b9150613ad682614b3a565b602082019050919050565b6000613aee601f836145d1565b9150613af982614b63565b602082019050919050565b6000613b116022836145d1565b9150613b1c82614b8c565b604082019050919050565b6000613b346018836145d1565b9150613b3f82614bdb565b602082019050919050565b6000613b576015836145d1565b9150613b6282614c04565b602082019050919050565b6000613b7a6010836145d1565b9150613b8582614c2d565b602082019050919050565b6000613b9d6012836145d1565b9150613ba882614c56565b602082019050919050565b6000613bc06019836145d1565b9150613bcb82614c7f565b602082019050919050565b6000613be3601e836145d1565b9150613bee82614ca8565b602082019050919050565b6000613c066011836145d1565b9150613c1182614cd1565b602082019050919050565b6000613c296022836145d1565b9150613c3482614cfa565b604082019050919050565b6000613c4c6011836145d1565b9150613c5782614d49565b602082019050919050565b6000613c6f6017836145d1565b9150613c7a82614d72565b602082019050919050565b6000613c926013836145d1565b9150613c9d82614d9b565b602082019050919050565b6000613cb56017836145e2565b9150613cc082614dc4565b601782019050919050565b6000613cd8602a836145d1565b9150613ce382614ded565b604082019050919050565b6000613cfb6012836145d1565b9150613d0682614e3c565b602082019050919050565b6000613d1e6021836145d1565b9150613d2982614e65565b604082019050919050565b6000613d416011836145e2565b9150613d4c82614eb4565b601182019050919050565b6000613d64602f836145d1565b9150613d6f82614edd565b604082019050919050565b61012082016000820151613d916000850182613e31565b506020820151613da460208501826138d7565b506040820151613db760408501826138d7565b506060820151613dca6060850182613e31565b506080820151613ddd6080850182613e31565b5060a0820151613df060a0850182613e31565b5060c0820151613e0360c08501826138d7565b5060e0820151613e1660e0850182613e31565b50610100820151613e2b610100850182613950565b50505050565b613e3a8161479b565b82525050565b613e498161479b565b82525050565b613e60613e5b8261479b565b6148c9565b82525050565b613e6f816147a5565b82525050565b6000613e81828c6138f5565b601482019150613e91828b6138f5565b601482019150613ea1828a6138f5565b601482019150613eb18289613e4f565b602082019150613ec18288613e4f565b602082019150613ed182876138f5565b601482019150613ee18286613e4f565b602082019150613ef18285613e4f565b602082019150613f018284613e4f565b6020820191508190509a9950505050505050505050565b6000613f2382613a78565b9150613f2f828461392a565b60208201915081905092915050565b6000613f4982613ca8565b9150613f558285613998565b9150613f6082613d34565b9150613f6c8284613998565b91508190509392505050565b6000602082019050613f8d60008301846138e6565b92915050565b6000604082019050613fa860008301856138e6565b613fb560208301846138e6565b9392505050565b6000606082019050613fd160008301866138e6565b613fde60208301856138e6565b613feb6040830184613e40565b949350505050565b600060808201905061400860008301876138e6565b61401560208301866138e6565b6140226040830185613e40565b61402f6060830184613e40565b95945050505050565b600060408201905061404d60008301856138e6565b61405a6020830184613e40565b9392505050565b600060a08201905061407660008301886138e6565b6140836020830187613e40565b61409060408301866138e6565b61409d6060830185613e40565b6140aa6080830184613e40565b9695505050505050565b60006020820190506140c9600083018461390c565b92915050565b60006020820190506140e4600083018461391b565b92915050565b60006080820190506140ff600083018761391b565b61410c6020830186613e66565b614119604083018561391b565b614126606083018461391b565b95945050505050565b60006020820190506141446000830184613941565b92915050565b60006020820190508181036000830152614164818461395f565b905092915050565b60006020820190508181036000830152614185816139c9565b9050919050565b600060208201905081810360008301526141a5816139ec565b9050919050565b600060208201905081810360008301526141c581613a0f565b9050919050565b600060208201905081810360008301526141e581613a32565b9050919050565b6000602082019050818103600083015261420581613a55565b9050919050565b6000602082019050818103600083015261422581613a9b565b9050919050565b6000602082019050818103600083015261424581613abe565b9050919050565b6000602082019050818103600083015261426581613ae1565b9050919050565b6000602082019050818103600083015261428581613b04565b9050919050565b600060208201905081810360008301526142a581613b27565b9050919050565b600060208201905081810360008301526142c581613b4a565b9050919050565b600060208201905081810360008301526142e581613b6d565b9050919050565b6000602082019050818103600083015261430581613b90565b9050919050565b6000602082019050818103600083015261432581613bb3565b9050919050565b6000602082019050818103600083015261434581613bd6565b9050919050565b6000602082019050818103600083015261436581613bf9565b9050919050565b6000602082019050818103600083015261438581613c1c565b9050919050565b600060208201905081810360008301526143a581613c3f565b9050919050565b600060208201905081810360008301526143c581613c62565b9050919050565b600060208201905081810360008301526143e581613c85565b9050919050565b6000602082019050818103600083015261440581613ccb565b9050919050565b6000602082019050818103600083015261442581613cee565b9050919050565b6000602082019050818103600083015261444581613d11565b9050919050565b6000602082019050818103600083015261446581613d57565b9050919050565b6000610120820190506144826000830184613d7a565b92915050565b600060208201905061449d6000830184613e40565b92915050565b600060e0820190506144b8600083018a613e40565b6144c560208301896138e6565b6144d260408301886138e6565b6144df6060830187613e40565b6144ec6080830186613e40565b6144f960a08301856138e6565b61450660c0830184613e40565b98975050505050505050565b60006060820190506145276000830186613e40565b61453460208301856138e6565b6145416040830184613e40565b949350505050565b6000614553614564565b905061455f8282614821565b919050565b6000604051905090565b600067ffffffffffffffff8211156145895761458861498f565b5b602082029050602081019050919050565b600067ffffffffffffffff8211156145b5576145b461498f565b5b602082029050602081019050919050565b600081519050919050565b600082825260208201905092915050565b600081905092915050565b60006145f88261479b565b91506146038361479b565b9250827fffffffffffffffffffffffffffffffffffffffffffffffffffffffffffffffff03821115614638576146376148d3565b5b828201905092915050565b600061464e8261479b565b91506146598361479b565b92508261466957614668614902565b5b828204905092915050565b600061467f8261479b565b915061468a8361479b565b9250817fffffffffffffffffffffffffffffffffffffffffffffffffffffffffffffffff04831182151516156146c3576146c26148d3565b5b828202905092915050565b60006146d98261479b565b91506146e48361479b565b9250828210156146f7576146f66148d3565b5b828203905092915050565b600061470d8261477b565b9050919050565b600061471f8261477b565b9050919050565b60008115159050919050565b6000819050919050565b60007fffffffff0000000000000000000000000000000000000000000000000000000082169050919050565b600081905061477682614f2c565b919050565b600073ffffffffffffffffffffffffffffffffffffffff82169050919050565b6000819050919050565b600060ff82169050919050565b60006147bd82614768565b9050919050565b60005b838110156147e25780820151818401526020810190506147c7565b838111156147f1576000848401525b50505050565b60006148028261479b565b91506000821415614816576148156148d3565b5b600182039050919050565b61482a826149d7565b810181811067ffffffffffffffff821117156148495761484861498f565b5b80604052505050565b600061485d8261479b565b91507fffffffffffffffffffffffffffffffffffffffffffffffffffffffffffffffff8214156148905761488f6148d3565b5b600182019050919050565b60006148a6826148b7565b9050919050565b6000819050919050565b60006148c2826149e8565b9050919050565b6000819050919050565b7f4e487b7100000000000000000000000000000000000000000000000000000000600052601160045260246000fd5b7f4e487b7100000000000000000000000000000000000000000000000000000000600052601260045260246000fd5b7f4e487b7100000000000000000000000000000000000000000000000000000000600052602160045260246000fd5b7f4e487b7100000000000000000000000000000000000000000000000000000000600052603260045260246000fd5b7f4e487b7100000000000000000000000000000000000000000000000000000000600052604160045260246000fd5b600080fd5b600080fd5b600080fd5b600080fd5b600080fd5b6000601f19601f8301169050919050565b60008160601b9050919050565b7f45434453413a20696e76616c6964207369676e61747572650000000000000000600082015250565b7f537472696e67733a20686578206c656e67746820696e73756666696369656e74600082015250565b7f4e6f7420656e6f75676820746f6b656e7320666f722073616c652e0000000000600082015250565b7f5061757361626c653a206e6f7420706175736564000000000000000000000000600082015250565b7f45434453413a20696e76616c6964207369676e6174757265206c656e67746800600082015250565b7f19457468657265756d205369676e6564204d6573736167653a0a333200000000600082015250565b7f4f6e6c792073656c6c6572206f722061646d696e2063616e20636c6f7365207460008201527f68652074726164652e0000000000000000000000000000000000000000000000602082015250565b7f5472616465206973206e6f74206f70656e2e0000000000000000000000000000600082015250565b7f4f6e6c79206f70656e207472616465732063616e20626520636c6f7365642e00600082015250565b7f45434453413a20696e76616c6964207369676e6174757265202773272076616c60008201527f7565000000000000000000000000000000000000000000000000000000000000602082015250565b7f43757272656e6379206973206e6f7420616c6c6f7765642e0000000000000000600082015250565b7f416c6c6f77616e636520697320746f6f206c6f772e0000000000000000000000600082015250565b7f5061757361626c653a2070617573656400000000000000000000000000000000600082015250565b7f507269636520697320746f6f20686967682e0000000000000000000000000000600082015250565b7f5175616e746974792065786365656473206d6178696d756d2e00000000000000600082015250565b7f546f6b656e20636f6e7472616374206973206e6f7420616c6c6f7765642e0000600082015250565b7f507269636520697320746f6f206c6f772e000000000000000000000000000000600082015250565b7f45434453413a20696e76616c6964207369676e6174757265202776272076616c60008201527f7565000000000000000000000000000000000000000000000000000000000000602082015250565b7f417070726f76616c20657870697265642e000000000000000000000000000000600082015250565b7f53656c6c65722063616e6e6f742062652062757965722e000000000000000000600082015250565b7f417070726f76616c206578686175737465642e00000000000000000000000000600082015250565b7f416363657373436f6e74726f6c3a206163636f756e7420000000000000000000600082015250565b7f4665652063616e6e6f7420626520686967686572207468616e2068756e64726560008201527f642070657263656e742e00000000000000000000000000000000000000000000602082015250565b7f496e76616c6964207369676e61747572652e0000000000000000000000000000600082015250565b7f496e73756666696369656e742062616c616e636520746f20776974686472617760008201527f2e00000000000000000000000000000000000000000000000000000000000000602082015250565b7f206973206d697373696e6720726f6c6520000000000000000000000000000000600082015250565b7f416363657373436f6e74726f6c3a2063616e206f6e6c792072656e6f756e636560008201527f20726f6c657320666f722073656c660000000000000000000000000000000000602082015250565b60038110614f3d57614f3c614931565b5b50565b614f4981614702565b8114614f5457600080fd5b50565b614f6081614714565b8114614f6b57600080fd5b50565b614f7781614726565b8114614f8257600080fd5b50565b614f8e81614732565b8114614f9957600080fd5b50565b614fa58161473c565b8114614fb057600080fd5b50565b614fbc8161479b565b8114614fc757600080fd5b5056fea2646970667358221220594835d28041fc301bfbfd3358feba753ca1cf570f0d0fc661afd43a9452206764736f6c63430008070033",
  "immutableReferences": {},
  "source": "// SPDX-License-Identifier: MIT\r\npragma solidity ^0.8.0;\r\n\r\nimport \"@openzeppelin/contracts/access/AccessControl.sol\";\r\nimport \"@openzeppelin/contracts/token/ERC20/IERC20.sol\";\r\nimport \"@openzeppelin/contracts/utils/cryptography/ECDSA.sol\";\r\nimport \"@openzeppelin/contracts/security/Pausable.sol\";\r\n\r\nimport \"./MarketWalletV1.sol\";\r\nimport \"./HasSecondarySaleFees.sol\";\r\n\r\nenum TradeStatus { Active, Sold, Cancelled }\r\n\r\nstruct Trade {\r\n  uint id;\r\n  address seller;\r\n  address token;\r\n  uint tokenId;\r\n  uint quantity;\r\n  uint available;\r\n  address currency;\r\n  uint price;\r\n  TradeStatus status;\r\n}\r\n\r\ncontract MarketV1 is AccessControl, Pausable {\r\n  using ECDSA for bytes32;\r\n\r\n  bytes internal constant EMPTY = \"\";\r\n\r\n  uint256 public buyerFeePct = 5000;\r\n  uint256 public sellerFeePct = 5000;\r\n  uint256 public hundredPct = 10**5;\r\n\r\n  uint256 public maxTokenPrice = 10**6 * 1 ether;\r\n  uint256 public maxTradeQuantity = 10**6;\r\n  uint256 public minTokenPrice = hundredPct;\r\n\r\n  // mapping(bytes => uint[]) public tradeHistory;\r\n\r\n  uint private _tradeId = 0;\r\n\r\n  mapping(uint => Trade) private _trades;\r\n\r\n  // seller => (currency => revenue)\r\n  mapping(address => mapping(address => uint)) internal _earnings;\r\n\r\n  // contract address => isAuthorized\r\n  mapping(address => bool) internal _approvedTokens;\r\n  uint private _approvedTokenCount = 0;\r\n\r\n  // contract address => isAuthorized\r\n  mapping(address => bool) internal _approvedCurrencies;\r\n  uint private _approvedCurrenciesCount = 0;\r\n  \r\n  mapping(bytes32 => bool) private _approvalsExhausted;\r\n\r\n  address internal _feeBeneficiary;\r\n\r\n  MarketWalletV1 internal _wallet;\r\n\r\n  event ListForSale(\r\n    uint tradeId,\r\n    address seller,\r\n    address tokenContract,\r\n    uint tokenId,\r\n    uint quantity,\r\n    address currency,\r\n    uint price\r\n  );\r\n\r\n  event Sell(\r\n    uint tradeId\r\n  );\r\n\r\n  event Buy(\r\n    uint tradeId,\r\n    address buyer,\r\n    uint quantity\r\n  );\r\n\r\n  event CancelListing(\r\n    address operator,\r\n    uint tradeId,\r\n    address tokenContract,\r\n    uint tokenId,\r\n    uint returned\r\n  );\r\n  \r\n  bytes32 public constant ADMIN_ROLE = keccak256(\"ADMIN_ROLE\");\r\n\r\n  bytes4 private constant _INTERFACE_ID_FEES = 0xb7799584;\r\n\r\n  constructor(MarketWalletV1 wallet) {\r\n    _setupRole(DEFAULT_ADMIN_ROLE, msg.sender);\r\n    \r\n    _setupRole(ADMIN_ROLE, msg.sender);\r\n    _setRoleAdmin(ADMIN_ROLE, DEFAULT_ADMIN_ROLE);\r\n\r\n    _feeBeneficiary = msg.sender;\r\n    _wallet = wallet;\r\n  }\r\n  \r\n  function supportsInterface(bytes4 interfaceID) override(AccessControl)\r\n    public view returns (bool) {\r\n    return super.supportsInterface(interfaceID);\r\n  }\r\n\r\n  function get(uint tradeId) public view returns (Trade memory) {\r\n    return _trades[tradeId];\r\n  }\r\n\r\n  function buy(uint tradeId, uint quantity) public whenNotPaused {\r\n    Trade memory trade = _trades[tradeId];\r\n\r\n    // Require trade is still open\r\n    require(trade.status == TradeStatus.Active, \"Trade is not open.\");\r\n\r\n    // Check quantity\r\n    require(quantity <= trade.available, \"Not enough tokens for sale.\");\r\n\r\n    // Require buyer to be different from seller\r\n    require(msg.sender != trade.seller, \"Seller cannot be buyer.\");\r\n\r\n    // Calculate prices\r\n    uint subtotal = trade.price * quantity;\r\n\r\n    IERC20 currency = IERC20(trade.currency);\r\n\r\n    (uint sellerFee, uint buyerFee) = calculateMarketFees(subtotal);\r\n\r\n    uint allowance = currency.allowance(msg.sender, address(this));\r\n    require(allowance >= subtotal + buyerFee, \"Allowance is too low.\");\r\n\r\n    // Deposit currency for escrow\r\n    currency.transferFrom(\r\n      msg.sender,\r\n      address(this),\r\n      subtotal + buyerFee\r\n    );\r\n\r\n    uint available = trade.available - quantity;\r\n    _trades[tradeId].available = available;\r\n\r\n    if (available == 0) {\r\n      _trades[tradeId].status = TradeStatus.Sold;\r\n      emit Sell(tradeId);\r\n    }\r\n\r\n    uint sellerNet = payAfterFees(\r\n      subtotal,\r\n      sellerFee,\r\n      buyerFee,\r\n      trade.token,\r\n      trade.tokenId,\r\n      trade.currency\r\n    );\r\n\r\n    pay(trade.currency, trade.seller, sellerNet);\r\n\r\n    _wallet.give(\r\n      trade.token,\r\n      msg.sender,\r\n      trade.tokenId,\r\n      quantity\r\n    );\r\n\r\n    emit Buy(\r\n      tradeId,\r\n      msg.sender,\r\n      quantity\r\n    );\r\n  }\r\n\r\n  function pay(address currency, address account, uint amount) internal {\r\n    _earnings[account][currency] += amount;\r\n  }\r\n\r\n  function calculateMarketFees(uint subtotal)\r\n    internal view returns (uint sellerFee, uint buyerFee) {\r\n    buyerFee = (subtotal * buyerFeePct) / hundredPct;\r\n    sellerFee = (subtotal * sellerFeePct) / hundredPct;\r\n  }\r\n\r\n  function payAfterFees(\r\n    uint subtotal,\r\n    uint sellerFee,\r\n    uint buyerFee,\r\n    address token,\r\n    uint tokenId,\r\n    address currency\r\n  ) internal returns (uint sellerPay) {\r\n    if (subtotal > sellerFee)\r\n      subtotal = subtotal - sellerFee;\r\n      sellerPay = subtotal;\r\n    \r\n    // Pay market fees\r\n    pay(currency, _feeBeneficiary, sellerFee + buyerFee);\r\n\r\n    if (!IERC165(token).supportsInterface(_INTERFACE_ID_FEES))\r\n      return sellerPay;\r\n\r\n    HasSecondarySaleFees tokenWithFees = HasSecondarySaleFees(token);\r\n\r\n    address payable[] memory recipients =\r\n      tokenWithFees.getFeeRecipients(tokenId);\r\n\r\n    uint[] memory feeBps = tokenWithFees.getFeeBps(tokenId);\r\n\r\n    for (uint i = 0; i < feeBps.length; i++) {\r\n      if (sellerPay == 0) break;\r\n\r\n      uint fee = (subtotal * feeBps[i]) / hundredPct;\r\n\r\n      if (fee > sellerPay) {\r\n        fee = sellerPay;\r\n        sellerPay = 0;\r\n      } else {\r\n        sellerPay -= fee;\r\n      }\r\n\r\n      pay(currency, recipients[i], fee);\r\n    }\r\n  }\r\n\r\n  function getSaleAuthorizationHash(\r\n    address seller,\r\n    address token,\r\n    uint tokenId,\r\n    uint quantity,\r\n    address currency,\r\n    uint price,\r\n    uint expiry,\r\n    uint salt\r\n  ) public view returns (bytes32) {\r\n    return keccak256(abi.encodePacked(\r\n      address(this),\r\n      seller,\r\n      token,\r\n      tokenId,\r\n      quantity,\r\n      currency,\r\n      price,\r\n      expiry,\r\n      salt\r\n    ));\r\n  }\r\n\r\n  function listForSale(\r\n    address seller,\r\n    address token,\r\n    uint tokenId,\r\n    uint quantity,\r\n    address currency,\r\n    uint price,\r\n    uint expiry,\r\n    uint salt,\r\n    bytes calldata signature\r\n  ) public whenNotPaused {\r\n    require(price >= minTokenPrice, \"Price is too low.\");\r\n    require(price <= maxTokenPrice, \"Price is too high.\");\r\n    require(quantity <= maxTradeQuantity, \"Quantity exceeds maximum.\");\r\n\r\n    require(_approvedTokens[token], \"Token contract is not allowed.\");\r\n    require(_approvedCurrencies[currency], \"Currency is not allowed.\");\r\n\r\n    if (!hasRole(ADMIN_ROLE, msg.sender)) {\r\n      require(expiry > block.timestamp, \"Approval expired.\");\r\n\r\n      bytes32 saleHash = getSaleAuthorizationHash(\r\n        seller,\r\n        token,\r\n        tokenId,\r\n        quantity,\r\n        currency,\r\n        price,\r\n        expiry,\r\n        salt\r\n      );\r\n\r\n      require(!_approvalsExhausted[saleHash], \"Approval exhausted.\");\r\n      \r\n      address recoveredAddress = saleHash\r\n        .toEthSignedMessageHash()\r\n        .recover(signature);\r\n      \r\n      require(\r\n        recoveredAddress != address(0)\r\n          && hasRole(ADMIN_ROLE, recoveredAddress),\r\n        \"Invalid signature.\"\r\n      );\r\n\r\n      _approvalsExhausted[saleHash] = true;\r\n    }\r\n\r\n    if (!IERC165(token).supportsInterface(type(IERC1155).interfaceId))\r\n      quantity = 1;\r\n\r\n    _wallet.take(\r\n      token,\r\n      seller,\r\n      tokenId,\r\n      quantity\r\n    );\r\n\r\n    // Create trade\r\n    _tradeId++;\r\n\r\n    Trade memory trade = Trade(\r\n      _tradeId,\r\n      seller,\r\n      token,\r\n      tokenId,\r\n      quantity,\r\n      quantity,\r\n      currency,\r\n      price,\r\n      TradeStatus.Active\r\n    );\r\n\r\n    _trades[_tradeId] = trade;\r\n\r\n    // tradeHistory[\r\n    //   abi.encodePacked(\r\n    //     token,\r\n    //     tokenId\r\n    //   )\r\n    // ].push(_tradeId);\r\n\r\n    emit ListForSale(\r\n      _tradeId,\r\n      seller,\r\n      token,\r\n      tokenId,\r\n      quantity,\r\n      currency,\r\n      price\r\n    );\r\n  }\r\n\r\n  function cancel(uint256 tradeId) public {\r\n    Trade memory trade = _trades[tradeId];\r\n    \r\n    require(\r\n      trade.status == TradeStatus.Active,\r\n      \"Only open trades can be closed.\"\r\n    );\r\n\r\n    require(\r\n      msg.sender == trade.seller || hasRole(ADMIN_ROLE, msg.sender),\r\n      \"Only seller or admin can close the trade.\"\r\n    );\r\n    \r\n    // Mark trade as cancelled\r\n    _trades[tradeId].status = TradeStatus.Cancelled;\r\n\r\n    _wallet.give(\r\n      trade.token,\r\n      trade.seller,\r\n      trade.tokenId,\r\n      trade.available\r\n    );\r\n\r\n    emit CancelListing(\r\n      msg.sender,\r\n      tradeId,\r\n      trade.token,\r\n      trade.tokenId,\r\n      trade.available\r\n    );\r\n  }\r\n\r\n  function getBalance(address currency, address account) public view returns (uint) {\r\n    return _earnings[account][currency];\r\n  }\r\n\r\n  function withdraw(address currency, uint amount) public {\r\n    require(\r\n      _earnings[msg.sender][currency] >= amount,\r\n      \"Insufficient balance to withdraw.\"\r\n    );\r\n\r\n    _earnings[msg.sender][currency] -= amount;\r\n\r\n    IERC20(currency).transfer(msg.sender, amount);\r\n  }\r\n\r\n  function isTokenApproved(address token) public view returns (bool) {\r\n    return _approvedTokens[token];\r\n  }\r\n\r\n  function isCurrencyApproved(address currency) public view returns (bool) {\r\n    return _approvedCurrencies[currency];\r\n  }\r\n\r\n  function setTokenApproval(address token, bool isApproved) public onlyRole(ADMIN_ROLE) {\r\n    _approvedTokens[token] = isApproved;\r\n  }\r\n\r\n  function setCurrencyApproval(address currency, bool isApproved) public onlyRole(ADMIN_ROLE) {\r\n    _approvedCurrencies[currency] = isApproved;\r\n  }\r\n  \r\n  function setMaxTokenPriceEther(uint256 price) public onlyRole(ADMIN_ROLE) {\r\n    maxTokenPrice = price * 1 ether;\r\n  }\r\n  \r\n  function setMaxTokenPriceWei(uint256 price) public onlyRole(ADMIN_ROLE) {\r\n    maxTokenPrice = price;\r\n  }\r\n  \r\n  function setMaxTradeQuantity(uint256 quantity) public onlyRole(ADMIN_ROLE) {\r\n    maxTradeQuantity = quantity;\r\n  }\r\n\r\n  function setBuyerFeePct(uint256 pct) public onlyRole(ADMIN_ROLE) {\r\n    require(pct <= hundredPct, \"Fee cannot be higher than hundred percent.\");\r\n    buyerFeePct = pct;\r\n  }\r\n  \r\n  function setSellerFeePct(uint256 pct) public onlyRole(ADMIN_ROLE) {\r\n    require(pct <= hundredPct, \"Fee cannot be higher than hundred percent.\");\r\n    sellerFeePct = pct;\r\n  }\r\n\r\n  function setFeeBeneficiary(address beneficiary) public onlyRole(DEFAULT_ADMIN_ROLE) {\r\n    _feeBeneficiary = beneficiary;\r\n  }\r\n  \r\n  function pause() public onlyRole(ADMIN_ROLE) {\r\n    super._pause();\r\n  }\r\n\r\n  function resume() public onlyRole(ADMIN_ROLE) {\r\n    super._unpause();\r\n  }\r\n}\r\n",
  "sourcePath": "C:\\Users\\Husnain\\Documents\\Projects\\Fanbase\\fanbase\\packages\\ethereum\\contracts\\solidity\\contracts\\MarketV1.sol",
  "compiler": {
    "name": "solc",
    "version": "0.8.7+commit.e28d00a7.Emscripten.clang"
  },
  "schemaVersion": "3.4.3",
  "updatedAt": "2021-09-19T17:27:57.961Z",
  "devdoc": {
    "kind": "dev",
    "methods": {
      "getRoleAdmin(bytes32)": {
        "details": "Returns the admin role that controls `role`. See {grantRole} and {revokeRole}. To change a role's admin, use {_setRoleAdmin}."
      },
      "grantRole(bytes32,address)": {
        "details": "Grants `role` to `account`. If `account` had not been already granted `role`, emits a {RoleGranted} event. Requirements: - the caller must have ``role``'s admin role."
      },
      "hasRole(bytes32,address)": {
        "details": "Returns `true` if `account` has been granted `role`."
      },
      "paused()": {
        "details": "Returns true if the contract is paused, and false otherwise."
      },
      "renounceRole(bytes32,address)": {
        "details": "Revokes `role` from the calling account. Roles are often managed via {grantRole} and {revokeRole}: this function's purpose is to provide a mechanism for accounts to lose their privileges if they are compromised (such as when a trusted device is misplaced). If the calling account had been granted `role`, emits a {RoleRevoked} event. Requirements: - the caller must be `account`."
      },
      "revokeRole(bytes32,address)": {
        "details": "Revokes `role` from `account`. If `account` had been granted `role`, emits a {RoleRevoked} event. Requirements: - the caller must have ``role``'s admin role."
      }
    },
    "version": 1
  },
  "userdoc": {
    "kind": "user",
    "methods": {},
    "version": 1
  }
}