{
  "contractName": "MarketV1",
  "abi": [
    {
      "inputs": [
        {
          "internalType": "contract MarketWalletV1",
          "name": "wallet",
          "type": "address"
        }
      ],
      "stateMutability": "nonpayable",
      "type": "constructor"
    },
    {
      "anonymous": false,
      "inputs": [
        {
          "indexed": false,
          "internalType": "uint256",
          "name": "tradeId",
          "type": "uint256"
        },
        {
          "indexed": false,
          "internalType": "address",
          "name": "buyer",
          "type": "address"
        },
        {
          "indexed": false,
          "internalType": "uint256",
          "name": "quantity",
          "type": "uint256"
        }
      ],
      "name": "Buy",
      "type": "event"
    },
    {
      "anonymous": false,
      "inputs": [
        {
          "indexed": true,
          "internalType": "uint256",
          "name": "tradeId",
          "type": "uint256"
        },
        {
          "indexed": false,
          "internalType": "address",
          "name": "operator",
          "type": "address"
        }
      ],
      "name": "Cancel",
      "type": "event"
    },
    {
      "anonymous": false,
      "inputs": [
        {
          "indexed": false,
          "internalType": "address",
          "name": "account",
          "type": "address"
        }
      ],
      "name": "Paused",
      "type": "event"
    },
    {
      "anonymous": false,
      "inputs": [
        {
          "indexed": true,
          "internalType": "bytes32",
          "name": "role",
          "type": "bytes32"
        },
        {
          "indexed": true,
          "internalType": "bytes32",
          "name": "previousAdminRole",
          "type": "bytes32"
        },
        {
          "indexed": true,
          "internalType": "bytes32",
          "name": "newAdminRole",
          "type": "bytes32"
        }
      ],
      "name": "RoleAdminChanged",
      "type": "event"
    },
    {
      "anonymous": false,
      "inputs": [
        {
          "indexed": true,
          "internalType": "bytes32",
          "name": "role",
          "type": "bytes32"
        },
        {
          "indexed": true,
          "internalType": "address",
          "name": "account",
          "type": "address"
        },
        {
          "indexed": true,
          "internalType": "address",
          "name": "sender",
          "type": "address"
        }
      ],
      "name": "RoleGranted",
      "type": "event"
    },
    {
      "anonymous": false,
      "inputs": [
        {
          "indexed": true,
          "internalType": "bytes32",
          "name": "role",
          "type": "bytes32"
        },
        {
          "indexed": true,
          "internalType": "address",
          "name": "account",
          "type": "address"
        },
        {
          "indexed": true,
          "internalType": "address",
          "name": "sender",
          "type": "address"
        }
      ],
      "name": "RoleRevoked",
      "type": "event"
    },
    {
      "anonymous": false,
      "inputs": [
        {
          "indexed": false,
          "internalType": "uint256",
          "name": "tradeId",
          "type": "uint256"
        },
        {
          "indexed": false,
          "internalType": "address",
          "name": "seller",
          "type": "address"
        },
        {
          "indexed": false,
          "internalType": "address",
          "name": "tokenContract",
          "type": "address"
        },
        {
          "indexed": false,
          "internalType": "uint256",
          "name": "tokenId",
          "type": "uint256"
        },
        {
          "indexed": false,
          "internalType": "uint256",
          "name": "quantity",
          "type": "uint256"
        },
        {
          "indexed": false,
          "internalType": "address",
          "name": "currency",
          "type": "address"
        },
        {
          "indexed": false,
          "internalType": "uint256",
          "name": "price",
          "type": "uint256"
        }
      ],
      "name": "Sell",
      "type": "event"
    },
    {
      "anonymous": false,
      "inputs": [
        {
          "indexed": false,
          "internalType": "address",
          "name": "account",
          "type": "address"
        }
      ],
      "name": "Unpaused",
      "type": "event"
    },
    {
      "inputs": [],
      "name": "ADMIN_ROLE",
      "outputs": [
        {
          "internalType": "bytes32",
          "name": "",
          "type": "bytes32"
        }
      ],
      "stateMutability": "view",
      "type": "function"
    },
    {
      "inputs": [],
      "name": "DEFAULT_ADMIN_ROLE",
      "outputs": [
        {
          "internalType": "bytes32",
          "name": "",
          "type": "bytes32"
        }
      ],
      "stateMutability": "view",
      "type": "function"
    },
    {
      "inputs": [],
      "name": "buyerFeePct",
      "outputs": [
        {
          "internalType": "uint256",
          "name": "",
          "type": "uint256"
        }
      ],
      "stateMutability": "view",
      "type": "function"
    },
    {
      "inputs": [
        {
          "internalType": "bytes32",
          "name": "role",
          "type": "bytes32"
        }
      ],
      "name": "getRoleAdmin",
      "outputs": [
        {
          "internalType": "bytes32",
          "name": "",
          "type": "bytes32"
        }
      ],
      "stateMutability": "view",
      "type": "function"
    },
    {
      "inputs": [
        {
          "internalType": "bytes32",
          "name": "role",
          "type": "bytes32"
        },
        {
          "internalType": "address",
          "name": "account",
          "type": "address"
        }
      ],
      "name": "grantRole",
      "outputs": [],
      "stateMutability": "nonpayable",
      "type": "function"
    },
    {
      "inputs": [
        {
          "internalType": "bytes32",
          "name": "role",
          "type": "bytes32"
        },
        {
          "internalType": "address",
          "name": "account",
          "type": "address"
        }
      ],
      "name": "hasRole",
      "outputs": [
        {
          "internalType": "bool",
          "name": "",
          "type": "bool"
        }
      ],
      "stateMutability": "view",
      "type": "function"
    },
    {
      "inputs": [],
      "name": "hundredPct",
      "outputs": [
        {
          "internalType": "uint256",
          "name": "",
          "type": "uint256"
        }
      ],
      "stateMutability": "view",
      "type": "function"
    },
    {
      "inputs": [],
      "name": "maxTokenPrice",
      "outputs": [
        {
          "internalType": "uint256",
          "name": "",
          "type": "uint256"
        }
      ],
      "stateMutability": "view",
      "type": "function"
    },
    {
      "inputs": [],
      "name": "maxTradeQuantity",
      "outputs": [
        {
          "internalType": "uint256",
          "name": "",
          "type": "uint256"
        }
      ],
      "stateMutability": "view",
      "type": "function"
    },
    {
      "inputs": [],
      "name": "minTokenPrice",
      "outputs": [
        {
          "internalType": "uint256",
          "name": "",
          "type": "uint256"
        }
      ],
      "stateMutability": "view",
      "type": "function"
    },
    {
      "inputs": [],
      "name": "paused",
      "outputs": [
        {
          "internalType": "bool",
          "name": "",
          "type": "bool"
        }
      ],
      "stateMutability": "view",
      "type": "function"
    },
    {
      "inputs": [
        {
          "internalType": "bytes32",
          "name": "role",
          "type": "bytes32"
        },
        {
          "internalType": "address",
          "name": "account",
          "type": "address"
        }
      ],
      "name": "renounceRole",
      "outputs": [],
      "stateMutability": "nonpayable",
      "type": "function"
    },
    {
      "inputs": [
        {
          "internalType": "bytes32",
          "name": "role",
          "type": "bytes32"
        },
        {
          "internalType": "address",
          "name": "account",
          "type": "address"
        }
      ],
      "name": "revokeRole",
      "outputs": [],
      "stateMutability": "nonpayable",
      "type": "function"
    },
    {
      "inputs": [],
      "name": "sellerFeePct",
      "outputs": [
        {
          "internalType": "uint256",
          "name": "",
          "type": "uint256"
        }
      ],
      "stateMutability": "view",
      "type": "function"
    },
    {
      "inputs": [
        {
          "internalType": "bytes",
          "name": "",
          "type": "bytes"
        },
        {
          "internalType": "uint256",
          "name": "",
          "type": "uint256"
        }
      ],
      "name": "tradeHistory",
      "outputs": [
        {
          "internalType": "uint256",
          "name": "",
          "type": "uint256"
        }
      ],
      "stateMutability": "view",
      "type": "function"
    },
    {
      "inputs": [
        {
          "internalType": "bytes4",
          "name": "interfaceID",
          "type": "bytes4"
        }
      ],
      "name": "supportsInterface",
      "outputs": [
        {
          "internalType": "bool",
          "name": "",
          "type": "bool"
        }
      ],
      "stateMutability": "view",
      "type": "function"
    },
    {
      "inputs": [
        {
          "internalType": "uint256",
          "name": "tradeId",
          "type": "uint256"
        }
      ],
      "name": "get",
      "outputs": [
        {
          "components": [
            {
              "internalType": "uint256",
              "name": "id",
              "type": "uint256"
            },
            {
              "internalType": "address",
              "name": "seller",
              "type": "address"
            },
            {
              "internalType": "address",
              "name": "token",
              "type": "address"
            },
            {
              "internalType": "uint256",
              "name": "tokenId",
              "type": "uint256"
            },
            {
              "internalType": "uint256",
              "name": "quantity",
              "type": "uint256"
            },
            {
              "internalType": "uint256",
              "name": "available",
              "type": "uint256"
            },
            {
              "internalType": "address",
              "name": "currency",
              "type": "address"
            },
            {
              "internalType": "uint256",
              "name": "price",
              "type": "uint256"
            },
            {
              "internalType": "enum TradeStatus",
              "name": "status",
              "type": "uint8"
            }
          ],
          "internalType": "struct Trade",
          "name": "",
          "type": "tuple"
        }
      ],
      "stateMutability": "view",
      "type": "function"
    },
    {
      "inputs": [
        {
          "internalType": "uint256",
          "name": "tradeId",
          "type": "uint256"
        },
        {
          "internalType": "uint256",
          "name": "quantity",
          "type": "uint256"
        }
      ],
      "name": "buy",
      "outputs": [],
      "stateMutability": "nonpayable",
      "type": "function"
    },
    {
      "inputs": [
        {
          "internalType": "address",
          "name": "seller",
          "type": "address"
        },
        {
          "internalType": "address",
          "name": "token",
          "type": "address"
        },
        {
          "internalType": "uint256",
          "name": "tokenId",
          "type": "uint256"
        },
        {
          "internalType": "uint256",
          "name": "quantity",
          "type": "uint256"
        },
        {
          "internalType": "address",
          "name": "currency",
          "type": "address"
        },
        {
          "internalType": "uint256",
          "name": "price",
          "type": "uint256"
        },
        {
          "internalType": "uint256",
          "name": "expiry",
          "type": "uint256"
        },
        {
          "internalType": "uint256",
          "name": "salt",
          "type": "uint256"
        }
      ],
      "name": "getSaleAuthorizationHash",
      "outputs": [
        {
          "internalType": "bytes32",
          "name": "",
          "type": "bytes32"
        }
      ],
      "stateMutability": "view",
      "type": "function"
    },
    {
      "inputs": [
        {
          "internalType": "address",
          "name": "seller",
          "type": "address"
        },
        {
          "internalType": "address",
          "name": "token",
          "type": "address"
        },
        {
          "internalType": "uint256",
          "name": "tokenId",
          "type": "uint256"
        },
        {
          "internalType": "uint256",
          "name": "quantity",
          "type": "uint256"
        },
        {
          "internalType": "address",
          "name": "currency",
          "type": "address"
        },
        {
          "internalType": "uint256",
          "name": "price",
          "type": "uint256"
        },
        {
          "internalType": "uint256",
          "name": "expiry",
          "type": "uint256"
        },
        {
          "internalType": "uint256",
          "name": "salt",
          "type": "uint256"
        },
        {
          "internalType": "bytes",
          "name": "signature",
          "type": "bytes"
        }
      ],
      "name": "sell",
      "outputs": [],
      "stateMutability": "nonpayable",
      "type": "function"
    },
    {
      "inputs": [
        {
          "internalType": "uint256",
          "name": "tradeId",
          "type": "uint256"
        }
      ],
      "name": "cancel",
      "outputs": [],
      "stateMutability": "nonpayable",
      "type": "function"
    },
    {
      "inputs": [
        {
          "internalType": "address",
          "name": "currency",
          "type": "address"
        },
        {
          "internalType": "address",
          "name": "account",
          "type": "address"
        }
      ],
      "name": "getBalance",
      "outputs": [
        {
          "internalType": "uint256",
          "name": "",
          "type": "uint256"
        }
      ],
      "stateMutability": "view",
      "type": "function"
    },
    {
      "inputs": [
        {
          "internalType": "address",
          "name": "currency",
          "type": "address"
        },
        {
          "internalType": "uint256",
          "name": "amount",
          "type": "uint256"
        }
      ],
      "name": "withdraw",
      "outputs": [],
      "stateMutability": "nonpayable",
      "type": "function"
    },
    {
      "inputs": [
        {
          "internalType": "address",
          "name": "beneficiary",
          "type": "address"
        }
      ],
      "name": "setFeeBeneficiary",
      "outputs": [],
      "stateMutability": "nonpayable",
      "type": "function"
    },
    {
      "inputs": [
        {
          "internalType": "address",
          "name": "token",
          "type": "address"
        },
        {
          "internalType": "bool",
          "name": "isApproved",
          "type": "bool"
        }
      ],
      "name": "setTokenApproval",
      "outputs": [],
      "stateMutability": "nonpayable",
      "type": "function"
    },
    {
      "inputs": [
        {
          "internalType": "address",
          "name": "currency",
          "type": "address"
        },
        {
          "internalType": "bool",
          "name": "isApproved",
          "type": "bool"
        }
      ],
      "name": "setCurrencyApproval",
      "outputs": [],
      "stateMutability": "nonpayable",
      "type": "function"
    },
    {
      "inputs": [
        {
          "internalType": "uint256",
          "name": "price",
          "type": "uint256"
        }
      ],
      "name": "setMaxTokenPriceEther",
      "outputs": [],
      "stateMutability": "nonpayable",
      "type": "function"
    },
    {
      "inputs": [
        {
          "internalType": "uint256",
          "name": "price",
          "type": "uint256"
        }
      ],
      "name": "setMaxTokenPriceWei",
      "outputs": [],
      "stateMutability": "nonpayable",
      "type": "function"
    },
    {
      "inputs": [
        {
          "internalType": "uint256",
          "name": "quantity",
          "type": "uint256"
        }
      ],
      "name": "setMaxTradeQuantity",
      "outputs": [],
      "stateMutability": "nonpayable",
      "type": "function"
    },
    {
      "inputs": [
        {
          "internalType": "uint256",
          "name": "pct",
          "type": "uint256"
        }
      ],
      "name": "setBuyerFeePct",
      "outputs": [],
      "stateMutability": "nonpayable",
      "type": "function"
    },
    {
      "inputs": [
        {
          "internalType": "uint256",
          "name": "pct",
          "type": "uint256"
        }
      ],
      "name": "setSellerFeePct",
      "outputs": [],
      "stateMutability": "nonpayable",
      "type": "function"
    },
    {
      "inputs": [],
      "name": "pause",
      "outputs": [],
      "stateMutability": "nonpayable",
      "type": "function"
    },
    {
      "inputs": [],
      "name": "resume",
      "outputs": [],
      "stateMutability": "nonpayable",
      "type": "function"
    }
  ],
  "bytecode": "0x6080604052611388600255611388600355620186a060045569d3c21bcecceda1000000600555620f424060065560045460075560006009556000600d556000600f553480156200004e57600080fd5b506040516200538e3803806200538e8339818101604052810190620000749190620003a0565b6000600160006101000a81548160ff021916908315150217905550620000a46000801b336200019460201b60201c565b620000d67fa49807205ce4d355092ef5a8a18f56e8913cf4a201fbe287825b095693c21775336200019460201b60201c565b6200010b7fa49807205ce4d355092ef5a8a18f56e8913cf4a201fbe287825b095693c217756000801b620001aa60201b60201c565b33601160006101000a81548173ffffffffffffffffffffffffffffffffffffffff021916908373ffffffffffffffffffffffffffffffffffffffff16021790555080601260006101000a81548173ffffffffffffffffffffffffffffffffffffffff021916908373ffffffffffffffffffffffffffffffffffffffff1602179055505062000439565b620001a682826200020760201b60201c565b5050565b80620001bc83620002f860201b60201c565b837fbd79b86ffe0ab8e8776151514217cd7cacd52c909f66475c3af44e129f0b00ff60405160405180910390a480600080848152602001908152602001600020600101819055505050565b6200021982826200031760201b60201c565b620002f457600160008084815260200190815260200160002060000160008373ffffffffffffffffffffffffffffffffffffffff1673ffffffffffffffffffffffffffffffffffffffff16815260200190815260200160002060006101000a81548160ff021916908315150217905550620002996200038160201b60201c565b73ffffffffffffffffffffffffffffffffffffffff168173ffffffffffffffffffffffffffffffffffffffff16837f2f8788117e7eff1d82e926ec794901d17c78024a50270940304540a733656f0d60405160405180910390a45b5050565b6000806000838152602001908152602001600020600101549050919050565b600080600084815260200190815260200160002060000160008373ffffffffffffffffffffffffffffffffffffffff1673ffffffffffffffffffffffffffffffffffffffff16815260200190815260200160002060009054906101000a900460ff16905092915050565b600033905090565b6000815190506200039a816200041f565b92915050565b600060208284031215620003b957620003b86200041a565b5b6000620003c98482850162000389565b91505092915050565b6000620003df82620003fa565b9050919050565b6000620003f382620003d2565b9050919050565b600073ffffffffffffffffffffffffffffffffffffffff82169050919050565b600080fd5b6200042a81620003e6565b81146200043657600080fd5b50565b614f4580620004496000396000f3fe608060405234801561001057600080fd5b50600436106101fb5760003560e01c80638662732e1161011a578063d4fac45d116100ad578063e45ad64a1161007c578063e45ad64a14610576578063e6a5010014610592578063f3fef3a3146105ae578063fbb5470c146105ca578063fd1fc13e146105fa576101fb565b8063d4fac45d146104f2578063d547741f14610522578063d6febde81461053e578063de6df7bf1461055a576101fb565b8063a217fddf116100e9578063a217fddf1461047e578063bca998191461049c578063c661b89d146104b8578063d428dc2b146104d4576101fb565b80638662732e146103d05780638ce5ab6a1461040057806391d148541461041e5780639507d39a1461044e576101fb565b80635a0a3d821161019257806375b238fc1161016157806375b238fc1461036c57806377e5c4a81461038a5780638456cb59146103a857806385d561ae146103b2576101fb565b80635a0a3d82146102f85780635c975abb146103145780635dabb20e14610332578063670436f114610350576101fb565b80632b483c03116101ce5780632b483c03146102865780632f2ff15d146102a457806336568abe146102c057806340e58ee5146102dc576101fb565b806301ffc9a714610200578063046f7da21461023057806314d91c841461023a578063248a9ca314610256575b600080fd5b61021a6004803603810190610215919061367d565b610616565b6040516102279190613f9e565b60405180910390f35b610238610628565b005b610254600480360381019061024f91906134d1565b610665565b005b610270600480360381019061026b9190613610565b6106f3565b60405161027d9190613fb9565b60405180910390f35b61028e610712565b60405161029b9190614372565b60405180910390f35b6102be60048036038101906102b9919061363d565b610718565b005b6102da60048036038101906102d5919061363d565b610741565b005b6102f660048036038101906102f19190613706565b6107c4565b005b610312600480360381019061030d91906132c3565b610b7f565b005b61031c610bd9565b6040516103299190613f9e565b60405180910390f35b61033a610bf0565b6040516103479190614372565b60405180910390f35b61036a600480360381019061036591906134d1565b610bf6565b005b610374610c84565b6040516103819190613fb9565b60405180910390f35b610392610ca8565b60405161039f9190614372565b60405180910390f35b6103b0610cae565b005b6103ba610ceb565b6040516103c79190614372565b60405180910390f35b6103ea60048036038101906103e59190613330565b610cf1565b6040516103f79190613fb9565b60405180910390f35b610408610d38565b6040516104159190614372565b60405180910390f35b6104386004803603810190610433919061363d565b610d3e565b6040516104459190613f9e565b60405180910390f35b61046860048036038101906104639190613706565b610da8565b6040516104759190614356565b60405180910390f35b610486610f45565b6040516104939190613fb9565b60405180910390f35b6104b660048036038101906104b19190613706565b610f4c565b005b6104d260048036038101906104cd9190613706565b610f9c565b005b6104dc61101e565b6040516104e99190614372565b60405180910390f35b61050c600480360381019061050791906132f0565b611024565b6040516105199190614372565b60405180910390f35b61053c6004803603810190610537919061363d565b6110ab565b005b61055860048036038101906105539190613760565b6110d4565b005b610574600480360381019061056f91906133e6565b61170c565b005b610590600480360381019061058b9190613706565b611f57565b005b6105ac60048036038101906105a79190613706565b611fd9565b005b6105c860048036038101906105c39190613511565b612016565b005b6105e460048036038101906105df91906136aa565b6121fa565b6040516105f19190614372565b60405180910390f35b610614600480360381019061060f9190613706565b612241565b005b60006106218261227e565b9050919050565b7fa49807205ce4d355092ef5a8a18f56e8913cf4a201fbe287825b095693c2177561065a816106556122f8565b612300565b61066261239d565b50565b7fa49807205ce4d355092ef5a8a18f56e8913cf4a201fbe287825b095693c21775610697816106926122f8565b612300565b81600c60008573ffffffffffffffffffffffffffffffffffffffff1673ffffffffffffffffffffffffffffffffffffffff16815260200190815260200160002060006101000a81548160ff021916908315150217905550505050565b6000806000838152602001908152602001600020600101549050919050565b60035481565b610721826106f3565b6107328161072d6122f8565b612300565b61073c838361243f565b505050565b6107496122f8565b73ffffffffffffffffffffffffffffffffffffffff168173ffffffffffffffffffffffffffffffffffffffff16146107b6576040517f08c379a00000000000000000000000000000000000000000000000000000000081526004016107ad90614336565b60405180910390fd5b6107c0828261251f565b5050565b6000600a600083815260200190815260200160002060405180610120016040529081600082015481526020016001820160009054906101000a900473ffffffffffffffffffffffffffffffffffffffff1673ffffffffffffffffffffffffffffffffffffffff1673ffffffffffffffffffffffffffffffffffffffff1681526020016002820160009054906101000a900473ffffffffffffffffffffffffffffffffffffffff1673ffffffffffffffffffffffffffffffffffffffff1673ffffffffffffffffffffffffffffffffffffffff1681526020016003820154815260200160048201548152602001600582015481526020016006820160009054906101000a900473ffffffffffffffffffffffffffffffffffffffff1673ffffffffffffffffffffffffffffffffffffffff1673ffffffffffffffffffffffffffffffffffffffff168152602001600782015481526020016008820160009054906101000a900460ff16600281111561093e5761093d614871565b5b60028111156109505761094f614871565b5b8152505090506000600281111561096a57610969614871565b5b816101000151600281111561098257610981614871565b5b146109c2576040517f08c379a00000000000000000000000000000000000000000000000000000000081526004016109b990614136565b60405180910390fd5b806020015173ffffffffffffffffffffffffffffffffffffffff163373ffffffffffffffffffffffffffffffffffffffff161480610a265750610a257fa49807205ce4d355092ef5a8a18f56e8913cf4a201fbe287825b095693c2177533610d3e565b5b610a65576040517f08c379a0000000000000000000000000000000000000000000000000000000008152600401610a5c906140f6565b60405180910390fd5b6002600a600084815260200190815260200160002060080160006101000a81548160ff02191690836002811115610a9f57610a9e614871565b5b0217905550601260009054906101000a900473ffffffffffffffffffffffffffffffffffffffff1673ffffffffffffffffffffffffffffffffffffffff16632ed7bae882604001513384606001518560a001516040518563ffffffff1660e01b8152600401610b119493929190613f30565b600060405180830381600087803b158015610b2b57600080fd5b505af1158015610b3f573d6000803e3d6000fd5b50505050817f8dd3c361eb2366ff27c2db0eb07b9261f1d052570742ab8c9a0c326f37aa576d33604051610b739190613eb5565b60405180910390a25050565b6000801b610b9481610b8f6122f8565b612300565b81601160006101000a81548173ffffffffffffffffffffffffffffffffffffffff021916908373ffffffffffffffffffffffffffffffffffffffff1602179055505050565b6000600160009054906101000a900460ff16905090565b60075481565b7fa49807205ce4d355092ef5a8a18f56e8913cf4a201fbe287825b095693c21775610c2881610c236122f8565b612300565b81600e60008573ffffffffffffffffffffffffffffffffffffffff1673ffffffffffffffffffffffffffffffffffffffff16815260200190815260200160002060006101000a81548160ff021916908315150217905550505050565b7fa49807205ce4d355092ef5a8a18f56e8913cf4a201fbe287825b095693c2177581565b60055481565b7fa49807205ce4d355092ef5a8a18f56e8913cf4a201fbe287825b095693c21775610ce081610cdb6122f8565b612300565b610ce8612600565b50565b60065481565b6000308989898989898989604051602001610d1499989796959493929190613d6f565b60405160208183030381529060405280519060200120905098975050505050505050565b60025481565b600080600084815260200190815260200160002060000160008373ffffffffffffffffffffffffffffffffffffffff1673ffffffffffffffffffffffffffffffffffffffff16815260200190815260200160002060009054906101000a900460ff16905092915050565b610db0612f79565b600a600083815260200190815260200160002060405180610120016040529081600082015481526020016001820160009054906101000a900473ffffffffffffffffffffffffffffffffffffffff1673ffffffffffffffffffffffffffffffffffffffff1673ffffffffffffffffffffffffffffffffffffffff1681526020016002820160009054906101000a900473ffffffffffffffffffffffffffffffffffffffff1673ffffffffffffffffffffffffffffffffffffffff1673ffffffffffffffffffffffffffffffffffffffff1681526020016003820154815260200160048201548152602001600582015481526020016006820160009054906101000a900473ffffffffffffffffffffffffffffffffffffffff1673ffffffffffffffffffffffffffffffffffffffff1673ffffffffffffffffffffffffffffffffffffffff168152602001600782015481526020016008820160009054906101000a900460ff166002811115610f2857610f27614871565b5b6002811115610f3a57610f39614871565b5b815250509050919050565b6000801b81565b7fa49807205ce4d355092ef5a8a18f56e8913cf4a201fbe287825b095693c21775610f7e81610f796122f8565b612300565b670de0b6b3a764000082610f9291906145a5565b6005819055505050565b7fa49807205ce4d355092ef5a8a18f56e8913cf4a201fbe287825b095693c21775610fce81610fc96122f8565b612300565b600454821115611013576040517f08c379a000000000000000000000000000000000000000000000000000000000815260040161100a906142d6565b60405180910390fd5b816003819055505050565b60045481565b6000600b60008373ffffffffffffffffffffffffffffffffffffffff1673ffffffffffffffffffffffffffffffffffffffff16815260200190815260200160002060008473ffffffffffffffffffffffffffffffffffffffff1673ffffffffffffffffffffffffffffffffffffffff16815260200190815260200160002054905092915050565b6110b4826106f3565b6110c5816110c06122f8565b612300565b6110cf838361251f565b505050565b6110dc610bd9565b1561111c576040517f08c379a0000000000000000000000000000000000000000000000000000000008152600401611113906141b6565b60405180910390fd5b6000600a600084815260200190815260200160002060405180610120016040529081600082015481526020016001820160009054906101000a900473ffffffffffffffffffffffffffffffffffffffff1673ffffffffffffffffffffffffffffffffffffffff1673ffffffffffffffffffffffffffffffffffffffff1681526020016002820160009054906101000a900473ffffffffffffffffffffffffffffffffffffffff1673ffffffffffffffffffffffffffffffffffffffff1673ffffffffffffffffffffffffffffffffffffffff1681526020016003820154815260200160048201548152602001600582015481526020016006820160009054906101000a900473ffffffffffffffffffffffffffffffffffffffff1673ffffffffffffffffffffffffffffffffffffffff1673ffffffffffffffffffffffffffffffffffffffff168152602001600782015481526020016008820160009054906101000a900460ff16600281111561129657611295614871565b5b60028111156112a8576112a7614871565b5b815250509050600060028111156112c2576112c1614871565b5b81610100015160028111156112da576112d9614871565b5b1461131a576040517f08c379a000000000000000000000000000000000000000000000000000000000815260040161131190614116565b60405180910390fd5b8060a00151821115611361576040517f08c379a000000000000000000000000000000000000000000000000000000000815260040161135890614096565b60405180910390fd5b806020015173ffffffffffffffffffffffffffffffffffffffff163373ffffffffffffffffffffffffffffffffffffffff1614156113d4576040517f08c379a00000000000000000000000000000000000000000000000000000000081526004016113cb90614296565b60405180910390fd5b6000828260e001516113e691906145a5565b905060008260c0015190506000806113fd846126a2565b9150915060008373ffffffffffffffffffffffffffffffffffffffff1663dd62ed3e33306040518363ffffffff1660e01b815260040161143e929190613ed0565b60206040518083038186803b15801561145657600080fd5b505afa15801561146a573d6000803e3d6000fd5b505050506040513d601f19601f8201168201806040525081019061148e9190613733565b9050818561149c919061451e565b8110156114de576040517f08c379a00000000000000000000000000000000000000000000000000000000081526004016114d590614196565b60405180910390fd5b8373ffffffffffffffffffffffffffffffffffffffff166323b872dd33308589611508919061451e565b6040518463ffffffff1660e01b815260040161152693929190613ef9565b602060405180830381600087803b15801561154057600080fd5b505af1158015611554573d6000803e3d6000fd5b505050506040513d601f19601f8201168201806040525081019061157891906135e3565b506000878760a0015161158b91906145ff565b905080600a600060095481526020019081526020016000206005018190555060008114156115f5576001600a6000600954815260200190815260200160002060080160006101000a81548160ff021916908360028111156115ef576115ee614871565b5b02179055505b60006116118786868b604001518c606001518d60c001516126e4565b90506116268860c001518960200151836129b6565b601260009054906101000a900473ffffffffffffffffffffffffffffffffffffffff1673ffffffffffffffffffffffffffffffffffffffff16632ed7bae88960400151338b606001518d6040518563ffffffff1660e01b815260040161168f9493929190613f30565b600060405180830381600087803b1580156116a957600080fd5b505af11580156116bd573d6000803e3d6000fd5b505050507f3b599f6217e39be59216b60e543ce0d4c7d534fe64dd9d962334924e7819894e8860000151338b6040516116f8939291906143fc565b60405180910390a150505050505050505050565b611714610bd9565b15611754576040517f08c379a000000000000000000000000000000000000000000000000000000000815260040161174b906141b6565b60405180910390fd5b600754851015611799576040517f08c379a000000000000000000000000000000000000000000000000000000000815260040161179090614236565b60405180910390fd5b6005548511156117de576040517f08c379a00000000000000000000000000000000000000000000000000000000081526004016117d5906141d6565b60405180910390fd5b600654871115611823576040517f08c379a000000000000000000000000000000000000000000000000000000000815260040161181a906141f6565b60405180910390fd5b600c60008a73ffffffffffffffffffffffffffffffffffffffff1673ffffffffffffffffffffffffffffffffffffffff16815260200190815260200160002060009054906101000a900460ff166118af576040517f08c379a00000000000000000000000000000000000000000000000000000000081526004016118a690614216565b60405180910390fd5b600e60008773ffffffffffffffffffffffffffffffffffffffff1673ffffffffffffffffffffffffffffffffffffffff16815260200190815260200160002060009054906101000a900460ff1661193b576040517f08c379a000000000000000000000000000000000000000000000000000000000815260040161193290614176565b60405180910390fd5b6119657fa49807205ce4d355092ef5a8a18f56e8913cf4a201fbe287825b095693c2177533610d3e565b611b54574284116119ab576040517f08c379a00000000000000000000000000000000000000000000000000000000081526004016119a290614276565b60405180910390fd5b60006119bd8b8b8b8b8b8b8b8b610cf1565b90506010600082815260200190815260200160002060009054906101000a900460ff1615611a20576040517f08c379a0000000000000000000000000000000000000000000000000000000008152600401611a17906142b6565b60405180910390fd5b6000611a8184848080601f016020809104026020016040519081016040528093929190818152602001838380828437600081840152601f19601f82011690508083019250505050505050611a7384612a4e565b612a7e90919063ffffffff16565b9050600073ffffffffffffffffffffffffffffffffffffffff168173ffffffffffffffffffffffffffffffffffffffff1614158015611ae65750611ae57fa49807205ce4d355092ef5a8a18f56e8913cf4a201fbe287825b095693c2177582610d3e565b5b611b25576040517f08c379a0000000000000000000000000000000000000000000000000000000008152600401611b1c906142f6565b60405180910390fd5b60016010600084815260200190815260200160002060006101000a81548160ff02191690831515021790555050505b8873ffffffffffffffffffffffffffffffffffffffff166301ffc9a77fd9b67a26000000000000000000000000000000000000000000000000000000006040518263ffffffff1660e01b8152600401611bad9190614019565b60206040518083038186803b158015611bc557600080fd5b505afa158015611bd9573d6000803e3d6000fd5b505050506040513d601f19601f82011682018060405250810190611bfd91906135e3565b611c0657600196505b601260009054906101000a900473ffffffffffffffffffffffffffffffffffffffff1673ffffffffffffffffffffffffffffffffffffffff166340fd58298a8c8b8b6040518563ffffffff1660e01b8152600401611c679493929190613f30565b600060405180830381600087803b158015611c8157600080fd5b505af1158015611c95573d6000803e3d6000fd5b5050505060096000815480929190611cac90614792565b9190505550600060405180610120016040528060095481526020018c73ffffffffffffffffffffffffffffffffffffffff1681526020018b73ffffffffffffffffffffffffffffffffffffffff1681526020018a81526020018981526020018981526020018873ffffffffffffffffffffffffffffffffffffffff16815260200187815260200160006002811115611d4757611d46614871565b5b815250905080600a600060095481526020019081526020016000206000820151816000015560208201518160010160006101000a81548173ffffffffffffffffffffffffffffffffffffffff021916908373ffffffffffffffffffffffffffffffffffffffff16021790555060408201518160020160006101000a81548173ffffffffffffffffffffffffffffffffffffffff021916908373ffffffffffffffffffffffffffffffffffffffff160217905550606082015181600301556080820151816004015560a0820151816005015560c08201518160060160006101000a81548173ffffffffffffffffffffffffffffffffffffffff021916908373ffffffffffffffffffffffffffffffffffffffff16021790555060e082015181600701556101008201518160080160006101000a81548160ff02191690836002811115611e9557611e94614871565b5b021790555090505060088a8a604051602001611eb2929190613e12565b604051602081830303815290604052604051611ece9190613e3e565b908152602001604051809103902060095490806001815401808255809150506001900390600052602060002001600090919091909150557fa749e87b58f8df1e1b940b3d9baee2b4646dc3b598936972688fa173d45618406009548c8c8c8c8c8c604051611f42979695949392919061438d565b60405180910390a15050505050505050505050565b7fa49807205ce4d355092ef5a8a18f56e8913cf4a201fbe287825b095693c21775611f8981611f846122f8565b612300565b600454821115611fce576040517f08c379a0000000000000000000000000000000000000000000000000000000008152600401611fc5906142d6565b60405180910390fd5b816002819055505050565b7fa49807205ce4d355092ef5a8a18f56e8913cf4a201fbe287825b095693c2177561200b816120066122f8565b612300565b816006819055505050565b80600b60003373ffffffffffffffffffffffffffffffffffffffff1673ffffffffffffffffffffffffffffffffffffffff16815260200190815260200160002060008473ffffffffffffffffffffffffffffffffffffffff1673ffffffffffffffffffffffffffffffffffffffff1681526020019081526020016000205410156120d5576040517f08c379a00000000000000000000000000000000000000000000000000000000081526004016120cc90614316565b60405180910390fd5b80600b60003373ffffffffffffffffffffffffffffffffffffffff1673ffffffffffffffffffffffffffffffffffffffff16815260200190815260200160002060008473ffffffffffffffffffffffffffffffffffffffff1673ffffffffffffffffffffffffffffffffffffffff168152602001908152602001600020600082825461216191906145ff565b925050819055508173ffffffffffffffffffffffffffffffffffffffff1663a9059cbb33836040518363ffffffff1660e01b81526004016121a3929190613f75565b602060405180830381600087803b1580156121bd57600080fd5b505af11580156121d1573d6000803e3d6000fd5b505050506040513d601f19601f820116820180604052508101906121f591906135e3565b505050565b600882805160208101820180518482526020830160208501208183528095505050505050818154811061222c57600080fd5b90600052602060002001600091509150505481565b7fa49807205ce4d355092ef5a8a18f56e8913cf4a201fbe287825b095693c217756122738161226e6122f8565b612300565b816005819055505050565b60007f7965db0b000000000000000000000000000000000000000000000000000000007bffffffffffffffffffffffffffffffffffffffffffffffffffffffff1916827bffffffffffffffffffffffffffffffffffffffffffffffffffffffff191614806122f157506122f082612b48565b5b9050919050565b600033905090565b61230a8282610d3e565b6123995761232f8173ffffffffffffffffffffffffffffffffffffffff166014612bb2565b61233d8360001c6020612bb2565b60405160200161234e929190613e7b565b6040516020818303038152906040526040517f08c379a00000000000000000000000000000000000000000000000000000000081526004016123909190614034565b60405180910390fd5b5050565b6123a5610bd9565b6123e4576040517f08c379a00000000000000000000000000000000000000000000000000000000081526004016123db906140b6565b60405180910390fd5b6000600160006101000a81548160ff0219169083151502179055507f5db9ee0a495bf2e6ff9c91a7834c1ba4fdd244a5e8aa4e537bd38aeae4b073aa6124286122f8565b6040516124359190613eb5565b60405180910390a1565b6124498282610d3e565b61251b57600160008084815260200190815260200160002060000160008373ffffffffffffffffffffffffffffffffffffffff1673ffffffffffffffffffffffffffffffffffffffff16815260200190815260200160002060006101000a81548160ff0219169083151502179055506124c06122f8565b73ffffffffffffffffffffffffffffffffffffffff168173ffffffffffffffffffffffffffffffffffffffff16837f2f8788117e7eff1d82e926ec794901d17c78024a50270940304540a733656f0d60405160405180910390a45b5050565b6125298282610d3e565b156125fc57600080600084815260200190815260200160002060000160008373ffffffffffffffffffffffffffffffffffffffff1673ffffffffffffffffffffffffffffffffffffffff16815260200190815260200160002060006101000a81548160ff0219169083151502179055506125a16122f8565b73ffffffffffffffffffffffffffffffffffffffff168173ffffffffffffffffffffffffffffffffffffffff16837ff6391f5c32d9c69d2a47ea670b442974b53935d1edc7fd64eb21e047a839171b60405160405180910390a45b5050565b612608610bd9565b15612648576040517f08c379a000000000000000000000000000000000000000000000000000000000815260040161263f906141b6565b60405180910390fd5b60018060006101000a81548160ff0219169083151502179055507f62e78cea01bee320cd4e420270b5ea74000d11b0c9f74754ebdbfc544b05a25861268b6122f8565b6040516126989190613eb5565b60405180910390a1565b600080600454600254846126b691906145a5565b6126c09190614574565b9050600454600354846126d391906145a5565b6126dd9190614574565b9150915091565b6000858711156126fd5785876126fa91906145ff565b96505b86905061273882601160009054906101000a900473ffffffffffffffffffffffffffffffffffffffff168789612733919061451e565b6129b6565b8373ffffffffffffffffffffffffffffffffffffffff166301ffc9a763b779958460e01b6040518263ffffffff1660e01b81526004016127789190614019565b60206040518083038186803b15801561279057600080fd5b505afa1580156127a4573d6000803e3d6000fd5b505050506040513d601f19601f820116820180604052508101906127c891906135e3565b6127d1576129ac565b600084905060008173ffffffffffffffffffffffffffffffffffffffff1663b9c4d9fb866040518263ffffffff1660e01b81526004016128119190614372565b60006040518083038186803b15801561282957600080fd5b505afa15801561283d573d6000803e3d6000fd5b505050506040513d6000823e3d601f19601f820116820180604052508101906128669190613551565b905060008273ffffffffffffffffffffffffffffffffffffffff16630ebd4c7f876040518263ffffffff1660e01b81526004016128a39190614372565b60006040518083038186803b1580156128bb57600080fd5b505afa1580156128cf573d6000803e3d6000fd5b505050506040513d6000823e3d601f19601f820116820180604052508101906128f8919061359a565b905060005b81518110156129a7576000851415612914576129a7565b600060045483838151811061292c5761292b6148a0565b5b60200260200101518d61293f91906145a5565b6129499190614574565b90508581111561295f578590506000955061296e565b808661296b91906145ff565b95505b61299387858481518110612985576129846148a0565b5b6020026020010151836129b6565b50808061299f90614792565b9150506128fd565b505050505b9695505050505050565b80600b60008473ffffffffffffffffffffffffffffffffffffffff1673ffffffffffffffffffffffffffffffffffffffff16815260200190815260200160002060008573ffffffffffffffffffffffffffffffffffffffff1673ffffffffffffffffffffffffffffffffffffffff1681526020019081526020016000206000828254612a42919061451e565b92505081905550505050565b600081604051602001612a619190613e55565b604051602081830303815290604052805190602001209050919050565b600080600080604185511415612aab576020850151925060408501519150606085015160001a9050612b31565b604085511415612af5576040850151602086015193507f7fffffffffffffffffffffffffffffffffffffffffffffffffffffffffffffff81169250601b8160ff1c01915050612b30565b6040517f08c379a0000000000000000000000000000000000000000000000000000000008152600401612b27906140d6565b60405180910390fd5b5b612b3d86828585612dee565b935050505092915050565b60007f01ffc9a7000000000000000000000000000000000000000000000000000000007bffffffffffffffffffffffffffffffffffffffffffffffffffffffff1916827bffffffffffffffffffffffffffffffffffffffffffffffffffffffff1916149050919050565b606060006002836002612bc591906145a5565b612bcf919061451e565b67ffffffffffffffff811115612be857612be76148cf565b5b6040519080825280601f01601f191660200182016040528015612c1a5781602001600182028036833780820191505090505b5090507f300000000000000000000000000000000000000000000000000000000000000081600081518110612c5257612c516148a0565b5b60200101907effffffffffffffffffffffffffffffffffffffffffffffffffffffffffffff1916908160001a9053507f780000000000000000000000000000000000000000000000000000000000000081600181518110612cb657612cb56148a0565b5b60200101907effffffffffffffffffffffffffffffffffffffffffffffffffffffffffffff1916908160001a90535060006001846002612cf691906145a5565b612d00919061451e565b90505b6001811115612da0577f3031323334353637383961626364656600000000000000000000000000000000600f861660108110612d4257612d416148a0565b5b1a60f81b828281518110612d5957612d586148a0565b5b60200101907effffffffffffffffffffffffffffffffffffffffffffffffffffffffffffff1916908160001a905350600485901c945080612d9990614737565b9050612d03565b5060008414612de4576040517f08c379a0000000000000000000000000000000000000000000000000000000008152600401612ddb90614076565b60405180910390fd5b8091505092915050565b60007f7fffffffffffffffffffffffffffffff5d576e7357a4501ddfe92f46681b20a08260001c1115612e56576040517f08c379a0000000000000000000000000000000000000000000000000000000008152600401612e4d90614156565b60405180910390fd5b601b8460ff161480612e6b5750601c8460ff16145b612eaa576040517f08c379a0000000000000000000000000000000000000000000000000000000008152600401612ea190614256565b60405180910390fd5b600060018686868660405160008152602001604052604051612ecf9493929190613fd4565b6020604051602081039080840390855afa158015612ef1573d6000803e3d6000fd5b505050602060405103519050600073ffffffffffffffffffffffffffffffffffffffff168173ffffffffffffffffffffffffffffffffffffffff161415612f6d576040517f08c379a0000000000000000000000000000000000000000000000000000000008152600401612f6490614056565b60405180910390fd5b80915050949350505050565b60405180610120016040528060008152602001600073ffffffffffffffffffffffffffffffffffffffff168152602001600073ffffffffffffffffffffffffffffffffffffffff168152602001600081526020016000815260200160008152602001600073ffffffffffffffffffffffffffffffffffffffff168152602001600081526020016000600281111561301357613012614871565b5b81525090565b600061302c61302784614458565b614433565b9050808382526020820190508285602086028201111561304f5761304e614908565b5b60005b8581101561307f57816130658882613150565b845260208401935060208301925050600181019050613052565b5050509392505050565b600061309c61309784614484565b614433565b905080838252602082019050828560208602820111156130bf576130be614908565b5b60005b858110156130ef57816130d588826132ae565b8452602084019350602083019250506001810190506130c2565b5050509392505050565b600061310c613107846144b0565b614433565b9050828152602081018484840111156131285761312761490d565b5b6131338482856146f5565b509392505050565b60008135905061314a81614e85565b92915050565b60008151905061315f81614e9c565b92915050565b600082601f83011261317a57613179614903565b5b815161318a848260208601613019565b91505092915050565b600082601f8301126131a8576131a7614903565b5b81516131b8848260208601613089565b91505092915050565b6000813590506131d081614eb3565b92915050565b6000815190506131e581614eb3565b92915050565b6000813590506131fa81614eca565b92915050565b60008135905061320f81614ee1565b92915050565b60008083601f84011261322b5761322a614903565b5b8235905067ffffffffffffffff811115613248576132476148fe565b5b60208301915083600182028301111561326457613263614908565b5b9250929050565b600082601f8301126132805761327f614903565b5b81356132908482602086016130f9565b91505092915050565b6000813590506132a881614ef8565b92915050565b6000815190506132bd81614ef8565b92915050565b6000602082840312156132d9576132d8614917565b5b60006132e78482850161313b565b91505092915050565b6000806040838503121561330757613306614917565b5b60006133158582860161313b565b92505060206133268582860161313b565b9150509250929050565b600080600080600080600080610100898b03121561335157613350614917565b5b600061335f8b828c0161313b565b98505060206133708b828c0161313b565b97505060406133818b828c01613299565b96505060606133928b828c01613299565b95505060806133a38b828c0161313b565b94505060a06133b48b828c01613299565b93505060c06133c58b828c01613299565b92505060e06133d68b828c01613299565b9150509295985092959890939650565b6000806000806000806000806000806101208b8d03121561340a57613409614917565b5b60006134188d828e0161313b565b9a505060206134298d828e0161313b565b995050604061343a8d828e01613299565b985050606061344b8d828e01613299565b975050608061345c8d828e0161313b565b96505060a061346d8d828e01613299565b95505060c061347e8d828e01613299565b94505060e061348f8d828e01613299565b9350506101008b013567ffffffffffffffff8111156134b1576134b0614912565b5b6134bd8d828e01613215565b92509250509295989b9194979a5092959850565b600080604083850312156134e8576134e7614917565b5b60006134f68582860161313b565b9250506020613507858286016131c1565b9150509250929050565b6000806040838503121561352857613527614917565b5b60006135368582860161313b565b925050602061354785828601613299565b9150509250929050565b60006020828403121561356757613566614917565b5b600082015167ffffffffffffffff81111561358557613584614912565b5b61359184828501613165565b91505092915050565b6000602082840312156135b0576135af614917565b5b600082015167ffffffffffffffff8111156135ce576135cd614912565b5b6135da84828501613193565b91505092915050565b6000602082840312156135f9576135f8614917565b5b6000613607848285016131d6565b91505092915050565b60006020828403121561362657613625614917565b5b6000613634848285016131eb565b91505092915050565b6000806040838503121561365457613653614917565b5b6000613662858286016131eb565b92505060206136738582860161313b565b9150509250929050565b60006020828403121561369357613692614917565b5b60006136a184828501613200565b91505092915050565b600080604083850312156136c1576136c0614917565b5b600083013567ffffffffffffffff8111156136df576136de614912565b5b6136eb8582860161326b565b92505060206136fc85828601613299565b9150509250929050565b60006020828403121561371c5761371b614917565b5b600061372a84828501613299565b91505092915050565b60006020828403121561374957613748614917565b5b6000613757848285016132ae565b91505092915050565b6000806040838503121561377757613776614917565b5b600061378585828601613299565b925050602061379685828601613299565b9150509250929050565b6137a981614633565b82525050565b6137b881614633565b82525050565b6137cf6137ca82614633565b6147db565b82525050565b6137de81614657565b82525050565b6137ed81614663565b82525050565b6138046137ff82614663565b6147ed565b82525050565b6138138161466d565b82525050565b6000613824826144e1565b61382e81856144f7565b935061383e818560208601614704565b80840191505092915050565b613853816146e3565b82525050565b6000613864826144ec565b61386e8185614502565b935061387e818560208601614704565b6138878161491c565b840191505092915050565b600061389d826144ec565b6138a78185614513565b93506138b7818560208601614704565b80840191505092915050565b60006138d0601883614502565b91506138db8261493a565b602082019050919050565b60006138f3602083614502565b91506138fe82614963565b602082019050919050565b6000613916601b83614502565b91506139218261498c565b602082019050919050565b6000613939601483614502565b9150613944826149b5565b602082019050919050565b600061395c601f83614502565b9150613967826149de565b602082019050919050565b600061397f601c83614513565b915061398a82614a07565b601c82019050919050565b60006139a2602983614502565b91506139ad82614a30565b604082019050919050565b60006139c5601283614502565b91506139d082614a7f565b602082019050919050565b60006139e8601f83614502565b91506139f382614aa8565b602082019050919050565b6000613a0b602283614502565b9150613a1682614ad1565b604082019050919050565b6000613a2e601883614502565b9150613a3982614b20565b602082019050919050565b6000613a51601583614502565b9150613a5c82614b49565b602082019050919050565b6000613a74601083614502565b9150613a7f82614b72565b602082019050919050565b6000613a97601283614502565b9150613aa282614b9b565b602082019050919050565b6000613aba601983614502565b9150613ac582614bc4565b602082019050919050565b6000613add601e83614502565b9150613ae882614bed565b602082019050919050565b6000613b00601183614502565b9150613b0b82614c16565b602082019050919050565b6000613b23602283614502565b9150613b2e82614c3f565b604082019050919050565b6000613b46601183614502565b9150613b5182614c8e565b602082019050919050565b6000613b69601783614502565b9150613b7482614cb7565b602082019050919050565b6000613b8c601383614502565b9150613b9782614ce0565b602082019050919050565b6000613baf601783614513565b9150613bba82614d09565b601782019050919050565b6000613bd2602a83614502565b9150613bdd82614d32565b604082019050919050565b6000613bf5601283614502565b9150613c0082614d81565b602082019050919050565b6000613c18602183614502565b9150613c2382614daa565b604082019050919050565b6000613c3b601183614513565b9150613c4682614df9565b601182019050919050565b6000613c5e602f83614502565b9150613c6982614e22565b604082019050919050565b61012082016000820151613c8b6000850182613d2b565b506020820151613c9e60208501826137a0565b506040820151613cb160408501826137a0565b506060820151613cc46060850182613d2b565b506080820151613cd76080850182613d2b565b5060a0820151613cea60a0850182613d2b565b5060c0820151613cfd60c08501826137a0565b5060e0820151613d1060e0850182613d2b565b50610100820151613d2561010085018261384a565b50505050565b613d34816146cc565b82525050565b613d43816146cc565b82525050565b613d5a613d55826146cc565b614809565b82525050565b613d69816146d6565b82525050565b6000613d7b828c6137be565b601482019150613d8b828b6137be565b601482019150613d9b828a6137be565b601482019150613dab8289613d49565b602082019150613dbb8288613d49565b602082019150613dcb82876137be565b601482019150613ddb8286613d49565b602082019150613deb8285613d49565b602082019150613dfb8284613d49565b6020820191508190509a9950505050505050505050565b6000613e1e82856137be565b601482019150613e2e8284613d49565b6020820191508190509392505050565b6000613e4a8284613819565b915081905092915050565b6000613e6082613972565b9150613e6c82846137f3565b60208201915081905092915050565b6000613e8682613ba2565b9150613e928285613892565b9150613e9d82613c2e565b9150613ea98284613892565b91508190509392505050565b6000602082019050613eca60008301846137af565b92915050565b6000604082019050613ee560008301856137af565b613ef260208301846137af565b9392505050565b6000606082019050613f0e60008301866137af565b613f1b60208301856137af565b613f286040830184613d3a565b949350505050565b6000608082019050613f4560008301876137af565b613f5260208301866137af565b613f5f6040830185613d3a565b613f6c6060830184613d3a565b95945050505050565b6000604082019050613f8a60008301856137af565b613f976020830184613d3a565b9392505050565b6000602082019050613fb360008301846137d5565b92915050565b6000602082019050613fce60008301846137e4565b92915050565b6000608082019050613fe960008301876137e4565b613ff66020830186613d60565b61400360408301856137e4565b61401060608301846137e4565b95945050505050565b600060208201905061402e600083018461380a565b92915050565b6000602082019050818103600083015261404e8184613859565b905092915050565b6000602082019050818103600083015261406f816138c3565b9050919050565b6000602082019050818103600083015261408f816138e6565b9050919050565b600060208201905081810360008301526140af81613909565b9050919050565b600060208201905081810360008301526140cf8161392c565b9050919050565b600060208201905081810360008301526140ef8161394f565b9050919050565b6000602082019050818103600083015261410f81613995565b9050919050565b6000602082019050818103600083015261412f816139b8565b9050919050565b6000602082019050818103600083015261414f816139db565b9050919050565b6000602082019050818103600083015261416f816139fe565b9050919050565b6000602082019050818103600083015261418f81613a21565b9050919050565b600060208201905081810360008301526141af81613a44565b9050919050565b600060208201905081810360008301526141cf81613a67565b9050919050565b600060208201905081810360008301526141ef81613a8a565b9050919050565b6000602082019050818103600083015261420f81613aad565b9050919050565b6000602082019050818103600083015261422f81613ad0565b9050919050565b6000602082019050818103600083015261424f81613af3565b9050919050565b6000602082019050818103600083015261426f81613b16565b9050919050565b6000602082019050818103600083015261428f81613b39565b9050919050565b600060208201905081810360008301526142af81613b5c565b9050919050565b600060208201905081810360008301526142cf81613b7f565b9050919050565b600060208201905081810360008301526142ef81613bc5565b9050919050565b6000602082019050818103600083015261430f81613be8565b9050919050565b6000602082019050818103600083015261432f81613c0b565b9050919050565b6000602082019050818103600083015261434f81613c51565b9050919050565b60006101208201905061436c6000830184613c74565b92915050565b60006020820190506143876000830184613d3a565b92915050565b600060e0820190506143a2600083018a613d3a565b6143af60208301896137af565b6143bc60408301886137af565b6143c96060830187613d3a565b6143d66080830186613d3a565b6143e360a08301856137af565b6143f060c0830184613d3a565b98975050505050505050565b60006060820190506144116000830186613d3a565b61441e60208301856137af565b61442b6040830184613d3a565b949350505050565b600061443d61444e565b90506144498282614761565b919050565b6000604051905090565b600067ffffffffffffffff821115614473576144726148cf565b5b602082029050602081019050919050565b600067ffffffffffffffff82111561449f5761449e6148cf565b5b602082029050602081019050919050565b600067ffffffffffffffff8211156144cb576144ca6148cf565b5b6144d48261491c565b9050602081019050919050565b600081519050919050565b600081519050919050565b600081905092915050565b600082825260208201905092915050565b600081905092915050565b6000614529826146cc565b9150614534836146cc565b9250827fffffffffffffffffffffffffffffffffffffffffffffffffffffffffffffffff0382111561456957614568614813565b5b828201905092915050565b600061457f826146cc565b915061458a836146cc565b92508261459a57614599614842565b5b828204905092915050565b60006145b0826146cc565b91506145bb836146cc565b9250817fffffffffffffffffffffffffffffffffffffffffffffffffffffffffffffffff04831182151516156145f4576145f3614813565b5b828202905092915050565b600061460a826146cc565b9150614615836146cc565b92508282101561462857614627614813565b5b828203905092915050565b600061463e826146ac565b9050919050565b6000614650826146ac565b9050919050565b60008115159050919050565b6000819050919050565b60007fffffffff0000000000000000000000000000000000000000000000000000000082169050919050565b60008190506146a782614e71565b919050565b600073ffffffffffffffffffffffffffffffffffffffff82169050919050565b6000819050919050565b600060ff82169050919050565b60006146ee82614699565b9050919050565b82818337600083830152505050565b60005b83811015614722578082015181840152602081019050614707565b83811115614731576000848401525b50505050565b6000614742826146cc565b9150600082141561475657614755614813565b5b600182039050919050565b61476a8261491c565b810181811067ffffffffffffffff82111715614789576147886148cf565b5b80604052505050565b600061479d826146cc565b91507fffffffffffffffffffffffffffffffffffffffffffffffffffffffffffffffff8214156147d0576147cf614813565b5b600182019050919050565b60006147e6826147f7565b9050919050565b6000819050919050565b60006148028261492d565b9050919050565b6000819050919050565b7f4e487b7100000000000000000000000000000000000000000000000000000000600052601160045260246000fd5b7f4e487b7100000000000000000000000000000000000000000000000000000000600052601260045260246000fd5b7f4e487b7100000000000000000000000000000000000000000000000000000000600052602160045260246000fd5b7f4e487b7100000000000000000000000000000000000000000000000000000000600052603260045260246000fd5b7f4e487b7100000000000000000000000000000000000000000000000000000000600052604160045260246000fd5b600080fd5b600080fd5b600080fd5b600080fd5b600080fd5b600080fd5b6000601f19601f8301169050919050565b60008160601b9050919050565b7f45434453413a20696e76616c6964207369676e61747572650000000000000000600082015250565b7f537472696e67733a20686578206c656e67746820696e73756666696369656e74600082015250565b7f4e6f7420656e6f75676820746f6b656e7320666f722073616c652e0000000000600082015250565b7f5061757361626c653a206e6f7420706175736564000000000000000000000000600082015250565b7f45434453413a20696e76616c6964207369676e6174757265206c656e67746800600082015250565b7f19457468657265756d205369676e6564204d6573736167653a0a333200000000600082015250565b7f4f6e6c792073656c6c6572206f722061646d696e2063616e20636c6f7365207460008201527f68652074726164652e0000000000000000000000000000000000000000000000602082015250565b7f5472616465206973206e6f74206f70656e2e0000000000000000000000000000600082015250565b7f4f6e6c79206f70656e207472616465732063616e20626520636c6f7365642e00600082015250565b7f45434453413a20696e76616c6964207369676e6174757265202773272076616c60008201527f7565000000000000000000000000000000000000000000000000000000000000602082015250565b7f43757272656e6379206973206e6f7420616c6c6f7765642e0000000000000000600082015250565b7f416c6c6f77616e636520697320746f6f206c6f772e0000000000000000000000600082015250565b7f5061757361626c653a2070617573656400000000000000000000000000000000600082015250565b7f507269636520697320746f6f20686967682e0000000000000000000000000000600082015250565b7f5175616e746974792065786365656473206d6178696d756d2e00000000000000600082015250565b7f546f6b656e20636f6e7472616374206973206e6f7420616c6c6f7765642e0000600082015250565b7f507269636520697320746f6f206c6f772e000000000000000000000000000000600082015250565b7f45434453413a20696e76616c6964207369676e6174757265202776272076616c60008201527f7565000000000000000000000000000000000000000000000000000000000000602082015250565b7f417070726f76616c20657870697265642e000000000000000000000000000000600082015250565b7f53656c6c65722063616e6e6f742062652062757965722e000000000000000000600082015250565b7f417070726f76616c206578686175737465642e00000000000000000000000000600082015250565b7f416363657373436f6e74726f6c3a206163636f756e7420000000000000000000600082015250565b7f4665652063616e6e6f7420626520686967686572207468616e2068756e64726560008201527f642070657263656e742e00000000000000000000000000000000000000000000602082015250565b7f496e76616c6964207369676e61747572652e0000000000000000000000000000600082015250565b7f496e73756666696369656e742062616c616e636520746f20776974686472617760008201527f2e00000000000000000000000000000000000000000000000000000000000000602082015250565b7f206973206d697373696e6720726f6c6520000000000000000000000000000000600082015250565b7f416363657373436f6e74726f6c3a2063616e206f6e6c792072656e6f756e636560008201527f20726f6c657320666f722073656c660000000000000000000000000000000000602082015250565b60038110614e8257614e81614871565b5b50565b614e8e81614633565b8114614e9957600080fd5b50565b614ea581614645565b8114614eb057600080fd5b50565b614ebc81614657565b8114614ec757600080fd5b50565b614ed381614663565b8114614ede57600080fd5b50565b614eea8161466d565b8114614ef557600080fd5b50565b614f01816146cc565b8114614f0c57600080fd5b5056fea26469706673582212202a146f234240830a36c8558620d4e3b46c9e54e4e5b72ff2d00d0c3ef040ff9764736f6c63430008060033",
  "immutableReferences": {},
  "source": "// SPDX-License-Identifier: MIT\r\npragma solidity ^0.8.0;\r\n\r\nimport \"../openzeppelin/contracts/access/AccessControl.sol\";\r\nimport \"../openzeppelin/contracts/token/ERC20/IERC20.sol\";\r\nimport \"../openzeppelin/contracts/utils/cryptography/ECDSA.sol\";\r\nimport \"../openzeppelin/contracts/security/Pausable.sol\";\r\n\r\nimport \"./MarketWalletV1.sol\";\r\nimport \"./HasSecondarySaleFees.sol\";\r\n\r\nenum TradeStatus { Active, Sold, Cancelled }\r\n\r\nstruct Trade {\r\n  uint id;\r\n  address seller;\r\n  address token;\r\n  uint tokenId;\r\n  uint quantity;\r\n  uint available;\r\n  address currency;\r\n  uint price;\r\n  TradeStatus status;\r\n}\r\n\r\ncontract MarketV1 is AccessControl, Pausable {\r\n  using ECDSA for bytes32;\r\n\r\n  bytes internal constant EMPTY = \"\";\r\n\r\n  uint256 public buyerFeePct = 5000;\r\n  uint256 public sellerFeePct = 5000;\r\n  uint256 public hundredPct = 10**5;\r\n\r\n  uint256 public maxTokenPrice = 10**6 * 1 ether;\r\n  uint256 public maxTradeQuantity = 10**6;\r\n  uint256 public minTokenPrice = hundredPct;\r\n\r\n  mapping(bytes => uint[]) public tradeHistory;\r\n\r\n  uint private _tradeId = 0;\r\n\r\n  mapping(uint => Trade) private _trades;\r\n\r\n  // seller => (currency => revenue)\r\n  mapping(address => mapping(address => uint)) internal _earnings;\r\n\r\n  // contract address => isAuthorized\r\n  mapping(address => bool) internal _approvedTokens;\r\n  uint private _approvedTokenCount = 0;\r\n\r\n  // contract address => isAuthorized\r\n  mapping(address => bool) internal _approvedCurrencies;\r\n  uint private _approvedCurrenciesCount = 0;\r\n  \r\n  mapping(bytes32 => bool) private _approvalsExhausted;\r\n\r\n  address internal _feeBeneficiary;\r\n\r\n  MarketWalletV1 internal _wallet;\r\n\r\n  event Sell(\r\n    uint tradeId,\r\n    address seller,\r\n    address tokenContract,\r\n    uint tokenId,\r\n    uint quantity,\r\n    address currency,\r\n    uint price\r\n  );\r\n  \r\n  event Buy(\r\n    uint tradeId,\r\n    address buyer,\r\n    uint quantity\r\n  );\r\n\r\n  event Cancel(\r\n    uint indexed tradeId,\r\n    address operator\r\n  );\r\n  \r\n  bytes32 public constant ADMIN_ROLE = keccak256(\"ADMIN_ROLE\");\r\n\r\n  bytes4 private constant _INTERFACE_ID_FEES = 0xb7799584;\r\n\r\n  constructor(MarketWalletV1 wallet) {\r\n    _setupRole(DEFAULT_ADMIN_ROLE, msg.sender);\r\n    \r\n    _setupRole(ADMIN_ROLE, msg.sender);\r\n    _setRoleAdmin(ADMIN_ROLE, DEFAULT_ADMIN_ROLE);\r\n\r\n    _feeBeneficiary = msg.sender;\r\n    _wallet = wallet;\r\n  }\r\n  \r\n  function supportsInterface(bytes4 interfaceID) override(AccessControl)\r\n    public view returns (bool) {\r\n    return super.supportsInterface(interfaceID);\r\n  }\r\n\r\n  function get(uint tradeId) public view returns (Trade memory) {\r\n    return _trades[tradeId];\r\n  }\r\n\r\n  function buy(uint tradeId, uint quantity) public whenNotPaused {\r\n    Trade memory trade = _trades[tradeId];\r\n\r\n    // Require trade is still open\r\n    require(trade.status == TradeStatus.Active, \"Trade is not open.\");\r\n\r\n    // Check quantity\r\n    require(quantity <= trade.available, \"Not enough tokens for sale.\");\r\n\r\n    // Require buyer to be different from seller\r\n    require(msg.sender != trade.seller, \"Seller cannot be buyer.\");\r\n\r\n    // Calculate prices\r\n    uint subtotal = trade.price * quantity;\r\n\r\n    IERC20 currency = IERC20(trade.currency);\r\n\r\n    (uint sellerFee, uint buyerFee) = calculateMarketFees(subtotal);\r\n\r\n    uint allowance = currency.allowance(msg.sender, address(this));\r\n    require(allowance >= subtotal + buyerFee, \"Allowance is too low.\");\r\n\r\n    // Deposit currency for escrow\r\n    currency.transferFrom(\r\n      msg.sender,\r\n      address(this),\r\n      subtotal + buyerFee\r\n    );\r\n\r\n    uint available = trade.available - quantity;\r\n    _trades[_tradeId].available = available;\r\n\r\n    if (available == 0)\r\n      _trades[_tradeId].status = TradeStatus.Sold;\r\n\r\n    uint sellerNet = payAfterFees(\r\n      subtotal,\r\n      sellerFee,\r\n      buyerFee,\r\n      trade.token,\r\n      trade.tokenId,\r\n      trade.currency\r\n    );\r\n\r\n    pay(trade.currency, trade.seller, sellerNet);\r\n\r\n    _wallet.give(\r\n      trade.token,\r\n      msg.sender,\r\n      trade.tokenId,\r\n      quantity\r\n    );\r\n\r\n    emit Buy(\r\n      trade.id,\r\n      msg.sender,\r\n      quantity\r\n    );\r\n  }\r\n\r\n  function pay(address currency, address account, uint amount) internal {\r\n    _earnings[account][currency] += amount;\r\n  }\r\n\r\n  function calculateMarketFees(uint subtotal)\r\n    internal view returns (uint sellerFee, uint buyerFee) {\r\n    buyerFee = (subtotal * buyerFeePct) / hundredPct;\r\n    sellerFee = (subtotal * sellerFeePct) / hundredPct;\r\n  }\r\n\r\n  function payAfterFees(\r\n    uint subtotal,\r\n    uint sellerFee,\r\n    uint buyerFee,\r\n    address token,\r\n    uint tokenId,\r\n    address currency\r\n  ) internal returns (uint sellerPay) {\r\n    if (subtotal > sellerFee)\r\n      subtotal = subtotal - sellerFee;\r\n      sellerPay = subtotal;\r\n    \r\n    // Pay market fees\r\n    pay(currency, _feeBeneficiary, sellerFee + buyerFee);\r\n\r\n    if (!IERC165(token).supportsInterface(_INTERFACE_ID_FEES))\r\n      return sellerPay;\r\n\r\n    HasSecondarySaleFees tokenWithFees = HasSecondarySaleFees(token);\r\n\r\n    address payable[] memory recipients =\r\n      tokenWithFees.getFeeRecipients(tokenId);\r\n\r\n    uint[] memory feeBps = tokenWithFees.getFeeBps(tokenId);\r\n\r\n    for (uint i = 0; i < feeBps.length; i++) {\r\n      if (sellerPay == 0) break;\r\n\r\n      uint fee = (subtotal * feeBps[i]) / hundredPct;\r\n\r\n      if (fee > sellerPay) {\r\n        fee = sellerPay;\r\n        sellerPay = 0;\r\n      } else {\r\n        sellerPay -= fee;\r\n      }\r\n\r\n      pay(currency, recipients[i], fee);\r\n    }\r\n  }\r\n\r\n  function getSaleAuthorizationHash(\r\n    address seller,\r\n    address token,\r\n    uint tokenId,\r\n    uint quantity,\r\n    address currency,\r\n    uint price,\r\n    uint expiry,\r\n    uint salt\r\n  ) public view returns (bytes32) {\r\n    return keccak256(abi.encodePacked(\r\n      address(this),\r\n      seller,\r\n      token,\r\n      tokenId,\r\n      quantity,\r\n      currency,\r\n      price,\r\n      expiry,\r\n      salt\r\n    ));\r\n  }\r\n\r\n  function sell(\r\n    address seller,\r\n    address token,\r\n    uint tokenId,\r\n    uint quantity,\r\n    address currency,\r\n    uint price,\r\n    uint expiry,\r\n    uint salt,\r\n    bytes calldata signature\r\n  ) public whenNotPaused {\r\n    require(price >= minTokenPrice, \"Price is too low.\");\r\n    require(price <= maxTokenPrice, \"Price is too high.\");\r\n    require(quantity <= maxTradeQuantity, \"Quantity exceeds maximum.\");\r\n\r\n    require(_approvedTokens[token], \"Token contract is not allowed.\");\r\n    require(_approvedCurrencies[currency], \"Currency is not allowed.\");\r\n\r\n    if (!hasRole(ADMIN_ROLE, msg.sender)) {\r\n      require(expiry > block.timestamp, \"Approval expired.\");\r\n\r\n      bytes32 saleHash = getSaleAuthorizationHash(\r\n        seller,\r\n        token,\r\n        tokenId,\r\n        quantity,\r\n        currency,\r\n        price,\r\n        expiry,\r\n        salt\r\n      );\r\n\r\n      require(!_approvalsExhausted[saleHash], \"Approval exhausted.\");\r\n      \r\n      address recoveredAddress = saleHash\r\n        .toEthSignedMessageHash()\r\n        .recover(signature);\r\n      \r\n      require(\r\n        recoveredAddress != address(0)\r\n          && hasRole(ADMIN_ROLE, recoveredAddress),\r\n        \"Invalid signature.\"\r\n      );\r\n\r\n      _approvalsExhausted[saleHash] = true;\r\n    }\r\n\r\n    if (!IERC165(token).supportsInterface(type(IERC1155).interfaceId))\r\n      quantity = 1;\r\n\r\n    _wallet.take(\r\n      token,\r\n      seller,\r\n      tokenId,\r\n      quantity\r\n    );\r\n\r\n    // Create trade\r\n    _tradeId++;\r\n\r\n    Trade memory trade = Trade(\r\n      _tradeId,\r\n      seller,\r\n      token,\r\n      tokenId,\r\n      quantity,\r\n      quantity,\r\n      currency,\r\n      price,\r\n      TradeStatus.Active\r\n    );\r\n\r\n    _trades[_tradeId] = trade;\r\n\r\n    tradeHistory[\r\n      abi.encodePacked(\r\n        token,\r\n        tokenId\r\n      )\r\n    ].push(_tradeId);\r\n\r\n    emit Sell(\r\n      _tradeId,\r\n      seller,\r\n      token,\r\n      tokenId,\r\n      quantity,\r\n      currency,\r\n      price\r\n    );\r\n  }\r\n\r\n  function cancel(uint256 tradeId) public {\r\n    Trade memory trade = _trades[tradeId];\r\n    \r\n    require(\r\n      trade.status == TradeStatus.Active,\r\n      \"Only open trades can be closed.\"\r\n    );\r\n\r\n    require(\r\n      msg.sender == trade.seller || hasRole(ADMIN_ROLE, msg.sender),\r\n      \"Only seller or admin can close the trade.\"\r\n    );\r\n    \r\n    // Mark trade as cancelled\r\n    _trades[tradeId].status = TradeStatus.Cancelled;\r\n\r\n    _wallet.give(\r\n      trade.token,\r\n      msg.sender,\r\n      trade.tokenId,\r\n      trade.available\r\n    );\r\n\r\n    emit Cancel(\r\n      tradeId,\r\n      msg.sender\r\n    );\r\n  }\r\n\r\n  function getBalance(address currency, address account) public view returns (uint) {\r\n    return _earnings[account][currency];\r\n  }\r\n\r\n  function withdraw(address currency, uint amount) public {\r\n    require(\r\n      _earnings[msg.sender][currency] >= amount,\r\n      \"Insufficient balance to withdraw.\"\r\n    );\r\n\r\n    _earnings[msg.sender][currency] -= amount;\r\n\r\n    IERC20(currency).transfer(msg.sender, amount);\r\n  }\r\n\r\n  function setFeeBeneficiary(address beneficiary) public onlyRole(DEFAULT_ADMIN_ROLE) {\r\n    _feeBeneficiary = beneficiary;\r\n  }\r\n\r\n  function setTokenApproval(address token, bool isApproved) public onlyRole(ADMIN_ROLE) {\r\n    _approvedTokens[token] = isApproved;\r\n  }\r\n\r\n  function setCurrencyApproval(address currency, bool isApproved) public onlyRole(ADMIN_ROLE) {\r\n    _approvedCurrencies[currency] = isApproved;\r\n  }\r\n  \r\n  function setMaxTokenPriceEther(uint256 price) public onlyRole(ADMIN_ROLE) {\r\n    maxTokenPrice = price * 1 ether;\r\n  }\r\n  \r\n  function setMaxTokenPriceWei(uint256 price) public onlyRole(ADMIN_ROLE) {\r\n    maxTokenPrice = price;\r\n  }\r\n  \r\n  function setMaxTradeQuantity(uint256 quantity) public onlyRole(ADMIN_ROLE) {\r\n    maxTradeQuantity = quantity;\r\n  }\r\n\r\n  function setBuyerFeePct(uint256 pct) public onlyRole(ADMIN_ROLE) {\r\n    require(pct <= hundredPct, \"Fee cannot be higher than hundred percent.\");\r\n    buyerFeePct = pct;\r\n  }\r\n  \r\n  function setSellerFeePct(uint256 pct) public onlyRole(ADMIN_ROLE) {\r\n    require(pct <= hundredPct, \"Fee cannot be higher than hundred percent.\");\r\n    sellerFeePct = pct;\r\n  }\r\n  \r\n  function pause() public onlyRole(ADMIN_ROLE) {\r\n    super._pause();\r\n  }\r\n\r\n  function resume() public onlyRole(ADMIN_ROLE) {\r\n    super._unpause();\r\n  }\r\n}\r\n",
  "sourcePath": "C:\\Users\\Husnain\\Documents\\Projects\\Fanbase\\New\\fanbase\\packages\\ethereum\\contracts\\solidity\\collectibles\\MarketV1.sol",
  "compiler": {
    "name": "solc",
    "version": "0.8.6+commit.11564f7e.Emscripten.clang"
  },
  "schemaVersion": "3.4.1",
  "updatedAt": "2021-07-05T11:01:08.460Z",
  "devdoc": {
    "kind": "dev",
    "methods": {
      "getRoleAdmin(bytes32)": {
        "details": "Returns the admin role that controls `role`. See {grantRole} and {revokeRole}. To change a role's admin, use {_setRoleAdmin}."
      },
      "grantRole(bytes32,address)": {
        "details": "Grants `role` to `account`. If `account` had not been already granted `role`, emits a {RoleGranted} event. Requirements: - the caller must have ``role``'s admin role."
      },
      "hasRole(bytes32,address)": {
        "details": "Returns `true` if `account` has been granted `role`."
      },
      "paused()": {
        "details": "Returns true if the contract is paused, and false otherwise."
      },
      "renounceRole(bytes32,address)": {
        "details": "Revokes `role` from the calling account. Roles are often managed via {grantRole} and {revokeRole}: this function's purpose is to provide a mechanism for accounts to lose their privileges if they are compromised (such as when a trusted device is misplaced). If the calling account had been granted `role`, emits a {RoleRevoked} event. Requirements: - the caller must be `account`."
      },
      "revokeRole(bytes32,address)": {
        "details": "Revokes `role` from `account`. If `account` had been granted `role`, emits a {RoleRevoked} event. Requirements: - the caller must have ``role``'s admin role."
      }
    },
    "version": 1
  },
  "userdoc": {
    "kind": "user",
    "methods": {},
    "version": 1
  }
}