{
  "contractName": "MarketV1",
  "abi": [
    {
      "inputs": [
        {
          "internalType": "contract MarketWalletV1",
          "name": "wallet",
          "type": "address"
        }
      ],
      "stateMutability": "nonpayable",
      "type": "constructor"
    },
    {
      "anonymous": false,
      "inputs": [
        {
          "indexed": true,
          "internalType": "uint256",
          "name": "tradeId",
          "type": "uint256"
        },
        {
          "indexed": true,
          "internalType": "address",
          "name": "buyer",
          "type": "address"
        },
        {
          "indexed": false,
          "internalType": "address",
          "name": "tokenContract",
          "type": "address"
        },
        {
          "indexed": false,
          "internalType": "uint256",
          "name": "tokenId",
          "type": "uint256"
        },
        {
          "indexed": false,
          "internalType": "uint256",
          "name": "quantity",
          "type": "uint256"
        }
      ],
      "name": "Buy",
      "type": "event"
    },
    {
      "anonymous": false,
      "inputs": [
        {
          "indexed": true,
          "internalType": "uint256",
          "name": "tradeId",
          "type": "uint256"
        },
        {
          "indexed": false,
          "internalType": "address",
          "name": "operator",
          "type": "address"
        }
      ],
      "name": "Cancel",
      "type": "event"
    },
    {
      "anonymous": false,
      "inputs": [
        {
          "indexed": false,
          "internalType": "address",
          "name": "account",
          "type": "address"
        }
      ],
      "name": "Paused",
      "type": "event"
    },
    {
      "anonymous": false,
      "inputs": [
        {
          "indexed": true,
          "internalType": "bytes32",
          "name": "role",
          "type": "bytes32"
        },
        {
          "indexed": true,
          "internalType": "bytes32",
          "name": "previousAdminRole",
          "type": "bytes32"
        },
        {
          "indexed": true,
          "internalType": "bytes32",
          "name": "newAdminRole",
          "type": "bytes32"
        }
      ],
      "name": "RoleAdminChanged",
      "type": "event"
    },
    {
      "anonymous": false,
      "inputs": [
        {
          "indexed": true,
          "internalType": "bytes32",
          "name": "role",
          "type": "bytes32"
        },
        {
          "indexed": true,
          "internalType": "address",
          "name": "account",
          "type": "address"
        },
        {
          "indexed": true,
          "internalType": "address",
          "name": "sender",
          "type": "address"
        }
      ],
      "name": "RoleGranted",
      "type": "event"
    },
    {
      "anonymous": false,
      "inputs": [
        {
          "indexed": true,
          "internalType": "bytes32",
          "name": "role",
          "type": "bytes32"
        },
        {
          "indexed": true,
          "internalType": "address",
          "name": "account",
          "type": "address"
        },
        {
          "indexed": true,
          "internalType": "address",
          "name": "sender",
          "type": "address"
        }
      ],
      "name": "RoleRevoked",
      "type": "event"
    },
    {
      "anonymous": false,
      "inputs": [
        {
          "indexed": false,
          "internalType": "address",
          "name": "seller",
          "type": "address"
        },
        {
          "indexed": true,
          "internalType": "uint256",
          "name": "tradeId",
          "type": "uint256"
        },
        {
          "indexed": true,
          "internalType": "address",
          "name": "tokenContract",
          "type": "address"
        },
        {
          "indexed": true,
          "internalType": "uint256",
          "name": "tokenId",
          "type": "uint256"
        },
        {
          "indexed": false,
          "internalType": "uint256",
          "name": "quantity",
          "type": "uint256"
        },
        {
          "indexed": false,
          "internalType": "address",
          "name": "currency",
          "type": "address"
        },
        {
          "indexed": false,
          "internalType": "uint256",
          "name": "price",
          "type": "uint256"
        }
      ],
      "name": "Sell",
      "type": "event"
    },
    {
      "anonymous": false,
      "inputs": [
        {
          "indexed": false,
          "internalType": "address",
          "name": "account",
          "type": "address"
        }
      ],
      "name": "Unpaused",
      "type": "event"
    },
    {
      "inputs": [],
      "name": "ADMIN_ROLE",
      "outputs": [
        {
          "internalType": "bytes32",
          "name": "",
          "type": "bytes32"
        }
      ],
      "stateMutability": "view",
      "type": "function"
    },
    {
      "inputs": [],
      "name": "DEFAULT_ADMIN_ROLE",
      "outputs": [
        {
          "internalType": "bytes32",
          "name": "",
          "type": "bytes32"
        }
      ],
      "stateMutability": "view",
      "type": "function"
    },
    {
      "inputs": [],
      "name": "buyerFeePct",
      "outputs": [
        {
          "internalType": "uint256",
          "name": "",
          "type": "uint256"
        }
      ],
      "stateMutability": "view",
      "type": "function"
    },
    {
      "inputs": [
        {
          "internalType": "bytes32",
          "name": "role",
          "type": "bytes32"
        }
      ],
      "name": "getRoleAdmin",
      "outputs": [
        {
          "internalType": "bytes32",
          "name": "",
          "type": "bytes32"
        }
      ],
      "stateMutability": "view",
      "type": "function"
    },
    {
      "inputs": [
        {
          "internalType": "bytes32",
          "name": "role",
          "type": "bytes32"
        },
        {
          "internalType": "address",
          "name": "account",
          "type": "address"
        }
      ],
      "name": "grantRole",
      "outputs": [],
      "stateMutability": "nonpayable",
      "type": "function"
    },
    {
      "inputs": [
        {
          "internalType": "bytes32",
          "name": "role",
          "type": "bytes32"
        },
        {
          "internalType": "address",
          "name": "account",
          "type": "address"
        }
      ],
      "name": "hasRole",
      "outputs": [
        {
          "internalType": "bool",
          "name": "",
          "type": "bool"
        }
      ],
      "stateMutability": "view",
      "type": "function"
    },
    {
      "inputs": [],
      "name": "hundredPct",
      "outputs": [
        {
          "internalType": "uint256",
          "name": "",
          "type": "uint256"
        }
      ],
      "stateMutability": "view",
      "type": "function"
    },
    {
      "inputs": [],
      "name": "maxTokenPrice",
      "outputs": [
        {
          "internalType": "uint256",
          "name": "",
          "type": "uint256"
        }
      ],
      "stateMutability": "view",
      "type": "function"
    },
    {
      "inputs": [],
      "name": "maxTradeQuantity",
      "outputs": [
        {
          "internalType": "uint256",
          "name": "",
          "type": "uint256"
        }
      ],
      "stateMutability": "view",
      "type": "function"
    },
    {
      "inputs": [],
      "name": "minTokenPrice",
      "outputs": [
        {
          "internalType": "uint256",
          "name": "",
          "type": "uint256"
        }
      ],
      "stateMutability": "view",
      "type": "function"
    },
    {
      "inputs": [],
      "name": "paused",
      "outputs": [
        {
          "internalType": "bool",
          "name": "",
          "type": "bool"
        }
      ],
      "stateMutability": "view",
      "type": "function"
    },
    {
      "inputs": [
        {
          "internalType": "bytes32",
          "name": "role",
          "type": "bytes32"
        },
        {
          "internalType": "address",
          "name": "account",
          "type": "address"
        }
      ],
      "name": "renounceRole",
      "outputs": [],
      "stateMutability": "nonpayable",
      "type": "function"
    },
    {
      "inputs": [
        {
          "internalType": "bytes32",
          "name": "role",
          "type": "bytes32"
        },
        {
          "internalType": "address",
          "name": "account",
          "type": "address"
        }
      ],
      "name": "revokeRole",
      "outputs": [],
      "stateMutability": "nonpayable",
      "type": "function"
    },
    {
      "inputs": [],
      "name": "sellerFeePct",
      "outputs": [
        {
          "internalType": "uint256",
          "name": "",
          "type": "uint256"
        }
      ],
      "stateMutability": "view",
      "type": "function"
    },
    {
      "inputs": [
        {
          "internalType": "bytes",
          "name": "",
          "type": "bytes"
        },
        {
          "internalType": "uint256",
          "name": "",
          "type": "uint256"
        }
      ],
      "name": "tradeHistory",
      "outputs": [
        {
          "internalType": "uint256",
          "name": "",
          "type": "uint256"
        }
      ],
      "stateMutability": "view",
      "type": "function"
    },
    {
      "inputs": [
        {
          "internalType": "bytes4",
          "name": "interfaceID",
          "type": "bytes4"
        }
      ],
      "name": "supportsInterface",
      "outputs": [
        {
          "internalType": "bool",
          "name": "",
          "type": "bool"
        }
      ],
      "stateMutability": "view",
      "type": "function"
    },
    {
      "inputs": [
        {
          "internalType": "uint256",
          "name": "tradeId",
          "type": "uint256"
        }
      ],
      "name": "get",
      "outputs": [
        {
          "components": [
            {
              "internalType": "uint256",
              "name": "id",
              "type": "uint256"
            },
            {
              "internalType": "address",
              "name": "seller",
              "type": "address"
            },
            {
              "internalType": "address",
              "name": "token",
              "type": "address"
            },
            {
              "internalType": "uint256",
              "name": "tokenId",
              "type": "uint256"
            },
            {
              "internalType": "uint256",
              "name": "quantity",
              "type": "uint256"
            },
            {
              "internalType": "uint256",
              "name": "available",
              "type": "uint256"
            },
            {
              "internalType": "address",
              "name": "currency",
              "type": "address"
            },
            {
              "internalType": "uint256",
              "name": "price",
              "type": "uint256"
            },
            {
              "internalType": "enum TradeStatus",
              "name": "status",
              "type": "uint8"
            }
          ],
          "internalType": "struct Trade",
          "name": "",
          "type": "tuple"
        }
      ],
      "stateMutability": "view",
      "type": "function"
    },
    {
      "inputs": [
        {
          "internalType": "uint256",
          "name": "tradeId",
          "type": "uint256"
        },
        {
          "internalType": "uint256",
          "name": "quantity",
          "type": "uint256"
        }
      ],
      "name": "buy",
      "outputs": [],
      "stateMutability": "nonpayable",
      "type": "function"
    },
    {
      "inputs": [
        {
          "internalType": "address",
          "name": "seller",
          "type": "address"
        },
        {
          "internalType": "address",
          "name": "token",
          "type": "address"
        },
        {
          "internalType": "uint256",
          "name": "tokenId",
          "type": "uint256"
        },
        {
          "internalType": "uint256",
          "name": "quantity",
          "type": "uint256"
        },
        {
          "internalType": "address",
          "name": "currency",
          "type": "address"
        },
        {
          "internalType": "uint256",
          "name": "price",
          "type": "uint256"
        },
        {
          "internalType": "uint256",
          "name": "expiry",
          "type": "uint256"
        },
        {
          "internalType": "uint256",
          "name": "salt",
          "type": "uint256"
        }
      ],
      "name": "getSaleAuthorizationHash",
      "outputs": [
        {
          "internalType": "bytes32",
          "name": "",
          "type": "bytes32"
        }
      ],
      "stateMutability": "view",
      "type": "function"
    },
    {
      "inputs": [
        {
          "internalType": "address",
          "name": "seller",
          "type": "address"
        },
        {
          "internalType": "address",
          "name": "token",
          "type": "address"
        },
        {
          "internalType": "uint256",
          "name": "tokenId",
          "type": "uint256"
        },
        {
          "internalType": "uint256",
          "name": "quantity",
          "type": "uint256"
        },
        {
          "internalType": "address",
          "name": "currency",
          "type": "address"
        },
        {
          "internalType": "uint256",
          "name": "price",
          "type": "uint256"
        },
        {
          "internalType": "uint256",
          "name": "expiry",
          "type": "uint256"
        },
        {
          "internalType": "uint256",
          "name": "salt",
          "type": "uint256"
        },
        {
          "internalType": "bytes",
          "name": "signature",
          "type": "bytes"
        }
      ],
      "name": "sell",
      "outputs": [],
      "stateMutability": "nonpayable",
      "type": "function"
    },
    {
      "inputs": [
        {
          "internalType": "uint256",
          "name": "tradeId",
          "type": "uint256"
        }
      ],
      "name": "cancel",
      "outputs": [],
      "stateMutability": "nonpayable",
      "type": "function"
    },
    {
      "inputs": [
        {
          "internalType": "address",
          "name": "currency",
          "type": "address"
        },
        {
          "internalType": "address",
          "name": "account",
          "type": "address"
        }
      ],
      "name": "getBalance",
      "outputs": [
        {
          "internalType": "uint256",
          "name": "",
          "type": "uint256"
        }
      ],
      "stateMutability": "view",
      "type": "function"
    },
    {
      "inputs": [
        {
          "internalType": "address",
          "name": "currency",
          "type": "address"
        },
        {
          "internalType": "uint256",
          "name": "amount",
          "type": "uint256"
        }
      ],
      "name": "withdraw",
      "outputs": [],
      "stateMutability": "nonpayable",
      "type": "function"
    },
    {
      "inputs": [
        {
          "internalType": "address",
          "name": "beneficiary",
          "type": "address"
        }
      ],
      "name": "setFeeBeneficiary",
      "outputs": [],
      "stateMutability": "nonpayable",
      "type": "function"
    },
    {
      "inputs": [
        {
          "internalType": "address",
          "name": "token",
          "type": "address"
        },
        {
          "internalType": "bool",
          "name": "isApproved",
          "type": "bool"
        }
      ],
      "name": "setTokenApproval",
      "outputs": [],
      "stateMutability": "nonpayable",
      "type": "function"
    },
    {
      "inputs": [
        {
          "internalType": "address",
          "name": "currency",
          "type": "address"
        },
        {
          "internalType": "bool",
          "name": "isApproved",
          "type": "bool"
        }
      ],
      "name": "setCurrencyApproval",
      "outputs": [],
      "stateMutability": "nonpayable",
      "type": "function"
    },
    {
      "inputs": [
        {
          "internalType": "uint256",
          "name": "price",
          "type": "uint256"
        }
      ],
      "name": "setMaxTokenPriceEther",
      "outputs": [],
      "stateMutability": "nonpayable",
      "type": "function"
    },
    {
      "inputs": [
        {
          "internalType": "uint256",
          "name": "price",
          "type": "uint256"
        }
      ],
      "name": "setMaxTokenPriceWei",
      "outputs": [],
      "stateMutability": "nonpayable",
      "type": "function"
    },
    {
      "inputs": [
        {
          "internalType": "uint256",
          "name": "quantity",
          "type": "uint256"
        }
      ],
      "name": "setMaxTradeQuantity",
      "outputs": [],
      "stateMutability": "nonpayable",
      "type": "function"
    },
    {
      "inputs": [
        {
          "internalType": "uint256",
          "name": "pct",
          "type": "uint256"
        }
      ],
      "name": "setBuyerFeePct",
      "outputs": [],
      "stateMutability": "nonpayable",
      "type": "function"
    },
    {
      "inputs": [
        {
          "internalType": "uint256",
          "name": "pct",
          "type": "uint256"
        }
      ],
      "name": "setSellerFeePct",
      "outputs": [],
      "stateMutability": "nonpayable",
      "type": "function"
    },
    {
      "inputs": [],
      "name": "pause",
      "outputs": [],
      "stateMutability": "nonpayable",
      "type": "function"
    },
    {
      "inputs": [],
      "name": "resume",
      "outputs": [],
      "stateMutability": "nonpayable",
      "type": "function"
    }
  ],
  "bytecode": "0x6080604052611388600255611388600355620186a060045569d3c21bcecceda1000000600555620f424060065560045460075560006009556000600d556000600f553480156200004e57600080fd5b5060405162005397380380620053978339818101604052810190620000749190620003a0565b6000600160006101000a81548160ff021916908315150217905550620000a46000801b336200019460201b60201c565b620000d67fa49807205ce4d355092ef5a8a18f56e8913cf4a201fbe287825b095693c21775336200019460201b60201c565b6200010b7fa49807205ce4d355092ef5a8a18f56e8913cf4a201fbe287825b095693c217756000801b620001aa60201b60201c565b33601160006101000a81548173ffffffffffffffffffffffffffffffffffffffff021916908373ffffffffffffffffffffffffffffffffffffffff16021790555080601260006101000a81548173ffffffffffffffffffffffffffffffffffffffff021916908373ffffffffffffffffffffffffffffffffffffffff1602179055505062000439565b620001a682826200020760201b60201c565b5050565b80620001bc83620002f860201b60201c565b837fbd79b86ffe0ab8e8776151514217cd7cacd52c909f66475c3af44e129f0b00ff60405160405180910390a480600080848152602001908152602001600020600101819055505050565b6200021982826200031760201b60201c565b620002f457600160008084815260200190815260200160002060000160008373ffffffffffffffffffffffffffffffffffffffff1673ffffffffffffffffffffffffffffffffffffffff16815260200190815260200160002060006101000a81548160ff021916908315150217905550620002996200038160201b60201c565b73ffffffffffffffffffffffffffffffffffffffff168173ffffffffffffffffffffffffffffffffffffffff16837f2f8788117e7eff1d82e926ec794901d17c78024a50270940304540a733656f0d60405160405180910390a45b5050565b6000806000838152602001908152602001600020600101549050919050565b600080600084815260200190815260200160002060000160008373ffffffffffffffffffffffffffffffffffffffff1673ffffffffffffffffffffffffffffffffffffffff16815260200190815260200160002060009054906101000a900460ff16905092915050565b600033905090565b6000815190506200039a816200041f565b92915050565b600060208284031215620003b957620003b86200041a565b5b6000620003c98482850162000389565b91505092915050565b6000620003df82620003fa565b9050919050565b6000620003f382620003d2565b9050919050565b600073ffffffffffffffffffffffffffffffffffffffff82169050919050565b600080fd5b6200042a81620003e6565b81146200043657600080fd5b50565b614f4e80620004496000396000f3fe608060405234801561001057600080fd5b50600436106101fb5760003560e01c80638662732e1161011a578063d4fac45d116100ad578063e45ad64a1161007c578063e45ad64a14610576578063e6a5010014610592578063f3fef3a3146105ae578063fbb5470c146105ca578063fd1fc13e146105fa576101fb565b8063d4fac45d146104f2578063d547741f14610522578063d6febde81461053e578063de6df7bf1461055a576101fb565b8063a217fddf116100e9578063a217fddf1461047e578063bca998191461049c578063c661b89d146104b8578063d428dc2b146104d4576101fb565b80638662732e146103d05780638ce5ab6a1461040057806391d148541461041e5780639507d39a1461044e576101fb565b80635a0a3d821161019257806375b238fc1161016157806375b238fc1461036c57806377e5c4a81461038a5780638456cb59146103a857806385d561ae146103b2576101fb565b80635a0a3d82146102f85780635c975abb146103145780635dabb20e14610332578063670436f114610350576101fb565b80632b483c03116101ce5780632b483c03146102865780632f2ff15d146102a457806336568abe146102c057806340e58ee5146102dc576101fb565b806301ffc9a714610200578063046f7da21461023057806314d91c841461023a578063248a9ca314610256575b600080fd5b61021a600480360381019061021591906136b0565b610616565b604051610227919061404d565b60405180910390f35b610238610628565b005b610254600480360381019061024f9190613504565b610665565b005b610270600480360381019061026b9190613643565b6106f3565b60405161027d9190614068565b60405180910390f35b61028e610712565b60405161029b9190614421565b60405180910390f35b6102be60048036038101906102b99190613670565b610718565b005b6102da60048036038101906102d59190613670565b610741565b005b6102f660048036038101906102f19190613739565b6107c4565b005b610312600480360381019061030d91906132f6565b610b7f565b005b61031c610bd9565b604051610329919061404d565b60405180910390f35b61033a610bf0565b6040516103479190614421565b60405180910390f35b61036a60048036038101906103659190613504565b610bf6565b005b610374610c84565b6040516103819190614068565b60405180910390f35b610392610ca8565b60405161039f9190614421565b60405180910390f35b6103b0610cae565b005b6103ba610ceb565b6040516103c79190614421565b60405180910390f35b6103ea60048036038101906103e59190613363565b610cf1565b6040516103f79190614068565b60405180910390f35b610408610d38565b6040516104159190614421565b60405180910390f35b61043860048036038101906104339190613670565b610d3e565b604051610445919061404d565b60405180910390f35b61046860048036038101906104639190613739565b610da8565b6040516104759190614405565b60405180910390f35b610486610f45565b6040516104939190614068565b60405180910390f35b6104b660048036038101906104b19190613739565b610f4c565b005b6104d260048036038101906104cd9190613739565b610f9c565b005b6104dc61101e565b6040516104e99190614421565b60405180910390f35b61050c60048036038101906105079190613323565b611024565b6040516105199190614421565b60405180910390f35b61053c60048036038101906105379190613670565b6110ab565b005b61055860048036038101906105539190613793565b6110d4565b005b610574600480360381019061056f9190613419565b61172c565b005b610590600480360381019061058b9190613739565b611f8a565b005b6105ac60048036038101906105a79190613739565b61200c565b005b6105c860048036038101906105c39190613544565b612049565b005b6105e460048036038101906105df91906136dd565b61222d565b6040516105f19190614421565b60405180910390f35b610614600480360381019061060f9190613739565b612274565b005b6000610621826122b1565b9050919050565b7fa49807205ce4d355092ef5a8a18f56e8913cf4a201fbe287825b095693c2177561065a8161065561232b565b612333565b6106626123d0565b50565b7fa49807205ce4d355092ef5a8a18f56e8913cf4a201fbe287825b095693c217756106978161069261232b565b612333565b81600c60008573ffffffffffffffffffffffffffffffffffffffff1673ffffffffffffffffffffffffffffffffffffffff16815260200190815260200160002060006101000a81548160ff021916908315150217905550505050565b6000806000838152602001908152602001600020600101549050919050565b60035481565b610721826106f3565b6107328161072d61232b565b612333565b61073c8383612472565b505050565b61074961232b565b73ffffffffffffffffffffffffffffffffffffffff168173ffffffffffffffffffffffffffffffffffffffff16146107b6576040517f08c379a00000000000000000000000000000000000000000000000000000000081526004016107ad906143e5565b60405180910390fd5b6107c08282612552565b5050565b6000600a600083815260200190815260200160002060405180610120016040529081600082015481526020016001820160009054906101000a900473ffffffffffffffffffffffffffffffffffffffff1673ffffffffffffffffffffffffffffffffffffffff1673ffffffffffffffffffffffffffffffffffffffff1681526020016002820160009054906101000a900473ffffffffffffffffffffffffffffffffffffffff1673ffffffffffffffffffffffffffffffffffffffff1673ffffffffffffffffffffffffffffffffffffffff1681526020016003820154815260200160048201548152602001600582015481526020016006820160009054906101000a900473ffffffffffffffffffffffffffffffffffffffff1673ffffffffffffffffffffffffffffffffffffffff1673ffffffffffffffffffffffffffffffffffffffff168152602001600782015481526020016008820160009054906101000a900460ff16600281111561093e5761093d61487a565b5b60028111156109505761094f61487a565b5b8152505090506000600281111561096a5761096961487a565b5b81610100015160028111156109825761098161487a565b5b146109c2576040517f08c379a00000000000000000000000000000000000000000000000000000000081526004016109b9906141e5565b60405180910390fd5b806020015173ffffffffffffffffffffffffffffffffffffffff163373ffffffffffffffffffffffffffffffffffffffff161480610a265750610a257fa49807205ce4d355092ef5a8a18f56e8913cf4a201fbe287825b095693c2177533610d3e565b5b610a65576040517f08c379a0000000000000000000000000000000000000000000000000000000008152600401610a5c906141a5565b60405180910390fd5b6002600a600084815260200190815260200160002060080160006101000a81548160ff02191690836002811115610a9f57610a9e61487a565b5b0217905550601260009054906101000a900473ffffffffffffffffffffffffffffffffffffffff1673ffffffffffffffffffffffffffffffffffffffff16632ed7bae882604001513384606001518560a001516040518563ffffffff1660e01b8152600401610b119493929190613f63565b600060405180830381600087803b158015610b2b57600080fd5b505af1158015610b3f573d6000803e3d6000fd5b50505050817f8dd3c361eb2366ff27c2db0eb07b9261f1d052570742ab8c9a0c326f37aa576d33604051610b739190613ee8565b60405180910390a25050565b6000801b610b9481610b8f61232b565b612333565b81601160006101000a81548173ffffffffffffffffffffffffffffffffffffffff021916908373ffffffffffffffffffffffffffffffffffffffff1602179055505050565b6000600160009054906101000a900460ff16905090565b60075481565b7fa49807205ce4d355092ef5a8a18f56e8913cf4a201fbe287825b095693c21775610c2881610c2361232b565b612333565b81600e60008573ffffffffffffffffffffffffffffffffffffffff1673ffffffffffffffffffffffffffffffffffffffff16815260200190815260200160002060006101000a81548160ff021916908315150217905550505050565b7fa49807205ce4d355092ef5a8a18f56e8913cf4a201fbe287825b095693c2177581565b60055481565b7fa49807205ce4d355092ef5a8a18f56e8913cf4a201fbe287825b095693c21775610ce081610cdb61232b565b612333565b610ce8612633565b50565b60065481565b6000308989898989898989604051602001610d1499989796959493929190613da2565b60405160208183030381529060405280519060200120905098975050505050505050565b60025481565b600080600084815260200190815260200160002060000160008373ffffffffffffffffffffffffffffffffffffffff1673ffffffffffffffffffffffffffffffffffffffff16815260200190815260200160002060009054906101000a900460ff16905092915050565b610db0612fac565b600a600083815260200190815260200160002060405180610120016040529081600082015481526020016001820160009054906101000a900473ffffffffffffffffffffffffffffffffffffffff1673ffffffffffffffffffffffffffffffffffffffff1673ffffffffffffffffffffffffffffffffffffffff1681526020016002820160009054906101000a900473ffffffffffffffffffffffffffffffffffffffff1673ffffffffffffffffffffffffffffffffffffffff1673ffffffffffffffffffffffffffffffffffffffff1681526020016003820154815260200160048201548152602001600582015481526020016006820160009054906101000a900473ffffffffffffffffffffffffffffffffffffffff1673ffffffffffffffffffffffffffffffffffffffff1673ffffffffffffffffffffffffffffffffffffffff168152602001600782015481526020016008820160009054906101000a900460ff166002811115610f2857610f2761487a565b5b6002811115610f3a57610f3961487a565b5b815250509050919050565b6000801b81565b7fa49807205ce4d355092ef5a8a18f56e8913cf4a201fbe287825b095693c21775610f7e81610f7961232b565b612333565b670de0b6b3a764000082610f9291906145ae565b6005819055505050565b7fa49807205ce4d355092ef5a8a18f56e8913cf4a201fbe287825b095693c21775610fce81610fc961232b565b612333565b600454821115611013576040517f08c379a000000000000000000000000000000000000000000000000000000000815260040161100a90614385565b60405180910390fd5b816003819055505050565b60045481565b6000600b60008373ffffffffffffffffffffffffffffffffffffffff1673ffffffffffffffffffffffffffffffffffffffff16815260200190815260200160002060008473ffffffffffffffffffffffffffffffffffffffff1673ffffffffffffffffffffffffffffffffffffffff16815260200190815260200160002054905092915050565b6110b4826106f3565b6110c5816110c061232b565b612333565b6110cf8383612552565b505050565b6110dc610bd9565b1561111c576040517f08c379a000000000000000000000000000000000000000000000000000000000815260040161111390614265565b60405180910390fd5b6000600a600084815260200190815260200160002060405180610120016040529081600082015481526020016001820160009054906101000a900473ffffffffffffffffffffffffffffffffffffffff1673ffffffffffffffffffffffffffffffffffffffff1673ffffffffffffffffffffffffffffffffffffffff1681526020016002820160009054906101000a900473ffffffffffffffffffffffffffffffffffffffff1673ffffffffffffffffffffffffffffffffffffffff1673ffffffffffffffffffffffffffffffffffffffff1681526020016003820154815260200160048201548152602001600582015481526020016006820160009054906101000a900473ffffffffffffffffffffffffffffffffffffffff1673ffffffffffffffffffffffffffffffffffffffff1673ffffffffffffffffffffffffffffffffffffffff168152602001600782015481526020016008820160009054906101000a900460ff1660028111156112965761129561487a565b5b60028111156112a8576112a761487a565b5b815250509050600060028111156112c2576112c161487a565b5b81610100015160028111156112da576112d961487a565b5b1461131a576040517f08c379a0000000000000000000000000000000000000000000000000000000008152600401611311906141c5565b60405180910390fd5b8060a00151821115611361576040517f08c379a000000000000000000000000000000000000000000000000000000000815260040161135890614145565b60405180910390fd5b806020015173ffffffffffffffffffffffffffffffffffffffff163373ffffffffffffffffffffffffffffffffffffffff1614156113d4576040517f08c379a00000000000000000000000000000000000000000000000000000000081526004016113cb90614345565b60405180910390fd5b6000828260e001516113e691906145ae565b905060008260c0015190506000806113fd846126d5565b9150915060008373ffffffffffffffffffffffffffffffffffffffff1663dd62ed3e33306040518363ffffffff1660e01b815260040161143e929190613f03565b60206040518083038186803b15801561145657600080fd5b505afa15801561146a573d6000803e3d6000fd5b505050506040513d601f19601f8201168201806040525081019061148e9190613766565b9050818561149c9190614527565b8110156114de576040517f08c379a00000000000000000000000000000000000000000000000000000000081526004016114d590614245565b60405180910390fd5b8373ffffffffffffffffffffffffffffffffffffffff166323b872dd333085896115089190614527565b6040518463ffffffff1660e01b815260040161152693929190613f2c565b602060405180830381600087803b15801561154057600080fd5b505af1158015611554573d6000803e3d6000fd5b505050506040513d601f19601f820116820180604052508101906115789190613616565b506000878760a0015161158b9190614608565b905080600a600060095481526020019081526020016000206005018190555060008114156115f5576001600a6000600954815260200190815260200160002060080160006101000a81548160ff021916908360028111156115ef576115ee61487a565b5b02179055505b60006116118786868b604001518c606001518d60c00151612717565b90506116268860c001518960200151836129e9565b601260009054906101000a900473ffffffffffffffffffffffffffffffffffffffff1673ffffffffffffffffffffffffffffffffffffffff16632ed7bae88960400151338b606001518d6040518563ffffffff1660e01b815260040161168f9493929190613f63565b600060405180830381600087803b1580156116a957600080fd5b505af11580156116bd573d6000803e3d6000fd5b505050503373ffffffffffffffffffffffffffffffffffffffff1688600001517f5b3fa64172584174917e1b3a206fe9c25d3120cf366b3d05ad5b6183a15cf7898a604001518b606001518d60405161171893929190614016565b60405180910390a350505050505050505050565b611734610bd9565b15611774576040517f08c379a000000000000000000000000000000000000000000000000000000000815260040161176b90614265565b60405180910390fd5b6007548510156117b9576040517f08c379a00000000000000000000000000000000000000000000000000000000081526004016117b0906142e5565b60405180910390fd5b6005548511156117fe576040517f08c379a00000000000000000000000000000000000000000000000000000000081526004016117f590614285565b60405180910390fd5b600654871115611843576040517f08c379a000000000000000000000000000000000000000000000000000000000815260040161183a906142a5565b60405180910390fd5b600c60008a73ffffffffffffffffffffffffffffffffffffffff1673ffffffffffffffffffffffffffffffffffffffff16815260200190815260200160002060009054906101000a900460ff166118cf576040517f08c379a00000000000000000000000000000000000000000000000000000000081526004016118c6906142c5565b60405180910390fd5b600e60008773ffffffffffffffffffffffffffffffffffffffff1673ffffffffffffffffffffffffffffffffffffffff16815260200190815260200160002060009054906101000a900460ff1661195b576040517f08c379a000000000000000000000000000000000000000000000000000000000815260040161195290614225565b60405180910390fd5b6119857fa49807205ce4d355092ef5a8a18f56e8913cf4a201fbe287825b095693c2177533610d3e565b611b74574284116119cb576040517f08c379a00000000000000000000000000000000000000000000000000000000081526004016119c290614325565b60405180910390fd5b60006119dd8b8b8b8b8b8b8b8b610cf1565b90506010600082815260200190815260200160002060009054906101000a900460ff1615611a40576040517f08c379a0000000000000000000000000000000000000000000000000000000008152600401611a3790614365565b60405180910390fd5b6000611aa184848080601f016020809104026020016040519081016040528093929190818152602001838380828437600081840152601f19601f82011690508083019250505050505050611a9384612a81565b612ab190919063ffffffff16565b9050600073ffffffffffffffffffffffffffffffffffffffff168173ffffffffffffffffffffffffffffffffffffffff1614158015611b065750611b057fa49807205ce4d355092ef5a8a18f56e8913cf4a201fbe287825b095693c2177582610d3e565b5b611b45576040517f08c379a0000000000000000000000000000000000000000000000000000000008152600401611b3c906143a5565b60405180910390fd5b60016010600084815260200190815260200160002060006101000a81548160ff02191690831515021790555050505b8873ffffffffffffffffffffffffffffffffffffffff166301ffc9a77fd9b67a26000000000000000000000000000000000000000000000000000000006040518263ffffffff1660e01b8152600401611bcd91906140c8565b60206040518083038186803b158015611be557600080fd5b505afa158015611bf9573d6000803e3d6000fd5b505050506040513d601f19601f82011682018060405250810190611c1d9190613616565b611c2657600196505b601260009054906101000a900473ffffffffffffffffffffffffffffffffffffffff1673ffffffffffffffffffffffffffffffffffffffff166340fd58298a8c8b8b6040518563ffffffff1660e01b8152600401611c879493929190613f63565b600060405180830381600087803b158015611ca157600080fd5b505af1158015611cb5573d6000803e3d6000fd5b5050505060096000815480929190611ccc9061479b565b9190505550600060405180610120016040528060095481526020018c73ffffffffffffffffffffffffffffffffffffffff1681526020018b73ffffffffffffffffffffffffffffffffffffffff1681526020018a81526020018981526020018981526020018873ffffffffffffffffffffffffffffffffffffffff16815260200187815260200160006002811115611d6757611d6661487a565b5b815250905080600a600060095481526020019081526020016000206000820151816000015560208201518160010160006101000a81548173ffffffffffffffffffffffffffffffffffffffff021916908373ffffffffffffffffffffffffffffffffffffffff16021790555060408201518160020160006101000a81548173ffffffffffffffffffffffffffffffffffffffff021916908373ffffffffffffffffffffffffffffffffffffffff160217905550606082015181600301556080820151816004015560a0820151816005015560c08201518160060160006101000a81548173ffffffffffffffffffffffffffffffffffffffff021916908373ffffffffffffffffffffffffffffffffffffffff16021790555060e082015181600701556101008201518160080160006101000a81548160ff02191690836002811115611eb557611eb461487a565b5b021790555090505060088a8a604051602001611ed2929190613e45565b604051602081830303815290604052604051611eee9190613e71565b90815260200160405180910390206009549080600181540180825580915050600190039060005260206000200160009091909190915055888a73ffffffffffffffffffffffffffffffffffffffff166009547fec6476599af7d1de36dcaba6243c67594713af1feae0fbad3dc18f641d985df78e8c8c8c604051611f759493929190613fd1565b60405180910390a45050505050505050505050565b7fa49807205ce4d355092ef5a8a18f56e8913cf4a201fbe287825b095693c21775611fbc81611fb761232b565b612333565b600454821115612001576040517f08c379a0000000000000000000000000000000000000000000000000000000008152600401611ff890614385565b60405180910390fd5b816002819055505050565b7fa49807205ce4d355092ef5a8a18f56e8913cf4a201fbe287825b095693c2177561203e8161203961232b565b612333565b816006819055505050565b80600b60003373ffffffffffffffffffffffffffffffffffffffff1673ffffffffffffffffffffffffffffffffffffffff16815260200190815260200160002060008473ffffffffffffffffffffffffffffffffffffffff1673ffffffffffffffffffffffffffffffffffffffff168152602001908152602001600020541015612108576040517f08c379a00000000000000000000000000000000000000000000000000000000081526004016120ff906143c5565b60405180910390fd5b80600b60003373ffffffffffffffffffffffffffffffffffffffff1673ffffffffffffffffffffffffffffffffffffffff16815260200190815260200160002060008473ffffffffffffffffffffffffffffffffffffffff1673ffffffffffffffffffffffffffffffffffffffff16815260200190815260200160002060008282546121949190614608565b925050819055508173ffffffffffffffffffffffffffffffffffffffff1663a9059cbb33836040518363ffffffff1660e01b81526004016121d6929190613fa8565b602060405180830381600087803b1580156121f057600080fd5b505af1158015612204573d6000803e3d6000fd5b505050506040513d601f19601f820116820180604052508101906122289190613616565b505050565b600882805160208101820180518482526020830160208501208183528095505050505050818154811061225f57600080fd5b90600052602060002001600091509150505481565b7fa49807205ce4d355092ef5a8a18f56e8913cf4a201fbe287825b095693c217756122a6816122a161232b565b612333565b816005819055505050565b60007f7965db0b000000000000000000000000000000000000000000000000000000007bffffffffffffffffffffffffffffffffffffffffffffffffffffffff1916827bffffffffffffffffffffffffffffffffffffffffffffffffffffffff19161480612324575061232382612b7b565b5b9050919050565b600033905090565b61233d8282610d3e565b6123cc576123628173ffffffffffffffffffffffffffffffffffffffff166014612be5565b6123708360001c6020612be5565b604051602001612381929190613eae565b6040516020818303038152906040526040517f08c379a00000000000000000000000000000000000000000000000000000000081526004016123c391906140e3565b60405180910390fd5b5050565b6123d8610bd9565b612417576040517f08c379a000000000000000000000000000000000000000000000000000000000815260040161240e90614165565b60405180910390fd5b6000600160006101000a81548160ff0219169083151502179055507f5db9ee0a495bf2e6ff9c91a7834c1ba4fdd244a5e8aa4e537bd38aeae4b073aa61245b61232b565b6040516124689190613ee8565b60405180910390a1565b61247c8282610d3e565b61254e57600160008084815260200190815260200160002060000160008373ffffffffffffffffffffffffffffffffffffffff1673ffffffffffffffffffffffffffffffffffffffff16815260200190815260200160002060006101000a81548160ff0219169083151502179055506124f361232b565b73ffffffffffffffffffffffffffffffffffffffff168173ffffffffffffffffffffffffffffffffffffffff16837f2f8788117e7eff1d82e926ec794901d17c78024a50270940304540a733656f0d60405160405180910390a45b5050565b61255c8282610d3e565b1561262f57600080600084815260200190815260200160002060000160008373ffffffffffffffffffffffffffffffffffffffff1673ffffffffffffffffffffffffffffffffffffffff16815260200190815260200160002060006101000a81548160ff0219169083151502179055506125d461232b565b73ffffffffffffffffffffffffffffffffffffffff168173ffffffffffffffffffffffffffffffffffffffff16837ff6391f5c32d9c69d2a47ea670b442974b53935d1edc7fd64eb21e047a839171b60405160405180910390a45b5050565b61263b610bd9565b1561267b576040517f08c379a000000000000000000000000000000000000000000000000000000000815260040161267290614265565b60405180910390fd5b60018060006101000a81548160ff0219169083151502179055507f62e78cea01bee320cd4e420270b5ea74000d11b0c9f74754ebdbfc544b05a2586126be61232b565b6040516126cb9190613ee8565b60405180910390a1565b600080600454600254846126e991906145ae565b6126f3919061457d565b90506004546003548461270691906145ae565b612710919061457d565b9150915091565b60008587111561273057858761272d9190614608565b96505b86905061276b82601160009054906101000a900473ffffffffffffffffffffffffffffffffffffffff1687896127669190614527565b6129e9565b8373ffffffffffffffffffffffffffffffffffffffff166301ffc9a763b779958460e01b6040518263ffffffff1660e01b81526004016127ab91906140c8565b60206040518083038186803b1580156127c357600080fd5b505afa1580156127d7573d6000803e3d6000fd5b505050506040513d601f19601f820116820180604052508101906127fb9190613616565b612804576129df565b600084905060008173ffffffffffffffffffffffffffffffffffffffff1663b9c4d9fb866040518263ffffffff1660e01b81526004016128449190614421565b60006040518083038186803b15801561285c57600080fd5b505afa158015612870573d6000803e3d6000fd5b505050506040513d6000823e3d601f19601f820116820180604052508101906128999190613584565b905060008273ffffffffffffffffffffffffffffffffffffffff16630ebd4c7f876040518263ffffffff1660e01b81526004016128d69190614421565b60006040518083038186803b1580156128ee57600080fd5b505afa158015612902573d6000803e3d6000fd5b505050506040513d6000823e3d601f19601f8201168201806040525081019061292b91906135cd565b905060005b81518110156129da576000851415612947576129da565b600060045483838151811061295f5761295e6148a9565b5b60200260200101518d61297291906145ae565b61297c919061457d565b90508581111561299257859050600095506129a1565b808661299e9190614608565b95505b6129c6878584815181106129b8576129b76148a9565b5b6020026020010151836129e9565b5080806129d29061479b565b915050612930565b505050505b9695505050505050565b80600b60008473ffffffffffffffffffffffffffffffffffffffff1673ffffffffffffffffffffffffffffffffffffffff16815260200190815260200160002060008573ffffffffffffffffffffffffffffffffffffffff1673ffffffffffffffffffffffffffffffffffffffff1681526020019081526020016000206000828254612a759190614527565b92505081905550505050565b600081604051602001612a949190613e88565b604051602081830303815290604052805190602001209050919050565b600080600080604185511415612ade576020850151925060408501519150606085015160001a9050612b64565b604085511415612b28576040850151602086015193507f7fffffffffffffffffffffffffffffffffffffffffffffffffffffffffffffff81169250601b8160ff1c01915050612b63565b6040517f08c379a0000000000000000000000000000000000000000000000000000000008152600401612b5a90614185565b60405180910390fd5b5b612b7086828585612e21565b935050505092915050565b60007f01ffc9a7000000000000000000000000000000000000000000000000000000007bffffffffffffffffffffffffffffffffffffffffffffffffffffffff1916827bffffffffffffffffffffffffffffffffffffffffffffffffffffffff1916149050919050565b606060006002836002612bf891906145ae565b612c029190614527565b67ffffffffffffffff811115612c1b57612c1a6148d8565b5b6040519080825280601f01601f191660200182016040528015612c4d5781602001600182028036833780820191505090505b5090507f300000000000000000000000000000000000000000000000000000000000000081600081518110612c8557612c846148a9565b5b60200101907effffffffffffffffffffffffffffffffffffffffffffffffffffffffffffff1916908160001a9053507f780000000000000000000000000000000000000000000000000000000000000081600181518110612ce957612ce86148a9565b5b60200101907effffffffffffffffffffffffffffffffffffffffffffffffffffffffffffff1916908160001a90535060006001846002612d2991906145ae565b612d339190614527565b90505b6001811115612dd3577f3031323334353637383961626364656600000000000000000000000000000000600f861660108110612d7557612d746148a9565b5b1a60f81b828281518110612d8c57612d8b6148a9565b5b60200101907effffffffffffffffffffffffffffffffffffffffffffffffffffffffffffff1916908160001a905350600485901c945080612dcc90614740565b9050612d36565b5060008414612e17576040517f08c379a0000000000000000000000000000000000000000000000000000000008152600401612e0e90614125565b60405180910390fd5b8091505092915050565b60007f7fffffffffffffffffffffffffffffff5d576e7357a4501ddfe92f46681b20a08260001c1115612e89576040517f08c379a0000000000000000000000000000000000000000000000000000000008152600401612e8090614205565b60405180910390fd5b601b8460ff161480612e9e5750601c8460ff16145b612edd576040517f08c379a0000000000000000000000000000000000000000000000000000000008152600401612ed490614305565b60405180910390fd5b600060018686868660405160008152602001604052604051612f029493929190614083565b6020604051602081039080840390855afa158015612f24573d6000803e3d6000fd5b505050602060405103519050600073ffffffffffffffffffffffffffffffffffffffff168173ffffffffffffffffffffffffffffffffffffffff161415612fa0576040517f08c379a0000000000000000000000000000000000000000000000000000000008152600401612f9790614105565b60405180910390fd5b80915050949350505050565b60405180610120016040528060008152602001600073ffffffffffffffffffffffffffffffffffffffff168152602001600073ffffffffffffffffffffffffffffffffffffffff168152602001600081526020016000815260200160008152602001600073ffffffffffffffffffffffffffffffffffffffff16815260200160008152602001600060028111156130465761304561487a565b5b81525090565b600061305f61305a84614461565b61443c565b9050808382526020820190508285602086028201111561308257613081614911565b5b60005b858110156130b257816130988882613183565b845260208401935060208301925050600181019050613085565b5050509392505050565b60006130cf6130ca8461448d565b61443c565b905080838252602082019050828560208602820111156130f2576130f1614911565b5b60005b85811015613122578161310888826132e1565b8452602084019350602083019250506001810190506130f5565b5050509392505050565b600061313f61313a846144b9565b61443c565b90508281526020810184848401111561315b5761315a614916565b5b6131668482856146fe565b509392505050565b60008135905061317d81614e8e565b92915050565b60008151905061319281614ea5565b92915050565b600082601f8301126131ad576131ac61490c565b5b81516131bd84826020860161304c565b91505092915050565b600082601f8301126131db576131da61490c565b5b81516131eb8482602086016130bc565b91505092915050565b60008135905061320381614ebc565b92915050565b60008151905061321881614ebc565b92915050565b60008135905061322d81614ed3565b92915050565b60008135905061324281614eea565b92915050565b60008083601f84011261325e5761325d61490c565b5b8235905067ffffffffffffffff81111561327b5761327a614907565b5b60208301915083600182028301111561329757613296614911565b5b9250929050565b600082601f8301126132b3576132b261490c565b5b81356132c384826020860161312c565b91505092915050565b6000813590506132db81614f01565b92915050565b6000815190506132f081614f01565b92915050565b60006020828403121561330c5761330b614920565b5b600061331a8482850161316e565b91505092915050565b6000806040838503121561333a57613339614920565b5b60006133488582860161316e565b92505060206133598582860161316e565b9150509250929050565b600080600080600080600080610100898b03121561338457613383614920565b5b60006133928b828c0161316e565b98505060206133a38b828c0161316e565b97505060406133b48b828c016132cc565b96505060606133c58b828c016132cc565b95505060806133d68b828c0161316e565b94505060a06133e78b828c016132cc565b93505060c06133f88b828c016132cc565b92505060e06134098b828c016132cc565b9150509295985092959890939650565b6000806000806000806000806000806101208b8d03121561343d5761343c614920565b5b600061344b8d828e0161316e565b9a5050602061345c8d828e0161316e565b995050604061346d8d828e016132cc565b985050606061347e8d828e016132cc565b975050608061348f8d828e0161316e565b96505060a06134a08d828e016132cc565b95505060c06134b18d828e016132cc565b94505060e06134c28d828e016132cc565b9350506101008b013567ffffffffffffffff8111156134e4576134e361491b565b5b6134f08d828e01613248565b92509250509295989b9194979a5092959850565b6000806040838503121561351b5761351a614920565b5b60006135298582860161316e565b925050602061353a858286016131f4565b9150509250929050565b6000806040838503121561355b5761355a614920565b5b60006135698582860161316e565b925050602061357a858286016132cc565b9150509250929050565b60006020828403121561359a57613599614920565b5b600082015167ffffffffffffffff8111156135b8576135b761491b565b5b6135c484828501613198565b91505092915050565b6000602082840312156135e3576135e2614920565b5b600082015167ffffffffffffffff8111156136015761360061491b565b5b61360d848285016131c6565b91505092915050565b60006020828403121561362c5761362b614920565b5b600061363a84828501613209565b91505092915050565b60006020828403121561365957613658614920565b5b60006136678482850161321e565b91505092915050565b6000806040838503121561368757613686614920565b5b60006136958582860161321e565b92505060206136a68582860161316e565b9150509250929050565b6000602082840312156136c6576136c5614920565b5b60006136d484828501613233565b91505092915050565b600080604083850312156136f4576136f3614920565b5b600083013567ffffffffffffffff8111156137125761371161491b565b5b61371e8582860161329e565b925050602061372f858286016132cc565b9150509250929050565b60006020828403121561374f5761374e614920565b5b600061375d848285016132cc565b91505092915050565b60006020828403121561377c5761377b614920565b5b600061378a848285016132e1565b91505092915050565b600080604083850312156137aa576137a9614920565b5b60006137b8858286016132cc565b92505060206137c9858286016132cc565b9150509250929050565b6137dc8161463c565b82525050565b6137eb8161463c565b82525050565b6138026137fd8261463c565b6147e4565b82525050565b61381181614660565b82525050565b6138208161466c565b82525050565b6138376138328261466c565b6147f6565b82525050565b61384681614676565b82525050565b6000613857826144ea565b6138618185614500565b935061387181856020860161470d565b80840191505092915050565b613886816146ec565b82525050565b6000613897826144f5565b6138a1818561450b565b93506138b181856020860161470d565b6138ba81614925565b840191505092915050565b60006138d0826144f5565b6138da818561451c565b93506138ea81856020860161470d565b80840191505092915050565b600061390360188361450b565b915061390e82614943565b602082019050919050565b600061392660208361450b565b91506139318261496c565b602082019050919050565b6000613949601b8361450b565b915061395482614995565b602082019050919050565b600061396c60148361450b565b9150613977826149be565b602082019050919050565b600061398f601f8361450b565b915061399a826149e7565b602082019050919050565b60006139b2601c8361451c565b91506139bd82614a10565b601c82019050919050565b60006139d560298361450b565b91506139e082614a39565b604082019050919050565b60006139f860128361450b565b9150613a0382614a88565b602082019050919050565b6000613a1b601f8361450b565b9150613a2682614ab1565b602082019050919050565b6000613a3e60228361450b565b9150613a4982614ada565b604082019050919050565b6000613a6160188361450b565b9150613a6c82614b29565b602082019050919050565b6000613a8460158361450b565b9150613a8f82614b52565b602082019050919050565b6000613aa760108361450b565b9150613ab282614b7b565b602082019050919050565b6000613aca60128361450b565b9150613ad582614ba4565b602082019050919050565b6000613aed60198361450b565b9150613af882614bcd565b602082019050919050565b6000613b10601e8361450b565b9150613b1b82614bf6565b602082019050919050565b6000613b3360118361450b565b9150613b3e82614c1f565b602082019050919050565b6000613b5660228361450b565b9150613b6182614c48565b604082019050919050565b6000613b7960118361450b565b9150613b8482614c97565b602082019050919050565b6000613b9c60178361450b565b9150613ba782614cc0565b602082019050919050565b6000613bbf60138361450b565b9150613bca82614ce9565b602082019050919050565b6000613be260178361451c565b9150613bed82614d12565b601782019050919050565b6000613c05602a8361450b565b9150613c1082614d3b565b604082019050919050565b6000613c2860128361450b565b9150613c3382614d8a565b602082019050919050565b6000613c4b60218361450b565b9150613c5682614db3565b604082019050919050565b6000613c6e60118361451c565b9150613c7982614e02565b601182019050919050565b6000613c91602f8361450b565b9150613c9c82614e2b565b604082019050919050565b61012082016000820151613cbe6000850182613d5e565b506020820151613cd160208501826137d3565b506040820151613ce460408501826137d3565b506060820151613cf76060850182613d5e565b506080820151613d0a6080850182613d5e565b5060a0820151613d1d60a0850182613d5e565b5060c0820151613d3060c08501826137d3565b5060e0820151613d4360e0850182613d5e565b50610100820151613d5861010085018261387d565b50505050565b613d67816146d5565b82525050565b613d76816146d5565b82525050565b613d8d613d88826146d5565b614812565b82525050565b613d9c816146df565b82525050565b6000613dae828c6137f1565b601482019150613dbe828b6137f1565b601482019150613dce828a6137f1565b601482019150613dde8289613d7c565b602082019150613dee8288613d7c565b602082019150613dfe82876137f1565b601482019150613e0e8286613d7c565b602082019150613e1e8285613d7c565b602082019150613e2e8284613d7c565b6020820191508190509a9950505050505050505050565b6000613e5182856137f1565b601482019150613e618284613d7c565b6020820191508190509392505050565b6000613e7d828461384c565b915081905092915050565b6000613e93826139a5565b9150613e9f8284613826565b60208201915081905092915050565b6000613eb982613bd5565b9150613ec582856138c5565b9150613ed082613c61565b9150613edc82846138c5565b91508190509392505050565b6000602082019050613efd60008301846137e2565b92915050565b6000604082019050613f1860008301856137e2565b613f2560208301846137e2565b9392505050565b6000606082019050613f4160008301866137e2565b613f4e60208301856137e2565b613f5b6040830184613d6d565b949350505050565b6000608082019050613f7860008301876137e2565b613f8560208301866137e2565b613f926040830185613d6d565b613f9f6060830184613d6d565b95945050505050565b6000604082019050613fbd60008301856137e2565b613fca6020830184613d6d565b9392505050565b6000608082019050613fe660008301876137e2565b613ff36020830186613d6d565b61400060408301856137e2565b61400d6060830184613d6d565b95945050505050565b600060608201905061402b60008301866137e2565b6140386020830185613d6d565b6140456040830184613d6d565b949350505050565b60006020820190506140626000830184613808565b92915050565b600060208201905061407d6000830184613817565b92915050565b60006080820190506140986000830187613817565b6140a56020830186613d93565b6140b26040830185613817565b6140bf6060830184613817565b95945050505050565b60006020820190506140dd600083018461383d565b92915050565b600060208201905081810360008301526140fd818461388c565b905092915050565b6000602082019050818103600083015261411e816138f6565b9050919050565b6000602082019050818103600083015261413e81613919565b9050919050565b6000602082019050818103600083015261415e8161393c565b9050919050565b6000602082019050818103600083015261417e8161395f565b9050919050565b6000602082019050818103600083015261419e81613982565b9050919050565b600060208201905081810360008301526141be816139c8565b9050919050565b600060208201905081810360008301526141de816139eb565b9050919050565b600060208201905081810360008301526141fe81613a0e565b9050919050565b6000602082019050818103600083015261421e81613a31565b9050919050565b6000602082019050818103600083015261423e81613a54565b9050919050565b6000602082019050818103600083015261425e81613a77565b9050919050565b6000602082019050818103600083015261427e81613a9a565b9050919050565b6000602082019050818103600083015261429e81613abd565b9050919050565b600060208201905081810360008301526142be81613ae0565b9050919050565b600060208201905081810360008301526142de81613b03565b9050919050565b600060208201905081810360008301526142fe81613b26565b9050919050565b6000602082019050818103600083015261431e81613b49565b9050919050565b6000602082019050818103600083015261433e81613b6c565b9050919050565b6000602082019050818103600083015261435e81613b8f565b9050919050565b6000602082019050818103600083015261437e81613bb2565b9050919050565b6000602082019050818103600083015261439e81613bf8565b9050919050565b600060208201905081810360008301526143be81613c1b565b9050919050565b600060208201905081810360008301526143de81613c3e565b9050919050565b600060208201905081810360008301526143fe81613c84565b9050919050565b60006101208201905061441b6000830184613ca7565b92915050565b60006020820190506144366000830184613d6d565b92915050565b6000614446614457565b9050614452828261476a565b919050565b6000604051905090565b600067ffffffffffffffff82111561447c5761447b6148d8565b5b602082029050602081019050919050565b600067ffffffffffffffff8211156144a8576144a76148d8565b5b602082029050602081019050919050565b600067ffffffffffffffff8211156144d4576144d36148d8565b5b6144dd82614925565b9050602081019050919050565b600081519050919050565b600081519050919050565b600081905092915050565b600082825260208201905092915050565b600081905092915050565b6000614532826146d5565b915061453d836146d5565b9250827fffffffffffffffffffffffffffffffffffffffffffffffffffffffffffffffff038211156145725761457161481c565b5b828201905092915050565b6000614588826146d5565b9150614593836146d5565b9250826145a3576145a261484b565b5b828204905092915050565b60006145b9826146d5565b91506145c4836146d5565b9250817fffffffffffffffffffffffffffffffffffffffffffffffffffffffffffffffff04831182151516156145fd576145fc61481c565b5b828202905092915050565b6000614613826146d5565b915061461e836146d5565b9250828210156146315761463061481c565b5b828203905092915050565b6000614647826146b5565b9050919050565b6000614659826146b5565b9050919050565b60008115159050919050565b6000819050919050565b60007fffffffff0000000000000000000000000000000000000000000000000000000082169050919050565b60008190506146b082614e7a565b919050565b600073ffffffffffffffffffffffffffffffffffffffff82169050919050565b6000819050919050565b600060ff82169050919050565b60006146f7826146a2565b9050919050565b82818337600083830152505050565b60005b8381101561472b578082015181840152602081019050614710565b8381111561473a576000848401525b50505050565b600061474b826146d5565b9150600082141561475f5761475e61481c565b5b600182039050919050565b61477382614925565b810181811067ffffffffffffffff82111715614792576147916148d8565b5b80604052505050565b60006147a6826146d5565b91507fffffffffffffffffffffffffffffffffffffffffffffffffffffffffffffffff8214156147d9576147d861481c565b5b600182019050919050565b60006147ef82614800565b9050919050565b6000819050919050565b600061480b82614936565b9050919050565b6000819050919050565b7f4e487b7100000000000000000000000000000000000000000000000000000000600052601160045260246000fd5b7f4e487b7100000000000000000000000000000000000000000000000000000000600052601260045260246000fd5b7f4e487b7100000000000000000000000000000000000000000000000000000000600052602160045260246000fd5b7f4e487b7100000000000000000000000000000000000000000000000000000000600052603260045260246000fd5b7f4e487b7100000000000000000000000000000000000000000000000000000000600052604160045260246000fd5b600080fd5b600080fd5b600080fd5b600080fd5b600080fd5b600080fd5b6000601f19601f8301169050919050565b60008160601b9050919050565b7f45434453413a20696e76616c6964207369676e61747572650000000000000000600082015250565b7f537472696e67733a20686578206c656e67746820696e73756666696369656e74600082015250565b7f4e6f7420656e6f75676820746f6b656e7320666f722073616c652e0000000000600082015250565b7f5061757361626c653a206e6f7420706175736564000000000000000000000000600082015250565b7f45434453413a20696e76616c6964207369676e6174757265206c656e67746800600082015250565b7f19457468657265756d205369676e6564204d6573736167653a0a333200000000600082015250565b7f4f6e6c792073656c6c6572206f722061646d696e2063616e20636c6f7365207460008201527f68652074726164652e0000000000000000000000000000000000000000000000602082015250565b7f5472616465206973206e6f74206f70656e2e0000000000000000000000000000600082015250565b7f4f6e6c79206f70656e207472616465732063616e20626520636c6f7365642e00600082015250565b7f45434453413a20696e76616c6964207369676e6174757265202773272076616c60008201527f7565000000000000000000000000000000000000000000000000000000000000602082015250565b7f43757272656e6379206973206e6f7420616c6c6f7765642e0000000000000000600082015250565b7f416c6c6f77616e636520697320746f6f206c6f772e0000000000000000000000600082015250565b7f5061757361626c653a2070617573656400000000000000000000000000000000600082015250565b7f507269636520697320746f6f20686967682e0000000000000000000000000000600082015250565b7f5175616e746974792065786365656473206d6178696d756d2e00000000000000600082015250565b7f546f6b656e20636f6e7472616374206973206e6f7420616c6c6f7765642e0000600082015250565b7f507269636520697320746f6f206c6f772e000000000000000000000000000000600082015250565b7f45434453413a20696e76616c6964207369676e6174757265202776272076616c60008201527f7565000000000000000000000000000000000000000000000000000000000000602082015250565b7f417070726f76616c20657870697265642e000000000000000000000000000000600082015250565b7f53656c6c65722063616e6e6f742062652062757965722e000000000000000000600082015250565b7f417070726f76616c206578686175737465642e00000000000000000000000000600082015250565b7f416363657373436f6e74726f6c3a206163636f756e7420000000000000000000600082015250565b7f4665652063616e6e6f7420626520686967686572207468616e2068756e64726560008201527f642070657263656e742e00000000000000000000000000000000000000000000602082015250565b7f496e76616c6964207369676e61747572652e0000000000000000000000000000600082015250565b7f496e73756666696369656e742062616c616e636520746f20776974686472617760008201527f2e00000000000000000000000000000000000000000000000000000000000000602082015250565b7f206973206d697373696e6720726f6c6520000000000000000000000000000000600082015250565b7f416363657373436f6e74726f6c3a2063616e206f6e6c792072656e6f756e636560008201527f20726f6c657320666f722073656c660000000000000000000000000000000000602082015250565b60038110614e8b57614e8a61487a565b5b50565b614e978161463c565b8114614ea257600080fd5b50565b614eae8161464e565b8114614eb957600080fd5b50565b614ec581614660565b8114614ed057600080fd5b50565b614edc8161466c565b8114614ee757600080fd5b50565b614ef381614676565b8114614efe57600080fd5b50565b614f0a816146d5565b8114614f1557600080fd5b5056fea2646970667358221220140a747c3ac4a96017959aaaa89840ca373b399bfd32948925150473dedf4d2f64736f6c63430008060033",
  "immutableReferences": {},
  "source": "// SPDX-License-Identifier: MIT\r\npragma solidity ^0.8.0;\r\n\r\nimport \"../openzeppelin/contracts/access/AccessControl.sol\";\r\nimport \"../openzeppelin/contracts/token/ERC20/IERC20.sol\";\r\nimport \"../openzeppelin/contracts/utils/cryptography/ECDSA.sol\";\r\nimport \"../openzeppelin/contracts/security/Pausable.sol\";\r\n\r\nimport \"./MarketWalletV1.sol\";\r\nimport \"./HasSecondarySaleFees.sol\";\r\n\r\nenum TradeStatus { Open, Sold, Cancelled }\r\n\r\nstruct Trade {\r\n  uint id;\r\n  address seller;\r\n  address token;\r\n  uint tokenId;\r\n  uint quantity;\r\n  uint available;\r\n  address currency;\r\n  uint price;\r\n  TradeStatus status;\r\n}\r\n\r\ncontract MarketV1 is AccessControl, Pausable {\r\n  using ECDSA for bytes32;\r\n\r\n  bytes internal constant EMPTY = \"\";\r\n\r\n  uint256 public buyerFeePct = 5000;\r\n  uint256 public sellerFeePct = 5000;\r\n  uint256 public hundredPct = 10**5;\r\n\r\n  uint256 public maxTokenPrice = 10**6 * 1 ether;\r\n  uint256 public maxTradeQuantity = 10**6;\r\n  uint256 public minTokenPrice = hundredPct;\r\n\r\n  mapping(bytes => uint[]) public tradeHistory;\r\n\r\n  uint private _tradeId = 0;\r\n\r\n  mapping(uint => Trade) private _trades;\r\n\r\n  // seller => (currency => revenue)\r\n  mapping(address => mapping(address => uint)) internal _earnings;\r\n\r\n  // contract address => isAuthorized\r\n  mapping(address => bool) internal _approvedTokens;\r\n  uint private _approvedTokenCount = 0;\r\n\r\n  // contract address => isAuthorized\r\n  mapping(address => bool) internal _approvedCurrencies;\r\n  uint private _approvedCurrenciesCount = 0;\r\n  \r\n  mapping(bytes32 => bool) private _approvalsExhausted;\r\n\r\n  address internal _feeBeneficiary;\r\n\r\n  MarketWalletV1 internal _wallet;\r\n\r\n  event Sell(\r\n    address seller,\r\n    uint indexed tradeId,\r\n    address indexed tokenContract,\r\n    uint indexed tokenId,\r\n    uint quantity,\r\n    address currency,\r\n    uint price\r\n  );\r\n  \r\n  event Buy(\r\n    uint indexed tradeId,\r\n    address indexed buyer,\r\n    address tokenContract,\r\n    uint tokenId,\r\n    uint quantity\r\n  );\r\n\r\n  event Cancel(\r\n    uint indexed tradeId,\r\n    address operator\r\n  );\r\n  \r\n  bytes32 public constant ADMIN_ROLE = keccak256(\"ADMIN_ROLE\");\r\n\r\n  bytes4 private constant _INTERFACE_ID_FEES = 0xb7799584;\r\n\r\n  constructor(MarketWalletV1 wallet) {\r\n    _setupRole(DEFAULT_ADMIN_ROLE, msg.sender);\r\n    \r\n    _setupRole(ADMIN_ROLE, msg.sender);\r\n    _setRoleAdmin(ADMIN_ROLE, DEFAULT_ADMIN_ROLE);\r\n\r\n    _feeBeneficiary = msg.sender;\r\n    _wallet = wallet;\r\n  }\r\n  \r\n  function supportsInterface(bytes4 interfaceID) override(AccessControl)\r\n    public view returns (bool) {\r\n    return super.supportsInterface(interfaceID);\r\n  }\r\n\r\n  function get(uint tradeId) public view returns (Trade memory) {\r\n    return _trades[tradeId];\r\n  }\r\n\r\n  function buy(uint tradeId, uint quantity) public whenNotPaused {\r\n    Trade memory trade = _trades[tradeId];\r\n\r\n    // Require trade is still open\r\n    require(trade.status == TradeStatus.Open, \"Trade is not open.\");\r\n\r\n    // Check quantity\r\n    require(quantity <= trade.available, \"Not enough tokens for sale.\");\r\n\r\n    // Require buyer to be different from seller\r\n    require(msg.sender != trade.seller, \"Seller cannot be buyer.\");\r\n\r\n    // Calculate prices\r\n    uint subtotal = trade.price * quantity;\r\n\r\n    IERC20 currency = IERC20(trade.currency);\r\n\r\n    (uint sellerFee, uint buyerFee) = calculateMarketFees(subtotal);\r\n\r\n    uint allowance = currency.allowance(msg.sender, address(this));\r\n    require(allowance >= subtotal + buyerFee, \"Allowance is too low.\");\r\n\r\n    // Deposit currency for escrow\r\n    currency.transferFrom(\r\n      msg.sender,\r\n      address(this),\r\n      subtotal + buyerFee\r\n    );\r\n\r\n    uint available = trade.available - quantity;\r\n    _trades[_tradeId].available = available;\r\n\r\n    if (available == 0)\r\n      _trades[_tradeId].status = TradeStatus.Sold;\r\n\r\n    uint sellerNet = payAfterFees(\r\n      subtotal,\r\n      sellerFee,\r\n      buyerFee,\r\n      trade.token,\r\n      trade.tokenId,\r\n      trade.currency\r\n    );\r\n\r\n    pay(trade.currency, trade.seller, sellerNet);\r\n\r\n    _wallet.give(\r\n      trade.token,\r\n      msg.sender,\r\n      trade.tokenId,\r\n      quantity\r\n    );\r\n\r\n    emit Buy(\r\n      trade.id,\r\n      msg.sender,\r\n      trade.token,\r\n      trade.tokenId,\r\n      quantity\r\n    );\r\n  }\r\n\r\n  function pay(address currency, address account, uint amount) internal {\r\n    _earnings[account][currency] += amount;\r\n  }\r\n\r\n  function calculateMarketFees(uint subtotal)\r\n    internal view returns (uint sellerFee, uint buyerFee) {\r\n    buyerFee = (subtotal * buyerFeePct) / hundredPct;\r\n    sellerFee = (subtotal * sellerFeePct) / hundredPct;\r\n  }\r\n\r\n  function payAfterFees(\r\n    uint subtotal,\r\n    uint sellerFee,\r\n    uint buyerFee,\r\n    address token,\r\n    uint tokenId,\r\n    address currency\r\n  ) internal returns (uint sellerPay) {\r\n    if (subtotal > sellerFee)\r\n      subtotal = subtotal - sellerFee;\r\n      sellerPay = subtotal;\r\n    \r\n    // Pay market fees\r\n    pay(currency, _feeBeneficiary, sellerFee + buyerFee);\r\n\r\n    if (!IERC165(token).supportsInterface(_INTERFACE_ID_FEES))\r\n      return sellerPay;\r\n\r\n    HasSecondarySaleFees tokenWithFees = HasSecondarySaleFees(token);\r\n\r\n    address payable[] memory recipients =\r\n      tokenWithFees.getFeeRecipients(tokenId);\r\n\r\n    uint[] memory feeBps = tokenWithFees.getFeeBps(tokenId);\r\n\r\n    for (uint i = 0; i < feeBps.length; i++) {\r\n      if (sellerPay == 0) break;\r\n\r\n      uint fee = (subtotal * feeBps[i]) / hundredPct;\r\n\r\n      if (fee > sellerPay) {\r\n        fee = sellerPay;\r\n        sellerPay = 0;\r\n      } else {\r\n        sellerPay -= fee;\r\n      }\r\n\r\n      pay(currency, recipients[i], fee);\r\n    }\r\n  }\r\n\r\n  function getSaleAuthorizationHash(\r\n    address seller,\r\n    address token,\r\n    uint tokenId,\r\n    uint quantity,\r\n    address currency,\r\n    uint price,\r\n    uint expiry,\r\n    uint salt\r\n  ) public view returns (bytes32) {\r\n    return keccak256(abi.encodePacked(\r\n      address(this),\r\n      seller,\r\n      token,\r\n      tokenId,\r\n      quantity,\r\n      currency,\r\n      price,\r\n      expiry,\r\n      salt\r\n    ));\r\n  }\r\n\r\n  function sell(\r\n    address seller,\r\n    address token,\r\n    uint tokenId,\r\n    uint quantity,\r\n    address currency,\r\n    uint price,\r\n    uint expiry,\r\n    uint salt,\r\n    bytes calldata signature\r\n  ) public whenNotPaused {\r\n    require(price >= minTokenPrice, \"Price is too low.\");\r\n    require(price <= maxTokenPrice, \"Price is too high.\");\r\n    require(quantity <= maxTradeQuantity, \"Quantity exceeds maximum.\");\r\n\r\n    require(_approvedTokens[token], \"Token contract is not allowed.\");\r\n    require(_approvedCurrencies[currency], \"Currency is not allowed.\");\r\n\r\n    if (!hasRole(ADMIN_ROLE, msg.sender)) {\r\n      require(expiry > block.timestamp, \"Approval expired.\");\r\n\r\n      bytes32 saleHash = getSaleAuthorizationHash(\r\n        seller,\r\n        token,\r\n        tokenId,\r\n        quantity,\r\n        currency,\r\n        price,\r\n        expiry,\r\n        salt\r\n      );\r\n\r\n      require(!_approvalsExhausted[saleHash], \"Approval exhausted.\");\r\n      \r\n      address recoveredAddress = saleHash\r\n        .toEthSignedMessageHash()\r\n        .recover(signature);\r\n      \r\n      require(\r\n        recoveredAddress != address(0)\r\n          && hasRole(ADMIN_ROLE, recoveredAddress),\r\n        \"Invalid signature.\"\r\n      );\r\n\r\n      _approvalsExhausted[saleHash] = true;\r\n    }\r\n\r\n    if (!IERC165(token).supportsInterface(type(IERC1155).interfaceId))\r\n      quantity = 1;\r\n\r\n    _wallet.take(\r\n      token,\r\n      seller,\r\n      tokenId,\r\n      quantity\r\n    );\r\n\r\n    // Create trade\r\n    _tradeId++;\r\n\r\n    Trade memory trade = Trade(\r\n      _tradeId,\r\n      seller,\r\n      token,\r\n      tokenId,\r\n      quantity,\r\n      quantity,\r\n      currency,\r\n      price,\r\n      TradeStatus.Open\r\n    );\r\n\r\n    _trades[_tradeId] = trade;\r\n\r\n    tradeHistory[\r\n      abi.encodePacked(\r\n        token,\r\n        tokenId\r\n      )\r\n    ].push(_tradeId);\r\n\r\n    emit Sell(\r\n      seller,\r\n      _tradeId,\r\n      token,\r\n      tokenId,\r\n      quantity,\r\n      currency,\r\n      price\r\n    );\r\n  }\r\n\r\n  function cancel(uint256 tradeId) public {\r\n    Trade memory trade = _trades[tradeId];\r\n    \r\n    require(\r\n      trade.status == TradeStatus.Open,\r\n      \"Only open trades can be closed.\"\r\n    );\r\n\r\n    require(\r\n      msg.sender == trade.seller || hasRole(ADMIN_ROLE, msg.sender),\r\n      \"Only seller or admin can close the trade.\"\r\n    );\r\n    \r\n    // Mark trade as cancelled\r\n    _trades[tradeId].status = TradeStatus.Cancelled;\r\n\r\n    _wallet.give(\r\n      trade.token,\r\n      msg.sender,\r\n      trade.tokenId,\r\n      trade.available\r\n    );\r\n\r\n    emit Cancel(\r\n      tradeId,\r\n      msg.sender\r\n    );\r\n  }\r\n\r\n  function getBalance(address currency, address account) public view returns (uint) {\r\n    return _earnings[account][currency];\r\n  }\r\n\r\n  function withdraw(address currency, uint amount) public {\r\n    require(\r\n      _earnings[msg.sender][currency] >= amount,\r\n      \"Insufficient balance to withdraw.\"\r\n    );\r\n\r\n    _earnings[msg.sender][currency] -= amount;\r\n\r\n    IERC20(currency).transfer(msg.sender, amount);\r\n  }\r\n\r\n  function setFeeBeneficiary(address beneficiary) public onlyRole(DEFAULT_ADMIN_ROLE) {\r\n    _feeBeneficiary = beneficiary;\r\n  }\r\n\r\n  function setTokenApproval(address token, bool isApproved) public onlyRole(ADMIN_ROLE) {\r\n    _approvedTokens[token] = isApproved;\r\n  }\r\n\r\n  function setCurrencyApproval(address currency, bool isApproved) public onlyRole(ADMIN_ROLE) {\r\n    _approvedCurrencies[currency] = isApproved;\r\n  }\r\n  \r\n  function setMaxTokenPriceEther(uint256 price) public onlyRole(ADMIN_ROLE) {\r\n    maxTokenPrice = price * 1 ether;\r\n  }\r\n  \r\n  function setMaxTokenPriceWei(uint256 price) public onlyRole(ADMIN_ROLE) {\r\n    maxTokenPrice = price;\r\n  }\r\n  \r\n  function setMaxTradeQuantity(uint256 quantity) public onlyRole(ADMIN_ROLE) {\r\n    maxTradeQuantity = quantity;\r\n  }\r\n\r\n  function setBuyerFeePct(uint256 pct) public onlyRole(ADMIN_ROLE) {\r\n    require(pct <= hundredPct, \"Fee cannot be higher than hundred percent.\");\r\n    buyerFeePct = pct;\r\n  }\r\n  \r\n  function setSellerFeePct(uint256 pct) public onlyRole(ADMIN_ROLE) {\r\n    require(pct <= hundredPct, \"Fee cannot be higher than hundred percent.\");\r\n    sellerFeePct = pct;\r\n  }\r\n  \r\n  function pause() public onlyRole(ADMIN_ROLE) {\r\n    super._pause();\r\n  }\r\n\r\n  function resume() public onlyRole(ADMIN_ROLE) {\r\n    super._unpause();\r\n  }\r\n}\r\n",
  "sourcePath": "C:\\Users\\Husnain\\Documents\\Projects\\Fanbase\\New\\fanbase\\packages\\ethereum\\contracts\\solidity\\collectibles\\MarketV1.sol",
  "compiler": {
    "name": "solc",
    "version": "0.8.6+commit.11564f7e.Emscripten.clang"
  },
  "schemaVersion": "3.4.1",
  "updatedAt": "2021-06-24T19:55:54.983Z",
  "devdoc": {
    "kind": "dev",
    "methods": {
      "getRoleAdmin(bytes32)": {
        "details": "Returns the admin role that controls `role`. See {grantRole} and {revokeRole}. To change a role's admin, use {_setRoleAdmin}."
      },
      "grantRole(bytes32,address)": {
        "details": "Grants `role` to `account`. If `account` had not been already granted `role`, emits a {RoleGranted} event. Requirements: - the caller must have ``role``'s admin role."
      },
      "hasRole(bytes32,address)": {
        "details": "Returns `true` if `account` has been granted `role`."
      },
      "paused()": {
        "details": "Returns true if the contract is paused, and false otherwise."
      },
      "renounceRole(bytes32,address)": {
        "details": "Revokes `role` from the calling account. Roles are often managed via {grantRole} and {revokeRole}: this function's purpose is to provide a mechanism for accounts to lose their privileges if they are compromised (such as when a trusted device is misplaced). If the calling account had been granted `role`, emits a {RoleRevoked} event. Requirements: - the caller must be `account`."
      },
      "revokeRole(bytes32,address)": {
        "details": "Revokes `role` from `account`. If `account` had been granted `role`, emits a {RoleRevoked} event. Requirements: - the caller must have ``role``'s admin role."
      }
    },
    "version": 1
  },
  "userdoc": {
    "kind": "user",
    "methods": {},
    "version": 1
  }
}