{
  "contractName": "MarketV1",
  "abi": [
    {
      "inputs": [
        {
          "internalType": "contract MarketWalletV1",
          "name": "wallet",
          "type": "address"
        }
      ],
      "stateMutability": "nonpayable",
      "type": "constructor"
    },
    {
      "anonymous": false,
      "inputs": [
        {
          "indexed": false,
          "internalType": "uint256",
          "name": "tradeId",
          "type": "uint256"
        },
        {
          "indexed": false,
          "internalType": "address",
          "name": "buyer",
          "type": "address"
        },
        {
          "indexed": false,
          "internalType": "uint256",
          "name": "quantity",
          "type": "uint256"
        }
      ],
      "name": "Buy",
      "type": "event"
    },
    {
      "anonymous": false,
      "inputs": [
        {
          "indexed": false,
          "internalType": "address",
          "name": "operator",
          "type": "address"
        },
        {
          "indexed": false,
          "internalType": "uint256",
          "name": "tradeId",
          "type": "uint256"
        },
        {
          "indexed": false,
          "internalType": "address",
          "name": "tokenContract",
          "type": "address"
        },
        {
          "indexed": false,
          "internalType": "uint256",
          "name": "tokenId",
          "type": "uint256"
        },
        {
          "indexed": false,
          "internalType": "uint256",
          "name": "returned",
          "type": "uint256"
        }
      ],
      "name": "CancelListing",
      "type": "event"
    },
    {
      "anonymous": false,
      "inputs": [
        {
          "indexed": false,
          "internalType": "uint256",
          "name": "tradeId",
          "type": "uint256"
        },
        {
          "indexed": false,
          "internalType": "address",
          "name": "seller",
          "type": "address"
        },
        {
          "indexed": false,
          "internalType": "address",
          "name": "tokenContract",
          "type": "address"
        },
        {
          "indexed": false,
          "internalType": "uint256",
          "name": "tokenId",
          "type": "uint256"
        },
        {
          "indexed": false,
          "internalType": "uint256",
          "name": "quantity",
          "type": "uint256"
        },
        {
          "indexed": false,
          "internalType": "address",
          "name": "currency",
          "type": "address"
        },
        {
          "indexed": false,
          "internalType": "uint256",
          "name": "price",
          "type": "uint256"
        }
      ],
      "name": "ListForSale",
      "type": "event"
    },
    {
      "anonymous": false,
      "inputs": [
        {
          "indexed": false,
          "internalType": "address",
          "name": "account",
          "type": "address"
        }
      ],
      "name": "Paused",
      "type": "event"
    },
    {
      "anonymous": false,
      "inputs": [
        {
          "indexed": true,
          "internalType": "bytes32",
          "name": "role",
          "type": "bytes32"
        },
        {
          "indexed": true,
          "internalType": "bytes32",
          "name": "previousAdminRole",
          "type": "bytes32"
        },
        {
          "indexed": true,
          "internalType": "bytes32",
          "name": "newAdminRole",
          "type": "bytes32"
        }
      ],
      "name": "RoleAdminChanged",
      "type": "event"
    },
    {
      "anonymous": false,
      "inputs": [
        {
          "indexed": true,
          "internalType": "bytes32",
          "name": "role",
          "type": "bytes32"
        },
        {
          "indexed": true,
          "internalType": "address",
          "name": "account",
          "type": "address"
        },
        {
          "indexed": true,
          "internalType": "address",
          "name": "sender",
          "type": "address"
        }
      ],
      "name": "RoleGranted",
      "type": "event"
    },
    {
      "anonymous": false,
      "inputs": [
        {
          "indexed": true,
          "internalType": "bytes32",
          "name": "role",
          "type": "bytes32"
        },
        {
          "indexed": true,
          "internalType": "address",
          "name": "account",
          "type": "address"
        },
        {
          "indexed": true,
          "internalType": "address",
          "name": "sender",
          "type": "address"
        }
      ],
      "name": "RoleRevoked",
      "type": "event"
    },
    {
      "anonymous": false,
      "inputs": [
        {
          "indexed": false,
          "internalType": "address",
          "name": "token",
          "type": "address"
        },
        {
          "indexed": false,
          "internalType": "uint256",
          "name": "tokenId",
          "type": "uint256"
        },
        {
          "indexed": false,
          "internalType": "address",
          "name": "beneficiary",
          "type": "address"
        },
        {
          "indexed": false,
          "internalType": "address",
          "name": "currency",
          "type": "address"
        },
        {
          "indexed": false,
          "internalType": "uint256",
          "name": "amount",
          "type": "uint256"
        }
      ],
      "name": "RoyaltyPayment",
      "type": "event"
    },
    {
      "anonymous": false,
      "inputs": [
        {
          "indexed": false,
          "internalType": "uint256",
          "name": "tradeId",
          "type": "uint256"
        }
      ],
      "name": "Sell",
      "type": "event"
    },
    {
      "anonymous": false,
      "inputs": [
        {
          "indexed": false,
          "internalType": "address",
          "name": "account",
          "type": "address"
        }
      ],
      "name": "Unpaused",
      "type": "event"
    },
    {
      "inputs": [],
      "name": "ADMIN_ROLE",
      "outputs": [
        {
          "internalType": "bytes32",
          "name": "",
          "type": "bytes32"
        }
      ],
      "stateMutability": "view",
      "type": "function"
    },
    {
      "inputs": [],
      "name": "DEFAULT_ADMIN_ROLE",
      "outputs": [
        {
          "internalType": "bytes32",
          "name": "",
          "type": "bytes32"
        }
      ],
      "stateMutability": "view",
      "type": "function"
    },
    {
      "inputs": [],
      "name": "buyerFeePct",
      "outputs": [
        {
          "internalType": "uint256",
          "name": "",
          "type": "uint256"
        }
      ],
      "stateMutability": "view",
      "type": "function"
    },
    {
      "inputs": [
        {
          "internalType": "bytes32",
          "name": "role",
          "type": "bytes32"
        }
      ],
      "name": "getRoleAdmin",
      "outputs": [
        {
          "internalType": "bytes32",
          "name": "",
          "type": "bytes32"
        }
      ],
      "stateMutability": "view",
      "type": "function"
    },
    {
      "inputs": [
        {
          "internalType": "bytes32",
          "name": "role",
          "type": "bytes32"
        },
        {
          "internalType": "address",
          "name": "account",
          "type": "address"
        }
      ],
      "name": "grantRole",
      "outputs": [],
      "stateMutability": "nonpayable",
      "type": "function"
    },
    {
      "inputs": [
        {
          "internalType": "bytes32",
          "name": "role",
          "type": "bytes32"
        },
        {
          "internalType": "address",
          "name": "account",
          "type": "address"
        }
      ],
      "name": "hasRole",
      "outputs": [
        {
          "internalType": "bool",
          "name": "",
          "type": "bool"
        }
      ],
      "stateMutability": "view",
      "type": "function"
    },
    {
      "inputs": [],
      "name": "hundredPct",
      "outputs": [
        {
          "internalType": "uint256",
          "name": "",
          "type": "uint256"
        }
      ],
      "stateMutability": "view",
      "type": "function"
    },
    {
      "inputs": [],
      "name": "maxTokenPrice",
      "outputs": [
        {
          "internalType": "uint256",
          "name": "",
          "type": "uint256"
        }
      ],
      "stateMutability": "view",
      "type": "function"
    },
    {
      "inputs": [],
      "name": "maxTradeQuantity",
      "outputs": [
        {
          "internalType": "uint256",
          "name": "",
          "type": "uint256"
        }
      ],
      "stateMutability": "view",
      "type": "function"
    },
    {
      "inputs": [],
      "name": "minTokenPrice",
      "outputs": [
        {
          "internalType": "uint256",
          "name": "",
          "type": "uint256"
        }
      ],
      "stateMutability": "view",
      "type": "function"
    },
    {
      "inputs": [],
      "name": "paused",
      "outputs": [
        {
          "internalType": "bool",
          "name": "",
          "type": "bool"
        }
      ],
      "stateMutability": "view",
      "type": "function"
    },
    {
      "inputs": [
        {
          "internalType": "bytes32",
          "name": "role",
          "type": "bytes32"
        },
        {
          "internalType": "address",
          "name": "account",
          "type": "address"
        }
      ],
      "name": "renounceRole",
      "outputs": [],
      "stateMutability": "nonpayable",
      "type": "function"
    },
    {
      "inputs": [
        {
          "internalType": "bytes32",
          "name": "role",
          "type": "bytes32"
        },
        {
          "internalType": "address",
          "name": "account",
          "type": "address"
        }
      ],
      "name": "revokeRole",
      "outputs": [],
      "stateMutability": "nonpayable",
      "type": "function"
    },
    {
      "inputs": [],
      "name": "sellerFeePct",
      "outputs": [
        {
          "internalType": "uint256",
          "name": "",
          "type": "uint256"
        }
      ],
      "stateMutability": "view",
      "type": "function"
    },
    {
      "inputs": [
        {
          "internalType": "bytes4",
          "name": "interfaceID",
          "type": "bytes4"
        }
      ],
      "name": "supportsInterface",
      "outputs": [
        {
          "internalType": "bool",
          "name": "",
          "type": "bool"
        }
      ],
      "stateMutability": "view",
      "type": "function"
    },
    {
      "inputs": [
        {
          "internalType": "uint256",
          "name": "tradeId",
          "type": "uint256"
        }
      ],
      "name": "get",
      "outputs": [
        {
          "components": [
            {
              "internalType": "uint256",
              "name": "id",
              "type": "uint256"
            },
            {
              "internalType": "address",
              "name": "seller",
              "type": "address"
            },
            {
              "internalType": "address",
              "name": "token",
              "type": "address"
            },
            {
              "internalType": "uint256",
              "name": "tokenId",
              "type": "uint256"
            },
            {
              "internalType": "uint256",
              "name": "quantity",
              "type": "uint256"
            },
            {
              "internalType": "uint256",
              "name": "available",
              "type": "uint256"
            },
            {
              "internalType": "address",
              "name": "currency",
              "type": "address"
            },
            {
              "internalType": "uint256",
              "name": "price",
              "type": "uint256"
            },
            {
              "internalType": "enum TradeStatus",
              "name": "status",
              "type": "uint8"
            }
          ],
          "internalType": "struct Trade",
          "name": "",
          "type": "tuple"
        }
      ],
      "stateMutability": "view",
      "type": "function"
    },
    {
      "inputs": [
        {
          "internalType": "uint256",
          "name": "tradeId",
          "type": "uint256"
        },
        {
          "internalType": "uint256",
          "name": "quantity",
          "type": "uint256"
        }
      ],
      "name": "buy",
      "outputs": [],
      "stateMutability": "nonpayable",
      "type": "function"
    },
    {
      "inputs": [
        {
          "internalType": "address",
          "name": "seller",
          "type": "address"
        },
        {
          "internalType": "address",
          "name": "token",
          "type": "address"
        },
        {
          "internalType": "uint256",
          "name": "tokenId",
          "type": "uint256"
        },
        {
          "internalType": "uint256",
          "name": "quantity",
          "type": "uint256"
        },
        {
          "internalType": "address",
          "name": "currency",
          "type": "address"
        },
        {
          "internalType": "uint256",
          "name": "price",
          "type": "uint256"
        },
        {
          "internalType": "uint256",
          "name": "expiry",
          "type": "uint256"
        },
        {
          "internalType": "uint256",
          "name": "salt",
          "type": "uint256"
        }
      ],
      "name": "getSaleAuthorizationHash",
      "outputs": [
        {
          "internalType": "bytes32",
          "name": "",
          "type": "bytes32"
        }
      ],
      "stateMutability": "view",
      "type": "function"
    },
    {
      "inputs": [
        {
          "internalType": "address",
          "name": "seller",
          "type": "address"
        },
        {
          "internalType": "address",
          "name": "token",
          "type": "address"
        },
        {
          "internalType": "uint256",
          "name": "tokenId",
          "type": "uint256"
        },
        {
          "internalType": "uint256",
          "name": "quantity",
          "type": "uint256"
        },
        {
          "internalType": "address",
          "name": "currency",
          "type": "address"
        },
        {
          "internalType": "uint256",
          "name": "price",
          "type": "uint256"
        },
        {
          "internalType": "uint256",
          "name": "expiry",
          "type": "uint256"
        },
        {
          "internalType": "uint256",
          "name": "salt",
          "type": "uint256"
        },
        {
          "internalType": "bytes",
          "name": "signature",
          "type": "bytes"
        }
      ],
      "name": "listForSale",
      "outputs": [],
      "stateMutability": "nonpayable",
      "type": "function"
    },
    {
      "inputs": [
        {
          "internalType": "uint256",
          "name": "tradeId",
          "type": "uint256"
        }
      ],
      "name": "cancel",
      "outputs": [],
      "stateMutability": "nonpayable",
      "type": "function"
    },
    {
      "inputs": [
        {
          "internalType": "address",
          "name": "currency",
          "type": "address"
        },
        {
          "internalType": "address",
          "name": "account",
          "type": "address"
        }
      ],
      "name": "getBalance",
      "outputs": [
        {
          "internalType": "uint256",
          "name": "",
          "type": "uint256"
        }
      ],
      "stateMutability": "view",
      "type": "function"
    },
    {
      "inputs": [
        {
          "internalType": "address",
          "name": "currency",
          "type": "address"
        },
        {
          "internalType": "uint256",
          "name": "amount",
          "type": "uint256"
        }
      ],
      "name": "withdraw",
      "outputs": [],
      "stateMutability": "nonpayable",
      "type": "function"
    },
    {
      "inputs": [
        {
          "internalType": "address",
          "name": "token",
          "type": "address"
        }
      ],
      "name": "isTokenApproved",
      "outputs": [
        {
          "internalType": "bool",
          "name": "",
          "type": "bool"
        }
      ],
      "stateMutability": "view",
      "type": "function"
    },
    {
      "inputs": [
        {
          "internalType": "address",
          "name": "currency",
          "type": "address"
        }
      ],
      "name": "isCurrencyApproved",
      "outputs": [
        {
          "internalType": "bool",
          "name": "",
          "type": "bool"
        }
      ],
      "stateMutability": "view",
      "type": "function"
    },
    {
      "inputs": [
        {
          "internalType": "address",
          "name": "token",
          "type": "address"
        },
        {
          "internalType": "bool",
          "name": "isApproved",
          "type": "bool"
        }
      ],
      "name": "setTokenApproval",
      "outputs": [],
      "stateMutability": "nonpayable",
      "type": "function"
    },
    {
      "inputs": [
        {
          "internalType": "address",
          "name": "currency",
          "type": "address"
        },
        {
          "internalType": "bool",
          "name": "isApproved",
          "type": "bool"
        }
      ],
      "name": "setCurrencyApproval",
      "outputs": [],
      "stateMutability": "nonpayable",
      "type": "function"
    },
    {
      "inputs": [
        {
          "internalType": "uint256",
          "name": "price",
          "type": "uint256"
        }
      ],
      "name": "setMaxTokenPriceEther",
      "outputs": [],
      "stateMutability": "nonpayable",
      "type": "function"
    },
    {
      "inputs": [
        {
          "internalType": "uint256",
          "name": "price",
          "type": "uint256"
        }
      ],
      "name": "setMaxTokenPriceWei",
      "outputs": [],
      "stateMutability": "nonpayable",
      "type": "function"
    },
    {
      "inputs": [
        {
          "internalType": "uint256",
          "name": "quantity",
          "type": "uint256"
        }
      ],
      "name": "setMaxTradeQuantity",
      "outputs": [],
      "stateMutability": "nonpayable",
      "type": "function"
    },
    {
      "inputs": [
        {
          "internalType": "uint256",
          "name": "pct",
          "type": "uint256"
        }
      ],
      "name": "setBuyerFeePct",
      "outputs": [],
      "stateMutability": "nonpayable",
      "type": "function"
    },
    {
      "inputs": [
        {
          "internalType": "uint256",
          "name": "pct",
          "type": "uint256"
        }
      ],
      "name": "setSellerFeePct",
      "outputs": [],
      "stateMutability": "nonpayable",
      "type": "function"
    },
    {
      "inputs": [
        {
          "internalType": "address",
          "name": "beneficiary",
          "type": "address"
        }
      ],
      "name": "setFeeBeneficiary",
      "outputs": [],
      "stateMutability": "nonpayable",
      "type": "function"
    },
    {
      "inputs": [],
      "name": "pause",
      "outputs": [],
      "stateMutability": "nonpayable",
      "type": "function"
    },
    {
      "inputs": [],
      "name": "resume",
      "outputs": [],
      "stateMutability": "nonpayable",
      "type": "function"
    }
  ],
  "bytecode": "0x6080604052611388600255611388600355620186a060045569d3c21bcecceda1000000600555620f424060065560045460075560006008556000600c556000600e553480156200004e57600080fd5b506040516200559a3803806200559a8339818101604052810190620000749190620003a6565b6000600160006101000a81548160ff021916908315150217905550620000a46000801b336200019460201b60201c565b620000d67fa49807205ce4d355092ef5a8a18f56e8913cf4a201fbe287825b095693c21775336200019460201b60201c565b6200010b7fa49807205ce4d355092ef5a8a18f56e8913cf4a201fbe287825b095693c217756000801b620001aa60201b60201c565b33601060006101000a81548173ffffffffffffffffffffffffffffffffffffffff021916908373ffffffffffffffffffffffffffffffffffffffff16021790555080601160006101000a81548173ffffffffffffffffffffffffffffffffffffffff021916908373ffffffffffffffffffffffffffffffffffffffff160217905550506200043f565b620001a682826200020d60201b60201c565b5050565b6000620001bd83620002fe60201b60201c565b905081600080858152602001908152602001600020600101819055508181847fbd79b86ffe0ab8e8776151514217cd7cacd52c909f66475c3af44e129f0b00ff60405160405180910390a4505050565b6200021f82826200031d60201b60201c565b620002fa57600160008084815260200190815260200160002060000160008373ffffffffffffffffffffffffffffffffffffffff1673ffffffffffffffffffffffffffffffffffffffff16815260200190815260200160002060006101000a81548160ff0219169083151502179055506200029f6200038760201b60201c565b73ffffffffffffffffffffffffffffffffffffffff168173ffffffffffffffffffffffffffffffffffffffff16837f2f8788117e7eff1d82e926ec794901d17c78024a50270940304540a733656f0d60405160405180910390a45b5050565b6000806000838152602001908152602001600020600101549050919050565b600080600084815260200190815260200160002060000160008373ffffffffffffffffffffffffffffffffffffffff1673ffffffffffffffffffffffffffffffffffffffff16815260200190815260200160002060009054906101000a900460ff16905092915050565b600033905090565b600081519050620003a08162000425565b92915050565b600060208284031215620003bf57620003be62000420565b5b6000620003cf848285016200038f565b91505092915050565b6000620003e58262000400565b9050919050565b6000620003f982620003d8565b9050919050565b600073ffffffffffffffffffffffffffffffffffffffff82169050919050565b600080fd5b6200043081620003ec565b81146200043c57600080fd5b50565b61514b806200044f6000396000f3fe608060405234801561001057600080fd5b50600436106102065760003560e01c80638662732e1161011a578063c661b89d116100ad578063d6febde81161007c578063d6febde8146105c5578063e45ad64a146105e1578063e6a50100146105fd578063f3fef3a314610619578063fd1fc13e1461063557610206565b8063c661b89d1461053f578063d428dc2b1461055b578063d4fac45d14610579578063d547741f146105a957610206565b80639d93d352116100e95780639d93d352146104b9578063a217fddf146104e9578063b8358a6114610507578063bca998191461052357610206565b80638662732e1461040b5780638ce5ab6a1461043b57806391d14854146104595780639507d39a1461048957610206565b806340e58ee51161019d578063670436f11161016c578063670436f11461038b57806375b238fc146103a757806377e5c4a8146103c55780638456cb59146103e357806385d561ae146103ed57610206565b806340e58ee5146103175780635a0a3d82146103335780635c975abb1461034f5780635dabb20e1461036d57610206565b8063248a9ca3116101d9578063248a9ca3146102915780632b483c03146102c15780632f2ff15d146102df57806336568abe146102fb57610206565b806301ffc9a71461020b578063046f7da21461023b5780630d7b1acc1461024557806314d91c8414610275575b600080fd5b610225600480360381019061022091906138c3565b610651565b60405161023291906141c9565b60405180910390f35b610243610663565b005b61025f600480360381019061025a9190613509565b6106a0565b60405161026c91906141c9565b60405180910390f35b61028f600480360381019061028a9190613717565b6106f6565b005b6102ab60048036038101906102a69190613856565b610784565b6040516102b891906141e4565b60405180910390f35b6102c96107a3565b6040516102d6919061459d565b60405180910390f35b6102f960048036038101906102f49190613883565b6107a9565b005b61031560048036038101906103109190613883565b6107d2565b005b610331600480360381019061032c91906138f0565b610855565b005b61034d60048036038101906103489190613509565b610c27565b005b610357610c81565b60405161036491906141c9565b60405180910390f35b610375610c98565b604051610382919061459d565b60405180910390f35b6103a560048036038101906103a09190613717565b610c9e565b005b6103af610d2c565b6040516103bc91906141e4565b60405180910390f35b6103cd610d50565b6040516103da919061459d565b60405180910390f35b6103eb610d56565b005b6103f5610d93565b604051610402919061459d565b60405180910390f35b61042560048036038101906104209190613576565b610d99565b60405161043291906141e4565b60405180910390f35b610443610de0565b604051610450919061459d565b60405180910390f35b610473600480360381019061046e9190613883565b610de6565b60405161048091906141c9565b60405180910390f35b6104a3600480360381019061049e91906138f0565b610e50565b6040516104b09190614581565b60405180910390f35b6104d360048036038101906104ce9190613509565b610fed565b6040516104e091906141c9565b60405180910390f35b6104f1611043565b6040516104fe91906141e4565b60405180910390f35b610521600480360381019061051c919061362c565b61104a565b005b61053d600480360381019061053891906138f0565b61182d565b005b610559600480360381019061055491906138f0565b61187d565b005b6105636118ff565b604051610570919061459d565b60405180910390f35b610593600480360381019061058e9190613536565b611905565b6040516105a0919061459d565b60405180910390f35b6105c360048036038101906105be9190613883565b61198c565b005b6105df60048036038101906105da919061394a565b6119b5565b005b6105fb60048036038101906105f691906138f0565b612021565b005b610617600480360381019061061291906138f0565b6120a3565b005b610633600480360381019061062e9190613757565b6120e0565b005b61064f600480360381019061064a91906138f0565b6122c4565b005b600061065c82612301565b9050919050565b7fa49807205ce4d355092ef5a8a18f56e8913cf4a201fbe287825b095693c217756106958161069061237b565b612383565b61069d612420565b50565b6000600d60008373ffffffffffffffffffffffffffffffffffffffff1673ffffffffffffffffffffffffffffffffffffffff16815260200190815260200160002060009054906101000a900460ff169050919050565b7fa49807205ce4d355092ef5a8a18f56e8913cf4a201fbe287825b095693c217756107288161072361237b565b612383565b81600b60008573ffffffffffffffffffffffffffffffffffffffff1673ffffffffffffffffffffffffffffffffffffffff16815260200190815260200160002060006101000a81548160ff021916908315150217905550505050565b6000806000838152602001908152602001600020600101549050919050565b60035481565b6107b282610784565b6107c3816107be61237b565b612383565b6107cd83836124c2565b505050565b6107da61237b565b73ffffffffffffffffffffffffffffffffffffffff168173ffffffffffffffffffffffffffffffffffffffff1614610847576040517f08c379a000000000000000000000000000000000000000000000000000000000815260040161083e90614561565b60405180910390fd5b61085182826125a2565b5050565b60006009600083815260200190815260200160002060405180610120016040529081600082015481526020016001820160009054906101000a900473ffffffffffffffffffffffffffffffffffffffff1673ffffffffffffffffffffffffffffffffffffffff1673ffffffffffffffffffffffffffffffffffffffff1681526020016002820160009054906101000a900473ffffffffffffffffffffffffffffffffffffffff1673ffffffffffffffffffffffffffffffffffffffff1673ffffffffffffffffffffffffffffffffffffffff1681526020016003820154815260200160048201548152602001600582015481526020016006820160009054906101000a900473ffffffffffffffffffffffffffffffffffffffff1673ffffffffffffffffffffffffffffffffffffffff1673ffffffffffffffffffffffffffffffffffffffff168152602001600782015481526020016008820160009054906101000a900460ff1660028111156109cf576109ce614a7c565b5b60028111156109e1576109e0614a7c565b5b815250509050600060028111156109fb576109fa614a7c565b5b8161010001516002811115610a1357610a12614a7c565b5b14610a53576040517f08c379a0000000000000000000000000000000000000000000000000000000008152600401610a4a90614361565b60405180910390fd5b806020015173ffffffffffffffffffffffffffffffffffffffff163373ffffffffffffffffffffffffffffffffffffffff161480610ab75750610ab67fa49807205ce4d355092ef5a8a18f56e8913cf4a201fbe287825b095693c2177533610de6565b5b610af6576040517f08c379a0000000000000000000000000000000000000000000000000000000008152600401610aed90614321565b60405180910390fd5b60026009600084815260200190815260200160002060080160006101000a81548160ff02191690836002811115610b3057610b2f614a7c565b5b0217905550601160009054906101000a900473ffffffffffffffffffffffffffffffffffffffff1673ffffffffffffffffffffffffffffffffffffffff16632ed7bae88260400151836020015184606001518560a001516040518563ffffffff1660e01b8152600401610ba694939291906140b5565b600060405180830381600087803b158015610bc057600080fd5b505af1158015610bd4573d6000803e3d6000fd5b505050507fc601fcdba72395d2bf26895fdc068bb88a1ff514bafce37723be90787ed0a4803383836040015184606001518560a00151604051610c1b959493929190614176565b60405180910390a15050565b6000801b610c3c81610c3761237b565b612383565b81601060006101000a81548173ffffffffffffffffffffffffffffffffffffffff021916908373ffffffffffffffffffffffffffffffffffffffff1602179055505050565b6000600160009054906101000a900460ff16905090565b60075481565b7fa49807205ce4d355092ef5a8a18f56e8913cf4a201fbe287825b095693c21775610cd081610ccb61237b565b612383565b81600d60008573ffffffffffffffffffffffffffffffffffffffff1673ffffffffffffffffffffffffffffffffffffffff16815260200190815260200160002060006101000a81548160ff021916908315150217905550505050565b7fa49807205ce4d355092ef5a8a18f56e8913cf4a201fbe287825b095693c2177581565b60055481565b7fa49807205ce4d355092ef5a8a18f56e8913cf4a201fbe287825b095693c21775610d8881610d8361237b565b612383565b610d90612683565b50565b60065481565b6000308989898989898989604051602001610dbc99989796959493929190613f37565b60405160208183030381529060405280519060200120905098975050505050505050565b60025481565b600080600084815260200190815260200160002060000160008373ffffffffffffffffffffffffffffffffffffffff1673ffffffffffffffffffffffffffffffffffffffff16815260200190815260200160002060009054906101000a900460ff16905092915050565b610e5861322f565b6009600083815260200190815260200160002060405180610120016040529081600082015481526020016001820160009054906101000a900473ffffffffffffffffffffffffffffffffffffffff1673ffffffffffffffffffffffffffffffffffffffff1673ffffffffffffffffffffffffffffffffffffffff1681526020016002820160009054906101000a900473ffffffffffffffffffffffffffffffffffffffff1673ffffffffffffffffffffffffffffffffffffffff1673ffffffffffffffffffffffffffffffffffffffff1681526020016003820154815260200160048201548152602001600582015481526020016006820160009054906101000a900473ffffffffffffffffffffffffffffffffffffffff1673ffffffffffffffffffffffffffffffffffffffff1673ffffffffffffffffffffffffffffffffffffffff168152602001600782015481526020016008820160009054906101000a900460ff166002811115610fd057610fcf614a7c565b5b6002811115610fe257610fe1614a7c565b5b815250509050919050565b6000600b60008373ffffffffffffffffffffffffffffffffffffffff1673ffffffffffffffffffffffffffffffffffffffff16815260200190815260200160002060009054906101000a900460ff169050919050565b6000801b81565b611052610c81565b15611092576040517f08c379a0000000000000000000000000000000000000000000000000000000008152600401611089906143e1565b60405180910390fd5b6007548510156110d7576040517f08c379a00000000000000000000000000000000000000000000000000000000081526004016110ce90614461565b60405180910390fd5b60055485111561111c576040517f08c379a000000000000000000000000000000000000000000000000000000000815260040161111390614401565b60405180910390fd5b600654871115611161576040517f08c379a000000000000000000000000000000000000000000000000000000000815260040161115890614421565b60405180910390fd5b600b60008a73ffffffffffffffffffffffffffffffffffffffff1673ffffffffffffffffffffffffffffffffffffffff16815260200190815260200160002060009054906101000a900460ff166111ed576040517f08c379a00000000000000000000000000000000000000000000000000000000081526004016111e490614441565b60405180910390fd5b600d60008773ffffffffffffffffffffffffffffffffffffffff1673ffffffffffffffffffffffffffffffffffffffff16815260200190815260200160002060009054906101000a900460ff16611279576040517f08c379a0000000000000000000000000000000000000000000000000000000008152600401611270906143a1565b60405180910390fd5b6112a37fa49807205ce4d355092ef5a8a18f56e8913cf4a201fbe287825b095693c2177533610de6565b611492574284116112e9576040517f08c379a00000000000000000000000000000000000000000000000000000000081526004016112e0906144a1565b60405180910390fd5b60006112fb8b8b8b8b8b8b8b8b610d99565b9050600f600082815260200190815260200160002060009054906101000a900460ff161561135e576040517f08c379a0000000000000000000000000000000000000000000000000000000008152600401611355906144e1565b60405180910390fd5b60006113bf84848080601f016020809104026020016040519081016040528093929190818152602001838380828437600081840152601f19601f820116905080830192505050505050506113b184612725565b61275590919063ffffffff16565b9050600073ffffffffffffffffffffffffffffffffffffffff168173ffffffffffffffffffffffffffffffffffffffff161415801561142457506114237fa49807205ce4d355092ef5a8a18f56e8913cf4a201fbe287825b095693c2177582610de6565b5b611463576040517f08c379a000000000000000000000000000000000000000000000000000000000815260040161145a90614521565b60405180910390fd5b6001600f600084815260200190815260200160002060006101000a81548160ff02191690831515021790555050505b8873ffffffffffffffffffffffffffffffffffffffff166301ffc9a77fd9b67a26000000000000000000000000000000000000000000000000000000006040518263ffffffff1660e01b81526004016114eb9190614244565b60206040518083038186803b15801561150357600080fd5b505afa158015611517573d6000803e3d6000fd5b505050506040513d601f19601f8201168201806040525081019061153b9190613829565b61154457600196505b601160009054906101000a900473ffffffffffffffffffffffffffffffffffffffff1673ffffffffffffffffffffffffffffffffffffffff166340fd58298a8c8b8b6040518563ffffffff1660e01b81526004016115a594939291906140b5565b600060405180830381600087803b1580156115bf57600080fd5b505af11580156115d3573d6000803e3d6000fd5b50505050600860008154809291906115ea9061499d565b9190505550600060405180610120016040528060085481526020018c73ffffffffffffffffffffffffffffffffffffffff1681526020018b73ffffffffffffffffffffffffffffffffffffffff1681526020018a81526020018981526020018981526020018873ffffffffffffffffffffffffffffffffffffffff1681526020018781526020016000600281111561168557611684614a7c565b5b8152509050806009600060085481526020019081526020016000206000820151816000015560208201518160010160006101000a81548173ffffffffffffffffffffffffffffffffffffffff021916908373ffffffffffffffffffffffffffffffffffffffff16021790555060408201518160020160006101000a81548173ffffffffffffffffffffffffffffffffffffffff021916908373ffffffffffffffffffffffffffffffffffffffff160217905550606082015181600301556080820151816004015560a0820151816005015560c08201518160060160006101000a81548173ffffffffffffffffffffffffffffffffffffffff021916908373ffffffffffffffffffffffffffffffffffffffff16021790555060e082015181600701556101008201518160080160006101000a81548160ff021916908360028111156117d3576117d2614a7c565b5b02179055509050507f8c043961a2a3de4608ff0a3647fa6bdef2510bbf7ea923cd9b68bd43de4040e46008548c8c8c8c8c8c60405161181897969594939291906145b8565b60405180910390a15050505050505050505050565b7fa49807205ce4d355092ef5a8a18f56e8913cf4a201fbe287825b095693c2177561185f8161185a61237b565b612383565b670de0b6b3a7640000826118739190614789565b6005819055505050565b7fa49807205ce4d355092ef5a8a18f56e8913cf4a201fbe287825b095693c217756118af816118aa61237b565b612383565b6004548211156118f4576040517f08c379a00000000000000000000000000000000000000000000000000000000081526004016118eb90614501565b60405180910390fd5b816003819055505050565b60045481565b6000600a60008373ffffffffffffffffffffffffffffffffffffffff1673ffffffffffffffffffffffffffffffffffffffff16815260200190815260200160002060008473ffffffffffffffffffffffffffffffffffffffff1673ffffffffffffffffffffffffffffffffffffffff16815260200190815260200160002054905092915050565b61199582610784565b6119a6816119a161237b565b612383565b6119b083836125a2565b505050565b6119bd610c81565b156119fd576040517f08c379a00000000000000000000000000000000000000000000000000000000081526004016119f4906143e1565b60405180910390fd5b60006009600084815260200190815260200160002060405180610120016040529081600082015481526020016001820160009054906101000a900473ffffffffffffffffffffffffffffffffffffffff1673ffffffffffffffffffffffffffffffffffffffff1673ffffffffffffffffffffffffffffffffffffffff1681526020016002820160009054906101000a900473ffffffffffffffffffffffffffffffffffffffff1673ffffffffffffffffffffffffffffffffffffffff1673ffffffffffffffffffffffffffffffffffffffff1681526020016003820154815260200160048201548152602001600582015481526020016006820160009054906101000a900473ffffffffffffffffffffffffffffffffffffffff1673ffffffffffffffffffffffffffffffffffffffff1673ffffffffffffffffffffffffffffffffffffffff168152602001600782015481526020016008820160009054906101000a900460ff166002811115611b7757611b76614a7c565b5b6002811115611b8957611b88614a7c565b5b81525050905060006002811115611ba357611ba2614a7c565b5b8161010001516002811115611bbb57611bba614a7c565b5b14611bfb576040517f08c379a0000000000000000000000000000000000000000000000000000000008152600401611bf290614341565b60405180910390fd5b8060a00151821115611c42576040517f08c379a0000000000000000000000000000000000000000000000000000000008152600401611c39906142c1565b60405180910390fd5b806020015173ffffffffffffffffffffffffffffffffffffffff163373ffffffffffffffffffffffffffffffffffffffff161415611cb5576040517f08c379a0000000000000000000000000000000000000000000000000000000008152600401611cac906144c1565b60405180910390fd5b6000828260e00151611cc79190614789565b905060008260c001519050600080611cde8461277c565b9150915060008373ffffffffffffffffffffffffffffffffffffffff1663dd62ed3e33306040518363ffffffff1660e01b8152600401611d1f929190614055565b60206040518083038186803b158015611d3757600080fd5b505afa158015611d4b573d6000803e3d6000fd5b505050506040513d601f19601f82011682018060405250810190611d6f919061391d565b90508185611d7d9190614702565b811015611dbf576040517f08c379a0000000000000000000000000000000000000000000000000000000008152600401611db6906143c1565b60405180910390fd5b8373ffffffffffffffffffffffffffffffffffffffff166323b872dd33308589611de99190614702565b6040518463ffffffff1660e01b8152600401611e079392919061407e565b602060405180830381600087803b158015611e2157600080fd5b505af1158015611e35573d6000803e3d6000fd5b505050506040513d601f19601f82011682018060405250810190611e599190613829565b506000878760a00151611e6c91906147e3565b905080600960008b8152602001908152602001600020600501819055506000811415611f09576001600960008b815260200190815260200160002060080160006101000a81548160ff02191690836002811115611ecc57611ecb614a7c565b5b02179055507f522881958b3c4a6fc0840ad3b7fb947b881edc28c004245a62541647422ade9789604051611f00919061459d565b60405180910390a15b6000611f2a88602001518887878c604001518d606001518e60c001516127be565b9050611f3f88602001518960c0015183612b3e565b601160009054906101000a900473ffffffffffffffffffffffffffffffffffffffff1673ffffffffffffffffffffffffffffffffffffffff16632ed7bae88960400151338b606001518d6040518563ffffffff1660e01b8152600401611fa894939291906140b5565b600060405180830381600087803b158015611fc257600080fd5b505af1158015611fd6573d6000803e3d6000fd5b505050507f3b599f6217e39be59216b60e543ce0d4c7d534fe64dd9d962334924e7819894e8a338b60405161200d93929190614627565b60405180910390a150505050505050505050565b7fa49807205ce4d355092ef5a8a18f56e8913cf4a201fbe287825b095693c217756120538161204e61237b565b612383565b600454821115612098576040517f08c379a000000000000000000000000000000000000000000000000000000000815260040161208f90614501565b60405180910390fd5b816002819055505050565b7fa49807205ce4d355092ef5a8a18f56e8913cf4a201fbe287825b095693c217756120d5816120d061237b565b612383565b816006819055505050565b80600a60003373ffffffffffffffffffffffffffffffffffffffff1673ffffffffffffffffffffffffffffffffffffffff16815260200190815260200160002060008473ffffffffffffffffffffffffffffffffffffffff1673ffffffffffffffffffffffffffffffffffffffff16815260200190815260200160002054101561219f576040517f08c379a000000000000000000000000000000000000000000000000000000000815260040161219690614541565b60405180910390fd5b80600a60003373ffffffffffffffffffffffffffffffffffffffff1673ffffffffffffffffffffffffffffffffffffffff16815260200190815260200160002060008473ffffffffffffffffffffffffffffffffffffffff1673ffffffffffffffffffffffffffffffffffffffff168152602001908152602001600020600082825461222b91906147e3565b925050819055508173ffffffffffffffffffffffffffffffffffffffff1663a9059cbb33836040518363ffffffff1660e01b815260040161226d9291906140fa565b602060405180830381600087803b15801561228757600080fd5b505af115801561229b573d6000803e3d6000fd5b505050506040513d601f19601f820116820180604052508101906122bf9190613829565b505050565b7fa49807205ce4d355092ef5a8a18f56e8913cf4a201fbe287825b095693c217756122f6816122f161237b565b612383565b816005819055505050565b60007f7965db0b000000000000000000000000000000000000000000000000000000007bffffffffffffffffffffffffffffffffffffffffffffffffffffffff1916827bffffffffffffffffffffffffffffffffffffffffffffffffffffffff19161480612374575061237382612bd6565b5b9050919050565b600033905090565b61238d8282610de6565b61241c576123b28173ffffffffffffffffffffffffffffffffffffffff166014612c40565b6123c08360001c6020612c40565b6040516020016123d1929190614000565b6040516020818303038152906040526040517f08c379a0000000000000000000000000000000000000000000000000000000008152600401612413919061425f565b60405180910390fd5b5050565b612428610c81565b612467576040517f08c379a000000000000000000000000000000000000000000000000000000000815260040161245e906142e1565b60405180910390fd5b6000600160006101000a81548160ff0219169083151502179055507f5db9ee0a495bf2e6ff9c91a7834c1ba4fdd244a5e8aa4e537bd38aeae4b073aa6124ab61237b565b6040516124b8919061403a565b60405180910390a1565b6124cc8282610de6565b61259e57600160008084815260200190815260200160002060000160008373ffffffffffffffffffffffffffffffffffffffff1673ffffffffffffffffffffffffffffffffffffffff16815260200190815260200160002060006101000a81548160ff02191690831515021790555061254361237b565b73ffffffffffffffffffffffffffffffffffffffff168173ffffffffffffffffffffffffffffffffffffffff16837f2f8788117e7eff1d82e926ec794901d17c78024a50270940304540a733656f0d60405160405180910390a45b5050565b6125ac8282610de6565b1561267f57600080600084815260200190815260200160002060000160008373ffffffffffffffffffffffffffffffffffffffff1673ffffffffffffffffffffffffffffffffffffffff16815260200190815260200160002060006101000a81548160ff02191690831515021790555061262461237b565b73ffffffffffffffffffffffffffffffffffffffff168173ffffffffffffffffffffffffffffffffffffffff16837ff6391f5c32d9c69d2a47ea670b442974b53935d1edc7fd64eb21e047a839171b60405160405180910390a45b5050565b61268b610c81565b156126cb576040517f08c379a00000000000000000000000000000000000000000000000000000000081526004016126c2906143e1565b60405180910390fd5b60018060006101000a81548160ff0219169083151502179055507f62e78cea01bee320cd4e420270b5ea74000d11b0c9f74754ebdbfc544b05a25861270e61237b565b60405161271b919061403a565b60405180910390a1565b6000816040516020016127389190613fda565b604051602081830303815290604052805190602001209050919050565b60008060006127648585612e7c565b9150915061277181612eff565b819250505092915050565b600080600454600254846127909190614789565b61279a9190614758565b9050600454600354846127ad9190614789565b6127b79190614758565b9150915091565b6000858711156127d75785876127d491906147e3565b96505b869050612812601060009054906101000a900473ffffffffffffffffffffffffffffffffffffffff1683878961280d9190614702565b612b3e565b8373ffffffffffffffffffffffffffffffffffffffff166301ffc9a763b779958460e01b6040518263ffffffff1660e01b81526004016128529190614244565b60206040518083038186803b15801561286a57600080fd5b505afa15801561287e573d6000803e3d6000fd5b505050506040513d601f19601f820116820180604052508101906128a29190613829565b6128ab57612b33565b600084905060008173ffffffffffffffffffffffffffffffffffffffff1663b9c4d9fb866040518263ffffffff1660e01b81526004016128eb919061459d565b60006040518083038186803b15801561290357600080fd5b505afa158015612917573d6000803e3d6000fd5b505050506040513d6000823e3d601f19601f820116820180604052508101906129409190613797565b905060008273ffffffffffffffffffffffffffffffffffffffff16630ebd4c7f876040518263ffffffff1660e01b815260040161297d919061459d565b60006040518083038186803b15801561299557600080fd5b505afa1580156129a9573d6000803e3d6000fd5b505050506040513d6000823e3d601f19601f820116820180604052508101906129d291906137e0565b905060005b8151811015612b2e578b73ffffffffffffffffffffffffffffffffffffffff16838281518110612a0a57612a09614aab565b5b602002602001015173ffffffffffffffffffffffffffffffffffffffff161415612a3357612b1b565b6000851415612a4157612b2e565b6000600454838381518110612a5957612a58614aab565b5b60200260200101518d612a6c9190614789565b612a769190614758565b905085811115612a8c5785905060009550612a9b565b8086612a9891906147e3565b95505b612ac0848381518110612ab157612ab0614aab565b5b60200260200101518883612b3e565b7f27c4f0403323142b599832f26acd21c74a9e5b809f2215726e244a4ac588cd7d8989868581518110612af657612af5614aab565b5b60200260200101518a85604051612b11959493929190614123565b60405180910390a1505b8080612b269061499d565b9150506129d7565b505050505b979650505050505050565b80600a60008573ffffffffffffffffffffffffffffffffffffffff1673ffffffffffffffffffffffffffffffffffffffff16815260200190815260200160002060008473ffffffffffffffffffffffffffffffffffffffff1673ffffffffffffffffffffffffffffffffffffffff1681526020019081526020016000206000828254612bca9190614702565b92505081905550505050565b60007f01ffc9a7000000000000000000000000000000000000000000000000000000007bffffffffffffffffffffffffffffffffffffffffffffffffffffffff1916827bffffffffffffffffffffffffffffffffffffffffffffffffffffffff1916149050919050565b606060006002836002612c539190614789565b612c5d9190614702565b67ffffffffffffffff811115612c7657612c75614ada565b5b6040519080825280601f01601f191660200182016040528015612ca85781602001600182028036833780820191505090505b5090507f300000000000000000000000000000000000000000000000000000000000000081600081518110612ce057612cdf614aab565b5b60200101907effffffffffffffffffffffffffffffffffffffffffffffffffffffffffffff1916908160001a9053507f780000000000000000000000000000000000000000000000000000000000000081600181518110612d4457612d43614aab565b5b60200101907effffffffffffffffffffffffffffffffffffffffffffffffffffffffffffff1916908160001a90535060006001846002612d849190614789565b612d8e9190614702565b90505b6001811115612e2e577f3031323334353637383961626364656600000000000000000000000000000000600f861660108110612dd057612dcf614aab565b5b1a60f81b828281518110612de757612de6614aab565b5b60200101907effffffffffffffffffffffffffffffffffffffffffffffffffffffffffffff1916908160001a905350600485901c945080612e2790614942565b9050612d91565b5060008414612e72576040517f08c379a0000000000000000000000000000000000000000000000000000000008152600401612e69906142a1565b60405180910390fd5b8091505092915050565b600080604183511415612ebe5760008060006020860151925060408601519150606086015160001a9050612eb2878285856130d4565b94509450505050612ef8565b604083511415612eef576000806020850151915060408501519050612ee48683836131e1565b935093505050612ef8565b60006002915091505b9250929050565b60006004811115612f1357612f12614a7c565b5b816004811115612f2657612f25614a7c565b5b1415612f31576130d1565b60016004811115612f4557612f44614a7c565b5b816004811115612f5857612f57614a7c565b5b1415612f99576040517f08c379a0000000000000000000000000000000000000000000000000000000008152600401612f9090614281565b60405180910390fd5b60026004811115612fad57612fac614a7c565b5b816004811115612fc057612fbf614a7c565b5b1415613001576040517f08c379a0000000000000000000000000000000000000000000000000000000008152600401612ff890614301565b60405180910390fd5b6003600481111561301557613014614a7c565b5b81600481111561302857613027614a7c565b5b1415613069576040517f08c379a000000000000000000000000000000000000000000000000000000000815260040161306090614381565b60405180910390fd5b60048081111561307c5761307b614a7c565b5b81600481111561308f5761308e614a7c565b5b14156130d0576040517f08c379a00000000000000000000000000000000000000000000000000000000081526004016130c790614481565b60405180910390fd5b5b50565b6000807f7fffffffffffffffffffffffffffffff5d576e7357a4501ddfe92f46681b20a08360001c111561310f5760006003915091506131d8565b601b8560ff16141580156131275750601c8560ff1614155b156131395760006004915091506131d8565b60006001878787876040516000815260200160405260405161315e94939291906141ff565b6020604051602081039080840390855afa158015613180573d6000803e3d6000fd5b505050602060405103519050600073ffffffffffffffffffffffffffffffffffffffff168173ffffffffffffffffffffffffffffffffffffffff1614156131cf576000600192509250506131d8565b80600092509250505b94509492505050565b6000806000807f7fffffffffffffffffffffffffffffffffffffffffffffffffffffffffffffff85169150601b8560ff1c019050613221878288856130d4565b935093505050935093915050565b60405180610120016040528060008152602001600073ffffffffffffffffffffffffffffffffffffffff168152602001600073ffffffffffffffffffffffffffffffffffffffff168152602001600081526020016000815260200160008152602001600073ffffffffffffffffffffffffffffffffffffffff16815260200160008152602001600060028111156132c9576132c8614a7c565b5b81525090565b60006132e26132dd84614683565b61465e565b9050808382526020820190508285602086028201111561330557613304614b13565b5b60005b85811015613335578161331b88826133c4565b845260208401935060208301925050600181019050613308565b5050509392505050565b600061335261334d846146af565b61465e565b9050808382526020820190508285602086028201111561337557613374614b13565b5b60005b858110156133a5578161338b88826134f4565b845260208401935060208301925050600181019050613378565b5050509392505050565b6000813590506133be8161508b565b92915050565b6000815190506133d3816150a2565b92915050565b600082601f8301126133ee576133ed614b0e565b5b81516133fe8482602086016132cf565b91505092915050565b600082601f83011261341c5761341b614b0e565b5b815161342c84826020860161333f565b91505092915050565b600081359050613444816150b9565b92915050565b600081519050613459816150b9565b92915050565b60008135905061346e816150d0565b92915050565b600081359050613483816150e7565b92915050565b60008083601f84011261349f5761349e614b0e565b5b8235905067ffffffffffffffff8111156134bc576134bb614b09565b5b6020830191508360018202830111156134d8576134d7614b13565b5b9250929050565b6000813590506134ee816150fe565b92915050565b600081519050613503816150fe565b92915050565b60006020828403121561351f5761351e614b1d565b5b600061352d848285016133af565b91505092915050565b6000806040838503121561354d5761354c614b1d565b5b600061355b858286016133af565b925050602061356c858286016133af565b9150509250929050565b600080600080600080600080610100898b03121561359757613596614b1d565b5b60006135a58b828c016133af565b98505060206135b68b828c016133af565b97505060406135c78b828c016134df565b96505060606135d88b828c016134df565b95505060806135e98b828c016133af565b94505060a06135fa8b828c016134df565b93505060c061360b8b828c016134df565b92505060e061361c8b828c016134df565b9150509295985092959890939650565b6000806000806000806000806000806101208b8d0312156136505761364f614b1d565b5b600061365e8d828e016133af565b9a5050602061366f8d828e016133af565b99505060406136808d828e016134df565b98505060606136918d828e016134df565b97505060806136a28d828e016133af565b96505060a06136b38d828e016134df565b95505060c06136c48d828e016134df565b94505060e06136d58d828e016134df565b9350506101008b013567ffffffffffffffff8111156136f7576136f6614b18565b5b6137038d828e01613489565b92509250509295989b9194979a5092959850565b6000806040838503121561372e5761372d614b1d565b5b600061373c858286016133af565b925050602061374d85828601613435565b9150509250929050565b6000806040838503121561376e5761376d614b1d565b5b600061377c858286016133af565b925050602061378d858286016134df565b9150509250929050565b6000602082840312156137ad576137ac614b1d565b5b600082015167ffffffffffffffff8111156137cb576137ca614b18565b5b6137d7848285016133d9565b91505092915050565b6000602082840312156137f6576137f5614b1d565b5b600082015167ffffffffffffffff81111561381457613813614b18565b5b61382084828501613407565b91505092915050565b60006020828403121561383f5761383e614b1d565b5b600061384d8482850161344a565b91505092915050565b60006020828403121561386c5761386b614b1d565b5b600061387a8482850161345f565b91505092915050565b6000806040838503121561389a57613899614b1d565b5b60006138a88582860161345f565b92505060206138b9858286016133af565b9150509250929050565b6000602082840312156138d9576138d8614b1d565b5b60006138e784828501613474565b91505092915050565b60006020828403121561390657613905614b1d565b5b6000613914848285016134df565b91505092915050565b60006020828403121561393357613932614b1d565b5b6000613941848285016134f4565b91505092915050565b6000806040838503121561396157613960614b1d565b5b600061396f858286016134df565b9250506020613980858286016134df565b9150509250929050565b613993816148c7565b82525050565b6139a281614817565b82525050565b6139b181614817565b82525050565b6139c86139c382614817565b6149e6565b82525050565b6139d78161483b565b82525050565b6139e681614847565b82525050565b6139fd6139f882614847565b6149f8565b82525050565b613a0c81614851565b82525050565b613a1b816148d9565b82525050565b6000613a2c826146db565b613a3681856146e6565b9350613a4681856020860161490f565b613a4f81614b22565b840191505092915050565b6000613a65826146db565b613a6f81856146f7565b9350613a7f81856020860161490f565b80840191505092915050565b6000613a986018836146e6565b9150613aa382614b40565b602082019050919050565b6000613abb6020836146e6565b9150613ac682614b69565b602082019050919050565b6000613ade601b836146e6565b9150613ae982614b92565b602082019050919050565b6000613b016014836146e6565b9150613b0c82614bbb565b602082019050919050565b6000613b24601f836146e6565b9150613b2f82614be4565b602082019050919050565b6000613b47601c836146f7565b9150613b5282614c0d565b601c82019050919050565b6000613b6a6029836146e6565b9150613b7582614c36565b604082019050919050565b6000613b8d6012836146e6565b9150613b9882614c85565b602082019050919050565b6000613bb0601f836146e6565b9150613bbb82614cae565b602082019050919050565b6000613bd36022836146e6565b9150613bde82614cd7565b604082019050919050565b6000613bf66018836146e6565b9150613c0182614d26565b602082019050919050565b6000613c196015836146e6565b9150613c2482614d4f565b602082019050919050565b6000613c3c6010836146e6565b9150613c4782614d78565b602082019050919050565b6000613c5f6012836146e6565b9150613c6a82614da1565b602082019050919050565b6000613c826019836146e6565b9150613c8d82614dca565b602082019050919050565b6000613ca5601e836146e6565b9150613cb082614df3565b602082019050919050565b6000613cc86011836146e6565b9150613cd382614e1c565b602082019050919050565b6000613ceb6022836146e6565b9150613cf682614e45565b604082019050919050565b6000613d0e6011836146e6565b9150613d1982614e94565b602082019050919050565b6000613d316017836146e6565b9150613d3c82614ebd565b602082019050919050565b6000613d546013836146e6565b9150613d5f82614ee6565b602082019050919050565b6000613d776017836146f7565b9150613d8282614f0f565b601782019050919050565b6000613d9a602a836146e6565b9150613da582614f38565b604082019050919050565b6000613dbd6012836146e6565b9150613dc882614f87565b602082019050919050565b6000613de06021836146e6565b9150613deb82614fb0565b604082019050919050565b6000613e036011836146f7565b9150613e0e82614fff565b601182019050919050565b6000613e26602f836146e6565b9150613e3182615028565b604082019050919050565b61012082016000820151613e536000850182613ef3565b506020820151613e666020850182613999565b506040820151613e796040850182613999565b506060820151613e8c6060850182613ef3565b506080820151613e9f6080850182613ef3565b5060a0820151613eb260a0850182613ef3565b5060c0820151613ec560c0850182613999565b5060e0820151613ed860e0850182613ef3565b50610100820151613eed610100850182613a12565b50505050565b613efc816148b0565b82525050565b613f0b816148b0565b82525050565b613f22613f1d826148b0565b614a14565b82525050565b613f31816148ba565b82525050565b6000613f43828c6139b7565b601482019150613f53828b6139b7565b601482019150613f63828a6139b7565b601482019150613f738289613f11565b602082019150613f838288613f11565b602082019150613f9382876139b7565b601482019150613fa38286613f11565b602082019150613fb38285613f11565b602082019150613fc38284613f11565b6020820191508190509a9950505050505050505050565b6000613fe582613b3a565b9150613ff182846139ec565b60208201915081905092915050565b600061400b82613d6a565b91506140178285613a5a565b915061402282613df6565b915061402e8284613a5a565b91508190509392505050565b600060208201905061404f60008301846139a8565b92915050565b600060408201905061406a60008301856139a8565b61407760208301846139a8565b9392505050565b600060608201905061409360008301866139a8565b6140a060208301856139a8565b6140ad6040830184613f02565b949350505050565b60006080820190506140ca60008301876139a8565b6140d760208301866139a8565b6140e46040830185613f02565b6140f16060830184613f02565b95945050505050565b600060408201905061410f60008301856139a8565b61411c6020830184613f02565b9392505050565b600060a08201905061413860008301886139a8565b6141456020830187613f02565b614152604083018661398a565b61415f60608301856139a8565b61416c6080830184613f02565b9695505050505050565b600060a08201905061418b60008301886139a8565b6141986020830187613f02565b6141a560408301866139a8565b6141b26060830185613f02565b6141bf6080830184613f02565b9695505050505050565b60006020820190506141de60008301846139ce565b92915050565b60006020820190506141f960008301846139dd565b92915050565b600060808201905061421460008301876139dd565b6142216020830186613f28565b61422e60408301856139dd565b61423b60608301846139dd565b95945050505050565b60006020820190506142596000830184613a03565b92915050565b600060208201905081810360008301526142798184613a21565b905092915050565b6000602082019050818103600083015261429a81613a8b565b9050919050565b600060208201905081810360008301526142ba81613aae565b9050919050565b600060208201905081810360008301526142da81613ad1565b9050919050565b600060208201905081810360008301526142fa81613af4565b9050919050565b6000602082019050818103600083015261431a81613b17565b9050919050565b6000602082019050818103600083015261433a81613b5d565b9050919050565b6000602082019050818103600083015261435a81613b80565b9050919050565b6000602082019050818103600083015261437a81613ba3565b9050919050565b6000602082019050818103600083015261439a81613bc6565b9050919050565b600060208201905081810360008301526143ba81613be9565b9050919050565b600060208201905081810360008301526143da81613c0c565b9050919050565b600060208201905081810360008301526143fa81613c2f565b9050919050565b6000602082019050818103600083015261441a81613c52565b9050919050565b6000602082019050818103600083015261443a81613c75565b9050919050565b6000602082019050818103600083015261445a81613c98565b9050919050565b6000602082019050818103600083015261447a81613cbb565b9050919050565b6000602082019050818103600083015261449a81613cde565b9050919050565b600060208201905081810360008301526144ba81613d01565b9050919050565b600060208201905081810360008301526144da81613d24565b9050919050565b600060208201905081810360008301526144fa81613d47565b9050919050565b6000602082019050818103600083015261451a81613d8d565b9050919050565b6000602082019050818103600083015261453a81613db0565b9050919050565b6000602082019050818103600083015261455a81613dd3565b9050919050565b6000602082019050818103600083015261457a81613e19565b9050919050565b6000610120820190506145976000830184613e3c565b92915050565b60006020820190506145b26000830184613f02565b92915050565b600060e0820190506145cd600083018a613f02565b6145da60208301896139a8565b6145e760408301886139a8565b6145f46060830187613f02565b6146016080830186613f02565b61460e60a08301856139a8565b61461b60c0830184613f02565b98975050505050505050565b600060608201905061463c6000830186613f02565b61464960208301856139a8565b6146566040830184613f02565b949350505050565b6000614668614679565b9050614674828261496c565b919050565b6000604051905090565b600067ffffffffffffffff82111561469e5761469d614ada565b5b602082029050602081019050919050565b600067ffffffffffffffff8211156146ca576146c9614ada565b5b602082029050602081019050919050565b600081519050919050565b600082825260208201905092915050565b600081905092915050565b600061470d826148b0565b9150614718836148b0565b9250827fffffffffffffffffffffffffffffffffffffffffffffffffffffffffffffffff0382111561474d5761474c614a1e565b5b828201905092915050565b6000614763826148b0565b915061476e836148b0565b92508261477e5761477d614a4d565b5b828204905092915050565b6000614794826148b0565b915061479f836148b0565b9250817fffffffffffffffffffffffffffffffffffffffffffffffffffffffffffffffff04831182151516156147d8576147d7614a1e565b5b828202905092915050565b60006147ee826148b0565b91506147f9836148b0565b92508282101561480c5761480b614a1e565b5b828203905092915050565b600061482282614890565b9050919050565b600061483482614890565b9050919050565b60008115159050919050565b6000819050919050565b60007fffffffff0000000000000000000000000000000000000000000000000000000082169050919050565b600081905061488b82615077565b919050565b600073ffffffffffffffffffffffffffffffffffffffff82169050919050565b6000819050919050565b600060ff82169050919050565b60006148d2826148eb565b9050919050565b60006148e48261487d565b9050919050565b60006148f6826148fd565b9050919050565b600061490882614890565b9050919050565b60005b8381101561492d578082015181840152602081019050614912565b8381111561493c576000848401525b50505050565b600061494d826148b0565b9150600082141561496157614960614a1e565b5b600182039050919050565b61497582614b22565b810181811067ffffffffffffffff8211171561499457614993614ada565b5b80604052505050565b60006149a8826148b0565b91507fffffffffffffffffffffffffffffffffffffffffffffffffffffffffffffffff8214156149db576149da614a1e565b5b600182019050919050565b60006149f182614a02565b9050919050565b6000819050919050565b6000614a0d82614b33565b9050919050565b6000819050919050565b7f4e487b7100000000000000000000000000000000000000000000000000000000600052601160045260246000fd5b7f4e487b7100000000000000000000000000000000000000000000000000000000600052601260045260246000fd5b7f4e487b7100000000000000000000000000000000000000000000000000000000600052602160045260246000fd5b7f4e487b7100000000000000000000000000000000000000000000000000000000600052603260045260246000fd5b7f4e487b7100000000000000000000000000000000000000000000000000000000600052604160045260246000fd5b600080fd5b600080fd5b600080fd5b600080fd5b600080fd5b6000601f19601f8301169050919050565b60008160601b9050919050565b7f45434453413a20696e76616c6964207369676e61747572650000000000000000600082015250565b7f537472696e67733a20686578206c656e67746820696e73756666696369656e74600082015250565b7f4e6f7420656e6f75676820746f6b656e7320666f722073616c652e0000000000600082015250565b7f5061757361626c653a206e6f7420706175736564000000000000000000000000600082015250565b7f45434453413a20696e76616c6964207369676e6174757265206c656e67746800600082015250565b7f19457468657265756d205369676e6564204d6573736167653a0a333200000000600082015250565b7f4f6e6c792073656c6c6572206f722061646d696e2063616e20636c6f7365207460008201527f68652074726164652e0000000000000000000000000000000000000000000000602082015250565b7f5472616465206973206e6f74206f70656e2e0000000000000000000000000000600082015250565b7f4f6e6c79206f70656e207472616465732063616e20626520636c6f7365642e00600082015250565b7f45434453413a20696e76616c6964207369676e6174757265202773272076616c60008201527f7565000000000000000000000000000000000000000000000000000000000000602082015250565b7f43757272656e6379206973206e6f7420616c6c6f7765642e0000000000000000600082015250565b7f416c6c6f77616e636520697320746f6f206c6f772e0000000000000000000000600082015250565b7f5061757361626c653a2070617573656400000000000000000000000000000000600082015250565b7f507269636520697320746f6f20686967682e0000000000000000000000000000600082015250565b7f5175616e746974792065786365656473206d6178696d756d2e00000000000000600082015250565b7f546f6b656e20636f6e7472616374206973206e6f7420616c6c6f7765642e0000600082015250565b7f507269636520697320746f6f206c6f772e000000000000000000000000000000600082015250565b7f45434453413a20696e76616c6964207369676e6174757265202776272076616c60008201527f7565000000000000000000000000000000000000000000000000000000000000602082015250565b7f417070726f76616c20657870697265642e000000000000000000000000000000600082015250565b7f53656c6c65722063616e6e6f742062652062757965722e000000000000000000600082015250565b7f417070726f76616c206578686175737465642e00000000000000000000000000600082015250565b7f416363657373436f6e74726f6c3a206163636f756e7420000000000000000000600082015250565b7f4665652063616e6e6f7420626520686967686572207468616e2068756e64726560008201527f642070657263656e742e00000000000000000000000000000000000000000000602082015250565b7f496e76616c6964207369676e61747572652e0000000000000000000000000000600082015250565b7f496e73756666696369656e742062616c616e636520746f20776974686472617760008201527f2e00000000000000000000000000000000000000000000000000000000000000602082015250565b7f206973206d697373696e6720726f6c6520000000000000000000000000000000600082015250565b7f416363657373436f6e74726f6c3a2063616e206f6e6c792072656e6f756e636560008201527f20726f6c657320666f722073656c660000000000000000000000000000000000602082015250565b6003811061508857615087614a7c565b5b50565b61509481614817565b811461509f57600080fd5b50565b6150ab81614829565b81146150b657600080fd5b50565b6150c28161483b565b81146150cd57600080fd5b50565b6150d981614847565b81146150e457600080fd5b50565b6150f081614851565b81146150fb57600080fd5b50565b615107816148b0565b811461511257600080fd5b5056fea2646970667358221220428fcd39dc4acab94853981c14b7b416d381c35a077f8a616bdb6cd1c8a5336a64736f6c63430008070033",
  "immutableReferences": {},
  "source": "// SPDX-License-Identifier: MIT\npragma solidity ^0.8.0;\n\nimport \"@openzeppelin/contracts/access/AccessControl.sol\";\nimport \"@openzeppelin/contracts/token/ERC20/IERC20.sol\";\nimport \"@openzeppelin/contracts/utils/cryptography/ECDSA.sol\";\nimport \"@openzeppelin/contracts/security/Pausable.sol\";\n\nimport \"./MarketWalletV1.sol\";\nimport \"./HasSecondarySaleFees.sol\";\n\nenum TradeStatus { Active, Sold, Cancelled }\n\nstruct Trade {\n  uint id;\n  address seller;\n  address token;\n  uint tokenId;\n  uint quantity;\n  uint available;\n  address currency;\n  uint price;\n  TradeStatus status;\n}\n\ncontract MarketV1 is AccessControl, Pausable {\n  using ECDSA for bytes32;\n\n  bytes internal constant EMPTY = \"\";\n\n  uint256 public buyerFeePct = 5000;\n  uint256 public sellerFeePct = 5000;\n  uint256 public hundredPct = 10**5;\n\n  uint256 public maxTokenPrice = 10**6 * 1 ether;\n  uint256 public maxTradeQuantity = 10**6;\n  uint256 public minTokenPrice = hundredPct;\n\n  // mapping(bytes => uint[]) public tradeHistory;\n\n  uint private _tradeId = 0;\n\n  mapping(uint => Trade) private _trades;\n\n  // seller => (currency => revenue)\n  mapping(address => mapping(address => uint)) internal _earnings;\n\n  // contract address => isAuthorized\n  mapping(address => bool) internal _approvedTokens;\n  uint private _approvedTokenCount = 0;\n\n  // contract address => isAuthorized\n  mapping(address => bool) internal _approvedCurrencies;\n  uint private _approvedCurrenciesCount = 0;\n  \n  mapping(bytes32 => bool) private _approvalsExhausted;\n\n  address internal _feeBeneficiary;\n\n  MarketWalletV1 internal _wallet;\n\n  event ListForSale(\n    uint tradeId,\n    address seller,\n    address tokenContract,\n    uint tokenId,\n    uint quantity,\n    address currency,\n    uint price\n  );\n\n  event Sell(\n    uint tradeId\n  );\n\n  event Buy(\n    uint tradeId,\n    address buyer,\n    uint quantity\n  );\n\n  event CancelListing(\n    address operator,\n    uint tradeId,\n    address tokenContract,\n    uint tokenId,\n    uint returned\n  );\n\n  event RoyaltyPayment(\n    address token,\n    uint tokenId,\n    address beneficiary,\n    address currency,\n    uint amount\n  );\n  \n  bytes32 public constant ADMIN_ROLE = keccak256(\"ADMIN_ROLE\");\n\n  bytes4 private constant _INTERFACE_ID_FEES = 0xb7799584;\n\n  constructor(MarketWalletV1 wallet) {\n    _setupRole(DEFAULT_ADMIN_ROLE, msg.sender);\n    \n    _setupRole(ADMIN_ROLE, msg.sender);\n    _setRoleAdmin(ADMIN_ROLE, DEFAULT_ADMIN_ROLE);\n\n    _feeBeneficiary = msg.sender;\n    _wallet = wallet;\n  }\n  \n  function supportsInterface(bytes4 interfaceID) override(AccessControl)\n    public view returns (bool) {\n    return super.supportsInterface(interfaceID);\n  }\n\n  function get(uint tradeId) public view returns (Trade memory) {\n    return _trades[tradeId];\n  }\n\n  function buy(uint tradeId, uint quantity) public whenNotPaused {\n    Trade memory trade = _trades[tradeId];\n\n    // Require trade is still open\n    require(trade.status == TradeStatus.Active, \"Trade is not open.\");\n\n    // Check quantity\n    require(quantity <= trade.available, \"Not enough tokens for sale.\");\n\n    // Require buyer to be different from seller\n    require(msg.sender != trade.seller, \"Seller cannot be buyer.\");\n\n    // Calculate prices\n    uint subtotal = trade.price * quantity;\n\n    IERC20 currency = IERC20(trade.currency);\n\n    (uint sellerFee, uint buyerFee) = calculateMarketFees(subtotal);\n\n    uint allowance = currency.allowance(msg.sender, address(this));\n    require(allowance >= subtotal + buyerFee, \"Allowance is too low.\");\n\n    // Deposit currency for escrow\n    currency.transferFrom(\n      msg.sender,\n      address(this),\n      subtotal + buyerFee\n    );\n\n    uint available = trade.available - quantity;\n    _trades[tradeId].available = available;\n\n    if (available == 0) {\n      _trades[tradeId].status = TradeStatus.Sold;\n      emit Sell(tradeId);\n    }\n\n    uint sellerNet = payAfterFees(\n      trade.seller,\n      subtotal,\n      sellerFee,\n      buyerFee,\n      trade.token,\n      trade.tokenId,\n      trade.currency\n    );\n\n    pay(trade.seller, trade.currency, sellerNet);\n\n    _wallet.give(\n      trade.token,\n      msg.sender,\n      trade.tokenId,\n      quantity\n    );\n\n    emit Buy(\n      tradeId,\n      msg.sender,\n      quantity\n    );\n  }\n\n  function pay(address account, address currency, uint amount) internal {\n    _earnings[account][currency] += amount;\n  }\n\n  function calculateMarketFees(uint subtotal)\n    internal view returns (uint sellerFee, uint buyerFee) {\n    buyerFee = (subtotal * buyerFeePct) / hundredPct;\n    sellerFee = (subtotal * sellerFeePct) / hundredPct;\n  }\n\n  function payAfterFees(\n    address seller,\n    uint subtotal,\n    uint sellerFee,\n    uint buyerFee,\n    address token,\n    uint tokenId,\n    address currency\n  ) internal returns (uint sellerPay) {\n    if (subtotal > sellerFee)\n      subtotal = subtotal - sellerFee;\n      sellerPay = subtotal;\n    \n    // Pay market fees\n    pay(_feeBeneficiary, currency, sellerFee + buyerFee);\n\n    if (!IERC165(token).supportsInterface(_INTERFACE_ID_FEES))\n      return sellerPay;\n\n    HasSecondarySaleFees tokenWithFees = HasSecondarySaleFees(token);\n\n    address payable[] memory recipients =\n      tokenWithFees.getFeeRecipients(tokenId);\n\n    uint[] memory feeBps = tokenWithFees.getFeeBps(tokenId);\n\n    for (uint i = 0; i < feeBps.length; i++) {\n      if (recipients[i] == seller) continue;\n      if (sellerPay == 0) break;\n\n      uint fee = (subtotal * feeBps[i]) / hundredPct;\n\n      if (fee > sellerPay) {\n        fee = sellerPay;\n        sellerPay = 0;\n      } else {\n        sellerPay -= fee;\n      }\n\n      pay(recipients[i], currency, fee);\n\n      emit RoyaltyPayment(token, tokenId, recipients[i], currency, fee);\n    }\n  }\n\n  function getSaleAuthorizationHash(\n    address seller,\n    address token,\n    uint tokenId,\n    uint quantity,\n    address currency,\n    uint price,\n    uint expiry,\n    uint salt\n  ) public view returns (bytes32) {\n    return keccak256(abi.encodePacked(\n      address(this),\n      seller,\n      token,\n      tokenId,\n      quantity,\n      currency,\n      price,\n      expiry,\n      salt\n    ));\n  }\n\n  function listForSale(\n    address seller,\n    address token,\n    uint tokenId,\n    uint quantity,\n    address currency,\n    uint price,\n    uint expiry,\n    uint salt,\n    bytes calldata signature\n  ) public whenNotPaused {\n    require(price >= minTokenPrice, \"Price is too low.\");\n    require(price <= maxTokenPrice, \"Price is too high.\");\n    require(quantity <= maxTradeQuantity, \"Quantity exceeds maximum.\");\n\n    require(_approvedTokens[token], \"Token contract is not allowed.\");\n    require(_approvedCurrencies[currency], \"Currency is not allowed.\");\n\n    if (!hasRole(ADMIN_ROLE, msg.sender)) {\n      require(expiry > block.timestamp, \"Approval expired.\");\n\n      bytes32 saleHash = getSaleAuthorizationHash(\n        seller,\n        token,\n        tokenId,\n        quantity,\n        currency,\n        price,\n        expiry,\n        salt\n      );\n\n      require(!_approvalsExhausted[saleHash], \"Approval exhausted.\");\n      \n      address recoveredAddress = saleHash\n        .toEthSignedMessageHash()\n        .recover(signature);\n      \n      require(\n        recoveredAddress != address(0)\n          && hasRole(ADMIN_ROLE, recoveredAddress),\n        \"Invalid signature.\"\n      );\n\n      _approvalsExhausted[saleHash] = true;\n    }\n\n    if (!IERC165(token).supportsInterface(type(IERC1155).interfaceId))\n      quantity = 1;\n\n    _wallet.take(\n      token,\n      seller,\n      tokenId,\n      quantity\n    );\n\n    // Create trade\n    _tradeId++;\n\n    Trade memory trade = Trade(\n      _tradeId,\n      seller,\n      token,\n      tokenId,\n      quantity,\n      quantity,\n      currency,\n      price,\n      TradeStatus.Active\n    );\n\n    _trades[_tradeId] = trade;\n\n    // tradeHistory[\n    //   abi.encodePacked(\n    //     token,\n    //     tokenId\n    //   )\n    // ].push(_tradeId);\n\n    emit ListForSale(\n      _tradeId,\n      seller,\n      token,\n      tokenId,\n      quantity,\n      currency,\n      price\n    );\n  }\n\n  function cancel(uint256 tradeId) public {\n    Trade memory trade = _trades[tradeId];\n    \n    require(\n      trade.status == TradeStatus.Active,\n      \"Only open trades can be closed.\"\n    );\n\n    require(\n      msg.sender == trade.seller || hasRole(ADMIN_ROLE, msg.sender),\n      \"Only seller or admin can close the trade.\"\n    );\n    \n    // Mark trade as cancelled\n    _trades[tradeId].status = TradeStatus.Cancelled;\n\n    _wallet.give(\n      trade.token,\n      trade.seller,\n      trade.tokenId,\n      trade.available\n    );\n\n    emit CancelListing(\n      msg.sender,\n      tradeId,\n      trade.token,\n      trade.tokenId,\n      trade.available\n    );\n  }\n\n  function getBalance(address currency, address account) public view returns (uint) {\n    return _earnings[account][currency];\n  }\n\n  function withdraw(address currency, uint amount) public {\n    require(\n      _earnings[msg.sender][currency] >= amount,\n      \"Insufficient balance to withdraw.\"\n    );\n\n    _earnings[msg.sender][currency] -= amount;\n\n    IERC20(currency).transfer(msg.sender, amount);\n  }\n\n  function isTokenApproved(address token) public view returns (bool) {\n    return _approvedTokens[token];\n  }\n\n  function isCurrencyApproved(address currency) public view returns (bool) {\n    return _approvedCurrencies[currency];\n  }\n\n  function setTokenApproval(address token, bool isApproved) public onlyRole(ADMIN_ROLE) {\n    _approvedTokens[token] = isApproved;\n  }\n\n  function setCurrencyApproval(address currency, bool isApproved) public onlyRole(ADMIN_ROLE) {\n    _approvedCurrencies[currency] = isApproved;\n  }\n  \n  function setMaxTokenPriceEther(uint256 price) public onlyRole(ADMIN_ROLE) {\n    maxTokenPrice = price * 1 ether;\n  }\n  \n  function setMaxTokenPriceWei(uint256 price) public onlyRole(ADMIN_ROLE) {\n    maxTokenPrice = price;\n  }\n  \n  function setMaxTradeQuantity(uint256 quantity) public onlyRole(ADMIN_ROLE) {\n    maxTradeQuantity = quantity;\n  }\n\n  function setBuyerFeePct(uint256 pct) public onlyRole(ADMIN_ROLE) {\n    require(pct <= hundredPct, \"Fee cannot be higher than hundred percent.\");\n    buyerFeePct = pct;\n  }\n  \n  function setSellerFeePct(uint256 pct) public onlyRole(ADMIN_ROLE) {\n    require(pct <= hundredPct, \"Fee cannot be higher than hundred percent.\");\n    sellerFeePct = pct;\n  }\n\n  function setFeeBeneficiary(address beneficiary) public onlyRole(DEFAULT_ADMIN_ROLE) {\n    _feeBeneficiary = beneficiary;\n  }\n  \n  function pause() public onlyRole(ADMIN_ROLE) {\n    super._pause();\n  }\n\n  function resume() public onlyRole(ADMIN_ROLE) {\n    super._unpause();\n  }\n}\n",
  "sourcePath": "/Users/husnain/Desktop/fanbase/packages/ethereum/contracts/solidity/contracts/MarketV1.sol",
  "compiler": {
    "name": "solc",
    "version": "0.8.7+commit.e28d00a7.Emscripten.clang"
  },
  "schemaVersion": "3.4.3",
  "updatedAt": "2021-09-23T21:55:55.074Z",
  "devdoc": {
    "kind": "dev",
    "methods": {
      "getRoleAdmin(bytes32)": {
        "details": "Returns the admin role that controls `role`. See {grantRole} and {revokeRole}. To change a role's admin, use {_setRoleAdmin}."
      },
      "grantRole(bytes32,address)": {
        "details": "Grants `role` to `account`. If `account` had not been already granted `role`, emits a {RoleGranted} event. Requirements: - the caller must have ``role``'s admin role."
      },
      "hasRole(bytes32,address)": {
        "details": "Returns `true` if `account` has been granted `role`."
      },
      "paused()": {
        "details": "Returns true if the contract is paused, and false otherwise."
      },
      "renounceRole(bytes32,address)": {
        "details": "Revokes `role` from the calling account. Roles are often managed via {grantRole} and {revokeRole}: this function's purpose is to provide a mechanism for accounts to lose their privileges if they are compromised (such as when a trusted device is misplaced). If the calling account had been granted `role`, emits a {RoleRevoked} event. Requirements: - the caller must be `account`."
      },
      "revokeRole(bytes32,address)": {
        "details": "Revokes `role` from `account`. If `account` had been granted `role`, emits a {RoleRevoked} event. Requirements: - the caller must have ``role``'s admin role."
      }
    },
    "version": 1
  },
  "userdoc": {
    "kind": "user",
    "methods": {},
    "version": 1
  }
}