{
  "contractName": "MarketV1",
  "abi": [
    {
      "inputs": [
        {
          "internalType": "contract MarketWalletV1",
          "name": "wallet",
          "type": "address"
        }
      ],
      "stateMutability": "nonpayable",
      "type": "constructor"
    },
    {
      "anonymous": false,
      "inputs": [
        {
          "indexed": false,
          "internalType": "uint256",
          "name": "tradeId",
          "type": "uint256"
        },
        {
          "indexed": false,
          "internalType": "address",
          "name": "buyer",
          "type": "address"
        },
        {
          "indexed": false,
          "internalType": "uint256",
          "name": "quantity",
          "type": "uint256"
        }
      ],
      "name": "Buy",
      "type": "event"
    },
    {
      "anonymous": false,
      "inputs": [
        {
          "indexed": false,
          "internalType": "address",
          "name": "operator",
          "type": "address"
        },
        {
          "indexed": false,
          "internalType": "uint256",
          "name": "tradeId",
          "type": "uint256"
        },
        {
          "indexed": false,
          "internalType": "address",
          "name": "tokenContract",
          "type": "address"
        },
        {
          "indexed": false,
          "internalType": "uint256",
          "name": "tokenId",
          "type": "uint256"
        },
        {
          "indexed": false,
          "internalType": "uint256",
          "name": "returned",
          "type": "uint256"
        }
      ],
      "name": "CancelListing",
      "type": "event"
    },
    {
      "anonymous": false,
      "inputs": [
        {
          "indexed": false,
          "internalType": "uint256",
          "name": "tradeId",
          "type": "uint256"
        },
        {
          "indexed": false,
          "internalType": "address",
          "name": "seller",
          "type": "address"
        },
        {
          "indexed": false,
          "internalType": "address",
          "name": "tokenContract",
          "type": "address"
        },
        {
          "indexed": false,
          "internalType": "uint256",
          "name": "tokenId",
          "type": "uint256"
        },
        {
          "indexed": false,
          "internalType": "uint256",
          "name": "quantity",
          "type": "uint256"
        },
        {
          "indexed": false,
          "internalType": "address",
          "name": "currency",
          "type": "address"
        },
        {
          "indexed": false,
          "internalType": "uint256",
          "name": "price",
          "type": "uint256"
        }
      ],
      "name": "ListForSale",
      "type": "event"
    },
    {
      "anonymous": false,
      "inputs": [
        {
          "indexed": true,
          "internalType": "bytes32",
          "name": "role",
          "type": "bytes32"
        },
        {
          "indexed": true,
          "internalType": "bytes32",
          "name": "previousAdminRole",
          "type": "bytes32"
        },
        {
          "indexed": true,
          "internalType": "bytes32",
          "name": "newAdminRole",
          "type": "bytes32"
        }
      ],
      "name": "RoleAdminChanged",
      "type": "event"
    },
    {
      "anonymous": false,
      "inputs": [
        {
          "indexed": true,
          "internalType": "bytes32",
          "name": "role",
          "type": "bytes32"
        },
        {
          "indexed": true,
          "internalType": "address",
          "name": "account",
          "type": "address"
        },
        {
          "indexed": true,
          "internalType": "address",
          "name": "sender",
          "type": "address"
        }
      ],
      "name": "RoleGranted",
      "type": "event"
    },
    {
      "anonymous": false,
      "inputs": [
        {
          "indexed": true,
          "internalType": "bytes32",
          "name": "role",
          "type": "bytes32"
        },
        {
          "indexed": true,
          "internalType": "address",
          "name": "account",
          "type": "address"
        },
        {
          "indexed": true,
          "internalType": "address",
          "name": "sender",
          "type": "address"
        }
      ],
      "name": "RoleRevoked",
      "type": "event"
    },
    {
      "anonymous": false,
      "inputs": [
        {
          "indexed": false,
          "internalType": "address",
          "name": "token",
          "type": "address"
        },
        {
          "indexed": false,
          "internalType": "uint256",
          "name": "tokenId",
          "type": "uint256"
        },
        {
          "indexed": false,
          "internalType": "address",
          "name": "beneficiary",
          "type": "address"
        },
        {
          "indexed": false,
          "internalType": "address",
          "name": "currency",
          "type": "address"
        },
        {
          "indexed": false,
          "internalType": "uint256",
          "name": "amount",
          "type": "uint256"
        }
      ],
      "name": "RoyaltyPayment",
      "type": "event"
    },
    {
      "anonymous": false,
      "inputs": [
        {
          "indexed": false,
          "internalType": "uint256",
          "name": "tradeId",
          "type": "uint256"
        }
      ],
      "name": "Sold",
      "type": "event"
    },
    {
      "inputs": [],
      "name": "ADMIN_ROLE",
      "outputs": [
        {
          "internalType": "bytes32",
          "name": "",
          "type": "bytes32"
        }
      ],
      "stateMutability": "view",
      "type": "function"
    },
    {
      "inputs": [],
      "name": "DEFAULT_ADMIN_ROLE",
      "outputs": [
        {
          "internalType": "bytes32",
          "name": "",
          "type": "bytes32"
        }
      ],
      "stateMutability": "view",
      "type": "function"
    },
    {
      "inputs": [],
      "name": "buyerFeePct",
      "outputs": [
        {
          "internalType": "uint256",
          "name": "",
          "type": "uint256"
        }
      ],
      "stateMutability": "view",
      "type": "function"
    },
    {
      "inputs": [
        {
          "internalType": "bytes32",
          "name": "role",
          "type": "bytes32"
        }
      ],
      "name": "getRoleAdmin",
      "outputs": [
        {
          "internalType": "bytes32",
          "name": "",
          "type": "bytes32"
        }
      ],
      "stateMutability": "view",
      "type": "function"
    },
    {
      "inputs": [
        {
          "internalType": "bytes32",
          "name": "role",
          "type": "bytes32"
        },
        {
          "internalType": "address",
          "name": "account",
          "type": "address"
        }
      ],
      "name": "grantRole",
      "outputs": [],
      "stateMutability": "nonpayable",
      "type": "function"
    },
    {
      "inputs": [
        {
          "internalType": "bytes32",
          "name": "role",
          "type": "bytes32"
        },
        {
          "internalType": "address",
          "name": "account",
          "type": "address"
        }
      ],
      "name": "hasRole",
      "outputs": [
        {
          "internalType": "bool",
          "name": "",
          "type": "bool"
        }
      ],
      "stateMutability": "view",
      "type": "function"
    },
    {
      "inputs": [],
      "name": "hundredPct",
      "outputs": [
        {
          "internalType": "uint256",
          "name": "",
          "type": "uint256"
        }
      ],
      "stateMutability": "view",
      "type": "function"
    },
    {
      "inputs": [],
      "name": "maxTokenPrice",
      "outputs": [
        {
          "internalType": "uint256",
          "name": "",
          "type": "uint256"
        }
      ],
      "stateMutability": "view",
      "type": "function"
    },
    {
      "inputs": [],
      "name": "maxTradeQuantity",
      "outputs": [
        {
          "internalType": "uint256",
          "name": "",
          "type": "uint256"
        }
      ],
      "stateMutability": "view",
      "type": "function"
    },
    {
      "inputs": [],
      "name": "minTokenPrice",
      "outputs": [
        {
          "internalType": "uint256",
          "name": "",
          "type": "uint256"
        }
      ],
      "stateMutability": "view",
      "type": "function"
    },
    {
      "inputs": [
        {
          "internalType": "bytes32",
          "name": "role",
          "type": "bytes32"
        },
        {
          "internalType": "address",
          "name": "account",
          "type": "address"
        }
      ],
      "name": "renounceRole",
      "outputs": [],
      "stateMutability": "nonpayable",
      "type": "function"
    },
    {
      "inputs": [
        {
          "internalType": "bytes32",
          "name": "role",
          "type": "bytes32"
        },
        {
          "internalType": "address",
          "name": "account",
          "type": "address"
        }
      ],
      "name": "revokeRole",
      "outputs": [],
      "stateMutability": "nonpayable",
      "type": "function"
    },
    {
      "inputs": [],
      "name": "sellerFeePct",
      "outputs": [
        {
          "internalType": "uint256",
          "name": "",
          "type": "uint256"
        }
      ],
      "stateMutability": "view",
      "type": "function"
    },
    {
      "inputs": [
        {
          "internalType": "bytes4",
          "name": "interfaceID",
          "type": "bytes4"
        }
      ],
      "name": "supportsInterface",
      "outputs": [
        {
          "internalType": "bool",
          "name": "",
          "type": "bool"
        }
      ],
      "stateMutability": "view",
      "type": "function"
    },
    {
      "inputs": [
        {
          "internalType": "uint256",
          "name": "tradeId",
          "type": "uint256"
        }
      ],
      "name": "get",
      "outputs": [
        {
          "components": [
            {
              "internalType": "uint256",
              "name": "id",
              "type": "uint256"
            },
            {
              "internalType": "address",
              "name": "seller",
              "type": "address"
            },
            {
              "internalType": "address",
              "name": "token",
              "type": "address"
            },
            {
              "internalType": "uint256",
              "name": "tokenId",
              "type": "uint256"
            },
            {
              "internalType": "uint256",
              "name": "quantity",
              "type": "uint256"
            },
            {
              "internalType": "uint256",
              "name": "available",
              "type": "uint256"
            },
            {
              "internalType": "address",
              "name": "currency",
              "type": "address"
            },
            {
              "internalType": "uint256",
              "name": "price",
              "type": "uint256"
            },
            {
              "internalType": "enum TradeStatus",
              "name": "status",
              "type": "uint8"
            }
          ],
          "internalType": "struct Trade",
          "name": "",
          "type": "tuple"
        }
      ],
      "stateMutability": "view",
      "type": "function"
    },
    {
      "inputs": [
        {
          "internalType": "uint256",
          "name": "tradeId",
          "type": "uint256"
        },
        {
          "internalType": "uint256",
          "name": "quantity",
          "type": "uint256"
        }
      ],
      "name": "buy",
      "outputs": [],
      "stateMutability": "nonpayable",
      "type": "function"
    },
    {
      "inputs": [
        {
          "internalType": "address",
          "name": "seller",
          "type": "address"
        },
        {
          "internalType": "address",
          "name": "token",
          "type": "address"
        },
        {
          "internalType": "uint256",
          "name": "tokenId",
          "type": "uint256"
        },
        {
          "internalType": "uint256",
          "name": "quantity",
          "type": "uint256"
        },
        {
          "internalType": "address",
          "name": "currency",
          "type": "address"
        },
        {
          "internalType": "uint256",
          "name": "price",
          "type": "uint256"
        },
        {
          "internalType": "uint256",
          "name": "expiry",
          "type": "uint256"
        },
        {
          "internalType": "uint256",
          "name": "salt",
          "type": "uint256"
        }
      ],
      "name": "getSaleAuthorizationHash",
      "outputs": [
        {
          "internalType": "bytes32",
          "name": "",
          "type": "bytes32"
        }
      ],
      "stateMutability": "view",
      "type": "function"
    },
    {
      "inputs": [
        {
          "internalType": "address",
          "name": "seller",
          "type": "address"
        },
        {
          "internalType": "address",
          "name": "token",
          "type": "address"
        },
        {
          "internalType": "uint256",
          "name": "tokenId",
          "type": "uint256"
        },
        {
          "internalType": "uint256",
          "name": "quantity",
          "type": "uint256"
        },
        {
          "internalType": "address",
          "name": "currency",
          "type": "address"
        },
        {
          "internalType": "uint256",
          "name": "price",
          "type": "uint256"
        },
        {
          "internalType": "uint256",
          "name": "expiry",
          "type": "uint256"
        },
        {
          "internalType": "uint256",
          "name": "salt",
          "type": "uint256"
        },
        {
          "internalType": "bytes",
          "name": "signature",
          "type": "bytes"
        }
      ],
      "name": "listForSale",
      "outputs": [],
      "stateMutability": "nonpayable",
      "type": "function"
    },
    {
      "inputs": [
        {
          "internalType": "uint256",
          "name": "tradeId",
          "type": "uint256"
        }
      ],
      "name": "cancel",
      "outputs": [],
      "stateMutability": "nonpayable",
      "type": "function"
    },
    {
      "inputs": [
        {
          "internalType": "address",
          "name": "currency",
          "type": "address"
        },
        {
          "internalType": "address",
          "name": "account",
          "type": "address"
        }
      ],
      "name": "getBalance",
      "outputs": [
        {
          "internalType": "uint256",
          "name": "",
          "type": "uint256"
        }
      ],
      "stateMutability": "view",
      "type": "function"
    },
    {
      "inputs": [
        {
          "internalType": "address",
          "name": "currency",
          "type": "address"
        },
        {
          "internalType": "uint256",
          "name": "amount",
          "type": "uint256"
        }
      ],
      "name": "withdraw",
      "outputs": [],
      "stateMutability": "nonpayable",
      "type": "function"
    },
    {
      "inputs": [
        {
          "internalType": "address",
          "name": "token",
          "type": "address"
        }
      ],
      "name": "isTokenApproved",
      "outputs": [
        {
          "internalType": "bool",
          "name": "",
          "type": "bool"
        }
      ],
      "stateMutability": "view",
      "type": "function"
    },
    {
      "inputs": [
        {
          "internalType": "address",
          "name": "currency",
          "type": "address"
        }
      ],
      "name": "isCurrencyApproved",
      "outputs": [
        {
          "internalType": "bool",
          "name": "",
          "type": "bool"
        }
      ],
      "stateMutability": "view",
      "type": "function"
    },
    {
      "inputs": [
        {
          "internalType": "address[]",
          "name": "tokens",
          "type": "address[]"
        },
        {
          "internalType": "bool",
          "name": "isApproved",
          "type": "bool"
        }
      ],
      "name": "setTokensApproval",
      "outputs": [],
      "stateMutability": "nonpayable",
      "type": "function"
    },
    {
      "inputs": [
        {
          "internalType": "address[]",
          "name": "currencies",
          "type": "address[]"
        },
        {
          "internalType": "bool",
          "name": "isApproved",
          "type": "bool"
        }
      ],
      "name": "setCurrenciesApproval",
      "outputs": [],
      "stateMutability": "nonpayable",
      "type": "function"
    },
    {
      "inputs": [
        {
          "internalType": "uint256",
          "name": "price",
          "type": "uint256"
        }
      ],
      "name": "setMaxTokenPriceEther",
      "outputs": [],
      "stateMutability": "nonpayable",
      "type": "function"
    },
    {
      "inputs": [
        {
          "internalType": "uint256",
          "name": "price",
          "type": "uint256"
        }
      ],
      "name": "setMaxTokenPriceWei",
      "outputs": [],
      "stateMutability": "nonpayable",
      "type": "function"
    },
    {
      "inputs": [
        {
          "internalType": "uint256",
          "name": "quantity",
          "type": "uint256"
        }
      ],
      "name": "setMaxTradeQuantity",
      "outputs": [],
      "stateMutability": "nonpayable",
      "type": "function"
    },
    {
      "inputs": [
        {
          "internalType": "uint256",
          "name": "pct",
          "type": "uint256"
        }
      ],
      "name": "setBuyerFeePct",
      "outputs": [],
      "stateMutability": "nonpayable",
      "type": "function"
    },
    {
      "inputs": [
        {
          "internalType": "uint256",
          "name": "pct",
          "type": "uint256"
        }
      ],
      "name": "setSellerFeePct",
      "outputs": [],
      "stateMutability": "nonpayable",
      "type": "function"
    },
    {
      "inputs": [
        {
          "internalType": "address",
          "name": "beneficiary",
          "type": "address"
        }
      ],
      "name": "setFeeBeneficiary",
      "outputs": [],
      "stateMutability": "nonpayable",
      "type": "function"
    }
  ],
  "bytecode": "0x6080604052611388600155611388600255620186a060035569d3c21bcecceda1000000600455620f424060055560035460065560006007556000600b556000600d553480156200004e57600080fd5b50604051620053443803806200534483398181016040528101906200007491906200038b565b620000896000801b336200017960201b60201c565b620000bb7fa49807205ce4d355092ef5a8a18f56e8913cf4a201fbe287825b095693c21775336200017960201b60201c565b620000f07fa49807205ce4d355092ef5a8a18f56e8913cf4a201fbe287825b095693c217756000801b6200018f60201b60201c565b33600f60006101000a81548173ffffffffffffffffffffffffffffffffffffffff021916908373ffffffffffffffffffffffffffffffffffffffff16021790555080601060006101000a81548173ffffffffffffffffffffffffffffffffffffffff021916908373ffffffffffffffffffffffffffffffffffffffff1602179055505062000424565b6200018b8282620001f260201b60201c565b5050565b6000620001a283620002e360201b60201c565b905081600080858152602001908152602001600020600101819055508181847fbd79b86ffe0ab8e8776151514217cd7cacd52c909f66475c3af44e129f0b00ff60405160405180910390a4505050565b6200020482826200030260201b60201c565b620002df57600160008084815260200190815260200160002060000160008373ffffffffffffffffffffffffffffffffffffffff1673ffffffffffffffffffffffffffffffffffffffff16815260200190815260200160002060006101000a81548160ff021916908315150217905550620002846200036c60201b60201c565b73ffffffffffffffffffffffffffffffffffffffff168173ffffffffffffffffffffffffffffffffffffffff16837f2f8788117e7eff1d82e926ec794901d17c78024a50270940304540a733656f0d60405160405180910390a45b5050565b6000806000838152602001908152602001600020600101549050919050565b600080600084815260200190815260200160002060000160008373ffffffffffffffffffffffffffffffffffffffff1673ffffffffffffffffffffffffffffffffffffffff16815260200190815260200160002060009054906101000a900460ff16905092915050565b600033905090565b60008151905062000385816200040a565b92915050565b600060208284031215620003a457620003a362000405565b5b6000620003b48482850162000374565b91505092915050565b6000620003ca82620003e5565b9050919050565b6000620003de82620003bd565b9050919050565b600073ffffffffffffffffffffffffffffffffffffffff82169050919050565b600080fd5b6200041581620003d1565b81146200042157600080fd5b50565b614f1080620004346000396000f3fe608060405234801561001057600080fd5b50600436106101e55760003560e01c806391d148541161010f578063d428dc2b116100a2578063e45ad64a11610071578063e45ad64a1461058e578063e6a50100146105aa578063f3fef3a3146105c6578063fd1fc13e146105e2576101e5565b8063d428dc2b14610508578063d4fac45d14610526578063d547741f14610556578063d6febde814610572576101e5565b8063b8358a61116100de578063b8358a6114610498578063bca99819146104b4578063c661b89d146104d0578063d1177945146104ec576101e5565b806391d14854146103ea5780639507d39a1461041a5780639d93d3521461044a578063a217fddf1461047a576101e5565b80635a0a3d821161018757806377e5c4a81161015657806377e5c4a81461036057806385d561ae1461037e5780638662732e1461039c5780638ce5ab6a146103cc576101e5565b80635a0a3d82146102ec5780635dabb20e146103085780637167675a1461032657806375b238fc14610342576101e5565b80632b483c03116101c35780632b483c031461027a5780632f2ff15d1461029857806336568abe146102b457806340e58ee5146102d0576101e5565b806301ffc9a7146101ea5780630d7b1acc1461021a578063248a9ca31461024a575b600080fd5b61020460048036038101906101ff919061377b565b6105fe565b6040516102119190614020565b60405180910390f35b610234600480360381019061022f91906133a1565b610610565b6040516102419190614020565b60405180910390f35b610264600480360381019061025f919061370e565b610666565b604051610271919061403b565b60405180910390f35b610282610685565b60405161028f91906143b4565b60405180910390f35b6102b260048036038101906102ad919061373b565b61068b565b005b6102ce60048036038101906102c9919061373b565b6106b4565b005b6102ea60048036038101906102e591906137a8565b610737565b005b610306600480360381019061030191906133a1565b610b09565b005b610310610b63565b60405161031d91906143b4565b60405180910390f35b610340600480360381019061033b91906135ef565b610b69565b005b61034a610c41565b604051610357919061403b565b60405180910390f35b610368610c65565b60405161037591906143b4565b60405180910390f35b610386610c6b565b60405161039391906143b4565b60405180910390f35b6103b660048036038101906103b1919061340e565b610c71565b6040516103c3919061403b565b60405180910390f35b6103d4610cb8565b6040516103e191906143b4565b60405180910390f35b61040460048036038101906103ff919061373b565b610cbe565b6040516104119190614020565b60405180910390f35b610434600480360381019061042f91906137a8565b610d28565b6040516104419190614398565b60405180910390f35b610464600480360381019061045f91906133a1565b610ec5565b6040516104719190614020565b60405180910390f35b610482610f1b565b60405161048f919061403b565b60405180910390f35b6104b260048036038101906104ad91906134c4565b610f22565b005b6104ce60048036038101906104c991906137a8565b6116bd565b005b6104ea60048036038101906104e591906137a8565b61170d565b005b610506600480360381019061050191906135ef565b61178f565b005b610510611867565b60405161051d91906143b4565b60405180910390f35b610540600480360381019061053b91906133ce565b61186d565b60405161054d91906143b4565b60405180910390f35b610570600480360381019061056b919061373b565b6118f4565b005b61058c60048036038101906105879190613802565b61191d565b005b6105a860048036038101906105a391906137a8565b611ed1565b005b6105c460048036038101906105bf91906137a8565b611f53565b005b6105e060048036038101906105db91906135af565b611f90565b005b6105fc60048036038101906105f791906137a8565b612174565b005b6000610609826121b1565b9050919050565b6000600c60008373ffffffffffffffffffffffffffffffffffffffff1673ffffffffffffffffffffffffffffffffffffffff16815260200190815260200160002060009054906101000a900460ff169050919050565b6000806000838152602001908152602001600020600101549050919050565b60025481565b61069482610666565b6106a5816106a061222b565b612233565b6106af83836122d0565b505050565b6106bc61222b565b73ffffffffffffffffffffffffffffffffffffffff168173ffffffffffffffffffffffffffffffffffffffff1614610729576040517f08c379a000000000000000000000000000000000000000000000000000000000815260040161072090614378565b60405180910390fd5b61073382826123b0565b5050565b60006008600083815260200190815260200160002060405180610120016040529081600082015481526020016001820160009054906101000a900473ffffffffffffffffffffffffffffffffffffffff1673ffffffffffffffffffffffffffffffffffffffff1673ffffffffffffffffffffffffffffffffffffffff1681526020016002820160009054906101000a900473ffffffffffffffffffffffffffffffffffffffff1673ffffffffffffffffffffffffffffffffffffffff1673ffffffffffffffffffffffffffffffffffffffff1681526020016003820154815260200160048201548152602001600582015481526020016006820160009054906101000a900473ffffffffffffffffffffffffffffffffffffffff1673ffffffffffffffffffffffffffffffffffffffff1673ffffffffffffffffffffffffffffffffffffffff168152602001600782015481526020016008820160009054906101000a900460ff1660028111156108b1576108b0614893565b5b60028111156108c3576108c2614893565b5b815250509050600060028111156108dd576108dc614893565b5b81610100015160028111156108f5576108f4614893565b5b14610935576040517f08c379a000000000000000000000000000000000000000000000000000000000815260040161092c90614198565b60405180910390fd5b806020015173ffffffffffffffffffffffffffffffffffffffff163373ffffffffffffffffffffffffffffffffffffffff16148061099957506109987fa49807205ce4d355092ef5a8a18f56e8913cf4a201fbe287825b095693c2177533610cbe565b5b6109d8576040517f08c379a00000000000000000000000000000000000000000000000000000000081526004016109cf90614158565b60405180910390fd5b60026008600084815260200190815260200160002060080160006101000a81548160ff02191690836002811115610a1257610a11614893565b5b0217905550601060009054906101000a900473ffffffffffffffffffffffffffffffffffffffff1673ffffffffffffffffffffffffffffffffffffffff16632ed7bae88260400151836020015184606001518560a001516040518563ffffffff1660e01b8152600401610a889493929190613f0c565b600060405180830381600087803b158015610aa257600080fd5b505af1158015610ab6573d6000803e3d6000fd5b505050507fc601fcdba72395d2bf26895fdc068bb88a1ff514bafce37723be90787ed0a4803383836040015184606001518560a00151604051610afd959493929190613fcd565b60405180910390a15050565b6000801b610b1e81610b1961222b565b612233565b81600f60006101000a81548173ffffffffffffffffffffffffffffffffffffffff021916908373ffffffffffffffffffffffffffffffffffffffff1602179055505050565b60065481565b7fa49807205ce4d355092ef5a8a18f56e8913cf4a201fbe287825b095693c21775610b9b81610b9661222b565b612233565b60005b84849050811015610c3a5782600a6000878785818110610bc157610bc06148c2565b5b9050602002016020810190610bd691906133a1565b73ffffffffffffffffffffffffffffffffffffffff1673ffffffffffffffffffffffffffffffffffffffff16815260200190815260200160002060006101000a81548160ff0219169083151502179055508080610c32906147b4565b915050610b9e565b5050505050565b7fa49807205ce4d355092ef5a8a18f56e8913cf4a201fbe287825b095693c2177581565b60045481565b60055481565b6000308989898989898989604051602001610c9499989796959493929190613da9565b60405160208183030381529060405280519060200120905098975050505050505050565b60015481565b600080600084815260200190815260200160002060000160008373ffffffffffffffffffffffffffffffffffffffff1673ffffffffffffffffffffffffffffffffffffffff16815260200190815260200160002060009054906101000a900460ff16905092915050565b610d30613071565b6008600083815260200190815260200160002060405180610120016040529081600082015481526020016001820160009054906101000a900473ffffffffffffffffffffffffffffffffffffffff1673ffffffffffffffffffffffffffffffffffffffff1673ffffffffffffffffffffffffffffffffffffffff1681526020016002820160009054906101000a900473ffffffffffffffffffffffffffffffffffffffff1673ffffffffffffffffffffffffffffffffffffffff1673ffffffffffffffffffffffffffffffffffffffff1681526020016003820154815260200160048201548152602001600582015481526020016006820160009054906101000a900473ffffffffffffffffffffffffffffffffffffffff1673ffffffffffffffffffffffffffffffffffffffff1673ffffffffffffffffffffffffffffffffffffffff168152602001600782015481526020016008820160009054906101000a900460ff166002811115610ea857610ea7614893565b5b6002811115610eba57610eb9614893565b5b815250509050919050565b6000600a60008373ffffffffffffffffffffffffffffffffffffffff1673ffffffffffffffffffffffffffffffffffffffff16815260200190815260200160002060009054906101000a900460ff169050919050565b6000801b81565b600654851015610f67576040517f08c379a0000000000000000000000000000000000000000000000000000000008152600401610f5e90614278565b60405180910390fd5b600454851115610fac576040517f08c379a0000000000000000000000000000000000000000000000000000000008152600401610fa390614218565b60405180910390fd5b600554871115610ff1576040517f08c379a0000000000000000000000000000000000000000000000000000000008152600401610fe890614238565b60405180910390fd5b600a60008a73ffffffffffffffffffffffffffffffffffffffff1673ffffffffffffffffffffffffffffffffffffffff16815260200190815260200160002060009054906101000a900460ff1661107d576040517f08c379a000000000000000000000000000000000000000000000000000000000815260040161107490614258565b60405180910390fd5b600c60008773ffffffffffffffffffffffffffffffffffffffff1673ffffffffffffffffffffffffffffffffffffffff16815260200190815260200160002060009054906101000a900460ff16611109576040517f08c379a0000000000000000000000000000000000000000000000000000000008152600401611100906141d8565b60405180910390fd5b6111337fa49807205ce4d355092ef5a8a18f56e8913cf4a201fbe287825b095693c2177533610cbe565b61132257428411611179576040517f08c379a0000000000000000000000000000000000000000000000000000000008152600401611170906142b8565b60405180910390fd5b600061118b8b8b8b8b8b8b8b8b610c71565b9050600e600082815260200190815260200160002060009054906101000a900460ff16156111ee576040517f08c379a00000000000000000000000000000000000000000000000000000000081526004016111e5906142f8565b60405180910390fd5b600061124f84848080601f016020809104026020016040519081016040528093929190818152602001838380828437600081840152601f19601f8201169050808301925050505050505061124184612491565b6124c190919063ffffffff16565b9050600073ffffffffffffffffffffffffffffffffffffffff168173ffffffffffffffffffffffffffffffffffffffff16141580156112b457506112b37fa49807205ce4d355092ef5a8a18f56e8913cf4a201fbe287825b095693c2177582610cbe565b5b6112f3576040517f08c379a00000000000000000000000000000000000000000000000000000000081526004016112ea90614338565b60405180910390fd5b6001600e600084815260200190815260200160002060006101000a81548160ff02191690831515021790555050505b8873ffffffffffffffffffffffffffffffffffffffff166301ffc9a77fd9b67a26000000000000000000000000000000000000000000000000000000006040518263ffffffff1660e01b815260040161137b919061409b565b60206040518083038186803b15801561139357600080fd5b505afa1580156113a7573d6000803e3d6000fd5b505050506040513d601f19601f820116820180604052508101906113cb91906136e1565b6113d457600196505b601060009054906101000a900473ffffffffffffffffffffffffffffffffffffffff1673ffffffffffffffffffffffffffffffffffffffff166340fd58298a8c8b8b6040518563ffffffff1660e01b81526004016114359493929190613f0c565b600060405180830381600087803b15801561144f57600080fd5b505af1158015611463573d6000803e3d6000fd5b505050506007600081548092919061147a906147b4565b9190505550600060405180610120016040528060075481526020018c73ffffffffffffffffffffffffffffffffffffffff1681526020018b73ffffffffffffffffffffffffffffffffffffffff1681526020018a81526020018981526020018981526020018873ffffffffffffffffffffffffffffffffffffffff1681526020018781526020016000600281111561151557611514614893565b5b8152509050806008600060075481526020019081526020016000206000820151816000015560208201518160010160006101000a81548173ffffffffffffffffffffffffffffffffffffffff021916908373ffffffffffffffffffffffffffffffffffffffff16021790555060408201518160020160006101000a81548173ffffffffffffffffffffffffffffffffffffffff021916908373ffffffffffffffffffffffffffffffffffffffff160217905550606082015181600301556080820151816004015560a0820151816005015560c08201518160060160006101000a81548173ffffffffffffffffffffffffffffffffffffffff021916908373ffffffffffffffffffffffffffffffffffffffff16021790555060e082015181600701556101008201518160080160006101000a81548160ff0219169083600281111561166357611662614893565b5b02179055509050507f8c043961a2a3de4608ff0a3647fa6bdef2510bbf7ea923cd9b68bd43de4040e46007548c8c8c8c8c8c6040516116a897969594939291906143cf565b60405180910390a15050505050505050505050565b7fa49807205ce4d355092ef5a8a18f56e8913cf4a201fbe287825b095693c217756116ef816116ea61222b565b612233565b670de0b6b3a76400008261170391906145a0565b6004819055505050565b7fa49807205ce4d355092ef5a8a18f56e8913cf4a201fbe287825b095693c2177561173f8161173a61222b565b612233565b600354821115611784576040517f08c379a000000000000000000000000000000000000000000000000000000000815260040161177b90614318565b60405180910390fd5b816002819055505050565b7fa49807205ce4d355092ef5a8a18f56e8913cf4a201fbe287825b095693c217756117c1816117bc61222b565b612233565b60005b848490508110156118605782600c60008787858181106117e7576117e66148c2565b5b90506020020160208101906117fc91906133a1565b73ffffffffffffffffffffffffffffffffffffffff1673ffffffffffffffffffffffffffffffffffffffff16815260200190815260200160002060006101000a81548160ff0219169083151502179055508080611858906147b4565b9150506117c4565b5050505050565b60035481565b6000600960008373ffffffffffffffffffffffffffffffffffffffff1673ffffffffffffffffffffffffffffffffffffffff16815260200190815260200160002060008473ffffffffffffffffffffffffffffffffffffffff1673ffffffffffffffffffffffffffffffffffffffff16815260200190815260200160002054905092915050565b6118fd82610666565b61190e8161190961222b565b612233565b61191883836123b0565b505050565b60006008600084815260200190815260200160002060405180610120016040529081600082015481526020016001820160009054906101000a900473ffffffffffffffffffffffffffffffffffffffff1673ffffffffffffffffffffffffffffffffffffffff1673ffffffffffffffffffffffffffffffffffffffff1681526020016002820160009054906101000a900473ffffffffffffffffffffffffffffffffffffffff1673ffffffffffffffffffffffffffffffffffffffff1673ffffffffffffffffffffffffffffffffffffffff1681526020016003820154815260200160048201548152602001600582015481526020016006820160009054906101000a900473ffffffffffffffffffffffffffffffffffffffff1673ffffffffffffffffffffffffffffffffffffffff1673ffffffffffffffffffffffffffffffffffffffff168152602001600782015481526020016008820160009054906101000a900460ff166002811115611a9757611a96614893565b5b6002811115611aa957611aa8614893565b5b81525050905060006002811115611ac357611ac2614893565b5b8161010001516002811115611adb57611ada614893565b5b14611b1b576040517f08c379a0000000000000000000000000000000000000000000000000000000008152600401611b1290614178565b60405180910390fd5b8060a00151821115611b62576040517f08c379a0000000000000000000000000000000000000000000000000000000008152600401611b5990614118565b60405180910390fd5b806020015173ffffffffffffffffffffffffffffffffffffffff163373ffffffffffffffffffffffffffffffffffffffff161415611bd5576040517f08c379a0000000000000000000000000000000000000000000000000000000008152600401611bcc906142d8565b60405180910390fd5b6000828260e00151611be791906145a0565b905060008260c001519050600080611bfe846124e8565b9150915060008373ffffffffffffffffffffffffffffffffffffffff1663dd62ed3e33306040518363ffffffff1660e01b8152600401611c3f929190613eac565b60206040518083038186803b158015611c5757600080fd5b505afa158015611c6b573d6000803e3d6000fd5b505050506040513d601f19601f82011682018060405250810190611c8f91906137d5565b90508185611c9d9190614519565b811015611cdf576040517f08c379a0000000000000000000000000000000000000000000000000000000008152600401611cd6906141f8565b60405180910390fd5b8373ffffffffffffffffffffffffffffffffffffffff166323b872dd33308589611d099190614519565b6040518463ffffffff1660e01b8152600401611d2793929190613ed5565b602060405180830381600087803b158015611d4157600080fd5b505af1158015611d55573d6000803e3d6000fd5b505050506040513d601f19601f82011682018060405250810190611d7991906136e1565b50611ddc8660200151338860c001518860405180604001604052808881526020018981525060405180606001604052808d6040015173ffffffffffffffffffffffffffffffffffffffff1681526020018d6060015181526020018e81525061252a565b6000878760a00151611dee91906145fa565b905080600860008b8152602001908152602001600020600501819055506000811415611e8b576001600860008b815260200190815260200160002060080160006101000a81548160ff02191690836002811115611e4e57611e4d614893565b5b02179055507f92f64ca637d023f354075a4be751b169c1a8a9ccb6d33cdd0cb352054399572789604051611e8291906143b4565b60405180910390a15b7f3b599f6217e39be59216b60e543ce0d4c7d534fe64dd9d962334924e7819894e89338a604051611ebe9392919061443e565b60405180910390a1505050505050505050565b7fa49807205ce4d355092ef5a8a18f56e8913cf4a201fbe287825b095693c21775611f0381611efe61222b565b612233565b600354821115611f48576040517f08c379a0000000000000000000000000000000000000000000000000000000008152600401611f3f90614318565b60405180910390fd5b816001819055505050565b7fa49807205ce4d355092ef5a8a18f56e8913cf4a201fbe287825b095693c21775611f8581611f8061222b565b612233565b816005819055505050565b80600960003373ffffffffffffffffffffffffffffffffffffffff1673ffffffffffffffffffffffffffffffffffffffff16815260200190815260200160002060008473ffffffffffffffffffffffffffffffffffffffff1673ffffffffffffffffffffffffffffffffffffffff16815260200190815260200160002054101561204f576040517f08c379a000000000000000000000000000000000000000000000000000000000815260040161204690614358565b60405180910390fd5b80600960003373ffffffffffffffffffffffffffffffffffffffff1673ffffffffffffffffffffffffffffffffffffffff16815260200190815260200160002060008473ffffffffffffffffffffffffffffffffffffffff1673ffffffffffffffffffffffffffffffffffffffff16815260200190815260200160002060008282546120db91906145fa565b925050819055508173ffffffffffffffffffffffffffffffffffffffff1663a9059cbb33836040518363ffffffff1660e01b815260040161211d929190613f51565b602060405180830381600087803b15801561213757600080fd5b505af115801561214b573d6000803e3d6000fd5b505050506040513d601f19601f8201168201806040525081019061216f91906136e1565b505050565b7fa49807205ce4d355092ef5a8a18f56e8913cf4a201fbe287825b095693c217756121a6816121a161222b565b612233565b816004819055505050565b60007f7965db0b000000000000000000000000000000000000000000000000000000007bffffffffffffffffffffffffffffffffffffffffffffffffffffffff1916827bffffffffffffffffffffffffffffffffffffffffffffffffffffffff19161480612224575061222382612600565b5b9050919050565b600033905090565b61223d8282610cbe565b6122cc576122628173ffffffffffffffffffffffffffffffffffffffff16601461266a565b6122708360001c602061266a565b604051602001612281929190613e72565b6040516020818303038152906040526040517f08c379a00000000000000000000000000000000000000000000000000000000081526004016122c391906140b6565b60405180910390fd5b5050565b6122da8282610cbe565b6123ac57600160008084815260200190815260200160002060000160008373ffffffffffffffffffffffffffffffffffffffff1673ffffffffffffffffffffffffffffffffffffffff16815260200190815260200160002060006101000a81548160ff02191690831515021790555061235161222b565b73ffffffffffffffffffffffffffffffffffffffff168173ffffffffffffffffffffffffffffffffffffffff16837f2f8788117e7eff1d82e926ec794901d17c78024a50270940304540a733656f0d60405160405180910390a45b5050565b6123ba8282610cbe565b1561248d57600080600084815260200190815260200160002060000160008373ffffffffffffffffffffffffffffffffffffffff1673ffffffffffffffffffffffffffffffffffffffff16815260200190815260200160002060006101000a81548160ff02191690831515021790555061243261222b565b73ffffffffffffffffffffffffffffffffffffffff168173ffffffffffffffffffffffffffffffffffffffff16837ff6391f5c32d9c69d2a47ea670b442974b53935d1edc7fd64eb21e047a839171b60405160405180910390a45b5050565b6000816040516020016124a49190613e4c565b604051602081830303815290604052805190602001209050919050565b60008060006124d085856128a6565b915091506124dd81612929565b819250505092915050565b600080600354600154846124fc91906145a0565b612506919061456f565b90506003546002548461251991906145a0565b612523919061456f565b9150915091565b600061254b8786868660200151876000015187600001518860200151612afe565b9050612558878683612e7e565b601060009054906101000a900473ffffffffffffffffffffffffffffffffffffffff1673ffffffffffffffffffffffffffffffffffffffff16632ed7bae8836000015188856020015186604001516040518563ffffffff1660e01b81526004016125c59493929190613f0c565b600060405180830381600087803b1580156125df57600080fd5b505af11580156125f3573d6000803e3d6000fd5b5050505050505050505050565b60007f01ffc9a7000000000000000000000000000000000000000000000000000000007bffffffffffffffffffffffffffffffffffffffffffffffffffffffff1916827bffffffffffffffffffffffffffffffffffffffffffffffffffffffff1916149050919050565b60606000600283600261267d91906145a0565b6126879190614519565b67ffffffffffffffff8111156126a05761269f6148f1565b5b6040519080825280601f01601f1916602001820160405280156126d25781602001600182028036833780820191505090505b5090507f30000000000000000000000000000000000000000000000000000000000000008160008151811061270a576127096148c2565b5b60200101907effffffffffffffffffffffffffffffffffffffffffffffffffffffffffffff1916908160001a9053507f78000000000000000000000000000000000000000000000000000000000000008160018151811061276e5761276d6148c2565b5b60200101907effffffffffffffffffffffffffffffffffffffffffffffffffffffffffffff1916908160001a905350600060018460026127ae91906145a0565b6127b89190614519565b90505b6001811115612858577f3031323334353637383961626364656600000000000000000000000000000000600f8616601081106127fa576127f96148c2565b5b1a60f81b828281518110612811576128106148c2565b5b60200101907effffffffffffffffffffffffffffffffffffffffffffffffffffffffffffff1916908160001a905350600485901c94508061285190614759565b90506127bb565b506000841461289c576040517f08c379a0000000000000000000000000000000000000000000000000000000008152600401612893906140f8565b60405180910390fd5b8091505092915050565b6000806041835114156128e85760008060006020860151925060408601519150606086015160001a90506128dc87828585612f16565b94509450505050612922565b60408351141561291957600080602085015191506040850151905061290e868383613023565b935093505050612922565b60006002915091505b9250929050565b6000600481111561293d5761293c614893565b5b8160048111156129505761294f614893565b5b141561295b57612afb565b6001600481111561296f5761296e614893565b5b81600481111561298257612981614893565b5b14156129c3576040517f08c379a00000000000000000000000000000000000000000000000000000000081526004016129ba906140d8565b60405180910390fd5b600260048111156129d7576129d6614893565b5b8160048111156129ea576129e9614893565b5b1415612a2b576040517f08c379a0000000000000000000000000000000000000000000000000000000008152600401612a2290614138565b60405180910390fd5b60036004811115612a3f57612a3e614893565b5b816004811115612a5257612a51614893565b5b1415612a93576040517f08c379a0000000000000000000000000000000000000000000000000000000008152600401612a8a906141b8565b60405180910390fd5b600480811115612aa657612aa5614893565b5b816004811115612ab957612ab8614893565b5b1415612afa576040517f08c379a0000000000000000000000000000000000000000000000000000000008152600401612af190614298565b60405180910390fd5b5b50565b600084861115612b17578486612b1491906145fa565b95505b859050612b52600f60009054906101000a900473ffffffffffffffffffffffffffffffffffffffff16888688612b4d9190614519565b612e7e565b8273ffffffffffffffffffffffffffffffffffffffff166301ffc9a763b779958460e01b6040518263ffffffff1660e01b8152600401612b92919061409b565b60206040518083038186803b158015612baa57600080fd5b505afa158015612bbe573d6000803e3d6000fd5b505050506040513d601f19601f82011682018060405250810190612be291906136e1565b612beb57612e73565b600083905060008173ffffffffffffffffffffffffffffffffffffffff1663b9c4d9fb856040518263ffffffff1660e01b8152600401612c2b91906143b4565b60006040518083038186803b158015612c4357600080fd5b505afa158015612c57573d6000803e3d6000fd5b505050506040513d6000823e3d601f19601f82011682018060405250810190612c80919061364f565b905060008273ffffffffffffffffffffffffffffffffffffffff16630ebd4c7f866040518263ffffffff1660e01b8152600401612cbd91906143b4565b60006040518083038186803b158015612cd557600080fd5b505afa158015612ce9573d6000803e3d6000fd5b505050506040513d6000823e3d601f19601f82011682018060405250810190612d129190613698565b905060005b8151811015612e6e578b73ffffffffffffffffffffffffffffffffffffffff16838281518110612d4a57612d496148c2565b5b602002602001015173ffffffffffffffffffffffffffffffffffffffff161415612d7357612e5b565b6000851415612d8157612e6e565b6000600354838381518110612d9957612d986148c2565b5b60200260200101518c612dac91906145a0565b612db6919061456f565b905085811115612dcc5785905060009550612ddb565b8086612dd891906145fa565b95505b612e00848381518110612df157612df06148c2565b5b60200260200101518d83612e7e565b7f27c4f0403323142b599832f26acd21c74a9e5b809f2215726e244a4ac588cd7d8888868581518110612e3657612e356148c2565b5b60200260200101518f85604051612e51959493929190613f7a565b60405180910390a1505b8080612e66906147b4565b915050612d17565b505050505b979650505050505050565b80600960008573ffffffffffffffffffffffffffffffffffffffff1673ffffffffffffffffffffffffffffffffffffffff16815260200190815260200160002060008473ffffffffffffffffffffffffffffffffffffffff1673ffffffffffffffffffffffffffffffffffffffff1681526020019081526020016000206000828254612f0a9190614519565b92505081905550505050565b6000807f7fffffffffffffffffffffffffffffff5d576e7357a4501ddfe92f46681b20a08360001c1115612f5157600060039150915061301a565b601b8560ff1614158015612f695750601c8560ff1614155b15612f7b57600060049150915061301a565b600060018787878760405160008152602001604052604051612fa09493929190614056565b6020604051602081039080840390855afa158015612fc2573d6000803e3d6000fd5b505050602060405103519050600073ffffffffffffffffffffffffffffffffffffffff168173ffffffffffffffffffffffffffffffffffffffff1614156130115760006001925092505061301a565b80600092509250505b94509492505050565b6000806000807f7fffffffffffffffffffffffffffffffffffffffffffffffffffffffffffffff85169150601b8560ff1c01905061306387828885612f16565b935093505050935093915050565b60405180610120016040528060008152602001600073ffffffffffffffffffffffffffffffffffffffff168152602001600073ffffffffffffffffffffffffffffffffffffffff168152602001600081526020016000815260200160008152602001600073ffffffffffffffffffffffffffffffffffffffff168152602001600081526020016000600281111561310b5761310a614893565b5b81525090565b600061312461311f8461449a565b614475565b905080838252602082019050828560208602820111156131475761314661492a565b5b60005b85811015613177578161315d8882613206565b84526020840193506020830192505060018101905061314a565b5050509392505050565b600061319461318f846144c6565b614475565b905080838252602082019050828560208602820111156131b7576131b661492a565b5b60005b858110156131e757816131cd888261338c565b8452602084019350602083019250506001810190506131ba565b5050509392505050565b60008135905061320081614e50565b92915050565b60008151905061321581614e67565b92915050565b60008083601f84011261323157613230614925565b5b8235905067ffffffffffffffff81111561324e5761324d614920565b5b60208301915083602082028301111561326a5761326961492a565b5b9250929050565b600082601f83011261328657613285614925565b5b8151613296848260208601613111565b91505092915050565b600082601f8301126132b4576132b3614925565b5b81516132c4848260208601613181565b91505092915050565b6000813590506132dc81614e7e565b92915050565b6000815190506132f181614e7e565b92915050565b60008135905061330681614e95565b92915050565b60008135905061331b81614eac565b92915050565b60008083601f84011261333757613336614925565b5b8235905067ffffffffffffffff81111561335457613353614920565b5b6020830191508360018202830111156133705761336f61492a565b5b9250929050565b60008135905061338681614ec3565b92915050565b60008151905061339b81614ec3565b92915050565b6000602082840312156133b7576133b6614934565b5b60006133c5848285016131f1565b91505092915050565b600080604083850312156133e5576133e4614934565b5b60006133f3858286016131f1565b9250506020613404858286016131f1565b9150509250929050565b600080600080600080600080610100898b03121561342f5761342e614934565b5b600061343d8b828c016131f1565b985050602061344e8b828c016131f1565b975050604061345f8b828c01613377565b96505060606134708b828c01613377565b95505060806134818b828c016131f1565b94505060a06134928b828c01613377565b93505060c06134a38b828c01613377565b92505060e06134b48b828c01613377565b9150509295985092959890939650565b6000806000806000806000806000806101208b8d0312156134e8576134e7614934565b5b60006134f68d828e016131f1565b9a505060206135078d828e016131f1565b99505060406135188d828e01613377565b98505060606135298d828e01613377565b975050608061353a8d828e016131f1565b96505060a061354b8d828e01613377565b95505060c061355c8d828e01613377565b94505060e061356d8d828e01613377565b9350506101008b013567ffffffffffffffff81111561358f5761358e61492f565b5b61359b8d828e01613321565b92509250509295989b9194979a5092959850565b600080604083850312156135c6576135c5614934565b5b60006135d4858286016131f1565b92505060206135e585828601613377565b9150509250929050565b60008060006040848603121561360857613607614934565b5b600084013567ffffffffffffffff8111156136265761362561492f565b5b6136328682870161321b565b93509350506020613645868287016132cd565b9150509250925092565b60006020828403121561366557613664614934565b5b600082015167ffffffffffffffff8111156136835761368261492f565b5b61368f84828501613271565b91505092915050565b6000602082840312156136ae576136ad614934565b5b600082015167ffffffffffffffff8111156136cc576136cb61492f565b5b6136d88482850161329f565b91505092915050565b6000602082840312156136f7576136f6614934565b5b6000613705848285016132e2565b91505092915050565b60006020828403121561372457613723614934565b5b6000613732848285016132f7565b91505092915050565b6000806040838503121561375257613751614934565b5b6000613760858286016132f7565b9250506020613771858286016131f1565b9150509250929050565b60006020828403121561379157613790614934565b5b600061379f8482850161330c565b91505092915050565b6000602082840312156137be576137bd614934565b5b60006137cc84828501613377565b91505092915050565b6000602082840312156137eb576137ea614934565b5b60006137f98482850161338c565b91505092915050565b6000806040838503121561381957613818614934565b5b600061382785828601613377565b925050602061383885828601613377565b9150509250929050565b61384b816146de565b82525050565b61385a8161462e565b82525050565b6138698161462e565b82525050565b61388061387b8261462e565b6147fd565b82525050565b61388f81614652565b82525050565b61389e8161465e565b82525050565b6138b56138b08261465e565b61480f565b82525050565b6138c481614668565b82525050565b6138d3816146f0565b82525050565b60006138e4826144f2565b6138ee81856144fd565b93506138fe818560208601614726565b61390781614939565b840191505092915050565b600061391d826144f2565b613927818561450e565b9350613937818560208601614726565b80840191505092915050565b60006139506018836144fd565b915061395b82614957565b602082019050919050565b60006139736020836144fd565b915061397e82614980565b602082019050919050565b6000613996601b836144fd565b91506139a1826149a9565b602082019050919050565b60006139b9601f836144fd565b91506139c4826149d2565b602082019050919050565b60006139dc601c8361450e565b91506139e7826149fb565b601c82019050919050565b60006139ff6029836144fd565b9150613a0a82614a24565b604082019050919050565b6000613a226012836144fd565b9150613a2d82614a73565b602082019050919050565b6000613a45601f836144fd565b9150613a5082614a9c565b602082019050919050565b6000613a686022836144fd565b9150613a7382614ac5565b604082019050919050565b6000613a8b6018836144fd565b9150613a9682614b14565b602082019050919050565b6000613aae6015836144fd565b9150613ab982614b3d565b602082019050919050565b6000613ad16012836144fd565b9150613adc82614b66565b602082019050919050565b6000613af46019836144fd565b9150613aff82614b8f565b602082019050919050565b6000613b17601e836144fd565b9150613b2282614bb8565b602082019050919050565b6000613b3a6011836144fd565b9150613b4582614be1565b602082019050919050565b6000613b5d6022836144fd565b9150613b6882614c0a565b604082019050919050565b6000613b806011836144fd565b9150613b8b82614c59565b602082019050919050565b6000613ba36017836144fd565b9150613bae82614c82565b602082019050919050565b6000613bc66013836144fd565b9150613bd182614cab565b602082019050919050565b6000613be960178361450e565b9150613bf482614cd4565b601782019050919050565b6000613c0c602a836144fd565b9150613c1782614cfd565b604082019050919050565b6000613c2f6012836144fd565b9150613c3a82614d4c565b602082019050919050565b6000613c526021836144fd565b9150613c5d82614d75565b604082019050919050565b6000613c7560118361450e565b9150613c8082614dc4565b601182019050919050565b6000613c98602f836144fd565b9150613ca382614ded565b604082019050919050565b61012082016000820151613cc56000850182613d65565b506020820151613cd86020850182613851565b506040820151613ceb6040850182613851565b506060820151613cfe6060850182613d65565b506080820151613d116080850182613d65565b5060a0820151613d2460a0850182613d65565b5060c0820151613d3760c0850182613851565b5060e0820151613d4a60e0850182613d65565b50610100820151613d5f6101008501826138ca565b50505050565b613d6e816146c7565b82525050565b613d7d816146c7565b82525050565b613d94613d8f826146c7565b61482b565b82525050565b613da3816146d1565b82525050565b6000613db5828c61386f565b601482019150613dc5828b61386f565b601482019150613dd5828a61386f565b601482019150613de58289613d83565b602082019150613df58288613d83565b602082019150613e05828761386f565b601482019150613e158286613d83565b602082019150613e258285613d83565b602082019150613e358284613d83565b6020820191508190509a9950505050505050505050565b6000613e57826139cf565b9150613e6382846138a4565b60208201915081905092915050565b6000613e7d82613bdc565b9150613e898285613912565b9150613e9482613c68565b9150613ea08284613912565b91508190509392505050565b6000604082019050613ec16000830185613860565b613ece6020830184613860565b9392505050565b6000606082019050613eea6000830186613860565b613ef76020830185613860565b613f046040830184613d74565b949350505050565b6000608082019050613f216000830187613860565b613f2e6020830186613860565b613f3b6040830185613d74565b613f486060830184613d74565b95945050505050565b6000604082019050613f666000830185613860565b613f736020830184613d74565b9392505050565b600060a082019050613f8f6000830188613860565b613f9c6020830187613d74565b613fa96040830186613842565b613fb66060830185613860565b613fc36080830184613d74565b9695505050505050565b600060a082019050613fe26000830188613860565b613fef6020830187613d74565b613ffc6040830186613860565b6140096060830185613d74565b6140166080830184613d74565b9695505050505050565b60006020820190506140356000830184613886565b92915050565b60006020820190506140506000830184613895565b92915050565b600060808201905061406b6000830187613895565b6140786020830186613d9a565b6140856040830185613895565b6140926060830184613895565b95945050505050565b60006020820190506140b060008301846138bb565b92915050565b600060208201905081810360008301526140d081846138d9565b905092915050565b600060208201905081810360008301526140f181613943565b9050919050565b6000602082019050818103600083015261411181613966565b9050919050565b6000602082019050818103600083015261413181613989565b9050919050565b60006020820190508181036000830152614151816139ac565b9050919050565b60006020820190508181036000830152614171816139f2565b9050919050565b6000602082019050818103600083015261419181613a15565b9050919050565b600060208201905081810360008301526141b181613a38565b9050919050565b600060208201905081810360008301526141d181613a5b565b9050919050565b600060208201905081810360008301526141f181613a7e565b9050919050565b6000602082019050818103600083015261421181613aa1565b9050919050565b6000602082019050818103600083015261423181613ac4565b9050919050565b6000602082019050818103600083015261425181613ae7565b9050919050565b6000602082019050818103600083015261427181613b0a565b9050919050565b6000602082019050818103600083015261429181613b2d565b9050919050565b600060208201905081810360008301526142b181613b50565b9050919050565b600060208201905081810360008301526142d181613b73565b9050919050565b600060208201905081810360008301526142f181613b96565b9050919050565b6000602082019050818103600083015261431181613bb9565b9050919050565b6000602082019050818103600083015261433181613bff565b9050919050565b6000602082019050818103600083015261435181613c22565b9050919050565b6000602082019050818103600083015261437181613c45565b9050919050565b6000602082019050818103600083015261439181613c8b565b9050919050565b6000610120820190506143ae6000830184613cae565b92915050565b60006020820190506143c96000830184613d74565b92915050565b600060e0820190506143e4600083018a613d74565b6143f16020830189613860565b6143fe6040830188613860565b61440b6060830187613d74565b6144186080830186613d74565b61442560a0830185613860565b61443260c0830184613d74565b98975050505050505050565b60006060820190506144536000830186613d74565b6144606020830185613860565b61446d6040830184613d74565b949350505050565b600061447f614490565b905061448b8282614783565b919050565b6000604051905090565b600067ffffffffffffffff8211156144b5576144b46148f1565b5b602082029050602081019050919050565b600067ffffffffffffffff8211156144e1576144e06148f1565b5b602082029050602081019050919050565b600081519050919050565b600082825260208201905092915050565b600081905092915050565b6000614524826146c7565b915061452f836146c7565b9250827fffffffffffffffffffffffffffffffffffffffffffffffffffffffffffffffff0382111561456457614563614835565b5b828201905092915050565b600061457a826146c7565b9150614585836146c7565b92508261459557614594614864565b5b828204905092915050565b60006145ab826146c7565b91506145b6836146c7565b9250817fffffffffffffffffffffffffffffffffffffffffffffffffffffffffffffffff04831182151516156145ef576145ee614835565b5b828202905092915050565b6000614605826146c7565b9150614610836146c7565b92508282101561462357614622614835565b5b828203905092915050565b6000614639826146a7565b9050919050565b600061464b826146a7565b9050919050565b60008115159050919050565b6000819050919050565b60007fffffffff0000000000000000000000000000000000000000000000000000000082169050919050565b60008190506146a282614e3c565b919050565b600073ffffffffffffffffffffffffffffffffffffffff82169050919050565b6000819050919050565b600060ff82169050919050565b60006146e982614702565b9050919050565b60006146fb82614694565b9050919050565b600061470d82614714565b9050919050565b600061471f826146a7565b9050919050565b60005b83811015614744578082015181840152602081019050614729565b83811115614753576000848401525b50505050565b6000614764826146c7565b9150600082141561477857614777614835565b5b600182039050919050565b61478c82614939565b810181811067ffffffffffffffff821117156147ab576147aa6148f1565b5b80604052505050565b60006147bf826146c7565b91507fffffffffffffffffffffffffffffffffffffffffffffffffffffffffffffffff8214156147f2576147f1614835565b5b600182019050919050565b600061480882614819565b9050919050565b6000819050919050565b60006148248261494a565b9050919050565b6000819050919050565b7f4e487b7100000000000000000000000000000000000000000000000000000000600052601160045260246000fd5b7f4e487b7100000000000000000000000000000000000000000000000000000000600052601260045260246000fd5b7f4e487b7100000000000000000000000000000000000000000000000000000000600052602160045260246000fd5b7f4e487b7100000000000000000000000000000000000000000000000000000000600052603260045260246000fd5b7f4e487b7100000000000000000000000000000000000000000000000000000000600052604160045260246000fd5b600080fd5b600080fd5b600080fd5b600080fd5b600080fd5b6000601f19601f8301169050919050565b60008160601b9050919050565b7f45434453413a20696e76616c6964207369676e61747572650000000000000000600082015250565b7f537472696e67733a20686578206c656e67746820696e73756666696369656e74600082015250565b7f4e6f7420656e6f75676820746f6b656e7320666f722073616c652e0000000000600082015250565b7f45434453413a20696e76616c6964207369676e6174757265206c656e67746800600082015250565b7f19457468657265756d205369676e6564204d6573736167653a0a333200000000600082015250565b7f4f6e6c792073656c6c6572206f722061646d696e2063616e20636c6f7365207460008201527f68652074726164652e0000000000000000000000000000000000000000000000602082015250565b7f5472616465206973206e6f74206f70656e2e0000000000000000000000000000600082015250565b7f4f6e6c79206f70656e207472616465732063616e20626520636c6f7365642e00600082015250565b7f45434453413a20696e76616c6964207369676e6174757265202773272076616c60008201527f7565000000000000000000000000000000000000000000000000000000000000602082015250565b7f43757272656e6379206973206e6f7420616c6c6f7765642e0000000000000000600082015250565b7f416c6c6f77616e636520697320746f6f206c6f772e0000000000000000000000600082015250565b7f507269636520697320746f6f20686967682e0000000000000000000000000000600082015250565b7f5175616e746974792065786365656473206d6178696d756d2e00000000000000600082015250565b7f546f6b656e20636f6e7472616374206973206e6f7420616c6c6f7765642e0000600082015250565b7f507269636520697320746f6f206c6f772e000000000000000000000000000000600082015250565b7f45434453413a20696e76616c6964207369676e6174757265202776272076616c60008201527f7565000000000000000000000000000000000000000000000000000000000000602082015250565b7f417070726f76616c20657870697265642e000000000000000000000000000000600082015250565b7f53656c6c65722063616e6e6f742062652062757965722e000000000000000000600082015250565b7f417070726f76616c206578686175737465642e00000000000000000000000000600082015250565b7f416363657373436f6e74726f6c3a206163636f756e7420000000000000000000600082015250565b7f4665652063616e6e6f7420626520686967686572207468616e2068756e64726560008201527f642070657263656e742e00000000000000000000000000000000000000000000602082015250565b7f496e76616c6964207369676e61747572652e0000000000000000000000000000600082015250565b7f496e73756666696369656e742062616c616e636520746f20776974686472617760008201527f2e00000000000000000000000000000000000000000000000000000000000000602082015250565b7f206973206d697373696e6720726f6c6520000000000000000000000000000000600082015250565b7f416363657373436f6e74726f6c3a2063616e206f6e6c792072656e6f756e636560008201527f20726f6c657320666f722073656c660000000000000000000000000000000000602082015250565b60038110614e4d57614e4c614893565b5b50565b614e598161462e565b8114614e6457600080fd5b50565b614e7081614640565b8114614e7b57600080fd5b50565b614e8781614652565b8114614e9257600080fd5b50565b614e9e8161465e565b8114614ea957600080fd5b50565b614eb581614668565b8114614ec057600080fd5b50565b614ecc816146c7565b8114614ed757600080fd5b5056fea264697066735822122057dcf47908f343288890feea3f99e65b3ef14e3ace6adfdd4d43a2ba61c82cb964736f6c63430008070033",
  "immutableReferences": {},
  "source": "// SPDX-License-Identifier: MIT\npragma solidity ^0.8.0;\n\nimport \"@openzeppelin/contracts/access/AccessControl.sol\";\nimport \"@openzeppelin/contracts/token/ERC20/IERC20.sol\";\nimport \"@openzeppelin/contracts/utils/cryptography/ECDSA.sol\";\nimport \"@openzeppelin/contracts/security/Pausable.sol\";\n\nimport \"./MarketWalletV1.sol\";\nimport \"./HasSecondarySaleFees.sol\";\n\nenum TradeStatus { Active, Sold, Cancelled }\n\nstruct Trade {\n  uint id;\n  address seller;\n  address token;\n  uint tokenId;\n  uint quantity;\n  uint available;\n  address currency;\n  uint price;\n  TradeStatus status;\n}\n\nstruct MarketFees {\n  uint buyer;\n  uint seller;\n}\n\nstruct TokenOrder {\n  address token;\n  uint id;\n  uint quantity;\n}\n\ncontract MarketV1 is AccessControl {\n  using ECDSA for bytes32;\n\n  bytes internal constant EMPTY = \"\";\n\n  uint256 public buyerFeePct = 5000;\n  uint256 public sellerFeePct = 5000;\n  uint256 public hundredPct = 10**5;\n\n  uint256 public maxTokenPrice = 10**6 * 1 ether;\n  uint256 public maxTradeQuantity = 10**6;\n  uint256 public minTokenPrice = hundredPct;\n\n  // mapping(bytes => uint[]) public tradeHistory;\n\n  uint private _tradeId = 0;\n\n  mapping(uint => Trade) private _trades;\n\n  // seller => (currency => revenue)\n  mapping(address => mapping(address => uint)) internal _earnings;\n\n  // contract address => isAuthorized\n  mapping(address => bool) internal _approvedTokens;\n  uint private _approvedTokenCount = 0;\n\n  // contract address => isAuthorized\n  mapping(address => bool) internal _approvedCurrencies;\n  uint private _approvedCurrenciesCount = 0;\n  \n  mapping(bytes32 => bool) private _approvalsExhausted;\n\n  address internal _feeBeneficiary;\n\n  MarketWalletV1 internal _wallet;\n\n  event ListForSale(\n    uint tradeId,\n    address seller,\n    address tokenContract,\n    uint tokenId,\n    uint quantity,\n    address currency,\n    uint price\n  );\n\n  event Sold(\n    uint tradeId\n  );\n\n  event Buy(\n    uint tradeId,\n    address buyer,\n    uint quantity\n  );\n\n  event CancelListing(\n    address operator,\n    uint tradeId,\n    address tokenContract,\n    uint tokenId,\n    uint returned\n  );\n\n  event RoyaltyPayment(\n    address token,\n    uint tokenId,\n    address beneficiary,\n    address currency,\n    uint amount\n  );\n  \n  bytes32 public constant ADMIN_ROLE = keccak256(\"ADMIN_ROLE\");\n\n  bytes4 private constant _INTERFACE_ID_FEES = 0xb7799584;\n\n  constructor(MarketWalletV1 wallet) {\n    _setupRole(DEFAULT_ADMIN_ROLE, msg.sender);\n    \n    _setupRole(ADMIN_ROLE, msg.sender);\n    _setRoleAdmin(ADMIN_ROLE, DEFAULT_ADMIN_ROLE);\n\n    _feeBeneficiary = msg.sender;\n    _wallet = wallet;\n  }\n  \n  function supportsInterface(bytes4 interfaceID) override(AccessControl)\n    public view returns (bool) {\n    return super.supportsInterface(interfaceID);\n  }\n\n  function get(uint tradeId) public view returns (Trade memory) {\n    return _trades[tradeId];\n  }\n\n  function buy(uint tradeId, uint quantity) public {\n    Trade memory trade = _trades[tradeId];\n\n    // Require trade is still open\n    require(trade.status == TradeStatus.Active, \"Trade is not open.\");\n\n    // Check quantity\n    require(quantity <= trade.available, \"Not enough tokens for sale.\");\n\n    // Require buyer to be different from seller\n    require(msg.sender != trade.seller, \"Seller cannot be buyer.\");\n\n    // Calculate prices\n    uint subtotal = trade.price * quantity;\n\n    IERC20 currency = IERC20(trade.currency);\n\n    (uint sellerFee, uint buyerFee) = calculateMarketFees(subtotal);\n\n    uint allowance = currency.allowance(msg.sender, address(this));\n    require(allowance >= subtotal + buyerFee, \"Allowance is too low.\");\n\n    // Deposit currency for escrow\n    currency.transferFrom(\n      msg.sender,\n      address(this),\n      subtotal + buyerFee\n    );\n\n    exchange(\n      trade.seller,\n      msg.sender,\n      trade.currency,\n      subtotal,\n      MarketFees(\n        buyerFee,\n        sellerFee\n      ),\n      TokenOrder(\n        trade.token,\n        trade.tokenId,\n        quantity\n      )\n    );\n\n    uint available = trade.available - quantity;\n    _trades[tradeId].available = available;\n\n    if (available == 0) {\n      _trades[tradeId].status = TradeStatus.Sold;\n      emit Sold(tradeId);\n    }\n\n    emit Buy(\n      tradeId,\n      msg.sender,\n      quantity\n    );\n  }\n\n  function exchange(\n    address seller,\n    address buyer,\n    address currency,\n    uint subtotal,\n    MarketFees memory fees,\n    TokenOrder memory order\n  ) internal {\n    uint sellerNet = payAfterFees(\n      seller,\n      currency,\n      subtotal,\n      fees.seller,\n      fees.buyer,\n      order.token,\n      order.id\n    );\n\n    pay(seller, currency, sellerNet);\n\n    _wallet.give(\n      order.token,\n      buyer,\n      order.id,\n      order.quantity\n    );\n  }\n\n  function pay(address account, address currency, uint amount) internal {\n    _earnings[account][currency] += amount;\n  }\n\n  function calculateMarketFees(uint subtotal)\n    internal view returns (uint sellerFee, uint buyerFee) {\n    buyerFee = (subtotal * buyerFeePct) / hundredPct;\n    sellerFee = (subtotal * sellerFeePct) / hundredPct;\n  }\n\n  function payAfterFees(\n    address seller,\n    address currency,\n    uint subtotal,\n    uint sellerFee,\n    uint buyerFee,\n    address token,\n    uint tokenId\n  ) internal returns (uint sellerPay) {\n    if (subtotal > sellerFee)\n      subtotal = subtotal - sellerFee;\n      sellerPay = subtotal;\n    \n    // Pay market fees\n    pay(_feeBeneficiary, currency, sellerFee + buyerFee);\n\n    if (!IERC165(token).supportsInterface(_INTERFACE_ID_FEES))\n      return sellerPay;\n\n    HasSecondarySaleFees tokenWithFees = HasSecondarySaleFees(token);\n\n    address payable[] memory recipients =\n      tokenWithFees.getFeeRecipients(tokenId);\n\n    uint[] memory feeBps = tokenWithFees.getFeeBps(tokenId);\n\n    for (uint i = 0; i < feeBps.length; i++) {\n      if (recipients[i] == seller) continue;\n      if (sellerPay == 0) break;\n\n      uint fee = (subtotal * feeBps[i]) / hundredPct;\n\n      if (fee > sellerPay) {\n        fee = sellerPay;\n        sellerPay = 0;\n      } else {\n        sellerPay -= fee;\n      }\n\n      pay(recipients[i], currency, fee);\n\n      emit RoyaltyPayment(token, tokenId, recipients[i], currency, fee);\n    }\n  }\n\n  function getSaleAuthorizationHash(\n    address seller,\n    address token,\n    uint tokenId,\n    uint quantity,\n    address currency,\n    uint price,\n    uint expiry,\n    uint salt\n  ) public view returns (bytes32) {\n    return keccak256(abi.encodePacked(\n      address(this),\n      seller,\n      token,\n      tokenId,\n      quantity,\n      currency,\n      price,\n      expiry,\n      salt\n    ));\n  }\n\n  function listForSale(\n    address seller,\n    address token,\n    uint tokenId,\n    uint quantity,\n    address currency,\n    uint price,\n    uint expiry,\n    uint salt,\n    bytes calldata signature\n  ) public {\n    require(price >= minTokenPrice, \"Price is too low.\");\n    require(price <= maxTokenPrice, \"Price is too high.\");\n    require(quantity <= maxTradeQuantity, \"Quantity exceeds maximum.\");\n\n    require(_approvedTokens[token], \"Token contract is not allowed.\");\n    require(_approvedCurrencies[currency], \"Currency is not allowed.\");\n\n    if (!hasRole(ADMIN_ROLE, msg.sender)) {\n      require(expiry > block.timestamp, \"Approval expired.\");\n\n      bytes32 saleHash = getSaleAuthorizationHash(\n        seller,\n        token,\n        tokenId,\n        quantity,\n        currency,\n        price,\n        expiry,\n        salt\n      );\n\n      require(!_approvalsExhausted[saleHash], \"Approval exhausted.\");\n      \n      address recoveredAddress = saleHash\n        .toEthSignedMessageHash()\n        .recover(signature);\n      \n      require(\n        recoveredAddress != address(0)\n          && hasRole(ADMIN_ROLE, recoveredAddress),\n        \"Invalid signature.\"\n      );\n\n      _approvalsExhausted[saleHash] = true;\n    }\n\n    if (!IERC165(token).supportsInterface(type(IERC1155).interfaceId))\n      quantity = 1;\n\n    _wallet.take(\n      token,\n      seller,\n      tokenId,\n      quantity\n    );\n\n    // Create trade\n    _tradeId++;\n\n    Trade memory trade = Trade(\n      _tradeId,\n      seller,\n      token,\n      tokenId,\n      quantity,\n      quantity,\n      currency,\n      price,\n      TradeStatus.Active\n    );\n\n    _trades[_tradeId] = trade;\n\n    // tradeHistory[\n    //   abi.encodePacked(\n    //     token,\n    //     tokenId\n    //   )\n    // ].push(_tradeId);\n\n    emit ListForSale(\n      _tradeId,\n      seller,\n      token,\n      tokenId,\n      quantity,\n      currency,\n      price\n    );\n  }\n\n  function cancel(uint256 tradeId) public {\n    Trade memory trade = _trades[tradeId];\n    \n    require(\n      trade.status == TradeStatus.Active,\n      \"Only open trades can be closed.\"\n    );\n\n    require(\n      msg.sender == trade.seller || hasRole(ADMIN_ROLE, msg.sender),\n      \"Only seller or admin can close the trade.\"\n    );\n    \n    // Mark trade as cancelled\n    _trades[tradeId].status = TradeStatus.Cancelled;\n\n    _wallet.give(\n      trade.token,\n      trade.seller,\n      trade.tokenId,\n      trade.available\n    );\n\n    emit CancelListing(\n      msg.sender,\n      tradeId,\n      trade.token,\n      trade.tokenId,\n      trade.available\n    );\n  }\n\n  function getBalance(address currency, address account) public view returns (uint) {\n    return _earnings[account][currency];\n  }\n\n  function withdraw(address currency, uint amount) public {\n    require(\n      _earnings[msg.sender][currency] >= amount,\n      \"Insufficient balance to withdraw.\"\n    );\n\n    _earnings[msg.sender][currency] -= amount;\n\n    IERC20(currency).transfer(msg.sender, amount);\n  }\n\n  function isTokenApproved(address token) public view returns (bool) {\n    return _approvedTokens[token];\n  }\n\n  function isCurrencyApproved(address currency) public view returns (bool) {\n    return _approvedCurrencies[currency];\n  }\n\n  function setTokensApproval(address[] calldata tokens, bool isApproved) public onlyRole(ADMIN_ROLE) {\n    for (uint i = 0; i < tokens.length; i++) {\n      _approvedTokens[tokens[i]] = isApproved;\n    }\n  }\n\n  function setCurrenciesApproval(address[] calldata currencies, bool isApproved) public onlyRole(ADMIN_ROLE) {\n    for (uint i = 0; i < currencies.length; i++) {\n      _approvedCurrencies[currencies[i]] = isApproved;\n    }\n  }\n  \n  function setMaxTokenPriceEther(uint256 price) public onlyRole(ADMIN_ROLE) {\n    maxTokenPrice = price * 1 ether;\n  }\n  \n  function setMaxTokenPriceWei(uint256 price) public onlyRole(ADMIN_ROLE) {\n    maxTokenPrice = price;\n  }\n  \n  function setMaxTradeQuantity(uint256 quantity) public onlyRole(ADMIN_ROLE) {\n    maxTradeQuantity = quantity;\n  }\n\n  function setBuyerFeePct(uint256 pct) public onlyRole(ADMIN_ROLE) {\n    require(pct <= hundredPct, \"Fee cannot be higher than hundred percent.\");\n    buyerFeePct = pct;\n  }\n  \n  function setSellerFeePct(uint256 pct) public onlyRole(ADMIN_ROLE) {\n    require(pct <= hundredPct, \"Fee cannot be higher than hundred percent.\");\n    sellerFeePct = pct;\n  }\n\n  function setFeeBeneficiary(address beneficiary) public onlyRole(DEFAULT_ADMIN_ROLE) {\n    _feeBeneficiary = beneficiary;\n  }\n}\n",
  "sourcePath": "/Users/husnain/Desktop/fanbase/packages/ethereum/contracts/solidity/contracts/MarketV1.sol",
  "compiler": {
    "name": "solc",
    "version": "0.8.7+commit.e28d00a7.Emscripten.clang"
  },
  "schemaVersion": "3.4.3",
  "updatedAt": "2021-09-26T13:53:03.893Z",
  "devdoc": {
    "kind": "dev",
    "methods": {
      "getRoleAdmin(bytes32)": {
        "details": "Returns the admin role that controls `role`. See {grantRole} and {revokeRole}. To change a role's admin, use {_setRoleAdmin}."
      },
      "grantRole(bytes32,address)": {
        "details": "Grants `role` to `account`. If `account` had not been already granted `role`, emits a {RoleGranted} event. Requirements: - the caller must have ``role``'s admin role."
      },
      "hasRole(bytes32,address)": {
        "details": "Returns `true` if `account` has been granted `role`."
      },
      "renounceRole(bytes32,address)": {
        "details": "Revokes `role` from the calling account. Roles are often managed via {grantRole} and {revokeRole}: this function's purpose is to provide a mechanism for accounts to lose their privileges if they are compromised (such as when a trusted device is misplaced). If the calling account had been granted `role`, emits a {RoleRevoked} event. Requirements: - the caller must be `account`."
      },
      "revokeRole(bytes32,address)": {
        "details": "Revokes `role` from `account`. If `account` had been granted `role`, emits a {RoleRevoked} event. Requirements: - the caller must have ``role``'s admin role."
      }
    },
    "version": 1
  },
  "userdoc": {
    "kind": "user",
    "methods": {},
    "version": 1
  }
}