{
  "contractName": "MarketWalletV1",
  "abi": [
    {
      "inputs": [],
      "stateMutability": "nonpayable",
      "type": "constructor"
    },
    {
      "anonymous": false,
      "inputs": [
        {
          "indexed": true,
          "internalType": "bytes32",
          "name": "role",
          "type": "bytes32"
        },
        {
          "indexed": true,
          "internalType": "bytes32",
          "name": "previousAdminRole",
          "type": "bytes32"
        },
        {
          "indexed": true,
          "internalType": "bytes32",
          "name": "newAdminRole",
          "type": "bytes32"
        }
      ],
      "name": "RoleAdminChanged",
      "type": "event"
    },
    {
      "anonymous": false,
      "inputs": [
        {
          "indexed": true,
          "internalType": "bytes32",
          "name": "role",
          "type": "bytes32"
        },
        {
          "indexed": true,
          "internalType": "address",
          "name": "account",
          "type": "address"
        },
        {
          "indexed": true,
          "internalType": "address",
          "name": "sender",
          "type": "address"
        }
      ],
      "name": "RoleGranted",
      "type": "event"
    },
    {
      "anonymous": false,
      "inputs": [
        {
          "indexed": true,
          "internalType": "bytes32",
          "name": "role",
          "type": "bytes32"
        },
        {
          "indexed": true,
          "internalType": "address",
          "name": "account",
          "type": "address"
        },
        {
          "indexed": true,
          "internalType": "address",
          "name": "sender",
          "type": "address"
        }
      ],
      "name": "RoleRevoked",
      "type": "event"
    },
    {
      "inputs": [],
      "name": "ADMIN_ROLE",
      "outputs": [
        {
          "internalType": "bytes32",
          "name": "",
          "type": "bytes32"
        }
      ],
      "stateMutability": "view",
      "type": "function",
      "constant": true
    },
    {
      "inputs": [],
      "name": "DEFAULT_ADMIN_ROLE",
      "outputs": [
        {
          "internalType": "bytes32",
          "name": "",
          "type": "bytes32"
        }
      ],
      "stateMutability": "view",
      "type": "function",
      "constant": true
    },
    {
      "inputs": [
        {
          "internalType": "bytes32",
          "name": "role",
          "type": "bytes32"
        }
      ],
      "name": "getRoleAdmin",
      "outputs": [
        {
          "internalType": "bytes32",
          "name": "",
          "type": "bytes32"
        }
      ],
      "stateMutability": "view",
      "type": "function",
      "constant": true
    },
    {
      "inputs": [
        {
          "internalType": "bytes32",
          "name": "role",
          "type": "bytes32"
        },
        {
          "internalType": "address",
          "name": "account",
          "type": "address"
        }
      ],
      "name": "grantRole",
      "outputs": [],
      "stateMutability": "nonpayable",
      "type": "function"
    },
    {
      "inputs": [
        {
          "internalType": "bytes32",
          "name": "role",
          "type": "bytes32"
        },
        {
          "internalType": "address",
          "name": "account",
          "type": "address"
        }
      ],
      "name": "hasRole",
      "outputs": [
        {
          "internalType": "bool",
          "name": "",
          "type": "bool"
        }
      ],
      "stateMutability": "view",
      "type": "function",
      "constant": true
    },
    {
      "inputs": [
        {
          "internalType": "address",
          "name": "",
          "type": "address"
        },
        {
          "internalType": "address",
          "name": "",
          "type": "address"
        },
        {
          "internalType": "uint256[]",
          "name": "",
          "type": "uint256[]"
        },
        {
          "internalType": "uint256[]",
          "name": "",
          "type": "uint256[]"
        },
        {
          "internalType": "bytes",
          "name": "",
          "type": "bytes"
        }
      ],
      "name": "onERC1155BatchReceived",
      "outputs": [
        {
          "internalType": "bytes4",
          "name": "",
          "type": "bytes4"
        }
      ],
      "stateMutability": "nonpayable",
      "type": "function"
    },
    {
      "inputs": [
        {
          "internalType": "address",
          "name": "",
          "type": "address"
        },
        {
          "internalType": "address",
          "name": "",
          "type": "address"
        },
        {
          "internalType": "uint256",
          "name": "",
          "type": "uint256"
        },
        {
          "internalType": "uint256",
          "name": "",
          "type": "uint256"
        },
        {
          "internalType": "bytes",
          "name": "",
          "type": "bytes"
        }
      ],
      "name": "onERC1155Received",
      "outputs": [
        {
          "internalType": "bytes4",
          "name": "",
          "type": "bytes4"
        }
      ],
      "stateMutability": "nonpayable",
      "type": "function"
    },
    {
      "inputs": [
        {
          "internalType": "address",
          "name": "",
          "type": "address"
        },
        {
          "internalType": "address",
          "name": "",
          "type": "address"
        },
        {
          "internalType": "uint256",
          "name": "",
          "type": "uint256"
        },
        {
          "internalType": "bytes",
          "name": "",
          "type": "bytes"
        }
      ],
      "name": "onERC721Received",
      "outputs": [
        {
          "internalType": "bytes4",
          "name": "",
          "type": "bytes4"
        }
      ],
      "stateMutability": "nonpayable",
      "type": "function"
    },
    {
      "inputs": [
        {
          "internalType": "bytes32",
          "name": "role",
          "type": "bytes32"
        },
        {
          "internalType": "address",
          "name": "account",
          "type": "address"
        }
      ],
      "name": "renounceRole",
      "outputs": [],
      "stateMutability": "nonpayable",
      "type": "function"
    },
    {
      "inputs": [
        {
          "internalType": "bytes32",
          "name": "role",
          "type": "bytes32"
        },
        {
          "internalType": "address",
          "name": "account",
          "type": "address"
        }
      ],
      "name": "revokeRole",
      "outputs": [],
      "stateMutability": "nonpayable",
      "type": "function"
    },
    {
      "inputs": [
        {
          "internalType": "bytes4",
          "name": "interfaceID",
          "type": "bytes4"
        }
      ],
      "name": "supportsInterface",
      "outputs": [
        {
          "internalType": "bool",
          "name": "",
          "type": "bool"
        }
      ],
      "stateMutability": "view",
      "type": "function",
      "constant": true
    },
    {
      "inputs": [
        {
          "internalType": "address",
          "name": "token",
          "type": "address"
        },
        {
          "internalType": "address",
          "name": "from",
          "type": "address"
        },
        {
          "internalType": "uint256",
          "name": "id",
          "type": "uint256"
        },
        {
          "internalType": "uint256",
          "name": "quantity",
          "type": "uint256"
        }
      ],
      "name": "take",
      "outputs": [],
      "stateMutability": "nonpayable",
      "type": "function"
    },
    {
      "inputs": [
        {
          "internalType": "address",
          "name": "token",
          "type": "address"
        },
        {
          "internalType": "address",
          "name": "to",
          "type": "address"
        },
        {
          "internalType": "uint256",
          "name": "id",
          "type": "uint256"
        },
        {
          "internalType": "uint256",
          "name": "quantity",
          "type": "uint256"
        }
      ],
      "name": "give",
      "outputs": [],
      "stateMutability": "nonpayable",
      "type": "function"
    }
  ],
  "bytecode": "0x60806040523480156200001157600080fd5b50620000276000801b336200009460201b60201c565b620000597fa49807205ce4d355092ef5a8a18f56e8913cf4a201fbe287825b095693c21775336200009460201b60201c565b6200008e7fa49807205ce4d355092ef5a8a18f56e8913cf4a201fbe287825b095693c217756000801b620000aa60201b60201c565b6200028f565b620000a682826200010d60201b60201c565b5050565b6000620000bd83620001fe60201b60201c565b905081600080858152602001908152602001600020600101819055508181847fbd79b86ffe0ab8e8776151514217cd7cacd52c909f66475c3af44e129f0b00ff60405160405180910390a4505050565b6200011f82826200021d60201b60201c565b620001fa57600160008084815260200190815260200160002060000160008373ffffffffffffffffffffffffffffffffffffffff1673ffffffffffffffffffffffffffffffffffffffff16815260200190815260200160002060006101000a81548160ff0219169083151502179055506200019f6200028760201b60201c565b73ffffffffffffffffffffffffffffffffffffffff168173ffffffffffffffffffffffffffffffffffffffff16837f2f8788117e7eff1d82e926ec794901d17c78024a50270940304540a733656f0d60405160405180910390a45b5050565b6000806000838152602001908152602001600020600101549050919050565b600080600084815260200190815260200160002060000160008373ffffffffffffffffffffffffffffffffffffffff1673ffffffffffffffffffffffffffffffffffffffff16815260200190815260200160002060009054906101000a900460ff16905092915050565b600033905090565b61197a806200029f6000396000f3fe608060405234801561001057600080fd5b50600436106100cf5760003560e01c806340fd58291161008c578063a217fddf11610066578063a217fddf14610222578063bc197c8114610240578063d547741f14610270578063f23a6e611461028c576100cf565b806340fd5829146101b857806375b238fc146101d457806391d14854146101f2576100cf565b806301ffc9a7146100d4578063150b7a0214610104578063248a9ca3146101345780632ed7bae8146101645780632f2ff15d1461018057806336568abe1461019c575b600080fd5b6100ee60048036038101906100e99190610d7e565b6102bc565b6040516100fb9190610dc6565b60405180910390f35b61011e60048036038101906101199190610fbb565b6102ce565b60405161012b919061104d565b60405180910390f35b61014e6004803603810190610149919061109e565b6102e2565b60405161015b91906110da565b60405180910390f35b61017e600480360381019061017991906110f5565b610301565b005b61019a6004803603810190610195919061115c565b610350565b005b6101b660048036038101906101b1919061115c565b610379565b005b6101d260048036038101906101cd91906110f5565b6103fc565b005b6101dc61044b565b6040516101e991906110da565b60405180910390f35b61020c6004803603810190610207919061115c565b61046f565b6040516102199190610dc6565b60405180910390f35b61022a6104d9565b60405161023791906110da565b60405180910390f35b61025a60048036038101906102559190611264565b6104e0565b604051610267919061104d565b60405180910390f35b61028a6004803603810190610285919061115c565b6104f5565b005b6102a660048036038101906102a19190611333565b61051e565b6040516102b3919061104d565b60405180910390f35b60006102c782610533565b9050919050565b600063150b7a0260e01b9050949350505050565b6000806000838152602001908152602001600020600101549050919050565b7fa49807205ce4d355092ef5a8a18f56e8913cf4a201fbe287825b095693c217756103338161032e6105ad565b6105b5565b61034961033f86610652565b8630878787610706565b5050505050565b610359826102e2565b61036a816103656105ad565b6105b5565b6103748383610831565b505050565b6103816105ad565b73ffffffffffffffffffffffffffffffffffffffff168173ffffffffffffffffffffffffffffffffffffffff16146103ee576040517f08c379a00000000000000000000000000000000000000000000000000000000081526004016103e59061144d565b60405180910390fd5b6103f88282610911565b5050565b7fa49807205ce4d355092ef5a8a18f56e8913cf4a201fbe287825b095693c2177561042e816104296105ad565b6105b5565b61044461043a86610652565b8686308787610706565b5050505050565b7fa49807205ce4d355092ef5a8a18f56e8913cf4a201fbe287825b095693c2177581565b600080600084815260200190815260200160002060000160008373ffffffffffffffffffffffffffffffffffffffff1673ffffffffffffffffffffffffffffffffffffffff16815260200190815260200160002060009054906101000a900460ff16905092915050565b6000801b81565b600063bc197c8160e01b905095945050505050565b6104fe826102e2565b61050f8161050a6105ad565b6105b5565b6105198383610911565b505050565b600063f23a6e6160e01b905095945050505050565b60007f4e2312e0000000000000000000000000000000000000000000000000000000007bffffffffffffffffffffffffffffffffffffffffffffffffffffffff1916827bffffffffffffffffffffffffffffffffffffffffffffffffffffffff191614806105a657506105a5826109f2565b5b9050919050565b600033905090565b6105bf828261046f565b61064e576105e48173ffffffffffffffffffffffffffffffffffffffff166014610a6c565b6105f28360001c6020610a6c565b60405160200161060392919061157f565b6040516020818303038152906040526040517f08c379a000000000000000000000000000000000000000000000000000000000815260040161064591906115f2565b60405180910390fd5b5050565b60008173ffffffffffffffffffffffffffffffffffffffff166301ffc9a77fd9b67a26000000000000000000000000000000000000000000000000000000006040518263ffffffff1660e01b81526004016106ad919061104d565b602060405180830381865afa1580156106ca573d6000803e3d6000fd5b505050506040513d601f19601f820116820180604052508101906106ee9190611640565b156106fc5760019050610701565b600090505b919050565b6001808111156107195761071861166d565b5b86600181111561072c5761072b61166d565b5b14156107b9578473ffffffffffffffffffffffffffffffffffffffff1663f242432a85858585604051806020016040528060008152506040518663ffffffff1660e01b815260040161078295949392919061170f565b600060405180830381600087803b15801561079c57600080fd5b505af11580156107b0573d6000803e3d6000fd5b50505050610829565b8473ffffffffffffffffffffffffffffffffffffffff166342842e0e8585856040518463ffffffff1660e01b81526004016107f693929190611769565b600060405180830381600087803b15801561081057600080fd5b505af1158015610824573d6000803e3d6000fd5b505050505b505050505050565b61083b828261046f565b61090d57600160008084815260200190815260200160002060000160008373ffffffffffffffffffffffffffffffffffffffff1673ffffffffffffffffffffffffffffffffffffffff16815260200190815260200160002060006101000a81548160ff0219169083151502179055506108b26105ad565b73ffffffffffffffffffffffffffffffffffffffff168173ffffffffffffffffffffffffffffffffffffffff16837f2f8788117e7eff1d82e926ec794901d17c78024a50270940304540a733656f0d60405160405180910390a45b5050565b61091b828261046f565b156109ee57600080600084815260200190815260200160002060000160008373ffffffffffffffffffffffffffffffffffffffff1673ffffffffffffffffffffffffffffffffffffffff16815260200190815260200160002060006101000a81548160ff0219169083151502179055506109936105ad565b73ffffffffffffffffffffffffffffffffffffffff168173ffffffffffffffffffffffffffffffffffffffff16837ff6391f5c32d9c69d2a47ea670b442974b53935d1edc7fd64eb21e047a839171b60405160405180910390a45b5050565b60007f7965db0b000000000000000000000000000000000000000000000000000000007bffffffffffffffffffffffffffffffffffffffffffffffffffffffff1916827bffffffffffffffffffffffffffffffffffffffffffffffffffffffff19161480610a655750610a6482610ca8565b5b9050919050565b606060006002836002610a7f91906117cf565b610a899190611829565b67ffffffffffffffff811115610aa257610aa1610e90565b5b6040519080825280601f01601f191660200182016040528015610ad45781602001600182028036833780820191505090505b5090507f300000000000000000000000000000000000000000000000000000000000000081600081518110610b0c57610b0b61187f565b5b60200101907effffffffffffffffffffffffffffffffffffffffffffffffffffffffffffff1916908160001a9053507f780000000000000000000000000000000000000000000000000000000000000081600181518110610b7057610b6f61187f565b5b60200101907effffffffffffffffffffffffffffffffffffffffffffffffffffffffffffff1916908160001a90535060006001846002610bb091906117cf565b610bba9190611829565b90505b6001811115610c5a577f3031323334353637383961626364656600000000000000000000000000000000600f861660108110610bfc57610bfb61187f565b5b1a60f81b828281518110610c1357610c1261187f565b5b60200101907effffffffffffffffffffffffffffffffffffffffffffffffffffffffffffff1916908160001a905350600485901c945080610c53906118ae565b9050610bbd565b5060008414610c9e576040517f08c379a0000000000000000000000000000000000000000000000000000000008152600401610c9590611924565b60405180910390fd5b8091505092915050565b60007f01ffc9a7000000000000000000000000000000000000000000000000000000007bffffffffffffffffffffffffffffffffffffffffffffffffffffffff1916827bffffffffffffffffffffffffffffffffffffffffffffffffffffffff1916149050919050565b6000604051905090565b600080fd5b600080fd5b60007fffffffff0000000000000000000000000000000000000000000000000000000082169050919050565b610d5b81610d26565b8114610d6657600080fd5b50565b600081359050610d7881610d52565b92915050565b600060208284031215610d9457610d93610d1c565b5b6000610da284828501610d69565b91505092915050565b60008115159050919050565b610dc081610dab565b82525050565b6000602082019050610ddb6000830184610db7565b92915050565b600073ffffffffffffffffffffffffffffffffffffffff82169050919050565b6000610e0c82610de1565b9050919050565b610e1c81610e01565b8114610e2757600080fd5b50565b600081359050610e3981610e13565b92915050565b6000819050919050565b610e5281610e3f565b8114610e5d57600080fd5b50565b600081359050610e6f81610e49565b92915050565b600080fd5b600080fd5b6000601f19601f8301169050919050565b7f4e487b7100000000000000000000000000000000000000000000000000000000600052604160045260246000fd5b610ec882610e7f565b810181811067ffffffffffffffff82111715610ee757610ee6610e90565b5b80604052505050565b6000610efa610d12565b9050610f068282610ebf565b919050565b600067ffffffffffffffff821115610f2657610f25610e90565b5b610f2f82610e7f565b9050602081019050919050565b82818337600083830152505050565b6000610f5e610f5984610f0b565b610ef0565b905082815260208101848484011115610f7a57610f79610e7a565b5b610f85848285610f3c565b509392505050565b600082601f830112610fa257610fa1610e75565b5b8135610fb2848260208601610f4b565b91505092915050565b60008060008060808587031215610fd557610fd4610d1c565b5b6000610fe387828801610e2a565b9450506020610ff487828801610e2a565b935050604061100587828801610e60565b925050606085013567ffffffffffffffff81111561102657611025610d21565b5b61103287828801610f8d565b91505092959194509250565b61104781610d26565b82525050565b6000602082019050611062600083018461103e565b92915050565b6000819050919050565b61107b81611068565b811461108657600080fd5b50565b60008135905061109881611072565b92915050565b6000602082840312156110b4576110b3610d1c565b5b60006110c284828501611089565b91505092915050565b6110d481611068565b82525050565b60006020820190506110ef60008301846110cb565b92915050565b6000806000806080858703121561110f5761110e610d1c565b5b600061111d87828801610e2a565b945050602061112e87828801610e2a565b935050604061113f87828801610e60565b925050606061115087828801610e60565b91505092959194509250565b6000806040838503121561117357611172610d1c565b5b600061118185828601611089565b925050602061119285828601610e2a565b9150509250929050565b600067ffffffffffffffff8211156111b7576111b6610e90565b5b602082029050602081019050919050565b600080fd5b60006111e06111db8461119c565b610ef0565b90508083825260208201905060208402830185811115611203576112026111c8565b5b835b8181101561122c57806112188882610e60565b845260208401935050602081019050611205565b5050509392505050565b600082601f83011261124b5761124a610e75565b5b813561125b8482602086016111cd565b91505092915050565b600080600080600060a086880312156112805761127f610d1c565b5b600061128e88828901610e2a565b955050602061129f88828901610e2a565b945050604086013567ffffffffffffffff8111156112c0576112bf610d21565b5b6112cc88828901611236565b935050606086013567ffffffffffffffff8111156112ed576112ec610d21565b5b6112f988828901611236565b925050608086013567ffffffffffffffff81111561131a57611319610d21565b5b61132688828901610f8d565b9150509295509295909350565b600080600080600060a0868803121561134f5761134e610d1c565b5b600061135d88828901610e2a565b955050602061136e88828901610e2a565b945050604061137f88828901610e60565b935050606061139088828901610e60565b925050608086013567ffffffffffffffff8111156113b1576113b0610d21565b5b6113bd88828901610f8d565b9150509295509295909350565b600082825260208201905092915050565b7f416363657373436f6e74726f6c3a2063616e206f6e6c792072656e6f756e636560008201527f20726f6c657320666f722073656c660000000000000000000000000000000000602082015250565b6000611437602f836113ca565b9150611442826113db565b604082019050919050565b600060208201905081810360008301526114668161142a565b9050919050565b600081905092915050565b7f416363657373436f6e74726f6c3a206163636f756e7420000000000000000000600082015250565b60006114ae60178361146d565b91506114b982611478565b601782019050919050565b600081519050919050565b60005b838110156114ed5780820151818401526020810190506114d2565b838111156114fc576000848401525b50505050565b600061150d826114c4565b611517818561146d565b93506115278185602086016114cf565b80840191505092915050565b7f206973206d697373696e6720726f6c6520000000000000000000000000000000600082015250565b600061156960118361146d565b915061157482611533565b601182019050919050565b600061158a826114a1565b91506115968285611502565b91506115a18261155c565b91506115ad8284611502565b91508190509392505050565b60006115c4826114c4565b6115ce81856113ca565b93506115de8185602086016114cf565b6115e781610e7f565b840191505092915050565b6000602082019050818103600083015261160c81846115b9565b905092915050565b61161d81610dab565b811461162857600080fd5b50565b60008151905061163a81611614565b92915050565b60006020828403121561165657611655610d1c565b5b60006116648482850161162b565b91505092915050565b7f4e487b7100000000000000000000000000000000000000000000000000000000600052602160045260246000fd5b6116a581610e01565b82525050565b6116b481610e3f565b82525050565b600081519050919050565b600082825260208201905092915050565b60006116e1826116ba565b6116eb81856116c5565b93506116fb8185602086016114cf565b61170481610e7f565b840191505092915050565b600060a082019050611724600083018861169c565b611731602083018761169c565b61173e60408301866116ab565b61174b60608301856116ab565b818103608083015261175d81846116d6565b90509695505050505050565b600060608201905061177e600083018661169c565b61178b602083018561169c565b61179860408301846116ab565b949350505050565b7f4e487b7100000000000000000000000000000000000000000000000000000000600052601160045260246000fd5b60006117da82610e3f565b91506117e583610e3f565b9250817fffffffffffffffffffffffffffffffffffffffffffffffffffffffffffffffff048311821515161561181e5761181d6117a0565b5b828202905092915050565b600061183482610e3f565b915061183f83610e3f565b9250827fffffffffffffffffffffffffffffffffffffffffffffffffffffffffffffffff03821115611874576118736117a0565b5b828201905092915050565b7f4e487b7100000000000000000000000000000000000000000000000000000000600052603260045260246000fd5b60006118b982610e3f565b915060008214156118cd576118cc6117a0565b5b600182039050919050565b7f537472696e67733a20686578206c656e67746820696e73756666696369656e74600082015250565b600061190e6020836113ca565b9150611919826118d8565b602082019050919050565b6000602082019050818103600083015261193d81611901565b905091905056fea264697066735822122065448663b7976b7f2bbe65fda0ff4eda4f398c5893416cb57aaedb08ccfe4d1064736f6c634300080b0033",
  "immutableReferences": {},
  "source": "// SPDX-License-Identifier: MIT\npragma solidity ^0.8.0;\n\nimport \"@openzeppelin/contracts/access/AccessControl.sol\";\nimport \"@openzeppelin/contracts/token/ERC1155/IERC1155.sol\";\nimport \"@openzeppelin/contracts/token/ERC1155/IERC1155Receiver.sol\";\nimport \"@openzeppelin/contracts/token/ERC1155/utils/ERC1155Holder.sol\";\nimport \"@openzeppelin/contracts/token/ERC721/IERC721.sol\";\nimport \"@openzeppelin/contracts/token/ERC721/utils/ERC721Holder.sol\";\n\nenum AssetType { ERC721, ERC1155 }\n\ncontract MarketWalletV1 is AccessControl, ERC721Holder, ERC1155Holder  {\n\n  bytes internal constant EMPTY = \"\";\n  \n  bytes32 public constant ADMIN_ROLE = keccak256(\"ADMIN_ROLE\");\n\n  constructor() {\n    _setupRole(DEFAULT_ADMIN_ROLE, msg.sender);\n    \n    _setupRole(ADMIN_ROLE, msg.sender);\n    _setRoleAdmin(ADMIN_ROLE, DEFAULT_ADMIN_ROLE);\n  }\n\n  function supportsInterface(bytes4 interfaceID) override(AccessControl, ERC1155Receiver)\n    public view returns (bool) {\n    return super.supportsInterface(interfaceID);\n  }\n\n  function getAssetType(address asset) private view returns (AssetType) {\n    if (IERC165(asset).supportsInterface(type(IERC1155).interfaceId)) {\n      return AssetType.ERC1155;\n    }\n\n    return AssetType.ERC721;\n  }\n\n  function take(\n    address token,\n    address from,\n    uint id,\n    uint quantity\n  ) public onlyRole(ADMIN_ROLE) {\n    _transfer(getAssetType(token), token, from, address(this), id, quantity);\n  }\n\n  function give(\n    address token,\n    address to,\n    uint id,\n    uint quantity\n  ) public onlyRole(ADMIN_ROLE) {\n    _transfer(getAssetType(token), token, address(this), to, id, quantity);\n  }\n  \n  function _transfer(\n    AssetType assetType,\n    address asset,\n    address from,\n    address to,\n    uint id,\n    uint quantity\n  ) private {\n    if (assetType == AssetType.ERC1155) {\n      IERC1155(asset).safeTransferFrom(from, to, id, quantity, EMPTY);\n    } else {\n      IERC721(asset).safeTransferFrom(from, to, id);\n    }\n  }\n}",
  "sourcePath": "/Users/husnain/Desktop/other/fest/packages/ethereum/contracts/solidity/contracts/MarketWalletV1.sol",
  "compiler": {
    "name": "solc",
    "version": "0.8.11+commit.d7f03943.Emscripten.clang"
  },
  "schemaVersion": "3.4.4",
  "updatedAt": "2022-01-27T10:25:46.619Z",
  "networkType": "ethereum",
  "devdoc": {
    "kind": "dev",
    "methods": {
      "getRoleAdmin(bytes32)": {
        "details": "Returns the admin role that controls `role`. See {grantRole} and {revokeRole}. To change a role's admin, use {_setRoleAdmin}."
      },
      "grantRole(bytes32,address)": {
        "details": "Grants `role` to `account`. If `account` had not been already granted `role`, emits a {RoleGranted} event. Requirements: - the caller must have ``role``'s admin role."
      },
      "hasRole(bytes32,address)": {
        "details": "Returns `true` if `account` has been granted `role`."
      },
      "onERC721Received(address,address,uint256,bytes)": {
        "details": "See {IERC721Receiver-onERC721Received}. Always returns `IERC721Receiver.onERC721Received.selector`."
      },
      "renounceRole(bytes32,address)": {
        "details": "Revokes `role` from the calling account. Roles are often managed via {grantRole} and {revokeRole}: this function's purpose is to provide a mechanism for accounts to lose their privileges if they are compromised (such as when a trusted device is misplaced). If the calling account had been revoked `role`, emits a {RoleRevoked} event. Requirements: - the caller must be `account`."
      },
      "revokeRole(bytes32,address)": {
        "details": "Revokes `role` from `account`. If `account` had been granted `role`, emits a {RoleRevoked} event. Requirements: - the caller must have ``role``'s admin role."
      }
    },
    "version": 1
  },
  "userdoc": {
    "kind": "user",
    "methods": {},
    "version": 1
  }
}