{
  "contractName": "MarketWalletV1",
  "abi": [
    {
      "inputs": [],
      "stateMutability": "nonpayable",
      "type": "constructor"
    },
    {
      "anonymous": false,
      "inputs": [
        {
          "indexed": true,
          "internalType": "bytes32",
          "name": "role",
          "type": "bytes32"
        },
        {
          "indexed": true,
          "internalType": "bytes32",
          "name": "previousAdminRole",
          "type": "bytes32"
        },
        {
          "indexed": true,
          "internalType": "bytes32",
          "name": "newAdminRole",
          "type": "bytes32"
        }
      ],
      "name": "RoleAdminChanged",
      "type": "event"
    },
    {
      "anonymous": false,
      "inputs": [
        {
          "indexed": true,
          "internalType": "bytes32",
          "name": "role",
          "type": "bytes32"
        },
        {
          "indexed": true,
          "internalType": "address",
          "name": "account",
          "type": "address"
        },
        {
          "indexed": true,
          "internalType": "address",
          "name": "sender",
          "type": "address"
        }
      ],
      "name": "RoleGranted",
      "type": "event"
    },
    {
      "anonymous": false,
      "inputs": [
        {
          "indexed": true,
          "internalType": "bytes32",
          "name": "role",
          "type": "bytes32"
        },
        {
          "indexed": true,
          "internalType": "address",
          "name": "account",
          "type": "address"
        },
        {
          "indexed": true,
          "internalType": "address",
          "name": "sender",
          "type": "address"
        }
      ],
      "name": "RoleRevoked",
      "type": "event"
    },
    {
      "inputs": [],
      "name": "ADMIN_ROLE",
      "outputs": [
        {
          "internalType": "bytes32",
          "name": "",
          "type": "bytes32"
        }
      ],
      "stateMutability": "view",
      "type": "function",
      "constant": true
    },
    {
      "inputs": [],
      "name": "DEFAULT_ADMIN_ROLE",
      "outputs": [
        {
          "internalType": "bytes32",
          "name": "",
          "type": "bytes32"
        }
      ],
      "stateMutability": "view",
      "type": "function",
      "constant": true
    },
    {
      "inputs": [
        {
          "internalType": "bytes32",
          "name": "role",
          "type": "bytes32"
        }
      ],
      "name": "getRoleAdmin",
      "outputs": [
        {
          "internalType": "bytes32",
          "name": "",
          "type": "bytes32"
        }
      ],
      "stateMutability": "view",
      "type": "function",
      "constant": true
    },
    {
      "inputs": [
        {
          "internalType": "bytes32",
          "name": "role",
          "type": "bytes32"
        },
        {
          "internalType": "address",
          "name": "account",
          "type": "address"
        }
      ],
      "name": "grantRole",
      "outputs": [],
      "stateMutability": "nonpayable",
      "type": "function"
    },
    {
      "inputs": [
        {
          "internalType": "bytes32",
          "name": "role",
          "type": "bytes32"
        },
        {
          "internalType": "address",
          "name": "account",
          "type": "address"
        }
      ],
      "name": "hasRole",
      "outputs": [
        {
          "internalType": "bool",
          "name": "",
          "type": "bool"
        }
      ],
      "stateMutability": "view",
      "type": "function",
      "constant": true
    },
    {
      "inputs": [
        {
          "internalType": "address",
          "name": "",
          "type": "address"
        },
        {
          "internalType": "address",
          "name": "",
          "type": "address"
        },
        {
          "internalType": "uint256[]",
          "name": "",
          "type": "uint256[]"
        },
        {
          "internalType": "uint256[]",
          "name": "",
          "type": "uint256[]"
        },
        {
          "internalType": "bytes",
          "name": "",
          "type": "bytes"
        }
      ],
      "name": "onERC1155BatchReceived",
      "outputs": [
        {
          "internalType": "bytes4",
          "name": "",
          "type": "bytes4"
        }
      ],
      "stateMutability": "nonpayable",
      "type": "function"
    },
    {
      "inputs": [
        {
          "internalType": "address",
          "name": "",
          "type": "address"
        },
        {
          "internalType": "address",
          "name": "",
          "type": "address"
        },
        {
          "internalType": "uint256",
          "name": "",
          "type": "uint256"
        },
        {
          "internalType": "uint256",
          "name": "",
          "type": "uint256"
        },
        {
          "internalType": "bytes",
          "name": "",
          "type": "bytes"
        }
      ],
      "name": "onERC1155Received",
      "outputs": [
        {
          "internalType": "bytes4",
          "name": "",
          "type": "bytes4"
        }
      ],
      "stateMutability": "nonpayable",
      "type": "function"
    },
    {
      "inputs": [
        {
          "internalType": "address",
          "name": "",
          "type": "address"
        },
        {
          "internalType": "address",
          "name": "",
          "type": "address"
        },
        {
          "internalType": "uint256",
          "name": "",
          "type": "uint256"
        },
        {
          "internalType": "bytes",
          "name": "",
          "type": "bytes"
        }
      ],
      "name": "onERC721Received",
      "outputs": [
        {
          "internalType": "bytes4",
          "name": "",
          "type": "bytes4"
        }
      ],
      "stateMutability": "nonpayable",
      "type": "function"
    },
    {
      "inputs": [
        {
          "internalType": "bytes32",
          "name": "role",
          "type": "bytes32"
        },
        {
          "internalType": "address",
          "name": "account",
          "type": "address"
        }
      ],
      "name": "renounceRole",
      "outputs": [],
      "stateMutability": "nonpayable",
      "type": "function"
    },
    {
      "inputs": [
        {
          "internalType": "bytes32",
          "name": "role",
          "type": "bytes32"
        },
        {
          "internalType": "address",
          "name": "account",
          "type": "address"
        }
      ],
      "name": "revokeRole",
      "outputs": [],
      "stateMutability": "nonpayable",
      "type": "function"
    },
    {
      "inputs": [
        {
          "internalType": "bytes4",
          "name": "interfaceID",
          "type": "bytes4"
        }
      ],
      "name": "supportsInterface",
      "outputs": [
        {
          "internalType": "bool",
          "name": "",
          "type": "bool"
        }
      ],
      "stateMutability": "view",
      "type": "function",
      "constant": true
    },
    {
      "inputs": [
        {
          "internalType": "address",
          "name": "token",
          "type": "address"
        },
        {
          "internalType": "address",
          "name": "from",
          "type": "address"
        },
        {
          "internalType": "uint256",
          "name": "id",
          "type": "uint256"
        },
        {
          "internalType": "uint256",
          "name": "quantity",
          "type": "uint256"
        }
      ],
      "name": "take",
      "outputs": [],
      "stateMutability": "nonpayable",
      "type": "function"
    },
    {
      "inputs": [
        {
          "internalType": "address",
          "name": "token",
          "type": "address"
        },
        {
          "internalType": "address",
          "name": "to",
          "type": "address"
        },
        {
          "internalType": "uint256",
          "name": "id",
          "type": "uint256"
        },
        {
          "internalType": "uint256",
          "name": "quantity",
          "type": "uint256"
        }
      ],
      "name": "give",
      "outputs": [],
      "stateMutability": "nonpayable",
      "type": "function"
    }
  ],
  "bytecode": "0x60806040523480156200001157600080fd5b50620000276000801b336200009460201b60201c565b620000597fa49807205ce4d355092ef5a8a18f56e8913cf4a201fbe287825b095693c21775336200009460201b60201c565b6200008e7fa49807205ce4d355092ef5a8a18f56e8913cf4a201fbe287825b095693c217756000801b620000aa60201b60201c565b62000289565b620000a682826200010760201b60201c565b5050565b80620000bc83620001f860201b60201c565b837fbd79b86ffe0ab8e8776151514217cd7cacd52c909f66475c3af44e129f0b00ff60405160405180910390a480600080848152602001908152602001600020600101819055505050565b6200011982826200021760201b60201c565b620001f457600160008084815260200190815260200160002060000160008373ffffffffffffffffffffffffffffffffffffffff1673ffffffffffffffffffffffffffffffffffffffff16815260200190815260200160002060006101000a81548160ff021916908315150217905550620001996200028160201b60201c565b73ffffffffffffffffffffffffffffffffffffffff168173ffffffffffffffffffffffffffffffffffffffff16837f2f8788117e7eff1d82e926ec794901d17c78024a50270940304540a733656f0d60405160405180910390a45b5050565b6000806000838152602001908152602001600020600101549050919050565b600080600084815260200190815260200160002060000160008373ffffffffffffffffffffffffffffffffffffffff1673ffffffffffffffffffffffffffffffffffffffff16815260200190815260200160002060009054906101000a900460ff16905092915050565b600033905090565b61199080620002996000396000f3fe608060405234801561001057600080fd5b50600436106100cf5760003560e01c806340fd58291161008c578063a217fddf11610066578063a217fddf14610222578063bc197c8114610240578063d547741f14610270578063f23a6e611461028c576100cf565b806340fd5829146101b857806375b238fc146101d457806391d14854146101f2576100cf565b806301ffc9a7146100d4578063150b7a0214610104578063248a9ca3146101345780632ed7bae8146101645780632f2ff15d1461018057806336568abe1461019c575b600080fd5b6100ee60048036038101906100e99190611182565b6102bc565b6040516100fb91906113f4565b60405180910390f35b61011e60048036038101906101199190610f67565b6102ce565b60405161012b919061142a565b60405180910390f35b61014e60048036038101906101499190611115565b6102e2565b60405161015b919061140f565b60405180910390f35b61017e60048036038101906101799190610fea565b610301565b005b61019a60048036038101906101959190611142565b610350565b005b6101b660048036038101906101b19190611142565b610379565b005b6101d260048036038101906101cd9190610fea565b6103fc565b005b6101dc61044b565b6040516101e9919061140f565b60405180910390f35b61020c60048036038101906102079190611142565b61046f565b60405161021991906113f4565b60405180910390f35b61022a6104d9565b604051610237919061140f565b60405180910390f35b61025a60048036038101906102559190610e98565b6104e0565b604051610267919061142a565b60405180910390f35b61028a60048036038101906102859190611142565b6104f5565b005b6102a660048036038101906102a19190611051565b61051e565b6040516102b3919061142a565b60405180910390f35b60006102c782610533565b9050919050565b600063150b7a0260e01b9050949350505050565b6000806000838152602001908152602001600020600101549050919050565b7fa49807205ce4d355092ef5a8a18f56e8913cf4a201fbe287825b095693c217756103338161032e6105ad565b6105b5565b61034961033f86610652565b8630878787610715565b5050505050565b610359826102e2565b61036a816103656105ad565b6105b5565b6103748383610840565b505050565b6103816105ad565b73ffffffffffffffffffffffffffffffffffffffff168173ffffffffffffffffffffffffffffffffffffffff16146103ee576040517f08c379a00000000000000000000000000000000000000000000000000000000081526004016103e590611487565b60405180910390fd5b6103f88282610920565b5050565b7fa49807205ce4d355092ef5a8a18f56e8913cf4a201fbe287825b095693c2177561042e816104296105ad565b6105b5565b61044461043a86610652565b8686308787610715565b5050505050565b7fa49807205ce4d355092ef5a8a18f56e8913cf4a201fbe287825b095693c2177581565b600080600084815260200190815260200160002060000160008373ffffffffffffffffffffffffffffffffffffffff1673ffffffffffffffffffffffffffffffffffffffff16815260200190815260200160002060009054906101000a900460ff16905092915050565b6000801b81565b600063bc197c8160e01b905095945050505050565b6104fe826102e2565b61050f8161050a6105ad565b6105b5565b6105198383610920565b505050565b600063f23a6e6160e01b905095945050505050565b60007f4e2312e0000000000000000000000000000000000000000000000000000000007bffffffffffffffffffffffffffffffffffffffffffffffffffffffff1916827bffffffffffffffffffffffffffffffffffffffffffffffffffffffff191614806105a657506105a582610a01565b5b9050919050565b600033905090565b6105bf828261046f565b61064e576105e48173ffffffffffffffffffffffffffffffffffffffff166014610a7b565b6105f28360001c6020610a7b565b604051602001610603929190611329565b6040516020818303038152906040526040517f08c379a00000000000000000000000000000000000000000000000000000000081526004016106459190611445565b60405180910390fd5b5050565b60008173ffffffffffffffffffffffffffffffffffffffff166301ffc9a77fd9b67a26000000000000000000000000000000000000000000000000000000006040518263ffffffff1660e01b81526004016106ad919061142a565b60206040518083038186803b1580156106c557600080fd5b505afa1580156106d9573d6000803e3d6000fd5b505050506040513d601f19601f820116820180604052508101906106fd91906110e8565b1561070b5760019050610710565b600090505b919050565b60018081111561072857610727611766565b5b86600181111561073b5761073a611766565b5b14156107c8578473ffffffffffffffffffffffffffffffffffffffff1663f242432a85858585604051806020016040528060008152506040518663ffffffff1660e01b815260040161079195949392919061139a565b600060405180830381600087803b1580156107ab57600080fd5b505af11580156107bf573d6000803e3d6000fd5b50505050610838565b8473ffffffffffffffffffffffffffffffffffffffff166342842e0e8585856040518463ffffffff1660e01b815260040161080593929190611363565b600060405180830381600087803b15801561081f57600080fd5b505af1158015610833573d6000803e3d6000fd5b505050505b505050505050565b61084a828261046f565b61091c57600160008084815260200190815260200160002060000160008373ffffffffffffffffffffffffffffffffffffffff1673ffffffffffffffffffffffffffffffffffffffff16815260200190815260200160002060006101000a81548160ff0219169083151502179055506108c16105ad565b73ffffffffffffffffffffffffffffffffffffffff168173ffffffffffffffffffffffffffffffffffffffff16837f2f8788117e7eff1d82e926ec794901d17c78024a50270940304540a733656f0d60405160405180910390a45b5050565b61092a828261046f565b156109fd57600080600084815260200190815260200160002060000160008373ffffffffffffffffffffffffffffffffffffffff1673ffffffffffffffffffffffffffffffffffffffff16815260200190815260200160002060006101000a81548160ff0219169083151502179055506109a26105ad565b73ffffffffffffffffffffffffffffffffffffffff168173ffffffffffffffffffffffffffffffffffffffff16837ff6391f5c32d9c69d2a47ea670b442974b53935d1edc7fd64eb21e047a839171b60405160405180910390a45b5050565b60007f7965db0b000000000000000000000000000000000000000000000000000000007bffffffffffffffffffffffffffffffffffffffffffffffffffffffff1916827bffffffffffffffffffffffffffffffffffffffffffffffffffffffff19161480610a745750610a7382610cb7565b5b9050919050565b606060006002836002610a8e91906115c2565b610a98919061156c565b67ffffffffffffffff811115610ab157610ab06117c4565b5b6040519080825280601f01601f191660200182016040528015610ae35781602001600182028036833780820191505090505b5090507f300000000000000000000000000000000000000000000000000000000000000081600081518110610b1b57610b1a611795565b5b60200101907effffffffffffffffffffffffffffffffffffffffffffffffffffffffffffff1916908160001a9053507f780000000000000000000000000000000000000000000000000000000000000081600181518110610b7f57610b7e611795565b5b60200101907effffffffffffffffffffffffffffffffffffffffffffffffffffffffffffff1916908160001a90535060006001846002610bbf91906115c2565b610bc9919061156c565b90505b6001811115610c69577f3031323334353637383961626364656600000000000000000000000000000000600f861660108110610c0b57610c0a611795565b5b1a60f81b828281518110610c2257610c21611795565b5b60200101907effffffffffffffffffffffffffffffffffffffffffffffffffffffffffffff1916908160001a905350600485901c945080610c62906116dc565b9050610bcc565b5060008414610cad576040517f08c379a0000000000000000000000000000000000000000000000000000000008152600401610ca490611467565b60405180910390fd5b8091505092915050565b60007f01ffc9a7000000000000000000000000000000000000000000000000000000007bffffffffffffffffffffffffffffffffffffffffffffffffffffffff1916827bffffffffffffffffffffffffffffffffffffffffffffffffffffffff1916149050919050565b6000610d34610d2f846114cc565b6114a7565b90508083825260208201905082856020860282011115610d5757610d566117f8565b5b60005b85811015610d875781610d6d8882610e83565b845260208401935060208301925050600181019050610d5a565b5050509392505050565b6000610da4610d9f846114f8565b6114a7565b905082815260208101848484011115610dc057610dbf6117fd565b5b610dcb84828561169a565b509392505050565b600081359050610de2816118e7565b92915050565b600082601f830112610dfd57610dfc6117f3565b5b8135610e0d848260208601610d21565b91505092915050565b600081519050610e25816118fe565b92915050565b600081359050610e3a81611915565b92915050565b600081359050610e4f8161192c565b92915050565b600082601f830112610e6a57610e696117f3565b5b8135610e7a848260208601610d91565b91505092915050565b600081359050610e9281611943565b92915050565b600080600080600060a08688031215610eb457610eb3611807565b5b6000610ec288828901610dd3565b9550506020610ed388828901610dd3565b945050604086013567ffffffffffffffff811115610ef457610ef3611802565b5b610f0088828901610de8565b935050606086013567ffffffffffffffff811115610f2157610f20611802565b5b610f2d88828901610de8565b925050608086013567ffffffffffffffff811115610f4e57610f4d611802565b5b610f5a88828901610e55565b9150509295509295909350565b60008060008060808587031215610f8157610f80611807565b5b6000610f8f87828801610dd3565b9450506020610fa087828801610dd3565b9350506040610fb187828801610e83565b925050606085013567ffffffffffffffff811115610fd257610fd1611802565b5b610fde87828801610e55565b91505092959194509250565b6000806000806080858703121561100457611003611807565b5b600061101287828801610dd3565b945050602061102387828801610dd3565b935050604061103487828801610e83565b925050606061104587828801610e83565b91505092959194509250565b600080600080600060a0868803121561106d5761106c611807565b5b600061107b88828901610dd3565b955050602061108c88828901610dd3565b945050604061109d88828901610e83565b93505060606110ae88828901610e83565b925050608086013567ffffffffffffffff8111156110cf576110ce611802565b5b6110db88828901610e55565b9150509295509295909350565b6000602082840312156110fe576110fd611807565b5b600061110c84828501610e16565b91505092915050565b60006020828403121561112b5761112a611807565b5b600061113984828501610e2b565b91505092915050565b6000806040838503121561115957611158611807565b5b600061116785828601610e2b565b925050602061117885828601610dd3565b9150509250929050565b60006020828403121561119857611197611807565b5b60006111a684828501610e40565b91505092915050565b6111b88161161c565b82525050565b6111c78161162e565b82525050565b6111d68161163a565b82525050565b6111e581611644565b82525050565b60006111f682611529565b611200818561153f565b93506112108185602086016116a9565b6112198161180c565b840191505092915050565b600061122f82611534565b6112398185611550565b93506112498185602086016116a9565b6112528161180c565b840191505092915050565b600061126882611534565b6112728185611561565b93506112828185602086016116a9565b80840191505092915050565b600061129b602083611550565b91506112a68261181d565b602082019050919050565b60006112be601783611561565b91506112c982611846565b601782019050919050565b60006112e1601183611561565b91506112ec8261186f565b601182019050919050565b6000611304602f83611550565b915061130f82611898565b604082019050919050565b61132381611690565b82525050565b6000611334826112b1565b9150611340828561125d565b915061134b826112d4565b9150611357828461125d565b91508190509392505050565b600060608201905061137860008301866111af565b61138560208301856111af565b611392604083018461131a565b949350505050565b600060a0820190506113af60008301886111af565b6113bc60208301876111af565b6113c9604083018661131a565b6113d6606083018561131a565b81810360808301526113e881846111eb565b90509695505050505050565b600060208201905061140960008301846111be565b92915050565b600060208201905061142460008301846111cd565b92915050565b600060208201905061143f60008301846111dc565b92915050565b6000602082019050818103600083015261145f8184611224565b905092915050565b600060208201905081810360008301526114808161128e565b9050919050565b600060208201905081810360008301526114a0816112f7565b9050919050565b60006114b16114c2565b90506114bd8282611706565b919050565b6000604051905090565b600067ffffffffffffffff8211156114e7576114e66117c4565b5b602082029050602081019050919050565b600067ffffffffffffffff821115611513576115126117c4565b5b61151c8261180c565b9050602081019050919050565b600081519050919050565b600081519050919050565b600082825260208201905092915050565b600082825260208201905092915050565b600081905092915050565b600061157782611690565b915061158283611690565b9250827fffffffffffffffffffffffffffffffffffffffffffffffffffffffffffffffff038211156115b7576115b6611737565b5b828201905092915050565b60006115cd82611690565b91506115d883611690565b9250817fffffffffffffffffffffffffffffffffffffffffffffffffffffffffffffffff048311821515161561161157611610611737565b5b828202905092915050565b600061162782611670565b9050919050565b60008115159050919050565b6000819050919050565b60007fffffffff0000000000000000000000000000000000000000000000000000000082169050919050565b600073ffffffffffffffffffffffffffffffffffffffff82169050919050565b6000819050919050565b82818337600083830152505050565b60005b838110156116c75780820151818401526020810190506116ac565b838111156116d6576000848401525b50505050565b60006116e782611690565b915060008214156116fb576116fa611737565b5b600182039050919050565b61170f8261180c565b810181811067ffffffffffffffff8211171561172e5761172d6117c4565b5b80604052505050565b7f4e487b7100000000000000000000000000000000000000000000000000000000600052601160045260246000fd5b7f4e487b7100000000000000000000000000000000000000000000000000000000600052602160045260246000fd5b7f4e487b7100000000000000000000000000000000000000000000000000000000600052603260045260246000fd5b7f4e487b7100000000000000000000000000000000000000000000000000000000600052604160045260246000fd5b600080fd5b600080fd5b600080fd5b600080fd5b600080fd5b6000601f19601f8301169050919050565b7f537472696e67733a20686578206c656e67746820696e73756666696369656e74600082015250565b7f416363657373436f6e74726f6c3a206163636f756e7420000000000000000000600082015250565b7f206973206d697373696e6720726f6c6520000000000000000000000000000000600082015250565b7f416363657373436f6e74726f6c3a2063616e206f6e6c792072656e6f756e636560008201527f20726f6c657320666f722073656c660000000000000000000000000000000000602082015250565b6118f08161161c565b81146118fb57600080fd5b50565b6119078161162e565b811461191257600080fd5b50565b61191e8161163a565b811461192957600080fd5b50565b61193581611644565b811461194057600080fd5b50565b61194c81611690565b811461195757600080fd5b5056fea264697066735822122057274745e288bdc0a1cdfcd16be614a2c445eee5f4e9a473ce798d379cb4eec864736f6c63430008070033",
  "immutableReferences": {},
  "source": "// SPDX-License-Identifier: MIT\r\npragma solidity ^0.8.0;\r\n\r\nimport \"../openzeppelin/contracts/access/AccessControl.sol\";\r\nimport \"../openzeppelin/contracts/token/ERC1155/IERC1155.sol\";\r\nimport \"../openzeppelin/contracts/token/ERC1155/IERC1155Receiver.sol\";\r\nimport \"../openzeppelin/contracts/token/ERC1155/utils/ERC1155Holder.sol\";\r\nimport \"../openzeppelin/contracts/token/ERC721/IERC721.sol\";\r\nimport \"../openzeppelin/contracts/token/ERC721/utils/ERC721Holder.sol\";\r\n\r\nenum AssetType { ERC721, ERC1155 }\r\n\r\ncontract MarketWalletV1 is AccessControl, ERC721Holder, ERC1155Holder  {\r\n\r\n  bytes internal constant EMPTY = \"\";\r\n  \r\n  bytes32 public constant ADMIN_ROLE = keccak256(\"ADMIN_ROLE\");\r\n\r\n  constructor() {\r\n    _setupRole(DEFAULT_ADMIN_ROLE, msg.sender);\r\n    \r\n    _setupRole(ADMIN_ROLE, msg.sender);\r\n    _setRoleAdmin(ADMIN_ROLE, DEFAULT_ADMIN_ROLE);\r\n  }\r\n\r\n  function supportsInterface(bytes4 interfaceID) override(AccessControl, ERC1155Receiver)\r\n    public view returns (bool) {\r\n    return super.supportsInterface(interfaceID);\r\n  }\r\n\r\n  function getAssetType(address asset) private view returns (AssetType) {\r\n    if (IERC165(asset).supportsInterface(type(IERC1155).interfaceId)) {\r\n      return AssetType.ERC1155;\r\n    }\r\n\r\n    return AssetType.ERC721;\r\n  }\r\n\r\n  function take(\r\n    address token,\r\n    address from,\r\n    uint id,\r\n    uint quantity\r\n  ) public onlyRole(ADMIN_ROLE) {\r\n    _transfer(getAssetType(token), token, from, address(this), id, quantity);\r\n  }\r\n\r\n  function give(\r\n    address token,\r\n    address to,\r\n    uint id,\r\n    uint quantity\r\n  ) public onlyRole(ADMIN_ROLE) {\r\n    _transfer(getAssetType(token), token, address(this), to, id, quantity);\r\n  }\r\n  \r\n  function _transfer(\r\n    AssetType assetType,\r\n    address asset,\r\n    address from,\r\n    address to,\r\n    uint id,\r\n    uint quantity\r\n  ) private {\r\n    if (assetType == AssetType.ERC1155) {\r\n      IERC1155(asset).safeTransferFrom(from, to, id, quantity, EMPTY);\r\n    } else {\r\n      IERC721(asset).safeTransferFrom(from, to, id);\r\n    }\r\n  }\r\n}",
  "sourcePath": "C:/Users/Husnain/Documents/Projects/Fanbase/fanbase/packages/ethereum/contracts/solidity/collectibles/MarketWalletV1.sol",
  "compiler": {
    "name": "solc",
    "version": "0.8.7+commit.e28d00a7.Emscripten.clang"
  },
  "schemaVersion": "3.4.1",
  "updatedAt": "2021-09-07T17:34:35.376Z",
  "networkType": "ethereum",
  "devdoc": {
    "kind": "dev",
    "methods": {
      "getRoleAdmin(bytes32)": {
        "details": "Returns the admin role that controls `role`. See {grantRole} and {revokeRole}. To change a role's admin, use {_setRoleAdmin}."
      },
      "grantRole(bytes32,address)": {
        "details": "Grants `role` to `account`. If `account` had not been already granted `role`, emits a {RoleGranted} event. Requirements: - the caller must have ``role``'s admin role."
      },
      "hasRole(bytes32,address)": {
        "details": "Returns `true` if `account` has been granted `role`."
      },
      "onERC721Received(address,address,uint256,bytes)": {
        "details": "See {IERC721Receiver-onERC721Received}. Always returns `IERC721Receiver.onERC721Received.selector`."
      },
      "renounceRole(bytes32,address)": {
        "details": "Revokes `role` from the calling account. Roles are often managed via {grantRole} and {revokeRole}: this function's purpose is to provide a mechanism for accounts to lose their privileges if they are compromised (such as when a trusted device is misplaced). If the calling account had been granted `role`, emits a {RoleRevoked} event. Requirements: - the caller must be `account`."
      },
      "revokeRole(bytes32,address)": {
        "details": "Revokes `role` from `account`. If `account` had been granted `role`, emits a {RoleRevoked} event. Requirements: - the caller must have ``role``'s admin role."
      }
    },
    "version": 1
  },
  "userdoc": {
    "kind": "user",
    "methods": {},
    "version": 1
  }
}