{
  "contractName": "MarketV1",
  "abi": [
    {
      "inputs": [
        {
          "internalType": "contract MarketWalletV1",
          "name": "wallet",
          "type": "address"
        }
      ],
      "stateMutability": "nonpayable",
      "type": "constructor"
    },
    {
      "anonymous": false,
      "inputs": [
        {
          "indexed": false,
          "internalType": "uint256",
          "name": "tradeId",
          "type": "uint256"
        },
        {
          "indexed": false,
          "internalType": "address",
          "name": "buyer",
          "type": "address"
        },
        {
          "indexed": false,
          "internalType": "uint256",
          "name": "quantity",
          "type": "uint256"
        }
      ],
      "name": "Buy",
      "type": "event"
    },
    {
      "anonymous": false,
      "inputs": [
        {
          "indexed": false,
          "internalType": "address",
          "name": "operator",
          "type": "address"
        },
        {
          "indexed": false,
          "internalType": "uint256",
          "name": "tradeId",
          "type": "uint256"
        },
        {
          "indexed": false,
          "internalType": "address",
          "name": "tokenContract",
          "type": "address"
        },
        {
          "indexed": false,
          "internalType": "uint256",
          "name": "tokenId",
          "type": "uint256"
        },
        {
          "indexed": false,
          "internalType": "uint256",
          "name": "returned",
          "type": "uint256"
        }
      ],
      "name": "CancelListing",
      "type": "event"
    },
    {
      "anonymous": false,
      "inputs": [
        {
          "indexed": false,
          "internalType": "uint256",
          "name": "tradeId",
          "type": "uint256"
        },
        {
          "indexed": false,
          "internalType": "address",
          "name": "seller",
          "type": "address"
        },
        {
          "indexed": false,
          "internalType": "address",
          "name": "tokenContract",
          "type": "address"
        },
        {
          "indexed": false,
          "internalType": "uint256",
          "name": "tokenId",
          "type": "uint256"
        },
        {
          "indexed": false,
          "internalType": "uint256",
          "name": "quantity",
          "type": "uint256"
        },
        {
          "indexed": false,
          "internalType": "address",
          "name": "currency",
          "type": "address"
        },
        {
          "indexed": false,
          "internalType": "uint256",
          "name": "price",
          "type": "uint256"
        }
      ],
      "name": "ListForSale",
      "type": "event"
    },
    {
      "anonymous": false,
      "inputs": [
        {
          "indexed": false,
          "internalType": "address",
          "name": "account",
          "type": "address"
        }
      ],
      "name": "Paused",
      "type": "event"
    },
    {
      "anonymous": false,
      "inputs": [
        {
          "indexed": true,
          "internalType": "bytes32",
          "name": "role",
          "type": "bytes32"
        },
        {
          "indexed": true,
          "internalType": "bytes32",
          "name": "previousAdminRole",
          "type": "bytes32"
        },
        {
          "indexed": true,
          "internalType": "bytes32",
          "name": "newAdminRole",
          "type": "bytes32"
        }
      ],
      "name": "RoleAdminChanged",
      "type": "event"
    },
    {
      "anonymous": false,
      "inputs": [
        {
          "indexed": true,
          "internalType": "bytes32",
          "name": "role",
          "type": "bytes32"
        },
        {
          "indexed": true,
          "internalType": "address",
          "name": "account",
          "type": "address"
        },
        {
          "indexed": true,
          "internalType": "address",
          "name": "sender",
          "type": "address"
        }
      ],
      "name": "RoleGranted",
      "type": "event"
    },
    {
      "anonymous": false,
      "inputs": [
        {
          "indexed": true,
          "internalType": "bytes32",
          "name": "role",
          "type": "bytes32"
        },
        {
          "indexed": true,
          "internalType": "address",
          "name": "account",
          "type": "address"
        },
        {
          "indexed": true,
          "internalType": "address",
          "name": "sender",
          "type": "address"
        }
      ],
      "name": "RoleRevoked",
      "type": "event"
    },
    {
      "anonymous": false,
      "inputs": [
        {
          "indexed": false,
          "internalType": "uint256",
          "name": "tradeId",
          "type": "uint256"
        }
      ],
      "name": "Sell",
      "type": "event"
    },
    {
      "anonymous": false,
      "inputs": [
        {
          "indexed": false,
          "internalType": "address",
          "name": "account",
          "type": "address"
        }
      ],
      "name": "Unpaused",
      "type": "event"
    },
    {
      "inputs": [],
      "name": "ADMIN_ROLE",
      "outputs": [
        {
          "internalType": "bytes32",
          "name": "",
          "type": "bytes32"
        }
      ],
      "stateMutability": "view",
      "type": "function"
    },
    {
      "inputs": [],
      "name": "DEFAULT_ADMIN_ROLE",
      "outputs": [
        {
          "internalType": "bytes32",
          "name": "",
          "type": "bytes32"
        }
      ],
      "stateMutability": "view",
      "type": "function"
    },
    {
      "inputs": [],
      "name": "buyerFeePct",
      "outputs": [
        {
          "internalType": "uint256",
          "name": "",
          "type": "uint256"
        }
      ],
      "stateMutability": "view",
      "type": "function"
    },
    {
      "inputs": [
        {
          "internalType": "bytes32",
          "name": "role",
          "type": "bytes32"
        }
      ],
      "name": "getRoleAdmin",
      "outputs": [
        {
          "internalType": "bytes32",
          "name": "",
          "type": "bytes32"
        }
      ],
      "stateMutability": "view",
      "type": "function"
    },
    {
      "inputs": [
        {
          "internalType": "bytes32",
          "name": "role",
          "type": "bytes32"
        },
        {
          "internalType": "address",
          "name": "account",
          "type": "address"
        }
      ],
      "name": "grantRole",
      "outputs": [],
      "stateMutability": "nonpayable",
      "type": "function"
    },
    {
      "inputs": [
        {
          "internalType": "bytes32",
          "name": "role",
          "type": "bytes32"
        },
        {
          "internalType": "address",
          "name": "account",
          "type": "address"
        }
      ],
      "name": "hasRole",
      "outputs": [
        {
          "internalType": "bool",
          "name": "",
          "type": "bool"
        }
      ],
      "stateMutability": "view",
      "type": "function"
    },
    {
      "inputs": [],
      "name": "hundredPct",
      "outputs": [
        {
          "internalType": "uint256",
          "name": "",
          "type": "uint256"
        }
      ],
      "stateMutability": "view",
      "type": "function"
    },
    {
      "inputs": [],
      "name": "maxTokenPrice",
      "outputs": [
        {
          "internalType": "uint256",
          "name": "",
          "type": "uint256"
        }
      ],
      "stateMutability": "view",
      "type": "function"
    },
    {
      "inputs": [],
      "name": "maxTradeQuantity",
      "outputs": [
        {
          "internalType": "uint256",
          "name": "",
          "type": "uint256"
        }
      ],
      "stateMutability": "view",
      "type": "function"
    },
    {
      "inputs": [],
      "name": "minTokenPrice",
      "outputs": [
        {
          "internalType": "uint256",
          "name": "",
          "type": "uint256"
        }
      ],
      "stateMutability": "view",
      "type": "function"
    },
    {
      "inputs": [],
      "name": "paused",
      "outputs": [
        {
          "internalType": "bool",
          "name": "",
          "type": "bool"
        }
      ],
      "stateMutability": "view",
      "type": "function"
    },
    {
      "inputs": [
        {
          "internalType": "bytes32",
          "name": "role",
          "type": "bytes32"
        },
        {
          "internalType": "address",
          "name": "account",
          "type": "address"
        }
      ],
      "name": "renounceRole",
      "outputs": [],
      "stateMutability": "nonpayable",
      "type": "function"
    },
    {
      "inputs": [
        {
          "internalType": "bytes32",
          "name": "role",
          "type": "bytes32"
        },
        {
          "internalType": "address",
          "name": "account",
          "type": "address"
        }
      ],
      "name": "revokeRole",
      "outputs": [],
      "stateMutability": "nonpayable",
      "type": "function"
    },
    {
      "inputs": [],
      "name": "sellerFeePct",
      "outputs": [
        {
          "internalType": "uint256",
          "name": "",
          "type": "uint256"
        }
      ],
      "stateMutability": "view",
      "type": "function"
    },
    {
      "inputs": [
        {
          "internalType": "bytes",
          "name": "",
          "type": "bytes"
        },
        {
          "internalType": "uint256",
          "name": "",
          "type": "uint256"
        }
      ],
      "name": "tradeHistory",
      "outputs": [
        {
          "internalType": "uint256",
          "name": "",
          "type": "uint256"
        }
      ],
      "stateMutability": "view",
      "type": "function"
    },
    {
      "inputs": [
        {
          "internalType": "bytes4",
          "name": "interfaceID",
          "type": "bytes4"
        }
      ],
      "name": "supportsInterface",
      "outputs": [
        {
          "internalType": "bool",
          "name": "",
          "type": "bool"
        }
      ],
      "stateMutability": "view",
      "type": "function"
    },
    {
      "inputs": [
        {
          "internalType": "uint256",
          "name": "tradeId",
          "type": "uint256"
        }
      ],
      "name": "get",
      "outputs": [
        {
          "components": [
            {
              "internalType": "uint256",
              "name": "id",
              "type": "uint256"
            },
            {
              "internalType": "address",
              "name": "seller",
              "type": "address"
            },
            {
              "internalType": "address",
              "name": "token",
              "type": "address"
            },
            {
              "internalType": "uint256",
              "name": "tokenId",
              "type": "uint256"
            },
            {
              "internalType": "uint256",
              "name": "quantity",
              "type": "uint256"
            },
            {
              "internalType": "uint256",
              "name": "available",
              "type": "uint256"
            },
            {
              "internalType": "address",
              "name": "currency",
              "type": "address"
            },
            {
              "internalType": "uint256",
              "name": "price",
              "type": "uint256"
            },
            {
              "internalType": "enum TradeStatus",
              "name": "status",
              "type": "uint8"
            }
          ],
          "internalType": "struct Trade",
          "name": "",
          "type": "tuple"
        }
      ],
      "stateMutability": "view",
      "type": "function"
    },
    {
      "inputs": [
        {
          "internalType": "uint256",
          "name": "tradeId",
          "type": "uint256"
        },
        {
          "internalType": "uint256",
          "name": "quantity",
          "type": "uint256"
        }
      ],
      "name": "buy",
      "outputs": [],
      "stateMutability": "nonpayable",
      "type": "function"
    },
    {
      "inputs": [
        {
          "internalType": "address",
          "name": "seller",
          "type": "address"
        },
        {
          "internalType": "address",
          "name": "token",
          "type": "address"
        },
        {
          "internalType": "uint256",
          "name": "tokenId",
          "type": "uint256"
        },
        {
          "internalType": "uint256",
          "name": "quantity",
          "type": "uint256"
        },
        {
          "internalType": "address",
          "name": "currency",
          "type": "address"
        },
        {
          "internalType": "uint256",
          "name": "price",
          "type": "uint256"
        },
        {
          "internalType": "uint256",
          "name": "expiry",
          "type": "uint256"
        },
        {
          "internalType": "uint256",
          "name": "salt",
          "type": "uint256"
        }
      ],
      "name": "getSaleAuthorizationHash",
      "outputs": [
        {
          "internalType": "bytes32",
          "name": "",
          "type": "bytes32"
        }
      ],
      "stateMutability": "view",
      "type": "function"
    },
    {
      "inputs": [
        {
          "internalType": "address",
          "name": "seller",
          "type": "address"
        },
        {
          "internalType": "address",
          "name": "token",
          "type": "address"
        },
        {
          "internalType": "uint256",
          "name": "tokenId",
          "type": "uint256"
        },
        {
          "internalType": "uint256",
          "name": "quantity",
          "type": "uint256"
        },
        {
          "internalType": "address",
          "name": "currency",
          "type": "address"
        },
        {
          "internalType": "uint256",
          "name": "price",
          "type": "uint256"
        },
        {
          "internalType": "uint256",
          "name": "expiry",
          "type": "uint256"
        },
        {
          "internalType": "uint256",
          "name": "salt",
          "type": "uint256"
        },
        {
          "internalType": "bytes",
          "name": "signature",
          "type": "bytes"
        }
      ],
      "name": "listForSale",
      "outputs": [],
      "stateMutability": "nonpayable",
      "type": "function"
    },
    {
      "inputs": [
        {
          "internalType": "uint256",
          "name": "tradeId",
          "type": "uint256"
        }
      ],
      "name": "cancel",
      "outputs": [],
      "stateMutability": "nonpayable",
      "type": "function"
    },
    {
      "inputs": [
        {
          "internalType": "address",
          "name": "currency",
          "type": "address"
        },
        {
          "internalType": "address",
          "name": "account",
          "type": "address"
        }
      ],
      "name": "getBalance",
      "outputs": [
        {
          "internalType": "uint256",
          "name": "",
          "type": "uint256"
        }
      ],
      "stateMutability": "view",
      "type": "function"
    },
    {
      "inputs": [
        {
          "internalType": "address",
          "name": "currency",
          "type": "address"
        },
        {
          "internalType": "uint256",
          "name": "amount",
          "type": "uint256"
        }
      ],
      "name": "withdraw",
      "outputs": [],
      "stateMutability": "nonpayable",
      "type": "function"
    },
    {
      "inputs": [
        {
          "internalType": "address",
          "name": "beneficiary",
          "type": "address"
        }
      ],
      "name": "setFeeBeneficiary",
      "outputs": [],
      "stateMutability": "nonpayable",
      "type": "function"
    },
    {
      "inputs": [
        {
          "internalType": "address",
          "name": "token",
          "type": "address"
        },
        {
          "internalType": "bool",
          "name": "isApproved",
          "type": "bool"
        }
      ],
      "name": "setTokenApproval",
      "outputs": [],
      "stateMutability": "nonpayable",
      "type": "function"
    },
    {
      "inputs": [
        {
          "internalType": "address",
          "name": "currency",
          "type": "address"
        },
        {
          "internalType": "bool",
          "name": "isApproved",
          "type": "bool"
        }
      ],
      "name": "setCurrencyApproval",
      "outputs": [],
      "stateMutability": "nonpayable",
      "type": "function"
    },
    {
      "inputs": [
        {
          "internalType": "uint256",
          "name": "price",
          "type": "uint256"
        }
      ],
      "name": "setMaxTokenPriceEther",
      "outputs": [],
      "stateMutability": "nonpayable",
      "type": "function"
    },
    {
      "inputs": [
        {
          "internalType": "uint256",
          "name": "price",
          "type": "uint256"
        }
      ],
      "name": "setMaxTokenPriceWei",
      "outputs": [],
      "stateMutability": "nonpayable",
      "type": "function"
    },
    {
      "inputs": [
        {
          "internalType": "uint256",
          "name": "quantity",
          "type": "uint256"
        }
      ],
      "name": "setMaxTradeQuantity",
      "outputs": [],
      "stateMutability": "nonpayable",
      "type": "function"
    },
    {
      "inputs": [
        {
          "internalType": "uint256",
          "name": "pct",
          "type": "uint256"
        }
      ],
      "name": "setBuyerFeePct",
      "outputs": [],
      "stateMutability": "nonpayable",
      "type": "function"
    },
    {
      "inputs": [
        {
          "internalType": "uint256",
          "name": "pct",
          "type": "uint256"
        }
      ],
      "name": "setSellerFeePct",
      "outputs": [],
      "stateMutability": "nonpayable",
      "type": "function"
    },
    {
      "inputs": [],
      "name": "pause",
      "outputs": [],
      "stateMutability": "nonpayable",
      "type": "function"
    },
    {
      "inputs": [],
      "name": "resume",
      "outputs": [],
      "stateMutability": "nonpayable",
      "type": "function"
    }
  ],
  "bytecode": "0x6080604052611388600255611388600355620186a060045569d3c21bcecceda1000000600555620f424060065560045460075560006009556000600d556000600f553480156200004e57600080fd5b5060405162005423380380620054238339818101604052810190620000749190620003a0565b6000600160006101000a81548160ff021916908315150217905550620000a46000801b336200019460201b60201c565b620000d67fa49807205ce4d355092ef5a8a18f56e8913cf4a201fbe287825b095693c21775336200019460201b60201c565b6200010b7fa49807205ce4d355092ef5a8a18f56e8913cf4a201fbe287825b095693c217756000801b620001aa60201b60201c565b33601160006101000a81548173ffffffffffffffffffffffffffffffffffffffff021916908373ffffffffffffffffffffffffffffffffffffffff16021790555080601260006101000a81548173ffffffffffffffffffffffffffffffffffffffff021916908373ffffffffffffffffffffffffffffffffffffffff1602179055505062000439565b620001a682826200020760201b60201c565b5050565b80620001bc83620002f860201b60201c565b837fbd79b86ffe0ab8e8776151514217cd7cacd52c909f66475c3af44e129f0b00ff60405160405180910390a480600080848152602001908152602001600020600101819055505050565b6200021982826200031760201b60201c565b620002f457600160008084815260200190815260200160002060000160008373ffffffffffffffffffffffffffffffffffffffff1673ffffffffffffffffffffffffffffffffffffffff16815260200190815260200160002060006101000a81548160ff021916908315150217905550620002996200038160201b60201c565b73ffffffffffffffffffffffffffffffffffffffff168173ffffffffffffffffffffffffffffffffffffffff16837f2f8788117e7eff1d82e926ec794901d17c78024a50270940304540a733656f0d60405160405180910390a45b5050565b6000806000838152602001908152602001600020600101549050919050565b600080600084815260200190815260200160002060000160008373ffffffffffffffffffffffffffffffffffffffff1673ffffffffffffffffffffffffffffffffffffffff16815260200190815260200160002060009054906101000a900460ff16905092915050565b600033905090565b6000815190506200039a816200041f565b92915050565b600060208284031215620003b957620003b86200041a565b5b6000620003c98482850162000389565b91505092915050565b6000620003df82620003fa565b9050919050565b6000620003f382620003d2565b9050919050565b600073ffffffffffffffffffffffffffffffffffffffff82169050919050565b600080fd5b6200042a81620003e6565b81146200043657600080fd5b50565b614fda80620004496000396000f3fe608060405234801561001057600080fd5b50600436106101fb5760003560e01c80638662732e1161011a578063d428dc2b116100ad578063e45ad64a1161007c578063e45ad64a14610576578063e6a5010014610592578063f3fef3a3146105ae578063fbb5470c146105ca578063fd1fc13e146105fa576101fb565b8063d428dc2b146104f0578063d4fac45d1461050e578063d547741f1461053e578063d6febde81461055a576101fb565b8063a217fddf116100e9578063a217fddf1461047e578063b8358a611461049c578063bca99819146104b8578063c661b89d146104d4576101fb565b80638662732e146103d05780638ce5ab6a1461040057806391d148541461041e5780639507d39a1461044e576101fb565b80635a0a3d821161019257806375b238fc1161016157806375b238fc1461036c57806377e5c4a81461038a5780638456cb59146103a857806385d561ae146103b2576101fb565b80635a0a3d82146102f85780635c975abb146103145780635dabb20e14610332578063670436f114610350576101fb565b80632b483c03116101ce5780632b483c03146102865780632f2ff15d146102a457806336568abe146102c057806340e58ee5146102dc576101fb565b806301ffc9a714610200578063046f7da21461023057806314d91c841461023a578063248a9ca314610256575b600080fd5b61021a600480360381019061021591906136bf565b610616565b6040516102279190614033565b60405180910390f35b610238610628565b005b610254600480360381019061024f9190613513565b610665565b005b610270600480360381019061026b9190613652565b6106f3565b60405161027d919061404e565b60405180910390f35b61028e610712565b60405161029b9190614407565b60405180910390f35b6102be60048036038101906102b9919061367f565b610718565b005b6102da60048036038101906102d5919061367f565b610741565b005b6102f660048036038101906102f19190613748565b6107c4565b005b610312600480360381019061030d9190613305565b610b92565b005b61031c610bec565b6040516103299190614033565b60405180910390f35b61033a610c03565b6040516103479190614407565b60405180910390f35b61036a60048036038101906103659190613513565b610c09565b005b610374610c97565b604051610381919061404e565b60405180910390f35b610392610cbb565b60405161039f9190614407565b60405180910390f35b6103b0610cc1565b005b6103ba610cfe565b6040516103c79190614407565b60405180910390f35b6103ea60048036038101906103e59190613372565b610d04565b6040516103f7919061404e565b60405180910390f35b610408610d4b565b6040516104159190614407565b60405180910390f35b6104386004803603810190610433919061367f565b610d51565b6040516104459190614033565b60405180910390f35b61046860048036038101906104639190613748565b610dbb565b60405161047591906143eb565b60405180910390f35b610486610f58565b604051610493919061404e565b60405180910390f35b6104b660048036038101906104b19190613428565b610f5f565b005b6104d260048036038101906104cd9190613748565b6117aa565b005b6104ee60048036038101906104e99190613748565b6117fa565b005b6104f861187c565b6040516105059190614407565b60405180910390f35b61052860048036038101906105239190613332565b611882565b6040516105359190614407565b60405180910390f35b6105586004803603810190610553919061367f565b611909565b005b610574600480360381019061056f91906137a2565b611932565b005b610590600480360381019061058b9190613748565b611f99565b005b6105ac60048036038101906105a79190613748565b61201b565b005b6105c860048036038101906105c39190613553565b612058565b005b6105e460048036038101906105df91906136ec565b61223c565b6040516105f19190614407565b60405180910390f35b610614600480360381019061060f9190613748565b612283565b005b6000610621826122c0565b9050919050565b7fa49807205ce4d355092ef5a8a18f56e8913cf4a201fbe287825b095693c2177561065a8161065561233a565b612342565b6106626123df565b50565b7fa49807205ce4d355092ef5a8a18f56e8913cf4a201fbe287825b095693c217756106978161069261233a565b612342565b81600c60008573ffffffffffffffffffffffffffffffffffffffff1673ffffffffffffffffffffffffffffffffffffffff16815260200190815260200160002060006101000a81548160ff021916908315150217905550505050565b6000806000838152602001908152602001600020600101549050919050565b60035481565b610721826106f3565b6107328161072d61233a565b612342565b61073c8383612481565b505050565b61074961233a565b73ffffffffffffffffffffffffffffffffffffffff168173ffffffffffffffffffffffffffffffffffffffff16146107b6576040517f08c379a00000000000000000000000000000000000000000000000000000000081526004016107ad906143cb565b60405180910390fd5b6107c08282612561565b5050565b6000600a600083815260200190815260200160002060405180610120016040529081600082015481526020016001820160009054906101000a900473ffffffffffffffffffffffffffffffffffffffff1673ffffffffffffffffffffffffffffffffffffffff1673ffffffffffffffffffffffffffffffffffffffff1681526020016002820160009054906101000a900473ffffffffffffffffffffffffffffffffffffffff1673ffffffffffffffffffffffffffffffffffffffff1673ffffffffffffffffffffffffffffffffffffffff1681526020016003820154815260200160048201548152602001600582015481526020016006820160009054906101000a900473ffffffffffffffffffffffffffffffffffffffff1673ffffffffffffffffffffffffffffffffffffffff1673ffffffffffffffffffffffffffffffffffffffff168152602001600782015481526020016008820160009054906101000a900460ff16600281111561093e5761093d614906565b5b60028111156109505761094f614906565b5b8152505090506000600281111561096a57610969614906565b5b816101000151600281111561098257610981614906565b5b146109c2576040517f08c379a00000000000000000000000000000000000000000000000000000000081526004016109b9906141cb565b60405180910390fd5b806020015173ffffffffffffffffffffffffffffffffffffffff163373ffffffffffffffffffffffffffffffffffffffff161480610a265750610a257fa49807205ce4d355092ef5a8a18f56e8913cf4a201fbe287825b095693c2177533610d51565b5b610a65576040517f08c379a0000000000000000000000000000000000000000000000000000000008152600401610a5c9061418b565b60405180910390fd5b6002600a600084815260200190815260200160002060080160006101000a81548160ff02191690836002811115610a9f57610a9e614906565b5b0217905550601260009054906101000a900473ffffffffffffffffffffffffffffffffffffffff1673ffffffffffffffffffffffffffffffffffffffff16632ed7bae882604001513384606001518560a001516040518563ffffffff1660e01b8152600401610b119493929190613f72565b600060405180830381600087803b158015610b2b57600080fd5b505af1158015610b3f573d6000803e3d6000fd5b505050507fc601fcdba72395d2bf26895fdc068bb88a1ff514bafce37723be90787ed0a4803383836040015184606001518560a00151604051610b86959493929190613fe0565b60405180910390a15050565b6000801b610ba781610ba261233a565b612342565b81601160006101000a81548173ffffffffffffffffffffffffffffffffffffffff021916908373ffffffffffffffffffffffffffffffffffffffff1602179055505050565b6000600160009054906101000a900460ff16905090565b60075481565b7fa49807205ce4d355092ef5a8a18f56e8913cf4a201fbe287825b095693c21775610c3b81610c3661233a565b612342565b81600e60008573ffffffffffffffffffffffffffffffffffffffff1673ffffffffffffffffffffffffffffffffffffffff16815260200190815260200160002060006101000a81548160ff021916908315150217905550505050565b7fa49807205ce4d355092ef5a8a18f56e8913cf4a201fbe287825b095693c2177581565b60055481565b7fa49807205ce4d355092ef5a8a18f56e8913cf4a201fbe287825b095693c21775610cf381610cee61233a565b612342565b610cfb612642565b50565b60065481565b6000308989898989898989604051602001610d2799989796959493929190613db1565b60405160208183030381529060405280519060200120905098975050505050505050565b60025481565b600080600084815260200190815260200160002060000160008373ffffffffffffffffffffffffffffffffffffffff1673ffffffffffffffffffffffffffffffffffffffff16815260200190815260200160002060009054906101000a900460ff16905092915050565b610dc3612fbb565b600a600083815260200190815260200160002060405180610120016040529081600082015481526020016001820160009054906101000a900473ffffffffffffffffffffffffffffffffffffffff1673ffffffffffffffffffffffffffffffffffffffff1673ffffffffffffffffffffffffffffffffffffffff1681526020016002820160009054906101000a900473ffffffffffffffffffffffffffffffffffffffff1673ffffffffffffffffffffffffffffffffffffffff1673ffffffffffffffffffffffffffffffffffffffff1681526020016003820154815260200160048201548152602001600582015481526020016006820160009054906101000a900473ffffffffffffffffffffffffffffffffffffffff1673ffffffffffffffffffffffffffffffffffffffff1673ffffffffffffffffffffffffffffffffffffffff168152602001600782015481526020016008820160009054906101000a900460ff166002811115610f3b57610f3a614906565b5b6002811115610f4d57610f4c614906565b5b815250509050919050565b6000801b81565b610f67610bec565b15610fa7576040517f08c379a0000000000000000000000000000000000000000000000000000000008152600401610f9e9061424b565b60405180910390fd5b600754851015610fec576040517f08c379a0000000000000000000000000000000000000000000000000000000008152600401610fe3906142cb565b60405180910390fd5b600554851115611031576040517f08c379a00000000000000000000000000000000000000000000000000000000081526004016110289061426b565b60405180910390fd5b600654871115611076576040517f08c379a000000000000000000000000000000000000000000000000000000000815260040161106d9061428b565b60405180910390fd5b600c60008a73ffffffffffffffffffffffffffffffffffffffff1673ffffffffffffffffffffffffffffffffffffffff16815260200190815260200160002060009054906101000a900460ff16611102576040517f08c379a00000000000000000000000000000000000000000000000000000000081526004016110f9906142ab565b60405180910390fd5b600e60008773ffffffffffffffffffffffffffffffffffffffff1673ffffffffffffffffffffffffffffffffffffffff16815260200190815260200160002060009054906101000a900460ff1661118e576040517f08c379a00000000000000000000000000000000000000000000000000000000081526004016111859061420b565b60405180910390fd5b6111b87fa49807205ce4d355092ef5a8a18f56e8913cf4a201fbe287825b095693c2177533610d51565b6113a7574284116111fe576040517f08c379a00000000000000000000000000000000000000000000000000000000081526004016111f59061430b565b60405180910390fd5b60006112108b8b8b8b8b8b8b8b610d04565b90506010600082815260200190815260200160002060009054906101000a900460ff1615611273576040517f08c379a000000000000000000000000000000000000000000000000000000000815260040161126a9061434b565b60405180910390fd5b60006112d484848080601f016020809104026020016040519081016040528093929190818152602001838380828437600081840152601f19601f820116905080830192505050505050506112c6846126e4565b61271490919063ffffffff16565b9050600073ffffffffffffffffffffffffffffffffffffffff168173ffffffffffffffffffffffffffffffffffffffff161415801561133957506113387fa49807205ce4d355092ef5a8a18f56e8913cf4a201fbe287825b095693c2177582610d51565b5b611378576040517f08c379a000000000000000000000000000000000000000000000000000000000815260040161136f9061438b565b60405180910390fd5b60016010600084815260200190815260200160002060006101000a81548160ff02191690831515021790555050505b8873ffffffffffffffffffffffffffffffffffffffff166301ffc9a77fd9b67a26000000000000000000000000000000000000000000000000000000006040518263ffffffff1660e01b815260040161140091906140ae565b60206040518083038186803b15801561141857600080fd5b505afa15801561142c573d6000803e3d6000fd5b505050506040513d601f19601f820116820180604052508101906114509190613625565b61145957600196505b601260009054906101000a900473ffffffffffffffffffffffffffffffffffffffff1673ffffffffffffffffffffffffffffffffffffffff166340fd58298a8c8b8b6040518563ffffffff1660e01b81526004016114ba9493929190613f72565b600060405180830381600087803b1580156114d457600080fd5b505af11580156114e8573d6000803e3d6000fd5b50505050600960008154809291906114ff90614827565b9190505550600060405180610120016040528060095481526020018c73ffffffffffffffffffffffffffffffffffffffff1681526020018b73ffffffffffffffffffffffffffffffffffffffff1681526020018a81526020018981526020018981526020018873ffffffffffffffffffffffffffffffffffffffff1681526020018781526020016000600281111561159a57611599614906565b5b815250905080600a600060095481526020019081526020016000206000820151816000015560208201518160010160006101000a81548173ffffffffffffffffffffffffffffffffffffffff021916908373ffffffffffffffffffffffffffffffffffffffff16021790555060408201518160020160006101000a81548173ffffffffffffffffffffffffffffffffffffffff021916908373ffffffffffffffffffffffffffffffffffffffff160217905550606082015181600301556080820151816004015560a0820151816005015560c08201518160060160006101000a81548173ffffffffffffffffffffffffffffffffffffffff021916908373ffffffffffffffffffffffffffffffffffffffff16021790555060e082015181600701556101008201518160080160006101000a81548160ff021916908360028111156116e8576116e7614906565b5b021790555090505060088a8a604051602001611705929190613e54565b6040516020818303038152906040526040516117219190613e80565b908152602001604051809103902060095490806001815401808255809150506001900390600052602060002001600090919091909150557f8c043961a2a3de4608ff0a3647fa6bdef2510bbf7ea923cd9b68bd43de4040e46009548c8c8c8c8c8c6040516117959796959493929190614422565b60405180910390a15050505050505050505050565b7fa49807205ce4d355092ef5a8a18f56e8913cf4a201fbe287825b095693c217756117dc816117d761233a565b612342565b670de0b6b3a7640000826117f0919061463a565b6005819055505050565b7fa49807205ce4d355092ef5a8a18f56e8913cf4a201fbe287825b095693c2177561182c8161182761233a565b612342565b600454821115611871576040517f08c379a00000000000000000000000000000000000000000000000000000000081526004016118689061436b565b60405180910390fd5b816003819055505050565b60045481565b6000600b60008373ffffffffffffffffffffffffffffffffffffffff1673ffffffffffffffffffffffffffffffffffffffff16815260200190815260200160002060008473ffffffffffffffffffffffffffffffffffffffff1673ffffffffffffffffffffffffffffffffffffffff16815260200190815260200160002054905092915050565b611912826106f3565b6119238161191e61233a565b612342565b61192d8383612561565b505050565b61193a610bec565b1561197a576040517f08c379a00000000000000000000000000000000000000000000000000000000081526004016119719061424b565b60405180910390fd5b6000600a600084815260200190815260200160002060405180610120016040529081600082015481526020016001820160009054906101000a900473ffffffffffffffffffffffffffffffffffffffff1673ffffffffffffffffffffffffffffffffffffffff1673ffffffffffffffffffffffffffffffffffffffff1681526020016002820160009054906101000a900473ffffffffffffffffffffffffffffffffffffffff1673ffffffffffffffffffffffffffffffffffffffff1673ffffffffffffffffffffffffffffffffffffffff1681526020016003820154815260200160048201548152602001600582015481526020016006820160009054906101000a900473ffffffffffffffffffffffffffffffffffffffff1673ffffffffffffffffffffffffffffffffffffffff1673ffffffffffffffffffffffffffffffffffffffff168152602001600782015481526020016008820160009054906101000a900460ff166002811115611af457611af3614906565b5b6002811115611b0657611b05614906565b5b81525050905060006002811115611b2057611b1f614906565b5b8161010001516002811115611b3857611b37614906565b5b14611b78576040517f08c379a0000000000000000000000000000000000000000000000000000000008152600401611b6f906141ab565b60405180910390fd5b8060a00151821115611bbf576040517f08c379a0000000000000000000000000000000000000000000000000000000008152600401611bb69061412b565b60405180910390fd5b806020015173ffffffffffffffffffffffffffffffffffffffff163373ffffffffffffffffffffffffffffffffffffffff161415611c32576040517f08c379a0000000000000000000000000000000000000000000000000000000008152600401611c299061432b565b60405180910390fd5b6000828260e00151611c44919061463a565b905060008260c001519050600080611c5b846127de565b9150915060008373ffffffffffffffffffffffffffffffffffffffff1663dd62ed3e33306040518363ffffffff1660e01b8152600401611c9c929190613f12565b60206040518083038186803b158015611cb457600080fd5b505afa158015611cc8573d6000803e3d6000fd5b505050506040513d601f19601f82011682018060405250810190611cec9190613775565b90508185611cfa91906145b3565b811015611d3c576040517f08c379a0000000000000000000000000000000000000000000000000000000008152600401611d339061422b565b60405180910390fd5b8373ffffffffffffffffffffffffffffffffffffffff166323b872dd33308589611d6691906145b3565b6040518463ffffffff1660e01b8152600401611d8493929190613f3b565b602060405180830381600087803b158015611d9e57600080fd5b505af1158015611db2573d6000803e3d6000fd5b505050506040513d601f19601f82011682018060405250810190611dd69190613625565b506000878760a00151611de99190614694565b905080600a60008b8152602001908152602001600020600501819055506000811415611e86576001600a60008b815260200190815260200160002060080160006101000a81548160ff02191690836002811115611e4957611e48614906565b5b02179055507f522881958b3c4a6fc0840ad3b7fb947b881edc28c004245a62541647422ade9789604051611e7d9190614407565b60405180910390a15b6000611ea28786868b604001518c606001518d60c00151612820565b9050611eb78860c00151896020015183612af2565b601260009054906101000a900473ffffffffffffffffffffffffffffffffffffffff1673ffffffffffffffffffffffffffffffffffffffff16632ed7bae88960400151338b606001518d6040518563ffffffff1660e01b8152600401611f209493929190613f72565b600060405180830381600087803b158015611f3a57600080fd5b505af1158015611f4e573d6000803e3d6000fd5b505050507f3b599f6217e39be59216b60e543ce0d4c7d534fe64dd9d962334924e7819894e8a338b604051611f8593929190614491565b60405180910390a150505050505050505050565b7fa49807205ce4d355092ef5a8a18f56e8913cf4a201fbe287825b095693c21775611fcb81611fc661233a565b612342565b600454821115612010576040517f08c379a00000000000000000000000000000000000000000000000000000000081526004016120079061436b565b60405180910390fd5b816002819055505050565b7fa49807205ce4d355092ef5a8a18f56e8913cf4a201fbe287825b095693c2177561204d8161204861233a565b612342565b816006819055505050565b80600b60003373ffffffffffffffffffffffffffffffffffffffff1673ffffffffffffffffffffffffffffffffffffffff16815260200190815260200160002060008473ffffffffffffffffffffffffffffffffffffffff1673ffffffffffffffffffffffffffffffffffffffff168152602001908152602001600020541015612117576040517f08c379a000000000000000000000000000000000000000000000000000000000815260040161210e906143ab565b60405180910390fd5b80600b60003373ffffffffffffffffffffffffffffffffffffffff1673ffffffffffffffffffffffffffffffffffffffff16815260200190815260200160002060008473ffffffffffffffffffffffffffffffffffffffff1673ffffffffffffffffffffffffffffffffffffffff16815260200190815260200160002060008282546121a39190614694565b925050819055508173ffffffffffffffffffffffffffffffffffffffff1663a9059cbb33836040518363ffffffff1660e01b81526004016121e5929190613fb7565b602060405180830381600087803b1580156121ff57600080fd5b505af1158015612213573d6000803e3d6000fd5b505050506040513d601f19601f820116820180604052508101906122379190613625565b505050565b600882805160208101820180518482526020830160208501208183528095505050505050818154811061226e57600080fd5b90600052602060002001600091509150505481565b7fa49807205ce4d355092ef5a8a18f56e8913cf4a201fbe287825b095693c217756122b5816122b061233a565b612342565b816005819055505050565b60007f7965db0b000000000000000000000000000000000000000000000000000000007bffffffffffffffffffffffffffffffffffffffffffffffffffffffff1916827bffffffffffffffffffffffffffffffffffffffffffffffffffffffff19161480612333575061233282612b8a565b5b9050919050565b600033905090565b61234c8282610d51565b6123db576123718173ffffffffffffffffffffffffffffffffffffffff166014612bf4565b61237f8360001c6020612bf4565b604051602001612390929190613ebd565b6040516020818303038152906040526040517f08c379a00000000000000000000000000000000000000000000000000000000081526004016123d291906140c9565b60405180910390fd5b5050565b6123e7610bec565b612426576040517f08c379a000000000000000000000000000000000000000000000000000000000815260040161241d9061414b565b60405180910390fd5b6000600160006101000a81548160ff0219169083151502179055507f5db9ee0a495bf2e6ff9c91a7834c1ba4fdd244a5e8aa4e537bd38aeae4b073aa61246a61233a565b6040516124779190613ef7565b60405180910390a1565b61248b8282610d51565b61255d57600160008084815260200190815260200160002060000160008373ffffffffffffffffffffffffffffffffffffffff1673ffffffffffffffffffffffffffffffffffffffff16815260200190815260200160002060006101000a81548160ff02191690831515021790555061250261233a565b73ffffffffffffffffffffffffffffffffffffffff168173ffffffffffffffffffffffffffffffffffffffff16837f2f8788117e7eff1d82e926ec794901d17c78024a50270940304540a733656f0d60405160405180910390a45b5050565b61256b8282610d51565b1561263e57600080600084815260200190815260200160002060000160008373ffffffffffffffffffffffffffffffffffffffff1673ffffffffffffffffffffffffffffffffffffffff16815260200190815260200160002060006101000a81548160ff0219169083151502179055506125e361233a565b73ffffffffffffffffffffffffffffffffffffffff168173ffffffffffffffffffffffffffffffffffffffff16837ff6391f5c32d9c69d2a47ea670b442974b53935d1edc7fd64eb21e047a839171b60405160405180910390a45b5050565b61264a610bec565b1561268a576040517f08c379a00000000000000000000000000000000000000000000000000000000081526004016126819061424b565b60405180910390fd5b60018060006101000a81548160ff0219169083151502179055507f62e78cea01bee320cd4e420270b5ea74000d11b0c9f74754ebdbfc544b05a2586126cd61233a565b6040516126da9190613ef7565b60405180910390a1565b6000816040516020016126f79190613e97565b604051602081830303815290604052805190602001209050919050565b600080600080604185511415612741576020850151925060408501519150606085015160001a90506127c7565b60408551141561278b576040850151602086015193507f7fffffffffffffffffffffffffffffffffffffffffffffffffffffffffffffff81169250601b8160ff1c019150506127c6565b6040517f08c379a00000000000000000000000000000000000000000000000000000000081526004016127bd9061416b565b60405180910390fd5b5b6127d386828585612e30565b935050505092915050565b600080600454600254846127f2919061463a565b6127fc9190614609565b90506004546003548461280f919061463a565b6128199190614609565b9150915091565b6000858711156128395785876128369190614694565b96505b86905061287482601160009054906101000a900473ffffffffffffffffffffffffffffffffffffffff16878961286f91906145b3565b612af2565b8373ffffffffffffffffffffffffffffffffffffffff166301ffc9a763b779958460e01b6040518263ffffffff1660e01b81526004016128b491906140ae565b60206040518083038186803b1580156128cc57600080fd5b505afa1580156128e0573d6000803e3d6000fd5b505050506040513d601f19601f820116820180604052508101906129049190613625565b61290d57612ae8565b600084905060008173ffffffffffffffffffffffffffffffffffffffff1663b9c4d9fb866040518263ffffffff1660e01b815260040161294d9190614407565b60006040518083038186803b15801561296557600080fd5b505afa158015612979573d6000803e3d6000fd5b505050506040513d6000823e3d601f19601f820116820180604052508101906129a29190613593565b905060008273ffffffffffffffffffffffffffffffffffffffff16630ebd4c7f876040518263ffffffff1660e01b81526004016129df9190614407565b60006040518083038186803b1580156129f757600080fd5b505afa158015612a0b573d6000803e3d6000fd5b505050506040513d6000823e3d601f19601f82011682018060405250810190612a3491906135dc565b905060005b8151811015612ae3576000851415612a5057612ae3565b6000600454838381518110612a6857612a67614935565b5b60200260200101518d612a7b919061463a565b612a859190614609565b905085811115612a9b5785905060009550612aaa565b8086612aa79190614694565b95505b612acf87858481518110612ac157612ac0614935565b5b602002602001015183612af2565b508080612adb90614827565b915050612a39565b505050505b9695505050505050565b80600b60008473ffffffffffffffffffffffffffffffffffffffff1673ffffffffffffffffffffffffffffffffffffffff16815260200190815260200160002060008573ffffffffffffffffffffffffffffffffffffffff1673ffffffffffffffffffffffffffffffffffffffff1681526020019081526020016000206000828254612b7e91906145b3565b92505081905550505050565b60007f01ffc9a7000000000000000000000000000000000000000000000000000000007bffffffffffffffffffffffffffffffffffffffffffffffffffffffff1916827bffffffffffffffffffffffffffffffffffffffffffffffffffffffff1916149050919050565b606060006002836002612c07919061463a565b612c1191906145b3565b67ffffffffffffffff811115612c2a57612c29614964565b5b6040519080825280601f01601f191660200182016040528015612c5c5781602001600182028036833780820191505090505b5090507f300000000000000000000000000000000000000000000000000000000000000081600081518110612c9457612c93614935565b5b60200101907effffffffffffffffffffffffffffffffffffffffffffffffffffffffffffff1916908160001a9053507f780000000000000000000000000000000000000000000000000000000000000081600181518110612cf857612cf7614935565b5b60200101907effffffffffffffffffffffffffffffffffffffffffffffffffffffffffffff1916908160001a90535060006001846002612d38919061463a565b612d4291906145b3565b90505b6001811115612de2577f3031323334353637383961626364656600000000000000000000000000000000600f861660108110612d8457612d83614935565b5b1a60f81b828281518110612d9b57612d9a614935565b5b60200101907effffffffffffffffffffffffffffffffffffffffffffffffffffffffffffff1916908160001a905350600485901c945080612ddb906147cc565b9050612d45565b5060008414612e26576040517f08c379a0000000000000000000000000000000000000000000000000000000008152600401612e1d9061410b565b60405180910390fd5b8091505092915050565b60007f7fffffffffffffffffffffffffffffff5d576e7357a4501ddfe92f46681b20a08260001c1115612e98576040517f08c379a0000000000000000000000000000000000000000000000000000000008152600401612e8f906141eb565b60405180910390fd5b601b8460ff161480612ead5750601c8460ff16145b612eec576040517f08c379a0000000000000000000000000000000000000000000000000000000008152600401612ee3906142eb565b60405180910390fd5b600060018686868660405160008152602001604052604051612f119493929190614069565b6020604051602081039080840390855afa158015612f33573d6000803e3d6000fd5b505050602060405103519050600073ffffffffffffffffffffffffffffffffffffffff168173ffffffffffffffffffffffffffffffffffffffff161415612faf576040517f08c379a0000000000000000000000000000000000000000000000000000000008152600401612fa6906140eb565b60405180910390fd5b80915050949350505050565b60405180610120016040528060008152602001600073ffffffffffffffffffffffffffffffffffffffff168152602001600073ffffffffffffffffffffffffffffffffffffffff168152602001600081526020016000815260200160008152602001600073ffffffffffffffffffffffffffffffffffffffff168152602001600081526020016000600281111561305557613054614906565b5b81525090565b600061306e613069846144ed565b6144c8565b905080838252602082019050828560208602820111156130915761309061499d565b5b60005b858110156130c157816130a78882613192565b845260208401935060208301925050600181019050613094565b5050509392505050565b60006130de6130d984614519565b6144c8565b905080838252602082019050828560208602820111156131015761310061499d565b5b60005b85811015613131578161311788826132f0565b845260208401935060208301925050600181019050613104565b5050509392505050565b600061314e61314984614545565b6144c8565b90508281526020810184848401111561316a576131696149a2565b5b61317584828561478a565b509392505050565b60008135905061318c81614f1a565b92915050565b6000815190506131a181614f31565b92915050565b600082601f8301126131bc576131bb614998565b5b81516131cc84826020860161305b565b91505092915050565b600082601f8301126131ea576131e9614998565b5b81516131fa8482602086016130cb565b91505092915050565b60008135905061321281614f48565b92915050565b60008151905061322781614f48565b92915050565b60008135905061323c81614f5f565b92915050565b60008135905061325181614f76565b92915050565b60008083601f84011261326d5761326c614998565b5b8235905067ffffffffffffffff81111561328a57613289614993565b5b6020830191508360018202830111156132a6576132a561499d565b5b9250929050565b600082601f8301126132c2576132c1614998565b5b81356132d284826020860161313b565b91505092915050565b6000813590506132ea81614f8d565b92915050565b6000815190506132ff81614f8d565b92915050565b60006020828403121561331b5761331a6149ac565b5b60006133298482850161317d565b91505092915050565b60008060408385031215613349576133486149ac565b5b60006133578582860161317d565b92505060206133688582860161317d565b9150509250929050565b600080600080600080600080610100898b031215613393576133926149ac565b5b60006133a18b828c0161317d565b98505060206133b28b828c0161317d565b97505060406133c38b828c016132db565b96505060606133d48b828c016132db565b95505060806133e58b828c0161317d565b94505060a06133f68b828c016132db565b93505060c06134078b828c016132db565b92505060e06134188b828c016132db565b9150509295985092959890939650565b6000806000806000806000806000806101208b8d03121561344c5761344b6149ac565b5b600061345a8d828e0161317d565b9a5050602061346b8d828e0161317d565b995050604061347c8d828e016132db565b985050606061348d8d828e016132db565b975050608061349e8d828e0161317d565b96505060a06134af8d828e016132db565b95505060c06134c08d828e016132db565b94505060e06134d18d828e016132db565b9350506101008b013567ffffffffffffffff8111156134f3576134f26149a7565b5b6134ff8d828e01613257565b92509250509295989b9194979a5092959850565b6000806040838503121561352a576135296149ac565b5b60006135388582860161317d565b925050602061354985828601613203565b9150509250929050565b6000806040838503121561356a576135696149ac565b5b60006135788582860161317d565b9250506020613589858286016132db565b9150509250929050565b6000602082840312156135a9576135a86149ac565b5b600082015167ffffffffffffffff8111156135c7576135c66149a7565b5b6135d3848285016131a7565b91505092915050565b6000602082840312156135f2576135f16149ac565b5b600082015167ffffffffffffffff8111156136105761360f6149a7565b5b61361c848285016131d5565b91505092915050565b60006020828403121561363b5761363a6149ac565b5b600061364984828501613218565b91505092915050565b600060208284031215613668576136676149ac565b5b60006136768482850161322d565b91505092915050565b60008060408385031215613696576136956149ac565b5b60006136a48582860161322d565b92505060206136b58582860161317d565b9150509250929050565b6000602082840312156136d5576136d46149ac565b5b60006136e384828501613242565b91505092915050565b60008060408385031215613703576137026149ac565b5b600083013567ffffffffffffffff811115613721576137206149a7565b5b61372d858286016132ad565b925050602061373e858286016132db565b9150509250929050565b60006020828403121561375e5761375d6149ac565b5b600061376c848285016132db565b91505092915050565b60006020828403121561378b5761378a6149ac565b5b6000613799848285016132f0565b91505092915050565b600080604083850312156137b9576137b86149ac565b5b60006137c7858286016132db565b92505060206137d8858286016132db565b9150509250929050565b6137eb816146c8565b82525050565b6137fa816146c8565b82525050565b61381161380c826146c8565b614870565b82525050565b613820816146ec565b82525050565b61382f816146f8565b82525050565b613846613841826146f8565b614882565b82525050565b61385581614702565b82525050565b600061386682614576565b613870818561458c565b9350613880818560208601614799565b80840191505092915050565b61389581614778565b82525050565b60006138a682614581565b6138b08185614597565b93506138c0818560208601614799565b6138c9816149b1565b840191505092915050565b60006138df82614581565b6138e981856145a8565b93506138f9818560208601614799565b80840191505092915050565b6000613912601883614597565b915061391d826149cf565b602082019050919050565b6000613935602083614597565b9150613940826149f8565b602082019050919050565b6000613958601b83614597565b915061396382614a21565b602082019050919050565b600061397b601483614597565b915061398682614a4a565b602082019050919050565b600061399e601f83614597565b91506139a982614a73565b602082019050919050565b60006139c1601c836145a8565b91506139cc82614a9c565b601c82019050919050565b60006139e4602983614597565b91506139ef82614ac5565b604082019050919050565b6000613a07601283614597565b9150613a1282614b14565b602082019050919050565b6000613a2a601f83614597565b9150613a3582614b3d565b602082019050919050565b6000613a4d602283614597565b9150613a5882614b66565b604082019050919050565b6000613a70601883614597565b9150613a7b82614bb5565b602082019050919050565b6000613a93601583614597565b9150613a9e82614bde565b602082019050919050565b6000613ab6601083614597565b9150613ac182614c07565b602082019050919050565b6000613ad9601283614597565b9150613ae482614c30565b602082019050919050565b6000613afc601983614597565b9150613b0782614c59565b602082019050919050565b6000613b1f601e83614597565b9150613b2a82614c82565b602082019050919050565b6000613b42601183614597565b9150613b4d82614cab565b602082019050919050565b6000613b65602283614597565b9150613b7082614cd4565b604082019050919050565b6000613b88601183614597565b9150613b9382614d23565b602082019050919050565b6000613bab601783614597565b9150613bb682614d4c565b602082019050919050565b6000613bce601383614597565b9150613bd982614d75565b602082019050919050565b6000613bf16017836145a8565b9150613bfc82614d9e565b601782019050919050565b6000613c14602a83614597565b9150613c1f82614dc7565b604082019050919050565b6000613c37601283614597565b9150613c4282614e16565b602082019050919050565b6000613c5a602183614597565b9150613c6582614e3f565b604082019050919050565b6000613c7d6011836145a8565b9150613c8882614e8e565b601182019050919050565b6000613ca0602f83614597565b9150613cab82614eb7565b604082019050919050565b61012082016000820151613ccd6000850182613d6d565b506020820151613ce060208501826137e2565b506040820151613cf360408501826137e2565b506060820151613d066060850182613d6d565b506080820151613d196080850182613d6d565b5060a0820151613d2c60a0850182613d6d565b5060c0820151613d3f60c08501826137e2565b5060e0820151613d5260e0850182613d6d565b50610100820151613d6761010085018261388c565b50505050565b613d7681614761565b82525050565b613d8581614761565b82525050565b613d9c613d9782614761565b61489e565b82525050565b613dab8161476b565b82525050565b6000613dbd828c613800565b601482019150613dcd828b613800565b601482019150613ddd828a613800565b601482019150613ded8289613d8b565b602082019150613dfd8288613d8b565b602082019150613e0d8287613800565b601482019150613e1d8286613d8b565b602082019150613e2d8285613d8b565b602082019150613e3d8284613d8b565b6020820191508190509a9950505050505050505050565b6000613e608285613800565b601482019150613e708284613d8b565b6020820191508190509392505050565b6000613e8c828461385b565b915081905092915050565b6000613ea2826139b4565b9150613eae8284613835565b60208201915081905092915050565b6000613ec882613be4565b9150613ed482856138d4565b9150613edf82613c70565b9150613eeb82846138d4565b91508190509392505050565b6000602082019050613f0c60008301846137f1565b92915050565b6000604082019050613f2760008301856137f1565b613f3460208301846137f1565b9392505050565b6000606082019050613f5060008301866137f1565b613f5d60208301856137f1565b613f6a6040830184613d7c565b949350505050565b6000608082019050613f8760008301876137f1565b613f9460208301866137f1565b613fa16040830185613d7c565b613fae6060830184613d7c565b95945050505050565b6000604082019050613fcc60008301856137f1565b613fd96020830184613d7c565b9392505050565b600060a082019050613ff560008301886137f1565b6140026020830187613d7c565b61400f60408301866137f1565b61401c6060830185613d7c565b6140296080830184613d7c565b9695505050505050565b60006020820190506140486000830184613817565b92915050565b60006020820190506140636000830184613826565b92915050565b600060808201905061407e6000830187613826565b61408b6020830186613da2565b6140986040830185613826565b6140a56060830184613826565b95945050505050565b60006020820190506140c3600083018461384c565b92915050565b600060208201905081810360008301526140e3818461389b565b905092915050565b6000602082019050818103600083015261410481613905565b9050919050565b6000602082019050818103600083015261412481613928565b9050919050565b600060208201905081810360008301526141448161394b565b9050919050565b600060208201905081810360008301526141648161396e565b9050919050565b6000602082019050818103600083015261418481613991565b9050919050565b600060208201905081810360008301526141a4816139d7565b9050919050565b600060208201905081810360008301526141c4816139fa565b9050919050565b600060208201905081810360008301526141e481613a1d565b9050919050565b6000602082019050818103600083015261420481613a40565b9050919050565b6000602082019050818103600083015261422481613a63565b9050919050565b6000602082019050818103600083015261424481613a86565b9050919050565b6000602082019050818103600083015261426481613aa9565b9050919050565b6000602082019050818103600083015261428481613acc565b9050919050565b600060208201905081810360008301526142a481613aef565b9050919050565b600060208201905081810360008301526142c481613b12565b9050919050565b600060208201905081810360008301526142e481613b35565b9050919050565b6000602082019050818103600083015261430481613b58565b9050919050565b6000602082019050818103600083015261432481613b7b565b9050919050565b6000602082019050818103600083015261434481613b9e565b9050919050565b6000602082019050818103600083015261436481613bc1565b9050919050565b6000602082019050818103600083015261438481613c07565b9050919050565b600060208201905081810360008301526143a481613c2a565b9050919050565b600060208201905081810360008301526143c481613c4d565b9050919050565b600060208201905081810360008301526143e481613c93565b9050919050565b6000610120820190506144016000830184613cb6565b92915050565b600060208201905061441c6000830184613d7c565b92915050565b600060e082019050614437600083018a613d7c565b61444460208301896137f1565b61445160408301886137f1565b61445e6060830187613d7c565b61446b6080830186613d7c565b61447860a08301856137f1565b61448560c0830184613d7c565b98975050505050505050565b60006060820190506144a66000830186613d7c565b6144b360208301856137f1565b6144c06040830184613d7c565b949350505050565b60006144d26144e3565b90506144de82826147f6565b919050565b6000604051905090565b600067ffffffffffffffff82111561450857614507614964565b5b602082029050602081019050919050565b600067ffffffffffffffff82111561453457614533614964565b5b602082029050602081019050919050565b600067ffffffffffffffff8211156145605761455f614964565b5b614569826149b1565b9050602081019050919050565b600081519050919050565b600081519050919050565b600081905092915050565b600082825260208201905092915050565b600081905092915050565b60006145be82614761565b91506145c983614761565b9250827fffffffffffffffffffffffffffffffffffffffffffffffffffffffffffffffff038211156145fe576145fd6148a8565b5b828201905092915050565b600061461482614761565b915061461f83614761565b92508261462f5761462e6148d7565b5b828204905092915050565b600061464582614761565b915061465083614761565b9250817fffffffffffffffffffffffffffffffffffffffffffffffffffffffffffffffff0483118215151615614689576146886148a8565b5b828202905092915050565b600061469f82614761565b91506146aa83614761565b9250828210156146bd576146bc6148a8565b5b828203905092915050565b60006146d382614741565b9050919050565b60006146e582614741565b9050919050565b60008115159050919050565b6000819050919050565b60007fffffffff0000000000000000000000000000000000000000000000000000000082169050919050565b600081905061473c82614f06565b919050565b600073ffffffffffffffffffffffffffffffffffffffff82169050919050565b6000819050919050565b600060ff82169050919050565b60006147838261472e565b9050919050565b82818337600083830152505050565b60005b838110156147b757808201518184015260208101905061479c565b838111156147c6576000848401525b50505050565b60006147d782614761565b915060008214156147eb576147ea6148a8565b5b600182039050919050565b6147ff826149b1565b810181811067ffffffffffffffff8211171561481e5761481d614964565b5b80604052505050565b600061483282614761565b91507fffffffffffffffffffffffffffffffffffffffffffffffffffffffffffffffff821415614865576148646148a8565b5b600182019050919050565b600061487b8261488c565b9050919050565b6000819050919050565b6000614897826149c2565b9050919050565b6000819050919050565b7f4e487b7100000000000000000000000000000000000000000000000000000000600052601160045260246000fd5b7f4e487b7100000000000000000000000000000000000000000000000000000000600052601260045260246000fd5b7f4e487b7100000000000000000000000000000000000000000000000000000000600052602160045260246000fd5b7f4e487b7100000000000000000000000000000000000000000000000000000000600052603260045260246000fd5b7f4e487b7100000000000000000000000000000000000000000000000000000000600052604160045260246000fd5b600080fd5b600080fd5b600080fd5b600080fd5b600080fd5b600080fd5b6000601f19601f8301169050919050565b60008160601b9050919050565b7f45434453413a20696e76616c6964207369676e61747572650000000000000000600082015250565b7f537472696e67733a20686578206c656e67746820696e73756666696369656e74600082015250565b7f4e6f7420656e6f75676820746f6b656e7320666f722073616c652e0000000000600082015250565b7f5061757361626c653a206e6f7420706175736564000000000000000000000000600082015250565b7f45434453413a20696e76616c6964207369676e6174757265206c656e67746800600082015250565b7f19457468657265756d205369676e6564204d6573736167653a0a333200000000600082015250565b7f4f6e6c792073656c6c6572206f722061646d696e2063616e20636c6f7365207460008201527f68652074726164652e0000000000000000000000000000000000000000000000602082015250565b7f5472616465206973206e6f74206f70656e2e0000000000000000000000000000600082015250565b7f4f6e6c79206f70656e207472616465732063616e20626520636c6f7365642e00600082015250565b7f45434453413a20696e76616c6964207369676e6174757265202773272076616c60008201527f7565000000000000000000000000000000000000000000000000000000000000602082015250565b7f43757272656e6379206973206e6f7420616c6c6f7765642e0000000000000000600082015250565b7f416c6c6f77616e636520697320746f6f206c6f772e0000000000000000000000600082015250565b7f5061757361626c653a2070617573656400000000000000000000000000000000600082015250565b7f507269636520697320746f6f20686967682e0000000000000000000000000000600082015250565b7f5175616e746974792065786365656473206d6178696d756d2e00000000000000600082015250565b7f546f6b656e20636f6e7472616374206973206e6f7420616c6c6f7765642e0000600082015250565b7f507269636520697320746f6f206c6f772e000000000000000000000000000000600082015250565b7f45434453413a20696e76616c6964207369676e6174757265202776272076616c60008201527f7565000000000000000000000000000000000000000000000000000000000000602082015250565b7f417070726f76616c20657870697265642e000000000000000000000000000000600082015250565b7f53656c6c65722063616e6e6f742062652062757965722e000000000000000000600082015250565b7f417070726f76616c206578686175737465642e00000000000000000000000000600082015250565b7f416363657373436f6e74726f6c3a206163636f756e7420000000000000000000600082015250565b7f4665652063616e6e6f7420626520686967686572207468616e2068756e64726560008201527f642070657263656e742e00000000000000000000000000000000000000000000602082015250565b7f496e76616c6964207369676e61747572652e0000000000000000000000000000600082015250565b7f496e73756666696369656e742062616c616e636520746f20776974686472617760008201527f2e00000000000000000000000000000000000000000000000000000000000000602082015250565b7f206973206d697373696e6720726f6c6520000000000000000000000000000000600082015250565b7f416363657373436f6e74726f6c3a2063616e206f6e6c792072656e6f756e636560008201527f20726f6c657320666f722073656c660000000000000000000000000000000000602082015250565b60038110614f1757614f16614906565b5b50565b614f23816146c8565b8114614f2e57600080fd5b50565b614f3a816146da565b8114614f4557600080fd5b50565b614f51816146ec565b8114614f5c57600080fd5b50565b614f68816146f8565b8114614f7357600080fd5b50565b614f7f81614702565b8114614f8a57600080fd5b50565b614f9681614761565b8114614fa157600080fd5b5056fea2646970667358221220708f326e2408acca7b1671550e5ae54d9c1f032ae7323ea556885d3957c2750664736f6c63430008070033",
  "immutableReferences": {},
  "source": "// SPDX-License-Identifier: MIT\r\npragma solidity ^0.8.0;\r\n\r\nimport \"../openzeppelin/contracts/access/AccessControl.sol\";\r\nimport \"../openzeppelin/contracts/token/ERC20/IERC20.sol\";\r\nimport \"../openzeppelin/contracts/utils/cryptography/ECDSA.sol\";\r\nimport \"../openzeppelin/contracts/security/Pausable.sol\";\r\n\r\nimport \"./MarketWalletV1.sol\";\r\nimport \"./HasSecondarySaleFees.sol\";\r\n\r\nenum TradeStatus { Active, Sold, Cancelled }\r\n\r\nstruct Trade {\r\n  uint id;\r\n  address seller;\r\n  address token;\r\n  uint tokenId;\r\n  uint quantity;\r\n  uint available;\r\n  address currency;\r\n  uint price;\r\n  TradeStatus status;\r\n}\r\n\r\ncontract MarketV1 is AccessControl, Pausable {\r\n  using ECDSA for bytes32;\r\n\r\n  bytes internal constant EMPTY = \"\";\r\n\r\n  uint256 public buyerFeePct = 5000;\r\n  uint256 public sellerFeePct = 5000;\r\n  uint256 public hundredPct = 10**5;\r\n\r\n  uint256 public maxTokenPrice = 10**6 * 1 ether;\r\n  uint256 public maxTradeQuantity = 10**6;\r\n  uint256 public minTokenPrice = hundredPct;\r\n\r\n  mapping(bytes => uint[]) public tradeHistory;\r\n\r\n  uint private _tradeId = 0;\r\n\r\n  mapping(uint => Trade) private _trades;\r\n\r\n  // seller => (currency => revenue)\r\n  mapping(address => mapping(address => uint)) internal _earnings;\r\n\r\n  // contract address => isAuthorized\r\n  mapping(address => bool) internal _approvedTokens;\r\n  uint private _approvedTokenCount = 0;\r\n\r\n  // contract address => isAuthorized\r\n  mapping(address => bool) internal _approvedCurrencies;\r\n  uint private _approvedCurrenciesCount = 0;\r\n  \r\n  mapping(bytes32 => bool) private _approvalsExhausted;\r\n\r\n  address internal _feeBeneficiary;\r\n\r\n  MarketWalletV1 internal _wallet;\r\n\r\n  event ListForSale(\r\n    uint tradeId,\r\n    address seller,\r\n    address tokenContract,\r\n    uint tokenId,\r\n    uint quantity,\r\n    address currency,\r\n    uint price\r\n  );\r\n\r\n  event Sell(\r\n    uint tradeId\r\n  );\r\n\r\n  event Buy(\r\n    uint tradeId,\r\n    address buyer,\r\n    uint quantity\r\n  );\r\n\r\n  event CancelListing(\r\n    address operator,\r\n    uint tradeId,\r\n    address tokenContract,\r\n    uint tokenId,\r\n    uint returned\r\n  );\r\n  \r\n  bytes32 public constant ADMIN_ROLE = keccak256(\"ADMIN_ROLE\");\r\n\r\n  bytes4 private constant _INTERFACE_ID_FEES = 0xb7799584;\r\n\r\n  constructor(MarketWalletV1 wallet) {\r\n    _setupRole(DEFAULT_ADMIN_ROLE, msg.sender);\r\n    \r\n    _setupRole(ADMIN_ROLE, msg.sender);\r\n    _setRoleAdmin(ADMIN_ROLE, DEFAULT_ADMIN_ROLE);\r\n\r\n    _feeBeneficiary = msg.sender;\r\n    _wallet = wallet;\r\n  }\r\n  \r\n  function supportsInterface(bytes4 interfaceID) override(AccessControl)\r\n    public view returns (bool) {\r\n    return super.supportsInterface(interfaceID);\r\n  }\r\n\r\n  function get(uint tradeId) public view returns (Trade memory) {\r\n    return _trades[tradeId];\r\n  }\r\n\r\n  function buy(uint tradeId, uint quantity) public whenNotPaused {\r\n    Trade memory trade = _trades[tradeId];\r\n\r\n    // Require trade is still open\r\n    require(trade.status == TradeStatus.Active, \"Trade is not open.\");\r\n\r\n    // Check quantity\r\n    require(quantity <= trade.available, \"Not enough tokens for sale.\");\r\n\r\n    // Require buyer to be different from seller\r\n    require(msg.sender != trade.seller, \"Seller cannot be buyer.\");\r\n\r\n    // Calculate prices\r\n    uint subtotal = trade.price * quantity;\r\n\r\n    IERC20 currency = IERC20(trade.currency);\r\n\r\n    (uint sellerFee, uint buyerFee) = calculateMarketFees(subtotal);\r\n\r\n    uint allowance = currency.allowance(msg.sender, address(this));\r\n    require(allowance >= subtotal + buyerFee, \"Allowance is too low.\");\r\n\r\n    // Deposit currency for escrow\r\n    currency.transferFrom(\r\n      msg.sender,\r\n      address(this),\r\n      subtotal + buyerFee\r\n    );\r\n\r\n    uint available = trade.available - quantity;\r\n    _trades[tradeId].available = available;\r\n\r\n    if (available == 0) {\r\n      _trades[tradeId].status = TradeStatus.Sold;\r\n      emit Sell(tradeId);\r\n    }\r\n\r\n    uint sellerNet = payAfterFees(\r\n      subtotal,\r\n      sellerFee,\r\n      buyerFee,\r\n      trade.token,\r\n      trade.tokenId,\r\n      trade.currency\r\n    );\r\n\r\n    pay(trade.currency, trade.seller, sellerNet);\r\n\r\n    _wallet.give(\r\n      trade.token,\r\n      msg.sender,\r\n      trade.tokenId,\r\n      quantity\r\n    );\r\n\r\n    emit Buy(\r\n      tradeId,\r\n      msg.sender,\r\n      quantity\r\n    );\r\n  }\r\n\r\n  function pay(address currency, address account, uint amount) internal {\r\n    _earnings[account][currency] += amount;\r\n  }\r\n\r\n  function calculateMarketFees(uint subtotal)\r\n    internal view returns (uint sellerFee, uint buyerFee) {\r\n    buyerFee = (subtotal * buyerFeePct) / hundredPct;\r\n    sellerFee = (subtotal * sellerFeePct) / hundredPct;\r\n  }\r\n\r\n  function payAfterFees(\r\n    uint subtotal,\r\n    uint sellerFee,\r\n    uint buyerFee,\r\n    address token,\r\n    uint tokenId,\r\n    address currency\r\n  ) internal returns (uint sellerPay) {\r\n    if (subtotal > sellerFee)\r\n      subtotal = subtotal - sellerFee;\r\n      sellerPay = subtotal;\r\n    \r\n    // Pay market fees\r\n    pay(currency, _feeBeneficiary, sellerFee + buyerFee);\r\n\r\n    if (!IERC165(token).supportsInterface(_INTERFACE_ID_FEES))\r\n      return sellerPay;\r\n\r\n    HasSecondarySaleFees tokenWithFees = HasSecondarySaleFees(token);\r\n\r\n    address payable[] memory recipients =\r\n      tokenWithFees.getFeeRecipients(tokenId);\r\n\r\n    uint[] memory feeBps = tokenWithFees.getFeeBps(tokenId);\r\n\r\n    for (uint i = 0; i < feeBps.length; i++) {\r\n      if (sellerPay == 0) break;\r\n\r\n      uint fee = (subtotal * feeBps[i]) / hundredPct;\r\n\r\n      if (fee > sellerPay) {\r\n        fee = sellerPay;\r\n        sellerPay = 0;\r\n      } else {\r\n        sellerPay -= fee;\r\n      }\r\n\r\n      pay(currency, recipients[i], fee);\r\n    }\r\n  }\r\n\r\n  function getSaleAuthorizationHash(\r\n    address seller,\r\n    address token,\r\n    uint tokenId,\r\n    uint quantity,\r\n    address currency,\r\n    uint price,\r\n    uint expiry,\r\n    uint salt\r\n  ) public view returns (bytes32) {\r\n    return keccak256(abi.encodePacked(\r\n      address(this),\r\n      seller,\r\n      token,\r\n      tokenId,\r\n      quantity,\r\n      currency,\r\n      price,\r\n      expiry,\r\n      salt\r\n    ));\r\n  }\r\n\r\n  function listForSale(\r\n    address seller,\r\n    address token,\r\n    uint tokenId,\r\n    uint quantity,\r\n    address currency,\r\n    uint price,\r\n    uint expiry,\r\n    uint salt,\r\n    bytes calldata signature\r\n  ) public whenNotPaused {\r\n    require(price >= minTokenPrice, \"Price is too low.\");\r\n    require(price <= maxTokenPrice, \"Price is too high.\");\r\n    require(quantity <= maxTradeQuantity, \"Quantity exceeds maximum.\");\r\n\r\n    require(_approvedTokens[token], \"Token contract is not allowed.\");\r\n    require(_approvedCurrencies[currency], \"Currency is not allowed.\");\r\n\r\n    if (!hasRole(ADMIN_ROLE, msg.sender)) {\r\n      require(expiry > block.timestamp, \"Approval expired.\");\r\n\r\n      bytes32 saleHash = getSaleAuthorizationHash(\r\n        seller,\r\n        token,\r\n        tokenId,\r\n        quantity,\r\n        currency,\r\n        price,\r\n        expiry,\r\n        salt\r\n      );\r\n\r\n      require(!_approvalsExhausted[saleHash], \"Approval exhausted.\");\r\n      \r\n      address recoveredAddress = saleHash\r\n        .toEthSignedMessageHash()\r\n        .recover(signature);\r\n      \r\n      require(\r\n        recoveredAddress != address(0)\r\n          && hasRole(ADMIN_ROLE, recoveredAddress),\r\n        \"Invalid signature.\"\r\n      );\r\n\r\n      _approvalsExhausted[saleHash] = true;\r\n    }\r\n\r\n    if (!IERC165(token).supportsInterface(type(IERC1155).interfaceId))\r\n      quantity = 1;\r\n\r\n    _wallet.take(\r\n      token,\r\n      seller,\r\n      tokenId,\r\n      quantity\r\n    );\r\n\r\n    // Create trade\r\n    _tradeId++;\r\n\r\n    Trade memory trade = Trade(\r\n      _tradeId,\r\n      seller,\r\n      token,\r\n      tokenId,\r\n      quantity,\r\n      quantity,\r\n      currency,\r\n      price,\r\n      TradeStatus.Active\r\n    );\r\n\r\n    _trades[_tradeId] = trade;\r\n\r\n    tradeHistory[\r\n      abi.encodePacked(\r\n        token,\r\n        tokenId\r\n      )\r\n    ].push(_tradeId);\r\n\r\n    emit ListForSale(\r\n      _tradeId,\r\n      seller,\r\n      token,\r\n      tokenId,\r\n      quantity,\r\n      currency,\r\n      price\r\n    );\r\n  }\r\n\r\n  function cancel(uint256 tradeId) public {\r\n    Trade memory trade = _trades[tradeId];\r\n    \r\n    require(\r\n      trade.status == TradeStatus.Active,\r\n      \"Only open trades can be closed.\"\r\n    );\r\n\r\n    require(\r\n      msg.sender == trade.seller || hasRole(ADMIN_ROLE, msg.sender),\r\n      \"Only seller or admin can close the trade.\"\r\n    );\r\n    \r\n    // Mark trade as cancelled\r\n    _trades[tradeId].status = TradeStatus.Cancelled;\r\n\r\n    _wallet.give(\r\n      trade.token,\r\n      msg.sender,\r\n      trade.tokenId,\r\n      trade.available\r\n    );\r\n\r\n    emit CancelListing(\r\n      msg.sender,\r\n      tradeId,\r\n      trade.token,\r\n      trade.tokenId,\r\n      trade.available\r\n    );\r\n  }\r\n\r\n  function getBalance(address currency, address account) public view returns (uint) {\r\n    return _earnings[account][currency];\r\n  }\r\n\r\n  function withdraw(address currency, uint amount) public {\r\n    require(\r\n      _earnings[msg.sender][currency] >= amount,\r\n      \"Insufficient balance to withdraw.\"\r\n    );\r\n\r\n    _earnings[msg.sender][currency] -= amount;\r\n\r\n    IERC20(currency).transfer(msg.sender, amount);\r\n  }\r\n\r\n  function setFeeBeneficiary(address beneficiary) public onlyRole(DEFAULT_ADMIN_ROLE) {\r\n    _feeBeneficiary = beneficiary;\r\n  }\r\n\r\n  function setTokenApproval(address token, bool isApproved) public onlyRole(ADMIN_ROLE) {\r\n    _approvedTokens[token] = isApproved;\r\n  }\r\n\r\n  function setCurrencyApproval(address currency, bool isApproved) public onlyRole(ADMIN_ROLE) {\r\n    _approvedCurrencies[currency] = isApproved;\r\n  }\r\n  \r\n  function setMaxTokenPriceEther(uint256 price) public onlyRole(ADMIN_ROLE) {\r\n    maxTokenPrice = price * 1 ether;\r\n  }\r\n  \r\n  function setMaxTokenPriceWei(uint256 price) public onlyRole(ADMIN_ROLE) {\r\n    maxTokenPrice = price;\r\n  }\r\n  \r\n  function setMaxTradeQuantity(uint256 quantity) public onlyRole(ADMIN_ROLE) {\r\n    maxTradeQuantity = quantity;\r\n  }\r\n\r\n  function setBuyerFeePct(uint256 pct) public onlyRole(ADMIN_ROLE) {\r\n    require(pct <= hundredPct, \"Fee cannot be higher than hundred percent.\");\r\n    buyerFeePct = pct;\r\n  }\r\n  \r\n  function setSellerFeePct(uint256 pct) public onlyRole(ADMIN_ROLE) {\r\n    require(pct <= hundredPct, \"Fee cannot be higher than hundred percent.\");\r\n    sellerFeePct = pct;\r\n  }\r\n  \r\n  function pause() public onlyRole(ADMIN_ROLE) {\r\n    super._pause();\r\n  }\r\n\r\n  function resume() public onlyRole(ADMIN_ROLE) {\r\n    super._unpause();\r\n  }\r\n}\r\n",
  "sourcePath": "C:/Users/Husnain/Documents/Projects/Fanbase/fanbase/packages/ethereum/contracts/solidity/collectibles/MarketV1.sol",
  "compiler": {
    "name": "solc",
    "version": "0.8.7+commit.e28d00a7.Emscripten.clang"
  },
  "schemaVersion": "3.4.1",
  "updatedAt": "2021-09-05T16:21:55.725Z",
  "devdoc": {
    "kind": "dev",
    "methods": {
      "getRoleAdmin(bytes32)": {
        "details": "Returns the admin role that controls `role`. See {grantRole} and {revokeRole}. To change a role's admin, use {_setRoleAdmin}."
      },
      "grantRole(bytes32,address)": {
        "details": "Grants `role` to `account`. If `account` had not been already granted `role`, emits a {RoleGranted} event. Requirements: - the caller must have ``role``'s admin role."
      },
      "hasRole(bytes32,address)": {
        "details": "Returns `true` if `account` has been granted `role`."
      },
      "paused()": {
        "details": "Returns true if the contract is paused, and false otherwise."
      },
      "renounceRole(bytes32,address)": {
        "details": "Revokes `role` from the calling account. Roles are often managed via {grantRole} and {revokeRole}: this function's purpose is to provide a mechanism for accounts to lose their privileges if they are compromised (such as when a trusted device is misplaced). If the calling account had been granted `role`, emits a {RoleRevoked} event. Requirements: - the caller must be `account`."
      },
      "revokeRole(bytes32,address)": {
        "details": "Revokes `role` from `account`. If `account` had been granted `role`, emits a {RoleRevoked} event. Requirements: - the caller must have ``role``'s admin role."
      }
    },
    "version": 1
  },
  "userdoc": {
    "kind": "user",
    "methods": {},
    "version": 1
  }
}