{
  "contractName": "MarketV1",
  "abi": [
    {
      "inputs": [
        {
          "internalType": "contract MarketWalletV1",
          "name": "wallet",
          "type": "address"
        }
      ],
      "stateMutability": "nonpayable",
      "type": "constructor"
    },
    {
      "anonymous": false,
      "inputs": [
        {
          "indexed": false,
          "internalType": "uint256",
          "name": "listingId",
          "type": "uint256"
        },
        {
          "indexed": false,
          "internalType": "address",
          "name": "operator",
          "type": "address"
        },
        {
          "indexed": false,
          "internalType": "address",
          "name": "tokenContract",
          "type": "address"
        },
        {
          "indexed": false,
          "internalType": "uint256",
          "name": "tokenId",
          "type": "uint256"
        },
        {
          "indexed": false,
          "internalType": "uint256",
          "name": "returned",
          "type": "uint256"
        }
      ],
      "name": "CancelListing",
      "type": "event"
    },
    {
      "anonymous": false,
      "inputs": [
        {
          "indexed": false,
          "internalType": "uint256",
          "name": "listingId",
          "type": "uint256"
        },
        {
          "indexed": false,
          "internalType": "address",
          "name": "seller",
          "type": "address"
        },
        {
          "indexed": false,
          "internalType": "address",
          "name": "tokenContract",
          "type": "address"
        },
        {
          "indexed": false,
          "internalType": "uint256",
          "name": "tokenId",
          "type": "uint256"
        },
        {
          "indexed": false,
          "internalType": "uint256",
          "name": "quantity",
          "type": "uint256"
        },
        {
          "indexed": false,
          "internalType": "address",
          "name": "currency",
          "type": "address"
        },
        {
          "indexed": false,
          "internalType": "uint256",
          "name": "price",
          "type": "uint256"
        },
        {
          "indexed": false,
          "internalType": "uint256",
          "name": "expiry",
          "type": "uint256"
        },
        {
          "indexed": false,
          "internalType": "uint256",
          "name": "maxPerBuyer",
          "type": "uint256"
        }
      ],
      "name": "ListForSale",
      "type": "event"
    },
    {
      "anonymous": false,
      "inputs": [
        {
          "indexed": true,
          "internalType": "bytes32",
          "name": "role",
          "type": "bytes32"
        },
        {
          "indexed": true,
          "internalType": "bytes32",
          "name": "previousAdminRole",
          "type": "bytes32"
        },
        {
          "indexed": true,
          "internalType": "bytes32",
          "name": "newAdminRole",
          "type": "bytes32"
        }
      ],
      "name": "RoleAdminChanged",
      "type": "event"
    },
    {
      "anonymous": false,
      "inputs": [
        {
          "indexed": true,
          "internalType": "bytes32",
          "name": "role",
          "type": "bytes32"
        },
        {
          "indexed": true,
          "internalType": "address",
          "name": "account",
          "type": "address"
        },
        {
          "indexed": true,
          "internalType": "address",
          "name": "sender",
          "type": "address"
        }
      ],
      "name": "RoleGranted",
      "type": "event"
    },
    {
      "anonymous": false,
      "inputs": [
        {
          "indexed": true,
          "internalType": "bytes32",
          "name": "role",
          "type": "bytes32"
        },
        {
          "indexed": true,
          "internalType": "address",
          "name": "account",
          "type": "address"
        },
        {
          "indexed": true,
          "internalType": "address",
          "name": "sender",
          "type": "address"
        }
      ],
      "name": "RoleRevoked",
      "type": "event"
    },
    {
      "anonymous": false,
      "inputs": [
        {
          "indexed": false,
          "internalType": "address",
          "name": "token",
          "type": "address"
        },
        {
          "indexed": false,
          "internalType": "uint256",
          "name": "tokenId",
          "type": "uint256"
        },
        {
          "indexed": false,
          "internalType": "address",
          "name": "beneficiary",
          "type": "address"
        },
        {
          "indexed": false,
          "internalType": "address",
          "name": "currency",
          "type": "address"
        },
        {
          "indexed": false,
          "internalType": "uint256",
          "name": "amount",
          "type": "uint256"
        }
      ],
      "name": "RoyaltyPayment",
      "type": "event"
    },
    {
      "anonymous": false,
      "inputs": [
        {
          "indexed": false,
          "internalType": "uint256",
          "name": "listingId",
          "type": "uint256"
        },
        {
          "indexed": false,
          "internalType": "address",
          "name": "buyer",
          "type": "address"
        },
        {
          "indexed": false,
          "internalType": "address",
          "name": "seller",
          "type": "address"
        },
        {
          "indexed": false,
          "internalType": "uint256",
          "name": "quantity",
          "type": "uint256"
        },
        {
          "indexed": false,
          "internalType": "address",
          "name": "currency",
          "type": "address"
        },
        {
          "indexed": false,
          "internalType": "uint256",
          "name": "price",
          "type": "uint256"
        }
      ],
      "name": "Trade",
      "type": "event"
    },
    {
      "inputs": [],
      "name": "ADMIN_ROLE",
      "outputs": [
        {
          "internalType": "bytes32",
          "name": "",
          "type": "bytes32"
        }
      ],
      "stateMutability": "view",
      "type": "function"
    },
    {
      "inputs": [],
      "name": "DEFAULT_ADMIN_ROLE",
      "outputs": [
        {
          "internalType": "bytes32",
          "name": "",
          "type": "bytes32"
        }
      ],
      "stateMutability": "view",
      "type": "function"
    },
    {
      "inputs": [
        {
          "internalType": "uint256",
          "name": "",
          "type": "uint256"
        },
        {
          "internalType": "address",
          "name": "",
          "type": "address"
        }
      ],
      "name": "_listingPurchasesForBuyer",
      "outputs": [
        {
          "internalType": "uint256",
          "name": "",
          "type": "uint256"
        }
      ],
      "stateMutability": "view",
      "type": "function"
    },
    {
      "inputs": [],
      "name": "buyerFeePct",
      "outputs": [
        {
          "internalType": "uint256",
          "name": "",
          "type": "uint256"
        }
      ],
      "stateMutability": "view",
      "type": "function"
    },
    {
      "inputs": [
        {
          "internalType": "bytes32",
          "name": "role",
          "type": "bytes32"
        }
      ],
      "name": "getRoleAdmin",
      "outputs": [
        {
          "internalType": "bytes32",
          "name": "",
          "type": "bytes32"
        }
      ],
      "stateMutability": "view",
      "type": "function"
    },
    {
      "inputs": [
        {
          "internalType": "bytes32",
          "name": "role",
          "type": "bytes32"
        },
        {
          "internalType": "address",
          "name": "account",
          "type": "address"
        }
      ],
      "name": "grantRole",
      "outputs": [],
      "stateMutability": "nonpayable",
      "type": "function"
    },
    {
      "inputs": [
        {
          "internalType": "bytes32",
          "name": "role",
          "type": "bytes32"
        },
        {
          "internalType": "address",
          "name": "account",
          "type": "address"
        }
      ],
      "name": "hasRole",
      "outputs": [
        {
          "internalType": "bool",
          "name": "",
          "type": "bool"
        }
      ],
      "stateMutability": "view",
      "type": "function"
    },
    {
      "inputs": [],
      "name": "hundredPct",
      "outputs": [
        {
          "internalType": "uint256",
          "name": "",
          "type": "uint256"
        }
      ],
      "stateMutability": "view",
      "type": "function"
    },
    {
      "inputs": [],
      "name": "maxListingQuantity",
      "outputs": [
        {
          "internalType": "uint256",
          "name": "",
          "type": "uint256"
        }
      ],
      "stateMutability": "view",
      "type": "function"
    },
    {
      "inputs": [],
      "name": "maxTokenPrice",
      "outputs": [
        {
          "internalType": "uint256",
          "name": "",
          "type": "uint256"
        }
      ],
      "stateMutability": "view",
      "type": "function"
    },
    {
      "inputs": [],
      "name": "minTokenPrice",
      "outputs": [
        {
          "internalType": "uint256",
          "name": "",
          "type": "uint256"
        }
      ],
      "stateMutability": "view",
      "type": "function"
    },
    {
      "inputs": [
        {
          "internalType": "bytes32",
          "name": "role",
          "type": "bytes32"
        },
        {
          "internalType": "address",
          "name": "account",
          "type": "address"
        }
      ],
      "name": "renounceRole",
      "outputs": [],
      "stateMutability": "nonpayable",
      "type": "function"
    },
    {
      "inputs": [
        {
          "internalType": "bytes32",
          "name": "role",
          "type": "bytes32"
        },
        {
          "internalType": "address",
          "name": "account",
          "type": "address"
        }
      ],
      "name": "revokeRole",
      "outputs": [],
      "stateMutability": "nonpayable",
      "type": "function"
    },
    {
      "inputs": [],
      "name": "sellerFeePct",
      "outputs": [
        {
          "internalType": "uint256",
          "name": "",
          "type": "uint256"
        }
      ],
      "stateMutability": "view",
      "type": "function"
    },
    {
      "inputs": [
        {
          "internalType": "bytes4",
          "name": "interfaceID",
          "type": "bytes4"
        }
      ],
      "name": "supportsInterface",
      "outputs": [
        {
          "internalType": "bool",
          "name": "",
          "type": "bool"
        }
      ],
      "stateMutability": "view",
      "type": "function"
    },
    {
      "inputs": [
        {
          "internalType": "uint256",
          "name": "listingId",
          "type": "uint256"
        }
      ],
      "name": "get",
      "outputs": [
        {
          "components": [
            {
              "internalType": "uint256",
              "name": "id",
              "type": "uint256"
            },
            {
              "internalType": "address",
              "name": "seller",
              "type": "address"
            },
            {
              "internalType": "address",
              "name": "token",
              "type": "address"
            },
            {
              "internalType": "uint256",
              "name": "tokenId",
              "type": "uint256"
            },
            {
              "internalType": "uint256",
              "name": "quantity",
              "type": "uint256"
            },
            {
              "internalType": "uint256",
              "name": "available",
              "type": "uint256"
            },
            {
              "internalType": "address",
              "name": "currency",
              "type": "address"
            },
            {
              "internalType": "uint256",
              "name": "price",
              "type": "uint256"
            },
            {
              "internalType": "uint256",
              "name": "expiry",
              "type": "uint256"
            },
            {
              "internalType": "uint256",
              "name": "maxPerBuyer",
              "type": "uint256"
            },
            {
              "internalType": "enum ListingStatus",
              "name": "status",
              "type": "uint8"
            }
          ],
          "internalType": "struct Listing",
          "name": "",
          "type": "tuple"
        }
      ],
      "stateMutability": "view",
      "type": "function"
    },
    {
      "inputs": [
        {
          "internalType": "uint256",
          "name": "listingId",
          "type": "uint256"
        },
        {
          "internalType": "uint256",
          "name": "quantity",
          "type": "uint256"
        }
      ],
      "name": "buy",
      "outputs": [],
      "stateMutability": "nonpayable",
      "type": "function"
    },
    {
      "inputs": [
        {
          "internalType": "address",
          "name": "seller",
          "type": "address"
        },
        {
          "internalType": "address",
          "name": "token",
          "type": "address"
        },
        {
          "internalType": "uint256",
          "name": "tokenId",
          "type": "uint256"
        },
        {
          "internalType": "uint256",
          "name": "quantity",
          "type": "uint256"
        },
        {
          "internalType": "address",
          "name": "currency",
          "type": "address"
        },
        {
          "internalType": "uint256",
          "name": "price",
          "type": "uint256"
        },
        {
          "internalType": "uint256",
          "name": "expiry",
          "type": "uint256"
        },
        {
          "internalType": "uint256",
          "name": "approvalExpiry",
          "type": "uint256"
        },
        {
          "internalType": "uint256",
          "name": "approvalSalt",
          "type": "uint256"
        }
      ],
      "name": "getSaleAuthorizationHash",
      "outputs": [
        {
          "internalType": "bytes32",
          "name": "",
          "type": "bytes32"
        }
      ],
      "stateMutability": "view",
      "type": "function"
    },
    {
      "inputs": [
        {
          "internalType": "address",
          "name": "seller",
          "type": "address"
        },
        {
          "internalType": "address",
          "name": "token",
          "type": "address"
        },
        {
          "internalType": "uint256",
          "name": "tokenId",
          "type": "uint256"
        },
        {
          "internalType": "uint256",
          "name": "quantity",
          "type": "uint256"
        },
        {
          "internalType": "address",
          "name": "currency",
          "type": "address"
        },
        {
          "internalType": "uint256",
          "name": "price",
          "type": "uint256"
        },
        {
          "internalType": "uint256",
          "name": "expiry",
          "type": "uint256"
        },
        {
          "internalType": "uint256",
          "name": "maxPerBuyer",
          "type": "uint256"
        },
        {
          "components": [
            {
              "internalType": "uint256",
              "name": "expiry",
              "type": "uint256"
            },
            {
              "internalType": "uint256",
              "name": "salt",
              "type": "uint256"
            },
            {
              "internalType": "bytes",
              "name": "signature",
              "type": "bytes"
            }
          ],
          "internalType": "struct Approval",
          "name": "approval",
          "type": "tuple"
        }
      ],
      "name": "listForSale",
      "outputs": [],
      "stateMutability": "nonpayable",
      "type": "function"
    },
    {
      "inputs": [
        {
          "internalType": "uint256",
          "name": "listingId",
          "type": "uint256"
        }
      ],
      "name": "cancel",
      "outputs": [],
      "stateMutability": "nonpayable",
      "type": "function"
    },
    {
      "inputs": [
        {
          "internalType": "address",
          "name": "currency",
          "type": "address"
        },
        {
          "internalType": "address",
          "name": "account",
          "type": "address"
        }
      ],
      "name": "getBalance",
      "outputs": [
        {
          "internalType": "uint256",
          "name": "",
          "type": "uint256"
        }
      ],
      "stateMutability": "view",
      "type": "function"
    },
    {
      "inputs": [
        {
          "internalType": "address",
          "name": "currency",
          "type": "address"
        },
        {
          "internalType": "uint256",
          "name": "amount",
          "type": "uint256"
        }
      ],
      "name": "withdraw",
      "outputs": [],
      "stateMutability": "nonpayable",
      "type": "function"
    },
    {
      "inputs": [
        {
          "internalType": "uint256",
          "name": "listingId",
          "type": "uint256"
        },
        {
          "internalType": "address",
          "name": "buyer",
          "type": "address"
        }
      ],
      "name": "listingPurchasesForBuyer",
      "outputs": [
        {
          "internalType": "uint256",
          "name": "",
          "type": "uint256"
        }
      ],
      "stateMutability": "view",
      "type": "function"
    },
    {
      "inputs": [
        {
          "internalType": "address",
          "name": "token",
          "type": "address"
        }
      ],
      "name": "isTokenApproved",
      "outputs": [
        {
          "internalType": "bool",
          "name": "",
          "type": "bool"
        }
      ],
      "stateMutability": "view",
      "type": "function"
    },
    {
      "inputs": [
        {
          "internalType": "address",
          "name": "currency",
          "type": "address"
        }
      ],
      "name": "isCurrencyApproved",
      "outputs": [
        {
          "internalType": "bool",
          "name": "",
          "type": "bool"
        }
      ],
      "stateMutability": "view",
      "type": "function"
    },
    {
      "inputs": [
        {
          "internalType": "address[]",
          "name": "tokens",
          "type": "address[]"
        },
        {
          "internalType": "bool",
          "name": "isApproved",
          "type": "bool"
        }
      ],
      "name": "setTokensApproval",
      "outputs": [],
      "stateMutability": "nonpayable",
      "type": "function"
    },
    {
      "inputs": [
        {
          "internalType": "address[]",
          "name": "currencies",
          "type": "address[]"
        },
        {
          "internalType": "bool",
          "name": "isApproved",
          "type": "bool"
        }
      ],
      "name": "setCurrenciesApproval",
      "outputs": [],
      "stateMutability": "nonpayable",
      "type": "function"
    },
    {
      "inputs": [
        {
          "internalType": "uint256",
          "name": "price",
          "type": "uint256"
        }
      ],
      "name": "setMaxTokenPriceEther",
      "outputs": [],
      "stateMutability": "nonpayable",
      "type": "function"
    },
    {
      "inputs": [
        {
          "internalType": "uint256",
          "name": "price",
          "type": "uint256"
        }
      ],
      "name": "setMaxTokenPriceWei",
      "outputs": [],
      "stateMutability": "nonpayable",
      "type": "function"
    },
    {
      "inputs": [
        {
          "internalType": "uint256",
          "name": "quantity",
          "type": "uint256"
        }
      ],
      "name": "setMaxListingQuantity",
      "outputs": [],
      "stateMutability": "nonpayable",
      "type": "function"
    },
    {
      "inputs": [
        {
          "internalType": "uint256",
          "name": "pct",
          "type": "uint256"
        }
      ],
      "name": "setBuyerFeePct",
      "outputs": [],
      "stateMutability": "nonpayable",
      "type": "function"
    },
    {
      "inputs": [
        {
          "internalType": "uint256",
          "name": "pct",
          "type": "uint256"
        }
      ],
      "name": "setSellerFeePct",
      "outputs": [],
      "stateMutability": "nonpayable",
      "type": "function"
    },
    {
      "inputs": [
        {
          "internalType": "address",
          "name": "beneficiary",
          "type": "address"
        }
      ],
      "name": "setFeeBeneficiary",
      "outputs": [],
      "stateMutability": "nonpayable",
      "type": "function"
    }
  ],
  "bytecode": "0x6080604052611388600155611388600255620186a0600355620f424060045560035460055569d3c21bcecceda100000060065560006009553480156200004457600080fd5b50604051620054ab380380620054ab83398181016040528101906200006a9190620003e8565b6200007f6000801b336200016f60201b60201c565b620000b17fa49807205ce4d355092ef5a8a18f56e8913cf4a201fbe287825b095693c21775336200016f60201b60201c565b620000e67fa49807205ce4d355092ef5a8a18f56e8913cf4a201fbe287825b095693c217756000801b6200018560201b60201c565b33600860006101000a81548173ffffffffffffffffffffffffffffffffffffffff021916908373ffffffffffffffffffffffffffffffffffffffff16021790555080600760006101000a81548173ffffffffffffffffffffffffffffffffffffffff021916908373ffffffffffffffffffffffffffffffffffffffff160217905550506200041a565b620001818282620001e860201b60201c565b5050565b60006200019883620002d960201b60201c565b905081600080858152602001908152602001600020600101819055508181847fbd79b86ffe0ab8e8776151514217cd7cacd52c909f66475c3af44e129f0b00ff60405160405180910390a4505050565b620001fa8282620002f860201b60201c565b620002d557600160008084815260200190815260200160002060000160008373ffffffffffffffffffffffffffffffffffffffff1673ffffffffffffffffffffffffffffffffffffffff16815260200190815260200160002060006101000a81548160ff0219169083151502179055506200027a6200036260201b60201c565b73ffffffffffffffffffffffffffffffffffffffff168173ffffffffffffffffffffffffffffffffffffffff16837f2f8788117e7eff1d82e926ec794901d17c78024a50270940304540a733656f0d60405160405180910390a45b5050565b6000806000838152602001908152602001600020600101549050919050565b600080600084815260200190815260200160002060000160008373ffffffffffffffffffffffffffffffffffffffff1673ffffffffffffffffffffffffffffffffffffffff16815260200190815260200160002060009054906101000a900460ff16905092915050565b600033905090565b600080fd5b600073ffffffffffffffffffffffffffffffffffffffff82169050919050565b60006200039c826200036f565b9050919050565b6000620003b0826200038f565b9050919050565b620003c281620003a3565b8114620003ce57600080fd5b50565b600081519050620003e281620003b7565b92915050565b6000602082840312156200040157620004006200036a565b5b60006200041184828501620003d1565b91505092915050565b615081806200042a6000396000f3fe608060405234801561001057600080fd5b50600436106101fb5760003560e01c80638ce5ab6a1161011a578063d1177945116100ad578063d547741f1161007c578063d547741f146105e8578063d6febde814610604578063e45ad64a14610620578063f3fef3a31461063c578063fd1fc13e14610658576101fb565b8063d117794514610560578063d3d74af71461057c578063d428dc2b1461059a578063d4fac45d146105b8576101fb565b80639f609f44116100e95780639f609f44146104da578063a217fddf1461050a578063bca9981914610528578063c661b89d14610544576101fb565b80638ce5ab6a1461042c57806391d148541461044a5780639507d39a1461047a5780639d93d352146104aa576101fb565b80634df3943b1161019257806371f895981161016157806371f89598146103a457806375b238fc146103c057806377e5c4a8146103de5780638ab2394b146103fc576101fb565b80634df3943b146103325780635a0a3d821461034e5780635dabb20e1461036a5780637167675a14610388576101fb565b80632b483c03116101ce5780632b483c03146102c05780632f2ff15d146102de57806336568abe146102fa57806340e58ee514610316576101fb565b806301ffc9a7146102005780630d7b1acc14610230578063204a1f8314610260578063248a9ca314610290575b600080fd5b61021a60048036038101906102159190613240565b610674565b6040516102279190613288565b60405180910390f35b61024a60048036038101906102459190613301565b610686565b6040516102579190613288565b60405180910390f35b61027a60048036038101906102759190613364565b6106dc565b6040516102879190613447565b60405180910390f35b6102aa60048036038101906102a5919061348e565b610726565b6040516102b79190613447565b60405180910390f35b6102c8610745565b6040516102d591906134ca565b60405180910390f35b6102f860048036038101906102f391906134e5565b61074b565b005b610314600480360381019061030f91906134e5565b610774565b005b610330600480360381019061032b9190613525565b6107f7565b005b61034c60048036038101906103479190613576565b610bdd565b005b61036860048036038101906103639190613301565b611350565b005b6103726113aa565b60405161037f91906134ca565b60405180910390f35b6103a2600480360381019061039d91906136ed565b6113b0565b005b6103be60048036038101906103b99190613525565b611488565b005b6103c86114c5565b6040516103d59190613447565b60405180910390f35b6103e66114e9565b6040516103f391906134ca565b60405180910390f35b6104166004803603810190610411919061374d565b6114ef565b60405161042391906134ca565b60405180910390f35b610434611514565b60405161044191906134ca565b60405180910390f35b610464600480360381019061045f91906134e5565b61151a565b6040516104719190613288565b60405180910390f35b610494600480360381019061048f9190613525565b611584565b6040516104a19190613903565b60405180910390f35b6104c460048036038101906104bf9190613301565b611735565b6040516104d19190613288565b60405180910390f35b6104f460048036038101906104ef919061374d565b61178b565b60405161050191906134ca565b60405180910390f35b6105126117e6565b60405161051f9190613447565b60405180910390f35b610542600480360381019061053d9190613525565b6117ed565b005b61055e60048036038101906105599190613525565b61183d565b005b61057a600480360381019061057591906136ed565b6118bf565b005b610584611997565b60405161059191906134ca565b60405180910390f35b6105a261199d565b6040516105af91906134ca565b60405180910390f35b6105d260048036038101906105cd919061391f565b6119a3565b6040516105df91906134ca565b60405180910390f35b61060260048036038101906105fd91906134e5565b611a2a565b005b61061e6004803603810190610619919061395f565b611a53565b005b61063a60048036038101906106359190613525565b611fff565b005b6106566004803603810190610651919061399f565b612081565b005b610672600480360381019061066d9190613525565b612256565b005b600061067f82612293565b9050919050565b6000600d60008373ffffffffffffffffffffffffffffffffffffffff1673ffffffffffffffffffffffffffffffffffffffff16815260200190815260200160002060009054906101000a900460ff169050919050565b6000308a8a8a8a8a8a8a8a8a6040516020016107019a99989796959493929190613a48565b6040516020818303038152906040528051906020012090509998505050505050505050565b6000806000838152602001908152602001600020600101549050919050565b60025481565b61075482610726565b6107658161076061230d565b612315565b61076f83836123b2565b505050565b61077c61230d565b73ffffffffffffffffffffffffffffffffffffffff168173ffffffffffffffffffffffffffffffffffffffff16146107e9576040517f08c379a00000000000000000000000000000000000000000000000000000000081526004016107e090613b7f565b60405180910390fd5b6107f38282612492565b5050565b6000600a600083815260200190815260200160002060405180610160016040529081600082015481526020016001820160009054906101000a900473ffffffffffffffffffffffffffffffffffffffff1673ffffffffffffffffffffffffffffffffffffffff1673ffffffffffffffffffffffffffffffffffffffff1681526020016002820160009054906101000a900473ffffffffffffffffffffffffffffffffffffffff1673ffffffffffffffffffffffffffffffffffffffff1673ffffffffffffffffffffffffffffffffffffffff1681526020016003820154815260200160048201548152602001600582015481526020016006820160009054906101000a900473ffffffffffffffffffffffffffffffffffffffff1673ffffffffffffffffffffffffffffffffffffffff1673ffffffffffffffffffffffffffffffffffffffff168152602001600782015481526020016008820154815260200160098201548152602001600a820160009054906101000a900460ff166002811115610985576109846137ab565b5b6002811115610997576109966137ab565b5b815250509050600060028111156109b1576109b06137ab565b5b81610140015160028111156109c9576109c86137ab565b5b14610a09576040517f08c379a0000000000000000000000000000000000000000000000000000000008152600401610a0090613c11565b60405180910390fd5b806020015173ffffffffffffffffffffffffffffffffffffffff163373ffffffffffffffffffffffffffffffffffffffff161480610a6d5750610a6c7fa49807205ce4d355092ef5a8a18f56e8913cf4a201fbe287825b095693c217753361151a565b5b610aac576040517f08c379a0000000000000000000000000000000000000000000000000000000008152600401610aa390613ca3565b60405180910390fd5b6002600a6000848152602001908152602001600020600a0160006101000a81548160ff02191690836002811115610ae657610ae56137ab565b5b0217905550600760009054906101000a900473ffffffffffffffffffffffffffffffffffffffff1673ffffffffffffffffffffffffffffffffffffffff16632ed7bae88260400151836020015184606001518560a001516040518563ffffffff1660e01b8152600401610b5c9493929190613cd2565b600060405180830381600087803b158015610b7657600080fd5b505af1158015610b8a573d6000803e3d6000fd5b505050507f63e19a11045d43fb73999819f643b1db1182b457b8dff3c511f232d71abbe6398233836040015184606001518560a00151604051610bd1959493929190613d17565b60405180910390a15050565b6005548410158015610bf157506006548411155b8015610bff57506004548611155b610c3e576040517f08c379a0000000000000000000000000000000000000000000000000000000008152600401610c3590613ddc565b60405180910390fd5b6000831115610c8a57824210610c89576040517f08c379a0000000000000000000000000000000000000000000000000000000008152600401610c8090613e6e565b60405180910390fd5b5b600c60008973ffffffffffffffffffffffffffffffffffffffff1673ffffffffffffffffffffffffffffffffffffffff16815260200190815260200160002060009054906101000a900460ff168015610d2c5750600d60008673ffffffffffffffffffffffffffffffffffffffff1673ffffffffffffffffffffffffffffffffffffffff16815260200190815260200160002060009054906101000a900460ff165b610d6b576040517f08c379a0000000000000000000000000000000000000000000000000000000008152600401610d6290613f00565b60405180910390fd5b610d957fa49807205ce4d355092ef5a8a18f56e8913cf4a201fbe287825b095693c217753361151a565b610f9f5742816000013511610ddf576040517f08c379a0000000000000000000000000000000000000000000000000000000008152600401610dd690613f6c565b60405180910390fd5b6000610dfa8a8a8a8a8a8a8a89600001358a602001356106dc565b9050600e600082815260200190815260200160002060009054906101000a900460ff1615610e5d576040517f08c379a0000000000000000000000000000000000000000000000000000000008152600401610e5490613fd8565b60405180910390fd5b6000610ecc838060400190610e729190614007565b8080601f016020809104026020016040519081016040528093929190818152602001838380828437600081840152601f19601f82011690508083019250505050505050610ebe84612573565b6125a390919063ffffffff16565b9050600073ffffffffffffffffffffffffffffffffffffffff168173ffffffffffffffffffffffffffffffffffffffff1614158015610f315750610f307fa49807205ce4d355092ef5a8a18f56e8913cf4a201fbe287825b095693c217758261151a565b5b610f70576040517f08c379a0000000000000000000000000000000000000000000000000000000008152600401610f67906140b6565b60405180910390fd5b6001600e600084815260200190815260200160002060006101000a81548160ff02191690831515021790555050505b8773ffffffffffffffffffffffffffffffffffffffff166301ffc9a77fd9b67a26000000000000000000000000000000000000000000000000000000006040518263ffffffff1660e01b8152600401610ff891906140e5565b602060405180830381865afa158015611015573d6000803e3d6000fd5b505050506040513d601f19601f820116820180604052508101906110399190614115565b61104257600195505b600760009054906101000a900473ffffffffffffffffffffffffffffffffffffffff1673ffffffffffffffffffffffffffffffffffffffff166340fd5829898b8a8a6040518563ffffffff1660e01b81526004016110a39493929190613cd2565b600060405180830381600087803b1580156110bd57600080fd5b505af11580156110d1573d6000803e3d6000fd5b50505050600960008154809291906110e890614171565b9190505550600060405180610160016040528060095481526020018b73ffffffffffffffffffffffffffffffffffffffff1681526020018a73ffffffffffffffffffffffffffffffffffffffff1681526020018981526020018881526020018881526020018773ffffffffffffffffffffffffffffffffffffffff1681526020018681526020018581526020018481526020016000600281111561118f5761118e6137ab565b5b815250905080600a600060095481526020019081526020016000206000820151816000015560208201518160010160006101000a81548173ffffffffffffffffffffffffffffffffffffffff021916908373ffffffffffffffffffffffffffffffffffffffff16021790555060408201518160020160006101000a81548173ffffffffffffffffffffffffffffffffffffffff021916908373ffffffffffffffffffffffffffffffffffffffff160217905550606082015181600301556080820151816004015560a0820151816005015560c08201518160060160006101000a81548173ffffffffffffffffffffffffffffffffffffffff021916908373ffffffffffffffffffffffffffffffffffffffff16021790555060e082015181600701556101008201518160080155610120820151816009015561014082015181600a0160006101000a81548160ff021916908360028111156112f3576112f26137ab565b5b02179055509050507fdd71f4d725d69de07387269ed54b15e29222e3c937b8977794d225f309b1a7c46009548b8b8b8b8b8b8b8b60405161133c999897969594939291906141ba565b60405180910390a150505050505050505050565b6000801b6113658161136061230d565b612315565b81600860006101000a81548173ffffffffffffffffffffffffffffffffffffffff021916908373ffffffffffffffffffffffffffffffffffffffff1602179055505050565b60055481565b7fa49807205ce4d355092ef5a8a18f56e8913cf4a201fbe287825b095693c217756113e2816113dd61230d565b612315565b60005b848490508110156114815782600c600087878581811061140857611407614247565b5b905060200201602081019061141d9190613301565b73ffffffffffffffffffffffffffffffffffffffff1673ffffffffffffffffffffffffffffffffffffffff16815260200190815260200160002060006101000a81548160ff021916908315150217905550808061147990614171565b9150506113e5565b5050505050565b7fa49807205ce4d355092ef5a8a18f56e8913cf4a201fbe287825b095693c217756114ba816114b561230d565b612315565b816004819055505050565b7fa49807205ce4d355092ef5a8a18f56e8913cf4a201fbe287825b095693c2177581565b60065481565b600b602052816000526040600020602052806000526040600020600091509150505481565b60015481565b600080600084815260200190815260200160002060000160008373ffffffffffffffffffffffffffffffffffffffff1673ffffffffffffffffffffffffffffffffffffffff16815260200190815260200160002060009054906101000a900460ff16905092915050565b61158c613126565b600a600083815260200190815260200160002060405180610160016040529081600082015481526020016001820160009054906101000a900473ffffffffffffffffffffffffffffffffffffffff1673ffffffffffffffffffffffffffffffffffffffff1673ffffffffffffffffffffffffffffffffffffffff1681526020016002820160009054906101000a900473ffffffffffffffffffffffffffffffffffffffff1673ffffffffffffffffffffffffffffffffffffffff1673ffffffffffffffffffffffffffffffffffffffff1681526020016003820154815260200160048201548152602001600582015481526020016006820160009054906101000a900473ffffffffffffffffffffffffffffffffffffffff1673ffffffffffffffffffffffffffffffffffffffff1673ffffffffffffffffffffffffffffffffffffffff168152602001600782015481526020016008820154815260200160098201548152602001600a820160009054906101000a900460ff166002811115611718576117176137ab565b5b600281111561172a576117296137ab565b5b815250509050919050565b6000600c60008373ffffffffffffffffffffffffffffffffffffffff1673ffffffffffffffffffffffffffffffffffffffff16815260200190815260200160002060009054906101000a900460ff169050919050565b6000600b600084815260200190815260200160002060008373ffffffffffffffffffffffffffffffffffffffff1673ffffffffffffffffffffffffffffffffffffffff16815260200190815260200160002054905092915050565b6000801b81565b7fa49807205ce4d355092ef5a8a18f56e8913cf4a201fbe287825b095693c2177561181f8161181a61230d565b612315565b670de0b6b3a7640000826118339190614276565b6006819055505050565b7fa49807205ce4d355092ef5a8a18f56e8913cf4a201fbe287825b095693c2177561186f8161186a61230d565b612315565b6003548211156118b4576040517f08c379a00000000000000000000000000000000000000000000000000000000081526004016118ab90614342565b60405180910390fd5b816002819055505050565b7fa49807205ce4d355092ef5a8a18f56e8913cf4a201fbe287825b095693c217756118f1816118ec61230d565b612315565b60005b848490508110156119905782600d600087878581811061191757611916614247565b5b905060200201602081019061192c9190613301565b73ffffffffffffffffffffffffffffffffffffffff1673ffffffffffffffffffffffffffffffffffffffff16815260200190815260200160002060006101000a81548160ff021916908315150217905550808061198890614171565b9150506118f4565b5050505050565b60045481565b60035481565b6000600f60008373ffffffffffffffffffffffffffffffffffffffff1673ffffffffffffffffffffffffffffffffffffffff16815260200190815260200160002060008473ffffffffffffffffffffffffffffffffffffffff1673ffffffffffffffffffffffffffffffffffffffff16815260200190815260200160002054905092915050565b611a3382610726565b611a4481611a3f61230d565b612315565b611a4e8383612492565b505050565b6000600a600084815260200190815260200160002060405180610160016040529081600082015481526020016001820160009054906101000a900473ffffffffffffffffffffffffffffffffffffffff1673ffffffffffffffffffffffffffffffffffffffff1673ffffffffffffffffffffffffffffffffffffffff1681526020016002820160009054906101000a900473ffffffffffffffffffffffffffffffffffffffff1673ffffffffffffffffffffffffffffffffffffffff1673ffffffffffffffffffffffffffffffffffffffff1681526020016003820154815260200160048201548152602001600582015481526020016006820160009054906101000a900473ffffffffffffffffffffffffffffffffffffffff1673ffffffffffffffffffffffffffffffffffffffff1673ffffffffffffffffffffffffffffffffffffffff168152602001600782015481526020016008820154815260200160098201548152602001600a820160009054906101000a900460ff166002811115611be157611be06137ab565b5b6002811115611bf357611bf26137ab565b5b81525050905060006002811115611c0d57611c0c6137ab565b5b8161014001516002811115611c2557611c246137ab565b5b14611c65576040517f08c379a0000000000000000000000000000000000000000000000000000000008152600401611c5c906143ae565b60405180910390fd5b8060a00151821115611cac576040517f08c379a0000000000000000000000000000000000000000000000000000000008152600401611ca39061441a565b60405180910390fd5b60008161010001511115611d02574281610100015111611d01576040517f08c379a0000000000000000000000000000000000000000000000000000000008152600401611cf890614486565b60405180910390fd5b5b60008161012001511115611db45780610120015182600b600086815260200190815260200160002060003373ffffffffffffffffffffffffffffffffffffffff1673ffffffffffffffffffffffffffffffffffffffff16815260200190815260200160002054611d7291906144a6565b1115611db3576040517f08c379a0000000000000000000000000000000000000000000000000000000008152600401611daa9061456e565b60405180910390fd5b5b6000828260e00151611dc69190614276565b9050600080611dd4836125ca565b915091508360c0015173ffffffffffffffffffffffffffffffffffffffff166323b872dd33308487611e0691906144a6565b6040518463ffffffff1660e01b8152600401611e249392919061458e565b6020604051808303816000875af1158015611e43573d6000803e3d6000fd5b505050506040513d601f19601f82011682018060405250810190611e679190614115565b50611eca8460200151338660c001518660405180604001604052808781526020018881525060405180606001604052808b6040015173ffffffffffffffffffffffffffffffffffffffff1681526020018b6060015181526020018c81525061260c565b84600b600088815260200190815260200160002060003373ffffffffffffffffffffffffffffffffffffffff1673ffffffffffffffffffffffffffffffffffffffff1681526020019081526020016000206000828254611f2a91906144a6565b925050819055506000858560a00151611f4391906145c5565b905080600a6000898152602001908152602001600020600501819055506000811415611fa9576001600a6000898152602001908152602001600020600a0160006101000a81548160ff02191690836002811115611fa357611fa26137ab565b5b02179055505b7fec6fba8bd56190929e7252cf572c1ebd0f9e8211aaf75cfcf3736b7726f376ff87338760200151898960c001518a60e00151604051611fee969594939291906145f9565b60405180910390a150505050505050565b7fa49807205ce4d355092ef5a8a18f56e8913cf4a201fbe287825b095693c217756120318161202c61230d565b612315565b600354821115612076576040517f08c379a000000000000000000000000000000000000000000000000000000000815260040161206d90614342565b60405180910390fd5b816001819055505050565b80600f60003373ffffffffffffffffffffffffffffffffffffffff1673ffffffffffffffffffffffffffffffffffffffff16815260200190815260200160002060008473ffffffffffffffffffffffffffffffffffffffff1673ffffffffffffffffffffffffffffffffffffffff168152602001908152602001600020541015612140576040517f08c379a0000000000000000000000000000000000000000000000000000000008152600401612137906146cc565b60405180910390fd5b80600f60003373ffffffffffffffffffffffffffffffffffffffff1673ffffffffffffffffffffffffffffffffffffffff16815260200190815260200160002060008473ffffffffffffffffffffffffffffffffffffffff1673ffffffffffffffffffffffffffffffffffffffff16815260200190815260200160002060008282546121cc91906145c5565b925050819055508173ffffffffffffffffffffffffffffffffffffffff1663a9059cbb33836040518363ffffffff1660e01b815260040161220e9291906146ec565b6020604051808303816000875af115801561222d573d6000803e3d6000fd5b505050506040513d601f19601f820116820180604052508101906122519190614115565b505050565b7fa49807205ce4d355092ef5a8a18f56e8913cf4a201fbe287825b095693c217756122888161228361230d565b612315565b816006819055505050565b60007f7965db0b000000000000000000000000000000000000000000000000000000007bffffffffffffffffffffffffffffffffffffffffffffffffffffffff1916827bffffffffffffffffffffffffffffffffffffffffffffffffffffffff191614806123065750612305826126e2565b5b9050919050565b600033905090565b61231f828261151a565b6123ae576123448173ffffffffffffffffffffffffffffffffffffffff16601461274c565b6123528360001c602061274c565b604051602001612363929190614827565b6040516020818303038152906040526040517f08c379a00000000000000000000000000000000000000000000000000000000081526004016123a591906148ab565b60405180910390fd5b5050565b6123bc828261151a565b61248e57600160008084815260200190815260200160002060000160008373ffffffffffffffffffffffffffffffffffffffff1673ffffffffffffffffffffffffffffffffffffffff16815260200190815260200160002060006101000a81548160ff02191690831515021790555061243361230d565b73ffffffffffffffffffffffffffffffffffffffff168173ffffffffffffffffffffffffffffffffffffffff16837f2f8788117e7eff1d82e926ec794901d17c78024a50270940304540a733656f0d60405160405180910390a45b5050565b61249c828261151a565b1561256f57600080600084815260200190815260200160002060000160008373ffffffffffffffffffffffffffffffffffffffff1673ffffffffffffffffffffffffffffffffffffffff16815260200190815260200160002060006101000a81548160ff02191690831515021790555061251461230d565b73ffffffffffffffffffffffffffffffffffffffff168173ffffffffffffffffffffffffffffffffffffffff16837ff6391f5c32d9c69d2a47ea670b442974b53935d1edc7fd64eb21e047a839171b60405160405180910390a45b5050565b600081604051602001612586919061493a565b604051602081830303815290604052805190602001209050919050565b60008060006125b28585612988565b915091506125bf81612a0b565b819250505092915050565b600080600354600154846125de9190614276565b6125e8919061498f565b9050600354600254846125fb9190614276565b612605919061498f565b9150915091565b600061262d8786868660200151876000015187600001518860200151612be0565b905061263a878683612f33565b600760009054906101000a900473ffffffffffffffffffffffffffffffffffffffff1673ffffffffffffffffffffffffffffffffffffffff16632ed7bae8836000015188856020015186604001516040518563ffffffff1660e01b81526004016126a79493929190613cd2565b600060405180830381600087803b1580156126c157600080fd5b505af11580156126d5573d6000803e3d6000fd5b5050505050505050505050565b60007f01ffc9a7000000000000000000000000000000000000000000000000000000007bffffffffffffffffffffffffffffffffffffffffffffffffffffffff1916827bffffffffffffffffffffffffffffffffffffffffffffffffffffffff1916149050919050565b60606000600283600261275f9190614276565b61276991906144a6565b67ffffffffffffffff811115612782576127816149c0565b5b6040519080825280601f01601f1916602001820160405280156127b45781602001600182028036833780820191505090505b5090507f3000000000000000000000000000000000000000000000000000000000000000816000815181106127ec576127eb614247565b5b60200101907effffffffffffffffffffffffffffffffffffffffffffffffffffffffffffff1916908160001a9053507f7800000000000000000000000000000000000000000000000000000000000000816001815181106128505761284f614247565b5b60200101907effffffffffffffffffffffffffffffffffffffffffffffffffffffffffffff1916908160001a905350600060018460026128909190614276565b61289a91906144a6565b90505b600181111561293a577f3031323334353637383961626364656600000000000000000000000000000000600f8616601081106128dc576128db614247565b5b1a60f81b8282815181106128f3576128f2614247565b5b60200101907effffffffffffffffffffffffffffffffffffffffffffffffffffffffffffff1916908160001a905350600485901c945080612933906149ef565b905061289d565b506000841461297e576040517f08c379a000000000000000000000000000000000000000000000000000000000815260040161297590614a65565b60405180910390fd5b8091505092915050565b6000806041835114156129ca5760008060006020860151925060408601519150606086015160001a90506129be87828585612fcb565b94509450505050612a04565b6040835114156129fb5760008060208501519150604085015190506129f08683836130d8565b935093505050612a04565b60006002915091505b9250929050565b60006004811115612a1f57612a1e6137ab565b5b816004811115612a3257612a316137ab565b5b1415612a3d57612bdd565b60016004811115612a5157612a506137ab565b5b816004811115612a6457612a636137ab565b5b1415612aa5576040517f08c379a0000000000000000000000000000000000000000000000000000000008152600401612a9c90614ad1565b60405180910390fd5b60026004811115612ab957612ab86137ab565b5b816004811115612acc57612acb6137ab565b5b1415612b0d576040517f08c379a0000000000000000000000000000000000000000000000000000000008152600401612b0490614b3d565b60405180910390fd5b60036004811115612b2157612b206137ab565b5b816004811115612b3457612b336137ab565b5b1415612b75576040517f08c379a0000000000000000000000000000000000000000000000000000000008152600401612b6c90614bcf565b60405180910390fd5b600480811115612b8857612b876137ab565b5b816004811115612b9b57612b9a6137ab565b5b1415612bdc576040517f08c379a0000000000000000000000000000000000000000000000000000000008152600401612bd390614c61565b60405180910390fd5b5b50565b600084861115612bf9578486612bf691906145c5565b95505b859050612c34600860009054906101000a900473ffffffffffffffffffffffffffffffffffffffff16888688612c2f91906144a6565b612f33565b8273ffffffffffffffffffffffffffffffffffffffff166301ffc9a763b779958460e01b6040518263ffffffff1660e01b8152600401612c7491906140e5565b602060405180830381865afa158015612c91573d6000803e3d6000fd5b505050506040513d601f19601f82011682018060405250810190612cb59190614115565b612cbe57612f28565b600083905060008173ffffffffffffffffffffffffffffffffffffffff1663b9c4d9fb856040518263ffffffff1660e01b8152600401612cfe91906134ca565b600060405180830381865afa158015612d1b573d6000803e3d6000fd5b505050506040513d6000823e3d601f19601f82011682018060405250810190612d449190614dce565b905060008273ffffffffffffffffffffffffffffffffffffffff16630ebd4c7f866040518263ffffffff1660e01b8152600401612d8191906134ca565b600060405180830381865afa158015612d9e573d6000803e3d6000fd5b505050506040513d6000823e3d601f19601f82011682018060405250810190612dc79190614eef565b905060005b8151811015612f23578b73ffffffffffffffffffffffffffffffffffffffff16838281518110612dff57612dfe614247565b5b602002602001015173ffffffffffffffffffffffffffffffffffffffff161415612e2857612f10565b6000851415612e3657612f23565b6000600354838381518110612e4e57612e4d614247565b5b60200260200101518c612e619190614276565b612e6b919061498f565b905085811115612e815785905060009550612e90565b8086612e8d91906145c5565b95505b612eb5848381518110612ea657612ea5614247565b5b60200260200101518d83612f33565b7f27c4f0403323142b599832f26acd21c74a9e5b809f2215726e244a4ac588cd7d8888868581518110612eeb57612eea614247565b5b60200260200101518f85604051612f06959493929190614f97565b60405180910390a1505b8080612f1b90614171565b915050612dcc565b505050505b979650505050505050565b80600f60008573ffffffffffffffffffffffffffffffffffffffff1673ffffffffffffffffffffffffffffffffffffffff16815260200190815260200160002060008473ffffffffffffffffffffffffffffffffffffffff1673ffffffffffffffffffffffffffffffffffffffff1681526020019081526020016000206000828254612fbf91906144a6565b92505081905550505050565b6000807f7fffffffffffffffffffffffffffffff5d576e7357a4501ddfe92f46681b20a08360001c11156130065760006003915091506130cf565b601b8560ff161415801561301e5750601c8560ff1614155b156130305760006004915091506130cf565b6000600187878787604051600081526020016040526040516130559493929190615006565b6020604051602081039080840390855afa158015613077573d6000803e3d6000fd5b505050602060405103519050600073ffffffffffffffffffffffffffffffffffffffff168173ffffffffffffffffffffffffffffffffffffffff1614156130c6576000600192509250506130cf565b80600092509250505b94509492505050565b6000806000807f7fffffffffffffffffffffffffffffffffffffffffffffffffffffffffffffff85169150601b8560ff1c01905061311887828885612fcb565b935093505050935093915050565b60405180610160016040528060008152602001600073ffffffffffffffffffffffffffffffffffffffff168152602001600073ffffffffffffffffffffffffffffffffffffffff168152602001600081526020016000815260200160008152602001600073ffffffffffffffffffffffffffffffffffffffff168152602001600081526020016000815260200160008152602001600060028111156131ce576131cd6137ab565b5b81525090565b6000604051905090565b600080fd5b600080fd5b60007fffffffff0000000000000000000000000000000000000000000000000000000082169050919050565b61321d816131e8565b811461322857600080fd5b50565b60008135905061323a81613214565b92915050565b600060208284031215613256576132556131de565b5b60006132648482850161322b565b91505092915050565b60008115159050919050565b6132828161326d565b82525050565b600060208201905061329d6000830184613279565b92915050565b600073ffffffffffffffffffffffffffffffffffffffff82169050919050565b60006132ce826132a3565b9050919050565b6132de816132c3565b81146132e957600080fd5b50565b6000813590506132fb816132d5565b92915050565b600060208284031215613317576133166131de565b5b6000613325848285016132ec565b91505092915050565b6000819050919050565b6133418161332e565b811461334c57600080fd5b50565b60008135905061335e81613338565b92915050565b60008060008060008060008060006101208a8c031215613387576133866131de565b5b60006133958c828d016132ec565b99505060206133a68c828d016132ec565b98505060406133b78c828d0161334f565b97505060606133c88c828d0161334f565b96505060806133d98c828d016132ec565b95505060a06133ea8c828d0161334f565b94505060c06133fb8c828d0161334f565b93505060e061340c8c828d0161334f565b92505061010061341e8c828d0161334f565b9150509295985092959850929598565b6000819050919050565b6134418161342e565b82525050565b600060208201905061345c6000830184613438565b92915050565b61346b8161342e565b811461347657600080fd5b50565b60008135905061348881613462565b92915050565b6000602082840312156134a4576134a36131de565b5b60006134b284828501613479565b91505092915050565b6134c48161332e565b82525050565b60006020820190506134df60008301846134bb565b92915050565b600080604083850312156134fc576134fb6131de565b5b600061350a85828601613479565b925050602061351b858286016132ec565b9150509250929050565b60006020828403121561353b5761353a6131de565b5b60006135498482850161334f565b91505092915050565b600080fd5b60006060828403121561356d5761356c613552565b5b81905092915050565b60008060008060008060008060006101208a8c031215613599576135986131de565b5b60006135a78c828d016132ec565b99505060206135b88c828d016132ec565b98505060406135c98c828d0161334f565b97505060606135da8c828d0161334f565b96505060806135eb8c828d016132ec565b95505060a06135fc8c828d0161334f565b94505060c061360d8c828d0161334f565b93505060e061361e8c828d0161334f565b9250506101008a013567ffffffffffffffff8111156136405761363f6131e3565b5b61364c8c828d01613557565b9150509295985092959850929598565b600080fd5b600080fd5b600080fd5b60008083601f8401126136815761368061365c565b5b8235905067ffffffffffffffff81111561369e5761369d613661565b5b6020830191508360208202830111156136ba576136b9613666565b5b9250929050565b6136ca8161326d565b81146136d557600080fd5b50565b6000813590506136e7816136c1565b92915050565b600080600060408486031215613706576137056131de565b5b600084013567ffffffffffffffff811115613724576137236131e3565b5b6137308682870161366b565b93509350506020613743868287016136d8565b9150509250925092565b60008060408385031215613764576137636131de565b5b60006137728582860161334f565b9250506020613783858286016132ec565b9150509250929050565b6137968161332e565b82525050565b6137a5816132c3565b82525050565b7f4e487b7100000000000000000000000000000000000000000000000000000000600052602160045260246000fd5b600381106137eb576137ea6137ab565b5b50565b60008190506137fc826137da565b919050565b600061380c826137ee565b9050919050565b61381c81613801565b82525050565b61016082016000820151613839600085018261378d565b50602082015161384c602085018261379c565b50604082015161385f604085018261379c565b506060820151613872606085018261378d565b506080820151613885608085018261378d565b5060a082015161389860a085018261378d565b5060c08201516138ab60c085018261379c565b5060e08201516138be60e085018261378d565b506101008201516138d361010085018261378d565b506101208201516138e861012085018261378d565b506101408201516138fd610140850182613813565b50505050565b6000610160820190506139196000830184613822565b92915050565b60008060408385031215613936576139356131de565b5b6000613944858286016132ec565b9250506020613955858286016132ec565b9150509250929050565b60008060408385031215613976576139756131de565b5b60006139848582860161334f565b92505060206139958582860161334f565b9150509250929050565b600080604083850312156139b6576139b56131de565b5b60006139c4858286016132ec565b92505060206139d58582860161334f565b9150509250929050565b60008160601b9050919050565b60006139f7826139df565b9050919050565b6000613a09826139ec565b9050919050565b613a21613a1c826132c3565b6139fe565b82525050565b6000819050919050565b613a42613a3d8261332e565b613a27565b82525050565b6000613a54828d613a10565b601482019150613a64828c613a10565b601482019150613a74828b613a10565b601482019150613a84828a613a31565b602082019150613a948289613a31565b602082019150613aa48288613a10565b601482019150613ab48287613a31565b602082019150613ac48286613a31565b602082019150613ad48285613a31565b602082019150613ae48284613a31565b6020820191508190509b9a5050505050505050505050565b600082825260208201905092915050565b7f416363657373436f6e74726f6c3a2063616e206f6e6c792072656e6f756e636560008201527f20726f6c657320666f722073656c660000000000000000000000000000000000602082015250565b6000613b69602f83613afc565b9150613b7482613b0d565b604082019050919050565b60006020820190508181036000830152613b9881613b5c565b9050919050565b7f4f6e6c79206f70656e206c697374696e67732063616e20626520636c6f73656460008201527f2e00000000000000000000000000000000000000000000000000000000000000602082015250565b6000613bfb602183613afc565b9150613c0682613b9f565b604082019050919050565b60006020820190508181036000830152613c2a81613bee565b9050919050565b7f4f6e6c792073656c6c6572206f722061646d696e2063616e20636c6f7365207460008201527f6865206c697374696e672e000000000000000000000000000000000000000000602082015250565b6000613c8d602b83613afc565b9150613c9882613c31565b604082019050919050565b60006020820190508181036000830152613cbc81613c80565b9050919050565b613ccc816132c3565b82525050565b6000608082019050613ce76000830187613cc3565b613cf46020830186613cc3565b613d0160408301856134bb565b613d0e60608301846134bb565b95945050505050565b600060a082019050613d2c60008301886134bb565b613d396020830187613cc3565b613d466040830186613cc3565b613d5360608301856134bb565b613d6060808301846134bb565b9695505050505050565b7f5072696365206f72207175616e746974792066616c6c73206f7574736964652060008201527f616c6c6f7765642072616e67652e000000000000000000000000000000000000602082015250565b6000613dc6602e83613afc565b9150613dd182613d6a565b604082019050919050565b60006020820190508181036000830152613df581613db9565b9050919050565b7f4c697374696e6720657870697279206e6565647320746f20626520696e20746860008201527f65206675747572652e0000000000000000000000000000000000000000000000602082015250565b6000613e58602983613afc565b9150613e6382613dfc565b604082019050919050565b60006020820190508181036000830152613e8781613e4b565b9050919050565b7f546f6b656e206f722063757272656e637920636f6e7472616374206973206e6f60008201527f7420617070726f7665642e000000000000000000000000000000000000000000602082015250565b6000613eea602b83613afc565b9150613ef582613e8e565b604082019050919050565b60006020820190508181036000830152613f1981613edd565b9050919050565b7f417070726f76616c20657870697265642e000000000000000000000000000000600082015250565b6000613f56601183613afc565b9150613f6182613f20565b602082019050919050565b60006020820190508181036000830152613f8581613f49565b9050919050565b7f417070726f76616c206578686175737465642e00000000000000000000000000600082015250565b6000613fc2601383613afc565b9150613fcd82613f8c565b602082019050919050565b60006020820190508181036000830152613ff181613fb5565b9050919050565b600080fd5b600080fd5b600080fd5b6000808335600160200384360303811261402457614023613ff8565b5b80840192508235915067ffffffffffffffff82111561404657614045613ffd565b5b60208301925060018202360383131561406257614061614002565b5b509250929050565b7f496e76616c6964207369676e61747572652e0000000000000000000000000000600082015250565b60006140a0601283613afc565b91506140ab8261406a565b602082019050919050565b600060208201905081810360008301526140cf81614093565b9050919050565b6140df816131e8565b82525050565b60006020820190506140fa60008301846140d6565b92915050565b60008151905061410f816136c1565b92915050565b60006020828403121561412b5761412a6131de565b5b600061413984828501614100565b91505092915050565b7f4e487b7100000000000000000000000000000000000000000000000000000000600052601160045260246000fd5b600061417c8261332e565b91507fffffffffffffffffffffffffffffffffffffffffffffffffffffffffffffffff8214156141af576141ae614142565b5b600182019050919050565b6000610120820190506141d0600083018c6134bb565b6141dd602083018b613cc3565b6141ea604083018a613cc3565b6141f760608301896134bb565b61420460808301886134bb565b61421160a0830187613cc3565b61421e60c08301866134bb565b61422b60e08301856134bb565b6142396101008301846134bb565b9a9950505050505050505050565b7f4e487b7100000000000000000000000000000000000000000000000000000000600052603260045260246000fd5b60006142818261332e565b915061428c8361332e565b9250817fffffffffffffffffffffffffffffffffffffffffffffffffffffffffffffffff04831182151516156142c5576142c4614142565b5b828202905092915050565b7f4665652063616e6e6f7420626520686967686572207468616e2068756e64726560008201527f642070657263656e742e00000000000000000000000000000000000000000000602082015250565b600061432c602a83613afc565b9150614337826142d0565b604082019050919050565b6000602082019050818103600083015261435b8161431f565b9050919050565b7f4c697374696e67206973206e6f74206163746976652e00000000000000000000600082015250565b6000614398601683613afc565b91506143a382614362565b602082019050919050565b600060208201905081810360008301526143c78161438b565b9050919050565b7f4e6f7420656e6f75676820746f6b656e7320666f722073616c652e0000000000600082015250565b6000614404601b83613afc565b915061440f826143ce565b602082019050919050565b60006020820190508181036000830152614433816143f7565b9050919050565b7f4c697374696e672068617320657870697265642e000000000000000000000000600082015250565b6000614470601483613afc565b915061447b8261443a565b602082019050919050565b6000602082019050818103600083015261449f81614463565b9050919050565b60006144b18261332e565b91506144bc8361332e565b9250827fffffffffffffffffffffffffffffffffffffffffffffffffffffffffffffffff038211156144f1576144f0614142565b5b828201905092915050565b7f5175616e746974792065786365656473206d6178696d756d20616c6c6f77656460008201527f207065722062757965722e000000000000000000000000000000000000000000602082015250565b6000614558602b83613afc565b9150614563826144fc565b604082019050919050565b600060208201905081810360008301526145878161454b565b9050919050565b60006060820190506145a36000830186613cc3565b6145b06020830185613cc3565b6145bd60408301846134bb565b949350505050565b60006145d08261332e565b91506145db8361332e565b9250828210156145ee576145ed614142565b5b828203905092915050565b600060c08201905061460e60008301896134bb565b61461b6020830188613cc3565b6146286040830187613cc3565b61463560608301866134bb565b6146426080830185613cc3565b61464f60a08301846134bb565b979650505050505050565b7f496e73756666696369656e742062616c616e636520746f20776974686472617760008201527f2e00000000000000000000000000000000000000000000000000000000000000602082015250565b60006146b6602183613afc565b91506146c18261465a565b604082019050919050565b600060208201905081810360008301526146e5816146a9565b9050919050565b60006040820190506147016000830185613cc3565b61470e60208301846134bb565b9392505050565b600081905092915050565b7f416363657373436f6e74726f6c3a206163636f756e7420000000000000000000600082015250565b6000614756601783614715565b915061476182614720565b601782019050919050565b600081519050919050565b60005b8381101561479557808201518184015260208101905061477a565b838111156147a4576000848401525b50505050565b60006147b58261476c565b6147bf8185614715565b93506147cf818560208601614777565b80840191505092915050565b7f206973206d697373696e6720726f6c6520000000000000000000000000000000600082015250565b6000614811601183614715565b915061481c826147db565b601182019050919050565b600061483282614749565b915061483e82856147aa565b915061484982614804565b915061485582846147aa565b91508190509392505050565b6000601f19601f8301169050919050565b600061487d8261476c565b6148878185613afc565b9350614897818560208601614777565b6148a081614861565b840191505092915050565b600060208201905081810360008301526148c58184614872565b905092915050565b7f19457468657265756d205369676e6564204d6573736167653a0a333200000000600082015250565b6000614903601c83614715565b915061490e826148cd565b601c82019050919050565b6000819050919050565b61493461492f8261342e565b614919565b82525050565b6000614945826148f6565b91506149518284614923565b60208201915081905092915050565b7f4e487b7100000000000000000000000000000000000000000000000000000000600052601260045260246000fd5b600061499a8261332e565b91506149a58361332e565b9250826149b5576149b4614960565b5b828204905092915050565b7f4e487b7100000000000000000000000000000000000000000000000000000000600052604160045260246000fd5b60006149fa8261332e565b91506000821415614a0e57614a0d614142565b5b600182039050919050565b7f537472696e67733a20686578206c656e67746820696e73756666696369656e74600082015250565b6000614a4f602083613afc565b9150614a5a82614a19565b602082019050919050565b60006020820190508181036000830152614a7e81614a42565b9050919050565b7f45434453413a20696e76616c6964207369676e61747572650000000000000000600082015250565b6000614abb601883613afc565b9150614ac682614a85565b602082019050919050565b60006020820190508181036000830152614aea81614aae565b9050919050565b7f45434453413a20696e76616c6964207369676e6174757265206c656e67746800600082015250565b6000614b27601f83613afc565b9150614b3282614af1565b602082019050919050565b60006020820190508181036000830152614b5681614b1a565b9050919050565b7f45434453413a20696e76616c6964207369676e6174757265202773272076616c60008201527f7565000000000000000000000000000000000000000000000000000000000000602082015250565b6000614bb9602283613afc565b9150614bc482614b5d565b604082019050919050565b60006020820190508181036000830152614be881614bac565b9050919050565b7f45434453413a20696e76616c6964207369676e6174757265202776272076616c60008201527f7565000000000000000000000000000000000000000000000000000000000000602082015250565b6000614c4b602283613afc565b9150614c5682614bef565b604082019050919050565b60006020820190508181036000830152614c7a81614c3e565b9050919050565b614c8a82614861565b810181811067ffffffffffffffff82111715614ca957614ca86149c0565b5b80604052505050565b6000614cbc6131d4565b9050614cc88282614c81565b919050565b600067ffffffffffffffff821115614ce857614ce76149c0565b5b602082029050602081019050919050565b6000614d04826132a3565b9050919050565b614d1481614cf9565b8114614d1f57600080fd5b50565b600081519050614d3181614d0b565b92915050565b6000614d4a614d4584614ccd565b614cb2565b90508083825260208201905060208402830185811115614d6d57614d6c613666565b5b835b81811015614d965780614d828882614d22565b845260208401935050602081019050614d6f565b5050509392505050565b600082601f830112614db557614db461365c565b5b8151614dc5848260208601614d37565b91505092915050565b600060208284031215614de457614de36131de565b5b600082015167ffffffffffffffff811115614e0257614e016131e3565b5b614e0e84828501614da0565b91505092915050565b600067ffffffffffffffff821115614e3257614e316149c0565b5b602082029050602081019050919050565b600081519050614e5281613338565b92915050565b6000614e6b614e6684614e17565b614cb2565b90508083825260208201905060208402830185811115614e8e57614e8d613666565b5b835b81811015614eb75780614ea38882614e43565b845260208401935050602081019050614e90565b5050509392505050565b600082601f830112614ed657614ed561365c565b5b8151614ee6848260208601614e58565b91505092915050565b600060208284031215614f0557614f046131de565b5b600082015167ffffffffffffffff811115614f2357614f226131e3565b5b614f2f84828501614ec1565b91505092915050565b6000819050919050565b6000614f5d614f58614f53846132a3565b614f38565b6132a3565b9050919050565b6000614f6f82614f42565b9050919050565b6000614f8182614f64565b9050919050565b614f9181614f76565b82525050565b600060a082019050614fac6000830188613cc3565b614fb960208301876134bb565b614fc66040830186614f88565b614fd36060830185613cc3565b614fe060808301846134bb565b9695505050505050565b600060ff82169050919050565b61500081614fea565b82525050565b600060808201905061501b6000830187613438565b6150286020830186614ff7565b6150356040830185613438565b6150426060830184613438565b9594505050505056fea26469706673582212207b39e3bc7003a1f95188bee56f345b7fb967e79ed94b446c6b80611c0322520264736f6c634300080b0033",
  "immutableReferences": {},
  "source": "// SPDX-License-Identifier: MIT\npragma solidity ^0.8.0;\n\nimport '@openzeppelin/contracts/access/AccessControl.sol';\nimport '@openzeppelin/contracts/token/ERC20/IERC20.sol';\nimport '@openzeppelin/contracts/utils/cryptography/ECDSA.sol';\n\nimport './MarketWalletV1.sol';\nimport './HasSecondarySaleFees.sol';\n\nenum ListingStatus {\n  Active,\n  Sold,\n  Cancelled\n}\n\nstruct Listing {\n  uint256 id;\n  address seller;\n  address token;\n  uint256 tokenId;\n  uint256 quantity;\n  uint256 available;\n  address currency;\n  uint256 price;\n  uint256 expiry;\n  uint256 maxPerBuyer;\n  ListingStatus status;\n}\n\nstruct MarketFees {\n  uint256 buyer;\n  uint256 seller;\n}\n\nstruct TokenOrder {\n  address token;\n  uint256 id;\n  uint256 quantity;\n}\n\nstruct Approval {\n  uint256 expiry;\n  uint256 salt;\n  bytes signature;\n}\n\ncontract MarketV1 is AccessControl {\n  using ECDSA for bytes32;\n\n  bytes internal constant EMPTY = '';\n\n  uint256 public buyerFeePct = 5000;\n  uint256 public sellerFeePct = 5000;\n  uint256 public hundredPct = 10**5;\n\n  uint256 public maxListingQuantity = 10**6;\n  uint256 public minTokenPrice = hundredPct;\n  uint256 public maxTokenPrice = 10**6 * 1 ether;\n\n  MarketWalletV1 internal _wallet;\n  address internal _feeBeneficiary;\n\n  uint256 private _listingId = 0;\n  mapping(uint256 => Listing) private _listings;\n\n  mapping(uint256 => mapping(address => uint256))\n    public _listingPurchasesForBuyer;\n\n  // contract address => isAuthorized\n  mapping(address => bool) internal _approvedTokens;\n\n  // contract address => isAuthorized\n  mapping(address => bool) internal _approvedCurrencies;\n\n  mapping(bytes32 => bool) private _approvalsExhausted;\n\n  // seller => (currency => revenue)\n  mapping(address => mapping(address => uint256)) internal _earnings;\n\n  event ListForSale(\n    uint256 listingId,\n    address seller,\n    address tokenContract,\n    uint256 tokenId,\n    uint256 quantity,\n    address currency,\n    uint256 price,\n    uint256 expiry,\n    uint256 maxPerBuyer\n  );\n\n  event Trade(\n    uint256 listingId,\n    address buyer,\n    address seller,\n    uint256 quantity,\n    address currency,\n    uint256 price\n  );\n\n  event CancelListing(\n    uint256 listingId,\n    address operator,\n    address tokenContract,\n    uint256 tokenId,\n    uint256 returned\n  );\n\n  event RoyaltyPayment(\n    address token,\n    uint256 tokenId,\n    address beneficiary,\n    address currency,\n    uint256 amount\n  );\n\n  bytes32 public constant ADMIN_ROLE = keccak256('ADMIN_ROLE');\n\n  bytes4 private constant _INTERFACE_ID_FEES = 0xb7799584;\n\n  constructor(MarketWalletV1 wallet) {\n    _setupRole(DEFAULT_ADMIN_ROLE, msg.sender);\n\n    _setupRole(ADMIN_ROLE, msg.sender);\n    _setRoleAdmin(ADMIN_ROLE, DEFAULT_ADMIN_ROLE);\n\n    _feeBeneficiary = msg.sender;\n    _wallet = wallet;\n  }\n\n  function supportsInterface(bytes4 interfaceID)\n    public\n    view\n    override(AccessControl)\n    returns (bool)\n  {\n    return super.supportsInterface(interfaceID);\n  }\n\n  function get(uint256 listingId) public view returns (Listing memory) {\n    return _listings[listingId];\n  }\n\n  function buy(uint256 listingId, uint256 quantity) public {\n    Listing memory listing = _listings[listingId];\n\n    // Require listing is still active\n    require(listing.status == ListingStatus.Active, 'Listing is not active.');\n\n    // Require quantity does not exceed supply\n    require(quantity <= listing.available, 'Not enough tokens for sale.');\n\n    // If listing has an expiry date,\n    // ensure it hasn't already expired.\n    if (listing.expiry > 0) {\n      require(listing.expiry > block.timestamp, 'Listing has expired.');\n    }\n\n    // If there is a per-wallet quantity limit,\n    // ensure it hasn't already been met.\n    if (listing.maxPerBuyer > 0) {\n      require(\n        _listingPurchasesForBuyer[listingId][msg.sender] + quantity <=\n          listing.maxPerBuyer,\n        'Quantity exceeds maximum allowed per buyer.'\n      );\n    }\n\n    uint256 subtotal = listing.price * quantity;\n    (uint256 sellerFee, uint256 buyerFee) = calculateMarketFees(subtotal);\n\n    // Deposit currency for escrow\n    IERC20(listing.currency).transferFrom(\n      msg.sender,\n      address(this),\n      subtotal + buyerFee\n    );\n\n    exchange(\n      listing.seller,\n      msg.sender,\n      listing.currency,\n      subtotal,\n      MarketFees(buyerFee, sellerFee),\n      TokenOrder(listing.token, listing.tokenId, quantity)\n    );\n\n    _listingPurchasesForBuyer[listingId][msg.sender] += quantity;\n\n    uint256 available = listing.available - quantity;\n    _listings[listingId].available = available;\n\n    if (available == 0) {\n      _listings[listingId].status = ListingStatus.Sold;\n    }\n\n    emit Trade(\n      listingId,\n      msg.sender,\n      listing.seller,\n      quantity,\n      listing.currency,\n      listing.price\n    );\n  }\n\n  function exchange(\n    address seller,\n    address buyer,\n    address currency,\n    uint256 subtotal,\n    MarketFees memory fees,\n    TokenOrder memory order\n  ) internal {\n    uint256 sellerNet = payAfterFees(\n      seller,\n      currency,\n      subtotal,\n      fees.seller,\n      fees.buyer,\n      order.token,\n      order.id\n    );\n\n    pay(seller, currency, sellerNet);\n\n    _wallet.give(order.token, buyer, order.id, order.quantity);\n  }\n\n  function pay(\n    address account,\n    address currency,\n    uint256 amount\n  ) internal {\n    _earnings[account][currency] += amount;\n  }\n\n  function calculateMarketFees(uint256 subtotal)\n    internal\n    view\n    returns (uint256 sellerFee, uint256 buyerFee)\n  {\n    buyerFee = (subtotal * buyerFeePct) / hundredPct;\n    sellerFee = (subtotal * sellerFeePct) / hundredPct;\n  }\n\n  function payAfterFees(\n    address seller,\n    address currency,\n    uint256 subtotal,\n    uint256 sellerFee,\n    uint256 buyerFee,\n    address token,\n    uint256 tokenId\n  ) internal returns (uint256 sellerPay) {\n    if (subtotal > sellerFee) subtotal = subtotal - sellerFee;\n    sellerPay = subtotal;\n\n    // Pay market fees\n    pay(_feeBeneficiary, currency, sellerFee + buyerFee);\n\n    if (!IERC165(token).supportsInterface(_INTERFACE_ID_FEES)) return sellerPay;\n\n    HasSecondarySaleFees tokenWithFees = HasSecondarySaleFees(token);\n\n    address payable[] memory recipients = tokenWithFees.getFeeRecipients(\n      tokenId\n    );\n\n    uint256[] memory feeBps = tokenWithFees.getFeeBps(tokenId);\n\n    for (uint256 i = 0; i < feeBps.length; i++) {\n      if (recipients[i] == seller) continue;\n      if (sellerPay == 0) break;\n\n      uint256 fee = (subtotal * feeBps[i]) / hundredPct;\n\n      if (fee > sellerPay) {\n        fee = sellerPay;\n        sellerPay = 0;\n      } else {\n        sellerPay -= fee;\n      }\n\n      pay(recipients[i], currency, fee);\n\n      emit RoyaltyPayment(token, tokenId, recipients[i], currency, fee);\n    }\n  }\n\n  function getSaleAuthorizationHash(\n    address seller,\n    address token,\n    uint256 tokenId,\n    uint256 quantity,\n    address currency,\n    uint256 price,\n    uint256 expiry,\n    uint256 approvalExpiry,\n    uint256 approvalSalt\n  ) public view returns (bytes32) {\n    return\n      keccak256(\n        abi.encodePacked(\n          address(this),\n          seller,\n          token,\n          tokenId,\n          quantity,\n          currency,\n          price,\n          expiry,\n          approvalExpiry,\n          approvalSalt\n        )\n      );\n  }\n\n  function listForSale(\n    address seller,\n    address token,\n    uint256 tokenId,\n    uint256 quantity,\n    address currency,\n    uint256 price,\n    uint256 expiry,\n    uint256 maxPerBuyer,\n    Approval calldata approval\n  ) public {\n    require(\n      price >= minTokenPrice &&\n        price <= maxTokenPrice &&\n        quantity <= maxListingQuantity,\n      'Price or quantity falls outside allowed range.'\n    );\n\n    if (expiry > 0) {\n      require(\n        block.timestamp < expiry,\n        'Listing expiry needs to be in the future.'\n      );\n    }\n\n    require(\n      _approvedTokens[token] && _approvedCurrencies[currency],\n      'Token or currency contract is not approved.'\n    );\n\n    if (!hasRole(ADMIN_ROLE, msg.sender)) {\n      require(approval.expiry > block.timestamp, 'Approval expired.');\n\n      bytes32 saleHash = getSaleAuthorizationHash(\n        seller,\n        token,\n        tokenId,\n        quantity,\n        currency,\n        price,\n        expiry,\n        approval.expiry,\n        approval.salt\n      );\n\n      require(!_approvalsExhausted[saleHash], 'Approval exhausted.');\n\n      address recoveredAddress = saleHash.toEthSignedMessageHash().recover(\n        approval.signature\n      );\n\n      require(\n        recoveredAddress != address(0) && hasRole(ADMIN_ROLE, recoveredAddress),\n        'Invalid signature.'\n      );\n\n      _approvalsExhausted[saleHash] = true;\n    }\n\n    if (!IERC165(token).supportsInterface(type(IERC1155).interfaceId))\n      quantity = 1;\n\n    _wallet.take(token, seller, tokenId, quantity);\n\n    // Create listing\n    _listingId++;\n\n    Listing memory listing = Listing(\n      _listingId,\n      seller,\n      token,\n      tokenId,\n      quantity,\n      quantity,\n      currency,\n      price,\n      expiry,\n      maxPerBuyer,\n      ListingStatus.Active\n    );\n\n    _listings[_listingId] = listing;\n\n    emit ListForSale(\n      _listingId,\n      seller,\n      token,\n      tokenId,\n      quantity,\n      currency,\n      price,\n      expiry,\n      maxPerBuyer\n    );\n  }\n\n  function cancel(uint256 listingId) public {\n    Listing memory listing = _listings[listingId];\n\n    require(\n      listing.status == ListingStatus.Active,\n      'Only open listings can be closed.'\n    );\n\n    require(\n      msg.sender == listing.seller || hasRole(ADMIN_ROLE, msg.sender),\n      'Only seller or admin can close the listing.'\n    );\n\n    // Mark listing as cancelled\n    _listings[listingId].status = ListingStatus.Cancelled;\n\n    _wallet.give(\n      listing.token,\n      listing.seller,\n      listing.tokenId,\n      listing.available\n    );\n\n    emit CancelListing(\n      listingId,\n      msg.sender,\n      listing.token,\n      listing.tokenId,\n      listing.available\n    );\n  }\n\n  function getBalance(address currency, address account)\n    public\n    view\n    returns (uint256)\n  {\n    return _earnings[account][currency];\n  }\n\n  function withdraw(address currency, uint256 amount) public {\n    require(\n      _earnings[msg.sender][currency] >= amount,\n      'Insufficient balance to withdraw.'\n    );\n\n    _earnings[msg.sender][currency] -= amount;\n\n    IERC20(currency).transfer(msg.sender, amount);\n  }\n\n  function listingPurchasesForBuyer(uint256 listingId, address buyer)\n    public\n    view\n    returns (uint256)\n  {\n    return _listingPurchasesForBuyer[listingId][buyer];\n  }\n\n  function isTokenApproved(address token) public view returns (bool) {\n    return _approvedTokens[token];\n  }\n\n  function isCurrencyApproved(address currency) public view returns (bool) {\n    return _approvedCurrencies[currency];\n  }\n\n  function setTokensApproval(address[] calldata tokens, bool isApproved)\n    public\n    onlyRole(ADMIN_ROLE)\n  {\n    for (uint256 i = 0; i < tokens.length; i++) {\n      _approvedTokens[tokens[i]] = isApproved;\n    }\n  }\n\n  function setCurrenciesApproval(address[] calldata currencies, bool isApproved)\n    public\n    onlyRole(ADMIN_ROLE)\n  {\n    for (uint256 i = 0; i < currencies.length; i++) {\n      _approvedCurrencies[currencies[i]] = isApproved;\n    }\n  }\n\n  function setMaxTokenPriceEther(uint256 price) public onlyRole(ADMIN_ROLE) {\n    maxTokenPrice = price * 1 ether;\n  }\n\n  function setMaxTokenPriceWei(uint256 price) public onlyRole(ADMIN_ROLE) {\n    maxTokenPrice = price;\n  }\n\n  function setMaxListingQuantity(uint256 quantity) public onlyRole(ADMIN_ROLE) {\n    maxListingQuantity = quantity;\n  }\n\n  function setBuyerFeePct(uint256 pct) public onlyRole(ADMIN_ROLE) {\n    require(pct <= hundredPct, 'Fee cannot be higher than hundred percent.');\n    buyerFeePct = pct;\n  }\n\n  function setSellerFeePct(uint256 pct) public onlyRole(ADMIN_ROLE) {\n    require(pct <= hundredPct, 'Fee cannot be higher than hundred percent.');\n    sellerFeePct = pct;\n  }\n\n  function setFeeBeneficiary(address beneficiary)\n    public\n    onlyRole(DEFAULT_ADMIN_ROLE)\n  {\n    _feeBeneficiary = beneficiary;\n  }\n}\n",
  "sourcePath": "/Users/husnain/Desktop/other/fest/packages/ethereum/contracts/solidity/contracts/MarketV1.sol",
  "compiler": {
    "name": "solc",
    "version": "0.8.11+commit.d7f03943.Emscripten.clang"
  },
  "schemaVersion": "3.4.4",
  "updatedAt": "2022-02-05T23:04:59.174Z",
  "devdoc": {
    "kind": "dev",
    "methods": {
      "getRoleAdmin(bytes32)": {
        "details": "Returns the admin role that controls `role`. See {grantRole} and {revokeRole}. To change a role's admin, use {_setRoleAdmin}."
      },
      "grantRole(bytes32,address)": {
        "details": "Grants `role` to `account`. If `account` had not been already granted `role`, emits a {RoleGranted} event. Requirements: - the caller must have ``role``'s admin role."
      },
      "hasRole(bytes32,address)": {
        "details": "Returns `true` if `account` has been granted `role`."
      },
      "renounceRole(bytes32,address)": {
        "details": "Revokes `role` from the calling account. Roles are often managed via {grantRole} and {revokeRole}: this function's purpose is to provide a mechanism for accounts to lose their privileges if they are compromised (such as when a trusted device is misplaced). If the calling account had been revoked `role`, emits a {RoleRevoked} event. Requirements: - the caller must be `account`."
      },
      "revokeRole(bytes32,address)": {
        "details": "Revokes `role` from `account`. If `account` had been granted `role`, emits a {RoleRevoked} event. Requirements: - the caller must have ``role``'s admin role."
      }
    },
    "version": 1
  },
  "userdoc": {
    "kind": "user",
    "methods": {},
    "version": 1
  }
}