{
  "contractName": "MathMock",
  "abi": [
    {
      "inputs": [
        {
          "internalType": "uint256",
          "name": "a",
          "type": "uint256"
        },
        {
          "internalType": "uint256",
          "name": "b",
          "type": "uint256"
        }
      ],
      "name": "max",
      "outputs": [
        {
          "internalType": "uint256",
          "name": "",
          "type": "uint256"
        }
      ],
      "stateMutability": "pure",
      "type": "function"
    },
    {
      "inputs": [
        {
          "internalType": "uint256",
          "name": "a",
          "type": "uint256"
        },
        {
          "internalType": "uint256",
          "name": "b",
          "type": "uint256"
        }
      ],
      "name": "min",
      "outputs": [
        {
          "internalType": "uint256",
          "name": "",
          "type": "uint256"
        }
      ],
      "stateMutability": "pure",
      "type": "function"
    },
    {
      "inputs": [
        {
          "internalType": "uint256",
          "name": "a",
          "type": "uint256"
        },
        {
          "internalType": "uint256",
          "name": "b",
          "type": "uint256"
        }
      ],
      "name": "average",
      "outputs": [
        {
          "internalType": "uint256",
          "name": "",
          "type": "uint256"
        }
      ],
      "stateMutability": "pure",
      "type": "function"
    },
    {
      "inputs": [
        {
          "internalType": "uint256",
          "name": "a",
          "type": "uint256"
        },
        {
          "internalType": "uint256",
          "name": "b",
          "type": "uint256"
        }
      ],
      "name": "ceilDiv",
      "outputs": [
        {
          "internalType": "uint256",
          "name": "",
          "type": "uint256"
        }
      ],
      "stateMutability": "pure",
      "type": "function"
    }
  ],
  "bytecode": "0x608060405234801561001057600080fd5b5061042b806100206000396000f3fe608060405234801561001057600080fd5b506004361061004c5760003560e01c80632b7423ab146100515780636d5433e6146100815780637ae2b5c7146100b15780639cb35327146100e1575b600080fd5b61006b6004803603810190610066919061024f565b610111565b604051610078919061029e565b60405180910390f35b61009b6004803603810190610096919061024f565b610125565b6040516100a8919061029e565b60405180910390f35b6100cb60048036038101906100c6919061024f565b610139565b6040516100d8919061029e565b60405180910390f35b6100fb60048036038101906100f6919061024f565b61014d565b604051610108919061029e565b60405180910390f35b600061011d8383610161565b905092915050565b600061013183836101c8565b905092915050565b600061014583836101e2565b905092915050565b600061015983836101fb565b905092915050565b600060028083610171919061034a565b60028561017e919061034a565b61018891906102b9565b610192919061030f565b60028361019f919061030f565b6002856101ac919061030f565b6101b691906102b9565b6101c091906102b9565b905092915050565b6000818310156101d857816101da565b825b905092915050565b60008183106101f157816101f3565b825b905092915050565b600080828461020a919061034a565b14610216576001610219565b60005b60ff168284610228919061030f565b61023291906102b9565b905092915050565b600081359050610249816103de565b92915050565b60008060408385031215610266576102656103d9565b5b60006102748582860161023a565b92505060206102858582860161023a565b9150509250929050565b61029881610340565b82525050565b60006020820190506102b3600083018461028f565b92915050565b60006102c482610340565b91506102cf83610340565b9250827fffffffffffffffffffffffffffffffffffffffffffffffffffffffffffffffff038211156103045761030361037b565b5b828201905092915050565b600061031a82610340565b915061032583610340565b925082610335576103346103aa565b5b828204905092915050565b6000819050919050565b600061035582610340565b915061036083610340565b9250826103705761036f6103aa565b5b828206905092915050565b7f4e487b7100000000000000000000000000000000000000000000000000000000600052601160045260246000fd5b7f4e487b7100000000000000000000000000000000000000000000000000000000600052601260045260246000fd5b600080fd5b6103e781610340565b81146103f257600080fd5b5056fea264697066735822122018ab17c9976ad8b853c496b562021c611fbedbd577b91d2cbabaec117993f10964736f6c63430008060033",
  "immutableReferences": {},
  "source": "// SPDX-License-Identifier: MIT\n\npragma solidity ^0.8.0;\n\nimport \"../utils/math/Math.sol\";\n\ncontract MathMock {\n    function max(uint256 a, uint256 b) public pure returns (uint256) {\n        return Math.max(a, b);\n    }\n\n    function min(uint256 a, uint256 b) public pure returns (uint256) {\n        return Math.min(a, b);\n    }\n\n    function average(uint256 a, uint256 b) public pure returns (uint256) {\n        return Math.average(a, b);\n    }\n\n    function ceilDiv(uint256 a, uint256 b) public pure returns (uint256) {\n        return Math.ceilDiv(a, b);\n    }\n}\n",
  "sourcePath": "C:/Users/Husnain/Documents/Projects/Fanbase/New/fanbase/packages/ethereum/contracts/solidity/openzeppelin/contracts/mocks/MathMock.sol",
  "compiler": {
    "name": "solc",
    "version": "0.8.6+commit.11564f7e.Emscripten.clang"
  },
  "schemaVersion": "3.4.1",
  "updatedAt": "2021-07-13T12:16:31.974Z",
  "devdoc": {
    "kind": "dev",
    "methods": {},
    "version": 1
  },
  "userdoc": {
    "kind": "user",
    "methods": {},
    "version": 1
  }
}