{
  "contractName": "MathMock",
  "abi": [
    {
      "inputs": [
        {
          "internalType": "uint256",
          "name": "a",
          "type": "uint256"
        },
        {
          "internalType": "uint256",
          "name": "b",
          "type": "uint256"
        }
      ],
      "name": "max",
      "outputs": [
        {
          "internalType": "uint256",
          "name": "",
          "type": "uint256"
        }
      ],
      "stateMutability": "pure",
      "type": "function"
    },
    {
      "inputs": [
        {
          "internalType": "uint256",
          "name": "a",
          "type": "uint256"
        },
        {
          "internalType": "uint256",
          "name": "b",
          "type": "uint256"
        }
      ],
      "name": "min",
      "outputs": [
        {
          "internalType": "uint256",
          "name": "",
          "type": "uint256"
        }
      ],
      "stateMutability": "pure",
      "type": "function"
    },
    {
      "inputs": [
        {
          "internalType": "uint256",
          "name": "a",
          "type": "uint256"
        },
        {
          "internalType": "uint256",
          "name": "b",
          "type": "uint256"
        }
      ],
      "name": "average",
      "outputs": [
        {
          "internalType": "uint256",
          "name": "",
          "type": "uint256"
        }
      ],
      "stateMutability": "pure",
      "type": "function"
    },
    {
      "inputs": [
        {
          "internalType": "uint256",
          "name": "a",
          "type": "uint256"
        },
        {
          "internalType": "uint256",
          "name": "b",
          "type": "uint256"
        }
      ],
      "name": "ceilDiv",
      "outputs": [
        {
          "internalType": "uint256",
          "name": "",
          "type": "uint256"
        }
      ],
      "stateMutability": "pure",
      "type": "function"
    }
  ],
  "bytecode": "0x608060405234801561001057600080fd5b50610422806100206000396000f3fe608060405234801561001057600080fd5b506004361061004c5760003560e01c80632b7423ab146100515780636d5433e6146100815780637ae2b5c7146100b15780639cb35327146100e1575b600080fd5b61006b6004803603810190610066919061024f565b610111565b604051610078919061029a565b60405180910390f35b61009b6004803603810190610096919061024f565b610125565b6040516100a8919061029a565b60405180910390f35b6100cb60048036038101906100c6919061024f565b610139565b6040516100d8919061029a565b60405180910390f35b6100fb60048036038101906100f6919061024f565b61014d565b604051610108919061029a565b60405180910390f35b600061011d8383610161565b905092915050565b600061013183836101c8565b905092915050565b600061014583836101e2565b905092915050565b600061015983836101fb565b905092915050565b6000600280836101719190610346565b60028561017e9190610346565b61018891906102b5565b610192919061030b565b60028361019f919061030b565b6002856101ac919061030b565b6101b691906102b5565b6101c091906102b5565b905092915050565b6000818310156101d857816101da565b825b905092915050565b60008183106101f157816101f3565b825b905092915050565b600080828461020a9190610346565b14610216576001610219565b60005b60ff168284610228919061030b565b61023291906102b5565b905092915050565b600081359050610249816103d5565b92915050565b6000806040838503121561026257600080fd5b60006102708582860161023a565b92505060206102818582860161023a565b9150509250929050565b6102948161033c565b82525050565b60006020820190506102af600083018461028b565b92915050565b60006102c08261033c565b91506102cb8361033c565b9250827fffffffffffffffffffffffffffffffffffffffffffffffffffffffffffffffff03821115610300576102ff610377565b5b828201905092915050565b60006103168261033c565b91506103218361033c565b925082610331576103306103a6565b5b828204905092915050565b6000819050919050565b60006103518261033c565b915061035c8361033c565b92508261036c5761036b6103a6565b5b828206905092915050565b7f4e487b7100000000000000000000000000000000000000000000000000000000600052601160045260246000fd5b7f4e487b7100000000000000000000000000000000000000000000000000000000600052601260045260246000fd5b6103de8161033c565b81146103e957600080fd5b5056fea2646970667358221220217d33ccffe84c4d459c8f2359720562a21d83d94ebb0767cf4dd5825d202f1664736f6c63430008040033",
  "immutableReferences": {},
  "source": "// SPDX-License-Identifier: MIT\n\npragma solidity ^0.8.0;\n\nimport \"../utils/math/Math.sol\";\n\ncontract MathMock {\n    function max(uint256 a, uint256 b) public pure returns (uint256) {\n        return Math.max(a, b);\n    }\n\n    function min(uint256 a, uint256 b) public pure returns (uint256) {\n        return Math.min(a, b);\n    }\n\n    function average(uint256 a, uint256 b) public pure returns (uint256) {\n        return Math.average(a, b);\n    }\n\n    function ceilDiv(uint256 a, uint256 b) public pure returns (uint256) {\n        return Math.ceilDiv(a, b);\n    }\n}\n",
  "sourcePath": "C:/Users/Husnain/Documents/Projects/Fanbase/New/fanbase/packages/ethereum/contracts/solidity/openzeppelin/contracts/mocks/MathMock.sol",
  "compiler": {
    "name": "solc",
    "version": "0.8.4+commit.c7e474f2.Emscripten.clang"
  },
  "schemaVersion": "3.4.1",
  "updatedAt": "2021-06-06T20:07:31.959Z",
  "devdoc": {
    "kind": "dev",
    "methods": {},
    "version": 1
  },
  "userdoc": {
    "kind": "user",
    "methods": {},
    "version": 1
  }
}