{
  "contractName": "MigratableMockV1",
  "abi": [
    {
      "inputs": [],
      "name": "x",
      "outputs": [
        {
          "internalType": "uint256",
          "name": "",
          "type": "uint256"
        }
      ],
      "stateMutability": "view",
      "type": "function"
    },
    {
      "inputs": [
        {
          "internalType": "uint256",
          "name": "value",
          "type": "uint256"
        }
      ],
      "name": "initialize",
      "outputs": [],
      "stateMutability": "payable",
      "type": "function"
    }
  ],
  "bytecode": "0x608060405234801561001057600080fd5b506102c7806100206000396000f3fe6080604052600436106100295760003560e01c80630c55699c1461002e578063fe4b84df14610059575b600080fd5b34801561003a57600080fd5b50610043610075565b60405161005091906101f0565b60405180910390f35b610073600480360381019061006e9190610171565b61007b565b005b60015481565b600060019054906101000a900460ff16806100a1575060008054906101000a900460ff16155b6100e0576040517f08c379a00000000000000000000000000000000000000000000000000000000081526004016100d7906101d0565b60405180910390fd5b60008060019054906101000a900460ff161590508015610130576001600060016101000a81548160ff02191690831515021790555060016000806101000a81548160ff0219169083151502179055505b8160018190555080156101585760008060016101000a81548160ff0219169083151502179055505b5050565b60008135905061016b8161027a565b92915050565b60006020828403121561018757610186610226565b5b60006101958482850161015c565b91505092915050565b60006101ab602e8361020b565b91506101b68261022b565b604082019050919050565b6101ca8161021c565b82525050565b600060208201905081810360008301526101e98161019e565b9050919050565b600060208201905061020560008301846101c1565b92915050565b600082825260208201905092915050565b6000819050919050565b600080fd5b7f496e697469616c697a61626c653a20636f6e747261637420697320616c72656160008201527f647920696e697469616c697a6564000000000000000000000000000000000000602082015250565b6102838161021c565b811461028e57600080fd5b5056fea26469706673582212204f42e2d9896a1be69092cd8b90434b0e05f6c8dbdef73b37d194745cc3802b2864736f6c63430008060033",
  "immutableReferences": {},
  "source": "// SPDX-License-Identifier: MIT\n\npragma solidity ^0.8.0;\n\nimport \"../proxy/utils/Initializable.sol\";\n\n/**\n * @title MigratableMockV1\n * @dev This contract is a mock to test initializable functionality through migrations\n */\ncontract MigratableMockV1 is Initializable {\n  uint256 public x;\n\n  function initialize(uint256 value) public payable initializer {\n    x = value;\n  }\n}\n\n/**\n * @title MigratableMockV2\n * @dev This contract is a mock to test migratable functionality with params\n */\ncontract MigratableMockV2 is MigratableMockV1 {\n  bool internal _migratedV2;\n  uint256 public y;\n\n  function migrate(uint256 value, uint256 anotherValue) public payable {\n    require(!_migratedV2);\n    x = value;\n    y = anotherValue;\n    _migratedV2 = true;\n  }\n}\n\n/**\n * @title MigratableMockV3\n * @dev This contract is a mock to test migratable functionality without params\n */\ncontract MigratableMockV3 is MigratableMockV2 {\n  bool internal _migratedV3;\n\n  function migrate() public payable {\n    require(!_migratedV3);\n    uint256 oldX = x;\n    x = y;\n    y = oldX;\n    _migratedV3 = true;\n  }\n}\n",
  "sourcePath": "C:/Users/Husnain/Documents/Projects/Fanbase/New/fanbase/packages/ethereum/contracts/solidity/openzeppelin/contracts/mocks/SingleInheritanceInitializableMocks.sol",
  "compiler": {
    "name": "solc",
    "version": "0.8.6+commit.11564f7e.Emscripten.clang"
  },
  "schemaVersion": "3.4.1",
  "updatedAt": "2021-07-05T11:01:09.288Z",
  "devdoc": {
    "details": "This contract is a mock to test initializable functionality through migrations",
    "kind": "dev",
    "methods": {},
    "title": "MigratableMockV1",
    "version": 1
  },
  "userdoc": {
    "kind": "user",
    "methods": {},
    "version": 1
  }
}