{
  "contractName": "MigratableMockV2",
  "abi": [
    {
      "inputs": [
        {
          "internalType": "uint256",
          "name": "value",
          "type": "uint256"
        }
      ],
      "name": "initialize",
      "outputs": [],
      "stateMutability": "payable",
      "type": "function"
    },
    {
      "inputs": [],
      "name": "x",
      "outputs": [
        {
          "internalType": "uint256",
          "name": "",
          "type": "uint256"
        }
      ],
      "stateMutability": "view",
      "type": "function"
    },
    {
      "inputs": [],
      "name": "y",
      "outputs": [
        {
          "internalType": "uint256",
          "name": "",
          "type": "uint256"
        }
      ],
      "stateMutability": "view",
      "type": "function"
    },
    {
      "inputs": [
        {
          "internalType": "uint256",
          "name": "value",
          "type": "uint256"
        },
        {
          "internalType": "uint256",
          "name": "anotherValue",
          "type": "uint256"
        }
      ],
      "name": "migrate",
      "outputs": [],
      "stateMutability": "payable",
      "type": "function"
    }
  ],
  "bytecode": "0x608060405234801561001057600080fd5b506103b1806100206000396000f3fe60806040526004361061003f5760003560e01c80630c55699c146100445780633e54bacb1461006f578063a56dfe4a1461008b578063fe4b84df146100b6575b600080fd5b34801561005057600080fd5b506100596100d2565b60405161006691906102da565b60405180910390f35b61008960048036038101906100849190610248565b6100d8565b005b34801561009757600080fd5b506100a061011f565b6040516100ad91906102da565b60405180910390f35b6100d060048036038101906100cb919061021b565b610125565b005b60015481565b600260009054906101000a900460ff16156100f257600080fd5b81600181905550806003819055506001600260006101000a81548160ff0219169083151502179055505050565b60035481565b600060019054906101000a900460ff168061014b575060008054906101000a900460ff16155b61018a576040517f08c379a0000000000000000000000000000000000000000000000000000000008152600401610181906102ba565b60405180910390fd5b60008060019054906101000a900460ff1615905080156101da576001600060016101000a81548160ff02191690831515021790555060016000806101000a81548160ff0219169083151502179055505b8160018190555080156102025760008060016101000a81548160ff0219169083151502179055505b5050565b60008135905061021581610364565b92915050565b60006020828403121561023157610230610310565b5b600061023f84828501610206565b91505092915050565b6000806040838503121561025f5761025e610310565b5b600061026d85828601610206565b925050602061027e85828601610206565b9150509250929050565b6000610295602e836102f5565b91506102a082610315565b604082019050919050565b6102b481610306565b82525050565b600060208201905081810360008301526102d381610288565b9050919050565b60006020820190506102ef60008301846102ab565b92915050565b600082825260208201905092915050565b6000819050919050565b600080fd5b7f496e697469616c697a61626c653a20636f6e747261637420697320616c72656160008201527f647920696e697469616c697a6564000000000000000000000000000000000000602082015250565b61036d81610306565b811461037857600080fd5b5056fea26469706673582212204ad4b082d271524ca008d433a77a5f91da5a37903c733dd280f436a51eba86b964736f6c63430008060033",
  "immutableReferences": {},
  "source": "// SPDX-License-Identifier: MIT\n\npragma solidity ^0.8.0;\n\nimport \"../proxy/utils/Initializable.sol\";\n\n/**\n * @title MigratableMockV1\n * @dev This contract is a mock to test initializable functionality through migrations\n */\ncontract MigratableMockV1 is Initializable {\n  uint256 public x;\n\n  function initialize(uint256 value) public payable initializer {\n    x = value;\n  }\n}\n\n/**\n * @title MigratableMockV2\n * @dev This contract is a mock to test migratable functionality with params\n */\ncontract MigratableMockV2 is MigratableMockV1 {\n  bool internal _migratedV2;\n  uint256 public y;\n\n  function migrate(uint256 value, uint256 anotherValue) public payable {\n    require(!_migratedV2);\n    x = value;\n    y = anotherValue;\n    _migratedV2 = true;\n  }\n}\n\n/**\n * @title MigratableMockV3\n * @dev This contract is a mock to test migratable functionality without params\n */\ncontract MigratableMockV3 is MigratableMockV2 {\n  bool internal _migratedV3;\n\n  function migrate() public payable {\n    require(!_migratedV3);\n    uint256 oldX = x;\n    x = y;\n    y = oldX;\n    _migratedV3 = true;\n  }\n}\n",
  "sourcePath": "C:/Users/Husnain/Documents/Projects/Fanbase/New/fanbase/packages/ethereum/contracts/solidity/openzeppelin/contracts/mocks/SingleInheritanceInitializableMocks.sol",
  "compiler": {
    "name": "solc",
    "version": "0.8.6+commit.11564f7e.Emscripten.clang"
  },
  "schemaVersion": "3.4.1",
  "updatedAt": "2021-06-24T19:55:55.794Z",
  "devdoc": {
    "details": "This contract is a mock to test migratable functionality with params",
    "kind": "dev",
    "methods": {},
    "title": "MigratableMockV2",
    "version": 1
  },
  "userdoc": {
    "kind": "user",
    "methods": {},
    "version": 1
  }
}