{
  "contractName": "MulticallTest",
  "abi": [
    {
      "inputs": [
        {
          "internalType": "contract MulticallTokenMock",
          "name": "multicallToken",
          "type": "address"
        },
        {
          "internalType": "address[]",
          "name": "recipients",
          "type": "address[]"
        },
        {
          "internalType": "uint256[]",
          "name": "amounts",
          "type": "uint256[]"
        }
      ],
      "name": "testReturnValues",
      "outputs": [],
      "stateMutability": "nonpayable",
      "type": "function"
    }
  ],
  "bytecode": "0x608060405234801561001057600080fd5b50610a34806100206000396000f3fe608060405234801561001057600080fd5b506004361061002b5760003560e01c8063bc548f7614610030575b600080fd5b61004a6004803603810190610045919061055f565b61004c565b005b60008484905067ffffffffffffffff81111561006b5761006a61095b565b5b60405190808252806020026020018201604052801561009e57816020015b60608152602001906001900390816100895790505b50905060005b858590508110156101b0578585828181106100c2576100c161092c565b5b90506020020160208101906100d791906104bc565b8484838181106100ea576100e961092c565b5b905060200201356040516024016101029291906106d4565b6040516020818303038152906040527fa9059cbb000000000000000000000000000000000000000000000000000000007bffffffffffffffffffffffffffffffffffffffffffffffffffffffff19166020820180517bffffffffffffffffffffffffffffffffffffffffffffffffffffffff83818316178352505050508282815181106101925761019161092c565b5b602002602001018190525080806101a8906108b4565b9150506100a4565b5060008673ffffffffffffffffffffffffffffffffffffffff1663ac9650d8836040518263ffffffff1660e01b81526004016101ec91906106fd565b600060405180830381600087803b15801561020657600080fd5b505af115801561021a573d6000803e3d6000fd5b505050506040513d6000823e3d601f19601f8201168201806040525081019061024391906104e9565b905060005b815181101561029b578181815181106102645761026361092c565b5b602002602001015180602001905181019061027f9190610532565b61028857600080fd5b8080610293906108b4565b915050610248565b5050505050505050565b60006102b86102b384610744565b61071f565b905080838252602082019050828560208602820111156102db576102da610994565b5b60005b8581101561032957815167ffffffffffffffff8111156103015761030061098f565b5b80860161030e8982610479565b855260208501945060208401935050506001810190506102de565b5050509392505050565b600061034661034184610770565b61071f565b90508281526020810184848401111561036257610361610999565b5b61036d848285610850565b509392505050565b600081359050610384816109b9565b92915050565b60008083601f8401126103a05761039f61098f565b5b8235905067ffffffffffffffff8111156103bd576103bc61098a565b5b6020830191508360208202830111156103d9576103d8610994565b5b9250929050565b600082601f8301126103f5576103f461098f565b5b81516104058482602086016102a5565b91505092915050565b60008083601f8401126104245761042361098f565b5b8235905067ffffffffffffffff8111156104415761044061098a565b5b60208301915083602082028301111561045d5761045c610994565b5b9250929050565b600081519050610473816109d0565b92915050565b600082601f83011261048e5761048d61098f565b5b815161049e848260208601610333565b91505092915050565b6000813590506104b6816109e7565b92915050565b6000602082840312156104d2576104d16109a3565b5b60006104e084828501610375565b91505092915050565b6000602082840312156104ff576104fe6109a3565b5b600082015167ffffffffffffffff81111561051d5761051c61099e565b5b610529848285016103e0565b91505092915050565b600060208284031215610548576105476109a3565b5b600061055684828501610464565b91505092915050565b60008060008060006060868803121561057b5761057a6109a3565b5b6000610589888289016104a7565b955050602086013567ffffffffffffffff8111156105aa576105a961099e565b5b6105b68882890161038a565b9450945050604086013567ffffffffffffffff8111156105d9576105d861099e565b5b6105e58882890161040e565b92509250509295509295909350565b6000610600838361068c565b905092915050565b610611816107f6565b82525050565b6000610622826107b1565b61062c81856107d4565b93508360208202850161063e856107a1565b8060005b8581101561067a578484038952815161065b85826105f4565b9450610666836107c7565b925060208a01995050600181019050610642565b50829750879550505050505092915050565b6000610697826107bc565b6106a181856107e5565b93506106b1818560208601610850565b6106ba816109a8565b840191505092915050565b6106ce81610846565b82525050565b60006040820190506106e96000830185610608565b6106f660208301846106c5565b9392505050565b600060208201905081810360008301526107178184610617565b905092915050565b600061072961073a565b90506107358282610883565b919050565b6000604051905090565b600067ffffffffffffffff82111561075f5761075e61095b565b5b602082029050602081019050919050565b600067ffffffffffffffff82111561078b5761078a61095b565b5b610794826109a8565b9050602081019050919050565b6000819050602082019050919050565b600081519050919050565b600081519050919050565b6000602082019050919050565b600082825260208201905092915050565b600082825260208201905092915050565b600061080182610826565b9050919050565b60008115159050919050565b600061081f826107f6565b9050919050565b600073ffffffffffffffffffffffffffffffffffffffff82169050919050565b6000819050919050565b60005b8381101561086e578082015181840152602081019050610853565b8381111561087d576000848401525b50505050565b61088c826109a8565b810181811067ffffffffffffffff821117156108ab576108aa61095b565b5b80604052505050565b60006108bf82610846565b91507fffffffffffffffffffffffffffffffffffffffffffffffffffffffffffffffff8214156108f2576108f16108fd565b5b600182019050919050565b7f4e487b7100000000000000000000000000000000000000000000000000000000600052601160045260246000fd5b7f4e487b7100000000000000000000000000000000000000000000000000000000600052603260045260246000fd5b7f4e487b7100000000000000000000000000000000000000000000000000000000600052604160045260246000fd5b600080fd5b600080fd5b600080fd5b600080fd5b600080fd5b600080fd5b6000601f19601f8301169050919050565b6109c2816107f6565b81146109cd57600080fd5b50565b6109d981610808565b81146109e457600080fd5b50565b6109f081610814565b81146109fb57600080fd5b5056fea2646970667358221220a384de9d6c18c86abe6bcd02ad48cbcfa4f595041ec9a380645f9dce30a0b33464736f6c63430008070033",
  "immutableReferences": {},
  "source": "// SPDX-License-Identifier: MIT\r\n\r\npragma solidity ^0.8.0;\r\n\r\nimport \"./MulticallTokenMock.sol\";\r\n\r\ncontract MulticallTest {\r\n    function testReturnValues(MulticallTokenMock multicallToken, address[] calldata recipients, uint256[] calldata amounts) external {\r\n        bytes[] memory calls = new bytes[](recipients.length);\r\n        for (uint i = 0; i < recipients.length; i++) {\r\n            calls[i] = abi.encodeWithSignature(\"transfer(address,uint256)\", recipients[i], amounts[i]);\r\n        }\r\n\r\n        bytes[] memory results = multicallToken.multicall(calls);\r\n        for (uint i = 0; i < results.length; i++) {\r\n            require(abi.decode(results[i], (bool)));\r\n        }\r\n    }\r\n}\r\n",
  "sourcePath": "C:/Users/Husnain/Documents/Projects/Fanbase/fanbase/packages/ethereum/contracts/solidity/openzeppelin/contracts/mocks/MulticallTest.sol",
  "compiler": {
    "name": "solc",
    "version": "0.8.7+commit.e28d00a7.Emscripten.clang"
  },
  "schemaVersion": "3.4.1",
  "updatedAt": "2021-08-24T16:48:47.054Z",
  "devdoc": {
    "kind": "dev",
    "methods": {},
    "version": 1
  },
  "userdoc": {
    "kind": "user",
    "methods": {},
    "version": 1
  }
}