{
  "contractName": "MulticallTokenMock",
  "abi": [
    {
      "inputs": [
        {
          "internalType": "uint256",
          "name": "initialBalance",
          "type": "uint256"
        }
      ],
      "stateMutability": "nonpayable",
      "type": "constructor"
    },
    {
      "anonymous": false,
      "inputs": [
        {
          "indexed": true,
          "internalType": "address",
          "name": "owner",
          "type": "address"
        },
        {
          "indexed": true,
          "internalType": "address",
          "name": "spender",
          "type": "address"
        },
        {
          "indexed": false,
          "internalType": "uint256",
          "name": "value",
          "type": "uint256"
        }
      ],
      "name": "Approval",
      "type": "event"
    },
    {
      "anonymous": false,
      "inputs": [
        {
          "indexed": true,
          "internalType": "address",
          "name": "from",
          "type": "address"
        },
        {
          "indexed": true,
          "internalType": "address",
          "name": "to",
          "type": "address"
        },
        {
          "indexed": false,
          "internalType": "uint256",
          "name": "value",
          "type": "uint256"
        }
      ],
      "name": "Transfer",
      "type": "event"
    },
    {
      "inputs": [
        {
          "internalType": "address",
          "name": "owner",
          "type": "address"
        },
        {
          "internalType": "address",
          "name": "spender",
          "type": "address"
        }
      ],
      "name": "allowance",
      "outputs": [
        {
          "internalType": "uint256",
          "name": "",
          "type": "uint256"
        }
      ],
      "stateMutability": "view",
      "type": "function"
    },
    {
      "inputs": [
        {
          "internalType": "address",
          "name": "spender",
          "type": "address"
        },
        {
          "internalType": "uint256",
          "name": "amount",
          "type": "uint256"
        }
      ],
      "name": "approve",
      "outputs": [
        {
          "internalType": "bool",
          "name": "",
          "type": "bool"
        }
      ],
      "stateMutability": "nonpayable",
      "type": "function"
    },
    {
      "inputs": [
        {
          "internalType": "address",
          "name": "owner",
          "type": "address"
        },
        {
          "internalType": "address",
          "name": "spender",
          "type": "address"
        },
        {
          "internalType": "uint256",
          "name": "value",
          "type": "uint256"
        }
      ],
      "name": "approveInternal",
      "outputs": [],
      "stateMutability": "nonpayable",
      "type": "function"
    },
    {
      "inputs": [
        {
          "internalType": "address",
          "name": "account",
          "type": "address"
        }
      ],
      "name": "balanceOf",
      "outputs": [
        {
          "internalType": "uint256",
          "name": "",
          "type": "uint256"
        }
      ],
      "stateMutability": "view",
      "type": "function"
    },
    {
      "inputs": [
        {
          "internalType": "address",
          "name": "account",
          "type": "address"
        },
        {
          "internalType": "uint256",
          "name": "amount",
          "type": "uint256"
        }
      ],
      "name": "burn",
      "outputs": [],
      "stateMutability": "nonpayable",
      "type": "function"
    },
    {
      "inputs": [],
      "name": "decimals",
      "outputs": [
        {
          "internalType": "uint8",
          "name": "",
          "type": "uint8"
        }
      ],
      "stateMutability": "view",
      "type": "function"
    },
    {
      "inputs": [
        {
          "internalType": "address",
          "name": "spender",
          "type": "address"
        },
        {
          "internalType": "uint256",
          "name": "subtractedValue",
          "type": "uint256"
        }
      ],
      "name": "decreaseAllowance",
      "outputs": [
        {
          "internalType": "bool",
          "name": "",
          "type": "bool"
        }
      ],
      "stateMutability": "nonpayable",
      "type": "function"
    },
    {
      "inputs": [
        {
          "internalType": "address",
          "name": "spender",
          "type": "address"
        },
        {
          "internalType": "uint256",
          "name": "addedValue",
          "type": "uint256"
        }
      ],
      "name": "increaseAllowance",
      "outputs": [
        {
          "internalType": "bool",
          "name": "",
          "type": "bool"
        }
      ],
      "stateMutability": "nonpayable",
      "type": "function"
    },
    {
      "inputs": [
        {
          "internalType": "address",
          "name": "account",
          "type": "address"
        },
        {
          "internalType": "uint256",
          "name": "amount",
          "type": "uint256"
        }
      ],
      "name": "mint",
      "outputs": [],
      "stateMutability": "nonpayable",
      "type": "function"
    },
    {
      "inputs": [
        {
          "internalType": "bytes[]",
          "name": "data",
          "type": "bytes[]"
        }
      ],
      "name": "multicall",
      "outputs": [
        {
          "internalType": "bytes[]",
          "name": "results",
          "type": "bytes[]"
        }
      ],
      "stateMutability": "nonpayable",
      "type": "function"
    },
    {
      "inputs": [],
      "name": "name",
      "outputs": [
        {
          "internalType": "string",
          "name": "",
          "type": "string"
        }
      ],
      "stateMutability": "view",
      "type": "function"
    },
    {
      "inputs": [],
      "name": "symbol",
      "outputs": [
        {
          "internalType": "string",
          "name": "",
          "type": "string"
        }
      ],
      "stateMutability": "view",
      "type": "function"
    },
    {
      "inputs": [],
      "name": "totalSupply",
      "outputs": [
        {
          "internalType": "uint256",
          "name": "",
          "type": "uint256"
        }
      ],
      "stateMutability": "view",
      "type": "function"
    },
    {
      "inputs": [
        {
          "internalType": "address",
          "name": "recipient",
          "type": "address"
        },
        {
          "internalType": "uint256",
          "name": "amount",
          "type": "uint256"
        }
      ],
      "name": "transfer",
      "outputs": [
        {
          "internalType": "bool",
          "name": "",
          "type": "bool"
        }
      ],
      "stateMutability": "nonpayable",
      "type": "function"
    },
    {
      "inputs": [
        {
          "internalType": "address",
          "name": "sender",
          "type": "address"
        },
        {
          "internalType": "address",
          "name": "recipient",
          "type": "address"
        },
        {
          "internalType": "uint256",
          "name": "amount",
          "type": "uint256"
        }
      ],
      "name": "transferFrom",
      "outputs": [
        {
          "internalType": "bool",
          "name": "",
          "type": "bool"
        }
      ],
      "stateMutability": "nonpayable",
      "type": "function"
    },
    {
      "inputs": [
        {
          "internalType": "address",
          "name": "from",
          "type": "address"
        },
        {
          "internalType": "address",
          "name": "to",
          "type": "address"
        },
        {
          "internalType": "uint256",
          "name": "value",
          "type": "uint256"
        }
      ],
      "name": "transferInternal",
      "outputs": [],
      "stateMutability": "nonpayable",
      "type": "function"
    }
  ],
  "bytecode": "0x60806040523480156200001157600080fd5b506040516200257b3803806200257b833981810160405281019062000037919062000329565b6040518060400160405280600e81526020017f4d756c746963616c6c546f6b656e0000000000000000000000000000000000008152506040518060400160405280600381526020017f4243540000000000000000000000000000000000000000000000000000000000815250338383838160039080519060200190620000bf92919062000262565b508060049080519060200190620000d892919062000262565b505050620000ed8282620000f860201b60201c565b505050505062000526565b600073ffffffffffffffffffffffffffffffffffffffff168273ffffffffffffffffffffffffffffffffffffffff1614156200016b576040517f08c379a0000000000000000000000000000000000000000000000000000000008152600401620001629062000393565b60405180910390fd5b6200017f600083836200025d60201b60201c565b8060026000828254620001939190620003e3565b92505081905550806000808473ffffffffffffffffffffffffffffffffffffffff1673ffffffffffffffffffffffffffffffffffffffff1681526020019081526020016000206000828254620001ea9190620003e3565b925050819055508173ffffffffffffffffffffffffffffffffffffffff16600073ffffffffffffffffffffffffffffffffffffffff167fddf252ad1be2c89b69c2b068fc378daa952ba7f163c4a11628f55a4df523b3ef83604051620002519190620003b5565b60405180910390a35050565b505050565b82805462000270906200044a565b90600052602060002090601f016020900481019282620002945760008555620002e0565b82601f10620002af57805160ff1916838001178555620002e0565b82800160010185558215620002e0579182015b82811115620002df578251825591602001919060010190620002c2565b5b509050620002ef9190620002f3565b5090565b5b808211156200030e576000816000905550600101620002f4565b5090565b60008151905062000323816200050c565b92915050565b600060208284031215620003425762000341620004de565b5b6000620003528482850162000312565b91505092915050565b60006200036a601f83620003d2565b91506200037782620004e3565b602082019050919050565b6200038d8162000440565b82525050565b60006020820190508181036000830152620003ae816200035b565b9050919050565b6000602082019050620003cc600083018462000382565b92915050565b600082825260208201905092915050565b6000620003f08262000440565b9150620003fd8362000440565b9250827fffffffffffffffffffffffffffffffffffffffffffffffffffffffffffffffff0382111562000435576200043462000480565b5b828201905092915050565b6000819050919050565b600060028204905060018216806200046357607f821691505b602082108114156200047a5762000479620004af565b5b50919050565b7f4e487b7100000000000000000000000000000000000000000000000000000000600052601160045260246000fd5b7f4e487b7100000000000000000000000000000000000000000000000000000000600052602260045260246000fd5b600080fd5b7f45524332303a206d696e7420746f20746865207a65726f206164647265737300600082015250565b620005178162000440565b81146200052357600080fd5b50565b61204580620005366000396000f3fe608060405234801561001057600080fd5b50600436106101005760003560e01c806356189cb411610097578063a457c2d711610066578063a457c2d7146102ad578063a9059cbb146102dd578063ac9650d81461030d578063dd62ed3e1461033d57610100565b806356189cb41461022757806370a082311461024357806395d89b41146102735780639dc29fac1461029157610100565b806323b872dd116100d357806323b872dd1461018d578063313ce567146101bd57806339509351146101db57806340c10f191461020b57610100565b806306fdde0314610105578063095ea7b31461012357806318160ddd14610153578063222f5be014610171575b600080fd5b61010d61036d565b60405161011a9190611762565b60405180910390f35b61013d600480360381019061013891906113a7565b6103ff565b60405161014a9190611747565b60405180910390f35b61015b61041d565b60405161016891906118e4565b60405180910390f35b61018b60048036038101906101869190611354565b610427565b005b6101a760048036038101906101a29190611354565b610437565b6040516101b49190611747565b60405180910390f35b6101c561052f565b6040516101d291906118ff565b60405180910390f35b6101f560048036038101906101f091906113a7565b610538565b6040516102029190611747565b60405180910390f35b610225600480360381019061022091906113a7565b6105e4565b005b610241600480360381019061023c9190611354565b6105f2565b005b61025d600480360381019061025891906112e7565b610602565b60405161026a91906118e4565b60405180910390f35b61027b61064a565b6040516102889190611762565b60405180910390f35b6102ab60048036038101906102a691906113a7565b6106dc565b005b6102c760048036038101906102c291906113a7565b6106ea565b6040516102d49190611747565b60405180910390f35b6102f760048036038101906102f291906113a7565b6107d5565b6040516103049190611747565b60405180910390f35b610327600480360381019061032291906113e7565b6107f3565b6040516103349190611725565b60405180910390f35b61035760048036038101906103529190611314565b6108ff565b60405161036491906118e4565b60405180910390f35b60606003805461037c90611b0b565b80601f01602080910402602001604051908101604052809291908181526020018280546103a890611b0b565b80156103f55780601f106103ca576101008083540402835291602001916103f5565b820191906000526020600020905b8154815290600101906020018083116103d857829003601f168201915b5050505050905090565b600061041361040c610986565b848461098e565b6001905092915050565b6000600254905090565b610432838383610b59565b505050565b6000610444848484610b59565b6000600160008673ffffffffffffffffffffffffffffffffffffffff1673ffffffffffffffffffffffffffffffffffffffff168152602001908152602001600020600061048f610986565b73ffffffffffffffffffffffffffffffffffffffff1673ffffffffffffffffffffffffffffffffffffffff1681526020019081526020016000205490508281101561050f576040517f08c379a000000000000000000000000000000000000000000000000000000000815260040161050690611804565b60405180910390fd5b6105238561051b610986565b85840361098e565b60019150509392505050565b60006012905090565b60006105da610545610986565b848460016000610553610986565b73ffffffffffffffffffffffffffffffffffffffff1673ffffffffffffffffffffffffffffffffffffffff16815260200190815260200160002060008873ffffffffffffffffffffffffffffffffffffffff1673ffffffffffffffffffffffffffffffffffffffff168152602001908152602001600020546105d591906119f9565b61098e565b6001905092915050565b6105ee8282610dcf565b5050565b6105fd83838361098e565b505050565b60008060008373ffffffffffffffffffffffffffffffffffffffff1673ffffffffffffffffffffffffffffffffffffffff168152602001908152602001600020549050919050565b60606004805461065990611b0b565b80601f016020809104026020016040519081016040528092919081815260200182805461068590611b0b565b80156106d25780601f106106a7576101008083540402835291602001916106d2565b820191906000526020600020905b8154815290600101906020018083116106b557829003601f168201915b5050505050905090565b6106e68282610f23565b5050565b600080600160006106f9610986565b73ffffffffffffffffffffffffffffffffffffffff1673ffffffffffffffffffffffffffffffffffffffff16815260200190815260200160002060008573ffffffffffffffffffffffffffffffffffffffff1673ffffffffffffffffffffffffffffffffffffffff168152602001908152602001600020549050828110156107b6576040517f08c379a00000000000000000000000000000000000000000000000000000000081526004016107ad906118a4565b60405180910390fd5b6107ca6107c1610986565b8585840361098e565b600191505092915050565b60006107e96107e2610986565b8484610b59565b6001905092915050565b60608282905067ffffffffffffffff81111561081257610811611c13565b5b60405190808252806020026020018201604052801561084557816020015b60608152602001906001900390816108305790505b50905060005b838390508110156108f8576108c73085858481811061086d5761086c611be4565b5b905060200281019061087f919061191a565b8080601f016020809104026020016040519081016040528093929190818152602001838380828437600081840152601f19601f820116905080830192505050505050506110ee565b8282815181106108da576108d9611be4565b5b602002602001018190525080806108f090611b3d565b91505061084b565b5092915050565b6000600160008473ffffffffffffffffffffffffffffffffffffffff1673ffffffffffffffffffffffffffffffffffffffff16815260200190815260200160002060008373ffffffffffffffffffffffffffffffffffffffff1673ffffffffffffffffffffffffffffffffffffffff16815260200190815260200160002054905092915050565b600033905090565b600073ffffffffffffffffffffffffffffffffffffffff168373ffffffffffffffffffffffffffffffffffffffff1614156109fe576040517f08c379a00000000000000000000000000000000000000000000000000000000081526004016109f590611884565b60405180910390fd5b600073ffffffffffffffffffffffffffffffffffffffff168273ffffffffffffffffffffffffffffffffffffffff161415610a6e576040517f08c379a0000000000000000000000000000000000000000000000000000000008152600401610a65906117c4565b60405180910390fd5b80600160008573ffffffffffffffffffffffffffffffffffffffff1673ffffffffffffffffffffffffffffffffffffffff16815260200190815260200160002060008473ffffffffffffffffffffffffffffffffffffffff1673ffffffffffffffffffffffffffffffffffffffff168152602001908152602001600020819055508173ffffffffffffffffffffffffffffffffffffffff168373ffffffffffffffffffffffffffffffffffffffff167f8c5be1e5ebec7d5bd14f71427d1e84f3dd0314c0f7b2291e5b200ac8c7c3b92583604051610b4c91906118e4565b60405180910390a3505050565b600073ffffffffffffffffffffffffffffffffffffffff168373ffffffffffffffffffffffffffffffffffffffff161415610bc9576040517f08c379a0000000000000000000000000000000000000000000000000000000008152600401610bc090611864565b60405180910390fd5b600073ffffffffffffffffffffffffffffffffffffffff168273ffffffffffffffffffffffffffffffffffffffff161415610c39576040517f08c379a0000000000000000000000000000000000000000000000000000000008152600401610c3090611784565b60405180910390fd5b610c4483838361111b565b60008060008573ffffffffffffffffffffffffffffffffffffffff1673ffffffffffffffffffffffffffffffffffffffff16815260200190815260200160002054905081811015610cca576040517f08c379a0000000000000000000000000000000000000000000000000000000008152600401610cc1906117e4565b60405180910390fd5b8181036000808673ffffffffffffffffffffffffffffffffffffffff1673ffffffffffffffffffffffffffffffffffffffff16815260200190815260200160002081905550816000808573ffffffffffffffffffffffffffffffffffffffff1673ffffffffffffffffffffffffffffffffffffffff1681526020019081526020016000206000828254610d5d91906119f9565b925050819055508273ffffffffffffffffffffffffffffffffffffffff168473ffffffffffffffffffffffffffffffffffffffff167fddf252ad1be2c89b69c2b068fc378daa952ba7f163c4a11628f55a4df523b3ef84604051610dc191906118e4565b60405180910390a350505050565b600073ffffffffffffffffffffffffffffffffffffffff168273ffffffffffffffffffffffffffffffffffffffff161415610e3f576040517f08c379a0000000000000000000000000000000000000000000000000000000008152600401610e36906118c4565b60405180910390fd5b610e4b6000838361111b565b8060026000828254610e5d91906119f9565b92505081905550806000808473ffffffffffffffffffffffffffffffffffffffff1673ffffffffffffffffffffffffffffffffffffffff1681526020019081526020016000206000828254610eb291906119f9565b925050819055508173ffffffffffffffffffffffffffffffffffffffff16600073ffffffffffffffffffffffffffffffffffffffff167fddf252ad1be2c89b69c2b068fc378daa952ba7f163c4a11628f55a4df523b3ef83604051610f1791906118e4565b60405180910390a35050565b600073ffffffffffffffffffffffffffffffffffffffff168273ffffffffffffffffffffffffffffffffffffffff161415610f93576040517f08c379a0000000000000000000000000000000000000000000000000000000008152600401610f8a90611824565b60405180910390fd5b610f9f8260008361111b565b60008060008473ffffffffffffffffffffffffffffffffffffffff1673ffffffffffffffffffffffffffffffffffffffff16815260200190815260200160002054905081811015611025576040517f08c379a000000000000000000000000000000000000000000000000000000000815260040161101c906117a4565b60405180910390fd5b8181036000808573ffffffffffffffffffffffffffffffffffffffff1673ffffffffffffffffffffffffffffffffffffffff16815260200190815260200160002081905550816002600082825461107c9190611a4f565b92505081905550600073ffffffffffffffffffffffffffffffffffffffff168373ffffffffffffffffffffffffffffffffffffffff167fddf252ad1be2c89b69c2b068fc378daa952ba7f163c4a11628f55a4df523b3ef846040516110e191906118e4565b60405180910390a3505050565b60606111138383604051806060016040528060278152602001611fe960279139611120565b905092915050565b505050565b606061112b846111ed565b61116a576040517f08c379a000000000000000000000000000000000000000000000000000000000815260040161116190611844565b60405180910390fd5b6000808573ffffffffffffffffffffffffffffffffffffffff1685604051611192919061170e565b600060405180830381855af49150503d80600081146111cd576040519150601f19603f3d011682016040523d82523d6000602084013e6111d2565b606091505b50915091506111e2828286611200565b925050509392505050565b600080823b905060008111915050919050565b6060831561121057829050611260565b6000835111156112235782518084602001fd5b816040517f08c379a00000000000000000000000000000000000000000000000000000000081526004016112579190611762565b60405180910390fd5b9392505050565b60008135905061127681611fba565b92915050565b60008083601f84011261129257611291611c47565b5b8235905067ffffffffffffffff8111156112af576112ae611c42565b5b6020830191508360208202830111156112cb576112ca611c56565b5b9250929050565b6000813590506112e181611fd1565b92915050565b6000602082840312156112fd576112fc611c65565b5b600061130b84828501611267565b91505092915050565b6000806040838503121561132b5761132a611c65565b5b600061133985828601611267565b925050602061134a85828601611267565b9150509250929050565b60008060006060848603121561136d5761136c611c65565b5b600061137b86828701611267565b935050602061138c86828701611267565b925050604061139d868287016112d2565b9150509250925092565b600080604083850312156113be576113bd611c65565b5b60006113cc85828601611267565b92505060206113dd858286016112d2565b9150509250929050565b600080602083850312156113fe576113fd611c65565b5b600083013567ffffffffffffffff81111561141c5761141b611c60565b5b6114288582860161127c565b92509250509250929050565b600061144083836114cc565b905092915050565b60006114538261198d565b61145d81856119bb565b93508360208202850161146f8561197d565b8060005b858110156114ab578484038952815161148c8582611434565b9450611497836119ae565b925060208a01995050600181019050611473565b50829750879550505050505092915050565b6114c681611a95565b82525050565b60006114d782611998565b6114e181856119cc565b93506114f1818560208601611ad8565b6114fa81611c6a565b840191505092915050565b600061151082611998565b61151a81856119dd565b935061152a818560208601611ad8565b80840191505092915050565b6000611541826119a3565b61154b81856119e8565b935061155b818560208601611ad8565b61156481611c6a565b840191505092915050565b600061157c6023836119e8565b915061158782611c7b565b604082019050919050565b600061159f6022836119e8565b91506115aa82611cca565b604082019050919050565b60006115c26022836119e8565b91506115cd82611d19565b604082019050919050565b60006115e56026836119e8565b91506115f082611d68565b604082019050919050565b60006116086028836119e8565b915061161382611db7565b604082019050919050565b600061162b6021836119e8565b915061163682611e06565b604082019050919050565b600061164e6026836119e8565b915061165982611e55565b604082019050919050565b60006116716025836119e8565b915061167c82611ea4565b604082019050919050565b60006116946024836119e8565b915061169f82611ef3565b604082019050919050565b60006116b76025836119e8565b91506116c282611f42565b604082019050919050565b60006116da601f836119e8565b91506116e582611f91565b602082019050919050565b6116f981611ac1565b82525050565b61170881611acb565b82525050565b600061171a8284611505565b915081905092915050565b6000602082019050818103600083015261173f8184611448565b905092915050565b600060208201905061175c60008301846114bd565b92915050565b6000602082019050818103600083015261177c8184611536565b905092915050565b6000602082019050818103600083015261179d8161156f565b9050919050565b600060208201905081810360008301526117bd81611592565b9050919050565b600060208201905081810360008301526117dd816115b5565b9050919050565b600060208201905081810360008301526117fd816115d8565b9050919050565b6000602082019050818103600083015261181d816115fb565b9050919050565b6000602082019050818103600083015261183d8161161e565b9050919050565b6000602082019050818103600083015261185d81611641565b9050919050565b6000602082019050818103600083015261187d81611664565b9050919050565b6000602082019050818103600083015261189d81611687565b9050919050565b600060208201905081810360008301526118bd816116aa565b9050919050565b600060208201905081810360008301526118dd816116cd565b9050919050565b60006020820190506118f960008301846116f0565b92915050565b600060208201905061191460008301846116ff565b92915050565b6000808335600160200384360303811261193757611936611c51565b5b80840192508235915067ffffffffffffffff82111561195957611958611c4c565b5b60208301925060018202360383131561197557611974611c5b565b5b509250929050565b6000819050602082019050919050565b600081519050919050565b600081519050919050565b600081519050919050565b6000602082019050919050565b600082825260208201905092915050565b600082825260208201905092915050565b600081905092915050565b600082825260208201905092915050565b6000611a0482611ac1565b9150611a0f83611ac1565b9250827fffffffffffffffffffffffffffffffffffffffffffffffffffffffffffffffff03821115611a4457611a43611b86565b5b828201905092915050565b6000611a5a82611ac1565b9150611a6583611ac1565b925082821015611a7857611a77611b86565b5b828203905092915050565b6000611a8e82611aa1565b9050919050565b60008115159050919050565b600073ffffffffffffffffffffffffffffffffffffffff82169050919050565b6000819050919050565b600060ff82169050919050565b60005b83811015611af6578082015181840152602081019050611adb565b83811115611b05576000848401525b50505050565b60006002820490506001821680611b2357607f821691505b60208210811415611b3757611b36611bb5565b5b50919050565b6000611b4882611ac1565b91507fffffffffffffffffffffffffffffffffffffffffffffffffffffffffffffffff821415611b7b57611b7a611b86565b5b600182019050919050565b7f4e487b7100000000000000000000000000000000000000000000000000000000600052601160045260246000fd5b7f4e487b7100000000000000000000000000000000000000000000000000000000600052602260045260246000fd5b7f4e487b7100000000000000000000000000000000000000000000000000000000600052603260045260246000fd5b7f4e487b7100000000000000000000000000000000000000000000000000000000600052604160045260246000fd5b600080fd5b600080fd5b600080fd5b600080fd5b600080fd5b600080fd5b600080fd5b600080fd5b6000601f19601f8301169050919050565b7f45524332303a207472616e7366657220746f20746865207a65726f206164647260008201527f6573730000000000000000000000000000000000000000000000000000000000602082015250565b7f45524332303a206275726e20616d6f756e7420657863656564732062616c616e60008201527f6365000000000000000000000000000000000000000000000000000000000000602082015250565b7f45524332303a20617070726f766520746f20746865207a65726f20616464726560008201527f7373000000000000000000000000000000000000000000000000000000000000602082015250565b7f45524332303a207472616e7366657220616d6f756e742065786365656473206260008201527f616c616e63650000000000000000000000000000000000000000000000000000602082015250565b7f45524332303a207472616e7366657220616d6f756e742065786365656473206160008201527f6c6c6f77616e6365000000000000000000000000000000000000000000000000602082015250565b7f45524332303a206275726e2066726f6d20746865207a65726f2061646472657360008201527f7300000000000000000000000000000000000000000000000000000000000000602082015250565b7f416464726573733a2064656c65676174652063616c6c20746f206e6f6e2d636f60008201527f6e74726163740000000000000000000000000000000000000000000000000000602082015250565b7f45524332303a207472616e736665722066726f6d20746865207a65726f20616460008201527f6472657373000000000000000000000000000000000000000000000000000000602082015250565b7f45524332303a20617070726f76652066726f6d20746865207a65726f2061646460008201527f7265737300000000000000000000000000000000000000000000000000000000602082015250565b7f45524332303a2064656372656173656420616c6c6f77616e63652062656c6f7760008201527f207a65726f000000000000000000000000000000000000000000000000000000602082015250565b7f45524332303a206d696e7420746f20746865207a65726f206164647265737300600082015250565b611fc381611a83565b8114611fce57600080fd5b50565b611fda81611ac1565b8114611fe557600080fd5b5056fe416464726573733a206c6f772d6c6576656c2064656c65676174652063616c6c206661696c6564a26469706673582212202bd91d74bd27a833fe0ef78c97dc695082fbb765a919ae7a9873a802b33075eb64736f6c63430008060033",
  "immutableReferences": {},
  "source": "// SPDX-License-Identifier: MIT\n\npragma solidity ^0.8.0;\n\nimport \"../utils/Multicall.sol\";\nimport \"./ERC20Mock.sol\";\n\ncontract MulticallTokenMock is ERC20Mock, Multicall {\n    constructor (uint256 initialBalance) ERC20Mock(\"MulticallToken\", \"BCT\", msg.sender, initialBalance) {}\n}\n",
  "sourcePath": "C:/Users/Husnain/Documents/Projects/Fanbase/New/fanbase/packages/ethereum/contracts/solidity/openzeppelin/contracts/mocks/MulticallTokenMock.sol",
  "compiler": {
    "name": "solc",
    "version": "0.8.6+commit.11564f7e.Emscripten.clang"
  },
  "schemaVersion": "3.4.1",
  "updatedAt": "2021-07-06T16:03:13.697Z",
  "devdoc": {
    "kind": "dev",
    "methods": {
      "allowance(address,address)": {
        "details": "See {IERC20-allowance}."
      },
      "approve(address,uint256)": {
        "details": "See {IERC20-approve}. Requirements: - `spender` cannot be the zero address."
      },
      "balanceOf(address)": {
        "details": "See {IERC20-balanceOf}."
      },
      "decimals()": {
        "details": "Returns the number of decimals used to get its user representation. For example, if `decimals` equals `2`, a balance of `505` tokens should be displayed to a user as `5,05` (`505 / 10 ** 2`). Tokens usually opt for a value of 18, imitating the relationship between Ether and Wei. This is the value {ERC20} uses, unless this function is overridden; NOTE: This information is only used for _display_ purposes: it in no way affects any of the arithmetic of the contract, including {IERC20-balanceOf} and {IERC20-transfer}."
      },
      "decreaseAllowance(address,uint256)": {
        "details": "Atomically decreases the allowance granted to `spender` by the caller. This is an alternative to {approve} that can be used as a mitigation for problems described in {IERC20-approve}. Emits an {Approval} event indicating the updated allowance. Requirements: - `spender` cannot be the zero address. - `spender` must have allowance for the caller of at least `subtractedValue`."
      },
      "increaseAllowance(address,uint256)": {
        "details": "Atomically increases the allowance granted to `spender` by the caller. This is an alternative to {approve} that can be used as a mitigation for problems described in {IERC20-approve}. Emits an {Approval} event indicating the updated allowance. Requirements: - `spender` cannot be the zero address."
      },
      "multicall(bytes[])": {
        "details": "Receives and executes a batch of function calls on this contract."
      },
      "name()": {
        "details": "Returns the name of the token."
      },
      "symbol()": {
        "details": "Returns the symbol of the token, usually a shorter version of the name."
      },
      "totalSupply()": {
        "details": "See {IERC20-totalSupply}."
      },
      "transfer(address,uint256)": {
        "details": "See {IERC20-transfer}. Requirements: - `recipient` cannot be the zero address. - the caller must have a balance of at least `amount`."
      },
      "transferFrom(address,address,uint256)": {
        "details": "See {IERC20-transferFrom}. Emits an {Approval} event indicating the updated allowance. This is not required by the EIP. See the note at the beginning of {ERC20}. Requirements: - `sender` and `recipient` cannot be the zero address. - `sender` must have a balance of at least `amount`. - the caller must have allowance for ``sender``'s tokens of at least `amount`."
      }
    },
    "version": 1
  },
  "userdoc": {
    "kind": "user",
    "methods": {},
    "version": 1
  }
}