{
  "contractName": "OfferMarketV1",
  "abi": [
    {
      "inputs": [
        {
          "internalType": "contract MarketWalletV1",
          "name": "wallet",
          "type": "address"
        }
      ],
      "stateMutability": "nonpayable",
      "type": "constructor"
    },
    {
      "anonymous": false,
      "inputs": [
        {
          "indexed": true,
          "internalType": "address",
          "name": "seller",
          "type": "address"
        },
        {
          "indexed": true,
          "internalType": "address",
          "name": "buyer",
          "type": "address"
        },
        {
          "indexed": false,
          "internalType": "address",
          "name": "token",
          "type": "address"
        },
        {
          "indexed": false,
          "internalType": "address",
          "name": "tokenId",
          "type": "address"
        },
        {
          "indexed": false,
          "internalType": "uint256",
          "name": "quantity",
          "type": "uint256"
        },
        {
          "indexed": false,
          "internalType": "address",
          "name": "currency",
          "type": "address"
        },
        {
          "indexed": false,
          "internalType": "uint256",
          "name": "price",
          "type": "uint256"
        }
      ],
      "name": "Accept",
      "type": "event"
    },
    {
      "anonymous": false,
      "inputs": [
        {
          "indexed": false,
          "internalType": "uint256",
          "name": "tradeId",
          "type": "uint256"
        },
        {
          "indexed": false,
          "internalType": "address",
          "name": "buyer",
          "type": "address"
        },
        {
          "indexed": false,
          "internalType": "uint256",
          "name": "quantity",
          "type": "uint256"
        }
      ],
      "name": "Buy",
      "type": "event"
    },
    {
      "anonymous": false,
      "inputs": [
        {
          "indexed": true,
          "internalType": "address",
          "name": "sender",
          "type": "address"
        },
        {
          "indexed": false,
          "internalType": "address",
          "name": "token",
          "type": "address"
        },
        {
          "indexed": false,
          "internalType": "address",
          "name": "tokenId",
          "type": "address"
        },
        {
          "indexed": false,
          "internalType": "uint256",
          "name": "quantity",
          "type": "uint256"
        },
        {
          "indexed": false,
          "internalType": "address",
          "name": "currency",
          "type": "address"
        },
        {
          "indexed": false,
          "internalType": "uint256",
          "name": "price",
          "type": "uint256"
        }
      ],
      "name": "Cancel",
      "type": "event"
    },
    {
      "anonymous": false,
      "inputs": [
        {
          "indexed": true,
          "internalType": "uint256",
          "name": "tradeId",
          "type": "uint256"
        },
        {
          "indexed": false,
          "internalType": "address",
          "name": "operator",
          "type": "address"
        }
      ],
      "name": "Cancel",
      "type": "event"
    },
    {
      "anonymous": false,
      "inputs": [
        {
          "indexed": false,
          "internalType": "uint256",
          "name": "tradeId",
          "type": "uint256"
        },
        {
          "indexed": false,
          "internalType": "address",
          "name": "seller",
          "type": "address"
        },
        {
          "indexed": false,
          "internalType": "address",
          "name": "tokenContract",
          "type": "address"
        },
        {
          "indexed": false,
          "internalType": "uint256",
          "name": "tokenId",
          "type": "uint256"
        },
        {
          "indexed": false,
          "internalType": "uint256",
          "name": "quantity",
          "type": "uint256"
        },
        {
          "indexed": false,
          "internalType": "address",
          "name": "currency",
          "type": "address"
        },
        {
          "indexed": false,
          "internalType": "uint256",
          "name": "price",
          "type": "uint256"
        }
      ],
      "name": "ListForSale",
      "type": "event"
    },
    {
      "anonymous": false,
      "inputs": [
        {
          "indexed": false,
          "internalType": "address",
          "name": "account",
          "type": "address"
        }
      ],
      "name": "Paused",
      "type": "event"
    },
    {
      "anonymous": false,
      "inputs": [
        {
          "indexed": true,
          "internalType": "bytes32",
          "name": "role",
          "type": "bytes32"
        },
        {
          "indexed": true,
          "internalType": "bytes32",
          "name": "previousAdminRole",
          "type": "bytes32"
        },
        {
          "indexed": true,
          "internalType": "bytes32",
          "name": "newAdminRole",
          "type": "bytes32"
        }
      ],
      "name": "RoleAdminChanged",
      "type": "event"
    },
    {
      "anonymous": false,
      "inputs": [
        {
          "indexed": true,
          "internalType": "bytes32",
          "name": "role",
          "type": "bytes32"
        },
        {
          "indexed": true,
          "internalType": "address",
          "name": "account",
          "type": "address"
        },
        {
          "indexed": true,
          "internalType": "address",
          "name": "sender",
          "type": "address"
        }
      ],
      "name": "RoleGranted",
      "type": "event"
    },
    {
      "anonymous": false,
      "inputs": [
        {
          "indexed": true,
          "internalType": "bytes32",
          "name": "role",
          "type": "bytes32"
        },
        {
          "indexed": true,
          "internalType": "address",
          "name": "account",
          "type": "address"
        },
        {
          "indexed": true,
          "internalType": "address",
          "name": "sender",
          "type": "address"
        }
      ],
      "name": "RoleRevoked",
      "type": "event"
    },
    {
      "anonymous": false,
      "inputs": [
        {
          "indexed": false,
          "internalType": "uint256",
          "name": "tradeId",
          "type": "uint256"
        }
      ],
      "name": "Sell",
      "type": "event"
    },
    {
      "anonymous": false,
      "inputs": [
        {
          "indexed": false,
          "internalType": "address",
          "name": "account",
          "type": "address"
        }
      ],
      "name": "Unpaused",
      "type": "event"
    },
    {
      "inputs": [],
      "name": "ADMIN_ROLE",
      "outputs": [
        {
          "internalType": "bytes32",
          "name": "",
          "type": "bytes32"
        }
      ],
      "stateMutability": "view",
      "type": "function"
    },
    {
      "inputs": [],
      "name": "DEFAULT_ADMIN_ROLE",
      "outputs": [
        {
          "internalType": "bytes32",
          "name": "",
          "type": "bytes32"
        }
      ],
      "stateMutability": "view",
      "type": "function"
    },
    {
      "inputs": [
        {
          "internalType": "uint256",
          "name": "tradeId",
          "type": "uint256"
        },
        {
          "internalType": "uint256",
          "name": "quantity",
          "type": "uint256"
        }
      ],
      "name": "buy",
      "outputs": [],
      "stateMutability": "nonpayable",
      "type": "function"
    },
    {
      "inputs": [],
      "name": "buyerFeePct",
      "outputs": [
        {
          "internalType": "uint256",
          "name": "",
          "type": "uint256"
        }
      ],
      "stateMutability": "view",
      "type": "function"
    },
    {
      "inputs": [
        {
          "internalType": "uint256",
          "name": "tradeId",
          "type": "uint256"
        }
      ],
      "name": "cancel",
      "outputs": [],
      "stateMutability": "nonpayable",
      "type": "function"
    },
    {
      "inputs": [
        {
          "internalType": "uint256",
          "name": "tradeId",
          "type": "uint256"
        }
      ],
      "name": "get",
      "outputs": [
        {
          "components": [
            {
              "internalType": "uint256",
              "name": "id",
              "type": "uint256"
            },
            {
              "internalType": "address",
              "name": "seller",
              "type": "address"
            },
            {
              "internalType": "address",
              "name": "token",
              "type": "address"
            },
            {
              "internalType": "uint256",
              "name": "tokenId",
              "type": "uint256"
            },
            {
              "internalType": "uint256",
              "name": "quantity",
              "type": "uint256"
            },
            {
              "internalType": "uint256",
              "name": "available",
              "type": "uint256"
            },
            {
              "internalType": "address",
              "name": "currency",
              "type": "address"
            },
            {
              "internalType": "uint256",
              "name": "price",
              "type": "uint256"
            },
            {
              "internalType": "enum TradeStatus",
              "name": "status",
              "type": "uint8"
            }
          ],
          "internalType": "struct Trade",
          "name": "",
          "type": "tuple"
        }
      ],
      "stateMutability": "view",
      "type": "function"
    },
    {
      "inputs": [
        {
          "internalType": "address",
          "name": "currency",
          "type": "address"
        },
        {
          "internalType": "address",
          "name": "account",
          "type": "address"
        }
      ],
      "name": "getBalance",
      "outputs": [
        {
          "internalType": "uint256",
          "name": "",
          "type": "uint256"
        }
      ],
      "stateMutability": "view",
      "type": "function"
    },
    {
      "inputs": [
        {
          "internalType": "bytes32",
          "name": "role",
          "type": "bytes32"
        }
      ],
      "name": "getRoleAdmin",
      "outputs": [
        {
          "internalType": "bytes32",
          "name": "",
          "type": "bytes32"
        }
      ],
      "stateMutability": "view",
      "type": "function"
    },
    {
      "inputs": [
        {
          "internalType": "address",
          "name": "seller",
          "type": "address"
        },
        {
          "internalType": "address",
          "name": "token",
          "type": "address"
        },
        {
          "internalType": "uint256",
          "name": "tokenId",
          "type": "uint256"
        },
        {
          "internalType": "uint256",
          "name": "quantity",
          "type": "uint256"
        },
        {
          "internalType": "address",
          "name": "currency",
          "type": "address"
        },
        {
          "internalType": "uint256",
          "name": "price",
          "type": "uint256"
        },
        {
          "internalType": "uint256",
          "name": "expiry",
          "type": "uint256"
        },
        {
          "internalType": "uint256",
          "name": "salt",
          "type": "uint256"
        }
      ],
      "name": "getSaleAuthorizationHash",
      "outputs": [
        {
          "internalType": "bytes32",
          "name": "",
          "type": "bytes32"
        }
      ],
      "stateMutability": "view",
      "type": "function"
    },
    {
      "inputs": [
        {
          "internalType": "bytes32",
          "name": "role",
          "type": "bytes32"
        },
        {
          "internalType": "address",
          "name": "account",
          "type": "address"
        }
      ],
      "name": "grantRole",
      "outputs": [],
      "stateMutability": "nonpayable",
      "type": "function"
    },
    {
      "inputs": [
        {
          "internalType": "bytes32",
          "name": "role",
          "type": "bytes32"
        },
        {
          "internalType": "address",
          "name": "account",
          "type": "address"
        }
      ],
      "name": "hasRole",
      "outputs": [
        {
          "internalType": "bool",
          "name": "",
          "type": "bool"
        }
      ],
      "stateMutability": "view",
      "type": "function"
    },
    {
      "inputs": [],
      "name": "hundredPct",
      "outputs": [
        {
          "internalType": "uint256",
          "name": "",
          "type": "uint256"
        }
      ],
      "stateMutability": "view",
      "type": "function"
    },
    {
      "inputs": [
        {
          "internalType": "address",
          "name": "seller",
          "type": "address"
        },
        {
          "internalType": "address",
          "name": "token",
          "type": "address"
        },
        {
          "internalType": "uint256",
          "name": "tokenId",
          "type": "uint256"
        },
        {
          "internalType": "uint256",
          "name": "quantity",
          "type": "uint256"
        },
        {
          "internalType": "address",
          "name": "currency",
          "type": "address"
        },
        {
          "internalType": "uint256",
          "name": "price",
          "type": "uint256"
        },
        {
          "internalType": "uint256",
          "name": "expiry",
          "type": "uint256"
        },
        {
          "internalType": "uint256",
          "name": "salt",
          "type": "uint256"
        },
        {
          "internalType": "bytes",
          "name": "signature",
          "type": "bytes"
        }
      ],
      "name": "listForSale",
      "outputs": [],
      "stateMutability": "nonpayable",
      "type": "function"
    },
    {
      "inputs": [],
      "name": "maxTokenPrice",
      "outputs": [
        {
          "internalType": "uint256",
          "name": "",
          "type": "uint256"
        }
      ],
      "stateMutability": "view",
      "type": "function"
    },
    {
      "inputs": [],
      "name": "maxTradeQuantity",
      "outputs": [
        {
          "internalType": "uint256",
          "name": "",
          "type": "uint256"
        }
      ],
      "stateMutability": "view",
      "type": "function"
    },
    {
      "inputs": [],
      "name": "minTokenPrice",
      "outputs": [
        {
          "internalType": "uint256",
          "name": "",
          "type": "uint256"
        }
      ],
      "stateMutability": "view",
      "type": "function"
    },
    {
      "inputs": [],
      "name": "pause",
      "outputs": [],
      "stateMutability": "nonpayable",
      "type": "function"
    },
    {
      "inputs": [],
      "name": "paused",
      "outputs": [
        {
          "internalType": "bool",
          "name": "",
          "type": "bool"
        }
      ],
      "stateMutability": "view",
      "type": "function"
    },
    {
      "inputs": [
        {
          "internalType": "bytes32",
          "name": "role",
          "type": "bytes32"
        },
        {
          "internalType": "address",
          "name": "account",
          "type": "address"
        }
      ],
      "name": "renounceRole",
      "outputs": [],
      "stateMutability": "nonpayable",
      "type": "function"
    },
    {
      "inputs": [],
      "name": "resume",
      "outputs": [],
      "stateMutability": "nonpayable",
      "type": "function"
    },
    {
      "inputs": [
        {
          "internalType": "bytes32",
          "name": "role",
          "type": "bytes32"
        },
        {
          "internalType": "address",
          "name": "account",
          "type": "address"
        }
      ],
      "name": "revokeRole",
      "outputs": [],
      "stateMutability": "nonpayable",
      "type": "function"
    },
    {
      "inputs": [],
      "name": "sellerFeePct",
      "outputs": [
        {
          "internalType": "uint256",
          "name": "",
          "type": "uint256"
        }
      ],
      "stateMutability": "view",
      "type": "function"
    },
    {
      "inputs": [
        {
          "internalType": "uint256",
          "name": "pct",
          "type": "uint256"
        }
      ],
      "name": "setBuyerFeePct",
      "outputs": [],
      "stateMutability": "nonpayable",
      "type": "function"
    },
    {
      "inputs": [
        {
          "internalType": "address",
          "name": "currency",
          "type": "address"
        },
        {
          "internalType": "bool",
          "name": "isApproved",
          "type": "bool"
        }
      ],
      "name": "setCurrencyApproval",
      "outputs": [],
      "stateMutability": "nonpayable",
      "type": "function"
    },
    {
      "inputs": [
        {
          "internalType": "address",
          "name": "beneficiary",
          "type": "address"
        }
      ],
      "name": "setFeeBeneficiary",
      "outputs": [],
      "stateMutability": "nonpayable",
      "type": "function"
    },
    {
      "inputs": [
        {
          "internalType": "uint256",
          "name": "price",
          "type": "uint256"
        }
      ],
      "name": "setMaxTokenPriceEther",
      "outputs": [],
      "stateMutability": "nonpayable",
      "type": "function"
    },
    {
      "inputs": [
        {
          "internalType": "uint256",
          "name": "price",
          "type": "uint256"
        }
      ],
      "name": "setMaxTokenPriceWei",
      "outputs": [],
      "stateMutability": "nonpayable",
      "type": "function"
    },
    {
      "inputs": [
        {
          "internalType": "uint256",
          "name": "quantity",
          "type": "uint256"
        }
      ],
      "name": "setMaxTradeQuantity",
      "outputs": [],
      "stateMutability": "nonpayable",
      "type": "function"
    },
    {
      "inputs": [
        {
          "internalType": "uint256",
          "name": "pct",
          "type": "uint256"
        }
      ],
      "name": "setSellerFeePct",
      "outputs": [],
      "stateMutability": "nonpayable",
      "type": "function"
    },
    {
      "inputs": [
        {
          "internalType": "address",
          "name": "token",
          "type": "address"
        },
        {
          "internalType": "bool",
          "name": "isApproved",
          "type": "bool"
        }
      ],
      "name": "setTokenApproval",
      "outputs": [],
      "stateMutability": "nonpayable",
      "type": "function"
    },
    {
      "inputs": [
        {
          "internalType": "bytes4",
          "name": "interfaceID",
          "type": "bytes4"
        }
      ],
      "name": "supportsInterface",
      "outputs": [
        {
          "internalType": "bool",
          "name": "",
          "type": "bool"
        }
      ],
      "stateMutability": "view",
      "type": "function"
    },
    {
      "inputs": [
        {
          "internalType": "bytes",
          "name": "",
          "type": "bytes"
        },
        {
          "internalType": "uint256",
          "name": "",
          "type": "uint256"
        }
      ],
      "name": "tradeHistory",
      "outputs": [
        {
          "internalType": "uint256",
          "name": "",
          "type": "uint256"
        }
      ],
      "stateMutability": "view",
      "type": "function"
    },
    {
      "inputs": [
        {
          "internalType": "address",
          "name": "currency",
          "type": "address"
        },
        {
          "internalType": "uint256",
          "name": "amount",
          "type": "uint256"
        }
      ],
      "name": "withdraw",
      "outputs": [],
      "stateMutability": "nonpayable",
      "type": "function"
    },
    {
      "inputs": [
        {
          "components": [
            {
              "internalType": "address",
              "name": "buyer",
              "type": "address"
            },
            {
              "internalType": "address",
              "name": "seller",
              "type": "address"
            },
            {
              "internalType": "address",
              "name": "token",
              "type": "address"
            },
            {
              "internalType": "uint256",
              "name": "tokenId",
              "type": "uint256"
            },
            {
              "internalType": "uint256",
              "name": "quantity",
              "type": "uint256"
            },
            {
              "internalType": "address",
              "name": "currency",
              "type": "address"
            },
            {
              "internalType": "uint256",
              "name": "price",
              "type": "uint256"
            },
            {
              "internalType": "uint256",
              "name": "expiry",
              "type": "uint256"
            }
          ],
          "internalType": "struct Offer",
          "name": "offer",
          "type": "tuple"
        },
        {
          "internalType": "uint256",
          "name": "salt",
          "type": "uint256"
        },
        {
          "internalType": "bytes",
          "name": "signature",
          "type": "bytes"
        }
      ],
      "name": "acceptOffer",
      "outputs": [],
      "stateMutability": "nonpayable",
      "type": "function"
    },
    {
      "inputs": [
        {
          "components": [
            {
              "internalType": "address",
              "name": "buyer",
              "type": "address"
            },
            {
              "internalType": "address",
              "name": "seller",
              "type": "address"
            },
            {
              "internalType": "address",
              "name": "token",
              "type": "address"
            },
            {
              "internalType": "uint256",
              "name": "tokenId",
              "type": "uint256"
            },
            {
              "internalType": "uint256",
              "name": "quantity",
              "type": "uint256"
            },
            {
              "internalType": "address",
              "name": "currency",
              "type": "address"
            },
            {
              "internalType": "uint256",
              "name": "price",
              "type": "uint256"
            },
            {
              "internalType": "uint256",
              "name": "expiry",
              "type": "uint256"
            }
          ],
          "internalType": "struct Offer",
          "name": "offer",
          "type": "tuple"
        },
        {
          "internalType": "uint256",
          "name": "salt",
          "type": "uint256"
        }
      ],
      "name": "getOfferHash",
      "outputs": [
        {
          "internalType": "bytes32",
          "name": "",
          "type": "bytes32"
        }
      ],
      "stateMutability": "view",
      "type": "function"
    },
    {
      "inputs": [
        {
          "components": [
            {
              "internalType": "address",
              "name": "buyer",
              "type": "address"
            },
            {
              "internalType": "address",
              "name": "seller",
              "type": "address"
            },
            {
              "internalType": "address",
              "name": "token",
              "type": "address"
            },
            {
              "internalType": "uint256",
              "name": "tokenId",
              "type": "uint256"
            },
            {
              "internalType": "uint256",
              "name": "quantity",
              "type": "uint256"
            },
            {
              "internalType": "address",
              "name": "currency",
              "type": "address"
            },
            {
              "internalType": "uint256",
              "name": "price",
              "type": "uint256"
            },
            {
              "internalType": "uint256",
              "name": "expiry",
              "type": "uint256"
            }
          ],
          "internalType": "struct Offer",
          "name": "offer",
          "type": "tuple"
        },
        {
          "internalType": "uint256",
          "name": "nonce",
          "type": "uint256"
        },
        {
          "internalType": "bytes",
          "name": "signature",
          "type": "bytes"
        }
      ],
      "name": "cancelOffer",
      "outputs": [],
      "stateMutability": "nonpayable",
      "type": "function"
    }
  ],
  "bytecode": "0x6080604052611388600255611388600355620186a060045569d3c21bcecceda1000000600555620f424060065560045460075560006009556000600d556000600f553480156200004e57600080fd5b5060405162006371380380620063718339818101604052810190620000749190620003a2565b806000600160006101000a81548160ff021916908315150217905550620000a56000801b336200019660201b60201c565b620000d77fa49807205ce4d355092ef5a8a18f56e8913cf4a201fbe287825b095693c21775336200019660201b60201c565b6200010c7fa49807205ce4d355092ef5a8a18f56e8913cf4a201fbe287825b095693c217756000801b620001ac60201b60201c565b33601160006101000a81548173ffffffffffffffffffffffffffffffffffffffff021916908373ffffffffffffffffffffffffffffffffffffffff16021790555080601260006101000a81548173ffffffffffffffffffffffffffffffffffffffff021916908373ffffffffffffffffffffffffffffffffffffffff16021790555050506200043b565b620001a882826200020960201b60201c565b5050565b80620001be83620002fa60201b60201c565b837fbd79b86ffe0ab8e8776151514217cd7cacd52c909f66475c3af44e129f0b00ff60405160405180910390a480600080848152602001908152602001600020600101819055505050565b6200021b82826200031960201b60201c565b620002f657600160008084815260200190815260200160002060000160008373ffffffffffffffffffffffffffffffffffffffff1673ffffffffffffffffffffffffffffffffffffffff16815260200190815260200160002060006101000a81548160ff0219169083151502179055506200029b6200038360201b60201c565b73ffffffffffffffffffffffffffffffffffffffff168173ffffffffffffffffffffffffffffffffffffffff16837f2f8788117e7eff1d82e926ec794901d17c78024a50270940304540a733656f0d60405160405180910390a45b5050565b6000806000838152602001908152602001600020600101549050919050565b600080600084815260200190815260200160002060000160008373ffffffffffffffffffffffffffffffffffffffff1673ffffffffffffffffffffffffffffffffffffffff16815260200190815260200160002060009054906101000a900460ff16905092915050565b600033905090565b6000815190506200039c8162000421565b92915050565b600060208284031215620003bb57620003ba6200041c565b5b6000620003cb848285016200038b565b91505092915050565b6000620003e182620003fc565b9050919050565b6000620003f582620003d4565b9050919050565b600073ffffffffffffffffffffffffffffffffffffffff82169050919050565b600080fd5b6200042c81620003e8565b81146200043857600080fd5b50565b615f26806200044b6000396000f3fe608060405234801561001057600080fd5b506004361061021c5760003560e01c80638cac73ff11610125578063d428dc2b116100ad578063e45ad64a1161007c578063e45ad64a146105ff578063e6a501001461061b578063f3fef3a314610637578063fbb5470c14610653578063fd1fc13e146106835761021c565b8063d428dc2b14610579578063d4fac45d14610597578063d547741f146105c7578063d6febde8146105e35761021c565b8063a217fddf116100f4578063a217fddf146104d7578063b8358a61146104f5578063bca9981914610511578063be29928e1461052d578063c661b89d1461055d5761021c565b80638cac73ff1461043d5780638ce5ab6a1461045957806391d14854146104775780639507d39a146104a75761021c565b80635a0a3d82116101a857806375b238fc1161017757806375b238fc146103a957806377e5c4a8146103c75780638456cb59146103e557806385d561ae146103ef5780638662732e1461040d5761021c565b80635a0a3d82146103355780635c975abb146103515780635dabb20e1461036f578063670436f11461038d5761021c565b80632b483c03116101ef5780632b483c03146102a75780632f2ff15d146102c5578063325c5d56146102e157806336568abe146102fd57806340e58ee5146103195761021c565b806301ffc9a714610221578063046f7da21461025157806314d91c841461025b578063248a9ca314610277575b600080fd5b61023b60048036038101906102369190614160565b61069f565b6040516102489190614ce3565b60405180910390f35b6102596106b1565b005b61027560048036038101906102709190613fb4565b6106ee565b005b610291600480360381019061028c91906140f3565b61077c565b60405161029e9190614cfe565b60405180910390f35b6102af61079b565b6040516102bc9190615197565b60405180910390f35b6102df60048036038101906102da9190614120565b6107a1565b005b6102fb60048036038101906102f6919061422b565b6107ca565b005b61031760048036038101906103129190614120565b61098c565b005b610333600480360381019061032e91906142a2565b610a0f565b005b61034f600480360381019061034a9190613da6565b610dca565b005b610359610e24565b6040516103669190614ce3565b60405180910390f35b610377610e3b565b6040516103849190615197565b60405180910390f35b6103a760048036038101906103a29190613fb4565b610e41565b005b6103b1610ecf565b6040516103be9190614cfe565b60405180910390f35b6103cf610ef3565b6040516103dc9190615197565b60405180910390f35b6103ed610ef9565b005b6103f7610f36565b6040516104049190615197565b60405180910390f35b61042760048036038101906104229190613e13565b610f3c565b6040516104349190614cfe565b60405180910390f35b6104576004803603810190610452919061422b565b610f83565b005b610461611731565b60405161046e9190615197565b60405180910390f35b610491600480360381019061048c9190614120565b611737565b60405161049e9190614ce3565b60405180910390f35b6104c160048036038101906104bc91906142a2565b6117a1565b6040516104ce919061517b565b60405180910390f35b6104df61193e565b6040516104ec9190614cfe565b60405180910390f35b61050f600480360381019061050a9190613ec9565b611945565b005b61052b600480360381019061052691906142a2565b612190565b005b610547600480360381019061054291906141e9565b6121e0565b6040516105549190614cfe565b60405180910390f35b610577600480360381019061057291906142a2565b61227b565b005b6105816122fd565b60405161058e9190615197565b60405180910390f35b6105b160048036038101906105ac9190613dd3565b612303565b6040516105be9190615197565b60405180910390f35b6105e160048036038101906105dc9190614120565b61238a565b005b6105fd60048036038101906105f891906142fc565b6123b3565b005b610619600480360381019061061491906142a2565b612a1a565b005b610635600480360381019061063091906142a2565b612a9c565b005b610651600480360381019061064c9190613ff4565b612ad9565b005b61066d6004803603810190610668919061418d565b612cbd565b60405161067a9190615197565b60405180910390f35b61069d600480360381019061069891906142a2565b612d04565b005b60006106aa82612d41565b9050919050565b7fa49807205ce4d355092ef5a8a18f56e8913cf4a201fbe287825b095693c217756106e3816106de612dbb565b612dc3565b6106eb612e60565b50565b7fa49807205ce4d355092ef5a8a18f56e8913cf4a201fbe287825b095693c217756107208161071b612dbb565b612dc3565b81600c60008573ffffffffffffffffffffffffffffffffffffffff1673ffffffffffffffffffffffffffffffffffffffff16815260200190815260200160002060006101000a81548160ff021916908315150217905550505050565b6000806000838152602001908152602001600020600101549050919050565b60035481565b6107aa8261077c565b6107bb816107b6612dbb565b612dc3565b6107c58383612f02565b505050565b60006107d685856121e0565b90506014600082815260200190815260200160002060009054906101000a900460ff1615610839576040517f08c379a000000000000000000000000000000000000000000000000000000000815260040161083090614f5b565b60405180910390fd5b6013600082815260200190815260200160002060009054906101000a900460ff161561089a576040517f08c379a000000000000000000000000000000000000000000000000000000000815260040161089190614ffb565b60405180910390fd5b6108f183838080601f016020809104026020016040519081016040528093929190818152602001838380828437600081840152601f19601f8201169050808301925050505050505082612fe290919063ffffffff16565b73ffffffffffffffffffffffffffffffffffffffff163373ffffffffffffffffffffffffffffffffffffffff161480610950575061094f7fa49807205ce4d355092ef5a8a18f56e8913cf4a201fbe287825b095693c2177533611737565b5b61095957600080fd5b60016013600083815260200190815260200160002060006101000a81548160ff0219169083151502179055505050505050565b610994612dbb565b73ffffffffffffffffffffffffffffffffffffffff168173ffffffffffffffffffffffffffffffffffffffff1614610a01576040517f08c379a00000000000000000000000000000000000000000000000000000000081526004016109f89061513b565b60405180910390fd5b610a0b82826130ac565b5050565b6000600a600083815260200190815260200160002060405180610120016040529081600082015481526020016001820160009054906101000a900473ffffffffffffffffffffffffffffffffffffffff1673ffffffffffffffffffffffffffffffffffffffff1673ffffffffffffffffffffffffffffffffffffffff1681526020016002820160009054906101000a900473ffffffffffffffffffffffffffffffffffffffff1673ffffffffffffffffffffffffffffffffffffffff1673ffffffffffffffffffffffffffffffffffffffff1681526020016003820154815260200160048201548152602001600582015481526020016006820160009054906101000a900473ffffffffffffffffffffffffffffffffffffffff1673ffffffffffffffffffffffffffffffffffffffff1673ffffffffffffffffffffffffffffffffffffffff168152602001600782015481526020016008820160009054906101000a900460ff166002811115610b8957610b88615696565b5b6002811115610b9b57610b9a615696565b5b81525050905060006002811115610bb557610bb4615696565b5b8161010001516002811115610bcd57610bcc615696565b5b14610c0d576040517f08c379a0000000000000000000000000000000000000000000000000000000008152600401610c0490614e9b565b60405180910390fd5b806020015173ffffffffffffffffffffffffffffffffffffffff163373ffffffffffffffffffffffffffffffffffffffff161480610c715750610c707fa49807205ce4d355092ef5a8a18f56e8913cf4a201fbe287825b095693c2177533611737565b5b610cb0576040517f08c379a0000000000000000000000000000000000000000000000000000000008152600401610ca790614e3b565b60405180910390fd5b6002600a600084815260200190815260200160002060080160006101000a81548160ff02191690836002811115610cea57610ce9615696565b5b0217905550817f8dd3c361eb2366ff27c2db0eb07b9261f1d052570742ab8c9a0c326f37aa576d33604051610d1f9190614bfa565b60405180910390a2601260009054906101000a900473ffffffffffffffffffffffffffffffffffffffff1673ffffffffffffffffffffffffffffffffffffffff16632ed7bae882604001513384606001518560a001516040518563ffffffff1660e01b8152600401610d949493929190614c75565b600060405180830381600087803b158015610dae57600080fd5b505af1158015610dc2573d6000803e3d6000fd5b505050505050565b6000801b610ddf81610dda612dbb565b612dc3565b81601160006101000a81548173ffffffffffffffffffffffffffffffffffffffff021916908373ffffffffffffffffffffffffffffffffffffffff1602179055505050565b6000600160009054906101000a900460ff16905090565b60075481565b7fa49807205ce4d355092ef5a8a18f56e8913cf4a201fbe287825b095693c21775610e7381610e6e612dbb565b612dc3565b81600e60008573ffffffffffffffffffffffffffffffffffffffff1673ffffffffffffffffffffffffffffffffffffffff16815260200190815260200160002060006101000a81548160ff021916908315150217905550505050565b7fa49807205ce4d355092ef5a8a18f56e8913cf4a201fbe287825b095693c2177581565b60055481565b7fa49807205ce4d355092ef5a8a18f56e8913cf4a201fbe287825b095693c21775610f2b81610f26612dbb565b612dc3565b610f3361318d565b50565b60065481565b6000308989898989898989604051602001610f5f99989796959493929190614ab4565b60405160208183030381529060405280519060200120905098975050505050505050565b836020016020810190610f969190613da6565b73ffffffffffffffffffffffffffffffffffffffff163373ffffffffffffffffffffffffffffffffffffffff1614611003576040517f08c379a0000000000000000000000000000000000000000000000000000000008152600401610ffa9061509b565b60405180910390fd5b600c600085604001602081019061101a9190613da6565b73ffffffffffffffffffffffffffffffffffffffff1673ffffffffffffffffffffffffffffffffffffffff16815260200190815260200160002060009054906101000a900460ff166110a1576040517f08c379a000000000000000000000000000000000000000000000000000000000815260040161109890614f9b565b60405180910390fd5b600e60008560a00160208101906110b89190613da6565b73ffffffffffffffffffffffffffffffffffffffff1673ffffffffffffffffffffffffffffffffffffffff16815260200190815260200160002060009054906101000a900460ff1661113f576040517f08c379a000000000000000000000000000000000000000000000000000000000815260040161113690614edb565b60405180910390fd5b428460e0013511611185576040517f08c379a000000000000000000000000000000000000000000000000000000000815260040161117c9061503b565b60405180910390fd5b600061119185856121e0565b90506013600082815260200190815260200160002060009054906101000a900460ff161580156111df57506014600082815260200190815260200160002060009054906101000a900460ff16155b61121e576040517f08c379a00000000000000000000000000000000000000000000000000000000081526004016112159061515b565b60405180910390fd5b600061127f84848080601f016020809104026020016040519081016040528093929190818152602001838380828437600081840152601f19601f820116905080830192505050505050506112718461322f565b612fe290919063ffffffff16565b90508560000160208101906112949190613da6565b73ffffffffffffffffffffffffffffffffffffffff168173ffffffffffffffffffffffffffffffffffffffff1614611301576040517f08c379a00000000000000000000000000000000000000000000000000000000081526004016112f890614e5b565b60405180910390fd5b6007548660c00135101561134a576040517f08c379a000000000000000000000000000000000000000000000000000000000815260040161134190614fbb565b60405180910390fd5b60008061135a8860c0013561325f565b91509150808860c0013561136e9190615343565b8860a00160208101906113819190613da6565b73ffffffffffffffffffffffffffffffffffffffff1663dd62ed3e8a60000160208101906113af9190613da6565b306040518363ffffffff1660e01b81526004016113cd929190614c15565b60206040518083038186803b1580156113e557600080fd5b505afa1580156113f9573d6000803e3d6000fd5b505050506040513d601f19601f8201168201806040525081019061141d91906142cf565b101561145e576040517f08c379a00000000000000000000000000000000000000000000000000000000081526004016114559061511b565b60405180910390fd5b60016014600086815260200190815260200160002060006101000a81548160ff021916908315150217905550601260009054906101000a900473ffffffffffffffffffffffffffffffffffffffff1673ffffffffffffffffffffffffffffffffffffffff166340fd58298960400160208101906114db9190613da6565b338b606001358c608001356040518563ffffffff1660e01b81526004016115059493929190614c75565b600060405180830381600087803b15801561151f57600080fd5b505af1158015611533573d6000803e3d6000fd5b505050508760a001602081019061154a9190613da6565b73ffffffffffffffffffffffffffffffffffffffff166323b872dd8960000160208101906115789190613da6565b30848c60c001356115899190615343565b6040518463ffffffff1660e01b81526004016115a793929190614c3e565b602060405180830381600087803b1580156115c157600080fd5b505af11580156115d5573d6000803e3d6000fd5b505050506040513d601f19601f820116820180604052508101906115f991906140c6565b5060006116368960c0013584848c60400160208101906116199190613da6565b8d606001358e60a00160208101906116319190613da6565b6132a1565b90506116678960a001602081019061164e9190613da6565b8a60200160208101906116619190613da6565b83613573565b601260009054906101000a900473ffffffffffffffffffffffffffffffffffffffff1673ffffffffffffffffffffffffffffffffffffffff16632ed7bae88a60400160208101906116b89190613da6565b8b60000160208101906116cb9190613da6565b8c606001358d608001356040518563ffffffff1660e01b81526004016116f49493929190614c75565b600060405180830381600087803b15801561170e57600080fd5b505af1158015611722573d6000803e3d6000fd5b50505050505050505050505050565b60025481565b600080600084815260200190815260200160002060000160008373ffffffffffffffffffffffffffffffffffffffff1673ffffffffffffffffffffffffffffffffffffffff16815260200190815260200160002060009054906101000a900460ff16905092915050565b6117a9613a3c565b600a600083815260200190815260200160002060405180610120016040529081600082015481526020016001820160009054906101000a900473ffffffffffffffffffffffffffffffffffffffff1673ffffffffffffffffffffffffffffffffffffffff1673ffffffffffffffffffffffffffffffffffffffff1681526020016002820160009054906101000a900473ffffffffffffffffffffffffffffffffffffffff1673ffffffffffffffffffffffffffffffffffffffff1673ffffffffffffffffffffffffffffffffffffffff1681526020016003820154815260200160048201548152602001600582015481526020016006820160009054906101000a900473ffffffffffffffffffffffffffffffffffffffff1673ffffffffffffffffffffffffffffffffffffffff1673ffffffffffffffffffffffffffffffffffffffff168152602001600782015481526020016008820160009054906101000a900460ff16600281111561192157611920615696565b5b600281111561193357611932615696565b5b815250509050919050565b6000801b81565b61194d610e24565b1561198d576040517f08c379a000000000000000000000000000000000000000000000000000000000815260040161198490614f1b565b60405180910390fd5b6007548510156119d2576040517f08c379a00000000000000000000000000000000000000000000000000000000081526004016119c990614fbb565b60405180910390fd5b600554851115611a17576040517f08c379a0000000000000000000000000000000000000000000000000000000008152600401611a0e90614f3b565b60405180910390fd5b600654871115611a5c576040517f08c379a0000000000000000000000000000000000000000000000000000000008152600401611a5390614f7b565b60405180910390fd5b600c60008a73ffffffffffffffffffffffffffffffffffffffff1673ffffffffffffffffffffffffffffffffffffffff16815260200190815260200160002060009054906101000a900460ff16611ae8576040517f08c379a0000000000000000000000000000000000000000000000000000000008152600401611adf90614f9b565b60405180910390fd5b600e60008773ffffffffffffffffffffffffffffffffffffffff1673ffffffffffffffffffffffffffffffffffffffff16815260200190815260200160002060009054906101000a900460ff16611b74576040517f08c379a0000000000000000000000000000000000000000000000000000000008152600401611b6b90614edb565b60405180910390fd5b611b9e7fa49807205ce4d355092ef5a8a18f56e8913cf4a201fbe287825b095693c2177533611737565b611d8d57428411611be4576040517f08c379a0000000000000000000000000000000000000000000000000000000008152600401611bdb9061501b565b60405180910390fd5b6000611bf68b8b8b8b8b8b8b8b610f3c565b90506010600082815260200190815260200160002060009054906101000a900460ff1615611c59576040517f08c379a0000000000000000000000000000000000000000000000000000000008152600401611c509061507b565b60405180910390fd5b6000611cba84848080601f016020809104026020016040519081016040528093929190818152602001838380828437600081840152601f19601f82011690508083019250505050505050611cac8461322f565b612fe290919063ffffffff16565b9050600073ffffffffffffffffffffffffffffffffffffffff168173ffffffffffffffffffffffffffffffffffffffff1614158015611d1f5750611d1e7fa49807205ce4d355092ef5a8a18f56e8913cf4a201fbe287825b095693c2177582611737565b5b611d5e576040517f08c379a0000000000000000000000000000000000000000000000000000000008152600401611d55906150db565b60405180910390fd5b60016010600084815260200190815260200160002060006101000a81548160ff02191690831515021790555050505b8873ffffffffffffffffffffffffffffffffffffffff166301ffc9a77fd9b67a26000000000000000000000000000000000000000000000000000000006040518263ffffffff1660e01b8152600401611de69190614d5e565b60206040518083038186803b158015611dfe57600080fd5b505afa158015611e12573d6000803e3d6000fd5b505050506040513d601f19601f82011682018060405250810190611e3691906140c6565b611e3f57600196505b601260009054906101000a900473ffffffffffffffffffffffffffffffffffffffff1673ffffffffffffffffffffffffffffffffffffffff166340fd58298a8c8b8b6040518563ffffffff1660e01b8152600401611ea09493929190614c75565b600060405180830381600087803b158015611eba57600080fd5b505af1158015611ece573d6000803e3d6000fd5b5050505060096000815480929190611ee5906155b7565b9190505550600060405180610120016040528060095481526020018c73ffffffffffffffffffffffffffffffffffffffff1681526020018b73ffffffffffffffffffffffffffffffffffffffff1681526020018a81526020018981526020018981526020018873ffffffffffffffffffffffffffffffffffffffff16815260200187815260200160006002811115611f8057611f7f615696565b5b815250905080600a600060095481526020019081526020016000206000820151816000015560208201518160010160006101000a81548173ffffffffffffffffffffffffffffffffffffffff021916908373ffffffffffffffffffffffffffffffffffffffff16021790555060408201518160020160006101000a81548173ffffffffffffffffffffffffffffffffffffffff021916908373ffffffffffffffffffffffffffffffffffffffff160217905550606082015181600301556080820151816004015560a0820151816005015560c08201518160060160006101000a81548173ffffffffffffffffffffffffffffffffffffffff021916908373ffffffffffffffffffffffffffffffffffffffff16021790555060e082015181600701556101008201518160080160006101000a81548160ff021916908360028111156120ce576120cd615696565b5b021790555090505060088a8a6040516020016120eb929190614b57565b6040516020818303038152906040526040516121079190614b83565b908152602001604051809103902060095490806001815401808255809150506001900390600052602060002001600090919091909150557f8c043961a2a3de4608ff0a3647fa6bdef2510bbf7ea923cd9b68bd43de4040e46009548c8c8c8c8c8c60405161217b97969594939291906151b2565b60405180910390a15050505050505050505050565b7fa49807205ce4d355092ef5a8a18f56e8913cf4a201fbe287825b095693c217756121c2816121bd612dbb565b612dc3565b670de0b6b3a7640000826121d691906153ca565b6005819055505050565b6000308360000160208101906121f69190613da6565b8460200160208101906122099190613da6565b85604001602081019061221c9190613da6565b866060013587608001358860a00160208101906122399190613da6565b8960c001358a60e001358a60405160200161225d9a99989796959493929190614a00565b60405160208183030381529060405280519060200120905092915050565b7fa49807205ce4d355092ef5a8a18f56e8913cf4a201fbe287825b095693c217756122ad816122a8612dbb565b612dc3565b6004548211156122f2576040517f08c379a00000000000000000000000000000000000000000000000000000000081526004016122e9906150bb565b60405180910390fd5b816003819055505050565b60045481565b6000600b60008373ffffffffffffffffffffffffffffffffffffffff1673ffffffffffffffffffffffffffffffffffffffff16815260200190815260200160002060008473ffffffffffffffffffffffffffffffffffffffff1673ffffffffffffffffffffffffffffffffffffffff16815260200190815260200160002054905092915050565b6123938261077c565b6123a48161239f612dbb565b612dc3565b6123ae83836130ac565b505050565b6123bb610e24565b156123fb576040517f08c379a00000000000000000000000000000000000000000000000000000000081526004016123f290614f1b565b60405180910390fd5b6000600a600084815260200190815260200160002060405180610120016040529081600082015481526020016001820160009054906101000a900473ffffffffffffffffffffffffffffffffffffffff1673ffffffffffffffffffffffffffffffffffffffff1673ffffffffffffffffffffffffffffffffffffffff1681526020016002820160009054906101000a900473ffffffffffffffffffffffffffffffffffffffff1673ffffffffffffffffffffffffffffffffffffffff1673ffffffffffffffffffffffffffffffffffffffff1681526020016003820154815260200160048201548152602001600582015481526020016006820160009054906101000a900473ffffffffffffffffffffffffffffffffffffffff1673ffffffffffffffffffffffffffffffffffffffff1673ffffffffffffffffffffffffffffffffffffffff168152602001600782015481526020016008820160009054906101000a900460ff16600281111561257557612574615696565b5b600281111561258757612586615696565b5b815250509050600060028111156125a1576125a0615696565b5b81610100015160028111156125b9576125b8615696565b5b146125f9576040517f08c379a00000000000000000000000000000000000000000000000000000000081526004016125f090614e7b565b60405180910390fd5b8060a00151821115612640576040517f08c379a000000000000000000000000000000000000000000000000000000000815260040161263790614ddb565b60405180910390fd5b806020015173ffffffffffffffffffffffffffffffffffffffff163373ffffffffffffffffffffffffffffffffffffffff1614156126b3576040517f08c379a00000000000000000000000000000000000000000000000000000000081526004016126aa9061505b565b60405180910390fd5b6000828260e001516126c591906153ca565b905060008260c0015190506000806126dc8461325f565b9150915060008373ffffffffffffffffffffffffffffffffffffffff1663dd62ed3e33306040518363ffffffff1660e01b815260040161271d929190614c15565b60206040518083038186803b15801561273557600080fd5b505afa158015612749573d6000803e3d6000fd5b505050506040513d601f19601f8201168201806040525081019061276d91906142cf565b9050818561277b9190615343565b8110156127bd576040517f08c379a00000000000000000000000000000000000000000000000000000000081526004016127b490614efb565b60405180910390fd5b8373ffffffffffffffffffffffffffffffffffffffff166323b872dd333085896127e79190615343565b6040518463ffffffff1660e01b815260040161280593929190614c3e565b602060405180830381600087803b15801561281f57600080fd5b505af1158015612833573d6000803e3d6000fd5b505050506040513d601f19601f8201168201806040525081019061285791906140c6565b506000878760a0015161286a9190615424565b905080600a60008b8152602001908152602001600020600501819055506000811415612907576001600a60008b815260200190815260200160002060080160006101000a81548160ff021916908360028111156128ca576128c9615696565b5b02179055507f522881958b3c4a6fc0840ad3b7fb947b881edc28c004245a62541647422ade97896040516128fe9190615197565b60405180910390a15b60006129238786868b604001518c606001518d60c001516132a1565b90506129388860c00151896020015183613573565b601260009054906101000a900473ffffffffffffffffffffffffffffffffffffffff1673ffffffffffffffffffffffffffffffffffffffff16632ed7bae88960400151338b606001518d6040518563ffffffff1660e01b81526004016129a19493929190614c75565b600060405180830381600087803b1580156129bb57600080fd5b505af11580156129cf573d6000803e3d6000fd5b505050507f3b599f6217e39be59216b60e543ce0d4c7d534fe64dd9d962334924e7819894e8a338b604051612a0693929190615221565b60405180910390a150505050505050505050565b7fa49807205ce4d355092ef5a8a18f56e8913cf4a201fbe287825b095693c21775612a4c81612a47612dbb565b612dc3565b600454821115612a91576040517f08c379a0000000000000000000000000000000000000000000000000000000008152600401612a88906150bb565b60405180910390fd5b816002819055505050565b7fa49807205ce4d355092ef5a8a18f56e8913cf4a201fbe287825b095693c21775612ace81612ac9612dbb565b612dc3565b816006819055505050565b80600b60003373ffffffffffffffffffffffffffffffffffffffff1673ffffffffffffffffffffffffffffffffffffffff16815260200190815260200160002060008473ffffffffffffffffffffffffffffffffffffffff1673ffffffffffffffffffffffffffffffffffffffff168152602001908152602001600020541015612b98576040517f08c379a0000000000000000000000000000000000000000000000000000000008152600401612b8f906150fb565b60405180910390fd5b80600b60003373ffffffffffffffffffffffffffffffffffffffff1673ffffffffffffffffffffffffffffffffffffffff16815260200190815260200160002060008473ffffffffffffffffffffffffffffffffffffffff1673ffffffffffffffffffffffffffffffffffffffff1681526020019081526020016000206000828254612c249190615424565b925050819055508173ffffffffffffffffffffffffffffffffffffffff1663a9059cbb33836040518363ffffffff1660e01b8152600401612c66929190614cba565b602060405180830381600087803b158015612c8057600080fd5b505af1158015612c94573d6000803e3d6000fd5b505050506040513d601f19601f82011682018060405250810190612cb891906140c6565b505050565b6008828051602081018201805184825260208301602085012081835280955050505050508181548110612cef57600080fd5b90600052602060002001600091509150505481565b7fa49807205ce4d355092ef5a8a18f56e8913cf4a201fbe287825b095693c21775612d3681612d31612dbb565b612dc3565b816005819055505050565b60007f7965db0b000000000000000000000000000000000000000000000000000000007bffffffffffffffffffffffffffffffffffffffffffffffffffffffff1916827bffffffffffffffffffffffffffffffffffffffffffffffffffffffff19161480612db45750612db38261360b565b5b9050919050565b600033905090565b612dcd8282611737565b612e5c57612df28173ffffffffffffffffffffffffffffffffffffffff166014613675565b612e008360001c6020613675565b604051602001612e11929190614bc0565b6040516020818303038152906040526040517f08c379a0000000000000000000000000000000000000000000000000000000008152600401612e539190614d79565b60405180910390fd5b5050565b612e68610e24565b612ea7576040517f08c379a0000000000000000000000000000000000000000000000000000000008152600401612e9e90614dfb565b60405180910390fd5b6000600160006101000a81548160ff0219169083151502179055507f5db9ee0a495bf2e6ff9c91a7834c1ba4fdd244a5e8aa4e537bd38aeae4b073aa612eeb612dbb565b604051612ef89190614bfa565b60405180910390a1565b612f0c8282611737565b612fde57600160008084815260200190815260200160002060000160008373ffffffffffffffffffffffffffffffffffffffff1673ffffffffffffffffffffffffffffffffffffffff16815260200190815260200160002060006101000a81548160ff021916908315150217905550612f83612dbb565b73ffffffffffffffffffffffffffffffffffffffff168173ffffffffffffffffffffffffffffffffffffffff16837f2f8788117e7eff1d82e926ec794901d17c78024a50270940304540a733656f0d60405160405180910390a45b5050565b60008060008060418551141561300f576020850151925060408501519150606085015160001a9050613095565b604085511415613059576040850151602086015193507f7fffffffffffffffffffffffffffffffffffffffffffffffffffffffffffffff81169250601b8160ff1c01915050613094565b6040517f08c379a000000000000000000000000000000000000000000000000000000000815260040161308b90614e1b565b60405180910390fd5b5b6130a1868285856138b1565b935050505092915050565b6130b68282611737565b1561318957600080600084815260200190815260200160002060000160008373ffffffffffffffffffffffffffffffffffffffff1673ffffffffffffffffffffffffffffffffffffffff16815260200190815260200160002060006101000a81548160ff02191690831515021790555061312e612dbb565b73ffffffffffffffffffffffffffffffffffffffff168173ffffffffffffffffffffffffffffffffffffffff16837ff6391f5c32d9c69d2a47ea670b442974b53935d1edc7fd64eb21e047a839171b60405160405180910390a45b5050565b613195610e24565b156131d5576040517f08c379a00000000000000000000000000000000000000000000000000000000081526004016131cc90614f1b565b60405180910390fd5b60018060006101000a81548160ff0219169083151502179055507f62e78cea01bee320cd4e420270b5ea74000d11b0c9f74754ebdbfc544b05a258613218612dbb565b6040516132259190614bfa565b60405180910390a1565b6000816040516020016132429190614b9a565b604051602081830303815290604052805190602001209050919050565b6000806004546002548461327391906153ca565b61327d9190615399565b90506004546003548461329091906153ca565b61329a9190615399565b9150915091565b6000858711156132ba5785876132b79190615424565b96505b8690506132f582601160009054906101000a900473ffffffffffffffffffffffffffffffffffffffff1687896132f09190615343565b613573565b8373ffffffffffffffffffffffffffffffffffffffff166301ffc9a763b779958460e01b6040518263ffffffff1660e01b81526004016133359190614d5e565b60206040518083038186803b15801561334d57600080fd5b505afa158015613361573d6000803e3d6000fd5b505050506040513d601f19601f8201168201806040525081019061338591906140c6565b61338e57613569565b600084905060008173ffffffffffffffffffffffffffffffffffffffff1663b9c4d9fb866040518263ffffffff1660e01b81526004016133ce9190615197565b60006040518083038186803b1580156133e657600080fd5b505afa1580156133fa573d6000803e3d6000fd5b505050506040513d6000823e3d601f19601f820116820180604052508101906134239190614034565b905060008273ffffffffffffffffffffffffffffffffffffffff16630ebd4c7f876040518263ffffffff1660e01b81526004016134609190615197565b60006040518083038186803b15801561347857600080fd5b505afa15801561348c573d6000803e3d6000fd5b505050506040513d6000823e3d601f19601f820116820180604052508101906134b5919061407d565b905060005b81518110156135645760008514156134d157613564565b60006004548383815181106134e9576134e86156c5565b5b60200260200101518d6134fc91906153ca565b6135069190615399565b90508581111561351c578590506000955061352b565b80866135289190615424565b95505b61355087858481518110613542576135416156c5565b5b602002602001015183613573565b50808061355c906155b7565b9150506134ba565b505050505b9695505050505050565b80600b60008473ffffffffffffffffffffffffffffffffffffffff1673ffffffffffffffffffffffffffffffffffffffff16815260200190815260200160002060008573ffffffffffffffffffffffffffffffffffffffff1673ffffffffffffffffffffffffffffffffffffffff16815260200190815260200160002060008282546135ff9190615343565b92505081905550505050565b60007f01ffc9a7000000000000000000000000000000000000000000000000000000007bffffffffffffffffffffffffffffffffffffffffffffffffffffffff1916827bffffffffffffffffffffffffffffffffffffffffffffffffffffffff1916149050919050565b60606000600283600261368891906153ca565b6136929190615343565b67ffffffffffffffff8111156136ab576136aa6156f4565b5b6040519080825280601f01601f1916602001820160405280156136dd5781602001600182028036833780820191505090505b5090507f300000000000000000000000000000000000000000000000000000000000000081600081518110613715576137146156c5565b5b60200101907effffffffffffffffffffffffffffffffffffffffffffffffffffffffffffff1916908160001a9053507f780000000000000000000000000000000000000000000000000000000000000081600181518110613779576137786156c5565b5b60200101907effffffffffffffffffffffffffffffffffffffffffffffffffffffffffffff1916908160001a905350600060018460026137b991906153ca565b6137c39190615343565b90505b6001811115613863577f3031323334353637383961626364656600000000000000000000000000000000600f861660108110613805576138046156c5565b5b1a60f81b82828151811061381c5761381b6156c5565b5b60200101907effffffffffffffffffffffffffffffffffffffffffffffffffffffffffffff1916908160001a905350600485901c94508061385c9061555c565b90506137c6565b50600084146138a7576040517f08c379a000000000000000000000000000000000000000000000000000000000815260040161389e90614dbb565b60405180910390fd5b8091505092915050565b60007f7fffffffffffffffffffffffffffffff5d576e7357a4501ddfe92f46681b20a08260001c1115613919576040517f08c379a000000000000000000000000000000000000000000000000000000000815260040161391090614ebb565b60405180910390fd5b601b8460ff16148061392e5750601c8460ff16145b61396d576040517f08c379a000000000000000000000000000000000000000000000000000000000815260040161396490614fdb565b60405180910390fd5b6000600186868686604051600081526020016040526040516139929493929190614d19565b6020604051602081039080840390855afa1580156139b4573d6000803e3d6000fd5b505050602060405103519050600073ffffffffffffffffffffffffffffffffffffffff168173ffffffffffffffffffffffffffffffffffffffff161415613a30576040517f08c379a0000000000000000000000000000000000000000000000000000000008152600401613a2790614d9b565b60405180910390fd5b80915050949350505050565b60405180610120016040528060008152602001600073ffffffffffffffffffffffffffffffffffffffff168152602001600073ffffffffffffffffffffffffffffffffffffffff168152602001600081526020016000815260200160008152602001600073ffffffffffffffffffffffffffffffffffffffff1681526020016000815260200160006002811115613ad657613ad5615696565b5b81525090565b6000613aef613aea8461527d565b615258565b90508083825260208201905082856020860282011115613b1257613b11615732565b5b60005b85811015613b425781613b288882613c13565b845260208401935060208301925050600181019050613b15565b5050509392505050565b6000613b5f613b5a846152a9565b615258565b90508083825260208201905082856020860282011115613b8257613b81615732565b5b60005b85811015613bb25781613b988882613d91565b845260208401935060208301925050600181019050613b85565b5050509392505050565b6000613bcf613bca846152d5565b615258565b905082815260208101848484011115613beb57613bea615737565b5b613bf684828561551a565b509392505050565b600081359050613c0d81615e66565b92915050565b600081519050613c2281615e7d565b92915050565b600082601f830112613c3d57613c3c615728565b5b8151613c4d848260208601613adc565b91505092915050565b600082601f830112613c6b57613c6a615728565b5b8151613c7b848260208601613b4c565b91505092915050565b600081359050613c9381615e94565b92915050565b600081519050613ca881615e94565b92915050565b600081359050613cbd81615eab565b92915050565b600081359050613cd281615ec2565b92915050565b60008083601f840112613cee57613ced615728565b5b8235905067ffffffffffffffff811115613d0b57613d0a615723565b5b602083019150836001820283011115613d2757613d26615732565b5b9250929050565b600082601f830112613d4357613d42615728565b5b8135613d53848260208601613bbc565b91505092915050565b60006101008284031215613d7357613d7261572d565b5b81905092915050565b600081359050613d8b81615ed9565b92915050565b600081519050613da081615ed9565b92915050565b600060208284031215613dbc57613dbb615741565b5b6000613dca84828501613bfe565b91505092915050565b60008060408385031215613dea57613de9615741565b5b6000613df885828601613bfe565b9250506020613e0985828601613bfe565b9150509250929050565b600080600080600080600080610100898b031215613e3457613e33615741565b5b6000613e428b828c01613bfe565b9850506020613e538b828c01613bfe565b9750506040613e648b828c01613d7c565b9650506060613e758b828c01613d7c565b9550506080613e868b828c01613bfe565b94505060a0613e978b828c01613d7c565b93505060c0613ea88b828c01613d7c565b92505060e0613eb98b828c01613d7c565b9150509295985092959890939650565b6000806000806000806000806000806101208b8d031215613eed57613eec615741565b5b6000613efb8d828e01613bfe565b9a50506020613f0c8d828e01613bfe565b9950506040613f1d8d828e01613d7c565b9850506060613f2e8d828e01613d7c565b9750506080613f3f8d828e01613bfe565b96505060a0613f508d828e01613d7c565b95505060c0613f618d828e01613d7c565b94505060e0613f728d828e01613d7c565b9350506101008b013567ffffffffffffffff811115613f9457613f9361573c565b5b613fa08d828e01613cd8565b92509250509295989b9194979a5092959850565b60008060408385031215613fcb57613fca615741565b5b6000613fd985828601613bfe565b9250506020613fea85828601613c84565b9150509250929050565b6000806040838503121561400b5761400a615741565b5b600061401985828601613bfe565b925050602061402a85828601613d7c565b9150509250929050565b60006020828403121561404a57614049615741565b5b600082015167ffffffffffffffff8111156140685761406761573c565b5b61407484828501613c28565b91505092915050565b60006020828403121561409357614092615741565b5b600082015167ffffffffffffffff8111156140b1576140b061573c565b5b6140bd84828501613c56565b91505092915050565b6000602082840312156140dc576140db615741565b5b60006140ea84828501613c99565b91505092915050565b60006020828403121561410957614108615741565b5b600061411784828501613cae565b91505092915050565b6000806040838503121561413757614136615741565b5b600061414585828601613cae565b925050602061415685828601613bfe565b9150509250929050565b60006020828403121561417657614175615741565b5b600061418484828501613cc3565b91505092915050565b600080604083850312156141a4576141a3615741565b5b600083013567ffffffffffffffff8111156141c2576141c161573c565b5b6141ce85828601613d2e565b92505060206141df85828601613d7c565b9150509250929050565b600080610120838503121561420157614200615741565b5b600061420f85828601613d5c565b92505061010061422185828601613d7c565b9150509250929050565b600080600080610140858703121561424657614245615741565b5b600061425487828801613d5c565b94505061010061426687828801613d7c565b93505061012085013567ffffffffffffffff8111156142885761428761573c565b5b61429487828801613cd8565b925092505092959194509250565b6000602082840312156142b8576142b7615741565b5b60006142c684828501613d7c565b91505092915050565b6000602082840312156142e5576142e4615741565b5b60006142f384828501613d91565b91505092915050565b6000806040838503121561431357614312615741565b5b600061432185828601613d7c565b925050602061433285828601613d7c565b9150509250929050565b61434581615458565b82525050565b61435481615458565b82525050565b61436b61436682615458565b615600565b82525050565b61437a8161547c565b82525050565b61438981615488565b82525050565b6143a061439b82615488565b615612565b82525050565b6143af81615492565b82525050565b60006143c082615306565b6143ca818561531c565b93506143da818560208601615529565b80840191505092915050565b6143ef81615508565b82525050565b600061440082615311565b61440a8185615327565b935061441a818560208601615529565b61442381615746565b840191505092915050565b600061443982615311565b6144438185615338565b9350614453818560208601615529565b80840191505092915050565b600061446c601883615327565b915061447782615764565b602082019050919050565b600061448f602083615327565b915061449a8261578d565b602082019050919050565b60006144b2601b83615327565b91506144bd826157b6565b602082019050919050565b60006144d5601483615327565b91506144e0826157df565b602082019050919050565b60006144f8601f83615327565b915061450382615808565b602082019050919050565b600061451b601c83615338565b915061452682615831565b601c82019050919050565b600061453e602983615327565b91506145498261585a565b604082019050919050565b6000614561602683615327565b915061456c826158a9565b604082019050919050565b6000614584601283615327565b915061458f826158f8565b602082019050919050565b60006145a7601f83615327565b91506145b282615921565b602082019050919050565b60006145ca602283615327565b91506145d58261594a565b604082019050919050565b60006145ed601883615327565b91506145f882615999565b602082019050919050565b6000614610601583615327565b915061461b826159c2565b602082019050919050565b6000614633601083615327565b915061463e826159eb565b602082019050919050565b6000614656601283615327565b915061466182615a14565b602082019050919050565b6000614679602183615327565b915061468482615a3d565b604082019050919050565b600061469c601983615327565b91506146a782615a8c565b602082019050919050565b60006146bf601e83615327565b91506146ca82615ab5565b602082019050919050565b60006146e2601183615327565b91506146ed82615ade565b602082019050919050565b6000614705602283615327565b915061471082615b07565b604082019050919050565b6000614728602183615327565b915061473382615b56565b604082019050919050565b600061474b601183615327565b915061475682615ba5565b602082019050919050565b600061476e601183615327565b915061477982615bce565b602082019050919050565b6000614791601783615327565b915061479c82615bf7565b602082019050919050565b60006147b4601383615327565b91506147bf82615c20565b602082019050919050565b60006147d7601d83615327565b91506147e282615c49565b602082019050919050565b60006147fa601783615338565b915061480582615c72565b601782019050919050565b600061481d602a83615327565b915061482882615c9b565b604082019050919050565b6000614840601283615327565b915061484b82615cea565b602082019050919050565b6000614863602183615327565b915061486e82615d13565b604082019050919050565b6000614886601f83615327565b915061489182615d62565b602082019050919050565b60006148a9601183615338565b91506148b482615d8b565b601182019050919050565b60006148cc602f83615327565b91506148d782615db4565b604082019050919050565b60006148ef602683615327565b91506148fa82615e03565b604082019050919050565b6101208201600082015161491c60008501826149bc565b50602082015161492f602085018261433c565b506040820151614942604085018261433c565b50606082015161495560608501826149bc565b50608082015161496860808501826149bc565b5060a082015161497b60a08501826149bc565b5060c082015161498e60c085018261433c565b5060e08201516149a160e08501826149bc565b506101008201516149b66101008501826143e6565b50505050565b6149c5816154f1565b82525050565b6149d4816154f1565b82525050565b6149eb6149e6826154f1565b61562e565b82525050565b6149fa816154fb565b82525050565b6000614a0c828d61435a565b601482019150614a1c828c61435a565b601482019150614a2c828b61435a565b601482019150614a3c828a61435a565b601482019150614a4c82896149da565b602082019150614a5c82886149da565b602082019150614a6c828761435a565b601482019150614a7c82866149da565b602082019150614a8c82856149da565b602082019150614a9c82846149da565b6020820191508190509b9a5050505050505050505050565b6000614ac0828c61435a565b601482019150614ad0828b61435a565b601482019150614ae0828a61435a565b601482019150614af082896149da565b602082019150614b0082886149da565b602082019150614b10828761435a565b601482019150614b2082866149da565b602082019150614b3082856149da565b602082019150614b4082846149da565b6020820191508190509a9950505050505050505050565b6000614b63828561435a565b601482019150614b7382846149da565b6020820191508190509392505050565b6000614b8f82846143b5565b915081905092915050565b6000614ba58261450e565b9150614bb1828461438f565b60208201915081905092915050565b6000614bcb826147ed565b9150614bd7828561442e565b9150614be28261489c565b9150614bee828461442e565b91508190509392505050565b6000602082019050614c0f600083018461434b565b92915050565b6000604082019050614c2a600083018561434b565b614c37602083018461434b565b9392505050565b6000606082019050614c53600083018661434b565b614c60602083018561434b565b614c6d60408301846149cb565b949350505050565b6000608082019050614c8a600083018761434b565b614c97602083018661434b565b614ca460408301856149cb565b614cb160608301846149cb565b95945050505050565b6000604082019050614ccf600083018561434b565b614cdc60208301846149cb565b9392505050565b6000602082019050614cf86000830184614371565b92915050565b6000602082019050614d136000830184614380565b92915050565b6000608082019050614d2e6000830187614380565b614d3b60208301866149f1565b614d486040830185614380565b614d556060830184614380565b95945050505050565b6000602082019050614d7360008301846143a6565b92915050565b60006020820190508181036000830152614d9381846143f5565b905092915050565b60006020820190508181036000830152614db48161445f565b9050919050565b60006020820190508181036000830152614dd481614482565b9050919050565b60006020820190508181036000830152614df4816144a5565b9050919050565b60006020820190508181036000830152614e14816144c8565b9050919050565b60006020820190508181036000830152614e34816144eb565b9050919050565b60006020820190508181036000830152614e5481614531565b9050919050565b60006020820190508181036000830152614e7481614554565b9050919050565b60006020820190508181036000830152614e9481614577565b9050919050565b60006020820190508181036000830152614eb48161459a565b9050919050565b60006020820190508181036000830152614ed4816145bd565b9050919050565b60006020820190508181036000830152614ef4816145e0565b9050919050565b60006020820190508181036000830152614f1481614603565b9050919050565b60006020820190508181036000830152614f3481614626565b9050919050565b60006020820190508181036000830152614f5481614649565b9050919050565b60006020820190508181036000830152614f748161466c565b9050919050565b60006020820190508181036000830152614f948161468f565b9050919050565b60006020820190508181036000830152614fb4816146b2565b9050919050565b60006020820190508181036000830152614fd4816146d5565b9050919050565b60006020820190508181036000830152614ff4816146f8565b9050919050565b600060208201905081810360008301526150148161471b565b9050919050565b600060208201905081810360008301526150348161473e565b9050919050565b6000602082019050818103600083015261505481614761565b9050919050565b6000602082019050818103600083015261507481614784565b9050919050565b60006020820190508181036000830152615094816147a7565b9050919050565b600060208201905081810360008301526150b4816147ca565b9050919050565b600060208201905081810360008301526150d481614810565b9050919050565b600060208201905081810360008301526150f481614833565b9050919050565b6000602082019050818103600083015261511481614856565b9050919050565b6000602082019050818103600083015261513481614879565b9050919050565b60006020820190508181036000830152615154816148bf565b9050919050565b60006020820190508181036000830152615174816148e2565b9050919050565b6000610120820190506151916000830184614905565b92915050565b60006020820190506151ac60008301846149cb565b92915050565b600060e0820190506151c7600083018a6149cb565b6151d4602083018961434b565b6151e1604083018861434b565b6151ee60608301876149cb565b6151fb60808301866149cb565b61520860a083018561434b565b61521560c08301846149cb565b98975050505050505050565b600060608201905061523660008301866149cb565b615243602083018561434b565b61525060408301846149cb565b949350505050565b6000615262615273565b905061526e8282615586565b919050565b6000604051905090565b600067ffffffffffffffff821115615298576152976156f4565b5b602082029050602081019050919050565b600067ffffffffffffffff8211156152c4576152c36156f4565b5b602082029050602081019050919050565b600067ffffffffffffffff8211156152f0576152ef6156f4565b5b6152f982615746565b9050602081019050919050565b600081519050919050565b600081519050919050565b600081905092915050565b600082825260208201905092915050565b600081905092915050565b600061534e826154f1565b9150615359836154f1565b9250827fffffffffffffffffffffffffffffffffffffffffffffffffffffffffffffffff0382111561538e5761538d615638565b5b828201905092915050565b60006153a4826154f1565b91506153af836154f1565b9250826153bf576153be615667565b5b828204905092915050565b60006153d5826154f1565b91506153e0836154f1565b9250817fffffffffffffffffffffffffffffffffffffffffffffffffffffffffffffffff048311821515161561541957615418615638565b5b828202905092915050565b600061542f826154f1565b915061543a836154f1565b92508282101561544d5761544c615638565b5b828203905092915050565b6000615463826154d1565b9050919050565b6000615475826154d1565b9050919050565b60008115159050919050565b6000819050919050565b60007fffffffff0000000000000000000000000000000000000000000000000000000082169050919050565b60008190506154cc82615e52565b919050565b600073ffffffffffffffffffffffffffffffffffffffff82169050919050565b6000819050919050565b600060ff82169050919050565b6000615513826154be565b9050919050565b82818337600083830152505050565b60005b8381101561554757808201518184015260208101905061552c565b83811115615556576000848401525b50505050565b6000615567826154f1565b9150600082141561557b5761557a615638565b5b600182039050919050565b61558f82615746565b810181811067ffffffffffffffff821117156155ae576155ad6156f4565b5b80604052505050565b60006155c2826154f1565b91507fffffffffffffffffffffffffffffffffffffffffffffffffffffffffffffffff8214156155f5576155f4615638565b5b600182019050919050565b600061560b8261561c565b9050919050565b6000819050919050565b600061562782615757565b9050919050565b6000819050919050565b7f4e487b7100000000000000000000000000000000000000000000000000000000600052601160045260246000fd5b7f4e487b7100000000000000000000000000000000000000000000000000000000600052601260045260246000fd5b7f4e487b7100000000000000000000000000000000000000000000000000000000600052602160045260246000fd5b7f4e487b7100000000000000000000000000000000000000000000000000000000600052603260045260246000fd5b7f4e487b7100000000000000000000000000000000000000000000000000000000600052604160045260246000fd5b600080fd5b600080fd5b600080fd5b600080fd5b600080fd5b600080fd5b600080fd5b6000601f19601f8301169050919050565b60008160601b9050919050565b7f45434453413a20696e76616c6964207369676e61747572650000000000000000600082015250565b7f537472696e67733a20686578206c656e67746820696e73756666696369656e74600082015250565b7f4e6f7420656e6f75676820746f6b656e7320666f722073616c652e0000000000600082015250565b7f5061757361626c653a206e6f7420706175736564000000000000000000000000600082015250565b7f45434453413a20696e76616c6964207369676e6174757265206c656e67746800600082015250565b7f19457468657265756d205369676e6564204d6573736167653a0a333200000000600082015250565b7f4f6e6c792073656c6c6572206f722061646d696e2063616e20636c6f7365207460008201527f68652074726164652e0000000000000000000000000000000000000000000000602082015250565b7f4f66666572206e6565647320746f206265207369676e6564206279207468652060008201527f62757965722e0000000000000000000000000000000000000000000000000000602082015250565b7f5472616465206973206e6f74206f70656e2e0000000000000000000000000000600082015250565b7f4f6e6c79206f70656e207472616465732063616e20626520636c6f7365642e00600082015250565b7f45434453413a20696e76616c6964207369676e6174757265202773272076616c60008201527f7565000000000000000000000000000000000000000000000000000000000000602082015250565b7f43757272656e6379206973206e6f7420616c6c6f7765642e0000000000000000600082015250565b7f416c6c6f77616e636520697320746f6f206c6f772e0000000000000000000000600082015250565b7f5061757361626c653a2070617573656400000000000000000000000000000000600082015250565b7f507269636520697320746f6f20686967682e0000000000000000000000000000600082015250565b7f4f666665722068617320616c7265616479206265656e2066756c66696c6c656460008201527f2e00000000000000000000000000000000000000000000000000000000000000602082015250565b7f5175616e746974792065786365656473206d6178696d756d2e00000000000000600082015250565b7f546f6b656e20636f6e7472616374206973206e6f7420616c6c6f7765642e0000600082015250565b7f507269636520697320746f6f206c6f772e000000000000000000000000000000600082015250565b7f45434453413a20696e76616c6964207369676e6174757265202776272076616c60008201527f7565000000000000000000000000000000000000000000000000000000000000602082015250565b7f4f666665722068617320616c7265616479206265656e2063616e63656c6c656460008201527f2e00000000000000000000000000000000000000000000000000000000000000602082015250565b7f417070726f76616c20657870697265642e000000000000000000000000000000600082015250565b7f4f6666657220697320657870697265642e000000000000000000000000000000600082015250565b7f53656c6c65722063616e6e6f742062652062757965722e000000000000000000600082015250565b7f417070726f76616c206578686175737465642e00000000000000000000000000600082015250565b7f4f6e6c792073656c6c65722063616e20616363657074206f666665722e000000600082015250565b7f416363657373436f6e74726f6c3a206163636f756e7420000000000000000000600082015250565b7f4665652063616e6e6f7420626520686967686572207468616e2068756e64726560008201527f642070657263656e742e00000000000000000000000000000000000000000000602082015250565b7f496e76616c6964207369676e61747572652e0000000000000000000000000000600082015250565b7f496e73756666696369656e742062616c616e636520746f20776974686472617760008201527f2e00000000000000000000000000000000000000000000000000000000000000602082015250565b7f42757965722068617320696e73756666696369656e742062616c616e63652e00600082015250565b7f206973206d697373696e6720726f6c6520000000000000000000000000000000600082015250565b7f416363657373436f6e74726f6c3a2063616e206f6e6c792072656e6f756e636560008201527f20726f6c657320666f722073656c660000000000000000000000000000000000602082015250565b7f4f6666657220686173206265656e2066756c66696c6c6564206f722063616e6360008201527f656c6c65642e0000000000000000000000000000000000000000000000000000602082015250565b60038110615e6357615e62615696565b5b50565b615e6f81615458565b8114615e7a57600080fd5b50565b615e868161546a565b8114615e9157600080fd5b50565b615e9d8161547c565b8114615ea857600080fd5b50565b615eb481615488565b8114615ebf57600080fd5b50565b615ecb81615492565b8114615ed657600080fd5b50565b615ee2816154f1565b8114615eed57600080fd5b5056fea26469706673582212203dd221b31bddeb56ebebdc9cfb1accf3ac9fc3a220794642969bd4669cfd843864736f6c63430008070033",
  "immutableReferences": {},
  "source": "// SPDX-License-Identifier: MIT\r\npragma solidity ^0.8.0;\r\n\r\nimport \"../openzeppelin/contracts/token/ERC1155/IERC1155.sol\";\r\nimport \"../openzeppelin/contracts/token/ERC20/IERC20.sol\";\r\nimport \"../openzeppelin/contracts/utils/cryptography/ECDSA.sol\";\r\nimport \"../openzeppelin/contracts/access/Ownable.sol\";\r\nimport \"./MarketV1.sol\";\r\n\r\nstruct Offer {\r\n  address buyer;\r\n  address seller;\r\n  address token;\r\n  uint tokenId;\r\n  uint quantity;\r\n  address currency;\r\n  uint price;\r\n  uint expiry;\r\n}\r\n\r\ncontract OfferMarketV1 is MarketV1 {\r\n  using ECDSA for bytes32;\r\n\r\n  event Accept(\r\n    address indexed seller,\r\n    address indexed buyer,\r\n    address token,\r\n    address tokenId,\r\n    uint quantity,\r\n    address currency,\r\n    uint price\r\n  );\r\n\r\n  event Cancel(\r\n    address indexed sender,\r\n    address token,\r\n    address tokenId,\r\n    uint quantity,\r\n    address currency,\r\n    uint price\r\n  );\r\n\r\n  mapping(bytes32 => bool) private _cancelled;\r\n  mapping(bytes32 => bool) private _completed;\r\n\r\n  constructor(MarketWalletV1 wallet) MarketV1(wallet) {}\r\n\r\n  function acceptOffer(Offer calldata offer, uint salt, bytes calldata signature) public {\r\n    require(msg.sender == offer.seller, \"Only seller can accept offer.\");\r\n\r\n    require(_approvedTokens[offer.token], \"Token contract is not allowed.\");\r\n    require(_approvedCurrencies[offer.currency], \"Currency is not allowed.\");\r\n    \r\n    require(offer.expiry > block.timestamp, \"Offer is expired.\");\r\n\r\n    bytes32 offerHash = getOfferHash(offer, salt);\r\n\r\n    require(\r\n      !_cancelled[offerHash] && !_completed[offerHash],\r\n      \"Offer has been fulfilled or cancelled.\"\r\n    );\r\n    \r\n    address recoveredAddress = offerHash\r\n      .toEthSignedMessageHash()\r\n      .recover(signature);\r\n\r\n    require(\r\n      recoveredAddress == offer.buyer,\r\n      \"Offer needs to be signed by the buyer.\"\r\n    );\r\n\r\n    require(offer.price >= minTokenPrice, \"Price is too low.\");\r\n\r\n    (uint sellerFee, uint buyerFee) = calculateMarketFees(offer.price);\r\n\r\n    require(\r\n      IERC20(offer.currency).allowance(\r\n        offer.buyer,\r\n        address(this)\r\n      ) >= offer.price + buyerFee,\r\n      \"Buyer has insufficient balance.\"\r\n    );\r\n\r\n    _completed[offerHash] = true;\r\n    \r\n    _wallet.take(\r\n      offer.token,\r\n      msg.sender,\r\n      offer.tokenId,\r\n      offer.quantity\r\n    );\r\n\r\n    IERC20(offer.currency).transferFrom(\r\n      offer.buyer,\r\n      address(this),\r\n      offer.price + buyerFee\r\n    );\r\n    \r\n    uint sellerNet = payAfterFees(\r\n      offer.price,\r\n      sellerFee,\r\n      buyerFee,\r\n      offer.token,\r\n      offer.tokenId,\r\n      offer.currency\r\n    );\r\n\r\n    pay(offer.currency, offer.seller, sellerNet);\r\n\r\n    _wallet.give(\r\n      offer.token,\r\n      offer.buyer,\r\n      offer.tokenId,\r\n      offer.quantity\r\n    );\r\n  }\r\n\r\n  function getOfferHash(Offer calldata offer, uint salt) public view returns (bytes32) {\r\n    return keccak256(abi.encodePacked(\r\n      address(this),\r\n      offer.buyer,\r\n      offer.seller,\r\n      offer.token,\r\n      offer.tokenId,\r\n      offer.quantity,\r\n      offer.currency,\r\n      offer.price,\r\n      offer.expiry,\r\n      salt\r\n    ));\r\n  }\r\n\r\n  // Only offer maker and market owner can cancel\r\n  function cancelOffer(Offer calldata offer, uint nonce, bytes calldata signature) public {\r\n    bytes32 offerHash = getOfferHash(offer, nonce);\r\n\r\n    require(!_completed[offerHash], \"Offer has already been fulfilled.\");\r\n    require(!_cancelled[offerHash], \"Offer has already been cancelled.\");\r\n\r\n    require(msg.sender == offerHash.recover(signature) || hasRole(ADMIN_ROLE, msg.sender));\r\n    \r\n    _cancelled[offerHash] = true;\r\n  }\r\n}",
  "sourcePath": "C:/Users/Husnain/Documents/Projects/Fanbase/New/fanbase/packages/ethereum/contracts/solidity/collectibles/OfferMarketV1.sol",
  "compiler": {
    "name": "solc",
    "version": "0.8.7+commit.e28d00a7.Emscripten.clang"
  },
  "schemaVersion": "3.4.1",
  "updatedAt": "2021-08-16T20:02:18.335Z",
  "devdoc": {
    "kind": "dev",
    "methods": {
      "getRoleAdmin(bytes32)": {
        "details": "Returns the admin role that controls `role`. See {grantRole} and {revokeRole}. To change a role's admin, use {_setRoleAdmin}."
      },
      "grantRole(bytes32,address)": {
        "details": "Grants `role` to `account`. If `account` had not been already granted `role`, emits a {RoleGranted} event. Requirements: - the caller must have ``role``'s admin role."
      },
      "hasRole(bytes32,address)": {
        "details": "Returns `true` if `account` has been granted `role`."
      },
      "paused()": {
        "details": "Returns true if the contract is paused, and false otherwise."
      },
      "renounceRole(bytes32,address)": {
        "details": "Revokes `role` from the calling account. Roles are often managed via {grantRole} and {revokeRole}: this function's purpose is to provide a mechanism for accounts to lose their privileges if they are compromised (such as when a trusted device is misplaced). If the calling account had been granted `role`, emits a {RoleRevoked} event. Requirements: - the caller must be `account`."
      },
      "revokeRole(bytes32,address)": {
        "details": "Revokes `role` from `account`. If `account` had been granted `role`, emits a {RoleRevoked} event. Requirements: - the caller must have ``role``'s admin role."
      }
    },
    "version": 1
  },
  "userdoc": {
    "kind": "user",
    "methods": {},
    "version": 1
  }
}