{
  "contractName": "OfferMarketV1",
  "abi": [
    {
      "inputs": [
        {
          "internalType": "contract MarketWalletV1",
          "name": "wallet",
          "type": "address"
        }
      ],
      "stateMutability": "nonpayable",
      "type": "constructor"
    },
    {
      "anonymous": false,
      "inputs": [
        {
          "indexed": true,
          "internalType": "address",
          "name": "seller",
          "type": "address"
        },
        {
          "indexed": true,
          "internalType": "address",
          "name": "buyer",
          "type": "address"
        },
        {
          "indexed": false,
          "internalType": "address",
          "name": "token",
          "type": "address"
        },
        {
          "indexed": false,
          "internalType": "address",
          "name": "tokenId",
          "type": "address"
        },
        {
          "indexed": false,
          "internalType": "uint256",
          "name": "quantity",
          "type": "uint256"
        },
        {
          "indexed": false,
          "internalType": "address",
          "name": "currency",
          "type": "address"
        },
        {
          "indexed": false,
          "internalType": "uint256",
          "name": "price",
          "type": "uint256"
        }
      ],
      "name": "AcceptOffer",
      "type": "event"
    },
    {
      "anonymous": false,
      "inputs": [
        {
          "indexed": false,
          "internalType": "uint256",
          "name": "tradeId",
          "type": "uint256"
        },
        {
          "indexed": false,
          "internalType": "address",
          "name": "buyer",
          "type": "address"
        },
        {
          "indexed": false,
          "internalType": "uint256",
          "name": "quantity",
          "type": "uint256"
        }
      ],
      "name": "Buy",
      "type": "event"
    },
    {
      "anonymous": false,
      "inputs": [
        {
          "indexed": false,
          "internalType": "address",
          "name": "operator",
          "type": "address"
        },
        {
          "indexed": false,
          "internalType": "uint256",
          "name": "tradeId",
          "type": "uint256"
        },
        {
          "indexed": false,
          "internalType": "address",
          "name": "tokenContract",
          "type": "address"
        },
        {
          "indexed": false,
          "internalType": "uint256",
          "name": "tokenId",
          "type": "uint256"
        },
        {
          "indexed": false,
          "internalType": "uint256",
          "name": "returned",
          "type": "uint256"
        }
      ],
      "name": "CancelListing",
      "type": "event"
    },
    {
      "anonymous": false,
      "inputs": [
        {
          "indexed": true,
          "internalType": "address",
          "name": "sender",
          "type": "address"
        },
        {
          "indexed": false,
          "internalType": "address",
          "name": "token",
          "type": "address"
        },
        {
          "indexed": false,
          "internalType": "address",
          "name": "tokenId",
          "type": "address"
        },
        {
          "indexed": false,
          "internalType": "uint256",
          "name": "quantity",
          "type": "uint256"
        },
        {
          "indexed": false,
          "internalType": "address",
          "name": "currency",
          "type": "address"
        },
        {
          "indexed": false,
          "internalType": "uint256",
          "name": "price",
          "type": "uint256"
        }
      ],
      "name": "CancelOffer",
      "type": "event"
    },
    {
      "anonymous": false,
      "inputs": [
        {
          "indexed": false,
          "internalType": "uint256",
          "name": "tradeId",
          "type": "uint256"
        },
        {
          "indexed": false,
          "internalType": "address",
          "name": "seller",
          "type": "address"
        },
        {
          "indexed": false,
          "internalType": "address",
          "name": "tokenContract",
          "type": "address"
        },
        {
          "indexed": false,
          "internalType": "uint256",
          "name": "tokenId",
          "type": "uint256"
        },
        {
          "indexed": false,
          "internalType": "uint256",
          "name": "quantity",
          "type": "uint256"
        },
        {
          "indexed": false,
          "internalType": "address",
          "name": "currency",
          "type": "address"
        },
        {
          "indexed": false,
          "internalType": "uint256",
          "name": "price",
          "type": "uint256"
        }
      ],
      "name": "ListForSale",
      "type": "event"
    },
    {
      "anonymous": false,
      "inputs": [
        {
          "indexed": false,
          "internalType": "address",
          "name": "account",
          "type": "address"
        }
      ],
      "name": "Paused",
      "type": "event"
    },
    {
      "anonymous": false,
      "inputs": [
        {
          "indexed": true,
          "internalType": "bytes32",
          "name": "role",
          "type": "bytes32"
        },
        {
          "indexed": true,
          "internalType": "bytes32",
          "name": "previousAdminRole",
          "type": "bytes32"
        },
        {
          "indexed": true,
          "internalType": "bytes32",
          "name": "newAdminRole",
          "type": "bytes32"
        }
      ],
      "name": "RoleAdminChanged",
      "type": "event"
    },
    {
      "anonymous": false,
      "inputs": [
        {
          "indexed": true,
          "internalType": "bytes32",
          "name": "role",
          "type": "bytes32"
        },
        {
          "indexed": true,
          "internalType": "address",
          "name": "account",
          "type": "address"
        },
        {
          "indexed": true,
          "internalType": "address",
          "name": "sender",
          "type": "address"
        }
      ],
      "name": "RoleGranted",
      "type": "event"
    },
    {
      "anonymous": false,
      "inputs": [
        {
          "indexed": true,
          "internalType": "bytes32",
          "name": "role",
          "type": "bytes32"
        },
        {
          "indexed": true,
          "internalType": "address",
          "name": "account",
          "type": "address"
        },
        {
          "indexed": true,
          "internalType": "address",
          "name": "sender",
          "type": "address"
        }
      ],
      "name": "RoleRevoked",
      "type": "event"
    },
    {
      "anonymous": false,
      "inputs": [
        {
          "indexed": false,
          "internalType": "address",
          "name": "token",
          "type": "address"
        },
        {
          "indexed": false,
          "internalType": "uint256",
          "name": "tokenId",
          "type": "uint256"
        },
        {
          "indexed": false,
          "internalType": "address",
          "name": "beneficiary",
          "type": "address"
        },
        {
          "indexed": false,
          "internalType": "address",
          "name": "currency",
          "type": "address"
        },
        {
          "indexed": false,
          "internalType": "uint256",
          "name": "amount",
          "type": "uint256"
        }
      ],
      "name": "RoyaltyPayment",
      "type": "event"
    },
    {
      "anonymous": false,
      "inputs": [
        {
          "indexed": false,
          "internalType": "uint256",
          "name": "tradeId",
          "type": "uint256"
        }
      ],
      "name": "Sell",
      "type": "event"
    },
    {
      "anonymous": false,
      "inputs": [
        {
          "indexed": false,
          "internalType": "address",
          "name": "account",
          "type": "address"
        }
      ],
      "name": "Unpaused",
      "type": "event"
    },
    {
      "inputs": [],
      "name": "ADMIN_ROLE",
      "outputs": [
        {
          "internalType": "bytes32",
          "name": "",
          "type": "bytes32"
        }
      ],
      "stateMutability": "view",
      "type": "function",
      "constant": true
    },
    {
      "inputs": [],
      "name": "DEFAULT_ADMIN_ROLE",
      "outputs": [
        {
          "internalType": "bytes32",
          "name": "",
          "type": "bytes32"
        }
      ],
      "stateMutability": "view",
      "type": "function",
      "constant": true
    },
    {
      "inputs": [
        {
          "internalType": "uint256",
          "name": "tradeId",
          "type": "uint256"
        },
        {
          "internalType": "uint256",
          "name": "quantity",
          "type": "uint256"
        }
      ],
      "name": "buy",
      "outputs": [],
      "stateMutability": "nonpayable",
      "type": "function"
    },
    {
      "inputs": [],
      "name": "buyerFeePct",
      "outputs": [
        {
          "internalType": "uint256",
          "name": "",
          "type": "uint256"
        }
      ],
      "stateMutability": "view",
      "type": "function",
      "constant": true
    },
    {
      "inputs": [
        {
          "internalType": "uint256",
          "name": "tradeId",
          "type": "uint256"
        }
      ],
      "name": "cancel",
      "outputs": [],
      "stateMutability": "nonpayable",
      "type": "function"
    },
    {
      "inputs": [
        {
          "internalType": "uint256",
          "name": "tradeId",
          "type": "uint256"
        }
      ],
      "name": "get",
      "outputs": [
        {
          "components": [
            {
              "internalType": "uint256",
              "name": "id",
              "type": "uint256"
            },
            {
              "internalType": "address",
              "name": "seller",
              "type": "address"
            },
            {
              "internalType": "address",
              "name": "token",
              "type": "address"
            },
            {
              "internalType": "uint256",
              "name": "tokenId",
              "type": "uint256"
            },
            {
              "internalType": "uint256",
              "name": "quantity",
              "type": "uint256"
            },
            {
              "internalType": "uint256",
              "name": "available",
              "type": "uint256"
            },
            {
              "internalType": "address",
              "name": "currency",
              "type": "address"
            },
            {
              "internalType": "uint256",
              "name": "price",
              "type": "uint256"
            },
            {
              "internalType": "enum TradeStatus",
              "name": "status",
              "type": "uint8"
            }
          ],
          "internalType": "struct Trade",
          "name": "",
          "type": "tuple"
        }
      ],
      "stateMutability": "view",
      "type": "function",
      "constant": true
    },
    {
      "inputs": [
        {
          "internalType": "address",
          "name": "currency",
          "type": "address"
        },
        {
          "internalType": "address",
          "name": "account",
          "type": "address"
        }
      ],
      "name": "getBalance",
      "outputs": [
        {
          "internalType": "uint256",
          "name": "",
          "type": "uint256"
        }
      ],
      "stateMutability": "view",
      "type": "function",
      "constant": true
    },
    {
      "inputs": [
        {
          "internalType": "bytes32",
          "name": "role",
          "type": "bytes32"
        }
      ],
      "name": "getRoleAdmin",
      "outputs": [
        {
          "internalType": "bytes32",
          "name": "",
          "type": "bytes32"
        }
      ],
      "stateMutability": "view",
      "type": "function",
      "constant": true
    },
    {
      "inputs": [
        {
          "internalType": "address",
          "name": "seller",
          "type": "address"
        },
        {
          "internalType": "address",
          "name": "token",
          "type": "address"
        },
        {
          "internalType": "uint256",
          "name": "tokenId",
          "type": "uint256"
        },
        {
          "internalType": "uint256",
          "name": "quantity",
          "type": "uint256"
        },
        {
          "internalType": "address",
          "name": "currency",
          "type": "address"
        },
        {
          "internalType": "uint256",
          "name": "price",
          "type": "uint256"
        },
        {
          "internalType": "uint256",
          "name": "expiry",
          "type": "uint256"
        },
        {
          "internalType": "uint256",
          "name": "salt",
          "type": "uint256"
        }
      ],
      "name": "getSaleAuthorizationHash",
      "outputs": [
        {
          "internalType": "bytes32",
          "name": "",
          "type": "bytes32"
        }
      ],
      "stateMutability": "view",
      "type": "function",
      "constant": true
    },
    {
      "inputs": [
        {
          "internalType": "bytes32",
          "name": "role",
          "type": "bytes32"
        },
        {
          "internalType": "address",
          "name": "account",
          "type": "address"
        }
      ],
      "name": "grantRole",
      "outputs": [],
      "stateMutability": "nonpayable",
      "type": "function"
    },
    {
      "inputs": [
        {
          "internalType": "bytes32",
          "name": "role",
          "type": "bytes32"
        },
        {
          "internalType": "address",
          "name": "account",
          "type": "address"
        }
      ],
      "name": "hasRole",
      "outputs": [
        {
          "internalType": "bool",
          "name": "",
          "type": "bool"
        }
      ],
      "stateMutability": "view",
      "type": "function",
      "constant": true
    },
    {
      "inputs": [],
      "name": "hundredPct",
      "outputs": [
        {
          "internalType": "uint256",
          "name": "",
          "type": "uint256"
        }
      ],
      "stateMutability": "view",
      "type": "function",
      "constant": true
    },
    {
      "inputs": [
        {
          "internalType": "address",
          "name": "currency",
          "type": "address"
        }
      ],
      "name": "isCurrencyApproved",
      "outputs": [
        {
          "internalType": "bool",
          "name": "",
          "type": "bool"
        }
      ],
      "stateMutability": "view",
      "type": "function",
      "constant": true
    },
    {
      "inputs": [
        {
          "internalType": "address",
          "name": "token",
          "type": "address"
        }
      ],
      "name": "isTokenApproved",
      "outputs": [
        {
          "internalType": "bool",
          "name": "",
          "type": "bool"
        }
      ],
      "stateMutability": "view",
      "type": "function",
      "constant": true
    },
    {
      "inputs": [
        {
          "internalType": "address",
          "name": "seller",
          "type": "address"
        },
        {
          "internalType": "address",
          "name": "token",
          "type": "address"
        },
        {
          "internalType": "uint256",
          "name": "tokenId",
          "type": "uint256"
        },
        {
          "internalType": "uint256",
          "name": "quantity",
          "type": "uint256"
        },
        {
          "internalType": "address",
          "name": "currency",
          "type": "address"
        },
        {
          "internalType": "uint256",
          "name": "price",
          "type": "uint256"
        },
        {
          "internalType": "uint256",
          "name": "expiry",
          "type": "uint256"
        },
        {
          "internalType": "uint256",
          "name": "salt",
          "type": "uint256"
        },
        {
          "internalType": "bytes",
          "name": "signature",
          "type": "bytes"
        }
      ],
      "name": "listForSale",
      "outputs": [],
      "stateMutability": "nonpayable",
      "type": "function"
    },
    {
      "inputs": [],
      "name": "maxTokenPrice",
      "outputs": [
        {
          "internalType": "uint256",
          "name": "",
          "type": "uint256"
        }
      ],
      "stateMutability": "view",
      "type": "function",
      "constant": true
    },
    {
      "inputs": [],
      "name": "maxTradeQuantity",
      "outputs": [
        {
          "internalType": "uint256",
          "name": "",
          "type": "uint256"
        }
      ],
      "stateMutability": "view",
      "type": "function",
      "constant": true
    },
    {
      "inputs": [],
      "name": "minTokenPrice",
      "outputs": [
        {
          "internalType": "uint256",
          "name": "",
          "type": "uint256"
        }
      ],
      "stateMutability": "view",
      "type": "function",
      "constant": true
    },
    {
      "inputs": [],
      "name": "pause",
      "outputs": [],
      "stateMutability": "nonpayable",
      "type": "function"
    },
    {
      "inputs": [],
      "name": "paused",
      "outputs": [
        {
          "internalType": "bool",
          "name": "",
          "type": "bool"
        }
      ],
      "stateMutability": "view",
      "type": "function",
      "constant": true
    },
    {
      "inputs": [
        {
          "internalType": "bytes32",
          "name": "role",
          "type": "bytes32"
        },
        {
          "internalType": "address",
          "name": "account",
          "type": "address"
        }
      ],
      "name": "renounceRole",
      "outputs": [],
      "stateMutability": "nonpayable",
      "type": "function"
    },
    {
      "inputs": [],
      "name": "resume",
      "outputs": [],
      "stateMutability": "nonpayable",
      "type": "function"
    },
    {
      "inputs": [
        {
          "internalType": "bytes32",
          "name": "role",
          "type": "bytes32"
        },
        {
          "internalType": "address",
          "name": "account",
          "type": "address"
        }
      ],
      "name": "revokeRole",
      "outputs": [],
      "stateMutability": "nonpayable",
      "type": "function"
    },
    {
      "inputs": [],
      "name": "sellerFeePct",
      "outputs": [
        {
          "internalType": "uint256",
          "name": "",
          "type": "uint256"
        }
      ],
      "stateMutability": "view",
      "type": "function",
      "constant": true
    },
    {
      "inputs": [
        {
          "internalType": "uint256",
          "name": "pct",
          "type": "uint256"
        }
      ],
      "name": "setBuyerFeePct",
      "outputs": [],
      "stateMutability": "nonpayable",
      "type": "function"
    },
    {
      "inputs": [
        {
          "internalType": "address",
          "name": "currency",
          "type": "address"
        },
        {
          "internalType": "bool",
          "name": "isApproved",
          "type": "bool"
        }
      ],
      "name": "setCurrencyApproval",
      "outputs": [],
      "stateMutability": "nonpayable",
      "type": "function"
    },
    {
      "inputs": [
        {
          "internalType": "address",
          "name": "beneficiary",
          "type": "address"
        }
      ],
      "name": "setFeeBeneficiary",
      "outputs": [],
      "stateMutability": "nonpayable",
      "type": "function"
    },
    {
      "inputs": [
        {
          "internalType": "uint256",
          "name": "price",
          "type": "uint256"
        }
      ],
      "name": "setMaxTokenPriceEther",
      "outputs": [],
      "stateMutability": "nonpayable",
      "type": "function"
    },
    {
      "inputs": [
        {
          "internalType": "uint256",
          "name": "price",
          "type": "uint256"
        }
      ],
      "name": "setMaxTokenPriceWei",
      "outputs": [],
      "stateMutability": "nonpayable",
      "type": "function"
    },
    {
      "inputs": [
        {
          "internalType": "uint256",
          "name": "quantity",
          "type": "uint256"
        }
      ],
      "name": "setMaxTradeQuantity",
      "outputs": [],
      "stateMutability": "nonpayable",
      "type": "function"
    },
    {
      "inputs": [
        {
          "internalType": "uint256",
          "name": "pct",
          "type": "uint256"
        }
      ],
      "name": "setSellerFeePct",
      "outputs": [],
      "stateMutability": "nonpayable",
      "type": "function"
    },
    {
      "inputs": [
        {
          "internalType": "address",
          "name": "token",
          "type": "address"
        },
        {
          "internalType": "bool",
          "name": "isApproved",
          "type": "bool"
        }
      ],
      "name": "setTokenApproval",
      "outputs": [],
      "stateMutability": "nonpayable",
      "type": "function"
    },
    {
      "inputs": [
        {
          "internalType": "bytes4",
          "name": "interfaceID",
          "type": "bytes4"
        }
      ],
      "name": "supportsInterface",
      "outputs": [
        {
          "internalType": "bool",
          "name": "",
          "type": "bool"
        }
      ],
      "stateMutability": "view",
      "type": "function",
      "constant": true
    },
    {
      "inputs": [
        {
          "internalType": "address",
          "name": "currency",
          "type": "address"
        },
        {
          "internalType": "uint256",
          "name": "amount",
          "type": "uint256"
        }
      ],
      "name": "withdraw",
      "outputs": [],
      "stateMutability": "nonpayable",
      "type": "function"
    },
    {
      "inputs": [
        {
          "components": [
            {
              "internalType": "address",
              "name": "buyer",
              "type": "address"
            },
            {
              "internalType": "address",
              "name": "seller",
              "type": "address"
            },
            {
              "internalType": "address",
              "name": "token",
              "type": "address"
            },
            {
              "internalType": "uint256",
              "name": "tokenId",
              "type": "uint256"
            },
            {
              "internalType": "uint256",
              "name": "quantity",
              "type": "uint256"
            },
            {
              "internalType": "address",
              "name": "currency",
              "type": "address"
            },
            {
              "internalType": "uint256",
              "name": "price",
              "type": "uint256"
            },
            {
              "internalType": "uint256",
              "name": "expiry",
              "type": "uint256"
            }
          ],
          "internalType": "struct Offer",
          "name": "offer",
          "type": "tuple"
        },
        {
          "internalType": "uint256",
          "name": "salt",
          "type": "uint256"
        },
        {
          "internalType": "bytes",
          "name": "signature",
          "type": "bytes"
        }
      ],
      "name": "acceptOffer",
      "outputs": [],
      "stateMutability": "nonpayable",
      "type": "function"
    },
    {
      "inputs": [
        {
          "components": [
            {
              "internalType": "address",
              "name": "buyer",
              "type": "address"
            },
            {
              "internalType": "address",
              "name": "seller",
              "type": "address"
            },
            {
              "internalType": "address",
              "name": "token",
              "type": "address"
            },
            {
              "internalType": "uint256",
              "name": "tokenId",
              "type": "uint256"
            },
            {
              "internalType": "uint256",
              "name": "quantity",
              "type": "uint256"
            },
            {
              "internalType": "address",
              "name": "currency",
              "type": "address"
            },
            {
              "internalType": "uint256",
              "name": "price",
              "type": "uint256"
            },
            {
              "internalType": "uint256",
              "name": "expiry",
              "type": "uint256"
            }
          ],
          "internalType": "struct Offer",
          "name": "offer",
          "type": "tuple"
        },
        {
          "internalType": "uint256",
          "name": "salt",
          "type": "uint256"
        }
      ],
      "name": "getOfferHash",
      "outputs": [
        {
          "internalType": "bytes32",
          "name": "",
          "type": "bytes32"
        }
      ],
      "stateMutability": "view",
      "type": "function",
      "constant": true
    },
    {
      "inputs": [
        {
          "components": [
            {
              "internalType": "address",
              "name": "buyer",
              "type": "address"
            },
            {
              "internalType": "address",
              "name": "seller",
              "type": "address"
            },
            {
              "internalType": "address",
              "name": "token",
              "type": "address"
            },
            {
              "internalType": "uint256",
              "name": "tokenId",
              "type": "uint256"
            },
            {
              "internalType": "uint256",
              "name": "quantity",
              "type": "uint256"
            },
            {
              "internalType": "address",
              "name": "currency",
              "type": "address"
            },
            {
              "internalType": "uint256",
              "name": "price",
              "type": "uint256"
            },
            {
              "internalType": "uint256",
              "name": "expiry",
              "type": "uint256"
            }
          ],
          "internalType": "struct Offer",
          "name": "offer",
          "type": "tuple"
        },
        {
          "internalType": "uint256",
          "name": "nonce",
          "type": "uint256"
        },
        {
          "internalType": "bytes",
          "name": "signature",
          "type": "bytes"
        }
      ],
      "name": "cancelOffer",
      "outputs": [],
      "stateMutability": "nonpayable",
      "type": "function"
    }
  ],
  "bytecode": "0x6080604052611388600255611388600355620186a060045569d3c21bcecceda1000000600555620f424060065560045460075560006008556000600c556000600e553480156200004e57600080fd5b50604051620063f5380380620063f58339818101604052810190620000749190620003a8565b806000600160006101000a81548160ff021916908315150217905550620000a56000801b336200019660201b60201c565b620000d77fa49807205ce4d355092ef5a8a18f56e8913cf4a201fbe287825b095693c21775336200019660201b60201c565b6200010c7fa49807205ce4d355092ef5a8a18f56e8913cf4a201fbe287825b095693c217756000801b620001ac60201b60201c565b33601060006101000a81548173ffffffffffffffffffffffffffffffffffffffff021916908373ffffffffffffffffffffffffffffffffffffffff16021790555080601160006101000a81548173ffffffffffffffffffffffffffffffffffffffff021916908373ffffffffffffffffffffffffffffffffffffffff160217905550505062000441565b620001a882826200020f60201b60201c565b5050565b6000620001bf836200030060201b60201c565b905081600080858152602001908152602001600020600101819055508181847fbd79b86ffe0ab8e8776151514217cd7cacd52c909f66475c3af44e129f0b00ff60405160405180910390a4505050565b6200022182826200031f60201b60201c565b620002fc57600160008084815260200190815260200160002060000160008373ffffffffffffffffffffffffffffffffffffffff1673ffffffffffffffffffffffffffffffffffffffff16815260200190815260200160002060006101000a81548160ff021916908315150217905550620002a16200038960201b60201c565b73ffffffffffffffffffffffffffffffffffffffff168173ffffffffffffffffffffffffffffffffffffffff16837f2f8788117e7eff1d82e926ec794901d17c78024a50270940304540a733656f0d60405160405180910390a45b5050565b6000806000838152602001908152602001600020600101549050919050565b600080600084815260200190815260200160002060000160008373ffffffffffffffffffffffffffffffffffffffff1673ffffffffffffffffffffffffffffffffffffffff16815260200190815260200160002060009054906101000a900460ff16905092915050565b600033905090565b600081519050620003a28162000427565b92915050565b600060208284031215620003c157620003c062000422565b5b6000620003d18482850162000391565b91505092915050565b6000620003e78262000402565b9050919050565b6000620003fb82620003da565b9050919050565b600073ffffffffffffffffffffffffffffffffffffffff82169050919050565b600080fd5b6200043281620003ee565b81146200043e57600080fd5b50565b615fa480620004516000396000f3fe608060405234801561001057600080fd5b50600436106102275760003560e01c80638662732e11610130578063be29928e116100b8578063d6febde81161007c578063d6febde81461064e578063e45ad64a1461066a578063e6a5010014610686578063f3fef3a3146106a2578063fd1fc13e146106be57610227565b8063be29928e14610598578063c661b89d146105c8578063d428dc2b146105e4578063d4fac45d14610602578063d547741f1461063257610227565b80639507d39a116100ff5780639507d39a146104e25780639d93d35214610512578063a217fddf14610542578063b8358a6114610560578063bca998191461057c57610227565b80638662732e146104485780638cac73ff146104785780638ce5ab6a1461049457806391d14854146104b257610227565b806340e58ee5116101b3578063670436f111610182578063670436f1146103c857806375b238fc146103e457806377e5c4a8146104025780638456cb591461042057806385d561ae1461042a57610227565b806340e58ee5146103545780635a0a3d82146103705780635c975abb1461038c5780635dabb20e146103aa57610227565b8063248a9ca3116101fa578063248a9ca3146102b25780632b483c03146102e25780632f2ff15d14610300578063325c5d561461031c57806336568abe1461033857610227565b806301ffc9a71461022c578063046f7da21461025c5780630d7b1acc1461026657806314d91c8414610296575b600080fd5b6102466004803603810190610241919061428a565b6106da565b6040516102539190614dcf565b60405180910390f35b6102646106ec565b005b610280600480360381019061027b9190613ed0565b610729565b60405161028d9190614dcf565b60405180910390f35b6102b060048036038101906102ab91906140de565b61077f565b005b6102cc60048036038101906102c7919061421d565b61080d565b6040516102d99190614dea565b60405180910390f35b6102ea61082c565b6040516102f79190615263565b60405180910390f35b61031a6004803603810190610315919061424a565b610832565b005b610336600480360381019061033191906142f9565b61085b565b005b610352600480360381019061034d919061424a565b610a1d565b005b61036e60048036038101906103699190614370565b610aa0565b005b61038a60048036038101906103859190613ed0565b610e72565b005b610394610ecc565b6040516103a19190614dcf565b60405180910390f35b6103b2610ee3565b6040516103bf9190615263565b60405180910390f35b6103e260048036038101906103dd91906140de565b610ee9565b005b6103ec610f77565b6040516103f99190614dea565b60405180910390f35b61040a610f9b565b6040516104179190615263565b60405180910390f35b610428610fa1565b005b610432610fde565b60405161043f9190615263565b60405180910390f35b610462600480360381019061045d9190613f3d565b610fe4565b60405161046f9190614dea565b60405180910390f35b610492600480360381019061048d91906142f9565b61102b565b005b61049c6116ec565b6040516104a99190615263565b60405180910390f35b6104cc60048036038101906104c7919061424a565b6116f2565b6040516104d99190614dcf565b60405180910390f35b6104fc60048036038101906104f79190614370565b61175c565b6040516105099190615247565b60405180910390f35b61052c60048036038101906105279190613ed0565b6118f9565b6040516105399190614dcf565b60405180910390f35b61054a61194f565b6040516105579190614dea565b60405180910390f35b61057a60048036038101906105759190613ff3565b611956565b005b61059660048036038101906105919190614370565b612139565b005b6105b260048036038101906105ad91906142b7565b612189565b6040516105bf9190614dea565b60405180910390f35b6105e260048036038101906105dd9190614370565b612224565b005b6105ec6122a6565b6040516105f99190615263565b60405180910390f35b61061c60048036038101906106179190613efd565b6122ac565b6040516106299190615263565b60405180910390f35b61064c6004803603810190610647919061424a565b612333565b005b610668600480360381019061066391906143ca565b61235c565b005b610684600480360381019061067f9190614370565b6129c8565b005b6106a0600480360381019061069b9190614370565b612a4a565b005b6106bc60048036038101906106b7919061411e565b612a87565b005b6106d860048036038101906106d39190614370565b612c6b565b005b60006106e582612ca8565b9050919050565b7fa49807205ce4d355092ef5a8a18f56e8913cf4a201fbe287825b095693c2177561071e81610719612d22565b612d2a565b610726612dc7565b50565b6000600d60008373ffffffffffffffffffffffffffffffffffffffff1673ffffffffffffffffffffffffffffffffffffffff16815260200190815260200160002060009054906101000a900460ff169050919050565b7fa49807205ce4d355092ef5a8a18f56e8913cf4a201fbe287825b095693c217756107b1816107ac612d22565b612d2a565b81600b60008573ffffffffffffffffffffffffffffffffffffffff1673ffffffffffffffffffffffffffffffffffffffff16815260200190815260200160002060006101000a81548160ff021916908315150217905550505050565b6000806000838152602001908152602001600020600101549050919050565b60035481565b61083b8261080d565b61084c81610847612d22565b612d2a565b6108568383612e69565b505050565b60006108678585612189565b90506013600082815260200190815260200160002060009054906101000a900460ff16156108ca576040517f08c379a00000000000000000000000000000000000000000000000000000000081526004016108c190615047565b60405180910390fd5b6012600082815260200190815260200160002060009054906101000a900460ff161561092b576040517f08c379a0000000000000000000000000000000000000000000000000000000008152600401610922906150e7565b60405180910390fd5b61098283838080601f016020809104026020016040519081016040528093929190818152602001838380828437600081840152601f19601f8201169050808301925050505050505082612f4990919063ffffffff16565b73ffffffffffffffffffffffffffffffffffffffff163373ffffffffffffffffffffffffffffffffffffffff1614806109e157506109e07fa49807205ce4d355092ef5a8a18f56e8913cf4a201fbe287825b095693c21775336116f2565b5b6109ea57600080fd5b60016012600083815260200190815260200160002060006101000a81548160ff0219169083151502179055505050505050565b610a25612d22565b73ffffffffffffffffffffffffffffffffffffffff168173ffffffffffffffffffffffffffffffffffffffff1614610a92576040517f08c379a0000000000000000000000000000000000000000000000000000000008152600401610a8990615207565b60405180910390fd5b610a9c8282612f70565b5050565b60006009600083815260200190815260200160002060405180610120016040529081600082015481526020016001820160009054906101000a900473ffffffffffffffffffffffffffffffffffffffff1673ffffffffffffffffffffffffffffffffffffffff1673ffffffffffffffffffffffffffffffffffffffff1681526020016002820160009054906101000a900473ffffffffffffffffffffffffffffffffffffffff1673ffffffffffffffffffffffffffffffffffffffff1673ffffffffffffffffffffffffffffffffffffffff1681526020016003820154815260200160048201548152602001600582015481526020016006820160009054906101000a900473ffffffffffffffffffffffffffffffffffffffff1673ffffffffffffffffffffffffffffffffffffffff1673ffffffffffffffffffffffffffffffffffffffff168152602001600782015481526020016008820160009054906101000a900460ff166002811115610c1a57610c19615742565b5b6002811115610c2c57610c2b615742565b5b81525050905060006002811115610c4657610c45615742565b5b8161010001516002811115610c5e57610c5d615742565b5b14610c9e576040517f08c379a0000000000000000000000000000000000000000000000000000000008152600401610c9590614f87565b60405180910390fd5b806020015173ffffffffffffffffffffffffffffffffffffffff163373ffffffffffffffffffffffffffffffffffffffff161480610d025750610d017fa49807205ce4d355092ef5a8a18f56e8913cf4a201fbe287825b095693c21775336116f2565b5b610d41576040517f08c379a0000000000000000000000000000000000000000000000000000000008152600401610d3890614f27565b60405180910390fd5b60026009600084815260200190815260200160002060080160006101000a81548160ff02191690836002811115610d7b57610d7a615742565b5b0217905550601160009054906101000a900473ffffffffffffffffffffffffffffffffffffffff1673ffffffffffffffffffffffffffffffffffffffff16632ed7bae88260400151836020015184606001518560a001516040518563ffffffff1660e01b8152600401610df19493929190614cbb565b600060405180830381600087803b158015610e0b57600080fd5b505af1158015610e1f573d6000803e3d6000fd5b505050507fc601fcdba72395d2bf26895fdc068bb88a1ff514bafce37723be90787ed0a4803383836040015184606001518560a00151604051610e66959493929190614d7c565b60405180910390a15050565b6000801b610e8781610e82612d22565b612d2a565b81601060006101000a81548173ffffffffffffffffffffffffffffffffffffffff021916908373ffffffffffffffffffffffffffffffffffffffff1602179055505050565b6000600160009054906101000a900460ff16905090565b60075481565b7fa49807205ce4d355092ef5a8a18f56e8913cf4a201fbe287825b095693c21775610f1b81610f16612d22565b612d2a565b81600d60008573ffffffffffffffffffffffffffffffffffffffff1673ffffffffffffffffffffffffffffffffffffffff16815260200190815260200160002060006101000a81548160ff021916908315150217905550505050565b7fa49807205ce4d355092ef5a8a18f56e8913cf4a201fbe287825b095693c2177581565b60055481565b7fa49807205ce4d355092ef5a8a18f56e8913cf4a201fbe287825b095693c21775610fd381610fce612d22565b612d2a565b610fdb613051565b50565b60065481565b600030898989898989898960405160200161100799989796959493929190614b3d565b60405160208183030381529060405280519060200120905098975050505050505050565b83602001602081019061103e9190613ed0565b73ffffffffffffffffffffffffffffffffffffffff163373ffffffffffffffffffffffffffffffffffffffff16146110ab576040517f08c379a00000000000000000000000000000000000000000000000000000000081526004016110a290615187565b60405180910390fd5b600b60008560400160208101906110c29190613ed0565b73ffffffffffffffffffffffffffffffffffffffff1673ffffffffffffffffffffffffffffffffffffffff16815260200190815260200160002060009054906101000a900460ff16611149576040517f08c379a000000000000000000000000000000000000000000000000000000000815260040161114090615087565b60405180910390fd5b600d60008560a00160208101906111609190613ed0565b73ffffffffffffffffffffffffffffffffffffffff1673ffffffffffffffffffffffffffffffffffffffff16815260200190815260200160002060009054906101000a900460ff166111e7576040517f08c379a00000000000000000000000000000000000000000000000000000000081526004016111de90614fc7565b60405180910390fd5b428460e001351161122d576040517f08c379a000000000000000000000000000000000000000000000000000000000815260040161122490615127565b60405180910390fd5b60006112398585612189565b90506012600082815260200190815260200160002060009054906101000a900460ff1615801561128757506013600082815260200190815260200160002060009054906101000a900460ff16155b6112c6576040517f08c379a00000000000000000000000000000000000000000000000000000000081526004016112bd90615227565b60405180910390fd5b600061132784848080601f016020809104026020016040519081016040528093929190818152602001838380828437600081840152601f19601f82011690508083019250505050505050611319846130f3565b612f4990919063ffffffff16565b905085600001602081019061133c9190613ed0565b73ffffffffffffffffffffffffffffffffffffffff168173ffffffffffffffffffffffffffffffffffffffff16146113a9576040517f08c379a00000000000000000000000000000000000000000000000000000000081526004016113a090614f47565b60405180910390fd5b6007548660c0013510156113f2576040517f08c379a00000000000000000000000000000000000000000000000000000000081526004016113e9906150a7565b60405180910390fd5b6000806114028860c00135613123565b9150915060016013600086815260200190815260200160002060006101000a81548160ff021916908315150217905550601160009054906101000a900473ffffffffffffffffffffffffffffffffffffffff1673ffffffffffffffffffffffffffffffffffffffff166340fd58298960400160208101906114839190613ed0565b338b606001358c608001356040518563ffffffff1660e01b81526004016114ad9493929190614cbb565b600060405180830381600087803b1580156114c757600080fd5b505af11580156114db573d6000803e3d6000fd5b505050508760a00160208101906114f29190613ed0565b73ffffffffffffffffffffffffffffffffffffffff166323b872dd8960000160208101906115209190613ed0565b30848c60c0013561153191906153c8565b6040518463ffffffff1660e01b815260040161154f93929190614c84565b602060405180830381600087803b15801561156957600080fd5b505af115801561157d573d6000803e3d6000fd5b505050506040513d601f19601f820116820180604052508101906115a191906141f0565b5060006115f18960200160208101906115ba9190613ed0565b8a60c0013585858d60400160208101906115d49190613ed0565b8e606001358f60a00160208101906115ec9190613ed0565b613165565b90506116228960a00160208101906116099190613ed0565b8a602001602081019061161c9190613ed0565b836134e5565b601160009054906101000a900473ffffffffffffffffffffffffffffffffffffffff1673ffffffffffffffffffffffffffffffffffffffff16632ed7bae88a60400160208101906116739190613ed0565b8b60000160208101906116869190613ed0565b8c606001358d608001356040518563ffffffff1660e01b81526004016116af9493929190614cbb565b600060405180830381600087803b1580156116c957600080fd5b505af11580156116dd573d6000803e3d6000fd5b50505050505050505050505050565b60025481565b600080600084815260200190815260200160002060000160008373ffffffffffffffffffffffffffffffffffffffff1673ffffffffffffffffffffffffffffffffffffffff16815260200190815260200160002060009054906101000a900460ff16905092915050565b611764613bd6565b6009600083815260200190815260200160002060405180610120016040529081600082015481526020016001820160009054906101000a900473ffffffffffffffffffffffffffffffffffffffff1673ffffffffffffffffffffffffffffffffffffffff1673ffffffffffffffffffffffffffffffffffffffff1681526020016002820160009054906101000a900473ffffffffffffffffffffffffffffffffffffffff1673ffffffffffffffffffffffffffffffffffffffff1673ffffffffffffffffffffffffffffffffffffffff1681526020016003820154815260200160048201548152602001600582015481526020016006820160009054906101000a900473ffffffffffffffffffffffffffffffffffffffff1673ffffffffffffffffffffffffffffffffffffffff1673ffffffffffffffffffffffffffffffffffffffff168152602001600782015481526020016008820160009054906101000a900460ff1660028111156118dc576118db615742565b5b60028111156118ee576118ed615742565b5b815250509050919050565b6000600b60008373ffffffffffffffffffffffffffffffffffffffff1673ffffffffffffffffffffffffffffffffffffffff16815260200190815260200160002060009054906101000a900460ff169050919050565b6000801b81565b61195e610ecc565b1561199e576040517f08c379a000000000000000000000000000000000000000000000000000000000815260040161199590615007565b60405180910390fd5b6007548510156119e3576040517f08c379a00000000000000000000000000000000000000000000000000000000081526004016119da906150a7565b60405180910390fd5b600554851115611a28576040517f08c379a0000000000000000000000000000000000000000000000000000000008152600401611a1f90615027565b60405180910390fd5b600654871115611a6d576040517f08c379a0000000000000000000000000000000000000000000000000000000008152600401611a6490615067565b60405180910390fd5b600b60008a73ffffffffffffffffffffffffffffffffffffffff1673ffffffffffffffffffffffffffffffffffffffff16815260200190815260200160002060009054906101000a900460ff16611af9576040517f08c379a0000000000000000000000000000000000000000000000000000000008152600401611af090615087565b60405180910390fd5b600d60008773ffffffffffffffffffffffffffffffffffffffff1673ffffffffffffffffffffffffffffffffffffffff16815260200190815260200160002060009054906101000a900460ff16611b85576040517f08c379a0000000000000000000000000000000000000000000000000000000008152600401611b7c90614fc7565b60405180910390fd5b611baf7fa49807205ce4d355092ef5a8a18f56e8913cf4a201fbe287825b095693c21775336116f2565b611d9e57428411611bf5576040517f08c379a0000000000000000000000000000000000000000000000000000000008152600401611bec90615107565b60405180910390fd5b6000611c078b8b8b8b8b8b8b8b610fe4565b9050600f600082815260200190815260200160002060009054906101000a900460ff1615611c6a576040517f08c379a0000000000000000000000000000000000000000000000000000000008152600401611c6190615167565b60405180910390fd5b6000611ccb84848080601f016020809104026020016040519081016040528093929190818152602001838380828437600081840152601f19601f82011690508083019250505050505050611cbd846130f3565b612f4990919063ffffffff16565b9050600073ffffffffffffffffffffffffffffffffffffffff168173ffffffffffffffffffffffffffffffffffffffff1614158015611d305750611d2f7fa49807205ce4d355092ef5a8a18f56e8913cf4a201fbe287825b095693c21775826116f2565b5b611d6f576040517f08c379a0000000000000000000000000000000000000000000000000000000008152600401611d66906151c7565b60405180910390fd5b6001600f600084815260200190815260200160002060006101000a81548160ff02191690831515021790555050505b8873ffffffffffffffffffffffffffffffffffffffff166301ffc9a77fd9b67a26000000000000000000000000000000000000000000000000000000006040518263ffffffff1660e01b8152600401611df79190614e4a565b60206040518083038186803b158015611e0f57600080fd5b505afa158015611e23573d6000803e3d6000fd5b505050506040513d601f19601f82011682018060405250810190611e4791906141f0565b611e5057600196505b601160009054906101000a900473ffffffffffffffffffffffffffffffffffffffff1673ffffffffffffffffffffffffffffffffffffffff166340fd58298a8c8b8b6040518563ffffffff1660e01b8152600401611eb19493929190614cbb565b600060405180830381600087803b158015611ecb57600080fd5b505af1158015611edf573d6000803e3d6000fd5b5050505060086000815480929190611ef690615663565b9190505550600060405180610120016040528060085481526020018c73ffffffffffffffffffffffffffffffffffffffff1681526020018b73ffffffffffffffffffffffffffffffffffffffff1681526020018a81526020018981526020018981526020018873ffffffffffffffffffffffffffffffffffffffff16815260200187815260200160006002811115611f9157611f90615742565b5b8152509050806009600060085481526020019081526020016000206000820151816000015560208201518160010160006101000a81548173ffffffffffffffffffffffffffffffffffffffff021916908373ffffffffffffffffffffffffffffffffffffffff16021790555060408201518160020160006101000a81548173ffffffffffffffffffffffffffffffffffffffff021916908373ffffffffffffffffffffffffffffffffffffffff160217905550606082015181600301556080820151816004015560a0820151816005015560c08201518160060160006101000a81548173ffffffffffffffffffffffffffffffffffffffff021916908373ffffffffffffffffffffffffffffffffffffffff16021790555060e082015181600701556101008201518160080160006101000a81548160ff021916908360028111156120df576120de615742565b5b02179055509050507f8c043961a2a3de4608ff0a3647fa6bdef2510bbf7ea923cd9b68bd43de4040e46008548c8c8c8c8c8c604051612124979695949392919061527e565b60405180910390a15050505050505050505050565b7fa49807205ce4d355092ef5a8a18f56e8913cf4a201fbe287825b095693c2177561216b81612166612d22565b612d2a565b670de0b6b3a76400008261217f919061544f565b6005819055505050565b60003083600001602081019061219f9190613ed0565b8460200160208101906121b29190613ed0565b8560400160208101906121c59190613ed0565b866060013587608001358860a00160208101906121e29190613ed0565b8960c001358a60e001358a6040516020016122069a99989796959493929190614a89565b60405160208183030381529060405280519060200120905092915050565b7fa49807205ce4d355092ef5a8a18f56e8913cf4a201fbe287825b095693c2177561225681612251612d22565b612d2a565b60045482111561229b576040517f08c379a0000000000000000000000000000000000000000000000000000000008152600401612292906151a7565b60405180910390fd5b816003819055505050565b60045481565b6000600a60008373ffffffffffffffffffffffffffffffffffffffff1673ffffffffffffffffffffffffffffffffffffffff16815260200190815260200160002060008473ffffffffffffffffffffffffffffffffffffffff1673ffffffffffffffffffffffffffffffffffffffff16815260200190815260200160002054905092915050565b61233c8261080d565b61234d81612348612d22565b612d2a565b6123578383612f70565b505050565b612364610ecc565b156123a4576040517f08c379a000000000000000000000000000000000000000000000000000000000815260040161239b90615007565b60405180910390fd5b60006009600084815260200190815260200160002060405180610120016040529081600082015481526020016001820160009054906101000a900473ffffffffffffffffffffffffffffffffffffffff1673ffffffffffffffffffffffffffffffffffffffff1673ffffffffffffffffffffffffffffffffffffffff1681526020016002820160009054906101000a900473ffffffffffffffffffffffffffffffffffffffff1673ffffffffffffffffffffffffffffffffffffffff1673ffffffffffffffffffffffffffffffffffffffff1681526020016003820154815260200160048201548152602001600582015481526020016006820160009054906101000a900473ffffffffffffffffffffffffffffffffffffffff1673ffffffffffffffffffffffffffffffffffffffff1673ffffffffffffffffffffffffffffffffffffffff168152602001600782015481526020016008820160009054906101000a900460ff16600281111561251e5761251d615742565b5b60028111156125305761252f615742565b5b8152505090506000600281111561254a57612549615742565b5b816101000151600281111561256257612561615742565b5b146125a2576040517f08c379a000000000000000000000000000000000000000000000000000000000815260040161259990614f67565b60405180910390fd5b8060a001518211156125e9576040517f08c379a00000000000000000000000000000000000000000000000000000000081526004016125e090614ec7565b60405180910390fd5b806020015173ffffffffffffffffffffffffffffffffffffffff163373ffffffffffffffffffffffffffffffffffffffff16141561265c576040517f08c379a000000000000000000000000000000000000000000000000000000000815260040161265390615147565b60405180910390fd5b6000828260e0015161266e919061544f565b905060008260c00151905060008061268584613123565b9150915060008373ffffffffffffffffffffffffffffffffffffffff1663dd62ed3e33306040518363ffffffff1660e01b81526004016126c6929190614c5b565b60206040518083038186803b1580156126de57600080fd5b505afa1580156126f2573d6000803e3d6000fd5b505050506040513d601f19601f82011682018060405250810190612716919061439d565b9050818561272491906153c8565b811015612766576040517f08c379a000000000000000000000000000000000000000000000000000000000815260040161275d90614fe7565b60405180910390fd5b8373ffffffffffffffffffffffffffffffffffffffff166323b872dd3330858961279091906153c8565b6040518463ffffffff1660e01b81526004016127ae93929190614c84565b602060405180830381600087803b1580156127c857600080fd5b505af11580156127dc573d6000803e3d6000fd5b505050506040513d601f19601f8201168201806040525081019061280091906141f0565b506000878760a0015161281391906154a9565b905080600960008b81526020019081526020016000206005018190555060008114156128b0576001600960008b815260200190815260200160002060080160006101000a81548160ff0219169083600281111561287357612872615742565b5b02179055507f522881958b3c4a6fc0840ad3b7fb947b881edc28c004245a62541647422ade97896040516128a79190615263565b60405180910390a15b60006128d188602001518887878c604001518d606001518e60c00151613165565b90506128e688602001518960c00151836134e5565b601160009054906101000a900473ffffffffffffffffffffffffffffffffffffffff1673ffffffffffffffffffffffffffffffffffffffff16632ed7bae88960400151338b606001518d6040518563ffffffff1660e01b815260040161294f9493929190614cbb565b600060405180830381600087803b15801561296957600080fd5b505af115801561297d573d6000803e3d6000fd5b505050507f3b599f6217e39be59216b60e543ce0d4c7d534fe64dd9d962334924e7819894e8a338b6040516129b4939291906152ed565b60405180910390a150505050505050505050565b7fa49807205ce4d355092ef5a8a18f56e8913cf4a201fbe287825b095693c217756129fa816129f5612d22565b612d2a565b600454821115612a3f576040517f08c379a0000000000000000000000000000000000000000000000000000000008152600401612a36906151a7565b60405180910390fd5b816002819055505050565b7fa49807205ce4d355092ef5a8a18f56e8913cf4a201fbe287825b095693c21775612a7c81612a77612d22565b612d2a565b816006819055505050565b80600a60003373ffffffffffffffffffffffffffffffffffffffff1673ffffffffffffffffffffffffffffffffffffffff16815260200190815260200160002060008473ffffffffffffffffffffffffffffffffffffffff1673ffffffffffffffffffffffffffffffffffffffff168152602001908152602001600020541015612b46576040517f08c379a0000000000000000000000000000000000000000000000000000000008152600401612b3d906151e7565b60405180910390fd5b80600a60003373ffffffffffffffffffffffffffffffffffffffff1673ffffffffffffffffffffffffffffffffffffffff16815260200190815260200160002060008473ffffffffffffffffffffffffffffffffffffffff1673ffffffffffffffffffffffffffffffffffffffff1681526020019081526020016000206000828254612bd291906154a9565b925050819055508173ffffffffffffffffffffffffffffffffffffffff1663a9059cbb33836040518363ffffffff1660e01b8152600401612c14929190614d00565b602060405180830381600087803b158015612c2e57600080fd5b505af1158015612c42573d6000803e3d6000fd5b505050506040513d601f19601f82011682018060405250810190612c6691906141f0565b505050565b7fa49807205ce4d355092ef5a8a18f56e8913cf4a201fbe287825b095693c21775612c9d81612c98612d22565b612d2a565b816005819055505050565b60007f7965db0b000000000000000000000000000000000000000000000000000000007bffffffffffffffffffffffffffffffffffffffffffffffffffffffff1916827bffffffffffffffffffffffffffffffffffffffffffffffffffffffff19161480612d1b5750612d1a8261357d565b5b9050919050565b600033905090565b612d3482826116f2565b612dc357612d598173ffffffffffffffffffffffffffffffffffffffff1660146135e7565b612d678360001c60206135e7565b604051602001612d78929190614c06565b6040516020818303038152906040526040517f08c379a0000000000000000000000000000000000000000000000000000000008152600401612dba9190614e65565b60405180910390fd5b5050565b612dcf610ecc565b612e0e576040517f08c379a0000000000000000000000000000000000000000000000000000000008152600401612e0590614ee7565b60405180910390fd5b6000600160006101000a81548160ff0219169083151502179055507f5db9ee0a495bf2e6ff9c91a7834c1ba4fdd244a5e8aa4e537bd38aeae4b073aa612e52612d22565b604051612e5f9190614c40565b60405180910390a1565b612e7382826116f2565b612f4557600160008084815260200190815260200160002060000160008373ffffffffffffffffffffffffffffffffffffffff1673ffffffffffffffffffffffffffffffffffffffff16815260200190815260200160002060006101000a81548160ff021916908315150217905550612eea612d22565b73ffffffffffffffffffffffffffffffffffffffff168173ffffffffffffffffffffffffffffffffffffffff16837f2f8788117e7eff1d82e926ec794901d17c78024a50270940304540a733656f0d60405160405180910390a45b5050565b6000806000612f588585613823565b91509150612f65816138a6565b819250505092915050565b612f7a82826116f2565b1561304d57600080600084815260200190815260200160002060000160008373ffffffffffffffffffffffffffffffffffffffff1673ffffffffffffffffffffffffffffffffffffffff16815260200190815260200160002060006101000a81548160ff021916908315150217905550612ff2612d22565b73ffffffffffffffffffffffffffffffffffffffff168173ffffffffffffffffffffffffffffffffffffffff16837ff6391f5c32d9c69d2a47ea670b442974b53935d1edc7fd64eb21e047a839171b60405160405180910390a45b5050565b613059610ecc565b15613099576040517f08c379a000000000000000000000000000000000000000000000000000000000815260040161309090615007565b60405180910390fd5b60018060006101000a81548160ff0219169083151502179055507f62e78cea01bee320cd4e420270b5ea74000d11b0c9f74754ebdbfc544b05a2586130dc612d22565b6040516130e99190614c40565b60405180910390a1565b6000816040516020016131069190614be0565b604051602081830303815290604052805190602001209050919050565b60008060045460025484613137919061544f565b613141919061541e565b905060045460035484613154919061544f565b61315e919061541e565b9150915091565b60008587111561317e57858761317b91906154a9565b96505b8690506131b9601060009054906101000a900473ffffffffffffffffffffffffffffffffffffffff168387896131b491906153c8565b6134e5565b8373ffffffffffffffffffffffffffffffffffffffff166301ffc9a763b779958460e01b6040518263ffffffff1660e01b81526004016131f99190614e4a565b60206040518083038186803b15801561321157600080fd5b505afa158015613225573d6000803e3d6000fd5b505050506040513d601f19601f8201168201806040525081019061324991906141f0565b613252576134da565b600084905060008173ffffffffffffffffffffffffffffffffffffffff1663b9c4d9fb866040518263ffffffff1660e01b81526004016132929190615263565b60006040518083038186803b1580156132aa57600080fd5b505afa1580156132be573d6000803e3d6000fd5b505050506040513d6000823e3d601f19601f820116820180604052508101906132e7919061415e565b905060008273ffffffffffffffffffffffffffffffffffffffff16630ebd4c7f876040518263ffffffff1660e01b81526004016133249190615263565b60006040518083038186803b15801561333c57600080fd5b505afa158015613350573d6000803e3d6000fd5b505050506040513d6000823e3d601f19601f8201168201806040525081019061337991906141a7565b905060005b81518110156134d5578b73ffffffffffffffffffffffffffffffffffffffff168382815181106133b1576133b0615771565b5b602002602001015173ffffffffffffffffffffffffffffffffffffffff1614156133da576134c2565b60008514156133e8576134d5565b6000600454838381518110613400576133ff615771565b5b60200260200101518d613413919061544f565b61341d919061541e565b9050858111156134335785905060009550613442565b808661343f91906154a9565b95505b61346784838151811061345857613457615771565b5b602002602001015188836134e5565b7f27c4f0403323142b599832f26acd21c74a9e5b809f2215726e244a4ac588cd7d898986858151811061349d5761349c615771565b5b60200260200101518a856040516134b8959493929190614d29565b60405180910390a1505b80806134cd90615663565b91505061337e565b505050505b979650505050505050565b80600a60008573ffffffffffffffffffffffffffffffffffffffff1673ffffffffffffffffffffffffffffffffffffffff16815260200190815260200160002060008473ffffffffffffffffffffffffffffffffffffffff1673ffffffffffffffffffffffffffffffffffffffff168152602001908152602001600020600082825461357191906153c8565b92505081905550505050565b60007f01ffc9a7000000000000000000000000000000000000000000000000000000007bffffffffffffffffffffffffffffffffffffffffffffffffffffffff1916827bffffffffffffffffffffffffffffffffffffffffffffffffffffffff1916149050919050565b6060600060028360026135fa919061544f565b61360491906153c8565b67ffffffffffffffff81111561361d5761361c6157a0565b5b6040519080825280601f01601f19166020018201604052801561364f5781602001600182028036833780820191505090505b5090507f30000000000000000000000000000000000000000000000000000000000000008160008151811061368757613686615771565b5b60200101907effffffffffffffffffffffffffffffffffffffffffffffffffffffffffffff1916908160001a9053507f7800000000000000000000000000000000000000000000000000000000000000816001815181106136eb576136ea615771565b5b60200101907effffffffffffffffffffffffffffffffffffffffffffffffffffffffffffff1916908160001a9053506000600184600261372b919061544f565b61373591906153c8565b90505b60018111156137d5577f3031323334353637383961626364656600000000000000000000000000000000600f86166010811061377757613776615771565b5b1a60f81b82828151811061378e5761378d615771565b5b60200101907effffffffffffffffffffffffffffffffffffffffffffffffffffffffffffff1916908160001a905350600485901c9450806137ce90615608565b9050613738565b5060008414613819576040517f08c379a000000000000000000000000000000000000000000000000000000000815260040161381090614ea7565b60405180910390fd5b8091505092915050565b6000806041835114156138655760008060006020860151925060408601519150606086015160001a905061385987828585613a7b565b9450945050505061389f565b60408351141561389657600080602085015191506040850151905061388b868383613b88565b93509350505061389f565b60006002915091505b9250929050565b600060048111156138ba576138b9615742565b5b8160048111156138cd576138cc615742565b5b14156138d857613a78565b600160048111156138ec576138eb615742565b5b8160048111156138ff576138fe615742565b5b1415613940576040517f08c379a000000000000000000000000000000000000000000000000000000000815260040161393790614e87565b60405180910390fd5b6002600481111561395457613953615742565b5b81600481111561396757613966615742565b5b14156139a8576040517f08c379a000000000000000000000000000000000000000000000000000000000815260040161399f90614f07565b60405180910390fd5b600360048111156139bc576139bb615742565b5b8160048111156139cf576139ce615742565b5b1415613a10576040517f08c379a0000000000000000000000000000000000000000000000000000000008152600401613a0790614fa7565b60405180910390fd5b600480811115613a2357613a22615742565b5b816004811115613a3657613a35615742565b5b1415613a77576040517f08c379a0000000000000000000000000000000000000000000000000000000008152600401613a6e906150c7565b60405180910390fd5b5b50565b6000807f7fffffffffffffffffffffffffffffff5d576e7357a4501ddfe92f46681b20a08360001c1115613ab6576000600391509150613b7f565b601b8560ff1614158015613ace5750601c8560ff1614155b15613ae0576000600491509150613b7f565b600060018787878760405160008152602001604052604051613b059493929190614e05565b6020604051602081039080840390855afa158015613b27573d6000803e3d6000fd5b505050602060405103519050600073ffffffffffffffffffffffffffffffffffffffff168173ffffffffffffffffffffffffffffffffffffffff161415613b7657600060019250925050613b7f565b80600092509250505b94509492505050565b6000806000807f7fffffffffffffffffffffffffffffffffffffffffffffffffffffffffffffff85169150601b8560ff1c019050613bc887828885613a7b565b935093505050935093915050565b60405180610120016040528060008152602001600073ffffffffffffffffffffffffffffffffffffffff168152602001600073ffffffffffffffffffffffffffffffffffffffff168152602001600081526020016000815260200160008152602001600073ffffffffffffffffffffffffffffffffffffffff1681526020016000815260200160006002811115613c7057613c6f615742565b5b81525090565b6000613c89613c8484615349565b615324565b90508083825260208201905082856020860282011115613cac57613cab6157de565b5b60005b85811015613cdc5781613cc28882613d6b565b845260208401935060208301925050600181019050613caf565b5050509392505050565b6000613cf9613cf484615375565b615324565b90508083825260208201905082856020860282011115613d1c57613d1b6157de565b5b60005b85811015613d4c5781613d328882613ebb565b845260208401935060208301925050600181019050613d1f565b5050509392505050565b600081359050613d6581615ee4565b92915050565b600081519050613d7a81615efb565b92915050565b600082601f830112613d9557613d946157d4565b5b8151613da5848260208601613c76565b91505092915050565b600082601f830112613dc357613dc26157d4565b5b8151613dd3848260208601613ce6565b91505092915050565b600081359050613deb81615f12565b92915050565b600081519050613e0081615f12565b92915050565b600081359050613e1581615f29565b92915050565b600081359050613e2a81615f40565b92915050565b60008083601f840112613e4657613e456157d4565b5b8235905067ffffffffffffffff811115613e6357613e626157cf565b5b602083019150836001820283011115613e7f57613e7e6157de565b5b9250929050565b60006101008284031215613e9d57613e9c6157d9565b5b81905092915050565b600081359050613eb581615f57565b92915050565b600081519050613eca81615f57565b92915050565b600060208284031215613ee657613ee56157e8565b5b6000613ef484828501613d56565b91505092915050565b60008060408385031215613f1457613f136157e8565b5b6000613f2285828601613d56565b9250506020613f3385828601613d56565b9150509250929050565b600080600080600080600080610100898b031215613f5e57613f5d6157e8565b5b6000613f6c8b828c01613d56565b9850506020613f7d8b828c01613d56565b9750506040613f8e8b828c01613ea6565b9650506060613f9f8b828c01613ea6565b9550506080613fb08b828c01613d56565b94505060a0613fc18b828c01613ea6565b93505060c0613fd28b828c01613ea6565b92505060e0613fe38b828c01613ea6565b9150509295985092959890939650565b6000806000806000806000806000806101208b8d031215614017576140166157e8565b5b60006140258d828e01613d56565b9a505060206140368d828e01613d56565b99505060406140478d828e01613ea6565b98505060606140588d828e01613ea6565b97505060806140698d828e01613d56565b96505060a061407a8d828e01613ea6565b95505060c061408b8d828e01613ea6565b94505060e061409c8d828e01613ea6565b9350506101008b013567ffffffffffffffff8111156140be576140bd6157e3565b5b6140ca8d828e01613e30565b92509250509295989b9194979a5092959850565b600080604083850312156140f5576140f46157e8565b5b600061410385828601613d56565b925050602061411485828601613ddc565b9150509250929050565b60008060408385031215614135576141346157e8565b5b600061414385828601613d56565b925050602061415485828601613ea6565b9150509250929050565b600060208284031215614174576141736157e8565b5b600082015167ffffffffffffffff811115614192576141916157e3565b5b61419e84828501613d80565b91505092915050565b6000602082840312156141bd576141bc6157e8565b5b600082015167ffffffffffffffff8111156141db576141da6157e3565b5b6141e784828501613dae565b91505092915050565b600060208284031215614206576142056157e8565b5b600061421484828501613df1565b91505092915050565b600060208284031215614233576142326157e8565b5b600061424184828501613e06565b91505092915050565b60008060408385031215614261576142606157e8565b5b600061426f85828601613e06565b925050602061428085828601613d56565b9150509250929050565b6000602082840312156142a05761429f6157e8565b5b60006142ae84828501613e1b565b91505092915050565b60008061012083850312156142cf576142ce6157e8565b5b60006142dd85828601613e86565b9250506101006142ef85828601613ea6565b9150509250929050565b6000806000806101408587031215614314576143136157e8565b5b600061432287828801613e86565b94505061010061433487828801613ea6565b93505061012085013567ffffffffffffffff811115614356576143556157e3565b5b61436287828801613e30565b925092505092959194509250565b600060208284031215614386576143856157e8565b5b600061439484828501613ea6565b91505092915050565b6000602082840312156143b3576143b26157e8565b5b60006143c184828501613ebb565b91505092915050565b600080604083850312156143e1576143e06157e8565b5b60006143ef85828601613ea6565b925050602061440085828601613ea6565b9150509250929050565b6144138161558d565b82525050565b614422816154dd565b82525050565b614431816154dd565b82525050565b614448614443826154dd565b6156ac565b82525050565b61445781615501565b82525050565b6144668161550d565b82525050565b61447d6144788261550d565b6156be565b82525050565b61448c81615517565b82525050565b61449b8161559f565b82525050565b60006144ac826153a1565b6144b681856153ac565b93506144c68185602086016155d5565b6144cf816157ed565b840191505092915050565b60006144e5826153a1565b6144ef81856153bd565b93506144ff8185602086016155d5565b80840191505092915050565b60006145186018836153ac565b91506145238261580b565b602082019050919050565b600061453b6020836153ac565b915061454682615834565b602082019050919050565b600061455e601b836153ac565b91506145698261585d565b602082019050919050565b60006145816014836153ac565b915061458c82615886565b602082019050919050565b60006145a4601f836153ac565b91506145af826158af565b602082019050919050565b60006145c7601c836153bd565b91506145d2826158d8565b601c82019050919050565b60006145ea6029836153ac565b91506145f582615901565b604082019050919050565b600061460d6026836153ac565b915061461882615950565b604082019050919050565b60006146306012836153ac565b915061463b8261599f565b602082019050919050565b6000614653601f836153ac565b915061465e826159c8565b602082019050919050565b60006146766022836153ac565b9150614681826159f1565b604082019050919050565b60006146996018836153ac565b91506146a482615a40565b602082019050919050565b60006146bc6015836153ac565b91506146c782615a69565b602082019050919050565b60006146df6010836153ac565b91506146ea82615a92565b602082019050919050565b60006147026012836153ac565b915061470d82615abb565b602082019050919050565b60006147256021836153ac565b915061473082615ae4565b604082019050919050565b60006147486019836153ac565b915061475382615b33565b602082019050919050565b600061476b601e836153ac565b915061477682615b5c565b602082019050919050565b600061478e6011836153ac565b915061479982615b85565b602082019050919050565b60006147b16022836153ac565b91506147bc82615bae565b604082019050919050565b60006147d46021836153ac565b91506147df82615bfd565b604082019050919050565b60006147f76011836153ac565b915061480282615c4c565b602082019050919050565b600061481a6011836153ac565b915061482582615c75565b602082019050919050565b600061483d6017836153ac565b915061484882615c9e565b602082019050919050565b60006148606013836153ac565b915061486b82615cc7565b602082019050919050565b6000614883601d836153ac565b915061488e82615cf0565b602082019050919050565b60006148a66017836153bd565b91506148b182615d19565b601782019050919050565b60006148c9602a836153ac565b91506148d482615d42565b604082019050919050565b60006148ec6012836153ac565b91506148f782615d91565b602082019050919050565b600061490f6021836153ac565b915061491a82615dba565b604082019050919050565b60006149326011836153bd565b915061493d82615e09565b601182019050919050565b6000614955602f836153ac565b915061496082615e32565b604082019050919050565b60006149786026836153ac565b915061498382615e81565b604082019050919050565b610120820160008201516149a56000850182614a45565b5060208201516149b86020850182614419565b5060408201516149cb6040850182614419565b5060608201516149de6060850182614a45565b5060808201516149f16080850182614a45565b5060a0820151614a0460a0850182614a45565b5060c0820151614a1760c0850182614419565b5060e0820151614a2a60e0850182614a45565b50610100820151614a3f610100850182614492565b50505050565b614a4e81615576565b82525050565b614a5d81615576565b82525050565b614a74614a6f82615576565b6156da565b82525050565b614a8381615580565b82525050565b6000614a95828d614437565b601482019150614aa5828c614437565b601482019150614ab5828b614437565b601482019150614ac5828a614437565b601482019150614ad58289614a63565b602082019150614ae58288614a63565b602082019150614af58287614437565b601482019150614b058286614a63565b602082019150614b158285614a63565b602082019150614b258284614a63565b6020820191508190509b9a5050505050505050505050565b6000614b49828c614437565b601482019150614b59828b614437565b601482019150614b69828a614437565b601482019150614b798289614a63565b602082019150614b898288614a63565b602082019150614b998287614437565b601482019150614ba98286614a63565b602082019150614bb98285614a63565b602082019150614bc98284614a63565b6020820191508190509a9950505050505050505050565b6000614beb826145ba565b9150614bf7828461446c565b60208201915081905092915050565b6000614c1182614899565b9150614c1d82856144da565b9150614c2882614925565b9150614c3482846144da565b91508190509392505050565b6000602082019050614c556000830184614428565b92915050565b6000604082019050614c706000830185614428565b614c7d6020830184614428565b9392505050565b6000606082019050614c996000830186614428565b614ca66020830185614428565b614cb36040830184614a54565b949350505050565b6000608082019050614cd06000830187614428565b614cdd6020830186614428565b614cea6040830185614a54565b614cf76060830184614a54565b95945050505050565b6000604082019050614d156000830185614428565b614d226020830184614a54565b9392505050565b600060a082019050614d3e6000830188614428565b614d4b6020830187614a54565b614d58604083018661440a565b614d656060830185614428565b614d726080830184614a54565b9695505050505050565b600060a082019050614d916000830188614428565b614d9e6020830187614a54565b614dab6040830186614428565b614db86060830185614a54565b614dc56080830184614a54565b9695505050505050565b6000602082019050614de4600083018461444e565b92915050565b6000602082019050614dff600083018461445d565b92915050565b6000608082019050614e1a600083018761445d565b614e276020830186614a7a565b614e34604083018561445d565b614e41606083018461445d565b95945050505050565b6000602082019050614e5f6000830184614483565b92915050565b60006020820190508181036000830152614e7f81846144a1565b905092915050565b60006020820190508181036000830152614ea08161450b565b9050919050565b60006020820190508181036000830152614ec08161452e565b9050919050565b60006020820190508181036000830152614ee081614551565b9050919050565b60006020820190508181036000830152614f0081614574565b9050919050565b60006020820190508181036000830152614f2081614597565b9050919050565b60006020820190508181036000830152614f40816145dd565b9050919050565b60006020820190508181036000830152614f6081614600565b9050919050565b60006020820190508181036000830152614f8081614623565b9050919050565b60006020820190508181036000830152614fa081614646565b9050919050565b60006020820190508181036000830152614fc081614669565b9050919050565b60006020820190508181036000830152614fe08161468c565b9050919050565b60006020820190508181036000830152615000816146af565b9050919050565b60006020820190508181036000830152615020816146d2565b9050919050565b60006020820190508181036000830152615040816146f5565b9050919050565b6000602082019050818103600083015261506081614718565b9050919050565b600060208201905081810360008301526150808161473b565b9050919050565b600060208201905081810360008301526150a08161475e565b9050919050565b600060208201905081810360008301526150c081614781565b9050919050565b600060208201905081810360008301526150e0816147a4565b9050919050565b60006020820190508181036000830152615100816147c7565b9050919050565b60006020820190508181036000830152615120816147ea565b9050919050565b600060208201905081810360008301526151408161480d565b9050919050565b6000602082019050818103600083015261516081614830565b9050919050565b6000602082019050818103600083015261518081614853565b9050919050565b600060208201905081810360008301526151a081614876565b9050919050565b600060208201905081810360008301526151c0816148bc565b9050919050565b600060208201905081810360008301526151e0816148df565b9050919050565b6000602082019050818103600083015261520081614902565b9050919050565b6000602082019050818103600083015261522081614948565b9050919050565b600060208201905081810360008301526152408161496b565b9050919050565b60006101208201905061525d600083018461498e565b92915050565b60006020820190506152786000830184614a54565b92915050565b600060e082019050615293600083018a614a54565b6152a06020830189614428565b6152ad6040830188614428565b6152ba6060830187614a54565b6152c76080830186614a54565b6152d460a0830185614428565b6152e160c0830184614a54565b98975050505050505050565b60006060820190506153026000830186614a54565b61530f6020830185614428565b61531c6040830184614a54565b949350505050565b600061532e61533f565b905061533a8282615632565b919050565b6000604051905090565b600067ffffffffffffffff821115615364576153636157a0565b5b602082029050602081019050919050565b600067ffffffffffffffff8211156153905761538f6157a0565b5b602082029050602081019050919050565b600081519050919050565b600082825260208201905092915050565b600081905092915050565b60006153d382615576565b91506153de83615576565b9250827fffffffffffffffffffffffffffffffffffffffffffffffffffffffffffffffff03821115615413576154126156e4565b5b828201905092915050565b600061542982615576565b915061543483615576565b92508261544457615443615713565b5b828204905092915050565b600061545a82615576565b915061546583615576565b9250817fffffffffffffffffffffffffffffffffffffffffffffffffffffffffffffffff048311821515161561549e5761549d6156e4565b5b828202905092915050565b60006154b482615576565b91506154bf83615576565b9250828210156154d2576154d16156e4565b5b828203905092915050565b60006154e882615556565b9050919050565b60006154fa82615556565b9050919050565b60008115159050919050565b6000819050919050565b60007fffffffff0000000000000000000000000000000000000000000000000000000082169050919050565b600081905061555182615ed0565b919050565b600073ffffffffffffffffffffffffffffffffffffffff82169050919050565b6000819050919050565b600060ff82169050919050565b6000615598826155b1565b9050919050565b60006155aa82615543565b9050919050565b60006155bc826155c3565b9050919050565b60006155ce82615556565b9050919050565b60005b838110156155f35780820151818401526020810190506155d8565b83811115615602576000848401525b50505050565b600061561382615576565b91506000821415615627576156266156e4565b5b600182039050919050565b61563b826157ed565b810181811067ffffffffffffffff8211171561565a576156596157a0565b5b80604052505050565b600061566e82615576565b91507fffffffffffffffffffffffffffffffffffffffffffffffffffffffffffffffff8214156156a1576156a06156e4565b5b600182019050919050565b60006156b7826156c8565b9050919050565b6000819050919050565b60006156d3826157fe565b9050919050565b6000819050919050565b7f4e487b7100000000000000000000000000000000000000000000000000000000600052601160045260246000fd5b7f4e487b7100000000000000000000000000000000000000000000000000000000600052601260045260246000fd5b7f4e487b7100000000000000000000000000000000000000000000000000000000600052602160045260246000fd5b7f4e487b7100000000000000000000000000000000000000000000000000000000600052603260045260246000fd5b7f4e487b7100000000000000000000000000000000000000000000000000000000600052604160045260246000fd5b600080fd5b600080fd5b600080fd5b600080fd5b600080fd5b600080fd5b6000601f19601f8301169050919050565b60008160601b9050919050565b7f45434453413a20696e76616c6964207369676e61747572650000000000000000600082015250565b7f537472696e67733a20686578206c656e67746820696e73756666696369656e74600082015250565b7f4e6f7420656e6f75676820746f6b656e7320666f722073616c652e0000000000600082015250565b7f5061757361626c653a206e6f7420706175736564000000000000000000000000600082015250565b7f45434453413a20696e76616c6964207369676e6174757265206c656e67746800600082015250565b7f19457468657265756d205369676e6564204d6573736167653a0a333200000000600082015250565b7f4f6e6c792073656c6c6572206f722061646d696e2063616e20636c6f7365207460008201527f68652074726164652e0000000000000000000000000000000000000000000000602082015250565b7f4f66666572206e6565647320746f206265207369676e6564206279207468652060008201527f62757965722e0000000000000000000000000000000000000000000000000000602082015250565b7f5472616465206973206e6f74206f70656e2e0000000000000000000000000000600082015250565b7f4f6e6c79206f70656e207472616465732063616e20626520636c6f7365642e00600082015250565b7f45434453413a20696e76616c6964207369676e6174757265202773272076616c60008201527f7565000000000000000000000000000000000000000000000000000000000000602082015250565b7f43757272656e6379206973206e6f7420616c6c6f7765642e0000000000000000600082015250565b7f416c6c6f77616e636520697320746f6f206c6f772e0000000000000000000000600082015250565b7f5061757361626c653a2070617573656400000000000000000000000000000000600082015250565b7f507269636520697320746f6f20686967682e0000000000000000000000000000600082015250565b7f4f666665722068617320616c7265616479206265656e2066756c66696c6c656460008201527f2e00000000000000000000000000000000000000000000000000000000000000602082015250565b7f5175616e746974792065786365656473206d6178696d756d2e00000000000000600082015250565b7f546f6b656e20636f6e7472616374206973206e6f7420616c6c6f7765642e0000600082015250565b7f507269636520697320746f6f206c6f772e000000000000000000000000000000600082015250565b7f45434453413a20696e76616c6964207369676e6174757265202776272076616c60008201527f7565000000000000000000000000000000000000000000000000000000000000602082015250565b7f4f666665722068617320616c7265616479206265656e2063616e63656c6c656460008201527f2e00000000000000000000000000000000000000000000000000000000000000602082015250565b7f417070726f76616c20657870697265642e000000000000000000000000000000600082015250565b7f4f6666657220697320657870697265642e000000000000000000000000000000600082015250565b7f53656c6c65722063616e6e6f742062652062757965722e000000000000000000600082015250565b7f417070726f76616c206578686175737465642e00000000000000000000000000600082015250565b7f4f6e6c792073656c6c65722063616e20616363657074206f666665722e000000600082015250565b7f416363657373436f6e74726f6c3a206163636f756e7420000000000000000000600082015250565b7f4665652063616e6e6f7420626520686967686572207468616e2068756e64726560008201527f642070657263656e742e00000000000000000000000000000000000000000000602082015250565b7f496e76616c6964207369676e61747572652e0000000000000000000000000000600082015250565b7f496e73756666696369656e742062616c616e636520746f20776974686472617760008201527f2e00000000000000000000000000000000000000000000000000000000000000602082015250565b7f206973206d697373696e6720726f6c6520000000000000000000000000000000600082015250565b7f416363657373436f6e74726f6c3a2063616e206f6e6c792072656e6f756e636560008201527f20726f6c657320666f722073656c660000000000000000000000000000000000602082015250565b7f4f6666657220686173206265656e2066756c66696c6c6564206f722063616e6360008201527f656c6c65642e0000000000000000000000000000000000000000000000000000602082015250565b60038110615ee157615ee0615742565b5b50565b615eed816154dd565b8114615ef857600080fd5b50565b615f04816154ef565b8114615f0f57600080fd5b50565b615f1b81615501565b8114615f2657600080fd5b50565b615f328161550d565b8114615f3d57600080fd5b50565b615f4981615517565b8114615f5457600080fd5b50565b615f6081615576565b8114615f6b57600080fd5b5056fea26469706673582212204650b415fff53519ffed463167e0a663299e0e8866eadc3733a17b2e5595c5c264736f6c63430008070033",
  "immutableReferences": {},
  "source": "// SPDX-License-Identifier: MIT\npragma solidity ^0.8.0;\n\nimport \"@openzeppelin/contracts/token/ERC20/IERC20.sol\";\nimport \"@openzeppelin/contracts/utils/cryptography/ECDSA.sol\";\nimport \"./MarketV1.sol\";\n\nstruct Offer {\n  address buyer;\n  address seller;\n  address token;\n  uint tokenId;\n  uint quantity;\n  address currency;\n  uint price;\n  uint expiry;\n}\n\ncontract OfferMarketV1 is MarketV1 {\n  using ECDSA for bytes32;\n \n  event AcceptOffer(\n    address indexed seller,\n    address indexed buyer,\n    address token,\n    address tokenId,\n    uint quantity,\n    address currency,\n    uint price\n  );\n\n  event CancelOffer(\n    address indexed sender,\n    address token,\n    address tokenId,\n    uint quantity,\n    address currency,\n    uint price\n  );\n\n  mapping(bytes32 => bool) private _cancelled;\n  mapping(bytes32 => bool) private _completed;\n\n  constructor(MarketWalletV1 wallet) MarketV1(wallet) {}\n\n  function acceptOffer(Offer calldata offer, uint salt, bytes calldata signature) public {\n    require(msg.sender == offer.seller, \"Only seller can accept offer.\");\n\n    require(_approvedTokens[offer.token], \"Token contract is not allowed.\");\n    require(_approvedCurrencies[offer.currency], \"Currency is not allowed.\");\n    \n    require(offer.expiry > block.timestamp, \"Offer is expired.\");\n\n    bytes32 offerHash = getOfferHash(offer, salt);\n\n    require(\n      !_cancelled[offerHash] && !_completed[offerHash],\n      \"Offer has been fulfilled or cancelled.\"\n    );\n    \n    address recoveredAddress = offerHash\n      .toEthSignedMessageHash()\n      .recover(signature);\n\n    require(\n      recoveredAddress == offer.buyer,\n      \"Offer needs to be signed by the buyer.\"\n    );\n\n    require(offer.price >= minTokenPrice, \"Price is too low.\");\n\n    (uint sellerFee, uint buyerFee) = calculateMarketFees(offer.price);\n\n    // require(\n    //   IERC20(offer.currency).allowance(\n    //     offer.buyer,\n    //     address(this)\n    //   ) >= offer.price + buyerFee,\n    //   \"Insufficient transfer allowance.\"\n    // );\n\n    _completed[offerHash] = true;\n    \n    _wallet.take(\n      offer.token,\n      msg.sender,\n      offer.tokenId,\n      offer.quantity\n    );\n\n    IERC20(offer.currency).transferFrom(\n      offer.buyer,\n      address(this),\n      offer.price + buyerFee\n    );\n    \n    uint sellerNet = payAfterFees(\n      offer.seller,\n      offer.price,\n      sellerFee,\n      buyerFee,\n      offer.token,\n      offer.tokenId,\n      offer.currency\n    );\n\n    pay(offer.currency, offer.seller, sellerNet);\n\n    _wallet.give(\n      offer.token,\n      offer.buyer,\n      offer.tokenId,\n      offer.quantity\n    );\n  }\n\n  function getOfferHash(Offer calldata offer, uint salt) public view returns (bytes32) {\n    return keccak256(abi.encodePacked(\n      address(this),\n      offer.buyer,\n      offer.seller,\n      offer.token,\n      offer.tokenId,\n      offer.quantity,\n      offer.currency,\n      offer.price,\n      offer.expiry,\n      salt\n    ));\n  }\n\n  // Only offer maker and market owner can cancel\n  function cancelOffer(Offer calldata offer, uint nonce, bytes calldata signature) public {\n    bytes32 offerHash = getOfferHash(offer, nonce);\n\n    require(!_completed[offerHash], \"Offer has already been fulfilled.\");\n    require(!_cancelled[offerHash], \"Offer has already been cancelled.\");\n\n    require(msg.sender == offerHash.recover(signature) || hasRole(ADMIN_ROLE, msg.sender));\n    \n    _cancelled[offerHash] = true;\n  }\n}",
  "sourcePath": "/Users/husnain/Desktop/fanbase/packages/ethereum/contracts/solidity/contracts/OfferMarketV1.sol",
  "compiler": {
    "name": "solc",
    "version": "0.8.7+commit.e28d00a7.Emscripten.clang"
  },
  "schemaVersion": "3.4.3",
  "updatedAt": "2021-09-23T21:56:53.450Z",
  "networkType": "ethereum",
  "devdoc": {
    "kind": "dev",
    "methods": {
      "getRoleAdmin(bytes32)": {
        "details": "Returns the admin role that controls `role`. See {grantRole} and {revokeRole}. To change a role's admin, use {_setRoleAdmin}."
      },
      "grantRole(bytes32,address)": {
        "details": "Grants `role` to `account`. If `account` had not been already granted `role`, emits a {RoleGranted} event. Requirements: - the caller must have ``role``'s admin role."
      },
      "hasRole(bytes32,address)": {
        "details": "Returns `true` if `account` has been granted `role`."
      },
      "paused()": {
        "details": "Returns true if the contract is paused, and false otherwise."
      },
      "renounceRole(bytes32,address)": {
        "details": "Revokes `role` from the calling account. Roles are often managed via {grantRole} and {revokeRole}: this function's purpose is to provide a mechanism for accounts to lose their privileges if they are compromised (such as when a trusted device is misplaced). If the calling account had been granted `role`, emits a {RoleRevoked} event. Requirements: - the caller must be `account`."
      },
      "revokeRole(bytes32,address)": {
        "details": "Revokes `role` from `account`. If `account` had been granted `role`, emits a {RoleRevoked} event. Requirements: - the caller must have ``role``'s admin role."
      }
    },
    "version": 1
  },
  "userdoc": {
    "kind": "user",
    "methods": {},
    "version": 1
  }
}