{
  "contractName": "OfferMarketV1",
  "abi": [
    {
      "inputs": [
        {
          "internalType": "contract MarketWalletV1",
          "name": "wallet",
          "type": "address"
        }
      ],
      "stateMutability": "nonpayable",
      "type": "constructor"
    },
    {
      "anonymous": false,
      "inputs": [
        {
          "indexed": true,
          "internalType": "address",
          "name": "seller",
          "type": "address"
        },
        {
          "indexed": true,
          "internalType": "address",
          "name": "buyer",
          "type": "address"
        },
        {
          "indexed": false,
          "internalType": "address",
          "name": "token",
          "type": "address"
        },
        {
          "indexed": false,
          "internalType": "address",
          "name": "tokenId",
          "type": "address"
        },
        {
          "indexed": false,
          "internalType": "uint256",
          "name": "quantity",
          "type": "uint256"
        },
        {
          "indexed": false,
          "internalType": "address",
          "name": "currency",
          "type": "address"
        },
        {
          "indexed": false,
          "internalType": "uint256",
          "name": "price",
          "type": "uint256"
        }
      ],
      "name": "AcceptOffer",
      "type": "event"
    },
    {
      "anonymous": false,
      "inputs": [
        {
          "indexed": false,
          "internalType": "uint256",
          "name": "tradeId",
          "type": "uint256"
        },
        {
          "indexed": false,
          "internalType": "address",
          "name": "buyer",
          "type": "address"
        },
        {
          "indexed": false,
          "internalType": "uint256",
          "name": "quantity",
          "type": "uint256"
        }
      ],
      "name": "Buy",
      "type": "event"
    },
    {
      "anonymous": false,
      "inputs": [
        {
          "indexed": false,
          "internalType": "address",
          "name": "operator",
          "type": "address"
        },
        {
          "indexed": false,
          "internalType": "uint256",
          "name": "tradeId",
          "type": "uint256"
        },
        {
          "indexed": false,
          "internalType": "address",
          "name": "tokenContract",
          "type": "address"
        },
        {
          "indexed": false,
          "internalType": "uint256",
          "name": "tokenId",
          "type": "uint256"
        },
        {
          "indexed": false,
          "internalType": "uint256",
          "name": "returned",
          "type": "uint256"
        }
      ],
      "name": "CancelListing",
      "type": "event"
    },
    {
      "anonymous": false,
      "inputs": [
        {
          "indexed": true,
          "internalType": "address",
          "name": "sender",
          "type": "address"
        },
        {
          "indexed": false,
          "internalType": "address",
          "name": "token",
          "type": "address"
        },
        {
          "indexed": false,
          "internalType": "address",
          "name": "tokenId",
          "type": "address"
        },
        {
          "indexed": false,
          "internalType": "uint256",
          "name": "quantity",
          "type": "uint256"
        },
        {
          "indexed": false,
          "internalType": "address",
          "name": "currency",
          "type": "address"
        },
        {
          "indexed": false,
          "internalType": "uint256",
          "name": "price",
          "type": "uint256"
        }
      ],
      "name": "CancelOffer",
      "type": "event"
    },
    {
      "anonymous": false,
      "inputs": [
        {
          "indexed": false,
          "internalType": "uint256",
          "name": "tradeId",
          "type": "uint256"
        },
        {
          "indexed": false,
          "internalType": "address",
          "name": "seller",
          "type": "address"
        },
        {
          "indexed": false,
          "internalType": "address",
          "name": "tokenContract",
          "type": "address"
        },
        {
          "indexed": false,
          "internalType": "uint256",
          "name": "tokenId",
          "type": "uint256"
        },
        {
          "indexed": false,
          "internalType": "uint256",
          "name": "quantity",
          "type": "uint256"
        },
        {
          "indexed": false,
          "internalType": "address",
          "name": "currency",
          "type": "address"
        },
        {
          "indexed": false,
          "internalType": "uint256",
          "name": "price",
          "type": "uint256"
        }
      ],
      "name": "ListForSale",
      "type": "event"
    },
    {
      "anonymous": false,
      "inputs": [
        {
          "indexed": false,
          "internalType": "address",
          "name": "account",
          "type": "address"
        }
      ],
      "name": "Paused",
      "type": "event"
    },
    {
      "anonymous": false,
      "inputs": [
        {
          "indexed": true,
          "internalType": "bytes32",
          "name": "role",
          "type": "bytes32"
        },
        {
          "indexed": true,
          "internalType": "bytes32",
          "name": "previousAdminRole",
          "type": "bytes32"
        },
        {
          "indexed": true,
          "internalType": "bytes32",
          "name": "newAdminRole",
          "type": "bytes32"
        }
      ],
      "name": "RoleAdminChanged",
      "type": "event"
    },
    {
      "anonymous": false,
      "inputs": [
        {
          "indexed": true,
          "internalType": "bytes32",
          "name": "role",
          "type": "bytes32"
        },
        {
          "indexed": true,
          "internalType": "address",
          "name": "account",
          "type": "address"
        },
        {
          "indexed": true,
          "internalType": "address",
          "name": "sender",
          "type": "address"
        }
      ],
      "name": "RoleGranted",
      "type": "event"
    },
    {
      "anonymous": false,
      "inputs": [
        {
          "indexed": true,
          "internalType": "bytes32",
          "name": "role",
          "type": "bytes32"
        },
        {
          "indexed": true,
          "internalType": "address",
          "name": "account",
          "type": "address"
        },
        {
          "indexed": true,
          "internalType": "address",
          "name": "sender",
          "type": "address"
        }
      ],
      "name": "RoleRevoked",
      "type": "event"
    },
    {
      "anonymous": false,
      "inputs": [
        {
          "indexed": false,
          "internalType": "uint256",
          "name": "tradeId",
          "type": "uint256"
        }
      ],
      "name": "Sell",
      "type": "event"
    },
    {
      "anonymous": false,
      "inputs": [
        {
          "indexed": false,
          "internalType": "address",
          "name": "account",
          "type": "address"
        }
      ],
      "name": "Unpaused",
      "type": "event"
    },
    {
      "inputs": [],
      "name": "ADMIN_ROLE",
      "outputs": [
        {
          "internalType": "bytes32",
          "name": "",
          "type": "bytes32"
        }
      ],
      "stateMutability": "view",
      "type": "function",
      "constant": true
    },
    {
      "inputs": [],
      "name": "DEFAULT_ADMIN_ROLE",
      "outputs": [
        {
          "internalType": "bytes32",
          "name": "",
          "type": "bytes32"
        }
      ],
      "stateMutability": "view",
      "type": "function",
      "constant": true
    },
    {
      "inputs": [
        {
          "internalType": "uint256",
          "name": "tradeId",
          "type": "uint256"
        },
        {
          "internalType": "uint256",
          "name": "quantity",
          "type": "uint256"
        }
      ],
      "name": "buy",
      "outputs": [],
      "stateMutability": "nonpayable",
      "type": "function"
    },
    {
      "inputs": [],
      "name": "buyerFeePct",
      "outputs": [
        {
          "internalType": "uint256",
          "name": "",
          "type": "uint256"
        }
      ],
      "stateMutability": "view",
      "type": "function",
      "constant": true
    },
    {
      "inputs": [
        {
          "internalType": "uint256",
          "name": "tradeId",
          "type": "uint256"
        }
      ],
      "name": "cancel",
      "outputs": [],
      "stateMutability": "nonpayable",
      "type": "function"
    },
    {
      "inputs": [
        {
          "internalType": "uint256",
          "name": "tradeId",
          "type": "uint256"
        }
      ],
      "name": "get",
      "outputs": [
        {
          "components": [
            {
              "internalType": "uint256",
              "name": "id",
              "type": "uint256"
            },
            {
              "internalType": "address",
              "name": "seller",
              "type": "address"
            },
            {
              "internalType": "address",
              "name": "token",
              "type": "address"
            },
            {
              "internalType": "uint256",
              "name": "tokenId",
              "type": "uint256"
            },
            {
              "internalType": "uint256",
              "name": "quantity",
              "type": "uint256"
            },
            {
              "internalType": "uint256",
              "name": "available",
              "type": "uint256"
            },
            {
              "internalType": "address",
              "name": "currency",
              "type": "address"
            },
            {
              "internalType": "uint256",
              "name": "price",
              "type": "uint256"
            },
            {
              "internalType": "enum TradeStatus",
              "name": "status",
              "type": "uint8"
            }
          ],
          "internalType": "struct Trade",
          "name": "",
          "type": "tuple"
        }
      ],
      "stateMutability": "view",
      "type": "function",
      "constant": true
    },
    {
      "inputs": [
        {
          "internalType": "address",
          "name": "currency",
          "type": "address"
        },
        {
          "internalType": "address",
          "name": "account",
          "type": "address"
        }
      ],
      "name": "getBalance",
      "outputs": [
        {
          "internalType": "uint256",
          "name": "",
          "type": "uint256"
        }
      ],
      "stateMutability": "view",
      "type": "function",
      "constant": true
    },
    {
      "inputs": [
        {
          "internalType": "bytes32",
          "name": "role",
          "type": "bytes32"
        }
      ],
      "name": "getRoleAdmin",
      "outputs": [
        {
          "internalType": "bytes32",
          "name": "",
          "type": "bytes32"
        }
      ],
      "stateMutability": "view",
      "type": "function",
      "constant": true
    },
    {
      "inputs": [
        {
          "internalType": "address",
          "name": "seller",
          "type": "address"
        },
        {
          "internalType": "address",
          "name": "token",
          "type": "address"
        },
        {
          "internalType": "uint256",
          "name": "tokenId",
          "type": "uint256"
        },
        {
          "internalType": "uint256",
          "name": "quantity",
          "type": "uint256"
        },
        {
          "internalType": "address",
          "name": "currency",
          "type": "address"
        },
        {
          "internalType": "uint256",
          "name": "price",
          "type": "uint256"
        },
        {
          "internalType": "uint256",
          "name": "expiry",
          "type": "uint256"
        },
        {
          "internalType": "uint256",
          "name": "salt",
          "type": "uint256"
        }
      ],
      "name": "getSaleAuthorizationHash",
      "outputs": [
        {
          "internalType": "bytes32",
          "name": "",
          "type": "bytes32"
        }
      ],
      "stateMutability": "view",
      "type": "function",
      "constant": true
    },
    {
      "inputs": [
        {
          "internalType": "bytes32",
          "name": "role",
          "type": "bytes32"
        },
        {
          "internalType": "address",
          "name": "account",
          "type": "address"
        }
      ],
      "name": "grantRole",
      "outputs": [],
      "stateMutability": "nonpayable",
      "type": "function"
    },
    {
      "inputs": [
        {
          "internalType": "bytes32",
          "name": "role",
          "type": "bytes32"
        },
        {
          "internalType": "address",
          "name": "account",
          "type": "address"
        }
      ],
      "name": "hasRole",
      "outputs": [
        {
          "internalType": "bool",
          "name": "",
          "type": "bool"
        }
      ],
      "stateMutability": "view",
      "type": "function",
      "constant": true
    },
    {
      "inputs": [],
      "name": "hundredPct",
      "outputs": [
        {
          "internalType": "uint256",
          "name": "",
          "type": "uint256"
        }
      ],
      "stateMutability": "view",
      "type": "function",
      "constant": true
    },
    {
      "inputs": [
        {
          "internalType": "address",
          "name": "currency",
          "type": "address"
        }
      ],
      "name": "isCurrencyApproved",
      "outputs": [
        {
          "internalType": "bool",
          "name": "",
          "type": "bool"
        }
      ],
      "stateMutability": "view",
      "type": "function",
      "constant": true
    },
    {
      "inputs": [
        {
          "internalType": "address",
          "name": "token",
          "type": "address"
        }
      ],
      "name": "isTokenApproved",
      "outputs": [
        {
          "internalType": "bool",
          "name": "",
          "type": "bool"
        }
      ],
      "stateMutability": "view",
      "type": "function",
      "constant": true
    },
    {
      "inputs": [
        {
          "internalType": "address",
          "name": "seller",
          "type": "address"
        },
        {
          "internalType": "address",
          "name": "token",
          "type": "address"
        },
        {
          "internalType": "uint256",
          "name": "tokenId",
          "type": "uint256"
        },
        {
          "internalType": "uint256",
          "name": "quantity",
          "type": "uint256"
        },
        {
          "internalType": "address",
          "name": "currency",
          "type": "address"
        },
        {
          "internalType": "uint256",
          "name": "price",
          "type": "uint256"
        },
        {
          "internalType": "uint256",
          "name": "expiry",
          "type": "uint256"
        },
        {
          "internalType": "uint256",
          "name": "salt",
          "type": "uint256"
        },
        {
          "internalType": "bytes",
          "name": "signature",
          "type": "bytes"
        }
      ],
      "name": "listForSale",
      "outputs": [],
      "stateMutability": "nonpayable",
      "type": "function"
    },
    {
      "inputs": [],
      "name": "maxTokenPrice",
      "outputs": [
        {
          "internalType": "uint256",
          "name": "",
          "type": "uint256"
        }
      ],
      "stateMutability": "view",
      "type": "function",
      "constant": true
    },
    {
      "inputs": [],
      "name": "maxTradeQuantity",
      "outputs": [
        {
          "internalType": "uint256",
          "name": "",
          "type": "uint256"
        }
      ],
      "stateMutability": "view",
      "type": "function",
      "constant": true
    },
    {
      "inputs": [],
      "name": "minTokenPrice",
      "outputs": [
        {
          "internalType": "uint256",
          "name": "",
          "type": "uint256"
        }
      ],
      "stateMutability": "view",
      "type": "function",
      "constant": true
    },
    {
      "inputs": [],
      "name": "pause",
      "outputs": [],
      "stateMutability": "nonpayable",
      "type": "function"
    },
    {
      "inputs": [],
      "name": "paused",
      "outputs": [
        {
          "internalType": "bool",
          "name": "",
          "type": "bool"
        }
      ],
      "stateMutability": "view",
      "type": "function",
      "constant": true
    },
    {
      "inputs": [
        {
          "internalType": "bytes32",
          "name": "role",
          "type": "bytes32"
        },
        {
          "internalType": "address",
          "name": "account",
          "type": "address"
        }
      ],
      "name": "renounceRole",
      "outputs": [],
      "stateMutability": "nonpayable",
      "type": "function"
    },
    {
      "inputs": [],
      "name": "resume",
      "outputs": [],
      "stateMutability": "nonpayable",
      "type": "function"
    },
    {
      "inputs": [
        {
          "internalType": "bytes32",
          "name": "role",
          "type": "bytes32"
        },
        {
          "internalType": "address",
          "name": "account",
          "type": "address"
        }
      ],
      "name": "revokeRole",
      "outputs": [],
      "stateMutability": "nonpayable",
      "type": "function"
    },
    {
      "inputs": [],
      "name": "sellerFeePct",
      "outputs": [
        {
          "internalType": "uint256",
          "name": "",
          "type": "uint256"
        }
      ],
      "stateMutability": "view",
      "type": "function",
      "constant": true
    },
    {
      "inputs": [
        {
          "internalType": "uint256",
          "name": "pct",
          "type": "uint256"
        }
      ],
      "name": "setBuyerFeePct",
      "outputs": [],
      "stateMutability": "nonpayable",
      "type": "function"
    },
    {
      "inputs": [
        {
          "internalType": "address",
          "name": "currency",
          "type": "address"
        },
        {
          "internalType": "bool",
          "name": "isApproved",
          "type": "bool"
        }
      ],
      "name": "setCurrencyApproval",
      "outputs": [],
      "stateMutability": "nonpayable",
      "type": "function"
    },
    {
      "inputs": [
        {
          "internalType": "address",
          "name": "beneficiary",
          "type": "address"
        }
      ],
      "name": "setFeeBeneficiary",
      "outputs": [],
      "stateMutability": "nonpayable",
      "type": "function"
    },
    {
      "inputs": [
        {
          "internalType": "uint256",
          "name": "price",
          "type": "uint256"
        }
      ],
      "name": "setMaxTokenPriceEther",
      "outputs": [],
      "stateMutability": "nonpayable",
      "type": "function"
    },
    {
      "inputs": [
        {
          "internalType": "uint256",
          "name": "price",
          "type": "uint256"
        }
      ],
      "name": "setMaxTokenPriceWei",
      "outputs": [],
      "stateMutability": "nonpayable",
      "type": "function"
    },
    {
      "inputs": [
        {
          "internalType": "uint256",
          "name": "quantity",
          "type": "uint256"
        }
      ],
      "name": "setMaxTradeQuantity",
      "outputs": [],
      "stateMutability": "nonpayable",
      "type": "function"
    },
    {
      "inputs": [
        {
          "internalType": "uint256",
          "name": "pct",
          "type": "uint256"
        }
      ],
      "name": "setSellerFeePct",
      "outputs": [],
      "stateMutability": "nonpayable",
      "type": "function"
    },
    {
      "inputs": [
        {
          "internalType": "address",
          "name": "token",
          "type": "address"
        },
        {
          "internalType": "bool",
          "name": "isApproved",
          "type": "bool"
        }
      ],
      "name": "setTokenApproval",
      "outputs": [],
      "stateMutability": "nonpayable",
      "type": "function"
    },
    {
      "inputs": [
        {
          "internalType": "bytes4",
          "name": "interfaceID",
          "type": "bytes4"
        }
      ],
      "name": "supportsInterface",
      "outputs": [
        {
          "internalType": "bool",
          "name": "",
          "type": "bool"
        }
      ],
      "stateMutability": "view",
      "type": "function",
      "constant": true
    },
    {
      "inputs": [
        {
          "internalType": "address",
          "name": "currency",
          "type": "address"
        },
        {
          "internalType": "uint256",
          "name": "amount",
          "type": "uint256"
        }
      ],
      "name": "withdraw",
      "outputs": [],
      "stateMutability": "nonpayable",
      "type": "function"
    },
    {
      "inputs": [
        {
          "components": [
            {
              "internalType": "address",
              "name": "buyer",
              "type": "address"
            },
            {
              "internalType": "address",
              "name": "seller",
              "type": "address"
            },
            {
              "internalType": "address",
              "name": "token",
              "type": "address"
            },
            {
              "internalType": "uint256",
              "name": "tokenId",
              "type": "uint256"
            },
            {
              "internalType": "uint256",
              "name": "quantity",
              "type": "uint256"
            },
            {
              "internalType": "address",
              "name": "currency",
              "type": "address"
            },
            {
              "internalType": "uint256",
              "name": "price",
              "type": "uint256"
            },
            {
              "internalType": "uint256",
              "name": "expiry",
              "type": "uint256"
            }
          ],
          "internalType": "struct Offer",
          "name": "offer",
          "type": "tuple"
        },
        {
          "internalType": "uint256",
          "name": "salt",
          "type": "uint256"
        },
        {
          "internalType": "bytes",
          "name": "signature",
          "type": "bytes"
        }
      ],
      "name": "acceptOffer",
      "outputs": [],
      "stateMutability": "nonpayable",
      "type": "function"
    },
    {
      "inputs": [
        {
          "components": [
            {
              "internalType": "address",
              "name": "buyer",
              "type": "address"
            },
            {
              "internalType": "address",
              "name": "seller",
              "type": "address"
            },
            {
              "internalType": "address",
              "name": "token",
              "type": "address"
            },
            {
              "internalType": "uint256",
              "name": "tokenId",
              "type": "uint256"
            },
            {
              "internalType": "uint256",
              "name": "quantity",
              "type": "uint256"
            },
            {
              "internalType": "address",
              "name": "currency",
              "type": "address"
            },
            {
              "internalType": "uint256",
              "name": "price",
              "type": "uint256"
            },
            {
              "internalType": "uint256",
              "name": "expiry",
              "type": "uint256"
            }
          ],
          "internalType": "struct Offer",
          "name": "offer",
          "type": "tuple"
        },
        {
          "internalType": "uint256",
          "name": "salt",
          "type": "uint256"
        }
      ],
      "name": "getOfferHash",
      "outputs": [
        {
          "internalType": "bytes32",
          "name": "",
          "type": "bytes32"
        }
      ],
      "stateMutability": "view",
      "type": "function",
      "constant": true
    },
    {
      "inputs": [
        {
          "components": [
            {
              "internalType": "address",
              "name": "buyer",
              "type": "address"
            },
            {
              "internalType": "address",
              "name": "seller",
              "type": "address"
            },
            {
              "internalType": "address",
              "name": "token",
              "type": "address"
            },
            {
              "internalType": "uint256",
              "name": "tokenId",
              "type": "uint256"
            },
            {
              "internalType": "uint256",
              "name": "quantity",
              "type": "uint256"
            },
            {
              "internalType": "address",
              "name": "currency",
              "type": "address"
            },
            {
              "internalType": "uint256",
              "name": "price",
              "type": "uint256"
            },
            {
              "internalType": "uint256",
              "name": "expiry",
              "type": "uint256"
            }
          ],
          "internalType": "struct Offer",
          "name": "offer",
          "type": "tuple"
        },
        {
          "internalType": "uint256",
          "name": "nonce",
          "type": "uint256"
        },
        {
          "internalType": "bytes",
          "name": "signature",
          "type": "bytes"
        }
      ],
      "name": "cancelOffer",
      "outputs": [],
      "stateMutability": "nonpayable",
      "type": "function"
    }
  ],
  "bytecode": "0x6080604052611388600255611388600355620186a060045569d3c21bcecceda1000000600555620f424060065560045460075560006008556000600c556000600e553480156200004e57600080fd5b5060405162006297380380620062978339818101604052810190620000749190620003a8565b806000600160006101000a81548160ff021916908315150217905550620000a56000801b336200019660201b60201c565b620000d77fa49807205ce4d355092ef5a8a18f56e8913cf4a201fbe287825b095693c21775336200019660201b60201c565b6200010c7fa49807205ce4d355092ef5a8a18f56e8913cf4a201fbe287825b095693c217756000801b620001ac60201b60201c565b33601060006101000a81548173ffffffffffffffffffffffffffffffffffffffff021916908373ffffffffffffffffffffffffffffffffffffffff16021790555080601160006101000a81548173ffffffffffffffffffffffffffffffffffffffff021916908373ffffffffffffffffffffffffffffffffffffffff160217905550505062000441565b620001a882826200020f60201b60201c565b5050565b6000620001bf836200030060201b60201c565b905081600080858152602001908152602001600020600101819055508181847fbd79b86ffe0ab8e8776151514217cd7cacd52c909f66475c3af44e129f0b00ff60405160405180910390a4505050565b6200022182826200031f60201b60201c565b620002fc57600160008084815260200190815260200160002060000160008373ffffffffffffffffffffffffffffffffffffffff1673ffffffffffffffffffffffffffffffffffffffff16815260200190815260200160002060006101000a81548160ff021916908315150217905550620002a16200038960201b60201c565b73ffffffffffffffffffffffffffffffffffffffff168173ffffffffffffffffffffffffffffffffffffffff16837f2f8788117e7eff1d82e926ec794901d17c78024a50270940304540a733656f0d60405160405180910390a45b5050565b6000806000838152602001908152602001600020600101549050919050565b600080600084815260200190815260200160002060000160008373ffffffffffffffffffffffffffffffffffffffff1673ffffffffffffffffffffffffffffffffffffffff16815260200190815260200160002060009054906101000a900460ff16905092915050565b600033905090565b600081519050620003a28162000427565b92915050565b600060208284031215620003c157620003c062000422565b5b6000620003d18482850162000391565b91505092915050565b6000620003e78262000402565b9050919050565b6000620003fb82620003da565b9050919050565b600073ffffffffffffffffffffffffffffffffffffffff82169050919050565b600080fd5b6200043281620003ee565b81146200043e57600080fd5b50565b615e4680620004516000396000f3fe608060405234801561001057600080fd5b50600436106102275760003560e01c80638662732e11610130578063be29928e116100b8578063d6febde81161007c578063d6febde81461064e578063e45ad64a1461066a578063e6a5010014610686578063f3fef3a3146106a2578063fd1fc13e146106be57610227565b8063be29928e14610598578063c661b89d146105c8578063d428dc2b146105e4578063d4fac45d14610602578063d547741f1461063257610227565b80639507d39a116100ff5780639507d39a146104e25780639d93d35214610512578063a217fddf14610542578063b8358a6114610560578063bca998191461057c57610227565b80638662732e146104485780638cac73ff146104785780638ce5ab6a1461049457806391d14854146104b257610227565b806340e58ee5116101b3578063670436f111610182578063670436f1146103c857806375b238fc146103e457806377e5c4a8146104025780638456cb591461042057806385d561ae1461042a57610227565b806340e58ee5146103545780635a0a3d82146103705780635c975abb1461038c5780635dabb20e146103aa57610227565b8063248a9ca3116101fa578063248a9ca3146102b25780632b483c03146102e25780632f2ff15d14610300578063325c5d561461031c57806336568abe1461033857610227565b806301ffc9a71461022c578063046f7da21461025c5780630d7b1acc1461026657806314d91c8414610296575b600080fd5b610246600480360381019061024191906141c4565b6106da565b6040516102539190614ca7565b60405180910390f35b6102646106ec565b005b610280600480360381019061027b9190613e0a565b610729565b60405161028d9190614ca7565b60405180910390f35b6102b060048036038101906102ab9190614018565b61077f565b005b6102cc60048036038101906102c79190614157565b61080d565b6040516102d99190614cc2565b60405180910390f35b6102ea61082c565b6040516102f7919061513b565b60405180910390f35b61031a60048036038101906103159190614184565b610832565b005b61033660048036038101906103319190614233565b61085b565b005b610352600480360381019061034d9190614184565b610a1d565b005b61036e600480360381019061036991906142aa565b610aa0565b005b61038a60048036038101906103859190613e0a565b610e72565b005b610394610ecc565b6040516103a19190614ca7565b60405180910390f35b6103b2610ee3565b6040516103bf919061513b565b60405180910390f35b6103e260048036038101906103dd9190614018565b610ee9565b005b6103ec610f77565b6040516103f99190614cc2565b60405180910390f35b61040a610f9b565b604051610417919061513b565b60405180910390f35b610428610fa1565b005b610432610fde565b60405161043f919061513b565b60405180910390f35b610462600480360381019061045d9190613e77565b610fe4565b60405161046f9190614cc2565b60405180910390f35b610492600480360381019061048d9190614233565b61102b565b005b61049c6116d9565b6040516104a9919061513b565b60405180910390f35b6104cc60048036038101906104c79190614184565b6116df565b6040516104d99190614ca7565b60405180910390f35b6104fc60048036038101906104f791906142aa565b611749565b604051610509919061511f565b60405180910390f35b61052c60048036038101906105279190613e0a565b6118e6565b6040516105399190614ca7565b60405180910390f35b61054a61193c565b6040516105579190614cc2565b60405180910390f35b61057a60048036038101906105759190613f2d565b611943565b005b610596600480360381019061059191906142aa565b612126565b005b6105b260048036038101906105ad91906141f1565b612176565b6040516105bf9190614cc2565b60405180910390f35b6105e260048036038101906105dd91906142aa565b612211565b005b6105ec612293565b6040516105f9919061513b565b60405180910390f35b61061c60048036038101906106179190613e37565b612299565b604051610629919061513b565b60405180910390f35b61064c60048036038101906106479190614184565b612320565b005b61066860048036038101906106639190614304565b612349565b005b610684600480360381019061067f91906142aa565b6129b0565b005b6106a0600480360381019061069b91906142aa565b612a32565b005b6106bc60048036038101906106b79190614058565b612a6f565b005b6106d860048036038101906106d391906142aa565b612c53565b005b60006106e582612c90565b9050919050565b7fa49807205ce4d355092ef5a8a18f56e8913cf4a201fbe287825b095693c2177561071e81610719612d0a565b612d12565b610726612daf565b50565b6000600d60008373ffffffffffffffffffffffffffffffffffffffff1673ffffffffffffffffffffffffffffffffffffffff16815260200190815260200160002060009054906101000a900460ff169050919050565b7fa49807205ce4d355092ef5a8a18f56e8913cf4a201fbe287825b095693c217756107b1816107ac612d0a565b612d12565b81600b60008573ffffffffffffffffffffffffffffffffffffffff1673ffffffffffffffffffffffffffffffffffffffff16815260200190815260200160002060006101000a81548160ff021916908315150217905550505050565b6000806000838152602001908152602001600020600101549050919050565b60035481565b61083b8261080d565b61084c81610847612d0a565b612d12565b6108568383612e51565b505050565b60006108678585612176565b90506013600082815260200190815260200160002060009054906101000a900460ff16156108ca576040517f08c379a00000000000000000000000000000000000000000000000000000000081526004016108c190614f1f565b60405180910390fd5b6012600082815260200190815260200160002060009054906101000a900460ff161561092b576040517f08c379a000000000000000000000000000000000000000000000000000000000815260040161092290614fbf565b60405180910390fd5b61098283838080601f016020809104026020016040519081016040528093929190818152602001838380828437600081840152601f19601f8201169050808301925050505050505082612f3190919063ffffffff16565b73ffffffffffffffffffffffffffffffffffffffff163373ffffffffffffffffffffffffffffffffffffffff1614806109e157506109e07fa49807205ce4d355092ef5a8a18f56e8913cf4a201fbe287825b095693c21775336116df565b5b6109ea57600080fd5b60016012600083815260200190815260200160002060006101000a81548160ff0219169083151502179055505050505050565b610a25612d0a565b73ffffffffffffffffffffffffffffffffffffffff168173ffffffffffffffffffffffffffffffffffffffff1614610a92576040517f08c379a0000000000000000000000000000000000000000000000000000000008152600401610a89906150df565b60405180910390fd5b610a9c8282612f58565b5050565b60006009600083815260200190815260200160002060405180610120016040529081600082015481526020016001820160009054906101000a900473ffffffffffffffffffffffffffffffffffffffff1673ffffffffffffffffffffffffffffffffffffffff1673ffffffffffffffffffffffffffffffffffffffff1681526020016002820160009054906101000a900473ffffffffffffffffffffffffffffffffffffffff1673ffffffffffffffffffffffffffffffffffffffff1673ffffffffffffffffffffffffffffffffffffffff1681526020016003820154815260200160048201548152602001600582015481526020016006820160009054906101000a900473ffffffffffffffffffffffffffffffffffffffff1673ffffffffffffffffffffffffffffffffffffffff1673ffffffffffffffffffffffffffffffffffffffff168152602001600782015481526020016008820160009054906101000a900460ff166002811115610c1a57610c196155e4565b5b6002811115610c2c57610c2b6155e4565b5b81525050905060006002811115610c4657610c456155e4565b5b8161010001516002811115610c5e57610c5d6155e4565b5b14610c9e576040517f08c379a0000000000000000000000000000000000000000000000000000000008152600401610c9590614e5f565b60405180910390fd5b806020015173ffffffffffffffffffffffffffffffffffffffff163373ffffffffffffffffffffffffffffffffffffffff161480610d025750610d017fa49807205ce4d355092ef5a8a18f56e8913cf4a201fbe287825b095693c21775336116df565b5b610d41576040517f08c379a0000000000000000000000000000000000000000000000000000000008152600401610d3890614dff565b60405180910390fd5b60026009600084815260200190815260200160002060080160006101000a81548160ff02191690836002811115610d7b57610d7a6155e4565b5b0217905550601160009054906101000a900473ffffffffffffffffffffffffffffffffffffffff1673ffffffffffffffffffffffffffffffffffffffff16632ed7bae88260400151836020015184606001518560a001516040518563ffffffff1660e01b8152600401610df19493929190614be6565b600060405180830381600087803b158015610e0b57600080fd5b505af1158015610e1f573d6000803e3d6000fd5b505050507fc601fcdba72395d2bf26895fdc068bb88a1ff514bafce37723be90787ed0a4803383836040015184606001518560a00151604051610e66959493929190614c54565b60405180910390a15050565b6000801b610e8781610e82612d0a565b612d12565b81601060006101000a81548173ffffffffffffffffffffffffffffffffffffffff021916908373ffffffffffffffffffffffffffffffffffffffff1602179055505050565b6000600160009054906101000a900460ff16905090565b60075481565b7fa49807205ce4d355092ef5a8a18f56e8913cf4a201fbe287825b095693c21775610f1b81610f16612d0a565b612d12565b81600d60008573ffffffffffffffffffffffffffffffffffffffff1673ffffffffffffffffffffffffffffffffffffffff16815260200190815260200160002060006101000a81548160ff021916908315150217905550505050565b7fa49807205ce4d355092ef5a8a18f56e8913cf4a201fbe287825b095693c2177581565b60055481565b7fa49807205ce4d355092ef5a8a18f56e8913cf4a201fbe287825b095693c21775610fd381610fce612d0a565b612d12565b610fdb613039565b50565b60065481565b600030898989898989898960405160200161100799989796959493929190614a68565b60405160208183030381529060405280519060200120905098975050505050505050565b83602001602081019061103e9190613e0a565b73ffffffffffffffffffffffffffffffffffffffff163373ffffffffffffffffffffffffffffffffffffffff16146110ab576040517f08c379a00000000000000000000000000000000000000000000000000000000081526004016110a29061505f565b60405180910390fd5b600b60008560400160208101906110c29190613e0a565b73ffffffffffffffffffffffffffffffffffffffff1673ffffffffffffffffffffffffffffffffffffffff16815260200190815260200160002060009054906101000a900460ff16611149576040517f08c379a000000000000000000000000000000000000000000000000000000000815260040161114090614f5f565b60405180910390fd5b600d60008560a00160208101906111609190613e0a565b73ffffffffffffffffffffffffffffffffffffffff1673ffffffffffffffffffffffffffffffffffffffff16815260200190815260200160002060009054906101000a900460ff166111e7576040517f08c379a00000000000000000000000000000000000000000000000000000000081526004016111de90614e9f565b60405180910390fd5b428460e001351161122d576040517f08c379a000000000000000000000000000000000000000000000000000000000815260040161122490614fff565b60405180910390fd5b60006112398585612176565b90506012600082815260200190815260200160002060009054906101000a900460ff1615801561128757506013600082815260200190815260200160002060009054906101000a900460ff16155b6112c6576040517f08c379a00000000000000000000000000000000000000000000000000000000081526004016112bd906150ff565b60405180910390fd5b600061132784848080601f016020809104026020016040519081016040528093929190818152602001838380828437600081840152601f19601f82011690508083019250505050505050611319846130db565b612f3190919063ffffffff16565b905085600001602081019061133c9190613e0a565b73ffffffffffffffffffffffffffffffffffffffff168173ffffffffffffffffffffffffffffffffffffffff16146113a9576040517f08c379a00000000000000000000000000000000000000000000000000000000081526004016113a090614e1f565b60405180910390fd5b6007548660c0013510156113f2576040517f08c379a00000000000000000000000000000000000000000000000000000000081526004016113e990614f7f565b60405180910390fd5b6000806114028860c0013561310b565b9150915060016013600086815260200190815260200160002060006101000a81548160ff021916908315150217905550601160009054906101000a900473ffffffffffffffffffffffffffffffffffffffff1673ffffffffffffffffffffffffffffffffffffffff166340fd58298960400160208101906114839190613e0a565b338b606001358c608001356040518563ffffffff1660e01b81526004016114ad9493929190614be6565b600060405180830381600087803b1580156114c757600080fd5b505af11580156114db573d6000803e3d6000fd5b505050508760a00160208101906114f29190613e0a565b73ffffffffffffffffffffffffffffffffffffffff166323b872dd8960000160208101906115209190613e0a565b30848c60c0013561153191906152a0565b6040518463ffffffff1660e01b815260040161154f93929190614baf565b602060405180830381600087803b15801561156957600080fd5b505af115801561157d573d6000803e3d6000fd5b505050506040513d601f19601f820116820180604052508101906115a1919061412a565b5060006115de8960c0013584848c60400160208101906115c19190613e0a565b8d606001358e60a00160208101906115d99190613e0a565b61314d565b905061160f8960a00160208101906115f69190613e0a565b8a60200160208101906116099190613e0a565b8361341f565b601160009054906101000a900473ffffffffffffffffffffffffffffffffffffffff1673ffffffffffffffffffffffffffffffffffffffff16632ed7bae88a60400160208101906116609190613e0a565b8b60000160208101906116739190613e0a565b8c606001358d608001356040518563ffffffff1660e01b815260040161169c9493929190614be6565b600060405180830381600087803b1580156116b657600080fd5b505af11580156116ca573d6000803e3d6000fd5b50505050505050505050505050565b60025481565b600080600084815260200190815260200160002060000160008373ffffffffffffffffffffffffffffffffffffffff1673ffffffffffffffffffffffffffffffffffffffff16815260200190815260200160002060009054906101000a900460ff16905092915050565b611751613b10565b6009600083815260200190815260200160002060405180610120016040529081600082015481526020016001820160009054906101000a900473ffffffffffffffffffffffffffffffffffffffff1673ffffffffffffffffffffffffffffffffffffffff1673ffffffffffffffffffffffffffffffffffffffff1681526020016002820160009054906101000a900473ffffffffffffffffffffffffffffffffffffffff1673ffffffffffffffffffffffffffffffffffffffff1673ffffffffffffffffffffffffffffffffffffffff1681526020016003820154815260200160048201548152602001600582015481526020016006820160009054906101000a900473ffffffffffffffffffffffffffffffffffffffff1673ffffffffffffffffffffffffffffffffffffffff1673ffffffffffffffffffffffffffffffffffffffff168152602001600782015481526020016008820160009054906101000a900460ff1660028111156118c9576118c86155e4565b5b60028111156118db576118da6155e4565b5b815250509050919050565b6000600b60008373ffffffffffffffffffffffffffffffffffffffff1673ffffffffffffffffffffffffffffffffffffffff16815260200190815260200160002060009054906101000a900460ff169050919050565b6000801b81565b61194b610ecc565b1561198b576040517f08c379a000000000000000000000000000000000000000000000000000000000815260040161198290614edf565b60405180910390fd5b6007548510156119d0576040517f08c379a00000000000000000000000000000000000000000000000000000000081526004016119c790614f7f565b60405180910390fd5b600554851115611a15576040517f08c379a0000000000000000000000000000000000000000000000000000000008152600401611a0c90614eff565b60405180910390fd5b600654871115611a5a576040517f08c379a0000000000000000000000000000000000000000000000000000000008152600401611a5190614f3f565b60405180910390fd5b600b60008a73ffffffffffffffffffffffffffffffffffffffff1673ffffffffffffffffffffffffffffffffffffffff16815260200190815260200160002060009054906101000a900460ff16611ae6576040517f08c379a0000000000000000000000000000000000000000000000000000000008152600401611add90614f5f565b60405180910390fd5b600d60008773ffffffffffffffffffffffffffffffffffffffff1673ffffffffffffffffffffffffffffffffffffffff16815260200190815260200160002060009054906101000a900460ff16611b72576040517f08c379a0000000000000000000000000000000000000000000000000000000008152600401611b6990614e9f565b60405180910390fd5b611b9c7fa49807205ce4d355092ef5a8a18f56e8913cf4a201fbe287825b095693c21775336116df565b611d8b57428411611be2576040517f08c379a0000000000000000000000000000000000000000000000000000000008152600401611bd990614fdf565b60405180910390fd5b6000611bf48b8b8b8b8b8b8b8b610fe4565b9050600f600082815260200190815260200160002060009054906101000a900460ff1615611c57576040517f08c379a0000000000000000000000000000000000000000000000000000000008152600401611c4e9061503f565b60405180910390fd5b6000611cb884848080601f016020809104026020016040519081016040528093929190818152602001838380828437600081840152601f19601f82011690508083019250505050505050611caa846130db565b612f3190919063ffffffff16565b9050600073ffffffffffffffffffffffffffffffffffffffff168173ffffffffffffffffffffffffffffffffffffffff1614158015611d1d5750611d1c7fa49807205ce4d355092ef5a8a18f56e8913cf4a201fbe287825b095693c21775826116df565b5b611d5c576040517f08c379a0000000000000000000000000000000000000000000000000000000008152600401611d539061509f565b60405180910390fd5b6001600f600084815260200190815260200160002060006101000a81548160ff02191690831515021790555050505b8873ffffffffffffffffffffffffffffffffffffffff166301ffc9a77fd9b67a26000000000000000000000000000000000000000000000000000000006040518263ffffffff1660e01b8152600401611de49190614d22565b60206040518083038186803b158015611dfc57600080fd5b505afa158015611e10573d6000803e3d6000fd5b505050506040513d601f19601f82011682018060405250810190611e34919061412a565b611e3d57600196505b601160009054906101000a900473ffffffffffffffffffffffffffffffffffffffff1673ffffffffffffffffffffffffffffffffffffffff166340fd58298a8c8b8b6040518563ffffffff1660e01b8152600401611e9e9493929190614be6565b600060405180830381600087803b158015611eb857600080fd5b505af1158015611ecc573d6000803e3d6000fd5b5050505060086000815480929190611ee390615505565b9190505550600060405180610120016040528060085481526020018c73ffffffffffffffffffffffffffffffffffffffff1681526020018b73ffffffffffffffffffffffffffffffffffffffff1681526020018a81526020018981526020018981526020018873ffffffffffffffffffffffffffffffffffffffff16815260200187815260200160006002811115611f7e57611f7d6155e4565b5b8152509050806009600060085481526020019081526020016000206000820151816000015560208201518160010160006101000a81548173ffffffffffffffffffffffffffffffffffffffff021916908373ffffffffffffffffffffffffffffffffffffffff16021790555060408201518160020160006101000a81548173ffffffffffffffffffffffffffffffffffffffff021916908373ffffffffffffffffffffffffffffffffffffffff160217905550606082015181600301556080820151816004015560a0820151816005015560c08201518160060160006101000a81548173ffffffffffffffffffffffffffffffffffffffff021916908373ffffffffffffffffffffffffffffffffffffffff16021790555060e082015181600701556101008201518160080160006101000a81548160ff021916908360028111156120cc576120cb6155e4565b5b02179055509050507f8c043961a2a3de4608ff0a3647fa6bdef2510bbf7ea923cd9b68bd43de4040e46008548c8c8c8c8c8c6040516121119796959493929190615156565b60405180910390a15050505050505050505050565b7fa49807205ce4d355092ef5a8a18f56e8913cf4a201fbe287825b095693c2177561215881612153612d0a565b612d12565b670de0b6b3a76400008261216c9190615327565b6005819055505050565b60003083600001602081019061218c9190613e0a565b84602001602081019061219f9190613e0a565b8560400160208101906121b29190613e0a565b866060013587608001358860a00160208101906121cf9190613e0a565b8960c001358a60e001358a6040516020016121f39a999897969594939291906149b4565b60405160208183030381529060405280519060200120905092915050565b7fa49807205ce4d355092ef5a8a18f56e8913cf4a201fbe287825b095693c217756122438161223e612d0a565b612d12565b600454821115612288576040517f08c379a000000000000000000000000000000000000000000000000000000000815260040161227f9061507f565b60405180910390fd5b816003819055505050565b60045481565b6000600a60008373ffffffffffffffffffffffffffffffffffffffff1673ffffffffffffffffffffffffffffffffffffffff16815260200190815260200160002060008473ffffffffffffffffffffffffffffffffffffffff1673ffffffffffffffffffffffffffffffffffffffff16815260200190815260200160002054905092915050565b6123298261080d565b61233a81612335612d0a565b612d12565b6123448383612f58565b505050565b612351610ecc565b15612391576040517f08c379a000000000000000000000000000000000000000000000000000000000815260040161238890614edf565b60405180910390fd5b60006009600084815260200190815260200160002060405180610120016040529081600082015481526020016001820160009054906101000a900473ffffffffffffffffffffffffffffffffffffffff1673ffffffffffffffffffffffffffffffffffffffff1673ffffffffffffffffffffffffffffffffffffffff1681526020016002820160009054906101000a900473ffffffffffffffffffffffffffffffffffffffff1673ffffffffffffffffffffffffffffffffffffffff1673ffffffffffffffffffffffffffffffffffffffff1681526020016003820154815260200160048201548152602001600582015481526020016006820160009054906101000a900473ffffffffffffffffffffffffffffffffffffffff1673ffffffffffffffffffffffffffffffffffffffff1673ffffffffffffffffffffffffffffffffffffffff168152602001600782015481526020016008820160009054906101000a900460ff16600281111561250b5761250a6155e4565b5b600281111561251d5761251c6155e4565b5b81525050905060006002811115612537576125366155e4565b5b816101000151600281111561254f5761254e6155e4565b5b1461258f576040517f08c379a000000000000000000000000000000000000000000000000000000000815260040161258690614e3f565b60405180910390fd5b8060a001518211156125d6576040517f08c379a00000000000000000000000000000000000000000000000000000000081526004016125cd90614d9f565b60405180910390fd5b806020015173ffffffffffffffffffffffffffffffffffffffff163373ffffffffffffffffffffffffffffffffffffffff161415612649576040517f08c379a00000000000000000000000000000000000000000000000000000000081526004016126409061501f565b60405180910390fd5b6000828260e0015161265b9190615327565b905060008260c0015190506000806126728461310b565b9150915060008373ffffffffffffffffffffffffffffffffffffffff1663dd62ed3e33306040518363ffffffff1660e01b81526004016126b3929190614b86565b60206040518083038186803b1580156126cb57600080fd5b505afa1580156126df573d6000803e3d6000fd5b505050506040513d601f19601f8201168201806040525081019061270391906142d7565b9050818561271191906152a0565b811015612753576040517f08c379a000000000000000000000000000000000000000000000000000000000815260040161274a90614ebf565b60405180910390fd5b8373ffffffffffffffffffffffffffffffffffffffff166323b872dd3330858961277d91906152a0565b6040518463ffffffff1660e01b815260040161279b93929190614baf565b602060405180830381600087803b1580156127b557600080fd5b505af11580156127c9573d6000803e3d6000fd5b505050506040513d601f19601f820116820180604052508101906127ed919061412a565b506000878760a001516128009190615381565b905080600960008b815260200190815260200160002060050181905550600081141561289d576001600960008b815260200190815260200160002060080160006101000a81548160ff021916908360028111156128605761285f6155e4565b5b02179055507f522881958b3c4a6fc0840ad3b7fb947b881edc28c004245a62541647422ade9789604051612894919061513b565b60405180910390a15b60006128b98786868b604001518c606001518d60c0015161314d565b90506128ce8860c0015189602001518361341f565b601160009054906101000a900473ffffffffffffffffffffffffffffffffffffffff1673ffffffffffffffffffffffffffffffffffffffff16632ed7bae88960400151338b606001518d6040518563ffffffff1660e01b81526004016129379493929190614be6565b600060405180830381600087803b15801561295157600080fd5b505af1158015612965573d6000803e3d6000fd5b505050507f3b599f6217e39be59216b60e543ce0d4c7d534fe64dd9d962334924e7819894e8a338b60405161299c939291906151c5565b60405180910390a150505050505050505050565b7fa49807205ce4d355092ef5a8a18f56e8913cf4a201fbe287825b095693c217756129e2816129dd612d0a565b612d12565b600454821115612a27576040517f08c379a0000000000000000000000000000000000000000000000000000000008152600401612a1e9061507f565b60405180910390fd5b816002819055505050565b7fa49807205ce4d355092ef5a8a18f56e8913cf4a201fbe287825b095693c21775612a6481612a5f612d0a565b612d12565b816006819055505050565b80600a60003373ffffffffffffffffffffffffffffffffffffffff1673ffffffffffffffffffffffffffffffffffffffff16815260200190815260200160002060008473ffffffffffffffffffffffffffffffffffffffff1673ffffffffffffffffffffffffffffffffffffffff168152602001908152602001600020541015612b2e576040517f08c379a0000000000000000000000000000000000000000000000000000000008152600401612b25906150bf565b60405180910390fd5b80600a60003373ffffffffffffffffffffffffffffffffffffffff1673ffffffffffffffffffffffffffffffffffffffff16815260200190815260200160002060008473ffffffffffffffffffffffffffffffffffffffff1673ffffffffffffffffffffffffffffffffffffffff1681526020019081526020016000206000828254612bba9190615381565b925050819055508173ffffffffffffffffffffffffffffffffffffffff1663a9059cbb33836040518363ffffffff1660e01b8152600401612bfc929190614c2b565b602060405180830381600087803b158015612c1657600080fd5b505af1158015612c2a573d6000803e3d6000fd5b505050506040513d601f19601f82011682018060405250810190612c4e919061412a565b505050565b7fa49807205ce4d355092ef5a8a18f56e8913cf4a201fbe287825b095693c21775612c8581612c80612d0a565b612d12565b816005819055505050565b60007f7965db0b000000000000000000000000000000000000000000000000000000007bffffffffffffffffffffffffffffffffffffffffffffffffffffffff1916827bffffffffffffffffffffffffffffffffffffffffffffffffffffffff19161480612d035750612d02826134b7565b5b9050919050565b600033905090565b612d1c82826116df565b612dab57612d418173ffffffffffffffffffffffffffffffffffffffff166014613521565b612d4f8360001c6020613521565b604051602001612d60929190614b31565b6040516020818303038152906040526040517f08c379a0000000000000000000000000000000000000000000000000000000008152600401612da29190614d3d565b60405180910390fd5b5050565b612db7610ecc565b612df6576040517f08c379a0000000000000000000000000000000000000000000000000000000008152600401612ded90614dbf565b60405180910390fd5b6000600160006101000a81548160ff0219169083151502179055507f5db9ee0a495bf2e6ff9c91a7834c1ba4fdd244a5e8aa4e537bd38aeae4b073aa612e3a612d0a565b604051612e479190614b6b565b60405180910390a1565b612e5b82826116df565b612f2d57600160008084815260200190815260200160002060000160008373ffffffffffffffffffffffffffffffffffffffff1673ffffffffffffffffffffffffffffffffffffffff16815260200190815260200160002060006101000a81548160ff021916908315150217905550612ed2612d0a565b73ffffffffffffffffffffffffffffffffffffffff168173ffffffffffffffffffffffffffffffffffffffff16837f2f8788117e7eff1d82e926ec794901d17c78024a50270940304540a733656f0d60405160405180910390a45b5050565b6000806000612f40858561375d565b91509150612f4d816137e0565b819250505092915050565b612f6282826116df565b1561303557600080600084815260200190815260200160002060000160008373ffffffffffffffffffffffffffffffffffffffff1673ffffffffffffffffffffffffffffffffffffffff16815260200190815260200160002060006101000a81548160ff021916908315150217905550612fda612d0a565b73ffffffffffffffffffffffffffffffffffffffff168173ffffffffffffffffffffffffffffffffffffffff16837ff6391f5c32d9c69d2a47ea670b442974b53935d1edc7fd64eb21e047a839171b60405160405180910390a45b5050565b613041610ecc565b15613081576040517f08c379a000000000000000000000000000000000000000000000000000000000815260040161307890614edf565b60405180910390fd5b60018060006101000a81548160ff0219169083151502179055507f62e78cea01bee320cd4e420270b5ea74000d11b0c9f74754ebdbfc544b05a2586130c4612d0a565b6040516130d19190614b6b565b60405180910390a1565b6000816040516020016130ee9190614b0b565b604051602081830303815290604052805190602001209050919050565b6000806004546002548461311f9190615327565b61312991906152f6565b90506004546003548461313c9190615327565b61314691906152f6565b9150915091565b6000858711156131665785876131639190615381565b96505b8690506131a182601060009054906101000a900473ffffffffffffffffffffffffffffffffffffffff16878961319c91906152a0565b61341f565b8373ffffffffffffffffffffffffffffffffffffffff166301ffc9a763b779958460e01b6040518263ffffffff1660e01b81526004016131e19190614d22565b60206040518083038186803b1580156131f957600080fd5b505afa15801561320d573d6000803e3d6000fd5b505050506040513d601f19601f82011682018060405250810190613231919061412a565b61323a57613415565b600084905060008173ffffffffffffffffffffffffffffffffffffffff1663b9c4d9fb866040518263ffffffff1660e01b815260040161327a919061513b565b60006040518083038186803b15801561329257600080fd5b505afa1580156132a6573d6000803e3d6000fd5b505050506040513d6000823e3d601f19601f820116820180604052508101906132cf9190614098565b905060008273ffffffffffffffffffffffffffffffffffffffff16630ebd4c7f876040518263ffffffff1660e01b815260040161330c919061513b565b60006040518083038186803b15801561332457600080fd5b505afa158015613338573d6000803e3d6000fd5b505050506040513d6000823e3d601f19601f8201168201806040525081019061336191906140e1565b905060005b815181101561341057600085141561337d57613410565b600060045483838151811061339557613394615613565b5b60200260200101518d6133a89190615327565b6133b291906152f6565b9050858111156133c857859050600095506133d7565b80866133d49190615381565b95505b6133fc878584815181106133ee576133ed615613565b5b60200260200101518361341f565b50808061340890615505565b915050613366565b505050505b9695505050505050565b80600a60008473ffffffffffffffffffffffffffffffffffffffff1673ffffffffffffffffffffffffffffffffffffffff16815260200190815260200160002060008573ffffffffffffffffffffffffffffffffffffffff1673ffffffffffffffffffffffffffffffffffffffff16815260200190815260200160002060008282546134ab91906152a0565b92505081905550505050565b60007f01ffc9a7000000000000000000000000000000000000000000000000000000007bffffffffffffffffffffffffffffffffffffffffffffffffffffffff1916827bffffffffffffffffffffffffffffffffffffffffffffffffffffffff1916149050919050565b6060600060028360026135349190615327565b61353e91906152a0565b67ffffffffffffffff81111561355757613556615642565b5b6040519080825280601f01601f1916602001820160405280156135895781602001600182028036833780820191505090505b5090507f3000000000000000000000000000000000000000000000000000000000000000816000815181106135c1576135c0615613565b5b60200101907effffffffffffffffffffffffffffffffffffffffffffffffffffffffffffff1916908160001a9053507f78000000000000000000000000000000000000000000000000000000000000008160018151811061362557613624615613565b5b60200101907effffffffffffffffffffffffffffffffffffffffffffffffffffffffffffff1916908160001a905350600060018460026136659190615327565b61366f91906152a0565b90505b600181111561370f577f3031323334353637383961626364656600000000000000000000000000000000600f8616601081106136b1576136b0615613565b5b1a60f81b8282815181106136c8576136c7615613565b5b60200101907effffffffffffffffffffffffffffffffffffffffffffffffffffffffffffff1916908160001a905350600485901c945080613708906154aa565b9050613672565b5060008414613753576040517f08c379a000000000000000000000000000000000000000000000000000000000815260040161374a90614d7f565b60405180910390fd5b8091505092915050565b60008060418351141561379f5760008060006020860151925060408601519150606086015160001a9050613793878285856139b5565b945094505050506137d9565b6040835114156137d05760008060208501519150604085015190506137c5868383613ac2565b9350935050506137d9565b60006002915091505b9250929050565b600060048111156137f4576137f36155e4565b5b816004811115613807576138066155e4565b5b1415613812576139b2565b60016004811115613826576138256155e4565b5b816004811115613839576138386155e4565b5b141561387a576040517f08c379a000000000000000000000000000000000000000000000000000000000815260040161387190614d5f565b60405180910390fd5b6002600481111561388e5761388d6155e4565b5b8160048111156138a1576138a06155e4565b5b14156138e2576040517f08c379a00000000000000000000000000000000000000000000000000000000081526004016138d990614ddf565b60405180910390fd5b600360048111156138f6576138f56155e4565b5b816004811115613909576139086155e4565b5b141561394a576040517f08c379a000000000000000000000000000000000000000000000000000000000815260040161394190614e7f565b60405180910390fd5b60048081111561395d5761395c6155e4565b5b8160048111156139705761396f6155e4565b5b14156139b1576040517f08c379a00000000000000000000000000000000000000000000000000000000081526004016139a890614f9f565b60405180910390fd5b5b50565b6000807f7fffffffffffffffffffffffffffffff5d576e7357a4501ddfe92f46681b20a08360001c11156139f0576000600391509150613ab9565b601b8560ff1614158015613a085750601c8560ff1614155b15613a1a576000600491509150613ab9565b600060018787878760405160008152602001604052604051613a3f9493929190614cdd565b6020604051602081039080840390855afa158015613a61573d6000803e3d6000fd5b505050602060405103519050600073ffffffffffffffffffffffffffffffffffffffff168173ffffffffffffffffffffffffffffffffffffffff161415613ab057600060019250925050613ab9565b80600092509250505b94509492505050565b6000806000807f7fffffffffffffffffffffffffffffffffffffffffffffffffffffffffffffff85169150601b8560ff1c019050613b02878288856139b5565b935093505050935093915050565b60405180610120016040528060008152602001600073ffffffffffffffffffffffffffffffffffffffff168152602001600073ffffffffffffffffffffffffffffffffffffffff168152602001600081526020016000815260200160008152602001600073ffffffffffffffffffffffffffffffffffffffff1681526020016000815260200160006002811115613baa57613ba96155e4565b5b81525090565b6000613bc3613bbe84615221565b6151fc565b90508083825260208201905082856020860282011115613be657613be5615680565b5b60005b85811015613c165781613bfc8882613ca5565b845260208401935060208301925050600181019050613be9565b5050509392505050565b6000613c33613c2e8461524d565b6151fc565b90508083825260208201905082856020860282011115613c5657613c55615680565b5b60005b85811015613c865781613c6c8882613df5565b845260208401935060208301925050600181019050613c59565b5050509392505050565b600081359050613c9f81615d86565b92915050565b600081519050613cb481615d9d565b92915050565b600082601f830112613ccf57613cce615676565b5b8151613cdf848260208601613bb0565b91505092915050565b600082601f830112613cfd57613cfc615676565b5b8151613d0d848260208601613c20565b91505092915050565b600081359050613d2581615db4565b92915050565b600081519050613d3a81615db4565b92915050565b600081359050613d4f81615dcb565b92915050565b600081359050613d6481615de2565b92915050565b60008083601f840112613d8057613d7f615676565b5b8235905067ffffffffffffffff811115613d9d57613d9c615671565b5b602083019150836001820283011115613db957613db8615680565b5b9250929050565b60006101008284031215613dd757613dd661567b565b5b81905092915050565b600081359050613def81615df9565b92915050565b600081519050613e0481615df9565b92915050565b600060208284031215613e2057613e1f61568a565b5b6000613e2e84828501613c90565b91505092915050565b60008060408385031215613e4e57613e4d61568a565b5b6000613e5c85828601613c90565b9250506020613e6d85828601613c90565b9150509250929050565b600080600080600080600080610100898b031215613e9857613e9761568a565b5b6000613ea68b828c01613c90565b9850506020613eb78b828c01613c90565b9750506040613ec88b828c01613de0565b9650506060613ed98b828c01613de0565b9550506080613eea8b828c01613c90565b94505060a0613efb8b828c01613de0565b93505060c0613f0c8b828c01613de0565b92505060e0613f1d8b828c01613de0565b9150509295985092959890939650565b6000806000806000806000806000806101208b8d031215613f5157613f5061568a565b5b6000613f5f8d828e01613c90565b9a50506020613f708d828e01613c90565b9950506040613f818d828e01613de0565b9850506060613f928d828e01613de0565b9750506080613fa38d828e01613c90565b96505060a0613fb48d828e01613de0565b95505060c0613fc58d828e01613de0565b94505060e0613fd68d828e01613de0565b9350506101008b013567ffffffffffffffff811115613ff857613ff7615685565b5b6140048d828e01613d6a565b92509250509295989b9194979a5092959850565b6000806040838503121561402f5761402e61568a565b5b600061403d85828601613c90565b925050602061404e85828601613d16565b9150509250929050565b6000806040838503121561406f5761406e61568a565b5b600061407d85828601613c90565b925050602061408e85828601613de0565b9150509250929050565b6000602082840312156140ae576140ad61568a565b5b600082015167ffffffffffffffff8111156140cc576140cb615685565b5b6140d884828501613cba565b91505092915050565b6000602082840312156140f7576140f661568a565b5b600082015167ffffffffffffffff81111561411557614114615685565b5b61412184828501613ce8565b91505092915050565b6000602082840312156141405761413f61568a565b5b600061414e84828501613d2b565b91505092915050565b60006020828403121561416d5761416c61568a565b5b600061417b84828501613d40565b91505092915050565b6000806040838503121561419b5761419a61568a565b5b60006141a985828601613d40565b92505060206141ba85828601613c90565b9150509250929050565b6000602082840312156141da576141d961568a565b5b60006141e884828501613d55565b91505092915050565b60008061012083850312156142095761420861568a565b5b600061421785828601613dc0565b92505061010061422985828601613de0565b9150509250929050565b600080600080610140858703121561424e5761424d61568a565b5b600061425c87828801613dc0565b94505061010061426e87828801613de0565b93505061012085013567ffffffffffffffff8111156142905761428f615685565b5b61429c87828801613d6a565b925092505092959194509250565b6000602082840312156142c0576142bf61568a565b5b60006142ce84828501613de0565b91505092915050565b6000602082840312156142ed576142ec61568a565b5b60006142fb84828501613df5565b91505092915050565b6000806040838503121561431b5761431a61568a565b5b600061432985828601613de0565b925050602061433a85828601613de0565b9150509250929050565b61434d816153b5565b82525050565b61435c816153b5565b82525050565b61437361436e826153b5565b61554e565b82525050565b614382816153d9565b82525050565b614391816153e5565b82525050565b6143a86143a3826153e5565b615560565b82525050565b6143b7816153ef565b82525050565b6143c681615465565b82525050565b60006143d782615279565b6143e18185615284565b93506143f1818560208601615477565b6143fa8161568f565b840191505092915050565b600061441082615279565b61441a8185615295565b935061442a818560208601615477565b80840191505092915050565b6000614443601883615284565b915061444e826156ad565b602082019050919050565b6000614466602083615284565b9150614471826156d6565b602082019050919050565b6000614489601b83615284565b9150614494826156ff565b602082019050919050565b60006144ac601483615284565b91506144b782615728565b602082019050919050565b60006144cf601f83615284565b91506144da82615751565b602082019050919050565b60006144f2601c83615295565b91506144fd8261577a565b601c82019050919050565b6000614515602983615284565b9150614520826157a3565b604082019050919050565b6000614538602683615284565b9150614543826157f2565b604082019050919050565b600061455b601283615284565b915061456682615841565b602082019050919050565b600061457e601f83615284565b91506145898261586a565b602082019050919050565b60006145a1602283615284565b91506145ac82615893565b604082019050919050565b60006145c4601883615284565b91506145cf826158e2565b602082019050919050565b60006145e7601583615284565b91506145f28261590b565b602082019050919050565b600061460a601083615284565b915061461582615934565b602082019050919050565b600061462d601283615284565b91506146388261595d565b602082019050919050565b6000614650602183615284565b915061465b82615986565b604082019050919050565b6000614673601983615284565b915061467e826159d5565b602082019050919050565b6000614696601e83615284565b91506146a1826159fe565b602082019050919050565b60006146b9601183615284565b91506146c482615a27565b602082019050919050565b60006146dc602283615284565b91506146e782615a50565b604082019050919050565b60006146ff602183615284565b915061470a82615a9f565b604082019050919050565b6000614722601183615284565b915061472d82615aee565b602082019050919050565b6000614745601183615284565b915061475082615b17565b602082019050919050565b6000614768601783615284565b915061477382615b40565b602082019050919050565b600061478b601383615284565b915061479682615b69565b602082019050919050565b60006147ae601d83615284565b91506147b982615b92565b602082019050919050565b60006147d1601783615295565b91506147dc82615bbb565b601782019050919050565b60006147f4602a83615284565b91506147ff82615be4565b604082019050919050565b6000614817601283615284565b915061482282615c33565b602082019050919050565b600061483a602183615284565b915061484582615c5c565b604082019050919050565b600061485d601183615295565b915061486882615cab565b601182019050919050565b6000614880602f83615284565b915061488b82615cd4565b604082019050919050565b60006148a3602683615284565b91506148ae82615d23565b604082019050919050565b610120820160008201516148d06000850182614970565b5060208201516148e36020850182614344565b5060408201516148f66040850182614344565b5060608201516149096060850182614970565b50608082015161491c6080850182614970565b5060a082015161492f60a0850182614970565b5060c082015161494260c0850182614344565b5060e082015161495560e0850182614970565b5061010082015161496a6101008501826143bd565b50505050565b6149798161544e565b82525050565b6149888161544e565b82525050565b61499f61499a8261544e565b61557c565b82525050565b6149ae81615458565b82525050565b60006149c0828d614362565b6014820191506149d0828c614362565b6014820191506149e0828b614362565b6014820191506149f0828a614362565b601482019150614a00828961498e565b602082019150614a10828861498e565b602082019150614a208287614362565b601482019150614a30828661498e565b602082019150614a40828561498e565b602082019150614a50828461498e565b6020820191508190509b9a5050505050505050505050565b6000614a74828c614362565b601482019150614a84828b614362565b601482019150614a94828a614362565b601482019150614aa4828961498e565b602082019150614ab4828861498e565b602082019150614ac48287614362565b601482019150614ad4828661498e565b602082019150614ae4828561498e565b602082019150614af4828461498e565b6020820191508190509a9950505050505050505050565b6000614b16826144e5565b9150614b228284614397565b60208201915081905092915050565b6000614b3c826147c4565b9150614b488285614405565b9150614b5382614850565b9150614b5f8284614405565b91508190509392505050565b6000602082019050614b806000830184614353565b92915050565b6000604082019050614b9b6000830185614353565b614ba86020830184614353565b9392505050565b6000606082019050614bc46000830186614353565b614bd16020830185614353565b614bde604083018461497f565b949350505050565b6000608082019050614bfb6000830187614353565b614c086020830186614353565b614c15604083018561497f565b614c22606083018461497f565b95945050505050565b6000604082019050614c406000830185614353565b614c4d602083018461497f565b9392505050565b600060a082019050614c696000830188614353565b614c76602083018761497f565b614c836040830186614353565b614c90606083018561497f565b614c9d608083018461497f565b9695505050505050565b6000602082019050614cbc6000830184614379565b92915050565b6000602082019050614cd76000830184614388565b92915050565b6000608082019050614cf26000830187614388565b614cff60208301866149a5565b614d0c6040830185614388565b614d196060830184614388565b95945050505050565b6000602082019050614d3760008301846143ae565b92915050565b60006020820190508181036000830152614d5781846143cc565b905092915050565b60006020820190508181036000830152614d7881614436565b9050919050565b60006020820190508181036000830152614d9881614459565b9050919050565b60006020820190508181036000830152614db88161447c565b9050919050565b60006020820190508181036000830152614dd88161449f565b9050919050565b60006020820190508181036000830152614df8816144c2565b9050919050565b60006020820190508181036000830152614e1881614508565b9050919050565b60006020820190508181036000830152614e388161452b565b9050919050565b60006020820190508181036000830152614e588161454e565b9050919050565b60006020820190508181036000830152614e7881614571565b9050919050565b60006020820190508181036000830152614e9881614594565b9050919050565b60006020820190508181036000830152614eb8816145b7565b9050919050565b60006020820190508181036000830152614ed8816145da565b9050919050565b60006020820190508181036000830152614ef8816145fd565b9050919050565b60006020820190508181036000830152614f1881614620565b9050919050565b60006020820190508181036000830152614f3881614643565b9050919050565b60006020820190508181036000830152614f5881614666565b9050919050565b60006020820190508181036000830152614f7881614689565b9050919050565b60006020820190508181036000830152614f98816146ac565b9050919050565b60006020820190508181036000830152614fb8816146cf565b9050919050565b60006020820190508181036000830152614fd8816146f2565b9050919050565b60006020820190508181036000830152614ff881614715565b9050919050565b6000602082019050818103600083015261501881614738565b9050919050565b600060208201905081810360008301526150388161475b565b9050919050565b600060208201905081810360008301526150588161477e565b9050919050565b60006020820190508181036000830152615078816147a1565b9050919050565b60006020820190508181036000830152615098816147e7565b9050919050565b600060208201905081810360008301526150b88161480a565b9050919050565b600060208201905081810360008301526150d88161482d565b9050919050565b600060208201905081810360008301526150f881614873565b9050919050565b6000602082019050818103600083015261511881614896565b9050919050565b60006101208201905061513560008301846148b9565b92915050565b6000602082019050615150600083018461497f565b92915050565b600060e08201905061516b600083018a61497f565b6151786020830189614353565b6151856040830188614353565b615192606083018761497f565b61519f608083018661497f565b6151ac60a0830185614353565b6151b960c083018461497f565b98975050505050505050565b60006060820190506151da600083018661497f565b6151e76020830185614353565b6151f4604083018461497f565b949350505050565b6000615206615217565b905061521282826154d4565b919050565b6000604051905090565b600067ffffffffffffffff82111561523c5761523b615642565b5b602082029050602081019050919050565b600067ffffffffffffffff82111561526857615267615642565b5b602082029050602081019050919050565b600081519050919050565b600082825260208201905092915050565b600081905092915050565b60006152ab8261544e565b91506152b68361544e565b9250827fffffffffffffffffffffffffffffffffffffffffffffffffffffffffffffffff038211156152eb576152ea615586565b5b828201905092915050565b60006153018261544e565b915061530c8361544e565b92508261531c5761531b6155b5565b5b828204905092915050565b60006153328261544e565b915061533d8361544e565b9250817fffffffffffffffffffffffffffffffffffffffffffffffffffffffffffffffff048311821515161561537657615375615586565b5b828202905092915050565b600061538c8261544e565b91506153978361544e565b9250828210156153aa576153a9615586565b5b828203905092915050565b60006153c08261542e565b9050919050565b60006153d28261542e565b9050919050565b60008115159050919050565b6000819050919050565b60007fffffffff0000000000000000000000000000000000000000000000000000000082169050919050565b600081905061542982615d72565b919050565b600073ffffffffffffffffffffffffffffffffffffffff82169050919050565b6000819050919050565b600060ff82169050919050565b60006154708261541b565b9050919050565b60005b8381101561549557808201518184015260208101905061547a565b838111156154a4576000848401525b50505050565b60006154b58261544e565b915060008214156154c9576154c8615586565b5b600182039050919050565b6154dd8261568f565b810181811067ffffffffffffffff821117156154fc576154fb615642565b5b80604052505050565b60006155108261544e565b91507fffffffffffffffffffffffffffffffffffffffffffffffffffffffffffffffff82141561554357615542615586565b5b600182019050919050565b60006155598261556a565b9050919050565b6000819050919050565b6000615575826156a0565b9050919050565b6000819050919050565b7f4e487b7100000000000000000000000000000000000000000000000000000000600052601160045260246000fd5b7f4e487b7100000000000000000000000000000000000000000000000000000000600052601260045260246000fd5b7f4e487b7100000000000000000000000000000000000000000000000000000000600052602160045260246000fd5b7f4e487b7100000000000000000000000000000000000000000000000000000000600052603260045260246000fd5b7f4e487b7100000000000000000000000000000000000000000000000000000000600052604160045260246000fd5b600080fd5b600080fd5b600080fd5b600080fd5b600080fd5b600080fd5b6000601f19601f8301169050919050565b60008160601b9050919050565b7f45434453413a20696e76616c6964207369676e61747572650000000000000000600082015250565b7f537472696e67733a20686578206c656e67746820696e73756666696369656e74600082015250565b7f4e6f7420656e6f75676820746f6b656e7320666f722073616c652e0000000000600082015250565b7f5061757361626c653a206e6f7420706175736564000000000000000000000000600082015250565b7f45434453413a20696e76616c6964207369676e6174757265206c656e67746800600082015250565b7f19457468657265756d205369676e6564204d6573736167653a0a333200000000600082015250565b7f4f6e6c792073656c6c6572206f722061646d696e2063616e20636c6f7365207460008201527f68652074726164652e0000000000000000000000000000000000000000000000602082015250565b7f4f66666572206e6565647320746f206265207369676e6564206279207468652060008201527f62757965722e0000000000000000000000000000000000000000000000000000602082015250565b7f5472616465206973206e6f74206f70656e2e0000000000000000000000000000600082015250565b7f4f6e6c79206f70656e207472616465732063616e20626520636c6f7365642e00600082015250565b7f45434453413a20696e76616c6964207369676e6174757265202773272076616c60008201527f7565000000000000000000000000000000000000000000000000000000000000602082015250565b7f43757272656e6379206973206e6f7420616c6c6f7765642e0000000000000000600082015250565b7f416c6c6f77616e636520697320746f6f206c6f772e0000000000000000000000600082015250565b7f5061757361626c653a2070617573656400000000000000000000000000000000600082015250565b7f507269636520697320746f6f20686967682e0000000000000000000000000000600082015250565b7f4f666665722068617320616c7265616479206265656e2066756c66696c6c656460008201527f2e00000000000000000000000000000000000000000000000000000000000000602082015250565b7f5175616e746974792065786365656473206d6178696d756d2e00000000000000600082015250565b7f546f6b656e20636f6e7472616374206973206e6f7420616c6c6f7765642e0000600082015250565b7f507269636520697320746f6f206c6f772e000000000000000000000000000000600082015250565b7f45434453413a20696e76616c6964207369676e6174757265202776272076616c60008201527f7565000000000000000000000000000000000000000000000000000000000000602082015250565b7f4f666665722068617320616c7265616479206265656e2063616e63656c6c656460008201527f2e00000000000000000000000000000000000000000000000000000000000000602082015250565b7f417070726f76616c20657870697265642e000000000000000000000000000000600082015250565b7f4f6666657220697320657870697265642e000000000000000000000000000000600082015250565b7f53656c6c65722063616e6e6f742062652062757965722e000000000000000000600082015250565b7f417070726f76616c206578686175737465642e00000000000000000000000000600082015250565b7f4f6e6c792073656c6c65722063616e20616363657074206f666665722e000000600082015250565b7f416363657373436f6e74726f6c3a206163636f756e7420000000000000000000600082015250565b7f4665652063616e6e6f7420626520686967686572207468616e2068756e64726560008201527f642070657263656e742e00000000000000000000000000000000000000000000602082015250565b7f496e76616c6964207369676e61747572652e0000000000000000000000000000600082015250565b7f496e73756666696369656e742062616c616e636520746f20776974686472617760008201527f2e00000000000000000000000000000000000000000000000000000000000000602082015250565b7f206973206d697373696e6720726f6c6520000000000000000000000000000000600082015250565b7f416363657373436f6e74726f6c3a2063616e206f6e6c792072656e6f756e636560008201527f20726f6c657320666f722073656c660000000000000000000000000000000000602082015250565b7f4f6666657220686173206265656e2066756c66696c6c6564206f722063616e6360008201527f656c6c65642e0000000000000000000000000000000000000000000000000000602082015250565b60038110615d8357615d826155e4565b5b50565b615d8f816153b5565b8114615d9a57600080fd5b50565b615da6816153c7565b8114615db157600080fd5b50565b615dbd816153d9565b8114615dc857600080fd5b50565b615dd4816153e5565b8114615ddf57600080fd5b50565b615deb816153ef565b8114615df657600080fd5b50565b615e028161544e565b8114615e0d57600080fd5b5056fea264697066735822122079a345227651c46ebe457c1962d1cc1dc36f2954a6c19174efddb357fe20970a64736f6c63430008070033",
  "immutableReferences": {},
  "source": "// SPDX-License-Identifier: MIT\npragma solidity ^0.8.0;\n\nimport \"@openzeppelin/contracts/token/ERC20/IERC20.sol\";\nimport \"@openzeppelin/contracts/utils/cryptography/ECDSA.sol\";\nimport \"./MarketV1.sol\";\n\nstruct Offer {\n  address buyer;\n  address seller;\n  address token;\n  uint tokenId;\n  uint quantity;\n  address currency;\n  uint price;\n  uint expiry;\n}\n\ncontract OfferMarketV1 is MarketV1 {\n  using ECDSA for bytes32;\n \n  event AcceptOffer(\n    address indexed seller,\n    address indexed buyer,\n    address token,\n    address tokenId,\n    uint quantity,\n    address currency,\n    uint price\n  );\n\n  event CancelOffer(\n    address indexed sender,\n    address token,\n    address tokenId,\n    uint quantity,\n    address currency,\n    uint price\n  );\n\n  mapping(bytes32 => bool) private _cancelled;\n  mapping(bytes32 => bool) private _completed;\n\n  constructor(MarketWalletV1 wallet) MarketV1(wallet) {}\n\n  function acceptOffer(Offer calldata offer, uint salt, bytes calldata signature) public {\n    require(msg.sender == offer.seller, \"Only seller can accept offer.\");\n\n    require(_approvedTokens[offer.token], \"Token contract is not allowed.\");\n    require(_approvedCurrencies[offer.currency], \"Currency is not allowed.\");\n    \n    require(offer.expiry > block.timestamp, \"Offer is expired.\");\n\n    bytes32 offerHash = getOfferHash(offer, salt);\n\n    require(\n      !_cancelled[offerHash] && !_completed[offerHash],\n      \"Offer has been fulfilled or cancelled.\"\n    );\n    \n    address recoveredAddress = offerHash\n      .toEthSignedMessageHash()\n      .recover(signature);\n\n    require(\n      recoveredAddress == offer.buyer,\n      \"Offer needs to be signed by the buyer.\"\n    );\n\n    require(offer.price >= minTokenPrice, \"Price is too low.\");\n\n    (uint sellerFee, uint buyerFee) = calculateMarketFees(offer.price);\n\n    // require(\n    //   IERC20(offer.currency).allowance(\n    //     offer.buyer,\n    //     address(this)\n    //   ) >= offer.price + buyerFee,\n    //   \"Insufficient transfer allowance.\"\n    // );\n\n    _completed[offerHash] = true;\n    \n    _wallet.take(\n      offer.token,\n      msg.sender,\n      offer.tokenId,\n      offer.quantity\n    );\n\n    IERC20(offer.currency).transferFrom(\n      offer.buyer,\n      address(this),\n      offer.price + buyerFee\n    );\n    \n    uint sellerNet = payAfterFees(\n      offer.price,\n      sellerFee,\n      buyerFee,\n      offer.token,\n      offer.tokenId,\n      offer.currency\n    );\n\n    pay(offer.currency, offer.seller, sellerNet);\n\n    _wallet.give(\n      offer.token,\n      offer.buyer,\n      offer.tokenId,\n      offer.quantity\n    );\n  }\n\n  function getOfferHash(Offer calldata offer, uint salt) public view returns (bytes32) {\n    return keccak256(abi.encodePacked(\n      address(this),\n      offer.buyer,\n      offer.seller,\n      offer.token,\n      offer.tokenId,\n      offer.quantity,\n      offer.currency,\n      offer.price,\n      offer.expiry,\n      salt\n    ));\n  }\n\n  // Only offer maker and market owner can cancel\n  function cancelOffer(Offer calldata offer, uint nonce, bytes calldata signature) public {\n    bytes32 offerHash = getOfferHash(offer, nonce);\n\n    require(!_completed[offerHash], \"Offer has already been fulfilled.\");\n    require(!_cancelled[offerHash], \"Offer has already been cancelled.\");\n\n    require(msg.sender == offerHash.recover(signature) || hasRole(ADMIN_ROLE, msg.sender));\n    \n    _cancelled[offerHash] = true;\n  }\n}",
  "sourcePath": "/Users/husnain/Desktop/fanbase/packages/ethereum/contracts/solidity/contracts/OfferMarketV1.sol",
  "compiler": {
    "name": "solc",
    "version": "0.8.7+commit.e28d00a7.Emscripten.clang"
  },
  "schemaVersion": "3.4.3",
  "updatedAt": "2021-09-23T08:46:34.437Z",
  "networkType": "ethereum",
  "devdoc": {
    "kind": "dev",
    "methods": {
      "getRoleAdmin(bytes32)": {
        "details": "Returns the admin role that controls `role`. See {grantRole} and {revokeRole}. To change a role's admin, use {_setRoleAdmin}."
      },
      "grantRole(bytes32,address)": {
        "details": "Grants `role` to `account`. If `account` had not been already granted `role`, emits a {RoleGranted} event. Requirements: - the caller must have ``role``'s admin role."
      },
      "hasRole(bytes32,address)": {
        "details": "Returns `true` if `account` has been granted `role`."
      },
      "paused()": {
        "details": "Returns true if the contract is paused, and false otherwise."
      },
      "renounceRole(bytes32,address)": {
        "details": "Revokes `role` from the calling account. Roles are often managed via {grantRole} and {revokeRole}: this function's purpose is to provide a mechanism for accounts to lose their privileges if they are compromised (such as when a trusted device is misplaced). If the calling account had been granted `role`, emits a {RoleRevoked} event. Requirements: - the caller must be `account`."
      },
      "revokeRole(bytes32,address)": {
        "details": "Revokes `role` from `account`. If `account` had been granted `role`, emits a {RoleRevoked} event. Requirements: - the caller must have ``role``'s admin role."
      }
    },
    "version": 1
  },
  "userdoc": {
    "kind": "user",
    "methods": {},
    "version": 1
  }
}