{
  "contractName": "OfferMarketV1",
  "abi": [
    {
      "inputs": [
        {
          "internalType": "contract MarketWalletV1",
          "name": "wallet",
          "type": "address"
        }
      ],
      "stateMutability": "nonpayable",
      "type": "constructor"
    },
    {
      "anonymous": false,
      "inputs": [
        {
          "indexed": true,
          "internalType": "address",
          "name": "seller",
          "type": "address"
        },
        {
          "indexed": true,
          "internalType": "address",
          "name": "buyer",
          "type": "address"
        },
        {
          "indexed": false,
          "internalType": "address",
          "name": "token",
          "type": "address"
        },
        {
          "indexed": false,
          "internalType": "address",
          "name": "tokenId",
          "type": "address"
        },
        {
          "indexed": false,
          "internalType": "uint256",
          "name": "quantity",
          "type": "uint256"
        },
        {
          "indexed": false,
          "internalType": "address",
          "name": "currency",
          "type": "address"
        },
        {
          "indexed": false,
          "internalType": "uint256",
          "name": "price",
          "type": "uint256"
        }
      ],
      "name": "AcceptOffer",
      "type": "event"
    },
    {
      "anonymous": false,
      "inputs": [
        {
          "indexed": false,
          "internalType": "uint256",
          "name": "listingId",
          "type": "uint256"
        },
        {
          "indexed": false,
          "internalType": "address",
          "name": "operator",
          "type": "address"
        },
        {
          "indexed": false,
          "internalType": "address",
          "name": "tokenContract",
          "type": "address"
        },
        {
          "indexed": false,
          "internalType": "uint256",
          "name": "tokenId",
          "type": "uint256"
        },
        {
          "indexed": false,
          "internalType": "uint256",
          "name": "returned",
          "type": "uint256"
        }
      ],
      "name": "CancelListing",
      "type": "event"
    },
    {
      "anonymous": false,
      "inputs": [
        {
          "indexed": true,
          "internalType": "address",
          "name": "sender",
          "type": "address"
        },
        {
          "indexed": false,
          "internalType": "address",
          "name": "token",
          "type": "address"
        },
        {
          "indexed": false,
          "internalType": "address",
          "name": "tokenId",
          "type": "address"
        },
        {
          "indexed": false,
          "internalType": "uint256",
          "name": "quantity",
          "type": "uint256"
        },
        {
          "indexed": false,
          "internalType": "address",
          "name": "currency",
          "type": "address"
        },
        {
          "indexed": false,
          "internalType": "uint256",
          "name": "price",
          "type": "uint256"
        }
      ],
      "name": "CancelOffer",
      "type": "event"
    },
    {
      "anonymous": false,
      "inputs": [
        {
          "indexed": false,
          "internalType": "uint256",
          "name": "listingId",
          "type": "uint256"
        },
        {
          "indexed": false,
          "internalType": "address",
          "name": "seller",
          "type": "address"
        },
        {
          "indexed": false,
          "internalType": "address",
          "name": "tokenContract",
          "type": "address"
        },
        {
          "indexed": false,
          "internalType": "uint256",
          "name": "tokenId",
          "type": "uint256"
        },
        {
          "indexed": false,
          "internalType": "uint256",
          "name": "quantity",
          "type": "uint256"
        },
        {
          "indexed": false,
          "internalType": "address",
          "name": "currency",
          "type": "address"
        },
        {
          "indexed": false,
          "internalType": "uint256",
          "name": "price",
          "type": "uint256"
        },
        {
          "indexed": false,
          "internalType": "uint256",
          "name": "expiry",
          "type": "uint256"
        },
        {
          "indexed": false,
          "internalType": "uint256",
          "name": "maxPerBuyer",
          "type": "uint256"
        }
      ],
      "name": "ListForSale",
      "type": "event"
    },
    {
      "anonymous": false,
      "inputs": [
        {
          "indexed": true,
          "internalType": "bytes32",
          "name": "role",
          "type": "bytes32"
        },
        {
          "indexed": true,
          "internalType": "bytes32",
          "name": "previousAdminRole",
          "type": "bytes32"
        },
        {
          "indexed": true,
          "internalType": "bytes32",
          "name": "newAdminRole",
          "type": "bytes32"
        }
      ],
      "name": "RoleAdminChanged",
      "type": "event"
    },
    {
      "anonymous": false,
      "inputs": [
        {
          "indexed": true,
          "internalType": "bytes32",
          "name": "role",
          "type": "bytes32"
        },
        {
          "indexed": true,
          "internalType": "address",
          "name": "account",
          "type": "address"
        },
        {
          "indexed": true,
          "internalType": "address",
          "name": "sender",
          "type": "address"
        }
      ],
      "name": "RoleGranted",
      "type": "event"
    },
    {
      "anonymous": false,
      "inputs": [
        {
          "indexed": true,
          "internalType": "bytes32",
          "name": "role",
          "type": "bytes32"
        },
        {
          "indexed": true,
          "internalType": "address",
          "name": "account",
          "type": "address"
        },
        {
          "indexed": true,
          "internalType": "address",
          "name": "sender",
          "type": "address"
        }
      ],
      "name": "RoleRevoked",
      "type": "event"
    },
    {
      "anonymous": false,
      "inputs": [
        {
          "indexed": false,
          "internalType": "address",
          "name": "token",
          "type": "address"
        },
        {
          "indexed": false,
          "internalType": "uint256",
          "name": "tokenId",
          "type": "uint256"
        },
        {
          "indexed": false,
          "internalType": "address",
          "name": "beneficiary",
          "type": "address"
        },
        {
          "indexed": false,
          "internalType": "address",
          "name": "currency",
          "type": "address"
        },
        {
          "indexed": false,
          "internalType": "uint256",
          "name": "amount",
          "type": "uint256"
        }
      ],
      "name": "RoyaltyPayment",
      "type": "event"
    },
    {
      "anonymous": false,
      "inputs": [
        {
          "indexed": false,
          "internalType": "uint256",
          "name": "listingId",
          "type": "uint256"
        },
        {
          "indexed": false,
          "internalType": "address",
          "name": "buyer",
          "type": "address"
        },
        {
          "indexed": false,
          "internalType": "address",
          "name": "seller",
          "type": "address"
        },
        {
          "indexed": false,
          "internalType": "uint256",
          "name": "quantity",
          "type": "uint256"
        },
        {
          "indexed": false,
          "internalType": "address",
          "name": "currency",
          "type": "address"
        },
        {
          "indexed": false,
          "internalType": "uint256",
          "name": "price",
          "type": "uint256"
        }
      ],
      "name": "Trade",
      "type": "event"
    },
    {
      "inputs": [],
      "name": "ADMIN_ROLE",
      "outputs": [
        {
          "internalType": "bytes32",
          "name": "",
          "type": "bytes32"
        }
      ],
      "stateMutability": "view",
      "type": "function",
      "constant": true
    },
    {
      "inputs": [],
      "name": "DEFAULT_ADMIN_ROLE",
      "outputs": [
        {
          "internalType": "bytes32",
          "name": "",
          "type": "bytes32"
        }
      ],
      "stateMutability": "view",
      "type": "function",
      "constant": true
    },
    {
      "inputs": [
        {
          "internalType": "uint256",
          "name": "",
          "type": "uint256"
        },
        {
          "internalType": "address",
          "name": "",
          "type": "address"
        }
      ],
      "name": "_listingPurchasesForBuyer",
      "outputs": [
        {
          "internalType": "uint256",
          "name": "",
          "type": "uint256"
        }
      ],
      "stateMutability": "view",
      "type": "function",
      "constant": true
    },
    {
      "inputs": [
        {
          "internalType": "uint256",
          "name": "listingId",
          "type": "uint256"
        },
        {
          "internalType": "uint256",
          "name": "quantity",
          "type": "uint256"
        }
      ],
      "name": "buy",
      "outputs": [],
      "stateMutability": "nonpayable",
      "type": "function"
    },
    {
      "inputs": [],
      "name": "buyerFeePct",
      "outputs": [
        {
          "internalType": "uint256",
          "name": "",
          "type": "uint256"
        }
      ],
      "stateMutability": "view",
      "type": "function",
      "constant": true
    },
    {
      "inputs": [
        {
          "internalType": "uint256",
          "name": "listingId",
          "type": "uint256"
        }
      ],
      "name": "cancel",
      "outputs": [],
      "stateMutability": "nonpayable",
      "type": "function"
    },
    {
      "inputs": [
        {
          "internalType": "uint256",
          "name": "listingId",
          "type": "uint256"
        }
      ],
      "name": "get",
      "outputs": [
        {
          "components": [
            {
              "internalType": "uint256",
              "name": "id",
              "type": "uint256"
            },
            {
              "internalType": "address",
              "name": "seller",
              "type": "address"
            },
            {
              "internalType": "address",
              "name": "token",
              "type": "address"
            },
            {
              "internalType": "uint256",
              "name": "tokenId",
              "type": "uint256"
            },
            {
              "internalType": "uint256",
              "name": "quantity",
              "type": "uint256"
            },
            {
              "internalType": "uint256",
              "name": "available",
              "type": "uint256"
            },
            {
              "internalType": "address",
              "name": "currency",
              "type": "address"
            },
            {
              "internalType": "uint256",
              "name": "price",
              "type": "uint256"
            },
            {
              "internalType": "uint256",
              "name": "expiry",
              "type": "uint256"
            },
            {
              "internalType": "uint256",
              "name": "maxPerBuyer",
              "type": "uint256"
            },
            {
              "internalType": "enum ListingStatus",
              "name": "status",
              "type": "uint8"
            }
          ],
          "internalType": "struct Listing",
          "name": "",
          "type": "tuple"
        }
      ],
      "stateMutability": "view",
      "type": "function",
      "constant": true
    },
    {
      "inputs": [
        {
          "internalType": "address",
          "name": "currency",
          "type": "address"
        },
        {
          "internalType": "address",
          "name": "account",
          "type": "address"
        }
      ],
      "name": "getBalance",
      "outputs": [
        {
          "internalType": "uint256",
          "name": "",
          "type": "uint256"
        }
      ],
      "stateMutability": "view",
      "type": "function",
      "constant": true
    },
    {
      "inputs": [
        {
          "internalType": "bytes32",
          "name": "role",
          "type": "bytes32"
        }
      ],
      "name": "getRoleAdmin",
      "outputs": [
        {
          "internalType": "bytes32",
          "name": "",
          "type": "bytes32"
        }
      ],
      "stateMutability": "view",
      "type": "function",
      "constant": true
    },
    {
      "inputs": [
        {
          "internalType": "address",
          "name": "seller",
          "type": "address"
        },
        {
          "internalType": "address",
          "name": "token",
          "type": "address"
        },
        {
          "internalType": "uint256",
          "name": "tokenId",
          "type": "uint256"
        },
        {
          "internalType": "uint256",
          "name": "quantity",
          "type": "uint256"
        },
        {
          "internalType": "address",
          "name": "currency",
          "type": "address"
        },
        {
          "internalType": "uint256",
          "name": "price",
          "type": "uint256"
        },
        {
          "internalType": "uint256",
          "name": "expiry",
          "type": "uint256"
        },
        {
          "internalType": "uint256",
          "name": "approvalExpiry",
          "type": "uint256"
        },
        {
          "internalType": "uint256",
          "name": "approvalSalt",
          "type": "uint256"
        }
      ],
      "name": "getSaleAuthorizationHash",
      "outputs": [
        {
          "internalType": "bytes32",
          "name": "",
          "type": "bytes32"
        }
      ],
      "stateMutability": "view",
      "type": "function",
      "constant": true
    },
    {
      "inputs": [
        {
          "internalType": "bytes32",
          "name": "role",
          "type": "bytes32"
        },
        {
          "internalType": "address",
          "name": "account",
          "type": "address"
        }
      ],
      "name": "grantRole",
      "outputs": [],
      "stateMutability": "nonpayable",
      "type": "function"
    },
    {
      "inputs": [
        {
          "internalType": "bytes32",
          "name": "role",
          "type": "bytes32"
        },
        {
          "internalType": "address",
          "name": "account",
          "type": "address"
        }
      ],
      "name": "hasRole",
      "outputs": [
        {
          "internalType": "bool",
          "name": "",
          "type": "bool"
        }
      ],
      "stateMutability": "view",
      "type": "function",
      "constant": true
    },
    {
      "inputs": [],
      "name": "hundredPct",
      "outputs": [
        {
          "internalType": "uint256",
          "name": "",
          "type": "uint256"
        }
      ],
      "stateMutability": "view",
      "type": "function",
      "constant": true
    },
    {
      "inputs": [
        {
          "internalType": "address",
          "name": "currency",
          "type": "address"
        }
      ],
      "name": "isCurrencyApproved",
      "outputs": [
        {
          "internalType": "bool",
          "name": "",
          "type": "bool"
        }
      ],
      "stateMutability": "view",
      "type": "function",
      "constant": true
    },
    {
      "inputs": [
        {
          "internalType": "address",
          "name": "token",
          "type": "address"
        }
      ],
      "name": "isTokenApproved",
      "outputs": [
        {
          "internalType": "bool",
          "name": "",
          "type": "bool"
        }
      ],
      "stateMutability": "view",
      "type": "function",
      "constant": true
    },
    {
      "inputs": [
        {
          "internalType": "address",
          "name": "seller",
          "type": "address"
        },
        {
          "internalType": "address",
          "name": "token",
          "type": "address"
        },
        {
          "internalType": "uint256",
          "name": "tokenId",
          "type": "uint256"
        },
        {
          "internalType": "uint256",
          "name": "quantity",
          "type": "uint256"
        },
        {
          "internalType": "address",
          "name": "currency",
          "type": "address"
        },
        {
          "internalType": "uint256",
          "name": "price",
          "type": "uint256"
        },
        {
          "internalType": "uint256",
          "name": "expiry",
          "type": "uint256"
        },
        {
          "internalType": "uint256",
          "name": "maxPerBuyer",
          "type": "uint256"
        },
        {
          "components": [
            {
              "internalType": "uint256",
              "name": "expiry",
              "type": "uint256"
            },
            {
              "internalType": "uint256",
              "name": "salt",
              "type": "uint256"
            },
            {
              "internalType": "bytes",
              "name": "signature",
              "type": "bytes"
            }
          ],
          "internalType": "struct Approval",
          "name": "approval",
          "type": "tuple"
        }
      ],
      "name": "listForSale",
      "outputs": [],
      "stateMutability": "nonpayable",
      "type": "function"
    },
    {
      "inputs": [
        {
          "internalType": "uint256",
          "name": "listingId",
          "type": "uint256"
        },
        {
          "internalType": "address",
          "name": "buyer",
          "type": "address"
        }
      ],
      "name": "listingPurchasesForBuyer",
      "outputs": [
        {
          "internalType": "uint256",
          "name": "",
          "type": "uint256"
        }
      ],
      "stateMutability": "view",
      "type": "function",
      "constant": true
    },
    {
      "inputs": [],
      "name": "maxListingQuantity",
      "outputs": [
        {
          "internalType": "uint256",
          "name": "",
          "type": "uint256"
        }
      ],
      "stateMutability": "view",
      "type": "function",
      "constant": true
    },
    {
      "inputs": [],
      "name": "maxTokenPrice",
      "outputs": [
        {
          "internalType": "uint256",
          "name": "",
          "type": "uint256"
        }
      ],
      "stateMutability": "view",
      "type": "function",
      "constant": true
    },
    {
      "inputs": [],
      "name": "minTokenPrice",
      "outputs": [
        {
          "internalType": "uint256",
          "name": "",
          "type": "uint256"
        }
      ],
      "stateMutability": "view",
      "type": "function",
      "constant": true
    },
    {
      "inputs": [
        {
          "internalType": "bytes32",
          "name": "role",
          "type": "bytes32"
        },
        {
          "internalType": "address",
          "name": "account",
          "type": "address"
        }
      ],
      "name": "renounceRole",
      "outputs": [],
      "stateMutability": "nonpayable",
      "type": "function"
    },
    {
      "inputs": [
        {
          "internalType": "bytes32",
          "name": "role",
          "type": "bytes32"
        },
        {
          "internalType": "address",
          "name": "account",
          "type": "address"
        }
      ],
      "name": "revokeRole",
      "outputs": [],
      "stateMutability": "nonpayable",
      "type": "function"
    },
    {
      "inputs": [],
      "name": "sellerFeePct",
      "outputs": [
        {
          "internalType": "uint256",
          "name": "",
          "type": "uint256"
        }
      ],
      "stateMutability": "view",
      "type": "function",
      "constant": true
    },
    {
      "inputs": [
        {
          "internalType": "uint256",
          "name": "pct",
          "type": "uint256"
        }
      ],
      "name": "setBuyerFeePct",
      "outputs": [],
      "stateMutability": "nonpayable",
      "type": "function"
    },
    {
      "inputs": [
        {
          "internalType": "address[]",
          "name": "currencies",
          "type": "address[]"
        },
        {
          "internalType": "bool",
          "name": "isApproved",
          "type": "bool"
        }
      ],
      "name": "setCurrenciesApproval",
      "outputs": [],
      "stateMutability": "nonpayable",
      "type": "function"
    },
    {
      "inputs": [
        {
          "internalType": "address",
          "name": "beneficiary",
          "type": "address"
        }
      ],
      "name": "setFeeBeneficiary",
      "outputs": [],
      "stateMutability": "nonpayable",
      "type": "function"
    },
    {
      "inputs": [
        {
          "internalType": "uint256",
          "name": "quantity",
          "type": "uint256"
        }
      ],
      "name": "setMaxListingQuantity",
      "outputs": [],
      "stateMutability": "nonpayable",
      "type": "function"
    },
    {
      "inputs": [
        {
          "internalType": "uint256",
          "name": "price",
          "type": "uint256"
        }
      ],
      "name": "setMaxTokenPriceEther",
      "outputs": [],
      "stateMutability": "nonpayable",
      "type": "function"
    },
    {
      "inputs": [
        {
          "internalType": "uint256",
          "name": "price",
          "type": "uint256"
        }
      ],
      "name": "setMaxTokenPriceWei",
      "outputs": [],
      "stateMutability": "nonpayable",
      "type": "function"
    },
    {
      "inputs": [
        {
          "internalType": "uint256",
          "name": "pct",
          "type": "uint256"
        }
      ],
      "name": "setSellerFeePct",
      "outputs": [],
      "stateMutability": "nonpayable",
      "type": "function"
    },
    {
      "inputs": [
        {
          "internalType": "address[]",
          "name": "tokens",
          "type": "address[]"
        },
        {
          "internalType": "bool",
          "name": "isApproved",
          "type": "bool"
        }
      ],
      "name": "setTokensApproval",
      "outputs": [],
      "stateMutability": "nonpayable",
      "type": "function"
    },
    {
      "inputs": [
        {
          "internalType": "bytes4",
          "name": "interfaceID",
          "type": "bytes4"
        }
      ],
      "name": "supportsInterface",
      "outputs": [
        {
          "internalType": "bool",
          "name": "",
          "type": "bool"
        }
      ],
      "stateMutability": "view",
      "type": "function",
      "constant": true
    },
    {
      "inputs": [
        {
          "internalType": "address",
          "name": "currency",
          "type": "address"
        },
        {
          "internalType": "uint256",
          "name": "amount",
          "type": "uint256"
        }
      ],
      "name": "withdraw",
      "outputs": [],
      "stateMutability": "nonpayable",
      "type": "function"
    },
    {
      "inputs": [
        {
          "components": [
            {
              "internalType": "address",
              "name": "buyer",
              "type": "address"
            },
            {
              "internalType": "address",
              "name": "seller",
              "type": "address"
            },
            {
              "internalType": "address",
              "name": "token",
              "type": "address"
            },
            {
              "internalType": "uint256",
              "name": "tokenId",
              "type": "uint256"
            },
            {
              "internalType": "uint256",
              "name": "quantity",
              "type": "uint256"
            },
            {
              "internalType": "address",
              "name": "currency",
              "type": "address"
            },
            {
              "internalType": "uint256",
              "name": "price",
              "type": "uint256"
            },
            {
              "internalType": "uint256",
              "name": "expiry",
              "type": "uint256"
            }
          ],
          "internalType": "struct Offer",
          "name": "offer",
          "type": "tuple"
        },
        {
          "internalType": "uint256",
          "name": "salt",
          "type": "uint256"
        },
        {
          "internalType": "bytes",
          "name": "signature",
          "type": "bytes"
        }
      ],
      "name": "acceptOffer",
      "outputs": [],
      "stateMutability": "nonpayable",
      "type": "function"
    },
    {
      "inputs": [
        {
          "components": [
            {
              "internalType": "address",
              "name": "buyer",
              "type": "address"
            },
            {
              "internalType": "address",
              "name": "seller",
              "type": "address"
            },
            {
              "internalType": "address",
              "name": "token",
              "type": "address"
            },
            {
              "internalType": "uint256",
              "name": "tokenId",
              "type": "uint256"
            },
            {
              "internalType": "uint256",
              "name": "quantity",
              "type": "uint256"
            },
            {
              "internalType": "address",
              "name": "currency",
              "type": "address"
            },
            {
              "internalType": "uint256",
              "name": "price",
              "type": "uint256"
            },
            {
              "internalType": "uint256",
              "name": "expiry",
              "type": "uint256"
            }
          ],
          "internalType": "struct Offer",
          "name": "offer",
          "type": "tuple"
        },
        {
          "internalType": "uint256",
          "name": "salt",
          "type": "uint256"
        }
      ],
      "name": "getOfferHash",
      "outputs": [
        {
          "internalType": "bytes32",
          "name": "",
          "type": "bytes32"
        }
      ],
      "stateMutability": "view",
      "type": "function",
      "constant": true
    },
    {
      "inputs": [
        {
          "components": [
            {
              "internalType": "address",
              "name": "buyer",
              "type": "address"
            },
            {
              "internalType": "address",
              "name": "seller",
              "type": "address"
            },
            {
              "internalType": "address",
              "name": "token",
              "type": "address"
            },
            {
              "internalType": "uint256",
              "name": "tokenId",
              "type": "uint256"
            },
            {
              "internalType": "uint256",
              "name": "quantity",
              "type": "uint256"
            },
            {
              "internalType": "address",
              "name": "currency",
              "type": "address"
            },
            {
              "internalType": "uint256",
              "name": "price",
              "type": "uint256"
            },
            {
              "internalType": "uint256",
              "name": "expiry",
              "type": "uint256"
            }
          ],
          "internalType": "struct Offer",
          "name": "offer",
          "type": "tuple"
        },
        {
          "internalType": "uint256",
          "name": "nonce",
          "type": "uint256"
        },
        {
          "internalType": "bytes",
          "name": "signature",
          "type": "bytes"
        }
      ],
      "name": "cancelOffer",
      "outputs": [],
      "stateMutability": "nonpayable",
      "type": "function"
    }
  ],
  "bytecode": "0x6080604052611388600155611388600255620186a0600355620f424060045560035460055569d3c21bcecceda100000060065560006009553480156200004457600080fd5b50604051620063f2380380620063f283398181016040528101906200006a9190620003ea565b80620000806000801b336200017160201b60201c565b620000b27fa49807205ce4d355092ef5a8a18f56e8913cf4a201fbe287825b095693c21775336200017160201b60201c565b620000e77fa49807205ce4d355092ef5a8a18f56e8913cf4a201fbe287825b095693c217756000801b6200018760201b60201c565b33600860006101000a81548173ffffffffffffffffffffffffffffffffffffffff021916908373ffffffffffffffffffffffffffffffffffffffff16021790555080600760006101000a81548173ffffffffffffffffffffffffffffffffffffffff021916908373ffffffffffffffffffffffffffffffffffffffff16021790555050506200041c565b620001838282620001ea60201b60201c565b5050565b60006200019a83620002db60201b60201c565b905081600080858152602001908152602001600020600101819055508181847fbd79b86ffe0ab8e8776151514217cd7cacd52c909f66475c3af44e129f0b00ff60405160405180910390a4505050565b620001fc8282620002fa60201b60201c565b620002d757600160008084815260200190815260200160002060000160008373ffffffffffffffffffffffffffffffffffffffff1673ffffffffffffffffffffffffffffffffffffffff16815260200190815260200160002060006101000a81548160ff0219169083151502179055506200027c6200036460201b60201c565b73ffffffffffffffffffffffffffffffffffffffff168173ffffffffffffffffffffffffffffffffffffffff16837f2f8788117e7eff1d82e926ec794901d17c78024a50270940304540a733656f0d60405160405180910390a45b5050565b6000806000838152602001908152602001600020600101549050919050565b600080600084815260200190815260200160002060000160008373ffffffffffffffffffffffffffffffffffffffff1673ffffffffffffffffffffffffffffffffffffffff16815260200190815260200160002060009054906101000a900460ff16905092915050565b600033905090565b600080fd5b600073ffffffffffffffffffffffffffffffffffffffff82169050919050565b60006200039e8262000371565b9050919050565b6000620003b28262000391565b9050919050565b620003c481620003a5565b8114620003d057600080fd5b50565b600081519050620003e481620003b9565b92915050565b6000602082840312156200040357620004026200036c565b5b60006200041384828501620003d3565b91505092915050565b615fc6806200042c6000396000f3fe608060405234801561001057600080fd5b506004361061021c5760003560e01c80638ce5ab6a11610125578063d1177945116100ad578063d547741f1161007c578063d547741f14610671578063d6febde81461068d578063e45ad64a146106a9578063f3fef3a3146106c5578063fd1fc13e146106e15761021c565b8063d1177945146105e9578063d3d74af714610605578063d428dc2b14610623578063d4fac45d146106415761021c565b80639f609f44116100f45780639f609f4414610533578063a217fddf14610563578063bca9981914610581578063be29928e1461059d578063c661b89d146105cd5761021c565b80638ce5ab6a1461048557806391d14854146104a35780639507d39a146104d35780639d93d352146105035761021c565b80634df3943b116101a857806371f895981161017757806371f89598146103e157806375b238fc146103fd57806377e5c4a81461041b5780638ab2394b146104395780638cac73ff146104695761021c565b80634df3943b1461036f5780635a0a3d821461038b5780635dabb20e146103a75780637167675a146103c55761021c565b80632b483c03116101ef5780632b483c03146102e15780632f2ff15d146102ff578063325c5d561461031b57806336568abe1461033757806340e58ee5146103535761021c565b806301ffc9a7146102215780630d7b1acc14610251578063204a1f8314610281578063248a9ca3146102b1575b600080fd5b61023b60048036038101906102369190613b3e565b6106fd565b6040516102489190613b86565b60405180910390f35b61026b60048036038101906102669190613bff565b61070f565b6040516102789190613b86565b60405180910390f35b61029b60048036038101906102969190613c62565b610765565b6040516102a89190613d45565b60405180910390f35b6102cb60048036038101906102c69190613d8c565b6107af565b6040516102d89190613d45565b60405180910390f35b6102e96107ce565b6040516102f69190613dc8565b60405180910390f35b61031960048036038101906103149190613de3565b6107d4565b005b61033560048036038101906103309190613ead565b6107fd565b005b610351600480360381019061034c9190613de3565b6109bf565b005b61036d60048036038101906103689190613f24565b610a42565b005b61038960048036038101906103849190613f70565b610e28565b005b6103a560048036038101906103a09190613bff565b61159b565b005b6103af6115f5565b6040516103bc9190613dc8565b60405180910390f35b6103df60048036038101906103da91906140d8565b6115fb565b005b6103fb60048036038101906103f69190613f24565b6116d3565b005b610405611710565b6040516104129190613d45565b60405180910390f35b610423611734565b6040516104309190613dc8565b60405180910390f35b610453600480360381019061044e9190614138565b61173a565b6040516104609190613dc8565b60405180910390f35b610483600480360381019061047e9190613ead565b61175f565b005b61048d611d77565b60405161049a9190613dc8565b60405180910390f35b6104bd60048036038101906104b89190613de3565b611d7d565b6040516104ca9190613b86565b60405180910390f35b6104ed60048036038101906104e89190613f24565b611de7565b6040516104fa91906142ee565b60405180910390f35b61051d60048036038101906105189190613bff565b611f98565b60405161052a9190613b86565b60405180910390f35b61054d60048036038101906105489190614138565b611fee565b60405161055a9190613dc8565b60405180910390f35b61056b612049565b6040516105789190613d45565b60405180910390f35b61059b60048036038101906105969190613f24565b612050565b005b6105b760048036038101906105b2919061430a565b6120a0565b6040516105c49190613d45565b60405180910390f35b6105e760048036038101906105e29190613f24565b61213b565b005b61060360048036038101906105fe91906140d8565b6121bd565b005b61060d612295565b60405161061a9190613dc8565b60405180910390f35b61062b61229b565b6040516106389190613dc8565b60405180910390f35b61065b6004803603810190610656919061434c565b6122a1565b6040516106689190613dc8565b60405180910390f35b61068b60048036038101906106869190613de3565b612328565b005b6106a760048036038101906106a2919061438c565b612351565b005b6106c360048036038101906106be9190613f24565b6128fd565b005b6106df60048036038101906106da91906143cc565b61297f565b005b6106fb60048036038101906106f69190613f24565b612b54565b005b600061070882612b91565b9050919050565b6000600d60008373ffffffffffffffffffffffffffffffffffffffff1673ffffffffffffffffffffffffffffffffffffffff16815260200190815260200160002060009054906101000a900460ff169050919050565b6000308a8a8a8a8a8a8a8a8a60405160200161078a9a99989796959493929190614475565b6040516020818303038152906040528051906020012090509998505050505050505050565b6000806000838152602001908152602001600020600101549050919050565b60025481565b6107dd826107af565b6107ee816107e9612c0b565b612c13565b6107f88383612cb0565b505050565b600061080985856120a0565b90506011600082815260200190815260200160002060009054906101000a900460ff161561086c576040517f08c379a0000000000000000000000000000000000000000000000000000000008152600401610863906145ac565b60405180910390fd5b6010600082815260200190815260200160002060009054906101000a900460ff16156108cd576040517f08c379a00000000000000000000000000000000000000000000000000000000081526004016108c49061463e565b60405180910390fd5b61092483838080601f016020809104026020016040519081016040528093929190818152602001838380828437600081840152601f19601f8201169050808301925050505050505082612d9090919063ffffffff16565b73ffffffffffffffffffffffffffffffffffffffff163373ffffffffffffffffffffffffffffffffffffffff16148061098357506109827fa49807205ce4d355092ef5a8a18f56e8913cf4a201fbe287825b095693c2177533611d7d565b5b61098c57600080fd5b60016010600083815260200190815260200160002060006101000a81548160ff0219169083151502179055505050505050565b6109c7612c0b565b73ffffffffffffffffffffffffffffffffffffffff168173ffffffffffffffffffffffffffffffffffffffff1614610a34576040517f08c379a0000000000000000000000000000000000000000000000000000000008152600401610a2b906146d0565b60405180910390fd5b610a3e8282612db7565b5050565b6000600a600083815260200190815260200160002060405180610160016040529081600082015481526020016001820160009054906101000a900473ffffffffffffffffffffffffffffffffffffffff1673ffffffffffffffffffffffffffffffffffffffff1673ffffffffffffffffffffffffffffffffffffffff1681526020016002820160009054906101000a900473ffffffffffffffffffffffffffffffffffffffff1673ffffffffffffffffffffffffffffffffffffffff1673ffffffffffffffffffffffffffffffffffffffff1681526020016003820154815260200160048201548152602001600582015481526020016006820160009054906101000a900473ffffffffffffffffffffffffffffffffffffffff1673ffffffffffffffffffffffffffffffffffffffff1673ffffffffffffffffffffffffffffffffffffffff168152602001600782015481526020016008820154815260200160098201548152602001600a820160009054906101000a900460ff166002811115610bd057610bcf614196565b5b6002811115610be257610be1614196565b5b81525050905060006002811115610bfc57610bfb614196565b5b8161014001516002811115610c1457610c13614196565b5b14610c54576040517f08c379a0000000000000000000000000000000000000000000000000000000008152600401610c4b90614762565b60405180910390fd5b806020015173ffffffffffffffffffffffffffffffffffffffff163373ffffffffffffffffffffffffffffffffffffffff161480610cb85750610cb77fa49807205ce4d355092ef5a8a18f56e8913cf4a201fbe287825b095693c2177533611d7d565b5b610cf7576040517f08c379a0000000000000000000000000000000000000000000000000000000008152600401610cee906147f4565b60405180910390fd5b6002600a6000848152602001908152602001600020600a0160006101000a81548160ff02191690836002811115610d3157610d30614196565b5b0217905550600760009054906101000a900473ffffffffffffffffffffffffffffffffffffffff1673ffffffffffffffffffffffffffffffffffffffff16632ed7bae88260400151836020015184606001518560a001516040518563ffffffff1660e01b8152600401610da79493929190614823565b600060405180830381600087803b158015610dc157600080fd5b505af1158015610dd5573d6000803e3d6000fd5b505050507f63e19a11045d43fb73999819f643b1db1182b457b8dff3c511f232d71abbe6398233836040015184606001518560a00151604051610e1c959493929190614868565b60405180910390a15050565b6005548410158015610e3c57506006548411155b8015610e4a57506004548611155b610e89576040517f08c379a0000000000000000000000000000000000000000000000000000000008152600401610e809061492d565b60405180910390fd5b6000831115610ed557824210610ed4576040517f08c379a0000000000000000000000000000000000000000000000000000000008152600401610ecb906149bf565b60405180910390fd5b5b600c60008973ffffffffffffffffffffffffffffffffffffffff1673ffffffffffffffffffffffffffffffffffffffff16815260200190815260200160002060009054906101000a900460ff168015610f775750600d60008673ffffffffffffffffffffffffffffffffffffffff1673ffffffffffffffffffffffffffffffffffffffff16815260200190815260200160002060009054906101000a900460ff165b610fb6576040517f08c379a0000000000000000000000000000000000000000000000000000000008152600401610fad90614a51565b60405180910390fd5b610fe07fa49807205ce4d355092ef5a8a18f56e8913cf4a201fbe287825b095693c2177533611d7d565b6111ea574281600001351161102a576040517f08c379a000000000000000000000000000000000000000000000000000000000815260040161102190614abd565b60405180910390fd5b60006110458a8a8a8a8a8a8a89600001358a60200135610765565b9050600e600082815260200190815260200160002060009054906101000a900460ff16156110a8576040517f08c379a000000000000000000000000000000000000000000000000000000000815260040161109f90614b29565b60405180910390fd5b60006111178380604001906110bd9190614b58565b8080601f016020809104026020016040519081016040528093929190818152602001838380828437600081840152601f19601f8201169050808301925050505050505061110984612e98565b612d9090919063ffffffff16565b9050600073ffffffffffffffffffffffffffffffffffffffff168173ffffffffffffffffffffffffffffffffffffffff161415801561117c575061117b7fa49807205ce4d355092ef5a8a18f56e8913cf4a201fbe287825b095693c2177582611d7d565b5b6111bb576040517f08c379a00000000000000000000000000000000000000000000000000000000081526004016111b290614c07565b60405180910390fd5b6001600e600084815260200190815260200160002060006101000a81548160ff02191690831515021790555050505b8773ffffffffffffffffffffffffffffffffffffffff166301ffc9a77fd9b67a26000000000000000000000000000000000000000000000000000000006040518263ffffffff1660e01b81526004016112439190614c36565b602060405180830381865afa158015611260573d6000803e3d6000fd5b505050506040513d601f19601f820116820180604052508101906112849190614c66565b61128d57600195505b600760009054906101000a900473ffffffffffffffffffffffffffffffffffffffff1673ffffffffffffffffffffffffffffffffffffffff166340fd5829898b8a8a6040518563ffffffff1660e01b81526004016112ee9493929190614823565b600060405180830381600087803b15801561130857600080fd5b505af115801561131c573d6000803e3d6000fd5b505050506009600081548092919061133390614cc2565b9190505550600060405180610160016040528060095481526020018b73ffffffffffffffffffffffffffffffffffffffff1681526020018a73ffffffffffffffffffffffffffffffffffffffff1681526020018981526020018881526020018881526020018773ffffffffffffffffffffffffffffffffffffffff168152602001868152602001858152602001848152602001600060028111156113da576113d9614196565b5b815250905080600a600060095481526020019081526020016000206000820151816000015560208201518160010160006101000a81548173ffffffffffffffffffffffffffffffffffffffff021916908373ffffffffffffffffffffffffffffffffffffffff16021790555060408201518160020160006101000a81548173ffffffffffffffffffffffffffffffffffffffff021916908373ffffffffffffffffffffffffffffffffffffffff160217905550606082015181600301556080820151816004015560a0820151816005015560c08201518160060160006101000a81548173ffffffffffffffffffffffffffffffffffffffff021916908373ffffffffffffffffffffffffffffffffffffffff16021790555060e082015181600701556101008201518160080155610120820151816009015561014082015181600a0160006101000a81548160ff0219169083600281111561153e5761153d614196565b5b02179055509050507fdd71f4d725d69de07387269ed54b15e29222e3c937b8977794d225f309b1a7c46009548b8b8b8b8b8b8b8b60405161158799989796959493929190614d0b565b60405180910390a150505050505050505050565b6000801b6115b0816115ab612c0b565b612c13565b81600860006101000a81548173ffffffffffffffffffffffffffffffffffffffff021916908373ffffffffffffffffffffffffffffffffffffffff1602179055505050565b60055481565b7fa49807205ce4d355092ef5a8a18f56e8913cf4a201fbe287825b095693c2177561162d81611628612c0b565b612c13565b60005b848490508110156116cc5782600c600087878581811061165357611652614d98565b5b90506020020160208101906116689190613bff565b73ffffffffffffffffffffffffffffffffffffffff1673ffffffffffffffffffffffffffffffffffffffff16815260200190815260200160002060006101000a81548160ff02191690831515021790555080806116c490614cc2565b915050611630565b5050505050565b7fa49807205ce4d355092ef5a8a18f56e8913cf4a201fbe287825b095693c2177561170581611700612c0b565b612c13565b816004819055505050565b7fa49807205ce4d355092ef5a8a18f56e8913cf4a201fbe287825b095693c2177581565b60065481565b600b602052816000526040600020602052806000526040600020600091509150505481565b8360200160208101906117729190613bff565b73ffffffffffffffffffffffffffffffffffffffff163373ffffffffffffffffffffffffffffffffffffffff16146117df576040517f08c379a00000000000000000000000000000000000000000000000000000000081526004016117d690614e13565b60405180910390fd5b600c60008560400160208101906117f69190613bff565b73ffffffffffffffffffffffffffffffffffffffff1673ffffffffffffffffffffffffffffffffffffffff16815260200190815260200160002060009054906101000a900460ff1661187d576040517f08c379a000000000000000000000000000000000000000000000000000000000815260040161187490614e7f565b60405180910390fd5b600d60008560a00160208101906118949190613bff565b73ffffffffffffffffffffffffffffffffffffffff1673ffffffffffffffffffffffffffffffffffffffff16815260200190815260200160002060009054906101000a900460ff1661191b576040517f08c379a000000000000000000000000000000000000000000000000000000000815260040161191290614eeb565b60405180910390fd5b428460e0013511611961576040517f08c379a000000000000000000000000000000000000000000000000000000000815260040161195890614f57565b60405180910390fd5b600061196d85856120a0565b90506010600082815260200190815260200160002060009054906101000a900460ff161580156119bb57506011600082815260200190815260200160002060009054906101000a900460ff16155b6119fa576040517f08c379a00000000000000000000000000000000000000000000000000000000081526004016119f190614fe9565b60405180910390fd5b6000611a5b84848080601f016020809104026020016040519081016040528093929190818152602001838380828437600081840152601f19601f82011690508083019250505050505050611a4d84612e98565b612d9090919063ffffffff16565b9050856000016020810190611a709190613bff565b73ffffffffffffffffffffffffffffffffffffffff168173ffffffffffffffffffffffffffffffffffffffff1614611add576040517f08c379a0000000000000000000000000000000000000000000000000000000008152600401611ad49061507b565b60405180910390fd5b6005548660c001351015611b26576040517f08c379a0000000000000000000000000000000000000000000000000000000008152600401611b1d906150e7565b60405180910390fd5b600080611b368860c00135612ec8565b9150915060016011600086815260200190815260200160002060006101000a81548160ff021916908315150217905550600760009054906101000a900473ffffffffffffffffffffffffffffffffffffffff1673ffffffffffffffffffffffffffffffffffffffff166340fd5829896040016020810190611bb79190613bff565b338b606001358c608001356040518563ffffffff1660e01b8152600401611be19493929190614823565b600060405180830381600087803b158015611bfb57600080fd5b505af1158015611c0f573d6000803e3d6000fd5b505050508760a0016020810190611c269190613bff565b73ffffffffffffffffffffffffffffffffffffffff166323b872dd896000016020810190611c549190613bff565b30848c60c00135611c659190615107565b6040518463ffffffff1660e01b8152600401611c839392919061515d565b6020604051808303816000875af1158015611ca2573d6000803e3d6000fd5b505050506040513d601f19601f82011682018060405250810190611cc69190614c66565b50611d6d886020016020810190611cdd9190613bff565b896000016020810190611cf09190613bff565b8a60a0016020810190611d039190613bff565b8b60c0013560405180604001604052808781526020018881525060405180606001604052808f6040016020810190611d3b9190613bff565b73ffffffffffffffffffffffffffffffffffffffff1681526020018f6060013581526020018f60800135815250612f0a565b5050505050505050565b60015481565b600080600084815260200190815260200160002060000160008373ffffffffffffffffffffffffffffffffffffffff1673ffffffffffffffffffffffffffffffffffffffff16815260200190815260200160002060009054906101000a900460ff16905092915050565b611def613a24565b600a600083815260200190815260200160002060405180610160016040529081600082015481526020016001820160009054906101000a900473ffffffffffffffffffffffffffffffffffffffff1673ffffffffffffffffffffffffffffffffffffffff1673ffffffffffffffffffffffffffffffffffffffff1681526020016002820160009054906101000a900473ffffffffffffffffffffffffffffffffffffffff1673ffffffffffffffffffffffffffffffffffffffff1673ffffffffffffffffffffffffffffffffffffffff1681526020016003820154815260200160048201548152602001600582015481526020016006820160009054906101000a900473ffffffffffffffffffffffffffffffffffffffff1673ffffffffffffffffffffffffffffffffffffffff1673ffffffffffffffffffffffffffffffffffffffff168152602001600782015481526020016008820154815260200160098201548152602001600a820160009054906101000a900460ff166002811115611f7b57611f7a614196565b5b6002811115611f8d57611f8c614196565b5b815250509050919050565b6000600c60008373ffffffffffffffffffffffffffffffffffffffff1673ffffffffffffffffffffffffffffffffffffffff16815260200190815260200160002060009054906101000a900460ff169050919050565b6000600b600084815260200190815260200160002060008373ffffffffffffffffffffffffffffffffffffffff1673ffffffffffffffffffffffffffffffffffffffff16815260200190815260200160002054905092915050565b6000801b81565b7fa49807205ce4d355092ef5a8a18f56e8913cf4a201fbe287825b095693c217756120828161207d612c0b565b612c13565b670de0b6b3a7640000826120969190615194565b6006819055505050565b6000308360000160208101906120b69190613bff565b8460200160208101906120c99190613bff565b8560400160208101906120dc9190613bff565b866060013587608001358860a00160208101906120f99190613bff565b8960c001358a60e001358a60405160200161211d9a999897969594939291906151ee565b60405160208183030381529060405280519060200120905092915050565b7fa49807205ce4d355092ef5a8a18f56e8913cf4a201fbe287825b095693c2177561216d81612168612c0b565b612c13565b6003548211156121b2576040517f08c379a00000000000000000000000000000000000000000000000000000000081526004016121a990615314565b60405180910390fd5b816002819055505050565b7fa49807205ce4d355092ef5a8a18f56e8913cf4a201fbe287825b095693c217756121ef816121ea612c0b565b612c13565b60005b8484905081101561228e5782600d600087878581811061221557612214614d98565b5b905060200201602081019061222a9190613bff565b73ffffffffffffffffffffffffffffffffffffffff1673ffffffffffffffffffffffffffffffffffffffff16815260200190815260200160002060006101000a81548160ff021916908315150217905550808061228690614cc2565b9150506121f2565b5050505050565b60045481565b60035481565b6000600f60008373ffffffffffffffffffffffffffffffffffffffff1673ffffffffffffffffffffffffffffffffffffffff16815260200190815260200160002060008473ffffffffffffffffffffffffffffffffffffffff1673ffffffffffffffffffffffffffffffffffffffff16815260200190815260200160002054905092915050565b612331826107af565b6123428161233d612c0b565b612c13565b61234c8383612db7565b505050565b6000600a600084815260200190815260200160002060405180610160016040529081600082015481526020016001820160009054906101000a900473ffffffffffffffffffffffffffffffffffffffff1673ffffffffffffffffffffffffffffffffffffffff1673ffffffffffffffffffffffffffffffffffffffff1681526020016002820160009054906101000a900473ffffffffffffffffffffffffffffffffffffffff1673ffffffffffffffffffffffffffffffffffffffff1673ffffffffffffffffffffffffffffffffffffffff1681526020016003820154815260200160048201548152602001600582015481526020016006820160009054906101000a900473ffffffffffffffffffffffffffffffffffffffff1673ffffffffffffffffffffffffffffffffffffffff1673ffffffffffffffffffffffffffffffffffffffff168152602001600782015481526020016008820154815260200160098201548152602001600a820160009054906101000a900460ff1660028111156124df576124de614196565b5b60028111156124f1576124f0614196565b5b8152505090506000600281111561250b5761250a614196565b5b816101400151600281111561252357612522614196565b5b14612563576040517f08c379a000000000000000000000000000000000000000000000000000000000815260040161255a90615380565b60405180910390fd5b8060a001518211156125aa576040517f08c379a00000000000000000000000000000000000000000000000000000000081526004016125a1906153ec565b60405180910390fd5b600081610100015111156126005742816101000151116125ff576040517f08c379a00000000000000000000000000000000000000000000000000000000081526004016125f690615458565b60405180910390fd5b5b600081610120015111156126b25780610120015182600b600086815260200190815260200160002060003373ffffffffffffffffffffffffffffffffffffffff1673ffffffffffffffffffffffffffffffffffffffff168152602001908152602001600020546126709190615107565b11156126b1576040517f08c379a00000000000000000000000000000000000000000000000000000000081526004016126a8906154ea565b60405180910390fd5b5b6000828260e001516126c49190615194565b90506000806126d283612ec8565b915091508360c0015173ffffffffffffffffffffffffffffffffffffffff166323b872dd333084876127049190615107565b6040518463ffffffff1660e01b81526004016127229392919061515d565b6020604051808303816000875af1158015612741573d6000803e3d6000fd5b505050506040513d601f19601f820116820180604052508101906127659190614c66565b506127c88460200151338660c001518660405180604001604052808781526020018881525060405180606001604052808b6040015173ffffffffffffffffffffffffffffffffffffffff1681526020018b6060015181526020018c815250612f0a565b84600b600088815260200190815260200160002060003373ffffffffffffffffffffffffffffffffffffffff1673ffffffffffffffffffffffffffffffffffffffff16815260200190815260200160002060008282546128289190615107565b925050819055506000858560a00151612841919061550a565b905080600a60008981526020019081526020016000206005018190555060008114156128a7576001600a6000898152602001908152602001600020600a0160006101000a81548160ff021916908360028111156128a1576128a0614196565b5b02179055505b7fec6fba8bd56190929e7252cf572c1ebd0f9e8211aaf75cfcf3736b7726f376ff87338760200151898960c001518a60e001516040516128ec9695949392919061553e565b60405180910390a150505050505050565b7fa49807205ce4d355092ef5a8a18f56e8913cf4a201fbe287825b095693c2177561292f8161292a612c0b565b612c13565b600354821115612974576040517f08c379a000000000000000000000000000000000000000000000000000000000815260040161296b90615314565b60405180910390fd5b816001819055505050565b80600f60003373ffffffffffffffffffffffffffffffffffffffff1673ffffffffffffffffffffffffffffffffffffffff16815260200190815260200160002060008473ffffffffffffffffffffffffffffffffffffffff1673ffffffffffffffffffffffffffffffffffffffff168152602001908152602001600020541015612a3e576040517f08c379a0000000000000000000000000000000000000000000000000000000008152600401612a3590615611565b60405180910390fd5b80600f60003373ffffffffffffffffffffffffffffffffffffffff1673ffffffffffffffffffffffffffffffffffffffff16815260200190815260200160002060008473ffffffffffffffffffffffffffffffffffffffff1673ffffffffffffffffffffffffffffffffffffffff1681526020019081526020016000206000828254612aca919061550a565b925050819055508173ffffffffffffffffffffffffffffffffffffffff1663a9059cbb33836040518363ffffffff1660e01b8152600401612b0c929190615631565b6020604051808303816000875af1158015612b2b573d6000803e3d6000fd5b505050506040513d601f19601f82011682018060405250810190612b4f9190614c66565b505050565b7fa49807205ce4d355092ef5a8a18f56e8913cf4a201fbe287825b095693c21775612b8681612b81612c0b565b612c13565b816006819055505050565b60007f7965db0b000000000000000000000000000000000000000000000000000000007bffffffffffffffffffffffffffffffffffffffffffffffffffffffff1916827bffffffffffffffffffffffffffffffffffffffffffffffffffffffff19161480612c045750612c0382612fe0565b5b9050919050565b600033905090565b612c1d8282611d7d565b612cac57612c428173ffffffffffffffffffffffffffffffffffffffff16601461304a565b612c508360001c602061304a565b604051602001612c6192919061576c565b6040516020818303038152906040526040517f08c379a0000000000000000000000000000000000000000000000000000000008152600401612ca391906157f0565b60405180910390fd5b5050565b612cba8282611d7d565b612d8c57600160008084815260200190815260200160002060000160008373ffffffffffffffffffffffffffffffffffffffff1673ffffffffffffffffffffffffffffffffffffffff16815260200190815260200160002060006101000a81548160ff021916908315150217905550612d31612c0b565b73ffffffffffffffffffffffffffffffffffffffff168173ffffffffffffffffffffffffffffffffffffffff16837f2f8788117e7eff1d82e926ec794901d17c78024a50270940304540a733656f0d60405160405180910390a45b5050565b6000806000612d9f8585613286565b91509150612dac81613309565b819250505092915050565b612dc18282611d7d565b15612e9457600080600084815260200190815260200160002060000160008373ffffffffffffffffffffffffffffffffffffffff1673ffffffffffffffffffffffffffffffffffffffff16815260200190815260200160002060006101000a81548160ff021916908315150217905550612e39612c0b565b73ffffffffffffffffffffffffffffffffffffffff168173ffffffffffffffffffffffffffffffffffffffff16837ff6391f5c32d9c69d2a47ea670b442974b53935d1edc7fd64eb21e047a839171b60405160405180910390a45b5050565b600081604051602001612eab919061587f565b604051602081830303815290604052805190602001209050919050565b60008060035460015484612edc9190615194565b612ee691906158d4565b905060035460025484612ef99190615194565b612f0391906158d4565b9150915091565b6000612f2b87868686602001518760000151876000015188602001516134de565b9050612f38878683613831565b600760009054906101000a900473ffffffffffffffffffffffffffffffffffffffff1673ffffffffffffffffffffffffffffffffffffffff16632ed7bae8836000015188856020015186604001516040518563ffffffff1660e01b8152600401612fa59493929190614823565b600060405180830381600087803b158015612fbf57600080fd5b505af1158015612fd3573d6000803e3d6000fd5b5050505050505050505050565b60007f01ffc9a7000000000000000000000000000000000000000000000000000000007bffffffffffffffffffffffffffffffffffffffffffffffffffffffff1916827bffffffffffffffffffffffffffffffffffffffffffffffffffffffff1916149050919050565b60606000600283600261305d9190615194565b6130679190615107565b67ffffffffffffffff8111156130805761307f615905565b5b6040519080825280601f01601f1916602001820160405280156130b25781602001600182028036833780820191505090505b5090507f3000000000000000000000000000000000000000000000000000000000000000816000815181106130ea576130e9614d98565b5b60200101907effffffffffffffffffffffffffffffffffffffffffffffffffffffffffffff1916908160001a9053507f78000000000000000000000000000000000000000000000000000000000000008160018151811061314e5761314d614d98565b5b60200101907effffffffffffffffffffffffffffffffffffffffffffffffffffffffffffff1916908160001a9053506000600184600261318e9190615194565b6131989190615107565b90505b6001811115613238577f3031323334353637383961626364656600000000000000000000000000000000600f8616601081106131da576131d9614d98565b5b1a60f81b8282815181106131f1576131f0614d98565b5b60200101907effffffffffffffffffffffffffffffffffffffffffffffffffffffffffffff1916908160001a905350600485901c94508061323190615934565b905061319b565b506000841461327c576040517f08c379a0000000000000000000000000000000000000000000000000000000008152600401613273906159aa565b60405180910390fd5b8091505092915050565b6000806041835114156132c85760008060006020860151925060408601519150606086015160001a90506132bc878285856138c9565b94509450505050613302565b6040835114156132f95760008060208501519150604085015190506132ee8683836139d6565b935093505050613302565b60006002915091505b9250929050565b6000600481111561331d5761331c614196565b5b8160048111156133305761332f614196565b5b141561333b576134db565b6001600481111561334f5761334e614196565b5b81600481111561336257613361614196565b5b14156133a3576040517f08c379a000000000000000000000000000000000000000000000000000000000815260040161339a90615a16565b60405180910390fd5b600260048111156133b7576133b6614196565b5b8160048111156133ca576133c9614196565b5b141561340b576040517f08c379a000000000000000000000000000000000000000000000000000000000815260040161340290615a82565b60405180910390fd5b6003600481111561341f5761341e614196565b5b81600481111561343257613431614196565b5b1415613473576040517f08c379a000000000000000000000000000000000000000000000000000000000815260040161346a90615b14565b60405180910390fd5b60048081111561348657613485614196565b5b81600481111561349957613498614196565b5b14156134da576040517f08c379a00000000000000000000000000000000000000000000000000000000081526004016134d190615ba6565b60405180910390fd5b5b50565b6000848611156134f75784866134f4919061550a565b95505b859050613532600860009054906101000a900473ffffffffffffffffffffffffffffffffffffffff1688868861352d9190615107565b613831565b8273ffffffffffffffffffffffffffffffffffffffff166301ffc9a763b779958460e01b6040518263ffffffff1660e01b81526004016135729190614c36565b602060405180830381865afa15801561358f573d6000803e3d6000fd5b505050506040513d601f19601f820116820180604052508101906135b39190614c66565b6135bc57613826565b600083905060008173ffffffffffffffffffffffffffffffffffffffff1663b9c4d9fb856040518263ffffffff1660e01b81526004016135fc9190613dc8565b600060405180830381865afa158015613619573d6000803e3d6000fd5b505050506040513d6000823e3d601f19601f820116820180604052508101906136429190615d13565b905060008273ffffffffffffffffffffffffffffffffffffffff16630ebd4c7f866040518263ffffffff1660e01b815260040161367f9190613dc8565b600060405180830381865afa15801561369c573d6000803e3d6000fd5b505050506040513d6000823e3d601f19601f820116820180604052508101906136c59190615e34565b905060005b8151811015613821578b73ffffffffffffffffffffffffffffffffffffffff168382815181106136fd576136fc614d98565b5b602002602001015173ffffffffffffffffffffffffffffffffffffffff1614156137265761380e565b600085141561373457613821565b600060035483838151811061374c5761374b614d98565b5b60200260200101518c61375f9190615194565b61376991906158d4565b90508581111561377f578590506000955061378e565b808661378b919061550a565b95505b6137b38483815181106137a4576137a3614d98565b5b60200260200101518d83613831565b7f27c4f0403323142b599832f26acd21c74a9e5b809f2215726e244a4ac588cd7d88888685815181106137e9576137e8614d98565b5b60200260200101518f85604051613804959493929190615edc565b60405180910390a1505b808061381990614cc2565b9150506136ca565b505050505b979650505050505050565b80600f60008573ffffffffffffffffffffffffffffffffffffffff1673ffffffffffffffffffffffffffffffffffffffff16815260200190815260200160002060008473ffffffffffffffffffffffffffffffffffffffff1673ffffffffffffffffffffffffffffffffffffffff16815260200190815260200160002060008282546138bd9190615107565b92505081905550505050565b6000807f7fffffffffffffffffffffffffffffff5d576e7357a4501ddfe92f46681b20a08360001c11156139045760006003915091506139cd565b601b8560ff161415801561391c5750601c8560ff1614155b1561392e5760006004915091506139cd565b6000600187878787604051600081526020016040526040516139539493929190615f4b565b6020604051602081039080840390855afa158015613975573d6000803e3d6000fd5b505050602060405103519050600073ffffffffffffffffffffffffffffffffffffffff168173ffffffffffffffffffffffffffffffffffffffff1614156139c4576000600192509250506139cd565b80600092509250505b94509492505050565b6000806000807f7fffffffffffffffffffffffffffffffffffffffffffffffffffffffffffffff85169150601b8560ff1c019050613a16878288856138c9565b935093505050935093915050565b60405180610160016040528060008152602001600073ffffffffffffffffffffffffffffffffffffffff168152602001600073ffffffffffffffffffffffffffffffffffffffff168152602001600081526020016000815260200160008152602001600073ffffffffffffffffffffffffffffffffffffffff16815260200160008152602001600081526020016000815260200160006002811115613acc57613acb614196565b5b81525090565b6000604051905090565b600080fd5b600080fd5b60007fffffffff0000000000000000000000000000000000000000000000000000000082169050919050565b613b1b81613ae6565b8114613b2657600080fd5b50565b600081359050613b3881613b12565b92915050565b600060208284031215613b5457613b53613adc565b5b6000613b6284828501613b29565b91505092915050565b60008115159050919050565b613b8081613b6b565b82525050565b6000602082019050613b9b6000830184613b77565b92915050565b600073ffffffffffffffffffffffffffffffffffffffff82169050919050565b6000613bcc82613ba1565b9050919050565b613bdc81613bc1565b8114613be757600080fd5b50565b600081359050613bf981613bd3565b92915050565b600060208284031215613c1557613c14613adc565b5b6000613c2384828501613bea565b91505092915050565b6000819050919050565b613c3f81613c2c565b8114613c4a57600080fd5b50565b600081359050613c5c81613c36565b92915050565b60008060008060008060008060006101208a8c031215613c8557613c84613adc565b5b6000613c938c828d01613bea565b9950506020613ca48c828d01613bea565b9850506040613cb58c828d01613c4d565b9750506060613cc68c828d01613c4d565b9650506080613cd78c828d01613bea565b95505060a0613ce88c828d01613c4d565b94505060c0613cf98c828d01613c4d565b93505060e0613d0a8c828d01613c4d565b925050610100613d1c8c828d01613c4d565b9150509295985092959850929598565b6000819050919050565b613d3f81613d2c565b82525050565b6000602082019050613d5a6000830184613d36565b92915050565b613d6981613d2c565b8114613d7457600080fd5b50565b600081359050613d8681613d60565b92915050565b600060208284031215613da257613da1613adc565b5b6000613db084828501613d77565b91505092915050565b613dc281613c2c565b82525050565b6000602082019050613ddd6000830184613db9565b92915050565b60008060408385031215613dfa57613df9613adc565b5b6000613e0885828601613d77565b9250506020613e1985828601613bea565b9150509250929050565b600080fd5b60006101008284031215613e3f57613e3e613e23565b5b81905092915050565b600080fd5b600080fd5b600080fd5b60008083601f840112613e6d57613e6c613e48565b5b8235905067ffffffffffffffff811115613e8a57613e89613e4d565b5b602083019150836001820283011115613ea657613ea5613e52565b5b9250929050565b6000806000806101408587031215613ec857613ec7613adc565b5b6000613ed687828801613e28565b945050610100613ee887828801613c4d565b93505061012085013567ffffffffffffffff811115613f0a57613f09613ae1565b5b613f1687828801613e57565b925092505092959194509250565b600060208284031215613f3a57613f39613adc565b5b6000613f4884828501613c4d565b91505092915050565b600060608284031215613f6757613f66613e23565b5b81905092915050565b60008060008060008060008060006101208a8c031215613f9357613f92613adc565b5b6000613fa18c828d01613bea565b9950506020613fb28c828d01613bea565b9850506040613fc38c828d01613c4d565b9750506060613fd48c828d01613c4d565b9650506080613fe58c828d01613bea565b95505060a0613ff68c828d01613c4d565b94505060c06140078c828d01613c4d565b93505060e06140188c828d01613c4d565b9250506101008a013567ffffffffffffffff81111561403a57614039613ae1565b5b6140468c828d01613f51565b9150509295985092959850929598565b60008083601f84011261406c5761406b613e48565b5b8235905067ffffffffffffffff81111561408957614088613e4d565b5b6020830191508360208202830111156140a5576140a4613e52565b5b9250929050565b6140b581613b6b565b81146140c057600080fd5b50565b6000813590506140d2816140ac565b92915050565b6000806000604084860312156140f1576140f0613adc565b5b600084013567ffffffffffffffff81111561410f5761410e613ae1565b5b61411b86828701614056565b9350935050602061412e868287016140c3565b9150509250925092565b6000806040838503121561414f5761414e613adc565b5b600061415d85828601613c4d565b925050602061416e85828601613bea565b9150509250929050565b61418181613c2c565b82525050565b61419081613bc1565b82525050565b7f4e487b7100000000000000000000000000000000000000000000000000000000600052602160045260246000fd5b600381106141d6576141d5614196565b5b50565b60008190506141e7826141c5565b919050565b60006141f7826141d9565b9050919050565b614207816141ec565b82525050565b610160820160008201516142246000850182614178565b5060208201516142376020850182614187565b50604082015161424a6040850182614187565b50606082015161425d6060850182614178565b5060808201516142706080850182614178565b5060a082015161428360a0850182614178565b5060c082015161429660c0850182614187565b5060e08201516142a960e0850182614178565b506101008201516142be610100850182614178565b506101208201516142d3610120850182614178565b506101408201516142e86101408501826141fe565b50505050565b600061016082019050614304600083018461420d565b92915050565b600080610120838503121561432257614321613adc565b5b600061433085828601613e28565b92505061010061434285828601613c4d565b9150509250929050565b6000806040838503121561436357614362613adc565b5b600061437185828601613bea565b925050602061438285828601613bea565b9150509250929050565b600080604083850312156143a3576143a2613adc565b5b60006143b185828601613c4d565b92505060206143c285828601613c4d565b9150509250929050565b600080604083850312156143e3576143e2613adc565b5b60006143f185828601613bea565b925050602061440285828601613c4d565b9150509250929050565b60008160601b9050919050565b60006144248261440c565b9050919050565b600061443682614419565b9050919050565b61444e61444982613bc1565b61442b565b82525050565b6000819050919050565b61446f61446a82613c2c565b614454565b82525050565b6000614481828d61443d565b601482019150614491828c61443d565b6014820191506144a1828b61443d565b6014820191506144b1828a61445e565b6020820191506144c1828961445e565b6020820191506144d1828861443d565b6014820191506144e1828761445e565b6020820191506144f1828661445e565b602082019150614501828561445e565b602082019150614511828461445e565b6020820191508190509b9a5050505050505050505050565b600082825260208201905092915050565b7f4f666665722068617320616c7265616479206265656e2066756c66696c6c656460008201527f2e00000000000000000000000000000000000000000000000000000000000000602082015250565b6000614596602183614529565b91506145a18261453a565b604082019050919050565b600060208201905081810360008301526145c581614589565b9050919050565b7f4f666665722068617320616c7265616479206265656e2063616e63656c6c656460008201527f2e00000000000000000000000000000000000000000000000000000000000000602082015250565b6000614628602183614529565b9150614633826145cc565b604082019050919050565b600060208201905081810360008301526146578161461b565b9050919050565b7f416363657373436f6e74726f6c3a2063616e206f6e6c792072656e6f756e636560008201527f20726f6c657320666f722073656c660000000000000000000000000000000000602082015250565b60006146ba602f83614529565b91506146c58261465e565b604082019050919050565b600060208201905081810360008301526146e9816146ad565b9050919050565b7f4f6e6c79206f70656e206c697374696e67732063616e20626520636c6f73656460008201527f2e00000000000000000000000000000000000000000000000000000000000000602082015250565b600061474c602183614529565b9150614757826146f0565b604082019050919050565b6000602082019050818103600083015261477b8161473f565b9050919050565b7f4f6e6c792073656c6c6572206f722061646d696e2063616e20636c6f7365207460008201527f6865206c697374696e672e000000000000000000000000000000000000000000602082015250565b60006147de602b83614529565b91506147e982614782565b604082019050919050565b6000602082019050818103600083015261480d816147d1565b9050919050565b61481d81613bc1565b82525050565b60006080820190506148386000830187614814565b6148456020830186614814565b6148526040830185613db9565b61485f6060830184613db9565b95945050505050565b600060a08201905061487d6000830188613db9565b61488a6020830187614814565b6148976040830186614814565b6148a46060830185613db9565b6148b16080830184613db9565b9695505050505050565b7f5072696365206f72207175616e746974792066616c6c73206f7574736964652060008201527f616c6c6f7765642072616e67652e000000000000000000000000000000000000602082015250565b6000614917602e83614529565b9150614922826148bb565b604082019050919050565b600060208201905081810360008301526149468161490a565b9050919050565b7f4c697374696e6720657870697279206e6565647320746f20626520696e20746860008201527f65206675747572652e0000000000000000000000000000000000000000000000602082015250565b60006149a9602983614529565b91506149b48261494d565b604082019050919050565b600060208201905081810360008301526149d88161499c565b9050919050565b7f546f6b656e206f722063757272656e637920636f6e7472616374206973206e6f60008201527f7420617070726f7665642e000000000000000000000000000000000000000000602082015250565b6000614a3b602b83614529565b9150614a46826149df565b604082019050919050565b60006020820190508181036000830152614a6a81614a2e565b9050919050565b7f417070726f76616c20657870697265642e000000000000000000000000000000600082015250565b6000614aa7601183614529565b9150614ab282614a71565b602082019050919050565b60006020820190508181036000830152614ad681614a9a565b9050919050565b7f417070726f76616c206578686175737465642e00000000000000000000000000600082015250565b6000614b13601383614529565b9150614b1e82614add565b602082019050919050565b60006020820190508181036000830152614b4281614b06565b9050919050565b600080fd5b600080fd5b600080fd5b60008083356001602003843603038112614b7557614b74614b49565b5b80840192508235915067ffffffffffffffff821115614b9757614b96614b4e565b5b602083019250600182023603831315614bb357614bb2614b53565b5b509250929050565b7f496e76616c6964207369676e61747572652e0000000000000000000000000000600082015250565b6000614bf1601283614529565b9150614bfc82614bbb565b602082019050919050565b60006020820190508181036000830152614c2081614be4565b9050919050565b614c3081613ae6565b82525050565b6000602082019050614c4b6000830184614c27565b92915050565b600081519050614c60816140ac565b92915050565b600060208284031215614c7c57614c7b613adc565b5b6000614c8a84828501614c51565b91505092915050565b7f4e487b7100000000000000000000000000000000000000000000000000000000600052601160045260246000fd5b6000614ccd82613c2c565b91507fffffffffffffffffffffffffffffffffffffffffffffffffffffffffffffffff821415614d0057614cff614c93565b5b600182019050919050565b600061012082019050614d21600083018c613db9565b614d2e602083018b614814565b614d3b604083018a614814565b614d486060830189613db9565b614d556080830188613db9565b614d6260a0830187614814565b614d6f60c0830186613db9565b614d7c60e0830185613db9565b614d8a610100830184613db9565b9a9950505050505050505050565b7f4e487b7100000000000000000000000000000000000000000000000000000000600052603260045260246000fd5b7f4f6e6c792073656c6c65722063616e20616363657074206f666665722e000000600082015250565b6000614dfd601d83614529565b9150614e0882614dc7565b602082019050919050565b60006020820190508181036000830152614e2c81614df0565b9050919050565b7f546f6b656e20636f6e7472616374206973206e6f7420616c6c6f7765642e0000600082015250565b6000614e69601e83614529565b9150614e7482614e33565b602082019050919050565b60006020820190508181036000830152614e9881614e5c565b9050919050565b7f43757272656e6379206973206e6f7420616c6c6f7765642e0000000000000000600082015250565b6000614ed5601883614529565b9150614ee082614e9f565b602082019050919050565b60006020820190508181036000830152614f0481614ec8565b9050919050565b7f4f6666657220697320657870697265642e000000000000000000000000000000600082015250565b6000614f41601183614529565b9150614f4c82614f0b565b602082019050919050565b60006020820190508181036000830152614f7081614f34565b9050919050565b7f4f6666657220686173206265656e2066756c66696c6c6564206f722063616e6360008201527f656c6c65642e0000000000000000000000000000000000000000000000000000602082015250565b6000614fd3602683614529565b9150614fde82614f77565b604082019050919050565b6000602082019050818103600083015261500281614fc6565b9050919050565b7f4f66666572206e6565647320746f206265207369676e6564206279207468652060008201527f62757965722e0000000000000000000000000000000000000000000000000000602082015250565b6000615065602683614529565b915061507082615009565b604082019050919050565b6000602082019050818103600083015261509481615058565b9050919050565b7f507269636520697320746f6f206c6f772e000000000000000000000000000000600082015250565b60006150d1601183614529565b91506150dc8261509b565b602082019050919050565b60006020820190508181036000830152615100816150c4565b9050919050565b600061511282613c2c565b915061511d83613c2c565b9250827fffffffffffffffffffffffffffffffffffffffffffffffffffffffffffffffff0382111561515257615151614c93565b5b828201905092915050565b60006060820190506151726000830186614814565b61517f6020830185614814565b61518c6040830184613db9565b949350505050565b600061519f82613c2c565b91506151aa83613c2c565b9250817fffffffffffffffffffffffffffffffffffffffffffffffffffffffffffffffff04831182151516156151e3576151e2614c93565b5b828202905092915050565b60006151fa828d61443d565b60148201915061520a828c61443d565b60148201915061521a828b61443d565b60148201915061522a828a61443d565b60148201915061523a828961445e565b60208201915061524a828861445e565b60208201915061525a828761443d565b60148201915061526a828661445e565b60208201915061527a828561445e565b60208201915061528a828461445e565b6020820191508190509b9a5050505050505050505050565b7f4665652063616e6e6f7420626520686967686572207468616e2068756e64726560008201527f642070657263656e742e00000000000000000000000000000000000000000000602082015250565b60006152fe602a83614529565b9150615309826152a2565b604082019050919050565b6000602082019050818103600083015261532d816152f1565b9050919050565b7f4c697374696e67206973206e6f74206163746976652e00000000000000000000600082015250565b600061536a601683614529565b915061537582615334565b602082019050919050565b600060208201905081810360008301526153998161535d565b9050919050565b7f4e6f7420656e6f75676820746f6b656e7320666f722073616c652e0000000000600082015250565b60006153d6601b83614529565b91506153e1826153a0565b602082019050919050565b60006020820190508181036000830152615405816153c9565b9050919050565b7f4c697374696e672068617320657870697265642e000000000000000000000000600082015250565b6000615442601483614529565b915061544d8261540c565b602082019050919050565b6000602082019050818103600083015261547181615435565b9050919050565b7f5175616e746974792065786365656473206d6178696d756d20616c6c6f77656460008201527f207065722062757965722e000000000000000000000000000000000000000000602082015250565b60006154d4602b83614529565b91506154df82615478565b604082019050919050565b60006020820190508181036000830152615503816154c7565b9050919050565b600061551582613c2c565b915061552083613c2c565b92508282101561553357615532614c93565b5b828203905092915050565b600060c0820190506155536000830189613db9565b6155606020830188614814565b61556d6040830187614814565b61557a6060830186613db9565b6155876080830185614814565b61559460a0830184613db9565b979650505050505050565b7f496e73756666696369656e742062616c616e636520746f20776974686472617760008201527f2e00000000000000000000000000000000000000000000000000000000000000602082015250565b60006155fb602183614529565b91506156068261559f565b604082019050919050565b6000602082019050818103600083015261562a816155ee565b9050919050565b60006040820190506156466000830185614814565b6156536020830184613db9565b9392505050565b600081905092915050565b7f416363657373436f6e74726f6c3a206163636f756e7420000000000000000000600082015250565b600061569b60178361565a565b91506156a682615665565b601782019050919050565b600081519050919050565b60005b838110156156da5780820151818401526020810190506156bf565b838111156156e9576000848401525b50505050565b60006156fa826156b1565b615704818561565a565b93506157148185602086016156bc565b80840191505092915050565b7f206973206d697373696e6720726f6c6520000000000000000000000000000000600082015250565b600061575660118361565a565b915061576182615720565b601182019050919050565b60006157778261568e565b915061578382856156ef565b915061578e82615749565b915061579a82846156ef565b91508190509392505050565b6000601f19601f8301169050919050565b60006157c2826156b1565b6157cc8185614529565b93506157dc8185602086016156bc565b6157e5816157a6565b840191505092915050565b6000602082019050818103600083015261580a81846157b7565b905092915050565b7f19457468657265756d205369676e6564204d6573736167653a0a333200000000600082015250565b6000615848601c8361565a565b915061585382615812565b601c82019050919050565b6000819050919050565b61587961587482613d2c565b61585e565b82525050565b600061588a8261583b565b91506158968284615868565b60208201915081905092915050565b7f4e487b7100000000000000000000000000000000000000000000000000000000600052601260045260246000fd5b60006158df82613c2c565b91506158ea83613c2c565b9250826158fa576158f96158a5565b5b828204905092915050565b7f4e487b7100000000000000000000000000000000000000000000000000000000600052604160045260246000fd5b600061593f82613c2c565b9150600082141561595357615952614c93565b5b600182039050919050565b7f537472696e67733a20686578206c656e67746820696e73756666696369656e74600082015250565b6000615994602083614529565b915061599f8261595e565b602082019050919050565b600060208201905081810360008301526159c381615987565b9050919050565b7f45434453413a20696e76616c6964207369676e61747572650000000000000000600082015250565b6000615a00601883614529565b9150615a0b826159ca565b602082019050919050565b60006020820190508181036000830152615a2f816159f3565b9050919050565b7f45434453413a20696e76616c6964207369676e6174757265206c656e67746800600082015250565b6000615a6c601f83614529565b9150615a7782615a36565b602082019050919050565b60006020820190508181036000830152615a9b81615a5f565b9050919050565b7f45434453413a20696e76616c6964207369676e6174757265202773272076616c60008201527f7565000000000000000000000000000000000000000000000000000000000000602082015250565b6000615afe602283614529565b9150615b0982615aa2565b604082019050919050565b60006020820190508181036000830152615b2d81615af1565b9050919050565b7f45434453413a20696e76616c6964207369676e6174757265202776272076616c60008201527f7565000000000000000000000000000000000000000000000000000000000000602082015250565b6000615b90602283614529565b9150615b9b82615b34565b604082019050919050565b60006020820190508181036000830152615bbf81615b83565b9050919050565b615bcf826157a6565b810181811067ffffffffffffffff82111715615bee57615bed615905565b5b80604052505050565b6000615c01613ad2565b9050615c0d8282615bc6565b919050565b600067ffffffffffffffff821115615c2d57615c2c615905565b5b602082029050602081019050919050565b6000615c4982613ba1565b9050919050565b615c5981615c3e565b8114615c6457600080fd5b50565b600081519050615c7681615c50565b92915050565b6000615c8f615c8a84615c12565b615bf7565b90508083825260208201905060208402830185811115615cb257615cb1613e52565b5b835b81811015615cdb5780615cc78882615c67565b845260208401935050602081019050615cb4565b5050509392505050565b600082601f830112615cfa57615cf9613e48565b5b8151615d0a848260208601615c7c565b91505092915050565b600060208284031215615d2957615d28613adc565b5b600082015167ffffffffffffffff811115615d4757615d46613ae1565b5b615d5384828501615ce5565b91505092915050565b600067ffffffffffffffff821115615d7757615d76615905565b5b602082029050602081019050919050565b600081519050615d9781613c36565b92915050565b6000615db0615dab84615d5c565b615bf7565b90508083825260208201905060208402830185811115615dd357615dd2613e52565b5b835b81811015615dfc5780615de88882615d88565b845260208401935050602081019050615dd5565b5050509392505050565b600082601f830112615e1b57615e1a613e48565b5b8151615e2b848260208601615d9d565b91505092915050565b600060208284031215615e4a57615e49613adc565b5b600082015167ffffffffffffffff811115615e6857615e67613ae1565b5b615e7484828501615e06565b91505092915050565b6000819050919050565b6000615ea2615e9d615e9884613ba1565b615e7d565b613ba1565b9050919050565b6000615eb482615e87565b9050919050565b6000615ec682615ea9565b9050919050565b615ed681615ebb565b82525050565b600060a082019050615ef16000830188614814565b615efe6020830187613db9565b615f0b6040830186615ecd565b615f186060830185614814565b615f256080830184613db9565b9695505050505050565b600060ff82169050919050565b615f4581615f2f565b82525050565b6000608082019050615f606000830187613d36565b615f6d6020830186615f3c565b615f7a6040830185613d36565b615f876060830184613d36565b9594505050505056fea2646970667358221220c43c08a7a88f8f9b26dd669c20e2a5ddd16b5f5e16545aac988f8edb707d5e8f64736f6c634300080b0033",
  "immutableReferences": {},
  "source": "// SPDX-License-Identifier: MIT\npragma solidity ^0.8.0;\n\nimport '@openzeppelin/contracts/token/ERC20/IERC20.sol';\nimport '@openzeppelin/contracts/utils/cryptography/ECDSA.sol';\n\nimport './MarketV1.sol';\n\nstruct Offer {\n  address buyer;\n  address seller;\n  address token;\n  uint256 tokenId;\n  uint256 quantity;\n  address currency;\n  uint256 price;\n  uint256 expiry;\n}\n\ncontract OfferMarketV1 is MarketV1 {\n  using ECDSA for bytes32;\n\n  event AcceptOffer(\n    address indexed seller,\n    address indexed buyer,\n    address token,\n    address tokenId,\n    uint256 quantity,\n    address currency,\n    uint256 price\n  );\n\n  event CancelOffer(\n    address indexed sender,\n    address token,\n    address tokenId,\n    uint256 quantity,\n    address currency,\n    uint256 price\n  );\n\n  mapping(bytes32 => bool) private _cancelled;\n  mapping(bytes32 => bool) private _completed;\n\n  constructor(MarketWalletV1 wallet) MarketV1(wallet) {}\n\n  function acceptOffer(\n    Offer calldata offer,\n    uint256 salt,\n    bytes calldata signature\n  ) public {\n    require(msg.sender == offer.seller, 'Only seller can accept offer.');\n\n    require(_approvedTokens[offer.token], 'Token contract is not allowed.');\n    require(_approvedCurrencies[offer.currency], 'Currency is not allowed.');\n\n    require(offer.expiry > block.timestamp, 'Offer is expired.');\n\n    bytes32 offerHash = getOfferHash(offer, salt);\n\n    require(\n      !_cancelled[offerHash] && !_completed[offerHash],\n      'Offer has been fulfilled or cancelled.'\n    );\n\n    address recoveredAddress = offerHash.toEthSignedMessageHash().recover(\n      signature\n    );\n\n    require(\n      recoveredAddress == offer.buyer,\n      'Offer needs to be signed by the buyer.'\n    );\n\n    require(offer.price >= minTokenPrice, 'Price is too low.');\n\n    (uint256 sellerFee, uint256 buyerFee) = calculateMarketFees(offer.price);\n\n    _completed[offerHash] = true;\n\n    _wallet.take(offer.token, msg.sender, offer.tokenId, offer.quantity);\n\n    IERC20(offer.currency).transferFrom(\n      offer.buyer,\n      address(this),\n      offer.price + buyerFee\n    );\n\n    exchange(\n      offer.seller,\n      offer.buyer,\n      offer.currency,\n      offer.price,\n      MarketFees(buyerFee, sellerFee),\n      TokenOrder(offer.token, offer.tokenId, offer.quantity)\n    );\n  }\n\n  function getOfferHash(Offer calldata offer, uint256 salt)\n    public\n    view\n    returns (bytes32)\n  {\n    return\n      keccak256(\n        abi.encodePacked(\n          address(this),\n          offer.buyer,\n          offer.seller,\n          offer.token,\n          offer.tokenId,\n          offer.quantity,\n          offer.currency,\n          offer.price,\n          offer.expiry,\n          salt\n        )\n      );\n  }\n\n  // Only offer maker and market owner can cancel\n  function cancelOffer(\n    Offer calldata offer,\n    uint256 nonce,\n    bytes calldata signature\n  ) public {\n    bytes32 offerHash = getOfferHash(offer, nonce);\n\n    require(!_completed[offerHash], 'Offer has already been fulfilled.');\n    require(!_cancelled[offerHash], 'Offer has already been cancelled.');\n\n    require(\n      msg.sender == offerHash.recover(signature) ||\n        hasRole(ADMIN_ROLE, msg.sender)\n    );\n\n    _cancelled[offerHash] = true;\n  }\n}\n",
  "sourcePath": "/Users/husnain/Desktop/other/fest/packages/ethereum/contracts/solidity/contracts/OfferMarketV1.sol",
  "compiler": {
    "name": "solc",
    "version": "0.8.11+commit.d7f03943.Emscripten.clang"
  },
  "schemaVersion": "3.4.4",
  "updatedAt": "2022-02-06T21:26:33.475Z",
  "networkType": "ethereum",
  "devdoc": {
    "kind": "dev",
    "methods": {
      "getRoleAdmin(bytes32)": {
        "details": "Returns the admin role that controls `role`. See {grantRole} and {revokeRole}. To change a role's admin, use {_setRoleAdmin}."
      },
      "grantRole(bytes32,address)": {
        "details": "Grants `role` to `account`. If `account` had not been already granted `role`, emits a {RoleGranted} event. Requirements: - the caller must have ``role``'s admin role."
      },
      "hasRole(bytes32,address)": {
        "details": "Returns `true` if `account` has been granted `role`."
      },
      "renounceRole(bytes32,address)": {
        "details": "Revokes `role` from the calling account. Roles are often managed via {grantRole} and {revokeRole}: this function's purpose is to provide a mechanism for accounts to lose their privileges if they are compromised (such as when a trusted device is misplaced). If the calling account had been revoked `role`, emits a {RoleRevoked} event. Requirements: - the caller must be `account`."
      },
      "revokeRole(bytes32,address)": {
        "details": "Revokes `role` from `account`. If `account` had been granted `role`, emits a {RoleRevoked} event. Requirements: - the caller must have ``role``'s admin role."
      }
    },
    "version": 1
  },
  "userdoc": {
    "kind": "user",
    "methods": {},
    "version": 1
  }
}