{
  "contractName": "OfferMarketV1",
  "abi": [
    {
      "inputs": [
        {
          "internalType": "contract MarketWalletV1",
          "name": "wallet",
          "type": "address"
        }
      ],
      "stateMutability": "nonpayable",
      "type": "constructor"
    },
    {
      "anonymous": false,
      "inputs": [
        {
          "indexed": true,
          "internalType": "address",
          "name": "seller",
          "type": "address"
        },
        {
          "indexed": true,
          "internalType": "address",
          "name": "buyer",
          "type": "address"
        },
        {
          "indexed": false,
          "internalType": "address",
          "name": "token",
          "type": "address"
        },
        {
          "indexed": false,
          "internalType": "address",
          "name": "tokenId",
          "type": "address"
        },
        {
          "indexed": false,
          "internalType": "uint256",
          "name": "quantity",
          "type": "uint256"
        },
        {
          "indexed": false,
          "internalType": "address",
          "name": "currency",
          "type": "address"
        },
        {
          "indexed": false,
          "internalType": "uint256",
          "name": "price",
          "type": "uint256"
        }
      ],
      "name": "Accept",
      "type": "event"
    },
    {
      "anonymous": false,
      "inputs": [
        {
          "indexed": true,
          "internalType": "uint256",
          "name": "tradeId",
          "type": "uint256"
        },
        {
          "indexed": true,
          "internalType": "address",
          "name": "buyer",
          "type": "address"
        },
        {
          "indexed": false,
          "internalType": "address",
          "name": "tokenContract",
          "type": "address"
        },
        {
          "indexed": false,
          "internalType": "uint256",
          "name": "tokenId",
          "type": "uint256"
        },
        {
          "indexed": false,
          "internalType": "uint256",
          "name": "quantity",
          "type": "uint256"
        }
      ],
      "name": "Buy",
      "type": "event"
    },
    {
      "anonymous": false,
      "inputs": [
        {
          "indexed": true,
          "internalType": "address",
          "name": "sender",
          "type": "address"
        },
        {
          "indexed": false,
          "internalType": "address",
          "name": "token",
          "type": "address"
        },
        {
          "indexed": false,
          "internalType": "address",
          "name": "tokenId",
          "type": "address"
        },
        {
          "indexed": false,
          "internalType": "uint256",
          "name": "quantity",
          "type": "uint256"
        },
        {
          "indexed": false,
          "internalType": "address",
          "name": "currency",
          "type": "address"
        },
        {
          "indexed": false,
          "internalType": "uint256",
          "name": "price",
          "type": "uint256"
        }
      ],
      "name": "Cancel",
      "type": "event"
    },
    {
      "anonymous": false,
      "inputs": [
        {
          "indexed": true,
          "internalType": "uint256",
          "name": "tradeId",
          "type": "uint256"
        },
        {
          "indexed": false,
          "internalType": "address",
          "name": "operator",
          "type": "address"
        }
      ],
      "name": "Cancel",
      "type": "event"
    },
    {
      "anonymous": false,
      "inputs": [
        {
          "indexed": false,
          "internalType": "address",
          "name": "account",
          "type": "address"
        }
      ],
      "name": "Paused",
      "type": "event"
    },
    {
      "anonymous": false,
      "inputs": [
        {
          "indexed": true,
          "internalType": "bytes32",
          "name": "role",
          "type": "bytes32"
        },
        {
          "indexed": true,
          "internalType": "bytes32",
          "name": "previousAdminRole",
          "type": "bytes32"
        },
        {
          "indexed": true,
          "internalType": "bytes32",
          "name": "newAdminRole",
          "type": "bytes32"
        }
      ],
      "name": "RoleAdminChanged",
      "type": "event"
    },
    {
      "anonymous": false,
      "inputs": [
        {
          "indexed": true,
          "internalType": "bytes32",
          "name": "role",
          "type": "bytes32"
        },
        {
          "indexed": true,
          "internalType": "address",
          "name": "account",
          "type": "address"
        },
        {
          "indexed": true,
          "internalType": "address",
          "name": "sender",
          "type": "address"
        }
      ],
      "name": "RoleGranted",
      "type": "event"
    },
    {
      "anonymous": false,
      "inputs": [
        {
          "indexed": true,
          "internalType": "bytes32",
          "name": "role",
          "type": "bytes32"
        },
        {
          "indexed": true,
          "internalType": "address",
          "name": "account",
          "type": "address"
        },
        {
          "indexed": true,
          "internalType": "address",
          "name": "sender",
          "type": "address"
        }
      ],
      "name": "RoleRevoked",
      "type": "event"
    },
    {
      "anonymous": false,
      "inputs": [
        {
          "indexed": false,
          "internalType": "address",
          "name": "seller",
          "type": "address"
        },
        {
          "indexed": true,
          "internalType": "uint256",
          "name": "tradeId",
          "type": "uint256"
        },
        {
          "indexed": true,
          "internalType": "address",
          "name": "tokenContract",
          "type": "address"
        },
        {
          "indexed": true,
          "internalType": "uint256",
          "name": "tokenId",
          "type": "uint256"
        },
        {
          "indexed": false,
          "internalType": "uint256",
          "name": "quantity",
          "type": "uint256"
        },
        {
          "indexed": false,
          "internalType": "address",
          "name": "currency",
          "type": "address"
        },
        {
          "indexed": false,
          "internalType": "uint256",
          "name": "price",
          "type": "uint256"
        }
      ],
      "name": "Sell",
      "type": "event"
    },
    {
      "anonymous": false,
      "inputs": [
        {
          "indexed": false,
          "internalType": "address",
          "name": "account",
          "type": "address"
        }
      ],
      "name": "Unpaused",
      "type": "event"
    },
    {
      "inputs": [],
      "name": "ADMIN_ROLE",
      "outputs": [
        {
          "internalType": "bytes32",
          "name": "",
          "type": "bytes32"
        }
      ],
      "stateMutability": "view",
      "type": "function",
      "constant": true
    },
    {
      "inputs": [],
      "name": "DEFAULT_ADMIN_ROLE",
      "outputs": [
        {
          "internalType": "bytes32",
          "name": "",
          "type": "bytes32"
        }
      ],
      "stateMutability": "view",
      "type": "function",
      "constant": true
    },
    {
      "inputs": [
        {
          "internalType": "uint256",
          "name": "tradeId",
          "type": "uint256"
        },
        {
          "internalType": "uint256",
          "name": "quantity",
          "type": "uint256"
        }
      ],
      "name": "buy",
      "outputs": [],
      "stateMutability": "nonpayable",
      "type": "function"
    },
    {
      "inputs": [],
      "name": "buyerFeePct",
      "outputs": [
        {
          "internalType": "uint256",
          "name": "",
          "type": "uint256"
        }
      ],
      "stateMutability": "view",
      "type": "function",
      "constant": true
    },
    {
      "inputs": [
        {
          "internalType": "uint256",
          "name": "tradeId",
          "type": "uint256"
        }
      ],
      "name": "cancel",
      "outputs": [],
      "stateMutability": "nonpayable",
      "type": "function"
    },
    {
      "inputs": [
        {
          "internalType": "uint256",
          "name": "tradeId",
          "type": "uint256"
        }
      ],
      "name": "get",
      "outputs": [
        {
          "components": [
            {
              "internalType": "uint256",
              "name": "id",
              "type": "uint256"
            },
            {
              "internalType": "address",
              "name": "seller",
              "type": "address"
            },
            {
              "internalType": "address",
              "name": "token",
              "type": "address"
            },
            {
              "internalType": "uint256",
              "name": "tokenId",
              "type": "uint256"
            },
            {
              "internalType": "uint256",
              "name": "quantity",
              "type": "uint256"
            },
            {
              "internalType": "uint256",
              "name": "available",
              "type": "uint256"
            },
            {
              "internalType": "address",
              "name": "currency",
              "type": "address"
            },
            {
              "internalType": "uint256",
              "name": "price",
              "type": "uint256"
            },
            {
              "internalType": "enum TradeStatus",
              "name": "status",
              "type": "uint8"
            }
          ],
          "internalType": "struct Trade",
          "name": "",
          "type": "tuple"
        }
      ],
      "stateMutability": "view",
      "type": "function",
      "constant": true
    },
    {
      "inputs": [
        {
          "internalType": "address",
          "name": "currency",
          "type": "address"
        },
        {
          "internalType": "address",
          "name": "account",
          "type": "address"
        }
      ],
      "name": "getBalance",
      "outputs": [
        {
          "internalType": "uint256",
          "name": "",
          "type": "uint256"
        }
      ],
      "stateMutability": "view",
      "type": "function",
      "constant": true
    },
    {
      "inputs": [
        {
          "internalType": "bytes32",
          "name": "role",
          "type": "bytes32"
        }
      ],
      "name": "getRoleAdmin",
      "outputs": [
        {
          "internalType": "bytes32",
          "name": "",
          "type": "bytes32"
        }
      ],
      "stateMutability": "view",
      "type": "function",
      "constant": true
    },
    {
      "inputs": [
        {
          "internalType": "address",
          "name": "seller",
          "type": "address"
        },
        {
          "internalType": "address",
          "name": "token",
          "type": "address"
        },
        {
          "internalType": "uint256",
          "name": "tokenId",
          "type": "uint256"
        },
        {
          "internalType": "uint256",
          "name": "quantity",
          "type": "uint256"
        },
        {
          "internalType": "address",
          "name": "currency",
          "type": "address"
        },
        {
          "internalType": "uint256",
          "name": "price",
          "type": "uint256"
        },
        {
          "internalType": "uint256",
          "name": "expiry",
          "type": "uint256"
        },
        {
          "internalType": "uint256",
          "name": "salt",
          "type": "uint256"
        }
      ],
      "name": "getSaleAuthorizationHash",
      "outputs": [
        {
          "internalType": "bytes32",
          "name": "",
          "type": "bytes32"
        }
      ],
      "stateMutability": "view",
      "type": "function",
      "constant": true
    },
    {
      "inputs": [
        {
          "internalType": "bytes32",
          "name": "role",
          "type": "bytes32"
        },
        {
          "internalType": "address",
          "name": "account",
          "type": "address"
        }
      ],
      "name": "grantRole",
      "outputs": [],
      "stateMutability": "nonpayable",
      "type": "function"
    },
    {
      "inputs": [
        {
          "internalType": "bytes32",
          "name": "role",
          "type": "bytes32"
        },
        {
          "internalType": "address",
          "name": "account",
          "type": "address"
        }
      ],
      "name": "hasRole",
      "outputs": [
        {
          "internalType": "bool",
          "name": "",
          "type": "bool"
        }
      ],
      "stateMutability": "view",
      "type": "function",
      "constant": true
    },
    {
      "inputs": [],
      "name": "hundredPct",
      "outputs": [
        {
          "internalType": "uint256",
          "name": "",
          "type": "uint256"
        }
      ],
      "stateMutability": "view",
      "type": "function",
      "constant": true
    },
    {
      "inputs": [],
      "name": "maxTokenPrice",
      "outputs": [
        {
          "internalType": "uint256",
          "name": "",
          "type": "uint256"
        }
      ],
      "stateMutability": "view",
      "type": "function",
      "constant": true
    },
    {
      "inputs": [],
      "name": "maxTradeQuantity",
      "outputs": [
        {
          "internalType": "uint256",
          "name": "",
          "type": "uint256"
        }
      ],
      "stateMutability": "view",
      "type": "function",
      "constant": true
    },
    {
      "inputs": [],
      "name": "minTokenPrice",
      "outputs": [
        {
          "internalType": "uint256",
          "name": "",
          "type": "uint256"
        }
      ],
      "stateMutability": "view",
      "type": "function",
      "constant": true
    },
    {
      "inputs": [],
      "name": "pause",
      "outputs": [],
      "stateMutability": "nonpayable",
      "type": "function"
    },
    {
      "inputs": [],
      "name": "paused",
      "outputs": [
        {
          "internalType": "bool",
          "name": "",
          "type": "bool"
        }
      ],
      "stateMutability": "view",
      "type": "function",
      "constant": true
    },
    {
      "inputs": [
        {
          "internalType": "bytes32",
          "name": "role",
          "type": "bytes32"
        },
        {
          "internalType": "address",
          "name": "account",
          "type": "address"
        }
      ],
      "name": "renounceRole",
      "outputs": [],
      "stateMutability": "nonpayable",
      "type": "function"
    },
    {
      "inputs": [],
      "name": "resume",
      "outputs": [],
      "stateMutability": "nonpayable",
      "type": "function"
    },
    {
      "inputs": [
        {
          "internalType": "bytes32",
          "name": "role",
          "type": "bytes32"
        },
        {
          "internalType": "address",
          "name": "account",
          "type": "address"
        }
      ],
      "name": "revokeRole",
      "outputs": [],
      "stateMutability": "nonpayable",
      "type": "function"
    },
    {
      "inputs": [
        {
          "internalType": "address",
          "name": "seller",
          "type": "address"
        },
        {
          "internalType": "address",
          "name": "token",
          "type": "address"
        },
        {
          "internalType": "uint256",
          "name": "tokenId",
          "type": "uint256"
        },
        {
          "internalType": "uint256",
          "name": "quantity",
          "type": "uint256"
        },
        {
          "internalType": "address",
          "name": "currency",
          "type": "address"
        },
        {
          "internalType": "uint256",
          "name": "price",
          "type": "uint256"
        },
        {
          "internalType": "uint256",
          "name": "expiry",
          "type": "uint256"
        },
        {
          "internalType": "uint256",
          "name": "salt",
          "type": "uint256"
        },
        {
          "internalType": "bytes",
          "name": "signature",
          "type": "bytes"
        }
      ],
      "name": "sell",
      "outputs": [],
      "stateMutability": "nonpayable",
      "type": "function"
    },
    {
      "inputs": [],
      "name": "sellerFeePct",
      "outputs": [
        {
          "internalType": "uint256",
          "name": "",
          "type": "uint256"
        }
      ],
      "stateMutability": "view",
      "type": "function",
      "constant": true
    },
    {
      "inputs": [
        {
          "internalType": "uint256",
          "name": "pct",
          "type": "uint256"
        }
      ],
      "name": "setBuyerFeePct",
      "outputs": [],
      "stateMutability": "nonpayable",
      "type": "function"
    },
    {
      "inputs": [
        {
          "internalType": "address",
          "name": "currency",
          "type": "address"
        },
        {
          "internalType": "bool",
          "name": "isApproved",
          "type": "bool"
        }
      ],
      "name": "setCurrencyApproval",
      "outputs": [],
      "stateMutability": "nonpayable",
      "type": "function"
    },
    {
      "inputs": [
        {
          "internalType": "address",
          "name": "beneficiary",
          "type": "address"
        }
      ],
      "name": "setFeeBeneficiary",
      "outputs": [],
      "stateMutability": "nonpayable",
      "type": "function"
    },
    {
      "inputs": [
        {
          "internalType": "uint256",
          "name": "price",
          "type": "uint256"
        }
      ],
      "name": "setMaxTokenPriceEther",
      "outputs": [],
      "stateMutability": "nonpayable",
      "type": "function"
    },
    {
      "inputs": [
        {
          "internalType": "uint256",
          "name": "price",
          "type": "uint256"
        }
      ],
      "name": "setMaxTokenPriceWei",
      "outputs": [],
      "stateMutability": "nonpayable",
      "type": "function"
    },
    {
      "inputs": [
        {
          "internalType": "uint256",
          "name": "quantity",
          "type": "uint256"
        }
      ],
      "name": "setMaxTradeQuantity",
      "outputs": [],
      "stateMutability": "nonpayable",
      "type": "function"
    },
    {
      "inputs": [
        {
          "internalType": "uint256",
          "name": "pct",
          "type": "uint256"
        }
      ],
      "name": "setSellerFeePct",
      "outputs": [],
      "stateMutability": "nonpayable",
      "type": "function"
    },
    {
      "inputs": [
        {
          "internalType": "address",
          "name": "token",
          "type": "address"
        },
        {
          "internalType": "bool",
          "name": "isApproved",
          "type": "bool"
        }
      ],
      "name": "setTokenApproval",
      "outputs": [],
      "stateMutability": "nonpayable",
      "type": "function"
    },
    {
      "inputs": [
        {
          "internalType": "bytes4",
          "name": "interfaceID",
          "type": "bytes4"
        }
      ],
      "name": "supportsInterface",
      "outputs": [
        {
          "internalType": "bool",
          "name": "",
          "type": "bool"
        }
      ],
      "stateMutability": "view",
      "type": "function",
      "constant": true
    },
    {
      "inputs": [
        {
          "internalType": "bytes",
          "name": "",
          "type": "bytes"
        },
        {
          "internalType": "uint256",
          "name": "",
          "type": "uint256"
        }
      ],
      "name": "tradeHistory",
      "outputs": [
        {
          "internalType": "uint256",
          "name": "",
          "type": "uint256"
        }
      ],
      "stateMutability": "view",
      "type": "function",
      "constant": true
    },
    {
      "inputs": [
        {
          "internalType": "address",
          "name": "currency",
          "type": "address"
        },
        {
          "internalType": "uint256",
          "name": "amount",
          "type": "uint256"
        }
      ],
      "name": "withdraw",
      "outputs": [],
      "stateMutability": "nonpayable",
      "type": "function"
    },
    {
      "inputs": [
        {
          "components": [
            {
              "internalType": "address",
              "name": "buyer",
              "type": "address"
            },
            {
              "internalType": "address",
              "name": "seller",
              "type": "address"
            },
            {
              "internalType": "address",
              "name": "token",
              "type": "address"
            },
            {
              "internalType": "uint256",
              "name": "tokenId",
              "type": "uint256"
            },
            {
              "internalType": "uint256",
              "name": "quantity",
              "type": "uint256"
            },
            {
              "internalType": "address",
              "name": "currency",
              "type": "address"
            },
            {
              "internalType": "uint256",
              "name": "price",
              "type": "uint256"
            },
            {
              "internalType": "uint256",
              "name": "expiry",
              "type": "uint256"
            }
          ],
          "internalType": "struct Offer",
          "name": "offer",
          "type": "tuple"
        },
        {
          "internalType": "uint256",
          "name": "salt",
          "type": "uint256"
        },
        {
          "internalType": "bytes",
          "name": "signature",
          "type": "bytes"
        }
      ],
      "name": "acceptOffer",
      "outputs": [],
      "stateMutability": "nonpayable",
      "type": "function"
    },
    {
      "inputs": [
        {
          "components": [
            {
              "internalType": "address",
              "name": "buyer",
              "type": "address"
            },
            {
              "internalType": "address",
              "name": "seller",
              "type": "address"
            },
            {
              "internalType": "address",
              "name": "token",
              "type": "address"
            },
            {
              "internalType": "uint256",
              "name": "tokenId",
              "type": "uint256"
            },
            {
              "internalType": "uint256",
              "name": "quantity",
              "type": "uint256"
            },
            {
              "internalType": "address",
              "name": "currency",
              "type": "address"
            },
            {
              "internalType": "uint256",
              "name": "price",
              "type": "uint256"
            },
            {
              "internalType": "uint256",
              "name": "expiry",
              "type": "uint256"
            }
          ],
          "internalType": "struct Offer",
          "name": "offer",
          "type": "tuple"
        },
        {
          "internalType": "uint256",
          "name": "salt",
          "type": "uint256"
        }
      ],
      "name": "getOfferHash",
      "outputs": [
        {
          "internalType": "bytes32",
          "name": "",
          "type": "bytes32"
        }
      ],
      "stateMutability": "view",
      "type": "function",
      "constant": true
    },
    {
      "inputs": [
        {
          "components": [
            {
              "internalType": "address",
              "name": "buyer",
              "type": "address"
            },
            {
              "internalType": "address",
              "name": "seller",
              "type": "address"
            },
            {
              "internalType": "address",
              "name": "token",
              "type": "address"
            },
            {
              "internalType": "uint256",
              "name": "tokenId",
              "type": "uint256"
            },
            {
              "internalType": "uint256",
              "name": "quantity",
              "type": "uint256"
            },
            {
              "internalType": "address",
              "name": "currency",
              "type": "address"
            },
            {
              "internalType": "uint256",
              "name": "price",
              "type": "uint256"
            },
            {
              "internalType": "uint256",
              "name": "expiry",
              "type": "uint256"
            }
          ],
          "internalType": "struct Offer",
          "name": "offer",
          "type": "tuple"
        },
        {
          "internalType": "uint256",
          "name": "nonce",
          "type": "uint256"
        },
        {
          "internalType": "bytes",
          "name": "signature",
          "type": "bytes"
        }
      ],
      "name": "cancelOffer",
      "outputs": [],
      "stateMutability": "nonpayable",
      "type": "function"
    }
  ],
  "bytecode": "0x6080604052611388600255611388600355620186a060045569d3c21bcecceda1000000600555620f424060065560045460075560006009556000600d556000600f553480156200004e57600080fd5b506040516200634b3803806200634b8339818101604052810190620000749190620003a2565b806000600160006101000a81548160ff021916908315150217905550620000a56000801b336200019660201b60201c565b620000d77fa49807205ce4d355092ef5a8a18f56e8913cf4a201fbe287825b095693c21775336200019660201b60201c565b6200010c7fa49807205ce4d355092ef5a8a18f56e8913cf4a201fbe287825b095693c217756000801b620001ac60201b60201c565b33601160006101000a81548173ffffffffffffffffffffffffffffffffffffffff021916908373ffffffffffffffffffffffffffffffffffffffff16021790555080601260006101000a81548173ffffffffffffffffffffffffffffffffffffffff021916908373ffffffffffffffffffffffffffffffffffffffff16021790555050506200043b565b620001a882826200020960201b60201c565b5050565b80620001be83620002fa60201b60201c565b837fbd79b86ffe0ab8e8776151514217cd7cacd52c909f66475c3af44e129f0b00ff60405160405180910390a480600080848152602001908152602001600020600101819055505050565b6200021b82826200031960201b60201c565b620002f657600160008084815260200190815260200160002060000160008373ffffffffffffffffffffffffffffffffffffffff1673ffffffffffffffffffffffffffffffffffffffff16815260200190815260200160002060006101000a81548160ff0219169083151502179055506200029b6200038360201b60201c565b73ffffffffffffffffffffffffffffffffffffffff168173ffffffffffffffffffffffffffffffffffffffff16837f2f8788117e7eff1d82e926ec794901d17c78024a50270940304540a733656f0d60405160405180910390a45b5050565b6000806000838152602001908152602001600020600101549050919050565b600080600084815260200190815260200160002060000160008373ffffffffffffffffffffffffffffffffffffffff1673ffffffffffffffffffffffffffffffffffffffff16815260200190815260200160002060009054906101000a900460ff16905092915050565b600033905090565b6000815190506200039c8162000421565b92915050565b600060208284031215620003bb57620003ba6200041c565b5b6000620003cb848285016200038b565b91505092915050565b6000620003e182620003fc565b9050919050565b6000620003f582620003d4565b9050919050565b600073ffffffffffffffffffffffffffffffffffffffff82169050919050565b600080fd5b6200042c81620003e8565b81146200043857600080fd5b50565b615f00806200044b6000396000f3fe608060405234801561001057600080fd5b506004361061021c5760003560e01c80638cac73ff11610125578063d4fac45d116100ad578063e45ad64a1161007c578063e45ad64a146105ff578063e6a501001461061b578063f3fef3a314610637578063fbb5470c14610653578063fd1fc13e146106835761021c565b8063d4fac45d1461057b578063d547741f146105ab578063d6febde8146105c7578063de6df7bf146105e35761021c565b8063a217fddf116100f4578063a217fddf146104d7578063bca99819146104f5578063be29928e14610511578063c661b89d14610541578063d428dc2b1461055d5761021c565b80638cac73ff1461043d5780638ce5ab6a1461045957806391d14854146104775780639507d39a146104a75761021c565b80635a0a3d82116101a857806375b238fc1161017757806375b238fc146103a957806377e5c4a8146103c75780638456cb59146103e557806385d561ae146103ef5780638662732e1461040d5761021c565b80635a0a3d82146103355780635c975abb146103515780635dabb20e1461036f578063670436f11461038d5761021c565b80632b483c03116101ef5780632b483c03146102a75780632f2ff15d146102c5578063325c5d56146102e157806336568abe146102fd57806340e58ee5146103195761021c565b806301ffc9a714610221578063046f7da21461025157806314d91c841461025b578063248a9ca314610277575b600080fd5b61023b60048036038101906102369190614164565b61069f565b6040516102489190614d63565b60405180910390f35b6102596106b1565b005b61027560048036038101906102709190613fb8565b6106ee565b005b610291600480360381019061028c91906140f7565b61077c565b60405161029e9190614d7e565b60405180910390f35b6102af61079b565b6040516102bc9190615217565b60405180910390f35b6102df60048036038101906102da9190614124565b6107a1565b005b6102fb60048036038101906102f6919061422f565b6107ca565b005b61031760048036038101906103129190614124565b61098c565b005b610333600480360381019061032e91906142a6565b610a0f565b005b61034f600480360381019061034a9190613daa565b610dca565b005b610359610e24565b6040516103669190614d63565b60405180910390f35b610377610e3b565b6040516103849190615217565b60405180910390f35b6103a760048036038101906103a29190613fb8565b610e41565b005b6103b1610ecf565b6040516103be9190614d7e565b60405180910390f35b6103cf610ef3565b6040516103dc9190615217565b60405180910390f35b6103ed610ef9565b005b6103f7610f36565b6040516104049190615217565b60405180910390f35b61042760048036038101906104229190613e17565b610f3c565b6040516104349190614d7e565b60405180910390f35b6104576004803603810190610452919061422f565b610f83565b005b610461611731565b60405161046e9190615217565b60405180910390f35b610491600480360381019061048c9190614124565b611737565b60405161049e9190614d63565b60405180910390f35b6104c160048036038101906104bc91906142a6565b6117a1565b6040516104ce91906151fb565b60405180910390f35b6104df61193e565b6040516104ec9190614d7e565b60405180910390f35b61050f600480360381019061050a91906142a6565b611945565b005b61052b600480360381019061052691906141ed565b611995565b6040516105389190614d7e565b60405180910390f35b61055b600480360381019061055691906142a6565b611a30565b005b610565611ab2565b6040516105729190615217565b60405180910390f35b61059560048036038101906105909190613dd7565b611ab8565b6040516105a29190615217565b60405180910390f35b6105c560048036038101906105c09190614124565b611b3f565b005b6105e160048036038101906105dc9190614300565b611b68565b005b6105fd60048036038101906105f89190613ecd565b6121c0565b005b610619600480360381019061061491906142a6565b612a1e565b005b610635600480360381019061063091906142a6565b612aa0565b005b610651600480360381019061064c9190613ff8565b612add565b005b61066d60048036038101906106689190614191565b612cc1565b60405161067a9190615217565b60405180910390f35b61069d600480360381019061069891906142a6565b612d08565b005b60006106aa82612d45565b9050919050565b7fa49807205ce4d355092ef5a8a18f56e8913cf4a201fbe287825b095693c217756106e3816106de612dbf565b612dc7565b6106eb612e64565b50565b7fa49807205ce4d355092ef5a8a18f56e8913cf4a201fbe287825b095693c217756107208161071b612dbf565b612dc7565b81600c60008573ffffffffffffffffffffffffffffffffffffffff1673ffffffffffffffffffffffffffffffffffffffff16815260200190815260200160002060006101000a81548160ff021916908315150217905550505050565b6000806000838152602001908152602001600020600101549050919050565b60035481565b6107aa8261077c565b6107bb816107b6612dbf565b612dc7565b6107c58383612f06565b505050565b60006107d68585611995565b90506014600082815260200190815260200160002060009054906101000a900460ff1615610839576040517f08c379a000000000000000000000000000000000000000000000000000000000815260040161083090614fdb565b60405180910390fd5b6013600082815260200190815260200160002060009054906101000a900460ff161561089a576040517f08c379a00000000000000000000000000000000000000000000000000000000081526004016108919061507b565b60405180910390fd5b6108f183838080601f016020809104026020016040519081016040528093929190818152602001838380828437600081840152601f19601f8201169050808301925050505050505082612fe690919063ffffffff16565b73ffffffffffffffffffffffffffffffffffffffff163373ffffffffffffffffffffffffffffffffffffffff161480610950575061094f7fa49807205ce4d355092ef5a8a18f56e8913cf4a201fbe287825b095693c2177533611737565b5b61095957600080fd5b60016013600083815260200190815260200160002060006101000a81548160ff0219169083151502179055505050505050565b610994612dbf565b73ffffffffffffffffffffffffffffffffffffffff168173ffffffffffffffffffffffffffffffffffffffff1614610a01576040517f08c379a00000000000000000000000000000000000000000000000000000000081526004016109f8906151bb565b60405180910390fd5b610a0b82826130b0565b5050565b6000600a600083815260200190815260200160002060405180610120016040529081600082015481526020016001820160009054906101000a900473ffffffffffffffffffffffffffffffffffffffff1673ffffffffffffffffffffffffffffffffffffffff1673ffffffffffffffffffffffffffffffffffffffff1681526020016002820160009054906101000a900473ffffffffffffffffffffffffffffffffffffffff1673ffffffffffffffffffffffffffffffffffffffff1673ffffffffffffffffffffffffffffffffffffffff1681526020016003820154815260200160048201548152602001600582015481526020016006820160009054906101000a900473ffffffffffffffffffffffffffffffffffffffff1673ffffffffffffffffffffffffffffffffffffffff1673ffffffffffffffffffffffffffffffffffffffff168152602001600782015481526020016008820160009054906101000a900460ff166002811115610b8957610b88615670565b5b6002811115610b9b57610b9a615670565b5b81525050905060006002811115610bb557610bb4615670565b5b8161010001516002811115610bcd57610bcc615670565b5b14610c0d576040517f08c379a0000000000000000000000000000000000000000000000000000000008152600401610c0490614f1b565b60405180910390fd5b806020015173ffffffffffffffffffffffffffffffffffffffff163373ffffffffffffffffffffffffffffffffffffffff161480610c715750610c707fa49807205ce4d355092ef5a8a18f56e8913cf4a201fbe287825b095693c2177533611737565b5b610cb0576040517f08c379a0000000000000000000000000000000000000000000000000000000008152600401610ca790614ebb565b60405180910390fd5b6002600a600084815260200190815260200160002060080160006101000a81548160ff02191690836002811115610cea57610ce9615670565b5b0217905550601260009054906101000a900473ffffffffffffffffffffffffffffffffffffffff1673ffffffffffffffffffffffffffffffffffffffff16632ed7bae882604001513384606001518560a001516040518563ffffffff1660e01b8152600401610d5c9493929190614c79565b600060405180830381600087803b158015610d7657600080fd5b505af1158015610d8a573d6000803e3d6000fd5b50505050817f8dd3c361eb2366ff27c2db0eb07b9261f1d052570742ab8c9a0c326f37aa576d33604051610dbe9190614bfe565b60405180910390a25050565b6000801b610ddf81610dda612dbf565b612dc7565b81601160006101000a81548173ffffffffffffffffffffffffffffffffffffffff021916908373ffffffffffffffffffffffffffffffffffffffff1602179055505050565b6000600160009054906101000a900460ff16905090565b60075481565b7fa49807205ce4d355092ef5a8a18f56e8913cf4a201fbe287825b095693c21775610e7381610e6e612dbf565b612dc7565b81600e60008573ffffffffffffffffffffffffffffffffffffffff1673ffffffffffffffffffffffffffffffffffffffff16815260200190815260200160002060006101000a81548160ff021916908315150217905550505050565b7fa49807205ce4d355092ef5a8a18f56e8913cf4a201fbe287825b095693c2177581565b60055481565b7fa49807205ce4d355092ef5a8a18f56e8913cf4a201fbe287825b095693c21775610f2b81610f26612dbf565b612dc7565b610f33613191565b50565b60065481565b6000308989898989898989604051602001610f5f99989796959493929190614ab8565b60405160208183030381529060405280519060200120905098975050505050505050565b836020016020810190610f969190613daa565b73ffffffffffffffffffffffffffffffffffffffff163373ffffffffffffffffffffffffffffffffffffffff1614611003576040517f08c379a0000000000000000000000000000000000000000000000000000000008152600401610ffa9061511b565b60405180910390fd5b600c600085604001602081019061101a9190613daa565b73ffffffffffffffffffffffffffffffffffffffff1673ffffffffffffffffffffffffffffffffffffffff16815260200190815260200160002060009054906101000a900460ff166110a1576040517f08c379a00000000000000000000000000000000000000000000000000000000081526004016110989061501b565b60405180910390fd5b600e60008560a00160208101906110b89190613daa565b73ffffffffffffffffffffffffffffffffffffffff1673ffffffffffffffffffffffffffffffffffffffff16815260200190815260200160002060009054906101000a900460ff1661113f576040517f08c379a000000000000000000000000000000000000000000000000000000000815260040161113690614f5b565b60405180910390fd5b428460e0013511611185576040517f08c379a000000000000000000000000000000000000000000000000000000000815260040161117c906150bb565b60405180910390fd5b60006111918585611995565b90506013600082815260200190815260200160002060009054906101000a900460ff161580156111df57506014600082815260200190815260200160002060009054906101000a900460ff16155b61121e576040517f08c379a0000000000000000000000000000000000000000000000000000000008152600401611215906151db565b60405180910390fd5b600061127f84848080601f016020809104026020016040519081016040528093929190818152602001838380828437600081840152601f19601f8201169050808301925050505050505061127184613233565b612fe690919063ffffffff16565b90508560000160208101906112949190613daa565b73ffffffffffffffffffffffffffffffffffffffff168173ffffffffffffffffffffffffffffffffffffffff1614611301576040517f08c379a00000000000000000000000000000000000000000000000000000000081526004016112f890614edb565b60405180910390fd5b6007548660c00135101561134a576040517f08c379a00000000000000000000000000000000000000000000000000000000081526004016113419061503b565b60405180910390fd5b60008061135a8860c00135613263565b91509150808860c0013561136e919061531d565b8860a00160208101906113819190613daa565b73ffffffffffffffffffffffffffffffffffffffff1663dd62ed3e8a60000160208101906113af9190613daa565b306040518363ffffffff1660e01b81526004016113cd929190614c19565b60206040518083038186803b1580156113e557600080fd5b505afa1580156113f9573d6000803e3d6000fd5b505050506040513d601f19601f8201168201806040525081019061141d91906142d3565b101561145e576040517f08c379a00000000000000000000000000000000000000000000000000000000081526004016114559061519b565b60405180910390fd5b60016014600086815260200190815260200160002060006101000a81548160ff021916908315150217905550601260009054906101000a900473ffffffffffffffffffffffffffffffffffffffff1673ffffffffffffffffffffffffffffffffffffffff166340fd58298960400160208101906114db9190613daa565b338b606001358c608001356040518563ffffffff1660e01b81526004016115059493929190614c79565b600060405180830381600087803b15801561151f57600080fd5b505af1158015611533573d6000803e3d6000fd5b505050508760a001602081019061154a9190613daa565b73ffffffffffffffffffffffffffffffffffffffff166323b872dd8960000160208101906115789190613daa565b30848c60c00135611589919061531d565b6040518463ffffffff1660e01b81526004016115a793929190614c42565b602060405180830381600087803b1580156115c157600080fd5b505af11580156115d5573d6000803e3d6000fd5b505050506040513d601f19601f820116820180604052508101906115f991906140ca565b5060006116368960c0013584848c60400160208101906116199190613daa565b8d606001358e60a00160208101906116319190613daa565b6132a5565b90506116678960a001602081019061164e9190613daa565b8a60200160208101906116619190613daa565b83613577565b601260009054906101000a900473ffffffffffffffffffffffffffffffffffffffff1673ffffffffffffffffffffffffffffffffffffffff16632ed7bae88a60400160208101906116b89190613daa565b8b60000160208101906116cb9190613daa565b8c606001358d608001356040518563ffffffff1660e01b81526004016116f49493929190614c79565b600060405180830381600087803b15801561170e57600080fd5b505af1158015611722573d6000803e3d6000fd5b50505050505050505050505050565b60025481565b600080600084815260200190815260200160002060000160008373ffffffffffffffffffffffffffffffffffffffff1673ffffffffffffffffffffffffffffffffffffffff16815260200190815260200160002060009054906101000a900460ff16905092915050565b6117a9613a40565b600a600083815260200190815260200160002060405180610120016040529081600082015481526020016001820160009054906101000a900473ffffffffffffffffffffffffffffffffffffffff1673ffffffffffffffffffffffffffffffffffffffff1673ffffffffffffffffffffffffffffffffffffffff1681526020016002820160009054906101000a900473ffffffffffffffffffffffffffffffffffffffff1673ffffffffffffffffffffffffffffffffffffffff1673ffffffffffffffffffffffffffffffffffffffff1681526020016003820154815260200160048201548152602001600582015481526020016006820160009054906101000a900473ffffffffffffffffffffffffffffffffffffffff1673ffffffffffffffffffffffffffffffffffffffff1673ffffffffffffffffffffffffffffffffffffffff168152602001600782015481526020016008820160009054906101000a900460ff16600281111561192157611920615670565b5b600281111561193357611932615670565b5b815250509050919050565b6000801b81565b7fa49807205ce4d355092ef5a8a18f56e8913cf4a201fbe287825b095693c2177561197781611972612dbf565b612dc7565b670de0b6b3a76400008261198b91906153a4565b6005819055505050565b6000308360000160208101906119ab9190613daa565b8460200160208101906119be9190613daa565b8560400160208101906119d19190613daa565b866060013587608001358860a00160208101906119ee9190613daa565b8960c001358a60e001358a604051602001611a129a99989796959493929190614a04565b60405160208183030381529060405280519060200120905092915050565b7fa49807205ce4d355092ef5a8a18f56e8913cf4a201fbe287825b095693c21775611a6281611a5d612dbf565b612dc7565b600454821115611aa7576040517f08c379a0000000000000000000000000000000000000000000000000000000008152600401611a9e9061513b565b60405180910390fd5b816003819055505050565b60045481565b6000600b60008373ffffffffffffffffffffffffffffffffffffffff1673ffffffffffffffffffffffffffffffffffffffff16815260200190815260200160002060008473ffffffffffffffffffffffffffffffffffffffff1673ffffffffffffffffffffffffffffffffffffffff16815260200190815260200160002054905092915050565b611b488261077c565b611b5981611b54612dbf565b612dc7565b611b6383836130b0565b505050565b611b70610e24565b15611bb0576040517f08c379a0000000000000000000000000000000000000000000000000000000008152600401611ba790614f9b565b60405180910390fd5b6000600a600084815260200190815260200160002060405180610120016040529081600082015481526020016001820160009054906101000a900473ffffffffffffffffffffffffffffffffffffffff1673ffffffffffffffffffffffffffffffffffffffff1673ffffffffffffffffffffffffffffffffffffffff1681526020016002820160009054906101000a900473ffffffffffffffffffffffffffffffffffffffff1673ffffffffffffffffffffffffffffffffffffffff1673ffffffffffffffffffffffffffffffffffffffff1681526020016003820154815260200160048201548152602001600582015481526020016006820160009054906101000a900473ffffffffffffffffffffffffffffffffffffffff1673ffffffffffffffffffffffffffffffffffffffff1673ffffffffffffffffffffffffffffffffffffffff168152602001600782015481526020016008820160009054906101000a900460ff166002811115611d2a57611d29615670565b5b6002811115611d3c57611d3b615670565b5b81525050905060006002811115611d5657611d55615670565b5b8161010001516002811115611d6e57611d6d615670565b5b14611dae576040517f08c379a0000000000000000000000000000000000000000000000000000000008152600401611da590614efb565b60405180910390fd5b8060a00151821115611df5576040517f08c379a0000000000000000000000000000000000000000000000000000000008152600401611dec90614e5b565b60405180910390fd5b806020015173ffffffffffffffffffffffffffffffffffffffff163373ffffffffffffffffffffffffffffffffffffffff161415611e68576040517f08c379a0000000000000000000000000000000000000000000000000000000008152600401611e5f906150db565b60405180910390fd5b6000828260e00151611e7a91906153a4565b905060008260c001519050600080611e9184613263565b9150915060008373ffffffffffffffffffffffffffffffffffffffff1663dd62ed3e33306040518363ffffffff1660e01b8152600401611ed2929190614c19565b60206040518083038186803b158015611eea57600080fd5b505afa158015611efe573d6000803e3d6000fd5b505050506040513d601f19601f82011682018060405250810190611f2291906142d3565b90508185611f30919061531d565b811015611f72576040517f08c379a0000000000000000000000000000000000000000000000000000000008152600401611f6990614f7b565b60405180910390fd5b8373ffffffffffffffffffffffffffffffffffffffff166323b872dd33308589611f9c919061531d565b6040518463ffffffff1660e01b8152600401611fba93929190614c42565b602060405180830381600087803b158015611fd457600080fd5b505af1158015611fe8573d6000803e3d6000fd5b505050506040513d601f19601f8201168201806040525081019061200c91906140ca565b506000878760a0015161201f91906153fe565b905080600a60006009548152602001908152602001600020600501819055506000811415612089576001600a6000600954815260200190815260200160002060080160006101000a81548160ff0219169083600281111561208357612082615670565b5b02179055505b60006120a58786868b604001518c606001518d60c001516132a5565b90506120ba8860c00151896020015183613577565b601260009054906101000a900473ffffffffffffffffffffffffffffffffffffffff1673ffffffffffffffffffffffffffffffffffffffff16632ed7bae88960400151338b606001518d6040518563ffffffff1660e01b81526004016121239493929190614c79565b600060405180830381600087803b15801561213d57600080fd5b505af1158015612151573d6000803e3d6000fd5b505050503373ffffffffffffffffffffffffffffffffffffffff1688600001517f5b3fa64172584174917e1b3a206fe9c25d3120cf366b3d05ad5b6183a15cf7898a604001518b606001518d6040516121ac93929190614d2c565b60405180910390a350505050505050505050565b6121c8610e24565b15612208576040517f08c379a00000000000000000000000000000000000000000000000000000000081526004016121ff90614f9b565b60405180910390fd5b60075485101561224d576040517f08c379a00000000000000000000000000000000000000000000000000000000081526004016122449061503b565b60405180910390fd5b600554851115612292576040517f08c379a000000000000000000000000000000000000000000000000000000000815260040161228990614fbb565b60405180910390fd5b6006548711156122d7576040517f08c379a00000000000000000000000000000000000000000000000000000000081526004016122ce90614ffb565b60405180910390fd5b600c60008a73ffffffffffffffffffffffffffffffffffffffff1673ffffffffffffffffffffffffffffffffffffffff16815260200190815260200160002060009054906101000a900460ff16612363576040517f08c379a000000000000000000000000000000000000000000000000000000000815260040161235a9061501b565b60405180910390fd5b600e60008773ffffffffffffffffffffffffffffffffffffffff1673ffffffffffffffffffffffffffffffffffffffff16815260200190815260200160002060009054906101000a900460ff166123ef576040517f08c379a00000000000000000000000000000000000000000000000000000000081526004016123e690614f5b565b60405180910390fd5b6124197fa49807205ce4d355092ef5a8a18f56e8913cf4a201fbe287825b095693c2177533611737565b6126085742841161245f576040517f08c379a00000000000000000000000000000000000000000000000000000000081526004016124569061509b565b60405180910390fd5b60006124718b8b8b8b8b8b8b8b610f3c565b90506010600082815260200190815260200160002060009054906101000a900460ff16156124d4576040517f08c379a00000000000000000000000000000000000000000000000000000000081526004016124cb906150fb565b60405180910390fd5b600061253584848080601f016020809104026020016040519081016040528093929190818152602001838380828437600081840152601f19601f8201169050808301925050505050505061252784613233565b612fe690919063ffffffff16565b9050600073ffffffffffffffffffffffffffffffffffffffff168173ffffffffffffffffffffffffffffffffffffffff161415801561259a57506125997fa49807205ce4d355092ef5a8a18f56e8913cf4a201fbe287825b095693c2177582611737565b5b6125d9576040517f08c379a00000000000000000000000000000000000000000000000000000000081526004016125d09061515b565b60405180910390fd5b60016010600084815260200190815260200160002060006101000a81548160ff02191690831515021790555050505b8873ffffffffffffffffffffffffffffffffffffffff166301ffc9a77fd9b67a26000000000000000000000000000000000000000000000000000000006040518263ffffffff1660e01b81526004016126619190614dde565b60206040518083038186803b15801561267957600080fd5b505afa15801561268d573d6000803e3d6000fd5b505050506040513d601f19601f820116820180604052508101906126b191906140ca565b6126ba57600196505b601260009054906101000a900473ffffffffffffffffffffffffffffffffffffffff1673ffffffffffffffffffffffffffffffffffffffff166340fd58298a8c8b8b6040518563ffffffff1660e01b815260040161271b9493929190614c79565b600060405180830381600087803b15801561273557600080fd5b505af1158015612749573d6000803e3d6000fd5b505050506009600081548092919061276090615591565b9190505550600060405180610120016040528060095481526020018c73ffffffffffffffffffffffffffffffffffffffff1681526020018b73ffffffffffffffffffffffffffffffffffffffff1681526020018a81526020018981526020018981526020018873ffffffffffffffffffffffffffffffffffffffff168152602001878152602001600060028111156127fb576127fa615670565b5b815250905080600a600060095481526020019081526020016000206000820151816000015560208201518160010160006101000a81548173ffffffffffffffffffffffffffffffffffffffff021916908373ffffffffffffffffffffffffffffffffffffffff16021790555060408201518160020160006101000a81548173ffffffffffffffffffffffffffffffffffffffff021916908373ffffffffffffffffffffffffffffffffffffffff160217905550606082015181600301556080820151816004015560a0820151816005015560c08201518160060160006101000a81548173ffffffffffffffffffffffffffffffffffffffff021916908373ffffffffffffffffffffffffffffffffffffffff16021790555060e082015181600701556101008201518160080160006101000a81548160ff0219169083600281111561294957612948615670565b5b021790555090505060088a8a604051602001612966929190614b5b565b6040516020818303038152906040526040516129829190614b87565b90815260200160405180910390206009549080600181540180825580915050600190039060005260206000200160009091909190915055888a73ffffffffffffffffffffffffffffffffffffffff166009547fec6476599af7d1de36dcaba6243c67594713af1feae0fbad3dc18f641d985df78e8c8c8c604051612a099493929190614ce7565b60405180910390a45050505050505050505050565b7fa49807205ce4d355092ef5a8a18f56e8913cf4a201fbe287825b095693c21775612a5081612a4b612dbf565b612dc7565b600454821115612a95576040517f08c379a0000000000000000000000000000000000000000000000000000000008152600401612a8c9061513b565b60405180910390fd5b816002819055505050565b7fa49807205ce4d355092ef5a8a18f56e8913cf4a201fbe287825b095693c21775612ad281612acd612dbf565b612dc7565b816006819055505050565b80600b60003373ffffffffffffffffffffffffffffffffffffffff1673ffffffffffffffffffffffffffffffffffffffff16815260200190815260200160002060008473ffffffffffffffffffffffffffffffffffffffff1673ffffffffffffffffffffffffffffffffffffffff168152602001908152602001600020541015612b9c576040517f08c379a0000000000000000000000000000000000000000000000000000000008152600401612b939061517b565b60405180910390fd5b80600b60003373ffffffffffffffffffffffffffffffffffffffff1673ffffffffffffffffffffffffffffffffffffffff16815260200190815260200160002060008473ffffffffffffffffffffffffffffffffffffffff1673ffffffffffffffffffffffffffffffffffffffff1681526020019081526020016000206000828254612c2891906153fe565b925050819055508173ffffffffffffffffffffffffffffffffffffffff1663a9059cbb33836040518363ffffffff1660e01b8152600401612c6a929190614cbe565b602060405180830381600087803b158015612c8457600080fd5b505af1158015612c98573d6000803e3d6000fd5b505050506040513d601f19601f82011682018060405250810190612cbc91906140ca565b505050565b6008828051602081018201805184825260208301602085012081835280955050505050508181548110612cf357600080fd5b90600052602060002001600091509150505481565b7fa49807205ce4d355092ef5a8a18f56e8913cf4a201fbe287825b095693c21775612d3a81612d35612dbf565b612dc7565b816005819055505050565b60007f7965db0b000000000000000000000000000000000000000000000000000000007bffffffffffffffffffffffffffffffffffffffffffffffffffffffff1916827bffffffffffffffffffffffffffffffffffffffffffffffffffffffff19161480612db85750612db78261360f565b5b9050919050565b600033905090565b612dd18282611737565b612e6057612df68173ffffffffffffffffffffffffffffffffffffffff166014613679565b612e048360001c6020613679565b604051602001612e15929190614bc4565b6040516020818303038152906040526040517f08c379a0000000000000000000000000000000000000000000000000000000008152600401612e579190614df9565b60405180910390fd5b5050565b612e6c610e24565b612eab576040517f08c379a0000000000000000000000000000000000000000000000000000000008152600401612ea290614e7b565b60405180910390fd5b6000600160006101000a81548160ff0219169083151502179055507f5db9ee0a495bf2e6ff9c91a7834c1ba4fdd244a5e8aa4e537bd38aeae4b073aa612eef612dbf565b604051612efc9190614bfe565b60405180910390a1565b612f108282611737565b612fe257600160008084815260200190815260200160002060000160008373ffffffffffffffffffffffffffffffffffffffff1673ffffffffffffffffffffffffffffffffffffffff16815260200190815260200160002060006101000a81548160ff021916908315150217905550612f87612dbf565b73ffffffffffffffffffffffffffffffffffffffff168173ffffffffffffffffffffffffffffffffffffffff16837f2f8788117e7eff1d82e926ec794901d17c78024a50270940304540a733656f0d60405160405180910390a45b5050565b600080600080604185511415613013576020850151925060408501519150606085015160001a9050613099565b60408551141561305d576040850151602086015193507f7fffffffffffffffffffffffffffffffffffffffffffffffffffffffffffffff81169250601b8160ff1c01915050613098565b6040517f08c379a000000000000000000000000000000000000000000000000000000000815260040161308f90614e9b565b60405180910390fd5b5b6130a5868285856138b5565b935050505092915050565b6130ba8282611737565b1561318d57600080600084815260200190815260200160002060000160008373ffffffffffffffffffffffffffffffffffffffff1673ffffffffffffffffffffffffffffffffffffffff16815260200190815260200160002060006101000a81548160ff021916908315150217905550613132612dbf565b73ffffffffffffffffffffffffffffffffffffffff168173ffffffffffffffffffffffffffffffffffffffff16837ff6391f5c32d9c69d2a47ea670b442974b53935d1edc7fd64eb21e047a839171b60405160405180910390a45b5050565b613199610e24565b156131d9576040517f08c379a00000000000000000000000000000000000000000000000000000000081526004016131d090614f9b565b60405180910390fd5b60018060006101000a81548160ff0219169083151502179055507f62e78cea01bee320cd4e420270b5ea74000d11b0c9f74754ebdbfc544b05a25861321c612dbf565b6040516132299190614bfe565b60405180910390a1565b6000816040516020016132469190614b9e565b604051602081830303815290604052805190602001209050919050565b6000806004546002548461327791906153a4565b6132819190615373565b90506004546003548461329491906153a4565b61329e9190615373565b9150915091565b6000858711156132be5785876132bb91906153fe565b96505b8690506132f982601160009054906101000a900473ffffffffffffffffffffffffffffffffffffffff1687896132f4919061531d565b613577565b8373ffffffffffffffffffffffffffffffffffffffff166301ffc9a763b779958460e01b6040518263ffffffff1660e01b81526004016133399190614dde565b60206040518083038186803b15801561335157600080fd5b505afa158015613365573d6000803e3d6000fd5b505050506040513d601f19601f8201168201806040525081019061338991906140ca565b6133925761356d565b600084905060008173ffffffffffffffffffffffffffffffffffffffff1663b9c4d9fb866040518263ffffffff1660e01b81526004016133d29190615217565b60006040518083038186803b1580156133ea57600080fd5b505afa1580156133fe573d6000803e3d6000fd5b505050506040513d6000823e3d601f19601f820116820180604052508101906134279190614038565b905060008273ffffffffffffffffffffffffffffffffffffffff16630ebd4c7f876040518263ffffffff1660e01b81526004016134649190615217565b60006040518083038186803b15801561347c57600080fd5b505afa158015613490573d6000803e3d6000fd5b505050506040513d6000823e3d601f19601f820116820180604052508101906134b99190614081565b905060005b81518110156135685760008514156134d557613568565b60006004548383815181106134ed576134ec61569f565b5b60200260200101518d61350091906153a4565b61350a9190615373565b905085811115613520578590506000955061352f565b808661352c91906153fe565b95505b613554878584815181106135465761354561569f565b5b602002602001015183613577565b50808061356090615591565b9150506134be565b505050505b9695505050505050565b80600b60008473ffffffffffffffffffffffffffffffffffffffff1673ffffffffffffffffffffffffffffffffffffffff16815260200190815260200160002060008573ffffffffffffffffffffffffffffffffffffffff1673ffffffffffffffffffffffffffffffffffffffff1681526020019081526020016000206000828254613603919061531d565b92505081905550505050565b60007f01ffc9a7000000000000000000000000000000000000000000000000000000007bffffffffffffffffffffffffffffffffffffffffffffffffffffffff1916827bffffffffffffffffffffffffffffffffffffffffffffffffffffffff1916149050919050565b60606000600283600261368c91906153a4565b613696919061531d565b67ffffffffffffffff8111156136af576136ae6156ce565b5b6040519080825280601f01601f1916602001820160405280156136e15781602001600182028036833780820191505090505b5090507f3000000000000000000000000000000000000000000000000000000000000000816000815181106137195761371861569f565b5b60200101907effffffffffffffffffffffffffffffffffffffffffffffffffffffffffffff1916908160001a9053507f78000000000000000000000000000000000000000000000000000000000000008160018151811061377d5761377c61569f565b5b60200101907effffffffffffffffffffffffffffffffffffffffffffffffffffffffffffff1916908160001a905350600060018460026137bd91906153a4565b6137c7919061531d565b90505b6001811115613867577f3031323334353637383961626364656600000000000000000000000000000000600f8616601081106138095761380861569f565b5b1a60f81b8282815181106138205761381f61569f565b5b60200101907effffffffffffffffffffffffffffffffffffffffffffffffffffffffffffff1916908160001a905350600485901c94508061386090615536565b90506137ca565b50600084146138ab576040517f08c379a00000000000000000000000000000000000000000000000000000000081526004016138a290614e3b565b60405180910390fd5b8091505092915050565b60007f7fffffffffffffffffffffffffffffff5d576e7357a4501ddfe92f46681b20a08260001c111561391d576040517f08c379a000000000000000000000000000000000000000000000000000000000815260040161391490614f3b565b60405180910390fd5b601b8460ff1614806139325750601c8460ff16145b613971576040517f08c379a00000000000000000000000000000000000000000000000000000000081526004016139689061505b565b60405180910390fd5b6000600186868686604051600081526020016040526040516139969493929190614d99565b6020604051602081039080840390855afa1580156139b8573d6000803e3d6000fd5b505050602060405103519050600073ffffffffffffffffffffffffffffffffffffffff168173ffffffffffffffffffffffffffffffffffffffff161415613a34576040517f08c379a0000000000000000000000000000000000000000000000000000000008152600401613a2b90614e1b565b60405180910390fd5b80915050949350505050565b60405180610120016040528060008152602001600073ffffffffffffffffffffffffffffffffffffffff168152602001600073ffffffffffffffffffffffffffffffffffffffff168152602001600081526020016000815260200160008152602001600073ffffffffffffffffffffffffffffffffffffffff1681526020016000815260200160006002811115613ada57613ad9615670565b5b81525090565b6000613af3613aee84615257565b615232565b90508083825260208201905082856020860282011115613b1657613b1561570c565b5b60005b85811015613b465781613b2c8882613c17565b845260208401935060208301925050600181019050613b19565b5050509392505050565b6000613b63613b5e84615283565b615232565b90508083825260208201905082856020860282011115613b8657613b8561570c565b5b60005b85811015613bb65781613b9c8882613d95565b845260208401935060208301925050600181019050613b89565b5050509392505050565b6000613bd3613bce846152af565b615232565b905082815260208101848484011115613bef57613bee615711565b5b613bfa8482856154f4565b509392505050565b600081359050613c1181615e40565b92915050565b600081519050613c2681615e57565b92915050565b600082601f830112613c4157613c40615702565b5b8151613c51848260208601613ae0565b91505092915050565b600082601f830112613c6f57613c6e615702565b5b8151613c7f848260208601613b50565b91505092915050565b600081359050613c9781615e6e565b92915050565b600081519050613cac81615e6e565b92915050565b600081359050613cc181615e85565b92915050565b600081359050613cd681615e9c565b92915050565b60008083601f840112613cf257613cf1615702565b5b8235905067ffffffffffffffff811115613d0f57613d0e6156fd565b5b602083019150836001820283011115613d2b57613d2a61570c565b5b9250929050565b600082601f830112613d4757613d46615702565b5b8135613d57848260208601613bc0565b91505092915050565b60006101008284031215613d7757613d76615707565b5b81905092915050565b600081359050613d8f81615eb3565b92915050565b600081519050613da481615eb3565b92915050565b600060208284031215613dc057613dbf61571b565b5b6000613dce84828501613c02565b91505092915050565b60008060408385031215613dee57613ded61571b565b5b6000613dfc85828601613c02565b9250506020613e0d85828601613c02565b9150509250929050565b600080600080600080600080610100898b031215613e3857613e3761571b565b5b6000613e468b828c01613c02565b9850506020613e578b828c01613c02565b9750506040613e688b828c01613d80565b9650506060613e798b828c01613d80565b9550506080613e8a8b828c01613c02565b94505060a0613e9b8b828c01613d80565b93505060c0613eac8b828c01613d80565b92505060e0613ebd8b828c01613d80565b9150509295985092959890939650565b6000806000806000806000806000806101208b8d031215613ef157613ef061571b565b5b6000613eff8d828e01613c02565b9a50506020613f108d828e01613c02565b9950506040613f218d828e01613d80565b9850506060613f328d828e01613d80565b9750506080613f438d828e01613c02565b96505060a0613f548d828e01613d80565b95505060c0613f658d828e01613d80565b94505060e0613f768d828e01613d80565b9350506101008b013567ffffffffffffffff811115613f9857613f97615716565b5b613fa48d828e01613cdc565b92509250509295989b9194979a5092959850565b60008060408385031215613fcf57613fce61571b565b5b6000613fdd85828601613c02565b9250506020613fee85828601613c88565b9150509250929050565b6000806040838503121561400f5761400e61571b565b5b600061401d85828601613c02565b925050602061402e85828601613d80565b9150509250929050565b60006020828403121561404e5761404d61571b565b5b600082015167ffffffffffffffff81111561406c5761406b615716565b5b61407884828501613c2c565b91505092915050565b6000602082840312156140975761409661571b565b5b600082015167ffffffffffffffff8111156140b5576140b4615716565b5b6140c184828501613c5a565b91505092915050565b6000602082840312156140e0576140df61571b565b5b60006140ee84828501613c9d565b91505092915050565b60006020828403121561410d5761410c61571b565b5b600061411b84828501613cb2565b91505092915050565b6000806040838503121561413b5761413a61571b565b5b600061414985828601613cb2565b925050602061415a85828601613c02565b9150509250929050565b60006020828403121561417a5761417961571b565b5b600061418884828501613cc7565b91505092915050565b600080604083850312156141a8576141a761571b565b5b600083013567ffffffffffffffff8111156141c6576141c5615716565b5b6141d285828601613d32565b92505060206141e385828601613d80565b9150509250929050565b60008061012083850312156142055761420461571b565b5b600061421385828601613d60565b92505061010061422585828601613d80565b9150509250929050565b600080600080610140858703121561424a5761424961571b565b5b600061425887828801613d60565b94505061010061426a87828801613d80565b93505061012085013567ffffffffffffffff81111561428c5761428b615716565b5b61429887828801613cdc565b925092505092959194509250565b6000602082840312156142bc576142bb61571b565b5b60006142ca84828501613d80565b91505092915050565b6000602082840312156142e9576142e861571b565b5b60006142f784828501613d95565b91505092915050565b600080604083850312156143175761431661571b565b5b600061432585828601613d80565b925050602061433685828601613d80565b9150509250929050565b61434981615432565b82525050565b61435881615432565b82525050565b61436f61436a82615432565b6155da565b82525050565b61437e81615456565b82525050565b61438d81615462565b82525050565b6143a461439f82615462565b6155ec565b82525050565b6143b38161546c565b82525050565b60006143c4826152e0565b6143ce81856152f6565b93506143de818560208601615503565b80840191505092915050565b6143f3816154e2565b82525050565b6000614404826152eb565b61440e8185615301565b935061441e818560208601615503565b61442781615720565b840191505092915050565b600061443d826152eb565b6144478185615312565b9350614457818560208601615503565b80840191505092915050565b6000614470601883615301565b915061447b8261573e565b602082019050919050565b6000614493602083615301565b915061449e82615767565b602082019050919050565b60006144b6601b83615301565b91506144c182615790565b602082019050919050565b60006144d9601483615301565b91506144e4826157b9565b602082019050919050565b60006144fc601f83615301565b9150614507826157e2565b602082019050919050565b600061451f601c83615312565b915061452a8261580b565b601c82019050919050565b6000614542602983615301565b915061454d82615834565b604082019050919050565b6000614565602683615301565b915061457082615883565b604082019050919050565b6000614588601283615301565b9150614593826158d2565b602082019050919050565b60006145ab601f83615301565b91506145b6826158fb565b602082019050919050565b60006145ce602283615301565b91506145d982615924565b604082019050919050565b60006145f1601883615301565b91506145fc82615973565b602082019050919050565b6000614614601583615301565b915061461f8261599c565b602082019050919050565b6000614637601083615301565b9150614642826159c5565b602082019050919050565b600061465a601283615301565b9150614665826159ee565b602082019050919050565b600061467d602183615301565b915061468882615a17565b604082019050919050565b60006146a0601983615301565b91506146ab82615a66565b602082019050919050565b60006146c3601e83615301565b91506146ce82615a8f565b602082019050919050565b60006146e6601183615301565b91506146f182615ab8565b602082019050919050565b6000614709602283615301565b915061471482615ae1565b604082019050919050565b600061472c602183615301565b915061473782615b30565b604082019050919050565b600061474f601183615301565b915061475a82615b7f565b602082019050919050565b6000614772601183615301565b915061477d82615ba8565b602082019050919050565b6000614795601783615301565b91506147a082615bd1565b602082019050919050565b60006147b8601383615301565b91506147c382615bfa565b602082019050919050565b60006147db601d83615301565b91506147e682615c23565b602082019050919050565b60006147fe601783615312565b915061480982615c4c565b601782019050919050565b6000614821602a83615301565b915061482c82615c75565b604082019050919050565b6000614844601283615301565b915061484f82615cc4565b602082019050919050565b6000614867602183615301565b915061487282615ced565b604082019050919050565b600061488a601f83615301565b915061489582615d3c565b602082019050919050565b60006148ad601183615312565b91506148b882615d65565b601182019050919050565b60006148d0602f83615301565b91506148db82615d8e565b604082019050919050565b60006148f3602683615301565b91506148fe82615ddd565b604082019050919050565b6101208201600082015161492060008501826149c0565b5060208201516149336020850182614340565b5060408201516149466040850182614340565b50606082015161495960608501826149c0565b50608082015161496c60808501826149c0565b5060a082015161497f60a08501826149c0565b5060c082015161499260c0850182614340565b5060e08201516149a560e08501826149c0565b506101008201516149ba6101008501826143ea565b50505050565b6149c9816154cb565b82525050565b6149d8816154cb565b82525050565b6149ef6149ea826154cb565b615608565b82525050565b6149fe816154d5565b82525050565b6000614a10828d61435e565b601482019150614a20828c61435e565b601482019150614a30828b61435e565b601482019150614a40828a61435e565b601482019150614a5082896149de565b602082019150614a6082886149de565b602082019150614a70828761435e565b601482019150614a8082866149de565b602082019150614a9082856149de565b602082019150614aa082846149de565b6020820191508190509b9a5050505050505050505050565b6000614ac4828c61435e565b601482019150614ad4828b61435e565b601482019150614ae4828a61435e565b601482019150614af482896149de565b602082019150614b0482886149de565b602082019150614b14828761435e565b601482019150614b2482866149de565b602082019150614b3482856149de565b602082019150614b4482846149de565b6020820191508190509a9950505050505050505050565b6000614b67828561435e565b601482019150614b7782846149de565b6020820191508190509392505050565b6000614b9382846143b9565b915081905092915050565b6000614ba982614512565b9150614bb58284614393565b60208201915081905092915050565b6000614bcf826147f1565b9150614bdb8285614432565b9150614be6826148a0565b9150614bf28284614432565b91508190509392505050565b6000602082019050614c13600083018461434f565b92915050565b6000604082019050614c2e600083018561434f565b614c3b602083018461434f565b9392505050565b6000606082019050614c57600083018661434f565b614c64602083018561434f565b614c7160408301846149cf565b949350505050565b6000608082019050614c8e600083018761434f565b614c9b602083018661434f565b614ca860408301856149cf565b614cb560608301846149cf565b95945050505050565b6000604082019050614cd3600083018561434f565b614ce060208301846149cf565b9392505050565b6000608082019050614cfc600083018761434f565b614d0960208301866149cf565b614d16604083018561434f565b614d2360608301846149cf565b95945050505050565b6000606082019050614d41600083018661434f565b614d4e60208301856149cf565b614d5b60408301846149cf565b949350505050565b6000602082019050614d786000830184614375565b92915050565b6000602082019050614d936000830184614384565b92915050565b6000608082019050614dae6000830187614384565b614dbb60208301866149f5565b614dc86040830185614384565b614dd56060830184614384565b95945050505050565b6000602082019050614df360008301846143aa565b92915050565b60006020820190508181036000830152614e1381846143f9565b905092915050565b60006020820190508181036000830152614e3481614463565b9050919050565b60006020820190508181036000830152614e5481614486565b9050919050565b60006020820190508181036000830152614e74816144a9565b9050919050565b60006020820190508181036000830152614e94816144cc565b9050919050565b60006020820190508181036000830152614eb4816144ef565b9050919050565b60006020820190508181036000830152614ed481614535565b9050919050565b60006020820190508181036000830152614ef481614558565b9050919050565b60006020820190508181036000830152614f148161457b565b9050919050565b60006020820190508181036000830152614f348161459e565b9050919050565b60006020820190508181036000830152614f54816145c1565b9050919050565b60006020820190508181036000830152614f74816145e4565b9050919050565b60006020820190508181036000830152614f9481614607565b9050919050565b60006020820190508181036000830152614fb48161462a565b9050919050565b60006020820190508181036000830152614fd48161464d565b9050919050565b60006020820190508181036000830152614ff481614670565b9050919050565b6000602082019050818103600083015261501481614693565b9050919050565b60006020820190508181036000830152615034816146b6565b9050919050565b60006020820190508181036000830152615054816146d9565b9050919050565b60006020820190508181036000830152615074816146fc565b9050919050565b600060208201905081810360008301526150948161471f565b9050919050565b600060208201905081810360008301526150b481614742565b9050919050565b600060208201905081810360008301526150d481614765565b9050919050565b600060208201905081810360008301526150f481614788565b9050919050565b60006020820190508181036000830152615114816147ab565b9050919050565b60006020820190508181036000830152615134816147ce565b9050919050565b6000602082019050818103600083015261515481614814565b9050919050565b6000602082019050818103600083015261517481614837565b9050919050565b600060208201905081810360008301526151948161485a565b9050919050565b600060208201905081810360008301526151b48161487d565b9050919050565b600060208201905081810360008301526151d4816148c3565b9050919050565b600060208201905081810360008301526151f4816148e6565b9050919050565b6000610120820190506152116000830184614909565b92915050565b600060208201905061522c60008301846149cf565b92915050565b600061523c61524d565b90506152488282615560565b919050565b6000604051905090565b600067ffffffffffffffff821115615272576152716156ce565b5b602082029050602081019050919050565b600067ffffffffffffffff82111561529e5761529d6156ce565b5b602082029050602081019050919050565b600067ffffffffffffffff8211156152ca576152c96156ce565b5b6152d382615720565b9050602081019050919050565b600081519050919050565b600081519050919050565b600081905092915050565b600082825260208201905092915050565b600081905092915050565b6000615328826154cb565b9150615333836154cb565b9250827fffffffffffffffffffffffffffffffffffffffffffffffffffffffffffffffff0382111561536857615367615612565b5b828201905092915050565b600061537e826154cb565b9150615389836154cb565b92508261539957615398615641565b5b828204905092915050565b60006153af826154cb565b91506153ba836154cb565b9250817fffffffffffffffffffffffffffffffffffffffffffffffffffffffffffffffff04831182151516156153f3576153f2615612565b5b828202905092915050565b6000615409826154cb565b9150615414836154cb565b92508282101561542757615426615612565b5b828203905092915050565b600061543d826154ab565b9050919050565b600061544f826154ab565b9050919050565b60008115159050919050565b6000819050919050565b60007fffffffff0000000000000000000000000000000000000000000000000000000082169050919050565b60008190506154a682615e2c565b919050565b600073ffffffffffffffffffffffffffffffffffffffff82169050919050565b6000819050919050565b600060ff82169050919050565b60006154ed82615498565b9050919050565b82818337600083830152505050565b60005b83811015615521578082015181840152602081019050615506565b83811115615530576000848401525b50505050565b6000615541826154cb565b9150600082141561555557615554615612565b5b600182039050919050565b61556982615720565b810181811067ffffffffffffffff82111715615588576155876156ce565b5b80604052505050565b600061559c826154cb565b91507fffffffffffffffffffffffffffffffffffffffffffffffffffffffffffffffff8214156155cf576155ce615612565b5b600182019050919050565b60006155e5826155f6565b9050919050565b6000819050919050565b600061560182615731565b9050919050565b6000819050919050565b7f4e487b7100000000000000000000000000000000000000000000000000000000600052601160045260246000fd5b7f4e487b7100000000000000000000000000000000000000000000000000000000600052601260045260246000fd5b7f4e487b7100000000000000000000000000000000000000000000000000000000600052602160045260246000fd5b7f4e487b7100000000000000000000000000000000000000000000000000000000600052603260045260246000fd5b7f4e487b7100000000000000000000000000000000000000000000000000000000600052604160045260246000fd5b600080fd5b600080fd5b600080fd5b600080fd5b600080fd5b600080fd5b600080fd5b6000601f19601f8301169050919050565b60008160601b9050919050565b7f45434453413a20696e76616c6964207369676e61747572650000000000000000600082015250565b7f537472696e67733a20686578206c656e67746820696e73756666696369656e74600082015250565b7f4e6f7420656e6f75676820746f6b656e7320666f722073616c652e0000000000600082015250565b7f5061757361626c653a206e6f7420706175736564000000000000000000000000600082015250565b7f45434453413a20696e76616c6964207369676e6174757265206c656e67746800600082015250565b7f19457468657265756d205369676e6564204d6573736167653a0a333200000000600082015250565b7f4f6e6c792073656c6c6572206f722061646d696e2063616e20636c6f7365207460008201527f68652074726164652e0000000000000000000000000000000000000000000000602082015250565b7f4f66666572206e6565647320746f206265207369676e6564206279207468652060008201527f62757965722e0000000000000000000000000000000000000000000000000000602082015250565b7f5472616465206973206e6f74206f70656e2e0000000000000000000000000000600082015250565b7f4f6e6c79206f70656e207472616465732063616e20626520636c6f7365642e00600082015250565b7f45434453413a20696e76616c6964207369676e6174757265202773272076616c60008201527f7565000000000000000000000000000000000000000000000000000000000000602082015250565b7f43757272656e6379206973206e6f7420616c6c6f7765642e0000000000000000600082015250565b7f416c6c6f77616e636520697320746f6f206c6f772e0000000000000000000000600082015250565b7f5061757361626c653a2070617573656400000000000000000000000000000000600082015250565b7f507269636520697320746f6f20686967682e0000000000000000000000000000600082015250565b7f4f666665722068617320616c7265616479206265656e2066756c66696c6c656460008201527f2e00000000000000000000000000000000000000000000000000000000000000602082015250565b7f5175616e746974792065786365656473206d6178696d756d2e00000000000000600082015250565b7f546f6b656e20636f6e7472616374206973206e6f7420616c6c6f7765642e0000600082015250565b7f507269636520697320746f6f206c6f772e000000000000000000000000000000600082015250565b7f45434453413a20696e76616c6964207369676e6174757265202776272076616c60008201527f7565000000000000000000000000000000000000000000000000000000000000602082015250565b7f4f666665722068617320616c7265616479206265656e2063616e63656c6c656460008201527f2e00000000000000000000000000000000000000000000000000000000000000602082015250565b7f417070726f76616c20657870697265642e000000000000000000000000000000600082015250565b7f4f6666657220697320657870697265642e000000000000000000000000000000600082015250565b7f53656c6c65722063616e6e6f742062652062757965722e000000000000000000600082015250565b7f417070726f76616c206578686175737465642e00000000000000000000000000600082015250565b7f4f6e6c792073656c6c65722063616e20616363657074206f666665722e000000600082015250565b7f416363657373436f6e74726f6c3a206163636f756e7420000000000000000000600082015250565b7f4665652063616e6e6f7420626520686967686572207468616e2068756e64726560008201527f642070657263656e742e00000000000000000000000000000000000000000000602082015250565b7f496e76616c6964207369676e61747572652e0000000000000000000000000000600082015250565b7f496e73756666696369656e742062616c616e636520746f20776974686472617760008201527f2e00000000000000000000000000000000000000000000000000000000000000602082015250565b7f42757965722068617320696e73756666696369656e742062616c616e63652e00600082015250565b7f206973206d697373696e6720726f6c6520000000000000000000000000000000600082015250565b7f416363657373436f6e74726f6c3a2063616e206f6e6c792072656e6f756e636560008201527f20726f6c657320666f722073656c660000000000000000000000000000000000602082015250565b7f4f6666657220686173206265656e2066756c66696c6c6564206f722063616e6360008201527f656c6c65642e0000000000000000000000000000000000000000000000000000602082015250565b60038110615e3d57615e3c615670565b5b50565b615e4981615432565b8114615e5457600080fd5b50565b615e6081615444565b8114615e6b57600080fd5b50565b615e7781615456565b8114615e8257600080fd5b50565b615e8e81615462565b8114615e9957600080fd5b50565b615ea58161546c565b8114615eb057600080fd5b50565b615ebc816154cb565b8114615ec757600080fd5b5056fea264697066735822122004ab69cabdd7ac92225f1f3fb63fb117c9f7b0678675264781c153b5b6a3d86c64736f6c63430008060033",
  "immutableReferences": {},
  "source": "// SPDX-License-Identifier: MIT\r\npragma solidity ^0.8.0;\r\n\r\nimport \"../openzeppelin/contracts/token/ERC1155/IERC1155.sol\";\r\nimport \"../openzeppelin/contracts/token/ERC20/IERC20.sol\";\r\nimport \"../openzeppelin/contracts/utils/cryptography/ECDSA.sol\";\r\nimport \"../openzeppelin/contracts/access/Ownable.sol\";\r\nimport \"./MarketV1.sol\";\r\n\r\nstruct Offer {\r\n  address buyer;\r\n  address seller;\r\n  address token;\r\n  uint tokenId;\r\n  uint quantity;\r\n  address currency;\r\n  uint price;\r\n  uint expiry;\r\n}\r\n\r\ncontract OfferMarketV1 is MarketV1 {\r\n  using ECDSA for bytes32;\r\n\r\n  event Accept(\r\n    address indexed seller,\r\n    address indexed buyer,\r\n    address token,\r\n    address tokenId,\r\n    uint quantity,\r\n    address currency,\r\n    uint price\r\n  );\r\n\r\n  event Cancel(\r\n    address indexed sender,\r\n    address token,\r\n    address tokenId,\r\n    uint quantity,\r\n    address currency,\r\n    uint price\r\n  );\r\n\r\n  mapping(bytes32 => bool) private _cancelled;\r\n  mapping(bytes32 => bool) private _completed;\r\n\r\n  constructor(MarketWalletV1 wallet) MarketV1(wallet) {}\r\n\r\n  function acceptOffer(Offer calldata offer, uint salt, bytes calldata signature) public {\r\n    require(msg.sender == offer.seller, \"Only seller can accept offer.\");\r\n\r\n    require(_approvedTokens[offer.token], \"Token contract is not allowed.\");\r\n    require(_approvedCurrencies[offer.currency], \"Currency is not allowed.\");\r\n    \r\n    require(offer.expiry > block.timestamp, \"Offer is expired.\");\r\n\r\n    bytes32 offerHash = getOfferHash(offer, salt);\r\n\r\n    require(\r\n      !_cancelled[offerHash] && !_completed[offerHash],\r\n      \"Offer has been fulfilled or cancelled.\"\r\n    );\r\n    \r\n    address recoveredAddress = offerHash\r\n      .toEthSignedMessageHash()\r\n      .recover(signature);\r\n\r\n    require(\r\n      recoveredAddress == offer.buyer,\r\n      \"Offer needs to be signed by the buyer.\"\r\n    );\r\n\r\n    require(offer.price >= minTokenPrice, \"Price is too low.\");\r\n\r\n    (uint sellerFee, uint buyerFee) = calculateMarketFees(offer.price);\r\n\r\n    require(\r\n      IERC20(offer.currency).allowance(\r\n        offer.buyer,\r\n        address(this)\r\n      ) >= offer.price + buyerFee,\r\n      \"Buyer has insufficient balance.\"\r\n    );\r\n\r\n    _completed[offerHash] = true;\r\n    \r\n    _wallet.take(\r\n      offer.token,\r\n      msg.sender,\r\n      offer.tokenId,\r\n      offer.quantity\r\n    );\r\n\r\n    IERC20(offer.currency).transferFrom(\r\n      offer.buyer,\r\n      address(this),\r\n      offer.price + buyerFee\r\n    );\r\n    \r\n    uint sellerNet = payAfterFees(\r\n      offer.price,\r\n      sellerFee,\r\n      buyerFee,\r\n      offer.token,\r\n      offer.tokenId,\r\n      offer.currency\r\n    );\r\n\r\n    pay(offer.currency, offer.seller, sellerNet);\r\n\r\n    _wallet.give(\r\n      offer.token,\r\n      offer.buyer,\r\n      offer.tokenId,\r\n      offer.quantity\r\n    );\r\n  }\r\n\r\n  function getOfferHash(Offer calldata offer, uint salt) public view returns (bytes32) {\r\n    return keccak256(abi.encodePacked(\r\n      address(this),\r\n      offer.buyer,\r\n      offer.seller,\r\n      offer.token,\r\n      offer.tokenId,\r\n      offer.quantity,\r\n      offer.currency,\r\n      offer.price,\r\n      offer.expiry,\r\n      salt\r\n    ));\r\n  }\r\n\r\n  // Only offer maker and market owner can cancel\r\n  function cancelOffer(Offer calldata offer, uint nonce, bytes calldata signature) public {\r\n    bytes32 offerHash = getOfferHash(offer, nonce);\r\n\r\n    require(!_completed[offerHash], \"Offer has already been fulfilled.\");\r\n    require(!_cancelled[offerHash], \"Offer has already been cancelled.\");\r\n\r\n    require(msg.sender == offerHash.recover(signature) || hasRole(ADMIN_ROLE, msg.sender));\r\n    \r\n    _cancelled[offerHash] = true;\r\n  }\r\n}",
  "sourcePath": "C:/Users/Husnain/Documents/Projects/Fanbase/New/fanbase/packages/ethereum/contracts/solidity/collectibles/OfferMarketV1.sol",
  "compiler": {
    "name": "solc",
    "version": "0.8.6+commit.11564f7e.Emscripten.clang"
  },
  "schemaVersion": "3.4.1",
  "updatedAt": "2021-06-24T19:55:59.682Z",
  "networkType": "ethereum",
  "devdoc": {
    "kind": "dev",
    "methods": {
      "getRoleAdmin(bytes32)": {
        "details": "Returns the admin role that controls `role`. See {grantRole} and {revokeRole}. To change a role's admin, use {_setRoleAdmin}."
      },
      "grantRole(bytes32,address)": {
        "details": "Grants `role` to `account`. If `account` had not been already granted `role`, emits a {RoleGranted} event. Requirements: - the caller must have ``role``'s admin role."
      },
      "hasRole(bytes32,address)": {
        "details": "Returns `true` if `account` has been granted `role`."
      },
      "paused()": {
        "details": "Returns true if the contract is paused, and false otherwise."
      },
      "renounceRole(bytes32,address)": {
        "details": "Revokes `role` from the calling account. Roles are often managed via {grantRole} and {revokeRole}: this function's purpose is to provide a mechanism for accounts to lose their privileges if they are compromised (such as when a trusted device is misplaced). If the calling account had been granted `role`, emits a {RoleRevoked} event. Requirements: - the caller must be `account`."
      },
      "revokeRole(bytes32,address)": {
        "details": "Revokes `role` from `account`. If `account` had been granted `role`, emits a {RoleRevoked} event. Requirements: - the caller must have ``role``'s admin role."
      }
    },
    "version": 1
  },
  "userdoc": {
    "kind": "user",
    "methods": {},
    "version": 1
  }
}