{
  "contractName": "OfferMarketV1",
  "abi": [
    {
      "inputs": [
        {
          "internalType": "contract MarketWalletV1",
          "name": "wallet",
          "type": "address"
        }
      ],
      "stateMutability": "nonpayable",
      "type": "constructor"
    },
    {
      "anonymous": false,
      "inputs": [
        {
          "indexed": true,
          "internalType": "address",
          "name": "seller",
          "type": "address"
        },
        {
          "indexed": true,
          "internalType": "address",
          "name": "buyer",
          "type": "address"
        },
        {
          "indexed": false,
          "internalType": "address",
          "name": "token",
          "type": "address"
        },
        {
          "indexed": false,
          "internalType": "address",
          "name": "tokenId",
          "type": "address"
        },
        {
          "indexed": false,
          "internalType": "uint256",
          "name": "quantity",
          "type": "uint256"
        },
        {
          "indexed": false,
          "internalType": "address",
          "name": "currency",
          "type": "address"
        },
        {
          "indexed": false,
          "internalType": "uint256",
          "name": "price",
          "type": "uint256"
        }
      ],
      "name": "AcceptOffer",
      "type": "event"
    },
    {
      "anonymous": false,
      "inputs": [
        {
          "indexed": false,
          "internalType": "uint256",
          "name": "listingId",
          "type": "uint256"
        },
        {
          "indexed": false,
          "internalType": "address",
          "name": "operator",
          "type": "address"
        },
        {
          "indexed": false,
          "internalType": "address",
          "name": "tokenContract",
          "type": "address"
        },
        {
          "indexed": false,
          "internalType": "uint256",
          "name": "tokenId",
          "type": "uint256"
        },
        {
          "indexed": false,
          "internalType": "uint256",
          "name": "returned",
          "type": "uint256"
        }
      ],
      "name": "CancelListing",
      "type": "event"
    },
    {
      "anonymous": false,
      "inputs": [
        {
          "indexed": true,
          "internalType": "address",
          "name": "sender",
          "type": "address"
        },
        {
          "indexed": false,
          "internalType": "address",
          "name": "token",
          "type": "address"
        },
        {
          "indexed": false,
          "internalType": "address",
          "name": "tokenId",
          "type": "address"
        },
        {
          "indexed": false,
          "internalType": "uint256",
          "name": "quantity",
          "type": "uint256"
        },
        {
          "indexed": false,
          "internalType": "address",
          "name": "currency",
          "type": "address"
        },
        {
          "indexed": false,
          "internalType": "uint256",
          "name": "price",
          "type": "uint256"
        }
      ],
      "name": "CancelOffer",
      "type": "event"
    },
    {
      "anonymous": false,
      "inputs": [
        {
          "indexed": false,
          "internalType": "uint256",
          "name": "listingId",
          "type": "uint256"
        },
        {
          "indexed": false,
          "internalType": "address",
          "name": "seller",
          "type": "address"
        },
        {
          "indexed": false,
          "internalType": "address",
          "name": "tokenContract",
          "type": "address"
        },
        {
          "indexed": false,
          "internalType": "uint256",
          "name": "tokenId",
          "type": "uint256"
        },
        {
          "indexed": false,
          "internalType": "uint256",
          "name": "quantity",
          "type": "uint256"
        },
        {
          "indexed": false,
          "internalType": "address",
          "name": "currency",
          "type": "address"
        },
        {
          "indexed": false,
          "internalType": "uint256",
          "name": "price",
          "type": "uint256"
        },
        {
          "indexed": false,
          "internalType": "uint256",
          "name": "maxPurchasable",
          "type": "uint256"
        }
      ],
      "name": "ListForSale",
      "type": "event"
    },
    {
      "anonymous": false,
      "inputs": [
        {
          "indexed": true,
          "internalType": "bytes32",
          "name": "role",
          "type": "bytes32"
        },
        {
          "indexed": true,
          "internalType": "bytes32",
          "name": "previousAdminRole",
          "type": "bytes32"
        },
        {
          "indexed": true,
          "internalType": "bytes32",
          "name": "newAdminRole",
          "type": "bytes32"
        }
      ],
      "name": "RoleAdminChanged",
      "type": "event"
    },
    {
      "anonymous": false,
      "inputs": [
        {
          "indexed": true,
          "internalType": "bytes32",
          "name": "role",
          "type": "bytes32"
        },
        {
          "indexed": true,
          "internalType": "address",
          "name": "account",
          "type": "address"
        },
        {
          "indexed": true,
          "internalType": "address",
          "name": "sender",
          "type": "address"
        }
      ],
      "name": "RoleGranted",
      "type": "event"
    },
    {
      "anonymous": false,
      "inputs": [
        {
          "indexed": true,
          "internalType": "bytes32",
          "name": "role",
          "type": "bytes32"
        },
        {
          "indexed": true,
          "internalType": "address",
          "name": "account",
          "type": "address"
        },
        {
          "indexed": true,
          "internalType": "address",
          "name": "sender",
          "type": "address"
        }
      ],
      "name": "RoleRevoked",
      "type": "event"
    },
    {
      "anonymous": false,
      "inputs": [
        {
          "indexed": false,
          "internalType": "address",
          "name": "token",
          "type": "address"
        },
        {
          "indexed": false,
          "internalType": "uint256",
          "name": "tokenId",
          "type": "uint256"
        },
        {
          "indexed": false,
          "internalType": "address",
          "name": "beneficiary",
          "type": "address"
        },
        {
          "indexed": false,
          "internalType": "address",
          "name": "currency",
          "type": "address"
        },
        {
          "indexed": false,
          "internalType": "uint256",
          "name": "amount",
          "type": "uint256"
        }
      ],
      "name": "RoyaltyPayment",
      "type": "event"
    },
    {
      "anonymous": false,
      "inputs": [
        {
          "indexed": false,
          "internalType": "uint256",
          "name": "listingId",
          "type": "uint256"
        },
        {
          "indexed": false,
          "internalType": "address",
          "name": "buyer",
          "type": "address"
        },
        {
          "indexed": false,
          "internalType": "address",
          "name": "seller",
          "type": "address"
        },
        {
          "indexed": false,
          "internalType": "uint256",
          "name": "quantity",
          "type": "uint256"
        },
        {
          "indexed": false,
          "internalType": "address",
          "name": "currency",
          "type": "address"
        },
        {
          "indexed": false,
          "internalType": "uint256",
          "name": "price",
          "type": "uint256"
        }
      ],
      "name": "Trade",
      "type": "event"
    },
    {
      "inputs": [],
      "name": "ADMIN_ROLE",
      "outputs": [
        {
          "internalType": "bytes32",
          "name": "",
          "type": "bytes32"
        }
      ],
      "stateMutability": "view",
      "type": "function",
      "constant": true
    },
    {
      "inputs": [],
      "name": "DEFAULT_ADMIN_ROLE",
      "outputs": [
        {
          "internalType": "bytes32",
          "name": "",
          "type": "bytes32"
        }
      ],
      "stateMutability": "view",
      "type": "function",
      "constant": true
    },
    {
      "inputs": [
        {
          "internalType": "uint256",
          "name": "",
          "type": "uint256"
        },
        {
          "internalType": "address",
          "name": "",
          "type": "address"
        }
      ],
      "name": "_listingPurchasesForBuyer",
      "outputs": [
        {
          "internalType": "uint256",
          "name": "",
          "type": "uint256"
        }
      ],
      "stateMutability": "view",
      "type": "function",
      "constant": true
    },
    {
      "inputs": [
        {
          "internalType": "uint256",
          "name": "listingId",
          "type": "uint256"
        },
        {
          "internalType": "uint256",
          "name": "quantity",
          "type": "uint256"
        }
      ],
      "name": "buy",
      "outputs": [],
      "stateMutability": "nonpayable",
      "type": "function"
    },
    {
      "inputs": [],
      "name": "buyerFeePct",
      "outputs": [
        {
          "internalType": "uint256",
          "name": "",
          "type": "uint256"
        }
      ],
      "stateMutability": "view",
      "type": "function",
      "constant": true
    },
    {
      "inputs": [
        {
          "internalType": "uint256",
          "name": "listingId",
          "type": "uint256"
        }
      ],
      "name": "cancel",
      "outputs": [],
      "stateMutability": "nonpayable",
      "type": "function"
    },
    {
      "inputs": [
        {
          "internalType": "uint256",
          "name": "listingId",
          "type": "uint256"
        }
      ],
      "name": "get",
      "outputs": [
        {
          "components": [
            {
              "internalType": "uint256",
              "name": "id",
              "type": "uint256"
            },
            {
              "internalType": "address",
              "name": "seller",
              "type": "address"
            },
            {
              "internalType": "address",
              "name": "token",
              "type": "address"
            },
            {
              "internalType": "uint256",
              "name": "tokenId",
              "type": "uint256"
            },
            {
              "internalType": "uint256",
              "name": "quantity",
              "type": "uint256"
            },
            {
              "internalType": "uint256",
              "name": "available",
              "type": "uint256"
            },
            {
              "internalType": "address",
              "name": "currency",
              "type": "address"
            },
            {
              "internalType": "uint256",
              "name": "price",
              "type": "uint256"
            },
            {
              "internalType": "uint256",
              "name": "maxPurchasable",
              "type": "uint256"
            },
            {
              "internalType": "enum ListingStatus",
              "name": "status",
              "type": "uint8"
            }
          ],
          "internalType": "struct Listing",
          "name": "",
          "type": "tuple"
        }
      ],
      "stateMutability": "view",
      "type": "function",
      "constant": true
    },
    {
      "inputs": [
        {
          "internalType": "address",
          "name": "currency",
          "type": "address"
        },
        {
          "internalType": "address",
          "name": "account",
          "type": "address"
        }
      ],
      "name": "getBalance",
      "outputs": [
        {
          "internalType": "uint256",
          "name": "",
          "type": "uint256"
        }
      ],
      "stateMutability": "view",
      "type": "function",
      "constant": true
    },
    {
      "inputs": [
        {
          "internalType": "bytes32",
          "name": "role",
          "type": "bytes32"
        }
      ],
      "name": "getRoleAdmin",
      "outputs": [
        {
          "internalType": "bytes32",
          "name": "",
          "type": "bytes32"
        }
      ],
      "stateMutability": "view",
      "type": "function",
      "constant": true
    },
    {
      "inputs": [
        {
          "internalType": "address",
          "name": "seller",
          "type": "address"
        },
        {
          "internalType": "address",
          "name": "token",
          "type": "address"
        },
        {
          "internalType": "uint256",
          "name": "tokenId",
          "type": "uint256"
        },
        {
          "internalType": "uint256",
          "name": "quantity",
          "type": "uint256"
        },
        {
          "internalType": "address",
          "name": "currency",
          "type": "address"
        },
        {
          "internalType": "uint256",
          "name": "price",
          "type": "uint256"
        },
        {
          "internalType": "uint256",
          "name": "expiry",
          "type": "uint256"
        },
        {
          "internalType": "uint256",
          "name": "salt",
          "type": "uint256"
        }
      ],
      "name": "getSaleAuthorizationHash",
      "outputs": [
        {
          "internalType": "bytes32",
          "name": "",
          "type": "bytes32"
        }
      ],
      "stateMutability": "view",
      "type": "function",
      "constant": true
    },
    {
      "inputs": [
        {
          "internalType": "bytes32",
          "name": "role",
          "type": "bytes32"
        },
        {
          "internalType": "address",
          "name": "account",
          "type": "address"
        }
      ],
      "name": "grantRole",
      "outputs": [],
      "stateMutability": "nonpayable",
      "type": "function"
    },
    {
      "inputs": [
        {
          "internalType": "bytes32",
          "name": "role",
          "type": "bytes32"
        },
        {
          "internalType": "address",
          "name": "account",
          "type": "address"
        }
      ],
      "name": "hasRole",
      "outputs": [
        {
          "internalType": "bool",
          "name": "",
          "type": "bool"
        }
      ],
      "stateMutability": "view",
      "type": "function",
      "constant": true
    },
    {
      "inputs": [],
      "name": "hundredPct",
      "outputs": [
        {
          "internalType": "uint256",
          "name": "",
          "type": "uint256"
        }
      ],
      "stateMutability": "view",
      "type": "function",
      "constant": true
    },
    {
      "inputs": [
        {
          "internalType": "address",
          "name": "currency",
          "type": "address"
        }
      ],
      "name": "isCurrencyApproved",
      "outputs": [
        {
          "internalType": "bool",
          "name": "",
          "type": "bool"
        }
      ],
      "stateMutability": "view",
      "type": "function",
      "constant": true
    },
    {
      "inputs": [
        {
          "internalType": "address",
          "name": "token",
          "type": "address"
        }
      ],
      "name": "isTokenApproved",
      "outputs": [
        {
          "internalType": "bool",
          "name": "",
          "type": "bool"
        }
      ],
      "stateMutability": "view",
      "type": "function",
      "constant": true
    },
    {
      "inputs": [
        {
          "internalType": "address",
          "name": "seller",
          "type": "address"
        },
        {
          "internalType": "address",
          "name": "token",
          "type": "address"
        },
        {
          "internalType": "uint256",
          "name": "tokenId",
          "type": "uint256"
        },
        {
          "internalType": "uint256",
          "name": "quantity",
          "type": "uint256"
        },
        {
          "internalType": "address",
          "name": "currency",
          "type": "address"
        },
        {
          "internalType": "uint256",
          "name": "price",
          "type": "uint256"
        },
        {
          "internalType": "uint256",
          "name": "maxPurchasable",
          "type": "uint256"
        },
        {
          "internalType": "uint256",
          "name": "expiry",
          "type": "uint256"
        },
        {
          "internalType": "uint256",
          "name": "salt",
          "type": "uint256"
        },
        {
          "internalType": "bytes",
          "name": "signature",
          "type": "bytes"
        }
      ],
      "name": "listForSale",
      "outputs": [],
      "stateMutability": "nonpayable",
      "type": "function"
    },
    {
      "inputs": [
        {
          "internalType": "uint256",
          "name": "listingId",
          "type": "uint256"
        },
        {
          "internalType": "address",
          "name": "buyer",
          "type": "address"
        }
      ],
      "name": "listingPurchasesForBuyer",
      "outputs": [
        {
          "internalType": "uint256",
          "name": "",
          "type": "uint256"
        }
      ],
      "stateMutability": "view",
      "type": "function",
      "constant": true
    },
    {
      "inputs": [],
      "name": "maxListingQuantity",
      "outputs": [
        {
          "internalType": "uint256",
          "name": "",
          "type": "uint256"
        }
      ],
      "stateMutability": "view",
      "type": "function",
      "constant": true
    },
    {
      "inputs": [],
      "name": "maxTokenPrice",
      "outputs": [
        {
          "internalType": "uint256",
          "name": "",
          "type": "uint256"
        }
      ],
      "stateMutability": "view",
      "type": "function",
      "constant": true
    },
    {
      "inputs": [],
      "name": "minTokenPrice",
      "outputs": [
        {
          "internalType": "uint256",
          "name": "",
          "type": "uint256"
        }
      ],
      "stateMutability": "view",
      "type": "function",
      "constant": true
    },
    {
      "inputs": [
        {
          "internalType": "bytes32",
          "name": "role",
          "type": "bytes32"
        },
        {
          "internalType": "address",
          "name": "account",
          "type": "address"
        }
      ],
      "name": "renounceRole",
      "outputs": [],
      "stateMutability": "nonpayable",
      "type": "function"
    },
    {
      "inputs": [
        {
          "internalType": "bytes32",
          "name": "role",
          "type": "bytes32"
        },
        {
          "internalType": "address",
          "name": "account",
          "type": "address"
        }
      ],
      "name": "revokeRole",
      "outputs": [],
      "stateMutability": "nonpayable",
      "type": "function"
    },
    {
      "inputs": [],
      "name": "sellerFeePct",
      "outputs": [
        {
          "internalType": "uint256",
          "name": "",
          "type": "uint256"
        }
      ],
      "stateMutability": "view",
      "type": "function",
      "constant": true
    },
    {
      "inputs": [
        {
          "internalType": "uint256",
          "name": "pct",
          "type": "uint256"
        }
      ],
      "name": "setBuyerFeePct",
      "outputs": [],
      "stateMutability": "nonpayable",
      "type": "function"
    },
    {
      "inputs": [
        {
          "internalType": "address[]",
          "name": "currencies",
          "type": "address[]"
        },
        {
          "internalType": "bool",
          "name": "isApproved",
          "type": "bool"
        }
      ],
      "name": "setCurrenciesApproval",
      "outputs": [],
      "stateMutability": "nonpayable",
      "type": "function"
    },
    {
      "inputs": [
        {
          "internalType": "address",
          "name": "beneficiary",
          "type": "address"
        }
      ],
      "name": "setFeeBeneficiary",
      "outputs": [],
      "stateMutability": "nonpayable",
      "type": "function"
    },
    {
      "inputs": [
        {
          "internalType": "uint256",
          "name": "quantity",
          "type": "uint256"
        }
      ],
      "name": "setMaxListingQuantity",
      "outputs": [],
      "stateMutability": "nonpayable",
      "type": "function"
    },
    {
      "inputs": [
        {
          "internalType": "uint256",
          "name": "price",
          "type": "uint256"
        }
      ],
      "name": "setMaxTokenPriceEther",
      "outputs": [],
      "stateMutability": "nonpayable",
      "type": "function"
    },
    {
      "inputs": [
        {
          "internalType": "uint256",
          "name": "price",
          "type": "uint256"
        }
      ],
      "name": "setMaxTokenPriceWei",
      "outputs": [],
      "stateMutability": "nonpayable",
      "type": "function"
    },
    {
      "inputs": [
        {
          "internalType": "uint256",
          "name": "pct",
          "type": "uint256"
        }
      ],
      "name": "setSellerFeePct",
      "outputs": [],
      "stateMutability": "nonpayable",
      "type": "function"
    },
    {
      "inputs": [
        {
          "internalType": "address[]",
          "name": "tokens",
          "type": "address[]"
        },
        {
          "internalType": "bool",
          "name": "isApproved",
          "type": "bool"
        }
      ],
      "name": "setTokensApproval",
      "outputs": [],
      "stateMutability": "nonpayable",
      "type": "function"
    },
    {
      "inputs": [
        {
          "internalType": "bytes4",
          "name": "interfaceID",
          "type": "bytes4"
        }
      ],
      "name": "supportsInterface",
      "outputs": [
        {
          "internalType": "bool",
          "name": "",
          "type": "bool"
        }
      ],
      "stateMutability": "view",
      "type": "function",
      "constant": true
    },
    {
      "inputs": [
        {
          "internalType": "address",
          "name": "currency",
          "type": "address"
        },
        {
          "internalType": "uint256",
          "name": "amount",
          "type": "uint256"
        }
      ],
      "name": "withdraw",
      "outputs": [],
      "stateMutability": "nonpayable",
      "type": "function"
    },
    {
      "inputs": [
        {
          "components": [
            {
              "internalType": "address",
              "name": "buyer",
              "type": "address"
            },
            {
              "internalType": "address",
              "name": "seller",
              "type": "address"
            },
            {
              "internalType": "address",
              "name": "token",
              "type": "address"
            },
            {
              "internalType": "uint256",
              "name": "tokenId",
              "type": "uint256"
            },
            {
              "internalType": "uint256",
              "name": "quantity",
              "type": "uint256"
            },
            {
              "internalType": "address",
              "name": "currency",
              "type": "address"
            },
            {
              "internalType": "uint256",
              "name": "price",
              "type": "uint256"
            },
            {
              "internalType": "uint256",
              "name": "expiry",
              "type": "uint256"
            }
          ],
          "internalType": "struct Offer",
          "name": "offer",
          "type": "tuple"
        },
        {
          "internalType": "uint256",
          "name": "salt",
          "type": "uint256"
        },
        {
          "internalType": "bytes",
          "name": "signature",
          "type": "bytes"
        }
      ],
      "name": "acceptOffer",
      "outputs": [],
      "stateMutability": "nonpayable",
      "type": "function"
    },
    {
      "inputs": [
        {
          "components": [
            {
              "internalType": "address",
              "name": "buyer",
              "type": "address"
            },
            {
              "internalType": "address",
              "name": "seller",
              "type": "address"
            },
            {
              "internalType": "address",
              "name": "token",
              "type": "address"
            },
            {
              "internalType": "uint256",
              "name": "tokenId",
              "type": "uint256"
            },
            {
              "internalType": "uint256",
              "name": "quantity",
              "type": "uint256"
            },
            {
              "internalType": "address",
              "name": "currency",
              "type": "address"
            },
            {
              "internalType": "uint256",
              "name": "price",
              "type": "uint256"
            },
            {
              "internalType": "uint256",
              "name": "expiry",
              "type": "uint256"
            }
          ],
          "internalType": "struct Offer",
          "name": "offer",
          "type": "tuple"
        },
        {
          "internalType": "uint256",
          "name": "salt",
          "type": "uint256"
        }
      ],
      "name": "getOfferHash",
      "outputs": [
        {
          "internalType": "bytes32",
          "name": "",
          "type": "bytes32"
        }
      ],
      "stateMutability": "view",
      "type": "function",
      "constant": true
    },
    {
      "inputs": [
        {
          "components": [
            {
              "internalType": "address",
              "name": "buyer",
              "type": "address"
            },
            {
              "internalType": "address",
              "name": "seller",
              "type": "address"
            },
            {
              "internalType": "address",
              "name": "token",
              "type": "address"
            },
            {
              "internalType": "uint256",
              "name": "tokenId",
              "type": "uint256"
            },
            {
              "internalType": "uint256",
              "name": "quantity",
              "type": "uint256"
            },
            {
              "internalType": "address",
              "name": "currency",
              "type": "address"
            },
            {
              "internalType": "uint256",
              "name": "price",
              "type": "uint256"
            },
            {
              "internalType": "uint256",
              "name": "expiry",
              "type": "uint256"
            }
          ],
          "internalType": "struct Offer",
          "name": "offer",
          "type": "tuple"
        },
        {
          "internalType": "uint256",
          "name": "nonce",
          "type": "uint256"
        },
        {
          "internalType": "bytes",
          "name": "signature",
          "type": "bytes"
        }
      ],
      "name": "cancelOffer",
      "outputs": [],
      "stateMutability": "nonpayable",
      "type": "function"
    }
  ],
  "bytecode": "0x6080604052611388600155611388600255620186a0600355620f424060045560035460055569d3c21bcecceda100000060065560006009553480156200004457600080fd5b506040516200640d3803806200640d83398181016040528101906200006a9190620003ea565b80620000806000801b336200017160201b60201c565b620000b27fa49807205ce4d355092ef5a8a18f56e8913cf4a201fbe287825b095693c21775336200017160201b60201c565b620000e77fa49807205ce4d355092ef5a8a18f56e8913cf4a201fbe287825b095693c217756000801b6200018760201b60201c565b33600860006101000a81548173ffffffffffffffffffffffffffffffffffffffff021916908373ffffffffffffffffffffffffffffffffffffffff16021790555080600760006101000a81548173ffffffffffffffffffffffffffffffffffffffff021916908373ffffffffffffffffffffffffffffffffffffffff16021790555050506200041c565b620001838282620001ea60201b60201c565b5050565b60006200019a83620002db60201b60201c565b905081600080858152602001908152602001600020600101819055508181847fbd79b86ffe0ab8e8776151514217cd7cacd52c909f66475c3af44e129f0b00ff60405160405180910390a4505050565b620001fc8282620002fa60201b60201c565b620002d757600160008084815260200190815260200160002060000160008373ffffffffffffffffffffffffffffffffffffffff1673ffffffffffffffffffffffffffffffffffffffff16815260200190815260200160002060006101000a81548160ff0219169083151502179055506200027c6200036460201b60201c565b73ffffffffffffffffffffffffffffffffffffffff168173ffffffffffffffffffffffffffffffffffffffff16837f2f8788117e7eff1d82e926ec794901d17c78024a50270940304540a733656f0d60405160405180910390a45b5050565b6000806000838152602001908152602001600020600101549050919050565b600080600084815260200190815260200160002060000160008373ffffffffffffffffffffffffffffffffffffffff1673ffffffffffffffffffffffffffffffffffffffff16815260200190815260200160002060009054906101000a900460ff16905092915050565b600033905090565b600080fd5b600073ffffffffffffffffffffffffffffffffffffffff82169050919050565b60006200039e8262000371565b9050919050565b6000620003b28262000391565b9050919050565b620003c481620003a5565b8114620003d057600080fd5b50565b600081519050620003e481620003b9565b92915050565b6000602082840312156200040357620004026200036c565b5b60006200041384828501620003d3565b91505092915050565b615fe1806200042c6000396000f3fe608060405234801561001057600080fd5b506004361061021c5760003560e01c806391d1485411610125578063d1177945116100ad578063d547741f1161007c578063d547741f14610671578063d6febde81461068d578063e45ad64a146106a9578063f3fef3a3146106c5578063fd1fc13e146106e15761021c565b8063d1177945146105e9578063d3d74af714610605578063d428dc2b14610623578063d4fac45d146106415761021c565b80639f609f44116100f45780639f609f4414610533578063a217fddf14610563578063bca9981914610581578063be29928e1461059d578063c661b89d146105cd5761021c565b806391d148541461048757806391f819ac146104b75780639507d39a146104d35780639d93d352146105035761021c565b80635dabb20e116101a857806377e5c4a81161017757806377e5c4a8146103cf5780638662732e146103ed5780638ab2394b1461041d5780638cac73ff1461044d5780638ce5ab6a146104695761021c565b80635dabb20e1461035b5780637167675a1461037957806371f895981461039557806375b238fc146103b15761021c565b80632f2ff15d116101ef5780632f2ff15d146102cf578063325c5d56146102eb57806336568abe1461030757806340e58ee5146103235780635a0a3d821461033f5761021c565b806301ffc9a7146102215780630d7b1acc14610251578063248a9ca3146102815780632b483c03146102b1575b600080fd5b61023b60048036038101906102369190613c35565b6106fd565b6040516102489190613c7d565b60405180910390f35b61026b60048036038101906102669190613cf6565b61070f565b6040516102789190613c7d565b60405180910390f35b61029b60048036038101906102969190613d59565b610765565b6040516102a89190613d95565b60405180910390f35b6102b9610784565b6040516102c69190613dc9565b60405180910390f35b6102e960048036038101906102e49190613de4565b61078a565b005b61030560048036038101906103009190613eda565b6107b3565b005b610321600480360381019061031c9190613de4565b610975565b005b61033d60048036038101906103389190613f51565b6109f8565b005b61035960048036038101906103549190613cf6565b610dd4565b005b610363610e2e565b6040516103709190613dc9565b60405180910390f35b610393600480360381019061038e9190614000565b610e34565b005b6103af60048036038101906103aa9190613f51565b610f0c565b005b6103b9610f49565b6040516103c69190613d95565b60405180910390f35b6103d7610f6d565b6040516103e49190613dc9565b60405180910390f35b61040760048036038101906104029190614060565b610f73565b6040516104149190613d95565b60405180910390f35b61043760048036038101906104329190614116565b610fba565b6040516104449190613dc9565b60405180910390f35b61046760048036038101906104629190613eda565b610fdf565b005b6104716115f7565b60405161047e9190613dc9565b60405180910390f35b6104a1600480360381019061049c9190613de4565b6115fd565b6040516104ae9190613c7d565b60405180910390f35b6104d160048036038101906104cc9190614156565b611667565b005b6104ed60048036038101906104e89190613f51565b611e07565b6040516104fa91906143b7565b60405180910390f35b61051d60048036038101906105189190613cf6565b611fae565b60405161052a9190613c7d565b60405180910390f35b61054d60048036038101906105489190614116565b612004565b60405161055a9190613dc9565b60405180910390f35b61056b61205f565b6040516105789190613d95565b60405180910390f35b61059b60048036038101906105969190613f51565b612066565b005b6105b760048036038101906105b291906143d3565b6120b6565b6040516105c49190613d95565b60405180910390f35b6105e760048036038101906105e29190613f51565b612151565b005b61060360048036038101906105fe9190614000565b6121d3565b005b61060d6122ab565b60405161061a9190613dc9565b60405180910390f35b61062b6122b1565b6040516106389190613dc9565b60405180910390f35b61065b60048036038101906106569190614415565b6122b7565b6040516106689190613dc9565b60405180910390f35b61068b60048036038101906106869190613de4565b61233e565b005b6106a760048036038101906106a29190614455565b612367565b005b6106c360048036038101906106be9190613f51565b6129fb565b005b6106df60048036038101906106da9190614495565b612a7d565b005b6106fb60048036038101906106f69190613f51565b612c52565b005b600061070882612c8f565b9050919050565b6000600d60008373ffffffffffffffffffffffffffffffffffffffff1673ffffffffffffffffffffffffffffffffffffffff16815260200190815260200160002060009054906101000a900460ff169050919050565b6000806000838152602001908152602001600020600101549050919050565b60025481565b61079382610765565b6107a48161079f612d09565b612d11565b6107ae8383612dae565b505050565b60006107bf85856120b6565b90506011600082815260200190815260200160002060009054906101000a900460ff1615610822576040517f08c379a000000000000000000000000000000000000000000000000000000000815260040161081990614558565b60405180910390fd5b6010600082815260200190815260200160002060009054906101000a900460ff1615610883576040517f08c379a000000000000000000000000000000000000000000000000000000000815260040161087a906145ea565b60405180910390fd5b6108da83838080601f016020809104026020016040519081016040528093929190818152602001838380828437600081840152601f19601f8201169050808301925050505050505082612e8e90919063ffffffff16565b73ffffffffffffffffffffffffffffffffffffffff163373ffffffffffffffffffffffffffffffffffffffff16148061093957506109387fa49807205ce4d355092ef5a8a18f56e8913cf4a201fbe287825b095693c21775336115fd565b5b61094257600080fd5b60016010600083815260200190815260200160002060006101000a81548160ff0219169083151502179055505050505050565b61097d612d09565b73ffffffffffffffffffffffffffffffffffffffff168173ffffffffffffffffffffffffffffffffffffffff16146109ea576040517f08c379a00000000000000000000000000000000000000000000000000000000081526004016109e19061467c565b60405180910390fd5b6109f48282612eb5565b5050565b6000600a600083815260200190815260200160002060405180610140016040529081600082015481526020016001820160009054906101000a900473ffffffffffffffffffffffffffffffffffffffff1673ffffffffffffffffffffffffffffffffffffffff1673ffffffffffffffffffffffffffffffffffffffff1681526020016002820160009054906101000a900473ffffffffffffffffffffffffffffffffffffffff1673ffffffffffffffffffffffffffffffffffffffff1673ffffffffffffffffffffffffffffffffffffffff1681526020016003820154815260200160048201548152602001600582015481526020016006820160009054906101000a900473ffffffffffffffffffffffffffffffffffffffff1673ffffffffffffffffffffffffffffffffffffffff1673ffffffffffffffffffffffffffffffffffffffff16815260200160078201548152602001600882015481526020016009820160009054906101000a900460ff166002811115610b7c57610b7b614274565b5b6002811115610b8e57610b8d614274565b5b81525050905060006002811115610ba857610ba7614274565b5b8161012001516002811115610bc057610bbf614274565b5b14610c00576040517f08c379a0000000000000000000000000000000000000000000000000000000008152600401610bf79061470e565b60405180910390fd5b806020015173ffffffffffffffffffffffffffffffffffffffff163373ffffffffffffffffffffffffffffffffffffffff161480610c645750610c637fa49807205ce4d355092ef5a8a18f56e8913cf4a201fbe287825b095693c21775336115fd565b5b610ca3576040517f08c379a0000000000000000000000000000000000000000000000000000000008152600401610c9a906147a0565b60405180910390fd5b6002600a600084815260200190815260200160002060090160006101000a81548160ff02191690836002811115610cdd57610cdc614274565b5b0217905550600760009054906101000a900473ffffffffffffffffffffffffffffffffffffffff1673ffffffffffffffffffffffffffffffffffffffff16632ed7bae88260400151836020015184606001518560a001516040518563ffffffff1660e01b8152600401610d5394939291906147cf565b600060405180830381600087803b158015610d6d57600080fd5b505af1158015610d81573d6000803e3d6000fd5b505050507f63e19a11045d43fb73999819f643b1db1182b457b8dff3c511f232d71abbe6398233836040015184606001518560a00151604051610dc8959493929190614814565b60405180910390a15050565b6000801b610de981610de4612d09565b612d11565b81600860006101000a81548173ffffffffffffffffffffffffffffffffffffffff021916908373ffffffffffffffffffffffffffffffffffffffff1602179055505050565b60055481565b7fa49807205ce4d355092ef5a8a18f56e8913cf4a201fbe287825b095693c21775610e6681610e61612d09565b612d11565b60005b84849050811015610f055782600c6000878785818110610e8c57610e8b614867565b5b9050602002016020810190610ea19190613cf6565b73ffffffffffffffffffffffffffffffffffffffff1673ffffffffffffffffffffffffffffffffffffffff16815260200190815260200160002060006101000a81548160ff0219169083151502179055508080610efd906148c5565b915050610e69565b5050505050565b7fa49807205ce4d355092ef5a8a18f56e8913cf4a201fbe287825b095693c21775610f3e81610f39612d09565b612d11565b816004819055505050565b7fa49807205ce4d355092ef5a8a18f56e8913cf4a201fbe287825b095693c2177581565b60065481565b6000308989898989898989604051602001610f9699989796959493929190614977565b60405160208183030381529060405280519060200120905098975050505050505050565b600b602052816000526040600020602052806000526040600020600091509150505481565b836020016020810190610ff29190613cf6565b73ffffffffffffffffffffffffffffffffffffffff163373ffffffffffffffffffffffffffffffffffffffff161461105f576040517f08c379a000000000000000000000000000000000000000000000000000000000815260040161105690614a66565b60405180910390fd5b600c60008560400160208101906110769190613cf6565b73ffffffffffffffffffffffffffffffffffffffff1673ffffffffffffffffffffffffffffffffffffffff16815260200190815260200160002060009054906101000a900460ff166110fd576040517f08c379a00000000000000000000000000000000000000000000000000000000081526004016110f490614ad2565b60405180910390fd5b600d60008560a00160208101906111149190613cf6565b73ffffffffffffffffffffffffffffffffffffffff1673ffffffffffffffffffffffffffffffffffffffff16815260200190815260200160002060009054906101000a900460ff1661119b576040517f08c379a000000000000000000000000000000000000000000000000000000000815260040161119290614b3e565b60405180910390fd5b428460e00135116111e1576040517f08c379a00000000000000000000000000000000000000000000000000000000081526004016111d890614baa565b60405180910390fd5b60006111ed85856120b6565b90506010600082815260200190815260200160002060009054906101000a900460ff1615801561123b57506011600082815260200190815260200160002060009054906101000a900460ff16155b61127a576040517f08c379a000000000000000000000000000000000000000000000000000000000815260040161127190614c3c565b60405180910390fd5b60006112db84848080601f016020809104026020016040519081016040528093929190818152602001838380828437600081840152601f19601f820116905080830192505050505050506112cd84612f96565b612e8e90919063ffffffff16565b90508560000160208101906112f09190613cf6565b73ffffffffffffffffffffffffffffffffffffffff168173ffffffffffffffffffffffffffffffffffffffff161461135d576040517f08c379a000000000000000000000000000000000000000000000000000000000815260040161135490614cce565b60405180910390fd5b6005548660c0013510156113a6576040517f08c379a000000000000000000000000000000000000000000000000000000000815260040161139d90614d3a565b60405180910390fd5b6000806113b68860c00135612fc6565b9150915060016011600086815260200190815260200160002060006101000a81548160ff021916908315150217905550600760009054906101000a900473ffffffffffffffffffffffffffffffffffffffff1673ffffffffffffffffffffffffffffffffffffffff166340fd58298960400160208101906114379190613cf6565b338b606001358c608001356040518563ffffffff1660e01b815260040161146194939291906147cf565b600060405180830381600087803b15801561147b57600080fd5b505af115801561148f573d6000803e3d6000fd5b505050508760a00160208101906114a69190613cf6565b73ffffffffffffffffffffffffffffffffffffffff166323b872dd8960000160208101906114d49190613cf6565b30848c60c001356114e59190614d5a565b6040518463ffffffff1660e01b815260040161150393929190614db0565b6020604051808303816000875af1158015611522573d6000803e3d6000fd5b505050506040513d601f19601f820116820180604052508101906115469190614dfc565b506115ed88602001602081019061155d9190613cf6565b8960000160208101906115709190613cf6565b8a60a00160208101906115839190613cf6565b8b60c0013560405180604001604052808781526020018881525060405180606001604052808f60400160208101906115bb9190613cf6565b73ffffffffffffffffffffffffffffffffffffffff1681526020018f6060013581526020018f60800135815250613008565b5050505050505050565b60015481565b600080600084815260200190815260200160002060000160008373ffffffffffffffffffffffffffffffffffffffff1673ffffffffffffffffffffffffffffffffffffffff16815260200190815260200160002060009054906101000a900460ff16905092915050565b6005548610156116ac576040517f08c379a00000000000000000000000000000000000000000000000000000000081526004016116a390614d3a565b60405180910390fd5b6006548611156116f1576040517f08c379a00000000000000000000000000000000000000000000000000000000081526004016116e890614e75565b60405180910390fd5b600454881115611736576040517f08c379a000000000000000000000000000000000000000000000000000000000815260040161172d90614ee1565b60405180910390fd5b600c60008b73ffffffffffffffffffffffffffffffffffffffff1673ffffffffffffffffffffffffffffffffffffffff16815260200190815260200160002060009054906101000a900460ff166117c2576040517f08c379a00000000000000000000000000000000000000000000000000000000081526004016117b990614ad2565b60405180910390fd5b600d60008873ffffffffffffffffffffffffffffffffffffffff1673ffffffffffffffffffffffffffffffffffffffff16815260200190815260200160002060009054906101000a900460ff1661184e576040517f08c379a000000000000000000000000000000000000000000000000000000000815260040161184590614b3e565b60405180910390fd5b6118787fa49807205ce4d355092ef5a8a18f56e8913cf4a201fbe287825b095693c21775336115fd565b611a67574284116118be576040517f08c379a00000000000000000000000000000000000000000000000000000000081526004016118b590614f4d565b60405180910390fd5b60006118d08c8c8c8c8c8c8b8b610f73565b9050600e600082815260200190815260200160002060009054906101000a900460ff1615611933576040517f08c379a000000000000000000000000000000000000000000000000000000000815260040161192a90614fb9565b60405180910390fd5b600061199484848080601f016020809104026020016040519081016040528093929190818152602001838380828437600081840152601f19601f8201169050808301925050505050505061198684612f96565b612e8e90919063ffffffff16565b9050600073ffffffffffffffffffffffffffffffffffffffff168173ffffffffffffffffffffffffffffffffffffffff16141580156119f957506119f87fa49807205ce4d355092ef5a8a18f56e8913cf4a201fbe287825b095693c21775826115fd565b5b611a38576040517f08c379a0000000000000000000000000000000000000000000000000000000008152600401611a2f90615025565b60405180910390fd5b6001600e600084815260200190815260200160002060006101000a81548160ff02191690831515021790555050505b8973ffffffffffffffffffffffffffffffffffffffff166301ffc9a77fd9b67a26000000000000000000000000000000000000000000000000000000006040518263ffffffff1660e01b8152600401611ac09190615054565b602060405180830381865afa158015611add573d6000803e3d6000fd5b505050506040513d601f19601f82011682018060405250810190611b019190614dfc565b611b0a57600197505b600760009054906101000a900473ffffffffffffffffffffffffffffffffffffffff1673ffffffffffffffffffffffffffffffffffffffff166340fd58298b8d8c8c6040518563ffffffff1660e01b8152600401611b6b94939291906147cf565b600060405180830381600087803b158015611b8557600080fd5b505af1158015611b99573d6000803e3d6000fd5b5050505060096000815480929190611bb0906148c5565b9190505550600060405180610140016040528060095481526020018d73ffffffffffffffffffffffffffffffffffffffff1681526020018c73ffffffffffffffffffffffffffffffffffffffff1681526020018b81526020018a81526020018a81526020018973ffffffffffffffffffffffffffffffffffffffff16815260200188815260200187815260200160006002811115611c5157611c50614274565b5b815250905080600a600060095481526020019081526020016000206000820151816000015560208201518160010160006101000a81548173ffffffffffffffffffffffffffffffffffffffff021916908373ffffffffffffffffffffffffffffffffffffffff16021790555060408201518160020160006101000a81548173ffffffffffffffffffffffffffffffffffffffff021916908373ffffffffffffffffffffffffffffffffffffffff160217905550606082015181600301556080820151816004015560a0820151816005015560c08201518160060160006101000a81548173ffffffffffffffffffffffffffffffffffffffff021916908373ffffffffffffffffffffffffffffffffffffffff16021790555060e0820151816007015561010082015181600801556101208201518160090160006101000a81548160ff02191690836002811115611daa57611da9614274565b5b02179055509050507ff990bc524ffa015122cb22a87b1094a1f44aed4b9f73630255fdab0f1c815e0a6009548d8d8d8d8d8d8d604051611df198979695949392919061506f565b60405180910390a1505050505050505050505050565b611e0f613b22565b600a600083815260200190815260200160002060405180610140016040529081600082015481526020016001820160009054906101000a900473ffffffffffffffffffffffffffffffffffffffff1673ffffffffffffffffffffffffffffffffffffffff1673ffffffffffffffffffffffffffffffffffffffff1681526020016002820160009054906101000a900473ffffffffffffffffffffffffffffffffffffffff1673ffffffffffffffffffffffffffffffffffffffff1673ffffffffffffffffffffffffffffffffffffffff1681526020016003820154815260200160048201548152602001600582015481526020016006820160009054906101000a900473ffffffffffffffffffffffffffffffffffffffff1673ffffffffffffffffffffffffffffffffffffffff1673ffffffffffffffffffffffffffffffffffffffff16815260200160078201548152602001600882015481526020016009820160009054906101000a900460ff166002811115611f9157611f90614274565b5b6002811115611fa357611fa2614274565b5b815250509050919050565b6000600c60008373ffffffffffffffffffffffffffffffffffffffff1673ffffffffffffffffffffffffffffffffffffffff16815260200190815260200160002060009054906101000a900460ff169050919050565b6000600b600084815260200190815260200160002060008373ffffffffffffffffffffffffffffffffffffffff1673ffffffffffffffffffffffffffffffffffffffff16815260200190815260200160002054905092915050565b6000801b81565b7fa49807205ce4d355092ef5a8a18f56e8913cf4a201fbe287825b095693c2177561209881612093612d09565b612d11565b670de0b6b3a7640000826120ac91906150ed565b6006819055505050565b6000308360000160208101906120cc9190613cf6565b8460200160208101906120df9190613cf6565b8560400160208101906120f29190613cf6565b866060013587608001358860a001602081019061210f9190613cf6565b8960c001358a60e001358a6040516020016121339a99989796959493929190615147565b60405160208183030381529060405280519060200120905092915050565b7fa49807205ce4d355092ef5a8a18f56e8913cf4a201fbe287825b095693c217756121838161217e612d09565b612d11565b6003548211156121c8576040517f08c379a00000000000000000000000000000000000000000000000000000000081526004016121bf9061526d565b60405180910390fd5b816002819055505050565b7fa49807205ce4d355092ef5a8a18f56e8913cf4a201fbe287825b095693c2177561220581612200612d09565b612d11565b60005b848490508110156122a45782600d600087878581811061222b5761222a614867565b5b90506020020160208101906122409190613cf6565b73ffffffffffffffffffffffffffffffffffffffff1673ffffffffffffffffffffffffffffffffffffffff16815260200190815260200160002060006101000a81548160ff021916908315150217905550808061229c906148c5565b915050612208565b5050505050565b60045481565b60035481565b6000600f60008373ffffffffffffffffffffffffffffffffffffffff1673ffffffffffffffffffffffffffffffffffffffff16815260200190815260200160002060008473ffffffffffffffffffffffffffffffffffffffff1673ffffffffffffffffffffffffffffffffffffffff16815260200190815260200160002054905092915050565b61234782610765565b61235881612353612d09565b612d11565b6123628383612eb5565b505050565b6000600a600084815260200190815260200160002060405180610140016040529081600082015481526020016001820160009054906101000a900473ffffffffffffffffffffffffffffffffffffffff1673ffffffffffffffffffffffffffffffffffffffff1673ffffffffffffffffffffffffffffffffffffffff1681526020016002820160009054906101000a900473ffffffffffffffffffffffffffffffffffffffff1673ffffffffffffffffffffffffffffffffffffffff1673ffffffffffffffffffffffffffffffffffffffff1681526020016003820154815260200160048201548152602001600582015481526020016006820160009054906101000a900473ffffffffffffffffffffffffffffffffffffffff1673ffffffffffffffffffffffffffffffffffffffff1673ffffffffffffffffffffffffffffffffffffffff16815260200160078201548152602001600882015481526020016009820160009054906101000a900460ff1660028111156124eb576124ea614274565b5b60028111156124fd576124fc614274565b5b815250509050600081610100015111156125b55780610100015182600b600086815260200190815260200160002060003373ffffffffffffffffffffffffffffffffffffffff1673ffffffffffffffffffffffffffffffffffffffff168152602001908152602001600020546125739190614d5a565b11156125b4576040517f08c379a00000000000000000000000000000000000000000000000000000000081526004016125ab906152ff565b60405180910390fd5b5b600060028111156125c9576125c8614274565b5b81610120015160028111156125e1576125e0614274565b5b14612621576040517f08c379a00000000000000000000000000000000000000000000000000000000081526004016126189061536b565b60405180910390fd5b8060a00151821115612668576040517f08c379a000000000000000000000000000000000000000000000000000000000815260040161265f906153d7565b60405180910390fd5b806020015173ffffffffffffffffffffffffffffffffffffffff163373ffffffffffffffffffffffffffffffffffffffff1614156126db576040517f08c379a00000000000000000000000000000000000000000000000000000000081526004016126d290615443565b60405180910390fd5b6000828260e001516126ed91906150ed565b905060008260c00151905060008061270484612fc6565b9150915060008373ffffffffffffffffffffffffffffffffffffffff1663dd62ed3e33306040518363ffffffff1660e01b8152600401612745929190615463565b602060405180830381865afa158015612762573d6000803e3d6000fd5b505050506040513d601f19601f8201168201806040525081019061278691906154a1565b905081856127949190614d5a565b8110156127d6576040517f08c379a00000000000000000000000000000000000000000000000000000000081526004016127cd9061551a565b60405180910390fd5b8373ffffffffffffffffffffffffffffffffffffffff166323b872dd333085896128009190614d5a565b6040518463ffffffff1660e01b815260040161281e93929190614db0565b6020604051808303816000875af115801561283d573d6000803e3d6000fd5b505050506040513d601f19601f820116820180604052508101906128619190614dfc565b506128c48660200151338860c001518860405180604001604052808881526020018981525060405180606001604052808d6040015173ffffffffffffffffffffffffffffffffffffffff1681526020018d6060015181526020018e815250613008565b86600b60008a815260200190815260200160002060003373ffffffffffffffffffffffffffffffffffffffff1673ffffffffffffffffffffffffffffffffffffffff16815260200190815260200160002060008282546129249190614d5a565b925050819055506000878760a0015161293d919061553a565b905080600a60008b81526020019081526020016000206005018190555060008114156129a3576001600a60008b815260200190815260200160002060090160006101000a81548160ff0219169083600281111561299d5761299c614274565b5b02179055505b7fec6fba8bd56190929e7252cf572c1ebd0f9e8211aaf75cfcf3736b7726f376ff893389602001518b8b60c001518c60e001516040516129e89695949392919061556e565b60405180910390a1505050505050505050565b7fa49807205ce4d355092ef5a8a18f56e8913cf4a201fbe287825b095693c21775612a2d81612a28612d09565b612d11565b600354821115612a72576040517f08c379a0000000000000000000000000000000000000000000000000000000008152600401612a699061526d565b60405180910390fd5b816001819055505050565b80600f60003373ffffffffffffffffffffffffffffffffffffffff1673ffffffffffffffffffffffffffffffffffffffff16815260200190815260200160002060008473ffffffffffffffffffffffffffffffffffffffff1673ffffffffffffffffffffffffffffffffffffffff168152602001908152602001600020541015612b3c576040517f08c379a0000000000000000000000000000000000000000000000000000000008152600401612b3390615641565b60405180910390fd5b80600f60003373ffffffffffffffffffffffffffffffffffffffff1673ffffffffffffffffffffffffffffffffffffffff16815260200190815260200160002060008473ffffffffffffffffffffffffffffffffffffffff1673ffffffffffffffffffffffffffffffffffffffff1681526020019081526020016000206000828254612bc8919061553a565b925050819055508173ffffffffffffffffffffffffffffffffffffffff1663a9059cbb33836040518363ffffffff1660e01b8152600401612c0a929190615661565b6020604051808303816000875af1158015612c29573d6000803e3d6000fd5b505050506040513d601f19601f82011682018060405250810190612c4d9190614dfc565b505050565b7fa49807205ce4d355092ef5a8a18f56e8913cf4a201fbe287825b095693c21775612c8481612c7f612d09565b612d11565b816006819055505050565b60007f7965db0b000000000000000000000000000000000000000000000000000000007bffffffffffffffffffffffffffffffffffffffffffffffffffffffff1916827bffffffffffffffffffffffffffffffffffffffffffffffffffffffff19161480612d025750612d01826130de565b5b9050919050565b600033905090565b612d1b82826115fd565b612daa57612d408173ffffffffffffffffffffffffffffffffffffffff166014613148565b612d4e8360001c6020613148565b604051602001612d5f92919061579c565b6040516020818303038152906040526040517f08c379a0000000000000000000000000000000000000000000000000000000008152600401612da19190615820565b60405180910390fd5b5050565b612db882826115fd565b612e8a57600160008084815260200190815260200160002060000160008373ffffffffffffffffffffffffffffffffffffffff1673ffffffffffffffffffffffffffffffffffffffff16815260200190815260200160002060006101000a81548160ff021916908315150217905550612e2f612d09565b73ffffffffffffffffffffffffffffffffffffffff168173ffffffffffffffffffffffffffffffffffffffff16837f2f8788117e7eff1d82e926ec794901d17c78024a50270940304540a733656f0d60405160405180910390a45b5050565b6000806000612e9d8585613384565b91509150612eaa81613407565b819250505092915050565b612ebf82826115fd565b15612f9257600080600084815260200190815260200160002060000160008373ffffffffffffffffffffffffffffffffffffffff1673ffffffffffffffffffffffffffffffffffffffff16815260200190815260200160002060006101000a81548160ff021916908315150217905550612f37612d09565b73ffffffffffffffffffffffffffffffffffffffff168173ffffffffffffffffffffffffffffffffffffffff16837ff6391f5c32d9c69d2a47ea670b442974b53935d1edc7fd64eb21e047a839171b60405160405180910390a45b5050565b600081604051602001612fa991906158af565b604051602081830303815290604052805190602001209050919050565b60008060035460015484612fda91906150ed565b612fe49190615904565b905060035460025484612ff791906150ed565b6130019190615904565b9150915091565b600061302987868686602001518760000151876000015188602001516135dc565b905061303687868361392f565b600760009054906101000a900473ffffffffffffffffffffffffffffffffffffffff1673ffffffffffffffffffffffffffffffffffffffff16632ed7bae8836000015188856020015186604001516040518563ffffffff1660e01b81526004016130a394939291906147cf565b600060405180830381600087803b1580156130bd57600080fd5b505af11580156130d1573d6000803e3d6000fd5b5050505050505050505050565b60007f01ffc9a7000000000000000000000000000000000000000000000000000000007bffffffffffffffffffffffffffffffffffffffffffffffffffffffff1916827bffffffffffffffffffffffffffffffffffffffffffffffffffffffff1916149050919050565b60606000600283600261315b91906150ed565b6131659190614d5a565b67ffffffffffffffff81111561317e5761317d615935565b5b6040519080825280601f01601f1916602001820160405280156131b05781602001600182028036833780820191505090505b5090507f3000000000000000000000000000000000000000000000000000000000000000816000815181106131e8576131e7614867565b5b60200101907effffffffffffffffffffffffffffffffffffffffffffffffffffffffffffff1916908160001a9053507f78000000000000000000000000000000000000000000000000000000000000008160018151811061324c5761324b614867565b5b60200101907effffffffffffffffffffffffffffffffffffffffffffffffffffffffffffff1916908160001a9053506000600184600261328c91906150ed565b6132969190614d5a565b90505b6001811115613336577f3031323334353637383961626364656600000000000000000000000000000000600f8616601081106132d8576132d7614867565b5b1a60f81b8282815181106132ef576132ee614867565b5b60200101907effffffffffffffffffffffffffffffffffffffffffffffffffffffffffffff1916908160001a905350600485901c94508061332f90615964565b9050613299565b506000841461337a576040517f08c379a0000000000000000000000000000000000000000000000000000000008152600401613371906159da565b60405180910390fd5b8091505092915050565b6000806041835114156133c65760008060006020860151925060408601519150606086015160001a90506133ba878285856139c7565b94509450505050613400565b6040835114156133f75760008060208501519150604085015190506133ec868383613ad4565b935093505050613400565b60006002915091505b9250929050565b6000600481111561341b5761341a614274565b5b81600481111561342e5761342d614274565b5b1415613439576135d9565b6001600481111561344d5761344c614274565b5b8160048111156134605761345f614274565b5b14156134a1576040517f08c379a000000000000000000000000000000000000000000000000000000000815260040161349890615a46565b60405180910390fd5b600260048111156134b5576134b4614274565b5b8160048111156134c8576134c7614274565b5b1415613509576040517f08c379a000000000000000000000000000000000000000000000000000000000815260040161350090615ab2565b60405180910390fd5b6003600481111561351d5761351c614274565b5b8160048111156135305761352f614274565b5b1415613571576040517f08c379a000000000000000000000000000000000000000000000000000000000815260040161356890615b44565b60405180910390fd5b60048081111561358457613583614274565b5b81600481111561359757613596614274565b5b14156135d8576040517f08c379a00000000000000000000000000000000000000000000000000000000081526004016135cf90615bd6565b60405180910390fd5b5b50565b6000848611156135f55784866135f2919061553a565b95505b859050613630600860009054906101000a900473ffffffffffffffffffffffffffffffffffffffff1688868861362b9190614d5a565b61392f565b8273ffffffffffffffffffffffffffffffffffffffff166301ffc9a763b779958460e01b6040518263ffffffff1660e01b81526004016136709190615054565b602060405180830381865afa15801561368d573d6000803e3d6000fd5b505050506040513d601f19601f820116820180604052508101906136b19190614dfc565b6136ba57613924565b600083905060008173ffffffffffffffffffffffffffffffffffffffff1663b9c4d9fb856040518263ffffffff1660e01b81526004016136fa9190613dc9565b600060405180830381865afa158015613717573d6000803e3d6000fd5b505050506040513d6000823e3d601f19601f820116820180604052508101906137409190615d43565b905060008273ffffffffffffffffffffffffffffffffffffffff16630ebd4c7f866040518263ffffffff1660e01b815260040161377d9190613dc9565b600060405180830381865afa15801561379a573d6000803e3d6000fd5b505050506040513d6000823e3d601f19601f820116820180604052508101906137c39190615e4f565b905060005b815181101561391f578b73ffffffffffffffffffffffffffffffffffffffff168382815181106137fb576137fa614867565b5b602002602001015173ffffffffffffffffffffffffffffffffffffffff1614156138245761390c565b60008514156138325761391f565b600060035483838151811061384a57613849614867565b5b60200260200101518c61385d91906150ed565b6138679190615904565b90508581111561387d578590506000955061388c565b8086613889919061553a565b95505b6138b18483815181106138a2576138a1614867565b5b60200260200101518d8361392f565b7f27c4f0403323142b599832f26acd21c74a9e5b809f2215726e244a4ac588cd7d88888685815181106138e7576138e6614867565b5b60200260200101518f85604051613902959493929190615ef7565b60405180910390a1505b8080613917906148c5565b9150506137c8565b505050505b979650505050505050565b80600f60008573ffffffffffffffffffffffffffffffffffffffff1673ffffffffffffffffffffffffffffffffffffffff16815260200190815260200160002060008473ffffffffffffffffffffffffffffffffffffffff1673ffffffffffffffffffffffffffffffffffffffff16815260200190815260200160002060008282546139bb9190614d5a565b92505081905550505050565b6000807f7fffffffffffffffffffffffffffffff5d576e7357a4501ddfe92f46681b20a08360001c1115613a02576000600391509150613acb565b601b8560ff1614158015613a1a5750601c8560ff1614155b15613a2c576000600491509150613acb565b600060018787878760405160008152602001604052604051613a519493929190615f66565b6020604051602081039080840390855afa158015613a73573d6000803e3d6000fd5b505050602060405103519050600073ffffffffffffffffffffffffffffffffffffffff168173ffffffffffffffffffffffffffffffffffffffff161415613ac257600060019250925050613acb565b80600092509250505b94509492505050565b6000806000807f7fffffffffffffffffffffffffffffffffffffffffffffffffffffffffffffff85169150601b8560ff1c019050613b14878288856139c7565b935093505050935093915050565b60405180610140016040528060008152602001600073ffffffffffffffffffffffffffffffffffffffff168152602001600073ffffffffffffffffffffffffffffffffffffffff168152602001600081526020016000815260200160008152602001600073ffffffffffffffffffffffffffffffffffffffff168152602001600081526020016000815260200160006002811115613bc357613bc2614274565b5b81525090565b6000604051905090565b600080fd5b600080fd5b60007fffffffff0000000000000000000000000000000000000000000000000000000082169050919050565b613c1281613bdd565b8114613c1d57600080fd5b50565b600081359050613c2f81613c09565b92915050565b600060208284031215613c4b57613c4a613bd3565b5b6000613c5984828501613c20565b91505092915050565b60008115159050919050565b613c7781613c62565b82525050565b6000602082019050613c926000830184613c6e565b92915050565b600073ffffffffffffffffffffffffffffffffffffffff82169050919050565b6000613cc382613c98565b9050919050565b613cd381613cb8565b8114613cde57600080fd5b50565b600081359050613cf081613cca565b92915050565b600060208284031215613d0c57613d0b613bd3565b5b6000613d1a84828501613ce1565b91505092915050565b6000819050919050565b613d3681613d23565b8114613d4157600080fd5b50565b600081359050613d5381613d2d565b92915050565b600060208284031215613d6f57613d6e613bd3565b5b6000613d7d84828501613d44565b91505092915050565b613d8f81613d23565b82525050565b6000602082019050613daa6000830184613d86565b92915050565b6000819050919050565b613dc381613db0565b82525050565b6000602082019050613dde6000830184613dba565b92915050565b60008060408385031215613dfb57613dfa613bd3565b5b6000613e0985828601613d44565b9250506020613e1a85828601613ce1565b9150509250929050565b600080fd5b60006101008284031215613e4057613e3f613e24565b5b81905092915050565b613e5281613db0565b8114613e5d57600080fd5b50565b600081359050613e6f81613e49565b92915050565b600080fd5b600080fd5b600080fd5b60008083601f840112613e9a57613e99613e75565b5b8235905067ffffffffffffffff811115613eb757613eb6613e7a565b5b602083019150836001820283011115613ed357613ed2613e7f565b5b9250929050565b6000806000806101408587031215613ef557613ef4613bd3565b5b6000613f0387828801613e29565b945050610100613f1587828801613e60565b93505061012085013567ffffffffffffffff811115613f3757613f36613bd8565b5b613f4387828801613e84565b925092505092959194509250565b600060208284031215613f6757613f66613bd3565b5b6000613f7584828501613e60565b91505092915050565b60008083601f840112613f9457613f93613e75565b5b8235905067ffffffffffffffff811115613fb157613fb0613e7a565b5b602083019150836020820283011115613fcd57613fcc613e7f565b5b9250929050565b613fdd81613c62565b8114613fe857600080fd5b50565b600081359050613ffa81613fd4565b92915050565b60008060006040848603121561401957614018613bd3565b5b600084013567ffffffffffffffff81111561403757614036613bd8565b5b61404386828701613f7e565b9350935050602061405686828701613feb565b9150509250925092565b600080600080600080600080610100898b03121561408157614080613bd3565b5b600061408f8b828c01613ce1565b98505060206140a08b828c01613ce1565b97505060406140b18b828c01613e60565b96505060606140c28b828c01613e60565b95505060806140d38b828c01613ce1565b94505060a06140e48b828c01613e60565b93505060c06140f58b828c01613e60565b92505060e06141068b828c01613e60565b9150509295985092959890939650565b6000806040838503121561412d5761412c613bd3565b5b600061413b85828601613e60565b925050602061414c85828601613ce1565b9150509250929050565b60008060008060008060008060008060006101408c8e03121561417c5761417b613bd3565b5b600061418a8e828f01613ce1565b9b5050602061419b8e828f01613ce1565b9a505060406141ac8e828f01613e60565b99505060606141bd8e828f01613e60565b98505060806141ce8e828f01613ce1565b97505060a06141df8e828f01613e60565b96505060c06141f08e828f01613e60565b95505060e06142018e828f01613e60565b9450506101006142138e828f01613e60565b9350506101208c013567ffffffffffffffff81111561423557614234613bd8565b5b6142418e828f01613e84565b92509250509295989b509295989b9093969950565b61425f81613db0565b82525050565b61426e81613cb8565b82525050565b7f4e487b7100000000000000000000000000000000000000000000000000000000600052602160045260246000fd5b600381106142b4576142b3614274565b5b50565b60008190506142c5826142a3565b919050565b60006142d5826142b7565b9050919050565b6142e5816142ca565b82525050565b610140820160008201516143026000850182614256565b5060208201516143156020850182614265565b5060408201516143286040850182614265565b50606082015161433b6060850182614256565b50608082015161434e6080850182614256565b5060a082015161436160a0850182614256565b5060c082015161437460c0850182614265565b5060e082015161438760e0850182614256565b5061010082015161439c610100850182614256565b506101208201516143b16101208501826142dc565b50505050565b6000610140820190506143cd60008301846142eb565b92915050565b60008061012083850312156143eb576143ea613bd3565b5b60006143f985828601613e29565b92505061010061440b85828601613e60565b9150509250929050565b6000806040838503121561442c5761442b613bd3565b5b600061443a85828601613ce1565b925050602061444b85828601613ce1565b9150509250929050565b6000806040838503121561446c5761446b613bd3565b5b600061447a85828601613e60565b925050602061448b85828601613e60565b9150509250929050565b600080604083850312156144ac576144ab613bd3565b5b60006144ba85828601613ce1565b92505060206144cb85828601613e60565b9150509250929050565b600082825260208201905092915050565b7f4f666665722068617320616c7265616479206265656e2066756c66696c6c656460008201527f2e00000000000000000000000000000000000000000000000000000000000000602082015250565b60006145426021836144d5565b915061454d826144e6565b604082019050919050565b6000602082019050818103600083015261457181614535565b9050919050565b7f4f666665722068617320616c7265616479206265656e2063616e63656c6c656460008201527f2e00000000000000000000000000000000000000000000000000000000000000602082015250565b60006145d46021836144d5565b91506145df82614578565b604082019050919050565b60006020820190508181036000830152614603816145c7565b9050919050565b7f416363657373436f6e74726f6c3a2063616e206f6e6c792072656e6f756e636560008201527f20726f6c657320666f722073656c660000000000000000000000000000000000602082015250565b6000614666602f836144d5565b91506146718261460a565b604082019050919050565b6000602082019050818103600083015261469581614659565b9050919050565b7f4f6e6c79206f70656e206c697374696e67732063616e20626520636c6f73656460008201527f2e00000000000000000000000000000000000000000000000000000000000000602082015250565b60006146f86021836144d5565b91506147038261469c565b604082019050919050565b60006020820190508181036000830152614727816146eb565b9050919050565b7f4f6e6c792073656c6c6572206f722061646d696e2063616e20636c6f7365207460008201527f6865206c697374696e672e000000000000000000000000000000000000000000602082015250565b600061478a602b836144d5565b91506147958261472e565b604082019050919050565b600060208201905081810360008301526147b98161477d565b9050919050565b6147c981613cb8565b82525050565b60006080820190506147e460008301876147c0565b6147f160208301866147c0565b6147fe6040830185613dba565b61480b6060830184613dba565b95945050505050565b600060a0820190506148296000830188613dba565b61483660208301876147c0565b61484360408301866147c0565b6148506060830185613dba565b61485d6080830184613dba565b9695505050505050565b7f4e487b7100000000000000000000000000000000000000000000000000000000600052603260045260246000fd5b7f4e487b7100000000000000000000000000000000000000000000000000000000600052601160045260246000fd5b60006148d082613db0565b91507fffffffffffffffffffffffffffffffffffffffffffffffffffffffffffffffff82141561490357614902614896565b5b600182019050919050565b60008160601b9050919050565b60006149268261490e565b9050919050565b60006149388261491b565b9050919050565b61495061494b82613cb8565b61492d565b82525050565b6000819050919050565b61497161496c82613db0565b614956565b82525050565b6000614983828c61493f565b601482019150614993828b61493f565b6014820191506149a3828a61493f565b6014820191506149b38289614960565b6020820191506149c38288614960565b6020820191506149d3828761493f565b6014820191506149e38286614960565b6020820191506149f38285614960565b602082019150614a038284614960565b6020820191508190509a9950505050505050505050565b7f4f6e6c792073656c6c65722063616e20616363657074206f666665722e000000600082015250565b6000614a50601d836144d5565b9150614a5b82614a1a565b602082019050919050565b60006020820190508181036000830152614a7f81614a43565b9050919050565b7f546f6b656e20636f6e7472616374206973206e6f7420616c6c6f7765642e0000600082015250565b6000614abc601e836144d5565b9150614ac782614a86565b602082019050919050565b60006020820190508181036000830152614aeb81614aaf565b9050919050565b7f43757272656e6379206973206e6f7420616c6c6f7765642e0000000000000000600082015250565b6000614b286018836144d5565b9150614b3382614af2565b602082019050919050565b60006020820190508181036000830152614b5781614b1b565b9050919050565b7f4f6666657220697320657870697265642e000000000000000000000000000000600082015250565b6000614b946011836144d5565b9150614b9f82614b5e565b602082019050919050565b60006020820190508181036000830152614bc381614b87565b9050919050565b7f4f6666657220686173206265656e2066756c66696c6c6564206f722063616e6360008201527f656c6c65642e0000000000000000000000000000000000000000000000000000602082015250565b6000614c266026836144d5565b9150614c3182614bca565b604082019050919050565b60006020820190508181036000830152614c5581614c19565b9050919050565b7f4f66666572206e6565647320746f206265207369676e6564206279207468652060008201527f62757965722e0000000000000000000000000000000000000000000000000000602082015250565b6000614cb86026836144d5565b9150614cc382614c5c565b604082019050919050565b60006020820190508181036000830152614ce781614cab565b9050919050565b7f507269636520697320746f6f206c6f772e000000000000000000000000000000600082015250565b6000614d246011836144d5565b9150614d2f82614cee565b602082019050919050565b60006020820190508181036000830152614d5381614d17565b9050919050565b6000614d6582613db0565b9150614d7083613db0565b9250827fffffffffffffffffffffffffffffffffffffffffffffffffffffffffffffffff03821115614da557614da4614896565b5b828201905092915050565b6000606082019050614dc560008301866147c0565b614dd260208301856147c0565b614ddf6040830184613dba565b949350505050565b600081519050614df681613fd4565b92915050565b600060208284031215614e1257614e11613bd3565b5b6000614e2084828501614de7565b91505092915050565b7f507269636520697320746f6f20686967682e0000000000000000000000000000600082015250565b6000614e5f6012836144d5565b9150614e6a82614e29565b602082019050919050565b60006020820190508181036000830152614e8e81614e52565b9050919050565b7f5175616e746974792065786365656473206d6178696d756d2e00000000000000600082015250565b6000614ecb6019836144d5565b9150614ed682614e95565b602082019050919050565b60006020820190508181036000830152614efa81614ebe565b9050919050565b7f417070726f76616c20657870697265642e000000000000000000000000000000600082015250565b6000614f376011836144d5565b9150614f4282614f01565b602082019050919050565b60006020820190508181036000830152614f6681614f2a565b9050919050565b7f417070726f76616c206578686175737465642e00000000000000000000000000600082015250565b6000614fa36013836144d5565b9150614fae82614f6d565b602082019050919050565b60006020820190508181036000830152614fd281614f96565b9050919050565b7f496e76616c6964207369676e61747572652e0000000000000000000000000000600082015250565b600061500f6012836144d5565b915061501a82614fd9565b602082019050919050565b6000602082019050818103600083015261503e81615002565b9050919050565b61504e81613bdd565b82525050565b60006020820190506150696000830184615045565b92915050565b600061010082019050615085600083018b613dba565b615092602083018a6147c0565b61509f60408301896147c0565b6150ac6060830188613dba565b6150b96080830187613dba565b6150c660a08301866147c0565b6150d360c0830185613dba565b6150e060e0830184613dba565b9998505050505050505050565b60006150f882613db0565b915061510383613db0565b9250817fffffffffffffffffffffffffffffffffffffffffffffffffffffffffffffffff048311821515161561513c5761513b614896565b5b828202905092915050565b6000615153828d61493f565b601482019150615163828c61493f565b601482019150615173828b61493f565b601482019150615183828a61493f565b6014820191506151938289614960565b6020820191506151a38288614960565b6020820191506151b3828761493f565b6014820191506151c38286614960565b6020820191506151d38285614960565b6020820191506151e38284614960565b6020820191508190509b9a5050505050505050505050565b7f4665652063616e6e6f7420626520686967686572207468616e2068756e64726560008201527f642070657263656e742e00000000000000000000000000000000000000000000602082015250565b6000615257602a836144d5565b9150615262826151fb565b604082019050919050565b600060208201905081810360008301526152868161524a565b9050919050565b7f5175616e746974792065786365656473206d6178696d756d20616c6c6f77656460008201527f207065722062757965722e000000000000000000000000000000000000000000602082015250565b60006152e9602b836144d5565b91506152f48261528d565b604082019050919050565b60006020820190508181036000830152615318816152dc565b9050919050565b7f4c697374696e67206973206e6f74206f70656e2e000000000000000000000000600082015250565b60006153556014836144d5565b91506153608261531f565b602082019050919050565b6000602082019050818103600083015261538481615348565b9050919050565b7f4e6f7420656e6f75676820746f6b656e7320666f722073616c652e0000000000600082015250565b60006153c1601b836144d5565b91506153cc8261538b565b602082019050919050565b600060208201905081810360008301526153f0816153b4565b9050919050565b7f53656c6c65722063616e6e6f742062652062757965722e000000000000000000600082015250565b600061542d6017836144d5565b9150615438826153f7565b602082019050919050565b6000602082019050818103600083015261545c81615420565b9050919050565b600060408201905061547860008301856147c0565b61548560208301846147c0565b9392505050565b60008151905061549b81613e49565b92915050565b6000602082840312156154b7576154b6613bd3565b5b60006154c58482850161548c565b91505092915050565b7f416c6c6f77616e636520697320746f6f206c6f772e0000000000000000000000600082015250565b60006155046015836144d5565b915061550f826154ce565b602082019050919050565b60006020820190508181036000830152615533816154f7565b9050919050565b600061554582613db0565b915061555083613db0565b92508282101561556357615562614896565b5b828203905092915050565b600060c0820190506155836000830189613dba565b61559060208301886147c0565b61559d60408301876147c0565b6155aa6060830186613dba565b6155b760808301856147c0565b6155c460a0830184613dba565b979650505050505050565b7f496e73756666696369656e742062616c616e636520746f20776974686472617760008201527f2e00000000000000000000000000000000000000000000000000000000000000602082015250565b600061562b6021836144d5565b9150615636826155cf565b604082019050919050565b6000602082019050818103600083015261565a8161561e565b9050919050565b600060408201905061567660008301856147c0565b6156836020830184613dba565b9392505050565b600081905092915050565b7f416363657373436f6e74726f6c3a206163636f756e7420000000000000000000600082015250565b60006156cb60178361568a565b91506156d682615695565b601782019050919050565b600081519050919050565b60005b8381101561570a5780820151818401526020810190506156ef565b83811115615719576000848401525b50505050565b600061572a826156e1565b615734818561568a565b93506157448185602086016156ec565b80840191505092915050565b7f206973206d697373696e6720726f6c6520000000000000000000000000000000600082015250565b600061578660118361568a565b915061579182615750565b601182019050919050565b60006157a7826156be565b91506157b3828561571f565b91506157be82615779565b91506157ca828461571f565b91508190509392505050565b6000601f19601f8301169050919050565b60006157f2826156e1565b6157fc81856144d5565b935061580c8185602086016156ec565b615815816157d6565b840191505092915050565b6000602082019050818103600083015261583a81846157e7565b905092915050565b7f19457468657265756d205369676e6564204d6573736167653a0a333200000000600082015250565b6000615878601c8361568a565b915061588382615842565b601c82019050919050565b6000819050919050565b6158a96158a482613d23565b61588e565b82525050565b60006158ba8261586b565b91506158c68284615898565b60208201915081905092915050565b7f4e487b7100000000000000000000000000000000000000000000000000000000600052601260045260246000fd5b600061590f82613db0565b915061591a83613db0565b92508261592a576159296158d5565b5b828204905092915050565b7f4e487b7100000000000000000000000000000000000000000000000000000000600052604160045260246000fd5b600061596f82613db0565b9150600082141561598357615982614896565b5b600182039050919050565b7f537472696e67733a20686578206c656e67746820696e73756666696369656e74600082015250565b60006159c46020836144d5565b91506159cf8261598e565b602082019050919050565b600060208201905081810360008301526159f3816159b7565b9050919050565b7f45434453413a20696e76616c6964207369676e61747572650000000000000000600082015250565b6000615a306018836144d5565b9150615a3b826159fa565b602082019050919050565b60006020820190508181036000830152615a5f81615a23565b9050919050565b7f45434453413a20696e76616c6964207369676e6174757265206c656e67746800600082015250565b6000615a9c601f836144d5565b9150615aa782615a66565b602082019050919050565b60006020820190508181036000830152615acb81615a8f565b9050919050565b7f45434453413a20696e76616c6964207369676e6174757265202773272076616c60008201527f7565000000000000000000000000000000000000000000000000000000000000602082015250565b6000615b2e6022836144d5565b9150615b3982615ad2565b604082019050919050565b60006020820190508181036000830152615b5d81615b21565b9050919050565b7f45434453413a20696e76616c6964207369676e6174757265202776272076616c60008201527f7565000000000000000000000000000000000000000000000000000000000000602082015250565b6000615bc06022836144d5565b9150615bcb82615b64565b604082019050919050565b60006020820190508181036000830152615bef81615bb3565b9050919050565b615bff826157d6565b810181811067ffffffffffffffff82111715615c1e57615c1d615935565b5b80604052505050565b6000615c31613bc9565b9050615c3d8282615bf6565b919050565b600067ffffffffffffffff821115615c5d57615c5c615935565b5b602082029050602081019050919050565b6000615c7982613c98565b9050919050565b615c8981615c6e565b8114615c9457600080fd5b50565b600081519050615ca681615c80565b92915050565b6000615cbf615cba84615c42565b615c27565b90508083825260208201905060208402830185811115615ce257615ce1613e7f565b5b835b81811015615d0b5780615cf78882615c97565b845260208401935050602081019050615ce4565b5050509392505050565b600082601f830112615d2a57615d29613e75565b5b8151615d3a848260208601615cac565b91505092915050565b600060208284031215615d5957615d58613bd3565b5b600082015167ffffffffffffffff811115615d7757615d76613bd8565b5b615d8384828501615d15565b91505092915050565b600067ffffffffffffffff821115615da757615da6615935565b5b602082029050602081019050919050565b6000615dcb615dc684615d8c565b615c27565b90508083825260208201905060208402830185811115615dee57615ded613e7f565b5b835b81811015615e175780615e03888261548c565b845260208401935050602081019050615df0565b5050509392505050565b600082601f830112615e3657615e35613e75565b5b8151615e46848260208601615db8565b91505092915050565b600060208284031215615e6557615e64613bd3565b5b600082015167ffffffffffffffff811115615e8357615e82613bd8565b5b615e8f84828501615e21565b91505092915050565b6000819050919050565b6000615ebd615eb8615eb384613c98565b615e98565b613c98565b9050919050565b6000615ecf82615ea2565b9050919050565b6000615ee182615ec4565b9050919050565b615ef181615ed6565b82525050565b600060a082019050615f0c60008301886147c0565b615f196020830187613dba565b615f266040830186615ee8565b615f3360608301856147c0565b615f406080830184613dba565b9695505050505050565b600060ff82169050919050565b615f6081615f4a565b82525050565b6000608082019050615f7b6000830187613d86565b615f886020830186615f57565b615f956040830185613d86565b615fa26060830184613d86565b9594505050505056fea2646970667358221220f17131b1a2e03b04fb5d2a0188498ad7f133f1be4c5de1c308b73e93526b083964736f6c634300080b0033",
  "immutableReferences": {},
  "source": "// SPDX-License-Identifier: MIT\npragma solidity ^0.8.0;\n\nimport '@openzeppelin/contracts/token/ERC20/IERC20.sol';\nimport '@openzeppelin/contracts/utils/cryptography/ECDSA.sol';\nimport './MarketV1.sol';\n\nstruct Offer {\n  address buyer;\n  address seller;\n  address token;\n  uint256 tokenId;\n  uint256 quantity;\n  address currency;\n  uint256 price;\n  uint256 expiry;\n}\n\ncontract OfferMarketV1 is MarketV1 {\n  using ECDSA for bytes32;\n\n  event AcceptOffer(\n    address indexed seller,\n    address indexed buyer,\n    address token,\n    address tokenId,\n    uint256 quantity,\n    address currency,\n    uint256 price\n  );\n\n  event CancelOffer(\n    address indexed sender,\n    address token,\n    address tokenId,\n    uint256 quantity,\n    address currency,\n    uint256 price\n  );\n\n  mapping(bytes32 => bool) private _cancelled;\n  mapping(bytes32 => bool) private _completed;\n\n  constructor(MarketWalletV1 wallet) MarketV1(wallet) {}\n\n  function acceptOffer(\n    Offer calldata offer,\n    uint256 salt,\n    bytes calldata signature\n  ) public {\n    require(msg.sender == offer.seller, 'Only seller can accept offer.');\n\n    require(_approvedTokens[offer.token], 'Token contract is not allowed.');\n    require(_approvedCurrencies[offer.currency], 'Currency is not allowed.');\n\n    require(offer.expiry > block.timestamp, 'Offer is expired.');\n\n    bytes32 offerHash = getOfferHash(offer, salt);\n\n    require(\n      !_cancelled[offerHash] && !_completed[offerHash],\n      'Offer has been fulfilled or cancelled.'\n    );\n\n    address recoveredAddress = offerHash.toEthSignedMessageHash().recover(\n      signature\n    );\n\n    require(\n      recoveredAddress == offer.buyer,\n      'Offer needs to be signed by the buyer.'\n    );\n\n    require(offer.price >= minTokenPrice, 'Price is too low.');\n\n    (uint256 sellerFee, uint256 buyerFee) = calculateMarketFees(offer.price);\n\n    _completed[offerHash] = true;\n\n    _wallet.take(offer.token, msg.sender, offer.tokenId, offer.quantity);\n\n    IERC20(offer.currency).transferFrom(\n      offer.buyer,\n      address(this),\n      offer.price + buyerFee\n    );\n\n    exchange(\n      offer.seller,\n      offer.buyer,\n      offer.currency,\n      offer.price,\n      MarketFees(buyerFee, sellerFee),\n      TokenOrder(offer.token, offer.tokenId, offer.quantity)\n    );\n  }\n\n  function getOfferHash(Offer calldata offer, uint256 salt)\n    public\n    view\n    returns (bytes32)\n  {\n    return\n      keccak256(\n        abi.encodePacked(\n          address(this),\n          offer.buyer,\n          offer.seller,\n          offer.token,\n          offer.tokenId,\n          offer.quantity,\n          offer.currency,\n          offer.price,\n          offer.expiry,\n          salt\n        )\n      );\n  }\n\n  // Only offer maker and market owner can cancel\n  function cancelOffer(\n    Offer calldata offer,\n    uint256 nonce,\n    bytes calldata signature\n  ) public {\n    bytes32 offerHash = getOfferHash(offer, nonce);\n\n    require(!_completed[offerHash], 'Offer has already been fulfilled.');\n    require(!_cancelled[offerHash], 'Offer has already been cancelled.');\n\n    require(\n      msg.sender == offerHash.recover(signature) ||\n        hasRole(ADMIN_ROLE, msg.sender)\n    );\n\n    _cancelled[offerHash] = true;\n  }\n}\n",
  "sourcePath": "/Users/husnain/Desktop/other/fanbase/packages/ethereum/contracts/solidity/contracts/OfferMarketV1.sol",
  "compiler": {
    "name": "solc",
    "version": "0.8.11+commit.d7f03943.Emscripten.clang"
  },
  "schemaVersion": "3.4.3",
  "updatedAt": "2022-01-23T21:21:01.879Z",
  "networkType": "ethereum",
  "devdoc": {
    "kind": "dev",
    "methods": {
      "getRoleAdmin(bytes32)": {
        "details": "Returns the admin role that controls `role`. See {grantRole} and {revokeRole}. To change a role's admin, use {_setRoleAdmin}."
      },
      "grantRole(bytes32,address)": {
        "details": "Grants `role` to `account`. If `account` had not been already granted `role`, emits a {RoleGranted} event. Requirements: - the caller must have ``role``'s admin role."
      },
      "hasRole(bytes32,address)": {
        "details": "Returns `true` if `account` has been granted `role`."
      },
      "renounceRole(bytes32,address)": {
        "details": "Revokes `role` from the calling account. Roles are often managed via {grantRole} and {revokeRole}: this function's purpose is to provide a mechanism for accounts to lose their privileges if they are compromised (such as when a trusted device is misplaced). If the calling account had been granted `role`, emits a {RoleRevoked} event. Requirements: - the caller must be `account`."
      },
      "revokeRole(bytes32,address)": {
        "details": "Revokes `role` from `account`. If `account` had been granted `role`, emits a {RoleRevoked} event. Requirements: - the caller must have ``role``'s admin role."
      }
    },
    "version": 1
  },
  "userdoc": {
    "kind": "user",
    "methods": {},
    "version": 1
  }
}