{
  "contractName": "OfferMarketV1",
  "abi": [
    {
      "inputs": [
        {
          "internalType": "contract MarketWalletV1",
          "name": "wallet",
          "type": "address"
        }
      ],
      "stateMutability": "nonpayable",
      "type": "constructor"
    },
    {
      "anonymous": false,
      "inputs": [
        {
          "indexed": true,
          "internalType": "address",
          "name": "seller",
          "type": "address"
        },
        {
          "indexed": true,
          "internalType": "address",
          "name": "buyer",
          "type": "address"
        },
        {
          "indexed": false,
          "internalType": "address",
          "name": "token",
          "type": "address"
        },
        {
          "indexed": false,
          "internalType": "address",
          "name": "tokenId",
          "type": "address"
        },
        {
          "indexed": false,
          "internalType": "uint256",
          "name": "quantity",
          "type": "uint256"
        },
        {
          "indexed": false,
          "internalType": "address",
          "name": "currency",
          "type": "address"
        },
        {
          "indexed": false,
          "internalType": "uint256",
          "name": "price",
          "type": "uint256"
        }
      ],
      "name": "AcceptOffer",
      "type": "event"
    },
    {
      "anonymous": false,
      "inputs": [
        {
          "indexed": false,
          "internalType": "uint256",
          "name": "tradeId",
          "type": "uint256"
        },
        {
          "indexed": false,
          "internalType": "address",
          "name": "buyer",
          "type": "address"
        },
        {
          "indexed": false,
          "internalType": "uint256",
          "name": "quantity",
          "type": "uint256"
        }
      ],
      "name": "Buy",
      "type": "event"
    },
    {
      "anonymous": false,
      "inputs": [
        {
          "indexed": false,
          "internalType": "address",
          "name": "operator",
          "type": "address"
        },
        {
          "indexed": false,
          "internalType": "uint256",
          "name": "tradeId",
          "type": "uint256"
        },
        {
          "indexed": false,
          "internalType": "address",
          "name": "tokenContract",
          "type": "address"
        },
        {
          "indexed": false,
          "internalType": "uint256",
          "name": "tokenId",
          "type": "uint256"
        },
        {
          "indexed": false,
          "internalType": "uint256",
          "name": "returned",
          "type": "uint256"
        }
      ],
      "name": "CancelListing",
      "type": "event"
    },
    {
      "anonymous": false,
      "inputs": [
        {
          "indexed": true,
          "internalType": "address",
          "name": "sender",
          "type": "address"
        },
        {
          "indexed": false,
          "internalType": "address",
          "name": "token",
          "type": "address"
        },
        {
          "indexed": false,
          "internalType": "address",
          "name": "tokenId",
          "type": "address"
        },
        {
          "indexed": false,
          "internalType": "uint256",
          "name": "quantity",
          "type": "uint256"
        },
        {
          "indexed": false,
          "internalType": "address",
          "name": "currency",
          "type": "address"
        },
        {
          "indexed": false,
          "internalType": "uint256",
          "name": "price",
          "type": "uint256"
        }
      ],
      "name": "CancelOffer",
      "type": "event"
    },
    {
      "anonymous": false,
      "inputs": [
        {
          "indexed": false,
          "internalType": "uint256",
          "name": "tradeId",
          "type": "uint256"
        },
        {
          "indexed": false,
          "internalType": "address",
          "name": "seller",
          "type": "address"
        },
        {
          "indexed": false,
          "internalType": "address",
          "name": "tokenContract",
          "type": "address"
        },
        {
          "indexed": false,
          "internalType": "uint256",
          "name": "tokenId",
          "type": "uint256"
        },
        {
          "indexed": false,
          "internalType": "uint256",
          "name": "quantity",
          "type": "uint256"
        },
        {
          "indexed": false,
          "internalType": "address",
          "name": "currency",
          "type": "address"
        },
        {
          "indexed": false,
          "internalType": "uint256",
          "name": "price",
          "type": "uint256"
        }
      ],
      "name": "ListForSale",
      "type": "event"
    },
    {
      "anonymous": false,
      "inputs": [
        {
          "indexed": false,
          "internalType": "address",
          "name": "account",
          "type": "address"
        }
      ],
      "name": "Paused",
      "type": "event"
    },
    {
      "anonymous": false,
      "inputs": [
        {
          "indexed": true,
          "internalType": "bytes32",
          "name": "role",
          "type": "bytes32"
        },
        {
          "indexed": true,
          "internalType": "bytes32",
          "name": "previousAdminRole",
          "type": "bytes32"
        },
        {
          "indexed": true,
          "internalType": "bytes32",
          "name": "newAdminRole",
          "type": "bytes32"
        }
      ],
      "name": "RoleAdminChanged",
      "type": "event"
    },
    {
      "anonymous": false,
      "inputs": [
        {
          "indexed": true,
          "internalType": "bytes32",
          "name": "role",
          "type": "bytes32"
        },
        {
          "indexed": true,
          "internalType": "address",
          "name": "account",
          "type": "address"
        },
        {
          "indexed": true,
          "internalType": "address",
          "name": "sender",
          "type": "address"
        }
      ],
      "name": "RoleGranted",
      "type": "event"
    },
    {
      "anonymous": false,
      "inputs": [
        {
          "indexed": true,
          "internalType": "bytes32",
          "name": "role",
          "type": "bytes32"
        },
        {
          "indexed": true,
          "internalType": "address",
          "name": "account",
          "type": "address"
        },
        {
          "indexed": true,
          "internalType": "address",
          "name": "sender",
          "type": "address"
        }
      ],
      "name": "RoleRevoked",
      "type": "event"
    },
    {
      "anonymous": false,
      "inputs": [
        {
          "indexed": false,
          "internalType": "uint256",
          "name": "tradeId",
          "type": "uint256"
        }
      ],
      "name": "Sell",
      "type": "event"
    },
    {
      "anonymous": false,
      "inputs": [
        {
          "indexed": false,
          "internalType": "address",
          "name": "account",
          "type": "address"
        }
      ],
      "name": "Unpaused",
      "type": "event"
    },
    {
      "inputs": [],
      "name": "ADMIN_ROLE",
      "outputs": [
        {
          "internalType": "bytes32",
          "name": "",
          "type": "bytes32"
        }
      ],
      "stateMutability": "view",
      "type": "function",
      "constant": true
    },
    {
      "inputs": [],
      "name": "DEFAULT_ADMIN_ROLE",
      "outputs": [
        {
          "internalType": "bytes32",
          "name": "",
          "type": "bytes32"
        }
      ],
      "stateMutability": "view",
      "type": "function",
      "constant": true
    },
    {
      "inputs": [
        {
          "internalType": "uint256",
          "name": "tradeId",
          "type": "uint256"
        },
        {
          "internalType": "uint256",
          "name": "quantity",
          "type": "uint256"
        }
      ],
      "name": "buy",
      "outputs": [],
      "stateMutability": "nonpayable",
      "type": "function"
    },
    {
      "inputs": [],
      "name": "buyerFeePct",
      "outputs": [
        {
          "internalType": "uint256",
          "name": "",
          "type": "uint256"
        }
      ],
      "stateMutability": "view",
      "type": "function",
      "constant": true
    },
    {
      "inputs": [
        {
          "internalType": "uint256",
          "name": "tradeId",
          "type": "uint256"
        }
      ],
      "name": "cancel",
      "outputs": [],
      "stateMutability": "nonpayable",
      "type": "function"
    },
    {
      "inputs": [
        {
          "internalType": "uint256",
          "name": "tradeId",
          "type": "uint256"
        }
      ],
      "name": "get",
      "outputs": [
        {
          "components": [
            {
              "internalType": "uint256",
              "name": "id",
              "type": "uint256"
            },
            {
              "internalType": "address",
              "name": "seller",
              "type": "address"
            },
            {
              "internalType": "address",
              "name": "token",
              "type": "address"
            },
            {
              "internalType": "uint256",
              "name": "tokenId",
              "type": "uint256"
            },
            {
              "internalType": "uint256",
              "name": "quantity",
              "type": "uint256"
            },
            {
              "internalType": "uint256",
              "name": "available",
              "type": "uint256"
            },
            {
              "internalType": "address",
              "name": "currency",
              "type": "address"
            },
            {
              "internalType": "uint256",
              "name": "price",
              "type": "uint256"
            },
            {
              "internalType": "enum TradeStatus",
              "name": "status",
              "type": "uint8"
            }
          ],
          "internalType": "struct Trade",
          "name": "",
          "type": "tuple"
        }
      ],
      "stateMutability": "view",
      "type": "function",
      "constant": true
    },
    {
      "inputs": [
        {
          "internalType": "address",
          "name": "currency",
          "type": "address"
        },
        {
          "internalType": "address",
          "name": "account",
          "type": "address"
        }
      ],
      "name": "getBalance",
      "outputs": [
        {
          "internalType": "uint256",
          "name": "",
          "type": "uint256"
        }
      ],
      "stateMutability": "view",
      "type": "function",
      "constant": true
    },
    {
      "inputs": [
        {
          "internalType": "bytes32",
          "name": "role",
          "type": "bytes32"
        }
      ],
      "name": "getRoleAdmin",
      "outputs": [
        {
          "internalType": "bytes32",
          "name": "",
          "type": "bytes32"
        }
      ],
      "stateMutability": "view",
      "type": "function",
      "constant": true
    },
    {
      "inputs": [
        {
          "internalType": "address",
          "name": "seller",
          "type": "address"
        },
        {
          "internalType": "address",
          "name": "token",
          "type": "address"
        },
        {
          "internalType": "uint256",
          "name": "tokenId",
          "type": "uint256"
        },
        {
          "internalType": "uint256",
          "name": "quantity",
          "type": "uint256"
        },
        {
          "internalType": "address",
          "name": "currency",
          "type": "address"
        },
        {
          "internalType": "uint256",
          "name": "price",
          "type": "uint256"
        },
        {
          "internalType": "uint256",
          "name": "expiry",
          "type": "uint256"
        },
        {
          "internalType": "uint256",
          "name": "salt",
          "type": "uint256"
        }
      ],
      "name": "getSaleAuthorizationHash",
      "outputs": [
        {
          "internalType": "bytes32",
          "name": "",
          "type": "bytes32"
        }
      ],
      "stateMutability": "view",
      "type": "function",
      "constant": true
    },
    {
      "inputs": [
        {
          "internalType": "bytes32",
          "name": "role",
          "type": "bytes32"
        },
        {
          "internalType": "address",
          "name": "account",
          "type": "address"
        }
      ],
      "name": "grantRole",
      "outputs": [],
      "stateMutability": "nonpayable",
      "type": "function"
    },
    {
      "inputs": [
        {
          "internalType": "bytes32",
          "name": "role",
          "type": "bytes32"
        },
        {
          "internalType": "address",
          "name": "account",
          "type": "address"
        }
      ],
      "name": "hasRole",
      "outputs": [
        {
          "internalType": "bool",
          "name": "",
          "type": "bool"
        }
      ],
      "stateMutability": "view",
      "type": "function",
      "constant": true
    },
    {
      "inputs": [],
      "name": "hundredPct",
      "outputs": [
        {
          "internalType": "uint256",
          "name": "",
          "type": "uint256"
        }
      ],
      "stateMutability": "view",
      "type": "function",
      "constant": true
    },
    {
      "inputs": [
        {
          "internalType": "address",
          "name": "seller",
          "type": "address"
        },
        {
          "internalType": "address",
          "name": "token",
          "type": "address"
        },
        {
          "internalType": "uint256",
          "name": "tokenId",
          "type": "uint256"
        },
        {
          "internalType": "uint256",
          "name": "quantity",
          "type": "uint256"
        },
        {
          "internalType": "address",
          "name": "currency",
          "type": "address"
        },
        {
          "internalType": "uint256",
          "name": "price",
          "type": "uint256"
        },
        {
          "internalType": "uint256",
          "name": "expiry",
          "type": "uint256"
        },
        {
          "internalType": "uint256",
          "name": "salt",
          "type": "uint256"
        },
        {
          "internalType": "bytes",
          "name": "signature",
          "type": "bytes"
        }
      ],
      "name": "listForSale",
      "outputs": [],
      "stateMutability": "nonpayable",
      "type": "function"
    },
    {
      "inputs": [],
      "name": "maxTokenPrice",
      "outputs": [
        {
          "internalType": "uint256",
          "name": "",
          "type": "uint256"
        }
      ],
      "stateMutability": "view",
      "type": "function",
      "constant": true
    },
    {
      "inputs": [],
      "name": "maxTradeQuantity",
      "outputs": [
        {
          "internalType": "uint256",
          "name": "",
          "type": "uint256"
        }
      ],
      "stateMutability": "view",
      "type": "function",
      "constant": true
    },
    {
      "inputs": [],
      "name": "minTokenPrice",
      "outputs": [
        {
          "internalType": "uint256",
          "name": "",
          "type": "uint256"
        }
      ],
      "stateMutability": "view",
      "type": "function",
      "constant": true
    },
    {
      "inputs": [],
      "name": "pause",
      "outputs": [],
      "stateMutability": "nonpayable",
      "type": "function"
    },
    {
      "inputs": [],
      "name": "paused",
      "outputs": [
        {
          "internalType": "bool",
          "name": "",
          "type": "bool"
        }
      ],
      "stateMutability": "view",
      "type": "function",
      "constant": true
    },
    {
      "inputs": [
        {
          "internalType": "bytes32",
          "name": "role",
          "type": "bytes32"
        },
        {
          "internalType": "address",
          "name": "account",
          "type": "address"
        }
      ],
      "name": "renounceRole",
      "outputs": [],
      "stateMutability": "nonpayable",
      "type": "function"
    },
    {
      "inputs": [],
      "name": "resume",
      "outputs": [],
      "stateMutability": "nonpayable",
      "type": "function"
    },
    {
      "inputs": [
        {
          "internalType": "bytes32",
          "name": "role",
          "type": "bytes32"
        },
        {
          "internalType": "address",
          "name": "account",
          "type": "address"
        }
      ],
      "name": "revokeRole",
      "outputs": [],
      "stateMutability": "nonpayable",
      "type": "function"
    },
    {
      "inputs": [],
      "name": "sellerFeePct",
      "outputs": [
        {
          "internalType": "uint256",
          "name": "",
          "type": "uint256"
        }
      ],
      "stateMutability": "view",
      "type": "function",
      "constant": true
    },
    {
      "inputs": [
        {
          "internalType": "uint256",
          "name": "pct",
          "type": "uint256"
        }
      ],
      "name": "setBuyerFeePct",
      "outputs": [],
      "stateMutability": "nonpayable",
      "type": "function"
    },
    {
      "inputs": [
        {
          "internalType": "address",
          "name": "currency",
          "type": "address"
        },
        {
          "internalType": "bool",
          "name": "isApproved",
          "type": "bool"
        }
      ],
      "name": "setCurrencyApproval",
      "outputs": [],
      "stateMutability": "nonpayable",
      "type": "function"
    },
    {
      "inputs": [
        {
          "internalType": "address",
          "name": "beneficiary",
          "type": "address"
        }
      ],
      "name": "setFeeBeneficiary",
      "outputs": [],
      "stateMutability": "nonpayable",
      "type": "function"
    },
    {
      "inputs": [
        {
          "internalType": "uint256",
          "name": "price",
          "type": "uint256"
        }
      ],
      "name": "setMaxTokenPriceEther",
      "outputs": [],
      "stateMutability": "nonpayable",
      "type": "function"
    },
    {
      "inputs": [
        {
          "internalType": "uint256",
          "name": "price",
          "type": "uint256"
        }
      ],
      "name": "setMaxTokenPriceWei",
      "outputs": [],
      "stateMutability": "nonpayable",
      "type": "function"
    },
    {
      "inputs": [
        {
          "internalType": "uint256",
          "name": "quantity",
          "type": "uint256"
        }
      ],
      "name": "setMaxTradeQuantity",
      "outputs": [],
      "stateMutability": "nonpayable",
      "type": "function"
    },
    {
      "inputs": [
        {
          "internalType": "uint256",
          "name": "pct",
          "type": "uint256"
        }
      ],
      "name": "setSellerFeePct",
      "outputs": [],
      "stateMutability": "nonpayable",
      "type": "function"
    },
    {
      "inputs": [
        {
          "internalType": "address",
          "name": "token",
          "type": "address"
        },
        {
          "internalType": "bool",
          "name": "isApproved",
          "type": "bool"
        }
      ],
      "name": "setTokenApproval",
      "outputs": [],
      "stateMutability": "nonpayable",
      "type": "function"
    },
    {
      "inputs": [
        {
          "internalType": "bytes4",
          "name": "interfaceID",
          "type": "bytes4"
        }
      ],
      "name": "supportsInterface",
      "outputs": [
        {
          "internalType": "bool",
          "name": "",
          "type": "bool"
        }
      ],
      "stateMutability": "view",
      "type": "function",
      "constant": true
    },
    {
      "inputs": [
        {
          "internalType": "bytes",
          "name": "",
          "type": "bytes"
        },
        {
          "internalType": "uint256",
          "name": "",
          "type": "uint256"
        }
      ],
      "name": "tradeHistory",
      "outputs": [
        {
          "internalType": "uint256",
          "name": "",
          "type": "uint256"
        }
      ],
      "stateMutability": "view",
      "type": "function",
      "constant": true
    },
    {
      "inputs": [
        {
          "internalType": "address",
          "name": "currency",
          "type": "address"
        },
        {
          "internalType": "uint256",
          "name": "amount",
          "type": "uint256"
        }
      ],
      "name": "withdraw",
      "outputs": [],
      "stateMutability": "nonpayable",
      "type": "function"
    },
    {
      "inputs": [
        {
          "components": [
            {
              "internalType": "address",
              "name": "buyer",
              "type": "address"
            },
            {
              "internalType": "address",
              "name": "seller",
              "type": "address"
            },
            {
              "internalType": "address",
              "name": "token",
              "type": "address"
            },
            {
              "internalType": "uint256",
              "name": "tokenId",
              "type": "uint256"
            },
            {
              "internalType": "uint256",
              "name": "quantity",
              "type": "uint256"
            },
            {
              "internalType": "address",
              "name": "currency",
              "type": "address"
            },
            {
              "internalType": "uint256",
              "name": "price",
              "type": "uint256"
            },
            {
              "internalType": "uint256",
              "name": "expiry",
              "type": "uint256"
            }
          ],
          "internalType": "struct Offer",
          "name": "offer",
          "type": "tuple"
        },
        {
          "internalType": "uint256",
          "name": "salt",
          "type": "uint256"
        },
        {
          "internalType": "bytes",
          "name": "signature",
          "type": "bytes"
        }
      ],
      "name": "acceptOffer",
      "outputs": [],
      "stateMutability": "nonpayable",
      "type": "function"
    },
    {
      "inputs": [
        {
          "components": [
            {
              "internalType": "address",
              "name": "buyer",
              "type": "address"
            },
            {
              "internalType": "address",
              "name": "seller",
              "type": "address"
            },
            {
              "internalType": "address",
              "name": "token",
              "type": "address"
            },
            {
              "internalType": "uint256",
              "name": "tokenId",
              "type": "uint256"
            },
            {
              "internalType": "uint256",
              "name": "quantity",
              "type": "uint256"
            },
            {
              "internalType": "address",
              "name": "currency",
              "type": "address"
            },
            {
              "internalType": "uint256",
              "name": "price",
              "type": "uint256"
            },
            {
              "internalType": "uint256",
              "name": "expiry",
              "type": "uint256"
            }
          ],
          "internalType": "struct Offer",
          "name": "offer",
          "type": "tuple"
        },
        {
          "internalType": "uint256",
          "name": "salt",
          "type": "uint256"
        }
      ],
      "name": "getOfferHash",
      "outputs": [
        {
          "internalType": "bytes32",
          "name": "",
          "type": "bytes32"
        }
      ],
      "stateMutability": "view",
      "type": "function",
      "constant": true
    },
    {
      "inputs": [
        {
          "components": [
            {
              "internalType": "address",
              "name": "buyer",
              "type": "address"
            },
            {
              "internalType": "address",
              "name": "seller",
              "type": "address"
            },
            {
              "internalType": "address",
              "name": "token",
              "type": "address"
            },
            {
              "internalType": "uint256",
              "name": "tokenId",
              "type": "uint256"
            },
            {
              "internalType": "uint256",
              "name": "quantity",
              "type": "uint256"
            },
            {
              "internalType": "address",
              "name": "currency",
              "type": "address"
            },
            {
              "internalType": "uint256",
              "name": "price",
              "type": "uint256"
            },
            {
              "internalType": "uint256",
              "name": "expiry",
              "type": "uint256"
            }
          ],
          "internalType": "struct Offer",
          "name": "offer",
          "type": "tuple"
        },
        {
          "internalType": "uint256",
          "name": "nonce",
          "type": "uint256"
        },
        {
          "internalType": "bytes",
          "name": "signature",
          "type": "bytes"
        }
      ],
      "name": "cancelOffer",
      "outputs": [],
      "stateMutability": "nonpayable",
      "type": "function"
    }
  ],
  "bytecode": "0x6080604052611388600255611388600355620186a060045569d3c21bcecceda1000000600555620f424060065560045460075560006009556000600d556000600f553480156200004e57600080fd5b50604051620063d7380380620063d78339818101604052810190620000749190620003a2565b806000600160006101000a81548160ff021916908315150217905550620000a56000801b336200019660201b60201c565b620000d77fa49807205ce4d355092ef5a8a18f56e8913cf4a201fbe287825b095693c21775336200019660201b60201c565b6200010c7fa49807205ce4d355092ef5a8a18f56e8913cf4a201fbe287825b095693c217756000801b620001ac60201b60201c565b33601160006101000a81548173ffffffffffffffffffffffffffffffffffffffff021916908373ffffffffffffffffffffffffffffffffffffffff16021790555080601260006101000a81548173ffffffffffffffffffffffffffffffffffffffff021916908373ffffffffffffffffffffffffffffffffffffffff16021790555050506200043b565b620001a882826200020960201b60201c565b5050565b80620001be83620002fa60201b60201c565b837fbd79b86ffe0ab8e8776151514217cd7cacd52c909f66475c3af44e129f0b00ff60405160405180910390a480600080848152602001908152602001600020600101819055505050565b6200021b82826200031960201b60201c565b620002f657600160008084815260200190815260200160002060000160008373ffffffffffffffffffffffffffffffffffffffff1673ffffffffffffffffffffffffffffffffffffffff16815260200190815260200160002060006101000a81548160ff0219169083151502179055506200029b6200038360201b60201c565b73ffffffffffffffffffffffffffffffffffffffff168173ffffffffffffffffffffffffffffffffffffffff16837f2f8788117e7eff1d82e926ec794901d17c78024a50270940304540a733656f0d60405160405180910390a45b5050565b6000806000838152602001908152602001600020600101549050919050565b600080600084815260200190815260200160002060000160008373ffffffffffffffffffffffffffffffffffffffff1673ffffffffffffffffffffffffffffffffffffffff16815260200190815260200160002060009054906101000a900460ff16905092915050565b600033905090565b6000815190506200039c8162000421565b92915050565b600060208284031215620003bb57620003ba6200041c565b5b6000620003cb848285016200038b565b91505092915050565b6000620003e182620003fc565b9050919050565b6000620003f582620003d4565b9050919050565b600073ffffffffffffffffffffffffffffffffffffffff82169050919050565b600080fd5b6200042c81620003e8565b81146200043857600080fd5b50565b615f8c806200044b6000396000f3fe608060405234801561001057600080fd5b506004361061021c5760003560e01c80638cac73ff11610125578063d428dc2b116100ad578063e45ad64a1161007c578063e45ad64a146105ff578063e6a501001461061b578063f3fef3a314610637578063fbb5470c14610653578063fd1fc13e146106835761021c565b8063d428dc2b14610579578063d4fac45d14610597578063d547741f146105c7578063d6febde8146105e35761021c565b8063a217fddf116100f4578063a217fddf146104d7578063b8358a61146104f5578063bca9981914610511578063be29928e1461052d578063c661b89d1461055d5761021c565b80638cac73ff1461043d5780638ce5ab6a1461045957806391d14854146104775780639507d39a146104a75761021c565b80635a0a3d82116101a857806375b238fc1161017757806375b238fc146103a957806377e5c4a8146103c75780638456cb59146103e557806385d561ae146103ef5780638662732e1461040d5761021c565b80635a0a3d82146103355780635c975abb146103515780635dabb20e1461036f578063670436f11461038d5761021c565b80632b483c03116101ef5780632b483c03146102a75780632f2ff15d146102c5578063325c5d56146102e157806336568abe146102fd57806340e58ee5146103195761021c565b806301ffc9a714610221578063046f7da21461025157806314d91c841461025b578063248a9ca314610277575b600080fd5b61023b60048036038101906102369190614173565b61069f565b6040516102489190614d49565b60405180910390f35b6102596106b1565b005b61027560048036038101906102709190613fc7565b6106ee565b005b610291600480360381019061028c9190614106565b61077c565b60405161029e9190614d64565b60405180910390f35b6102af61079b565b6040516102bc91906151fd565b60405180910390f35b6102df60048036038101906102da9190614133565b6107a1565b005b6102fb60048036038101906102f6919061423e565b6107ca565b005b61031760048036038101906103129190614133565b61098c565b005b610333600480360381019061032e91906142b5565b610a0f565b005b61034f600480360381019061034a9190613db9565b610ddd565b005b610359610e37565b6040516103669190614d49565b60405180910390f35b610377610e4e565b60405161038491906151fd565b60405180910390f35b6103a760048036038101906103a29190613fc7565b610e54565b005b6103b1610ee2565b6040516103be9190614d64565b60405180910390f35b6103cf610f06565b6040516103dc91906151fd565b60405180910390f35b6103ed610f0c565b005b6103f7610f49565b60405161040491906151fd565b60405180910390f35b61042760048036038101906104229190613e26565b610f4f565b6040516104349190614d64565b60405180910390f35b6104576004803603810190610452919061423e565b610f96565b005b610461611744565b60405161046e91906151fd565b60405180910390f35b610491600480360381019061048c9190614133565b61174a565b60405161049e9190614d49565b60405180910390f35b6104c160048036038101906104bc91906142b5565b6117b4565b6040516104ce91906151e1565b60405180910390f35b6104df611951565b6040516104ec9190614d64565b60405180910390f35b61050f600480360381019061050a9190613edc565b611958565b005b61052b600480360381019061052691906142b5565b6121a3565b005b610547600480360381019061054291906141fc565b6121f3565b6040516105549190614d64565b60405180910390f35b610577600480360381019061057291906142b5565b61228e565b005b610581612310565b60405161058e91906151fd565b60405180910390f35b6105b160048036038101906105ac9190613de6565b612316565b6040516105be91906151fd565b60405180910390f35b6105e160048036038101906105dc9190614133565b61239d565b005b6105fd60048036038101906105f8919061430f565b6123c6565b005b610619600480360381019061061491906142b5565b612a2d565b005b610635600480360381019061063091906142b5565b612aaf565b005b610651600480360381019061064c9190614007565b612aec565b005b61066d600480360381019061066891906141a0565b612cd0565b60405161067a91906151fd565b60405180910390f35b61069d600480360381019061069891906142b5565b612d17565b005b60006106aa82612d54565b9050919050565b7fa49807205ce4d355092ef5a8a18f56e8913cf4a201fbe287825b095693c217756106e3816106de612dce565b612dd6565b6106eb612e73565b50565b7fa49807205ce4d355092ef5a8a18f56e8913cf4a201fbe287825b095693c217756107208161071b612dce565b612dd6565b81600c60008573ffffffffffffffffffffffffffffffffffffffff1673ffffffffffffffffffffffffffffffffffffffff16815260200190815260200160002060006101000a81548160ff021916908315150217905550505050565b6000806000838152602001908152602001600020600101549050919050565b60035481565b6107aa8261077c565b6107bb816107b6612dce565b612dd6565b6107c58383612f15565b505050565b60006107d685856121f3565b90506014600082815260200190815260200160002060009054906101000a900460ff1615610839576040517f08c379a000000000000000000000000000000000000000000000000000000000815260040161083090614fc1565b60405180910390fd5b6013600082815260200190815260200160002060009054906101000a900460ff161561089a576040517f08c379a000000000000000000000000000000000000000000000000000000000815260040161089190615061565b60405180910390fd5b6108f183838080601f016020809104026020016040519081016040528093929190818152602001838380828437600081840152601f19601f8201169050808301925050505050505082612ff590919063ffffffff16565b73ffffffffffffffffffffffffffffffffffffffff163373ffffffffffffffffffffffffffffffffffffffff161480610950575061094f7fa49807205ce4d355092ef5a8a18f56e8913cf4a201fbe287825b095693c217753361174a565b5b61095957600080fd5b60016013600083815260200190815260200160002060006101000a81548160ff0219169083151502179055505050505050565b610994612dce565b73ffffffffffffffffffffffffffffffffffffffff168173ffffffffffffffffffffffffffffffffffffffff1614610a01576040517f08c379a00000000000000000000000000000000000000000000000000000000081526004016109f8906151a1565b60405180910390fd5b610a0b82826130bf565b5050565b6000600a600083815260200190815260200160002060405180610120016040529081600082015481526020016001820160009054906101000a900473ffffffffffffffffffffffffffffffffffffffff1673ffffffffffffffffffffffffffffffffffffffff1673ffffffffffffffffffffffffffffffffffffffff1681526020016002820160009054906101000a900473ffffffffffffffffffffffffffffffffffffffff1673ffffffffffffffffffffffffffffffffffffffff1673ffffffffffffffffffffffffffffffffffffffff1681526020016003820154815260200160048201548152602001600582015481526020016006820160009054906101000a900473ffffffffffffffffffffffffffffffffffffffff1673ffffffffffffffffffffffffffffffffffffffff1673ffffffffffffffffffffffffffffffffffffffff168152602001600782015481526020016008820160009054906101000a900460ff166002811115610b8957610b886156fc565b5b6002811115610b9b57610b9a6156fc565b5b81525050905060006002811115610bb557610bb46156fc565b5b8161010001516002811115610bcd57610bcc6156fc565b5b14610c0d576040517f08c379a0000000000000000000000000000000000000000000000000000000008152600401610c0490614f01565b60405180910390fd5b806020015173ffffffffffffffffffffffffffffffffffffffff163373ffffffffffffffffffffffffffffffffffffffff161480610c715750610c707fa49807205ce4d355092ef5a8a18f56e8913cf4a201fbe287825b095693c217753361174a565b5b610cb0576040517f08c379a0000000000000000000000000000000000000000000000000000000008152600401610ca790614ea1565b60405180910390fd5b6002600a600084815260200190815260200160002060080160006101000a81548160ff02191690836002811115610cea57610ce96156fc565b5b0217905550601260009054906101000a900473ffffffffffffffffffffffffffffffffffffffff1673ffffffffffffffffffffffffffffffffffffffff16632ed7bae882604001513384606001518560a001516040518563ffffffff1660e01b8152600401610d5c9493929190614c88565b600060405180830381600087803b158015610d7657600080fd5b505af1158015610d8a573d6000803e3d6000fd5b505050507fc601fcdba72395d2bf26895fdc068bb88a1ff514bafce37723be90787ed0a4803383836040015184606001518560a00151604051610dd1959493929190614cf6565b60405180910390a15050565b6000801b610df281610ded612dce565b612dd6565b81601160006101000a81548173ffffffffffffffffffffffffffffffffffffffff021916908373ffffffffffffffffffffffffffffffffffffffff1602179055505050565b6000600160009054906101000a900460ff16905090565b60075481565b7fa49807205ce4d355092ef5a8a18f56e8913cf4a201fbe287825b095693c21775610e8681610e81612dce565b612dd6565b81600e60008573ffffffffffffffffffffffffffffffffffffffff1673ffffffffffffffffffffffffffffffffffffffff16815260200190815260200160002060006101000a81548160ff021916908315150217905550505050565b7fa49807205ce4d355092ef5a8a18f56e8913cf4a201fbe287825b095693c2177581565b60055481565b7fa49807205ce4d355092ef5a8a18f56e8913cf4a201fbe287825b095693c21775610f3e81610f39612dce565b612dd6565b610f466131a0565b50565b60065481565b6000308989898989898989604051602001610f7299989796959493929190614ac7565b60405160208183030381529060405280519060200120905098975050505050505050565b836020016020810190610fa99190613db9565b73ffffffffffffffffffffffffffffffffffffffff163373ffffffffffffffffffffffffffffffffffffffff1614611016576040517f08c379a000000000000000000000000000000000000000000000000000000000815260040161100d90615101565b60405180910390fd5b600c600085604001602081019061102d9190613db9565b73ffffffffffffffffffffffffffffffffffffffff1673ffffffffffffffffffffffffffffffffffffffff16815260200190815260200160002060009054906101000a900460ff166110b4576040517f08c379a00000000000000000000000000000000000000000000000000000000081526004016110ab90615001565b60405180910390fd5b600e60008560a00160208101906110cb9190613db9565b73ffffffffffffffffffffffffffffffffffffffff1673ffffffffffffffffffffffffffffffffffffffff16815260200190815260200160002060009054906101000a900460ff16611152576040517f08c379a000000000000000000000000000000000000000000000000000000000815260040161114990614f41565b60405180910390fd5b428460e0013511611198576040517f08c379a000000000000000000000000000000000000000000000000000000000815260040161118f906150a1565b60405180910390fd5b60006111a485856121f3565b90506013600082815260200190815260200160002060009054906101000a900460ff161580156111f257506014600082815260200190815260200160002060009054906101000a900460ff16155b611231576040517f08c379a0000000000000000000000000000000000000000000000000000000008152600401611228906151c1565b60405180910390fd5b600061129284848080601f016020809104026020016040519081016040528093929190818152602001838380828437600081840152601f19601f8201169050808301925050505050505061128484613242565b612ff590919063ffffffff16565b90508560000160208101906112a79190613db9565b73ffffffffffffffffffffffffffffffffffffffff168173ffffffffffffffffffffffffffffffffffffffff1614611314576040517f08c379a000000000000000000000000000000000000000000000000000000000815260040161130b90614ec1565b60405180910390fd5b6007548660c00135101561135d576040517f08c379a000000000000000000000000000000000000000000000000000000000815260040161135490615021565b60405180910390fd5b60008061136d8860c00135613272565b91509150808860c0013561138191906153a9565b8860a00160208101906113949190613db9565b73ffffffffffffffffffffffffffffffffffffffff1663dd62ed3e8a60000160208101906113c29190613db9565b306040518363ffffffff1660e01b81526004016113e0929190614c28565b60206040518083038186803b1580156113f857600080fd5b505afa15801561140c573d6000803e3d6000fd5b505050506040513d601f19601f8201168201806040525081019061143091906142e2565b1015611471576040517f08c379a000000000000000000000000000000000000000000000000000000000815260040161146890615181565b60405180910390fd5b60016014600086815260200190815260200160002060006101000a81548160ff021916908315150217905550601260009054906101000a900473ffffffffffffffffffffffffffffffffffffffff1673ffffffffffffffffffffffffffffffffffffffff166340fd58298960400160208101906114ee9190613db9565b338b606001358c608001356040518563ffffffff1660e01b81526004016115189493929190614c88565b600060405180830381600087803b15801561153257600080fd5b505af1158015611546573d6000803e3d6000fd5b505050508760a001602081019061155d9190613db9565b73ffffffffffffffffffffffffffffffffffffffff166323b872dd89600001602081019061158b9190613db9565b30848c60c0013561159c91906153a9565b6040518463ffffffff1660e01b81526004016115ba93929190614c51565b602060405180830381600087803b1580156115d457600080fd5b505af11580156115e8573d6000803e3d6000fd5b505050506040513d601f19601f8201168201806040525081019061160c91906140d9565b5060006116498960c0013584848c604001602081019061162c9190613db9565b8d606001358e60a00160208101906116449190613db9565b6132b4565b905061167a8960a00160208101906116619190613db9565b8a60200160208101906116749190613db9565b83613586565b601260009054906101000a900473ffffffffffffffffffffffffffffffffffffffff1673ffffffffffffffffffffffffffffffffffffffff16632ed7bae88a60400160208101906116cb9190613db9565b8b60000160208101906116de9190613db9565b8c606001358d608001356040518563ffffffff1660e01b81526004016117079493929190614c88565b600060405180830381600087803b15801561172157600080fd5b505af1158015611735573d6000803e3d6000fd5b50505050505050505050505050565b60025481565b600080600084815260200190815260200160002060000160008373ffffffffffffffffffffffffffffffffffffffff1673ffffffffffffffffffffffffffffffffffffffff16815260200190815260200160002060009054906101000a900460ff16905092915050565b6117bc613a4f565b600a600083815260200190815260200160002060405180610120016040529081600082015481526020016001820160009054906101000a900473ffffffffffffffffffffffffffffffffffffffff1673ffffffffffffffffffffffffffffffffffffffff1673ffffffffffffffffffffffffffffffffffffffff1681526020016002820160009054906101000a900473ffffffffffffffffffffffffffffffffffffffff1673ffffffffffffffffffffffffffffffffffffffff1673ffffffffffffffffffffffffffffffffffffffff1681526020016003820154815260200160048201548152602001600582015481526020016006820160009054906101000a900473ffffffffffffffffffffffffffffffffffffffff1673ffffffffffffffffffffffffffffffffffffffff1673ffffffffffffffffffffffffffffffffffffffff168152602001600782015481526020016008820160009054906101000a900460ff166002811115611934576119336156fc565b5b6002811115611946576119456156fc565b5b815250509050919050565b6000801b81565b611960610e37565b156119a0576040517f08c379a000000000000000000000000000000000000000000000000000000000815260040161199790614f81565b60405180910390fd5b6007548510156119e5576040517f08c379a00000000000000000000000000000000000000000000000000000000081526004016119dc90615021565b60405180910390fd5b600554851115611a2a576040517f08c379a0000000000000000000000000000000000000000000000000000000008152600401611a2190614fa1565b60405180910390fd5b600654871115611a6f576040517f08c379a0000000000000000000000000000000000000000000000000000000008152600401611a6690614fe1565b60405180910390fd5b600c60008a73ffffffffffffffffffffffffffffffffffffffff1673ffffffffffffffffffffffffffffffffffffffff16815260200190815260200160002060009054906101000a900460ff16611afb576040517f08c379a0000000000000000000000000000000000000000000000000000000008152600401611af290615001565b60405180910390fd5b600e60008773ffffffffffffffffffffffffffffffffffffffff1673ffffffffffffffffffffffffffffffffffffffff16815260200190815260200160002060009054906101000a900460ff16611b87576040517f08c379a0000000000000000000000000000000000000000000000000000000008152600401611b7e90614f41565b60405180910390fd5b611bb17fa49807205ce4d355092ef5a8a18f56e8913cf4a201fbe287825b095693c217753361174a565b611da057428411611bf7576040517f08c379a0000000000000000000000000000000000000000000000000000000008152600401611bee90615081565b60405180910390fd5b6000611c098b8b8b8b8b8b8b8b610f4f565b90506010600082815260200190815260200160002060009054906101000a900460ff1615611c6c576040517f08c379a0000000000000000000000000000000000000000000000000000000008152600401611c63906150e1565b60405180910390fd5b6000611ccd84848080601f016020809104026020016040519081016040528093929190818152602001838380828437600081840152601f19601f82011690508083019250505050505050611cbf84613242565b612ff590919063ffffffff16565b9050600073ffffffffffffffffffffffffffffffffffffffff168173ffffffffffffffffffffffffffffffffffffffff1614158015611d325750611d317fa49807205ce4d355092ef5a8a18f56e8913cf4a201fbe287825b095693c217758261174a565b5b611d71576040517f08c379a0000000000000000000000000000000000000000000000000000000008152600401611d6890615141565b60405180910390fd5b60016010600084815260200190815260200160002060006101000a81548160ff02191690831515021790555050505b8873ffffffffffffffffffffffffffffffffffffffff166301ffc9a77fd9b67a26000000000000000000000000000000000000000000000000000000006040518263ffffffff1660e01b8152600401611df99190614dc4565b60206040518083038186803b158015611e1157600080fd5b505afa158015611e25573d6000803e3d6000fd5b505050506040513d601f19601f82011682018060405250810190611e4991906140d9565b611e5257600196505b601260009054906101000a900473ffffffffffffffffffffffffffffffffffffffff1673ffffffffffffffffffffffffffffffffffffffff166340fd58298a8c8b8b6040518563ffffffff1660e01b8152600401611eb39493929190614c88565b600060405180830381600087803b158015611ecd57600080fd5b505af1158015611ee1573d6000803e3d6000fd5b5050505060096000815480929190611ef89061561d565b9190505550600060405180610120016040528060095481526020018c73ffffffffffffffffffffffffffffffffffffffff1681526020018b73ffffffffffffffffffffffffffffffffffffffff1681526020018a81526020018981526020018981526020018873ffffffffffffffffffffffffffffffffffffffff16815260200187815260200160006002811115611f9357611f926156fc565b5b815250905080600a600060095481526020019081526020016000206000820151816000015560208201518160010160006101000a81548173ffffffffffffffffffffffffffffffffffffffff021916908373ffffffffffffffffffffffffffffffffffffffff16021790555060408201518160020160006101000a81548173ffffffffffffffffffffffffffffffffffffffff021916908373ffffffffffffffffffffffffffffffffffffffff160217905550606082015181600301556080820151816004015560a0820151816005015560c08201518160060160006101000a81548173ffffffffffffffffffffffffffffffffffffffff021916908373ffffffffffffffffffffffffffffffffffffffff16021790555060e082015181600701556101008201518160080160006101000a81548160ff021916908360028111156120e1576120e06156fc565b5b021790555090505060088a8a6040516020016120fe929190614b6a565b60405160208183030381529060405260405161211a9190614b96565b908152602001604051809103902060095490806001815401808255809150506001900390600052602060002001600090919091909150557f8c043961a2a3de4608ff0a3647fa6bdef2510bbf7ea923cd9b68bd43de4040e46009548c8c8c8c8c8c60405161218e9796959493929190615218565b60405180910390a15050505050505050505050565b7fa49807205ce4d355092ef5a8a18f56e8913cf4a201fbe287825b095693c217756121d5816121d0612dce565b612dd6565b670de0b6b3a7640000826121e99190615430565b6005819055505050565b6000308360000160208101906122099190613db9565b84602001602081019061221c9190613db9565b85604001602081019061222f9190613db9565b866060013587608001358860a001602081019061224c9190613db9565b8960c001358a60e001358a6040516020016122709a99989796959493929190614a13565b60405160208183030381529060405280519060200120905092915050565b7fa49807205ce4d355092ef5a8a18f56e8913cf4a201fbe287825b095693c217756122c0816122bb612dce565b612dd6565b600454821115612305576040517f08c379a00000000000000000000000000000000000000000000000000000000081526004016122fc90615121565b60405180910390fd5b816003819055505050565b60045481565b6000600b60008373ffffffffffffffffffffffffffffffffffffffff1673ffffffffffffffffffffffffffffffffffffffff16815260200190815260200160002060008473ffffffffffffffffffffffffffffffffffffffff1673ffffffffffffffffffffffffffffffffffffffff16815260200190815260200160002054905092915050565b6123a68261077c565b6123b7816123b2612dce565b612dd6565b6123c183836130bf565b505050565b6123ce610e37565b1561240e576040517f08c379a000000000000000000000000000000000000000000000000000000000815260040161240590614f81565b60405180910390fd5b6000600a600084815260200190815260200160002060405180610120016040529081600082015481526020016001820160009054906101000a900473ffffffffffffffffffffffffffffffffffffffff1673ffffffffffffffffffffffffffffffffffffffff1673ffffffffffffffffffffffffffffffffffffffff1681526020016002820160009054906101000a900473ffffffffffffffffffffffffffffffffffffffff1673ffffffffffffffffffffffffffffffffffffffff1673ffffffffffffffffffffffffffffffffffffffff1681526020016003820154815260200160048201548152602001600582015481526020016006820160009054906101000a900473ffffffffffffffffffffffffffffffffffffffff1673ffffffffffffffffffffffffffffffffffffffff1673ffffffffffffffffffffffffffffffffffffffff168152602001600782015481526020016008820160009054906101000a900460ff166002811115612588576125876156fc565b5b600281111561259a576125996156fc565b5b815250509050600060028111156125b4576125b36156fc565b5b81610100015160028111156125cc576125cb6156fc565b5b1461260c576040517f08c379a000000000000000000000000000000000000000000000000000000000815260040161260390614ee1565b60405180910390fd5b8060a00151821115612653576040517f08c379a000000000000000000000000000000000000000000000000000000000815260040161264a90614e41565b60405180910390fd5b806020015173ffffffffffffffffffffffffffffffffffffffff163373ffffffffffffffffffffffffffffffffffffffff1614156126c6576040517f08c379a00000000000000000000000000000000000000000000000000000000081526004016126bd906150c1565b60405180910390fd5b6000828260e001516126d89190615430565b905060008260c0015190506000806126ef84613272565b9150915060008373ffffffffffffffffffffffffffffffffffffffff1663dd62ed3e33306040518363ffffffff1660e01b8152600401612730929190614c28565b60206040518083038186803b15801561274857600080fd5b505afa15801561275c573d6000803e3d6000fd5b505050506040513d601f19601f8201168201806040525081019061278091906142e2565b9050818561278e91906153a9565b8110156127d0576040517f08c379a00000000000000000000000000000000000000000000000000000000081526004016127c790614f61565b60405180910390fd5b8373ffffffffffffffffffffffffffffffffffffffff166323b872dd333085896127fa91906153a9565b6040518463ffffffff1660e01b815260040161281893929190614c51565b602060405180830381600087803b15801561283257600080fd5b505af1158015612846573d6000803e3d6000fd5b505050506040513d601f19601f8201168201806040525081019061286a91906140d9565b506000878760a0015161287d919061548a565b905080600a60008b815260200190815260200160002060050181905550600081141561291a576001600a60008b815260200190815260200160002060080160006101000a81548160ff021916908360028111156128dd576128dc6156fc565b5b02179055507f522881958b3c4a6fc0840ad3b7fb947b881edc28c004245a62541647422ade978960405161291191906151fd565b60405180910390a15b60006129368786868b604001518c606001518d60c001516132b4565b905061294b8860c00151896020015183613586565b601260009054906101000a900473ffffffffffffffffffffffffffffffffffffffff1673ffffffffffffffffffffffffffffffffffffffff16632ed7bae88960400151338b606001518d6040518563ffffffff1660e01b81526004016129b49493929190614c88565b600060405180830381600087803b1580156129ce57600080fd5b505af11580156129e2573d6000803e3d6000fd5b505050507f3b599f6217e39be59216b60e543ce0d4c7d534fe64dd9d962334924e7819894e8a338b604051612a1993929190615287565b60405180910390a150505050505050505050565b7fa49807205ce4d355092ef5a8a18f56e8913cf4a201fbe287825b095693c21775612a5f81612a5a612dce565b612dd6565b600454821115612aa4576040517f08c379a0000000000000000000000000000000000000000000000000000000008152600401612a9b90615121565b60405180910390fd5b816002819055505050565b7fa49807205ce4d355092ef5a8a18f56e8913cf4a201fbe287825b095693c21775612ae181612adc612dce565b612dd6565b816006819055505050565b80600b60003373ffffffffffffffffffffffffffffffffffffffff1673ffffffffffffffffffffffffffffffffffffffff16815260200190815260200160002060008473ffffffffffffffffffffffffffffffffffffffff1673ffffffffffffffffffffffffffffffffffffffff168152602001908152602001600020541015612bab576040517f08c379a0000000000000000000000000000000000000000000000000000000008152600401612ba290615161565b60405180910390fd5b80600b60003373ffffffffffffffffffffffffffffffffffffffff1673ffffffffffffffffffffffffffffffffffffffff16815260200190815260200160002060008473ffffffffffffffffffffffffffffffffffffffff1673ffffffffffffffffffffffffffffffffffffffff1681526020019081526020016000206000828254612c37919061548a565b925050819055508173ffffffffffffffffffffffffffffffffffffffff1663a9059cbb33836040518363ffffffff1660e01b8152600401612c79929190614ccd565b602060405180830381600087803b158015612c9357600080fd5b505af1158015612ca7573d6000803e3d6000fd5b505050506040513d601f19601f82011682018060405250810190612ccb91906140d9565b505050565b6008828051602081018201805184825260208301602085012081835280955050505050508181548110612d0257600080fd5b90600052602060002001600091509150505481565b7fa49807205ce4d355092ef5a8a18f56e8913cf4a201fbe287825b095693c21775612d4981612d44612dce565b612dd6565b816005819055505050565b60007f7965db0b000000000000000000000000000000000000000000000000000000007bffffffffffffffffffffffffffffffffffffffffffffffffffffffff1916827bffffffffffffffffffffffffffffffffffffffffffffffffffffffff19161480612dc75750612dc68261361e565b5b9050919050565b600033905090565b612de0828261174a565b612e6f57612e058173ffffffffffffffffffffffffffffffffffffffff166014613688565b612e138360001c6020613688565b604051602001612e24929190614bd3565b6040516020818303038152906040526040517f08c379a0000000000000000000000000000000000000000000000000000000008152600401612e669190614ddf565b60405180910390fd5b5050565b612e7b610e37565b612eba576040517f08c379a0000000000000000000000000000000000000000000000000000000008152600401612eb190614e61565b60405180910390fd5b6000600160006101000a81548160ff0219169083151502179055507f5db9ee0a495bf2e6ff9c91a7834c1ba4fdd244a5e8aa4e537bd38aeae4b073aa612efe612dce565b604051612f0b9190614c0d565b60405180910390a1565b612f1f828261174a565b612ff157600160008084815260200190815260200160002060000160008373ffffffffffffffffffffffffffffffffffffffff1673ffffffffffffffffffffffffffffffffffffffff16815260200190815260200160002060006101000a81548160ff021916908315150217905550612f96612dce565b73ffffffffffffffffffffffffffffffffffffffff168173ffffffffffffffffffffffffffffffffffffffff16837f2f8788117e7eff1d82e926ec794901d17c78024a50270940304540a733656f0d60405160405180910390a45b5050565b600080600080604185511415613022576020850151925060408501519150606085015160001a90506130a8565b60408551141561306c576040850151602086015193507f7fffffffffffffffffffffffffffffffffffffffffffffffffffffffffffffff81169250601b8160ff1c019150506130a7565b6040517f08c379a000000000000000000000000000000000000000000000000000000000815260040161309e90614e81565b60405180910390fd5b5b6130b4868285856138c4565b935050505092915050565b6130c9828261174a565b1561319c57600080600084815260200190815260200160002060000160008373ffffffffffffffffffffffffffffffffffffffff1673ffffffffffffffffffffffffffffffffffffffff16815260200190815260200160002060006101000a81548160ff021916908315150217905550613141612dce565b73ffffffffffffffffffffffffffffffffffffffff168173ffffffffffffffffffffffffffffffffffffffff16837ff6391f5c32d9c69d2a47ea670b442974b53935d1edc7fd64eb21e047a839171b60405160405180910390a45b5050565b6131a8610e37565b156131e8576040517f08c379a00000000000000000000000000000000000000000000000000000000081526004016131df90614f81565b60405180910390fd5b60018060006101000a81548160ff0219169083151502179055507f62e78cea01bee320cd4e420270b5ea74000d11b0c9f74754ebdbfc544b05a25861322b612dce565b6040516132389190614c0d565b60405180910390a1565b6000816040516020016132559190614bad565b604051602081830303815290604052805190602001209050919050565b600080600454600254846132869190615430565b61329091906153ff565b9050600454600354846132a39190615430565b6132ad91906153ff565b9150915091565b6000858711156132cd5785876132ca919061548a565b96505b86905061330882601160009054906101000a900473ffffffffffffffffffffffffffffffffffffffff16878961330391906153a9565b613586565b8373ffffffffffffffffffffffffffffffffffffffff166301ffc9a763b779958460e01b6040518263ffffffff1660e01b81526004016133489190614dc4565b60206040518083038186803b15801561336057600080fd5b505afa158015613374573d6000803e3d6000fd5b505050506040513d601f19601f8201168201806040525081019061339891906140d9565b6133a15761357c565b600084905060008173ffffffffffffffffffffffffffffffffffffffff1663b9c4d9fb866040518263ffffffff1660e01b81526004016133e191906151fd565b60006040518083038186803b1580156133f957600080fd5b505afa15801561340d573d6000803e3d6000fd5b505050506040513d6000823e3d601f19601f820116820180604052508101906134369190614047565b905060008273ffffffffffffffffffffffffffffffffffffffff16630ebd4c7f876040518263ffffffff1660e01b815260040161347391906151fd565b60006040518083038186803b15801561348b57600080fd5b505afa15801561349f573d6000803e3d6000fd5b505050506040513d6000823e3d601f19601f820116820180604052508101906134c89190614090565b905060005b81518110156135775760008514156134e457613577565b60006004548383815181106134fc576134fb61572b565b5b60200260200101518d61350f9190615430565b61351991906153ff565b90508581111561352f578590506000955061353e565b808661353b919061548a565b95505b613563878584815181106135555761355461572b565b5b602002602001015183613586565b50808061356f9061561d565b9150506134cd565b505050505b9695505050505050565b80600b60008473ffffffffffffffffffffffffffffffffffffffff1673ffffffffffffffffffffffffffffffffffffffff16815260200190815260200160002060008573ffffffffffffffffffffffffffffffffffffffff1673ffffffffffffffffffffffffffffffffffffffff168152602001908152602001600020600082825461361291906153a9565b92505081905550505050565b60007f01ffc9a7000000000000000000000000000000000000000000000000000000007bffffffffffffffffffffffffffffffffffffffffffffffffffffffff1916827bffffffffffffffffffffffffffffffffffffffffffffffffffffffff1916149050919050565b60606000600283600261369b9190615430565b6136a591906153a9565b67ffffffffffffffff8111156136be576136bd61575a565b5b6040519080825280601f01601f1916602001820160405280156136f05781602001600182028036833780820191505090505b5090507f3000000000000000000000000000000000000000000000000000000000000000816000815181106137285761372761572b565b5b60200101907effffffffffffffffffffffffffffffffffffffffffffffffffffffffffffff1916908160001a9053507f78000000000000000000000000000000000000000000000000000000000000008160018151811061378c5761378b61572b565b5b60200101907effffffffffffffffffffffffffffffffffffffffffffffffffffffffffffff1916908160001a905350600060018460026137cc9190615430565b6137d691906153a9565b90505b6001811115613876577f3031323334353637383961626364656600000000000000000000000000000000600f8616601081106138185761381761572b565b5b1a60f81b82828151811061382f5761382e61572b565b5b60200101907effffffffffffffffffffffffffffffffffffffffffffffffffffffffffffff1916908160001a905350600485901c94508061386f906155c2565b90506137d9565b50600084146138ba576040517f08c379a00000000000000000000000000000000000000000000000000000000081526004016138b190614e21565b60405180910390fd5b8091505092915050565b60007f7fffffffffffffffffffffffffffffff5d576e7357a4501ddfe92f46681b20a08260001c111561392c576040517f08c379a000000000000000000000000000000000000000000000000000000000815260040161392390614f21565b60405180910390fd5b601b8460ff1614806139415750601c8460ff16145b613980576040517f08c379a000000000000000000000000000000000000000000000000000000000815260040161397790615041565b60405180910390fd5b6000600186868686604051600081526020016040526040516139a59493929190614d7f565b6020604051602081039080840390855afa1580156139c7573d6000803e3d6000fd5b505050602060405103519050600073ffffffffffffffffffffffffffffffffffffffff168173ffffffffffffffffffffffffffffffffffffffff161415613a43576040517f08c379a0000000000000000000000000000000000000000000000000000000008152600401613a3a90614e01565b60405180910390fd5b80915050949350505050565b60405180610120016040528060008152602001600073ffffffffffffffffffffffffffffffffffffffff168152602001600073ffffffffffffffffffffffffffffffffffffffff168152602001600081526020016000815260200160008152602001600073ffffffffffffffffffffffffffffffffffffffff1681526020016000815260200160006002811115613ae957613ae86156fc565b5b81525090565b6000613b02613afd846152e3565b6152be565b90508083825260208201905082856020860282011115613b2557613b24615798565b5b60005b85811015613b555781613b3b8882613c26565b845260208401935060208301925050600181019050613b28565b5050509392505050565b6000613b72613b6d8461530f565b6152be565b90508083825260208201905082856020860282011115613b9557613b94615798565b5b60005b85811015613bc55781613bab8882613da4565b845260208401935060208301925050600181019050613b98565b5050509392505050565b6000613be2613bdd8461533b565b6152be565b905082815260208101848484011115613bfe57613bfd61579d565b5b613c09848285615580565b509392505050565b600081359050613c2081615ecc565b92915050565b600081519050613c3581615ee3565b92915050565b600082601f830112613c5057613c4f61578e565b5b8151613c60848260208601613aef565b91505092915050565b600082601f830112613c7e57613c7d61578e565b5b8151613c8e848260208601613b5f565b91505092915050565b600081359050613ca681615efa565b92915050565b600081519050613cbb81615efa565b92915050565b600081359050613cd081615f11565b92915050565b600081359050613ce581615f28565b92915050565b60008083601f840112613d0157613d0061578e565b5b8235905067ffffffffffffffff811115613d1e57613d1d615789565b5b602083019150836001820283011115613d3a57613d39615798565b5b9250929050565b600082601f830112613d5657613d5561578e565b5b8135613d66848260208601613bcf565b91505092915050565b60006101008284031215613d8657613d85615793565b5b81905092915050565b600081359050613d9e81615f3f565b92915050565b600081519050613db381615f3f565b92915050565b600060208284031215613dcf57613dce6157a7565b5b6000613ddd84828501613c11565b91505092915050565b60008060408385031215613dfd57613dfc6157a7565b5b6000613e0b85828601613c11565b9250506020613e1c85828601613c11565b9150509250929050565b600080600080600080600080610100898b031215613e4757613e466157a7565b5b6000613e558b828c01613c11565b9850506020613e668b828c01613c11565b9750506040613e778b828c01613d8f565b9650506060613e888b828c01613d8f565b9550506080613e998b828c01613c11565b94505060a0613eaa8b828c01613d8f565b93505060c0613ebb8b828c01613d8f565b92505060e0613ecc8b828c01613d8f565b9150509295985092959890939650565b6000806000806000806000806000806101208b8d031215613f0057613eff6157a7565b5b6000613f0e8d828e01613c11565b9a50506020613f1f8d828e01613c11565b9950506040613f308d828e01613d8f565b9850506060613f418d828e01613d8f565b9750506080613f528d828e01613c11565b96505060a0613f638d828e01613d8f565b95505060c0613f748d828e01613d8f565b94505060e0613f858d828e01613d8f565b9350506101008b013567ffffffffffffffff811115613fa757613fa66157a2565b5b613fb38d828e01613ceb565b92509250509295989b9194979a5092959850565b60008060408385031215613fde57613fdd6157a7565b5b6000613fec85828601613c11565b9250506020613ffd85828601613c97565b9150509250929050565b6000806040838503121561401e5761401d6157a7565b5b600061402c85828601613c11565b925050602061403d85828601613d8f565b9150509250929050565b60006020828403121561405d5761405c6157a7565b5b600082015167ffffffffffffffff81111561407b5761407a6157a2565b5b61408784828501613c3b565b91505092915050565b6000602082840312156140a6576140a56157a7565b5b600082015167ffffffffffffffff8111156140c4576140c36157a2565b5b6140d084828501613c69565b91505092915050565b6000602082840312156140ef576140ee6157a7565b5b60006140fd84828501613cac565b91505092915050565b60006020828403121561411c5761411b6157a7565b5b600061412a84828501613cc1565b91505092915050565b6000806040838503121561414a576141496157a7565b5b600061415885828601613cc1565b925050602061416985828601613c11565b9150509250929050565b600060208284031215614189576141886157a7565b5b600061419784828501613cd6565b91505092915050565b600080604083850312156141b7576141b66157a7565b5b600083013567ffffffffffffffff8111156141d5576141d46157a2565b5b6141e185828601613d41565b92505060206141f285828601613d8f565b9150509250929050565b6000806101208385031215614214576142136157a7565b5b600061422285828601613d6f565b92505061010061423485828601613d8f565b9150509250929050565b6000806000806101408587031215614259576142586157a7565b5b600061426787828801613d6f565b94505061010061427987828801613d8f565b93505061012085013567ffffffffffffffff81111561429b5761429a6157a2565b5b6142a787828801613ceb565b925092505092959194509250565b6000602082840312156142cb576142ca6157a7565b5b60006142d984828501613d8f565b91505092915050565b6000602082840312156142f8576142f76157a7565b5b600061430684828501613da4565b91505092915050565b60008060408385031215614326576143256157a7565b5b600061433485828601613d8f565b925050602061434585828601613d8f565b9150509250929050565b614358816154be565b82525050565b614367816154be565b82525050565b61437e614379826154be565b615666565b82525050565b61438d816154e2565b82525050565b61439c816154ee565b82525050565b6143b36143ae826154ee565b615678565b82525050565b6143c2816154f8565b82525050565b60006143d38261536c565b6143dd8185615382565b93506143ed81856020860161558f565b80840191505092915050565b6144028161556e565b82525050565b600061441382615377565b61441d818561538d565b935061442d81856020860161558f565b614436816157ac565b840191505092915050565b600061444c82615377565b614456818561539e565b935061446681856020860161558f565b80840191505092915050565b600061447f60188361538d565b915061448a826157ca565b602082019050919050565b60006144a260208361538d565b91506144ad826157f3565b602082019050919050565b60006144c5601b8361538d565b91506144d08261581c565b602082019050919050565b60006144e860148361538d565b91506144f382615845565b602082019050919050565b600061450b601f8361538d565b91506145168261586e565b602082019050919050565b600061452e601c8361539e565b915061453982615897565b601c82019050919050565b600061455160298361538d565b915061455c826158c0565b604082019050919050565b600061457460268361538d565b915061457f8261590f565b604082019050919050565b600061459760128361538d565b91506145a28261595e565b602082019050919050565b60006145ba601f8361538d565b91506145c582615987565b602082019050919050565b60006145dd60228361538d565b91506145e8826159b0565b604082019050919050565b600061460060188361538d565b915061460b826159ff565b602082019050919050565b600061462360158361538d565b915061462e82615a28565b602082019050919050565b600061464660108361538d565b915061465182615a51565b602082019050919050565b600061466960128361538d565b915061467482615a7a565b602082019050919050565b600061468c60218361538d565b915061469782615aa3565b604082019050919050565b60006146af60198361538d565b91506146ba82615af2565b602082019050919050565b60006146d2601e8361538d565b91506146dd82615b1b565b602082019050919050565b60006146f560118361538d565b915061470082615b44565b602082019050919050565b600061471860228361538d565b915061472382615b6d565b604082019050919050565b600061473b60218361538d565b915061474682615bbc565b604082019050919050565b600061475e60118361538d565b915061476982615c0b565b602082019050919050565b600061478160118361538d565b915061478c82615c34565b602082019050919050565b60006147a460178361538d565b91506147af82615c5d565b602082019050919050565b60006147c760138361538d565b91506147d282615c86565b602082019050919050565b60006147ea601d8361538d565b91506147f582615caf565b602082019050919050565b600061480d60178361539e565b915061481882615cd8565b601782019050919050565b6000614830602a8361538d565b915061483b82615d01565b604082019050919050565b600061485360128361538d565b915061485e82615d50565b602082019050919050565b600061487660218361538d565b915061488182615d79565b604082019050919050565b6000614899601f8361538d565b91506148a482615dc8565b602082019050919050565b60006148bc60118361539e565b91506148c782615df1565b601182019050919050565b60006148df602f8361538d565b91506148ea82615e1a565b604082019050919050565b600061490260268361538d565b915061490d82615e69565b604082019050919050565b6101208201600082015161492f60008501826149cf565b506020820151614942602085018261434f565b506040820151614955604085018261434f565b50606082015161496860608501826149cf565b50608082015161497b60808501826149cf565b5060a082015161498e60a08501826149cf565b5060c08201516149a160c085018261434f565b5060e08201516149b460e08501826149cf565b506101008201516149c96101008501826143f9565b50505050565b6149d881615557565b82525050565b6149e781615557565b82525050565b6149fe6149f982615557565b615694565b82525050565b614a0d81615561565b82525050565b6000614a1f828d61436d565b601482019150614a2f828c61436d565b601482019150614a3f828b61436d565b601482019150614a4f828a61436d565b601482019150614a5f82896149ed565b602082019150614a6f82886149ed565b602082019150614a7f828761436d565b601482019150614a8f82866149ed565b602082019150614a9f82856149ed565b602082019150614aaf82846149ed565b6020820191508190509b9a5050505050505050505050565b6000614ad3828c61436d565b601482019150614ae3828b61436d565b601482019150614af3828a61436d565b601482019150614b0382896149ed565b602082019150614b1382886149ed565b602082019150614b23828761436d565b601482019150614b3382866149ed565b602082019150614b4382856149ed565b602082019150614b5382846149ed565b6020820191508190509a9950505050505050505050565b6000614b76828561436d565b601482019150614b8682846149ed565b6020820191508190509392505050565b6000614ba282846143c8565b915081905092915050565b6000614bb882614521565b9150614bc482846143a2565b60208201915081905092915050565b6000614bde82614800565b9150614bea8285614441565b9150614bf5826148af565b9150614c018284614441565b91508190509392505050565b6000602082019050614c22600083018461435e565b92915050565b6000604082019050614c3d600083018561435e565b614c4a602083018461435e565b9392505050565b6000606082019050614c66600083018661435e565b614c73602083018561435e565b614c8060408301846149de565b949350505050565b6000608082019050614c9d600083018761435e565b614caa602083018661435e565b614cb760408301856149de565b614cc460608301846149de565b95945050505050565b6000604082019050614ce2600083018561435e565b614cef60208301846149de565b9392505050565b600060a082019050614d0b600083018861435e565b614d1860208301876149de565b614d25604083018661435e565b614d3260608301856149de565b614d3f60808301846149de565b9695505050505050565b6000602082019050614d5e6000830184614384565b92915050565b6000602082019050614d796000830184614393565b92915050565b6000608082019050614d946000830187614393565b614da16020830186614a04565b614dae6040830185614393565b614dbb6060830184614393565b95945050505050565b6000602082019050614dd960008301846143b9565b92915050565b60006020820190508181036000830152614df98184614408565b905092915050565b60006020820190508181036000830152614e1a81614472565b9050919050565b60006020820190508181036000830152614e3a81614495565b9050919050565b60006020820190508181036000830152614e5a816144b8565b9050919050565b60006020820190508181036000830152614e7a816144db565b9050919050565b60006020820190508181036000830152614e9a816144fe565b9050919050565b60006020820190508181036000830152614eba81614544565b9050919050565b60006020820190508181036000830152614eda81614567565b9050919050565b60006020820190508181036000830152614efa8161458a565b9050919050565b60006020820190508181036000830152614f1a816145ad565b9050919050565b60006020820190508181036000830152614f3a816145d0565b9050919050565b60006020820190508181036000830152614f5a816145f3565b9050919050565b60006020820190508181036000830152614f7a81614616565b9050919050565b60006020820190508181036000830152614f9a81614639565b9050919050565b60006020820190508181036000830152614fba8161465c565b9050919050565b60006020820190508181036000830152614fda8161467f565b9050919050565b60006020820190508181036000830152614ffa816146a2565b9050919050565b6000602082019050818103600083015261501a816146c5565b9050919050565b6000602082019050818103600083015261503a816146e8565b9050919050565b6000602082019050818103600083015261505a8161470b565b9050919050565b6000602082019050818103600083015261507a8161472e565b9050919050565b6000602082019050818103600083015261509a81614751565b9050919050565b600060208201905081810360008301526150ba81614774565b9050919050565b600060208201905081810360008301526150da81614797565b9050919050565b600060208201905081810360008301526150fa816147ba565b9050919050565b6000602082019050818103600083015261511a816147dd565b9050919050565b6000602082019050818103600083015261513a81614823565b9050919050565b6000602082019050818103600083015261515a81614846565b9050919050565b6000602082019050818103600083015261517a81614869565b9050919050565b6000602082019050818103600083015261519a8161488c565b9050919050565b600060208201905081810360008301526151ba816148d2565b9050919050565b600060208201905081810360008301526151da816148f5565b9050919050565b6000610120820190506151f76000830184614918565b92915050565b600060208201905061521260008301846149de565b92915050565b600060e08201905061522d600083018a6149de565b61523a602083018961435e565b615247604083018861435e565b61525460608301876149de565b61526160808301866149de565b61526e60a083018561435e565b61527b60c08301846149de565b98975050505050505050565b600060608201905061529c60008301866149de565b6152a9602083018561435e565b6152b660408301846149de565b949350505050565b60006152c86152d9565b90506152d482826155ec565b919050565b6000604051905090565b600067ffffffffffffffff8211156152fe576152fd61575a565b5b602082029050602081019050919050565b600067ffffffffffffffff82111561532a5761532961575a565b5b602082029050602081019050919050565b600067ffffffffffffffff8211156153565761535561575a565b5b61535f826157ac565b9050602081019050919050565b600081519050919050565b600081519050919050565b600081905092915050565b600082825260208201905092915050565b600081905092915050565b60006153b482615557565b91506153bf83615557565b9250827fffffffffffffffffffffffffffffffffffffffffffffffffffffffffffffffff038211156153f4576153f361569e565b5b828201905092915050565b600061540a82615557565b915061541583615557565b925082615425576154246156cd565b5b828204905092915050565b600061543b82615557565b915061544683615557565b9250817fffffffffffffffffffffffffffffffffffffffffffffffffffffffffffffffff048311821515161561547f5761547e61569e565b5b828202905092915050565b600061549582615557565b91506154a083615557565b9250828210156154b3576154b261569e565b5b828203905092915050565b60006154c982615537565b9050919050565b60006154db82615537565b9050919050565b60008115159050919050565b6000819050919050565b60007fffffffff0000000000000000000000000000000000000000000000000000000082169050919050565b600081905061553282615eb8565b919050565b600073ffffffffffffffffffffffffffffffffffffffff82169050919050565b6000819050919050565b600060ff82169050919050565b600061557982615524565b9050919050565b82818337600083830152505050565b60005b838110156155ad578082015181840152602081019050615592565b838111156155bc576000848401525b50505050565b60006155cd82615557565b915060008214156155e1576155e061569e565b5b600182039050919050565b6155f5826157ac565b810181811067ffffffffffffffff821117156156145761561361575a565b5b80604052505050565b600061562882615557565b91507fffffffffffffffffffffffffffffffffffffffffffffffffffffffffffffffff82141561565b5761565a61569e565b5b600182019050919050565b600061567182615682565b9050919050565b6000819050919050565b600061568d826157bd565b9050919050565b6000819050919050565b7f4e487b7100000000000000000000000000000000000000000000000000000000600052601160045260246000fd5b7f4e487b7100000000000000000000000000000000000000000000000000000000600052601260045260246000fd5b7f4e487b7100000000000000000000000000000000000000000000000000000000600052602160045260246000fd5b7f4e487b7100000000000000000000000000000000000000000000000000000000600052603260045260246000fd5b7f4e487b7100000000000000000000000000000000000000000000000000000000600052604160045260246000fd5b600080fd5b600080fd5b600080fd5b600080fd5b600080fd5b600080fd5b600080fd5b6000601f19601f8301169050919050565b60008160601b9050919050565b7f45434453413a20696e76616c6964207369676e61747572650000000000000000600082015250565b7f537472696e67733a20686578206c656e67746820696e73756666696369656e74600082015250565b7f4e6f7420656e6f75676820746f6b656e7320666f722073616c652e0000000000600082015250565b7f5061757361626c653a206e6f7420706175736564000000000000000000000000600082015250565b7f45434453413a20696e76616c6964207369676e6174757265206c656e67746800600082015250565b7f19457468657265756d205369676e6564204d6573736167653a0a333200000000600082015250565b7f4f6e6c792073656c6c6572206f722061646d696e2063616e20636c6f7365207460008201527f68652074726164652e0000000000000000000000000000000000000000000000602082015250565b7f4f66666572206e6565647320746f206265207369676e6564206279207468652060008201527f62757965722e0000000000000000000000000000000000000000000000000000602082015250565b7f5472616465206973206e6f74206f70656e2e0000000000000000000000000000600082015250565b7f4f6e6c79206f70656e207472616465732063616e20626520636c6f7365642e00600082015250565b7f45434453413a20696e76616c6964207369676e6174757265202773272076616c60008201527f7565000000000000000000000000000000000000000000000000000000000000602082015250565b7f43757272656e6379206973206e6f7420616c6c6f7765642e0000000000000000600082015250565b7f416c6c6f77616e636520697320746f6f206c6f772e0000000000000000000000600082015250565b7f5061757361626c653a2070617573656400000000000000000000000000000000600082015250565b7f507269636520697320746f6f20686967682e0000000000000000000000000000600082015250565b7f4f666665722068617320616c7265616479206265656e2066756c66696c6c656460008201527f2e00000000000000000000000000000000000000000000000000000000000000602082015250565b7f5175616e746974792065786365656473206d6178696d756d2e00000000000000600082015250565b7f546f6b656e20636f6e7472616374206973206e6f7420616c6c6f7765642e0000600082015250565b7f507269636520697320746f6f206c6f772e000000000000000000000000000000600082015250565b7f45434453413a20696e76616c6964207369676e6174757265202776272076616c60008201527f7565000000000000000000000000000000000000000000000000000000000000602082015250565b7f4f666665722068617320616c7265616479206265656e2063616e63656c6c656460008201527f2e00000000000000000000000000000000000000000000000000000000000000602082015250565b7f417070726f76616c20657870697265642e000000000000000000000000000000600082015250565b7f4f6666657220697320657870697265642e000000000000000000000000000000600082015250565b7f53656c6c65722063616e6e6f742062652062757965722e000000000000000000600082015250565b7f417070726f76616c206578686175737465642e00000000000000000000000000600082015250565b7f4f6e6c792073656c6c65722063616e20616363657074206f666665722e000000600082015250565b7f416363657373436f6e74726f6c3a206163636f756e7420000000000000000000600082015250565b7f4665652063616e6e6f7420626520686967686572207468616e2068756e64726560008201527f642070657263656e742e00000000000000000000000000000000000000000000602082015250565b7f496e76616c6964207369676e61747572652e0000000000000000000000000000600082015250565b7f496e73756666696369656e742062616c616e636520746f20776974686472617760008201527f2e00000000000000000000000000000000000000000000000000000000000000602082015250565b7f42757965722068617320696e73756666696369656e742062616c616e63652e00600082015250565b7f206973206d697373696e6720726f6c6520000000000000000000000000000000600082015250565b7f416363657373436f6e74726f6c3a2063616e206f6e6c792072656e6f756e636560008201527f20726f6c657320666f722073656c660000000000000000000000000000000000602082015250565b7f4f6666657220686173206265656e2066756c66696c6c6564206f722063616e6360008201527f656c6c65642e0000000000000000000000000000000000000000000000000000602082015250565b60038110615ec957615ec86156fc565b5b50565b615ed5816154be565b8114615ee057600080fd5b50565b615eec816154d0565b8114615ef757600080fd5b50565b615f03816154e2565b8114615f0e57600080fd5b50565b615f1a816154ee565b8114615f2557600080fd5b50565b615f31816154f8565b8114615f3c57600080fd5b50565b615f4881615557565b8114615f5357600080fd5b5056fea2646970667358221220619986f09efd0d1fcf41b40b428c733512fbd6427ecc06bbd7a7a2af0f9aec1364736f6c63430008070033",
  "immutableReferences": {},
  "source": "// SPDX-License-Identifier: MIT\r\npragma solidity ^0.8.0;\r\n\r\nimport \"../openzeppelin/contracts/token/ERC1155/IERC1155.sol\";\r\nimport \"../openzeppelin/contracts/token/ERC20/IERC20.sol\";\r\nimport \"../openzeppelin/contracts/utils/cryptography/ECDSA.sol\";\r\nimport \"../openzeppelin/contracts/access/Ownable.sol\";\r\nimport \"./MarketV1.sol\";\r\n\r\nstruct Offer {\r\n  address buyer;\r\n  address seller;\r\n  address token;\r\n  uint tokenId;\r\n  uint quantity;\r\n  address currency;\r\n  uint price;\r\n  uint expiry;\r\n}\r\n\r\ncontract OfferMarketV1 is MarketV1 {\r\n  using ECDSA for bytes32;\r\n\r\n  event AcceptOffer(\r\n    address indexed seller,\r\n    address indexed buyer,\r\n    address token,\r\n    address tokenId,\r\n    uint quantity,\r\n    address currency,\r\n    uint price\r\n  );\r\n\r\n  event CancelOffer(\r\n    address indexed sender,\r\n    address token,\r\n    address tokenId,\r\n    uint quantity,\r\n    address currency,\r\n    uint price\r\n  );\r\n\r\n  mapping(bytes32 => bool) private _cancelled;\r\n  mapping(bytes32 => bool) private _completed;\r\n\r\n  constructor(MarketWalletV1 wallet) MarketV1(wallet) {}\r\n\r\n  function acceptOffer(Offer calldata offer, uint salt, bytes calldata signature) public {\r\n    require(msg.sender == offer.seller, \"Only seller can accept offer.\");\r\n\r\n    require(_approvedTokens[offer.token], \"Token contract is not allowed.\");\r\n    require(_approvedCurrencies[offer.currency], \"Currency is not allowed.\");\r\n    \r\n    require(offer.expiry > block.timestamp, \"Offer is expired.\");\r\n\r\n    bytes32 offerHash = getOfferHash(offer, salt);\r\n\r\n    require(\r\n      !_cancelled[offerHash] && !_completed[offerHash],\r\n      \"Offer has been fulfilled or cancelled.\"\r\n    );\r\n    \r\n    address recoveredAddress = offerHash\r\n      .toEthSignedMessageHash()\r\n      .recover(signature);\r\n\r\n    require(\r\n      recoveredAddress == offer.buyer,\r\n      \"Offer needs to be signed by the buyer.\"\r\n    );\r\n\r\n    require(offer.price >= minTokenPrice, \"Price is too low.\");\r\n\r\n    (uint sellerFee, uint buyerFee) = calculateMarketFees(offer.price);\r\n\r\n    require(\r\n      IERC20(offer.currency).allowance(\r\n        offer.buyer,\r\n        address(this)\r\n      ) >= offer.price + buyerFee,\r\n      \"Buyer has insufficient balance.\"\r\n    );\r\n\r\n    _completed[offerHash] = true;\r\n    \r\n    _wallet.take(\r\n      offer.token,\r\n      msg.sender,\r\n      offer.tokenId,\r\n      offer.quantity\r\n    );\r\n\r\n    IERC20(offer.currency).transferFrom(\r\n      offer.buyer,\r\n      address(this),\r\n      offer.price + buyerFee\r\n    );\r\n    \r\n    uint sellerNet = payAfterFees(\r\n      offer.price,\r\n      sellerFee,\r\n      buyerFee,\r\n      offer.token,\r\n      offer.tokenId,\r\n      offer.currency\r\n    );\r\n\r\n    pay(offer.currency, offer.seller, sellerNet);\r\n\r\n    _wallet.give(\r\n      offer.token,\r\n      offer.buyer,\r\n      offer.tokenId,\r\n      offer.quantity\r\n    );\r\n  }\r\n\r\n  function getOfferHash(Offer calldata offer, uint salt) public view returns (bytes32) {\r\n    return keccak256(abi.encodePacked(\r\n      address(this),\r\n      offer.buyer,\r\n      offer.seller,\r\n      offer.token,\r\n      offer.tokenId,\r\n      offer.quantity,\r\n      offer.currency,\r\n      offer.price,\r\n      offer.expiry,\r\n      salt\r\n    ));\r\n  }\r\n\r\n  // Only offer maker and market owner can cancel\r\n  function cancelOffer(Offer calldata offer, uint nonce, bytes calldata signature) public {\r\n    bytes32 offerHash = getOfferHash(offer, nonce);\r\n\r\n    require(!_completed[offerHash], \"Offer has already been fulfilled.\");\r\n    require(!_cancelled[offerHash], \"Offer has already been cancelled.\");\r\n\r\n    require(msg.sender == offerHash.recover(signature) || hasRole(ADMIN_ROLE, msg.sender));\r\n    \r\n    _cancelled[offerHash] = true;\r\n  }\r\n}",
  "sourcePath": "C:/Users/Husnain/Documents/Projects/Fanbase/fanbase/packages/ethereum/contracts/solidity/collectibles/OfferMarketV1.sol",
  "compiler": {
    "name": "solc",
    "version": "0.8.7+commit.e28d00a7.Emscripten.clang"
  },
  "schemaVersion": "3.4.1",
  "updatedAt": "2021-08-24T16:52:57.138Z",
  "networkType": "ethereum",
  "devdoc": {
    "kind": "dev",
    "methods": {
      "getRoleAdmin(bytes32)": {
        "details": "Returns the admin role that controls `role`. See {grantRole} and {revokeRole}. To change a role's admin, use {_setRoleAdmin}."
      },
      "grantRole(bytes32,address)": {
        "details": "Grants `role` to `account`. If `account` had not been already granted `role`, emits a {RoleGranted} event. Requirements: - the caller must have ``role``'s admin role."
      },
      "hasRole(bytes32,address)": {
        "details": "Returns `true` if `account` has been granted `role`."
      },
      "paused()": {
        "details": "Returns true if the contract is paused, and false otherwise."
      },
      "renounceRole(bytes32,address)": {
        "details": "Revokes `role` from the calling account. Roles are often managed via {grantRole} and {revokeRole}: this function's purpose is to provide a mechanism for accounts to lose their privileges if they are compromised (such as when a trusted device is misplaced). If the calling account had been granted `role`, emits a {RoleRevoked} event. Requirements: - the caller must be `account`."
      },
      "revokeRole(bytes32,address)": {
        "details": "Revokes `role` from `account`. If `account` had been granted `role`, emits a {RoleRevoked} event. Requirements: - the caller must have ``role``'s admin role."
      }
    },
    "version": 1
  },
  "userdoc": {
    "kind": "user",
    "methods": {},
    "version": 1
  }
}