{
  "contractName": "OfferMarketV1",
  "abi": [
    {
      "inputs": [
        {
          "internalType": "contract MarketWalletV1",
          "name": "wallet",
          "type": "address"
        }
      ],
      "stateMutability": "nonpayable",
      "type": "constructor"
    },
    {
      "anonymous": false,
      "inputs": [
        {
          "indexed": true,
          "internalType": "address",
          "name": "seller",
          "type": "address"
        },
        {
          "indexed": true,
          "internalType": "address",
          "name": "buyer",
          "type": "address"
        },
        {
          "indexed": false,
          "internalType": "address",
          "name": "token",
          "type": "address"
        },
        {
          "indexed": false,
          "internalType": "address",
          "name": "tokenId",
          "type": "address"
        },
        {
          "indexed": false,
          "internalType": "uint256",
          "name": "quantity",
          "type": "uint256"
        },
        {
          "indexed": false,
          "internalType": "address",
          "name": "currency",
          "type": "address"
        },
        {
          "indexed": false,
          "internalType": "uint256",
          "name": "price",
          "type": "uint256"
        }
      ],
      "name": "AcceptOffer",
      "type": "event"
    },
    {
      "anonymous": false,
      "inputs": [
        {
          "indexed": false,
          "internalType": "uint256",
          "name": "tradeId",
          "type": "uint256"
        },
        {
          "indexed": false,
          "internalType": "address",
          "name": "buyer",
          "type": "address"
        },
        {
          "indexed": false,
          "internalType": "uint256",
          "name": "quantity",
          "type": "uint256"
        }
      ],
      "name": "Buy",
      "type": "event"
    },
    {
      "anonymous": false,
      "inputs": [
        {
          "indexed": false,
          "internalType": "address",
          "name": "operator",
          "type": "address"
        },
        {
          "indexed": false,
          "internalType": "uint256",
          "name": "tradeId",
          "type": "uint256"
        },
        {
          "indexed": false,
          "internalType": "address",
          "name": "tokenContract",
          "type": "address"
        },
        {
          "indexed": false,
          "internalType": "uint256",
          "name": "tokenId",
          "type": "uint256"
        },
        {
          "indexed": false,
          "internalType": "uint256",
          "name": "returned",
          "type": "uint256"
        }
      ],
      "name": "CancelListing",
      "type": "event"
    },
    {
      "anonymous": false,
      "inputs": [
        {
          "indexed": true,
          "internalType": "address",
          "name": "sender",
          "type": "address"
        },
        {
          "indexed": false,
          "internalType": "address",
          "name": "token",
          "type": "address"
        },
        {
          "indexed": false,
          "internalType": "address",
          "name": "tokenId",
          "type": "address"
        },
        {
          "indexed": false,
          "internalType": "uint256",
          "name": "quantity",
          "type": "uint256"
        },
        {
          "indexed": false,
          "internalType": "address",
          "name": "currency",
          "type": "address"
        },
        {
          "indexed": false,
          "internalType": "uint256",
          "name": "price",
          "type": "uint256"
        }
      ],
      "name": "CancelOffer",
      "type": "event"
    },
    {
      "anonymous": false,
      "inputs": [
        {
          "indexed": false,
          "internalType": "uint256",
          "name": "tradeId",
          "type": "uint256"
        },
        {
          "indexed": false,
          "internalType": "address",
          "name": "seller",
          "type": "address"
        },
        {
          "indexed": false,
          "internalType": "address",
          "name": "tokenContract",
          "type": "address"
        },
        {
          "indexed": false,
          "internalType": "uint256",
          "name": "tokenId",
          "type": "uint256"
        },
        {
          "indexed": false,
          "internalType": "uint256",
          "name": "quantity",
          "type": "uint256"
        },
        {
          "indexed": false,
          "internalType": "address",
          "name": "currency",
          "type": "address"
        },
        {
          "indexed": false,
          "internalType": "uint256",
          "name": "price",
          "type": "uint256"
        }
      ],
      "name": "ListForSale",
      "type": "event"
    },
    {
      "anonymous": false,
      "inputs": [
        {
          "indexed": true,
          "internalType": "bytes32",
          "name": "role",
          "type": "bytes32"
        },
        {
          "indexed": true,
          "internalType": "bytes32",
          "name": "previousAdminRole",
          "type": "bytes32"
        },
        {
          "indexed": true,
          "internalType": "bytes32",
          "name": "newAdminRole",
          "type": "bytes32"
        }
      ],
      "name": "RoleAdminChanged",
      "type": "event"
    },
    {
      "anonymous": false,
      "inputs": [
        {
          "indexed": true,
          "internalType": "bytes32",
          "name": "role",
          "type": "bytes32"
        },
        {
          "indexed": true,
          "internalType": "address",
          "name": "account",
          "type": "address"
        },
        {
          "indexed": true,
          "internalType": "address",
          "name": "sender",
          "type": "address"
        }
      ],
      "name": "RoleGranted",
      "type": "event"
    },
    {
      "anonymous": false,
      "inputs": [
        {
          "indexed": true,
          "internalType": "bytes32",
          "name": "role",
          "type": "bytes32"
        },
        {
          "indexed": true,
          "internalType": "address",
          "name": "account",
          "type": "address"
        },
        {
          "indexed": true,
          "internalType": "address",
          "name": "sender",
          "type": "address"
        }
      ],
      "name": "RoleRevoked",
      "type": "event"
    },
    {
      "anonymous": false,
      "inputs": [
        {
          "indexed": false,
          "internalType": "address",
          "name": "token",
          "type": "address"
        },
        {
          "indexed": false,
          "internalType": "uint256",
          "name": "tokenId",
          "type": "uint256"
        },
        {
          "indexed": false,
          "internalType": "address",
          "name": "beneficiary",
          "type": "address"
        },
        {
          "indexed": false,
          "internalType": "address",
          "name": "currency",
          "type": "address"
        },
        {
          "indexed": false,
          "internalType": "uint256",
          "name": "amount",
          "type": "uint256"
        }
      ],
      "name": "RoyaltyPayment",
      "type": "event"
    },
    {
      "anonymous": false,
      "inputs": [
        {
          "indexed": false,
          "internalType": "uint256",
          "name": "tradeId",
          "type": "uint256"
        }
      ],
      "name": "Sold",
      "type": "event"
    },
    {
      "inputs": [],
      "name": "ADMIN_ROLE",
      "outputs": [
        {
          "internalType": "bytes32",
          "name": "",
          "type": "bytes32"
        }
      ],
      "stateMutability": "view",
      "type": "function",
      "constant": true
    },
    {
      "inputs": [],
      "name": "DEFAULT_ADMIN_ROLE",
      "outputs": [
        {
          "internalType": "bytes32",
          "name": "",
          "type": "bytes32"
        }
      ],
      "stateMutability": "view",
      "type": "function",
      "constant": true
    },
    {
      "inputs": [
        {
          "internalType": "uint256",
          "name": "tradeId",
          "type": "uint256"
        },
        {
          "internalType": "uint256",
          "name": "quantity",
          "type": "uint256"
        }
      ],
      "name": "buy",
      "outputs": [],
      "stateMutability": "nonpayable",
      "type": "function"
    },
    {
      "inputs": [],
      "name": "buyerFeePct",
      "outputs": [
        {
          "internalType": "uint256",
          "name": "",
          "type": "uint256"
        }
      ],
      "stateMutability": "view",
      "type": "function",
      "constant": true
    },
    {
      "inputs": [
        {
          "internalType": "uint256",
          "name": "tradeId",
          "type": "uint256"
        }
      ],
      "name": "cancel",
      "outputs": [],
      "stateMutability": "nonpayable",
      "type": "function"
    },
    {
      "inputs": [
        {
          "internalType": "uint256",
          "name": "tradeId",
          "type": "uint256"
        }
      ],
      "name": "get",
      "outputs": [
        {
          "components": [
            {
              "internalType": "uint256",
              "name": "id",
              "type": "uint256"
            },
            {
              "internalType": "address",
              "name": "seller",
              "type": "address"
            },
            {
              "internalType": "address",
              "name": "token",
              "type": "address"
            },
            {
              "internalType": "uint256",
              "name": "tokenId",
              "type": "uint256"
            },
            {
              "internalType": "uint256",
              "name": "quantity",
              "type": "uint256"
            },
            {
              "internalType": "uint256",
              "name": "available",
              "type": "uint256"
            },
            {
              "internalType": "address",
              "name": "currency",
              "type": "address"
            },
            {
              "internalType": "uint256",
              "name": "price",
              "type": "uint256"
            },
            {
              "internalType": "enum TradeStatus",
              "name": "status",
              "type": "uint8"
            }
          ],
          "internalType": "struct Trade",
          "name": "",
          "type": "tuple"
        }
      ],
      "stateMutability": "view",
      "type": "function",
      "constant": true
    },
    {
      "inputs": [
        {
          "internalType": "address",
          "name": "currency",
          "type": "address"
        },
        {
          "internalType": "address",
          "name": "account",
          "type": "address"
        }
      ],
      "name": "getBalance",
      "outputs": [
        {
          "internalType": "uint256",
          "name": "",
          "type": "uint256"
        }
      ],
      "stateMutability": "view",
      "type": "function",
      "constant": true
    },
    {
      "inputs": [
        {
          "internalType": "bytes32",
          "name": "role",
          "type": "bytes32"
        }
      ],
      "name": "getRoleAdmin",
      "outputs": [
        {
          "internalType": "bytes32",
          "name": "",
          "type": "bytes32"
        }
      ],
      "stateMutability": "view",
      "type": "function",
      "constant": true
    },
    {
      "inputs": [
        {
          "internalType": "address",
          "name": "seller",
          "type": "address"
        },
        {
          "internalType": "address",
          "name": "token",
          "type": "address"
        },
        {
          "internalType": "uint256",
          "name": "tokenId",
          "type": "uint256"
        },
        {
          "internalType": "uint256",
          "name": "quantity",
          "type": "uint256"
        },
        {
          "internalType": "address",
          "name": "currency",
          "type": "address"
        },
        {
          "internalType": "uint256",
          "name": "price",
          "type": "uint256"
        },
        {
          "internalType": "uint256",
          "name": "expiry",
          "type": "uint256"
        },
        {
          "internalType": "uint256",
          "name": "salt",
          "type": "uint256"
        }
      ],
      "name": "getSaleAuthorizationHash",
      "outputs": [
        {
          "internalType": "bytes32",
          "name": "",
          "type": "bytes32"
        }
      ],
      "stateMutability": "view",
      "type": "function",
      "constant": true
    },
    {
      "inputs": [
        {
          "internalType": "bytes32",
          "name": "role",
          "type": "bytes32"
        },
        {
          "internalType": "address",
          "name": "account",
          "type": "address"
        }
      ],
      "name": "grantRole",
      "outputs": [],
      "stateMutability": "nonpayable",
      "type": "function"
    },
    {
      "inputs": [
        {
          "internalType": "bytes32",
          "name": "role",
          "type": "bytes32"
        },
        {
          "internalType": "address",
          "name": "account",
          "type": "address"
        }
      ],
      "name": "hasRole",
      "outputs": [
        {
          "internalType": "bool",
          "name": "",
          "type": "bool"
        }
      ],
      "stateMutability": "view",
      "type": "function",
      "constant": true
    },
    {
      "inputs": [],
      "name": "hundredPct",
      "outputs": [
        {
          "internalType": "uint256",
          "name": "",
          "type": "uint256"
        }
      ],
      "stateMutability": "view",
      "type": "function",
      "constant": true
    },
    {
      "inputs": [
        {
          "internalType": "address",
          "name": "currency",
          "type": "address"
        }
      ],
      "name": "isCurrencyApproved",
      "outputs": [
        {
          "internalType": "bool",
          "name": "",
          "type": "bool"
        }
      ],
      "stateMutability": "view",
      "type": "function",
      "constant": true
    },
    {
      "inputs": [
        {
          "internalType": "address",
          "name": "token",
          "type": "address"
        }
      ],
      "name": "isTokenApproved",
      "outputs": [
        {
          "internalType": "bool",
          "name": "",
          "type": "bool"
        }
      ],
      "stateMutability": "view",
      "type": "function",
      "constant": true
    },
    {
      "inputs": [
        {
          "internalType": "address",
          "name": "seller",
          "type": "address"
        },
        {
          "internalType": "address",
          "name": "token",
          "type": "address"
        },
        {
          "internalType": "uint256",
          "name": "tokenId",
          "type": "uint256"
        },
        {
          "internalType": "uint256",
          "name": "quantity",
          "type": "uint256"
        },
        {
          "internalType": "address",
          "name": "currency",
          "type": "address"
        },
        {
          "internalType": "uint256",
          "name": "price",
          "type": "uint256"
        },
        {
          "internalType": "uint256",
          "name": "expiry",
          "type": "uint256"
        },
        {
          "internalType": "uint256",
          "name": "salt",
          "type": "uint256"
        },
        {
          "internalType": "bytes",
          "name": "signature",
          "type": "bytes"
        }
      ],
      "name": "listForSale",
      "outputs": [],
      "stateMutability": "nonpayable",
      "type": "function"
    },
    {
      "inputs": [],
      "name": "maxTokenPrice",
      "outputs": [
        {
          "internalType": "uint256",
          "name": "",
          "type": "uint256"
        }
      ],
      "stateMutability": "view",
      "type": "function",
      "constant": true
    },
    {
      "inputs": [],
      "name": "maxTradeQuantity",
      "outputs": [
        {
          "internalType": "uint256",
          "name": "",
          "type": "uint256"
        }
      ],
      "stateMutability": "view",
      "type": "function",
      "constant": true
    },
    {
      "inputs": [],
      "name": "minTokenPrice",
      "outputs": [
        {
          "internalType": "uint256",
          "name": "",
          "type": "uint256"
        }
      ],
      "stateMutability": "view",
      "type": "function",
      "constant": true
    },
    {
      "inputs": [
        {
          "internalType": "bytes32",
          "name": "role",
          "type": "bytes32"
        },
        {
          "internalType": "address",
          "name": "account",
          "type": "address"
        }
      ],
      "name": "renounceRole",
      "outputs": [],
      "stateMutability": "nonpayable",
      "type": "function"
    },
    {
      "inputs": [
        {
          "internalType": "bytes32",
          "name": "role",
          "type": "bytes32"
        },
        {
          "internalType": "address",
          "name": "account",
          "type": "address"
        }
      ],
      "name": "revokeRole",
      "outputs": [],
      "stateMutability": "nonpayable",
      "type": "function"
    },
    {
      "inputs": [],
      "name": "sellerFeePct",
      "outputs": [
        {
          "internalType": "uint256",
          "name": "",
          "type": "uint256"
        }
      ],
      "stateMutability": "view",
      "type": "function",
      "constant": true
    },
    {
      "inputs": [
        {
          "internalType": "uint256",
          "name": "pct",
          "type": "uint256"
        }
      ],
      "name": "setBuyerFeePct",
      "outputs": [],
      "stateMutability": "nonpayable",
      "type": "function"
    },
    {
      "inputs": [
        {
          "internalType": "address[]",
          "name": "currencies",
          "type": "address[]"
        },
        {
          "internalType": "bool",
          "name": "isApproved",
          "type": "bool"
        }
      ],
      "name": "setCurrenciesApproval",
      "outputs": [],
      "stateMutability": "nonpayable",
      "type": "function"
    },
    {
      "inputs": [
        {
          "internalType": "address",
          "name": "beneficiary",
          "type": "address"
        }
      ],
      "name": "setFeeBeneficiary",
      "outputs": [],
      "stateMutability": "nonpayable",
      "type": "function"
    },
    {
      "inputs": [
        {
          "internalType": "uint256",
          "name": "price",
          "type": "uint256"
        }
      ],
      "name": "setMaxTokenPriceEther",
      "outputs": [],
      "stateMutability": "nonpayable",
      "type": "function"
    },
    {
      "inputs": [
        {
          "internalType": "uint256",
          "name": "price",
          "type": "uint256"
        }
      ],
      "name": "setMaxTokenPriceWei",
      "outputs": [],
      "stateMutability": "nonpayable",
      "type": "function"
    },
    {
      "inputs": [
        {
          "internalType": "uint256",
          "name": "quantity",
          "type": "uint256"
        }
      ],
      "name": "setMaxTradeQuantity",
      "outputs": [],
      "stateMutability": "nonpayable",
      "type": "function"
    },
    {
      "inputs": [
        {
          "internalType": "uint256",
          "name": "pct",
          "type": "uint256"
        }
      ],
      "name": "setSellerFeePct",
      "outputs": [],
      "stateMutability": "nonpayable",
      "type": "function"
    },
    {
      "inputs": [
        {
          "internalType": "address[]",
          "name": "tokens",
          "type": "address[]"
        },
        {
          "internalType": "bool",
          "name": "isApproved",
          "type": "bool"
        }
      ],
      "name": "setTokensApproval",
      "outputs": [],
      "stateMutability": "nonpayable",
      "type": "function"
    },
    {
      "inputs": [
        {
          "internalType": "bytes4",
          "name": "interfaceID",
          "type": "bytes4"
        }
      ],
      "name": "supportsInterface",
      "outputs": [
        {
          "internalType": "bool",
          "name": "",
          "type": "bool"
        }
      ],
      "stateMutability": "view",
      "type": "function",
      "constant": true
    },
    {
      "inputs": [
        {
          "internalType": "address",
          "name": "currency",
          "type": "address"
        },
        {
          "internalType": "uint256",
          "name": "amount",
          "type": "uint256"
        }
      ],
      "name": "withdraw",
      "outputs": [],
      "stateMutability": "nonpayable",
      "type": "function"
    },
    {
      "inputs": [
        {
          "components": [
            {
              "internalType": "address",
              "name": "buyer",
              "type": "address"
            },
            {
              "internalType": "address",
              "name": "seller",
              "type": "address"
            },
            {
              "internalType": "address",
              "name": "token",
              "type": "address"
            },
            {
              "internalType": "uint256",
              "name": "tokenId",
              "type": "uint256"
            },
            {
              "internalType": "uint256",
              "name": "quantity",
              "type": "uint256"
            },
            {
              "internalType": "address",
              "name": "currency",
              "type": "address"
            },
            {
              "internalType": "uint256",
              "name": "price",
              "type": "uint256"
            },
            {
              "internalType": "uint256",
              "name": "expiry",
              "type": "uint256"
            }
          ],
          "internalType": "struct Offer",
          "name": "offer",
          "type": "tuple"
        },
        {
          "internalType": "uint256",
          "name": "salt",
          "type": "uint256"
        },
        {
          "internalType": "bytes",
          "name": "signature",
          "type": "bytes"
        }
      ],
      "name": "acceptOffer",
      "outputs": [],
      "stateMutability": "nonpayable",
      "type": "function"
    },
    {
      "inputs": [
        {
          "components": [
            {
              "internalType": "address",
              "name": "buyer",
              "type": "address"
            },
            {
              "internalType": "address",
              "name": "seller",
              "type": "address"
            },
            {
              "internalType": "address",
              "name": "token",
              "type": "address"
            },
            {
              "internalType": "uint256",
              "name": "tokenId",
              "type": "uint256"
            },
            {
              "internalType": "uint256",
              "name": "quantity",
              "type": "uint256"
            },
            {
              "internalType": "address",
              "name": "currency",
              "type": "address"
            },
            {
              "internalType": "uint256",
              "name": "price",
              "type": "uint256"
            },
            {
              "internalType": "uint256",
              "name": "expiry",
              "type": "uint256"
            }
          ],
          "internalType": "struct Offer",
          "name": "offer",
          "type": "tuple"
        },
        {
          "internalType": "uint256",
          "name": "salt",
          "type": "uint256"
        }
      ],
      "name": "getOfferHash",
      "outputs": [
        {
          "internalType": "bytes32",
          "name": "",
          "type": "bytes32"
        }
      ],
      "stateMutability": "view",
      "type": "function",
      "constant": true
    },
    {
      "inputs": [
        {
          "components": [
            {
              "internalType": "address",
              "name": "buyer",
              "type": "address"
            },
            {
              "internalType": "address",
              "name": "seller",
              "type": "address"
            },
            {
              "internalType": "address",
              "name": "token",
              "type": "address"
            },
            {
              "internalType": "uint256",
              "name": "tokenId",
              "type": "uint256"
            },
            {
              "internalType": "uint256",
              "name": "quantity",
              "type": "uint256"
            },
            {
              "internalType": "address",
              "name": "currency",
              "type": "address"
            },
            {
              "internalType": "uint256",
              "name": "price",
              "type": "uint256"
            },
            {
              "internalType": "uint256",
              "name": "expiry",
              "type": "uint256"
            }
          ],
          "internalType": "struct Offer",
          "name": "offer",
          "type": "tuple"
        },
        {
          "internalType": "uint256",
          "name": "nonce",
          "type": "uint256"
        },
        {
          "internalType": "bytes",
          "name": "signature",
          "type": "bytes"
        }
      ],
      "name": "cancelOffer",
      "outputs": [],
      "stateMutability": "nonpayable",
      "type": "function"
    }
  ],
  "bytecode": "0x6080604052611388600155611388600255620186a060035569d3c21bcecceda1000000600455620f424060055560035460065560006007556000600b556000600d553480156200004e57600080fd5b50604051620061053803806200610583398181016040528101906200007491906200038d565b806200008a6000801b336200017b60201b60201c565b620000bc7fa49807205ce4d355092ef5a8a18f56e8913cf4a201fbe287825b095693c21775336200017b60201b60201c565b620000f17fa49807205ce4d355092ef5a8a18f56e8913cf4a201fbe287825b095693c217756000801b6200019160201b60201c565b33600f60006101000a81548173ffffffffffffffffffffffffffffffffffffffff021916908373ffffffffffffffffffffffffffffffffffffffff16021790555080601060006101000a81548173ffffffffffffffffffffffffffffffffffffffff021916908373ffffffffffffffffffffffffffffffffffffffff160217905550505062000426565b6200018d8282620001f460201b60201c565b5050565b6000620001a483620002e560201b60201c565b905081600080858152602001908152602001600020600101819055508181847fbd79b86ffe0ab8e8776151514217cd7cacd52c909f66475c3af44e129f0b00ff60405160405180910390a4505050565b6200020682826200030460201b60201c565b620002e157600160008084815260200190815260200160002060000160008373ffffffffffffffffffffffffffffffffffffffff1673ffffffffffffffffffffffffffffffffffffffff16815260200190815260200160002060006101000a81548160ff021916908315150217905550620002866200036e60201b60201c565b73ffffffffffffffffffffffffffffffffffffffff168173ffffffffffffffffffffffffffffffffffffffff16837f2f8788117e7eff1d82e926ec794901d17c78024a50270940304540a733656f0d60405160405180910390a45b5050565b6000806000838152602001908152602001600020600101549050919050565b600080600084815260200190815260200160002060000160008373ffffffffffffffffffffffffffffffffffffffff1673ffffffffffffffffffffffffffffffffffffffff16815260200190815260200160002060009054906101000a900460ff16905092915050565b600033905090565b60008151905062000387816200040c565b92915050565b600060208284031215620003a657620003a562000407565b5b6000620003b68482850162000376565b91505092915050565b6000620003cc82620003e7565b9050919050565b6000620003e082620003bf565b9050919050565b600073ffffffffffffffffffffffffffffffffffffffff82169050919050565b600080fd5b6200041781620003d3565b81146200042357600080fd5b50565b615ccf80620004366000396000f3fe608060405234801561001057600080fd5b50600436106102065760003560e01c806391d148541161011a578063d1177945116100ad578063d6febde81161007c578063d6febde8146105fb578063e45ad64a14610617578063e6a5010014610633578063f3fef3a31461064f578063fd1fc13e1461066b57610206565b8063d117794514610575578063d428dc2b14610591578063d4fac45d146105af578063d547741f146105df57610206565b8063b8358a61116100e9578063b8358a61146104f1578063bca998191461050d578063be29928e14610529578063c661b89d1461055957610206565b806391d14854146104435780639507d39a146104735780639d93d352146104a3578063a217fddf146104d357610206565b80635a0a3d821161019d57806377e5c4a81161016c57806377e5c4a81461039d57806385d561ae146103bb5780638662732e146103d95780638cac73ff146104095780638ce5ab6a1461042557610206565b80635a0a3d82146103295780635dabb20e146103455780637167675a1461036357806375b238fc1461037f57610206565b80632f2ff15d116101d95780632f2ff15d146102b9578063325c5d56146102d557806336568abe146102f157806340e58ee51461030d57610206565b806301ffc9a71461020b5780630d7b1acc1461023b578063248a9ca31461026b5780632b483c031461029b575b600080fd5b610225600480360381019061022091906140a8565b610687565b6040516102329190614b8c565b60405180910390f35b61025560048036038101906102509190613cce565b610699565b6040516102629190614b8c565b60405180910390f35b6102856004803603810190610280919061403b565b6106ef565b6040516102929190614ba7565b60405180910390f35b6102a361070e565b6040516102b09190614fe0565b60405180910390f35b6102d360048036038101906102ce9190614068565b610714565b005b6102ef60048036038101906102ea9190614117565b61073d565b005b61030b60048036038101906103069190614068565b6108ff565b005b6103276004803603810190610322919061418e565b610982565b005b610343600480360381019061033e9190613cce565b610d54565b005b61034d610dae565b60405161035a9190614fe0565b60405180910390f35b61037d60048036038101906103789190613f1c565b610db4565b005b610387610e8c565b6040516103949190614ba7565b60405180910390f35b6103a5610eb0565b6040516103b29190614fe0565b60405180910390f35b6103c3610eb6565b6040516103d09190614fe0565b60405180910390f35b6103f360048036038101906103ee9190613d3b565b610ebc565b6040516104009190614ba7565b60405180910390f35b610423600480360381019061041e9190614117565b610f03565b005b61042d61152a565b60405161043a9190614fe0565b60405180910390f35b61045d60048036038101906104589190614068565b611530565b60405161046a9190614b8c565b60405180910390f35b61048d6004803603810190610488919061418e565b61159a565b60405161049a9190614fc4565b60405180910390f35b6104bd60048036038101906104b89190613cce565b611737565b6040516104ca9190614b8c565b60405180910390f35b6104db61178d565b6040516104e89190614ba7565b60405180910390f35b61050b60048036038101906105069190613df1565b611794565b005b6105276004803603810190610522919061418e565b611f2f565b005b610543600480360381019061053e91906140d5565b611f7f565b6040516105509190614ba7565b60405180910390f35b610573600480360381019061056e919061418e565b61201a565b005b61058f600480360381019061058a9190613f1c565b61209c565b005b610599612174565b6040516105a69190614fe0565b60405180910390f35b6105c960048036038101906105c49190613cfb565b61217a565b6040516105d69190614fe0565b60405180910390f35b6105f960048036038101906105f49190614068565b612201565b005b610615600480360381019061061091906141e8565b61222a565b005b610631600480360381019061062c919061418e565b6127de565b005b61064d6004803603810190610648919061418e565b612860565b005b61066960048036038101906106649190613edc565b61289d565b005b6106856004803603810190610680919061418e565b612a81565b005b600061069282612abe565b9050919050565b6000600c60008373ffffffffffffffffffffffffffffffffffffffff1673ffffffffffffffffffffffffffffffffffffffff16815260200190815260200160002060009054906101000a900460ff169050919050565b6000806000838152602001908152602001600020600101549050919050565b60025481565b61071d826106ef565b61072e81610729612b38565b612b40565b6107388383612bdd565b505050565b60006107498585611f7f565b90506012600082815260200190815260200160002060009054906101000a900460ff16156107ac576040517f08c379a00000000000000000000000000000000000000000000000000000000081526004016107a390614dc4565b60405180910390fd5b6011600082815260200190815260200160002060009054906101000a900460ff161561080d576040517f08c379a000000000000000000000000000000000000000000000000000000000815260040161080490614e64565b60405180910390fd5b61086483838080601f016020809104026020016040519081016040528093929190818152602001838380828437600081840152601f19601f8201169050808301925050505050505082612cbd90919063ffffffff16565b73ffffffffffffffffffffffffffffffffffffffff163373ffffffffffffffffffffffffffffffffffffffff1614806108c357506108c27fa49807205ce4d355092ef5a8a18f56e8913cf4a201fbe287825b095693c2177533611530565b5b6108cc57600080fd5b60016011600083815260200190815260200160002060006101000a81548160ff0219169083151502179055505050505050565b610907612b38565b73ffffffffffffffffffffffffffffffffffffffff168173ffffffffffffffffffffffffffffffffffffffff1614610974576040517f08c379a000000000000000000000000000000000000000000000000000000000815260040161096b90614f84565b60405180910390fd5b61097e8282612ce4565b5050565b60006008600083815260200190815260200160002060405180610120016040529081600082015481526020016001820160009054906101000a900473ffffffffffffffffffffffffffffffffffffffff1673ffffffffffffffffffffffffffffffffffffffff1673ffffffffffffffffffffffffffffffffffffffff1681526020016002820160009054906101000a900473ffffffffffffffffffffffffffffffffffffffff1673ffffffffffffffffffffffffffffffffffffffff1673ffffffffffffffffffffffffffffffffffffffff1681526020016003820154815260200160048201548152602001600582015481526020016006820160009054906101000a900473ffffffffffffffffffffffffffffffffffffffff1673ffffffffffffffffffffffffffffffffffffffff1673ffffffffffffffffffffffffffffffffffffffff168152602001600782015481526020016008820160009054906101000a900460ff166002811115610afc57610afb6154bf565b5b6002811115610b0e57610b0d6154bf565b5b81525050905060006002811115610b2857610b276154bf565b5b8161010001516002811115610b4057610b3f6154bf565b5b14610b80576040517f08c379a0000000000000000000000000000000000000000000000000000000008152600401610b7790614d24565b60405180910390fd5b806020015173ffffffffffffffffffffffffffffffffffffffff163373ffffffffffffffffffffffffffffffffffffffff161480610be45750610be37fa49807205ce4d355092ef5a8a18f56e8913cf4a201fbe287825b095693c2177533611530565b5b610c23576040517f08c379a0000000000000000000000000000000000000000000000000000000008152600401610c1a90614cc4565b60405180910390fd5b60026008600084815260200190815260200160002060080160006101000a81548160ff02191690836002811115610c5d57610c5c6154bf565b5b0217905550601060009054906101000a900473ffffffffffffffffffffffffffffffffffffffff1673ffffffffffffffffffffffffffffffffffffffff16632ed7bae88260400151836020015184606001518560a001516040518563ffffffff1660e01b8152600401610cd39493929190614a78565b600060405180830381600087803b158015610ced57600080fd5b505af1158015610d01573d6000803e3d6000fd5b505050507fc601fcdba72395d2bf26895fdc068bb88a1ff514bafce37723be90787ed0a4803383836040015184606001518560a00151604051610d48959493929190614b39565b60405180910390a15050565b6000801b610d6981610d64612b38565b612b40565b81600f60006101000a81548173ffffffffffffffffffffffffffffffffffffffff021916908373ffffffffffffffffffffffffffffffffffffffff1602179055505050565b60065481565b7fa49807205ce4d355092ef5a8a18f56e8913cf4a201fbe287825b095693c21775610de681610de1612b38565b612b40565b60005b84849050811015610e855782600a6000878785818110610e0c57610e0b6154ee565b5b9050602002016020810190610e219190613cce565b73ffffffffffffffffffffffffffffffffffffffff1673ffffffffffffffffffffffffffffffffffffffff16815260200190815260200160002060006101000a81548160ff0219169083151502179055508080610e7d906153e0565b915050610de9565b5050505050565b7fa49807205ce4d355092ef5a8a18f56e8913cf4a201fbe287825b095693c2177581565b60045481565b60055481565b6000308989898989898989604051602001610edf99989796959493929190614915565b60405160208183030381529060405280519060200120905098975050505050505050565b836020016020810190610f169190613cce565b73ffffffffffffffffffffffffffffffffffffffff163373ffffffffffffffffffffffffffffffffffffffff1614610f83576040517f08c379a0000000000000000000000000000000000000000000000000000000008152600401610f7a90614f04565b60405180910390fd5b600a6000856040016020810190610f9a9190613cce565b73ffffffffffffffffffffffffffffffffffffffff1673ffffffffffffffffffffffffffffffffffffffff16815260200190815260200160002060009054906101000a900460ff16611021576040517f08c379a000000000000000000000000000000000000000000000000000000000815260040161101890614e04565b60405180910390fd5b600c60008560a00160208101906110389190613cce565b73ffffffffffffffffffffffffffffffffffffffff1673ffffffffffffffffffffffffffffffffffffffff16815260200190815260200160002060009054906101000a900460ff166110bf576040517f08c379a00000000000000000000000000000000000000000000000000000000081526004016110b690614d64565b60405180910390fd5b428460e0013511611105576040517f08c379a00000000000000000000000000000000000000000000000000000000081526004016110fc90614ea4565b60405180910390fd5b60006111118585611f7f565b90506011600082815260200190815260200160002060009054906101000a900460ff1615801561115f57506012600082815260200190815260200160002060009054906101000a900460ff16155b61119e576040517f08c379a000000000000000000000000000000000000000000000000000000000815260040161119590614fa4565b60405180910390fd5b60006111ff84848080601f016020809104026020016040519081016040528093929190818152602001838380828437600081840152601f19601f820116905080830192505050505050506111f184612dc5565b612cbd90919063ffffffff16565b90508560000160208101906112149190613cce565b73ffffffffffffffffffffffffffffffffffffffff168173ffffffffffffffffffffffffffffffffffffffff1614611281576040517f08c379a000000000000000000000000000000000000000000000000000000000815260040161127890614ce4565b60405180910390fd5b6006548660c0013510156112ca576040517f08c379a00000000000000000000000000000000000000000000000000000000081526004016112c190614e24565b60405180910390fd5b6000806112da8860c00135612df5565b9150915060016012600086815260200190815260200160002060006101000a81548160ff021916908315150217905550601060009054906101000a900473ffffffffffffffffffffffffffffffffffffffff1673ffffffffffffffffffffffffffffffffffffffff166340fd582989604001602081019061135b9190613cce565b338b606001358c608001356040518563ffffffff1660e01b81526004016113859493929190614a78565b600060405180830381600087803b15801561139f57600080fd5b505af11580156113b3573d6000803e3d6000fd5b505050508760a00160208101906113ca9190613cce565b73ffffffffffffffffffffffffffffffffffffffff166323b872dd8960000160208101906113f89190613cce565b30848c60c001356114099190615145565b6040518463ffffffff1660e01b815260040161142793929190614a41565b602060405180830381600087803b15801561144157600080fd5b505af1158015611455573d6000803e3d6000fd5b505050506040513d601f19601f82011682018060405250810190611479919061400e565b506115208860200160208101906114909190613cce565b8960000160208101906114a39190613cce565b8a60a00160208101906114b69190613cce565b8b60c0013560405180604001604052808781526020018881525060405180606001604052808f60400160208101906114ee9190613cce565b73ffffffffffffffffffffffffffffffffffffffff1681526020018f6060013581526020018f60800135815250612e37565b5050505050505050565b60015481565b600080600084815260200190815260200160002060000160008373ffffffffffffffffffffffffffffffffffffffff1673ffffffffffffffffffffffffffffffffffffffff16815260200190815260200160002060009054906101000a900460ff16905092915050565b6115a261397e565b6008600083815260200190815260200160002060405180610120016040529081600082015481526020016001820160009054906101000a900473ffffffffffffffffffffffffffffffffffffffff1673ffffffffffffffffffffffffffffffffffffffff1673ffffffffffffffffffffffffffffffffffffffff1681526020016002820160009054906101000a900473ffffffffffffffffffffffffffffffffffffffff1673ffffffffffffffffffffffffffffffffffffffff1673ffffffffffffffffffffffffffffffffffffffff1681526020016003820154815260200160048201548152602001600582015481526020016006820160009054906101000a900473ffffffffffffffffffffffffffffffffffffffff1673ffffffffffffffffffffffffffffffffffffffff1673ffffffffffffffffffffffffffffffffffffffff168152602001600782015481526020016008820160009054906101000a900460ff16600281111561171a576117196154bf565b5b600281111561172c5761172b6154bf565b5b815250509050919050565b6000600a60008373ffffffffffffffffffffffffffffffffffffffff1673ffffffffffffffffffffffffffffffffffffffff16815260200190815260200160002060009054906101000a900460ff169050919050565b6000801b81565b6006548510156117d9576040517f08c379a00000000000000000000000000000000000000000000000000000000081526004016117d090614e24565b60405180910390fd5b60045485111561181e576040517f08c379a000000000000000000000000000000000000000000000000000000000815260040161181590614da4565b60405180910390fd5b600554871115611863576040517f08c379a000000000000000000000000000000000000000000000000000000000815260040161185a90614de4565b60405180910390fd5b600a60008a73ffffffffffffffffffffffffffffffffffffffff1673ffffffffffffffffffffffffffffffffffffffff16815260200190815260200160002060009054906101000a900460ff166118ef576040517f08c379a00000000000000000000000000000000000000000000000000000000081526004016118e690614e04565b60405180910390fd5b600c60008773ffffffffffffffffffffffffffffffffffffffff1673ffffffffffffffffffffffffffffffffffffffff16815260200190815260200160002060009054906101000a900460ff1661197b576040517f08c379a000000000000000000000000000000000000000000000000000000000815260040161197290614d64565b60405180910390fd5b6119a57fa49807205ce4d355092ef5a8a18f56e8913cf4a201fbe287825b095693c2177533611530565b611b94574284116119eb576040517f08c379a00000000000000000000000000000000000000000000000000000000081526004016119e290614e84565b60405180910390fd5b60006119fd8b8b8b8b8b8b8b8b610ebc565b9050600e600082815260200190815260200160002060009054906101000a900460ff1615611a60576040517f08c379a0000000000000000000000000000000000000000000000000000000008152600401611a5790614ee4565b60405180910390fd5b6000611ac184848080601f016020809104026020016040519081016040528093929190818152602001838380828437600081840152601f19601f82011690508083019250505050505050611ab384612dc5565b612cbd90919063ffffffff16565b9050600073ffffffffffffffffffffffffffffffffffffffff168173ffffffffffffffffffffffffffffffffffffffff1614158015611b265750611b257fa49807205ce4d355092ef5a8a18f56e8913cf4a201fbe287825b095693c2177582611530565b5b611b65576040517f08c379a0000000000000000000000000000000000000000000000000000000008152600401611b5c90614f44565b60405180910390fd5b6001600e600084815260200190815260200160002060006101000a81548160ff02191690831515021790555050505b8873ffffffffffffffffffffffffffffffffffffffff166301ffc9a77fd9b67a26000000000000000000000000000000000000000000000000000000006040518263ffffffff1660e01b8152600401611bed9190614c07565b60206040518083038186803b158015611c0557600080fd5b505afa158015611c19573d6000803e3d6000fd5b505050506040513d601f19601f82011682018060405250810190611c3d919061400e565b611c4657600196505b601060009054906101000a900473ffffffffffffffffffffffffffffffffffffffff1673ffffffffffffffffffffffffffffffffffffffff166340fd58298a8c8b8b6040518563ffffffff1660e01b8152600401611ca79493929190614a78565b600060405180830381600087803b158015611cc157600080fd5b505af1158015611cd5573d6000803e3d6000fd5b5050505060076000815480929190611cec906153e0565b9190505550600060405180610120016040528060075481526020018c73ffffffffffffffffffffffffffffffffffffffff1681526020018b73ffffffffffffffffffffffffffffffffffffffff1681526020018a81526020018981526020018981526020018873ffffffffffffffffffffffffffffffffffffffff16815260200187815260200160006002811115611d8757611d866154bf565b5b8152509050806008600060075481526020019081526020016000206000820151816000015560208201518160010160006101000a81548173ffffffffffffffffffffffffffffffffffffffff021916908373ffffffffffffffffffffffffffffffffffffffff16021790555060408201518160020160006101000a81548173ffffffffffffffffffffffffffffffffffffffff021916908373ffffffffffffffffffffffffffffffffffffffff160217905550606082015181600301556080820151816004015560a0820151816005015560c08201518160060160006101000a81548173ffffffffffffffffffffffffffffffffffffffff021916908373ffffffffffffffffffffffffffffffffffffffff16021790555060e082015181600701556101008201518160080160006101000a81548160ff02191690836002811115611ed557611ed46154bf565b5b02179055509050507f8c043961a2a3de4608ff0a3647fa6bdef2510bbf7ea923cd9b68bd43de4040e46007548c8c8c8c8c8c604051611f1a9796959493929190614ffb565b60405180910390a15050505050505050505050565b7fa49807205ce4d355092ef5a8a18f56e8913cf4a201fbe287825b095693c21775611f6181611f5c612b38565b612b40565b670de0b6b3a764000082611f7591906151cc565b6004819055505050565b600030836000016020810190611f959190613cce565b846020016020810190611fa89190613cce565b856040016020810190611fbb9190613cce565b866060013587608001358860a0016020810190611fd89190613cce565b8960c001358a60e001358a604051602001611ffc9a99989796959493929190614861565b60405160208183030381529060405280519060200120905092915050565b7fa49807205ce4d355092ef5a8a18f56e8913cf4a201fbe287825b095693c2177561204c81612047612b38565b612b40565b600354821115612091576040517f08c379a000000000000000000000000000000000000000000000000000000000815260040161208890614f24565b60405180910390fd5b816002819055505050565b7fa49807205ce4d355092ef5a8a18f56e8913cf4a201fbe287825b095693c217756120ce816120c9612b38565b612b40565b60005b8484905081101561216d5782600c60008787858181106120f4576120f36154ee565b5b90506020020160208101906121099190613cce565b73ffffffffffffffffffffffffffffffffffffffff1673ffffffffffffffffffffffffffffffffffffffff16815260200190815260200160002060006101000a81548160ff0219169083151502179055508080612165906153e0565b9150506120d1565b5050505050565b60035481565b6000600960008373ffffffffffffffffffffffffffffffffffffffff1673ffffffffffffffffffffffffffffffffffffffff16815260200190815260200160002060008473ffffffffffffffffffffffffffffffffffffffff1673ffffffffffffffffffffffffffffffffffffffff16815260200190815260200160002054905092915050565b61220a826106ef565b61221b81612216612b38565b612b40565b6122258383612ce4565b505050565b60006008600084815260200190815260200160002060405180610120016040529081600082015481526020016001820160009054906101000a900473ffffffffffffffffffffffffffffffffffffffff1673ffffffffffffffffffffffffffffffffffffffff1673ffffffffffffffffffffffffffffffffffffffff1681526020016002820160009054906101000a900473ffffffffffffffffffffffffffffffffffffffff1673ffffffffffffffffffffffffffffffffffffffff1673ffffffffffffffffffffffffffffffffffffffff1681526020016003820154815260200160048201548152602001600582015481526020016006820160009054906101000a900473ffffffffffffffffffffffffffffffffffffffff1673ffffffffffffffffffffffffffffffffffffffff1673ffffffffffffffffffffffffffffffffffffffff168152602001600782015481526020016008820160009054906101000a900460ff1660028111156123a4576123a36154bf565b5b60028111156123b6576123b56154bf565b5b815250509050600060028111156123d0576123cf6154bf565b5b81610100015160028111156123e8576123e76154bf565b5b14612428576040517f08c379a000000000000000000000000000000000000000000000000000000000815260040161241f90614d04565b60405180910390fd5b8060a0015182111561246f576040517f08c379a000000000000000000000000000000000000000000000000000000000815260040161246690614c84565b60405180910390fd5b806020015173ffffffffffffffffffffffffffffffffffffffff163373ffffffffffffffffffffffffffffffffffffffff1614156124e2576040517f08c379a00000000000000000000000000000000000000000000000000000000081526004016124d990614ec4565b60405180910390fd5b6000828260e001516124f491906151cc565b905060008260c00151905060008061250b84612df5565b9150915060008373ffffffffffffffffffffffffffffffffffffffff1663dd62ed3e33306040518363ffffffff1660e01b815260040161254c929190614a18565b60206040518083038186803b15801561256457600080fd5b505afa158015612578573d6000803e3d6000fd5b505050506040513d601f19601f8201168201806040525081019061259c91906141bb565b905081856125aa9190615145565b8110156125ec576040517f08c379a00000000000000000000000000000000000000000000000000000000081526004016125e390614d84565b60405180910390fd5b8373ffffffffffffffffffffffffffffffffffffffff166323b872dd333085896126169190615145565b6040518463ffffffff1660e01b815260040161263493929190614a41565b602060405180830381600087803b15801561264e57600080fd5b505af1158015612662573d6000803e3d6000fd5b505050506040513d601f19601f82011682018060405250810190612686919061400e565b506126e98660200151338860c001518860405180604001604052808881526020018981525060405180606001604052808d6040015173ffffffffffffffffffffffffffffffffffffffff1681526020018d6060015181526020018e815250612e37565b6000878760a001516126fb9190615226565b905080600860008b8152602001908152602001600020600501819055506000811415612798576001600860008b815260200190815260200160002060080160006101000a81548160ff0219169083600281111561275b5761275a6154bf565b5b02179055507f92f64ca637d023f354075a4be751b169c1a8a9ccb6d33cdd0cb35205439957278960405161278f9190614fe0565b60405180910390a15b7f3b599f6217e39be59216b60e543ce0d4c7d534fe64dd9d962334924e7819894e89338a6040516127cb9392919061506a565b60405180910390a1505050505050505050565b7fa49807205ce4d355092ef5a8a18f56e8913cf4a201fbe287825b095693c217756128108161280b612b38565b612b40565b600354821115612855576040517f08c379a000000000000000000000000000000000000000000000000000000000815260040161284c90614f24565b60405180910390fd5b816001819055505050565b7fa49807205ce4d355092ef5a8a18f56e8913cf4a201fbe287825b095693c217756128928161288d612b38565b612b40565b816005819055505050565b80600960003373ffffffffffffffffffffffffffffffffffffffff1673ffffffffffffffffffffffffffffffffffffffff16815260200190815260200160002060008473ffffffffffffffffffffffffffffffffffffffff1673ffffffffffffffffffffffffffffffffffffffff16815260200190815260200160002054101561295c576040517f08c379a000000000000000000000000000000000000000000000000000000000815260040161295390614f64565b60405180910390fd5b80600960003373ffffffffffffffffffffffffffffffffffffffff1673ffffffffffffffffffffffffffffffffffffffff16815260200190815260200160002060008473ffffffffffffffffffffffffffffffffffffffff1673ffffffffffffffffffffffffffffffffffffffff16815260200190815260200160002060008282546129e89190615226565b925050819055508173ffffffffffffffffffffffffffffffffffffffff1663a9059cbb33836040518363ffffffff1660e01b8152600401612a2a929190614abd565b602060405180830381600087803b158015612a4457600080fd5b505af1158015612a58573d6000803e3d6000fd5b505050506040513d601f19601f82011682018060405250810190612a7c919061400e565b505050565b7fa49807205ce4d355092ef5a8a18f56e8913cf4a201fbe287825b095693c21775612ab381612aae612b38565b612b40565b816004819055505050565b60007f7965db0b000000000000000000000000000000000000000000000000000000007bffffffffffffffffffffffffffffffffffffffffffffffffffffffff1916827bffffffffffffffffffffffffffffffffffffffffffffffffffffffff19161480612b315750612b3082612f0d565b5b9050919050565b600033905090565b612b4a8282611530565b612bd957612b6f8173ffffffffffffffffffffffffffffffffffffffff166014612f77565b612b7d8360001c6020612f77565b604051602001612b8e9291906149de565b6040516020818303038152906040526040517f08c379a0000000000000000000000000000000000000000000000000000000008152600401612bd09190614c22565b60405180910390fd5b5050565b612be78282611530565b612cb957600160008084815260200190815260200160002060000160008373ffffffffffffffffffffffffffffffffffffffff1673ffffffffffffffffffffffffffffffffffffffff16815260200190815260200160002060006101000a81548160ff021916908315150217905550612c5e612b38565b73ffffffffffffffffffffffffffffffffffffffff168173ffffffffffffffffffffffffffffffffffffffff16837f2f8788117e7eff1d82e926ec794901d17c78024a50270940304540a733656f0d60405160405180910390a45b5050565b6000806000612ccc85856131b3565b91509150612cd981613236565b819250505092915050565b612cee8282611530565b15612dc157600080600084815260200190815260200160002060000160008373ffffffffffffffffffffffffffffffffffffffff1673ffffffffffffffffffffffffffffffffffffffff16815260200190815260200160002060006101000a81548160ff021916908315150217905550612d66612b38565b73ffffffffffffffffffffffffffffffffffffffff168173ffffffffffffffffffffffffffffffffffffffff16837ff6391f5c32d9c69d2a47ea670b442974b53935d1edc7fd64eb21e047a839171b60405160405180910390a45b5050565b600081604051602001612dd891906149b8565b604051602081830303815290604052805190602001209050919050565b60008060035460015484612e0991906151cc565b612e13919061519b565b905060035460025484612e2691906151cc565b612e30919061519b565b9150915091565b6000612e58878686866020015187600001518760000151886020015161340b565b9050612e6587868361378b565b601060009054906101000a900473ffffffffffffffffffffffffffffffffffffffff1673ffffffffffffffffffffffffffffffffffffffff16632ed7bae8836000015188856020015186604001516040518563ffffffff1660e01b8152600401612ed29493929190614a78565b600060405180830381600087803b158015612eec57600080fd5b505af1158015612f00573d6000803e3d6000fd5b5050505050505050505050565b60007f01ffc9a7000000000000000000000000000000000000000000000000000000007bffffffffffffffffffffffffffffffffffffffffffffffffffffffff1916827bffffffffffffffffffffffffffffffffffffffffffffffffffffffff1916149050919050565b606060006002836002612f8a91906151cc565b612f949190615145565b67ffffffffffffffff811115612fad57612fac61551d565b5b6040519080825280601f01601f191660200182016040528015612fdf5781602001600182028036833780820191505090505b5090507f300000000000000000000000000000000000000000000000000000000000000081600081518110613017576130166154ee565b5b60200101907effffffffffffffffffffffffffffffffffffffffffffffffffffffffffffff1916908160001a9053507f78000000000000000000000000000000000000000000000000000000000000008160018151811061307b5761307a6154ee565b5b60200101907effffffffffffffffffffffffffffffffffffffffffffffffffffffffffffff1916908160001a905350600060018460026130bb91906151cc565b6130c59190615145565b90505b6001811115613165577f3031323334353637383961626364656600000000000000000000000000000000600f861660108110613107576131066154ee565b5b1a60f81b82828151811061311e5761311d6154ee565b5b60200101907effffffffffffffffffffffffffffffffffffffffffffffffffffffffffffff1916908160001a905350600485901c94508061315e90615385565b90506130c8565b50600084146131a9576040517f08c379a00000000000000000000000000000000000000000000000000000000081526004016131a090614c64565b60405180910390fd5b8091505092915050565b6000806041835114156131f55760008060006020860151925060408601519150606086015160001a90506131e987828585613823565b9450945050505061322f565b60408351141561322657600080602085015191506040850151905061321b868383613930565b93509350505061322f565b60006002915091505b9250929050565b6000600481111561324a576132496154bf565b5b81600481111561325d5761325c6154bf565b5b141561326857613408565b6001600481111561327c5761327b6154bf565b5b81600481111561328f5761328e6154bf565b5b14156132d0576040517f08c379a00000000000000000000000000000000000000000000000000000000081526004016132c790614c44565b60405180910390fd5b600260048111156132e4576132e36154bf565b5b8160048111156132f7576132f66154bf565b5b1415613338576040517f08c379a000000000000000000000000000000000000000000000000000000000815260040161332f90614ca4565b60405180910390fd5b6003600481111561334c5761334b6154bf565b5b81600481111561335f5761335e6154bf565b5b14156133a0576040517f08c379a000000000000000000000000000000000000000000000000000000000815260040161339790614d44565b60405180910390fd5b6004808111156133b3576133b26154bf565b5b8160048111156133c6576133c56154bf565b5b1415613407576040517f08c379a00000000000000000000000000000000000000000000000000000000081526004016133fe90614e44565b60405180910390fd5b5b50565b6000848611156134245784866134219190615226565b95505b85905061345f600f60009054906101000a900473ffffffffffffffffffffffffffffffffffffffff1688868861345a9190615145565b61378b565b8273ffffffffffffffffffffffffffffffffffffffff166301ffc9a763b779958460e01b6040518263ffffffff1660e01b815260040161349f9190614c07565b60206040518083038186803b1580156134b757600080fd5b505afa1580156134cb573d6000803e3d6000fd5b505050506040513d601f19601f820116820180604052508101906134ef919061400e565b6134f857613780565b600083905060008173ffffffffffffffffffffffffffffffffffffffff1663b9c4d9fb856040518263ffffffff1660e01b81526004016135389190614fe0565b60006040518083038186803b15801561355057600080fd5b505afa158015613564573d6000803e3d6000fd5b505050506040513d6000823e3d601f19601f8201168201806040525081019061358d9190613f7c565b905060008273ffffffffffffffffffffffffffffffffffffffff16630ebd4c7f866040518263ffffffff1660e01b81526004016135ca9190614fe0565b60006040518083038186803b1580156135e257600080fd5b505afa1580156135f6573d6000803e3d6000fd5b505050506040513d6000823e3d601f19601f8201168201806040525081019061361f9190613fc5565b905060005b815181101561377b578b73ffffffffffffffffffffffffffffffffffffffff16838281518110613657576136566154ee565b5b602002602001015173ffffffffffffffffffffffffffffffffffffffff16141561368057613768565b600085141561368e5761377b565b60006003548383815181106136a6576136a56154ee565b5b60200260200101518c6136b991906151cc565b6136c3919061519b565b9050858111156136d957859050600095506136e8565b80866136e59190615226565b95505b61370d8483815181106136fe576136fd6154ee565b5b60200260200101518d8361378b565b7f27c4f0403323142b599832f26acd21c74a9e5b809f2215726e244a4ac588cd7d8888868581518110613743576137426154ee565b5b60200260200101518f8560405161375e959493929190614ae6565b60405180910390a1505b8080613773906153e0565b915050613624565b505050505b979650505050505050565b80600960008573ffffffffffffffffffffffffffffffffffffffff1673ffffffffffffffffffffffffffffffffffffffff16815260200190815260200160002060008473ffffffffffffffffffffffffffffffffffffffff1673ffffffffffffffffffffffffffffffffffffffff16815260200190815260200160002060008282546138179190615145565b92505081905550505050565b6000807f7fffffffffffffffffffffffffffffff5d576e7357a4501ddfe92f46681b20a08360001c111561385e576000600391509150613927565b601b8560ff16141580156138765750601c8560ff1614155b15613888576000600491509150613927565b6000600187878787604051600081526020016040526040516138ad9493929190614bc2565b6020604051602081039080840390855afa1580156138cf573d6000803e3d6000fd5b505050602060405103519050600073ffffffffffffffffffffffffffffffffffffffff168173ffffffffffffffffffffffffffffffffffffffff16141561391e57600060019250925050613927565b80600092509250505b94509492505050565b6000806000807f7fffffffffffffffffffffffffffffffffffffffffffffffffffffffffffffff85169150601b8560ff1c01905061397087828885613823565b935093505050935093915050565b60405180610120016040528060008152602001600073ffffffffffffffffffffffffffffffffffffffff168152602001600073ffffffffffffffffffffffffffffffffffffffff168152602001600081526020016000815260200160008152602001600073ffffffffffffffffffffffffffffffffffffffff1681526020016000815260200160006002811115613a1857613a176154bf565b5b81525090565b6000613a31613a2c846150c6565b6150a1565b90508083825260208201905082856020860282011115613a5457613a5361555b565b5b60005b85811015613a845781613a6a8882613b13565b845260208401935060208301925050600181019050613a57565b5050509392505050565b6000613aa1613a9c846150f2565b6150a1565b90508083825260208201905082856020860282011115613ac457613ac361555b565b5b60005b85811015613af45781613ada8882613cb9565b845260208401935060208301925050600181019050613ac7565b5050509392505050565b600081359050613b0d81615c0f565b92915050565b600081519050613b2281615c26565b92915050565b60008083601f840112613b3e57613b3d615551565b5b8235905067ffffffffffffffff811115613b5b57613b5a61554c565b5b602083019150836020820283011115613b7757613b7661555b565b5b9250929050565b600082601f830112613b9357613b92615551565b5b8151613ba3848260208601613a1e565b91505092915050565b600082601f830112613bc157613bc0615551565b5b8151613bd1848260208601613a8e565b91505092915050565b600081359050613be981615c3d565b92915050565b600081519050613bfe81615c3d565b92915050565b600081359050613c1381615c54565b92915050565b600081359050613c2881615c6b565b92915050565b60008083601f840112613c4457613c43615551565b5b8235905067ffffffffffffffff811115613c6157613c6061554c565b5b602083019150836001820283011115613c7d57613c7c61555b565b5b9250929050565b60006101008284031215613c9b57613c9a615556565b5b81905092915050565b600081359050613cb381615c82565b92915050565b600081519050613cc881615c82565b92915050565b600060208284031215613ce457613ce3615565565b5b6000613cf284828501613afe565b91505092915050565b60008060408385031215613d1257613d11615565565b5b6000613d2085828601613afe565b9250506020613d3185828601613afe565b9150509250929050565b600080600080600080600080610100898b031215613d5c57613d5b615565565b5b6000613d6a8b828c01613afe565b9850506020613d7b8b828c01613afe565b9750506040613d8c8b828c01613ca4565b9650506060613d9d8b828c01613ca4565b9550506080613dae8b828c01613afe565b94505060a0613dbf8b828c01613ca4565b93505060c0613dd08b828c01613ca4565b92505060e0613de18b828c01613ca4565b9150509295985092959890939650565b6000806000806000806000806000806101208b8d031215613e1557613e14615565565b5b6000613e238d828e01613afe565b9a50506020613e348d828e01613afe565b9950506040613e458d828e01613ca4565b9850506060613e568d828e01613ca4565b9750506080613e678d828e01613afe565b96505060a0613e788d828e01613ca4565b95505060c0613e898d828e01613ca4565b94505060e0613e9a8d828e01613ca4565b9350506101008b013567ffffffffffffffff811115613ebc57613ebb615560565b5b613ec88d828e01613c2e565b92509250509295989b9194979a5092959850565b60008060408385031215613ef357613ef2615565565b5b6000613f0185828601613afe565b9250506020613f1285828601613ca4565b9150509250929050565b600080600060408486031215613f3557613f34615565565b5b600084013567ffffffffffffffff811115613f5357613f52615560565b5b613f5f86828701613b28565b93509350506020613f7286828701613bda565b9150509250925092565b600060208284031215613f9257613f91615565565b5b600082015167ffffffffffffffff811115613fb057613faf615560565b5b613fbc84828501613b7e565b91505092915050565b600060208284031215613fdb57613fda615565565b5b600082015167ffffffffffffffff811115613ff957613ff8615560565b5b61400584828501613bac565b91505092915050565b60006020828403121561402457614023615565565b5b600061403284828501613bef565b91505092915050565b60006020828403121561405157614050615565565b5b600061405f84828501613c04565b91505092915050565b6000806040838503121561407f5761407e615565565b5b600061408d85828601613c04565b925050602061409e85828601613afe565b9150509250929050565b6000602082840312156140be576140bd615565565b5b60006140cc84828501613c19565b91505092915050565b60008061012083850312156140ed576140ec615565565b5b60006140fb85828601613c84565b92505061010061410d85828601613ca4565b9150509250929050565b600080600080610140858703121561413257614131615565565b5b600061414087828801613c84565b94505061010061415287828801613ca4565b93505061012085013567ffffffffffffffff81111561417457614173615560565b5b61418087828801613c2e565b925092505092959194509250565b6000602082840312156141a4576141a3615565565b5b60006141b284828501613ca4565b91505092915050565b6000602082840312156141d1576141d0615565565b5b60006141df84828501613cb9565b91505092915050565b600080604083850312156141ff576141fe615565565b5b600061420d85828601613ca4565b925050602061421e85828601613ca4565b9150509250929050565b6142318161530a565b82525050565b6142408161525a565b82525050565b61424f8161525a565b82525050565b6142666142618261525a565b615429565b82525050565b6142758161527e565b82525050565b6142848161528a565b82525050565b61429b6142968261528a565b61543b565b82525050565b6142aa81615294565b82525050565b6142b98161531c565b82525050565b60006142ca8261511e565b6142d48185615129565b93506142e4818560208601615352565b6142ed8161556a565b840191505092915050565b60006143038261511e565b61430d818561513a565b935061431d818560208601615352565b80840191505092915050565b6000614336601883615129565b915061434182615588565b602082019050919050565b6000614359602083615129565b9150614364826155b1565b602082019050919050565b600061437c601b83615129565b9150614387826155da565b602082019050919050565b600061439f601f83615129565b91506143aa82615603565b602082019050919050565b60006143c2601c8361513a565b91506143cd8261562c565b601c82019050919050565b60006143e5602983615129565b91506143f082615655565b604082019050919050565b6000614408602683615129565b9150614413826156a4565b604082019050919050565b600061442b601283615129565b9150614436826156f3565b602082019050919050565b600061444e601f83615129565b91506144598261571c565b602082019050919050565b6000614471602283615129565b915061447c82615745565b604082019050919050565b6000614494601883615129565b915061449f82615794565b602082019050919050565b60006144b7601583615129565b91506144c2826157bd565b602082019050919050565b60006144da601283615129565b91506144e5826157e6565b602082019050919050565b60006144fd602183615129565b91506145088261580f565b604082019050919050565b6000614520601983615129565b915061452b8261585e565b602082019050919050565b6000614543601e83615129565b915061454e82615887565b602082019050919050565b6000614566601183615129565b9150614571826158b0565b602082019050919050565b6000614589602283615129565b9150614594826158d9565b604082019050919050565b60006145ac602183615129565b91506145b782615928565b604082019050919050565b60006145cf601183615129565b91506145da82615977565b602082019050919050565b60006145f2601183615129565b91506145fd826159a0565b602082019050919050565b6000614615601783615129565b9150614620826159c9565b602082019050919050565b6000614638601383615129565b9150614643826159f2565b602082019050919050565b600061465b601d83615129565b915061466682615a1b565b602082019050919050565b600061467e60178361513a565b915061468982615a44565b601782019050919050565b60006146a1602a83615129565b91506146ac82615a6d565b604082019050919050565b60006146c4601283615129565b91506146cf82615abc565b602082019050919050565b60006146e7602183615129565b91506146f282615ae5565b604082019050919050565b600061470a60118361513a565b915061471582615b34565b601182019050919050565b600061472d602f83615129565b915061473882615b5d565b604082019050919050565b6000614750602683615129565b915061475b82615bac565b604082019050919050565b6101208201600082015161477d600085018261481d565b5060208201516147906020850182614237565b5060408201516147a36040850182614237565b5060608201516147b6606085018261481d565b5060808201516147c9608085018261481d565b5060a08201516147dc60a085018261481d565b5060c08201516147ef60c0850182614237565b5060e082015161480260e085018261481d565b506101008201516148176101008501826142b0565b50505050565b614826816152f3565b82525050565b614835816152f3565b82525050565b61484c614847826152f3565b615457565b82525050565b61485b816152fd565b82525050565b600061486d828d614255565b60148201915061487d828c614255565b60148201915061488d828b614255565b60148201915061489d828a614255565b6014820191506148ad828961483b565b6020820191506148bd828861483b565b6020820191506148cd8287614255565b6014820191506148dd828661483b565b6020820191506148ed828561483b565b6020820191506148fd828461483b565b6020820191508190509b9a5050505050505050505050565b6000614921828c614255565b601482019150614931828b614255565b601482019150614941828a614255565b601482019150614951828961483b565b602082019150614961828861483b565b6020820191506149718287614255565b601482019150614981828661483b565b602082019150614991828561483b565b6020820191506149a1828461483b565b6020820191508190509a9950505050505050505050565b60006149c3826143b5565b91506149cf828461428a565b60208201915081905092915050565b60006149e982614671565b91506149f582856142f8565b9150614a00826146fd565b9150614a0c82846142f8565b91508190509392505050565b6000604082019050614a2d6000830185614246565b614a3a6020830184614246565b9392505050565b6000606082019050614a566000830186614246565b614a636020830185614246565b614a70604083018461482c565b949350505050565b6000608082019050614a8d6000830187614246565b614a9a6020830186614246565b614aa7604083018561482c565b614ab4606083018461482c565b95945050505050565b6000604082019050614ad26000830185614246565b614adf602083018461482c565b9392505050565b600060a082019050614afb6000830188614246565b614b08602083018761482c565b614b156040830186614228565b614b226060830185614246565b614b2f608083018461482c565b9695505050505050565b600060a082019050614b4e6000830188614246565b614b5b602083018761482c565b614b686040830186614246565b614b75606083018561482c565b614b82608083018461482c565b9695505050505050565b6000602082019050614ba1600083018461426c565b92915050565b6000602082019050614bbc600083018461427b565b92915050565b6000608082019050614bd7600083018761427b565b614be46020830186614852565b614bf1604083018561427b565b614bfe606083018461427b565b95945050505050565b6000602082019050614c1c60008301846142a1565b92915050565b60006020820190508181036000830152614c3c81846142bf565b905092915050565b60006020820190508181036000830152614c5d81614329565b9050919050565b60006020820190508181036000830152614c7d8161434c565b9050919050565b60006020820190508181036000830152614c9d8161436f565b9050919050565b60006020820190508181036000830152614cbd81614392565b9050919050565b60006020820190508181036000830152614cdd816143d8565b9050919050565b60006020820190508181036000830152614cfd816143fb565b9050919050565b60006020820190508181036000830152614d1d8161441e565b9050919050565b60006020820190508181036000830152614d3d81614441565b9050919050565b60006020820190508181036000830152614d5d81614464565b9050919050565b60006020820190508181036000830152614d7d81614487565b9050919050565b60006020820190508181036000830152614d9d816144aa565b9050919050565b60006020820190508181036000830152614dbd816144cd565b9050919050565b60006020820190508181036000830152614ddd816144f0565b9050919050565b60006020820190508181036000830152614dfd81614513565b9050919050565b60006020820190508181036000830152614e1d81614536565b9050919050565b60006020820190508181036000830152614e3d81614559565b9050919050565b60006020820190508181036000830152614e5d8161457c565b9050919050565b60006020820190508181036000830152614e7d8161459f565b9050919050565b60006020820190508181036000830152614e9d816145c2565b9050919050565b60006020820190508181036000830152614ebd816145e5565b9050919050565b60006020820190508181036000830152614edd81614608565b9050919050565b60006020820190508181036000830152614efd8161462b565b9050919050565b60006020820190508181036000830152614f1d8161464e565b9050919050565b60006020820190508181036000830152614f3d81614694565b9050919050565b60006020820190508181036000830152614f5d816146b7565b9050919050565b60006020820190508181036000830152614f7d816146da565b9050919050565b60006020820190508181036000830152614f9d81614720565b9050919050565b60006020820190508181036000830152614fbd81614743565b9050919050565b600061012082019050614fda6000830184614766565b92915050565b6000602082019050614ff5600083018461482c565b92915050565b600060e082019050615010600083018a61482c565b61501d6020830189614246565b61502a6040830188614246565b615037606083018761482c565b615044608083018661482c565b61505160a0830185614246565b61505e60c083018461482c565b98975050505050505050565b600060608201905061507f600083018661482c565b61508c6020830185614246565b615099604083018461482c565b949350505050565b60006150ab6150bc565b90506150b782826153af565b919050565b6000604051905090565b600067ffffffffffffffff8211156150e1576150e061551d565b5b602082029050602081019050919050565b600067ffffffffffffffff82111561510d5761510c61551d565b5b602082029050602081019050919050565b600081519050919050565b600082825260208201905092915050565b600081905092915050565b6000615150826152f3565b915061515b836152f3565b9250827fffffffffffffffffffffffffffffffffffffffffffffffffffffffffffffffff038211156151905761518f615461565b5b828201905092915050565b60006151a6826152f3565b91506151b1836152f3565b9250826151c1576151c0615490565b5b828204905092915050565b60006151d7826152f3565b91506151e2836152f3565b9250817fffffffffffffffffffffffffffffffffffffffffffffffffffffffffffffffff048311821515161561521b5761521a615461565b5b828202905092915050565b6000615231826152f3565b915061523c836152f3565b92508282101561524f5761524e615461565b5b828203905092915050565b6000615265826152d3565b9050919050565b6000615277826152d3565b9050919050565b60008115159050919050565b6000819050919050565b60007fffffffff0000000000000000000000000000000000000000000000000000000082169050919050565b60008190506152ce82615bfb565b919050565b600073ffffffffffffffffffffffffffffffffffffffff82169050919050565b6000819050919050565b600060ff82169050919050565b60006153158261532e565b9050919050565b6000615327826152c0565b9050919050565b600061533982615340565b9050919050565b600061534b826152d3565b9050919050565b60005b83811015615370578082015181840152602081019050615355565b8381111561537f576000848401525b50505050565b6000615390826152f3565b915060008214156153a4576153a3615461565b5b600182039050919050565b6153b88261556a565b810181811067ffffffffffffffff821117156153d7576153d661551d565b5b80604052505050565b60006153eb826152f3565b91507fffffffffffffffffffffffffffffffffffffffffffffffffffffffffffffffff82141561541e5761541d615461565b5b600182019050919050565b600061543482615445565b9050919050565b6000819050919050565b60006154508261557b565b9050919050565b6000819050919050565b7f4e487b7100000000000000000000000000000000000000000000000000000000600052601160045260246000fd5b7f4e487b7100000000000000000000000000000000000000000000000000000000600052601260045260246000fd5b7f4e487b7100000000000000000000000000000000000000000000000000000000600052602160045260246000fd5b7f4e487b7100000000000000000000000000000000000000000000000000000000600052603260045260246000fd5b7f4e487b7100000000000000000000000000000000000000000000000000000000600052604160045260246000fd5b600080fd5b600080fd5b600080fd5b600080fd5b600080fd5b600080fd5b6000601f19601f8301169050919050565b60008160601b9050919050565b7f45434453413a20696e76616c6964207369676e61747572650000000000000000600082015250565b7f537472696e67733a20686578206c656e67746820696e73756666696369656e74600082015250565b7f4e6f7420656e6f75676820746f6b656e7320666f722073616c652e0000000000600082015250565b7f45434453413a20696e76616c6964207369676e6174757265206c656e67746800600082015250565b7f19457468657265756d205369676e6564204d6573736167653a0a333200000000600082015250565b7f4f6e6c792073656c6c6572206f722061646d696e2063616e20636c6f7365207460008201527f68652074726164652e0000000000000000000000000000000000000000000000602082015250565b7f4f66666572206e6565647320746f206265207369676e6564206279207468652060008201527f62757965722e0000000000000000000000000000000000000000000000000000602082015250565b7f5472616465206973206e6f74206f70656e2e0000000000000000000000000000600082015250565b7f4f6e6c79206f70656e207472616465732063616e20626520636c6f7365642e00600082015250565b7f45434453413a20696e76616c6964207369676e6174757265202773272076616c60008201527f7565000000000000000000000000000000000000000000000000000000000000602082015250565b7f43757272656e6379206973206e6f7420616c6c6f7765642e0000000000000000600082015250565b7f416c6c6f77616e636520697320746f6f206c6f772e0000000000000000000000600082015250565b7f507269636520697320746f6f20686967682e0000000000000000000000000000600082015250565b7f4f666665722068617320616c7265616479206265656e2066756c66696c6c656460008201527f2e00000000000000000000000000000000000000000000000000000000000000602082015250565b7f5175616e746974792065786365656473206d6178696d756d2e00000000000000600082015250565b7f546f6b656e20636f6e7472616374206973206e6f7420616c6c6f7765642e0000600082015250565b7f507269636520697320746f6f206c6f772e000000000000000000000000000000600082015250565b7f45434453413a20696e76616c6964207369676e6174757265202776272076616c60008201527f7565000000000000000000000000000000000000000000000000000000000000602082015250565b7f4f666665722068617320616c7265616479206265656e2063616e63656c6c656460008201527f2e00000000000000000000000000000000000000000000000000000000000000602082015250565b7f417070726f76616c20657870697265642e000000000000000000000000000000600082015250565b7f4f6666657220697320657870697265642e000000000000000000000000000000600082015250565b7f53656c6c65722063616e6e6f742062652062757965722e000000000000000000600082015250565b7f417070726f76616c206578686175737465642e00000000000000000000000000600082015250565b7f4f6e6c792073656c6c65722063616e20616363657074206f666665722e000000600082015250565b7f416363657373436f6e74726f6c3a206163636f756e7420000000000000000000600082015250565b7f4665652063616e6e6f7420626520686967686572207468616e2068756e64726560008201527f642070657263656e742e00000000000000000000000000000000000000000000602082015250565b7f496e76616c6964207369676e61747572652e0000000000000000000000000000600082015250565b7f496e73756666696369656e742062616c616e636520746f20776974686472617760008201527f2e00000000000000000000000000000000000000000000000000000000000000602082015250565b7f206973206d697373696e6720726f6c6520000000000000000000000000000000600082015250565b7f416363657373436f6e74726f6c3a2063616e206f6e6c792072656e6f756e636560008201527f20726f6c657320666f722073656c660000000000000000000000000000000000602082015250565b7f4f6666657220686173206265656e2066756c66696c6c6564206f722063616e6360008201527f656c6c65642e0000000000000000000000000000000000000000000000000000602082015250565b60038110615c0c57615c0b6154bf565b5b50565b615c188161525a565b8114615c2357600080fd5b50565b615c2f8161526c565b8114615c3a57600080fd5b50565b615c468161527e565b8114615c5157600080fd5b50565b615c5d8161528a565b8114615c6857600080fd5b50565b615c7481615294565b8114615c7f57600080fd5b50565b615c8b816152f3565b8114615c9657600080fd5b5056fea26469706673582212205e1ac4a0019283ca53465edeaaebe3c021967b395f3b58d942dde4c9ef77f7c364736f6c63430008070033",
  "immutableReferences": {},
  "source": "// SPDX-License-Identifier: MIT\npragma solidity ^0.8.0;\n\nimport \"@openzeppelin/contracts/token/ERC20/IERC20.sol\";\nimport \"@openzeppelin/contracts/utils/cryptography/ECDSA.sol\";\nimport \"./MarketV1.sol\";\n\nstruct Offer {\n  address buyer;\n  address seller;\n  address token;\n  uint tokenId;\n  uint quantity;\n  address currency;\n  uint price;\n  uint expiry;\n}\n\ncontract OfferMarketV1 is MarketV1 {\n  using ECDSA for bytes32;\n \n  event AcceptOffer(\n    address indexed seller,\n    address indexed buyer,\n    address token,\n    address tokenId,\n    uint quantity,\n    address currency,\n    uint price\n  );\n\n  event CancelOffer(\n    address indexed sender,\n    address token,\n    address tokenId,\n    uint quantity,\n    address currency,\n    uint price\n  );\n\n  mapping(bytes32 => bool) private _cancelled;\n  mapping(bytes32 => bool) private _completed;\n\n  constructor(MarketWalletV1 wallet) MarketV1(wallet) {}\n\n  function acceptOffer(Offer calldata offer, uint salt, bytes calldata signature) public {\n    require(msg.sender == offer.seller, \"Only seller can accept offer.\");\n\n    require(_approvedTokens[offer.token], \"Token contract is not allowed.\");\n    require(_approvedCurrencies[offer.currency], \"Currency is not allowed.\");\n    \n    require(offer.expiry > block.timestamp, \"Offer is expired.\");\n\n    bytes32 offerHash = getOfferHash(offer, salt);\n\n    require(\n      !_cancelled[offerHash] && !_completed[offerHash],\n      \"Offer has been fulfilled or cancelled.\"\n    );\n    \n    address recoveredAddress = offerHash\n      .toEthSignedMessageHash()\n      .recover(signature);\n\n    require(\n      recoveredAddress == offer.buyer,\n      \"Offer needs to be signed by the buyer.\"\n    );\n\n    require(offer.price >= minTokenPrice, \"Price is too low.\");\n\n    (uint sellerFee, uint buyerFee) = calculateMarketFees(offer.price);\n\n    // require(\n    //   IERC20(offer.currency).allowance(\n    //     offer.buyer,\n    //     address(this)\n    //   ) >= offer.price + buyerFee,\n    //   \"Insufficient transfer allowance.\"\n    // );\n\n    _completed[offerHash] = true;\n    \n    _wallet.take(\n      offer.token,\n      msg.sender,\n      offer.tokenId,\n      offer.quantity\n    );\n\n    IERC20(offer.currency).transferFrom(\n      offer.buyer,\n      address(this),\n      offer.price + buyerFee\n    );\n\n    exchange(\n      offer.seller,\n      offer.buyer,\n      offer.currency,\n      offer.price,\n      MarketFees(\n        buyerFee,\n        sellerFee\n      ),\n      TokenOrder(\n        offer.token,\n        offer.tokenId,\n        offer.quantity\n      )\n    );\n  }\n\n  function getOfferHash(Offer calldata offer, uint salt) public view returns (bytes32) {\n    return keccak256(abi.encodePacked(\n      address(this),\n      offer.buyer,\n      offer.seller,\n      offer.token,\n      offer.tokenId,\n      offer.quantity,\n      offer.currency,\n      offer.price,\n      offer.expiry,\n      salt\n    ));\n  }\n\n  // Only offer maker and market owner can cancel\n  function cancelOffer(Offer calldata offer, uint nonce, bytes calldata signature) public {\n    bytes32 offerHash = getOfferHash(offer, nonce);\n\n    require(!_completed[offerHash], \"Offer has already been fulfilled.\");\n    require(!_cancelled[offerHash], \"Offer has already been cancelled.\");\n\n    require(msg.sender == offerHash.recover(signature) || hasRole(ADMIN_ROLE, msg.sender));\n    \n    _cancelled[offerHash] = true;\n  }\n}",
  "sourcePath": "/Users/husnain/Desktop/fanbase/packages/ethereum/contracts/solidity/contracts/OfferMarketV1.sol",
  "compiler": {
    "name": "solc",
    "version": "0.8.7+commit.e28d00a7.Emscripten.clang"
  },
  "schemaVersion": "3.4.3",
  "updatedAt": "2021-09-26T15:58:17.524Z",
  "networkType": "ethereum",
  "devdoc": {
    "kind": "dev",
    "methods": {
      "getRoleAdmin(bytes32)": {
        "details": "Returns the admin role that controls `role`. See {grantRole} and {revokeRole}. To change a role's admin, use {_setRoleAdmin}."
      },
      "grantRole(bytes32,address)": {
        "details": "Grants `role` to `account`. If `account` had not been already granted `role`, emits a {RoleGranted} event. Requirements: - the caller must have ``role``'s admin role."
      },
      "hasRole(bytes32,address)": {
        "details": "Returns `true` if `account` has been granted `role`."
      },
      "renounceRole(bytes32,address)": {
        "details": "Revokes `role` from the calling account. Roles are often managed via {grantRole} and {revokeRole}: this function's purpose is to provide a mechanism for accounts to lose their privileges if they are compromised (such as when a trusted device is misplaced). If the calling account had been granted `role`, emits a {RoleRevoked} event. Requirements: - the caller must be `account`."
      },
      "revokeRole(bytes32,address)": {
        "details": "Revokes `role` from `account`. If `account` had been granted `role`, emits a {RoleRevoked} event. Requirements: - the caller must have ``role``'s admin role."
      }
    },
    "version": 1
  },
  "userdoc": {
    "kind": "user",
    "methods": {},
    "version": 1
  }
}