{
  "contractName": "ReentrancyAttack",
  "abi": [
    {
      "inputs": [
        {
          "internalType": "bytes4",
          "name": "data",
          "type": "bytes4"
        }
      ],
      "name": "callSender",
      "outputs": [],
      "stateMutability": "nonpayable",
      "type": "function"
    }
  ],
  "bytecode": "0x608060405234801561001057600080fd5b5061033d806100206000396000f3fe608060405234801561001057600080fd5b506004361061002b5760003560e01c80630a2df1ed14610030575b600080fd5b61004a60048036038101906100459190610184565b61004c565b005b6000610056610167565b73ffffffffffffffffffffffffffffffffffffffff1682604051602401604051602081830303815290604052907bffffffffffffffffffffffffffffffffffffffffffffffffffffffff19166020820180517bffffffffffffffffffffffffffffffffffffffffffffffffffffffff83818316178352505050506040516100dd9190610205565b6000604051808303816000865af19150503d806000811461011a576040519150601f19603f3d011682016040523d82523d6000602084013e61011f565b606091505b5050905080610163576040517f08c379a000000000000000000000000000000000000000000000000000000000815260040161015a9061021c565b60405180910390fd5b5050565b600033905090565b60008135905061017e816102f0565b92915050565b60006020828403121561019a576101996102c2565b5b60006101a88482850161016f565b91505092915050565b60006101bc8261023c565b6101c68185610247565b93506101d681856020860161028f565b80840191505092915050565b60006101ef601d83610252565b91506101fa826102c7565b602082019050919050565b600061021182846101b1565b915081905092915050565b60006020820190508181036000830152610235816101e2565b9050919050565b600081519050919050565b600081905092915050565b600082825260208201905092915050565b60007fffffffff0000000000000000000000000000000000000000000000000000000082169050919050565b60005b838110156102ad578082015181840152602081019050610292565b838111156102bc576000848401525b50505050565b600080fd5b7f5265656e7472616e637941747461636b3a206661696c65642063616c6c000000600082015250565b6102f981610263565b811461030457600080fd5b5056fea2646970667358221220a7f771f40171c3b1fa128634c6d1811ac5665a268f8d75c41f8391f8d81389a764736f6c63430008070033",
  "immutableReferences": {},
  "source": "// SPDX-License-Identifier: MIT\r\n\r\npragma solidity ^0.8.0;\r\n\r\nimport \"../utils/Context.sol\";\r\ncontract ReentrancyAttack is Context {\r\n    function callSender(bytes4 data) public {\r\n        // solhint-disable-next-line avoid-low-level-calls\r\n        (bool success,) = _msgSender().call(abi.encodeWithSelector(data));\r\n        require(success, \"ReentrancyAttack: failed call\");\r\n    }\r\n}\r\n",
  "sourcePath": "C:/Users/Husnain/Documents/Projects/Fanbase/fanbase/packages/ethereum/contracts/solidity/openzeppelin/contracts/mocks/ReentrancyAttack.sol",
  "compiler": {
    "name": "solc",
    "version": "0.8.7+commit.e28d00a7.Emscripten.clang"
  },
  "schemaVersion": "3.4.1",
  "updatedAt": "2021-08-24T16:49:29.204Z",
  "devdoc": {
    "kind": "dev",
    "methods": {},
    "version": 1
  },
  "userdoc": {
    "kind": "user",
    "methods": {},
    "version": 1
  }
}