{
  "contractName": "SafeCastMock",
  "abi": [
    {
      "inputs": [
        {
          "internalType": "int256",
          "name": "a",
          "type": "int256"
        }
      ],
      "name": "toUint256",
      "outputs": [
        {
          "internalType": "uint256",
          "name": "",
          "type": "uint256"
        }
      ],
      "stateMutability": "pure",
      "type": "function"
    },
    {
      "inputs": [
        {
          "internalType": "uint256",
          "name": "a",
          "type": "uint256"
        }
      ],
      "name": "toInt256",
      "outputs": [
        {
          "internalType": "int256",
          "name": "",
          "type": "int256"
        }
      ],
      "stateMutability": "pure",
      "type": "function"
    },
    {
      "inputs": [
        {
          "internalType": "uint256",
          "name": "a",
          "type": "uint256"
        }
      ],
      "name": "toUint128",
      "outputs": [
        {
          "internalType": "uint128",
          "name": "",
          "type": "uint128"
        }
      ],
      "stateMutability": "pure",
      "type": "function"
    },
    {
      "inputs": [
        {
          "internalType": "uint256",
          "name": "a",
          "type": "uint256"
        }
      ],
      "name": "toUint64",
      "outputs": [
        {
          "internalType": "uint64",
          "name": "",
          "type": "uint64"
        }
      ],
      "stateMutability": "pure",
      "type": "function"
    },
    {
      "inputs": [
        {
          "internalType": "uint256",
          "name": "a",
          "type": "uint256"
        }
      ],
      "name": "toUint32",
      "outputs": [
        {
          "internalType": "uint32",
          "name": "",
          "type": "uint32"
        }
      ],
      "stateMutability": "pure",
      "type": "function"
    },
    {
      "inputs": [
        {
          "internalType": "uint256",
          "name": "a",
          "type": "uint256"
        }
      ],
      "name": "toUint16",
      "outputs": [
        {
          "internalType": "uint16",
          "name": "",
          "type": "uint16"
        }
      ],
      "stateMutability": "pure",
      "type": "function"
    },
    {
      "inputs": [
        {
          "internalType": "uint256",
          "name": "a",
          "type": "uint256"
        }
      ],
      "name": "toUint8",
      "outputs": [
        {
          "internalType": "uint8",
          "name": "",
          "type": "uint8"
        }
      ],
      "stateMutability": "pure",
      "type": "function"
    },
    {
      "inputs": [
        {
          "internalType": "int256",
          "name": "a",
          "type": "int256"
        }
      ],
      "name": "toInt128",
      "outputs": [
        {
          "internalType": "int128",
          "name": "",
          "type": "int128"
        }
      ],
      "stateMutability": "pure",
      "type": "function"
    },
    {
      "inputs": [
        {
          "internalType": "int256",
          "name": "a",
          "type": "int256"
        }
      ],
      "name": "toInt64",
      "outputs": [
        {
          "internalType": "int64",
          "name": "",
          "type": "int64"
        }
      ],
      "stateMutability": "pure",
      "type": "function"
    },
    {
      "inputs": [
        {
          "internalType": "int256",
          "name": "a",
          "type": "int256"
        }
      ],
      "name": "toInt32",
      "outputs": [
        {
          "internalType": "int32",
          "name": "",
          "type": "int32"
        }
      ],
      "stateMutability": "pure",
      "type": "function"
    },
    {
      "inputs": [
        {
          "internalType": "int256",
          "name": "a",
          "type": "int256"
        }
      ],
      "name": "toInt16",
      "outputs": [
        {
          "internalType": "int16",
          "name": "",
          "type": "int16"
        }
      ],
      "stateMutability": "pure",
      "type": "function"
    },
    {
      "inputs": [
        {
          "internalType": "int256",
          "name": "a",
          "type": "int256"
        }
      ],
      "name": "toInt8",
      "outputs": [
        {
          "internalType": "int8",
          "name": "",
          "type": "int8"
        }
      ],
      "stateMutability": "pure",
      "type": "function"
    }
  ],
  "bytecode": "0x608060405234801561001057600080fd5b5061101f806100206000396000f3fe608060405234801561001057600080fd5b50600436106100b45760003560e01c8063cf65b4d311610071578063cf65b4d3146101d9578063d6bd32aa14610209578063dd2a031614610239578063dfbe873b14610269578063f136dc0214610299578063fdcf791b146102c9576100b4565b80630cc4681e146100b95780632665fad0146100e9578063809fdd33146101195780639374068f146101495780639c6f59be14610179578063c8193255146101a9575b600080fd5b6100d360048036038101906100ce91906108f8565b6102f9565b6040516100e09190610cd7565b60405180910390f35b61010360048036038101906100fe91906108f8565b61030b565b6040516101109190610cbc565b60405180910390f35b610133600480360381019061012e91906108f8565b61031d565b6040516101409190610c50565b60405180910390f35b610163600480360381019061015e91906108f8565b61032f565b6040516101709190610c6b565b60405180910390f35b610193600480360381019061018e91906108cb565b610341565b6040516101a09190610b1f565b60405180910390f35b6101c360048036038101906101be91906108f8565b610353565b6040516101d09190610ca1565b60405180910390f35b6101f360048036038101906101ee91906108cb565b610365565b6040516102009190610ae9565b60405180910390f35b610223600480360381019061021e91906108cb565b610377565b6040516102309190610b3a565b60405180910390f35b610253600480360381019061024e91906108cb565b610389565b6040516102609190610ace565b60405180910390f35b610283600480360381019061027e91906108f8565b61039b565b6040516102909190610b04565b60405180910390f35b6102b360048036038101906102ae91906108cb565b6103ad565b6040516102c09190610b55565b60405180910390f35b6102e360048036038101906102de91906108cb565b6103bf565b6040516102f09190610c86565b60405180910390f35b6000610304826103d1565b9050919050565b60006103168261041f565b9050919050565b600061032882610474565b9050919050565b600061033a826104d1565b9050919050565b600061034c82610520565b9050919050565b600061035e8261059c565b9050919050565b6000610370826105ed565b9050919050565b600061038282610667565b9050919050565b6000610394826106e7565b9050919050565b60006103a68261076f565b9050919050565b60006103b8826107db565b9050919050565b60006103ca82610854565b9050919050565b60006101008210610417576040517f08c379a000000000000000000000000000000000000000000000000000000000815260040161040e90610b90565b60405180910390fd5b819050919050565b600068010000000000000000821061046c576040517f08c379a000000000000000000000000000000000000000000000000000000000815260040161046390610bf0565b60405180910390fd5b819050919050565b600070010000000000000000000000000000000082106104c9576040517f08c379a00000000000000000000000000000000000000000000000000000000081526004016104c090610bb0565b60405180910390fd5b819050919050565b6000620100008210610518576040517f08c379a000000000000000000000000000000000000000000000000000000000815260040161050f90610b70565b60405180910390fd5b819050919050565b60007fffffffffffffffffffffffffffffffffffffffffffffffffffffffff8000000082121580156105555750638000000082125b610594576040517f08c379a000000000000000000000000000000000000000000000000000000000815260040161058b90610c10565b60405180910390fd5b819050919050565b600064010000000082106105e5576040517f08c379a00000000000000000000000000000000000000000000000000000000081526004016105dc90610c10565b60405180910390fd5b819050919050565b60007fffffffffffffffffffffffffffffffffffffffffffffffffffffffffffff80008212158015610620575061800082125b61065f576040517f08c379a000000000000000000000000000000000000000000000000000000000815260040161065690610b70565b60405180910390fd5b819050919050565b60007fffffffffffffffffffffffffffffffffffffffffffffffff800000000000000082121580156106a0575067800000000000000082125b6106df576040517f08c379a00000000000000000000000000000000000000000000000000000000081526004016106d690610bf0565b60405180910390fd5b819050919050565b60007fffffffffffffffffffffffffffffffff80000000000000000000000000000000821215801561072857506f8000000000000000000000000000000082125b610767576040517f08c379a000000000000000000000000000000000000000000000000000000000815260040161075e90610bb0565b60405180910390fd5b819050919050565b60007f800000000000000000000000000000000000000000000000000000000000000082106107d3576040517f08c379a00000000000000000000000000000000000000000000000000000000081526004016107ca90610c30565b60405180910390fd5b819050919050565b60007fffffffffffffffffffffffffffffffffffffffffffffffffffffffffffffff80821215801561080d5750608082125b61084c576040517f08c379a000000000000000000000000000000000000000000000000000000000815260040161084390610b90565b60405180910390fd5b819050919050565b600080821215610899576040517f08c379a000000000000000000000000000000000000000000000000000000000815260040161089090610bd0565b60405180910390fd5b819050919050565b6000813590506108b081610fbb565b92915050565b6000813590506108c581610fd2565b92915050565b6000602082840312156108e1576108e0610db3565b5b60006108ef848285016108a1565b91505092915050565b60006020828403121561090e5761090d610db3565b5b600061091c848285016108b6565b91505092915050565b61092e81610d03565b82525050565b61093d81610d10565b82525050565b61094c81610d1d565b82525050565b61095b81610d27565b82525050565b61096a81610d34565b82525050565b61097981610d41565b82525050565b600061098c602683610cf2565b915061099782610db8565b604082019050919050565b60006109af602583610cf2565b91506109ba82610e07565b604082019050919050565b60006109d2602783610cf2565b91506109dd82610e56565b604082019050919050565b60006109f5602083610cf2565b9150610a0082610ea5565b602082019050919050565b6000610a18602683610cf2565b9150610a2382610ece565b604082019050919050565b6000610a3b602683610cf2565b9150610a4682610f1d565b604082019050919050565b6000610a5e602883610cf2565b9150610a6982610f6c565b604082019050919050565b610a7d81610d4e565b82525050565b610a8c81610d6a565b82525050565b610a9b81610d78565b82525050565b610aaa81610d82565b82525050565b610ab981610d92565b82525050565b610ac881610da6565b82525050565b6000602082019050610ae36000830184610925565b92915050565b6000602082019050610afe6000830184610934565b92915050565b6000602082019050610b196000830184610943565b92915050565b6000602082019050610b346000830184610952565b92915050565b6000602082019050610b4f6000830184610961565b92915050565b6000602082019050610b6a6000830184610970565b92915050565b60006020820190508181036000830152610b898161097f565b9050919050565b60006020820190508181036000830152610ba9816109a2565b9050919050565b60006020820190508181036000830152610bc9816109c5565b9050919050565b60006020820190508181036000830152610be9816109e8565b9050919050565b60006020820190508181036000830152610c0981610a0b565b9050919050565b60006020820190508181036000830152610c2981610a2e565b9050919050565b60006020820190508181036000830152610c4981610a51565b9050919050565b6000602082019050610c656000830184610a74565b92915050565b6000602082019050610c806000830184610a83565b92915050565b6000602082019050610c9b6000830184610a92565b92915050565b6000602082019050610cb66000830184610aa1565b92915050565b6000602082019050610cd16000830184610ab0565b92915050565b6000602082019050610cec6000830184610abf565b92915050565b600082825260208201905092915050565b600081600f0b9050919050565b60008160010b9050919050565b6000819050919050565b60008160030b9050919050565b60008160070b9050919050565b60008160000b9050919050565b60006fffffffffffffffffffffffffffffffff82169050919050565b600061ffff82169050919050565b6000819050919050565b600063ffffffff82169050919050565b600067ffffffffffffffff82169050919050565b600060ff82169050919050565b600080fd5b7f53616665436173743a2076616c756520646f65736e27742066697420696e203160008201527f3620626974730000000000000000000000000000000000000000000000000000602082015250565b7f53616665436173743a2076616c756520646f65736e27742066697420696e203860008201527f2062697473000000000000000000000000000000000000000000000000000000602082015250565b7f53616665436173743a2076616c756520646f65736e27742066697420696e203160008201527f3238206269747300000000000000000000000000000000000000000000000000602082015250565b7f53616665436173743a2076616c7565206d75737420626520706f736974697665600082015250565b7f53616665436173743a2076616c756520646f65736e27742066697420696e203660008201527f3420626974730000000000000000000000000000000000000000000000000000602082015250565b7f53616665436173743a2076616c756520646f65736e27742066697420696e203360008201527f3220626974730000000000000000000000000000000000000000000000000000602082015250565b7f53616665436173743a2076616c756520646f65736e27742066697420696e206160008201527f6e20696e74323536000000000000000000000000000000000000000000000000602082015250565b610fc481610d1d565b8114610fcf57600080fd5b50565b610fdb81610d78565b8114610fe657600080fd5b5056fea26469706673582212204d1d0eeaad69a7e5e6a488c86cfabcedb33d8dfe25977c22a8f06caa6321427c64736f6c63430008060033",
  "immutableReferences": {},
  "source": "// SPDX-License-Identifier: MIT\n\npragma solidity ^0.8.0;\n\nimport \"../utils/math/SafeCast.sol\";\n\ncontract SafeCastMock {\n    using SafeCast for uint;\n    using SafeCast for int;\n\n    function toUint256(int a) public pure returns (uint256) {\n        return a.toUint256();\n    }\n\n    function toInt256(uint a) public pure returns (int256) {\n        return a.toInt256();\n    }\n\n    function toUint128(uint a) public pure returns (uint128) {\n        return a.toUint128();\n    }\n\n    function toUint64(uint a) public pure returns (uint64) {\n        return a.toUint64();\n    }\n\n    function toUint32(uint a) public pure returns (uint32) {\n        return a.toUint32();\n    }\n\n    function toUint16(uint a) public pure returns (uint16) {\n        return a.toUint16();\n    }\n\n    function toUint8(uint a) public pure returns (uint8) {\n        return a.toUint8();\n    }\n\n    function toInt128(int a) public pure returns (int128) {\n        return a.toInt128();\n    }\n\n    function toInt64(int a) public pure returns (int64) {\n        return a.toInt64();\n    }\n\n    function toInt32(int a) public pure returns (int32) {\n        return a.toInt32();\n    }\n\n    function toInt16(int a) public pure returns (int16) {\n        return a.toInt16();\n    }\n\n    function toInt8(int a) public pure returns (int8) {\n        return a.toInt8();\n    }\n}\n",
  "sourcePath": "C:/Users/Husnain/Documents/Projects/Fanbase/New/fanbase/packages/ethereum/contracts/solidity/openzeppelin/contracts/mocks/SafeCastMock.sol",
  "compiler": {
    "name": "solc",
    "version": "0.8.6+commit.11564f7e.Emscripten.clang"
  },
  "schemaVersion": "3.4.1",
  "updatedAt": "2021-07-06T14:02:45.950Z",
  "devdoc": {
    "kind": "dev",
    "methods": {},
    "version": 1
  },
  "userdoc": {
    "kind": "user",
    "methods": {},
    "version": 1
  }
}