{
  "contractName": "SafeERC20Wrapper",
  "abi": [
    {
      "inputs": [
        {
          "internalType": "contract IERC20",
          "name": "token",
          "type": "address"
        }
      ],
      "stateMutability": "nonpayable",
      "type": "constructor"
    },
    {
      "inputs": [],
      "name": "transfer",
      "outputs": [],
      "stateMutability": "nonpayable",
      "type": "function"
    },
    {
      "inputs": [],
      "name": "transferFrom",
      "outputs": [],
      "stateMutability": "nonpayable",
      "type": "function"
    },
    {
      "inputs": [
        {
          "internalType": "uint256",
          "name": "amount",
          "type": "uint256"
        }
      ],
      "name": "approve",
      "outputs": [],
      "stateMutability": "nonpayable",
      "type": "function"
    },
    {
      "inputs": [
        {
          "internalType": "uint256",
          "name": "amount",
          "type": "uint256"
        }
      ],
      "name": "increaseAllowance",
      "outputs": [],
      "stateMutability": "nonpayable",
      "type": "function"
    },
    {
      "inputs": [
        {
          "internalType": "uint256",
          "name": "amount",
          "type": "uint256"
        }
      ],
      "name": "decreaseAllowance",
      "outputs": [],
      "stateMutability": "nonpayable",
      "type": "function"
    },
    {
      "inputs": [
        {
          "internalType": "uint256",
          "name": "allowance_",
          "type": "uint256"
        }
      ],
      "name": "setAllowance",
      "outputs": [],
      "stateMutability": "nonpayable",
      "type": "function"
    },
    {
      "inputs": [],
      "name": "allowance",
      "outputs": [
        {
          "internalType": "uint256",
          "name": "",
          "type": "uint256"
        }
      ],
      "stateMutability": "view",
      "type": "function"
    }
  ],
  "bytecode": "0x60806040523480156200001157600080fd5b506040516200131838038062001318833981810160405281019062000037919062000095565b806000806101000a81548173ffffffffffffffffffffffffffffffffffffffff021916908373ffffffffffffffffffffffffffffffffffffffff160217905550506200012e565b6000815190506200008f8162000114565b92915050565b600060208284031215620000ae57620000ad6200010f565b5b6000620000be848285016200007e565b91505092915050565b6000620000d482620000ef565b9050919050565b6000620000e882620000c7565b9050919050565b600073ffffffffffffffffffffffffffffffffffffffff82169050919050565b600080fd5b6200011f81620000db565b81146200012b57600080fd5b50565b6111da806200013e6000396000f3fe608060405234801561001057600080fd5b506004361061007d5760003560e01c8063811c34d31161005b578063811c34d3146100d65780638a4068dd146100e0578063b759f954146100ea578063de242ff4146101065761007d565b806310bad4cf1461008257806311e330b21461009e5780633ba93f26146100ba575b600080fd5b61009c60048036038101906100979190610bbb565b610124565b005b6100b860048036038101906100b39190610bbb565b610173565b005b6100d460048036038101906100cf9190610bbb565b6101c2565b005b6100de610250565b005b6100e86102a2565b005b61010460048036038101906100ff9190610bbb565b6102f0565b005b61010e61033f565b60405161011b9190610eae565b60405180910390f35b61017060008260008054906101000a900473ffffffffffffffffffffffffffffffffffffffff1673ffffffffffffffffffffffffffffffffffffffff166103f39092919063ffffffff16565b50565b6101bf60008260008054906101000a900473ffffffffffffffffffffffffffffffffffffffff1673ffffffffffffffffffffffffffffffffffffffff166105549092919063ffffffff16565b50565b60008054906101000a900473ffffffffffffffffffffffffffffffffffffffff1673ffffffffffffffffffffffffffffffffffffffff16633ba93f26826040518263ffffffff1660e01b815260040161021b9190610eae565b600060405180830381600087803b15801561023557600080fd5b505af1158015610249573d6000803e3d6000fd5b5050505050565b6102a060008060008060009054906101000a900473ffffffffffffffffffffffffffffffffffffffff1673ffffffffffffffffffffffffffffffffffffffff16610675909392919063ffffffff16565b565b6102ee60008060008054906101000a900473ffffffffffffffffffffffffffffffffffffffff1673ffffffffffffffffffffffffffffffffffffffff166106fe9092919063ffffffff16565b565b61033c60008260008054906101000a900473ffffffffffffffffffffffffffffffffffffffff1673ffffffffffffffffffffffffffffffffffffffff166107849092919063ffffffff16565b50565b60008060009054906101000a900473ffffffffffffffffffffffffffffffffffffffff1673ffffffffffffffffffffffffffffffffffffffff1663dd62ed3e6000806040518363ffffffff1660e01b815260040161039e929190610d63565b60206040518083038186803b1580156103b657600080fd5b505afa1580156103ca573d6000803e3d6000fd5b505050506040513d601f19601f820116820180604052508101906103ee9190610be8565b905090565b60008373ffffffffffffffffffffffffffffffffffffffff1663dd62ed3e30856040518363ffffffff1660e01b8152600401610430929190610d63565b60206040518083038186803b15801561044857600080fd5b505afa15801561045c573d6000803e3d6000fd5b505050506040513d601f19601f820116820180604052508101906104809190610be8565b9050818110156104c5576040517f08c379a00000000000000000000000000000000000000000000000000000000081526004016104bc90610e0e565b60405180910390fd5b6000828203905061054d8563095ea7b360e01b86846040516024016104eb929190610dc3565b604051602081830303815290604052907bffffffffffffffffffffffffffffffffffffffffffffffffffffffff19166020820180517bffffffffffffffffffffffffffffffffffffffffffffffffffffffff83818316178352505050506108e2565b5050505050565b6000818473ffffffffffffffffffffffffffffffffffffffff1663dd62ed3e30866040518363ffffffff1660e01b8152600401610592929190610d63565b60206040518083038186803b1580156105aa57600080fd5b505afa1580156105be573d6000803e3d6000fd5b505050506040513d601f19601f820116820180604052508101906105e29190610be8565b6105ec9190610efb565b905061066f8463095ea7b360e01b858460405160240161060d929190610dc3565b604051602081830303815290604052907bffffffffffffffffffffffffffffffffffffffffffffffffffffffff19166020820180517bffffffffffffffffffffffffffffffffffffffffffffffffffffffff83818316178352505050506108e2565b50505050565b6106f8846323b872dd60e01b85858560405160240161069693929190610d8c565b604051602081830303815290604052907bffffffffffffffffffffffffffffffffffffffffffffffffffffffff19166020820180517bffffffffffffffffffffffffffffffffffffffffffffffffffffffff83818316178352505050506108e2565b50505050565b61077f8363a9059cbb60e01b848460405160240161071d929190610dc3565b604051602081830303815290604052907bffffffffffffffffffffffffffffffffffffffffffffffffffffffff19166020820180517bffffffffffffffffffffffffffffffffffffffffffffffffffffffff83818316178352505050506108e2565b505050565b600081148061081d575060008373ffffffffffffffffffffffffffffffffffffffff1663dd62ed3e30856040518363ffffffff1660e01b81526004016107cb929190610d63565b60206040518083038186803b1580156107e357600080fd5b505afa1580156107f7573d6000803e3d6000fd5b505050506040513d601f19601f8201168201806040525081019061081b9190610be8565b145b61085c576040517f08c379a000000000000000000000000000000000000000000000000000000000815260040161085390610e8e565b60405180910390fd5b6108dd8363095ea7b360e01b848460405160240161087b929190610dc3565b604051602081830303815290604052907bffffffffffffffffffffffffffffffffffffffffffffffffffffffff19166020820180517bffffffffffffffffffffffffffffffffffffffffffffffffffffffff83818316178352505050506108e2565b505050565b6000610944826040518060400160405280602081526020017f5361666545524332303a206c6f772d6c6576656c2063616c6c206661696c65648152508573ffffffffffffffffffffffffffffffffffffffff166109a99092919063ffffffff16565b90506000815111156109a457808060200190518101906109649190610b8e565b6109a3576040517f08c379a000000000000000000000000000000000000000000000000000000000815260040161099a90610e6e565b60405180910390fd5b5b505050565b60606109b884846000856109c1565b90509392505050565b606082471015610a06576040517f08c379a00000000000000000000000000000000000000000000000000000000081526004016109fd90610e2e565b60405180910390fd5b610a0f85610ad5565b610a4e576040517f08c379a0000000000000000000000000000000000000000000000000000000008152600401610a4590610e4e565b60405180910390fd5b6000808673ffffffffffffffffffffffffffffffffffffffff168587604051610a779190610d4c565b60006040518083038185875af1925050503d8060008114610ab4576040519150601f19603f3d011682016040523d82523d6000602084013e610ab9565b606091505b5091509150610ac9828286610ae8565b92505050949350505050565b600080823b905060008111915050919050565b60608315610af857829050610b48565b600083511115610b0b5782518084602001fd5b816040517f08c379a0000000000000000000000000000000000000000000000000000000008152600401610b3f9190610dec565b60405180910390fd5b9392505050565b600081519050610b5e81611176565b92915050565b600081359050610b738161118d565b92915050565b600081519050610b888161118d565b92915050565b600060208284031215610ba457610ba3610ffb565b5b6000610bb284828501610b4f565b91505092915050565b600060208284031215610bd157610bd0610ffb565b5b6000610bdf84828501610b64565b91505092915050565b600060208284031215610bfe57610bfd610ffb565b5b6000610c0c84828501610b79565b91505092915050565b610c1e81610f51565b82525050565b6000610c2f82610ec9565b610c398185610edf565b9350610c49818560208601610f99565b80840191505092915050565b6000610c6082610ed4565b610c6a8185610eea565b9350610c7a818560208601610f99565b610c8381611000565b840191505092915050565b6000610c9b602983610eea565b9150610ca682611011565b604082019050919050565b6000610cbe602683610eea565b9150610cc982611060565b604082019050919050565b6000610ce1601d83610eea565b9150610cec826110af565b602082019050919050565b6000610d04602a83610eea565b9150610d0f826110d8565b604082019050919050565b6000610d27603683610eea565b9150610d3282611127565b604082019050919050565b610d4681610f8f565b82525050565b6000610d588284610c24565b915081905092915050565b6000604082019050610d786000830185610c15565b610d856020830184610c15565b9392505050565b6000606082019050610da16000830186610c15565b610dae6020830185610c15565b610dbb6040830184610d3d565b949350505050565b6000604082019050610dd86000830185610c15565b610de56020830184610d3d565b9392505050565b60006020820190508181036000830152610e068184610c55565b905092915050565b60006020820190508181036000830152610e2781610c8e565b9050919050565b60006020820190508181036000830152610e4781610cb1565b9050919050565b60006020820190508181036000830152610e6781610cd4565b9050919050565b60006020820190508181036000830152610e8781610cf7565b9050919050565b60006020820190508181036000830152610ea781610d1a565b9050919050565b6000602082019050610ec36000830184610d3d565b92915050565b600081519050919050565b600081519050919050565b600081905092915050565b600082825260208201905092915050565b6000610f0682610f8f565b9150610f1183610f8f565b9250827fffffffffffffffffffffffffffffffffffffffffffffffffffffffffffffffff03821115610f4657610f45610fcc565b5b828201905092915050565b6000610f5c82610f6f565b9050919050565b60008115159050919050565b600073ffffffffffffffffffffffffffffffffffffffff82169050919050565b6000819050919050565b60005b83811015610fb7578082015181840152602081019050610f9c565b83811115610fc6576000848401525b50505050565b7f4e487b7100000000000000000000000000000000000000000000000000000000600052601160045260246000fd5b600080fd5b6000601f19601f8301169050919050565b7f5361666545524332303a2064656372656173656420616c6c6f77616e6365206260008201527f656c6f77207a65726f0000000000000000000000000000000000000000000000602082015250565b7f416464726573733a20696e73756666696369656e742062616c616e636520666f60008201527f722063616c6c0000000000000000000000000000000000000000000000000000602082015250565b7f416464726573733a2063616c6c20746f206e6f6e2d636f6e7472616374000000600082015250565b7f5361666545524332303a204552433230206f7065726174696f6e20646964206e60008201527f6f74207375636365656400000000000000000000000000000000000000000000602082015250565b7f5361666545524332303a20617070726f76652066726f6d206e6f6e2d7a65726f60008201527f20746f206e6f6e2d7a65726f20616c6c6f77616e636500000000000000000000602082015250565b61117f81610f63565b811461118a57600080fd5b50565b61119681610f8f565b81146111a157600080fd5b5056fea264697066735822122079266af4c4324ba343786d1ef198b1c24524db08c9aa38f597511f5c3c4eac8464736f6c63430008070033",
  "immutableReferences": {},
  "source": "// SPDX-License-Identifier: MIT\r\n\r\npragma solidity ^0.8.0;\r\n\r\nimport \"../utils/Context.sol\";\r\nimport \"../token/ERC20/IERC20.sol\";\r\nimport \"../token/ERC20/utils/SafeERC20.sol\";\r\n\r\ncontract ERC20ReturnFalseMock is Context {\r\n    uint256 private _allowance;\r\n\r\n    // IERC20's functions are not pure, but these mock implementations are: to prevent Solidity from issuing warnings,\r\n    // we write to a dummy state variable.\r\n    uint256 private _dummy;\r\n\r\n    function transfer(address, uint256) public returns (bool) {\r\n        _dummy = 0;\r\n        return false;\r\n    }\r\n\r\n    function transferFrom(address, address, uint256) public returns (bool) {\r\n        _dummy = 0;\r\n        return false;\r\n    }\r\n\r\n    function approve(address, uint256) public returns (bool) {\r\n        _dummy = 0;\r\n        return false;\r\n    }\r\n\r\n    function allowance(address, address) public view returns (uint256) {\r\n        require(_dummy == 0); // Duummy read from a state variable so that the function is view\r\n        return 0;\r\n    }\r\n}\r\n\r\ncontract ERC20ReturnTrueMock is Context {\r\n    mapping (address => uint256) private _allowances;\r\n\r\n    // IERC20's functions are not pure, but these mock implementations are: to prevent Solidity from issuing warnings,\r\n    // we write to a dummy state variable.\r\n    uint256 private _dummy;\r\n\r\n    function transfer(address, uint256) public returns (bool) {\r\n        _dummy = 0;\r\n        return true;\r\n    }\r\n\r\n    function transferFrom(address, address, uint256) public returns (bool) {\r\n        _dummy = 0;\r\n        return true;\r\n    }\r\n\r\n    function approve(address, uint256) public returns (bool) {\r\n        _dummy = 0;\r\n        return true;\r\n    }\r\n\r\n    function setAllowance(uint256 allowance_) public {\r\n        _allowances[_msgSender()] = allowance_;\r\n    }\r\n\r\n    function allowance(address owner, address) public view returns (uint256) {\r\n        return _allowances[owner];\r\n    }\r\n}\r\n\r\ncontract ERC20NoReturnMock is Context {\r\n    mapping (address => uint256) private _allowances;\r\n\r\n    // IERC20's functions are not pure, but these mock implementations are: to prevent Solidity from issuing warnings,\r\n    // we write to a dummy state variable.\r\n    uint256 private _dummy;\r\n\r\n    function transfer(address, uint256) public {\r\n        _dummy = 0;\r\n    }\r\n\r\n    function transferFrom(address, address, uint256) public {\r\n        _dummy = 0;\r\n    }\r\n\r\n    function approve(address, uint256) public {\r\n        _dummy = 0;\r\n    }\r\n\r\n    function setAllowance(uint256 allowance_) public {\r\n        _allowances[_msgSender()] = allowance_;\r\n    }\r\n\r\n    function allowance(address owner, address) public view returns (uint256) {\r\n        return _allowances[owner];\r\n    }\r\n}\r\n\r\ncontract SafeERC20Wrapper is Context {\r\n    using SafeERC20 for IERC20;\r\n\r\n    IERC20 private _token;\r\n\r\n    constructor (IERC20 token) {\r\n        _token = token;\r\n    }\r\n\r\n    function transfer() public {\r\n        _token.safeTransfer(address(0), 0);\r\n    }\r\n\r\n    function transferFrom() public {\r\n        _token.safeTransferFrom(address(0), address(0), 0);\r\n    }\r\n\r\n    function approve(uint256 amount) public {\r\n        _token.safeApprove(address(0), amount);\r\n    }\r\n\r\n    function increaseAllowance(uint256 amount) public {\r\n        _token.safeIncreaseAllowance(address(0), amount);\r\n    }\r\n\r\n    function decreaseAllowance(uint256 amount) public {\r\n        _token.safeDecreaseAllowance(address(0), amount);\r\n    }\r\n\r\n    function setAllowance(uint256 allowance_) public {\r\n        ERC20ReturnTrueMock(address(_token)).setAllowance(allowance_);\r\n    }\r\n\r\n    function allowance() public view returns (uint256) {\r\n        return _token.allowance(address(0), address(0));\r\n    }\r\n}\r\n",
  "sourcePath": "C:/Users/Husnain/Documents/Projects/Fanbase/fanbase/packages/ethereum/contracts/solidity/openzeppelin/contracts/mocks/SafeERC20Helper.sol",
  "compiler": {
    "name": "solc",
    "version": "0.8.7+commit.e28d00a7.Emscripten.clang"
  },
  "schemaVersion": "3.4.1",
  "updatedAt": "2021-08-29T17:48:49.168Z",
  "devdoc": {
    "kind": "dev",
    "methods": {},
    "version": 1
  },
  "userdoc": {
    "kind": "user",
    "methods": {},
    "version": 1
  }
}