{
  "contractName": "SampleFather",
  "abi": [
    {
      "inputs": [],
      "name": "father",
      "outputs": [
        {
          "internalType": "uint256",
          "name": "",
          "type": "uint256"
        }
      ],
      "stateMutability": "view",
      "type": "function"
    },
    {
      "inputs": [],
      "name": "gramps",
      "outputs": [
        {
          "internalType": "string",
          "name": "",
          "type": "string"
        }
      ],
      "stateMutability": "view",
      "type": "function"
    },
    {
      "inputs": [],
      "name": "isHuman",
      "outputs": [
        {
          "internalType": "bool",
          "name": "",
          "type": "bool"
        }
      ],
      "stateMutability": "view",
      "type": "function"
    },
    {
      "inputs": [],
      "name": "initialize",
      "outputs": [],
      "stateMutability": "nonpayable",
      "type": "function"
    },
    {
      "inputs": [
        {
          "internalType": "string",
          "name": "_gramps",
          "type": "string"
        },
        {
          "internalType": "uint256",
          "name": "_father",
          "type": "uint256"
        }
      ],
      "name": "initialize",
      "outputs": [],
      "stateMutability": "nonpayable",
      "type": "function"
    },
    {
      "inputs": [
        {
          "internalType": "string",
          "name": "value",
          "type": "string"
        }
      ],
      "name": "initialize",
      "outputs": [],
      "stateMutability": "nonpayable",
      "type": "function"
    }
  ],
  "bytecode": "0x608060405234801561001057600080fd5b5061098d806100206000396000f3fe608060405234801561001057600080fd5b50600436106100625760003560e01c80631c8aca3b146100675780634a6c9db6146100855780638129fc1c146100a35780638beaf7d7146100ad578063f62d1888146100c9578063fa39851f146100e5575b600080fd5b61006f610103565b60405161007c9190610726565b60405180910390f35b61008d610109565b60405161009a91906106c9565b60405180910390f35b6100ab61011c565b005b6100c760048036038101906100c291906105f3565b610210565b005b6100e360048036038101906100de91906105aa565b6102fb565b005b6100ed6103f4565b6040516100fa91906106e4565b60405180910390f35b60025481565b600060029054906101000a900460ff1681565b600060019054906101000a900460ff1680610142575060008054906101000a900460ff16155b610181576040517f08c379a000000000000000000000000000000000000000000000000000000000815260040161017890610706565b60405180910390fd5b60008060019054906101000a900460ff1615905080156101d1576001600060016101000a81548160ff02191690831515021790555060016000806101000a81548160ff0219169083151502179055505b6001600060026101000a81548160ff021916908315150217905550801561020d5760008060016101000a81548160ff0219169083151502179055505b50565b600060019054906101000a900460ff1680610236575060008054906101000a900460ff16155b610275576040517f08c379a000000000000000000000000000000000000000000000000000000000815260040161026c90610706565b60405180910390fd5b60008060019054906101000a900460ff1615905080156102c5576001600060016101000a81548160ff02191690831515021790555060016000806101000a81548160ff0219169083151502179055505b6102ce836102fb565b8160028190555080156102f65760008060016101000a81548160ff0219169083151502179055505b505050565b600060019054906101000a900460ff1680610321575060008054906101000a900460ff16155b610360576040517f08c379a000000000000000000000000000000000000000000000000000000000815260040161035790610706565b60405180910390fd5b60008060019054906101000a900460ff1615905080156103b0576001600060016101000a81548160ff02191690831515021790555060016000806101000a81548160ff0219169083151502179055505b6103b861011c565b81600190805190602001906103ce929190610482565b5080156103f05760008060016101000a81548160ff0219169083151502179055505b5050565b600180546104019061080b565b80601f016020809104026020016040519081016040528092919081815260200182805461042d9061080b565b801561047a5780601f1061044f5761010080835404028352916020019161047a565b820191906000526020600020905b81548152906001019060200180831161045d57829003601f168201915b505050505081565b82805461048e9061080b565b90600052602060002090601f0160209004810192826104b057600085556104f7565b82601f106104c957805160ff19168380011785556104f7565b828001600101855582156104f7579182015b828111156104f65782518255916020019190600101906104db565b5b5090506105049190610508565b5090565b5b80821115610521576000816000905550600101610509565b5090565b600061053861053384610766565b610741565b905082815260208101848484011115610554576105536108d1565b5b61055f8482856107c9565b509392505050565b600082601f83011261057c5761057b6108cc565b5b813561058c848260208601610525565b91505092915050565b6000813590506105a481610940565b92915050565b6000602082840312156105c0576105bf6108db565b5b600082013567ffffffffffffffff8111156105de576105dd6108d6565b5b6105ea84828501610567565b91505092915050565b6000806040838503121561060a576106096108db565b5b600083013567ffffffffffffffff811115610628576106276108d6565b5b61063485828601610567565b925050602061064585828601610595565b9150509250929050565b610658816107b3565b82525050565b600061066982610797565b61067381856107a2565b93506106838185602086016107d8565b61068c816108e0565b840191505092915050565b60006106a4602e836107a2565b91506106af826108f1565b604082019050919050565b6106c3816107bf565b82525050565b60006020820190506106de600083018461064f565b92915050565b600060208201905081810360008301526106fe818461065e565b905092915050565b6000602082019050818103600083015261071f81610697565b9050919050565b600060208201905061073b60008301846106ba565b92915050565b600061074b61075c565b9050610757828261083d565b919050565b6000604051905090565b600067ffffffffffffffff8211156107815761078061089d565b5b61078a826108e0565b9050602081019050919050565b600081519050919050565b600082825260208201905092915050565b60008115159050919050565b6000819050919050565b82818337600083830152505050565b60005b838110156107f65780820151818401526020810190506107db565b83811115610805576000848401525b50505050565b6000600282049050600182168061082357607f821691505b602082108114156108375761083661086e565b5b50919050565b610846826108e0565b810181811067ffffffffffffffff821117156108655761086461089d565b5b80604052505050565b7f4e487b7100000000000000000000000000000000000000000000000000000000600052602260045260246000fd5b7f4e487b7100000000000000000000000000000000000000000000000000000000600052604160045260246000fd5b600080fd5b600080fd5b600080fd5b600080fd5b6000601f19601f8301169050919050565b7f496e697469616c697a61626c653a20636f6e747261637420697320616c72656160008201527f647920696e697469616c697a6564000000000000000000000000000000000000602082015250565b610949816107bf565b811461095457600080fd5b5056fea2646970667358221220750897c56bea6782b12e23012bff2c81b9de816a1b37ed90571a143a8313aaed64736f6c63430008070033",
  "immutableReferences": {},
  "source": "// SPDX-License-Identifier: MIT\r\n\r\npragma solidity ^0.8.0;\r\n\r\nimport \"../proxy/utils/Initializable.sol\";\r\n\r\n// Sample contracts showing upgradeability with multiple inheritance.\r\n// Child contract inherits from Father and Mother contracts, and Father extends from Gramps.\r\n//\r\n//         Human\r\n//       /       \\\r\n//      |       Gramps\r\n//      |         |\r\n//    Mother    Father\r\n//      |         |\r\n//      -- Child --\r\n\r\n/**\r\n * Sample base intializable contract that is a human\r\n */\r\ncontract SampleHuman is Initializable {\r\n  bool public isHuman;\r\n\r\n  function initialize() public initializer {\r\n    isHuman = true;\r\n  }\r\n}\r\n\r\n/**\r\n * Sample base intializable contract that defines a field mother\r\n */\r\ncontract SampleMother is Initializable, SampleHuman {\r\n  uint256 public mother;\r\n\r\n  function initialize(uint256 value) public initializer virtual {\r\n    SampleHuman.initialize();\r\n    mother = value;\r\n  }\r\n}\r\n\r\n/**\r\n * Sample base intializable contract that defines a field gramps\r\n */\r\ncontract SampleGramps is Initializable, SampleHuman {\r\n  string public gramps;\r\n\r\n  function initialize(string memory value) public initializer virtual {\r\n    SampleHuman.initialize();\r\n    gramps = value;\r\n  }\r\n}\r\n\r\n/**\r\n * Sample base intializable contract that defines a field father and extends from gramps\r\n */\r\ncontract SampleFather is Initializable, SampleGramps {\r\n  uint256 public father;\r\n\r\n  function initialize(string memory _gramps, uint256 _father) public initializer {\r\n    SampleGramps.initialize(_gramps);\r\n    father = _father;\r\n  }\r\n}\r\n\r\n/**\r\n * Child extends from mother, father (gramps)\r\n */\r\ncontract SampleChild is Initializable, SampleMother, SampleFather {\r\n  uint256 public child;\r\n\r\n  function initialize(uint256 _mother, string memory _gramps, uint256 _father, uint256 _child) public initializer {\r\n    SampleMother.initialize(_mother);\r\n    SampleFather.initialize(_gramps, _father);\r\n    child = _child;\r\n  }\r\n}\r\n",
  "sourcePath": "C:/Users/Husnain/Documents/Projects/Fanbase/fanbase/packages/ethereum/contracts/solidity/openzeppelin/contracts/mocks/MultipleInheritanceInitializableMocks.sol",
  "compiler": {
    "name": "solc",
    "version": "0.8.7+commit.e28d00a7.Emscripten.clang"
  },
  "schemaVersion": "3.4.1",
  "updatedAt": "2021-08-24T16:48:47.081Z",
  "devdoc": {
    "kind": "dev",
    "methods": {},
    "version": 1
  },
  "userdoc": {
    "kind": "user",
    "methods": {},
    "notice": "Sample base intializable contract that defines a field father and extends from gramps",
    "version": 1
  }
}