{
  "contractName": "SampleFather",
  "abi": [
    {
      "inputs": [],
      "name": "father",
      "outputs": [
        {
          "internalType": "uint256",
          "name": "",
          "type": "uint256"
        }
      ],
      "stateMutability": "view",
      "type": "function"
    },
    {
      "inputs": [],
      "name": "gramps",
      "outputs": [
        {
          "internalType": "string",
          "name": "",
          "type": "string"
        }
      ],
      "stateMutability": "view",
      "type": "function"
    },
    {
      "inputs": [],
      "name": "isHuman",
      "outputs": [
        {
          "internalType": "bool",
          "name": "",
          "type": "bool"
        }
      ],
      "stateMutability": "view",
      "type": "function"
    },
    {
      "inputs": [],
      "name": "initialize",
      "outputs": [],
      "stateMutability": "nonpayable",
      "type": "function"
    },
    {
      "inputs": [
        {
          "internalType": "string",
          "name": "_gramps",
          "type": "string"
        },
        {
          "internalType": "uint256",
          "name": "_father",
          "type": "uint256"
        }
      ],
      "name": "initialize",
      "outputs": [],
      "stateMutability": "nonpayable",
      "type": "function"
    },
    {
      "inputs": [
        {
          "internalType": "string",
          "name": "value",
          "type": "string"
        }
      ],
      "name": "initialize",
      "outputs": [],
      "stateMutability": "nonpayable",
      "type": "function"
    }
  ],
  "bytecode": "0x608060405234801561001057600080fd5b50610961806100206000396000f3fe608060405234801561001057600080fd5b50600436106100625760003560e01c80631c8aca3b146100675780634a6c9db6146100855780638129fc1c146100a35780638beaf7d7146100ad578063f62d1888146100c9578063fa39851f146100e5575b600080fd5b61006f610103565b60405161007c919061070e565b60405180910390f35b61008d610109565b60405161009a91906106b1565b60405180910390f35b6100ab61011c565b005b6100c760048036038101906100c291906105e3565b610210565b005b6100e360048036038101906100de91906105a2565b6102fb565b005b6100ed6103f4565b6040516100fa91906106cc565b60405180910390f35b60025481565b600060029054906101000a900460ff1681565b600060019054906101000a900460ff1680610142575060008054906101000a900460ff16155b610181576040517f08c379a0000000000000000000000000000000000000000000000000000000008152600401610178906106ee565b60405180910390fd5b60008060019054906101000a900460ff1615905080156101d1576001600060016101000a81548160ff02191690831515021790555060016000806101000a81548160ff0219169083151502179055505b6001600060026101000a81548160ff021916908315150217905550801561020d5760008060016101000a81548160ff0219169083151502179055505b50565b600060019054906101000a900460ff1680610236575060008054906101000a900460ff16155b610275576040517f08c379a000000000000000000000000000000000000000000000000000000000815260040161026c906106ee565b60405180910390fd5b60008060019054906101000a900460ff1615905080156102c5576001600060016101000a81548160ff02191690831515021790555060016000806101000a81548160ff0219169083151502179055505b6102ce836102fb565b8160028190555080156102f65760008060016101000a81548160ff0219169083151502179055505b505050565b600060019054906101000a900460ff1680610321575060008054906101000a900460ff16155b610360576040517f08c379a0000000000000000000000000000000000000000000000000000000008152600401610357906106ee565b60405180910390fd5b60008060019054906101000a900460ff1615905080156103b0576001600060016101000a81548160ff02191690831515021790555060016000806101000a81548160ff0219169083151502179055505b6103b861011c565b81600190805190602001906103ce929190610482565b5080156103f05760008060016101000a81548160ff0219169083151502179055505b5050565b60018054610401906107f3565b80601f016020809104026020016040519081016040528092919081815260200182805461042d906107f3565b801561047a5780601f1061044f5761010080835404028352916020019161047a565b820191906000526020600020905b81548152906001019060200180831161045d57829003601f168201915b505050505081565b82805461048e906107f3565b90600052602060002090601f0160209004810192826104b057600085556104f7565b82601f106104c957805160ff19168380011785556104f7565b828001600101855582156104f7579182015b828111156104f65782518255916020019190600101906104db565b5b5090506105049190610508565b5090565b5b80821115610521576000816000905550600101610509565b5090565b60006105386105338461074e565b610729565b90508281526020810184848401111561055057600080fd5b61055b8482856107b1565b509392505050565b600082601f83011261057457600080fd5b8135610584848260208601610525565b91505092915050565b60008135905061059c81610914565b92915050565b6000602082840312156105b457600080fd5b600082013567ffffffffffffffff8111156105ce57600080fd5b6105da84828501610563565b91505092915050565b600080604083850312156105f657600080fd5b600083013567ffffffffffffffff81111561061057600080fd5b61061c85828601610563565b925050602061062d8582860161058d565b9150509250929050565b6106408161079b565b82525050565b60006106518261077f565b61065b818561078a565b935061066b8185602086016107c0565b610674816108b4565b840191505092915050565b600061068c602e8361078a565b9150610697826108c5565b604082019050919050565b6106ab816107a7565b82525050565b60006020820190506106c66000830184610637565b92915050565b600060208201905081810360008301526106e68184610646565b905092915050565b600060208201905081810360008301526107078161067f565b9050919050565b600060208201905061072360008301846106a2565b92915050565b6000610733610744565b905061073f8282610825565b919050565b6000604051905090565b600067ffffffffffffffff82111561076957610768610885565b5b610772826108b4565b9050602081019050919050565b600081519050919050565b600082825260208201905092915050565b60008115159050919050565b6000819050919050565b82818337600083830152505050565b60005b838110156107de5780820151818401526020810190506107c3565b838111156107ed576000848401525b50505050565b6000600282049050600182168061080b57607f821691505b6020821081141561081f5761081e610856565b5b50919050565b61082e826108b4565b810181811067ffffffffffffffff8211171561084d5761084c610885565b5b80604052505050565b7f4e487b7100000000000000000000000000000000000000000000000000000000600052602260045260246000fd5b7f4e487b7100000000000000000000000000000000000000000000000000000000600052604160045260246000fd5b6000601f19601f8301169050919050565b7f496e697469616c697a61626c653a20636f6e747261637420697320616c72656160008201527f647920696e697469616c697a6564000000000000000000000000000000000000602082015250565b61091d816107a7565b811461092857600080fd5b5056fea26469706673582212203093c08f4638c332c3681a905a66cf698e195f027db6ba88334816fb1eaa4d4e64736f6c63430008040033",
  "immutableReferences": {},
  "source": "// SPDX-License-Identifier: MIT\n\npragma solidity ^0.8.0;\n\nimport \"../proxy/utils/Initializable.sol\";\n\n// Sample contracts showing upgradeability with multiple inheritance.\n// Child contract inherits from Father and Mother contracts, and Father extends from Gramps.\n//\n//         Human\n//       /       \\\n//      |       Gramps\n//      |         |\n//    Mother    Father\n//      |         |\n//      -- Child --\n\n/**\n * Sample base intializable contract that is a human\n */\ncontract SampleHuman is Initializable {\n  bool public isHuman;\n\n  function initialize() public initializer {\n    isHuman = true;\n  }\n}\n\n/**\n * Sample base intializable contract that defines a field mother\n */\ncontract SampleMother is Initializable, SampleHuman {\n  uint256 public mother;\n\n  function initialize(uint256 value) public initializer virtual {\n    SampleHuman.initialize();\n    mother = value;\n  }\n}\n\n/**\n * Sample base intializable contract that defines a field gramps\n */\ncontract SampleGramps is Initializable, SampleHuman {\n  string public gramps;\n\n  function initialize(string memory value) public initializer virtual {\n    SampleHuman.initialize();\n    gramps = value;\n  }\n}\n\n/**\n * Sample base intializable contract that defines a field father and extends from gramps\n */\ncontract SampleFather is Initializable, SampleGramps {\n  uint256 public father;\n\n  function initialize(string memory _gramps, uint256 _father) public initializer {\n    SampleGramps.initialize(_gramps);\n    father = _father;\n  }\n}\n\n/**\n * Child extends from mother, father (gramps)\n */\ncontract SampleChild is Initializable, SampleMother, SampleFather {\n  uint256 public child;\n\n  function initialize(uint256 _mother, string memory _gramps, uint256 _father, uint256 _child) public initializer {\n    SampleMother.initialize(_mother);\n    SampleFather.initialize(_gramps, _father);\n    child = _child;\n  }\n}\n",
  "sourcePath": "C:/Users/Husnain/Documents/Projects/Fanbase/New/fanbase/packages/ethereum/contracts/solidity/openzeppelin/contracts/mocks/MultipleInheritanceInitializableMocks.sol",
  "compiler": {
    "name": "solc",
    "version": "0.8.4+commit.c7e474f2.Emscripten.clang"
  },
  "schemaVersion": "3.4.1",
  "updatedAt": "2021-06-06T20:07:31.979Z",
  "devdoc": {
    "kind": "dev",
    "methods": {},
    "version": 1
  },
  "userdoc": {
    "kind": "user",
    "methods": {},
    "notice": "Sample base intializable contract that defines a field father and extends from gramps",
    "version": 1
  }
}