{
  "contractName": "SignatureCheckerMock",
  "abi": [
    {
      "inputs": [
        {
          "internalType": "address",
          "name": "signer",
          "type": "address"
        },
        {
          "internalType": "bytes32",
          "name": "hash",
          "type": "bytes32"
        },
        {
          "internalType": "bytes",
          "name": "signature",
          "type": "bytes"
        }
      ],
      "name": "isValidSignatureNow",
      "outputs": [
        {
          "internalType": "bool",
          "name": "",
          "type": "bool"
        }
      ],
      "stateMutability": "view",
      "type": "function"
    }
  ],
  "bytecode": "0x608060405234801561001057600080fd5b50610ab4806100206000396000f3fe608060405234801561001057600080fd5b506004361061002b5760003560e01c80636ccea65214610030575b600080fd5b61004a600480360381019061004591906104e0565b610060565b604051610057919061066e565b60405180910390f35b600061008d83838673ffffffffffffffffffffffffffffffffffffffff166100969092919063ffffffff16565b90509392505050565b60006100a1846101c9565b15610187578373ffffffffffffffffffffffffffffffffffffffff16631626ba7e84846040518363ffffffff1660e01b81526004016100e1929190610689565b60206040518083038186803b1580156100f957600080fd5b505afa92505050801561012a57506040513d601f19601f82011682018060405250810190610127919061054f565b60015b61013757600090506101c2565b631626ba7e60e01b7bffffffffffffffffffffffffffffffffffffffffffffffffffffffff1916817bffffffffffffffffffffffffffffffffffffffffffffffffffffffff1916149150506101c2565b8373ffffffffffffffffffffffffffffffffffffffff166101a884846101dc565b73ffffffffffffffffffffffffffffffffffffffff161490505b9392505050565b600080823b905060008111915050919050565b600080600080604185511415610209576020850151925060408501519150606085015160001a905061028f565b604085511415610253576040850151602086015193507f7fffffffffffffffffffffffffffffffffffffffffffffffffffffffffffffff81169250601b8160ff1c0191505061028e565b6040517f08c379a00000000000000000000000000000000000000000000000000000000081526004016102859061071e565b60405180910390fd5b5b61029b868285856102a6565b935050505092915050565b60007f7fffffffffffffffffffffffffffffff5d576e7357a4501ddfe92f46681b20a08260001c111561030e576040517f08c379a00000000000000000000000000000000000000000000000000000000081526004016103059061073e565b60405180910390fd5b601b8460ff1614806103235750601c8460ff16145b610362576040517f08c379a00000000000000000000000000000000000000000000000000000000081526004016103599061075e565b60405180910390fd5b60006001868686866040516000815260200160405260405161038794939291906106b9565b6020604051602081039080840390855afa1580156103a9573d6000803e3d6000fd5b505050602060405103519050600073ffffffffffffffffffffffffffffffffffffffff168173ffffffffffffffffffffffffffffffffffffffff161415610425576040517f08c379a000000000000000000000000000000000000000000000000000000000815260040161041c906106fe565b60405180910390fd5b80915050949350505050565b600061044461043f846107a3565b61077e565b9050828152602081018484840111156104605761045f610929565b5b61046b848285610882565b509392505050565b60008135905061048281610a39565b92915050565b60008135905061049781610a50565b92915050565b6000815190506104ac81610a67565b92915050565b600082601f8301126104c7576104c6610924565b5b81356104d7848260208601610431565b91505092915050565b6000806000606084860312156104f9576104f8610933565b5b600061050786828701610473565b935050602061051886828701610488565b925050604084013567ffffffffffffffff8111156105395761053861092e565b5b610545868287016104b2565b9150509250925092565b60006020828403121561056557610564610933565b5b60006105738482850161049d565b91505092915050565b61058581610813565b82525050565b6105948161081f565b82525050565b60006105a5826107d4565b6105af81856107df565b93506105bf818560208601610891565b6105c881610938565b840191505092915050565b60006105e06018836107f0565b91506105eb82610949565b602082019050919050565b6000610603601f836107f0565b915061060e82610972565b602082019050919050565b60006106266022836107f0565b91506106318261099b565b604082019050919050565b60006106496022836107f0565b9150610654826109ea565b604082019050919050565b61066881610875565b82525050565b6000602082019050610683600083018461057c565b92915050565b600060408201905061069e600083018561058b565b81810360208301526106b0818461059a565b90509392505050565b60006080820190506106ce600083018761058b565b6106db602083018661065f565b6106e8604083018561058b565b6106f5606083018461058b565b95945050505050565b60006020820190508181036000830152610717816105d3565b9050919050565b60006020820190508181036000830152610737816105f6565b9050919050565b6000602082019050818103600083015261075781610619565b9050919050565b600060208201905081810360008301526107778161063c565b9050919050565b6000610788610799565b905061079482826108c4565b919050565b6000604051905090565b600067ffffffffffffffff8211156107be576107bd6108f5565b5b6107c782610938565b9050602081019050919050565b600081519050919050565b600082825260208201905092915050565b600082825260208201905092915050565b600061080c82610855565b9050919050565b60008115159050919050565b6000819050919050565b60007fffffffff0000000000000000000000000000000000000000000000000000000082169050919050565b600073ffffffffffffffffffffffffffffffffffffffff82169050919050565b600060ff82169050919050565b82818337600083830152505050565b60005b838110156108af578082015181840152602081019050610894565b838111156108be576000848401525b50505050565b6108cd82610938565b810181811067ffffffffffffffff821117156108ec576108eb6108f5565b5b80604052505050565b7f4e487b7100000000000000000000000000000000000000000000000000000000600052604160045260246000fd5b600080fd5b600080fd5b600080fd5b600080fd5b6000601f19601f8301169050919050565b7f45434453413a20696e76616c6964207369676e61747572650000000000000000600082015250565b7f45434453413a20696e76616c6964207369676e6174757265206c656e67746800600082015250565b7f45434453413a20696e76616c6964207369676e6174757265202773272076616c60008201527f7565000000000000000000000000000000000000000000000000000000000000602082015250565b7f45434453413a20696e76616c6964207369676e6174757265202776272076616c60008201527f7565000000000000000000000000000000000000000000000000000000000000602082015250565b610a4281610801565b8114610a4d57600080fd5b50565b610a598161081f565b8114610a6457600080fd5b50565b610a7081610829565b8114610a7b57600080fd5b5056fea264697066735822122061e1228dba46896dba7316fff28af4033f885aa1d5cd0a5e24b1cd6747c99fad64736f6c63430008060033",
  "immutableReferences": {},
  "source": "// SPDX-License-Identifier: MIT\n\npragma solidity ^0.8.0;\n\nimport \"../utils/cryptography/SignatureChecker.sol\";\n\ncontract SignatureCheckerMock {\n    using SignatureChecker for address;\n\n    function isValidSignatureNow(address signer, bytes32 hash, bytes memory signature) public view returns (bool) {\n        return signer.isValidSignatureNow(hash, signature);\n    }\n}\n",
  "sourcePath": "C:/Users/Husnain/Documents/Projects/Fanbase/New/fanbase/packages/ethereum/contracts/solidity/openzeppelin/contracts/mocks/SignatureCheckerMock.sol",
  "compiler": {
    "name": "solc",
    "version": "0.8.6+commit.11564f7e.Emscripten.clang"
  },
  "schemaVersion": "3.4.1",
  "updatedAt": "2021-07-13T12:16:32.115Z",
  "devdoc": {
    "kind": "dev",
    "methods": {},
    "version": 1
  },
  "userdoc": {
    "kind": "user",
    "methods": {},
    "version": 1
  }
}