{
  "contractName": "TokenV1",
  "abi": [
    {
      "inputs": [
        {
          "internalType": "string",
          "name": "uri",
          "type": "string"
        }
      ],
      "stateMutability": "nonpayable",
      "type": "constructor"
    },
    {
      "anonymous": false,
      "inputs": [
        {
          "indexed": true,
          "internalType": "address",
          "name": "account",
          "type": "address"
        },
        {
          "indexed": true,
          "internalType": "address",
          "name": "operator",
          "type": "address"
        },
        {
          "indexed": false,
          "internalType": "bool",
          "name": "approved",
          "type": "bool"
        }
      ],
      "name": "ApprovalForAll",
      "type": "event"
    },
    {
      "anonymous": false,
      "inputs": [
        {
          "indexed": true,
          "internalType": "uint256",
          "name": "id",
          "type": "uint256"
        },
        {
          "components": [
            {
              "internalType": "uint256",
              "name": "dateCreated",
              "type": "uint256"
            },
            {
              "internalType": "address",
              "name": "creator",
              "type": "address"
            },
            {
              "internalType": "uint256",
              "name": "supply",
              "type": "uint256"
            }
          ],
          "indexed": false,
          "internalType": "struct TokenData",
          "name": "token",
          "type": "tuple"
        },
        {
          "components": [
            {
              "internalType": "address payable",
              "name": "recipient",
              "type": "address"
            },
            {
              "internalType": "uint256",
              "name": "pct",
              "type": "uint256"
            }
          ],
          "indexed": false,
          "internalType": "struct Fee[]",
          "name": "fees",
          "type": "tuple[]"
        },
        {
          "indexed": false,
          "internalType": "string",
          "name": "data",
          "type": "string"
        }
      ],
      "name": "Minted",
      "type": "event"
    },
    {
      "anonymous": false,
      "inputs": [
        {
          "indexed": false,
          "internalType": "address",
          "name": "operator",
          "type": "address"
        },
        {
          "indexed": false,
          "internalType": "address",
          "name": "creator",
          "type": "address"
        },
        {
          "indexed": true,
          "internalType": "uint256",
          "name": "supply",
          "type": "uint256"
        }
      ],
      "name": "RevokeMint",
      "type": "event"
    },
    {
      "anonymous": false,
      "inputs": [
        {
          "indexed": true,
          "internalType": "bytes32",
          "name": "role",
          "type": "bytes32"
        },
        {
          "indexed": true,
          "internalType": "bytes32",
          "name": "previousAdminRole",
          "type": "bytes32"
        },
        {
          "indexed": true,
          "internalType": "bytes32",
          "name": "newAdminRole",
          "type": "bytes32"
        }
      ],
      "name": "RoleAdminChanged",
      "type": "event"
    },
    {
      "anonymous": false,
      "inputs": [
        {
          "indexed": true,
          "internalType": "bytes32",
          "name": "role",
          "type": "bytes32"
        },
        {
          "indexed": true,
          "internalType": "address",
          "name": "account",
          "type": "address"
        },
        {
          "indexed": true,
          "internalType": "address",
          "name": "sender",
          "type": "address"
        }
      ],
      "name": "RoleGranted",
      "type": "event"
    },
    {
      "anonymous": false,
      "inputs": [
        {
          "indexed": true,
          "internalType": "bytes32",
          "name": "role",
          "type": "bytes32"
        },
        {
          "indexed": true,
          "internalType": "address",
          "name": "account",
          "type": "address"
        },
        {
          "indexed": true,
          "internalType": "address",
          "name": "sender",
          "type": "address"
        }
      ],
      "name": "RoleRevoked",
      "type": "event"
    },
    {
      "anonymous": false,
      "inputs": [
        {
          "indexed": false,
          "internalType": "uint256",
          "name": "tokenId",
          "type": "uint256"
        },
        {
          "indexed": false,
          "internalType": "address[]",
          "name": "recipients",
          "type": "address[]"
        },
        {
          "indexed": false,
          "internalType": "uint256[]",
          "name": "bps",
          "type": "uint256[]"
        }
      ],
      "name": "SecondarySaleFees",
      "type": "event"
    },
    {
      "anonymous": false,
      "inputs": [
        {
          "indexed": true,
          "internalType": "address",
          "name": "operator",
          "type": "address"
        },
        {
          "indexed": true,
          "internalType": "address",
          "name": "from",
          "type": "address"
        },
        {
          "indexed": true,
          "internalType": "address",
          "name": "to",
          "type": "address"
        },
        {
          "indexed": false,
          "internalType": "uint256[]",
          "name": "ids",
          "type": "uint256[]"
        },
        {
          "indexed": false,
          "internalType": "uint256[]",
          "name": "values",
          "type": "uint256[]"
        }
      ],
      "name": "TransferBatch",
      "type": "event"
    },
    {
      "anonymous": false,
      "inputs": [
        {
          "indexed": true,
          "internalType": "address",
          "name": "operator",
          "type": "address"
        },
        {
          "indexed": true,
          "internalType": "address",
          "name": "from",
          "type": "address"
        },
        {
          "indexed": true,
          "internalType": "address",
          "name": "to",
          "type": "address"
        },
        {
          "indexed": false,
          "internalType": "uint256",
          "name": "id",
          "type": "uint256"
        },
        {
          "indexed": false,
          "internalType": "uint256",
          "name": "value",
          "type": "uint256"
        }
      ],
      "name": "TransferSingle",
      "type": "event"
    },
    {
      "anonymous": false,
      "inputs": [
        {
          "indexed": false,
          "internalType": "string",
          "name": "value",
          "type": "string"
        },
        {
          "indexed": true,
          "internalType": "uint256",
          "name": "id",
          "type": "uint256"
        }
      ],
      "name": "URI",
      "type": "event"
    },
    {
      "inputs": [],
      "name": "ADMIN_ROLE",
      "outputs": [
        {
          "internalType": "bytes32",
          "name": "",
          "type": "bytes32"
        }
      ],
      "stateMutability": "view",
      "type": "function",
      "constant": true
    },
    {
      "inputs": [],
      "name": "DEFAULT_ADMIN_ROLE",
      "outputs": [
        {
          "internalType": "bytes32",
          "name": "",
          "type": "bytes32"
        }
      ],
      "stateMutability": "view",
      "type": "function",
      "constant": true
    },
    {
      "inputs": [],
      "name": "MINTER_ROLE",
      "outputs": [
        {
          "internalType": "bytes32",
          "name": "",
          "type": "bytes32"
        }
      ],
      "stateMutability": "view",
      "type": "function",
      "constant": true
    },
    {
      "inputs": [
        {
          "internalType": "address",
          "name": "account",
          "type": "address"
        },
        {
          "internalType": "uint256",
          "name": "id",
          "type": "uint256"
        }
      ],
      "name": "balanceOf",
      "outputs": [
        {
          "internalType": "uint256",
          "name": "",
          "type": "uint256"
        }
      ],
      "stateMutability": "view",
      "type": "function",
      "constant": true
    },
    {
      "inputs": [
        {
          "internalType": "address[]",
          "name": "accounts",
          "type": "address[]"
        },
        {
          "internalType": "uint256[]",
          "name": "ids",
          "type": "uint256[]"
        }
      ],
      "name": "balanceOfBatch",
      "outputs": [
        {
          "internalType": "uint256[]",
          "name": "",
          "type": "uint256[]"
        }
      ],
      "stateMutability": "view",
      "type": "function",
      "constant": true
    },
    {
      "inputs": [
        {
          "internalType": "bytes32",
          "name": "role",
          "type": "bytes32"
        }
      ],
      "name": "getRoleAdmin",
      "outputs": [
        {
          "internalType": "bytes32",
          "name": "",
          "type": "bytes32"
        }
      ],
      "stateMutability": "view",
      "type": "function",
      "constant": true
    },
    {
      "inputs": [
        {
          "internalType": "bytes32",
          "name": "role",
          "type": "bytes32"
        },
        {
          "internalType": "address",
          "name": "account",
          "type": "address"
        }
      ],
      "name": "grantRole",
      "outputs": [],
      "stateMutability": "nonpayable",
      "type": "function"
    },
    {
      "inputs": [
        {
          "internalType": "bytes32",
          "name": "role",
          "type": "bytes32"
        },
        {
          "internalType": "address",
          "name": "account",
          "type": "address"
        }
      ],
      "name": "hasRole",
      "outputs": [
        {
          "internalType": "bool",
          "name": "",
          "type": "bool"
        }
      ],
      "stateMutability": "view",
      "type": "function",
      "constant": true
    },
    {
      "inputs": [
        {
          "internalType": "address",
          "name": "account",
          "type": "address"
        },
        {
          "internalType": "address",
          "name": "operator",
          "type": "address"
        }
      ],
      "name": "isApprovedForAll",
      "outputs": [
        {
          "internalType": "bool",
          "name": "",
          "type": "bool"
        }
      ],
      "stateMutability": "view",
      "type": "function",
      "constant": true
    },
    {
      "inputs": [
        {
          "internalType": "bytes32",
          "name": "role",
          "type": "bytes32"
        },
        {
          "internalType": "address",
          "name": "account",
          "type": "address"
        }
      ],
      "name": "renounceRole",
      "outputs": [],
      "stateMutability": "nonpayable",
      "type": "function"
    },
    {
      "inputs": [
        {
          "internalType": "bytes32",
          "name": "role",
          "type": "bytes32"
        },
        {
          "internalType": "address",
          "name": "account",
          "type": "address"
        }
      ],
      "name": "revokeRole",
      "outputs": [],
      "stateMutability": "nonpayable",
      "type": "function"
    },
    {
      "inputs": [
        {
          "internalType": "address",
          "name": "from",
          "type": "address"
        },
        {
          "internalType": "address",
          "name": "to",
          "type": "address"
        },
        {
          "internalType": "uint256[]",
          "name": "ids",
          "type": "uint256[]"
        },
        {
          "internalType": "uint256[]",
          "name": "amounts",
          "type": "uint256[]"
        },
        {
          "internalType": "bytes",
          "name": "data",
          "type": "bytes"
        }
      ],
      "name": "safeBatchTransferFrom",
      "outputs": [],
      "stateMutability": "nonpayable",
      "type": "function"
    },
    {
      "inputs": [
        {
          "internalType": "address",
          "name": "from",
          "type": "address"
        },
        {
          "internalType": "address",
          "name": "to",
          "type": "address"
        },
        {
          "internalType": "uint256",
          "name": "id",
          "type": "uint256"
        },
        {
          "internalType": "uint256",
          "name": "amount",
          "type": "uint256"
        },
        {
          "internalType": "bytes",
          "name": "data",
          "type": "bytes"
        }
      ],
      "name": "safeTransferFrom",
      "outputs": [],
      "stateMutability": "nonpayable",
      "type": "function"
    },
    {
      "inputs": [
        {
          "internalType": "address",
          "name": "operator",
          "type": "address"
        },
        {
          "internalType": "bool",
          "name": "approved",
          "type": "bool"
        }
      ],
      "name": "setApprovalForAll",
      "outputs": [],
      "stateMutability": "nonpayable",
      "type": "function"
    },
    {
      "inputs": [
        {
          "internalType": "uint256",
          "name": "",
          "type": "uint256"
        }
      ],
      "name": "uri",
      "outputs": [
        {
          "internalType": "string",
          "name": "",
          "type": "string"
        }
      ],
      "stateMutability": "view",
      "type": "function",
      "constant": true
    },
    {
      "inputs": [
        {
          "internalType": "bytes4",
          "name": "interfaceId",
          "type": "bytes4"
        }
      ],
      "name": "supportsInterface",
      "outputs": [
        {
          "internalType": "bool",
          "name": "",
          "type": "bool"
        }
      ],
      "stateMutability": "view",
      "type": "function",
      "constant": true
    },
    {
      "inputs": [
        {
          "internalType": "string",
          "name": "uri",
          "type": "string"
        }
      ],
      "name": "setMetadataUri",
      "outputs": [],
      "stateMutability": "nonpayable",
      "type": "function"
    },
    {
      "inputs": [
        {
          "internalType": "address",
          "name": "creator",
          "type": "address"
        },
        {
          "internalType": "uint256",
          "name": "supply",
          "type": "uint256"
        },
        {
          "internalType": "uint256",
          "name": "expiry",
          "type": "uint256"
        },
        {
          "internalType": "uint256",
          "name": "salt",
          "type": "uint256"
        }
      ],
      "name": "getMintHash",
      "outputs": [
        {
          "internalType": "bytes32",
          "name": "",
          "type": "bytes32"
        }
      ],
      "stateMutability": "view",
      "type": "function",
      "constant": true
    },
    {
      "inputs": [
        {
          "internalType": "uint256",
          "name": "id",
          "type": "uint256"
        }
      ],
      "name": "get",
      "outputs": [
        {
          "components": [
            {
              "internalType": "uint256",
              "name": "dateCreated",
              "type": "uint256"
            },
            {
              "internalType": "address",
              "name": "creator",
              "type": "address"
            },
            {
              "internalType": "uint256",
              "name": "supply",
              "type": "uint256"
            }
          ],
          "internalType": "struct TokenData",
          "name": "",
          "type": "tuple"
        }
      ],
      "stateMutability": "view",
      "type": "function",
      "constant": true
    },
    {
      "inputs": [
        {
          "internalType": "address",
          "name": "creator",
          "type": "address"
        },
        {
          "internalType": "uint256",
          "name": "supply",
          "type": "uint256"
        },
        {
          "components": [
            {
              "internalType": "address payable",
              "name": "recipient",
              "type": "address"
            },
            {
              "internalType": "uint256",
              "name": "pct",
              "type": "uint256"
            }
          ],
          "internalType": "struct Fee[]",
          "name": "fees",
          "type": "tuple[]"
        },
        {
          "internalType": "string",
          "name": "data",
          "type": "string"
        },
        {
          "internalType": "uint256",
          "name": "expiry",
          "type": "uint256"
        },
        {
          "internalType": "uint256",
          "name": "salt",
          "type": "uint256"
        },
        {
          "internalType": "bytes",
          "name": "signature",
          "type": "bytes"
        }
      ],
      "name": "mint",
      "outputs": [],
      "stateMutability": "nonpayable",
      "type": "function"
    },
    {
      "inputs": [
        {
          "internalType": "address",
          "name": "creator",
          "type": "address"
        },
        {
          "internalType": "uint256",
          "name": "supply",
          "type": "uint256"
        },
        {
          "internalType": "uint256",
          "name": "expiry",
          "type": "uint256"
        },
        {
          "internalType": "uint256",
          "name": "salt",
          "type": "uint256"
        }
      ],
      "name": "revokeMintApproval",
      "outputs": [],
      "stateMutability": "nonpayable",
      "type": "function"
    },
    {
      "inputs": [
        {
          "internalType": "uint256",
          "name": "id",
          "type": "uint256"
        }
      ],
      "name": "getFeeRecipients",
      "outputs": [
        {
          "internalType": "address payable[]",
          "name": "",
          "type": "address[]"
        }
      ],
      "stateMutability": "view",
      "type": "function",
      "constant": true
    },
    {
      "inputs": [
        {
          "internalType": "uint256",
          "name": "id",
          "type": "uint256"
        }
      ],
      "name": "getFeeBps",
      "outputs": [
        {
          "internalType": "uint256[]",
          "name": "",
          "type": "uint256[]"
        }
      ],
      "stateMutability": "view",
      "type": "function",
      "constant": true
    },
    {
      "inputs": [
        {
          "internalType": "address",
          "name": "account",
          "type": "address"
        },
        {
          "internalType": "uint256",
          "name": "id",
          "type": "uint256"
        },
        {
          "internalType": "uint256",
          "name": "amount",
          "type": "uint256"
        }
      ],
      "name": "burn",
      "outputs": [],
      "stateMutability": "nonpayable",
      "type": "function"
    },
    {
      "inputs": [
        {
          "internalType": "address",
          "name": "account",
          "type": "address"
        },
        {
          "internalType": "uint256[]",
          "name": "ids",
          "type": "uint256[]"
        },
        {
          "internalType": "uint256[]",
          "name": "amounts",
          "type": "uint256[]"
        }
      ],
      "name": "burnBatch",
      "outputs": [],
      "stateMutability": "nonpayable",
      "type": "function"
    }
  ],
  "bytecode": "0x608060405260006004553480156200001657600080fd5b5060405162005fa338038062005fa383398181016040528101906200003c919062000495565b806200004e816200015660201b60201c565b50620000646000801b336200017260201b60201c565b620000967fa49807205ce4d355092ef5a8a18f56e8913cf4a201fbe287825b095693c21775336200017260201b60201c565b620000cb7fa49807205ce4d355092ef5a8a18f56e8913cf4a201fbe287825b095693c217756000801b6200018860201b60201c565b620000fd7f9f2df0fed2c77648de5860a4cc508cd0818c85b8b8a1ab4ceeef8d981c8956a6336200017260201b60201c565b6200014f7f9f2df0fed2c77648de5860a4cc508cd0818c85b8b8a1ab4ceeef8d981c8956a67fa49807205ce4d355092ef5a8a18f56e8913cf4a201fbe287825b095693c217756200018860201b60201c565b506200066a565b80600390805190602001906200016e92919062000367565b5050565b620001848282620001e560201b60201c565b5050565b806200019a83620002d660201b60201c565b837fbd79b86ffe0ab8e8776151514217cd7cacd52c909f66475c3af44e129f0b00ff60405160405180910390a480600080848152602001908152602001600020600101819055505050565b620001f78282620002f560201b60201c565b620002d257600160008084815260200190815260200160002060000160008373ffffffffffffffffffffffffffffffffffffffff1673ffffffffffffffffffffffffffffffffffffffff16815260200190815260200160002060006101000a81548160ff021916908315150217905550620002776200035f60201b60201c565b73ffffffffffffffffffffffffffffffffffffffff168173ffffffffffffffffffffffffffffffffffffffff16837f2f8788117e7eff1d82e926ec794901d17c78024a50270940304540a733656f0d60405160405180910390a45b5050565b6000806000838152602001908152602001600020600101549050919050565b600080600084815260200190815260200160002060000160008373ffffffffffffffffffffffffffffffffffffffff1673ffffffffffffffffffffffffffffffffffffffff16815260200190815260200160002060009054906101000a900460ff16905092915050565b600033905090565b82805462000375906200057b565b90600052602060002090601f016020900481019282620003995760008555620003e5565b82601f10620003b457805160ff1916838001178555620003e5565b82800160010185558215620003e5579182015b82811115620003e4578251825591602001919060010190620003c7565b5b509050620003f49190620003f8565b5090565b5b8082111562000413576000816000905550600101620003f9565b5090565b60006200042e62000428846200050f565b620004e6565b9050828152602081018484840111156200044d576200044c6200064a565b5b6200045a84828562000545565b509392505050565b600082601f8301126200047a576200047962000645565b5b81516200048c84826020860162000417565b91505092915050565b600060208284031215620004ae57620004ad62000654565b5b600082015167ffffffffffffffff811115620004cf57620004ce6200064f565b5b620004dd8482850162000462565b91505092915050565b6000620004f262000505565b9050620005008282620005b1565b919050565b6000604051905090565b600067ffffffffffffffff8211156200052d576200052c62000616565b5b620005388262000659565b9050602081019050919050565b60005b838110156200056557808201518184015260208101905062000548565b8381111562000575576000848401525b50505050565b600060028204905060018216806200059457607f821691505b60208210811415620005ab57620005aa620005e7565b5b50919050565b620005bc8262000659565b810181811067ffffffffffffffff82111715620005de57620005dd62000616565b5b80604052505050565b7f4e487b7100000000000000000000000000000000000000000000000000000000600052602260045260246000fd5b7f4e487b7100000000000000000000000000000000000000000000000000000000600052604160045260246000fd5b600080fd5b600080fd5b600080fd5b600080fd5b6000601f19601f8301169050919050565b615929806200067a6000396000f3fe608060405234801561001057600080fd5b50600436106101725760003560e01c80636efb649f116100de578063b9c4d9fb11610097578063d547741f11610071578063d547741f14610491578063e985e9c5146104ad578063f242432a146104dd578063f5298aca146104f957610172565b8063b9c4d9fb14610413578063be95c02714610443578063d53913931461047357610172565b80636efb649f1461033f57806375b238fc1461035b57806391d14854146103795780639507d39a146103a9578063a217fddf146103d9578063a22cb465146103f757610172565b80632eb2c2d6116101305780632eb2c2d6146102835780632f2ff15d1461029f57806336568abe146102bb5780634b6a5432146102d75780634e1273f4146102f35780636b20c4541461032357610172565b8062fdd58e1461017757806301ffc9a7146101a75780630e89341c146101d75780630ebd4c7f146102075780631130630c14610237578063248a9ca314610253575b600080fd5b610191600480360381019061018c9190613863565b610515565b60405161019e9190614965565b60405180910390f35b6101c160048036038101906101bc9190613b45565b6105df565b6040516101ce9190614566565b60405180910390f35b6101f160048036038101906101ec9190613bec565b6105f1565b6040516101fe91906145e1565b60405180910390f35b610221600480360381019061021c9190613bec565b610685565b60405161022e919061450d565b60405180910390f35b610251600480360381019061024c9190613b9f565b61080a565b005b61026d60048036038101906102689190613ad8565b61088e565b60405161027a9190614581565b60405180910390f35b61029d60048036038101906102989190613632565b6108ad565b005b6102b960048036038101906102b49190613b05565b61094e565b005b6102d560048036038101906102d09190613b05565b610977565b005b6102f160048036038101906102ec91906139f9565b6109fa565b005b61030d60048036038101906103089190613a60565b610b72565b60405161031a919061450d565b60405180910390f35b61033d60048036038101906103389190613798565b610c8b565b005b610359600480360381019061035491906138a3565b610d3c565b005b61036361114e565b6040516103709190614581565b60405180910390f35b610393600480360381019061038e9190613b05565b611172565b6040516103a09190614566565b60405180910390f35b6103c360048036038101906103be9190613bec565b6111dc565b6040516103d09190614903565b60405180910390f35b6103e1611273565b6040516103ee9190614581565b60405180910390f35b610411600480360381019061040c9190613823565b61127a565b005b61042d60048036038101906104289190613bec565b6113fb565b60405161043a91906144eb565b60405180910390f35b61045d600480360381019061045891906139f9565b6115ae565b60405161046a9190614581565b60405180910390f35b61047b6115e9565b6040516104889190614581565b60405180910390f35b6104ab60048036038101906104a69190613b05565b61160d565b005b6104c760048036038101906104c291906135f2565b611636565b6040516104d49190614566565b60405180910390f35b6104f760048036038101906104f29190613701565b6116ca565b005b610513600480360381019061050e91906139a6565b61176b565b005b60008073ffffffffffffffffffffffffffffffffffffffff168373ffffffffffffffffffffffffffffffffffffffff161415610586576040517f08c379a000000000000000000000000000000000000000000000000000000000815260040161057d906146a3565b60405180910390fd5b6001600083815260200190815260200160002060008473ffffffffffffffffffffffffffffffffffffffff1673ffffffffffffffffffffffffffffffffffffffff16815260200190815260200160002054905092915050565b60006105ea8261181c565b9050919050565b60606003805461060090614dbb565b80601f016020809104026020016040519081016040528092919081815260200182805461062c90614dbb565b80156106795780601f1061064e57610100808354040283529160200191610679565b820191906000526020600020905b81548152906001019060200180831161065c57829003601f168201915b50505050509050919050565b6060600060066000848152602001908152602001600020805480602002602001604051908101604052809291908181526020016000905b8282101561074e57838290600052602060002090600202016040518060400160405290816000820160009054906101000a900473ffffffffffffffffffffffffffffffffffffffff1673ffffffffffffffffffffffffffffffffffffffff1673ffffffffffffffffffffffffffffffffffffffff168152602001600182015481525050815260200190600101906106bc565b5050505090506000815167ffffffffffffffff81111561077157610770614f60565b5b60405190808252806020026020018201604052801561079f5781602001602082028036833780820191505090505b50905060005b82518110156107ff578281815181106107c1576107c0614f31565b5b6020026020010151602001518282815181106107e0576107df614f31565b5b60200260200101818152505080806107f790614e52565b9150506107a5565b508092505050919050565b7fa49807205ce4d355092ef5a8a18f56e8913cf4a201fbe287825b095693c2177561083c8161083761187d565b611885565b61088983838080601f016020809104026020016040519081016040528093929190818152602001838380828437600081840152601f19601f82011690508083019250505050505050611922565b505050565b6000806000838152602001908152602001600020600101549050919050565b6108b561187d565b73ffffffffffffffffffffffffffffffffffffffff168573ffffffffffffffffffffffffffffffffffffffff1614806108fb57506108fa856108f561187d565b611636565b5b61093a576040517f08c379a000000000000000000000000000000000000000000000000000000000815260040161093190614743565b60405180910390fd5b610947858585858561193c565b5050505050565b6109578261088e565b6109688161096361187d565b611885565b6109728383611c53565b505050565b61097f61187d565b73ffffffffffffffffffffffffffffffffffffffff168173ffffffffffffffffffffffffffffffffffffffff16146109ec576040517f08c379a00000000000000000000000000000000000000000000000000000000081526004016109e3906148e3565b60405180910390fd5b6109f68282611d33565b5050565b610a247fa49807205ce4d355092ef5a8a18f56e8913cf4a201fbe287825b095693c2177533611172565b80610a555750610a547f9f2df0fed2c77648de5860a4cc508cd0818c85b8b8a1ab4ceeef8d981c8956a633611172565b5b610a94576040517f08c379a0000000000000000000000000000000000000000000000000000000008152600401610a8b906147c3565b60405180910390fd5b6000610aa2858585856115ae565b90506007600082815260200190815260200160002060009054906101000a900460ff1615610b05576040517f08c379a0000000000000000000000000000000000000000000000000000000008152600401610afc906147e3565b60405180910390fd5b60016007600083815260200190815260200160002060006101000a81548160ff021916908315150217905550837f211d2d1fdf9c39f1a3bf82373c7a932720b8e2e1b8e15fdf393ef20a440e8b5e3387604051610b63929190614400565b60405180910390a25050505050565b60608151835114610bb8576040517f08c379a0000000000000000000000000000000000000000000000000000000008152600401610baf90614883565b60405180910390fd5b6000835167ffffffffffffffff811115610bd557610bd4614f60565b5b604051908082528060200260200182016040528015610c035781602001602082028036833780820191505090505b50905060005b8451811015610c8057610c50858281518110610c2857610c27614f31565b5b6020026020010151858381518110610c4357610c42614f31565b5b6020026020010151610515565b828281518110610c6357610c62614f31565b5b60200260200101818152505080610c7990614e52565b9050610c09565b508091505092915050565b828073ffffffffffffffffffffffffffffffffffffffff163373ffffffffffffffffffffffffffffffffffffffff161480610cec5750610ceb7fa49807205ce4d355092ef5a8a18f56e8913cf4a201fbe287825b095693c2177533611172565b5b610d2b576040517f08c379a0000000000000000000000000000000000000000000000000000000008152600401610d22906147c3565b60405180910390fd5b610d36848484611e14565b50505050565b610d667f9f2df0fed2c77648de5860a4cc508cd0818c85b8b8a1ab4ceeef8d981c8956a633611172565b610f5157428411610dac576040517f08c379a0000000000000000000000000000000000000000000000000000000008152600401610da390614803565b60405180910390fd5b6000610dba8b8b87876115ae565b90506007600082815260200190815260200160002060009054906101000a900460ff1615610e1d576040517f08c379a0000000000000000000000000000000000000000000000000000000008152600401610e1490614823565b60405180910390fd5b6000610e7e84848080601f016020809104026020016040519081016040528093929190818152602001838380828437600081840152601f19601f82011690508083019250505050505050610e70846120c7565b6120f790919063ffffffff16565b9050600073ffffffffffffffffffffffffffffffffffffffff168173ffffffffffffffffffffffffffffffffffffffff1614158015610ee35750610ee27f9f2df0fed2c77648de5860a4cc508cd0818c85b8b8a1ab4ceeef8d981c8956a682611172565b5b610f22576040517f08c379a0000000000000000000000000000000000000000000000000000000008152600401610f1990614843565b60405180910390fd5b60016007600084815260200190815260200160002060006101000a81548160ff02191690831515021790555050505b60046000815480929190610f6490614e52565b9190505550610f868a6004548b604051806020016040528060008152506121c1565b600060405180606001604052804281526020018c73ffffffffffffffffffffffffffffffffffffffff1681526020018b8152509050806005600060045481526020019081526020016000206000820151816000015560208201518160010160006101000a81548173ffffffffffffffffffffffffffffffffffffffff021916908373ffffffffffffffffffffffffffffffffffffffff160217905550604082015181600201559050506000805b8a8a90508110156110eb578a8a8281811061105157611050614f31565b5b90506040020160200135826110669190614b4a565b9150620186a082116110d8576006600060045481526020019081526020016000208b8b8381811061109a57611099614f31565b5b905060400201908060018154018082558091505060019003906000526020600020906002020160009091909190915081816110d59190615838565b50505b80806110e390614e52565b915050611033565b506004547fcb6f24cc444f29f31a0a1ef14bd68429bcf9debc0bc46cbf192ad66edcfd99c2836006600060045481526020019081526020016000208b8b604051611138949392919061491e565b60405180910390a2505050505050505050505050565b7fa49807205ce4d355092ef5a8a18f56e8913cf4a201fbe287825b095693c2177581565b600080600084815260200190815260200160002060000160008373ffffffffffffffffffffffffffffffffffffffff1673ffffffffffffffffffffffffffffffffffffffff16815260200190815260200160002060009054906101000a900460ff16905092915050565b6111e46131ec565b60056000838152602001908152602001600020604051806060016040529081600082015481526020016001820160009054906101000a900473ffffffffffffffffffffffffffffffffffffffff1673ffffffffffffffffffffffffffffffffffffffff1673ffffffffffffffffffffffffffffffffffffffff1681526020016002820154815250509050919050565b6000801b81565b8173ffffffffffffffffffffffffffffffffffffffff1661129961187d565b73ffffffffffffffffffffffffffffffffffffffff1614156112f0576040517f08c379a00000000000000000000000000000000000000000000000000000000081526004016112e790614863565b60405180910390fd5b80600260006112fd61187d565b73ffffffffffffffffffffffffffffffffffffffff1673ffffffffffffffffffffffffffffffffffffffff16815260200190815260200160002060008473ffffffffffffffffffffffffffffffffffffffff1673ffffffffffffffffffffffffffffffffffffffff16815260200190815260200160002060006101000a81548160ff0219169083151502179055508173ffffffffffffffffffffffffffffffffffffffff166113aa61187d565b73ffffffffffffffffffffffffffffffffffffffff167f17307eab39ab6107e8899845ad3d59bd9653f200f220920489ca2b5937696c31836040516113ef9190614566565b60405180910390a35050565b6060600060066000848152602001908152602001600020805480602002602001604051908101604052809291908181526020016000905b828210156114c457838290600052602060002090600202016040518060400160405290816000820160009054906101000a900473ffffffffffffffffffffffffffffffffffffffff1673ffffffffffffffffffffffffffffffffffffffff1673ffffffffffffffffffffffffffffffffffffffff16815260200160018201548152505081526020019060010190611432565b5050505090506000815167ffffffffffffffff8111156114e7576114e6614f60565b5b6040519080825280602002602001820160405280156115155781602001602082028036833780820191505090505b50905060005b82518110156115a35782818151811061153757611536614f31565b5b60200260200101516000015182828151811061155657611555614f31565b5b602002602001019073ffffffffffffffffffffffffffffffffffffffff16908173ffffffffffffffffffffffffffffffffffffffff1681525050808061159b90614e52565b91505061151b565b508092505050919050565b600030858585856040516020016115c9959493929190614341565b604051602081830303815290604052805190602001209050949350505050565b7f9f2df0fed2c77648de5860a4cc508cd0818c85b8b8a1ab4ceeef8d981c8956a681565b6116168261088e565b6116278161162261187d565b611885565b6116318383611d33565b505050565b6000600260008473ffffffffffffffffffffffffffffffffffffffff1673ffffffffffffffffffffffffffffffffffffffff16815260200190815260200160002060008373ffffffffffffffffffffffffffffffffffffffff1673ffffffffffffffffffffffffffffffffffffffff16815260200190815260200160002060009054906101000a900460ff16905092915050565b6116d261187d565b73ffffffffffffffffffffffffffffffffffffffff168573ffffffffffffffffffffffffffffffffffffffff16148061171857506117178561171261187d565b611636565b5b611757576040517f08c379a000000000000000000000000000000000000000000000000000000000815260040161174e906146e3565b60405180910390fd5b6117648585858585612358565b5050505050565b828073ffffffffffffffffffffffffffffffffffffffff163373ffffffffffffffffffffffffffffffffffffffff1614806117cc57506117cb7fa49807205ce4d355092ef5a8a18f56e8913cf4a201fbe287825b095693c2177533611172565b5b61180b576040517f08c379a0000000000000000000000000000000000000000000000000000000008152600401611802906147c3565b60405180910390fd5b6118168484846125dd565b50505050565b600063b779958460e01b7bffffffffffffffffffffffffffffffffffffffffffffffffffffffff1916827bffffffffffffffffffffffffffffffffffffffffffffffffffffffff191614806118765750611875826127fc565b5b9050919050565b600033905090565b61188f8282611172565b61191e576118b48173ffffffffffffffffffffffffffffffffffffffff1660146128de565b6118c28360001c60206128de565b6040516020016118d39291906143c6565b6040516020818303038152906040526040517f08c379a000000000000000000000000000000000000000000000000000000000815260040161191591906145e1565b60405180910390fd5b5050565b8060039080519060200190611938929190613223565b5050565b8151835114611980576040517f08c379a0000000000000000000000000000000000000000000000000000000008152600401611977906148a3565b60405180910390fd5b600073ffffffffffffffffffffffffffffffffffffffff168473ffffffffffffffffffffffffffffffffffffffff1614156119f0576040517f08c379a00000000000000000000000000000000000000000000000000000000081526004016119e790614723565b60405180910390fd5b60006119fa61187d565b9050611a0a818787878787612b1a565b60005b8451811015611bbe576000858281518110611a2b57611a2a614f31565b5b602002602001015190506000858381518110611a4a57611a49614f31565b5b6020026020010151905060006001600084815260200190815260200160002060008b73ffffffffffffffffffffffffffffffffffffffff1673ffffffffffffffffffffffffffffffffffffffff16815260200190815260200160002054905081811015611aec576040517f08c379a0000000000000000000000000000000000000000000000000000000008152600401611ae3906147a3565b60405180910390fd5b8181036001600085815260200190815260200160002060008c73ffffffffffffffffffffffffffffffffffffffff1673ffffffffffffffffffffffffffffffffffffffff16815260200190815260200160002081905550816001600085815260200190815260200160002060008b73ffffffffffffffffffffffffffffffffffffffff1673ffffffffffffffffffffffffffffffffffffffff1681526020019081526020016000206000828254611ba39190614b4a565b9250508190555050505080611bb790614e52565b9050611a0d565b508473ffffffffffffffffffffffffffffffffffffffff168673ffffffffffffffffffffffffffffffffffffffff168273ffffffffffffffffffffffffffffffffffffffff167f4a39dc06d4c0dbc64b70af90fd698a233a518aa5d07e595d983b8c0526c8f7fb8787604051611c3592919061452f565b60405180910390a4611c4b818787878787612b22565b505050505050565b611c5d8282611172565b611d2f57600160008084815260200190815260200160002060000160008373ffffffffffffffffffffffffffffffffffffffff1673ffffffffffffffffffffffffffffffffffffffff16815260200190815260200160002060006101000a81548160ff021916908315150217905550611cd461187d565b73ffffffffffffffffffffffffffffffffffffffff168173ffffffffffffffffffffffffffffffffffffffff16837f2f8788117e7eff1d82e926ec794901d17c78024a50270940304540a733656f0d60405160405180910390a45b5050565b611d3d8282611172565b15611e1057600080600084815260200190815260200160002060000160008373ffffffffffffffffffffffffffffffffffffffff1673ffffffffffffffffffffffffffffffffffffffff16815260200190815260200160002060006101000a81548160ff021916908315150217905550611db561187d565b73ffffffffffffffffffffffffffffffffffffffff168173ffffffffffffffffffffffffffffffffffffffff16837ff6391f5c32d9c69d2a47ea670b442974b53935d1edc7fd64eb21e047a839171b60405160405180910390a45b5050565b600073ffffffffffffffffffffffffffffffffffffffff168373ffffffffffffffffffffffffffffffffffffffff161415611e84576040517f08c379a0000000000000000000000000000000000000000000000000000000008152600401611e7b90614783565b60405180910390fd5b8051825114611ec8576040517f08c379a0000000000000000000000000000000000000000000000000000000008152600401611ebf906148a3565b60405180910390fd5b6000611ed261187d565b9050611ef281856000868660405180602001604052806000815250612b1a565b60005b8351811015612041576000848281518110611f1357611f12614f31565b5b602002602001015190506000848381518110611f3257611f31614f31565b5b6020026020010151905060006001600084815260200190815260200160002060008973ffffffffffffffffffffffffffffffffffffffff1673ffffffffffffffffffffffffffffffffffffffff16815260200190815260200160002054905081811015611fd4576040517f08c379a0000000000000000000000000000000000000000000000000000000008152600401611fcb906146c3565b60405180910390fd5b8181036001600085815260200190815260200160002060008a73ffffffffffffffffffffffffffffffffffffffff1673ffffffffffffffffffffffffffffffffffffffff16815260200190815260200160002081905550505050808061203990614e52565b915050611ef5565b50600073ffffffffffffffffffffffffffffffffffffffff168473ffffffffffffffffffffffffffffffffffffffff168273ffffffffffffffffffffffffffffffffffffffff167f4a39dc06d4c0dbc64b70af90fd698a233a518aa5d07e595d983b8c0526c8f7fb86866040516120b992919061452f565b60405180910390a450505050565b6000816040516020016120da91906143a0565b604051602081830303815290604052805190602001209050919050565b600080600080604185511415612124576020850151925060408501519150606085015160001a90506121aa565b60408551141561216e576040850151602086015193507f7fffffffffffffffffffffffffffffffffffffffffffffffffffffffffffffff81169250601b8160ff1c019150506121a9565b6040517f08c379a00000000000000000000000000000000000000000000000000000000081526004016121a090614683565b60405180910390fd5b5b6121b686828585612d09565b935050505092915050565b600073ffffffffffffffffffffffffffffffffffffffff168473ffffffffffffffffffffffffffffffffffffffff161415612231576040517f08c379a0000000000000000000000000000000000000000000000000000000008152600401612228906148c3565b60405180910390fd5b600061223b61187d565b905061225c8160008761224d88612e94565b61225688612e94565b87612b1a565b826001600086815260200190815260200160002060008773ffffffffffffffffffffffffffffffffffffffff1673ffffffffffffffffffffffffffffffffffffffff16815260200190815260200160002060008282546122bc9190614b4a565b925050819055508473ffffffffffffffffffffffffffffffffffffffff16600073ffffffffffffffffffffffffffffffffffffffff168273ffffffffffffffffffffffffffffffffffffffff167fc3d58168c5ae7397731d063d5bbf3d657854427343f4c083240f7aacaa2d0f62878760405161233a929190614980565b60405180910390a461235181600087878787612f0e565b5050505050565b600073ffffffffffffffffffffffffffffffffffffffff168473ffffffffffffffffffffffffffffffffffffffff1614156123c8576040517f08c379a00000000000000000000000000000000000000000000000000000000081526004016123bf90614723565b60405180910390fd5b60006123d261187d565b90506123f28187876123e388612e94565b6123ec88612e94565b87612b1a565b60006001600086815260200190815260200160002060008873ffffffffffffffffffffffffffffffffffffffff1673ffffffffffffffffffffffffffffffffffffffff1681526020019081526020016000205490508381101561248a576040517f08c379a0000000000000000000000000000000000000000000000000000000008152600401612481906147a3565b60405180910390fd5b8381036001600087815260200190815260200160002060008973ffffffffffffffffffffffffffffffffffffffff1673ffffffffffffffffffffffffffffffffffffffff16815260200190815260200160002081905550836001600087815260200190815260200160002060008873ffffffffffffffffffffffffffffffffffffffff1673ffffffffffffffffffffffffffffffffffffffff16815260200190815260200160002060008282546125419190614b4a565b925050819055508573ffffffffffffffffffffffffffffffffffffffff168773ffffffffffffffffffffffffffffffffffffffff168373ffffffffffffffffffffffffffffffffffffffff167fc3d58168c5ae7397731d063d5bbf3d657854427343f4c083240f7aacaa2d0f6288886040516125be929190614980565b60405180910390a46125d4828888888888612f0e565b50505050505050565b600073ffffffffffffffffffffffffffffffffffffffff168373ffffffffffffffffffffffffffffffffffffffff16141561264d576040517f08c379a000000000000000000000000000000000000000000000000000000000815260040161264490614783565b60405180910390fd5b600061265761187d565b90506126878185600061266987612e94565b61267287612e94565b60405180602001604052806000815250612b1a565b60006001600085815260200190815260200160002060008673ffffffffffffffffffffffffffffffffffffffff1673ffffffffffffffffffffffffffffffffffffffff1681526020019081526020016000205490508281101561271f576040517f08c379a0000000000000000000000000000000000000000000000000000000008152600401612716906146c3565b60405180910390fd5b8281036001600086815260200190815260200160002060008773ffffffffffffffffffffffffffffffffffffffff1673ffffffffffffffffffffffffffffffffffffffff16815260200190815260200160002081905550600073ffffffffffffffffffffffffffffffffffffffff168573ffffffffffffffffffffffffffffffffffffffff168373ffffffffffffffffffffffffffffffffffffffff167fc3d58168c5ae7397731d063d5bbf3d657854427343f4c083240f7aacaa2d0f6287876040516127ed929190614980565b60405180910390a45050505050565b60007fd9b67a26000000000000000000000000000000000000000000000000000000007bffffffffffffffffffffffffffffffffffffffffffffffffffffffff1916827bffffffffffffffffffffffffffffffffffffffffffffffffffffffff191614806128c757507f0e89341c000000000000000000000000000000000000000000000000000000007bffffffffffffffffffffffffffffffffffffffffffffffffffffffff1916827bffffffffffffffffffffffffffffffffffffffffffffffffffffffff1916145b806128d757506128d6826130f5565b5b9050919050565b6060600060028360026128f19190614ba0565b6128fb9190614b4a565b67ffffffffffffffff81111561291457612913614f60565b5b6040519080825280601f01601f1916602001820160405280156129465781602001600182028036833780820191505090505b5090507f30000000000000000000000000000000000000000000000000000000000000008160008151811061297e5761297d614f31565b5b60200101907effffffffffffffffffffffffffffffffffffffffffffffffffffffffffffff1916908160001a9053507f7800000000000000000000000000000000000000000000000000000000000000816001815181106129e2576129e1614f31565b5b60200101907effffffffffffffffffffffffffffffffffffffffffffffffffffffffffffff1916908160001a90535060006001846002612a229190614ba0565b612a2c9190614b4a565b90505b6001811115612acc577f3031323334353637383961626364656600000000000000000000000000000000600f861660108110612a6e57612a6d614f31565b5b1a60f81b828281518110612a8557612a84614f31565b5b60200101907effffffffffffffffffffffffffffffffffffffffffffffffffffffffffffff1916908160001a905350600485901c945080612ac590614d91565b9050612a2f565b5060008414612b10576040517f08c379a0000000000000000000000000000000000000000000000000000000008152600401612b0790614643565b60405180910390fd5b8091505092915050565b505050505050565b612b418473ffffffffffffffffffffffffffffffffffffffff1661316f565b15612d01578373ffffffffffffffffffffffffffffffffffffffff1663bc197c8187878686866040518663ffffffff1660e01b8152600401612b87959493929190614429565b602060405180830381600087803b158015612ba157600080fd5b505af1925050508015612bd257506040513d601f19601f82011682018060405250810190612bcf9190613b72565b60015b612c7857612bde614fcf565b806308c379a01415612c3b5750612bf3615707565b80612bfe5750612c3d565b806040517f08c379a0000000000000000000000000000000000000000000000000000000008152600401612c3291906145e1565b60405180910390fd5b505b6040517f08c379a0000000000000000000000000000000000000000000000000000000008152600401612c6f90614623565b60405180910390fd5b63bc197c8160e01b7bffffffffffffffffffffffffffffffffffffffffffffffffffffffff1916817bffffffffffffffffffffffffffffffffffffffffffffffffffffffff191614612cff576040517f08c379a0000000000000000000000000000000000000000000000000000000008152600401612cf690614663565b60405180910390fd5b505b505050505050565b60007f7fffffffffffffffffffffffffffffff5d576e7357a4501ddfe92f46681b20a08260001c1115612d71576040517f08c379a0000000000000000000000000000000000000000000000000000000008152600401612d6890614703565b60405180910390fd5b601b8460ff161480612d865750601c8460ff16145b612dc5576040517f08c379a0000000000000000000000000000000000000000000000000000000008152600401612dbc90614763565b60405180910390fd5b600060018686868660405160008152602001604052604051612dea949392919061459c565b6020604051602081039080840390855afa158015612e0c573d6000803e3d6000fd5b505050602060405103519050600073ffffffffffffffffffffffffffffffffffffffff168173ffffffffffffffffffffffffffffffffffffffff161415612e88576040517f08c379a0000000000000000000000000000000000000000000000000000000008152600401612e7f90614603565b60405180910390fd5b80915050949350505050565b60606000600167ffffffffffffffff811115612eb357612eb2614f60565b5b604051908082528060200260200182016040528015612ee15781602001602082028036833780820191505090505b5090508281600081518110612ef957612ef8614f31565b5b60200260200101818152505080915050919050565b612f2d8473ffffffffffffffffffffffffffffffffffffffff1661316f565b156130ed578373ffffffffffffffffffffffffffffffffffffffff1663f23a6e6187878686866040518663ffffffff1660e01b8152600401612f73959493929190614491565b602060405180830381600087803b158015612f8d57600080fd5b505af1925050508015612fbe57506040513d601f19601f82011682018060405250810190612fbb9190613b72565b60015b61306457612fca614fcf565b806308c379a014156130275750612fdf615707565b80612fea5750613029565b806040517f08c379a000000000000000000000000000000000000000000000000000000000815260040161301e91906145e1565b60405180910390fd5b505b6040517f08c379a000000000000000000000000000000000000000000000000000000000815260040161305b90614623565b60405180910390fd5b63f23a6e6160e01b7bffffffffffffffffffffffffffffffffffffffffffffffffffffffff1916817bffffffffffffffffffffffffffffffffffffffffffffffffffffffff1916146130eb576040517f08c379a00000000000000000000000000000000000000000000000000000000081526004016130e290614663565b60405180910390fd5b505b505050505050565b60007f7965db0b000000000000000000000000000000000000000000000000000000007bffffffffffffffffffffffffffffffffffffffffffffffffffffffff1916827bffffffffffffffffffffffffffffffffffffffffffffffffffffffff19161480613168575061316782613182565b5b9050919050565b600080823b905060008111915050919050565b60007f01ffc9a7000000000000000000000000000000000000000000000000000000007bffffffffffffffffffffffffffffffffffffffffffffffffffffffff1916827bffffffffffffffffffffffffffffffffffffffffffffffffffffffff1916149050919050565b604051806060016040528060008152602001600073ffffffffffffffffffffffffffffffffffffffff168152602001600081525090565b82805461322f90614dbb565b90600052602060002090601f0160209004810192826132515760008555613298565b82601f1061326a57805160ff1916838001178555613298565b82800160010185558215613298579182015b8281111561329757825182559160200191906001019061327c565b5b5090506132a591906132a9565b5090565b5b808211156132c25760008160009055506001016132aa565b5090565b60006132d96132d4846149ce565b6149a9565b905080838252602082019050828560208602820111156132fc576132fb614ffb565b5b60005b8581101561332c578161331288826133e8565b8452602084019350602083019250506001810190506132ff565b5050509392505050565b6000613349613344846149fa565b6149a9565b9050808382526020820190508285602086028201111561336c5761336b614ffb565b5b60005b8581101561339c578161338288826135dd565b84526020840193506020830192505060018101905061336f565b5050509392505050565b60006133b96133b484614a26565b6149a9565b9050828152602081018484840111156133d5576133d4615000565b5b6133e0848285614d09565b509392505050565b6000813590506133f781615869565b92915050565b600082601f83011261341257613411614ff6565b5b81356134228482602086016132c6565b91505092915050565b60008083601f84011261344157613440614ff6565b5b8235905067ffffffffffffffff81111561345e5761345d614ff1565b5b60208301915083604082028301111561347a57613479614ffb565b5b9250929050565b600082601f83011261349657613495614ff6565b5b81356134a6848260208601613336565b91505092915050565b6000813590506134be81615897565b92915050565b6000813590506134d3816158ae565b92915050565b6000813590506134e8816158c5565b92915050565b6000815190506134fd816158c5565b92915050565b60008083601f84011261351957613518614ff6565b5b8235905067ffffffffffffffff81111561353657613535614ff1565b5b60208301915083600182028301111561355257613551614ffb565b5b9250929050565b600082601f83011261356e5761356d614ff6565b5b813561357e8482602086016133a6565b91505092915050565b60008083601f84011261359d5761359c614ff6565b5b8235905067ffffffffffffffff8111156135ba576135b9614ff1565b5b6020830191508360018202830111156135d6576135d5614ffb565b5b9250929050565b6000813590506135ec816158dc565b92915050565b600080604083850312156136095761360861500a565b5b6000613617858286016133e8565b9250506020613628858286016133e8565b9150509250929050565b600080600080600060a0868803121561364e5761364d61500a565b5b600061365c888289016133e8565b955050602061366d888289016133e8565b945050604086013567ffffffffffffffff81111561368e5761368d615005565b5b61369a88828901613481565b935050606086013567ffffffffffffffff8111156136bb576136ba615005565b5b6136c788828901613481565b925050608086013567ffffffffffffffff8111156136e8576136e7615005565b5b6136f488828901613559565b9150509295509295909350565b600080600080600060a0868803121561371d5761371c61500a565b5b600061372b888289016133e8565b955050602061373c888289016133e8565b945050604061374d888289016135dd565b935050606061375e888289016135dd565b925050608086013567ffffffffffffffff81111561377f5761377e615005565b5b61378b88828901613559565b9150509295509295909350565b6000806000606084860312156137b1576137b061500a565b5b60006137bf868287016133e8565b935050602084013567ffffffffffffffff8111156137e0576137df615005565b5b6137ec86828701613481565b925050604084013567ffffffffffffffff81111561380d5761380c615005565b5b61381986828701613481565b9150509250925092565b6000806040838503121561383a5761383961500a565b5b6000613848858286016133e8565b9250506020613859858286016134af565b9150509250929050565b6000806040838503121561387a5761387961500a565b5b6000613888858286016133e8565b9250506020613899858286016135dd565b9150509250929050565b60008060008060008060008060008060e08b8d0312156138c6576138c561500a565b5b60006138d48d828e016133e8565b9a505060206138e58d828e016135dd565b99505060408b013567ffffffffffffffff81111561390657613905615005565b5b6139128d828e0161342b565b985098505060608b013567ffffffffffffffff81111561393557613934615005565b5b6139418d828e01613587565b965096505060806139548d828e016135dd565b94505060a06139658d828e016135dd565b93505060c08b013567ffffffffffffffff81111561398657613985615005565b5b6139928d828e01613503565b92509250509295989b9194979a5092959850565b6000806000606084860312156139bf576139be61500a565b5b60006139cd868287016133e8565b93505060206139de868287016135dd565b92505060406139ef868287016135dd565b9150509250925092565b60008060008060808587031215613a1357613a1261500a565b5b6000613a21878288016133e8565b9450506020613a32878288016135dd565b9350506040613a43878288016135dd565b9250506060613a54878288016135dd565b91505092959194509250565b60008060408385031215613a7757613a7661500a565b5b600083013567ffffffffffffffff811115613a9557613a94615005565b5b613aa1858286016133fd565b925050602083013567ffffffffffffffff811115613ac257613ac1615005565b5b613ace85828601613481565b9150509250929050565b600060208284031215613aee57613aed61500a565b5b6000613afc848285016134c4565b91505092915050565b60008060408385031215613b1c57613b1b61500a565b5b6000613b2a858286016134c4565b9250506020613b3b858286016133e8565b9150509250929050565b600060208284031215613b5b57613b5a61500a565b5b6000613b69848285016134d9565b91505092915050565b600060208284031215613b8857613b8761500a565b5b6000613b96848285016134ee565b91505092915050565b60008060208385031215613bb657613bb561500a565b5b600083013567ffffffffffffffff811115613bd457613bd3615005565b5b613be085828601613587565b92509250509250929050565b600060208284031215613c0257613c0161500a565b5b6000613c10848285016135dd565b91505092915050565b6000613c258383613c61565b60208301905092915050565b6000613c3d8383614274565b60408301905092915050565b6000613c5583836142fd565b60208301905092915050565b613c6a81614c36565b82525050565b613c7981614c24565b82525050565b613c8881614c24565b82525050565b613c9f613c9a82614c24565b614e9b565b82525050565b6000613cb082614a8c565b613cba8185614aea565b9350613cc583614a57565b8060005b83811015613cf6578151613cdd8882613c19565b9750613ce883614ac3565b925050600181019050613cc9565b5085935050505092915050565b6000613d0e82614a97565b613d188185614afb565b9350613d2383614a67565b8060005b83811015613d535781613d3a8882613c31565b9750613d4583614ad0565b925050600181019050613d27565b5085935050505092915050565b6000613d6b82614aa2565b613d758185614b0c565b9350613d8083614a7c565b8060005b83811015613db1578151613d988882613c49565b9750613da383614add565b925050600181019050613d84565b5085935050505092915050565b613dc781614c48565b82525050565b613dd681614c54565b82525050565b613ded613de882614c54565b614ead565b82525050565b6000613dfe82614aad565b613e088185614b1d565b9350613e18818560208601614d18565b613e218161500f565b840191505092915050565b6000613e388385614b2e565b9350613e45838584614d09565b613e4e8361500f565b840190509392505050565b6000613e6482614ab8565b613e6e8185614b2e565b9350613e7e818560208601614d18565b613e878161500f565b840191505092915050565b6000613e9d82614ab8565b613ea78185614b3f565b9350613eb7818560208601614d18565b80840191505092915050565b6000613ed0601883614b2e565b9150613edb82615054565b602082019050919050565b6000613ef3603483614b2e565b9150613efe8261507d565b604082019050919050565b6000613f16602083614b2e565b9150613f21826150cc565b602082019050919050565b6000613f39602883614b2e565b9150613f44826150f5565b604082019050919050565b6000613f5c601f83614b2e565b9150613f6782615144565b602082019050919050565b6000613f7f601c83614b3f565b9150613f8a8261516d565b601c82019050919050565b6000613fa2602b83614b2e565b9150613fad82615196565b604082019050919050565b6000613fc5602483614b2e565b9150613fd0826151e5565b604082019050919050565b6000613fe8602983614b2e565b9150613ff382615234565b604082019050919050565b600061400b602283614b2e565b915061401682615283565b604082019050919050565b600061402e602583614b2e565b9150614039826152d2565b604082019050919050565b6000614051603283614b2e565b915061405c82615321565b604082019050919050565b6000614074602283614b2e565b915061407f82615370565b604082019050919050565b6000614097602383614b2e565b91506140a2826153bf565b604082019050919050565b60006140ba602a83614b2e565b91506140c58261540e565b604082019050919050565b60006140dd601283614b2e565b91506140e88261545d565b602082019050919050565b6000614100601b83614b2e565b915061410b82615486565b602082019050919050565b6000614123601183614b2e565b915061412e826154af565b602082019050919050565b6000614146601383614b2e565b9150614151826154d8565b602082019050919050565b6000614169601783614b3f565b915061417482615501565b601782019050919050565b600061418c601283614b2e565b91506141978261552a565b602082019050919050565b60006141af602983614b2e565b91506141ba82615553565b604082019050919050565b60006141d2602983614b2e565b91506141dd826155a2565b604082019050919050565b60006141f5602883614b2e565b9150614200826155f1565b604082019050919050565b6000614218602183614b2e565b915061422382615640565b604082019050919050565b600061423b601183614b3f565b91506142468261568f565b601182019050919050565b600061425e602f83614b2e565b9150614269826156b8565b604082019050919050565b60408201600080830154905061428981614ded565b6142966000860182613c61565b50600183015490506142a781614e07565b6142b460208601826142fd565b5050505050565b6060820160008201516142d160008501826142fd565b5060208201516142e46020850182613c70565b5060408201516142f760408501826142fd565b50505050565b61430681614caa565b82525050565b61431581614caa565b82525050565b61432c61432782614caa565b614ec9565b82525050565b61433b81614cb4565b82525050565b600061434d8288613c8e565b60148201915061435d8287613c8e565b60148201915061436d828661431b565b60208201915061437d828561431b565b60208201915061438d828461431b565b6020820191508190509695505050505050565b60006143ab82613f72565b91506143b78284613ddc565b60208201915081905092915050565b60006143d18261415c565b91506143dd8285613e92565b91506143e88261422e565b91506143f48284613e92565b91508190509392505050565b60006040820190506144156000830185613c7f565b6144226020830184613c7f565b9392505050565b600060a08201905061443e6000830188613c7f565b61444b6020830187613c7f565b818103604083015261445d8186613d60565b905081810360608301526144718185613d60565b905081810360808301526144858184613df3565b90509695505050505050565b600060a0820190506144a66000830188613c7f565b6144b36020830187613c7f565b6144c0604083018661430c565b6144cd606083018561430c565b81810360808301526144df8184613df3565b90509695505050505050565b600060208201905081810360008301526145058184613ca5565b905092915050565b600060208201905081810360008301526145278184613d60565b905092915050565b600060408201905081810360008301526145498185613d60565b9050818103602083015261455d8184613d60565b90509392505050565b600060208201905061457b6000830184613dbe565b92915050565b60006020820190506145966000830184613dcd565b92915050565b60006080820190506145b16000830187613dcd565b6145be6020830186614332565b6145cb6040830185613dcd565b6145d86060830184613dcd565b95945050505050565b600060208201905081810360008301526145fb8184613e59565b905092915050565b6000602082019050818103600083015261461c81613ec3565b9050919050565b6000602082019050818103600083015261463c81613ee6565b9050919050565b6000602082019050818103600083015261465c81613f09565b9050919050565b6000602082019050818103600083015261467c81613f2c565b9050919050565b6000602082019050818103600083015261469c81613f4f565b9050919050565b600060208201905081810360008301526146bc81613f95565b9050919050565b600060208201905081810360008301526146dc81613fb8565b9050919050565b600060208201905081810360008301526146fc81613fdb565b9050919050565b6000602082019050818103600083015261471c81613ffe565b9050919050565b6000602082019050818103600083015261473c81614021565b9050919050565b6000602082019050818103600083015261475c81614044565b9050919050565b6000602082019050818103600083015261477c81614067565b9050919050565b6000602082019050818103600083015261479c8161408a565b9050919050565b600060208201905081810360008301526147bc816140ad565b9050919050565b600060208201905081810360008301526147dc816140d0565b9050919050565b600060208201905081810360008301526147fc816140f3565b9050919050565b6000602082019050818103600083015261481c81614116565b9050919050565b6000602082019050818103600083015261483c81614139565b9050919050565b6000602082019050818103600083015261485c8161417f565b9050919050565b6000602082019050818103600083015261487c816141a2565b9050919050565b6000602082019050818103600083015261489c816141c5565b9050919050565b600060208201905081810360008301526148bc816141e8565b9050919050565b600060208201905081810360008301526148dc8161420b565b9050919050565b600060208201905081810360008301526148fc81614251565b9050919050565b600060608201905061491860008301846142bb565b92915050565b600060a08201905061493360008301876142bb565b81810360608301526149458186613d03565b9050818103608083015261495a818486613e2c565b905095945050505050565b600060208201905061497a600083018461430c565b92915050565b6000604082019050614995600083018561430c565b6149a2602083018461430c565b9392505050565b60006149b36149c4565b90506149bf8282614e21565b919050565b6000604051905090565b600067ffffffffffffffff8211156149e9576149e8614f60565b5b602082029050602081019050919050565b600067ffffffffffffffff821115614a1557614a14614f60565b5b602082029050602081019050919050565b600067ffffffffffffffff821115614a4157614a40614f60565b5b614a4a8261500f565b9050602081019050919050565b6000819050602082019050919050565b60008190508160005260206000209050919050565b6000819050602082019050919050565b600081519050919050565b600081549050919050565b600081519050919050565b600081519050919050565b600081519050919050565b6000602082019050919050565b6000600282019050919050565b6000602082019050919050565b600082825260208201905092915050565b600082825260208201905092915050565b600082825260208201905092915050565b600082825260208201905092915050565b600082825260208201905092915050565b600081905092915050565b6000614b5582614caa565b9150614b6083614caa565b9250827fffffffffffffffffffffffffffffffffffffffffffffffffffffffffffffffff03821115614b9557614b94614ed3565b5b828201905092915050565b6000614bab82614caa565b9150614bb683614caa565b9250817fffffffffffffffffffffffffffffffffffffffffffffffffffffffffffffffff0483118215151615614bef57614bee614ed3565b5b828202905092915050565b600073ffffffffffffffffffffffffffffffffffffffff82169050919050565b6000819050919050565b6000614c2f82614c8a565b9050919050565b6000614c4182614c8a565b9050919050565b60008115159050919050565b6000819050919050565b60007fffffffff0000000000000000000000000000000000000000000000000000000082169050919050565b600073ffffffffffffffffffffffffffffffffffffffff82169050919050565b6000819050919050565b600060ff82169050919050565b6000614ccc82614cd3565b9050919050565b6000614cde82614ce5565b9050919050565b6000614cf082614c8a565b9050919050565b6000614d0282614caa565b9050919050565b82818337600083830152505050565b60005b83811015614d36578082015181840152602081019050614d1b565b83811115614d45576000848401525b50505050565b600081016000830180614d5d81614fa3565b9050614d698184615815565b505050600181016020830180614d7e81614fb9565b9050614d8a8184615846565b5050505050565b6000614d9c82614caa565b91506000821415614db057614daf614ed3565b5b600182039050919050565b60006002820490506001821680614dd357607f821691505b60208210811415614de757614de6614f02565b5b50919050565b6000614e00614dfb8361503a565b614bfa565b9050919050565b6000614e1a614e158361503a565b614c1a565b9050919050565b614e2a8261500f565b810181811067ffffffffffffffff82111715614e4957614e48614f60565b5b80604052505050565b6000614e5d82614caa565b91507fffffffffffffffffffffffffffffffffffffffffffffffffffffffffffffffff821415614e9057614e8f614ed3565b5b600182019050919050565b6000614ea682614eb7565b9050919050565b6000819050919050565b6000614ec28261502d565b9050919050565b6000819050919050565b7f4e487b7100000000000000000000000000000000000000000000000000000000600052601160045260246000fd5b7f4e487b7100000000000000000000000000000000000000000000000000000000600052602260045260246000fd5b7f4e487b7100000000000000000000000000000000000000000000000000000000600052603260045260246000fd5b7f4e487b7100000000000000000000000000000000000000000000000000000000600052604160045260246000fd5b6000819050919050565b6000819050919050565b60008135614fb081615880565b80915050919050565b60008135614fc6816158dc565b80915050919050565b600060033d1115614fee5760046000803e614feb600051615047565b90505b90565b600080fd5b600080fd5b600080fd5b600080fd5b600080fd5b600080fd5b6000601f19601f8301169050919050565b60008160001b9050919050565b60008160601b9050919050565b60008160001c9050919050565b60008160e01c9050919050565b7f45434453413a20696e76616c6964207369676e61747572650000000000000000600082015250565b7f455243313135353a207472616e7366657220746f206e6f6e204552433131353560008201527f526563656976657220696d706c656d656e746572000000000000000000000000602082015250565b7f537472696e67733a20686578206c656e67746820696e73756666696369656e74600082015250565b7f455243313135353a204552433131353552656365697665722072656a6563746560008201527f6420746f6b656e73000000000000000000000000000000000000000000000000602082015250565b7f45434453413a20696e76616c6964207369676e6174757265206c656e67746800600082015250565b7f19457468657265756d205369676e6564204d6573736167653a0a333200000000600082015250565b7f455243313135353a2062616c616e636520717565727920666f7220746865207a60008201527f65726f2061646472657373000000000000000000000000000000000000000000602082015250565b7f455243313135353a206275726e20616d6f756e7420657863656564732062616c60008201527f616e636500000000000000000000000000000000000000000000000000000000602082015250565b7f455243313135353a2063616c6c6572206973206e6f74206f776e6572206e6f7260008201527f20617070726f7665640000000000000000000000000000000000000000000000602082015250565b7f45434453413a20696e76616c6964207369676e6174757265202773272076616c60008201527f7565000000000000000000000000000000000000000000000000000000000000602082015250565b7f455243313135353a207472616e7366657220746f20746865207a65726f20616460008201527f6472657373000000000000000000000000000000000000000000000000000000602082015250565b7f455243313135353a207472616e736665722063616c6c6572206973206e6f742060008201527f6f776e6572206e6f7220617070726f7665640000000000000000000000000000602082015250565b7f45434453413a20696e76616c6964207369676e6174757265202776272076616c60008201527f7565000000000000000000000000000000000000000000000000000000000000602082015250565b7f455243313135353a206275726e2066726f6d20746865207a65726f206164647260008201527f6573730000000000000000000000000000000000000000000000000000000000602082015250565b7f455243313135353a20696e73756666696369656e742062616c616e636520666f60008201527f72207472616e7366657200000000000000000000000000000000000000000000602082015250565b7f5065726d697373696f6e2064656e6965642e0000000000000000000000000000600082015250565b7f417070726f76616c20616c7265616479206578686175737465642e0000000000600082015250565b7f417070726f76616c20657870697265642e000000000000000000000000000000600082015250565b7f417070726f76616c206578686175737465642e00000000000000000000000000600082015250565b7f416363657373436f6e74726f6c3a206163636f756e7420000000000000000000600082015250565b7f496e76616c6964207369676e61747572652e0000000000000000000000000000600082015250565b7f455243313135353a2073657474696e6720617070726f76616c2073746174757360008201527f20666f722073656c660000000000000000000000000000000000000000000000602082015250565b7f455243313135353a206163636f756e747320616e6420696473206c656e67746860008201527f206d69736d617463680000000000000000000000000000000000000000000000602082015250565b7f455243313135353a2069647320616e6420616d6f756e7473206c656e6774682060008201527f6d69736d61746368000000000000000000000000000000000000000000000000602082015250565b7f455243313135353a206d696e7420746f20746865207a65726f2061646472657360008201527f7300000000000000000000000000000000000000000000000000000000000000602082015250565b7f206973206d697373696e6720726f6c6520000000000000000000000000000000600082015250565b7f416363657373436f6e74726f6c3a2063616e206f6e6c792072656e6f756e636560008201527f20726f6c657320666f722073656c660000000000000000000000000000000000602082015250565b600060443d10156157175761579a565b61571f6149c4565b60043d036004823e80513d602482011167ffffffffffffffff8211171561574757505061579a565b808201805167ffffffffffffffff811115615765575050505061579a565b80602083010160043d03850181111561578257505050505061579a565b61579182602001850186614e21565b82955050505050505b90565b600073ffffffffffffffffffffffffffffffffffffffff6157bd84615020565b9350801983169250808416831791505092915050565b60007fffffffffffffffffffffffffffffffffffffffffffffffffffffffffffffffff6157ff84615020565b9350801983169250808416831791505092915050565b61581e82614cc1565b61583161582a82614f8f565b835461579d565b8255505050565b6158428282614d4b565b5050565b61584f82614cf7565b61586261585b82614f99565b83546157d3565b8255505050565b61587281614c24565b811461587d57600080fd5b50565b61588981614c36565b811461589457600080fd5b50565b6158a081614c48565b81146158ab57600080fd5b50565b6158b781614c54565b81146158c257600080fd5b50565b6158ce81614c5e565b81146158d957600080fd5b50565b6158e581614caa565b81146158f057600080fd5b5056fea26469706673582212202d5a9a292b0119bbc80b6e8a39608e7eaa128007e33439988027deacfcb8230464736f6c63430008060033",
  "immutableReferences": {},
  "source": "// SPDX-License-Identifier: MIT\r\npragma solidity ^0.8.0;\r\n\r\nimport \"../openzeppelin/contracts/access/AccessControl.sol\";\r\nimport \"../openzeppelin/contracts/token/ERC1155/ERC1155.sol\";\r\nimport \"../openzeppelin/contracts/utils/cryptography/ECDSA.sol\";\r\nimport \"./HasSecondarySaleFees.sol\";\r\n\r\nstruct Fee {\r\n  address payable recipient;\r\n  uint pct;\r\n}\r\n\r\nstruct TokenData {\r\n  uint dateCreated;\r\n  address creator;\r\n  uint supply;\r\n}\r\n\r\ncontract TokenV1 is AccessControl, ERC1155, HasSecondarySaleFees {\r\n  using ECDSA for bytes32;\r\n\r\n  bytes internal constant EMPTY = \"\";\r\n\r\n  bytes32 public constant ADMIN_ROLE = keccak256(\"ADMIN_ROLE\");\r\n  bytes32 public constant MINTER_ROLE = keccak256(\"MINTER_ROLE\");\r\n\r\n  uint private _tokenId = 0;\r\n  mapping(uint => TokenData) _tokens;\r\n\r\n  mapping(uint => Fee[]) _fees;\r\n\r\n  mapping(bytes32 => bool) _approvalsExhausted;\r\n\r\n  constructor(string memory uri) ERC1155(uri) {\r\n    _setupRole(DEFAULT_ADMIN_ROLE, msg.sender);\r\n    \r\n    _setupRole(ADMIN_ROLE, msg.sender);\r\n    _setRoleAdmin(ADMIN_ROLE, DEFAULT_ADMIN_ROLE);\r\n\r\n    _setupRole(MINTER_ROLE, msg.sender);\r\n    _setRoleAdmin(MINTER_ROLE, ADMIN_ROLE);\r\n  }\r\n\r\n  modifier onlyAdminOrMinter() {\r\n    require(\r\n      hasRole(ADMIN_ROLE, msg.sender) || hasRole(MINTER_ROLE, msg.sender),\r\n      \"Permission denied.\"\r\n    );\r\n    _;\r\n  }\r\n  \r\n  modifier onlyAdminOrTokenOwner(address account) {\r\n    require(\r\n      msg.sender == account || hasRole(ADMIN_ROLE, msg.sender),\r\n      \"Permission denied.\"\r\n    );\r\n    _;\r\n  }\r\n\r\n  function supportsInterface(bytes4 interfaceId) public view override(\r\n    AccessControl,\r\n    ERC1155,\r\n    HasSecondarySaleFees\r\n  ) returns (bool) {\r\n    return super.supportsInterface(interfaceId);\r\n  }\r\n\r\n  function setMetadataUri(string calldata uri)\r\n    public\r\n    onlyRole(ADMIN_ROLE)\r\n  {\r\n    super._setURI(uri);\r\n  }\r\n\r\n  function getMintHash(address creator, uint supply, uint expiry, uint salt) public view returns (bytes32) {\r\n    return keccak256(abi.encodePacked(\r\n      address(this),\r\n      creator,\r\n      supply,\r\n      expiry,\r\n      salt\r\n    ));\r\n  }\r\n  \r\n  function get(uint id) public view returns (TokenData memory) {\r\n    return _tokens[id];\r\n  }\r\n\r\n  event Minted(uint256 indexed id, TokenData token, Fee[] fees, string data);\r\n  event RevokeMint(address operator, address creator, uint256 indexed supply);\r\n\r\n  function mint(\r\n    address creator,\r\n    uint supply,\r\n    Fee[] calldata fees,\r\n    string calldata data,\r\n    uint expiry,\r\n    uint salt,\r\n    bytes calldata signature\r\n  ) public {\r\n    if (!hasRole(MINTER_ROLE, msg.sender)) {\r\n      require(expiry > block.timestamp, \"Approval expired.\");\r\n\r\n      bytes32 mintHash = getMintHash(creator, supply, expiry, salt);\r\n      require(!_approvalsExhausted[mintHash], \"Approval exhausted.\");\r\n      \r\n      address recoveredAddress =\r\n        mintHash.toEthSignedMessageHash().recover(signature);\r\n\r\n      require(\r\n        recoveredAddress != address(0)\r\n          && hasRole(MINTER_ROLE, recoveredAddress),\r\n        \"Invalid signature.\"\r\n      );\r\n\r\n      _approvalsExhausted[mintHash] = true;\r\n    }\r\n\r\n    _tokenId++;\r\n\r\n    super._mint(creator, _tokenId, supply, EMPTY);\r\n\r\n    TokenData memory token = TokenData(\r\n      block.timestamp,\r\n      creator,\r\n      supply\r\n    );\r\n\r\n    _tokens[_tokenId] = token;\r\n\r\n    uint totalBps = 0;\r\n\r\n    for (uint i = 0; i < fees.length; i++) {\r\n      totalBps += fees[i].pct;\r\n\r\n      if (totalBps <= 10**5)\r\n        _fees[_tokenId].push(fees[i]);\r\n    }\r\n\r\n    emit Minted(_tokenId, token, _fees[_tokenId], data);\r\n  }\r\n\r\n  function revokeMintApproval(\r\n    address creator,\r\n    uint supply,\r\n    uint expiry,\r\n    uint salt\r\n  ) public onlyAdminOrMinter {    \r\n    bytes32 mintHash = getMintHash(creator, supply, expiry, salt);\r\n    require(!_approvalsExhausted[mintHash], \"Approval already exhausted.\");\r\n\r\n    _approvalsExhausted[mintHash] = true;\r\n\r\n    emit RevokeMint(msg.sender, creator, supply);\r\n  }\r\n\r\n  function getFeeRecipients(uint256 id) override public view returns (address payable[] memory) {\r\n    Fee[] memory fees = _fees[id];\r\n    address payable[] memory result = new address payable[](fees.length);\r\n\r\n    for (uint i = 0; i < fees.length; i++) {\r\n      result[i] = fees[i].recipient;\r\n    }\r\n\r\n    return result;\r\n  }\r\n\r\n  function getFeeBps(uint256 id) override public view returns (uint[] memory) {\r\n    Fee[] memory fees = _fees[id];\r\n    uint[] memory result = new uint[](fees.length);\r\n\r\n    for (uint i = 0; i < fees.length; i++) {\r\n      result[i] = fees[i].pct;\r\n    }\r\n\r\n    return result;\r\n  }\r\n\r\n  function burn(address account, uint256 id, uint256 amount)\r\n    public\r\n    onlyAdminOrTokenOwner(account)\r\n  {\r\n    super._burn(account, id, amount);\r\n  }\r\n\r\n  function burnBatch(address account, uint256[] memory ids, uint256[] memory amounts)\r\n    public\r\n    onlyAdminOrTokenOwner(account)\r\n  {\r\n    super._burnBatch(account, ids, amounts);\r\n  }\r\n}",
  "sourcePath": "C:/Users/Husnain/Documents/Projects/Fanbase/New/fanbase/packages/ethereum/contracts/solidity/collectibles/TokenV1.sol",
  "compiler": {
    "name": "solc",
    "version": "0.8.6+commit.11564f7e.Emscripten.clang"
  },
  "schemaVersion": "3.4.1",
  "updatedAt": "2021-06-24T19:56:01.863Z",
  "networkType": "ethereum",
  "devdoc": {
    "kind": "dev",
    "methods": {
      "balanceOf(address,uint256)": {
        "details": "See {IERC1155-balanceOf}. Requirements: - `account` cannot be the zero address."
      },
      "balanceOfBatch(address[],uint256[])": {
        "details": "See {IERC1155-balanceOfBatch}. Requirements: - `accounts` and `ids` must have the same length."
      },
      "getRoleAdmin(bytes32)": {
        "details": "Returns the admin role that controls `role`. See {grantRole} and {revokeRole}. To change a role's admin, use {_setRoleAdmin}."
      },
      "grantRole(bytes32,address)": {
        "details": "Grants `role` to `account`. If `account` had not been already granted `role`, emits a {RoleGranted} event. Requirements: - the caller must have ``role``'s admin role."
      },
      "hasRole(bytes32,address)": {
        "details": "Returns `true` if `account` has been granted `role`."
      },
      "isApprovedForAll(address,address)": {
        "details": "See {IERC1155-isApprovedForAll}."
      },
      "renounceRole(bytes32,address)": {
        "details": "Revokes `role` from the calling account. Roles are often managed via {grantRole} and {revokeRole}: this function's purpose is to provide a mechanism for accounts to lose their privileges if they are compromised (such as when a trusted device is misplaced). If the calling account had been granted `role`, emits a {RoleRevoked} event. Requirements: - the caller must be `account`."
      },
      "revokeRole(bytes32,address)": {
        "details": "Revokes `role` from `account`. If `account` had been granted `role`, emits a {RoleRevoked} event. Requirements: - the caller must have ``role``'s admin role."
      },
      "safeBatchTransferFrom(address,address,uint256[],uint256[],bytes)": {
        "details": "See {IERC1155-safeBatchTransferFrom}."
      },
      "safeTransferFrom(address,address,uint256,uint256,bytes)": {
        "details": "See {IERC1155-safeTransferFrom}."
      },
      "setApprovalForAll(address,bool)": {
        "details": "See {IERC1155-setApprovalForAll}."
      },
      "uri(uint256)": {
        "details": "See {IERC1155MetadataURI-uri}. This implementation returns the same URI for *all* token types. It relies on the token type ID substitution mechanism https://eips.ethereum.org/EIPS/eip-1155#metadata[defined in the EIP]. Clients calling this function must replace the `\\{id\\}` substring with the actual token type ID."
      }
    },
    "version": 1
  },
  "userdoc": {
    "kind": "user",
    "methods": {},
    "version": 1
  }
}