{
  "contractName": "TokenV1",
  "abi": [
    {
      "inputs": [
        {
          "internalType": "string",
          "name": "baseUri",
          "type": "string"
        }
      ],
      "stateMutability": "nonpayable",
      "type": "constructor"
    },
    {
      "anonymous": false,
      "inputs": [
        {
          "indexed": true,
          "internalType": "address",
          "name": "account",
          "type": "address"
        },
        {
          "indexed": true,
          "internalType": "address",
          "name": "operator",
          "type": "address"
        },
        {
          "indexed": false,
          "internalType": "bool",
          "name": "approved",
          "type": "bool"
        }
      ],
      "name": "ApprovalForAll",
      "type": "event"
    },
    {
      "anonymous": false,
      "inputs": [
        {
          "indexed": true,
          "internalType": "uint256",
          "name": "id",
          "type": "uint256"
        },
        {
          "components": [
            {
              "internalType": "uint256",
              "name": "dateCreated",
              "type": "uint256"
            },
            {
              "internalType": "address",
              "name": "creator",
              "type": "address"
            },
            {
              "internalType": "uint256",
              "name": "supply",
              "type": "uint256"
            },
            {
              "internalType": "string",
              "name": "uri",
              "type": "string"
            }
          ],
          "indexed": false,
          "internalType": "struct Token",
          "name": "token",
          "type": "tuple"
        },
        {
          "components": [
            {
              "internalType": "address payable",
              "name": "recipient",
              "type": "address"
            },
            {
              "internalType": "uint256",
              "name": "pct",
              "type": "uint256"
            }
          ],
          "indexed": false,
          "internalType": "struct Fee[]",
          "name": "fees",
          "type": "tuple[]"
        },
        {
          "indexed": false,
          "internalType": "string",
          "name": "data",
          "type": "string"
        }
      ],
      "name": "Minted",
      "type": "event"
    },
    {
      "anonymous": false,
      "inputs": [
        {
          "indexed": false,
          "internalType": "address",
          "name": "operator",
          "type": "address"
        },
        {
          "indexed": false,
          "internalType": "address",
          "name": "creator",
          "type": "address"
        },
        {
          "indexed": true,
          "internalType": "uint256",
          "name": "supply",
          "type": "uint256"
        },
        {
          "indexed": false,
          "internalType": "string",
          "name": "uri",
          "type": "string"
        }
      ],
      "name": "RevokeMint",
      "type": "event"
    },
    {
      "anonymous": false,
      "inputs": [
        {
          "indexed": true,
          "internalType": "bytes32",
          "name": "role",
          "type": "bytes32"
        },
        {
          "indexed": true,
          "internalType": "bytes32",
          "name": "previousAdminRole",
          "type": "bytes32"
        },
        {
          "indexed": true,
          "internalType": "bytes32",
          "name": "newAdminRole",
          "type": "bytes32"
        }
      ],
      "name": "RoleAdminChanged",
      "type": "event"
    },
    {
      "anonymous": false,
      "inputs": [
        {
          "indexed": true,
          "internalType": "bytes32",
          "name": "role",
          "type": "bytes32"
        },
        {
          "indexed": true,
          "internalType": "address",
          "name": "account",
          "type": "address"
        },
        {
          "indexed": true,
          "internalType": "address",
          "name": "sender",
          "type": "address"
        }
      ],
      "name": "RoleGranted",
      "type": "event"
    },
    {
      "anonymous": false,
      "inputs": [
        {
          "indexed": true,
          "internalType": "bytes32",
          "name": "role",
          "type": "bytes32"
        },
        {
          "indexed": true,
          "internalType": "address",
          "name": "account",
          "type": "address"
        },
        {
          "indexed": true,
          "internalType": "address",
          "name": "sender",
          "type": "address"
        }
      ],
      "name": "RoleRevoked",
      "type": "event"
    },
    {
      "anonymous": false,
      "inputs": [
        {
          "indexed": false,
          "internalType": "uint256",
          "name": "tokenId",
          "type": "uint256"
        },
        {
          "indexed": false,
          "internalType": "address[]",
          "name": "recipients",
          "type": "address[]"
        },
        {
          "indexed": false,
          "internalType": "uint256[]",
          "name": "bps",
          "type": "uint256[]"
        }
      ],
      "name": "SecondarySaleFees",
      "type": "event"
    },
    {
      "anonymous": false,
      "inputs": [
        {
          "indexed": true,
          "internalType": "address",
          "name": "operator",
          "type": "address"
        },
        {
          "indexed": true,
          "internalType": "address",
          "name": "from",
          "type": "address"
        },
        {
          "indexed": true,
          "internalType": "address",
          "name": "to",
          "type": "address"
        },
        {
          "indexed": false,
          "internalType": "uint256[]",
          "name": "ids",
          "type": "uint256[]"
        },
        {
          "indexed": false,
          "internalType": "uint256[]",
          "name": "values",
          "type": "uint256[]"
        }
      ],
      "name": "TransferBatch",
      "type": "event"
    },
    {
      "anonymous": false,
      "inputs": [
        {
          "indexed": true,
          "internalType": "address",
          "name": "operator",
          "type": "address"
        },
        {
          "indexed": true,
          "internalType": "address",
          "name": "from",
          "type": "address"
        },
        {
          "indexed": true,
          "internalType": "address",
          "name": "to",
          "type": "address"
        },
        {
          "indexed": false,
          "internalType": "uint256",
          "name": "id",
          "type": "uint256"
        },
        {
          "indexed": false,
          "internalType": "uint256",
          "name": "value",
          "type": "uint256"
        }
      ],
      "name": "TransferSingle",
      "type": "event"
    },
    {
      "anonymous": false,
      "inputs": [
        {
          "indexed": false,
          "internalType": "string",
          "name": "value",
          "type": "string"
        },
        {
          "indexed": true,
          "internalType": "uint256",
          "name": "id",
          "type": "uint256"
        }
      ],
      "name": "URI",
      "type": "event"
    },
    {
      "inputs": [],
      "name": "ADMIN_ROLE",
      "outputs": [
        {
          "internalType": "bytes32",
          "name": "",
          "type": "bytes32"
        }
      ],
      "stateMutability": "view",
      "type": "function",
      "constant": true
    },
    {
      "inputs": [],
      "name": "DEFAULT_ADMIN_ROLE",
      "outputs": [
        {
          "internalType": "bytes32",
          "name": "",
          "type": "bytes32"
        }
      ],
      "stateMutability": "view",
      "type": "function",
      "constant": true
    },
    {
      "inputs": [],
      "name": "MINTER_ROLE",
      "outputs": [
        {
          "internalType": "bytes32",
          "name": "",
          "type": "bytes32"
        }
      ],
      "stateMutability": "view",
      "type": "function",
      "constant": true
    },
    {
      "inputs": [
        {
          "internalType": "address",
          "name": "account",
          "type": "address"
        },
        {
          "internalType": "uint256",
          "name": "id",
          "type": "uint256"
        }
      ],
      "name": "balanceOf",
      "outputs": [
        {
          "internalType": "uint256",
          "name": "",
          "type": "uint256"
        }
      ],
      "stateMutability": "view",
      "type": "function",
      "constant": true
    },
    {
      "inputs": [
        {
          "internalType": "address[]",
          "name": "accounts",
          "type": "address[]"
        },
        {
          "internalType": "uint256[]",
          "name": "ids",
          "type": "uint256[]"
        }
      ],
      "name": "balanceOfBatch",
      "outputs": [
        {
          "internalType": "uint256[]",
          "name": "",
          "type": "uint256[]"
        }
      ],
      "stateMutability": "view",
      "type": "function",
      "constant": true
    },
    {
      "inputs": [
        {
          "internalType": "bytes32",
          "name": "role",
          "type": "bytes32"
        }
      ],
      "name": "getRoleAdmin",
      "outputs": [
        {
          "internalType": "bytes32",
          "name": "",
          "type": "bytes32"
        }
      ],
      "stateMutability": "view",
      "type": "function",
      "constant": true
    },
    {
      "inputs": [
        {
          "internalType": "bytes32",
          "name": "role",
          "type": "bytes32"
        },
        {
          "internalType": "address",
          "name": "account",
          "type": "address"
        }
      ],
      "name": "grantRole",
      "outputs": [],
      "stateMutability": "nonpayable",
      "type": "function"
    },
    {
      "inputs": [
        {
          "internalType": "bytes32",
          "name": "role",
          "type": "bytes32"
        },
        {
          "internalType": "address",
          "name": "account",
          "type": "address"
        }
      ],
      "name": "hasRole",
      "outputs": [
        {
          "internalType": "bool",
          "name": "",
          "type": "bool"
        }
      ],
      "stateMutability": "view",
      "type": "function",
      "constant": true
    },
    {
      "inputs": [
        {
          "internalType": "address",
          "name": "account",
          "type": "address"
        },
        {
          "internalType": "address",
          "name": "operator",
          "type": "address"
        }
      ],
      "name": "isApprovedForAll",
      "outputs": [
        {
          "internalType": "bool",
          "name": "",
          "type": "bool"
        }
      ],
      "stateMutability": "view",
      "type": "function",
      "constant": true
    },
    {
      "inputs": [
        {
          "internalType": "bytes32",
          "name": "role",
          "type": "bytes32"
        },
        {
          "internalType": "address",
          "name": "account",
          "type": "address"
        }
      ],
      "name": "renounceRole",
      "outputs": [],
      "stateMutability": "nonpayable",
      "type": "function"
    },
    {
      "inputs": [
        {
          "internalType": "bytes32",
          "name": "role",
          "type": "bytes32"
        },
        {
          "internalType": "address",
          "name": "account",
          "type": "address"
        }
      ],
      "name": "revokeRole",
      "outputs": [],
      "stateMutability": "nonpayable",
      "type": "function"
    },
    {
      "inputs": [
        {
          "internalType": "address",
          "name": "from",
          "type": "address"
        },
        {
          "internalType": "address",
          "name": "to",
          "type": "address"
        },
        {
          "internalType": "uint256[]",
          "name": "ids",
          "type": "uint256[]"
        },
        {
          "internalType": "uint256[]",
          "name": "amounts",
          "type": "uint256[]"
        },
        {
          "internalType": "bytes",
          "name": "data",
          "type": "bytes"
        }
      ],
      "name": "safeBatchTransferFrom",
      "outputs": [],
      "stateMutability": "nonpayable",
      "type": "function"
    },
    {
      "inputs": [
        {
          "internalType": "address",
          "name": "from",
          "type": "address"
        },
        {
          "internalType": "address",
          "name": "to",
          "type": "address"
        },
        {
          "internalType": "uint256",
          "name": "id",
          "type": "uint256"
        },
        {
          "internalType": "uint256",
          "name": "amount",
          "type": "uint256"
        },
        {
          "internalType": "bytes",
          "name": "data",
          "type": "bytes"
        }
      ],
      "name": "safeTransferFrom",
      "outputs": [],
      "stateMutability": "nonpayable",
      "type": "function"
    },
    {
      "inputs": [
        {
          "internalType": "address",
          "name": "operator",
          "type": "address"
        },
        {
          "internalType": "bool",
          "name": "approved",
          "type": "bool"
        }
      ],
      "name": "setApprovalForAll",
      "outputs": [],
      "stateMutability": "nonpayable",
      "type": "function"
    },
    {
      "inputs": [
        {
          "internalType": "bytes4",
          "name": "interfaceId",
          "type": "bytes4"
        }
      ],
      "name": "supportsInterface",
      "outputs": [
        {
          "internalType": "bool",
          "name": "",
          "type": "bool"
        }
      ],
      "stateMutability": "view",
      "type": "function",
      "constant": true
    },
    {
      "inputs": [
        {
          "internalType": "string",
          "name": "uri_",
          "type": "string"
        }
      ],
      "name": "setBaseURI",
      "outputs": [],
      "stateMutability": "nonpayable",
      "type": "function"
    },
    {
      "inputs": [
        {
          "internalType": "uint256",
          "name": "id",
          "type": "uint256"
        }
      ],
      "name": "uri",
      "outputs": [
        {
          "internalType": "string",
          "name": "",
          "type": "string"
        }
      ],
      "stateMutability": "view",
      "type": "function",
      "constant": true
    },
    {
      "inputs": [
        {
          "internalType": "address",
          "name": "creator",
          "type": "address"
        },
        {
          "internalType": "uint256",
          "name": "supply",
          "type": "uint256"
        },
        {
          "internalType": "string",
          "name": "uri_",
          "type": "string"
        },
        {
          "internalType": "uint256",
          "name": "expiry",
          "type": "uint256"
        },
        {
          "internalType": "uint256",
          "name": "salt",
          "type": "uint256"
        }
      ],
      "name": "getMintHash",
      "outputs": [
        {
          "internalType": "bytes32",
          "name": "",
          "type": "bytes32"
        }
      ],
      "stateMutability": "view",
      "type": "function",
      "constant": true
    },
    {
      "inputs": [
        {
          "internalType": "uint256",
          "name": "id",
          "type": "uint256"
        }
      ],
      "name": "get",
      "outputs": [
        {
          "components": [
            {
              "internalType": "uint256",
              "name": "dateCreated",
              "type": "uint256"
            },
            {
              "internalType": "address",
              "name": "creator",
              "type": "address"
            },
            {
              "internalType": "uint256",
              "name": "supply",
              "type": "uint256"
            },
            {
              "internalType": "string",
              "name": "uri",
              "type": "string"
            }
          ],
          "internalType": "struct Token",
          "name": "",
          "type": "tuple"
        }
      ],
      "stateMutability": "view",
      "type": "function",
      "constant": true
    },
    {
      "inputs": [
        {
          "internalType": "address",
          "name": "creator",
          "type": "address"
        },
        {
          "internalType": "uint256",
          "name": "supply",
          "type": "uint256"
        },
        {
          "internalType": "string",
          "name": "uri_",
          "type": "string"
        },
        {
          "components": [
            {
              "internalType": "address payable",
              "name": "recipient",
              "type": "address"
            },
            {
              "internalType": "uint256",
              "name": "pct",
              "type": "uint256"
            }
          ],
          "internalType": "struct Fee[]",
          "name": "fees",
          "type": "tuple[]"
        },
        {
          "internalType": "string",
          "name": "data",
          "type": "string"
        },
        {
          "internalType": "uint256",
          "name": "expiry",
          "type": "uint256"
        },
        {
          "internalType": "uint256",
          "name": "salt",
          "type": "uint256"
        },
        {
          "internalType": "bytes",
          "name": "signature",
          "type": "bytes"
        }
      ],
      "name": "mint",
      "outputs": [],
      "stateMutability": "nonpayable",
      "type": "function"
    },
    {
      "inputs": [
        {
          "internalType": "address",
          "name": "creator",
          "type": "address"
        },
        {
          "internalType": "uint256",
          "name": "supply",
          "type": "uint256"
        },
        {
          "internalType": "string",
          "name": "uri_",
          "type": "string"
        },
        {
          "internalType": "uint256",
          "name": "expiry",
          "type": "uint256"
        },
        {
          "internalType": "uint256",
          "name": "salt",
          "type": "uint256"
        }
      ],
      "name": "revokeMintApproval",
      "outputs": [],
      "stateMutability": "nonpayable",
      "type": "function"
    },
    {
      "inputs": [
        {
          "internalType": "uint256",
          "name": "id",
          "type": "uint256"
        }
      ],
      "name": "getFeeRecipients",
      "outputs": [
        {
          "internalType": "address payable[]",
          "name": "",
          "type": "address[]"
        }
      ],
      "stateMutability": "view",
      "type": "function",
      "constant": true
    },
    {
      "inputs": [
        {
          "internalType": "uint256",
          "name": "id",
          "type": "uint256"
        }
      ],
      "name": "getFeeBps",
      "outputs": [
        {
          "internalType": "uint256[]",
          "name": "",
          "type": "uint256[]"
        }
      ],
      "stateMutability": "view",
      "type": "function",
      "constant": true
    },
    {
      "inputs": [
        {
          "internalType": "address",
          "name": "account",
          "type": "address"
        },
        {
          "internalType": "uint256",
          "name": "id",
          "type": "uint256"
        },
        {
          "internalType": "uint256",
          "name": "amount",
          "type": "uint256"
        }
      ],
      "name": "burn",
      "outputs": [],
      "stateMutability": "nonpayable",
      "type": "function"
    },
    {
      "inputs": [
        {
          "internalType": "address",
          "name": "account",
          "type": "address"
        },
        {
          "internalType": "uint256[]",
          "name": "ids",
          "type": "uint256[]"
        },
        {
          "internalType": "uint256[]",
          "name": "amounts",
          "type": "uint256[]"
        }
      ],
      "name": "burnBatch",
      "outputs": [],
      "stateMutability": "nonpayable",
      "type": "function"
    }
  ],
  "bytecode": "0x608060405260006005553480156200001657600080fd5b50604051620063ce380380620063ce83398181016040528101906200003c9190620005d3565b806200004e816200016f60201b60201c565b50620000646000801b336200018b60201b60201c565b620000967fa49807205ce4d355092ef5a8a18f56e8913cf4a201fbe287825b095693c21775336200018b60201b60201c565b620000cb7fa49807205ce4d355092ef5a8a18f56e8913cf4a201fbe287825b095693c217756000801b620001a160201b60201c565b620000fd7f9f2df0fed2c77648de5860a4cc508cd0818c85b8b8a1ab4ceeef8d981c8956a6336200018b60201b60201c565b6200014f7f9f2df0fed2c77648de5860a4cc508cd0818c85b8b8a1ab4ceeef8d981c8956a67fa49807205ce4d355092ef5a8a18f56e8913cf4a201fbe287825b095693c21775620001a160201b60201c565b80600490805190602001906200016792919062000386565b505062000689565b80600390805190602001906200018792919062000386565b5050565b6200019d82826200020460201b60201c565b5050565b6000620001b483620002f560201b60201c565b905081600080858152602001908152602001600020600101819055508181847fbd79b86ffe0ab8e8776151514217cd7cacd52c909f66475c3af44e129f0b00ff60405160405180910390a4505050565b6200021682826200031460201b60201c565b620002f157600160008084815260200190815260200160002060000160008373ffffffffffffffffffffffffffffffffffffffff1673ffffffffffffffffffffffffffffffffffffffff16815260200190815260200160002060006101000a81548160ff021916908315150217905550620002966200037e60201b60201c565b73ffffffffffffffffffffffffffffffffffffffff168173ffffffffffffffffffffffffffffffffffffffff16837f2f8788117e7eff1d82e926ec794901d17c78024a50270940304540a733656f0d60405160405180910390a45b5050565b6000806000838152602001908152602001600020600101549050919050565b600080600084815260200190815260200160002060000160008373ffffffffffffffffffffffffffffffffffffffff1673ffffffffffffffffffffffffffffffffffffffff16815260200190815260200160002060009054906101000a900460ff16905092915050565b600033905090565b828054620003949062000653565b90600052602060002090601f016020900481019282620003b8576000855562000404565b82601f10620003d357805160ff191683800117855562000404565b8280016001018555821562000404579182015b8281111562000403578251825591602001919060010190620003e6565b5b50905062000413919062000417565b5090565b5b808211156200043257600081600090555060010162000418565b5090565b6000604051905090565b600080fd5b600080fd5b600080fd5b600080fd5b6000601f19601f8301169050919050565b7f4e487b7100000000000000000000000000000000000000000000000000000000600052604160045260246000fd5b6200049f8262000454565b810181811067ffffffffffffffff82111715620004c157620004c062000465565b5b80604052505050565b6000620004d662000436565b9050620004e4828262000494565b919050565b600067ffffffffffffffff82111562000507576200050662000465565b5b620005128262000454565b9050602081019050919050565b60005b838110156200053f57808201518184015260208101905062000522565b838111156200054f576000848401525b50505050565b60006200056c6200056684620004e9565b620004ca565b9050828152602081018484840111156200058b576200058a6200044f565b5b620005988482856200051f565b509392505050565b600082601f830112620005b857620005b76200044a565b5b8151620005ca84826020860162000555565b91505092915050565b600060208284031215620005ec57620005eb62000440565b5b600082015167ffffffffffffffff8111156200060d576200060c62000445565b5b6200061b84828501620005a0565b91505092915050565b7f4e487b7100000000000000000000000000000000000000000000000000000000600052602260045260246000fd5b600060028204905060018216806200066c57607f821691505b6020821081141562000683576200068262000624565b5b50919050565b615d3580620006996000396000f3fe608060405234801561001057600080fd5b50600436106101725760003560e01c80636b20c454116100de578063b9c4d9fb11610097578063dd9583a911610071578063dd9583a91461047d578063e985e9c5146104ad578063f242432a146104dd578063f5298aca146104f957610172565b8063b9c4d9fb14610413578063d539139314610443578063d547741f1461046157610172565b80636b20c4541461033f57806375b238fc1461035b57806391d14854146103795780639507d39a146103a9578063a217fddf146103d9578063a22cb465146103f757610172565b80632f2ff15d116101305780632f2ff15d1461028357806336568abe1461029f5780633a076de0146102bb5780634e1273f4146102d757806355f804b314610307578063633e3b7d1461032357610172565b8062fdd58e1461017757806301ffc9a7146101a75780630e89341c146101d75780630ebd4c7f14610207578063248a9ca3146102375780632eb2c2d614610267575b600080fd5b610191600480360381019061018c91906135ac565b610515565b60405161019e91906135fb565b60405180910390f35b6101c160048036038101906101bc919061366e565b6105df565b6040516101ce91906136b6565b60405180910390f35b6101f160048036038101906101ec91906136d1565b6105f1565b6040516101fe9190613797565b60405180910390f35b610221600480360381019061021c91906136d1565b610632565b60405161022e9190613877565b60405180910390f35b610251600480360381019061024c91906138cf565b6107b7565b60405161025e919061390b565b60405180910390f35b610281600480360381019061027c9190613b23565b6107d6565b005b61029d60048036038101906102989190613bf2565b610877565b005b6102b960048036038101906102b49190613bf2565b6108a0565b005b6102d560048036038101906102d09190613e39565b610923565b005b6102f160048036038101906102ec9190614030565b610de6565b6040516102fe9190613877565b60405180910390f35b610321600480360381019061031c9190614149565b610eff565b005b61033d60048036038101906103389190614192565b610f55565b005b6103596004803603810190610354919061422c565b6110d5565b005b610363611186565b604051610370919061390b565b60405180910390f35b610393600480360381019061038e9190613bf2565b6111aa565b6040516103a091906136b6565b60405180910390f35b6103c360048036038101906103be91906136d1565b611214565b6040516103d09190614373565b60405180910390f35b6103e161133d565b6040516103ee919061390b565b60405180910390f35b610411600480360381019061040c91906143c1565b611344565b005b61042d600480360381019061042891906136d1565b6114c5565b60405161043a91906144bf565b60405180910390f35b61044b611678565b604051610458919061390b565b60405180910390f35b61047b60048036038101906104769190613bf2565b61169c565b005b61049760048036038101906104929190614192565b6116c5565b6040516104a4919061390b565b60405180910390f35b6104c760048036038101906104c291906144e1565b611706565b6040516104d491906136b6565b60405180910390f35b6104f760048036038101906104f29190614521565b61179a565b005b610513600480360381019061050e91906145b8565b61183b565b005b60008073ffffffffffffffffffffffffffffffffffffffff168373ffffffffffffffffffffffffffffffffffffffff161415610586576040517f08c379a000000000000000000000000000000000000000000000000000000000815260040161057d9061467d565b60405180910390fd5b6001600083815260200190815260200160002060008473ffffffffffffffffffffffffffffffffffffffff1673ffffffffffffffffffffffffffffffffffffffff16815260200190815260200160002054905092915050565b60006105ea826118ec565b9050919050565b606060046006600084815260200190815260200160002060030160405160200161061c92919061479d565b6040516020818303038152906040529050919050565b6060600060076000848152602001908152602001600020805480602002602001604051908101604052809291908181526020016000905b828210156106fb57838290600052602060002090600202016040518060400160405290816000820160009054906101000a900473ffffffffffffffffffffffffffffffffffffffff1673ffffffffffffffffffffffffffffffffffffffff1673ffffffffffffffffffffffffffffffffffffffff16815260200160018201548152505081526020019060010190610669565b5050505090506000815167ffffffffffffffff81111561071e5761071d61392b565b5b60405190808252806020026020018201604052801561074c5781602001602082028036833780820191505090505b50905060005b82518110156107ac5782818151811061076e5761076d6147c1565b5b60200260200101516020015182828151811061078d5761078c6147c1565b5b60200260200101818152505080806107a49061481f565b915050610752565b508092505050919050565b6000806000838152602001908152602001600020600101549050919050565b6107de61194d565b73ffffffffffffffffffffffffffffffffffffffff168573ffffffffffffffffffffffffffffffffffffffff16148061082457506108238561081e61194d565b611706565b5b610863576040517f08c379a000000000000000000000000000000000000000000000000000000000815260040161085a906148da565b60405180910390fd5b6108708585858585611955565b5050505050565b610880826107b7565b6108918161088c61194d565b611c6c565b61089b8383611d09565b505050565b6108a861194d565b73ffffffffffffffffffffffffffffffffffffffff168173ffffffffffffffffffffffffffffffffffffffff1614610915576040517f08c379a000000000000000000000000000000000000000000000000000000000815260040161090c9061496c565b60405180910390fd5b61091f8282611de9565b5050565b61094d7f9f2df0fed2c77648de5860a4cc508cd0818c85b8b8a1ab4ceeef8d981c8956a6336111aa565b610b3a57428411610993576040517f08c379a000000000000000000000000000000000000000000000000000000000815260040161098a906149d8565b60405180910390fd5b60006109a38c8c8c8c89896116c5565b90506008600082815260200190815260200160002060009054906101000a900460ff1615610a06576040517f08c379a00000000000000000000000000000000000000000000000000000000081526004016109fd90614a44565b60405180910390fd5b6000610a6784848080601f016020809104026020016040519081016040528093929190818152602001838380828437600081840152601f19601f82011690508083019250505050505050610a5984611eca565b611efa90919063ffffffff16565b9050600073ffffffffffffffffffffffffffffffffffffffff168173ffffffffffffffffffffffffffffffffffffffff1614158015610acc5750610acb7f9f2df0fed2c77648de5860a4cc508cd0818c85b8b8a1ab4ceeef8d981c8956a6826111aa565b5b610b0b576040517f08c379a0000000000000000000000000000000000000000000000000000000008152600401610b0290614ab0565b60405180910390fd5b60016008600084815260200190815260200160002060006101000a81548160ff02191690831515021790555050505b60056000815480929190610b4d9061481f565b9190505550610b6f8b6005548c60405180602001604052806000815250611f21565b600060405180608001604052804281526020018d73ffffffffffffffffffffffffffffffffffffffff1681526020018c81526020018b8b8080601f016020809104026020016040519081016040528093929190818152602001838380828437600081840152601f19601f820116905080830192505050505050508152509050806006600060055481526020019081526020016000206000820151816000015560208201518160010160006101000a81548173ffffffffffffffffffffffffffffffffffffffff021916908373ffffffffffffffffffffffffffffffffffffffff160217905550604082015181600201556060820151816003019080519060200190610c7b929190613423565b509050506000805b8951811015610d8257898181518110610c9f57610c9e6147c1565b5b60200260200101516020015182610cb69190614ad0565b9150620186a08211610d6f576007600060055481526020019081526020016000208a8281518110610cea57610ce96147c1565b5b6020026020010151908060018154018082558091505060019003906000526020600020906002020160009091909190915060008201518160000160006101000a81548173ffffffffffffffffffffffffffffffffffffffff021916908373ffffffffffffffffffffffffffffffffffffffff1602179055506020820151816001015550505b8080610d7a9061481f565b915050610c83565b506005547f09ca93c84721463e13d9f2aa242300b740b34d5ef95b4373848272389b427ec5836007600060055481526020019081526020016000208b8b604051610dcf9493929190614cb8565b60405180910390a250505050505050505050505050565b60608151835114610e2c576040517f08c379a0000000000000000000000000000000000000000000000000000000008152600401610e2390614d78565b60405180910390fd5b6000835167ffffffffffffffff811115610e4957610e4861392b565b5b604051908082528060200260200182016040528015610e775781602001602082028036833780820191505090505b50905060005b8451811015610ef457610ec4858281518110610e9c57610e9b6147c1565b5b6020026020010151858381518110610eb757610eb66147c1565b5b6020026020010151610515565b828281518110610ed757610ed66147c1565b5b60200260200101818152505080610eed9061481f565b9050610e7d565b508091505092915050565b7fa49807205ce4d355092ef5a8a18f56e8913cf4a201fbe287825b095693c21775610f3181610f2c61194d565b611c6c565b8160049080519060200190610f47929190613423565b50610f51826120b8565b5050565b610f7f7fa49807205ce4d355092ef5a8a18f56e8913cf4a201fbe287825b095693c21775336111aa565b80610fb05750610faf7f9f2df0fed2c77648de5860a4cc508cd0818c85b8b8a1ab4ceeef8d981c8956a6336111aa565b5b610fef576040517f08c379a0000000000000000000000000000000000000000000000000000000008152600401610fe690614de4565b60405180910390fd5b6000610fff8787878787876116c5565b90506008600082815260200190815260200160002060009054906101000a900460ff1615611062576040517f08c379a000000000000000000000000000000000000000000000000000000000815260040161105990614e50565b60405180910390fd5b60016008600083815260200190815260200160002060006101000a81548160ff021916908315150217905550857f4fbc860d2cbc005395b0c8062b69f6f63fa32d000f1f3822605e5bf5d1558654338988886040516110c49493929190614e7f565b60405180910390a250505050505050565b828073ffffffffffffffffffffffffffffffffffffffff163373ffffffffffffffffffffffffffffffffffffffff16148061113657506111357fa49807205ce4d355092ef5a8a18f56e8913cf4a201fbe287825b095693c21775336111aa565b5b611175576040517f08c379a000000000000000000000000000000000000000000000000000000000815260040161116c90614de4565b60405180910390fd5b6111808484846120d2565b50505050565b7fa49807205ce4d355092ef5a8a18f56e8913cf4a201fbe287825b095693c2177581565b600080600084815260200190815260200160002060000160008373ffffffffffffffffffffffffffffffffffffffff1673ffffffffffffffffffffffffffffffffffffffff16815260200190815260200160002060009054906101000a900460ff16905092915050565b61121c6134a9565b60066000838152602001908152602001600020604051806080016040529081600082015481526020016001820160009054906101000a900473ffffffffffffffffffffffffffffffffffffffff1673ffffffffffffffffffffffffffffffffffffffff1673ffffffffffffffffffffffffffffffffffffffff168152602001600282015481526020016003820180546112b4906146cc565b80601f01602080910402602001604051908101604052809291908181526020018280546112e0906146cc565b801561132d5780601f106113025761010080835404028352916020019161132d565b820191906000526020600020905b81548152906001019060200180831161131057829003601f168201915b5050505050815250509050919050565b6000801b81565b8173ffffffffffffffffffffffffffffffffffffffff1661136361194d565b73ffffffffffffffffffffffffffffffffffffffff1614156113ba576040517f08c379a00000000000000000000000000000000000000000000000000000000081526004016113b190614f31565b60405180910390fd5b80600260006113c761194d565b73ffffffffffffffffffffffffffffffffffffffff1673ffffffffffffffffffffffffffffffffffffffff16815260200190815260200160002060008473ffffffffffffffffffffffffffffffffffffffff1673ffffffffffffffffffffffffffffffffffffffff16815260200190815260200160002060006101000a81548160ff0219169083151502179055508173ffffffffffffffffffffffffffffffffffffffff1661147461194d565b73ffffffffffffffffffffffffffffffffffffffff167f17307eab39ab6107e8899845ad3d59bd9653f200f220920489ca2b5937696c31836040516114b991906136b6565b60405180910390a35050565b6060600060076000848152602001908152602001600020805480602002602001604051908101604052809291908181526020016000905b8282101561158e57838290600052602060002090600202016040518060400160405290816000820160009054906101000a900473ffffffffffffffffffffffffffffffffffffffff1673ffffffffffffffffffffffffffffffffffffffff1673ffffffffffffffffffffffffffffffffffffffff168152602001600182015481525050815260200190600101906114fc565b5050505090506000815167ffffffffffffffff8111156115b1576115b061392b565b5b6040519080825280602002602001820160405280156115df5781602001602082028036833780820191505090505b50905060005b825181101561166d57828181518110611601576116006147c1565b5b6020026020010151600001518282815181106116205761161f6147c1565b5b602002602001019073ffffffffffffffffffffffffffffffffffffffff16908173ffffffffffffffffffffffffffffffffffffffff168152505080806116659061481f565b9150506115e5565b508092505050919050565b7f9f2df0fed2c77648de5860a4cc508cd0818c85b8b8a1ab4ceeef8d981c8956a681565b6116a5826107b7565b6116b6816116b161194d565b611c6c565b6116c08383611de9565b505050565b6000308787878787876040516020016116e49796959493929190614fdf565b6040516020818303038152906040528051906020012090509695505050505050565b6000600260008473ffffffffffffffffffffffffffffffffffffffff1673ffffffffffffffffffffffffffffffffffffffff16815260200190815260200160002060008373ffffffffffffffffffffffffffffffffffffffff1673ffffffffffffffffffffffffffffffffffffffff16815260200190815260200160002060009054906101000a900460ff16905092915050565b6117a261194d565b73ffffffffffffffffffffffffffffffffffffffff168573ffffffffffffffffffffffffffffffffffffffff1614806117e857506117e7856117e261194d565b611706565b5b611827576040517f08c379a000000000000000000000000000000000000000000000000000000000815260040161181e906150bf565b60405180910390fd5b6118348585858585612385565b5050505050565b828073ffffffffffffffffffffffffffffffffffffffff163373ffffffffffffffffffffffffffffffffffffffff16148061189c575061189b7fa49807205ce4d355092ef5a8a18f56e8913cf4a201fbe287825b095693c21775336111aa565b5b6118db576040517f08c379a00000000000000000000000000000000000000000000000000000000081526004016118d290614de4565b60405180910390fd5b6118e684848461260a565b50505050565b600063b779958460e01b7bffffffffffffffffffffffffffffffffffffffffffffffffffffffff1916827bffffffffffffffffffffffffffffffffffffffffffffffffffffffff19161480611946575061194582612829565b5b9050919050565b600033905090565b8151835114611999576040517f08c379a000000000000000000000000000000000000000000000000000000000815260040161199090615151565b60405180910390fd5b600073ffffffffffffffffffffffffffffffffffffffff168473ffffffffffffffffffffffffffffffffffffffff161415611a09576040517f08c379a0000000000000000000000000000000000000000000000000000000008152600401611a00906151e3565b60405180910390fd5b6000611a1361194d565b9050611a2381878787878761290b565b60005b8451811015611bd7576000858281518110611a4457611a436147c1565b5b602002602001015190506000858381518110611a6357611a626147c1565b5b6020026020010151905060006001600084815260200190815260200160002060008b73ffffffffffffffffffffffffffffffffffffffff1673ffffffffffffffffffffffffffffffffffffffff16815260200190815260200160002054905081811015611b05576040517f08c379a0000000000000000000000000000000000000000000000000000000008152600401611afc90615275565b60405180910390fd5b8181036001600085815260200190815260200160002060008c73ffffffffffffffffffffffffffffffffffffffff1673ffffffffffffffffffffffffffffffffffffffff16815260200190815260200160002081905550816001600085815260200190815260200160002060008b73ffffffffffffffffffffffffffffffffffffffff1673ffffffffffffffffffffffffffffffffffffffff1681526020019081526020016000206000828254611bbc9190614ad0565b9250508190555050505080611bd09061481f565b9050611a26565b508473ffffffffffffffffffffffffffffffffffffffff168673ffffffffffffffffffffffffffffffffffffffff168273ffffffffffffffffffffffffffffffffffffffff167f4a39dc06d4c0dbc64b70af90fd698a233a518aa5d07e595d983b8c0526c8f7fb8787604051611c4e929190615295565b60405180910390a4611c64818787878787612913565b505050505050565b611c7682826111aa565b611d0557611c9b8173ffffffffffffffffffffffffffffffffffffffff166014612aeb565b611ca98360001c6020612aeb565b604051602001611cba929190615395565b6040516020818303038152906040526040517f08c379a0000000000000000000000000000000000000000000000000000000008152600401611cfc9190613797565b60405180910390fd5b5050565b611d1382826111aa565b611de557600160008084815260200190815260200160002060000160008373ffffffffffffffffffffffffffffffffffffffff1673ffffffffffffffffffffffffffffffffffffffff16815260200190815260200160002060006101000a81548160ff021916908315150217905550611d8a61194d565b73ffffffffffffffffffffffffffffffffffffffff168173ffffffffffffffffffffffffffffffffffffffff16837f2f8788117e7eff1d82e926ec794901d17c78024a50270940304540a733656f0d60405160405180910390a45b5050565b611df382826111aa565b15611ec657600080600084815260200190815260200160002060000160008373ffffffffffffffffffffffffffffffffffffffff1673ffffffffffffffffffffffffffffffffffffffff16815260200190815260200160002060006101000a81548160ff021916908315150217905550611e6b61194d565b73ffffffffffffffffffffffffffffffffffffffff168173ffffffffffffffffffffffffffffffffffffffff16837ff6391f5c32d9c69d2a47ea670b442974b53935d1edc7fd64eb21e047a839171b60405160405180910390a45b5050565b600081604051602001611edd919061543c565b604051602081830303815290604052805190602001209050919050565b6000806000611f098585612d27565b91509150611f1681612daa565b819250505092915050565b600073ffffffffffffffffffffffffffffffffffffffff168473ffffffffffffffffffffffffffffffffffffffff161415611f91576040517f08c379a0000000000000000000000000000000000000000000000000000000008152600401611f88906154d4565b60405180910390fd5b6000611f9b61194d565b9050611fbc81600087611fad88612f7f565b611fb688612f7f565b8761290b565b826001600086815260200190815260200160002060008773ffffffffffffffffffffffffffffffffffffffff1673ffffffffffffffffffffffffffffffffffffffff168152602001908152602001600020600082825461201c9190614ad0565b925050819055508473ffffffffffffffffffffffffffffffffffffffff16600073ffffffffffffffffffffffffffffffffffffffff168273ffffffffffffffffffffffffffffffffffffffff167fc3d58168c5ae7397731d063d5bbf3d657854427343f4c083240f7aacaa2d0f62878760405161209a9291906154f4565b60405180910390a46120b181600087878787612ff9565b5050505050565b80600390805190602001906120ce929190613423565b5050565b600073ffffffffffffffffffffffffffffffffffffffff168373ffffffffffffffffffffffffffffffffffffffff161415612142576040517f08c379a00000000000000000000000000000000000000000000000000000000081526004016121399061558f565b60405180910390fd5b8051825114612186576040517f08c379a000000000000000000000000000000000000000000000000000000000815260040161217d90615151565b60405180910390fd5b600061219061194d565b90506121b08185600086866040518060200160405280600081525061290b565b60005b83518110156122ff5760008482815181106121d1576121d06147c1565b5b6020026020010151905060008483815181106121f0576121ef6147c1565b5b6020026020010151905060006001600084815260200190815260200160002060008973ffffffffffffffffffffffffffffffffffffffff1673ffffffffffffffffffffffffffffffffffffffff16815260200190815260200160002054905081811015612292576040517f08c379a000000000000000000000000000000000000000000000000000000000815260040161228990615621565b60405180910390fd5b8181036001600085815260200190815260200160002060008a73ffffffffffffffffffffffffffffffffffffffff1673ffffffffffffffffffffffffffffffffffffffff1681526020019081526020016000208190555050505080806122f79061481f565b9150506121b3565b50600073ffffffffffffffffffffffffffffffffffffffff168473ffffffffffffffffffffffffffffffffffffffff168273ffffffffffffffffffffffffffffffffffffffff167f4a39dc06d4c0dbc64b70af90fd698a233a518aa5d07e595d983b8c0526c8f7fb8686604051612377929190615295565b60405180910390a450505050565b600073ffffffffffffffffffffffffffffffffffffffff168473ffffffffffffffffffffffffffffffffffffffff1614156123f5576040517f08c379a00000000000000000000000000000000000000000000000000000000081526004016123ec906151e3565b60405180910390fd5b60006123ff61194d565b905061241f81878761241088612f7f565b61241988612f7f565b8761290b565b60006001600086815260200190815260200160002060008873ffffffffffffffffffffffffffffffffffffffff1673ffffffffffffffffffffffffffffffffffffffff168152602001908152602001600020549050838110156124b7576040517f08c379a00000000000000000000000000000000000000000000000000000000081526004016124ae90615275565b60405180910390fd5b8381036001600087815260200190815260200160002060008973ffffffffffffffffffffffffffffffffffffffff1673ffffffffffffffffffffffffffffffffffffffff16815260200190815260200160002081905550836001600087815260200190815260200160002060008873ffffffffffffffffffffffffffffffffffffffff1673ffffffffffffffffffffffffffffffffffffffff168152602001908152602001600020600082825461256e9190614ad0565b925050819055508573ffffffffffffffffffffffffffffffffffffffff168773ffffffffffffffffffffffffffffffffffffffff168373ffffffffffffffffffffffffffffffffffffffff167fc3d58168c5ae7397731d063d5bbf3d657854427343f4c083240f7aacaa2d0f6288886040516125eb9291906154f4565b60405180910390a4612601828888888888612ff9565b50505050505050565b600073ffffffffffffffffffffffffffffffffffffffff168373ffffffffffffffffffffffffffffffffffffffff16141561267a576040517f08c379a00000000000000000000000000000000000000000000000000000000081526004016126719061558f565b60405180910390fd5b600061268461194d565b90506126b48185600061269687612f7f565b61269f87612f7f565b6040518060200160405280600081525061290b565b60006001600085815260200190815260200160002060008673ffffffffffffffffffffffffffffffffffffffff1673ffffffffffffffffffffffffffffffffffffffff1681526020019081526020016000205490508281101561274c576040517f08c379a000000000000000000000000000000000000000000000000000000000815260040161274390615621565b60405180910390fd5b8281036001600086815260200190815260200160002060008773ffffffffffffffffffffffffffffffffffffffff1673ffffffffffffffffffffffffffffffffffffffff16815260200190815260200160002081905550600073ffffffffffffffffffffffffffffffffffffffff168573ffffffffffffffffffffffffffffffffffffffff168373ffffffffffffffffffffffffffffffffffffffff167fc3d58168c5ae7397731d063d5bbf3d657854427343f4c083240f7aacaa2d0f62878760405161281a9291906154f4565b60405180910390a45050505050565b60007fd9b67a26000000000000000000000000000000000000000000000000000000007bffffffffffffffffffffffffffffffffffffffffffffffffffffffff1916827bffffffffffffffffffffffffffffffffffffffffffffffffffffffff191614806128f457507f0e89341c000000000000000000000000000000000000000000000000000000007bffffffffffffffffffffffffffffffffffffffffffffffffffffffff1916827bffffffffffffffffffffffffffffffffffffffffffffffffffffffff1916145b806129045750612903826131d1565b5b9050919050565b505050505050565b6129328473ffffffffffffffffffffffffffffffffffffffff1661324b565b15612ae3578373ffffffffffffffffffffffffffffffffffffffff1663bc197c8187878686866040518663ffffffff1660e01b8152600401612978959493929190615696565b6020604051808303816000875af19250505080156129b457506040513d601f19601f820116820180604052508101906129b19190615713565b60015b612a5a576129c061574d565b806308c379a01415612a1d57506129d561576f565b806129e05750612a1f565b806040517f08c379a0000000000000000000000000000000000000000000000000000000008152600401612a149190613797565b60405180910390fd5b505b6040517f08c379a0000000000000000000000000000000000000000000000000000000008152600401612a5190615877565b60405180910390fd5b63bc197c8160e01b7bffffffffffffffffffffffffffffffffffffffffffffffffffffffff1916817bffffffffffffffffffffffffffffffffffffffffffffffffffffffff191614612ae1576040517f08c379a0000000000000000000000000000000000000000000000000000000008152600401612ad890615909565b60405180910390fd5b505b505050505050565b606060006002836002612afe9190615929565b612b089190614ad0565b67ffffffffffffffff811115612b2157612b2061392b565b5b6040519080825280601f01601f191660200182016040528015612b535781602001600182028036833780820191505090505b5090507f300000000000000000000000000000000000000000000000000000000000000081600081518110612b8b57612b8a6147c1565b5b60200101907effffffffffffffffffffffffffffffffffffffffffffffffffffffffffffff1916908160001a9053507f780000000000000000000000000000000000000000000000000000000000000081600181518110612bef57612bee6147c1565b5b60200101907effffffffffffffffffffffffffffffffffffffffffffffffffffffffffffff1916908160001a90535060006001846002612c2f9190615929565b612c399190614ad0565b90505b6001811115612cd9577f3031323334353637383961626364656600000000000000000000000000000000600f861660108110612c7b57612c7a6147c1565b5b1a60f81b828281518110612c9257612c916147c1565b5b60200101907effffffffffffffffffffffffffffffffffffffffffffffffffffffffffffff1916908160001a905350600485901c945080612cd290615983565b9050612c3c565b5060008414612d1d576040517f08c379a0000000000000000000000000000000000000000000000000000000008152600401612d14906159f9565b60405180910390fd5b8091505092915050565b600080604183511415612d695760008060006020860151925060408601519150606086015160001a9050612d5d8782858561325e565b94509450505050612da3565b604083511415612d9a576000806020850151915060408501519050612d8f86838361336b565b935093505050612da3565b60006002915091505b9250929050565b60006004811115612dbe57612dbd615a19565b5b816004811115612dd157612dd0615a19565b5b1415612ddc57612f7c565b60016004811115612df057612def615a19565b5b816004811115612e0357612e02615a19565b5b1415612e44576040517f08c379a0000000000000000000000000000000000000000000000000000000008152600401612e3b90615a94565b60405180910390fd5b60026004811115612e5857612e57615a19565b5b816004811115612e6b57612e6a615a19565b5b1415612eac576040517f08c379a0000000000000000000000000000000000000000000000000000000008152600401612ea390615b00565b60405180910390fd5b60036004811115612ec057612ebf615a19565b5b816004811115612ed357612ed2615a19565b5b1415612f14576040517f08c379a0000000000000000000000000000000000000000000000000000000008152600401612f0b90615b92565b60405180910390fd5b600480811115612f2757612f26615a19565b5b816004811115612f3a57612f39615a19565b5b1415612f7b576040517f08c379a0000000000000000000000000000000000000000000000000000000008152600401612f7290615c24565b60405180910390fd5b5b50565b60606000600167ffffffffffffffff811115612f9e57612f9d61392b565b5b604051908082528060200260200182016040528015612fcc5781602001602082028036833780820191505090505b5090508281600081518110612fe457612fe36147c1565b5b60200260200101818152505080915050919050565b6130188473ffffffffffffffffffffffffffffffffffffffff1661324b565b156131c9578373ffffffffffffffffffffffffffffffffffffffff1663f23a6e6187878686866040518663ffffffff1660e01b815260040161305e959493929190615c44565b6020604051808303816000875af192505050801561309a57506040513d601f19601f820116820180604052508101906130979190615713565b60015b613140576130a661574d565b806308c379a0141561310357506130bb61576f565b806130c65750613105565b806040517f08c379a00000000000000000000000000000000000000000000000000000000081526004016130fa9190613797565b60405180910390fd5b505b6040517f08c379a000000000000000000000000000000000000000000000000000000000815260040161313790615877565b60405180910390fd5b63f23a6e6160e01b7bffffffffffffffffffffffffffffffffffffffffffffffffffffffff1916817bffffffffffffffffffffffffffffffffffffffffffffffffffffffff1916146131c7576040517f08c379a00000000000000000000000000000000000000000000000000000000081526004016131be90615909565b60405180910390fd5b505b505050505050565b60007f7965db0b000000000000000000000000000000000000000000000000000000007bffffffffffffffffffffffffffffffffffffffffffffffffffffffff1916827bffffffffffffffffffffffffffffffffffffffffffffffffffffffff191614806132445750613243826133b9565b5b9050919050565b600080823b905060008111915050919050565b6000807f7fffffffffffffffffffffffffffffff5d576e7357a4501ddfe92f46681b20a08360001c1115613299576000600391509150613362565b601b8560ff16141580156132b15750601c8560ff1614155b156132c3576000600491509150613362565b6000600187878787604051600081526020016040526040516132e89493929190615cba565b6020604051602081039080840390855afa15801561330a573d6000803e3d6000fd5b505050602060405103519050600073ffffffffffffffffffffffffffffffffffffffff168173ffffffffffffffffffffffffffffffffffffffff16141561335957600060019250925050613362565b80600092509250505b94509492505050565b6000806000807f7fffffffffffffffffffffffffffffffffffffffffffffffffffffffffffffff85169150601b8560ff1c0190506133ab8782888561325e565b935093505050935093915050565b60007f01ffc9a7000000000000000000000000000000000000000000000000000000007bffffffffffffffffffffffffffffffffffffffffffffffffffffffff1916827bffffffffffffffffffffffffffffffffffffffffffffffffffffffff1916149050919050565b82805461342f906146cc565b90600052602060002090601f0160209004810192826134515760008555613498565b82601f1061346a57805160ff1916838001178555613498565b82800160010185558215613498579182015b8281111561349757825182559160200191906001019061347c565b5b5090506134a591906134e7565b5090565b604051806080016040528060008152602001600073ffffffffffffffffffffffffffffffffffffffff16815260200160008152602001606081525090565b5b808211156135005760008160009055506001016134e8565b5090565b6000604051905090565b600080fd5b600080fd5b600073ffffffffffffffffffffffffffffffffffffffff82169050919050565b600061354382613518565b9050919050565b61355381613538565b811461355e57600080fd5b50565b6000813590506135708161354a565b92915050565b6000819050919050565b61358981613576565b811461359457600080fd5b50565b6000813590506135a681613580565b92915050565b600080604083850312156135c3576135c261350e565b5b60006135d185828601613561565b92505060206135e285828601613597565b9150509250929050565b6135f581613576565b82525050565b600060208201905061361060008301846135ec565b92915050565b60007fffffffff0000000000000000000000000000000000000000000000000000000082169050919050565b61364b81613616565b811461365657600080fd5b50565b60008135905061366881613642565b92915050565b6000602082840312156136845761368361350e565b5b600061369284828501613659565b91505092915050565b60008115159050919050565b6136b08161369b565b82525050565b60006020820190506136cb60008301846136a7565b92915050565b6000602082840312156136e7576136e661350e565b5b60006136f584828501613597565b91505092915050565b600081519050919050565b600082825260208201905092915050565b60005b8381101561373857808201518184015260208101905061371d565b83811115613747576000848401525b50505050565b6000601f19601f8301169050919050565b6000613769826136fe565b6137738185613709565b935061378381856020860161371a565b61378c8161374d565b840191505092915050565b600060208201905081810360008301526137b1818461375e565b905092915050565b600081519050919050565b600082825260208201905092915050565b6000819050602082019050919050565b6137ee81613576565b82525050565b600061380083836137e5565b60208301905092915050565b6000602082019050919050565b6000613824826137b9565b61382e81856137c4565b9350613839836137d5565b8060005b8381101561386a57815161385188826137f4565b975061385c8361380c565b92505060018101905061383d565b5085935050505092915050565b600060208201905081810360008301526138918184613819565b905092915050565b6000819050919050565b6138ac81613899565b81146138b757600080fd5b50565b6000813590506138c9816138a3565b92915050565b6000602082840312156138e5576138e461350e565b5b60006138f3848285016138ba565b91505092915050565b61390581613899565b82525050565b600060208201905061392060008301846138fc565b92915050565b600080fd5b7f4e487b7100000000000000000000000000000000000000000000000000000000600052604160045260246000fd5b6139638261374d565b810181811067ffffffffffffffff821117156139825761398161392b565b5b80604052505050565b6000613995613504565b90506139a1828261395a565b919050565b600067ffffffffffffffff8211156139c1576139c061392b565b5b602082029050602081019050919050565b600080fd5b60006139ea6139e5846139a6565b61398b565b90508083825260208201905060208402830185811115613a0d57613a0c6139d2565b5b835b81811015613a365780613a228882613597565b845260208401935050602081019050613a0f565b5050509392505050565b600082601f830112613a5557613a54613926565b5b8135613a658482602086016139d7565b91505092915050565b600080fd5b600067ffffffffffffffff821115613a8e57613a8d61392b565b5b613a978261374d565b9050602081019050919050565b82818337600083830152505050565b6000613ac6613ac184613a73565b61398b565b905082815260208101848484011115613ae257613ae1613a6e565b5b613aed848285613aa4565b509392505050565b600082601f830112613b0a57613b09613926565b5b8135613b1a848260208601613ab3565b91505092915050565b600080600080600060a08688031215613b3f57613b3e61350e565b5b6000613b4d88828901613561565b9550506020613b5e88828901613561565b945050604086013567ffffffffffffffff811115613b7f57613b7e613513565b5b613b8b88828901613a40565b935050606086013567ffffffffffffffff811115613bac57613bab613513565b5b613bb888828901613a40565b925050608086013567ffffffffffffffff811115613bd957613bd8613513565b5b613be588828901613af5565b9150509295509295909350565b60008060408385031215613c0957613c0861350e565b5b6000613c17858286016138ba565b9250506020613c2885828601613561565b9150509250929050565b600080fd5b60008083601f840112613c4d57613c4c613926565b5b8235905067ffffffffffffffff811115613c6a57613c69613c32565b5b602083019150836001820283011115613c8657613c856139d2565b5b9250929050565b600067ffffffffffffffff821115613ca857613ca761392b565b5b602082029050602081019050919050565b600080fd5b6000613cc982613518565b9050919050565b613cd981613cbe565b8114613ce457600080fd5b50565b600081359050613cf681613cd0565b92915050565b600060408284031215613d1257613d11613cb9565b5b613d1c604061398b565b90506000613d2c84828501613ce7565b6000830152506020613d4084828501613597565b60208301525092915050565b6000613d5f613d5a84613c8d565b61398b565b90508083825260208201905060408402830185811115613d8257613d816139d2565b5b835b81811015613dab5780613d978882613cfc565b845260208401935050604081019050613d84565b5050509392505050565b600082601f830112613dca57613dc9613926565b5b8135613dda848260208601613d4c565b91505092915050565b60008083601f840112613df957613df8613926565b5b8235905067ffffffffffffffff811115613e1657613e15613c32565b5b602083019150836001820283011115613e3257613e316139d2565b5b9250929050565b60008060008060008060008060008060006101008c8e031215613e5f57613e5e61350e565b5b6000613e6d8e828f01613561565b9b50506020613e7e8e828f01613597565b9a505060408c013567ffffffffffffffff811115613e9f57613e9e613513565b5b613eab8e828f01613c37565b995099505060608c013567ffffffffffffffff811115613ece57613ecd613513565b5b613eda8e828f01613db5565b97505060808c013567ffffffffffffffff811115613efb57613efa613513565b5b613f078e828f01613c37565b965096505060a0613f1a8e828f01613597565b94505060c0613f2b8e828f01613597565b93505060e08c013567ffffffffffffffff811115613f4c57613f4b613513565b5b613f588e828f01613de3565b92509250509295989b509295989b9093969950565b600067ffffffffffffffff821115613f8857613f8761392b565b5b602082029050602081019050919050565b6000613fac613fa784613f6d565b61398b565b90508083825260208201905060208402830185811115613fcf57613fce6139d2565b5b835b81811015613ff85780613fe48882613561565b845260208401935050602081019050613fd1565b5050509392505050565b600082601f83011261401757614016613926565b5b8135614027848260208601613f99565b91505092915050565b600080604083850312156140475761404661350e565b5b600083013567ffffffffffffffff81111561406557614064613513565b5b61407185828601614002565b925050602083013567ffffffffffffffff81111561409257614091613513565b5b61409e85828601613a40565b9150509250929050565b600067ffffffffffffffff8211156140c3576140c261392b565b5b6140cc8261374d565b9050602081019050919050565b60006140ec6140e7846140a8565b61398b565b90508281526020810184848401111561410857614107613a6e565b5b614113848285613aa4565b509392505050565b600082601f8301126141305761412f613926565b5b81356141408482602086016140d9565b91505092915050565b60006020828403121561415f5761415e61350e565b5b600082013567ffffffffffffffff81111561417d5761417c613513565b5b6141898482850161411b565b91505092915050565b60008060008060008060a087890312156141af576141ae61350e565b5b60006141bd89828a01613561565b96505060206141ce89828a01613597565b955050604087013567ffffffffffffffff8111156141ef576141ee613513565b5b6141fb89828a01613c37565b9450945050606061420e89828a01613597565b925050608061421f89828a01613597565b9150509295509295509295565b6000806000606084860312156142455761424461350e565b5b600061425386828701613561565b935050602084013567ffffffffffffffff81111561427457614273613513565b5b61428086828701613a40565b925050604084013567ffffffffffffffff8111156142a1576142a0613513565b5b6142ad86828701613a40565b9150509250925092565b6142c081613538565b82525050565b600082825260208201905092915050565b60006142e2826136fe565b6142ec81856142c6565b93506142fc81856020860161371a565b6143058161374d565b840191505092915050565b600060808301600083015161432860008601826137e5565b50602083015161433b60208601826142b7565b50604083015161434e60408601826137e5565b506060830151848203606086015261436682826142d7565b9150508091505092915050565b6000602082019050818103600083015261438d8184614310565b905092915050565b61439e8161369b565b81146143a957600080fd5b50565b6000813590506143bb81614395565b92915050565b600080604083850312156143d8576143d761350e565b5b60006143e685828601613561565b92505060206143f7858286016143ac565b9150509250929050565b600081519050919050565b600082825260208201905092915050565b6000819050602082019050919050565b61443681613cbe565b82525050565b6000614448838361442d565b60208301905092915050565b6000602082019050919050565b600061446c82614401565b614476818561440c565b93506144818361441d565b8060005b838110156144b2578151614499888261443c565b97506144a483614454565b925050600181019050614485565b5085935050505092915050565b600060208201905081810360008301526144d98184614461565b905092915050565b600080604083850312156144f8576144f761350e565b5b600061450685828601613561565b925050602061451785828601613561565b9150509250929050565b600080600080600060a0868803121561453d5761453c61350e565b5b600061454b88828901613561565b955050602061455c88828901613561565b945050604061456d88828901613597565b935050606061457e88828901613597565b925050608086013567ffffffffffffffff81111561459f5761459e613513565b5b6145ab88828901613af5565b9150509295509295909350565b6000806000606084860312156145d1576145d061350e565b5b60006145df86828701613561565b93505060206145f086828701613597565b925050604061460186828701613597565b9150509250925092565b7f455243313135353a2062616c616e636520717565727920666f7220746865207a60008201527f65726f2061646472657373000000000000000000000000000000000000000000602082015250565b6000614667602b83613709565b91506146728261460b565b604082019050919050565b600060208201905081810360008301526146968161465a565b9050919050565b7f4e487b7100000000000000000000000000000000000000000000000000000000600052602260045260246000fd5b600060028204905060018216806146e457607f821691505b602082108114156146f8576146f761469d565b5b50919050565b600081905092915050565b60008190508160005260206000209050919050565b6000815461472b816146cc565b61473581866146fe565b94506001821660008114614750576001811461476157614794565b60ff19831686528186019350614794565b61476a85614709565b60005b8381101561478c5781548189015260018201915060208101905061476d565b838801955050505b50505092915050565b60006147a9828561471e565b91506147b5828461471e565b91508190509392505050565b7f4e487b7100000000000000000000000000000000000000000000000000000000600052603260045260246000fd5b7f4e487b7100000000000000000000000000000000000000000000000000000000600052601160045260246000fd5b600061482a82613576565b91507fffffffffffffffffffffffffffffffffffffffffffffffffffffffffffffffff82141561485d5761485c6147f0565b5b600182019050919050565b7f455243313135353a207472616e736665722063616c6c6572206973206e6f742060008201527f6f776e6572206e6f7220617070726f7665640000000000000000000000000000602082015250565b60006148c4603283613709565b91506148cf82614868565b604082019050919050565b600060208201905081810360008301526148f3816148b7565b9050919050565b7f416363657373436f6e74726f6c3a2063616e206f6e6c792072656e6f756e636560008201527f20726f6c657320666f722073656c660000000000000000000000000000000000602082015250565b6000614956602f83613709565b9150614961826148fa565b604082019050919050565b6000602082019050818103600083015261498581614949565b9050919050565b7f417070726f76616c20657870697265642e000000000000000000000000000000600082015250565b60006149c2601183613709565b91506149cd8261498c565b602082019050919050565b600060208201905081810360008301526149f1816149b5565b9050919050565b7f417070726f76616c206578686175737465642e00000000000000000000000000600082015250565b6000614a2e601383613709565b9150614a39826149f8565b602082019050919050565b60006020820190508181036000830152614a5d81614a21565b9050919050565b7f496e76616c6964207369676e61747572652e0000000000000000000000000000600082015250565b6000614a9a601283613709565b9150614aa582614a64565b602082019050919050565b60006020820190508181036000830152614ac981614a8d565b9050919050565b6000614adb82613576565b9150614ae683613576565b9250827fffffffffffffffffffffffffffffffffffffffffffffffffffffffffffffffff03821115614b1b57614b1a6147f0565b5b828201905092915050565b600081549050919050565b600082825260208201905092915050565b60008190508160005260206000209050919050565b60008160001c9050919050565b600073ffffffffffffffffffffffffffffffffffffffff82169050919050565b6000614b97614b9283614b57565b614b64565b9050919050565b6000819050919050565b6000614bbb614bb683614b57565b614b9e565b9050919050565b604082016000808301549050614bd781614b84565b614be4600086018261442d565b5060018301549050614bf581614ba8565b614c0260208601826137e5565b5050505050565b6000614c158383614bc2565b60408301905092915050565b6000600282019050919050565b6000614c3982614b26565b614c438185614b31565b9350614c4e83614b42565b8060005b83811015614c7e5781614c658882614c09565b9750614c7083614c21565b925050600181019050614c52565b5085935050505092915050565b6000614c978385613709565b9350614ca4838584613aa4565b614cad8361374d565b840190509392505050565b60006060820190508181036000830152614cd28187614310565b90508181036020830152614ce68186614c2e565b90508181036040830152614cfb818486614c8b565b905095945050505050565b7f455243313135353a206163636f756e747320616e6420696473206c656e67746860008201527f206d69736d617463680000000000000000000000000000000000000000000000602082015250565b6000614d62602983613709565b9150614d6d82614d06565b604082019050919050565b60006020820190508181036000830152614d9181614d55565b9050919050565b7f5065726d697373696f6e2064656e6965642e0000000000000000000000000000600082015250565b6000614dce601283613709565b9150614dd982614d98565b602082019050919050565b60006020820190508181036000830152614dfd81614dc1565b9050919050565b7f417070726f76616c20616c7265616479206578686175737465642e0000000000600082015250565b6000614e3a601b83613709565b9150614e4582614e04565b602082019050919050565b60006020820190508181036000830152614e6981614e2d565b9050919050565b614e7981613538565b82525050565b6000606082019050614e946000830187614e70565b614ea16020830186614e70565b8181036040830152614eb4818486614c8b565b905095945050505050565b7f455243313135353a2073657474696e6720617070726f76616c2073746174757360008201527f20666f722073656c660000000000000000000000000000000000000000000000602082015250565b6000614f1b602983613709565b9150614f2682614ebf565b604082019050919050565b60006020820190508181036000830152614f4a81614f0e565b9050919050565b60008160601b9050919050565b6000614f6982614f51565b9050919050565b6000614f7b82614f5e565b9050919050565b614f93614f8e82613538565b614f70565b82525050565b6000819050919050565b614fb4614faf82613576565b614f99565b82525050565b6000614fc683856146fe565b9350614fd3838584613aa4565b82840190509392505050565b6000614feb828a614f82565b601482019150614ffb8289614f82565b60148201915061500b8288614fa3565b60208201915061501c828688614fba565b91506150288285614fa3565b6020820191506150388284614fa3565b60208201915081905098975050505050505050565b7f455243313135353a2063616c6c6572206973206e6f74206f776e6572206e6f7260008201527f20617070726f7665640000000000000000000000000000000000000000000000602082015250565b60006150a9602983613709565b91506150b48261504d565b604082019050919050565b600060208201905081810360008301526150d88161509c565b9050919050565b7f455243313135353a2069647320616e6420616d6f756e7473206c656e6774682060008201527f6d69736d61746368000000000000000000000000000000000000000000000000602082015250565b600061513b602883613709565b9150615146826150df565b604082019050919050565b6000602082019050818103600083015261516a8161512e565b9050919050565b7f455243313135353a207472616e7366657220746f20746865207a65726f20616460008201527f6472657373000000000000000000000000000000000000000000000000000000602082015250565b60006151cd602583613709565b91506151d882615171565b604082019050919050565b600060208201905081810360008301526151fc816151c0565b9050919050565b7f455243313135353a20696e73756666696369656e742062616c616e636520666f60008201527f72207472616e7366657200000000000000000000000000000000000000000000602082015250565b600061525f602a83613709565b915061526a82615203565b604082019050919050565b6000602082019050818103600083015261528e81615252565b9050919050565b600060408201905081810360008301526152af8185613819565b905081810360208301526152c38184613819565b90509392505050565b7f416363657373436f6e74726f6c3a206163636f756e7420000000000000000000600082015250565b60006153026017836146fe565b915061530d826152cc565b601782019050919050565b6000615323826136fe565b61532d81856146fe565b935061533d81856020860161371a565b80840191505092915050565b7f206973206d697373696e6720726f6c6520000000000000000000000000000000600082015250565b600061537f6011836146fe565b915061538a82615349565b601182019050919050565b60006153a0826152f5565b91506153ac8285615318565b91506153b782615372565b91506153c38284615318565b91508190509392505050565b7f19457468657265756d205369676e6564204d6573736167653a0a333200000000600082015250565b6000615405601c836146fe565b9150615410826153cf565b601c82019050919050565b6000819050919050565b61543661543182613899565b61541b565b82525050565b6000615447826153f8565b91506154538284615425565b60208201915081905092915050565b7f455243313135353a206d696e7420746f20746865207a65726f2061646472657360008201527f7300000000000000000000000000000000000000000000000000000000000000602082015250565b60006154be602183613709565b91506154c982615462565b604082019050919050565b600060208201905081810360008301526154ed816154b1565b9050919050565b600060408201905061550960008301856135ec565b61551660208301846135ec565b9392505050565b7f455243313135353a206275726e2066726f6d20746865207a65726f206164647260008201527f6573730000000000000000000000000000000000000000000000000000000000602082015250565b6000615579602383613709565b91506155848261551d565b604082019050919050565b600060208201905081810360008301526155a88161556c565b9050919050565b7f455243313135353a206275726e20616d6f756e7420657863656564732062616c60008201527f616e636500000000000000000000000000000000000000000000000000000000602082015250565b600061560b602483613709565b9150615616826155af565b604082019050919050565b6000602082019050818103600083015261563a816155fe565b9050919050565b600081519050919050565b600082825260208201905092915050565b600061566882615641565b615672818561564c565b935061568281856020860161371a565b61568b8161374d565b840191505092915050565b600060a0820190506156ab6000830188614e70565b6156b86020830187614e70565b81810360408301526156ca8186613819565b905081810360608301526156de8185613819565b905081810360808301526156f2818461565d565b90509695505050505050565b60008151905061570d81613642565b92915050565b6000602082840312156157295761572861350e565b5b6000615737848285016156fe565b91505092915050565b60008160e01c9050919050565b600060033d111561576c5760046000803e615769600051615740565b90505b90565b600060443d101561577f57615802565b615787613504565b60043d036004823e80513d602482011167ffffffffffffffff821117156157af575050615802565b808201805167ffffffffffffffff8111156157cd5750505050615802565b80602083010160043d0385018111156157ea575050505050615802565b6157f98260200185018661395a565b82955050505050505b90565b7f455243313135353a207472616e7366657220746f206e6f6e204552433131353560008201527f526563656976657220696d706c656d656e746572000000000000000000000000602082015250565b6000615861603483613709565b915061586c82615805565b604082019050919050565b6000602082019050818103600083015261589081615854565b9050919050565b7f455243313135353a204552433131353552656365697665722072656a6563746560008201527f6420746f6b656e73000000000000000000000000000000000000000000000000602082015250565b60006158f3602883613709565b91506158fe82615897565b604082019050919050565b60006020820190508181036000830152615922816158e6565b9050919050565b600061593482613576565b915061593f83613576565b9250817fffffffffffffffffffffffffffffffffffffffffffffffffffffffffffffffff0483118215151615615978576159776147f0565b5b828202905092915050565b600061598e82613576565b915060008214156159a2576159a16147f0565b5b600182039050919050565b7f537472696e67733a20686578206c656e67746820696e73756666696369656e74600082015250565b60006159e3602083613709565b91506159ee826159ad565b602082019050919050565b60006020820190508181036000830152615a12816159d6565b9050919050565b7f4e487b7100000000000000000000000000000000000000000000000000000000600052602160045260246000fd5b7f45434453413a20696e76616c6964207369676e61747572650000000000000000600082015250565b6000615a7e601883613709565b9150615a8982615a48565b602082019050919050565b60006020820190508181036000830152615aad81615a71565b9050919050565b7f45434453413a20696e76616c6964207369676e6174757265206c656e67746800600082015250565b6000615aea601f83613709565b9150615af582615ab4565b602082019050919050565b60006020820190508181036000830152615b1981615add565b9050919050565b7f45434453413a20696e76616c6964207369676e6174757265202773272076616c60008201527f7565000000000000000000000000000000000000000000000000000000000000602082015250565b6000615b7c602283613709565b9150615b8782615b20565b604082019050919050565b60006020820190508181036000830152615bab81615b6f565b9050919050565b7f45434453413a20696e76616c6964207369676e6174757265202776272076616c60008201527f7565000000000000000000000000000000000000000000000000000000000000602082015250565b6000615c0e602283613709565b9150615c1982615bb2565b604082019050919050565b60006020820190508181036000830152615c3d81615c01565b9050919050565b600060a082019050615c596000830188614e70565b615c666020830187614e70565b615c7360408301866135ec565b615c8060608301856135ec565b8181036080830152615c92818461565d565b90509695505050505050565b600060ff82169050919050565b615cb481615c9e565b82525050565b6000608082019050615ccf60008301876138fc565b615cdc6020830186615cab565b615ce960408301856138fc565b615cf660608301846138fc565b9594505050505056fea2646970667358221220de3b8f99c4e8776c7f831cdd413f20048c5d10f61f7bc8e0290cab5aa363746664736f6c634300080b0033",
  "immutableReferences": {},
  "source": "// SPDX-License-Identifier: MIT\npragma solidity ^0.8.0;\n\nimport \"@openzeppelin/contracts/access/AccessControl.sol\";\nimport \"@openzeppelin/contracts/token/ERC1155/ERC1155.sol\";\nimport \"@openzeppelin/contracts/utils/cryptography/ECDSA.sol\";\nimport \"./HasSecondarySaleFees.sol\";\n\nstruct Fee {\n  address payable recipient;\n  uint pct;\n}\n\nstruct Token {\n  uint dateCreated;\n  address creator;\n  uint supply;\n  string uri;\n}\n\ncontract TokenV1 is AccessControl, ERC1155, HasSecondarySaleFees {\n  using ECDSA for bytes32;\n\n  bytes internal constant EMPTY = \"\";\n\n  bytes32 public constant ADMIN_ROLE = keccak256(\"ADMIN_ROLE\");\n  bytes32 public constant MINTER_ROLE = keccak256(\"MINTER_ROLE\");\n\n  string baseURI;\n\n  uint private _tokenId = 0;\n  mapping(uint => Token) _tokens;\n\n  mapping(uint => Fee[]) _fees;\n\n  mapping(bytes32 => bool) _approvalsExhausted;\n\n  constructor(string memory baseUri) ERC1155(baseUri) {\n    _setupRole(DEFAULT_ADMIN_ROLE, msg.sender);\n    \n    _setupRole(ADMIN_ROLE, msg.sender);\n    _setRoleAdmin(ADMIN_ROLE, DEFAULT_ADMIN_ROLE);\n\n    _setupRole(MINTER_ROLE, msg.sender);\n    _setRoleAdmin(MINTER_ROLE, ADMIN_ROLE);\n\n    baseURI = baseUri;\n  }\n\n  modifier onlyAdminOrMinter() {\n    require(\n      hasRole(ADMIN_ROLE, msg.sender) || hasRole(MINTER_ROLE, msg.sender),\n      \"Permission denied.\"\n    );\n    _;\n  }\n  \n  modifier onlyAdminOrTokenOwner(address account) {\n    require(\n      msg.sender == account || hasRole(ADMIN_ROLE, msg.sender),\n      \"Permission denied.\"\n    );\n    _;\n  }\n\n  function supportsInterface(bytes4 interfaceId) public view override(\n    AccessControl,\n    ERC1155,\n    HasSecondarySaleFees\n  ) returns (bool) {\n    return super.supportsInterface(interfaceId);\n  }\n\n  function setBaseURI(string memory uri_)\n    public\n    onlyRole(ADMIN_ROLE)\n  {\n    baseURI = uri_;\n    super._setURI(uri_);\n  }\n\n  function uri(uint256 id) public view override returns (string memory) {\n    return string(abi.encodePacked(baseURI, _tokens[id].uri));\n  }\n\n  function getMintHash(\n    address creator,\n    uint supply,\n    string calldata uri_,\n    uint expiry,\n    uint salt\n  ) public view returns (bytes32) {\n    return keccak256(abi.encodePacked(\n      address(this),\n      creator,\n      supply,\n      uri_,\n      expiry,\n      salt\n    ));\n  }\n  \n  function get(uint id) public view returns (Token memory) {\n    return _tokens[id];\n  }\n\n  event Minted(uint256 indexed id, Token token, Fee[] fees, string data);\n  event RevokeMint(\n    address operator,\n    address creator,\n    uint256 indexed supply,\n    string uri\n  );\n\n  function mint(\n    address creator,\n    uint supply,\n    string calldata uri_,\n    Fee[] memory fees,\n    string calldata data,\n    uint expiry,\n    uint salt,\n    bytes calldata signature\n  ) public {\n    if (!hasRole(MINTER_ROLE, msg.sender)) {\n      require(expiry > block.timestamp, \"Approval expired.\");\n\n      bytes32 mintHash = getMintHash(creator, supply, uri_, expiry, salt);\n      require(!_approvalsExhausted[mintHash], \"Approval exhausted.\");\n      \n      address recoveredAddress =\n        mintHash.toEthSignedMessageHash().recover(signature);\n\n      require(\n        recoveredAddress != address(0)\n          && hasRole(MINTER_ROLE, recoveredAddress),\n        \"Invalid signature.\"\n      );\n\n      _approvalsExhausted[mintHash] = true;\n    }\n\n    _tokenId++;\n\n    super._mint(creator, _tokenId, supply, EMPTY);\n\n    Token memory token = Token(\n      block.timestamp,\n      creator,\n      supply,\n      uri_\n    );\n\n    _tokens[_tokenId] = token;\n\n    uint totalBps = 0;\n\n    for (uint i = 0; i < fees.length; i++) {\n      totalBps += fees[i].pct;\n\n      if (totalBps <= 10**5)\n        _fees[_tokenId].push(fees[i]);\n    }\n\n    emit Minted(_tokenId, token, _fees[_tokenId], data);\n  }\n\n  function revokeMintApproval(\n    address creator,\n    uint supply,\n    string calldata uri_,\n    uint expiry,\n    uint salt\n  ) public onlyAdminOrMinter {    \n    bytes32 mintHash = getMintHash(creator, supply, uri_, expiry, salt);\n    require(!_approvalsExhausted[mintHash], \"Approval already exhausted.\");\n\n    _approvalsExhausted[mintHash] = true;\n\n    emit RevokeMint(msg.sender, creator, supply, uri_);\n  }\n\n  function getFeeRecipients(uint256 id) override public view returns (address payable[] memory) {\n    Fee[] memory fees = _fees[id];\n    address payable[] memory result = new address payable[](fees.length);\n\n    for (uint i = 0; i < fees.length; i++) {\n      result[i] = fees[i].recipient;\n    }\n\n    return result;\n  }\n\n  function getFeeBps(uint256 id) override public view returns (uint[] memory) {\n    Fee[] memory fees = _fees[id];\n    uint[] memory result = new uint[](fees.length);\n\n    for (uint i = 0; i < fees.length; i++) {\n      result[i] = fees[i].pct;\n    }\n\n    return result;\n  }\n\n  function burn(address account, uint256 id, uint256 amount)\n    public\n    onlyAdminOrTokenOwner(account)\n  {\n    super._burn(account, id, amount);\n  }\n\n  function burnBatch(address account, uint256[] memory ids, uint256[] memory amounts)\n    public\n    onlyAdminOrTokenOwner(account)\n  {\n    super._burnBatch(account, ids, amounts);\n  }\n}",
  "sourcePath": "/Users/husnain/Desktop/other/fest/packages/ethereum/contracts/solidity/contracts/TokenV1.sol",
  "compiler": {
    "name": "solc",
    "version": "0.8.11+commit.d7f03943.Emscripten.clang"
  },
  "schemaVersion": "3.4.4",
  "updatedAt": "2022-01-23T22:36:02.946Z",
  "networkType": "ethereum",
  "devdoc": {
    "kind": "dev",
    "methods": {
      "balanceOf(address,uint256)": {
        "details": "See {IERC1155-balanceOf}. Requirements: - `account` cannot be the zero address."
      },
      "balanceOfBatch(address[],uint256[])": {
        "details": "See {IERC1155-balanceOfBatch}. Requirements: - `accounts` and `ids` must have the same length."
      },
      "getRoleAdmin(bytes32)": {
        "details": "Returns the admin role that controls `role`. See {grantRole} and {revokeRole}. To change a role's admin, use {_setRoleAdmin}."
      },
      "grantRole(bytes32,address)": {
        "details": "Grants `role` to `account`. If `account` had not been already granted `role`, emits a {RoleGranted} event. Requirements: - the caller must have ``role``'s admin role."
      },
      "hasRole(bytes32,address)": {
        "details": "Returns `true` if `account` has been granted `role`."
      },
      "isApprovedForAll(address,address)": {
        "details": "See {IERC1155-isApprovedForAll}."
      },
      "renounceRole(bytes32,address)": {
        "details": "Revokes `role` from the calling account. Roles are often managed via {grantRole} and {revokeRole}: this function's purpose is to provide a mechanism for accounts to lose their privileges if they are compromised (such as when a trusted device is misplaced). If the calling account had been granted `role`, emits a {RoleRevoked} event. Requirements: - the caller must be `account`."
      },
      "revokeRole(bytes32,address)": {
        "details": "Revokes `role` from `account`. If `account` had been granted `role`, emits a {RoleRevoked} event. Requirements: - the caller must have ``role``'s admin role."
      },
      "safeBatchTransferFrom(address,address,uint256[],uint256[],bytes)": {
        "details": "See {IERC1155-safeBatchTransferFrom}."
      },
      "safeTransferFrom(address,address,uint256,uint256,bytes)": {
        "details": "See {IERC1155-safeTransferFrom}."
      },
      "setApprovalForAll(address,bool)": {
        "details": "See {IERC1155-setApprovalForAll}."
      }
    },
    "version": 1
  },
  "userdoc": {
    "kind": "user",
    "methods": {},
    "version": 1
  }
}