{
  "contractName": "TokenV1",
  "abi": [
    {
      "inputs": [
        {
          "internalType": "string",
          "name": "baseUri",
          "type": "string"
        }
      ],
      "stateMutability": "nonpayable",
      "type": "constructor"
    },
    {
      "anonymous": false,
      "inputs": [
        {
          "indexed": true,
          "internalType": "address",
          "name": "account",
          "type": "address"
        },
        {
          "indexed": true,
          "internalType": "address",
          "name": "operator",
          "type": "address"
        },
        {
          "indexed": false,
          "internalType": "bool",
          "name": "approved",
          "type": "bool"
        }
      ],
      "name": "ApprovalForAll",
      "type": "event"
    },
    {
      "anonymous": false,
      "inputs": [
        {
          "indexed": true,
          "internalType": "uint256",
          "name": "id",
          "type": "uint256"
        },
        {
          "components": [
            {
              "internalType": "uint256",
              "name": "dateCreated",
              "type": "uint256"
            },
            {
              "internalType": "address",
              "name": "creator",
              "type": "address"
            },
            {
              "internalType": "uint256",
              "name": "supply",
              "type": "uint256"
            },
            {
              "internalType": "string",
              "name": "uri",
              "type": "string"
            }
          ],
          "indexed": false,
          "internalType": "struct Token",
          "name": "token",
          "type": "tuple"
        },
        {
          "components": [
            {
              "internalType": "address payable",
              "name": "recipient",
              "type": "address"
            },
            {
              "internalType": "uint256",
              "name": "pct",
              "type": "uint256"
            }
          ],
          "indexed": false,
          "internalType": "struct Fee[]",
          "name": "fees",
          "type": "tuple[]"
        },
        {
          "indexed": false,
          "internalType": "string",
          "name": "data",
          "type": "string"
        }
      ],
      "name": "Minted",
      "type": "event"
    },
    {
      "anonymous": false,
      "inputs": [
        {
          "indexed": false,
          "internalType": "address",
          "name": "operator",
          "type": "address"
        },
        {
          "indexed": false,
          "internalType": "address",
          "name": "creator",
          "type": "address"
        },
        {
          "indexed": true,
          "internalType": "uint256",
          "name": "supply",
          "type": "uint256"
        },
        {
          "indexed": false,
          "internalType": "string",
          "name": "uri",
          "type": "string"
        }
      ],
      "name": "RevokeMint",
      "type": "event"
    },
    {
      "anonymous": false,
      "inputs": [
        {
          "indexed": true,
          "internalType": "bytes32",
          "name": "role",
          "type": "bytes32"
        },
        {
          "indexed": true,
          "internalType": "bytes32",
          "name": "previousAdminRole",
          "type": "bytes32"
        },
        {
          "indexed": true,
          "internalType": "bytes32",
          "name": "newAdminRole",
          "type": "bytes32"
        }
      ],
      "name": "RoleAdminChanged",
      "type": "event"
    },
    {
      "anonymous": false,
      "inputs": [
        {
          "indexed": true,
          "internalType": "bytes32",
          "name": "role",
          "type": "bytes32"
        },
        {
          "indexed": true,
          "internalType": "address",
          "name": "account",
          "type": "address"
        },
        {
          "indexed": true,
          "internalType": "address",
          "name": "sender",
          "type": "address"
        }
      ],
      "name": "RoleGranted",
      "type": "event"
    },
    {
      "anonymous": false,
      "inputs": [
        {
          "indexed": true,
          "internalType": "bytes32",
          "name": "role",
          "type": "bytes32"
        },
        {
          "indexed": true,
          "internalType": "address",
          "name": "account",
          "type": "address"
        },
        {
          "indexed": true,
          "internalType": "address",
          "name": "sender",
          "type": "address"
        }
      ],
      "name": "RoleRevoked",
      "type": "event"
    },
    {
      "anonymous": false,
      "inputs": [
        {
          "indexed": false,
          "internalType": "uint256",
          "name": "tokenId",
          "type": "uint256"
        },
        {
          "indexed": false,
          "internalType": "address[]",
          "name": "recipients",
          "type": "address[]"
        },
        {
          "indexed": false,
          "internalType": "uint256[]",
          "name": "bps",
          "type": "uint256[]"
        }
      ],
      "name": "SecondarySaleFees",
      "type": "event"
    },
    {
      "anonymous": false,
      "inputs": [
        {
          "indexed": true,
          "internalType": "address",
          "name": "operator",
          "type": "address"
        },
        {
          "indexed": true,
          "internalType": "address",
          "name": "from",
          "type": "address"
        },
        {
          "indexed": true,
          "internalType": "address",
          "name": "to",
          "type": "address"
        },
        {
          "indexed": false,
          "internalType": "uint256[]",
          "name": "ids",
          "type": "uint256[]"
        },
        {
          "indexed": false,
          "internalType": "uint256[]",
          "name": "values",
          "type": "uint256[]"
        }
      ],
      "name": "TransferBatch",
      "type": "event"
    },
    {
      "anonymous": false,
      "inputs": [
        {
          "indexed": true,
          "internalType": "address",
          "name": "operator",
          "type": "address"
        },
        {
          "indexed": true,
          "internalType": "address",
          "name": "from",
          "type": "address"
        },
        {
          "indexed": true,
          "internalType": "address",
          "name": "to",
          "type": "address"
        },
        {
          "indexed": false,
          "internalType": "uint256",
          "name": "id",
          "type": "uint256"
        },
        {
          "indexed": false,
          "internalType": "uint256",
          "name": "value",
          "type": "uint256"
        }
      ],
      "name": "TransferSingle",
      "type": "event"
    },
    {
      "anonymous": false,
      "inputs": [
        {
          "indexed": false,
          "internalType": "string",
          "name": "value",
          "type": "string"
        },
        {
          "indexed": true,
          "internalType": "uint256",
          "name": "id",
          "type": "uint256"
        }
      ],
      "name": "URI",
      "type": "event"
    },
    {
      "inputs": [],
      "name": "ADMIN_ROLE",
      "outputs": [
        {
          "internalType": "bytes32",
          "name": "",
          "type": "bytes32"
        }
      ],
      "stateMutability": "view",
      "type": "function",
      "constant": true
    },
    {
      "inputs": [],
      "name": "DEFAULT_ADMIN_ROLE",
      "outputs": [
        {
          "internalType": "bytes32",
          "name": "",
          "type": "bytes32"
        }
      ],
      "stateMutability": "view",
      "type": "function",
      "constant": true
    },
    {
      "inputs": [],
      "name": "MINTER_ROLE",
      "outputs": [
        {
          "internalType": "bytes32",
          "name": "",
          "type": "bytes32"
        }
      ],
      "stateMutability": "view",
      "type": "function",
      "constant": true
    },
    {
      "inputs": [
        {
          "internalType": "address",
          "name": "account",
          "type": "address"
        },
        {
          "internalType": "uint256",
          "name": "id",
          "type": "uint256"
        }
      ],
      "name": "balanceOf",
      "outputs": [
        {
          "internalType": "uint256",
          "name": "",
          "type": "uint256"
        }
      ],
      "stateMutability": "view",
      "type": "function",
      "constant": true
    },
    {
      "inputs": [
        {
          "internalType": "address[]",
          "name": "accounts",
          "type": "address[]"
        },
        {
          "internalType": "uint256[]",
          "name": "ids",
          "type": "uint256[]"
        }
      ],
      "name": "balanceOfBatch",
      "outputs": [
        {
          "internalType": "uint256[]",
          "name": "",
          "type": "uint256[]"
        }
      ],
      "stateMutability": "view",
      "type": "function",
      "constant": true
    },
    {
      "inputs": [
        {
          "internalType": "bytes32",
          "name": "role",
          "type": "bytes32"
        }
      ],
      "name": "getRoleAdmin",
      "outputs": [
        {
          "internalType": "bytes32",
          "name": "",
          "type": "bytes32"
        }
      ],
      "stateMutability": "view",
      "type": "function",
      "constant": true
    },
    {
      "inputs": [
        {
          "internalType": "bytes32",
          "name": "role",
          "type": "bytes32"
        },
        {
          "internalType": "address",
          "name": "account",
          "type": "address"
        }
      ],
      "name": "grantRole",
      "outputs": [],
      "stateMutability": "nonpayable",
      "type": "function"
    },
    {
      "inputs": [
        {
          "internalType": "bytes32",
          "name": "role",
          "type": "bytes32"
        },
        {
          "internalType": "address",
          "name": "account",
          "type": "address"
        }
      ],
      "name": "hasRole",
      "outputs": [
        {
          "internalType": "bool",
          "name": "",
          "type": "bool"
        }
      ],
      "stateMutability": "view",
      "type": "function",
      "constant": true
    },
    {
      "inputs": [
        {
          "internalType": "address",
          "name": "account",
          "type": "address"
        },
        {
          "internalType": "address",
          "name": "operator",
          "type": "address"
        }
      ],
      "name": "isApprovedForAll",
      "outputs": [
        {
          "internalType": "bool",
          "name": "",
          "type": "bool"
        }
      ],
      "stateMutability": "view",
      "type": "function",
      "constant": true
    },
    {
      "inputs": [
        {
          "internalType": "bytes32",
          "name": "role",
          "type": "bytes32"
        },
        {
          "internalType": "address",
          "name": "account",
          "type": "address"
        }
      ],
      "name": "renounceRole",
      "outputs": [],
      "stateMutability": "nonpayable",
      "type": "function"
    },
    {
      "inputs": [
        {
          "internalType": "bytes32",
          "name": "role",
          "type": "bytes32"
        },
        {
          "internalType": "address",
          "name": "account",
          "type": "address"
        }
      ],
      "name": "revokeRole",
      "outputs": [],
      "stateMutability": "nonpayable",
      "type": "function"
    },
    {
      "inputs": [
        {
          "internalType": "address",
          "name": "from",
          "type": "address"
        },
        {
          "internalType": "address",
          "name": "to",
          "type": "address"
        },
        {
          "internalType": "uint256[]",
          "name": "ids",
          "type": "uint256[]"
        },
        {
          "internalType": "uint256[]",
          "name": "amounts",
          "type": "uint256[]"
        },
        {
          "internalType": "bytes",
          "name": "data",
          "type": "bytes"
        }
      ],
      "name": "safeBatchTransferFrom",
      "outputs": [],
      "stateMutability": "nonpayable",
      "type": "function"
    },
    {
      "inputs": [
        {
          "internalType": "address",
          "name": "from",
          "type": "address"
        },
        {
          "internalType": "address",
          "name": "to",
          "type": "address"
        },
        {
          "internalType": "uint256",
          "name": "id",
          "type": "uint256"
        },
        {
          "internalType": "uint256",
          "name": "amount",
          "type": "uint256"
        },
        {
          "internalType": "bytes",
          "name": "data",
          "type": "bytes"
        }
      ],
      "name": "safeTransferFrom",
      "outputs": [],
      "stateMutability": "nonpayable",
      "type": "function"
    },
    {
      "inputs": [
        {
          "internalType": "address",
          "name": "operator",
          "type": "address"
        },
        {
          "internalType": "bool",
          "name": "approved",
          "type": "bool"
        }
      ],
      "name": "setApprovalForAll",
      "outputs": [],
      "stateMutability": "nonpayable",
      "type": "function"
    },
    {
      "inputs": [
        {
          "internalType": "bytes4",
          "name": "interfaceId",
          "type": "bytes4"
        }
      ],
      "name": "supportsInterface",
      "outputs": [
        {
          "internalType": "bool",
          "name": "",
          "type": "bool"
        }
      ],
      "stateMutability": "view",
      "type": "function",
      "constant": true
    },
    {
      "inputs": [
        {
          "internalType": "string",
          "name": "uri_",
          "type": "string"
        }
      ],
      "name": "setBaseURI",
      "outputs": [],
      "stateMutability": "nonpayable",
      "type": "function"
    },
    {
      "inputs": [
        {
          "internalType": "uint256",
          "name": "id",
          "type": "uint256"
        }
      ],
      "name": "uri",
      "outputs": [
        {
          "internalType": "string",
          "name": "",
          "type": "string"
        }
      ],
      "stateMutability": "view",
      "type": "function",
      "constant": true
    },
    {
      "inputs": [
        {
          "internalType": "address",
          "name": "creator",
          "type": "address"
        },
        {
          "internalType": "uint256",
          "name": "supply",
          "type": "uint256"
        },
        {
          "internalType": "string",
          "name": "uri_",
          "type": "string"
        },
        {
          "internalType": "uint256",
          "name": "expiry",
          "type": "uint256"
        },
        {
          "internalType": "uint256",
          "name": "salt",
          "type": "uint256"
        }
      ],
      "name": "getMintHash",
      "outputs": [
        {
          "internalType": "bytes32",
          "name": "",
          "type": "bytes32"
        }
      ],
      "stateMutability": "view",
      "type": "function",
      "constant": true
    },
    {
      "inputs": [
        {
          "internalType": "uint256",
          "name": "id",
          "type": "uint256"
        }
      ],
      "name": "get",
      "outputs": [
        {
          "components": [
            {
              "internalType": "uint256",
              "name": "dateCreated",
              "type": "uint256"
            },
            {
              "internalType": "address",
              "name": "creator",
              "type": "address"
            },
            {
              "internalType": "uint256",
              "name": "supply",
              "type": "uint256"
            },
            {
              "internalType": "string",
              "name": "uri",
              "type": "string"
            }
          ],
          "internalType": "struct Token",
          "name": "",
          "type": "tuple"
        }
      ],
      "stateMutability": "view",
      "type": "function",
      "constant": true
    },
    {
      "inputs": [
        {
          "internalType": "address",
          "name": "creator",
          "type": "address"
        },
        {
          "internalType": "uint256",
          "name": "supply",
          "type": "uint256"
        },
        {
          "internalType": "string",
          "name": "uri_",
          "type": "string"
        },
        {
          "components": [
            {
              "internalType": "address payable",
              "name": "recipient",
              "type": "address"
            },
            {
              "internalType": "uint256",
              "name": "pct",
              "type": "uint256"
            }
          ],
          "internalType": "struct Fee[]",
          "name": "fees",
          "type": "tuple[]"
        },
        {
          "internalType": "string",
          "name": "data",
          "type": "string"
        },
        {
          "internalType": "uint256",
          "name": "expiry",
          "type": "uint256"
        },
        {
          "internalType": "uint256",
          "name": "salt",
          "type": "uint256"
        },
        {
          "internalType": "bytes",
          "name": "signature",
          "type": "bytes"
        }
      ],
      "name": "mint",
      "outputs": [],
      "stateMutability": "nonpayable",
      "type": "function"
    },
    {
      "inputs": [
        {
          "internalType": "address",
          "name": "creator",
          "type": "address"
        },
        {
          "internalType": "uint256",
          "name": "supply",
          "type": "uint256"
        },
        {
          "internalType": "string",
          "name": "uri_",
          "type": "string"
        },
        {
          "internalType": "uint256",
          "name": "expiry",
          "type": "uint256"
        },
        {
          "internalType": "uint256",
          "name": "salt",
          "type": "uint256"
        }
      ],
      "name": "revokeMintApproval",
      "outputs": [],
      "stateMutability": "nonpayable",
      "type": "function"
    },
    {
      "inputs": [
        {
          "internalType": "uint256",
          "name": "id",
          "type": "uint256"
        }
      ],
      "name": "getFeeRecipients",
      "outputs": [
        {
          "internalType": "address payable[]",
          "name": "",
          "type": "address[]"
        }
      ],
      "stateMutability": "view",
      "type": "function",
      "constant": true
    },
    {
      "inputs": [
        {
          "internalType": "uint256",
          "name": "id",
          "type": "uint256"
        }
      ],
      "name": "getFeeBps",
      "outputs": [
        {
          "internalType": "uint256[]",
          "name": "",
          "type": "uint256[]"
        }
      ],
      "stateMutability": "view",
      "type": "function",
      "constant": true
    },
    {
      "inputs": [
        {
          "internalType": "address",
          "name": "account",
          "type": "address"
        },
        {
          "internalType": "uint256",
          "name": "id",
          "type": "uint256"
        },
        {
          "internalType": "uint256",
          "name": "amount",
          "type": "uint256"
        }
      ],
      "name": "burn",
      "outputs": [],
      "stateMutability": "nonpayable",
      "type": "function"
    },
    {
      "inputs": [
        {
          "internalType": "address",
          "name": "account",
          "type": "address"
        },
        {
          "internalType": "uint256[]",
          "name": "ids",
          "type": "uint256[]"
        },
        {
          "internalType": "uint256[]",
          "name": "amounts",
          "type": "uint256[]"
        }
      ],
      "name": "burnBatch",
      "outputs": [],
      "stateMutability": "nonpayable",
      "type": "function"
    }
  ],
  "bytecode": "0x608060405260006005553480156200001657600080fd5b50604051620064013803806200640183398181016040528101906200003c9190620004b4565b806200004e816200016f60201b60201c565b50620000646000801b336200018b60201b60201c565b620000967fa49807205ce4d355092ef5a8a18f56e8913cf4a201fbe287825b095693c21775336200018b60201b60201c565b620000cb7fa49807205ce4d355092ef5a8a18f56e8913cf4a201fbe287825b095693c217756000801b620001a160201b60201c565b620000fd7f9f2df0fed2c77648de5860a4cc508cd0818c85b8b8a1ab4ceeef8d981c8956a6336200018b60201b60201c565b6200014f7f9f2df0fed2c77648de5860a4cc508cd0818c85b8b8a1ab4ceeef8d981c8956a67fa49807205ce4d355092ef5a8a18f56e8913cf4a201fbe287825b095693c21775620001a160201b60201c565b80600490805190602001906200016792919062000386565b505062000689565b80600390805190602001906200018792919062000386565b5050565b6200019d82826200020460201b60201c565b5050565b6000620001b483620002f560201b60201c565b905081600080858152602001908152602001600020600101819055508181847fbd79b86ffe0ab8e8776151514217cd7cacd52c909f66475c3af44e129f0b00ff60405160405180910390a4505050565b6200021682826200031460201b60201c565b620002f157600160008084815260200190815260200160002060000160008373ffffffffffffffffffffffffffffffffffffffff1673ffffffffffffffffffffffffffffffffffffffff16815260200190815260200160002060006101000a81548160ff021916908315150217905550620002966200037e60201b60201c565b73ffffffffffffffffffffffffffffffffffffffff168173ffffffffffffffffffffffffffffffffffffffff16837f2f8788117e7eff1d82e926ec794901d17c78024a50270940304540a733656f0d60405160405180910390a45b5050565b6000806000838152602001908152602001600020600101549050919050565b600080600084815260200190815260200160002060000160008373ffffffffffffffffffffffffffffffffffffffff1673ffffffffffffffffffffffffffffffffffffffff16815260200190815260200160002060009054906101000a900460ff16905092915050565b600033905090565b82805462000394906200059a565b90600052602060002090601f016020900481019282620003b8576000855562000404565b82601f10620003d357805160ff191683800117855562000404565b8280016001018555821562000404579182015b8281111562000403578251825591602001919060010190620003e6565b5b50905062000413919062000417565b5090565b5b808211156200043257600081600090555060010162000418565b5090565b60006200044d62000447846200052e565b62000505565b9050828152602081018484840111156200046c576200046b62000669565b5b6200047984828562000564565b509392505050565b600082601f83011262000499576200049862000664565b5b8151620004ab84826020860162000436565b91505092915050565b600060208284031215620004cd57620004cc62000673565b5b600082015167ffffffffffffffff811115620004ee57620004ed6200066e565b5b620004fc8482850162000481565b91505092915050565b60006200051162000524565b90506200051f8282620005d0565b919050565b6000604051905090565b600067ffffffffffffffff8211156200054c576200054b62000635565b5b620005578262000678565b9050602081019050919050565b60005b838110156200058457808201518184015260208101905062000567565b8381111562000594576000848401525b50505050565b60006002820490506001821680620005b357607f821691505b60208210811415620005ca57620005c962000606565b5b50919050565b620005db8262000678565b810181811067ffffffffffffffff82111715620005fd57620005fc62000635565b5b80604052505050565b7f4e487b7100000000000000000000000000000000000000000000000000000000600052602260045260246000fd5b7f4e487b7100000000000000000000000000000000000000000000000000000000600052604160045260246000fd5b600080fd5b600080fd5b600080fd5b600080fd5b6000601f19601f8301169050919050565b615d6880620006996000396000f3fe608060405234801561001057600080fd5b50600436106101725760003560e01c80636b20c454116100de578063b9c4d9fb11610097578063dd9583a911610071578063dd9583a91461047d578063e985e9c5146104ad578063f242432a146104dd578063f5298aca146104f957610172565b8063b9c4d9fb14610413578063d539139314610443578063d547741f1461046157610172565b80636b20c4541461033f57806375b238fc1461035b57806391d14854146103795780639507d39a146103a9578063a217fddf146103d9578063a22cb465146103f757610172565b80632f2ff15d116101305780632f2ff15d1461028357806336568abe1461029f5780633a076de0146102bb5780634e1273f4146102d757806355f804b314610307578063633e3b7d1461032357610172565b8062fdd58e1461017757806301ffc9a7146101a75780630e89341c146101d75780630ebd4c7f14610207578063248a9ca3146102375780632eb2c2d614610267575b600080fd5b610191600480360381019061018c9190613bdc565b610515565b60405161019e9190614e94565b60405180910390f35b6101c160048036038101906101bc9190613f22565b6105df565b6040516101ce9190614a87565b60405180910390f35b6101f160048036038101906101ec9190613fc5565b6105f1565b6040516101fe9190614b02565b60405180910390f35b610221600480360381019061021c9190613fc5565b610632565b60405161022e9190614a2e565b60405180910390f35b610251600480360381019061024c9190613eb5565b6107b7565b60405161025e9190614aa2565b60405180910390f35b610281600480360381019061027c91906139ab565b6107d6565b005b61029d60048036038101906102989190613ee2565b610877565b005b6102b960048036038101906102b49190613ee2565b6108a0565b005b6102d560048036038101906102d09190613c1c565b610923565b005b6102f160048036038101906102ec9190613e3d565b610de6565b6040516102fe9190614a2e565b60405180910390f35b610321600480360381019061031c9190613f7c565b610eff565b005b61033d60048036038101906103389190613d50565b610f55565b005b61035960048036038101906103549190613b11565b6110d5565b005b610363611186565b6040516103709190614aa2565b60405180910390f35b610393600480360381019061038e9190613ee2565b6111aa565b6040516103a09190614a87565b60405180910390f35b6103c360048036038101906103be9190613fc5565b611214565b6040516103d09190614e24565b60405180910390f35b6103e161133d565b6040516103ee9190614aa2565b60405180910390f35b610411600480360381019061040c9190613b9c565b611344565b005b61042d60048036038101906104289190613fc5565b6114c5565b60405161043a9190614a0c565b60405180910390f35b61044b611678565b6040516104589190614aa2565b60405180910390f35b61047b60048036038101906104769190613ee2565b61169c565b005b61049760048036038101906104929190613d50565b6116c5565b6040516104a49190614aa2565b60405180910390f35b6104c760048036038101906104c2919061396b565b611706565b6040516104d49190614a87565b60405180910390f35b6104f760048036038101906104f29190613a7a565b61179a565b005b610513600480360381019061050e9190613dea565b61183b565b005b60008073ffffffffffffffffffffffffffffffffffffffff168373ffffffffffffffffffffffffffffffffffffffff161415610586576040517f08c379a000000000000000000000000000000000000000000000000000000000815260040161057d90614bc4565b60405180910390fd5b6001600083815260200190815260200160002060008473ffffffffffffffffffffffffffffffffffffffff1673ffffffffffffffffffffffffffffffffffffffff16815260200190815260200160002054905092915050565b60006105ea826118ec565b9050919050565b606060046006600084815260200190815260200160002060030160405160200161061c929190614886565b6040516020818303038152906040529050919050565b6060600060076000848152602001908152602001600020805480602002602001604051908101604052809291908181526020016000905b828210156106fb57838290600052602060002090600202016040518060400160405290816000820160009054906101000a900473ffffffffffffffffffffffffffffffffffffffff1673ffffffffffffffffffffffffffffffffffffffff1673ffffffffffffffffffffffffffffffffffffffff16815260200160018201548152505081526020019060010190610669565b5050505090506000815167ffffffffffffffff81111561071e5761071d6154b3565b5b60405190808252806020026020018201604052801561074c5781602001602082028036833780820191505090505b50905060005b82518110156107ac5782818151811061076e5761076d615484565b5b60200260200101516020015182828151811061078d5761078c615484565b5b60200260200101818152505080806107a490615376565b915050610752565b508092505050919050565b6000806000838152602001908152602001600020600101549050919050565b6107de61194d565b73ffffffffffffffffffffffffffffffffffffffff168573ffffffffffffffffffffffffffffffffffffffff16148061082457506108238561081e61194d565b611706565b5b610863576040517f08c379a000000000000000000000000000000000000000000000000000000000815260040161085a90614c64565b60405180910390fd5b6108708585858585611955565b5050505050565b610880826107b7565b6108918161088c61194d565b611c6c565b61089b8383611d09565b505050565b6108a861194d565b73ffffffffffffffffffffffffffffffffffffffff168173ffffffffffffffffffffffffffffffffffffffff1614610915576040517f08c379a000000000000000000000000000000000000000000000000000000000815260040161090c90614e04565b60405180910390fd5b61091f8282611de9565b5050565b61094d7f9f2df0fed2c77648de5860a4cc508cd0818c85b8b8a1ab4ceeef8d981c8956a6336111aa565b610b3a57428411610993576040517f08c379a000000000000000000000000000000000000000000000000000000000815260040161098a90614d24565b60405180910390fd5b60006109a38c8c8c8c89896116c5565b90506008600082815260200190815260200160002060009054906101000a900460ff1615610a06576040517f08c379a00000000000000000000000000000000000000000000000000000000081526004016109fd90614d44565b60405180910390fd5b6000610a6784848080601f016020809104026020016040519081016040528093929190818152602001838380828437600081840152601f19601f82011690508083019250505050505050610a5984611eca565b611efa90919063ffffffff16565b9050600073ffffffffffffffffffffffffffffffffffffffff168173ffffffffffffffffffffffffffffffffffffffff1614158015610acc5750610acb7f9f2df0fed2c77648de5860a4cc508cd0818c85b8b8a1ab4ceeef8d981c8956a6826111aa565b5b610b0b576040517f08c379a0000000000000000000000000000000000000000000000000000000008152600401610b0290614d64565b60405180910390fd5b60016008600084815260200190815260200160002060006101000a81548160ff02191690831515021790555050505b60056000815480929190610b4d90615376565b9190505550610b6f8b6005548c60405180602001604052806000815250611f21565b600060405180608001604052804281526020018d73ffffffffffffffffffffffffffffffffffffffff1681526020018c81526020018b8b8080601f016020809104026020016040519081016040528093929190818152602001838380828437600081840152601f19601f820116905080830192505050505050508152509050806006600060055481526020019081526020016000206000820151816000015560208201518160010160006101000a81548173ffffffffffffffffffffffffffffffffffffffff021916908373ffffffffffffffffffffffffffffffffffffffff160217905550604082015181600201556060820151816003019080519060200190610c7b929190613441565b509050506000805b8951811015610d8257898181518110610c9f57610c9e615484565b5b60200260200101516020015182610cb691906150fc565b9150620186a08211610d6f576007600060055481526020019081526020016000208a8281518110610cea57610ce9615484565b5b6020026020010151908060018154018082558091505060019003906000526020600020906002020160009091909190915060008201518160000160006101000a81548173ffffffffffffffffffffffffffffffffffffffff021916908373ffffffffffffffffffffffffffffffffffffffff1602179055506020820151816001015550505b8080610d7a90615376565b915050610c83565b506005547f09ca93c84721463e13d9f2aa242300b740b34d5ef95b4373848272389b427ec5836007600060055481526020019081526020016000208b8b604051610dcf9493929190614e46565b60405180910390a250505050505050505050505050565b60608151835114610e2c576040517f08c379a0000000000000000000000000000000000000000000000000000000008152600401610e2390614da4565b60405180910390fd5b6000835167ffffffffffffffff811115610e4957610e486154b3565b5b604051908082528060200260200182016040528015610e775781602001602082028036833780820191505090505b50905060005b8451811015610ef457610ec4858281518110610e9c57610e9b615484565b5b6020026020010151858381518110610eb757610eb6615484565b5b6020026020010151610515565b828281518110610ed757610ed6615484565b5b60200260200101818152505080610eed90615376565b9050610e7d565b508091505092915050565b7fa49807205ce4d355092ef5a8a18f56e8913cf4a201fbe287825b095693c21775610f3181610f2c61194d565b611c6c565b8160049080519060200190610f47929190613441565b50610f51826120b8565b5050565b610f7f7fa49807205ce4d355092ef5a8a18f56e8913cf4a201fbe287825b095693c21775336111aa565b80610fb05750610faf7f9f2df0fed2c77648de5860a4cc508cd0818c85b8b8a1ab4ceeef8d981c8956a6336111aa565b5b610fef576040517f08c379a0000000000000000000000000000000000000000000000000000000008152600401610fe690614ce4565b60405180910390fd5b6000610fff8787878787876116c5565b90506008600082815260200190815260200160002060009054906101000a900460ff1615611062576040517f08c379a000000000000000000000000000000000000000000000000000000000815260040161105990614d04565b60405180910390fd5b60016008600083815260200190815260200160002060006101000a81548160ff021916908315150217905550857f4fbc860d2cbc005395b0c8062b69f6f63fa32d000f1f3822605e5bf5d1558654338988886040516110c49493929190614972565b60405180910390a250505050505050565b828073ffffffffffffffffffffffffffffffffffffffff163373ffffffffffffffffffffffffffffffffffffffff16148061113657506111357fa49807205ce4d355092ef5a8a18f56e8913cf4a201fbe287825b095693c21775336111aa565b5b611175576040517f08c379a000000000000000000000000000000000000000000000000000000000815260040161116c90614ce4565b60405180910390fd5b6111808484846120d2565b50505050565b7fa49807205ce4d355092ef5a8a18f56e8913cf4a201fbe287825b095693c2177581565b600080600084815260200190815260200160002060000160008373ffffffffffffffffffffffffffffffffffffffff1673ffffffffffffffffffffffffffffffffffffffff16815260200190815260200160002060009054906101000a900460ff16905092915050565b61121c6134c7565b60066000838152602001908152602001600020604051806080016040529081600082015481526020016001820160009054906101000a900473ffffffffffffffffffffffffffffffffffffffff1673ffffffffffffffffffffffffffffffffffffffff1673ffffffffffffffffffffffffffffffffffffffff168152602001600282015481526020016003820180546112b4906152df565b80601f01602080910402602001604051908101604052809291908181526020018280546112e0906152df565b801561132d5780601f106113025761010080835404028352916020019161132d565b820191906000526020600020905b81548152906001019060200180831161131057829003601f168201915b5050505050815250509050919050565b6000801b81565b8173ffffffffffffffffffffffffffffffffffffffff1661136361194d565b73ffffffffffffffffffffffffffffffffffffffff1614156113ba576040517f08c379a00000000000000000000000000000000000000000000000000000000081526004016113b190614d84565b60405180910390fd5b80600260006113c761194d565b73ffffffffffffffffffffffffffffffffffffffff1673ffffffffffffffffffffffffffffffffffffffff16815260200190815260200160002060008473ffffffffffffffffffffffffffffffffffffffff1673ffffffffffffffffffffffffffffffffffffffff16815260200190815260200160002060006101000a81548160ff0219169083151502179055508173ffffffffffffffffffffffffffffffffffffffff1661147461194d565b73ffffffffffffffffffffffffffffffffffffffff167f17307eab39ab6107e8899845ad3d59bd9653f200f220920489ca2b5937696c31836040516114b99190614a87565b60405180910390a35050565b6060600060076000848152602001908152602001600020805480602002602001604051908101604052809291908181526020016000905b8282101561158e57838290600052602060002090600202016040518060400160405290816000820160009054906101000a900473ffffffffffffffffffffffffffffffffffffffff1673ffffffffffffffffffffffffffffffffffffffff1673ffffffffffffffffffffffffffffffffffffffff168152602001600182015481525050815260200190600101906114fc565b5050505090506000815167ffffffffffffffff8111156115b1576115b06154b3565b5b6040519080825280602002602001820160405280156115df5781602001602082028036833780820191505090505b50905060005b825181101561166d5782818151811061160157611600615484565b5b6020026020010151600001518282815181106116205761161f615484565b5b602002602001019073ffffffffffffffffffffffffffffffffffffffff16908173ffffffffffffffffffffffffffffffffffffffff1681525050808061166590615376565b9150506115e5565b508092505050919050565b7f9f2df0fed2c77648de5860a4cc508cd0818c85b8b8a1ab4ceeef8d981c8956a681565b6116a5826107b7565b6116b6816116b161194d565b611c6c565b6116c08383611de9565b505050565b6000308787878787876040516020016116e49796959493929190614818565b6040516020818303038152906040528051906020012090509695505050505050565b6000600260008473ffffffffffffffffffffffffffffffffffffffff1673ffffffffffffffffffffffffffffffffffffffff16815260200190815260200160002060008373ffffffffffffffffffffffffffffffffffffffff1673ffffffffffffffffffffffffffffffffffffffff16815260200190815260200160002060009054906101000a900460ff16905092915050565b6117a261194d565b73ffffffffffffffffffffffffffffffffffffffff168573ffffffffffffffffffffffffffffffffffffffff1614806117e857506117e7856117e261194d565b611706565b5b611827576040517f08c379a000000000000000000000000000000000000000000000000000000000815260040161181e90614c04565b60405180910390fd5b6118348585858585612385565b5050505050565b828073ffffffffffffffffffffffffffffffffffffffff163373ffffffffffffffffffffffffffffffffffffffff16148061189c575061189b7fa49807205ce4d355092ef5a8a18f56e8913cf4a201fbe287825b095693c21775336111aa565b5b6118db576040517f08c379a00000000000000000000000000000000000000000000000000000000081526004016118d290614ce4565b60405180910390fd5b6118e684848461260a565b50505050565b600063b779958460e01b7bffffffffffffffffffffffffffffffffffffffffffffffffffffffff1916827bffffffffffffffffffffffffffffffffffffffffffffffffffffffff19161480611946575061194582612829565b5b9050919050565b600033905090565b8151835114611999576040517f08c379a000000000000000000000000000000000000000000000000000000000815260040161199090614dc4565b60405180910390fd5b600073ffffffffffffffffffffffffffffffffffffffff168473ffffffffffffffffffffffffffffffffffffffff161415611a09576040517f08c379a0000000000000000000000000000000000000000000000000000000008152600401611a0090614c44565b60405180910390fd5b6000611a1361194d565b9050611a2381878787878761290b565b60005b8451811015611bd7576000858281518110611a4457611a43615484565b5b602002602001015190506000858381518110611a6357611a62615484565b5b6020026020010151905060006001600084815260200190815260200160002060008b73ffffffffffffffffffffffffffffffffffffffff1673ffffffffffffffffffffffffffffffffffffffff16815260200190815260200160002054905081811015611b05576040517f08c379a0000000000000000000000000000000000000000000000000000000008152600401611afc90614cc4565b60405180910390fd5b8181036001600085815260200190815260200160002060008c73ffffffffffffffffffffffffffffffffffffffff1673ffffffffffffffffffffffffffffffffffffffff16815260200190815260200160002081905550816001600085815260200190815260200160002060008b73ffffffffffffffffffffffffffffffffffffffff1673ffffffffffffffffffffffffffffffffffffffff1681526020019081526020016000206000828254611bbc91906150fc565b9250508190555050505080611bd090615376565b9050611a26565b508473ffffffffffffffffffffffffffffffffffffffff168673ffffffffffffffffffffffffffffffffffffffff168273ffffffffffffffffffffffffffffffffffffffff167f4a39dc06d4c0dbc64b70af90fd698a233a518aa5d07e595d983b8c0526c8f7fb8787604051611c4e929190614a50565b60405180910390a4611c64818787878787612913565b505050505050565b611c7682826111aa565b611d0557611c9b8173ffffffffffffffffffffffffffffffffffffffff166014612afa565b611ca98360001c6020612afa565b604051602001611cba9291906148d0565b6040516020818303038152906040526040517f08c379a0000000000000000000000000000000000000000000000000000000008152600401611cfc9190614b02565b60405180910390fd5b5050565b611d1382826111aa565b611de557600160008084815260200190815260200160002060000160008373ffffffffffffffffffffffffffffffffffffffff1673ffffffffffffffffffffffffffffffffffffffff16815260200190815260200160002060006101000a81548160ff021916908315150217905550611d8a61194d565b73ffffffffffffffffffffffffffffffffffffffff168173ffffffffffffffffffffffffffffffffffffffff16837f2f8788117e7eff1d82e926ec794901d17c78024a50270940304540a733656f0d60405160405180910390a45b5050565b611df382826111aa565b15611ec657600080600084815260200190815260200160002060000160008373ffffffffffffffffffffffffffffffffffffffff1673ffffffffffffffffffffffffffffffffffffffff16815260200190815260200160002060006101000a81548160ff021916908315150217905550611e6b61194d565b73ffffffffffffffffffffffffffffffffffffffff168173ffffffffffffffffffffffffffffffffffffffff16837ff6391f5c32d9c69d2a47ea670b442974b53935d1edc7fd64eb21e047a839171b60405160405180910390a45b5050565b600081604051602001611edd91906148aa565b604051602081830303815290604052805190602001209050919050565b6000806000611f098585612d36565b91509150611f1681612db9565b819250505092915050565b600073ffffffffffffffffffffffffffffffffffffffff168473ffffffffffffffffffffffffffffffffffffffff161415611f91576040517f08c379a0000000000000000000000000000000000000000000000000000000008152600401611f8890614de4565b60405180910390fd5b6000611f9b61194d565b9050611fbc81600087611fad88612f8e565b611fb688612f8e565b8761290b565b826001600086815260200190815260200160002060008773ffffffffffffffffffffffffffffffffffffffff1673ffffffffffffffffffffffffffffffffffffffff168152602001908152602001600020600082825461201c91906150fc565b925050819055508473ffffffffffffffffffffffffffffffffffffffff16600073ffffffffffffffffffffffffffffffffffffffff168273ffffffffffffffffffffffffffffffffffffffff167fc3d58168c5ae7397731d063d5bbf3d657854427343f4c083240f7aacaa2d0f62878760405161209a929190614eaf565b60405180910390a46120b181600087878787613008565b5050505050565b80600390805190602001906120ce929190613441565b5050565b600073ffffffffffffffffffffffffffffffffffffffff168373ffffffffffffffffffffffffffffffffffffffff161415612142576040517f08c379a000000000000000000000000000000000000000000000000000000000815260040161213990614ca4565b60405180910390fd5b8051825114612186576040517f08c379a000000000000000000000000000000000000000000000000000000000815260040161217d90614dc4565b60405180910390fd5b600061219061194d565b90506121b08185600086866040518060200160405280600081525061290b565b60005b83518110156122ff5760008482815181106121d1576121d0615484565b5b6020026020010151905060008483815181106121f0576121ef615484565b5b6020026020010151905060006001600084815260200190815260200160002060008973ffffffffffffffffffffffffffffffffffffffff1673ffffffffffffffffffffffffffffffffffffffff16815260200190815260200160002054905081811015612292576040517f08c379a000000000000000000000000000000000000000000000000000000000815260040161228990614be4565b60405180910390fd5b8181036001600085815260200190815260200160002060008a73ffffffffffffffffffffffffffffffffffffffff1673ffffffffffffffffffffffffffffffffffffffff1681526020019081526020016000208190555050505080806122f790615376565b9150506121b3565b50600073ffffffffffffffffffffffffffffffffffffffff168473ffffffffffffffffffffffffffffffffffffffff168273ffffffffffffffffffffffffffffffffffffffff167f4a39dc06d4c0dbc64b70af90fd698a233a518aa5d07e595d983b8c0526c8f7fb8686604051612377929190614a50565b60405180910390a450505050565b600073ffffffffffffffffffffffffffffffffffffffff168473ffffffffffffffffffffffffffffffffffffffff1614156123f5576040517f08c379a00000000000000000000000000000000000000000000000000000000081526004016123ec90614c44565b60405180910390fd5b60006123ff61194d565b905061241f81878761241088612f8e565b61241988612f8e565b8761290b565b60006001600086815260200190815260200160002060008873ffffffffffffffffffffffffffffffffffffffff1673ffffffffffffffffffffffffffffffffffffffff168152602001908152602001600020549050838110156124b7576040517f08c379a00000000000000000000000000000000000000000000000000000000081526004016124ae90614cc4565b60405180910390fd5b8381036001600087815260200190815260200160002060008973ffffffffffffffffffffffffffffffffffffffff1673ffffffffffffffffffffffffffffffffffffffff16815260200190815260200160002081905550836001600087815260200190815260200160002060008873ffffffffffffffffffffffffffffffffffffffff1673ffffffffffffffffffffffffffffffffffffffff168152602001908152602001600020600082825461256e91906150fc565b925050819055508573ffffffffffffffffffffffffffffffffffffffff168773ffffffffffffffffffffffffffffffffffffffff168373ffffffffffffffffffffffffffffffffffffffff167fc3d58168c5ae7397731d063d5bbf3d657854427343f4c083240f7aacaa2d0f6288886040516125eb929190614eaf565b60405180910390a4612601828888888888613008565b50505050505050565b600073ffffffffffffffffffffffffffffffffffffffff168373ffffffffffffffffffffffffffffffffffffffff16141561267a576040517f08c379a000000000000000000000000000000000000000000000000000000000815260040161267190614ca4565b60405180910390fd5b600061268461194d565b90506126b48185600061269687612f8e565b61269f87612f8e565b6040518060200160405280600081525061290b565b60006001600085815260200190815260200160002060008673ffffffffffffffffffffffffffffffffffffffff1673ffffffffffffffffffffffffffffffffffffffff1681526020019081526020016000205490508281101561274c576040517f08c379a000000000000000000000000000000000000000000000000000000000815260040161274390614be4565b60405180910390fd5b8281036001600086815260200190815260200160002060008773ffffffffffffffffffffffffffffffffffffffff1673ffffffffffffffffffffffffffffffffffffffff16815260200190815260200160002081905550600073ffffffffffffffffffffffffffffffffffffffff168573ffffffffffffffffffffffffffffffffffffffff168373ffffffffffffffffffffffffffffffffffffffff167fc3d58168c5ae7397731d063d5bbf3d657854427343f4c083240f7aacaa2d0f62878760405161281a929190614eaf565b60405180910390a45050505050565b60007fd9b67a26000000000000000000000000000000000000000000000000000000007bffffffffffffffffffffffffffffffffffffffffffffffffffffffff1916827bffffffffffffffffffffffffffffffffffffffffffffffffffffffff191614806128f457507f0e89341c000000000000000000000000000000000000000000000000000000007bffffffffffffffffffffffffffffffffffffffffffffffffffffffff1916827bffffffffffffffffffffffffffffffffffffffffffffffffffffffff1916145b806129045750612903826131ef565b5b9050919050565b505050505050565b6129328473ffffffffffffffffffffffffffffffffffffffff16613269565b15612af2578373ffffffffffffffffffffffffffffffffffffffff1663bc197c8187878686866040518663ffffffff1660e01b815260040161297895949392919061490a565b602060405180830381600087803b15801561299257600080fd5b505af19250505080156129c357506040513d601f19601f820116820180604052508101906129c09190613f4f565b60015b612a69576129cf6154e2565b806308c379a01415612a2c57506129e4615c12565b806129ef5750612a2e565b806040517f08c379a0000000000000000000000000000000000000000000000000000000008152600401612a239190614b02565b60405180910390fd5b505b6040517f08c379a0000000000000000000000000000000000000000000000000000000008152600401612a6090614b44565b60405180910390fd5b63bc197c8160e01b7bffffffffffffffffffffffffffffffffffffffffffffffffffffffff1916817bffffffffffffffffffffffffffffffffffffffffffffffffffffffff191614612af0576040517f08c379a0000000000000000000000000000000000000000000000000000000008152600401612ae790614b84565b60405180910390fd5b505b505050505050565b606060006002836002612b0d9190615152565b612b1791906150fc565b67ffffffffffffffff811115612b3057612b2f6154b3565b5b6040519080825280601f01601f191660200182016040528015612b625781602001600182028036833780820191505090505b5090507f300000000000000000000000000000000000000000000000000000000000000081600081518110612b9a57612b99615484565b5b60200101907effffffffffffffffffffffffffffffffffffffffffffffffffffffffffffff1916908160001a9053507f780000000000000000000000000000000000000000000000000000000000000081600181518110612bfe57612bfd615484565b5b60200101907effffffffffffffffffffffffffffffffffffffffffffffffffffffffffffff1916908160001a90535060006001846002612c3e9190615152565b612c4891906150fc565b90505b6001811115612ce8577f3031323334353637383961626364656600000000000000000000000000000000600f861660108110612c8a57612c89615484565b5b1a60f81b828281518110612ca157612ca0615484565b5b60200101907effffffffffffffffffffffffffffffffffffffffffffffffffffffffffffff1916908160001a905350600485901c945080612ce1906152b5565b9050612c4b565b5060008414612d2c576040517f08c379a0000000000000000000000000000000000000000000000000000000008152600401612d2390614b64565b60405180910390fd5b8091505092915050565b600080604183511415612d785760008060006020860151925060408601519150606086015160001a9050612d6c8782858561327c565b94509450505050612db2565b604083511415612da9576000806020850151915060408501519050612d9e868383613389565b935093505050612db2565b60006002915091505b9250929050565b60006004811115612dcd57612dcc615426565b5b816004811115612de057612ddf615426565b5b1415612deb57612f8b565b60016004811115612dff57612dfe615426565b5b816004811115612e1257612e11615426565b5b1415612e53576040517f08c379a0000000000000000000000000000000000000000000000000000000008152600401612e4a90614b24565b60405180910390fd5b60026004811115612e6757612e66615426565b5b816004811115612e7a57612e79615426565b5b1415612ebb576040517f08c379a0000000000000000000000000000000000000000000000000000000008152600401612eb290614ba4565b60405180910390fd5b60036004811115612ecf57612ece615426565b5b816004811115612ee257612ee1615426565b5b1415612f23576040517f08c379a0000000000000000000000000000000000000000000000000000000008152600401612f1a90614c24565b60405180910390fd5b600480811115612f3657612f35615426565b5b816004811115612f4957612f48615426565b5b1415612f8a576040517f08c379a0000000000000000000000000000000000000000000000000000000008152600401612f8190614c84565b60405180910390fd5b5b50565b60606000600167ffffffffffffffff811115612fad57612fac6154b3565b5b604051908082528060200260200182016040528015612fdb5781602001602082028036833780820191505090505b5090508281600081518110612ff357612ff2615484565b5b60200260200101818152505080915050919050565b6130278473ffffffffffffffffffffffffffffffffffffffff16613269565b156131e7578373ffffffffffffffffffffffffffffffffffffffff1663f23a6e6187878686866040518663ffffffff1660e01b815260040161306d9594939291906149b2565b602060405180830381600087803b15801561308757600080fd5b505af19250505080156130b857506040513d601f19601f820116820180604052508101906130b59190613f4f565b60015b61315e576130c46154e2565b806308c379a0141561312157506130d9615c12565b806130e45750613123565b806040517f08c379a00000000000000000000000000000000000000000000000000000000081526004016131189190614b02565b60405180910390fd5b505b6040517f08c379a000000000000000000000000000000000000000000000000000000000815260040161315590614b44565b60405180910390fd5b63f23a6e6160e01b7bffffffffffffffffffffffffffffffffffffffffffffffffffffffff1916817bffffffffffffffffffffffffffffffffffffffffffffffffffffffff1916146131e5576040517f08c379a00000000000000000000000000000000000000000000000000000000081526004016131dc90614b84565b60405180910390fd5b505b505050505050565b60007f7965db0b000000000000000000000000000000000000000000000000000000007bffffffffffffffffffffffffffffffffffffffffffffffffffffffff1916827bffffffffffffffffffffffffffffffffffffffffffffffffffffffff191614806132625750613261826133d7565b5b9050919050565b600080823b905060008111915050919050565b6000807f7fffffffffffffffffffffffffffffff5d576e7357a4501ddfe92f46681b20a08360001c11156132b7576000600391509150613380565b601b8560ff16141580156132cf5750601c8560ff1614155b156132e1576000600491509150613380565b6000600187878787604051600081526020016040526040516133069493929190614abd565b6020604051602081039080840390855afa158015613328573d6000803e3d6000fd5b505050602060405103519050600073ffffffffffffffffffffffffffffffffffffffff168173ffffffffffffffffffffffffffffffffffffffff16141561337757600060019250925050613380565b80600092509250505b94509492505050565b6000806000807f7fffffffffffffffffffffffffffffffffffffffffffffffffffffffffffffff85169150601b8560ff1c0190506133c98782888561327c565b935093505050935093915050565b60007f01ffc9a7000000000000000000000000000000000000000000000000000000007bffffffffffffffffffffffffffffffffffffffffffffffffffffffff1916827bffffffffffffffffffffffffffffffffffffffffffffffffffffffff1916149050919050565b82805461344d906152df565b90600052602060002090601f01602090048101928261346f57600085556134b6565b82601f1061348857805160ff19168380011785556134b6565b828001600101855582156134b6579182015b828111156134b557825182559160200191906001019061349a565b5b5090506134c39190613505565b5090565b604051806080016040528060008152602001600073ffffffffffffffffffffffffffffffffffffffff16815260200160008152602001606081525090565b5b8082111561351e576000816000905550600101613506565b5090565b600061353561353084614efd565b614ed8565b9050808382526020820190508285602086028201111561355857613557615513565b5b60005b85811015613588578161356e88826136f6565b84526020840193506020830192505060018101905061355b565b5050509392505050565b60006135a56135a084614f29565b614ed8565b905080838252602082019050828560408602820111156135c8576135c7615513565b5b60005b858110156135f857816135de8882613906565b8452602084019350604083019250506001810190506135cb565b5050509392505050565b600061361561361084614f55565b614ed8565b9050808382526020820190508285602086028201111561363857613637615513565b5b60005b85811015613668578161364e8882613956565b84526020840193506020830192505060018101905061363b565b5050509392505050565b600061368561368084614f81565b614ed8565b9050828152602081018484840111156136a1576136a0615518565b5b6136ac848285615273565b509392505050565b60006136c76136c284614fb2565b614ed8565b9050828152602081018484840111156136e3576136e2615518565b5b6136ee848285615273565b509392505050565b60008135905061370581615ca8565b92915050565b60008135905061371a81615cbf565b92915050565b600082601f83011261373557613734615509565b5b8135613745848260208601613522565b91505092915050565b600082601f83011261376357613762615509565b5b8135613773848260208601613592565b91505092915050565b600082601f83011261379157613790615509565b5b81356137a1848260208601613602565b91505092915050565b6000813590506137b981615cd6565b92915050565b6000813590506137ce81615ced565b92915050565b6000813590506137e381615d04565b92915050565b6000815190506137f881615d04565b92915050565b60008083601f84011261381457613813615509565b5b8235905067ffffffffffffffff81111561383157613830615504565b5b60208301915083600182028301111561384d5761384c615513565b5b9250929050565b600082601f83011261386957613868615509565b5b8135613879848260208601613672565b91505092915050565b60008083601f84011261389857613897615509565b5b8235905067ffffffffffffffff8111156138b5576138b4615504565b5b6020830191508360018202830111156138d1576138d0615513565b5b9250929050565b600082601f8301126138ed576138ec615509565b5b81356138fd8482602086016136b4565b91505092915050565b60006040828403121561391c5761391b61550e565b5b6139266040614ed8565b905060006139368482850161370b565b600083015250602061394a84828501613956565b60208301525092915050565b60008135905061396581615d1b565b92915050565b6000806040838503121561398257613981615522565b5b6000613990858286016136f6565b92505060206139a1858286016136f6565b9150509250929050565b600080600080600060a086880312156139c7576139c6615522565b5b60006139d5888289016136f6565b95505060206139e6888289016136f6565b945050604086013567ffffffffffffffff811115613a0757613a0661551d565b5b613a138882890161377c565b935050606086013567ffffffffffffffff811115613a3457613a3361551d565b5b613a408882890161377c565b925050608086013567ffffffffffffffff811115613a6157613a6061551d565b5b613a6d88828901613854565b9150509295509295909350565b600080600080600060a08688031215613a9657613a95615522565b5b6000613aa4888289016136f6565b9550506020613ab5888289016136f6565b9450506040613ac688828901613956565b9350506060613ad788828901613956565b925050608086013567ffffffffffffffff811115613af857613af761551d565b5b613b0488828901613854565b9150509295509295909350565b600080600060608486031215613b2a57613b29615522565b5b6000613b38868287016136f6565b935050602084013567ffffffffffffffff811115613b5957613b5861551d565b5b613b658682870161377c565b925050604084013567ffffffffffffffff811115613b8657613b8561551d565b5b613b928682870161377c565b9150509250925092565b60008060408385031215613bb357613bb2615522565b5b6000613bc1858286016136f6565b9250506020613bd2858286016137aa565b9150509250929050565b60008060408385031215613bf357613bf2615522565b5b6000613c01858286016136f6565b9250506020613c1285828601613956565b9150509250929050565b60008060008060008060008060008060006101008c8e031215613c4257613c41615522565b5b6000613c508e828f016136f6565b9b50506020613c618e828f01613956565b9a505060408c013567ffffffffffffffff811115613c8257613c8161551d565b5b613c8e8e828f01613882565b995099505060608c013567ffffffffffffffff811115613cb157613cb061551d565b5b613cbd8e828f0161374e565b97505060808c013567ffffffffffffffff811115613cde57613cdd61551d565b5b613cea8e828f01613882565b965096505060a0613cfd8e828f01613956565b94505060c0613d0e8e828f01613956565b93505060e08c013567ffffffffffffffff811115613d2f57613d2e61551d565b5b613d3b8e828f016137fe565b92509250509295989b509295989b9093969950565b60008060008060008060a08789031215613d6d57613d6c615522565b5b6000613d7b89828a016136f6565b9650506020613d8c89828a01613956565b955050604087013567ffffffffffffffff811115613dad57613dac61551d565b5b613db989828a01613882565b94509450506060613dcc89828a01613956565b9250506080613ddd89828a01613956565b9150509295509295509295565b600080600060608486031215613e0357613e02615522565b5b6000613e11868287016136f6565b9350506020613e2286828701613956565b9250506040613e3386828701613956565b9150509250925092565b60008060408385031215613e5457613e53615522565b5b600083013567ffffffffffffffff811115613e7257613e7161551d565b5b613e7e85828601613720565b925050602083013567ffffffffffffffff811115613e9f57613e9e61551d565b5b613eab8582860161377c565b9150509250929050565b600060208284031215613ecb57613eca615522565b5b6000613ed9848285016137bf565b91505092915050565b60008060408385031215613ef957613ef8615522565b5b6000613f07858286016137bf565b9250506020613f18858286016136f6565b9150509250929050565b600060208284031215613f3857613f37615522565b5b6000613f46848285016137d4565b91505092915050565b600060208284031215613f6557613f64615522565b5b6000613f73848285016137e9565b91505092915050565b600060208284031215613f9257613f91615522565b5b600082013567ffffffffffffffff811115613fb057613faf61551d565b5b613fbc848285016138d8565b91505092915050565b600060208284031215613fdb57613fda615522565b5b6000613fe984828501613956565b91505092915050565b6000613ffe838361403a565b60208301905092915050565b6000614016838361472a565b60408301905092915050565b600061402e83836147d4565b60208301905092915050565b614043816151e8565b82525050565b614052816151d6565b82525050565b614061816151d6565b82525050565b614078614073826151d6565b6153bf565b82525050565b60006140898261502d565b614093818561508b565b935061409e83614fe3565b8060005b838110156140cf5781516140b68882613ff2565b97506140c183615064565b9250506001810190506140a2565b5085935050505092915050565b60006140e782615038565b6140f1818561509c565b93506140fc83614ff3565b8060005b8381101561412c5781614113888261400a565b975061411e83615071565b925050600181019050614100565b5085935050505092915050565b600061414482615043565b61414e81856150ad565b935061415983615008565b8060005b8381101561418a5781516141718882614022565b975061417c8361507e565b92505060018101905061415d565b5085935050505092915050565b6141a0816151fa565b82525050565b6141af81615206565b82525050565b6141c66141c182615206565b6153d1565b82525050565b60006141d78261504e565b6141e181856150be565b93506141f1818560208601615282565b6141fa81615527565b840191505092915050565b600061421183856150e0565b935061421e838584615273565b61422783615527565b840190509392505050565b600061423e83856150f1565b935061424b838584615273565b82840190509392505050565b600061426282615059565b61426c81856150cf565b935061427c818560208601615282565b61428581615527565b840191505092915050565b600061429b82615059565b6142a581856150e0565b93506142b5818560208601615282565b6142be81615527565b840191505092915050565b60006142d482615059565b6142de81856150f1565b93506142ee818560208601615282565b80840191505092915050565b60008154614307816152df565b61431181866150f1565b9450600182166000811461432c576001811461433d57614370565b60ff19831686528186019350614370565b61434685615018565b60005b8381101561436857815481890152600182019150602081019050614349565b838801955050505b50505092915050565b60006143866018836150e0565b91506143918261555f565b602082019050919050565b60006143a96034836150e0565b91506143b482615588565b604082019050919050565b60006143cc6020836150e0565b91506143d7826155d7565b602082019050919050565b60006143ef6028836150e0565b91506143fa82615600565b604082019050919050565b6000614412601f836150e0565b915061441d8261564f565b602082019050919050565b6000614435601c836150f1565b915061444082615678565b601c82019050919050565b6000614458602b836150e0565b9150614463826156a1565b604082019050919050565b600061447b6024836150e0565b9150614486826156f0565b604082019050919050565b600061449e6029836150e0565b91506144a98261573f565b604082019050919050565b60006144c16022836150e0565b91506144cc8261578e565b604082019050919050565b60006144e46025836150e0565b91506144ef826157dd565b604082019050919050565b60006145076032836150e0565b91506145128261582c565b604082019050919050565b600061452a6022836150e0565b91506145358261587b565b604082019050919050565b600061454d6023836150e0565b9150614558826158ca565b604082019050919050565b6000614570602a836150e0565b915061457b82615919565b604082019050919050565b60006145936012836150e0565b915061459e82615968565b602082019050919050565b60006145b6601b836150e0565b91506145c182615991565b602082019050919050565b60006145d96011836150e0565b91506145e4826159ba565b602082019050919050565b60006145fc6013836150e0565b9150614607826159e3565b602082019050919050565b600061461f6017836150f1565b915061462a82615a0c565b601782019050919050565b60006146426012836150e0565b915061464d82615a35565b602082019050919050565b60006146656029836150e0565b915061467082615a5e565b604082019050919050565b60006146886029836150e0565b915061469382615aad565b604082019050919050565b60006146ab6028836150e0565b91506146b682615afc565b604082019050919050565b60006146ce6021836150e0565b91506146d982615b4b565b604082019050919050565b60006146f16011836150f1565b91506146fc82615b9a565b601182019050919050565b6000614714602f836150e0565b915061471f82615bc3565b604082019050919050565b60408201600080830154905061473f81615311565b61474c600086018261403a565b506001830154905061475d8161532b565b61476a60208601826147d4565b5050505050565b600060808301600083015161478960008601826147d4565b50602083015161479c6020860182614049565b5060408301516147af60408601826147d4565b50606083015184820360608601526147c78282614257565b9150508091505092915050565b6147dd8161525c565b82525050565b6147ec8161525c565b82525050565b6148036147fe8261525c565b6153ed565b82525050565b61481281615266565b82525050565b6000614824828a614067565b6014820191506148348289614067565b60148201915061484482886147f2565b602082019150614855828688614232565b915061486182856147f2565b60208201915061487182846147f2565b60208201915081905098975050505050505050565b600061489282856142fa565b915061489e82846142fa565b91508190509392505050565b60006148b582614428565b91506148c182846141b5565b60208201915081905092915050565b60006148db82614612565b91506148e782856142c9565b91506148f2826146e4565b91506148fe82846142c9565b91508190509392505050565b600060a08201905061491f6000830188614058565b61492c6020830187614058565b818103604083015261493e8186614139565b905081810360608301526149528185614139565b9050818103608083015261496681846141cc565b90509695505050505050565b60006060820190506149876000830187614058565b6149946020830186614058565b81810360408301526149a7818486614205565b905095945050505050565b600060a0820190506149c76000830188614058565b6149d46020830187614058565b6149e160408301866147e3565b6149ee60608301856147e3565b8181036080830152614a0081846141cc565b90509695505050505050565b60006020820190508181036000830152614a26818461407e565b905092915050565b60006020820190508181036000830152614a488184614139565b905092915050565b60006040820190508181036000830152614a6a8185614139565b90508181036020830152614a7e8184614139565b90509392505050565b6000602082019050614a9c6000830184614197565b92915050565b6000602082019050614ab760008301846141a6565b92915050565b6000608082019050614ad260008301876141a6565b614adf6020830186614809565b614aec60408301856141a6565b614af960608301846141a6565b95945050505050565b60006020820190508181036000830152614b1c8184614290565b905092915050565b60006020820190508181036000830152614b3d81614379565b9050919050565b60006020820190508181036000830152614b5d8161439c565b9050919050565b60006020820190508181036000830152614b7d816143bf565b9050919050565b60006020820190508181036000830152614b9d816143e2565b9050919050565b60006020820190508181036000830152614bbd81614405565b9050919050565b60006020820190508181036000830152614bdd8161444b565b9050919050565b60006020820190508181036000830152614bfd8161446e565b9050919050565b60006020820190508181036000830152614c1d81614491565b9050919050565b60006020820190508181036000830152614c3d816144b4565b9050919050565b60006020820190508181036000830152614c5d816144d7565b9050919050565b60006020820190508181036000830152614c7d816144fa565b9050919050565b60006020820190508181036000830152614c9d8161451d565b9050919050565b60006020820190508181036000830152614cbd81614540565b9050919050565b60006020820190508181036000830152614cdd81614563565b9050919050565b60006020820190508181036000830152614cfd81614586565b9050919050565b60006020820190508181036000830152614d1d816145a9565b9050919050565b60006020820190508181036000830152614d3d816145cc565b9050919050565b60006020820190508181036000830152614d5d816145ef565b9050919050565b60006020820190508181036000830152614d7d81614635565b9050919050565b60006020820190508181036000830152614d9d81614658565b9050919050565b60006020820190508181036000830152614dbd8161467b565b9050919050565b60006020820190508181036000830152614ddd8161469e565b9050919050565b60006020820190508181036000830152614dfd816146c1565b9050919050565b60006020820190508181036000830152614e1d81614707565b9050919050565b60006020820190508181036000830152614e3e8184614771565b905092915050565b60006060820190508181036000830152614e608187614771565b90508181036020830152614e7481866140dc565b90508181036040830152614e89818486614205565b905095945050505050565b6000602082019050614ea960008301846147e3565b92915050565b6000604082019050614ec460008301856147e3565b614ed160208301846147e3565b9392505050565b6000614ee2614ef3565b9050614eee8282615345565b919050565b6000604051905090565b600067ffffffffffffffff821115614f1857614f176154b3565b5b602082029050602081019050919050565b600067ffffffffffffffff821115614f4457614f436154b3565b5b602082029050602081019050919050565b600067ffffffffffffffff821115614f7057614f6f6154b3565b5b602082029050602081019050919050565b600067ffffffffffffffff821115614f9c57614f9b6154b3565b5b614fa582615527565b9050602081019050919050565b600067ffffffffffffffff821115614fcd57614fcc6154b3565b5b614fd682615527565b9050602081019050919050565b6000819050602082019050919050565b60008190508160005260206000209050919050565b6000819050602082019050919050565b60008190508160005260206000209050919050565b600081519050919050565b600081549050919050565b600081519050919050565b600081519050919050565b600081519050919050565b6000602082019050919050565b6000600282019050919050565b6000602082019050919050565b600082825260208201905092915050565b600082825260208201905092915050565b600082825260208201905092915050565b600082825260208201905092915050565b600082825260208201905092915050565b600082825260208201905092915050565b600081905092915050565b60006151078261525c565b91506151128361525c565b9250827fffffffffffffffffffffffffffffffffffffffffffffffffffffffffffffffff03821115615147576151466153f7565b5b828201905092915050565b600061515d8261525c565b91506151688361525c565b9250817fffffffffffffffffffffffffffffffffffffffffffffffffffffffffffffffff04831182151516156151a1576151a06153f7565b5b828202905092915050565b600073ffffffffffffffffffffffffffffffffffffffff82169050919050565b6000819050919050565b60006151e18261523c565b9050919050565b60006151f38261523c565b9050919050565b60008115159050919050565b6000819050919050565b60007fffffffff0000000000000000000000000000000000000000000000000000000082169050919050565b600073ffffffffffffffffffffffffffffffffffffffff82169050919050565b6000819050919050565b600060ff82169050919050565b82818337600083830152505050565b60005b838110156152a0578082015181840152602081019050615285565b838111156152af576000848401525b50505050565b60006152c08261525c565b915060008214156152d4576152d36153f7565b5b600182039050919050565b600060028204905060018216806152f757607f821691505b6020821081141561530b5761530a615455565b5b50919050565b600061532461531f83615545565b6151ac565b9050919050565b600061533e61533983615545565b6151cc565b9050919050565b61534e82615527565b810181811067ffffffffffffffff8211171561536d5761536c6154b3565b5b80604052505050565b60006153818261525c565b91507fffffffffffffffffffffffffffffffffffffffffffffffffffffffffffffffff8214156153b4576153b36153f7565b5b600182019050919050565b60006153ca826153db565b9050919050565b6000819050919050565b60006153e682615538565b9050919050565b6000819050919050565b7f4e487b7100000000000000000000000000000000000000000000000000000000600052601160045260246000fd5b7f4e487b7100000000000000000000000000000000000000000000000000000000600052602160045260246000fd5b7f4e487b7100000000000000000000000000000000000000000000000000000000600052602260045260246000fd5b7f4e487b7100000000000000000000000000000000000000000000000000000000600052603260045260246000fd5b7f4e487b7100000000000000000000000000000000000000000000000000000000600052604160045260246000fd5b600060033d11156155015760046000803e6154fe600051615552565b90505b90565b600080fd5b600080fd5b600080fd5b600080fd5b600080fd5b600080fd5b600080fd5b6000601f19601f8301169050919050565b60008160601b9050919050565b60008160001c9050919050565b60008160e01c9050919050565b7f45434453413a20696e76616c6964207369676e61747572650000000000000000600082015250565b7f455243313135353a207472616e7366657220746f206e6f6e204552433131353560008201527f526563656976657220696d706c656d656e746572000000000000000000000000602082015250565b7f537472696e67733a20686578206c656e67746820696e73756666696369656e74600082015250565b7f455243313135353a204552433131353552656365697665722072656a6563746560008201527f6420746f6b656e73000000000000000000000000000000000000000000000000602082015250565b7f45434453413a20696e76616c6964207369676e6174757265206c656e67746800600082015250565b7f19457468657265756d205369676e6564204d6573736167653a0a333200000000600082015250565b7f455243313135353a2062616c616e636520717565727920666f7220746865207a60008201527f65726f2061646472657373000000000000000000000000000000000000000000602082015250565b7f455243313135353a206275726e20616d6f756e7420657863656564732062616c60008201527f616e636500000000000000000000000000000000000000000000000000000000602082015250565b7f455243313135353a2063616c6c6572206973206e6f74206f776e6572206e6f7260008201527f20617070726f7665640000000000000000000000000000000000000000000000602082015250565b7f45434453413a20696e76616c6964207369676e6174757265202773272076616c60008201527f7565000000000000000000000000000000000000000000000000000000000000602082015250565b7f455243313135353a207472616e7366657220746f20746865207a65726f20616460008201527f6472657373000000000000000000000000000000000000000000000000000000602082015250565b7f455243313135353a207472616e736665722063616c6c6572206973206e6f742060008201527f6f776e6572206e6f7220617070726f7665640000000000000000000000000000602082015250565b7f45434453413a20696e76616c6964207369676e6174757265202776272076616c60008201527f7565000000000000000000000000000000000000000000000000000000000000602082015250565b7f455243313135353a206275726e2066726f6d20746865207a65726f206164647260008201527f6573730000000000000000000000000000000000000000000000000000000000602082015250565b7f455243313135353a20696e73756666696369656e742062616c616e636520666f60008201527f72207472616e7366657200000000000000000000000000000000000000000000602082015250565b7f5065726d697373696f6e2064656e6965642e0000000000000000000000000000600082015250565b7f417070726f76616c20616c7265616479206578686175737465642e0000000000600082015250565b7f417070726f76616c20657870697265642e000000000000000000000000000000600082015250565b7f417070726f76616c206578686175737465642e00000000000000000000000000600082015250565b7f416363657373436f6e74726f6c3a206163636f756e7420000000000000000000600082015250565b7f496e76616c6964207369676e61747572652e0000000000000000000000000000600082015250565b7f455243313135353a2073657474696e6720617070726f76616c2073746174757360008201527f20666f722073656c660000000000000000000000000000000000000000000000602082015250565b7f455243313135353a206163636f756e747320616e6420696473206c656e67746860008201527f206d69736d617463680000000000000000000000000000000000000000000000602082015250565b7f455243313135353a2069647320616e6420616d6f756e7473206c656e6774682060008201527f6d69736d61746368000000000000000000000000000000000000000000000000602082015250565b7f455243313135353a206d696e7420746f20746865207a65726f2061646472657360008201527f7300000000000000000000000000000000000000000000000000000000000000602082015250565b7f206973206d697373696e6720726f6c6520000000000000000000000000000000600082015250565b7f416363657373436f6e74726f6c3a2063616e206f6e6c792072656e6f756e636560008201527f20726f6c657320666f722073656c660000000000000000000000000000000000602082015250565b600060443d1015615c2257615ca5565b615c2a614ef3565b60043d036004823e80513d602482011167ffffffffffffffff82111715615c52575050615ca5565b808201805167ffffffffffffffff811115615c705750505050615ca5565b80602083010160043d038501811115615c8d575050505050615ca5565b615c9c82602001850186615345565b82955050505050505b90565b615cb1816151d6565b8114615cbc57600080fd5b50565b615cc8816151e8565b8114615cd357600080fd5b50565b615cdf816151fa565b8114615cea57600080fd5b50565b615cf681615206565b8114615d0157600080fd5b50565b615d0d81615210565b8114615d1857600080fd5b50565b615d248161525c565b8114615d2f57600080fd5b5056fea2646970667358221220b7c6b79a2b93a105ff0fdac58d918823f9e48c87b615b2b1db01e874c32b120164736f6c63430008070033",
  "immutableReferences": {},
  "source": "// SPDX-License-Identifier: MIT\npragma solidity ^0.8.0;\n\nimport \"@openzeppelin/contracts/access/AccessControl.sol\";\nimport \"@openzeppelin/contracts/token/ERC1155/ERC1155.sol\";\nimport \"@openzeppelin/contracts/utils/cryptography/ECDSA.sol\";\nimport \"./HasSecondarySaleFees.sol\";\n\nstruct Fee {\n  address payable recipient;\n  uint pct;\n}\n\nstruct Token {\n  uint dateCreated;\n  address creator;\n  uint supply;\n  string uri;\n}\n\ncontract TokenV1 is AccessControl, ERC1155, HasSecondarySaleFees {\n  using ECDSA for bytes32;\n\n  bytes internal constant EMPTY = \"\";\n\n  bytes32 public constant ADMIN_ROLE = keccak256(\"ADMIN_ROLE\");\n  bytes32 public constant MINTER_ROLE = keccak256(\"MINTER_ROLE\");\n\n  string baseURI;\n\n  uint private _tokenId = 0;\n  mapping(uint => Token) _tokens;\n\n  mapping(uint => Fee[]) _fees;\n\n  mapping(bytes32 => bool) _approvalsExhausted;\n\n  constructor(string memory baseUri) ERC1155(baseUri) {\n    _setupRole(DEFAULT_ADMIN_ROLE, msg.sender);\n    \n    _setupRole(ADMIN_ROLE, msg.sender);\n    _setRoleAdmin(ADMIN_ROLE, DEFAULT_ADMIN_ROLE);\n\n    _setupRole(MINTER_ROLE, msg.sender);\n    _setRoleAdmin(MINTER_ROLE, ADMIN_ROLE);\n\n    baseURI = baseUri;\n  }\n\n  modifier onlyAdminOrMinter() {\n    require(\n      hasRole(ADMIN_ROLE, msg.sender) || hasRole(MINTER_ROLE, msg.sender),\n      \"Permission denied.\"\n    );\n    _;\n  }\n  \n  modifier onlyAdminOrTokenOwner(address account) {\n    require(\n      msg.sender == account || hasRole(ADMIN_ROLE, msg.sender),\n      \"Permission denied.\"\n    );\n    _;\n  }\n\n  function supportsInterface(bytes4 interfaceId) public view override(\n    AccessControl,\n    ERC1155,\n    HasSecondarySaleFees\n  ) returns (bool) {\n    return super.supportsInterface(interfaceId);\n  }\n\n  function setBaseURI(string memory uri_)\n    public\n    onlyRole(ADMIN_ROLE)\n  {\n    baseURI = uri_;\n    super._setURI(uri_);\n  }\n\n  function uri(uint256 id) public view override returns (string memory) {\n    return string(abi.encodePacked(baseURI, _tokens[id].uri));\n  }\n\n  function getMintHash(\n    address creator,\n    uint supply,\n    string calldata uri_,\n    uint expiry,\n    uint salt\n  ) public view returns (bytes32) {\n    return keccak256(abi.encodePacked(\n      address(this),\n      creator,\n      supply,\n      uri_,\n      expiry,\n      salt\n    ));\n  }\n  \n  function get(uint id) public view returns (Token memory) {\n    return _tokens[id];\n  }\n\n  event Minted(uint256 indexed id, Token token, Fee[] fees, string data);\n  event RevokeMint(\n    address operator,\n    address creator,\n    uint256 indexed supply,\n    string uri\n  );\n\n  function mint(\n    address creator,\n    uint supply,\n    string calldata uri_,\n    Fee[] memory fees,\n    string calldata data,\n    uint expiry,\n    uint salt,\n    bytes calldata signature\n  ) public {\n    if (!hasRole(MINTER_ROLE, msg.sender)) {\n      require(expiry > block.timestamp, \"Approval expired.\");\n\n      bytes32 mintHash = getMintHash(creator, supply, uri_, expiry, salt);\n      require(!_approvalsExhausted[mintHash], \"Approval exhausted.\");\n      \n      address recoveredAddress =\n        mintHash.toEthSignedMessageHash().recover(signature);\n\n      require(\n        recoveredAddress != address(0)\n          && hasRole(MINTER_ROLE, recoveredAddress),\n        \"Invalid signature.\"\n      );\n\n      _approvalsExhausted[mintHash] = true;\n    }\n\n    _tokenId++;\n\n    super._mint(creator, _tokenId, supply, EMPTY);\n\n    Token memory token = Token(\n      block.timestamp,\n      creator,\n      supply,\n      uri_\n    );\n\n    _tokens[_tokenId] = token;\n\n    uint totalBps = 0;\n\n    for (uint i = 0; i < fees.length; i++) {\n      totalBps += fees[i].pct;\n\n      if (totalBps <= 10**5)\n        _fees[_tokenId].push(fees[i]);\n    }\n\n    emit Minted(_tokenId, token, _fees[_tokenId], data);\n  }\n\n  function revokeMintApproval(\n    address creator,\n    uint supply,\n    string calldata uri_,\n    uint expiry,\n    uint salt\n  ) public onlyAdminOrMinter {    \n    bytes32 mintHash = getMintHash(creator, supply, uri_, expiry, salt);\n    require(!_approvalsExhausted[mintHash], \"Approval already exhausted.\");\n\n    _approvalsExhausted[mintHash] = true;\n\n    emit RevokeMint(msg.sender, creator, supply, uri_);\n  }\n\n  function getFeeRecipients(uint256 id) override public view returns (address payable[] memory) {\n    Fee[] memory fees = _fees[id];\n    address payable[] memory result = new address payable[](fees.length);\n\n    for (uint i = 0; i < fees.length; i++) {\n      result[i] = fees[i].recipient;\n    }\n\n    return result;\n  }\n\n  function getFeeBps(uint256 id) override public view returns (uint[] memory) {\n    Fee[] memory fees = _fees[id];\n    uint[] memory result = new uint[](fees.length);\n\n    for (uint i = 0; i < fees.length; i++) {\n      result[i] = fees[i].pct;\n    }\n\n    return result;\n  }\n\n  function burn(address account, uint256 id, uint256 amount)\n    public\n    onlyAdminOrTokenOwner(account)\n  {\n    super._burn(account, id, amount);\n  }\n\n  function burnBatch(address account, uint256[] memory ids, uint256[] memory amounts)\n    public\n    onlyAdminOrTokenOwner(account)\n  {\n    super._burnBatch(account, ids, amounts);\n  }\n}",
  "sourcePath": "/Users/husnain/Desktop/fanbase/packages/ethereum/contracts/solidity/contracts/TokenV1.sol",
  "compiler": {
    "name": "solc",
    "version": "0.8.7+commit.e28d00a7.Emscripten.clang"
  },
  "schemaVersion": "3.4.3",
  "updatedAt": "2021-09-23T08:46:34.406Z",
  "networkType": "ethereum",
  "devdoc": {
    "kind": "dev",
    "methods": {
      "balanceOf(address,uint256)": {
        "details": "See {IERC1155-balanceOf}. Requirements: - `account` cannot be the zero address."
      },
      "balanceOfBatch(address[],uint256[])": {
        "details": "See {IERC1155-balanceOfBatch}. Requirements: - `accounts` and `ids` must have the same length."
      },
      "getRoleAdmin(bytes32)": {
        "details": "Returns the admin role that controls `role`. See {grantRole} and {revokeRole}. To change a role's admin, use {_setRoleAdmin}."
      },
      "grantRole(bytes32,address)": {
        "details": "Grants `role` to `account`. If `account` had not been already granted `role`, emits a {RoleGranted} event. Requirements: - the caller must have ``role``'s admin role."
      },
      "hasRole(bytes32,address)": {
        "details": "Returns `true` if `account` has been granted `role`."
      },
      "isApprovedForAll(address,address)": {
        "details": "See {IERC1155-isApprovedForAll}."
      },
      "renounceRole(bytes32,address)": {
        "details": "Revokes `role` from the calling account. Roles are often managed via {grantRole} and {revokeRole}: this function's purpose is to provide a mechanism for accounts to lose their privileges if they are compromised (such as when a trusted device is misplaced). If the calling account had been granted `role`, emits a {RoleRevoked} event. Requirements: - the caller must be `account`."
      },
      "revokeRole(bytes32,address)": {
        "details": "Revokes `role` from `account`. If `account` had been granted `role`, emits a {RoleRevoked} event. Requirements: - the caller must have ``role``'s admin role."
      },
      "safeBatchTransferFrom(address,address,uint256[],uint256[],bytes)": {
        "details": "See {IERC1155-safeBatchTransferFrom}."
      },
      "safeTransferFrom(address,address,uint256,uint256,bytes)": {
        "details": "See {IERC1155-safeTransferFrom}."
      },
      "setApprovalForAll(address,bool)": {
        "details": "See {IERC1155-setApprovalForAll}."
      }
    },
    "version": 1
  },
  "userdoc": {
    "kind": "user",
    "methods": {},
    "version": 1
  }
}