{
  "contractName": "TokenV1",
  "abi": [
    {
      "inputs": [],
      "stateMutability": "nonpayable",
      "type": "constructor"
    },
    {
      "inputs": [],
      "name": "ApprovalExhausted",
      "type": "error"
    },
    {
      "inputs": [],
      "name": "ApprovalExpired",
      "type": "error"
    },
    {
      "inputs": [],
      "name": "InvalidSignature",
      "type": "error"
    },
    {
      "anonymous": false,
      "inputs": [
        {
          "indexed": true,
          "internalType": "address",
          "name": "account",
          "type": "address"
        },
        {
          "indexed": true,
          "internalType": "address",
          "name": "operator",
          "type": "address"
        },
        {
          "indexed": false,
          "internalType": "bool",
          "name": "approved",
          "type": "bool"
        }
      ],
      "name": "ApprovalForAll",
      "type": "event"
    },
    {
      "anonymous": false,
      "inputs": [
        {
          "indexed": false,
          "internalType": "address",
          "name": "operator",
          "type": "address"
        },
        {
          "indexed": false,
          "internalType": "uint256",
          "name": "id",
          "type": "uint256"
        },
        {
          "components": [
            {
              "internalType": "uint256",
              "name": "dateCreated",
              "type": "uint256"
            },
            {
              "internalType": "address",
              "name": "creator",
              "type": "address"
            },
            {
              "internalType": "uint256",
              "name": "supply",
              "type": "uint256"
            },
            {
              "internalType": "string",
              "name": "metadataUri",
              "type": "string"
            },
            {
              "internalType": "uint256",
              "name": "royaltyPct",
              "type": "uint256"
            }
          ],
          "indexed": false,
          "internalType": "struct TokenV1.Token",
          "name": "token",
          "type": "tuple"
        },
        {
          "indexed": false,
          "internalType": "string",
          "name": "data",
          "type": "string"
        }
      ],
      "name": "Mint",
      "type": "event"
    },
    {
      "anonymous": false,
      "inputs": [
        {
          "indexed": false,
          "internalType": "address",
          "name": "account",
          "type": "address"
        }
      ],
      "name": "Paused",
      "type": "event"
    },
    {
      "anonymous": false,
      "inputs": [
        {
          "indexed": false,
          "internalType": "address",
          "name": "operator",
          "type": "address"
        },
        {
          "indexed": false,
          "internalType": "address",
          "name": "creator",
          "type": "address"
        },
        {
          "indexed": false,
          "internalType": "uint256",
          "name": "supply",
          "type": "uint256"
        },
        {
          "indexed": false,
          "internalType": "string",
          "name": "data",
          "type": "string"
        }
      ],
      "name": "RevokeMint",
      "type": "event"
    },
    {
      "anonymous": false,
      "inputs": [
        {
          "indexed": true,
          "internalType": "bytes32",
          "name": "role",
          "type": "bytes32"
        },
        {
          "indexed": true,
          "internalType": "bytes32",
          "name": "previousAdminRole",
          "type": "bytes32"
        },
        {
          "indexed": true,
          "internalType": "bytes32",
          "name": "newAdminRole",
          "type": "bytes32"
        }
      ],
      "name": "RoleAdminChanged",
      "type": "event"
    },
    {
      "anonymous": false,
      "inputs": [
        {
          "indexed": true,
          "internalType": "bytes32",
          "name": "role",
          "type": "bytes32"
        },
        {
          "indexed": true,
          "internalType": "address",
          "name": "account",
          "type": "address"
        },
        {
          "indexed": true,
          "internalType": "address",
          "name": "sender",
          "type": "address"
        }
      ],
      "name": "RoleGranted",
      "type": "event"
    },
    {
      "anonymous": false,
      "inputs": [
        {
          "indexed": true,
          "internalType": "bytes32",
          "name": "role",
          "type": "bytes32"
        },
        {
          "indexed": true,
          "internalType": "address",
          "name": "account",
          "type": "address"
        },
        {
          "indexed": true,
          "internalType": "address",
          "name": "sender",
          "type": "address"
        }
      ],
      "name": "RoleRevoked",
      "type": "event"
    },
    {
      "anonymous": false,
      "inputs": [
        {
          "indexed": true,
          "internalType": "address",
          "name": "operator",
          "type": "address"
        },
        {
          "indexed": true,
          "internalType": "address",
          "name": "from",
          "type": "address"
        },
        {
          "indexed": true,
          "internalType": "address",
          "name": "to",
          "type": "address"
        },
        {
          "indexed": false,
          "internalType": "uint256[]",
          "name": "ids",
          "type": "uint256[]"
        },
        {
          "indexed": false,
          "internalType": "uint256[]",
          "name": "values",
          "type": "uint256[]"
        }
      ],
      "name": "TransferBatch",
      "type": "event"
    },
    {
      "anonymous": false,
      "inputs": [
        {
          "indexed": true,
          "internalType": "address",
          "name": "operator",
          "type": "address"
        },
        {
          "indexed": true,
          "internalType": "address",
          "name": "from",
          "type": "address"
        },
        {
          "indexed": true,
          "internalType": "address",
          "name": "to",
          "type": "address"
        },
        {
          "indexed": false,
          "internalType": "uint256",
          "name": "id",
          "type": "uint256"
        },
        {
          "indexed": false,
          "internalType": "uint256",
          "name": "value",
          "type": "uint256"
        }
      ],
      "name": "TransferSingle",
      "type": "event"
    },
    {
      "anonymous": false,
      "inputs": [
        {
          "indexed": false,
          "internalType": "string",
          "name": "value",
          "type": "string"
        },
        {
          "indexed": true,
          "internalType": "uint256",
          "name": "id",
          "type": "uint256"
        }
      ],
      "name": "URI",
      "type": "event"
    },
    {
      "anonymous": false,
      "inputs": [
        {
          "indexed": false,
          "internalType": "address",
          "name": "account",
          "type": "address"
        }
      ],
      "name": "Unpaused",
      "type": "event"
    },
    {
      "inputs": [],
      "name": "DEFAULT_ADMIN_ROLE",
      "outputs": [
        {
          "internalType": "bytes32",
          "name": "",
          "type": "bytes32"
        }
      ],
      "stateMutability": "view",
      "type": "function",
      "constant": true
    },
    {
      "inputs": [
        {
          "internalType": "address",
          "name": "account",
          "type": "address"
        },
        {
          "internalType": "uint256",
          "name": "id",
          "type": "uint256"
        }
      ],
      "name": "balanceOf",
      "outputs": [
        {
          "internalType": "uint256",
          "name": "",
          "type": "uint256"
        }
      ],
      "stateMutability": "view",
      "type": "function",
      "constant": true
    },
    {
      "inputs": [
        {
          "internalType": "address[]",
          "name": "accounts",
          "type": "address[]"
        },
        {
          "internalType": "uint256[]",
          "name": "ids",
          "type": "uint256[]"
        }
      ],
      "name": "balanceOfBatch",
      "outputs": [
        {
          "internalType": "uint256[]",
          "name": "",
          "type": "uint256[]"
        }
      ],
      "stateMutability": "view",
      "type": "function",
      "constant": true
    },
    {
      "inputs": [
        {
          "internalType": "bytes32",
          "name": "role",
          "type": "bytes32"
        }
      ],
      "name": "getRoleAdmin",
      "outputs": [
        {
          "internalType": "bytes32",
          "name": "",
          "type": "bytes32"
        }
      ],
      "stateMutability": "view",
      "type": "function",
      "constant": true
    },
    {
      "inputs": [
        {
          "internalType": "bytes32",
          "name": "role",
          "type": "bytes32"
        },
        {
          "internalType": "address",
          "name": "account",
          "type": "address"
        }
      ],
      "name": "grantRole",
      "outputs": [],
      "stateMutability": "nonpayable",
      "type": "function"
    },
    {
      "inputs": [
        {
          "internalType": "bytes32",
          "name": "role",
          "type": "bytes32"
        },
        {
          "internalType": "address",
          "name": "account",
          "type": "address"
        }
      ],
      "name": "hasRole",
      "outputs": [
        {
          "internalType": "bool",
          "name": "",
          "type": "bool"
        }
      ],
      "stateMutability": "view",
      "type": "function",
      "constant": true
    },
    {
      "inputs": [],
      "name": "hundredPct",
      "outputs": [
        {
          "internalType": "uint256",
          "name": "",
          "type": "uint256"
        }
      ],
      "stateMutability": "view",
      "type": "function",
      "constant": true
    },
    {
      "inputs": [
        {
          "internalType": "address",
          "name": "account",
          "type": "address"
        },
        {
          "internalType": "address",
          "name": "operator",
          "type": "address"
        }
      ],
      "name": "isApprovedForAll",
      "outputs": [
        {
          "internalType": "bool",
          "name": "",
          "type": "bool"
        }
      ],
      "stateMutability": "view",
      "type": "function",
      "constant": true
    },
    {
      "inputs": [],
      "name": "name",
      "outputs": [
        {
          "internalType": "string",
          "name": "",
          "type": "string"
        }
      ],
      "stateMutability": "view",
      "type": "function",
      "constant": true
    },
    {
      "inputs": [],
      "name": "paused",
      "outputs": [
        {
          "internalType": "bool",
          "name": "",
          "type": "bool"
        }
      ],
      "stateMutability": "view",
      "type": "function",
      "constant": true
    },
    {
      "inputs": [
        {
          "internalType": "bytes32",
          "name": "role",
          "type": "bytes32"
        },
        {
          "internalType": "address",
          "name": "account",
          "type": "address"
        }
      ],
      "name": "renounceRole",
      "outputs": [],
      "stateMutability": "nonpayable",
      "type": "function"
    },
    {
      "inputs": [
        {
          "internalType": "bytes32",
          "name": "role",
          "type": "bytes32"
        },
        {
          "internalType": "address",
          "name": "account",
          "type": "address"
        }
      ],
      "name": "revokeRole",
      "outputs": [],
      "stateMutability": "nonpayable",
      "type": "function"
    },
    {
      "inputs": [
        {
          "internalType": "address",
          "name": "from",
          "type": "address"
        },
        {
          "internalType": "address",
          "name": "to",
          "type": "address"
        },
        {
          "internalType": "uint256[]",
          "name": "ids",
          "type": "uint256[]"
        },
        {
          "internalType": "uint256[]",
          "name": "amounts",
          "type": "uint256[]"
        },
        {
          "internalType": "bytes",
          "name": "data",
          "type": "bytes"
        }
      ],
      "name": "safeBatchTransferFrom",
      "outputs": [],
      "stateMutability": "nonpayable",
      "type": "function"
    },
    {
      "inputs": [
        {
          "internalType": "address",
          "name": "from",
          "type": "address"
        },
        {
          "internalType": "address",
          "name": "to",
          "type": "address"
        },
        {
          "internalType": "uint256",
          "name": "id",
          "type": "uint256"
        },
        {
          "internalType": "uint256",
          "name": "amount",
          "type": "uint256"
        },
        {
          "internalType": "bytes",
          "name": "data",
          "type": "bytes"
        }
      ],
      "name": "safeTransferFrom",
      "outputs": [],
      "stateMutability": "nonpayable",
      "type": "function"
    },
    {
      "inputs": [
        {
          "internalType": "address",
          "name": "operator",
          "type": "address"
        },
        {
          "internalType": "bool",
          "name": "approved",
          "type": "bool"
        }
      ],
      "name": "setApprovalForAll",
      "outputs": [],
      "stateMutability": "nonpayable",
      "type": "function"
    },
    {
      "inputs": [],
      "name": "version",
      "outputs": [
        {
          "internalType": "string",
          "name": "",
          "type": "string"
        }
      ],
      "stateMutability": "view",
      "type": "function",
      "constant": true
    },
    {
      "inputs": [
        {
          "internalType": "uint256",
          "name": "id",
          "type": "uint256"
        }
      ],
      "name": "uri",
      "outputs": [
        {
          "internalType": "string",
          "name": "",
          "type": "string"
        }
      ],
      "stateMutability": "view",
      "type": "function",
      "constant": true
    },
    {
      "inputs": [
        {
          "internalType": "uint256",
          "name": "id",
          "type": "uint256"
        }
      ],
      "name": "get",
      "outputs": [
        {
          "components": [
            {
              "internalType": "uint256",
              "name": "dateCreated",
              "type": "uint256"
            },
            {
              "internalType": "address",
              "name": "creator",
              "type": "address"
            },
            {
              "internalType": "uint256",
              "name": "supply",
              "type": "uint256"
            },
            {
              "internalType": "string",
              "name": "metadataUri",
              "type": "string"
            },
            {
              "internalType": "uint256",
              "name": "royaltyPct",
              "type": "uint256"
            }
          ],
          "internalType": "struct TokenV1.Token",
          "name": "",
          "type": "tuple"
        }
      ],
      "stateMutability": "view",
      "type": "function",
      "constant": true
    },
    {
      "inputs": [
        {
          "internalType": "uint256",
          "name": "tokenId",
          "type": "uint256"
        },
        {
          "internalType": "uint256",
          "name": "salePrice",
          "type": "uint256"
        }
      ],
      "name": "royaltyInfo",
      "outputs": [
        {
          "internalType": "address",
          "name": "receiver",
          "type": "address"
        },
        {
          "internalType": "uint256",
          "name": "royaltyAmount",
          "type": "uint256"
        }
      ],
      "stateMutability": "view",
      "type": "function",
      "constant": true
    },
    {
      "inputs": [
        {
          "internalType": "bytes4",
          "name": "interfaceId",
          "type": "bytes4"
        }
      ],
      "name": "supportsInterface",
      "outputs": [
        {
          "internalType": "bool",
          "name": "",
          "type": "bool"
        }
      ],
      "stateMutability": "view",
      "type": "function",
      "constant": true
    },
    {
      "inputs": [
        {
          "internalType": "address",
          "name": "creator",
          "type": "address"
        },
        {
          "internalType": "uint256",
          "name": "supply",
          "type": "uint256"
        },
        {
          "internalType": "string",
          "name": "metadataUri",
          "type": "string"
        },
        {
          "internalType": "uint256",
          "name": "royaltyPct",
          "type": "uint256"
        },
        {
          "internalType": "string",
          "name": "data",
          "type": "string"
        },
        {
          "internalType": "uint256",
          "name": "nonce",
          "type": "uint256"
        },
        {
          "internalType": "uint256",
          "name": "deadline",
          "type": "uint256"
        }
      ],
      "name": "mintHash",
      "outputs": [
        {
          "internalType": "bytes32",
          "name": "",
          "type": "bytes32"
        }
      ],
      "stateMutability": "view",
      "type": "function",
      "constant": true
    },
    {
      "inputs": [
        {
          "internalType": "address",
          "name": "creator",
          "type": "address"
        },
        {
          "internalType": "uint256",
          "name": "supply",
          "type": "uint256"
        },
        {
          "internalType": "string",
          "name": "metadataUri",
          "type": "string"
        },
        {
          "internalType": "uint256",
          "name": "royaltyPct",
          "type": "uint256"
        },
        {
          "internalType": "string",
          "name": "data",
          "type": "string"
        },
        {
          "internalType": "uint256",
          "name": "nonce",
          "type": "uint256"
        },
        {
          "internalType": "uint256",
          "name": "deadline",
          "type": "uint256"
        },
        {
          "internalType": "bytes",
          "name": "signature",
          "type": "bytes"
        }
      ],
      "name": "mint",
      "outputs": [],
      "stateMutability": "nonpayable",
      "type": "function"
    },
    {
      "inputs": [
        {
          "internalType": "address",
          "name": "creator",
          "type": "address"
        },
        {
          "internalType": "uint256",
          "name": "supply",
          "type": "uint256"
        },
        {
          "internalType": "string",
          "name": "metadataUri",
          "type": "string"
        },
        {
          "internalType": "uint256",
          "name": "royaltyPct",
          "type": "uint256"
        },
        {
          "internalType": "string",
          "name": "data",
          "type": "string"
        },
        {
          "internalType": "uint256",
          "name": "nonce",
          "type": "uint256"
        },
        {
          "internalType": "uint256",
          "name": "deadline",
          "type": "uint256"
        }
      ],
      "name": "revokeMintApproval",
      "outputs": [],
      "stateMutability": "nonpayable",
      "type": "function"
    },
    {
      "inputs": [
        {
          "internalType": "bool",
          "name": "paused",
          "type": "bool"
        }
      ],
      "name": "setPaused",
      "outputs": [],
      "stateMutability": "nonpayable",
      "type": "function"
    }
  ],
  "bytecode": "0x608060405260006005553480156200001657600080fd5b50604051806020016040528060008152506200003881620000d660201b60201c565b506000600460006101000a81548160ff021916908315150217905550620000696000801b33620000f260201b60201c565b6200009b7f9f2df0fed2c77648de5860a4cc508cd0818c85b8b8a1ab4ceeef8d981c8956a633620000f260201b60201c565b620000d07f9f2df0fed2c77648de5860a4cc508cd0818c85b8b8a1ab4ceeef8d981c8956a66000801b6200010860201b60201c565b62000402565b8060039080519060200190620000ee929190620002ed565b5050565b6200010482826200016b60201b60201c565b5050565b60006200011b836200025c60201b60201c565b905081600080858152602001908152602001600020600101819055508181847fbd79b86ffe0ab8e8776151514217cd7cacd52c909f66475c3af44e129f0b00ff60405160405180910390a4505050565b6200017d82826200027b60201b60201c565b6200025857600160008084815260200190815260200160002060000160008373ffffffffffffffffffffffffffffffffffffffff1673ffffffffffffffffffffffffffffffffffffffff16815260200190815260200160002060006101000a81548160ff021916908315150217905550620001fd620002e560201b60201c565b73ffffffffffffffffffffffffffffffffffffffff168173ffffffffffffffffffffffffffffffffffffffff16837f2f8788117e7eff1d82e926ec794901d17c78024a50270940304540a733656f0d60405160405180910390a45b5050565b6000806000838152602001908152602001600020600101549050919050565b600080600084815260200190815260200160002060000160008373ffffffffffffffffffffffffffffffffffffffff1673ffffffffffffffffffffffffffffffffffffffff16815260200190815260200160002060009054906101000a900460ff16905092915050565b600033905090565b828054620002fb90620003cc565b90600052602060002090601f0160209004810192826200031f57600085556200036b565b82601f106200033a57805160ff19168380011785556200036b565b828001600101855582156200036b579182015b828111156200036a5782518255916020019190600101906200034d565b5b5090506200037a91906200037e565b5090565b5b80821115620003995760008160009055506001016200037f565b5090565b7f4e487b7100000000000000000000000000000000000000000000000000000000600052602260045260246000fd5b60006002820490506001821680620003e557607f821691505b60208210811415620003fc57620003fb6200039d565b5b50919050565b614cc480620004126000396000f3fe608060405234801561001057600080fd5b50600436106101575760003560e01c806354fd4d50116100c3578063a22cb4651161007c578063a22cb465146103fd578063d428dc2b14610419578063d547741f14610437578063dd5025f214610453578063e985e9c514610483578063f242432a146104b357610157565b806354fd4d50146103275780635c975abb1461034557806391d14854146103635780639507d39a146103935780639c63030d146103c3578063a217fddf146103df57610157565b80632a55205a116101155780632a55205a146102565780632eb2c2d6146102875780632f2ff15d146102a357806336568abe146102bf57806340f3bd4f146102db5780634e1273f4146102f757610157565b8062fdd58e1461015c57806301ffc9a71461018c57806306fdde03146101bc5780630e89341c146101da57806316c38b3c1461020a578063248a9ca314610226575b600080fd5b61017660048036038101906101719190612c94565b6104cf565b6040516101839190612ce3565b60405180910390f35b6101a660048036038101906101a19190612d56565b610599565b6040516101b39190612d9e565b60405180910390f35b6101c4610613565b6040516101d19190612e52565b60405180910390f35b6101f460048036038101906101ef9190612e74565b61064c565b6040516102019190612e52565b60405180910390f35b610224600480360381019061021f9190612ecd565b6106f4565b005b610240600480360381019061023b9190612f30565b610729565b60405161024d9190612f6c565b60405180910390f35b610270600480360381019061026b9190612f87565b610748565b60405161027e929190612fd6565b60405180910390f35b6102a1600480360381019061029c91906131fc565b6107bc565b005b6102bd60048036038101906102b891906132cb565b61085d565b005b6102d960048036038101906102d491906132cb565b610886565b005b6102f560048036038101906102f09190613366565b610909565b005b610311600480360381019061030c919061353c565b610c80565b60405161031e9190613672565b60405180910390f35b61032f610d99565b60405161033c9190612e52565b60405180910390f35b61034d610dd2565b60405161035a9190612d9e565b60405180910390f35b61037d600480360381019061037891906132cb565b610de9565b60405161038a9190612d9e565b60405180910390f35b6103ad60048036038101906103a89190612e74565b610e53565b6040516103ba9190613763565b60405180910390f35b6103dd60048036038101906103d89190613785565b610f86565b005b6103e761109d565b6040516103f49190612f6c565b60405180910390f35b61041760048036038101906104129190613867565b6110a4565b005b6104216110ba565b60405161042e9190612ce3565b60405180910390f35b610451600480360381019061044c91906132cb565b6110c0565b005b61046d60048036038101906104689190613785565b6110e9565b60405161047a9190612f6c565b60405180910390f35b61049d600480360381019061049891906138a7565b611133565b6040516104aa9190612d9e565b60405180910390f35b6104cd60048036038101906104c891906138e7565b6111c7565b005b60008073ffffffffffffffffffffffffffffffffffffffff168373ffffffffffffffffffffffffffffffffffffffff161415610540576040517f08c379a0000000000000000000000000000000000000000000000000000000008152600401610537906139f0565b60405180910390fd5b6001600083815260200190815260200160002060008473ffffffffffffffffffffffffffffffffffffffff1673ffffffffffffffffffffffffffffffffffffffff16815260200190815260200160002054905092915050565b60007f2a55205a000000000000000000000000000000000000000000000000000000007bffffffffffffffffffffffffffffffffffffffffffffffffffffffff1916827bffffffffffffffffffffffffffffffffffffffffffffffffffffffff1916148061060c575061060b82611268565b5b9050919050565b6040518060400160405280601081526020017f46657374204d756c74692d546f6b656e0000000000000000000000000000000081525081565b606060066000838152602001908152602001600020600301805461066f90613a3f565b80601f016020809104026020016040519081016040528092919081815260200182805461069b90613a3f565b80156106e85780601f106106bd576101008083540402835291602001916106e8565b820191906000526020600020905b8154815290600101906020018083116106cb57829003601f168201915b50505050509050919050565b6000801b6107098161070461134a565b611352565b811561071c576107176113ef565b610725565b610724611492565b5b5050565b6000806000838152602001908152602001600020600101549050919050565b6000806006600085815260200190815260200160002060010160009054906101000a900473ffffffffffffffffffffffffffffffffffffffff1691506127106006600086815260200190815260200160002060040154846107a99190613aa0565b6107b39190613b29565b90509250929050565b6107c461134a565b73ffffffffffffffffffffffffffffffffffffffff168573ffffffffffffffffffffffffffffffffffffffff16148061080a57506108098561080461134a565b611133565b5b610849576040517f08c379a000000000000000000000000000000000000000000000000000000000815260040161084090613bcc565b60405180910390fd5b6108568585858585611534565b5050505050565b61086682610729565b6108778161087261134a565b611352565b610881838361184b565b505050565b61088e61134a565b73ffffffffffffffffffffffffffffffffffffffff168173ffffffffffffffffffffffffffffffffffffffff16146108fb576040517f08c379a00000000000000000000000000000000000000000000000000000000081526004016108f290613c5e565b60405180910390fd5b610905828261192b565b5050565b610911610dd2565b15610951576040517f08c379a000000000000000000000000000000000000000000000000000000000815260040161094890613cca565b60405180910390fd5b42821161098a576040517f955b334a00000000000000000000000000000000000000000000000000000000815260040160405180910390fd5b600061099d8b8b8b8b8b8b8b8b8b6110e9565b90506007600082815260200190815260200160002060009054906101000a900460ff16156109f7576040517fb9ae9fd800000000000000000000000000000000000000000000000000000000815260040160405180910390fd5b6000610a1483610a0684611a0c565b611a3c90919063ffffffff16565b9050600073ffffffffffffffffffffffffffffffffffffffff168173ffffffffffffffffffffffffffffffffffffffff161480610a785750610a767f9f2df0fed2c77648de5860a4cc508cd0818c85b8b8a1ab4ceeef8d981c8956a682610de9565b155b15610aaf576040517f8baa579f00000000000000000000000000000000000000000000000000000000815260040160405180910390fd5b60016007600084815260200190815260200160002060006101000a81548160ff02191690831515021790555060056000815480929190610aee90613cea565b9190505550610b108c6005548d60405180602001604052806000815250611a63565b60006040518060a001604052804281526020018e73ffffffffffffffffffffffffffffffffffffffff1681526020018d81526020018c8c8080601f016020809104026020016040519081016040528093929190818152602001838380828437600081840152601f19601f8201169050808301925050505050505081526020018a8152509050806006600060055481526020019081526020016000206000820151816000015560208201518160010160006101000a81548173ffffffffffffffffffffffffffffffffffffffff021916908373ffffffffffffffffffffffffffffffffffffffff160217905550604082015181600201556060820151816003019080519060200190610c22929190612b04565b50608082015181600401559050507f970b257bd2218b82d499191dec6408b46d0f2a1c723891dba9249f76fde14fed33600554838b8b604051610c69959493929190613d60565b60405180910390a150505050505050505050505050565b60608151835114610cc6576040517f08c379a0000000000000000000000000000000000000000000000000000000008152600401610cbd90613e27565b60405180910390fd5b6000835167ffffffffffffffff811115610ce357610ce2613004565b5b604051908082528060200260200182016040528015610d115781602001602082028036833780820191505090505b50905060005b8451811015610d8e57610d5e858281518110610d3657610d35613e47565b5b6020026020010151858381518110610d5157610d50613e47565b5b60200260200101516104cf565b828281518110610d7157610d70613e47565b5b60200260200101818152505080610d8790613cea565b9050610d17565b508091505092915050565b6040518060400160405280600381526020017f312e30000000000000000000000000000000000000000000000000000000000081525081565b6000600460009054906101000a900460ff16905090565b600080600084815260200190815260200160002060000160008373ffffffffffffffffffffffffffffffffffffffff1673ffffffffffffffffffffffffffffffffffffffff16815260200190815260200160002060009054906101000a900460ff16905092915050565b610e5b612b8a565b600660008381526020019081526020016000206040518060a0016040529081600082015481526020016001820160009054906101000a900473ffffffffffffffffffffffffffffffffffffffff1673ffffffffffffffffffffffffffffffffffffffff1673ffffffffffffffffffffffffffffffffffffffff16815260200160028201548152602001600382018054610ef390613a3f565b80601f0160208091040260200160405190810160405280929190818152602001828054610f1f90613a3f565b8015610f6c5780601f10610f4157610100808354040283529160200191610f6c565b820191906000526020600020905b815481529060010190602001808311610f4f57829003601f168201915b505050505081526020016004820154815250509050919050565b7f9f2df0fed2c77648de5860a4cc508cd0818c85b8b8a1ab4ceeef8d981c8956a6610fb881610fb361134a565b611352565b6000610fcb8b8b8b8b8b8b8b8b8b6110e9565b90506007600082815260200190815260200160002060009054906101000a900460ff1615611025576040517fb9ae9fd800000000000000000000000000000000000000000000000000000000815260040160405180910390fd5b60016007600083815260200190815260200160002060006101000a81548160ff0219169083151502179055507f4fbc860d2cbc005395b0c8062b69f6f63fa32d000f1f3822605e5bf5d1558654338c8c8989604051611088959493929190613e76565b60405180910390a15050505050505050505050565b6000801b81565b6110b66110af61134a565b8383611bfa565b5050565b61271081565b6110c982610729565b6110da816110d561134a565b611352565b6110e4838361192b565b505050565b6000308a8a8a8a8a8a8a8a8a60405160200161110e9a99989796959493929190613f5d565b6040516020818303038152906040528051906020012090509998505050505050505050565b6000600260008473ffffffffffffffffffffffffffffffffffffffff1673ffffffffffffffffffffffffffffffffffffffff16815260200190815260200160002060008373ffffffffffffffffffffffffffffffffffffffff1673ffffffffffffffffffffffffffffffffffffffff16815260200190815260200160002060009054906101000a900460ff16905092915050565b6111cf61134a565b73ffffffffffffffffffffffffffffffffffffffff168573ffffffffffffffffffffffffffffffffffffffff16148061121557506112148561120f61134a565b611133565b5b611254576040517f08c379a000000000000000000000000000000000000000000000000000000000815260040161124b9061405d565b60405180910390fd5b6112618585858585611d67565b5050505050565b60007fd9b67a26000000000000000000000000000000000000000000000000000000007bffffffffffffffffffffffffffffffffffffffffffffffffffffffff1916827bffffffffffffffffffffffffffffffffffffffffffffffffffffffff1916148061133357507f0e89341c000000000000000000000000000000000000000000000000000000007bffffffffffffffffffffffffffffffffffffffffffffffffffffffff1916827bffffffffffffffffffffffffffffffffffffffffffffffffffffffff1916145b80611343575061134282611fec565b5b9050919050565b600033905090565b61135c8282610de9565b6113eb576113818173ffffffffffffffffffffffffffffffffffffffff166014612066565b61138f8360001c6020612066565b6040516020016113a0929190614146565b6040516020818303038152906040526040517f08c379a00000000000000000000000000000000000000000000000000000000081526004016113e29190612e52565b60405180910390fd5b5050565b6113f7610dd2565b15611437576040517f08c379a000000000000000000000000000000000000000000000000000000000815260040161142e90613cca565b60405180910390fd5b6001600460006101000a81548160ff0219169083151502179055507f62e78cea01bee320cd4e420270b5ea74000d11b0c9f74754ebdbfc544b05a25861147b61134a565b6040516114889190614180565b60405180910390a1565b61149a610dd2565b6114d9576040517f08c379a00000000000000000000000000000000000000000000000000000000081526004016114d0906141e7565b60405180910390fd5b6000600460006101000a81548160ff0219169083151502179055507f5db9ee0a495bf2e6ff9c91a7834c1ba4fdd244a5e8aa4e537bd38aeae4b073aa61151d61134a565b60405161152a9190614180565b60405180910390a1565b8151835114611578576040517f08c379a000000000000000000000000000000000000000000000000000000000815260040161156f90614279565b60405180910390fd5b600073ffffffffffffffffffffffffffffffffffffffff168473ffffffffffffffffffffffffffffffffffffffff1614156115e8576040517f08c379a00000000000000000000000000000000000000000000000000000000081526004016115df9061430b565b60405180910390fd5b60006115f261134a565b90506116028187878787876122a2565b60005b84518110156117b657600085828151811061162357611622613e47565b5b60200260200101519050600085838151811061164257611641613e47565b5b6020026020010151905060006001600084815260200190815260200160002060008b73ffffffffffffffffffffffffffffffffffffffff1673ffffffffffffffffffffffffffffffffffffffff168152602001908152602001600020549050818110156116e4576040517f08c379a00000000000000000000000000000000000000000000000000000000081526004016116db9061439d565b60405180910390fd5b8181036001600085815260200190815260200160002060008c73ffffffffffffffffffffffffffffffffffffffff1673ffffffffffffffffffffffffffffffffffffffff16815260200190815260200160002081905550816001600085815260200190815260200160002060008b73ffffffffffffffffffffffffffffffffffffffff1673ffffffffffffffffffffffffffffffffffffffff168152602001908152602001600020600082825461179b91906143bd565b92505081905550505050806117af90613cea565b9050611605565b508473ffffffffffffffffffffffffffffffffffffffff168673ffffffffffffffffffffffffffffffffffffffff168273ffffffffffffffffffffffffffffffffffffffff167f4a39dc06d4c0dbc64b70af90fd698a233a518aa5d07e595d983b8c0526c8f7fb878760405161182d929190614413565b60405180910390a46118438187878787876122aa565b505050505050565b6118558282610de9565b61192757600160008084815260200190815260200160002060000160008373ffffffffffffffffffffffffffffffffffffffff1673ffffffffffffffffffffffffffffffffffffffff16815260200190815260200160002060006101000a81548160ff0219169083151502179055506118cc61134a565b73ffffffffffffffffffffffffffffffffffffffff168173ffffffffffffffffffffffffffffffffffffffff16837f2f8788117e7eff1d82e926ec794901d17c78024a50270940304540a733656f0d60405160405180910390a45b5050565b6119358282610de9565b15611a0857600080600084815260200190815260200160002060000160008373ffffffffffffffffffffffffffffffffffffffff1673ffffffffffffffffffffffffffffffffffffffff16815260200190815260200160002060006101000a81548160ff0219169083151502179055506119ad61134a565b73ffffffffffffffffffffffffffffffffffffffff168173ffffffffffffffffffffffffffffffffffffffff16837ff6391f5c32d9c69d2a47ea670b442974b53935d1edc7fd64eb21e047a839171b60405160405180910390a45b5050565b600081604051602001611a1f91906144b7565b604051602081830303815290604052805190602001209050919050565b6000806000611a4b8585612482565b91509150611a5881612505565b819250505092915050565b600073ffffffffffffffffffffffffffffffffffffffff168473ffffffffffffffffffffffffffffffffffffffff161415611ad3576040517f08c379a0000000000000000000000000000000000000000000000000000000008152600401611aca9061454f565b60405180910390fd5b6000611add61134a565b9050611afe81600087611aef886126da565b611af8886126da565b876122a2565b826001600086815260200190815260200160002060008773ffffffffffffffffffffffffffffffffffffffff1673ffffffffffffffffffffffffffffffffffffffff1681526020019081526020016000206000828254611b5e91906143bd565b925050819055508473ffffffffffffffffffffffffffffffffffffffff16600073ffffffffffffffffffffffffffffffffffffffff168273ffffffffffffffffffffffffffffffffffffffff167fc3d58168c5ae7397731d063d5bbf3d657854427343f4c083240f7aacaa2d0f628787604051611bdc92919061456f565b60405180910390a4611bf381600087878787612754565b5050505050565b8173ffffffffffffffffffffffffffffffffffffffff168373ffffffffffffffffffffffffffffffffffffffff161415611c69576040517f08c379a0000000000000000000000000000000000000000000000000000000008152600401611c609061460a565b60405180910390fd5b80600260008573ffffffffffffffffffffffffffffffffffffffff1673ffffffffffffffffffffffffffffffffffffffff16815260200190815260200160002060008473ffffffffffffffffffffffffffffffffffffffff1673ffffffffffffffffffffffffffffffffffffffff16815260200190815260200160002060006101000a81548160ff0219169083151502179055508173ffffffffffffffffffffffffffffffffffffffff168373ffffffffffffffffffffffffffffffffffffffff167f17307eab39ab6107e8899845ad3d59bd9653f200f220920489ca2b5937696c3183604051611d5a9190612d9e565b60405180910390a3505050565b600073ffffffffffffffffffffffffffffffffffffffff168473ffffffffffffffffffffffffffffffffffffffff161415611dd7576040517f08c379a0000000000000000000000000000000000000000000000000000000008152600401611dce9061430b565b60405180910390fd5b6000611de161134a565b9050611e01818787611df2886126da565b611dfb886126da565b876122a2565b60006001600086815260200190815260200160002060008873ffffffffffffffffffffffffffffffffffffffff1673ffffffffffffffffffffffffffffffffffffffff16815260200190815260200160002054905083811015611e99576040517f08c379a0000000000000000000000000000000000000000000000000000000008152600401611e909061439d565b60405180910390fd5b8381036001600087815260200190815260200160002060008973ffffffffffffffffffffffffffffffffffffffff1673ffffffffffffffffffffffffffffffffffffffff16815260200190815260200160002081905550836001600087815260200190815260200160002060008873ffffffffffffffffffffffffffffffffffffffff1673ffffffffffffffffffffffffffffffffffffffff1681526020019081526020016000206000828254611f5091906143bd565b925050819055508573ffffffffffffffffffffffffffffffffffffffff168773ffffffffffffffffffffffffffffffffffffffff168373ffffffffffffffffffffffffffffffffffffffff167fc3d58168c5ae7397731d063d5bbf3d657854427343f4c083240f7aacaa2d0f628888604051611fcd92919061456f565b60405180910390a4611fe3828888888888612754565b50505050505050565b60007f7965db0b000000000000000000000000000000000000000000000000000000007bffffffffffffffffffffffffffffffffffffffffffffffffffffffff1916827bffffffffffffffffffffffffffffffffffffffffffffffffffffffff1916148061205f575061205e8261292c565b5b9050919050565b6060600060028360026120799190613aa0565b61208391906143bd565b67ffffffffffffffff81111561209c5761209b613004565b5b6040519080825280601f01601f1916602001820160405280156120ce5781602001600182028036833780820191505090505b5090507f30000000000000000000000000000000000000000000000000000000000000008160008151811061210657612105613e47565b5b60200101907effffffffffffffffffffffffffffffffffffffffffffffffffffffffffffff1916908160001a9053507f78000000000000000000000000000000000000000000000000000000000000008160018151811061216a57612169613e47565b5b60200101907effffffffffffffffffffffffffffffffffffffffffffffffffffffffffffff1916908160001a905350600060018460026121aa9190613aa0565b6121b491906143bd565b90505b6001811115612254577f3031323334353637383961626364656600000000000000000000000000000000600f8616601081106121f6576121f5613e47565b5b1a60f81b82828151811061220d5761220c613e47565b5b60200101907effffffffffffffffffffffffffffffffffffffffffffffffffffffffffffff1916908160001a905350600485901c94508061224d9061462a565b90506121b7565b5060008414612298576040517f08c379a000000000000000000000000000000000000000000000000000000000815260040161228f906146a0565b60405180910390fd5b8091505092915050565b505050505050565b6122c98473ffffffffffffffffffffffffffffffffffffffff16612996565b1561247a578373ffffffffffffffffffffffffffffffffffffffff1663bc197c8187878686866040518663ffffffff1660e01b815260040161230f959493929190614715565b6020604051808303816000875af192505050801561234b57506040513d601f19601f820116820180604052508101906123489190614792565b60015b6123f1576123576147cc565b806308c379a014156123b4575061236c6147ee565b8061237757506123b6565b806040517f08c379a00000000000000000000000000000000000000000000000000000000081526004016123ab9190612e52565b60405180910390fd5b505b6040517f08c379a00000000000000000000000000000000000000000000000000000000081526004016123e8906148f6565b60405180910390fd5b63bc197c8160e01b7bffffffffffffffffffffffffffffffffffffffffffffffffffffffff1916817bffffffffffffffffffffffffffffffffffffffffffffffffffffffff191614612478576040517f08c379a000000000000000000000000000000000000000000000000000000000815260040161246f90614988565b60405180910390fd5b505b505050505050565b6000806041835114156124c45760008060006020860151925060408601519150606086015160001a90506124b8878285856129a9565b945094505050506124fe565b6040835114156124f55760008060208501519150604085015190506124ea868383612ab6565b9350935050506124fe565b60006002915091505b9250929050565b60006004811115612519576125186149a8565b5b81600481111561252c5761252b6149a8565b5b1415612537576126d7565b6001600481111561254b5761254a6149a8565b5b81600481111561255e5761255d6149a8565b5b141561259f576040517f08c379a000000000000000000000000000000000000000000000000000000000815260040161259690614a23565b60405180910390fd5b600260048111156125b3576125b26149a8565b5b8160048111156125c6576125c56149a8565b5b1415612607576040517f08c379a00000000000000000000000000000000000000000000000000000000081526004016125fe90614a8f565b60405180910390fd5b6003600481111561261b5761261a6149a8565b5b81600481111561262e5761262d6149a8565b5b141561266f576040517f08c379a000000000000000000000000000000000000000000000000000000000815260040161266690614b21565b60405180910390fd5b600480811115612682576126816149a8565b5b816004811115612695576126946149a8565b5b14156126d6576040517f08c379a00000000000000000000000000000000000000000000000000000000081526004016126cd90614bb3565b60405180910390fd5b5b50565b60606000600167ffffffffffffffff8111156126f9576126f8613004565b5b6040519080825280602002602001820160405280156127275781602001602082028036833780820191505090505b509050828160008151811061273f5761273e613e47565b5b60200260200101818152505080915050919050565b6127738473ffffffffffffffffffffffffffffffffffffffff16612996565b15612924578373ffffffffffffffffffffffffffffffffffffffff1663f23a6e6187878686866040518663ffffffff1660e01b81526004016127b9959493929190614bd3565b6020604051808303816000875af19250505080156127f557506040513d601f19601f820116820180604052508101906127f29190614792565b60015b61289b576128016147cc565b806308c379a0141561285e57506128166147ee565b806128215750612860565b806040517f08c379a00000000000000000000000000000000000000000000000000000000081526004016128559190612e52565b60405180910390fd5b505b6040517f08c379a0000000000000000000000000000000000000000000000000000000008152600401612892906148f6565b60405180910390fd5b63f23a6e6160e01b7bffffffffffffffffffffffffffffffffffffffffffffffffffffffff1916817bffffffffffffffffffffffffffffffffffffffffffffffffffffffff191614612922576040517f08c379a000000000000000000000000000000000000000000000000000000000815260040161291990614988565b60405180910390fd5b505b505050505050565b60007f01ffc9a7000000000000000000000000000000000000000000000000000000007bffffffffffffffffffffffffffffffffffffffffffffffffffffffff1916827bffffffffffffffffffffffffffffffffffffffffffffffffffffffff1916149050919050565b600080823b905060008111915050919050565b6000807f7fffffffffffffffffffffffffffffff5d576e7357a4501ddfe92f46681b20a08360001c11156129e4576000600391509150612aad565b601b8560ff16141580156129fc5750601c8560ff1614155b15612a0e576000600491509150612aad565b600060018787878760405160008152602001604052604051612a339493929190614c49565b6020604051602081039080840390855afa158015612a55573d6000803e3d6000fd5b505050602060405103519050600073ffffffffffffffffffffffffffffffffffffffff168173ffffffffffffffffffffffffffffffffffffffff161415612aa457600060019250925050612aad565b80600092509250505b94509492505050565b6000806000807f7fffffffffffffffffffffffffffffffffffffffffffffffffffffffffffffff85169150601b8560ff1c019050612af6878288856129a9565b935093505050935093915050565b828054612b1090613a3f565b90600052602060002090601f016020900481019282612b325760008555612b79565b82601f10612b4b57805160ff1916838001178555612b79565b82800160010185558215612b79579182015b82811115612b78578251825591602001919060010190612b5d565b5b509050612b869190612bcf565b5090565b6040518060a0016040528060008152602001600073ffffffffffffffffffffffffffffffffffffffff1681526020016000815260200160608152602001600081525090565b5b80821115612be8576000816000905550600101612bd0565b5090565b6000604051905090565b600080fd5b600080fd5b600073ffffffffffffffffffffffffffffffffffffffff82169050919050565b6000612c2b82612c00565b9050919050565b612c3b81612c20565b8114612c4657600080fd5b50565b600081359050612c5881612c32565b92915050565b6000819050919050565b612c7181612c5e565b8114612c7c57600080fd5b50565b600081359050612c8e81612c68565b92915050565b60008060408385031215612cab57612caa612bf6565b5b6000612cb985828601612c49565b9250506020612cca85828601612c7f565b9150509250929050565b612cdd81612c5e565b82525050565b6000602082019050612cf86000830184612cd4565b92915050565b60007fffffffff0000000000000000000000000000000000000000000000000000000082169050919050565b612d3381612cfe565b8114612d3e57600080fd5b50565b600081359050612d5081612d2a565b92915050565b600060208284031215612d6c57612d6b612bf6565b5b6000612d7a84828501612d41565b91505092915050565b60008115159050919050565b612d9881612d83565b82525050565b6000602082019050612db36000830184612d8f565b92915050565b600081519050919050565b600082825260208201905092915050565b60005b83811015612df3578082015181840152602081019050612dd8565b83811115612e02576000848401525b50505050565b6000601f19601f8301169050919050565b6000612e2482612db9565b612e2e8185612dc4565b9350612e3e818560208601612dd5565b612e4781612e08565b840191505092915050565b60006020820190508181036000830152612e6c8184612e19565b905092915050565b600060208284031215612e8a57612e89612bf6565b5b6000612e9884828501612c7f565b91505092915050565b612eaa81612d83565b8114612eb557600080fd5b50565b600081359050612ec781612ea1565b92915050565b600060208284031215612ee357612ee2612bf6565b5b6000612ef184828501612eb8565b91505092915050565b6000819050919050565b612f0d81612efa565b8114612f1857600080fd5b50565b600081359050612f2a81612f04565b92915050565b600060208284031215612f4657612f45612bf6565b5b6000612f5484828501612f1b565b91505092915050565b612f6681612efa565b82525050565b6000602082019050612f816000830184612f5d565b92915050565b60008060408385031215612f9e57612f9d612bf6565b5b6000612fac85828601612c7f565b9250506020612fbd85828601612c7f565b9150509250929050565b612fd081612c20565b82525050565b6000604082019050612feb6000830185612fc7565b612ff86020830184612cd4565b9392505050565b600080fd5b7f4e487b7100000000000000000000000000000000000000000000000000000000600052604160045260246000fd5b61303c82612e08565b810181811067ffffffffffffffff8211171561305b5761305a613004565b5b80604052505050565b600061306e612bec565b905061307a8282613033565b919050565b600067ffffffffffffffff82111561309a57613099613004565b5b602082029050602081019050919050565b600080fd5b60006130c36130be8461307f565b613064565b905080838252602082019050602084028301858111156130e6576130e56130ab565b5b835b8181101561310f57806130fb8882612c7f565b8452602084019350506020810190506130e8565b5050509392505050565b600082601f83011261312e5761312d612fff565b5b813561313e8482602086016130b0565b91505092915050565b600080fd5b600067ffffffffffffffff82111561316757613166613004565b5b61317082612e08565b9050602081019050919050565b82818337600083830152505050565b600061319f61319a8461314c565b613064565b9050828152602081018484840111156131bb576131ba613147565b5b6131c684828561317d565b509392505050565b600082601f8301126131e3576131e2612fff565b5b81356131f384826020860161318c565b91505092915050565b600080600080600060a0868803121561321857613217612bf6565b5b600061322688828901612c49565b955050602061323788828901612c49565b945050604086013567ffffffffffffffff81111561325857613257612bfb565b5b61326488828901613119565b935050606086013567ffffffffffffffff81111561328557613284612bfb565b5b61329188828901613119565b925050608086013567ffffffffffffffff8111156132b2576132b1612bfb565b5b6132be888289016131ce565b9150509295509295909350565b600080604083850312156132e2576132e1612bf6565b5b60006132f085828601612f1b565b925050602061330185828601612c49565b9150509250929050565b600080fd5b60008083601f84011261332657613325612fff565b5b8235905067ffffffffffffffff8111156133435761334261330b565b5b60208301915083600182028301111561335f5761335e6130ab565b5b9250929050565b6000806000806000806000806000806101008b8d03121561338a57613389612bf6565b5b60006133988d828e01612c49565b9a505060206133a98d828e01612c7f565b99505060408b013567ffffffffffffffff8111156133ca576133c9612bfb565b5b6133d68d828e01613310565b985098505060606133e98d828e01612c7f565b96505060808b013567ffffffffffffffff81111561340a57613409612bfb565b5b6134168d828e01613310565b955095505060a06134298d828e01612c7f565b93505060c061343a8d828e01612c7f565b92505060e08b013567ffffffffffffffff81111561345b5761345a612bfb565b5b6134678d828e016131ce565b9150509295989b9194979a5092959850565b600067ffffffffffffffff82111561349457613493613004565b5b602082029050602081019050919050565b60006134b86134b384613479565b613064565b905080838252602082019050602084028301858111156134db576134da6130ab565b5b835b8181101561350457806134f08882612c49565b8452602084019350506020810190506134dd565b5050509392505050565b600082601f83011261352357613522612fff565b5b81356135338482602086016134a5565b91505092915050565b6000806040838503121561355357613552612bf6565b5b600083013567ffffffffffffffff81111561357157613570612bfb565b5b61357d8582860161350e565b925050602083013567ffffffffffffffff81111561359e5761359d612bfb565b5b6135aa85828601613119565b9150509250929050565b600081519050919050565b600082825260208201905092915050565b6000819050602082019050919050565b6135e981612c5e565b82525050565b60006135fb83836135e0565b60208301905092915050565b6000602082019050919050565b600061361f826135b4565b61362981856135bf565b9350613634836135d0565b8060005b8381101561366557815161364c88826135ef565b975061365783613607565b925050600181019050613638565b5085935050505092915050565b6000602082019050818103600083015261368c8184613614565b905092915050565b61369d81612c20565b82525050565b600082825260208201905092915050565b60006136bf82612db9565b6136c981856136a3565b93506136d9818560208601612dd5565b6136e281612e08565b840191505092915050565b600060a08301600083015161370560008601826135e0565b5060208301516137186020860182613694565b50604083015161372b60408601826135e0565b506060830151848203606086015261374382826136b4565b915050608083015161375860808601826135e0565b508091505092915050565b6000602082019050818103600083015261377d81846136ed565b905092915050565b600080600080600080600080600060e08a8c0312156137a7576137a6612bf6565b5b60006137b58c828d01612c49565b99505060206137c68c828d01612c7f565b98505060408a013567ffffffffffffffff8111156137e7576137e6612bfb565b5b6137f38c828d01613310565b975097505060606138068c828d01612c7f565b95505060808a013567ffffffffffffffff81111561382757613826612bfb565b5b6138338c828d01613310565b945094505060a06138468c828d01612c7f565b92505060c06138578c828d01612c7f565b9150509295985092959850929598565b6000806040838503121561387e5761387d612bf6565b5b600061388c85828601612c49565b925050602061389d85828601612eb8565b9150509250929050565b600080604083850312156138be576138bd612bf6565b5b60006138cc85828601612c49565b92505060206138dd85828601612c49565b9150509250929050565b600080600080600060a0868803121561390357613902612bf6565b5b600061391188828901612c49565b955050602061392288828901612c49565b945050604061393388828901612c7f565b935050606061394488828901612c7f565b925050608086013567ffffffffffffffff81111561396557613964612bfb565b5b613971888289016131ce565b9150509295509295909350565b7f455243313135353a2062616c616e636520717565727920666f7220746865207a60008201527f65726f2061646472657373000000000000000000000000000000000000000000602082015250565b60006139da602b83612dc4565b91506139e58261397e565b604082019050919050565b60006020820190508181036000830152613a09816139cd565b9050919050565b7f4e487b7100000000000000000000000000000000000000000000000000000000600052602260045260246000fd5b60006002820490506001821680613a5757607f821691505b60208210811415613a6b57613a6a613a10565b5b50919050565b7f4e487b7100000000000000000000000000000000000000000000000000000000600052601160045260246000fd5b6000613aab82612c5e565b9150613ab683612c5e565b9250817fffffffffffffffffffffffffffffffffffffffffffffffffffffffffffffffff0483118215151615613aef57613aee613a71565b5b828202905092915050565b7f4e487b7100000000000000000000000000000000000000000000000000000000600052601260045260246000fd5b6000613b3482612c5e565b9150613b3f83612c5e565b925082613b4f57613b4e613afa565b5b828204905092915050565b7f455243313135353a207472616e736665722063616c6c6572206973206e6f742060008201527f6f776e6572206e6f7220617070726f7665640000000000000000000000000000602082015250565b6000613bb6603283612dc4565b9150613bc182613b5a565b604082019050919050565b60006020820190508181036000830152613be581613ba9565b9050919050565b7f416363657373436f6e74726f6c3a2063616e206f6e6c792072656e6f756e636560008201527f20726f6c657320666f722073656c660000000000000000000000000000000000602082015250565b6000613c48602f83612dc4565b9150613c5382613bec565b604082019050919050565b60006020820190508181036000830152613c7781613c3b565b9050919050565b7f5061757361626c653a2070617573656400000000000000000000000000000000600082015250565b6000613cb4601083612dc4565b9150613cbf82613c7e565b602082019050919050565b60006020820190508181036000830152613ce381613ca7565b9050919050565b6000613cf582612c5e565b91507fffffffffffffffffffffffffffffffffffffffffffffffffffffffffffffffff821415613d2857613d27613a71565b5b600182019050919050565b6000613d3f8385612dc4565b9350613d4c83858461317d565b613d5583612e08565b840190509392505050565b6000608082019050613d756000830188612fc7565b613d826020830187612cd4565b8181036040830152613d9481866136ed565b90508181036060830152613da9818486613d33565b90509695505050505050565b7f455243313135353a206163636f756e747320616e6420696473206c656e67746860008201527f206d69736d617463680000000000000000000000000000000000000000000000602082015250565b6000613e11602983612dc4565b9150613e1c82613db5565b604082019050919050565b60006020820190508181036000830152613e4081613e04565b9050919050565b7f4e487b7100000000000000000000000000000000000000000000000000000000600052603260045260246000fd5b6000608082019050613e8b6000830188612fc7565b613e986020830187612fc7565b613ea56040830186612cd4565b8181036060830152613eb8818486613d33565b90509695505050505050565b60008160601b9050919050565b6000613edc82613ec4565b9050919050565b6000613eee82613ed1565b9050919050565b613f06613f0182612c20565b613ee3565b82525050565b6000819050919050565b613f27613f2282612c5e565b613f0c565b82525050565b600081905092915050565b6000613f448385613f2d565b9350613f5183858461317d565b82840190509392505050565b6000613f69828d613ef5565b601482019150613f79828c613ef5565b601482019150613f89828b613f16565b602082019150613f9a82898b613f38565b9150613fa68288613f16565b602082019150613fb7828688613f38565b9150613fc38285613f16565b602082019150613fd38284613f16565b6020820191508190509b9a5050505050505050505050565b7f455243313135353a2063616c6c6572206973206e6f74206f776e6572206e6f7260008201527f20617070726f7665640000000000000000000000000000000000000000000000602082015250565b6000614047602983612dc4565b915061405282613feb565b604082019050919050565b600060208201905081810360008301526140768161403a565b9050919050565b7f416363657373436f6e74726f6c3a206163636f756e7420000000000000000000600082015250565b60006140b3601783613f2d565b91506140be8261407d565b601782019050919050565b60006140d482612db9565b6140de8185613f2d565b93506140ee818560208601612dd5565b80840191505092915050565b7f206973206d697373696e6720726f6c6520000000000000000000000000000000600082015250565b6000614130601183613f2d565b915061413b826140fa565b601182019050919050565b6000614151826140a6565b915061415d82856140c9565b915061416882614123565b915061417482846140c9565b91508190509392505050565b60006020820190506141956000830184612fc7565b92915050565b7f5061757361626c653a206e6f7420706175736564000000000000000000000000600082015250565b60006141d1601483612dc4565b91506141dc8261419b565b602082019050919050565b60006020820190508181036000830152614200816141c4565b9050919050565b7f455243313135353a2069647320616e6420616d6f756e7473206c656e6774682060008201527f6d69736d61746368000000000000000000000000000000000000000000000000602082015250565b6000614263602883612dc4565b915061426e82614207565b604082019050919050565b6000602082019050818103600083015261429281614256565b9050919050565b7f455243313135353a207472616e7366657220746f20746865207a65726f20616460008201527f6472657373000000000000000000000000000000000000000000000000000000602082015250565b60006142f5602583612dc4565b915061430082614299565b604082019050919050565b60006020820190508181036000830152614324816142e8565b9050919050565b7f455243313135353a20696e73756666696369656e742062616c616e636520666f60008201527f72207472616e7366657200000000000000000000000000000000000000000000602082015250565b6000614387602a83612dc4565b91506143928261432b565b604082019050919050565b600060208201905081810360008301526143b68161437a565b9050919050565b60006143c882612c5e565b91506143d383612c5e565b9250827fffffffffffffffffffffffffffffffffffffffffffffffffffffffffffffffff0382111561440857614407613a71565b5b828201905092915050565b6000604082019050818103600083015261442d8185613614565b905081810360208301526144418184613614565b90509392505050565b7f19457468657265756d205369676e6564204d6573736167653a0a333200000000600082015250565b6000614480601c83613f2d565b915061448b8261444a565b601c82019050919050565b6000819050919050565b6144b16144ac82612efa565b614496565b82525050565b60006144c282614473565b91506144ce82846144a0565b60208201915081905092915050565b7f455243313135353a206d696e7420746f20746865207a65726f2061646472657360008201527f7300000000000000000000000000000000000000000000000000000000000000602082015250565b6000614539602183612dc4565b9150614544826144dd565b604082019050919050565b600060208201905081810360008301526145688161452c565b9050919050565b60006040820190506145846000830185612cd4565b6145916020830184612cd4565b9392505050565b7f455243313135353a2073657474696e6720617070726f76616c2073746174757360008201527f20666f722073656c660000000000000000000000000000000000000000000000602082015250565b60006145f4602983612dc4565b91506145ff82614598565b604082019050919050565b60006020820190508181036000830152614623816145e7565b9050919050565b600061463582612c5e565b9150600082141561464957614648613a71565b5b600182039050919050565b7f537472696e67733a20686578206c656e67746820696e73756666696369656e74600082015250565b600061468a602083612dc4565b915061469582614654565b602082019050919050565b600060208201905081810360008301526146b98161467d565b9050919050565b600081519050919050565b600082825260208201905092915050565b60006146e7826146c0565b6146f181856146cb565b9350614701818560208601612dd5565b61470a81612e08565b840191505092915050565b600060a08201905061472a6000830188612fc7565b6147376020830187612fc7565b81810360408301526147498186613614565b9050818103606083015261475d8185613614565b9050818103608083015261477181846146dc565b90509695505050505050565b60008151905061478c81612d2a565b92915050565b6000602082840312156147a8576147a7612bf6565b5b60006147b68482850161477d565b91505092915050565b60008160e01c9050919050565b600060033d11156147eb5760046000803e6147e86000516147bf565b90505b90565b600060443d10156147fe57614881565b614806612bec565b60043d036004823e80513d602482011167ffffffffffffffff8211171561482e575050614881565b808201805167ffffffffffffffff81111561484c5750505050614881565b80602083010160043d038501811115614869575050505050614881565b61487882602001850186613033565b82955050505050505b90565b7f455243313135353a207472616e7366657220746f206e6f6e204552433131353560008201527f526563656976657220696d706c656d656e746572000000000000000000000000602082015250565b60006148e0603483612dc4565b91506148eb82614884565b604082019050919050565b6000602082019050818103600083015261490f816148d3565b9050919050565b7f455243313135353a204552433131353552656365697665722072656a6563746560008201527f6420746f6b656e73000000000000000000000000000000000000000000000000602082015250565b6000614972602883612dc4565b915061497d82614916565b604082019050919050565b600060208201905081810360008301526149a181614965565b9050919050565b7f4e487b7100000000000000000000000000000000000000000000000000000000600052602160045260246000fd5b7f45434453413a20696e76616c6964207369676e61747572650000000000000000600082015250565b6000614a0d601883612dc4565b9150614a18826149d7565b602082019050919050565b60006020820190508181036000830152614a3c81614a00565b9050919050565b7f45434453413a20696e76616c6964207369676e6174757265206c656e67746800600082015250565b6000614a79601f83612dc4565b9150614a8482614a43565b602082019050919050565b60006020820190508181036000830152614aa881614a6c565b9050919050565b7f45434453413a20696e76616c6964207369676e6174757265202773272076616c60008201527f7565000000000000000000000000000000000000000000000000000000000000602082015250565b6000614b0b602283612dc4565b9150614b1682614aaf565b604082019050919050565b60006020820190508181036000830152614b3a81614afe565b9050919050565b7f45434453413a20696e76616c6964207369676e6174757265202776272076616c60008201527f7565000000000000000000000000000000000000000000000000000000000000602082015250565b6000614b9d602283612dc4565b9150614ba882614b41565b604082019050919050565b60006020820190508181036000830152614bcc81614b90565b9050919050565b600060a082019050614be86000830188612fc7565b614bf56020830187612fc7565b614c026040830186612cd4565b614c0f6060830185612cd4565b8181036080830152614c2181846146dc565b90509695505050505050565b600060ff82169050919050565b614c4381614c2d565b82525050565b6000608082019050614c5e6000830187612f5d565b614c6b6020830186614c3a565b614c786040830185612f5d565b614c856060830184612f5d565b9594505050505056fea264697066735822122030a555f7007db77faac943662c0d8a2e4571329e3d253aeacc0a6be82976518c64736f6c634300080c0033",
  "immutableReferences": {},
  "source": "// SPDX-License-Identifier: MIT\npragma solidity ^0.8.0;\n\nimport \"@openzeppelin/contracts/access/AccessControl.sol\";\nimport \"@openzeppelin/contracts/token/ERC1155/ERC1155.sol\";\nimport \"@openzeppelin/contracts/utils/introspection/ERC165.sol\";\nimport \"@openzeppelin/contracts/utils/cryptography/ECDSA.sol\";\nimport \"@openzeppelin/contracts/security/Pausable.sol\";\n\nimport \"../interfaces/IERC2981.sol\";\nimport \"../errors.sol\";\n\ncontract TokenV1 is\n  AccessControl,\n  ERC1155,\n  IERC2981,\n  Pausable\n{\n  using ECDSA for bytes32;\n\n  struct Token {\n    uint256 dateCreated;\n    address creator;\n    uint256 supply;\n    string metadataUri;\n    uint256 royaltyPct;\n  }\n\n  event Mint(\n    address operator,\n    uint256 id,\n    Token token,\n    string data\n  );\n\n  event RevokeMint(\n    address operator,\n    address creator,\n    uint256 supply,\n    string data\n  );\n\n  string public constant name = \"Fest Multi-Token\";\n  string public constant version = \"1.0\";\n\n  uint256 public constant hundredPct = 10_000;\n\n  bytes32 internal constant MINTER_ROLE =\n    keccak256(\"MINTER_ROLE\");\n  bytes internal constant EMPTY = \"\";\n\n  uint256 private _tokenId = 0;\n  mapping(uint256 => Token) _tokens;\n\n  mapping(bytes32 => bool) _approvalsExhausted;\n\n  constructor() ERC1155(\"\") {\n    _setupRole(DEFAULT_ADMIN_ROLE, msg.sender);\n\n    _setupRole(MINTER_ROLE, msg.sender);\n    _setRoleAdmin(MINTER_ROLE, DEFAULT_ADMIN_ROLE);\n  }\n\n  function uri(uint256 id)\n    public\n    view\n    override\n    returns (string memory)\n  {\n    return _tokens[id].metadataUri;\n  }\n\n  function get(uint256 id)\n    public\n    view\n    returns (Token memory)\n  {\n    return _tokens[id];\n  }\n\n  function royaltyInfo(uint256 tokenId, uint256 salePrice)\n    external\n    view\n    returns (address receiver, uint256 royaltyAmount)\n  {\n    receiver = _tokens[tokenId].creator;\n    royaltyAmount =\n      (salePrice * _tokens[tokenId].royaltyPct) /\n      hundredPct;\n  }\n\n  function supportsInterface(bytes4 interfaceId)\n    public\n    view\n    override(AccessControl, ERC1155, IERC165)\n    returns (bool)\n  {\n    return\n      interfaceId == type(IERC2981).interfaceId ||\n      super.supportsInterface(interfaceId);\n  }\n\n  function mintHash(\n    address creator,\n    uint256 supply,\n    string calldata metadataUri,\n    uint256 royaltyPct,\n    string calldata data,\n    uint256 nonce,\n    uint256 deadline\n  ) public view returns (bytes32) {\n    return\n      keccak256(\n        abi.encodePacked(\n          address(this),\n          creator,\n          supply,\n          metadataUri,\n          royaltyPct,\n          data,\n          nonce,\n          deadline\n        )\n      );\n  }\n\n  function mint(\n    address creator,\n    uint256 supply,\n    string calldata metadataUri,\n    uint256 royaltyPct,\n    string calldata data,\n    uint256 nonce,\n    uint256 deadline,\n    bytes memory signature\n  ) public whenNotPaused {\n    if (deadline <= block.timestamp) {\n      revert ApprovalExpired();\n    }\n\n    bytes32 mintHash_ = mintHash(\n      creator,\n      supply,\n      metadataUri,\n      royaltyPct,\n      data,\n      nonce,\n      deadline\n    );\n\n    if (_approvalsExhausted[mintHash_]) {\n      revert ApprovalExhausted();\n    }\n\n    address recoveredAddress = mintHash_\n      .toEthSignedMessageHash()\n      .recover(signature);\n\n    if (\n      recoveredAddress == address(0) ||\n      !hasRole(MINTER_ROLE, recoveredAddress)\n    ) {\n      revert InvalidSignature();\n    }\n\n    _approvalsExhausted[mintHash_] = true;\n\n    _tokenId++;\n\n    super._mint(creator, _tokenId, supply, EMPTY);\n\n    Token memory token = Token(\n      block.timestamp,\n      creator,\n      supply,\n      metadataUri,\n      royaltyPct\n    );\n\n    _tokens[_tokenId] = token;\n\n    emit Mint(msg.sender, _tokenId, token, data);\n  }\n\n  function revokeMintApproval(\n    address creator,\n    uint256 supply,\n    string calldata metadataUri,\n    uint256 royaltyPct,\n    string calldata data,\n    uint256 nonce,\n    uint256 deadline\n  ) public onlyRole(MINTER_ROLE) {\n    bytes32 mintHash_ = mintHash(\n      creator,\n      supply,\n      metadataUri,\n      royaltyPct,\n      data,\n      nonce,\n      deadline\n    );\n\n    if (_approvalsExhausted[mintHash_]) {\n      revert ApprovalExhausted();\n    }\n\n    _approvalsExhausted[mintHash_] = true;\n\n    emit RevokeMint(msg.sender, creator, supply, data);\n  }\n\n  function setPaused(bool paused)\n    external\n    onlyRole(DEFAULT_ADMIN_ROLE)\n  {\n    if (paused) {\n      _pause();\n    } else {\n      _unpause();\n    }\n  }\n}\n",
  "sourcePath": "/Users/husnain/Desktop/other/fest/packages/ethereum/contracts/solidity/contracts/token/TokenV1.sol",
  "compiler": {
    "name": "solc",
    "version": "0.8.12+commit.f00d7308.Emscripten.clang"
  },
  "schemaVersion": "3.4.4",
  "updatedAt": "2022-03-12T23:22:33.541Z",
  "networkType": "ethereum",
  "devdoc": {
    "kind": "dev",
    "methods": {
      "balanceOf(address,uint256)": {
        "details": "See {IERC1155-balanceOf}. Requirements: - `account` cannot be the zero address."
      },
      "balanceOfBatch(address[],uint256[])": {
        "details": "See {IERC1155-balanceOfBatch}. Requirements: - `accounts` and `ids` must have the same length."
      },
      "getRoleAdmin(bytes32)": {
        "details": "Returns the admin role that controls `role`. See {grantRole} and {revokeRole}. To change a role's admin, use {_setRoleAdmin}."
      },
      "grantRole(bytes32,address)": {
        "details": "Grants `role` to `account`. If `account` had not been already granted `role`, emits a {RoleGranted} event. Requirements: - the caller must have ``role``'s admin role."
      },
      "hasRole(bytes32,address)": {
        "details": "Returns `true` if `account` has been granted `role`."
      },
      "isApprovedForAll(address,address)": {
        "details": "See {IERC1155-isApprovedForAll}."
      },
      "paused()": {
        "details": "Returns true if the contract is paused, and false otherwise."
      },
      "renounceRole(bytes32,address)": {
        "details": "Revokes `role` from the calling account. Roles are often managed via {grantRole} and {revokeRole}: this function's purpose is to provide a mechanism for accounts to lose their privileges if they are compromised (such as when a trusted device is misplaced). If the calling account had been revoked `role`, emits a {RoleRevoked} event. Requirements: - the caller must be `account`."
      },
      "revokeRole(bytes32,address)": {
        "details": "Revokes `role` from `account`. If `account` had been granted `role`, emits a {RoleRevoked} event. Requirements: - the caller must have ``role``'s admin role."
      },
      "safeBatchTransferFrom(address,address,uint256[],uint256[],bytes)": {
        "details": "See {IERC1155-safeBatchTransferFrom}."
      },
      "safeTransferFrom(address,address,uint256,uint256,bytes)": {
        "details": "See {IERC1155-safeTransferFrom}."
      },
      "setApprovalForAll(address,bool)": {
        "details": "See {IERC1155-setApprovalForAll}."
      }
    },
    "version": 1
  },
  "userdoc": {
    "kind": "user",
    "methods": {},
    "version": 1
  }
}