{
  "contractName": "TokenV1",
  "abi": [
    {
      "inputs": [],
      "stateMutability": "nonpayable",
      "type": "constructor"
    },
    {
      "inputs": [],
      "name": "ApprovalExhausted",
      "type": "error"
    },
    {
      "inputs": [],
      "name": "ApprovalExpired",
      "type": "error"
    },
    {
      "inputs": [],
      "name": "InvalidSignature",
      "type": "error"
    },
    {
      "anonymous": false,
      "inputs": [
        {
          "indexed": true,
          "internalType": "address",
          "name": "account",
          "type": "address"
        },
        {
          "indexed": true,
          "internalType": "address",
          "name": "operator",
          "type": "address"
        },
        {
          "indexed": false,
          "internalType": "bool",
          "name": "approved",
          "type": "bool"
        }
      ],
      "name": "ApprovalForAll",
      "type": "event"
    },
    {
      "anonymous": false,
      "inputs": [
        {
          "indexed": false,
          "internalType": "address",
          "name": "operator",
          "type": "address"
        },
        {
          "indexed": false,
          "internalType": "uint256",
          "name": "id",
          "type": "uint256"
        },
        {
          "components": [
            {
              "internalType": "uint256",
              "name": "dateCreated",
              "type": "uint256"
            },
            {
              "internalType": "address",
              "name": "creator",
              "type": "address"
            },
            {
              "internalType": "uint256",
              "name": "supply",
              "type": "uint256"
            },
            {
              "internalType": "string",
              "name": "metadataUri",
              "type": "string"
            },
            {
              "internalType": "uint256",
              "name": "royaltyPct",
              "type": "uint256"
            }
          ],
          "indexed": false,
          "internalType": "struct TokenV1.Token",
          "name": "token",
          "type": "tuple"
        },
        {
          "indexed": false,
          "internalType": "string",
          "name": "data",
          "type": "string"
        }
      ],
      "name": "Mint",
      "type": "event"
    },
    {
      "anonymous": false,
      "inputs": [
        {
          "indexed": false,
          "internalType": "address",
          "name": "account",
          "type": "address"
        }
      ],
      "name": "Paused",
      "type": "event"
    },
    {
      "anonymous": false,
      "inputs": [
        {
          "indexed": false,
          "internalType": "address",
          "name": "operator",
          "type": "address"
        },
        {
          "indexed": false,
          "internalType": "address",
          "name": "creator",
          "type": "address"
        },
        {
          "indexed": false,
          "internalType": "uint256",
          "name": "supply",
          "type": "uint256"
        },
        {
          "indexed": false,
          "internalType": "string",
          "name": "data",
          "type": "string"
        }
      ],
      "name": "RevokeMint",
      "type": "event"
    },
    {
      "anonymous": false,
      "inputs": [
        {
          "indexed": true,
          "internalType": "bytes32",
          "name": "role",
          "type": "bytes32"
        },
        {
          "indexed": true,
          "internalType": "bytes32",
          "name": "previousAdminRole",
          "type": "bytes32"
        },
        {
          "indexed": true,
          "internalType": "bytes32",
          "name": "newAdminRole",
          "type": "bytes32"
        }
      ],
      "name": "RoleAdminChanged",
      "type": "event"
    },
    {
      "anonymous": false,
      "inputs": [
        {
          "indexed": true,
          "internalType": "bytes32",
          "name": "role",
          "type": "bytes32"
        },
        {
          "indexed": true,
          "internalType": "address",
          "name": "account",
          "type": "address"
        },
        {
          "indexed": true,
          "internalType": "address",
          "name": "sender",
          "type": "address"
        }
      ],
      "name": "RoleGranted",
      "type": "event"
    },
    {
      "anonymous": false,
      "inputs": [
        {
          "indexed": true,
          "internalType": "bytes32",
          "name": "role",
          "type": "bytes32"
        },
        {
          "indexed": true,
          "internalType": "address",
          "name": "account",
          "type": "address"
        },
        {
          "indexed": true,
          "internalType": "address",
          "name": "sender",
          "type": "address"
        }
      ],
      "name": "RoleRevoked",
      "type": "event"
    },
    {
      "anonymous": false,
      "inputs": [
        {
          "indexed": true,
          "internalType": "address",
          "name": "operator",
          "type": "address"
        },
        {
          "indexed": true,
          "internalType": "address",
          "name": "from",
          "type": "address"
        },
        {
          "indexed": true,
          "internalType": "address",
          "name": "to",
          "type": "address"
        },
        {
          "indexed": false,
          "internalType": "uint256[]",
          "name": "ids",
          "type": "uint256[]"
        },
        {
          "indexed": false,
          "internalType": "uint256[]",
          "name": "values",
          "type": "uint256[]"
        }
      ],
      "name": "TransferBatch",
      "type": "event"
    },
    {
      "anonymous": false,
      "inputs": [
        {
          "indexed": true,
          "internalType": "address",
          "name": "operator",
          "type": "address"
        },
        {
          "indexed": true,
          "internalType": "address",
          "name": "from",
          "type": "address"
        },
        {
          "indexed": true,
          "internalType": "address",
          "name": "to",
          "type": "address"
        },
        {
          "indexed": false,
          "internalType": "uint256",
          "name": "id",
          "type": "uint256"
        },
        {
          "indexed": false,
          "internalType": "uint256",
          "name": "value",
          "type": "uint256"
        }
      ],
      "name": "TransferSingle",
      "type": "event"
    },
    {
      "anonymous": false,
      "inputs": [
        {
          "indexed": false,
          "internalType": "string",
          "name": "value",
          "type": "string"
        },
        {
          "indexed": true,
          "internalType": "uint256",
          "name": "id",
          "type": "uint256"
        }
      ],
      "name": "URI",
      "type": "event"
    },
    {
      "anonymous": false,
      "inputs": [
        {
          "indexed": false,
          "internalType": "address",
          "name": "account",
          "type": "address"
        }
      ],
      "name": "Unpaused",
      "type": "event"
    },
    {
      "inputs": [],
      "name": "DEFAULT_ADMIN_ROLE",
      "outputs": [
        {
          "internalType": "bytes32",
          "name": "",
          "type": "bytes32"
        }
      ],
      "stateMutability": "view",
      "type": "function",
      "constant": true
    },
    {
      "inputs": [
        {
          "internalType": "address",
          "name": "account",
          "type": "address"
        },
        {
          "internalType": "uint256",
          "name": "id",
          "type": "uint256"
        }
      ],
      "name": "balanceOf",
      "outputs": [
        {
          "internalType": "uint256",
          "name": "",
          "type": "uint256"
        }
      ],
      "stateMutability": "view",
      "type": "function",
      "constant": true
    },
    {
      "inputs": [
        {
          "internalType": "address[]",
          "name": "accounts",
          "type": "address[]"
        },
        {
          "internalType": "uint256[]",
          "name": "ids",
          "type": "uint256[]"
        }
      ],
      "name": "balanceOfBatch",
      "outputs": [
        {
          "internalType": "uint256[]",
          "name": "",
          "type": "uint256[]"
        }
      ],
      "stateMutability": "view",
      "type": "function",
      "constant": true
    },
    {
      "inputs": [
        {
          "internalType": "bytes32",
          "name": "role",
          "type": "bytes32"
        }
      ],
      "name": "getRoleAdmin",
      "outputs": [
        {
          "internalType": "bytes32",
          "name": "",
          "type": "bytes32"
        }
      ],
      "stateMutability": "view",
      "type": "function",
      "constant": true
    },
    {
      "inputs": [
        {
          "internalType": "bytes32",
          "name": "role",
          "type": "bytes32"
        },
        {
          "internalType": "address",
          "name": "account",
          "type": "address"
        }
      ],
      "name": "grantRole",
      "outputs": [],
      "stateMutability": "nonpayable",
      "type": "function"
    },
    {
      "inputs": [
        {
          "internalType": "bytes32",
          "name": "role",
          "type": "bytes32"
        },
        {
          "internalType": "address",
          "name": "account",
          "type": "address"
        }
      ],
      "name": "hasRole",
      "outputs": [
        {
          "internalType": "bool",
          "name": "",
          "type": "bool"
        }
      ],
      "stateMutability": "view",
      "type": "function",
      "constant": true
    },
    {
      "inputs": [],
      "name": "hundredPct",
      "outputs": [
        {
          "internalType": "uint256",
          "name": "",
          "type": "uint256"
        }
      ],
      "stateMutability": "view",
      "type": "function",
      "constant": true
    },
    {
      "inputs": [
        {
          "internalType": "address",
          "name": "account",
          "type": "address"
        },
        {
          "internalType": "address",
          "name": "operator",
          "type": "address"
        }
      ],
      "name": "isApprovedForAll",
      "outputs": [
        {
          "internalType": "bool",
          "name": "",
          "type": "bool"
        }
      ],
      "stateMutability": "view",
      "type": "function",
      "constant": true
    },
    {
      "inputs": [],
      "name": "name",
      "outputs": [
        {
          "internalType": "string",
          "name": "",
          "type": "string"
        }
      ],
      "stateMutability": "view",
      "type": "function",
      "constant": true
    },
    {
      "inputs": [],
      "name": "paused",
      "outputs": [
        {
          "internalType": "bool",
          "name": "",
          "type": "bool"
        }
      ],
      "stateMutability": "view",
      "type": "function",
      "constant": true
    },
    {
      "inputs": [
        {
          "internalType": "bytes32",
          "name": "role",
          "type": "bytes32"
        },
        {
          "internalType": "address",
          "name": "account",
          "type": "address"
        }
      ],
      "name": "renounceRole",
      "outputs": [],
      "stateMutability": "nonpayable",
      "type": "function"
    },
    {
      "inputs": [
        {
          "internalType": "bytes32",
          "name": "role",
          "type": "bytes32"
        },
        {
          "internalType": "address",
          "name": "account",
          "type": "address"
        }
      ],
      "name": "revokeRole",
      "outputs": [],
      "stateMutability": "nonpayable",
      "type": "function"
    },
    {
      "inputs": [
        {
          "internalType": "address",
          "name": "from",
          "type": "address"
        },
        {
          "internalType": "address",
          "name": "to",
          "type": "address"
        },
        {
          "internalType": "uint256[]",
          "name": "ids",
          "type": "uint256[]"
        },
        {
          "internalType": "uint256[]",
          "name": "amounts",
          "type": "uint256[]"
        },
        {
          "internalType": "bytes",
          "name": "data",
          "type": "bytes"
        }
      ],
      "name": "safeBatchTransferFrom",
      "outputs": [],
      "stateMutability": "nonpayable",
      "type": "function"
    },
    {
      "inputs": [
        {
          "internalType": "address",
          "name": "from",
          "type": "address"
        },
        {
          "internalType": "address",
          "name": "to",
          "type": "address"
        },
        {
          "internalType": "uint256",
          "name": "id",
          "type": "uint256"
        },
        {
          "internalType": "uint256",
          "name": "amount",
          "type": "uint256"
        },
        {
          "internalType": "bytes",
          "name": "data",
          "type": "bytes"
        }
      ],
      "name": "safeTransferFrom",
      "outputs": [],
      "stateMutability": "nonpayable",
      "type": "function"
    },
    {
      "inputs": [
        {
          "internalType": "address",
          "name": "operator",
          "type": "address"
        },
        {
          "internalType": "bool",
          "name": "approved",
          "type": "bool"
        }
      ],
      "name": "setApprovalForAll",
      "outputs": [],
      "stateMutability": "nonpayable",
      "type": "function"
    },
    {
      "inputs": [],
      "name": "version",
      "outputs": [
        {
          "internalType": "string",
          "name": "",
          "type": "string"
        }
      ],
      "stateMutability": "view",
      "type": "function",
      "constant": true
    },
    {
      "inputs": [
        {
          "internalType": "uint256",
          "name": "id",
          "type": "uint256"
        }
      ],
      "name": "uri",
      "outputs": [
        {
          "internalType": "string",
          "name": "",
          "type": "string"
        }
      ],
      "stateMutability": "view",
      "type": "function",
      "constant": true
    },
    {
      "inputs": [
        {
          "internalType": "uint256",
          "name": "id",
          "type": "uint256"
        }
      ],
      "name": "get",
      "outputs": [
        {
          "components": [
            {
              "internalType": "uint256",
              "name": "dateCreated",
              "type": "uint256"
            },
            {
              "internalType": "address",
              "name": "creator",
              "type": "address"
            },
            {
              "internalType": "uint256",
              "name": "supply",
              "type": "uint256"
            },
            {
              "internalType": "string",
              "name": "metadataUri",
              "type": "string"
            },
            {
              "internalType": "uint256",
              "name": "royaltyPct",
              "type": "uint256"
            }
          ],
          "internalType": "struct TokenV1.Token",
          "name": "",
          "type": "tuple"
        }
      ],
      "stateMutability": "view",
      "type": "function",
      "constant": true
    },
    {
      "inputs": [
        {
          "internalType": "uint256",
          "name": "tokenId",
          "type": "uint256"
        },
        {
          "internalType": "uint256",
          "name": "salePrice",
          "type": "uint256"
        }
      ],
      "name": "royaltyInfo",
      "outputs": [
        {
          "internalType": "address",
          "name": "receiver",
          "type": "address"
        },
        {
          "internalType": "uint256",
          "name": "royaltyAmount",
          "type": "uint256"
        }
      ],
      "stateMutability": "view",
      "type": "function",
      "constant": true
    },
    {
      "inputs": [
        {
          "internalType": "bytes4",
          "name": "interfaceId",
          "type": "bytes4"
        }
      ],
      "name": "supportsInterface",
      "outputs": [
        {
          "internalType": "bool",
          "name": "",
          "type": "bool"
        }
      ],
      "stateMutability": "view",
      "type": "function",
      "constant": true
    },
    {
      "inputs": [
        {
          "internalType": "address",
          "name": "creator",
          "type": "address"
        },
        {
          "internalType": "uint256",
          "name": "supply",
          "type": "uint256"
        },
        {
          "internalType": "string",
          "name": "metadataUri",
          "type": "string"
        },
        {
          "internalType": "uint256",
          "name": "royaltyPct",
          "type": "uint256"
        },
        {
          "internalType": "string",
          "name": "data",
          "type": "string"
        },
        {
          "internalType": "uint256",
          "name": "nonce",
          "type": "uint256"
        },
        {
          "internalType": "uint256",
          "name": "deadline",
          "type": "uint256"
        }
      ],
      "name": "mintHash",
      "outputs": [
        {
          "internalType": "bytes32",
          "name": "",
          "type": "bytes32"
        }
      ],
      "stateMutability": "view",
      "type": "function",
      "constant": true
    },
    {
      "inputs": [
        {
          "internalType": "address",
          "name": "creator",
          "type": "address"
        },
        {
          "internalType": "uint256",
          "name": "supply",
          "type": "uint256"
        },
        {
          "internalType": "string",
          "name": "metadataUri",
          "type": "string"
        },
        {
          "internalType": "uint256",
          "name": "royaltyPct",
          "type": "uint256"
        },
        {
          "internalType": "string",
          "name": "data",
          "type": "string"
        },
        {
          "internalType": "uint256",
          "name": "nonce",
          "type": "uint256"
        },
        {
          "internalType": "uint256",
          "name": "deadline",
          "type": "uint256"
        },
        {
          "internalType": "bytes",
          "name": "signature",
          "type": "bytes"
        }
      ],
      "name": "mint",
      "outputs": [],
      "stateMutability": "nonpayable",
      "type": "function"
    },
    {
      "inputs": [
        {
          "internalType": "address",
          "name": "creator",
          "type": "address"
        },
        {
          "internalType": "uint256",
          "name": "supply",
          "type": "uint256"
        },
        {
          "internalType": "string",
          "name": "metadataUri",
          "type": "string"
        },
        {
          "internalType": "uint256",
          "name": "royaltyPct",
          "type": "uint256"
        },
        {
          "internalType": "string",
          "name": "data",
          "type": "string"
        },
        {
          "internalType": "uint256",
          "name": "nonce",
          "type": "uint256"
        },
        {
          "internalType": "uint256",
          "name": "deadline",
          "type": "uint256"
        }
      ],
      "name": "revokeMintApproval",
      "outputs": [],
      "stateMutability": "nonpayable",
      "type": "function"
    },
    {
      "inputs": [
        {
          "internalType": "bool",
          "name": "paused",
          "type": "bool"
        }
      ],
      "name": "setPaused",
      "outputs": [],
      "stateMutability": "nonpayable",
      "type": "function"
    }
  ],
  "bytecode": "0x608060405260006005553480156200001657600080fd5b50604051806020016040528060008152506200003881620000d660201b60201c565b506000600460006101000a81548160ff021916908315150217905550620000696000801b33620000f260201b60201c565b6200009b7f9f2df0fed2c77648de5860a4cc508cd0818c85b8b8a1ab4ceeef8d981c8956a633620000f260201b60201c565b620000d07f9f2df0fed2c77648de5860a4cc508cd0818c85b8b8a1ab4ceeef8d981c8956a66000801b6200010860201b60201c565b62000401565b8060039080519060200190620000ee929190620002ed565b5050565b6200010482826200016b60201b60201c565b5050565b60006200011b836200025c60201b60201c565b905081600080858152602001908152602001600020600101819055508181847fbd79b86ffe0ab8e8776151514217cd7cacd52c909f66475c3af44e129f0b00ff60405160405180910390a4505050565b6200017d82826200027b60201b60201c565b6200025857600160008084815260200190815260200160002060000160008373ffffffffffffffffffffffffffffffffffffffff1673ffffffffffffffffffffffffffffffffffffffff16815260200190815260200160002060006101000a81548160ff021916908315150217905550620001fd620002e560201b60201c565b73ffffffffffffffffffffffffffffffffffffffff168173ffffffffffffffffffffffffffffffffffffffff16837f2f8788117e7eff1d82e926ec794901d17c78024a50270940304540a733656f0d60405160405180910390a45b5050565b6000806000838152602001908152602001600020600101549050919050565b600080600084815260200190815260200160002060000160008373ffffffffffffffffffffffffffffffffffffffff1673ffffffffffffffffffffffffffffffffffffffff16815260200190815260200160002060009054906101000a900460ff16905092915050565b600033905090565b828054620002fb90620003cc565b90600052602060002090601f0160209004810192826200031f57600085556200036b565b82601f106200033a57805160ff19168380011785556200036b565b828001600101855582156200036b579182015b828111156200036a5782518255916020019190600101906200034d565b5b5090506200037a91906200037e565b5090565b5b80821115620003995760008160009055506001016200037f565b5090565b7f4e487b7100000000000000000000000000000000000000000000000000000000600052602260045260246000fd5b60006002820490506001821680620003e557607f821691505b602082108103620003fb57620003fa6200039d565b5b50919050565b614ca880620004116000396000f3fe608060405234801561001057600080fd5b50600436106101575760003560e01c806354fd4d50116100c3578063a22cb4651161007c578063a22cb465146103fd578063d428dc2b14610419578063d547741f14610437578063dd5025f214610453578063e985e9c514610483578063f242432a146104b357610157565b806354fd4d50146103275780635c975abb1461034557806391d14854146103635780639507d39a146103935780639c63030d146103c3578063a217fddf146103df57610157565b80632a55205a116101155780632a55205a146102565780632eb2c2d6146102875780632f2ff15d146102a357806336568abe146102bf57806340f3bd4f146102db5780634e1273f4146102f757610157565b8062fdd58e1461015c57806301ffc9a71461018c57806306fdde03146101bc5780630e89341c146101da57806316c38b3c1461020a578063248a9ca314610226575b600080fd5b61017660048036038101906101719190612c81565b6104cf565b6040516101839190612cd0565b60405180910390f35b6101a660048036038101906101a19190612d43565b610598565b6040516101b39190612d8b565b60405180910390f35b6101c4610612565b6040516101d19190612e3f565b60405180910390f35b6101f460048036038101906101ef9190612e61565b61064b565b6040516102019190612e3f565b60405180910390f35b610224600480360381019061021f9190612eba565b6106f3565b005b610240600480360381019061023b9190612f1d565b610728565b60405161024d9190612f59565b60405180910390f35b610270600480360381019061026b9190612f74565b610747565b60405161027e929190612fc3565b60405180910390f35b6102a1600480360381019061029c91906131e9565b6107bb565b005b6102bd60048036038101906102b891906132b8565b61085c565b005b6102d960048036038101906102d491906132b8565b610885565b005b6102f560048036038101906102f09190613353565b610908565b005b610311600480360381019061030c9190613529565b610c7f565b60405161031e919061365f565b60405180910390f35b61032f610d98565b60405161033c9190612e3f565b60405180910390f35b61034d610dd1565b60405161035a9190612d8b565b60405180910390f35b61037d600480360381019061037891906132b8565b610de8565b60405161038a9190612d8b565b60405180910390f35b6103ad60048036038101906103a89190612e61565b610e52565b6040516103ba9190613750565b60405180910390f35b6103dd60048036038101906103d89190613772565b610f85565b005b6103e761109c565b6040516103f49190612f59565b60405180910390f35b61041760048036038101906104129190613854565b6110a3565b005b6104216110b9565b60405161042e9190612cd0565b60405180910390f35b610451600480360381019061044c91906132b8565b6110bf565b005b61046d60048036038101906104689190613772565b6110e8565b60405161047a9190612f59565b60405180910390f35b61049d60048036038101906104989190613894565b611132565b6040516104aa9190612d8b565b60405180910390f35b6104cd60048036038101906104c891906138d4565b6111c6565b005b60008073ffffffffffffffffffffffffffffffffffffffff168373ffffffffffffffffffffffffffffffffffffffff160361053f576040517f08c379a0000000000000000000000000000000000000000000000000000000008152600401610536906139dd565b60405180910390fd5b6001600083815260200190815260200160002060008473ffffffffffffffffffffffffffffffffffffffff1673ffffffffffffffffffffffffffffffffffffffff16815260200190815260200160002054905092915050565b60007f2a55205a000000000000000000000000000000000000000000000000000000007bffffffffffffffffffffffffffffffffffffffffffffffffffffffff1916827bffffffffffffffffffffffffffffffffffffffffffffffffffffffff1916148061060b575061060a82611267565b5b9050919050565b6040518060400160405280601081526020017f46657374204d756c74692d546f6b656e0000000000000000000000000000000081525081565b606060066000838152602001908152602001600020600301805461066e90613a2c565b80601f016020809104026020016040519081016040528092919081815260200182805461069a90613a2c565b80156106e75780601f106106bc576101008083540402835291602001916106e7565b820191906000526020600020905b8154815290600101906020018083116106ca57829003601f168201915b50505050509050919050565b6000801b61070881610703611349565b611351565b811561071b576107166113ee565b610724565b610723611491565b5b5050565b6000806000838152602001908152602001600020600101549050919050565b6000806006600085815260200190815260200160002060010160009054906101000a900473ffffffffffffffffffffffffffffffffffffffff1691506127106006600086815260200190815260200160002060040154846107a89190613a8c565b6107b29190613b15565b90509250929050565b6107c3611349565b73ffffffffffffffffffffffffffffffffffffffff168573ffffffffffffffffffffffffffffffffffffffff161480610809575061080885610803611349565b611132565b5b610848576040517f08c379a000000000000000000000000000000000000000000000000000000000815260040161083f90613bb8565b60405180910390fd5b6108558585858585611533565b5050505050565b61086582610728565b61087681610871611349565b611351565b6108808383611849565b505050565b61088d611349565b73ffffffffffffffffffffffffffffffffffffffff168173ffffffffffffffffffffffffffffffffffffffff16146108fa576040517f08c379a00000000000000000000000000000000000000000000000000000000081526004016108f190613c4a565b60405180910390fd5b6109048282611929565b5050565b610910610dd1565b15610950576040517f08c379a000000000000000000000000000000000000000000000000000000000815260040161094790613cb6565b60405180910390fd5b428211610989576040517f955b334a00000000000000000000000000000000000000000000000000000000815260040160405180910390fd5b600061099c8b8b8b8b8b8b8b8b8b6110e8565b90506007600082815260200190815260200160002060009054906101000a900460ff16156109f6576040517fb9ae9fd800000000000000000000000000000000000000000000000000000000815260040160405180910390fd5b6000610a1383610a0584611a0a565b611a3a90919063ffffffff16565b9050600073ffffffffffffffffffffffffffffffffffffffff168173ffffffffffffffffffffffffffffffffffffffff161480610a775750610a757f9f2df0fed2c77648de5860a4cc508cd0818c85b8b8a1ab4ceeef8d981c8956a682610de8565b155b15610aae576040517f8baa579f00000000000000000000000000000000000000000000000000000000815260040160405180910390fd5b60016007600084815260200190815260200160002060006101000a81548160ff02191690831515021790555060056000815480929190610aed90613cd6565b9190505550610b0f8c6005548d60405180602001604052806000815250611a61565b60006040518060a001604052804281526020018e73ffffffffffffffffffffffffffffffffffffffff1681526020018d81526020018c8c8080601f016020809104026020016040519081016040528093929190818152602001838380828437600081840152601f19601f8201169050808301925050505050505081526020018a8152509050806006600060055481526020019081526020016000206000820151816000015560208201518160010160006101000a81548173ffffffffffffffffffffffffffffffffffffffff021916908373ffffffffffffffffffffffffffffffffffffffff160217905550604082015181600201556060820151816003019080519060200190610c21929190612af1565b50608082015181600401559050507f970b257bd2218b82d499191dec6408b46d0f2a1c723891dba9249f76fde14fed33600554838b8b604051610c68959493929190613d4b565b60405180910390a150505050505050505050505050565b60608151835114610cc5576040517f08c379a0000000000000000000000000000000000000000000000000000000008152600401610cbc90613e12565b60405180910390fd5b6000835167ffffffffffffffff811115610ce257610ce1612ff1565b5b604051908082528060200260200182016040528015610d105781602001602082028036833780820191505090505b50905060005b8451811015610d8d57610d5d858281518110610d3557610d34613e32565b5b6020026020010151858381518110610d5057610d4f613e32565b5b60200260200101516104cf565b828281518110610d7057610d6f613e32565b5b60200260200101818152505080610d8690613cd6565b9050610d16565b508091505092915050565b6040518060400160405280600381526020017f312e30000000000000000000000000000000000000000000000000000000000081525081565b6000600460009054906101000a900460ff16905090565b600080600084815260200190815260200160002060000160008373ffffffffffffffffffffffffffffffffffffffff1673ffffffffffffffffffffffffffffffffffffffff16815260200190815260200160002060009054906101000a900460ff16905092915050565b610e5a612b77565b600660008381526020019081526020016000206040518060a0016040529081600082015481526020016001820160009054906101000a900473ffffffffffffffffffffffffffffffffffffffff1673ffffffffffffffffffffffffffffffffffffffff1673ffffffffffffffffffffffffffffffffffffffff16815260200160028201548152602001600382018054610ef290613a2c565b80601f0160208091040260200160405190810160405280929190818152602001828054610f1e90613a2c565b8015610f6b5780601f10610f4057610100808354040283529160200191610f6b565b820191906000526020600020905b815481529060010190602001808311610f4e57829003601f168201915b505050505081526020016004820154815250509050919050565b7f9f2df0fed2c77648de5860a4cc508cd0818c85b8b8a1ab4ceeef8d981c8956a6610fb781610fb2611349565b611351565b6000610fca8b8b8b8b8b8b8b8b8b6110e8565b90506007600082815260200190815260200160002060009054906101000a900460ff1615611024576040517fb9ae9fd800000000000000000000000000000000000000000000000000000000815260040160405180910390fd5b60016007600083815260200190815260200160002060006101000a81548160ff0219169083151502179055507f4fbc860d2cbc005395b0c8062b69f6f63fa32d000f1f3822605e5bf5d1558654338c8c8989604051611087959493929190613e61565b60405180910390a15050505050505050505050565b6000801b81565b6110b56110ae611349565b8383611bf7565b5050565b61271081565b6110c882610728565b6110d9816110d4611349565b611351565b6110e38383611929565b505050565b6000308a8a8a8a8a8a8a8a8a60405160200161110d9a99989796959493929190613f48565b6040516020818303038152906040528051906020012090509998505050505050505050565b6000600260008473ffffffffffffffffffffffffffffffffffffffff1673ffffffffffffffffffffffffffffffffffffffff16815260200190815260200160002060008373ffffffffffffffffffffffffffffffffffffffff1673ffffffffffffffffffffffffffffffffffffffff16815260200190815260200160002060009054906101000a900460ff16905092915050565b6111ce611349565b73ffffffffffffffffffffffffffffffffffffffff168573ffffffffffffffffffffffffffffffffffffffff16148061121457506112138561120e611349565b611132565b5b611253576040517f08c379a000000000000000000000000000000000000000000000000000000000815260040161124a90614048565b60405180910390fd5b6112608585858585611d63565b5050505050565b60007fd9b67a26000000000000000000000000000000000000000000000000000000007bffffffffffffffffffffffffffffffffffffffffffffffffffffffff1916827bffffffffffffffffffffffffffffffffffffffffffffffffffffffff1916148061133257507f0e89341c000000000000000000000000000000000000000000000000000000007bffffffffffffffffffffffffffffffffffffffffffffffffffffffff1916827bffffffffffffffffffffffffffffffffffffffffffffffffffffffff1916145b80611342575061134182611fe7565b5b9050919050565b600033905090565b61135b8282610de8565b6113ea576113808173ffffffffffffffffffffffffffffffffffffffff166014612061565b61138e8360001c6020612061565b60405160200161139f929190614131565b6040516020818303038152906040526040517f08c379a00000000000000000000000000000000000000000000000000000000081526004016113e19190612e3f565b60405180910390fd5b5050565b6113f6610dd1565b15611436576040517f08c379a000000000000000000000000000000000000000000000000000000000815260040161142d90613cb6565b60405180910390fd5b6001600460006101000a81548160ff0219169083151502179055507f62e78cea01bee320cd4e420270b5ea74000d11b0c9f74754ebdbfc544b05a25861147a611349565b604051611487919061416b565b60405180910390a1565b611499610dd1565b6114d8576040517f08c379a00000000000000000000000000000000000000000000000000000000081526004016114cf906141d2565b60405180910390fd5b6000600460006101000a81548160ff0219169083151502179055507f5db9ee0a495bf2e6ff9c91a7834c1ba4fdd244a5e8aa4e537bd38aeae4b073aa61151c611349565b604051611529919061416b565b60405180910390a1565b8151835114611577576040517f08c379a000000000000000000000000000000000000000000000000000000000815260040161156e90614264565b60405180910390fd5b600073ffffffffffffffffffffffffffffffffffffffff168473ffffffffffffffffffffffffffffffffffffffff16036115e6576040517f08c379a00000000000000000000000000000000000000000000000000000000081526004016115dd906142f6565b60405180910390fd5b60006115f0611349565b905061160081878787878761229d565b60005b84518110156117b457600085828151811061162157611620613e32565b5b6020026020010151905060008583815181106116405761163f613e32565b5b6020026020010151905060006001600084815260200190815260200160002060008b73ffffffffffffffffffffffffffffffffffffffff1673ffffffffffffffffffffffffffffffffffffffff168152602001908152602001600020549050818110156116e2576040517f08c379a00000000000000000000000000000000000000000000000000000000081526004016116d990614388565b60405180910390fd5b8181036001600085815260200190815260200160002060008c73ffffffffffffffffffffffffffffffffffffffff1673ffffffffffffffffffffffffffffffffffffffff16815260200190815260200160002081905550816001600085815260200190815260200160002060008b73ffffffffffffffffffffffffffffffffffffffff1673ffffffffffffffffffffffffffffffffffffffff168152602001908152602001600020600082825461179991906143a8565b92505081905550505050806117ad90613cd6565b9050611603565b508473ffffffffffffffffffffffffffffffffffffffff168673ffffffffffffffffffffffffffffffffffffffff168273ffffffffffffffffffffffffffffffffffffffff167f4a39dc06d4c0dbc64b70af90fd698a233a518aa5d07e595d983b8c0526c8f7fb878760405161182b9291906143fe565b60405180910390a46118418187878787876122a5565b505050505050565b6118538282610de8565b61192557600160008084815260200190815260200160002060000160008373ffffffffffffffffffffffffffffffffffffffff1673ffffffffffffffffffffffffffffffffffffffff16815260200190815260200160002060006101000a81548160ff0219169083151502179055506118ca611349565b73ffffffffffffffffffffffffffffffffffffffff168173ffffffffffffffffffffffffffffffffffffffff16837f2f8788117e7eff1d82e926ec794901d17c78024a50270940304540a733656f0d60405160405180910390a45b5050565b6119338282610de8565b15611a0657600080600084815260200190815260200160002060000160008373ffffffffffffffffffffffffffffffffffffffff1673ffffffffffffffffffffffffffffffffffffffff16815260200190815260200160002060006101000a81548160ff0219169083151502179055506119ab611349565b73ffffffffffffffffffffffffffffffffffffffff168173ffffffffffffffffffffffffffffffffffffffff16837ff6391f5c32d9c69d2a47ea670b442974b53935d1edc7fd64eb21e047a839171b60405160405180910390a45b5050565b600081604051602001611a1d91906144a2565b604051602081830303815290604052805190602001209050919050565b6000806000611a49858561247c565b91509150611a56816124fd565b819250505092915050565b600073ffffffffffffffffffffffffffffffffffffffff168473ffffffffffffffffffffffffffffffffffffffff1603611ad0576040517f08c379a0000000000000000000000000000000000000000000000000000000008152600401611ac79061453a565b60405180910390fd5b6000611ada611349565b9050611afb81600087611aec886126c9565b611af5886126c9565b8761229d565b826001600086815260200190815260200160002060008773ffffffffffffffffffffffffffffffffffffffff1673ffffffffffffffffffffffffffffffffffffffff1681526020019081526020016000206000828254611b5b91906143a8565b925050819055508473ffffffffffffffffffffffffffffffffffffffff16600073ffffffffffffffffffffffffffffffffffffffff168273ffffffffffffffffffffffffffffffffffffffff167fc3d58168c5ae7397731d063d5bbf3d657854427343f4c083240f7aacaa2d0f628787604051611bd992919061455a565b60405180910390a4611bf081600087878787612743565b5050505050565b8173ffffffffffffffffffffffffffffffffffffffff168373ffffffffffffffffffffffffffffffffffffffff1603611c65576040517f08c379a0000000000000000000000000000000000000000000000000000000008152600401611c5c906145f5565b60405180910390fd5b80600260008573ffffffffffffffffffffffffffffffffffffffff1673ffffffffffffffffffffffffffffffffffffffff16815260200190815260200160002060008473ffffffffffffffffffffffffffffffffffffffff1673ffffffffffffffffffffffffffffffffffffffff16815260200190815260200160002060006101000a81548160ff0219169083151502179055508173ffffffffffffffffffffffffffffffffffffffff168373ffffffffffffffffffffffffffffffffffffffff167f17307eab39ab6107e8899845ad3d59bd9653f200f220920489ca2b5937696c3183604051611d569190612d8b565b60405180910390a3505050565b600073ffffffffffffffffffffffffffffffffffffffff168473ffffffffffffffffffffffffffffffffffffffff1603611dd2576040517f08c379a0000000000000000000000000000000000000000000000000000000008152600401611dc9906142f6565b60405180910390fd5b6000611ddc611349565b9050611dfc818787611ded886126c9565b611df6886126c9565b8761229d565b60006001600086815260200190815260200160002060008873ffffffffffffffffffffffffffffffffffffffff1673ffffffffffffffffffffffffffffffffffffffff16815260200190815260200160002054905083811015611e94576040517f08c379a0000000000000000000000000000000000000000000000000000000008152600401611e8b90614388565b60405180910390fd5b8381036001600087815260200190815260200160002060008973ffffffffffffffffffffffffffffffffffffffff1673ffffffffffffffffffffffffffffffffffffffff16815260200190815260200160002081905550836001600087815260200190815260200160002060008873ffffffffffffffffffffffffffffffffffffffff1673ffffffffffffffffffffffffffffffffffffffff1681526020019081526020016000206000828254611f4b91906143a8565b925050819055508573ffffffffffffffffffffffffffffffffffffffff168773ffffffffffffffffffffffffffffffffffffffff168373ffffffffffffffffffffffffffffffffffffffff167fc3d58168c5ae7397731d063d5bbf3d657854427343f4c083240f7aacaa2d0f628888604051611fc892919061455a565b60405180910390a4611fde828888888888612743565b50505050505050565b60007f7965db0b000000000000000000000000000000000000000000000000000000007bffffffffffffffffffffffffffffffffffffffffffffffffffffffff1916827bffffffffffffffffffffffffffffffffffffffffffffffffffffffff1916148061205a57506120598261291a565b5b9050919050565b6060600060028360026120749190613a8c565b61207e91906143a8565b67ffffffffffffffff81111561209757612096612ff1565b5b6040519080825280601f01601f1916602001820160405280156120c95781602001600182028036833780820191505090505b5090507f30000000000000000000000000000000000000000000000000000000000000008160008151811061210157612100613e32565b5b60200101907effffffffffffffffffffffffffffffffffffffffffffffffffffffffffffff1916908160001a9053507f78000000000000000000000000000000000000000000000000000000000000008160018151811061216557612164613e32565b5b60200101907effffffffffffffffffffffffffffffffffffffffffffffffffffffffffffff1916908160001a905350600060018460026121a59190613a8c565b6121af91906143a8565b90505b600181111561224f577f3031323334353637383961626364656600000000000000000000000000000000600f8616601081106121f1576121f0613e32565b5b1a60f81b82828151811061220857612207613e32565b5b60200101907effffffffffffffffffffffffffffffffffffffffffffffffffffffffffffff1916908160001a905350600485901c94508061224890614615565b90506121b2565b5060008414612293576040517f08c379a000000000000000000000000000000000000000000000000000000000815260040161228a9061468a565b60405180910390fd5b8091505092915050565b505050505050565b6122c48473ffffffffffffffffffffffffffffffffffffffff16612984565b15612474578373ffffffffffffffffffffffffffffffffffffffff1663bc197c8187878686866040518663ffffffff1660e01b815260040161230a9594939291906146ff565b6020604051808303816000875af192505050801561234657506040513d601f19601f82011682018060405250810190612343919061477c565b60015b6123eb576123526147b6565b806308c379a0036123ae57506123666147d8565b8061237157506123b0565b806040517f08c379a00000000000000000000000000000000000000000000000000000000081526004016123a59190612e3f565b60405180910390fd5b505b6040517f08c379a00000000000000000000000000000000000000000000000000000000081526004016123e2906148da565b60405180910390fd5b63bc197c8160e01b7bffffffffffffffffffffffffffffffffffffffffffffffffffffffff1916817bffffffffffffffffffffffffffffffffffffffffffffffffffffffff191614612472576040517f08c379a00000000000000000000000000000000000000000000000000000000081526004016124699061496c565b60405180910390fd5b505b505050505050565b60008060418351036124bd5760008060006020860151925060408601519150606086015160001a90506124b187828585612997565b945094505050506124f6565b60408351036124ed5760008060208501519150604085015190506124e2868383612aa3565b9350935050506124f6565b60006002915091505b9250929050565b600060048111156125115761251061498c565b5b8160048111156125245761252361498c565b5b03156126c6576001600481111561253e5761253d61498c565b5b8160048111156125515761255061498c565b5b03612591576040517f08c379a000000000000000000000000000000000000000000000000000000000815260040161258890614a07565b60405180910390fd5b600260048111156125a5576125a461498c565b5b8160048111156125b8576125b761498c565b5b036125f8576040517f08c379a00000000000000000000000000000000000000000000000000000000081526004016125ef90614a73565b60405180910390fd5b6003600481111561260c5761260b61498c565b5b81600481111561261f5761261e61498c565b5b0361265f576040517f08c379a000000000000000000000000000000000000000000000000000000000815260040161265690614b05565b60405180910390fd5b6004808111156126725761267161498c565b5b8160048111156126855761268461498c565b5b036126c5576040517f08c379a00000000000000000000000000000000000000000000000000000000081526004016126bc90614b97565b60405180910390fd5b5b50565b60606000600167ffffffffffffffff8111156126e8576126e7612ff1565b5b6040519080825280602002602001820160405280156127165781602001602082028036833780820191505090505b509050828160008151811061272e5761272d613e32565b5b60200260200101818152505080915050919050565b6127628473ffffffffffffffffffffffffffffffffffffffff16612984565b15612912578373ffffffffffffffffffffffffffffffffffffffff1663f23a6e6187878686866040518663ffffffff1660e01b81526004016127a8959493929190614bb7565b6020604051808303816000875af19250505080156127e457506040513d601f19601f820116820180604052508101906127e1919061477c565b60015b612889576127f06147b6565b806308c379a00361284c57506128046147d8565b8061280f575061284e565b806040517f08c379a00000000000000000000000000000000000000000000000000000000081526004016128439190612e3f565b60405180910390fd5b505b6040517f08c379a0000000000000000000000000000000000000000000000000000000008152600401612880906148da565b60405180910390fd5b63f23a6e6160e01b7bffffffffffffffffffffffffffffffffffffffffffffffffffffffff1916817bffffffffffffffffffffffffffffffffffffffffffffffffffffffff191614612910576040517f08c379a00000000000000000000000000000000000000000000000000000000081526004016129079061496c565b60405180910390fd5b505b505050505050565b60007f01ffc9a7000000000000000000000000000000000000000000000000000000007bffffffffffffffffffffffffffffffffffffffffffffffffffffffff1916827bffffffffffffffffffffffffffffffffffffffffffffffffffffffff1916149050919050565b600080823b905060008111915050919050565b6000807f7fffffffffffffffffffffffffffffff5d576e7357a4501ddfe92f46681b20a08360001c11156129d2576000600391509150612a9a565b601b8560ff16141580156129ea5750601c8560ff1614155b156129fc576000600491509150612a9a565b600060018787878760405160008152602001604052604051612a219493929190614c2d565b6020604051602081039080840390855afa158015612a43573d6000803e3d6000fd5b505050602060405103519050600073ffffffffffffffffffffffffffffffffffffffff168173ffffffffffffffffffffffffffffffffffffffff1603612a9157600060019250925050612a9a565b80600092509250505b94509492505050565b6000806000807f7fffffffffffffffffffffffffffffffffffffffffffffffffffffffffffffff85169150601b8560ff1c019050612ae387828885612997565b935093505050935093915050565b828054612afd90613a2c565b90600052602060002090601f016020900481019282612b1f5760008555612b66565b82601f10612b3857805160ff1916838001178555612b66565b82800160010185558215612b66579182015b82811115612b65578251825591602001919060010190612b4a565b5b509050612b739190612bbc565b5090565b6040518060a0016040528060008152602001600073ffffffffffffffffffffffffffffffffffffffff1681526020016000815260200160608152602001600081525090565b5b80821115612bd5576000816000905550600101612bbd565b5090565b6000604051905090565b600080fd5b600080fd5b600073ffffffffffffffffffffffffffffffffffffffff82169050919050565b6000612c1882612bed565b9050919050565b612c2881612c0d565b8114612c3357600080fd5b50565b600081359050612c4581612c1f565b92915050565b6000819050919050565b612c5e81612c4b565b8114612c6957600080fd5b50565b600081359050612c7b81612c55565b92915050565b60008060408385031215612c9857612c97612be3565b5b6000612ca685828601612c36565b9250506020612cb785828601612c6c565b9150509250929050565b612cca81612c4b565b82525050565b6000602082019050612ce56000830184612cc1565b92915050565b60007fffffffff0000000000000000000000000000000000000000000000000000000082169050919050565b612d2081612ceb565b8114612d2b57600080fd5b50565b600081359050612d3d81612d17565b92915050565b600060208284031215612d5957612d58612be3565b5b6000612d6784828501612d2e565b91505092915050565b60008115159050919050565b612d8581612d70565b82525050565b6000602082019050612da06000830184612d7c565b92915050565b600081519050919050565b600082825260208201905092915050565b60005b83811015612de0578082015181840152602081019050612dc5565b83811115612def576000848401525b50505050565b6000601f19601f8301169050919050565b6000612e1182612da6565b612e1b8185612db1565b9350612e2b818560208601612dc2565b612e3481612df5565b840191505092915050565b60006020820190508181036000830152612e598184612e06565b905092915050565b600060208284031215612e7757612e76612be3565b5b6000612e8584828501612c6c565b91505092915050565b612e9781612d70565b8114612ea257600080fd5b50565b600081359050612eb481612e8e565b92915050565b600060208284031215612ed057612ecf612be3565b5b6000612ede84828501612ea5565b91505092915050565b6000819050919050565b612efa81612ee7565b8114612f0557600080fd5b50565b600081359050612f1781612ef1565b92915050565b600060208284031215612f3357612f32612be3565b5b6000612f4184828501612f08565b91505092915050565b612f5381612ee7565b82525050565b6000602082019050612f6e6000830184612f4a565b92915050565b60008060408385031215612f8b57612f8a612be3565b5b6000612f9985828601612c6c565b9250506020612faa85828601612c6c565b9150509250929050565b612fbd81612c0d565b82525050565b6000604082019050612fd86000830185612fb4565b612fe56020830184612cc1565b9392505050565b600080fd5b7f4e487b7100000000000000000000000000000000000000000000000000000000600052604160045260246000fd5b61302982612df5565b810181811067ffffffffffffffff8211171561304857613047612ff1565b5b80604052505050565b600061305b612bd9565b90506130678282613020565b919050565b600067ffffffffffffffff82111561308757613086612ff1565b5b602082029050602081019050919050565b600080fd5b60006130b06130ab8461306c565b613051565b905080838252602082019050602084028301858111156130d3576130d2613098565b5b835b818110156130fc57806130e88882612c6c565b8452602084019350506020810190506130d5565b5050509392505050565b600082601f83011261311b5761311a612fec565b5b813561312b84826020860161309d565b91505092915050565b600080fd5b600067ffffffffffffffff82111561315457613153612ff1565b5b61315d82612df5565b9050602081019050919050565b82818337600083830152505050565b600061318c61318784613139565b613051565b9050828152602081018484840111156131a8576131a7613134565b5b6131b384828561316a565b509392505050565b600082601f8301126131d0576131cf612fec565b5b81356131e0848260208601613179565b91505092915050565b600080600080600060a0868803121561320557613204612be3565b5b600061321388828901612c36565b955050602061322488828901612c36565b945050604086013567ffffffffffffffff81111561324557613244612be8565b5b61325188828901613106565b935050606086013567ffffffffffffffff81111561327257613271612be8565b5b61327e88828901613106565b925050608086013567ffffffffffffffff81111561329f5761329e612be8565b5b6132ab888289016131bb565b9150509295509295909350565b600080604083850312156132cf576132ce612be3565b5b60006132dd85828601612f08565b92505060206132ee85828601612c36565b9150509250929050565b600080fd5b60008083601f84011261331357613312612fec565b5b8235905067ffffffffffffffff8111156133305761332f6132f8565b5b60208301915083600182028301111561334c5761334b613098565b5b9250929050565b6000806000806000806000806000806101008b8d03121561337757613376612be3565b5b60006133858d828e01612c36565b9a505060206133968d828e01612c6c565b99505060408b013567ffffffffffffffff8111156133b7576133b6612be8565b5b6133c38d828e016132fd565b985098505060606133d68d828e01612c6c565b96505060808b013567ffffffffffffffff8111156133f7576133f6612be8565b5b6134038d828e016132fd565b955095505060a06134168d828e01612c6c565b93505060c06134278d828e01612c6c565b92505060e08b013567ffffffffffffffff81111561344857613447612be8565b5b6134548d828e016131bb565b9150509295989b9194979a5092959850565b600067ffffffffffffffff82111561348157613480612ff1565b5b602082029050602081019050919050565b60006134a56134a084613466565b613051565b905080838252602082019050602084028301858111156134c8576134c7613098565b5b835b818110156134f157806134dd8882612c36565b8452602084019350506020810190506134ca565b5050509392505050565b600082601f8301126135105761350f612fec565b5b8135613520848260208601613492565b91505092915050565b600080604083850312156135405761353f612be3565b5b600083013567ffffffffffffffff81111561355e5761355d612be8565b5b61356a858286016134fb565b925050602083013567ffffffffffffffff81111561358b5761358a612be8565b5b61359785828601613106565b9150509250929050565b600081519050919050565b600082825260208201905092915050565b6000819050602082019050919050565b6135d681612c4b565b82525050565b60006135e883836135cd565b60208301905092915050565b6000602082019050919050565b600061360c826135a1565b61361681856135ac565b9350613621836135bd565b8060005b8381101561365257815161363988826135dc565b9750613644836135f4565b925050600181019050613625565b5085935050505092915050565b600060208201905081810360008301526136798184613601565b905092915050565b61368a81612c0d565b82525050565b600082825260208201905092915050565b60006136ac82612da6565b6136b68185613690565b93506136c6818560208601612dc2565b6136cf81612df5565b840191505092915050565b600060a0830160008301516136f260008601826135cd565b5060208301516137056020860182613681565b50604083015161371860408601826135cd565b506060830151848203606086015261373082826136a1565b915050608083015161374560808601826135cd565b508091505092915050565b6000602082019050818103600083015261376a81846136da565b905092915050565b600080600080600080600080600060e08a8c03121561379457613793612be3565b5b60006137a28c828d01612c36565b99505060206137b38c828d01612c6c565b98505060408a013567ffffffffffffffff8111156137d4576137d3612be8565b5b6137e08c828d016132fd565b975097505060606137f38c828d01612c6c565b95505060808a013567ffffffffffffffff81111561381457613813612be8565b5b6138208c828d016132fd565b945094505060a06138338c828d01612c6c565b92505060c06138448c828d01612c6c565b9150509295985092959850929598565b6000806040838503121561386b5761386a612be3565b5b600061387985828601612c36565b925050602061388a85828601612ea5565b9150509250929050565b600080604083850312156138ab576138aa612be3565b5b60006138b985828601612c36565b92505060206138ca85828601612c36565b9150509250929050565b600080600080600060a086880312156138f0576138ef612be3565b5b60006138fe88828901612c36565b955050602061390f88828901612c36565b945050604061392088828901612c6c565b935050606061393188828901612c6c565b925050608086013567ffffffffffffffff81111561395257613951612be8565b5b61395e888289016131bb565b9150509295509295909350565b7f455243313135353a2062616c616e636520717565727920666f7220746865207a60008201527f65726f2061646472657373000000000000000000000000000000000000000000602082015250565b60006139c7602b83612db1565b91506139d28261396b565b604082019050919050565b600060208201905081810360008301526139f6816139ba565b9050919050565b7f4e487b7100000000000000000000000000000000000000000000000000000000600052602260045260246000fd5b60006002820490506001821680613a4457607f821691505b602082108103613a5757613a566139fd565b5b50919050565b7f4e487b7100000000000000000000000000000000000000000000000000000000600052601160045260246000fd5b6000613a9782612c4b565b9150613aa283612c4b565b9250817fffffffffffffffffffffffffffffffffffffffffffffffffffffffffffffffff0483118215151615613adb57613ada613a5d565b5b828202905092915050565b7f4e487b7100000000000000000000000000000000000000000000000000000000600052601260045260246000fd5b6000613b2082612c4b565b9150613b2b83612c4b565b925082613b3b57613b3a613ae6565b5b828204905092915050565b7f455243313135353a207472616e736665722063616c6c6572206973206e6f742060008201527f6f776e6572206e6f7220617070726f7665640000000000000000000000000000602082015250565b6000613ba2603283612db1565b9150613bad82613b46565b604082019050919050565b60006020820190508181036000830152613bd181613b95565b9050919050565b7f416363657373436f6e74726f6c3a2063616e206f6e6c792072656e6f756e636560008201527f20726f6c657320666f722073656c660000000000000000000000000000000000602082015250565b6000613c34602f83612db1565b9150613c3f82613bd8565b604082019050919050565b60006020820190508181036000830152613c6381613c27565b9050919050565b7f5061757361626c653a2070617573656400000000000000000000000000000000600082015250565b6000613ca0601083612db1565b9150613cab82613c6a565b602082019050919050565b60006020820190508181036000830152613ccf81613c93565b9050919050565b6000613ce182612c4b565b91507fffffffffffffffffffffffffffffffffffffffffffffffffffffffffffffffff8203613d1357613d12613a5d565b5b600182019050919050565b6000613d2a8385612db1565b9350613d3783858461316a565b613d4083612df5565b840190509392505050565b6000608082019050613d606000830188612fb4565b613d6d6020830187612cc1565b8181036040830152613d7f81866136da565b90508181036060830152613d94818486613d1e565b90509695505050505050565b7f455243313135353a206163636f756e747320616e6420696473206c656e67746860008201527f206d69736d617463680000000000000000000000000000000000000000000000602082015250565b6000613dfc602983612db1565b9150613e0782613da0565b604082019050919050565b60006020820190508181036000830152613e2b81613def565b9050919050565b7f4e487b7100000000000000000000000000000000000000000000000000000000600052603260045260246000fd5b6000608082019050613e766000830188612fb4565b613e836020830187612fb4565b613e906040830186612cc1565b8181036060830152613ea3818486613d1e565b90509695505050505050565b60008160601b9050919050565b6000613ec782613eaf565b9050919050565b6000613ed982613ebc565b9050919050565b613ef1613eec82612c0d565b613ece565b82525050565b6000819050919050565b613f12613f0d82612c4b565b613ef7565b82525050565b600081905092915050565b6000613f2f8385613f18565b9350613f3c83858461316a565b82840190509392505050565b6000613f54828d613ee0565b601482019150613f64828c613ee0565b601482019150613f74828b613f01565b602082019150613f8582898b613f23565b9150613f918288613f01565b602082019150613fa2828688613f23565b9150613fae8285613f01565b602082019150613fbe8284613f01565b6020820191508190509b9a5050505050505050505050565b7f455243313135353a2063616c6c6572206973206e6f74206f776e6572206e6f7260008201527f20617070726f7665640000000000000000000000000000000000000000000000602082015250565b6000614032602983612db1565b915061403d82613fd6565b604082019050919050565b6000602082019050818103600083015261406181614025565b9050919050565b7f416363657373436f6e74726f6c3a206163636f756e7420000000000000000000600082015250565b600061409e601783613f18565b91506140a982614068565b601782019050919050565b60006140bf82612da6565b6140c98185613f18565b93506140d9818560208601612dc2565b80840191505092915050565b7f206973206d697373696e6720726f6c6520000000000000000000000000000000600082015250565b600061411b601183613f18565b9150614126826140e5565b601182019050919050565b600061413c82614091565b915061414882856140b4565b91506141538261410e565b915061415f82846140b4565b91508190509392505050565b60006020820190506141806000830184612fb4565b92915050565b7f5061757361626c653a206e6f7420706175736564000000000000000000000000600082015250565b60006141bc601483612db1565b91506141c782614186565b602082019050919050565b600060208201905081810360008301526141eb816141af565b9050919050565b7f455243313135353a2069647320616e6420616d6f756e7473206c656e6774682060008201527f6d69736d61746368000000000000000000000000000000000000000000000000602082015250565b600061424e602883612db1565b9150614259826141f2565b604082019050919050565b6000602082019050818103600083015261427d81614241565b9050919050565b7f455243313135353a207472616e7366657220746f20746865207a65726f20616460008201527f6472657373000000000000000000000000000000000000000000000000000000602082015250565b60006142e0602583612db1565b91506142eb82614284565b604082019050919050565b6000602082019050818103600083015261430f816142d3565b9050919050565b7f455243313135353a20696e73756666696369656e742062616c616e636520666f60008201527f72207472616e7366657200000000000000000000000000000000000000000000602082015250565b6000614372602a83612db1565b915061437d82614316565b604082019050919050565b600060208201905081810360008301526143a181614365565b9050919050565b60006143b382612c4b565b91506143be83612c4b565b9250827fffffffffffffffffffffffffffffffffffffffffffffffffffffffffffffffff038211156143f3576143f2613a5d565b5b828201905092915050565b600060408201905081810360008301526144188185613601565b9050818103602083015261442c8184613601565b90509392505050565b7f19457468657265756d205369676e6564204d6573736167653a0a333200000000600082015250565b600061446b601c83613f18565b915061447682614435565b601c82019050919050565b6000819050919050565b61449c61449782612ee7565b614481565b82525050565b60006144ad8261445e565b91506144b9828461448b565b60208201915081905092915050565b7f455243313135353a206d696e7420746f20746865207a65726f2061646472657360008201527f7300000000000000000000000000000000000000000000000000000000000000602082015250565b6000614524602183612db1565b915061452f826144c8565b604082019050919050565b6000602082019050818103600083015261455381614517565b9050919050565b600060408201905061456f6000830185612cc1565b61457c6020830184612cc1565b9392505050565b7f455243313135353a2073657474696e6720617070726f76616c2073746174757360008201527f20666f722073656c660000000000000000000000000000000000000000000000602082015250565b60006145df602983612db1565b91506145ea82614583565b604082019050919050565b6000602082019050818103600083015261460e816145d2565b9050919050565b600061462082612c4b565b91506000820361463357614632613a5d565b5b600182039050919050565b7f537472696e67733a20686578206c656e67746820696e73756666696369656e74600082015250565b6000614674602083612db1565b915061467f8261463e565b602082019050919050565b600060208201905081810360008301526146a381614667565b9050919050565b600081519050919050565b600082825260208201905092915050565b60006146d1826146aa565b6146db81856146b5565b93506146eb818560208601612dc2565b6146f481612df5565b840191505092915050565b600060a0820190506147146000830188612fb4565b6147216020830187612fb4565b81810360408301526147338186613601565b905081810360608301526147478185613601565b9050818103608083015261475b81846146c6565b90509695505050505050565b60008151905061477681612d17565b92915050565b60006020828403121561479257614791612be3565b5b60006147a084828501614767565b91505092915050565b60008160e01c9050919050565b600060033d11156147d55760046000803e6147d26000516147a9565b90505b90565b600060443d10614865576147ea612bd9565b60043d036004823e80513d602482011167ffffffffffffffff82111715614812575050614865565b808201805167ffffffffffffffff8111156148305750505050614865565b80602083010160043d03850181111561484d575050505050614865565b61485c82602001850186613020565b82955050505050505b90565b7f455243313135353a207472616e7366657220746f206e6f6e204552433131353560008201527f526563656976657220696d706c656d656e746572000000000000000000000000602082015250565b60006148c4603483612db1565b91506148cf82614868565b604082019050919050565b600060208201905081810360008301526148f3816148b7565b9050919050565b7f455243313135353a204552433131353552656365697665722072656a6563746560008201527f6420746f6b656e73000000000000000000000000000000000000000000000000602082015250565b6000614956602883612db1565b9150614961826148fa565b604082019050919050565b6000602082019050818103600083015261498581614949565b9050919050565b7f4e487b7100000000000000000000000000000000000000000000000000000000600052602160045260246000fd5b7f45434453413a20696e76616c6964207369676e61747572650000000000000000600082015250565b60006149f1601883612db1565b91506149fc826149bb565b602082019050919050565b60006020820190508181036000830152614a20816149e4565b9050919050565b7f45434453413a20696e76616c6964207369676e6174757265206c656e67746800600082015250565b6000614a5d601f83612db1565b9150614a6882614a27565b602082019050919050565b60006020820190508181036000830152614a8c81614a50565b9050919050565b7f45434453413a20696e76616c6964207369676e6174757265202773272076616c60008201527f7565000000000000000000000000000000000000000000000000000000000000602082015250565b6000614aef602283612db1565b9150614afa82614a93565b604082019050919050565b60006020820190508181036000830152614b1e81614ae2565b9050919050565b7f45434453413a20696e76616c6964207369676e6174757265202776272076616c60008201527f7565000000000000000000000000000000000000000000000000000000000000602082015250565b6000614b81602283612db1565b9150614b8c82614b25565b604082019050919050565b60006020820190508181036000830152614bb081614b74565b9050919050565b600060a082019050614bcc6000830188612fb4565b614bd96020830187612fb4565b614be66040830186612cc1565b614bf36060830185612cc1565b8181036080830152614c0581846146c6565b90509695505050505050565b600060ff82169050919050565b614c2781614c11565b82525050565b6000608082019050614c426000830187612f4a565b614c4f6020830186614c1e565b614c5c6040830185612f4a565b614c696060830184612f4a565b9594505050505056fea264697066735822122098bccf47739b72b97d5ed2f41018e1fdf702424df4f0eaaf940ce783b3b917a164736f6c634300080e0033",
  "immutableReferences": {},
  "source": "// SPDX-License-Identifier: MIT\npragma solidity ^0.8.13;\n\nimport \"@openzeppelin/contracts/access/AccessControl.sol\";\nimport \"@openzeppelin/contracts/token/ERC1155/ERC1155.sol\";\nimport \"@openzeppelin/contracts/utils/introspection/ERC165.sol\";\nimport \"@openzeppelin/contracts/utils/cryptography/ECDSA.sol\";\nimport \"@openzeppelin/contracts/security/Pausable.sol\";\n\nimport \"../interfaces/IERC2981.sol\";\nimport \"../errors.sol\";\n\ncontract TokenV1 is\n  AccessControl,\n  ERC1155,\n  IERC2981,\n  Pausable\n{\n  using ECDSA for bytes32;\n\n  struct Token {\n    uint256 dateCreated;\n    address creator;\n    uint256 supply;\n    string metadataUri;\n    uint256 royaltyPct;\n  }\n\n  event Mint(\n    address operator,\n    uint256 id,\n    Token token,\n    string data\n  );\n\n  event RevokeMint(\n    address operator,\n    address creator,\n    uint256 supply,\n    string data\n  );\n\n  string public constant name = \"Fest Multi-Token\";\n  string public constant version = \"1.0\";\n\n  uint256 public constant hundredPct = 10_000;\n\n  bytes32 internal constant MINTER_ROLE =\n    keccak256(\"MINTER_ROLE\");\n  bytes internal constant EMPTY = \"\";\n\n  uint256 private _tokenId = 0;\n  mapping(uint256 => Token) _tokens;\n\n  mapping(bytes32 => bool) _approvalsExhausted;\n\n  constructor() ERC1155(\"\") {\n    _setupRole(DEFAULT_ADMIN_ROLE, msg.sender);\n\n    _setupRole(MINTER_ROLE, msg.sender);\n    _setRoleAdmin(MINTER_ROLE, DEFAULT_ADMIN_ROLE);\n  }\n\n  function uri(uint256 id)\n    public\n    view\n    override\n    returns (string memory)\n  {\n    return _tokens[id].metadataUri;\n  }\n\n  function get(uint256 id)\n    public\n    view\n    returns (Token memory)\n  {\n    return _tokens[id];\n  }\n\n  function royaltyInfo(uint256 tokenId, uint256 salePrice)\n    external\n    view\n    returns (address receiver, uint256 royaltyAmount)\n  {\n    receiver = _tokens[tokenId].creator;\n    royaltyAmount =\n      (salePrice * _tokens[tokenId].royaltyPct) /\n      hundredPct;\n  }\n\n  function supportsInterface(bytes4 interfaceId)\n    public\n    view\n    override(AccessControl, ERC1155, IERC165)\n    returns (bool)\n  {\n    return\n      interfaceId == type(IERC2981).interfaceId ||\n      super.supportsInterface(interfaceId);\n  }\n\n  function mintHash(\n    address creator,\n    uint256 supply,\n    string calldata metadataUri,\n    uint256 royaltyPct,\n    string calldata data,\n    uint256 nonce,\n    uint256 deadline\n  ) public view returns (bytes32) {\n    return\n      keccak256(\n        abi.encodePacked(\n          address(this),\n          creator,\n          supply,\n          metadataUri,\n          royaltyPct,\n          data,\n          nonce,\n          deadline\n        )\n      );\n  }\n\n  function mint(\n    address creator,\n    uint256 supply,\n    string calldata metadataUri,\n    uint256 royaltyPct,\n    string calldata data,\n    uint256 nonce,\n    uint256 deadline,\n    bytes memory signature\n  ) public whenNotPaused {\n    if (deadline <= block.timestamp) {\n      revert ApprovalExpired();\n    }\n\n    bytes32 mintHash_ = mintHash(\n      creator,\n      supply,\n      metadataUri,\n      royaltyPct,\n      data,\n      nonce,\n      deadline\n    );\n\n    if (_approvalsExhausted[mintHash_]) {\n      revert ApprovalExhausted();\n    }\n\n    address recoveredAddress = mintHash_\n      .toEthSignedMessageHash()\n      .recover(signature);\n\n    if (\n      recoveredAddress == address(0) ||\n      !hasRole(MINTER_ROLE, recoveredAddress)\n    ) {\n      revert InvalidSignature();\n    }\n\n    _approvalsExhausted[mintHash_] = true;\n\n    _tokenId++;\n\n    super._mint(creator, _tokenId, supply, EMPTY);\n\n    Token memory token = Token(\n      block.timestamp,\n      creator,\n      supply,\n      metadataUri,\n      royaltyPct\n    );\n\n    _tokens[_tokenId] = token;\n\n    emit Mint(msg.sender, _tokenId, token, data);\n  }\n\n  function revokeMintApproval(\n    address creator,\n    uint256 supply,\n    string calldata metadataUri,\n    uint256 royaltyPct,\n    string calldata data,\n    uint256 nonce,\n    uint256 deadline\n  ) public onlyRole(MINTER_ROLE) {\n    bytes32 mintHash_ = mintHash(\n      creator,\n      supply,\n      metadataUri,\n      royaltyPct,\n      data,\n      nonce,\n      deadline\n    );\n\n    if (_approvalsExhausted[mintHash_]) {\n      revert ApprovalExhausted();\n    }\n\n    _approvalsExhausted[mintHash_] = true;\n\n    emit RevokeMint(msg.sender, creator, supply, data);\n  }\n\n  function setPaused(bool paused)\n    external\n    onlyRole(DEFAULT_ADMIN_ROLE)\n  {\n    if (paused) {\n      _pause();\n    } else {\n      _unpause();\n    }\n  }\n}\n",
  "sourcePath": "/Users/husnain/Desktop/other/fest/packages/ethereum/contracts/solidity/contracts/token/TokenV1.sol",
  "compiler": {
    "name": "solc",
    "version": "0.8.14+commit.80d49f37.Emscripten.clang"
  },
  "schemaVersion": "3.4.4",
  "updatedAt": "2022-06-04T17:26:29.122Z",
  "networkType": "ethereum",
  "devdoc": {
    "kind": "dev",
    "methods": {
      "balanceOf(address,uint256)": {
        "details": "See {IERC1155-balanceOf}. Requirements: - `account` cannot be the zero address."
      },
      "balanceOfBatch(address[],uint256[])": {
        "details": "See {IERC1155-balanceOfBatch}. Requirements: - `accounts` and `ids` must have the same length."
      },
      "getRoleAdmin(bytes32)": {
        "details": "Returns the admin role that controls `role`. See {grantRole} and {revokeRole}. To change a role's admin, use {_setRoleAdmin}."
      },
      "grantRole(bytes32,address)": {
        "details": "Grants `role` to `account`. If `account` had not been already granted `role`, emits a {RoleGranted} event. Requirements: - the caller must have ``role``'s admin role."
      },
      "hasRole(bytes32,address)": {
        "details": "Returns `true` if `account` has been granted `role`."
      },
      "isApprovedForAll(address,address)": {
        "details": "See {IERC1155-isApprovedForAll}."
      },
      "paused()": {
        "details": "Returns true if the contract is paused, and false otherwise."
      },
      "renounceRole(bytes32,address)": {
        "details": "Revokes `role` from the calling account. Roles are often managed via {grantRole} and {revokeRole}: this function's purpose is to provide a mechanism for accounts to lose their privileges if they are compromised (such as when a trusted device is misplaced). If the calling account had been revoked `role`, emits a {RoleRevoked} event. Requirements: - the caller must be `account`."
      },
      "revokeRole(bytes32,address)": {
        "details": "Revokes `role` from `account`. If `account` had been granted `role`, emits a {RoleRevoked} event. Requirements: - the caller must have ``role``'s admin role."
      },
      "safeBatchTransferFrom(address,address,uint256[],uint256[],bytes)": {
        "details": "See {IERC1155-safeBatchTransferFrom}."
      },
      "safeTransferFrom(address,address,uint256,uint256,bytes)": {
        "details": "See {IERC1155-safeTransferFrom}."
      },
      "setApprovalForAll(address,bool)": {
        "details": "See {IERC1155-setApprovalForAll}."
      }
    },
    "version": 1
  },
  "userdoc": {
    "kind": "user",
    "methods": {},
    "version": 1
  }
}