{
  "contractName": "TokenV1",
  "abi": [
    {
      "inputs": [],
      "stateMutability": "nonpayable",
      "type": "constructor"
    },
    {
      "inputs": [],
      "name": "ApprovalExhausted",
      "type": "error"
    },
    {
      "inputs": [],
      "name": "ApprovalExpired",
      "type": "error"
    },
    {
      "inputs": [],
      "name": "InvalidSignature",
      "type": "error"
    },
    {
      "inputs": [],
      "name": "Unauthorized",
      "type": "error"
    },
    {
      "anonymous": false,
      "inputs": [
        {
          "indexed": true,
          "internalType": "address",
          "name": "account",
          "type": "address"
        },
        {
          "indexed": true,
          "internalType": "address",
          "name": "operator",
          "type": "address"
        },
        {
          "indexed": false,
          "internalType": "bool",
          "name": "approved",
          "type": "bool"
        }
      ],
      "name": "ApprovalForAll",
      "type": "event"
    },
    {
      "anonymous": false,
      "inputs": [
        {
          "indexed": true,
          "internalType": "address",
          "name": "operator",
          "type": "address"
        },
        {
          "indexed": true,
          "internalType": "uint256",
          "name": "id",
          "type": "uint256"
        },
        {
          "components": [
            {
              "internalType": "uint256",
              "name": "id",
              "type": "uint256"
            },
            {
              "internalType": "uint256",
              "name": "dateCreated",
              "type": "uint256"
            },
            {
              "internalType": "address",
              "name": "creator",
              "type": "address"
            },
            {
              "internalType": "uint256",
              "name": "supply",
              "type": "uint256"
            },
            {
              "internalType": "string",
              "name": "metadataUri",
              "type": "string"
            },
            {
              "internalType": "uint256",
              "name": "royaltyPct",
              "type": "uint256"
            }
          ],
          "indexed": false,
          "internalType": "struct TokenV1.Token",
          "name": "token",
          "type": "tuple"
        },
        {
          "indexed": false,
          "internalType": "string",
          "name": "data",
          "type": "string"
        }
      ],
      "name": "Mint",
      "type": "event"
    },
    {
      "anonymous": false,
      "inputs": [
        {
          "indexed": true,
          "internalType": "address",
          "name": "operator",
          "type": "address"
        },
        {
          "indexed": true,
          "internalType": "address",
          "name": "creator",
          "type": "address"
        },
        {
          "indexed": false,
          "internalType": "uint256",
          "name": "supply",
          "type": "uint256"
        },
        {
          "indexed": false,
          "internalType": "string",
          "name": "data",
          "type": "string"
        }
      ],
      "name": "RevokeMint",
      "type": "event"
    },
    {
      "anonymous": false,
      "inputs": [
        {
          "indexed": true,
          "internalType": "bytes32",
          "name": "role",
          "type": "bytes32"
        },
        {
          "indexed": true,
          "internalType": "bytes32",
          "name": "previousAdminRole",
          "type": "bytes32"
        },
        {
          "indexed": true,
          "internalType": "bytes32",
          "name": "newAdminRole",
          "type": "bytes32"
        }
      ],
      "name": "RoleAdminChanged",
      "type": "event"
    },
    {
      "anonymous": false,
      "inputs": [
        {
          "indexed": true,
          "internalType": "bytes32",
          "name": "role",
          "type": "bytes32"
        },
        {
          "indexed": true,
          "internalType": "address",
          "name": "account",
          "type": "address"
        },
        {
          "indexed": true,
          "internalType": "address",
          "name": "sender",
          "type": "address"
        }
      ],
      "name": "RoleGranted",
      "type": "event"
    },
    {
      "anonymous": false,
      "inputs": [
        {
          "indexed": true,
          "internalType": "bytes32",
          "name": "role",
          "type": "bytes32"
        },
        {
          "indexed": true,
          "internalType": "address",
          "name": "account",
          "type": "address"
        },
        {
          "indexed": true,
          "internalType": "address",
          "name": "sender",
          "type": "address"
        }
      ],
      "name": "RoleRevoked",
      "type": "event"
    },
    {
      "anonymous": false,
      "inputs": [
        {
          "indexed": true,
          "internalType": "address",
          "name": "operator",
          "type": "address"
        },
        {
          "indexed": true,
          "internalType": "address",
          "name": "from",
          "type": "address"
        },
        {
          "indexed": true,
          "internalType": "address",
          "name": "to",
          "type": "address"
        },
        {
          "indexed": false,
          "internalType": "uint256[]",
          "name": "ids",
          "type": "uint256[]"
        },
        {
          "indexed": false,
          "internalType": "uint256[]",
          "name": "values",
          "type": "uint256[]"
        }
      ],
      "name": "TransferBatch",
      "type": "event"
    },
    {
      "anonymous": false,
      "inputs": [
        {
          "indexed": true,
          "internalType": "address",
          "name": "operator",
          "type": "address"
        },
        {
          "indexed": true,
          "internalType": "address",
          "name": "from",
          "type": "address"
        },
        {
          "indexed": true,
          "internalType": "address",
          "name": "to",
          "type": "address"
        },
        {
          "indexed": false,
          "internalType": "uint256",
          "name": "id",
          "type": "uint256"
        },
        {
          "indexed": false,
          "internalType": "uint256",
          "name": "value",
          "type": "uint256"
        }
      ],
      "name": "TransferSingle",
      "type": "event"
    },
    {
      "anonymous": false,
      "inputs": [
        {
          "indexed": false,
          "internalType": "string",
          "name": "value",
          "type": "string"
        },
        {
          "indexed": true,
          "internalType": "uint256",
          "name": "id",
          "type": "uint256"
        }
      ],
      "name": "URI",
      "type": "event"
    },
    {
      "inputs": [],
      "name": "DEFAULT_ADMIN_ROLE",
      "outputs": [
        {
          "internalType": "bytes32",
          "name": "",
          "type": "bytes32"
        }
      ],
      "stateMutability": "view",
      "type": "function",
      "constant": true
    },
    {
      "inputs": [
        {
          "internalType": "address",
          "name": "account",
          "type": "address"
        },
        {
          "internalType": "uint256",
          "name": "id",
          "type": "uint256"
        }
      ],
      "name": "balanceOf",
      "outputs": [
        {
          "internalType": "uint256",
          "name": "",
          "type": "uint256"
        }
      ],
      "stateMutability": "view",
      "type": "function",
      "constant": true
    },
    {
      "inputs": [
        {
          "internalType": "address[]",
          "name": "accounts",
          "type": "address[]"
        },
        {
          "internalType": "uint256[]",
          "name": "ids",
          "type": "uint256[]"
        }
      ],
      "name": "balanceOfBatch",
      "outputs": [
        {
          "internalType": "uint256[]",
          "name": "",
          "type": "uint256[]"
        }
      ],
      "stateMutability": "view",
      "type": "function",
      "constant": true
    },
    {
      "inputs": [
        {
          "internalType": "bytes32",
          "name": "role",
          "type": "bytes32"
        }
      ],
      "name": "getRoleAdmin",
      "outputs": [
        {
          "internalType": "bytes32",
          "name": "",
          "type": "bytes32"
        }
      ],
      "stateMutability": "view",
      "type": "function",
      "constant": true
    },
    {
      "inputs": [
        {
          "internalType": "bytes32",
          "name": "role",
          "type": "bytes32"
        },
        {
          "internalType": "address",
          "name": "account",
          "type": "address"
        }
      ],
      "name": "grantRole",
      "outputs": [],
      "stateMutability": "nonpayable",
      "type": "function"
    },
    {
      "inputs": [
        {
          "internalType": "bytes32",
          "name": "role",
          "type": "bytes32"
        },
        {
          "internalType": "address",
          "name": "account",
          "type": "address"
        }
      ],
      "name": "hasRole",
      "outputs": [
        {
          "internalType": "bool",
          "name": "",
          "type": "bool"
        }
      ],
      "stateMutability": "view",
      "type": "function",
      "constant": true
    },
    {
      "inputs": [],
      "name": "hundredPct",
      "outputs": [
        {
          "internalType": "uint256",
          "name": "",
          "type": "uint256"
        }
      ],
      "stateMutability": "view",
      "type": "function",
      "constant": true
    },
    {
      "inputs": [
        {
          "internalType": "address",
          "name": "account",
          "type": "address"
        },
        {
          "internalType": "address",
          "name": "operator",
          "type": "address"
        }
      ],
      "name": "isApprovedForAll",
      "outputs": [
        {
          "internalType": "bool",
          "name": "",
          "type": "bool"
        }
      ],
      "stateMutability": "view",
      "type": "function",
      "constant": true
    },
    {
      "inputs": [],
      "name": "name",
      "outputs": [
        {
          "internalType": "string",
          "name": "",
          "type": "string"
        }
      ],
      "stateMutability": "view",
      "type": "function",
      "constant": true
    },
    {
      "inputs": [
        {
          "internalType": "bytes32",
          "name": "role",
          "type": "bytes32"
        },
        {
          "internalType": "address",
          "name": "account",
          "type": "address"
        }
      ],
      "name": "renounceRole",
      "outputs": [],
      "stateMutability": "nonpayable",
      "type": "function"
    },
    {
      "inputs": [
        {
          "internalType": "bytes32",
          "name": "role",
          "type": "bytes32"
        },
        {
          "internalType": "address",
          "name": "account",
          "type": "address"
        }
      ],
      "name": "revokeRole",
      "outputs": [],
      "stateMutability": "nonpayable",
      "type": "function"
    },
    {
      "inputs": [
        {
          "internalType": "address",
          "name": "from",
          "type": "address"
        },
        {
          "internalType": "address",
          "name": "to",
          "type": "address"
        },
        {
          "internalType": "uint256[]",
          "name": "ids",
          "type": "uint256[]"
        },
        {
          "internalType": "uint256[]",
          "name": "amounts",
          "type": "uint256[]"
        },
        {
          "internalType": "bytes",
          "name": "data",
          "type": "bytes"
        }
      ],
      "name": "safeBatchTransferFrom",
      "outputs": [],
      "stateMutability": "nonpayable",
      "type": "function"
    },
    {
      "inputs": [
        {
          "internalType": "address",
          "name": "from",
          "type": "address"
        },
        {
          "internalType": "address",
          "name": "to",
          "type": "address"
        },
        {
          "internalType": "uint256",
          "name": "id",
          "type": "uint256"
        },
        {
          "internalType": "uint256",
          "name": "amount",
          "type": "uint256"
        },
        {
          "internalType": "bytes",
          "name": "data",
          "type": "bytes"
        }
      ],
      "name": "safeTransferFrom",
      "outputs": [],
      "stateMutability": "nonpayable",
      "type": "function"
    },
    {
      "inputs": [
        {
          "internalType": "address",
          "name": "operator",
          "type": "address"
        },
        {
          "internalType": "bool",
          "name": "approved",
          "type": "bool"
        }
      ],
      "name": "setApprovalForAll",
      "outputs": [],
      "stateMutability": "nonpayable",
      "type": "function"
    },
    {
      "inputs": [],
      "name": "version",
      "outputs": [
        {
          "internalType": "string",
          "name": "",
          "type": "string"
        }
      ],
      "stateMutability": "view",
      "type": "function",
      "constant": true
    },
    {
      "inputs": [
        {
          "internalType": "uint256",
          "name": "id",
          "type": "uint256"
        }
      ],
      "name": "uri",
      "outputs": [
        {
          "internalType": "string",
          "name": "",
          "type": "string"
        }
      ],
      "stateMutability": "view",
      "type": "function",
      "constant": true
    },
    {
      "inputs": [
        {
          "internalType": "uint256",
          "name": "id",
          "type": "uint256"
        }
      ],
      "name": "get",
      "outputs": [
        {
          "components": [
            {
              "internalType": "uint256",
              "name": "id",
              "type": "uint256"
            },
            {
              "internalType": "uint256",
              "name": "dateCreated",
              "type": "uint256"
            },
            {
              "internalType": "address",
              "name": "creator",
              "type": "address"
            },
            {
              "internalType": "uint256",
              "name": "supply",
              "type": "uint256"
            },
            {
              "internalType": "string",
              "name": "metadataUri",
              "type": "string"
            },
            {
              "internalType": "uint256",
              "name": "royaltyPct",
              "type": "uint256"
            }
          ],
          "internalType": "struct TokenV1.Token",
          "name": "",
          "type": "tuple"
        }
      ],
      "stateMutability": "view",
      "type": "function",
      "constant": true
    },
    {
      "inputs": [
        {
          "internalType": "uint256",
          "name": "tokenId",
          "type": "uint256"
        },
        {
          "internalType": "uint256",
          "name": "salePrice",
          "type": "uint256"
        }
      ],
      "name": "royaltyInfo",
      "outputs": [
        {
          "internalType": "address",
          "name": "receiver",
          "type": "address"
        },
        {
          "internalType": "uint256",
          "name": "royaltyAmount",
          "type": "uint256"
        }
      ],
      "stateMutability": "view",
      "type": "function",
      "constant": true
    },
    {
      "inputs": [
        {
          "internalType": "bytes4",
          "name": "interfaceId",
          "type": "bytes4"
        }
      ],
      "name": "supportsInterface",
      "outputs": [
        {
          "internalType": "bool",
          "name": "",
          "type": "bool"
        }
      ],
      "stateMutability": "view",
      "type": "function",
      "constant": true
    },
    {
      "inputs": [
        {
          "internalType": "address",
          "name": "creator",
          "type": "address"
        },
        {
          "internalType": "uint256",
          "name": "supply",
          "type": "uint256"
        },
        {
          "internalType": "string",
          "name": "metadataUri",
          "type": "string"
        },
        {
          "internalType": "uint256",
          "name": "royaltyPct",
          "type": "uint256"
        },
        {
          "internalType": "string",
          "name": "data",
          "type": "string"
        },
        {
          "internalType": "uint256",
          "name": "nonce",
          "type": "uint256"
        },
        {
          "internalType": "uint256",
          "name": "deadline",
          "type": "uint256"
        }
      ],
      "name": "mintHash",
      "outputs": [
        {
          "internalType": "bytes32",
          "name": "",
          "type": "bytes32"
        }
      ],
      "stateMutability": "view",
      "type": "function",
      "constant": true
    },
    {
      "inputs": [
        {
          "internalType": "address",
          "name": "creator",
          "type": "address"
        },
        {
          "internalType": "uint256",
          "name": "supply",
          "type": "uint256"
        },
        {
          "internalType": "string",
          "name": "metadataUri",
          "type": "string"
        },
        {
          "internalType": "uint256",
          "name": "royaltyPct",
          "type": "uint256"
        },
        {
          "internalType": "string",
          "name": "data",
          "type": "string"
        },
        {
          "internalType": "uint256",
          "name": "nonce",
          "type": "uint256"
        },
        {
          "internalType": "uint256",
          "name": "deadline",
          "type": "uint256"
        },
        {
          "internalType": "bytes",
          "name": "signature",
          "type": "bytes"
        }
      ],
      "name": "mint",
      "outputs": [],
      "stateMutability": "nonpayable",
      "type": "function"
    },
    {
      "inputs": [
        {
          "internalType": "address",
          "name": "creator",
          "type": "address"
        },
        {
          "internalType": "uint256",
          "name": "supply",
          "type": "uint256"
        },
        {
          "internalType": "string",
          "name": "metadataUri",
          "type": "string"
        },
        {
          "internalType": "uint256",
          "name": "royaltyPct",
          "type": "uint256"
        },
        {
          "internalType": "string",
          "name": "data",
          "type": "string"
        },
        {
          "internalType": "uint256",
          "name": "nonce",
          "type": "uint256"
        },
        {
          "internalType": "uint256",
          "name": "deadline",
          "type": "uint256"
        }
      ],
      "name": "revokeMintApproval",
      "outputs": [],
      "stateMutability": "nonpayable",
      "type": "function"
    }
  ],
  "bytecode": "0x608060405260006004553480156200001657600080fd5b50604051806020016040528060008152506200003881620000bb60201b60201c565b506200004e6000801b33620000d760201b60201c565b620000807f9f2df0fed2c77648de5860a4cc508cd0818c85b8b8a1ab4ceeef8d981c8956a633620000d760201b60201c565b620000b57f9f2df0fed2c77648de5860a4cc508cd0818c85b8b8a1ab4ceeef8d981c8956a66000801b620000ed60201b60201c565b620003e7565b8060039080519060200190620000d3929190620002d2565b5050565b620000e982826200015060201b60201c565b5050565b600062000100836200024160201b60201c565b905081600080858152602001908152602001600020600101819055508181847fbd79b86ffe0ab8e8776151514217cd7cacd52c909f66475c3af44e129f0b00ff60405160405180910390a4505050565b6200016282826200026060201b60201c565b6200023d57600160008084815260200190815260200160002060000160008373ffffffffffffffffffffffffffffffffffffffff1673ffffffffffffffffffffffffffffffffffffffff16815260200190815260200160002060006101000a81548160ff021916908315150217905550620001e2620002ca60201b60201c565b73ffffffffffffffffffffffffffffffffffffffff168173ffffffffffffffffffffffffffffffffffffffff16837f2f8788117e7eff1d82e926ec794901d17c78024a50270940304540a733656f0d60405160405180910390a45b5050565b6000806000838152602001908152602001600020600101549050919050565b600080600084815260200190815260200160002060000160008373ffffffffffffffffffffffffffffffffffffffff1673ffffffffffffffffffffffffffffffffffffffff16815260200190815260200160002060009054906101000a900460ff16905092915050565b600033905090565b828054620002e090620003b1565b90600052602060002090601f01602090048101928262000304576000855562000350565b82601f106200031f57805160ff191683800117855562000350565b8280016001018555821562000350579182015b828111156200034f57825182559160200191906001019062000332565b5b5090506200035f919062000363565b5090565b5b808211156200037e57600081600090555060010162000364565b5090565b7f4e487b7100000000000000000000000000000000000000000000000000000000600052602260045260246000fd5b60006002820490506001821680620003ca57607f821691505b60208210811415620003e157620003e062000382565b5b50919050565b6149e480620003f76000396000f3fe608060405234801561001057600080fd5b50600436106101415760003560e01c806354fd4d50116100b8578063a22cb4651161007c578063a22cb465146103ad578063d428dc2b146103c9578063d547741f146103e7578063dd5025f214610403578063e985e9c514610433578063f242432a1461046357610141565b806354fd4d50146102f557806391d14854146103135780639507d39a146103435780639c63030d14610373578063a217fddf1461038f57610141565b80632a55205a1161010a5780632a55205a146102245780632eb2c2d6146102555780632f2ff15d1461027157806336568abe1461028d57806340f3bd4f146102a95780634e1273f4146102c557610141565b8062fdd58e1461014657806301ffc9a71461017657806306fdde03146101a65780630e89341c146101c4578063248a9ca3146101f4575b600080fd5b610160600480360381019061015b9190612af9565b61047f565b60405161016d9190612b48565b60405180910390f35b610190600480360381019061018b9190612bbb565b610549565b60405161019d9190612c03565b60405180910390f35b6101ae6105c3565b6040516101bb9190612cb7565b60405180910390f35b6101de60048036038101906101d99190612cd9565b6105fc565b6040516101eb9190612cb7565b60405180910390f35b61020e60048036038101906102099190612d3c565b6106a4565b60405161021b9190612d78565b60405180910390f35b61023e60048036038101906102399190612d93565b6106c3565b60405161024c929190612de2565b60405180910390f35b61026f600480360381019061026a9190613008565b610737565b005b61028b600480360381019061028691906130d7565b6107d8565b005b6102a760048036038101906102a291906130d7565b610801565b005b6102c360048036038101906102be9190613172565b610884565b005b6102df60048036038101906102da9190613348565b610bd9565b6040516102ec919061347e565b60405180910390f35b6102fd610cf2565b60405161030a9190612cb7565b60405180910390f35b61032d600480360381019061032891906130d7565b610d2b565b60405161033a9190612c03565b60405180910390f35b61035d60048036038101906103589190612cd9565b610d95565b60405161036a9190613582565b60405180910390f35b61038d600480360381019061038891906135a4565b610ed2565b005b610397611040565b6040516103a49190612d78565b60405180910390f35b6103c760048036038101906103c291906136b2565b611047565b005b6103d161105d565b6040516103de9190612b48565b60405180910390f35b61040160048036038101906103fc91906130d7565b611063565b005b61041d600480360381019061041891906135a4565b61108c565b60405161042a9190612d78565b60405180910390f35b61044d600480360381019061044891906136f2565b6110d6565b60405161045a9190612c03565b60405180910390f35b61047d60048036038101906104789190613732565b61116a565b005b60008073ffffffffffffffffffffffffffffffffffffffff168373ffffffffffffffffffffffffffffffffffffffff1614156104f0576040517f08c379a00000000000000000000000000000000000000000000000000000000081526004016104e79061383b565b60405180910390fd5b6001600083815260200190815260200160002060008473ffffffffffffffffffffffffffffffffffffffff1673ffffffffffffffffffffffffffffffffffffffff16815260200190815260200160002054905092915050565b60007f2a55205a000000000000000000000000000000000000000000000000000000007bffffffffffffffffffffffffffffffffffffffffffffffffffffffff1916827bffffffffffffffffffffffffffffffffffffffffffffffffffffffff191614806105bc57506105bb8261120b565b5b9050919050565b6040518060400160405280601081526020017f46657374204d756c74692d546f6b656e0000000000000000000000000000000081525081565b606060056000838152602001908152602001600020600401805461061f9061388a565b80601f016020809104026020016040519081016040528092919081815260200182805461064b9061388a565b80156106985780601f1061066d57610100808354040283529160200191610698565b820191906000526020600020905b81548152906001019060200180831161067b57829003601f168201915b50505050509050919050565b6000806000838152602001908152602001600020600101549050919050565b6000806005600085815260200190815260200160002060020160009054906101000a900473ffffffffffffffffffffffffffffffffffffffff16915061271060056000868152602001908152602001600020600501548461072491906138eb565b61072e9190613974565b90509250929050565b61073f6112ed565b73ffffffffffffffffffffffffffffffffffffffff168573ffffffffffffffffffffffffffffffffffffffff16148061078557506107848561077f6112ed565b6110d6565b5b6107c4576040517f08c379a00000000000000000000000000000000000000000000000000000000081526004016107bb90613a17565b60405180910390fd5b6107d185858585856112f5565b5050505050565b6107e1826106a4565b6107f2816107ed6112ed565b61160c565b6107fc83836116a9565b505050565b6108096112ed565b73ffffffffffffffffffffffffffffffffffffffff168173ffffffffffffffffffffffffffffffffffffffff1614610876576040517f08c379a000000000000000000000000000000000000000000000000000000000815260040161086d90613aa9565b60405180910390fd5b6108808282611789565b5050565b4282116108bd576040517f955b334a00000000000000000000000000000000000000000000000000000000815260040160405180910390fd5b60006108d08b8b8b8b8b8b8b8b8b61108c565b90506006600082815260200190815260200160002060009054906101000a900460ff161561092a576040517fb9ae9fd800000000000000000000000000000000000000000000000000000000815260040160405180910390fd5b6000610947836109398461186a565b61189a90919063ffffffff16565b9050600073ffffffffffffffffffffffffffffffffffffffff168173ffffffffffffffffffffffffffffffffffffffff1614806109ab57506109a97f9f2df0fed2c77648de5860a4cc508cd0818c85b8b8a1ab4ceeef8d981c8956a682610d2b565b155b156109e2576040517f8baa579f00000000000000000000000000000000000000000000000000000000815260040160405180910390fd5b60016006600084815260200190815260200160002060006101000a81548160ff02191690831515021790555060046000815480929190610a2190613ac9565b9190505550610a438c6004548d604051806020016040528060008152506118c1565b60006040518060c0016040528060045481526020014281526020018e73ffffffffffffffffffffffffffffffffffffffff1681526020018d81526020018c8c8080601f016020809104026020016040519081016040528093929190818152602001838380828437600081840152601f19601f8201169050808301925050505050505081526020018a815250905080600560006004548152602001908152602001600020600082015181600001556020820151816001015560408201518160020160006101000a81548173ffffffffffffffffffffffffffffffffffffffff021916908373ffffffffffffffffffffffffffffffffffffffff160217905550606082015181600301556080820151816004019080519060200190610b67929190612962565b5060a082015181600501559050506004543373ffffffffffffffffffffffffffffffffffffffff167fe7a55f2af638f0864e7207b361d7b1f3b2d82f1902b36c9f0f5ba52cd072979a838b8b604051610bc293929190613b3f565b60405180910390a350505050505050505050505050565b60608151835114610c1f576040517f08c379a0000000000000000000000000000000000000000000000000000000008152600401610c1690613bea565b60405180910390fd5b6000835167ffffffffffffffff811115610c3c57610c3b612e10565b5b604051908082528060200260200182016040528015610c6a5781602001602082028036833780820191505090505b50905060005b8451811015610ce757610cb7858281518110610c8f57610c8e613c0a565b5b6020026020010151858381518110610caa57610ca9613c0a565b5b602002602001015161047f565b828281518110610cca57610cc9613c0a565b5b60200260200101818152505080610ce090613ac9565b9050610c70565b508091505092915050565b6040518060400160405280600381526020017f312e30000000000000000000000000000000000000000000000000000000000081525081565b600080600084815260200190815260200160002060000160008373ffffffffffffffffffffffffffffffffffffffff1673ffffffffffffffffffffffffffffffffffffffff16815260200190815260200160002060009054906101000a900460ff16905092915050565b610d9d6129e8565b600560008381526020019081526020016000206040518060c001604052908160008201548152602001600182015481526020016002820160009054906101000a900473ffffffffffffffffffffffffffffffffffffffff1673ffffffffffffffffffffffffffffffffffffffff1673ffffffffffffffffffffffffffffffffffffffff16815260200160038201548152602001600482018054610e3f9061388a565b80601f0160208091040260200160405190810160405280929190818152602001828054610e6b9061388a565b8015610eb85780601f10610e8d57610100808354040283529160200191610eb8565b820191906000526020600020905b815481529060010190602001808311610e9b57829003601f168201915b505050505081526020016005820154815250509050919050565b610efc7f9f2df0fed2c77648de5860a4cc508cd0818c85b8b8a1ab4ceeef8d981c8956a633610d2b565b610f32576040517f82b4290000000000000000000000000000000000000000000000000000000000815260040160405180910390fd5b6000610f458a8a8a8a8a8a8a8a8a61108c565b90506006600082815260200190815260200160002060009054906101000a900460ff1615610f9f576040517fb9ae9fd800000000000000000000000000000000000000000000000000000000815260040160405180910390fd5b60016006600083815260200190815260200160002060006101000a81548160ff0219169083151502179055508973ffffffffffffffffffffffffffffffffffffffff163373ffffffffffffffffffffffffffffffffffffffff167f4fbc860d2cbc005395b0c8062b69f6f63fa32d000f1f3822605e5bf5d15586548b888860405161102c93929190613c39565b60405180910390a350505050505050505050565b6000801b81565b6110596110526112ed565b8383611a58565b5050565b61271081565b61106c826106a4565b61107d816110786112ed565b61160c565b6110878383611789565b505050565b6000308a8a8a8a8a8a8a8a8a6040516020016110b19a99989796959493929190613d04565b6040516020818303038152906040528051906020012090509998505050505050505050565b6000600260008473ffffffffffffffffffffffffffffffffffffffff1673ffffffffffffffffffffffffffffffffffffffff16815260200190815260200160002060008373ffffffffffffffffffffffffffffffffffffffff1673ffffffffffffffffffffffffffffffffffffffff16815260200190815260200160002060009054906101000a900460ff16905092915050565b6111726112ed565b73ffffffffffffffffffffffffffffffffffffffff168573ffffffffffffffffffffffffffffffffffffffff1614806111b857506111b7856111b26112ed565b6110d6565b5b6111f7576040517f08c379a00000000000000000000000000000000000000000000000000000000081526004016111ee90613e04565b60405180910390fd5b6112048585858585611bc5565b5050505050565b60007fd9b67a26000000000000000000000000000000000000000000000000000000007bffffffffffffffffffffffffffffffffffffffffffffffffffffffff1916827bffffffffffffffffffffffffffffffffffffffffffffffffffffffff191614806112d657507f0e89341c000000000000000000000000000000000000000000000000000000007bffffffffffffffffffffffffffffffffffffffffffffffffffffffff1916827bffffffffffffffffffffffffffffffffffffffffffffffffffffffff1916145b806112e657506112e582611e4a565b5b9050919050565b600033905090565b8151835114611339576040517f08c379a000000000000000000000000000000000000000000000000000000000815260040161133090613e96565b60405180910390fd5b600073ffffffffffffffffffffffffffffffffffffffff168473ffffffffffffffffffffffffffffffffffffffff1614156113a9576040517f08c379a00000000000000000000000000000000000000000000000000000000081526004016113a090613f28565b60405180910390fd5b60006113b36112ed565b90506113c3818787878787611ec4565b60005b84518110156115775760008582815181106113e4576113e3613c0a565b5b60200260200101519050600085838151811061140357611402613c0a565b5b6020026020010151905060006001600084815260200190815260200160002060008b73ffffffffffffffffffffffffffffffffffffffff1673ffffffffffffffffffffffffffffffffffffffff168152602001908152602001600020549050818110156114a5576040517f08c379a000000000000000000000000000000000000000000000000000000000815260040161149c90613fba565b60405180910390fd5b8181036001600085815260200190815260200160002060008c73ffffffffffffffffffffffffffffffffffffffff1673ffffffffffffffffffffffffffffffffffffffff16815260200190815260200160002081905550816001600085815260200190815260200160002060008b73ffffffffffffffffffffffffffffffffffffffff1673ffffffffffffffffffffffffffffffffffffffff168152602001908152602001600020600082825461155c9190613fda565b925050819055505050508061157090613ac9565b90506113c6565b508473ffffffffffffffffffffffffffffffffffffffff168673ffffffffffffffffffffffffffffffffffffffff168273ffffffffffffffffffffffffffffffffffffffff167f4a39dc06d4c0dbc64b70af90fd698a233a518aa5d07e595d983b8c0526c8f7fb87876040516115ee929190614030565b60405180910390a4611604818787878787611ecc565b505050505050565b6116168282610d2b565b6116a55761163b8173ffffffffffffffffffffffffffffffffffffffff1660146120a4565b6116498360001c60206120a4565b60405160200161165a929190614130565b6040516020818303038152906040526040517f08c379a000000000000000000000000000000000000000000000000000000000815260040161169c9190612cb7565b60405180910390fd5b5050565b6116b38282610d2b565b61178557600160008084815260200190815260200160002060000160008373ffffffffffffffffffffffffffffffffffffffff1673ffffffffffffffffffffffffffffffffffffffff16815260200190815260200160002060006101000a81548160ff02191690831515021790555061172a6112ed565b73ffffffffffffffffffffffffffffffffffffffff168173ffffffffffffffffffffffffffffffffffffffff16837f2f8788117e7eff1d82e926ec794901d17c78024a50270940304540a733656f0d60405160405180910390a45b5050565b6117938282610d2b565b1561186657600080600084815260200190815260200160002060000160008373ffffffffffffffffffffffffffffffffffffffff1673ffffffffffffffffffffffffffffffffffffffff16815260200190815260200160002060006101000a81548160ff02191690831515021790555061180b6112ed565b73ffffffffffffffffffffffffffffffffffffffff168173ffffffffffffffffffffffffffffffffffffffff16837ff6391f5c32d9c69d2a47ea670b442974b53935d1edc7fd64eb21e047a839171b60405160405180910390a45b5050565b60008160405160200161187d91906141d7565b604051602081830303815290604052805190602001209050919050565b60008060006118a985856122e0565b915091506118b681612363565b819250505092915050565b600073ffffffffffffffffffffffffffffffffffffffff168473ffffffffffffffffffffffffffffffffffffffff161415611931576040517f08c379a00000000000000000000000000000000000000000000000000000000081526004016119289061426f565b60405180910390fd5b600061193b6112ed565b905061195c8160008761194d88612538565b61195688612538565b87611ec4565b826001600086815260200190815260200160002060008773ffffffffffffffffffffffffffffffffffffffff1673ffffffffffffffffffffffffffffffffffffffff16815260200190815260200160002060008282546119bc9190613fda565b925050819055508473ffffffffffffffffffffffffffffffffffffffff16600073ffffffffffffffffffffffffffffffffffffffff168273ffffffffffffffffffffffffffffffffffffffff167fc3d58168c5ae7397731d063d5bbf3d657854427343f4c083240f7aacaa2d0f628787604051611a3a92919061428f565b60405180910390a4611a51816000878787876125b2565b5050505050565b8173ffffffffffffffffffffffffffffffffffffffff168373ffffffffffffffffffffffffffffffffffffffff161415611ac7576040517f08c379a0000000000000000000000000000000000000000000000000000000008152600401611abe9061432a565b60405180910390fd5b80600260008573ffffffffffffffffffffffffffffffffffffffff1673ffffffffffffffffffffffffffffffffffffffff16815260200190815260200160002060008473ffffffffffffffffffffffffffffffffffffffff1673ffffffffffffffffffffffffffffffffffffffff16815260200190815260200160002060006101000a81548160ff0219169083151502179055508173ffffffffffffffffffffffffffffffffffffffff168373ffffffffffffffffffffffffffffffffffffffff167f17307eab39ab6107e8899845ad3d59bd9653f200f220920489ca2b5937696c3183604051611bb89190612c03565b60405180910390a3505050565b600073ffffffffffffffffffffffffffffffffffffffff168473ffffffffffffffffffffffffffffffffffffffff161415611c35576040517f08c379a0000000000000000000000000000000000000000000000000000000008152600401611c2c90613f28565b60405180910390fd5b6000611c3f6112ed565b9050611c5f818787611c5088612538565b611c5988612538565b87611ec4565b60006001600086815260200190815260200160002060008873ffffffffffffffffffffffffffffffffffffffff1673ffffffffffffffffffffffffffffffffffffffff16815260200190815260200160002054905083811015611cf7576040517f08c379a0000000000000000000000000000000000000000000000000000000008152600401611cee90613fba565b60405180910390fd5b8381036001600087815260200190815260200160002060008973ffffffffffffffffffffffffffffffffffffffff1673ffffffffffffffffffffffffffffffffffffffff16815260200190815260200160002081905550836001600087815260200190815260200160002060008873ffffffffffffffffffffffffffffffffffffffff1673ffffffffffffffffffffffffffffffffffffffff1681526020019081526020016000206000828254611dae9190613fda565b925050819055508573ffffffffffffffffffffffffffffffffffffffff168773ffffffffffffffffffffffffffffffffffffffff168373ffffffffffffffffffffffffffffffffffffffff167fc3d58168c5ae7397731d063d5bbf3d657854427343f4c083240f7aacaa2d0f628888604051611e2b92919061428f565b60405180910390a4611e418288888888886125b2565b50505050505050565b60007f7965db0b000000000000000000000000000000000000000000000000000000007bffffffffffffffffffffffffffffffffffffffffffffffffffffffff1916827bffffffffffffffffffffffffffffffffffffffffffffffffffffffff19161480611ebd5750611ebc8261278a565b5b9050919050565b505050505050565b611eeb8473ffffffffffffffffffffffffffffffffffffffff166127f4565b1561209c578373ffffffffffffffffffffffffffffffffffffffff1663bc197c8187878686866040518663ffffffff1660e01b8152600401611f3195949392919061439f565b6020604051808303816000875af1925050508015611f6d57506040513d601f19601f82011682018060405250810190611f6a919061441c565b60015b61201357611f79614456565b806308c379a01415611fd65750611f8e614478565b80611f995750611fd8565b806040517f08c379a0000000000000000000000000000000000000000000000000000000008152600401611fcd9190612cb7565b60405180910390fd5b505b6040517f08c379a000000000000000000000000000000000000000000000000000000000815260040161200a90614580565b60405180910390fd5b63bc197c8160e01b7bffffffffffffffffffffffffffffffffffffffffffffffffffffffff1916817bffffffffffffffffffffffffffffffffffffffffffffffffffffffff19161461209a576040517f08c379a000000000000000000000000000000000000000000000000000000000815260040161209190614612565b60405180910390fd5b505b505050505050565b6060600060028360026120b791906138eb565b6120c19190613fda565b67ffffffffffffffff8111156120da576120d9612e10565b5b6040519080825280601f01601f19166020018201604052801561210c5781602001600182028036833780820191505090505b5090507f30000000000000000000000000000000000000000000000000000000000000008160008151811061214457612143613c0a565b5b60200101907effffffffffffffffffffffffffffffffffffffffffffffffffffffffffffff1916908160001a9053507f7800000000000000000000000000000000000000000000000000000000000000816001815181106121a8576121a7613c0a565b5b60200101907effffffffffffffffffffffffffffffffffffffffffffffffffffffffffffff1916908160001a905350600060018460026121e891906138eb565b6121f29190613fda565b90505b6001811115612292577f3031323334353637383961626364656600000000000000000000000000000000600f86166010811061223457612233613c0a565b5b1a60f81b82828151811061224b5761224a613c0a565b5b60200101907effffffffffffffffffffffffffffffffffffffffffffffffffffffffffffff1916908160001a905350600485901c94508061228b90614632565b90506121f5565b50600084146122d6576040517f08c379a00000000000000000000000000000000000000000000000000000000081526004016122cd906146a8565b60405180910390fd5b8091505092915050565b6000806041835114156123225760008060006020860151925060408601519150606086015160001a905061231687828585612807565b9450945050505061235c565b604083511415612353576000806020850151915060408501519050612348868383612914565b93509350505061235c565b60006002915091505b9250929050565b60006004811115612377576123766146c8565b5b81600481111561238a576123896146c8565b5b141561239557612535565b600160048111156123a9576123a86146c8565b5b8160048111156123bc576123bb6146c8565b5b14156123fd576040517f08c379a00000000000000000000000000000000000000000000000000000000081526004016123f490614743565b60405180910390fd5b60026004811115612411576124106146c8565b5b816004811115612424576124236146c8565b5b1415612465576040517f08c379a000000000000000000000000000000000000000000000000000000000815260040161245c906147af565b60405180910390fd5b60036004811115612479576124786146c8565b5b81600481111561248c5761248b6146c8565b5b14156124cd576040517f08c379a00000000000000000000000000000000000000000000000000000000081526004016124c490614841565b60405180910390fd5b6004808111156124e0576124df6146c8565b5b8160048111156124f3576124f26146c8565b5b1415612534576040517f08c379a000000000000000000000000000000000000000000000000000000000815260040161252b906148d3565b60405180910390fd5b5b50565b60606000600167ffffffffffffffff81111561255757612556612e10565b5b6040519080825280602002602001820160405280156125855781602001602082028036833780820191505090505b509050828160008151811061259d5761259c613c0a565b5b60200260200101818152505080915050919050565b6125d18473ffffffffffffffffffffffffffffffffffffffff166127f4565b15612782578373ffffffffffffffffffffffffffffffffffffffff1663f23a6e6187878686866040518663ffffffff1660e01b81526004016126179594939291906148f3565b6020604051808303816000875af192505050801561265357506040513d601f19601f82011682018060405250810190612650919061441c565b60015b6126f95761265f614456565b806308c379a014156126bc5750612674614478565b8061267f57506126be565b806040517f08c379a00000000000000000000000000000000000000000000000000000000081526004016126b39190612cb7565b60405180910390fd5b505b6040517f08c379a00000000000000000000000000000000000000000000000000000000081526004016126f090614580565b60405180910390fd5b63f23a6e6160e01b7bffffffffffffffffffffffffffffffffffffffffffffffffffffffff1916817bffffffffffffffffffffffffffffffffffffffffffffffffffffffff191614612780576040517f08c379a000000000000000000000000000000000000000000000000000000000815260040161277790614612565b60405180910390fd5b505b505050505050565b60007f01ffc9a7000000000000000000000000000000000000000000000000000000007bffffffffffffffffffffffffffffffffffffffffffffffffffffffff1916827bffffffffffffffffffffffffffffffffffffffffffffffffffffffff1916149050919050565b600080823b905060008111915050919050565b6000807f7fffffffffffffffffffffffffffffff5d576e7357a4501ddfe92f46681b20a08360001c111561284257600060039150915061290b565b601b8560ff161415801561285a5750601c8560ff1614155b1561286c57600060049150915061290b565b6000600187878787604051600081526020016040526040516128919493929190614969565b6020604051602081039080840390855afa1580156128b3573d6000803e3d6000fd5b505050602060405103519050600073ffffffffffffffffffffffffffffffffffffffff168173ffffffffffffffffffffffffffffffffffffffff1614156129025760006001925092505061290b565b80600092509250505b94509492505050565b6000806000807f7fffffffffffffffffffffffffffffffffffffffffffffffffffffffffffffff85169150601b8560ff1c01905061295487828885612807565b935093505050935093915050565b82805461296e9061388a565b90600052602060002090601f01602090048101928261299057600085556129d7565b82601f106129a957805160ff19168380011785556129d7565b828001600101855582156129d7579182015b828111156129d65782518255916020019190600101906129bb565b5b5090506129e49190612a34565b5090565b6040518060c001604052806000815260200160008152602001600073ffffffffffffffffffffffffffffffffffffffff1681526020016000815260200160608152602001600081525090565b5b80821115612a4d576000816000905550600101612a35565b5090565b6000604051905090565b600080fd5b600080fd5b600073ffffffffffffffffffffffffffffffffffffffff82169050919050565b6000612a9082612a65565b9050919050565b612aa081612a85565b8114612aab57600080fd5b50565b600081359050612abd81612a97565b92915050565b6000819050919050565b612ad681612ac3565b8114612ae157600080fd5b50565b600081359050612af381612acd565b92915050565b60008060408385031215612b1057612b0f612a5b565b5b6000612b1e85828601612aae565b9250506020612b2f85828601612ae4565b9150509250929050565b612b4281612ac3565b82525050565b6000602082019050612b5d6000830184612b39565b92915050565b60007fffffffff0000000000000000000000000000000000000000000000000000000082169050919050565b612b9881612b63565b8114612ba357600080fd5b50565b600081359050612bb581612b8f565b92915050565b600060208284031215612bd157612bd0612a5b565b5b6000612bdf84828501612ba6565b91505092915050565b60008115159050919050565b612bfd81612be8565b82525050565b6000602082019050612c186000830184612bf4565b92915050565b600081519050919050565b600082825260208201905092915050565b60005b83811015612c58578082015181840152602081019050612c3d565b83811115612c67576000848401525b50505050565b6000601f19601f8301169050919050565b6000612c8982612c1e565b612c938185612c29565b9350612ca3818560208601612c3a565b612cac81612c6d565b840191505092915050565b60006020820190508181036000830152612cd18184612c7e565b905092915050565b600060208284031215612cef57612cee612a5b565b5b6000612cfd84828501612ae4565b91505092915050565b6000819050919050565b612d1981612d06565b8114612d2457600080fd5b50565b600081359050612d3681612d10565b92915050565b600060208284031215612d5257612d51612a5b565b5b6000612d6084828501612d27565b91505092915050565b612d7281612d06565b82525050565b6000602082019050612d8d6000830184612d69565b92915050565b60008060408385031215612daa57612da9612a5b565b5b6000612db885828601612ae4565b9250506020612dc985828601612ae4565b9150509250929050565b612ddc81612a85565b82525050565b6000604082019050612df76000830185612dd3565b612e046020830184612b39565b9392505050565b600080fd5b7f4e487b7100000000000000000000000000000000000000000000000000000000600052604160045260246000fd5b612e4882612c6d565b810181811067ffffffffffffffff82111715612e6757612e66612e10565b5b80604052505050565b6000612e7a612a51565b9050612e868282612e3f565b919050565b600067ffffffffffffffff821115612ea657612ea5612e10565b5b602082029050602081019050919050565b600080fd5b6000612ecf612eca84612e8b565b612e70565b90508083825260208201905060208402830185811115612ef257612ef1612eb7565b5b835b81811015612f1b5780612f078882612ae4565b845260208401935050602081019050612ef4565b5050509392505050565b600082601f830112612f3a57612f39612e0b565b5b8135612f4a848260208601612ebc565b91505092915050565b600080fd5b600067ffffffffffffffff821115612f7357612f72612e10565b5b612f7c82612c6d565b9050602081019050919050565b82818337600083830152505050565b6000612fab612fa684612f58565b612e70565b905082815260208101848484011115612fc757612fc6612f53565b5b612fd2848285612f89565b509392505050565b600082601f830112612fef57612fee612e0b565b5b8135612fff848260208601612f98565b91505092915050565b600080600080600060a0868803121561302457613023612a5b565b5b600061303288828901612aae565b955050602061304388828901612aae565b945050604086013567ffffffffffffffff81111561306457613063612a60565b5b61307088828901612f25565b935050606086013567ffffffffffffffff81111561309157613090612a60565b5b61309d88828901612f25565b925050608086013567ffffffffffffffff8111156130be576130bd612a60565b5b6130ca88828901612fda565b9150509295509295909350565b600080604083850312156130ee576130ed612a5b565b5b60006130fc85828601612d27565b925050602061310d85828601612aae565b9150509250929050565b600080fd5b60008083601f84011261313257613131612e0b565b5b8235905067ffffffffffffffff81111561314f5761314e613117565b5b60208301915083600182028301111561316b5761316a612eb7565b5b9250929050565b6000806000806000806000806000806101008b8d03121561319657613195612a5b565b5b60006131a48d828e01612aae565b9a505060206131b58d828e01612ae4565b99505060408b013567ffffffffffffffff8111156131d6576131d5612a60565b5b6131e28d828e0161311c565b985098505060606131f58d828e01612ae4565b96505060808b013567ffffffffffffffff81111561321657613215612a60565b5b6132228d828e0161311c565b955095505060a06132358d828e01612ae4565b93505060c06132468d828e01612ae4565b92505060e08b013567ffffffffffffffff81111561326757613266612a60565b5b6132738d828e01612fda565b9150509295989b9194979a5092959850565b600067ffffffffffffffff8211156132a05761329f612e10565b5b602082029050602081019050919050565b60006132c46132bf84613285565b612e70565b905080838252602082019050602084028301858111156132e7576132e6612eb7565b5b835b8181101561331057806132fc8882612aae565b8452602084019350506020810190506132e9565b5050509392505050565b600082601f83011261332f5761332e612e0b565b5b813561333f8482602086016132b1565b91505092915050565b6000806040838503121561335f5761335e612a5b565b5b600083013567ffffffffffffffff81111561337d5761337c612a60565b5b6133898582860161331a565b925050602083013567ffffffffffffffff8111156133aa576133a9612a60565b5b6133b685828601612f25565b9150509250929050565b600081519050919050565b600082825260208201905092915050565b6000819050602082019050919050565b6133f581612ac3565b82525050565b600061340783836133ec565b60208301905092915050565b6000602082019050919050565b600061342b826133c0565b61343581856133cb565b9350613440836133dc565b8060005b8381101561347157815161345888826133fb565b975061346383613413565b925050600181019050613444565b5085935050505092915050565b600060208201905081810360008301526134988184613420565b905092915050565b6134a981612a85565b82525050565b600082825260208201905092915050565b60006134cb82612c1e565b6134d581856134af565b93506134e5818560208601612c3a565b6134ee81612c6d565b840191505092915050565b600060c08301600083015161351160008601826133ec565b50602083015161352460208601826133ec565b50604083015161353760408601826134a0565b50606083015161354a60608601826133ec565b506080830151848203608086015261356282826134c0565b91505060a083015161357760a08601826133ec565b508091505092915050565b6000602082019050818103600083015261359c81846134f9565b905092915050565b600080600080600080600080600060e08a8c0312156135c6576135c5612a5b565b5b60006135d48c828d01612aae565b99505060206135e58c828d01612ae4565b98505060408a013567ffffffffffffffff81111561360657613605612a60565b5b6136128c828d0161311c565b975097505060606136258c828d01612ae4565b95505060808a013567ffffffffffffffff81111561364657613645612a60565b5b6136528c828d0161311c565b945094505060a06136658c828d01612ae4565b92505060c06136768c828d01612ae4565b9150509295985092959850929598565b61368f81612be8565b811461369a57600080fd5b50565b6000813590506136ac81613686565b92915050565b600080604083850312156136c9576136c8612a5b565b5b60006136d785828601612aae565b92505060206136e88582860161369d565b9150509250929050565b6000806040838503121561370957613708612a5b565b5b600061371785828601612aae565b925050602061372885828601612aae565b9150509250929050565b600080600080600060a0868803121561374e5761374d612a5b565b5b600061375c88828901612aae565b955050602061376d88828901612aae565b945050604061377e88828901612ae4565b935050606061378f88828901612ae4565b925050608086013567ffffffffffffffff8111156137b0576137af612a60565b5b6137bc88828901612fda565b9150509295509295909350565b7f455243313135353a2062616c616e636520717565727920666f7220746865207a60008201527f65726f2061646472657373000000000000000000000000000000000000000000602082015250565b6000613825602b83612c29565b9150613830826137c9565b604082019050919050565b6000602082019050818103600083015261385481613818565b9050919050565b7f4e487b7100000000000000000000000000000000000000000000000000000000600052602260045260246000fd5b600060028204905060018216806138a257607f821691505b602082108114156138b6576138b561385b565b5b50919050565b7f4e487b7100000000000000000000000000000000000000000000000000000000600052601160045260246000fd5b60006138f682612ac3565b915061390183612ac3565b9250817fffffffffffffffffffffffffffffffffffffffffffffffffffffffffffffffff048311821515161561393a576139396138bc565b5b828202905092915050565b7f4e487b7100000000000000000000000000000000000000000000000000000000600052601260045260246000fd5b600061397f82612ac3565b915061398a83612ac3565b92508261399a57613999613945565b5b828204905092915050565b7f455243313135353a207472616e736665722063616c6c6572206973206e6f742060008201527f6f776e6572206e6f7220617070726f7665640000000000000000000000000000602082015250565b6000613a01603283612c29565b9150613a0c826139a5565b604082019050919050565b60006020820190508181036000830152613a30816139f4565b9050919050565b7f416363657373436f6e74726f6c3a2063616e206f6e6c792072656e6f756e636560008201527f20726f6c657320666f722073656c660000000000000000000000000000000000602082015250565b6000613a93602f83612c29565b9150613a9e82613a37565b604082019050919050565b60006020820190508181036000830152613ac281613a86565b9050919050565b6000613ad482612ac3565b91507fffffffffffffffffffffffffffffffffffffffffffffffffffffffffffffffff821415613b0757613b066138bc565b5b600182019050919050565b6000613b1e8385612c29565b9350613b2b838584612f89565b613b3483612c6d565b840190509392505050565b60006040820190508181036000830152613b5981866134f9565b90508181036020830152613b6e818486613b12565b9050949350505050565b7f455243313135353a206163636f756e747320616e6420696473206c656e67746860008201527f206d69736d617463680000000000000000000000000000000000000000000000602082015250565b6000613bd4602983612c29565b9150613bdf82613b78565b604082019050919050565b60006020820190508181036000830152613c0381613bc7565b9050919050565b7f4e487b7100000000000000000000000000000000000000000000000000000000600052603260045260246000fd5b6000604082019050613c4e6000830186612b39565b8181036020830152613c61818486613b12565b9050949350505050565b60008160601b9050919050565b6000613c8382613c6b565b9050919050565b6000613c9582613c78565b9050919050565b613cad613ca882612a85565b613c8a565b82525050565b6000819050919050565b613cce613cc982612ac3565b613cb3565b82525050565b600081905092915050565b6000613ceb8385613cd4565b9350613cf8838584612f89565b82840190509392505050565b6000613d10828d613c9c565b601482019150613d20828c613c9c565b601482019150613d30828b613cbd565b602082019150613d4182898b613cdf565b9150613d4d8288613cbd565b602082019150613d5e828688613cdf565b9150613d6a8285613cbd565b602082019150613d7a8284613cbd565b6020820191508190509b9a5050505050505050505050565b7f455243313135353a2063616c6c6572206973206e6f74206f776e6572206e6f7260008201527f20617070726f7665640000000000000000000000000000000000000000000000602082015250565b6000613dee602983612c29565b9150613df982613d92565b604082019050919050565b60006020820190508181036000830152613e1d81613de1565b9050919050565b7f455243313135353a2069647320616e6420616d6f756e7473206c656e6774682060008201527f6d69736d61746368000000000000000000000000000000000000000000000000602082015250565b6000613e80602883612c29565b9150613e8b82613e24565b604082019050919050565b60006020820190508181036000830152613eaf81613e73565b9050919050565b7f455243313135353a207472616e7366657220746f20746865207a65726f20616460008201527f6472657373000000000000000000000000000000000000000000000000000000602082015250565b6000613f12602583612c29565b9150613f1d82613eb6565b604082019050919050565b60006020820190508181036000830152613f4181613f05565b9050919050565b7f455243313135353a20696e73756666696369656e742062616c616e636520666f60008201527f72207472616e7366657200000000000000000000000000000000000000000000602082015250565b6000613fa4602a83612c29565b9150613faf82613f48565b604082019050919050565b60006020820190508181036000830152613fd381613f97565b9050919050565b6000613fe582612ac3565b9150613ff083612ac3565b9250827fffffffffffffffffffffffffffffffffffffffffffffffffffffffffffffffff03821115614025576140246138bc565b5b828201905092915050565b6000604082019050818103600083015261404a8185613420565b9050818103602083015261405e8184613420565b90509392505050565b7f416363657373436f6e74726f6c3a206163636f756e7420000000000000000000600082015250565b600061409d601783613cd4565b91506140a882614067565b601782019050919050565b60006140be82612c1e565b6140c88185613cd4565b93506140d8818560208601612c3a565b80840191505092915050565b7f206973206d697373696e6720726f6c6520000000000000000000000000000000600082015250565b600061411a601183613cd4565b9150614125826140e4565b601182019050919050565b600061413b82614090565b915061414782856140b3565b91506141528261410d565b915061415e82846140b3565b91508190509392505050565b7f19457468657265756d205369676e6564204d6573736167653a0a333200000000600082015250565b60006141a0601c83613cd4565b91506141ab8261416a565b601c82019050919050565b6000819050919050565b6141d16141cc82612d06565b6141b6565b82525050565b60006141e282614193565b91506141ee82846141c0565b60208201915081905092915050565b7f455243313135353a206d696e7420746f20746865207a65726f2061646472657360008201527f7300000000000000000000000000000000000000000000000000000000000000602082015250565b6000614259602183612c29565b9150614264826141fd565b604082019050919050565b600060208201905081810360008301526142888161424c565b9050919050565b60006040820190506142a46000830185612b39565b6142b16020830184612b39565b9392505050565b7f455243313135353a2073657474696e6720617070726f76616c2073746174757360008201527f20666f722073656c660000000000000000000000000000000000000000000000602082015250565b6000614314602983612c29565b915061431f826142b8565b604082019050919050565b6000602082019050818103600083015261434381614307565b9050919050565b600081519050919050565b600082825260208201905092915050565b60006143718261434a565b61437b8185614355565b935061438b818560208601612c3a565b61439481612c6d565b840191505092915050565b600060a0820190506143b46000830188612dd3565b6143c16020830187612dd3565b81810360408301526143d38186613420565b905081810360608301526143e78185613420565b905081810360808301526143fb8184614366565b90509695505050505050565b60008151905061441681612b8f565b92915050565b60006020828403121561443257614431612a5b565b5b600061444084828501614407565b91505092915050565b60008160e01c9050919050565b600060033d11156144755760046000803e614472600051614449565b90505b90565b600060443d10156144885761450b565b614490612a51565b60043d036004823e80513d602482011167ffffffffffffffff821117156144b857505061450b565b808201805167ffffffffffffffff8111156144d6575050505061450b565b80602083010160043d0385018111156144f357505050505061450b565b61450282602001850186612e3f565b82955050505050505b90565b7f455243313135353a207472616e7366657220746f206e6f6e204552433131353560008201527f526563656976657220696d706c656d656e746572000000000000000000000000602082015250565b600061456a603483612c29565b91506145758261450e565b604082019050919050565b600060208201905081810360008301526145998161455d565b9050919050565b7f455243313135353a204552433131353552656365697665722072656a6563746560008201527f6420746f6b656e73000000000000000000000000000000000000000000000000602082015250565b60006145fc602883612c29565b9150614607826145a0565b604082019050919050565b6000602082019050818103600083015261462b816145ef565b9050919050565b600061463d82612ac3565b91506000821415614651576146506138bc565b5b600182039050919050565b7f537472696e67733a20686578206c656e67746820696e73756666696369656e74600082015250565b6000614692602083612c29565b915061469d8261465c565b602082019050919050565b600060208201905081810360008301526146c181614685565b9050919050565b7f4e487b7100000000000000000000000000000000000000000000000000000000600052602160045260246000fd5b7f45434453413a20696e76616c6964207369676e61747572650000000000000000600082015250565b600061472d601883612c29565b9150614738826146f7565b602082019050919050565b6000602082019050818103600083015261475c81614720565b9050919050565b7f45434453413a20696e76616c6964207369676e6174757265206c656e67746800600082015250565b6000614799601f83612c29565b91506147a482614763565b602082019050919050565b600060208201905081810360008301526147c88161478c565b9050919050565b7f45434453413a20696e76616c6964207369676e6174757265202773272076616c60008201527f7565000000000000000000000000000000000000000000000000000000000000602082015250565b600061482b602283612c29565b9150614836826147cf565b604082019050919050565b6000602082019050818103600083015261485a8161481e565b9050919050565b7f45434453413a20696e76616c6964207369676e6174757265202776272076616c60008201527f7565000000000000000000000000000000000000000000000000000000000000602082015250565b60006148bd602283612c29565b91506148c882614861565b604082019050919050565b600060208201905081810360008301526148ec816148b0565b9050919050565b600060a0820190506149086000830188612dd3565b6149156020830187612dd3565b6149226040830186612b39565b61492f6060830185612b39565b81810360808301526149418184614366565b90509695505050505050565b600060ff82169050919050565b6149638161494d565b82525050565b600060808201905061497e6000830187612d69565b61498b602083018661495a565b6149986040830185612d69565b6149a56060830184612d69565b9594505050505056fea26469706673582212204ae675dfcabeb22c3fe2a596600be02f881f44e3ae9d507a1e3859ed1e14349164736f6c634300080c0033",
  "immutableReferences": {},
  "source": "// SPDX-License-Identifier: MIT\npragma solidity ^0.8.0;\n\nimport \"@openzeppelin/contracts/access/AccessControl.sol\";\nimport \"@openzeppelin/contracts/token/ERC1155/ERC1155.sol\";\nimport \"@openzeppelin/contracts/utils/introspection/ERC165.sol\";\nimport \"@openzeppelin/contracts/utils/cryptography/ECDSA.sol\";\n\nimport \"../interfaces/IERC2981.sol\";\nimport \"../errors.sol\";\n\ncontract TokenV1 is AccessControl, ERC1155, IERC2981 {\n  using ECDSA for bytes32;\n\n  struct Token {\n    uint256 id;\n    uint256 dateCreated;\n    address creator;\n    uint256 supply;\n    string metadataUri;\n    uint256 royaltyPct;\n  }\n\n  event Mint(\n    address indexed operator,\n    uint256 indexed id,\n    Token token,\n    string data\n  );\n\n  event RevokeMint(\n    address indexed operator,\n    address indexed creator,\n    uint256 supply,\n    string data\n  );\n\n  modifier onlyMinter() {\n    if (!hasRole(MINTER_ROLE, msg.sender)) {\n      revert Unauthorized();\n    }\n    _;\n  }\n\n  string public constant name = \"Fest Multi-Token\";\n  string public constant version = \"1.0\";\n\n  uint256 public constant hundredPct = 10_000;\n\n  bytes32 internal constant MINTER_ROLE =\n    keccak256(\"MINTER_ROLE\");\n  bytes internal constant EMPTY = \"\";\n\n  uint256 private _tokenId = 0;\n  mapping(uint256 => Token) _tokens;\n\n  mapping(bytes32 => bool) _approvalsExhausted;\n\n  constructor() ERC1155(\"\") {\n    _setupRole(DEFAULT_ADMIN_ROLE, msg.sender);\n\n    _setupRole(MINTER_ROLE, msg.sender);\n    _setRoleAdmin(MINTER_ROLE, DEFAULT_ADMIN_ROLE);\n  }\n\n  function uri(uint256 id)\n    public\n    view\n    override\n    returns (string memory)\n  {\n    return _tokens[id].metadataUri;\n  }\n\n  function get(uint256 id)\n    public\n    view\n    returns (Token memory)\n  {\n    return _tokens[id];\n  }\n\n  function royaltyInfo(uint256 tokenId, uint256 salePrice)\n    external\n    view\n    returns (address receiver, uint256 royaltyAmount)\n  {\n    receiver = _tokens[tokenId].creator;\n    royaltyAmount =\n      (salePrice * _tokens[tokenId].royaltyPct) /\n      hundredPct;\n  }\n\n  function supportsInterface(bytes4 interfaceId)\n    public\n    view\n    override(AccessControl, ERC1155, IERC165)\n    returns (bool)\n  {\n    return\n      interfaceId == type(IERC2981).interfaceId ||\n      super.supportsInterface(interfaceId);\n  }\n\n  function mintHash(\n    address creator,\n    uint256 supply,\n    string calldata metadataUri,\n    uint256 royaltyPct,\n    string calldata data,\n    uint256 nonce,\n    uint256 deadline\n  ) public view returns (bytes32) {\n    return\n      keccak256(\n        abi.encodePacked(\n          address(this),\n          creator,\n          supply,\n          metadataUri,\n          royaltyPct,\n          data,\n          nonce,\n          deadline\n        )\n      );\n  }\n\n  function mint(\n    address creator,\n    uint256 supply,\n    string calldata metadataUri,\n    uint256 royaltyPct,\n    string calldata data,\n    uint256 nonce,\n    uint256 deadline,\n    bytes memory signature\n  ) public {\n    if (deadline <= block.timestamp) {\n      revert ApprovalExpired();\n    }\n\n    bytes32 mintHash_ = mintHash(\n      creator,\n      supply,\n      metadataUri,\n      royaltyPct,\n      data,\n      nonce,\n      deadline\n    );\n\n    if (_approvalsExhausted[mintHash_]) {\n      revert ApprovalExhausted();\n    }\n\n    address recoveredAddress = mintHash_\n      .toEthSignedMessageHash()\n      .recover(signature);\n\n    if (\n      recoveredAddress == address(0) ||\n      !hasRole(MINTER_ROLE, recoveredAddress)\n    ) {\n      revert InvalidSignature();\n    }\n\n    _approvalsExhausted[mintHash_] = true;\n\n    _tokenId++;\n\n    super._mint(creator, _tokenId, supply, EMPTY);\n\n    Token memory token = Token(\n      _tokenId,\n      block.timestamp,\n      creator,\n      supply,\n      metadataUri,\n      royaltyPct\n    );\n\n    _tokens[_tokenId] = token;\n\n    emit Mint(msg.sender, _tokenId, token, data);\n  }\n\n  function revokeMintApproval(\n    address creator,\n    uint256 supply,\n    string calldata metadataUri,\n    uint256 royaltyPct,\n    string calldata data,\n    uint256 nonce,\n    uint256 deadline\n  ) public onlyMinter {\n    bytes32 mintHash_ = mintHash(\n      creator,\n      supply,\n      metadataUri,\n      royaltyPct,\n      data,\n      nonce,\n      deadline\n    );\n\n    if (_approvalsExhausted[mintHash_]) {\n      revert ApprovalExhausted();\n    }\n\n    _approvalsExhausted[mintHash_] = true;\n\n    emit RevokeMint(msg.sender, creator, supply, data);\n  }\n}\n",
  "sourcePath": "/Users/husnain/Desktop/other/fest/packages/ethereum/contracts/solidity/contracts/token/TokenV1.sol",
  "compiler": {
    "name": "solc",
    "version": "0.8.12+commit.f00d7308.Emscripten.clang"
  },
  "schemaVersion": "3.4.4",
  "updatedAt": "2022-03-12T21:32:05.295Z",
  "networkType": "ethereum",
  "devdoc": {
    "kind": "dev",
    "methods": {
      "balanceOf(address,uint256)": {
        "details": "See {IERC1155-balanceOf}. Requirements: - `account` cannot be the zero address."
      },
      "balanceOfBatch(address[],uint256[])": {
        "details": "See {IERC1155-balanceOfBatch}. Requirements: - `accounts` and `ids` must have the same length."
      },
      "getRoleAdmin(bytes32)": {
        "details": "Returns the admin role that controls `role`. See {grantRole} and {revokeRole}. To change a role's admin, use {_setRoleAdmin}."
      },
      "grantRole(bytes32,address)": {
        "details": "Grants `role` to `account`. If `account` had not been already granted `role`, emits a {RoleGranted} event. Requirements: - the caller must have ``role``'s admin role."
      },
      "hasRole(bytes32,address)": {
        "details": "Returns `true` if `account` has been granted `role`."
      },
      "isApprovedForAll(address,address)": {
        "details": "See {IERC1155-isApprovedForAll}."
      },
      "renounceRole(bytes32,address)": {
        "details": "Revokes `role` from the calling account. Roles are often managed via {grantRole} and {revokeRole}: this function's purpose is to provide a mechanism for accounts to lose their privileges if they are compromised (such as when a trusted device is misplaced). If the calling account had been revoked `role`, emits a {RoleRevoked} event. Requirements: - the caller must be `account`."
      },
      "revokeRole(bytes32,address)": {
        "details": "Revokes `role` from `account`. If `account` had been granted `role`, emits a {RoleRevoked} event. Requirements: - the caller must have ``role``'s admin role."
      },
      "safeBatchTransferFrom(address,address,uint256[],uint256[],bytes)": {
        "details": "See {IERC1155-safeBatchTransferFrom}."
      },
      "safeTransferFrom(address,address,uint256,uint256,bytes)": {
        "details": "See {IERC1155-safeTransferFrom}."
      },
      "setApprovalForAll(address,bool)": {
        "details": "See {IERC1155-setApprovalForAll}."
      }
    },
    "version": 1
  },
  "userdoc": {
    "kind": "user",
    "methods": {},
    "version": 1
  }
}