{
  "contractName": "Token",
  "abi": [
    {
      "inputs": [
        {
          "internalType": "string",
          "name": "uri",
          "type": "string"
        }
      ],
      "stateMutability": "nonpayable",
      "type": "constructor"
    },
    {
      "anonymous": false,
      "inputs": [
        {
          "indexed": true,
          "internalType": "address",
          "name": "account",
          "type": "address"
        },
        {
          "indexed": true,
          "internalType": "address",
          "name": "operator",
          "type": "address"
        },
        {
          "indexed": false,
          "internalType": "bool",
          "name": "approved",
          "type": "bool"
        }
      ],
      "name": "ApprovalForAll",
      "type": "event"
    },
    {
      "anonymous": false,
      "inputs": [
        {
          "indexed": true,
          "internalType": "uint256",
          "name": "id",
          "type": "uint256"
        },
        {
          "components": [
            {
              "internalType": "address",
              "name": "creator",
              "type": "address"
            },
            {
              "internalType": "uint256",
              "name": "supply",
              "type": "uint256"
            },
            {
              "internalType": "string",
              "name": "metadataURI",
              "type": "string"
            }
          ],
          "indexed": false,
          "internalType": "struct TokenData",
          "name": "token",
          "type": "tuple"
        },
        {
          "components": [
            {
              "internalType": "address payable",
              "name": "recipient",
              "type": "address"
            },
            {
              "internalType": "uint256",
              "name": "pct",
              "type": "uint256"
            }
          ],
          "indexed": false,
          "internalType": "struct Fee[]",
          "name": "fees",
          "type": "tuple[]"
        },
        {
          "indexed": false,
          "internalType": "string",
          "name": "data",
          "type": "string"
        }
      ],
      "name": "Minted",
      "type": "event"
    },
    {
      "anonymous": false,
      "inputs": [
        {
          "indexed": true,
          "internalType": "address",
          "name": "previousOwner",
          "type": "address"
        },
        {
          "indexed": true,
          "internalType": "address",
          "name": "newOwner",
          "type": "address"
        }
      ],
      "name": "OwnershipTransferred",
      "type": "event"
    },
    {
      "anonymous": false,
      "inputs": [
        {
          "indexed": false,
          "internalType": "address",
          "name": "account",
          "type": "address"
        }
      ],
      "name": "Paused",
      "type": "event"
    },
    {
      "anonymous": false,
      "inputs": [
        {
          "indexed": true,
          "internalType": "bytes32",
          "name": "role",
          "type": "bytes32"
        },
        {
          "indexed": true,
          "internalType": "bytes32",
          "name": "previousAdminRole",
          "type": "bytes32"
        },
        {
          "indexed": true,
          "internalType": "bytes32",
          "name": "newAdminRole",
          "type": "bytes32"
        }
      ],
      "name": "RoleAdminChanged",
      "type": "event"
    },
    {
      "anonymous": false,
      "inputs": [
        {
          "indexed": true,
          "internalType": "bytes32",
          "name": "role",
          "type": "bytes32"
        },
        {
          "indexed": true,
          "internalType": "address",
          "name": "account",
          "type": "address"
        },
        {
          "indexed": true,
          "internalType": "address",
          "name": "sender",
          "type": "address"
        }
      ],
      "name": "RoleGranted",
      "type": "event"
    },
    {
      "anonymous": false,
      "inputs": [
        {
          "indexed": true,
          "internalType": "bytes32",
          "name": "role",
          "type": "bytes32"
        },
        {
          "indexed": true,
          "internalType": "address",
          "name": "account",
          "type": "address"
        },
        {
          "indexed": true,
          "internalType": "address",
          "name": "sender",
          "type": "address"
        }
      ],
      "name": "RoleRevoked",
      "type": "event"
    },
    {
      "anonymous": false,
      "inputs": [
        {
          "indexed": false,
          "internalType": "uint256",
          "name": "tokenId",
          "type": "uint256"
        },
        {
          "indexed": false,
          "internalType": "address[]",
          "name": "recipients",
          "type": "address[]"
        },
        {
          "indexed": false,
          "internalType": "uint256[]",
          "name": "bps",
          "type": "uint256[]"
        }
      ],
      "name": "SecondarySaleFees",
      "type": "event"
    },
    {
      "anonymous": false,
      "inputs": [
        {
          "indexed": true,
          "internalType": "address",
          "name": "operator",
          "type": "address"
        },
        {
          "indexed": true,
          "internalType": "address",
          "name": "from",
          "type": "address"
        },
        {
          "indexed": true,
          "internalType": "address",
          "name": "to",
          "type": "address"
        },
        {
          "indexed": false,
          "internalType": "uint256[]",
          "name": "ids",
          "type": "uint256[]"
        },
        {
          "indexed": false,
          "internalType": "uint256[]",
          "name": "values",
          "type": "uint256[]"
        }
      ],
      "name": "TransferBatch",
      "type": "event"
    },
    {
      "anonymous": false,
      "inputs": [
        {
          "indexed": true,
          "internalType": "address",
          "name": "operator",
          "type": "address"
        },
        {
          "indexed": true,
          "internalType": "address",
          "name": "from",
          "type": "address"
        },
        {
          "indexed": true,
          "internalType": "address",
          "name": "to",
          "type": "address"
        },
        {
          "indexed": false,
          "internalType": "uint256",
          "name": "id",
          "type": "uint256"
        },
        {
          "indexed": false,
          "internalType": "uint256",
          "name": "value",
          "type": "uint256"
        }
      ],
      "name": "TransferSingle",
      "type": "event"
    },
    {
      "anonymous": false,
      "inputs": [
        {
          "indexed": false,
          "internalType": "string",
          "name": "value",
          "type": "string"
        },
        {
          "indexed": true,
          "internalType": "uint256",
          "name": "id",
          "type": "uint256"
        }
      ],
      "name": "URI",
      "type": "event"
    },
    {
      "anonymous": false,
      "inputs": [
        {
          "indexed": false,
          "internalType": "address",
          "name": "account",
          "type": "address"
        }
      ],
      "name": "Unpaused",
      "type": "event"
    },
    {
      "inputs": [],
      "name": "DEFAULT_ADMIN_ROLE",
      "outputs": [
        {
          "internalType": "bytes32",
          "name": "",
          "type": "bytes32"
        }
      ],
      "stateMutability": "view",
      "type": "function",
      "constant": true
    },
    {
      "inputs": [],
      "name": "MINTER_ROLE",
      "outputs": [
        {
          "internalType": "bytes32",
          "name": "",
          "type": "bytes32"
        }
      ],
      "stateMutability": "view",
      "type": "function",
      "constant": true
    },
    {
      "inputs": [
        {
          "internalType": "address",
          "name": "account",
          "type": "address"
        },
        {
          "internalType": "uint256",
          "name": "id",
          "type": "uint256"
        }
      ],
      "name": "balanceOf",
      "outputs": [
        {
          "internalType": "uint256",
          "name": "",
          "type": "uint256"
        }
      ],
      "stateMutability": "view",
      "type": "function",
      "constant": true
    },
    {
      "inputs": [
        {
          "internalType": "address[]",
          "name": "accounts",
          "type": "address[]"
        },
        {
          "internalType": "uint256[]",
          "name": "ids",
          "type": "uint256[]"
        }
      ],
      "name": "balanceOfBatch",
      "outputs": [
        {
          "internalType": "uint256[]",
          "name": "",
          "type": "uint256[]"
        }
      ],
      "stateMutability": "view",
      "type": "function",
      "constant": true
    },
    {
      "inputs": [
        {
          "internalType": "bytes32",
          "name": "role",
          "type": "bytes32"
        }
      ],
      "name": "getRoleAdmin",
      "outputs": [
        {
          "internalType": "bytes32",
          "name": "",
          "type": "bytes32"
        }
      ],
      "stateMutability": "view",
      "type": "function",
      "constant": true
    },
    {
      "inputs": [
        {
          "internalType": "bytes32",
          "name": "role",
          "type": "bytes32"
        },
        {
          "internalType": "address",
          "name": "account",
          "type": "address"
        }
      ],
      "name": "grantRole",
      "outputs": [],
      "stateMutability": "nonpayable",
      "type": "function"
    },
    {
      "inputs": [
        {
          "internalType": "bytes32",
          "name": "role",
          "type": "bytes32"
        },
        {
          "internalType": "address",
          "name": "account",
          "type": "address"
        }
      ],
      "name": "hasRole",
      "outputs": [
        {
          "internalType": "bool",
          "name": "",
          "type": "bool"
        }
      ],
      "stateMutability": "view",
      "type": "function",
      "constant": true
    },
    {
      "inputs": [
        {
          "internalType": "address",
          "name": "account",
          "type": "address"
        },
        {
          "internalType": "address",
          "name": "operator",
          "type": "address"
        }
      ],
      "name": "isApprovedForAll",
      "outputs": [
        {
          "internalType": "bool",
          "name": "",
          "type": "bool"
        }
      ],
      "stateMutability": "view",
      "type": "function",
      "constant": true
    },
    {
      "inputs": [],
      "name": "owner",
      "outputs": [
        {
          "internalType": "address",
          "name": "",
          "type": "address"
        }
      ],
      "stateMutability": "view",
      "type": "function",
      "constant": true
    },
    {
      "inputs": [],
      "name": "paused",
      "outputs": [
        {
          "internalType": "bool",
          "name": "",
          "type": "bool"
        }
      ],
      "stateMutability": "view",
      "type": "function",
      "constant": true
    },
    {
      "inputs": [],
      "name": "renounceOwnership",
      "outputs": [],
      "stateMutability": "nonpayable",
      "type": "function"
    },
    {
      "inputs": [
        {
          "internalType": "bytes32",
          "name": "role",
          "type": "bytes32"
        },
        {
          "internalType": "address",
          "name": "account",
          "type": "address"
        }
      ],
      "name": "renounceRole",
      "outputs": [],
      "stateMutability": "nonpayable",
      "type": "function"
    },
    {
      "inputs": [
        {
          "internalType": "bytes32",
          "name": "role",
          "type": "bytes32"
        },
        {
          "internalType": "address",
          "name": "account",
          "type": "address"
        }
      ],
      "name": "revokeRole",
      "outputs": [],
      "stateMutability": "nonpayable",
      "type": "function"
    },
    {
      "inputs": [
        {
          "internalType": "address",
          "name": "from",
          "type": "address"
        },
        {
          "internalType": "address",
          "name": "to",
          "type": "address"
        },
        {
          "internalType": "uint256[]",
          "name": "ids",
          "type": "uint256[]"
        },
        {
          "internalType": "uint256[]",
          "name": "amounts",
          "type": "uint256[]"
        },
        {
          "internalType": "bytes",
          "name": "data",
          "type": "bytes"
        }
      ],
      "name": "safeBatchTransferFrom",
      "outputs": [],
      "stateMutability": "nonpayable",
      "type": "function"
    },
    {
      "inputs": [
        {
          "internalType": "address",
          "name": "from",
          "type": "address"
        },
        {
          "internalType": "address",
          "name": "to",
          "type": "address"
        },
        {
          "internalType": "uint256",
          "name": "id",
          "type": "uint256"
        },
        {
          "internalType": "uint256",
          "name": "amount",
          "type": "uint256"
        },
        {
          "internalType": "bytes",
          "name": "data",
          "type": "bytes"
        }
      ],
      "name": "safeTransferFrom",
      "outputs": [],
      "stateMutability": "nonpayable",
      "type": "function"
    },
    {
      "inputs": [
        {
          "internalType": "address",
          "name": "operator",
          "type": "address"
        },
        {
          "internalType": "bool",
          "name": "approved",
          "type": "bool"
        }
      ],
      "name": "setApprovalForAll",
      "outputs": [],
      "stateMutability": "nonpayable",
      "type": "function"
    },
    {
      "inputs": [
        {
          "internalType": "address",
          "name": "newOwner",
          "type": "address"
        }
      ],
      "name": "transferOwnership",
      "outputs": [],
      "stateMutability": "nonpayable",
      "type": "function"
    },
    {
      "inputs": [
        {
          "internalType": "uint256",
          "name": "",
          "type": "uint256"
        }
      ],
      "name": "uri",
      "outputs": [
        {
          "internalType": "string",
          "name": "",
          "type": "string"
        }
      ],
      "stateMutability": "view",
      "type": "function",
      "constant": true
    },
    {
      "inputs": [
        {
          "internalType": "bytes4",
          "name": "interfaceId",
          "type": "bytes4"
        }
      ],
      "name": "supportsInterface",
      "outputs": [
        {
          "internalType": "bool",
          "name": "",
          "type": "bool"
        }
      ],
      "stateMutability": "view",
      "type": "function",
      "constant": true
    },
    {
      "inputs": [
        {
          "internalType": "address",
          "name": "creator",
          "type": "address"
        },
        {
          "internalType": "uint256",
          "name": "quantity",
          "type": "uint256"
        },
        {
          "internalType": "string",
          "name": "metadataUri",
          "type": "string"
        },
        {
          "components": [
            {
              "internalType": "address payable",
              "name": "recipient",
              "type": "address"
            },
            {
              "internalType": "uint256",
              "name": "pct",
              "type": "uint256"
            }
          ],
          "internalType": "struct Fee[]",
          "name": "fees",
          "type": "tuple[]"
        },
        {
          "internalType": "string",
          "name": "data",
          "type": "string"
        },
        {
          "internalType": "uint256",
          "name": "nonce",
          "type": "uint256"
        },
        {
          "internalType": "bytes",
          "name": "signature",
          "type": "bytes"
        }
      ],
      "name": "mint",
      "outputs": [],
      "stateMutability": "nonpayable",
      "type": "function"
    },
    {
      "inputs": [
        {
          "internalType": "address",
          "name": "creator",
          "type": "address"
        },
        {
          "internalType": "uint256",
          "name": "nonce",
          "type": "uint256"
        }
      ],
      "name": "mintHash",
      "outputs": [
        {
          "internalType": "bytes32",
          "name": "",
          "type": "bytes32"
        }
      ],
      "stateMutability": "view",
      "type": "function",
      "constant": true
    },
    {
      "inputs": [
        {
          "internalType": "address",
          "name": "creator",
          "type": "address"
        },
        {
          "internalType": "uint256",
          "name": "nonce",
          "type": "uint256"
        }
      ],
      "name": "mintHashMsg",
      "outputs": [
        {
          "internalType": "bytes32",
          "name": "",
          "type": "bytes32"
        }
      ],
      "stateMutability": "view",
      "type": "function",
      "constant": true
    },
    {
      "inputs": [
        {
          "internalType": "uint256",
          "name": "id",
          "type": "uint256"
        }
      ],
      "name": "get",
      "outputs": [
        {
          "components": [
            {
              "internalType": "address",
              "name": "creator",
              "type": "address"
            },
            {
              "internalType": "uint256",
              "name": "supply",
              "type": "uint256"
            },
            {
              "internalType": "string",
              "name": "metadataURI",
              "type": "string"
            }
          ],
          "internalType": "struct TokenData",
          "name": "",
          "type": "tuple"
        }
      ],
      "stateMutability": "view",
      "type": "function",
      "constant": true
    },
    {
      "inputs": [
        {
          "internalType": "uint256",
          "name": "id",
          "type": "uint256"
        }
      ],
      "name": "getFeeRecipients",
      "outputs": [
        {
          "internalType": "address payable[]",
          "name": "",
          "type": "address[]"
        }
      ],
      "stateMutability": "view",
      "type": "function",
      "constant": true
    },
    {
      "inputs": [
        {
          "internalType": "uint256",
          "name": "id",
          "type": "uint256"
        }
      ],
      "name": "getFeeBps",
      "outputs": [
        {
          "internalType": "uint256[]",
          "name": "",
          "type": "uint256[]"
        }
      ],
      "stateMutability": "view",
      "type": "function",
      "constant": true
    },
    {
      "inputs": [
        {
          "internalType": "address",
          "name": "account",
          "type": "address"
        },
        {
          "internalType": "uint256",
          "name": "id",
          "type": "uint256"
        },
        {
          "internalType": "uint256",
          "name": "amount",
          "type": "uint256"
        }
      ],
      "name": "burn",
      "outputs": [],
      "stateMutability": "nonpayable",
      "type": "function"
    },
    {
      "inputs": [
        {
          "internalType": "address",
          "name": "account",
          "type": "address"
        },
        {
          "internalType": "uint256[]",
          "name": "ids",
          "type": "uint256[]"
        },
        {
          "internalType": "uint256[]",
          "name": "amounts",
          "type": "uint256[]"
        }
      ],
      "name": "burnBatch",
      "outputs": [],
      "stateMutability": "nonpayable",
      "type": "function"
    },
    {
      "inputs": [],
      "name": "pause",
      "outputs": [],
      "stateMutability": "nonpayable",
      "type": "function"
    },
    {
      "inputs": [],
      "name": "resume",
      "outputs": [],
      "stateMutability": "nonpayable",
      "type": "function"
    }
  ],
  "bytecode": "0x608060405260006005553480156200001657600080fd5b50604051620063ab380380620063ab83398181016040528101906200003c919062000420565b8060006200004f6200016960201b60201c565b905080600160006101000a81548173ffffffffffffffffffffffffffffffffffffffff021916908373ffffffffffffffffffffffffffffffffffffffff1602179055508073ffffffffffffffffffffffffffffffffffffffff16600073ffffffffffffffffffffffffffffffffffffffff167f8be0079c531659141344cd1fd0a4f28419497f9722a3daafe3b4186f6b6457e060405160405180910390a3506000600160146101000a81548160ff0219169083151502179055506200011a816200017160201b60201c565b50620001306000801b336200018d60201b60201c565b620001627ff0887ba65ee2024ea881d91b74c2450ef19e1557f03bed3ea9f16b037cbe2dc9336200018d60201b60201c565b50620005d5565b600033905090565b806004908051906020019062000189929190620002fe565b5050565b6200019f8282620001a360201b60201c565b5050565b620001b582826200029460201b60201c565b6200029057600160008084815260200190815260200160002060000160008373ffffffffffffffffffffffffffffffffffffffff1673ffffffffffffffffffffffffffffffffffffffff16815260200190815260200160002060006101000a81548160ff021916908315150217905550620002356200016960201b60201c565b73ffffffffffffffffffffffffffffffffffffffff168173ffffffffffffffffffffffffffffffffffffffff16837f2f8788117e7eff1d82e926ec794901d17c78024a50270940304540a733656f0d60405160405180910390a45b5050565b600080600084815260200190815260200160002060000160008373ffffffffffffffffffffffffffffffffffffffff1673ffffffffffffffffffffffffffffffffffffffff16815260200190815260200160002060009054906101000a900460ff16905092915050565b8280546200030c90620004fa565b90600052602060002090601f0160209004810192826200033057600085556200037c565b82601f106200034b57805160ff19168380011785556200037c565b828001600101855582156200037c579182015b828111156200037b5782518255916020019190600101906200035e565b5b5090506200038b91906200038f565b5090565b5b80821115620003aa57600081600090555060010162000390565b5090565b6000620003c5620003bf846200048e565b62000465565b905082815260208101848484011115620003de57600080fd5b620003eb848285620004c4565b509392505050565b600082601f8301126200040557600080fd5b815162000417848260208601620003ae565b91505092915050565b6000602082840312156200043357600080fd5b600082015167ffffffffffffffff8111156200044e57600080fd5b6200045c84828501620003f3565b91505092915050565b60006200047162000484565b90506200047f828262000530565b919050565b6000604051905090565b600067ffffffffffffffff821115620004ac57620004ab62000595565b5b620004b782620005c4565b9050602081019050919050565b60005b83811015620004e4578082015181840152602081019050620004c7565b83811115620004f4576000848401525b50505050565b600060028204905060018216806200051357607f821691505b602082108114156200052a576200052962000566565b5b50919050565b6200053b82620005c4565b810181811067ffffffffffffffff821117156200055d576200055c62000595565b5b80604052505050565b7f4e487b7100000000000000000000000000000000000000000000000000000000600052602260045260246000fd5b7f4e487b7100000000000000000000000000000000000000000000000000000000600052604160045260246000fd5b6000601f19601f8301169050919050565b615dc680620005e56000396000f3fe608060405234801561001057600080fd5b50600436106101ce5760003560e01c80638456cb5911610104578063bc12a93d116100a2578063e985e9c511610071578063e985e9c51461053d578063f242432a1461056d578063f2fde38b14610589578063f5298aca146105a5576101ce565b8063bc12a93d146104b7578063d5391393146104d3578063d547741f146104f1578063dd3b62b81461050d576101ce565b80639507d39a116100de5780639507d39a1461041d578063a217fddf1461044d578063a22cb4651461046b578063b9c4d9fb14610487576101ce565b80638456cb59146103c55780638da5cb5b146103cf57806391d14854146103ed576101ce565b80632f2ff15d116101715780634f828b5c1161014b5780634f828b5c146103515780635c975abb146103815780636b20c4541461039f578063715018a6146103bb576101ce565b80632f2ff15d146102e957806336568abe146103055780634e1273f414610321576101ce565b80630e89341c116101ad5780630e89341c1461023d5780630ebd4c7f1461026d578063248a9ca31461029d5780632eb2c2d6146102cd576101ce565b8062fdd58e146101d357806301ffc9a714610203578063046f7da214610233575b600080fd5b6101ed60048036038101906101e89190613f12565b6105c1565b6040516101fa9190614fad565b60405180910390f35b61021d6004803603810190610218919061417e565b61068b565b60405161022a9190614b80565b60405180910390f35b61023b61069d565b005b610257600480360381019061025291906141d0565b610723565b6040516102649190614bfb565b60405180910390f35b610287600480360381019061028291906141d0565b6107b7565b6040516102949190614b27565b60405180910390f35b6102b760048036038101906102b29190614119565b6109ae565b6040516102c49190614b9b565b60405180910390f35b6102e760048036038101906102e29190613d09565b6109cd565b005b61030360048036038101906102fe9190614142565b610a6e565b005b61031f600480360381019061031a9190614142565b610a97565b005b61033b600480360381019061033691906140ad565b610b1a565b6040516103489190614b27565b60405180910390f35b61036b60048036038101906103669190613f12565b610ccb565b6040516103789190614b9b565b60405180910390f35b610389610ce7565b6040516103969190614b80565b60405180910390f35b6103b960048036038101906103b49190613e57565b610cfe565b005b6103c3610d8a565b005b6103cd610ec7565b005b6103d7610f4d565b6040516103e49190614a28565b60405180910390f35b61040760048036038101906104029190614142565b610f77565b6040516104149190614b80565b60405180910390f35b610437600480360381019061043291906141d0565b610fe1565b6040516104449190614f3d565b60405180910390f35b610455611100565b6040516104629190614b9b565b60405180910390f35b61048560048036038101906104809190613ed6565b611107565b005b6104a1600480360381019061049c91906141d0565b611288565b6040516104ae9190614b05565b60405180910390f35b6104d160048036038101906104cc9190613f4e565b6114ad565b005b6104db61184f565b6040516104e89190614b9b565b60405180910390f35b61050b60048036038101906105069190614142565b611873565b005b61052760048036038101906105229190613f12565b61189c565b6040516105349190614b9b565b60405180910390f35b61055760048036038101906105529190613ccd565b6118d1565b6040516105649190614b80565b60405180910390f35b61058760048036038101906105829190613dc8565b611965565b005b6105a3600480360381019061059e9190613ca4565b611a06565b005b6105bf60048036038101906105ba919061405e565b611bb2565b005b60008073ffffffffffffffffffffffffffffffffffffffff168373ffffffffffffffffffffffffffffffffffffffff161415610632576040517f08c379a000000000000000000000000000000000000000000000000000000000815260040161062990614cdd565b60405180910390fd5b6002600083815260200190815260200160002060008473ffffffffffffffffffffffffffffffffffffffff1673ffffffffffffffffffffffffffffffffffffffff16815260200190815260200160002054905092915050565b600061069682611c3e565b9050919050565b6106a5611c9f565b73ffffffffffffffffffffffffffffffffffffffff166106c3610f4d565b73ffffffffffffffffffffffffffffffffffffffff1614610719576040517f08c379a000000000000000000000000000000000000000000000000000000000815260040161071090614e5d565b60405180910390fd5b610721611ca7565b565b60606004805461073290615386565b80601f016020809104026020016040519081016040528092919081815260200182805461075e90615386565b80156107ab5780601f10610780576101008083540402835291602001916107ab565b820191906000526020600020905b81548152906001019060200180831161078e57829003601f168201915b50505050509050919050565b6060600060076000848152602001908152602001600020805480602002602001604051908101604052809291908181526020016000905b8282101561088057838290600052602060002090600202016040518060400160405290816000820160009054906101000a900473ffffffffffffffffffffffffffffffffffffffff1673ffffffffffffffffffffffffffffffffffffffff1673ffffffffffffffffffffffffffffffffffffffff168152602001600182015481525050815260200190600101906107ee565b5050505090506000815167ffffffffffffffff8111156108c9577f4e487b7100000000000000000000000000000000000000000000000000000000600052604160045260246000fd5b6040519080825280602002602001820160405280156108f75781602001602082028036833780820191505090505b50905060005b82518110156109a35782818151811061093f577f4e487b7100000000000000000000000000000000000000000000000000000000600052603260045260246000fd5b602002602001015160200151828281518110610984577f4e487b7100000000000000000000000000000000000000000000000000000000600052603260045260246000fd5b602002602001018181525050808061099b9061541d565b9150506108fd565b508092505050919050565b6000806000838152602001908152602001600020600101549050919050565b6109d5611c9f565b73ffffffffffffffffffffffffffffffffffffffff168573ffffffffffffffffffffffffffffffffffffffff161480610a1b5750610a1a85610a15611c9f565b6118d1565b5b610a5a576040517f08c379a0000000000000000000000000000000000000000000000000000000008152600401610a5190614ddd565b60405180910390fd5b610a678585858585611d49565b5050505050565b610a77826109ae565b610a8881610a83611c9f565b6120ac565b610a928383612149565b505050565b610a9f611c9f565b73ffffffffffffffffffffffffffffffffffffffff168173ffffffffffffffffffffffffffffffffffffffff1614610b0c576040517f08c379a0000000000000000000000000000000000000000000000000000000008152600401610b0390614f1d565b60405180910390fd5b610b168282612229565b5050565b60608151835114610b60576040517f08c379a0000000000000000000000000000000000000000000000000000000008152600401610b5790614ebd565b60405180910390fd5b6000835167ffffffffffffffff811115610ba3577f4e487b7100000000000000000000000000000000000000000000000000000000600052604160045260246000fd5b604051908082528060200260200182016040528015610bd15781602001602082028036833780820191505090505b50905060005b8451811015610cc057610c6a858281518110610c1c577f4e487b7100000000000000000000000000000000000000000000000000000000600052603260045260246000fd5b6020026020010151858381518110610c5d577f4e487b7100000000000000000000000000000000000000000000000000000000600052603260045260246000fd5b60200260200101516105c1565b828281518110610ca3577f4e487b7100000000000000000000000000000000000000000000000000000000600052603260045260246000fd5b60200260200101818152505080610cb99061541d565b9050610bd7565b508091505092915050565b6000610cdf610cda848461189c565b61230a565b905092915050565b6000600160149054906101000a900460ff16905090565b610d06611c9f565b73ffffffffffffffffffffffffffffffffffffffff16610d24610f4d565b73ffffffffffffffffffffffffffffffffffffffff1614610d7a576040517f08c379a0000000000000000000000000000000000000000000000000000000008152600401610d7190614e5d565b60405180910390fd5b610d8583838361233a565b505050565b610d92611c9f565b73ffffffffffffffffffffffffffffffffffffffff16610db0610f4d565b73ffffffffffffffffffffffffffffffffffffffff1614610e06576040517f08c379a0000000000000000000000000000000000000000000000000000000008152600401610dfd90614e5d565b60405180910390fd5b600073ffffffffffffffffffffffffffffffffffffffff16600160009054906101000a900473ffffffffffffffffffffffffffffffffffffffff1673ffffffffffffffffffffffffffffffffffffffff167f8be0079c531659141344cd1fd0a4f28419497f9722a3daafe3b4186f6b6457e060405160405180910390a36000600160006101000a81548173ffffffffffffffffffffffffffffffffffffffff021916908373ffffffffffffffffffffffffffffffffffffffff160217905550565b610ecf611c9f565b73ffffffffffffffffffffffffffffffffffffffff16610eed610f4d565b73ffffffffffffffffffffffffffffffffffffffff1614610f43576040517f08c379a0000000000000000000000000000000000000000000000000000000008152600401610f3a90614e5d565b60405180910390fd5b610f4b612639565b565b6000600160009054906101000a900473ffffffffffffffffffffffffffffffffffffffff16905090565b600080600084815260200190815260200160002060000160008373ffffffffffffffffffffffffffffffffffffffff1673ffffffffffffffffffffffffffffffffffffffff16815260200190815260200160002060009054906101000a900460ff16905092915050565b610fe96138da565b600660008381526020019081526020016000206040518060600160405290816000820160009054906101000a900473ffffffffffffffffffffffffffffffffffffffff1673ffffffffffffffffffffffffffffffffffffffff1673ffffffffffffffffffffffffffffffffffffffff1681526020016001820154815260200160028201805461107790615386565b80601f01602080910402602001604051908101604052809291908181526020018280546110a390615386565b80156110f05780601f106110c5576101008083540402835291602001916110f0565b820191906000526020600020905b8154815290600101906020018083116110d357829003601f168201915b5050505050815250509050919050565b6000801b81565b8173ffffffffffffffffffffffffffffffffffffffff16611126611c9f565b73ffffffffffffffffffffffffffffffffffffffff16141561117d576040517f08c379a000000000000000000000000000000000000000000000000000000000815260040161117490614e9d565b60405180910390fd5b806003600061118a611c9f565b73ffffffffffffffffffffffffffffffffffffffff1673ffffffffffffffffffffffffffffffffffffffff16815260200190815260200160002060008473ffffffffffffffffffffffffffffffffffffffff1673ffffffffffffffffffffffffffffffffffffffff16815260200190815260200160002060006101000a81548160ff0219169083151502179055508173ffffffffffffffffffffffffffffffffffffffff16611237611c9f565b73ffffffffffffffffffffffffffffffffffffffff167f17307eab39ab6107e8899845ad3d59bd9653f200f220920489ca2b5937696c318360405161127c9190614b80565b60405180910390a35050565b6060600060076000848152602001908152602001600020805480602002602001604051908101604052809291908181526020016000905b8282101561135157838290600052602060002090600202016040518060400160405290816000820160009054906101000a900473ffffffffffffffffffffffffffffffffffffffff1673ffffffffffffffffffffffffffffffffffffffff1673ffffffffffffffffffffffffffffffffffffffff168152602001600182015481525050815260200190600101906112bf565b5050505090506000815167ffffffffffffffff81111561139a577f4e487b7100000000000000000000000000000000000000000000000000000000600052604160045260246000fd5b6040519080825280602002602001820160405280156113c85781602001602082028036833780820191505090505b50905060005b82518110156114a257828181518110611410577f4e487b7100000000000000000000000000000000000000000000000000000000600052603260045260246000fd5b602002602001015160000151828281518110611455577f4e487b7100000000000000000000000000000000000000000000000000000000600052603260045260246000fd5b602002602001019073ffffffffffffffffffffffffffffffffffffffff16908173ffffffffffffffffffffffffffffffffffffffff1681525050808061149a9061541d565b9150506113ce565b508092505050919050565b6114b5610ce7565b156114f5576040517f08c379a00000000000000000000000000000000000000000000000000000000081526004016114ec90614d9d565b60405180910390fd5b60006115018c85610ccb565b90506008600082815260200190815260200160002060009054906101000a900460ff1615611564576040517f08c379a000000000000000000000000000000000000000000000000000000000815260040161155b90614d7d565b60405180910390fd5b3373ffffffffffffffffffffffffffffffffffffffff168c73ffffffffffffffffffffffffffffffffffffffff1614801561161b575061161a7ff0887ba65ee2024ea881d91b74c2450ef19e1557f03bed3ea9f16b037cbe2dc961161585858080601f016020809104026020016040519081016040528093929190818152602001838380828437600081840152601f19601f82011690508083019250505050505050846126db90919063ffffffff16565b610f77565b5b8061164c575061164b7ff0887ba65ee2024ea881d91b74c2450ef19e1557f03bed3ea9f16b037cbe2dc933610f77565b5b61168b576040517f08c379a000000000000000000000000000000000000000000000000000000000815260040161168290614e7d565b60405180910390fd5b60016008600083815260200190815260200160002060006101000a81548160ff021916908315150217905550600560008154809291906116ca9061541d565b91905055506116ec8c6005548d604051806020016040528060008152506127a5565b600060405180606001604052808e73ffffffffffffffffffffffffffffffffffffffff1681526020018d81526020018c8c8080601f016020809104026020016040519081016040528093929190818152602001838380828437600081840152601f19601f8201169050808301925050505050505081525090508060066000600554815260200190815260200160002060008201518160000160006101000a81548173ffffffffffffffffffffffffffffffffffffffff021916908373ffffffffffffffffffffffffffffffffffffffff1602179055506020820151816001015560408201518160020190805190602001906117e8929190613911565b509050506005547fb860e38f4d16bcc48e34c3c63fe22c0f152dd57ed8eb3ed449163ed0dda7308f826007600060055481526020019081526020016000208a8a6040516118389493929190614f5f565b60405180910390a250505050505050505050505050565b7ff0887ba65ee2024ea881d91b74c2450ef19e1557f03bed3ea9f16b037cbe2dc981565b61187c826109ae565b61188d81611888611c9f565b6120ac565b6118978383612229565b505050565b60003083836040516020016118b39392919061498b565b60405160208183030381529060405280519060200120905092915050565b6000600360008473ffffffffffffffffffffffffffffffffffffffff1673ffffffffffffffffffffffffffffffffffffffff16815260200190815260200160002060008373ffffffffffffffffffffffffffffffffffffffff1673ffffffffffffffffffffffffffffffffffffffff16815260200190815260200160002060009054906101000a900460ff16905092915050565b61196d611c9f565b73ffffffffffffffffffffffffffffffffffffffff168573ffffffffffffffffffffffffffffffffffffffff1614806119b357506119b2856119ad611c9f565b6118d1565b5b6119f2576040517f08c379a00000000000000000000000000000000000000000000000000000000081526004016119e990614d3d565b60405180910390fd5b6119ff858585858561293c565b5050505050565b611a0e611c9f565b73ffffffffffffffffffffffffffffffffffffffff16611a2c610f4d565b73ffffffffffffffffffffffffffffffffffffffff1614611a82576040517f08c379a0000000000000000000000000000000000000000000000000000000008152600401611a7990614e5d565b60405180910390fd5b600073ffffffffffffffffffffffffffffffffffffffff168173ffffffffffffffffffffffffffffffffffffffff161415611af2576040517f08c379a0000000000000000000000000000000000000000000000000000000008152600401611ae990614cfd565b60405180910390fd5b8073ffffffffffffffffffffffffffffffffffffffff16600160009054906101000a900473ffffffffffffffffffffffffffffffffffffffff1673ffffffffffffffffffffffffffffffffffffffff167f8be0079c531659141344cd1fd0a4f28419497f9722a3daafe3b4186f6b6457e060405160405180910390a380600160006101000a81548173ffffffffffffffffffffffffffffffffffffffff021916908373ffffffffffffffffffffffffffffffffffffffff16021790555050565b611bba611c9f565b73ffffffffffffffffffffffffffffffffffffffff16611bd8610f4d565b73ffffffffffffffffffffffffffffffffffffffff1614611c2e576040517f08c379a0000000000000000000000000000000000000000000000000000000008152600401611c2590614e5d565b60405180910390fd5b611c39838383612bc1565b505050565b600063b779958460e01b7bffffffffffffffffffffffffffffffffffffffffffffffffffffffff1916827bffffffffffffffffffffffffffffffffffffffffffffffffffffffff19161480611c985750611c9782612de0565b5b9050919050565b600033905090565b611caf610ce7565b611cee576040517f08c379a0000000000000000000000000000000000000000000000000000000008152600401611ce590614c9d565b60405180910390fd5b6000600160146101000a81548160ff0219169083151502179055507f5db9ee0a495bf2e6ff9c91a7834c1ba4fdd244a5e8aa4e537bd38aeae4b073aa611d32611c9f565b604051611d3f9190614a28565b60405180910390a1565b8151835114611d8d576040517f08c379a0000000000000000000000000000000000000000000000000000000008152600401611d8490614edd565b60405180910390fd5b600073ffffffffffffffffffffffffffffffffffffffff168473ffffffffffffffffffffffffffffffffffffffff161415611dfd576040517f08c379a0000000000000000000000000000000000000000000000000000000008152600401611df490614dbd565b60405180910390fd5b6000611e07611c9f565b9050611e17818787878787612ec2565b60005b8451811015612017576000858281518110611e5e577f4e487b7100000000000000000000000000000000000000000000000000000000600052603260045260246000fd5b602002602001015190506000858381518110611ea3577f4e487b7100000000000000000000000000000000000000000000000000000000600052603260045260246000fd5b6020026020010151905060006002600084815260200190815260200160002060008b73ffffffffffffffffffffffffffffffffffffffff1673ffffffffffffffffffffffffffffffffffffffff16815260200190815260200160002054905081811015611f45576040517f08c379a0000000000000000000000000000000000000000000000000000000008152600401611f3c90614e3d565b60405180910390fd5b8181036002600085815260200190815260200160002060008c73ffffffffffffffffffffffffffffffffffffffff1673ffffffffffffffffffffffffffffffffffffffff16815260200190815260200160002081905550816002600085815260200190815260200160002060008b73ffffffffffffffffffffffffffffffffffffffff1673ffffffffffffffffffffffffffffffffffffffff1681526020019081526020016000206000828254611ffc91906151a3565b92505081905550505050806120109061541d565b9050611e1a565b508473ffffffffffffffffffffffffffffffffffffffff168673ffffffffffffffffffffffffffffffffffffffff168273ffffffffffffffffffffffffffffffffffffffff167f4a39dc06d4c0dbc64b70af90fd698a233a518aa5d07e595d983b8c0526c8f7fb878760405161208e929190614b49565b60405180910390a46120a4818787878787612eca565b505050505050565b6120b68282610f77565b612145576120db8173ffffffffffffffffffffffffffffffffffffffff1660146130b1565b6120e98360001c60206130b1565b6040516020016120fa9291906149ee565b6040516020818303038152906040526040517f08c379a000000000000000000000000000000000000000000000000000000000815260040161213c9190614bfb565b60405180910390fd5b5050565b6121538282610f77565b61222557600160008084815260200190815260200160002060000160008373ffffffffffffffffffffffffffffffffffffffff1673ffffffffffffffffffffffffffffffffffffffff16815260200190815260200160002060006101000a81548160ff0219169083151502179055506121ca611c9f565b73ffffffffffffffffffffffffffffffffffffffff168173ffffffffffffffffffffffffffffffffffffffff16837f2f8788117e7eff1d82e926ec794901d17c78024a50270940304540a733656f0d60405160405180910390a45b5050565b6122338282610f77565b1561230657600080600084815260200190815260200160002060000160008373ffffffffffffffffffffffffffffffffffffffff1673ffffffffffffffffffffffffffffffffffffffff16815260200190815260200160002060006101000a81548160ff0219169083151502179055506122ab611c9f565b73ffffffffffffffffffffffffffffffffffffffff168173ffffffffffffffffffffffffffffffffffffffff16837ff6391f5c32d9c69d2a47ea670b442974b53935d1edc7fd64eb21e047a839171b60405160405180910390a45b5050565b60008160405160200161231d91906149c8565b604051602081830303815290604052805190602001209050919050565b600073ffffffffffffffffffffffffffffffffffffffff168373ffffffffffffffffffffffffffffffffffffffff1614156123aa576040517f08c379a00000000000000000000000000000000000000000000000000000000081526004016123a190614e1d565b60405180910390fd5b80518251146123ee576040517f08c379a00000000000000000000000000000000000000000000000000000000081526004016123e590614edd565b60405180910390fd5b60006123f8611c9f565b905061241881856000868660405180602001604052806000815250612ec2565b60005b83518110156125b357600084828151811061245f577f4e487b7100000000000000000000000000000000000000000000000000000000600052603260045260246000fd5b6020026020010151905060008483815181106124a4577f4e487b7100000000000000000000000000000000000000000000000000000000600052603260045260246000fd5b6020026020010151905060006002600084815260200190815260200160002060008973ffffffffffffffffffffffffffffffffffffffff1673ffffffffffffffffffffffffffffffffffffffff16815260200190815260200160002054905081811015612546576040517f08c379a000000000000000000000000000000000000000000000000000000000815260040161253d90614d1d565b60405180910390fd5b8181036002600085815260200190815260200160002060008a73ffffffffffffffffffffffffffffffffffffffff1673ffffffffffffffffffffffffffffffffffffffff1681526020019081526020016000208190555050505080806125ab9061541d565b91505061241b565b50600073ffffffffffffffffffffffffffffffffffffffff168473ffffffffffffffffffffffffffffffffffffffff168273ffffffffffffffffffffffffffffffffffffffff167f4a39dc06d4c0dbc64b70af90fd698a233a518aa5d07e595d983b8c0526c8f7fb868660405161262b929190614b49565b60405180910390a450505050565b612641610ce7565b15612681576040517f08c379a000000000000000000000000000000000000000000000000000000000815260040161267890614d9d565b60405180910390fd5b60018060146101000a81548160ff0219169083151502179055507f62e78cea01bee320cd4e420270b5ea74000d11b0c9f74754ebdbfc544b05a2586126c4611c9f565b6040516126d19190614a28565b60405180910390a1565b600080600080604185511415612708576020850151925060408501519150606085015160001a905061278e565b604085511415612752576040850151602086015193507f7fffffffffffffffffffffffffffffffffffffffffffffffffffffffffffffff81169250601b8160ff1c0191505061278d565b6040517f08c379a000000000000000000000000000000000000000000000000000000000815260040161278490614cbd565b60405180910390fd5b5b61279a868285856133ab565b935050505092915050565b600073ffffffffffffffffffffffffffffffffffffffff168473ffffffffffffffffffffffffffffffffffffffff161415612815576040517f08c379a000000000000000000000000000000000000000000000000000000000815260040161280c90614efd565b60405180910390fd5b600061281f611c9f565b90506128408160008761283188613536565b61283a88613536565b87612ec2565b826002600086815260200190815260200160002060008773ffffffffffffffffffffffffffffffffffffffff1673ffffffffffffffffffffffffffffffffffffffff16815260200190815260200160002060008282546128a091906151a3565b925050819055508473ffffffffffffffffffffffffffffffffffffffff16600073ffffffffffffffffffffffffffffffffffffffff168273ffffffffffffffffffffffffffffffffffffffff167fc3d58168c5ae7397731d063d5bbf3d657854427343f4c083240f7aacaa2d0f62878760405161291e929190614fc8565b60405180910390a4612935816000878787876135fc565b5050505050565b600073ffffffffffffffffffffffffffffffffffffffff168473ffffffffffffffffffffffffffffffffffffffff1614156129ac576040517f08c379a00000000000000000000000000000000000000000000000000000000081526004016129a390614dbd565b60405180910390fd5b60006129b6611c9f565b90506129d68187876129c788613536565b6129d088613536565b87612ec2565b60006002600086815260200190815260200160002060008873ffffffffffffffffffffffffffffffffffffffff1673ffffffffffffffffffffffffffffffffffffffff16815260200190815260200160002054905083811015612a6e576040517f08c379a0000000000000000000000000000000000000000000000000000000008152600401612a6590614e3d565b60405180910390fd5b8381036002600087815260200190815260200160002060008973ffffffffffffffffffffffffffffffffffffffff1673ffffffffffffffffffffffffffffffffffffffff16815260200190815260200160002081905550836002600087815260200190815260200160002060008873ffffffffffffffffffffffffffffffffffffffff1673ffffffffffffffffffffffffffffffffffffffff1681526020019081526020016000206000828254612b2591906151a3565b925050819055508573ffffffffffffffffffffffffffffffffffffffff168773ffffffffffffffffffffffffffffffffffffffff168373ffffffffffffffffffffffffffffffffffffffff167fc3d58168c5ae7397731d063d5bbf3d657854427343f4c083240f7aacaa2d0f628888604051612ba2929190614fc8565b60405180910390a4612bb88288888888886135fc565b50505050505050565b600073ffffffffffffffffffffffffffffffffffffffff168373ffffffffffffffffffffffffffffffffffffffff161415612c31576040517f08c379a0000000000000000000000000000000000000000000000000000000008152600401612c2890614e1d565b60405180910390fd5b6000612c3b611c9f565b9050612c6b81856000612c4d87613536565b612c5687613536565b60405180602001604052806000815250612ec2565b60006002600085815260200190815260200160002060008673ffffffffffffffffffffffffffffffffffffffff1673ffffffffffffffffffffffffffffffffffffffff16815260200190815260200160002054905082811015612d03576040517f08c379a0000000000000000000000000000000000000000000000000000000008152600401612cfa90614d1d565b60405180910390fd5b8281036002600086815260200190815260200160002060008773ffffffffffffffffffffffffffffffffffffffff1673ffffffffffffffffffffffffffffffffffffffff16815260200190815260200160002081905550600073ffffffffffffffffffffffffffffffffffffffff168573ffffffffffffffffffffffffffffffffffffffff168373ffffffffffffffffffffffffffffffffffffffff167fc3d58168c5ae7397731d063d5bbf3d657854427343f4c083240f7aacaa2d0f628787604051612dd1929190614fc8565b60405180910390a45050505050565b60007fd9b67a26000000000000000000000000000000000000000000000000000000007bffffffffffffffffffffffffffffffffffffffffffffffffffffffff1916827bffffffffffffffffffffffffffffffffffffffffffffffffffffffff19161480612eab57507f0e89341c000000000000000000000000000000000000000000000000000000007bffffffffffffffffffffffffffffffffffffffffffffffffffffffff1916827bffffffffffffffffffffffffffffffffffffffffffffffffffffffff1916145b80612ebb5750612eba826137e3565b5b9050919050565b505050505050565b612ee98473ffffffffffffffffffffffffffffffffffffffff1661385d565b156130a9578373ffffffffffffffffffffffffffffffffffffffff1663bc197c8187878686866040518663ffffffff1660e01b8152600401612f2f959493929190614a43565b602060405180830381600087803b158015612f4957600080fd5b505af1925050508015612f7a57506040513d601f19601f82011682018060405250810190612f7791906141a7565b60015b61302057612f8661552b565b806308c379a01415612fe35750612f9b615c87565b80612fa65750612fe5565b806040517f08c379a0000000000000000000000000000000000000000000000000000000008152600401612fda9190614bfb565b60405180910390fd5b505b6040517f08c379a000000000000000000000000000000000000000000000000000000000815260040161301790614c3d565b60405180910390fd5b63bc197c8160e01b7bffffffffffffffffffffffffffffffffffffffffffffffffffffffff1916817bffffffffffffffffffffffffffffffffffffffffffffffffffffffff1916146130a7576040517f08c379a000000000000000000000000000000000000000000000000000000000815260040161309e90614c7d565b60405180910390fd5b505b505050505050565b6060600060028360026130c491906151f9565b6130ce91906151a3565b67ffffffffffffffff81111561310d577f4e487b7100000000000000000000000000000000000000000000000000000000600052604160045260246000fd5b6040519080825280601f01601f19166020018201604052801561313f5781602001600182028036833780820191505090505b5090507f30000000000000000000000000000000000000000000000000000000000000008160008151811061319d577f4e487b7100000000000000000000000000000000000000000000000000000000600052603260045260246000fd5b60200101907effffffffffffffffffffffffffffffffffffffffffffffffffffffffffffff1916908160001a9053507f780000000000000000000000000000000000000000000000000000000000000081600181518110613227577f4e487b7100000000000000000000000000000000000000000000000000000000600052603260045260246000fd5b60200101907effffffffffffffffffffffffffffffffffffffffffffffffffffffffffffff1916908160001a9053506000600184600261326791906151f9565b61327191906151a3565b90505b600181111561335d577f3031323334353637383961626364656600000000000000000000000000000000600f8616601081106132d9577f4e487b7100000000000000000000000000000000000000000000000000000000600052603260045260246000fd5b1a60f81b828281518110613316577f4e487b7100000000000000000000000000000000000000000000000000000000600052603260045260246000fd5b60200101907effffffffffffffffffffffffffffffffffffffffffffffffffffffffffffff1916908160001a905350600485901c9450806133569061535c565b9050613274565b50600084146133a1576040517f08c379a000000000000000000000000000000000000000000000000000000000815260040161339890614c5d565b60405180910390fd5b8091505092915050565b60007f7fffffffffffffffffffffffffffffff5d576e7357a4501ddfe92f46681b20a08260001c1115613413576040517f08c379a000000000000000000000000000000000000000000000000000000000815260040161340a90614d5d565b60405180910390fd5b601b8460ff1614806134285750601c8460ff16145b613467576040517f08c379a000000000000000000000000000000000000000000000000000000000815260040161345e90614dfd565b60405180910390fd5b60006001868686866040516000815260200160405260405161348c9493929190614bb6565b6020604051602081039080840390855afa1580156134ae573d6000803e3d6000fd5b505050602060405103519050600073ffffffffffffffffffffffffffffffffffffffff168173ffffffffffffffffffffffffffffffffffffffff16141561352a576040517f08c379a000000000000000000000000000000000000000000000000000000000815260040161352190614c1d565b60405180910390fd5b80915050949350505050565b60606000600167ffffffffffffffff81111561357b577f4e487b7100000000000000000000000000000000000000000000000000000000600052604160045260246000fd5b6040519080825280602002602001820160405280156135a95781602001602082028036833780820191505090505b50905082816000815181106135e7577f4e487b7100000000000000000000000000000000000000000000000000000000600052603260045260246000fd5b60200260200101818152505080915050919050565b61361b8473ffffffffffffffffffffffffffffffffffffffff1661385d565b156137db578373ffffffffffffffffffffffffffffffffffffffff1663f23a6e6187878686866040518663ffffffff1660e01b8152600401613661959493929190614aab565b602060405180830381600087803b15801561367b57600080fd5b505af19250505080156136ac57506040513d601f19601f820116820180604052508101906136a991906141a7565b60015b613752576136b861552b565b806308c379a0141561371557506136cd615c87565b806136d85750613717565b806040517f08c379a000000000000000000000000000000000000000000000000000000000815260040161370c9190614bfb565b60405180910390fd5b505b6040517f08c379a000000000000000000000000000000000000000000000000000000000815260040161374990614c3d565b60405180910390fd5b63f23a6e6160e01b7bffffffffffffffffffffffffffffffffffffffffffffffffffffffff1916817bffffffffffffffffffffffffffffffffffffffffffffffffffffffff1916146137d9576040517f08c379a00000000000000000000000000000000000000000000000000000000081526004016137d090614c7d565b60405180910390fd5b505b505050505050565b60007f7965db0b000000000000000000000000000000000000000000000000000000007bffffffffffffffffffffffffffffffffffffffffffffffffffffffff1916827bffffffffffffffffffffffffffffffffffffffffffffffffffffffff19161480613856575061385582613870565b5b9050919050565b600080823b905060008111915050919050565b60007f01ffc9a7000000000000000000000000000000000000000000000000000000007bffffffffffffffffffffffffffffffffffffffffffffffffffffffff1916827bffffffffffffffffffffffffffffffffffffffffffffffffffffffff1916149050919050565b6040518060600160405280600073ffffffffffffffffffffffffffffffffffffffff16815260200160008152602001606081525090565b82805461391d90615386565b90600052602060002090601f01602090048101928261393f5760008555613986565b82601f1061395857805160ff1916838001178555613986565b82800160010185558215613986579182015b8281111561398557825182559160200191906001019061396a565b5b5090506139939190613997565b5090565b5b808211156139b0576000816000905550600101613998565b5090565b60006139c76139c284615016565b614ff1565b905080838252602082019050828560208602820111156139e657600080fd5b60005b85811015613a1657816139fc8882613aca565b8452602084019350602083019250506001810190506139e9565b5050509392505050565b6000613a33613a2e84615042565b614ff1565b90508083825260208201905082856020860282011115613a5257600080fd5b60005b85811015613a825781613a688882613c8f565b845260208401935060208301925050600181019050613a55565b5050509392505050565b6000613a9f613a9a8461506e565b614ff1565b905082815260208101848484011115613ab757600080fd5b613ac284828561531a565b509392505050565b600081359050613ad981615d1d565b92915050565b600082601f830112613af057600080fd5b8135613b008482602086016139b4565b91505092915050565b60008083601f840112613b1b57600080fd5b8235905067ffffffffffffffff811115613b3457600080fd5b602083019150836040820283011115613b4c57600080fd5b9250929050565b600082601f830112613b6457600080fd5b8135613b74848260208601613a20565b91505092915050565b600081359050613b8c81615d34565b92915050565b600081359050613ba181615d4b565b92915050565b600081359050613bb681615d62565b92915050565b600081519050613bcb81615d62565b92915050565b60008083601f840112613be357600080fd5b8235905067ffffffffffffffff811115613bfc57600080fd5b602083019150836001820283011115613c1457600080fd5b9250929050565b600082601f830112613c2c57600080fd5b8135613c3c848260208601613a8c565b91505092915050565b60008083601f840112613c5757600080fd5b8235905067ffffffffffffffff811115613c7057600080fd5b602083019150836001820283011115613c8857600080fd5b9250929050565b600081359050613c9e81615d79565b92915050565b600060208284031215613cb657600080fd5b6000613cc484828501613aca565b91505092915050565b60008060408385031215613ce057600080fd5b6000613cee85828601613aca565b9250506020613cff85828601613aca565b9150509250929050565b600080600080600060a08688031215613d2157600080fd5b6000613d2f88828901613aca565b9550506020613d4088828901613aca565b945050604086013567ffffffffffffffff811115613d5d57600080fd5b613d6988828901613b53565b935050606086013567ffffffffffffffff811115613d8657600080fd5b613d9288828901613b53565b925050608086013567ffffffffffffffff811115613daf57600080fd5b613dbb88828901613c1b565b9150509295509295909350565b600080600080600060a08688031215613de057600080fd5b6000613dee88828901613aca565b9550506020613dff88828901613aca565b9450506040613e1088828901613c8f565b9350506060613e2188828901613c8f565b925050608086013567ffffffffffffffff811115613e3e57600080fd5b613e4a88828901613c1b565b9150509295509295909350565b600080600060608486031215613e6c57600080fd5b6000613e7a86828701613aca565b935050602084013567ffffffffffffffff811115613e9757600080fd5b613ea386828701613b53565b925050604084013567ffffffffffffffff811115613ec057600080fd5b613ecc86828701613b53565b9150509250925092565b60008060408385031215613ee957600080fd5b6000613ef785828601613aca565b9250506020613f0885828601613b7d565b9150509250929050565b60008060408385031215613f2557600080fd5b6000613f3385828601613aca565b9250506020613f4485828601613c8f565b9150509250929050565b600080600080600080600080600080600060e08c8e031215613f6f57600080fd5b6000613f7d8e828f01613aca565b9b50506020613f8e8e828f01613c8f565b9a505060408c013567ffffffffffffffff811115613fab57600080fd5b613fb78e828f01613c45565b995099505060608c013567ffffffffffffffff811115613fd657600080fd5b613fe28e828f01613b09565b975097505060808c013567ffffffffffffffff81111561400157600080fd5b61400d8e828f01613c45565b955095505060a06140208e828f01613c8f565b93505060c08c013567ffffffffffffffff81111561403d57600080fd5b6140498e828f01613bd1565b92509250509295989b509295989b9093969950565b60008060006060848603121561407357600080fd5b600061408186828701613aca565b935050602061409286828701613c8f565b92505060406140a386828701613c8f565b9150509250925092565b600080604083850312156140c057600080fd5b600083013567ffffffffffffffff8111156140da57600080fd5b6140e685828601613adf565b925050602083013567ffffffffffffffff81111561410357600080fd5b61410f85828601613b53565b9150509250929050565b60006020828403121561412b57600080fd5b600061413984828501613b92565b91505092915050565b6000806040838503121561415557600080fd5b600061416385828601613b92565b925050602061417485828601613aca565b9150509250929050565b60006020828403121561419057600080fd5b600061419e84828501613ba7565b91505092915050565b6000602082840312156141b957600080fd5b60006141c784828501613bbc565b91505092915050565b6000602082840312156141e257600080fd5b60006141f084828501613c8f565b91505092915050565b60006142058383614241565b60208301905092915050565b600061421d83836148b0565b60408301905092915050565b60006142358383614947565b60208301905092915050565b61424a8161528f565b82525050565b6142598161527d565b82525050565b6142688161527d565b82525050565b61427f61427a8261527d565b615466565b82525050565b6000614290826150d4565b61429a8185615132565b93506142a58361509f565b8060005b838110156142d65781516142bd88826141f9565b97506142c88361510b565b9250506001810190506142a9565b5085935050505092915050565b60006142ee826150df565b6142f88185615143565b9350614303836150af565b8060005b83811015614333578161431a8882614211565b975061432583615118565b925050600181019050614307565b5085935050505092915050565b600061434b826150ea565b6143558185615154565b9350614360836150c4565b8060005b838110156143915781516143788882614229565b975061438383615125565b925050600181019050614364565b5085935050505092915050565b6143a7816152a1565b82525050565b6143b6816152ad565b82525050565b6143cd6143c8826152ad565b615478565b82525050565b60006143de826150f5565b6143e88185615165565b93506143f8818560208601615329565b6144018161554d565b840191505092915050565b60006144188385615187565b935061442583858461531a565b61442e8361554d565b840190509392505050565b600061444482615100565b61444e8185615176565b935061445e818560208601615329565b6144678161554d565b840191505092915050565b600061447d82615100565b6144878185615187565b9350614497818560208601615329565b6144a08161554d565b840191505092915050565b60006144b682615100565b6144c08185615198565b93506144d0818560208601615329565b80840191505092915050565b60006144e9601883615187565b91506144f482615585565b602082019050919050565b600061450c603483615187565b9150614517826155ae565b604082019050919050565b600061452f602083615187565b915061453a826155fd565b602082019050919050565b6000614552602883615187565b915061455d82615626565b604082019050919050565b6000614575601483615187565b915061458082615675565b602082019050919050565b6000614598601f83615187565b91506145a38261569e565b602082019050919050565b60006145bb601c83615198565b91506145c6826156c7565b601c82019050919050565b60006145de602b83615187565b91506145e9826156f0565b604082019050919050565b6000614601602683615187565b915061460c8261573f565b604082019050919050565b6000614624602483615187565b915061462f8261578e565b604082019050919050565b6000614647602983615187565b9150614652826157dd565b604082019050919050565b600061466a602283615187565b91506146758261582c565b604082019050919050565b600061468d601283615187565b91506146988261587b565b602082019050919050565b60006146b0601083615187565b91506146bb826158a4565b602082019050919050565b60006146d3602583615187565b91506146de826158cd565b604082019050919050565b60006146f6603283615187565b91506147018261591c565b604082019050919050565b6000614719602283615187565b91506147248261596b565b604082019050919050565b600061473c602383615187565b9150614747826159ba565b604082019050919050565b600061475f602a83615187565b915061476a82615a09565b604082019050919050565b6000614782602083615187565b915061478d82615a58565b602082019050919050565b60006147a5601783615198565b91506147b082615a81565b601782019050919050565b60006147c8601283615187565b91506147d382615aaa565b602082019050919050565b60006147eb602983615187565b91506147f682615ad3565b604082019050919050565b600061480e602983615187565b915061481982615b22565b604082019050919050565b6000614831602883615187565b915061483c82615b71565b604082019050919050565b6000614854602183615187565b915061485f82615bc0565b604082019050919050565b6000614877601183615198565b915061488282615c0f565b601182019050919050565b600061489a602f83615187565b91506148a582615c38565b604082019050919050565b6040820160008083015490506148c5816153b8565b6148d26000860182614241565b50600183015490506148e3816153d2565b6148f06020860182614947565b5050505050565b600060608301600083015161490f6000860182614250565b5060208301516149226020860182614947565b506040830151848203604086015261493a8282614439565b9150508091505092915050565b61495081615303565b82525050565b61495f81615303565b82525050565b61497661497182615303565b615494565b82525050565b6149858161530d565b82525050565b6000614997828661426e565b6014820191506149a7828561426e565b6014820191506149b78284614965565b602082019150819050949350505050565b60006149d3826145ae565b91506149df82846143bc565b60208201915081905092915050565b60006149f982614798565b9150614a0582856144ab565b9150614a108261486a565b9150614a1c82846144ab565b91508190509392505050565b6000602082019050614a3d600083018461425f565b92915050565b600060a082019050614a58600083018861425f565b614a65602083018761425f565b8181036040830152614a778186614340565b90508181036060830152614a8b8185614340565b90508181036080830152614a9f81846143d3565b90509695505050505050565b600060a082019050614ac0600083018861425f565b614acd602083018761425f565b614ada6040830186614956565b614ae76060830185614956565b8181036080830152614af981846143d3565b90509695505050505050565b60006020820190508181036000830152614b1f8184614285565b905092915050565b60006020820190508181036000830152614b418184614340565b905092915050565b60006040820190508181036000830152614b638185614340565b90508181036020830152614b778184614340565b90509392505050565b6000602082019050614b95600083018461439e565b92915050565b6000602082019050614bb060008301846143ad565b92915050565b6000608082019050614bcb60008301876143ad565b614bd8602083018661497c565b614be560408301856143ad565b614bf260608301846143ad565b95945050505050565b60006020820190508181036000830152614c158184614472565b905092915050565b60006020820190508181036000830152614c36816144dc565b9050919050565b60006020820190508181036000830152614c56816144ff565b9050919050565b60006020820190508181036000830152614c7681614522565b9050919050565b60006020820190508181036000830152614c9681614545565b9050919050565b60006020820190508181036000830152614cb681614568565b9050919050565b60006020820190508181036000830152614cd68161458b565b9050919050565b60006020820190508181036000830152614cf6816145d1565b9050919050565b60006020820190508181036000830152614d16816145f4565b9050919050565b60006020820190508181036000830152614d3681614617565b9050919050565b60006020820190508181036000830152614d568161463a565b9050919050565b60006020820190508181036000830152614d768161465d565b9050919050565b60006020820190508181036000830152614d9681614680565b9050919050565b60006020820190508181036000830152614db6816146a3565b9050919050565b60006020820190508181036000830152614dd6816146c6565b9050919050565b60006020820190508181036000830152614df6816146e9565b9050919050565b60006020820190508181036000830152614e168161470c565b9050919050565b60006020820190508181036000830152614e368161472f565b9050919050565b60006020820190508181036000830152614e5681614752565b9050919050565b60006020820190508181036000830152614e7681614775565b9050919050565b60006020820190508181036000830152614e96816147bb565b9050919050565b60006020820190508181036000830152614eb6816147de565b9050919050565b60006020820190508181036000830152614ed681614801565b9050919050565b60006020820190508181036000830152614ef681614824565b9050919050565b60006020820190508181036000830152614f1681614847565b9050919050565b60006020820190508181036000830152614f368161488d565b9050919050565b60006020820190508181036000830152614f5781846148f7565b905092915050565b60006060820190508181036000830152614f7981876148f7565b90508181036020830152614f8d81866142e3565b90508181036040830152614fa281848661440c565b905095945050505050565b6000602082019050614fc26000830184614956565b92915050565b6000604082019050614fdd6000830185614956565b614fea6020830184614956565b9392505050565b6000614ffb61500c565b905061500782826153ec565b919050565b6000604051905090565b600067ffffffffffffffff821115615031576150306154fc565b5b602082029050602081019050919050565b600067ffffffffffffffff82111561505d5761505c6154fc565b5b602082029050602081019050919050565b600067ffffffffffffffff821115615089576150886154fc565b5b6150928261554d565b9050602081019050919050565b6000819050602082019050919050565b60008190508160005260206000209050919050565b6000819050602082019050919050565b600081519050919050565b600081549050919050565b600081519050919050565b600081519050919050565b600081519050919050565b6000602082019050919050565b6000600282019050919050565b6000602082019050919050565b600082825260208201905092915050565b600082825260208201905092915050565b600082825260208201905092915050565b600082825260208201905092915050565b600082825260208201905092915050565b600082825260208201905092915050565b600081905092915050565b60006151ae82615303565b91506151b983615303565b9250827fffffffffffffffffffffffffffffffffffffffffffffffffffffffffffffffff038211156151ee576151ed61549e565b5b828201905092915050565b600061520482615303565b915061520f83615303565b9250817fffffffffffffffffffffffffffffffffffffffffffffffffffffffffffffffff04831182151516156152485761524761549e565b5b828202905092915050565b600073ffffffffffffffffffffffffffffffffffffffff82169050919050565b6000819050919050565b6000615288826152e3565b9050919050565b600061529a826152e3565b9050919050565b60008115159050919050565b6000819050919050565b60007fffffffff0000000000000000000000000000000000000000000000000000000082169050919050565b600073ffffffffffffffffffffffffffffffffffffffff82169050919050565b6000819050919050565b600060ff82169050919050565b82818337600083830152505050565b60005b8381101561534757808201518184015260208101905061532c565b83811115615356576000848401525b50505050565b600061536782615303565b9150600082141561537b5761537a61549e565b5b600182039050919050565b6000600282049050600182168061539e57607f821691505b602082108114156153b2576153b16154cd565b5b50919050565b60006153cb6153c68361556b565b615253565b9050919050565b60006153e56153e08361556b565b615273565b9050919050565b6153f58261554d565b810181811067ffffffffffffffff82111715615414576154136154fc565b5b80604052505050565b600061542882615303565b91507fffffffffffffffffffffffffffffffffffffffffffffffffffffffffffffffff82141561545b5761545a61549e565b5b600182019050919050565b600061547182615482565b9050919050565b6000819050919050565b600061548d8261555e565b9050919050565b6000819050919050565b7f4e487b7100000000000000000000000000000000000000000000000000000000600052601160045260246000fd5b7f4e487b7100000000000000000000000000000000000000000000000000000000600052602260045260246000fd5b7f4e487b7100000000000000000000000000000000000000000000000000000000600052604160045260246000fd5b600060033d111561554a5760046000803e615547600051615578565b90505b90565b6000601f19601f8301169050919050565b60008160601b9050919050565b60008160001c9050919050565b60008160e01c9050919050565b7f45434453413a20696e76616c6964207369676e61747572650000000000000000600082015250565b7f455243313135353a207472616e7366657220746f206e6f6e204552433131353560008201527f526563656976657220696d706c656d656e746572000000000000000000000000602082015250565b7f537472696e67733a20686578206c656e67746820696e73756666696369656e74600082015250565b7f455243313135353a204552433131353552656365697665722072656a6563746560008201527f6420746f6b656e73000000000000000000000000000000000000000000000000602082015250565b7f5061757361626c653a206e6f7420706175736564000000000000000000000000600082015250565b7f45434453413a20696e76616c6964207369676e6174757265206c656e67746800600082015250565b7f19457468657265756d205369676e6564204d6573736167653a0a333200000000600082015250565b7f455243313135353a2062616c616e636520717565727920666f7220746865207a60008201527f65726f2061646472657373000000000000000000000000000000000000000000602082015250565b7f4f776e61626c653a206e6577206f776e657220697320746865207a65726f206160008201527f6464726573730000000000000000000000000000000000000000000000000000602082015250565b7f455243313135353a206275726e20616d6f756e7420657863656564732062616c60008201527f616e636500000000000000000000000000000000000000000000000000000000602082015250565b7f455243313135353a2063616c6c6572206973206e6f74206f776e6572206e6f7260008201527f20617070726f7665640000000000000000000000000000000000000000000000602082015250565b7f45434453413a20696e76616c6964207369676e6174757265202773272076616c60008201527f7565000000000000000000000000000000000000000000000000000000000000602082015250565b7f4861736820616c726561647920757365642e0000000000000000000000000000600082015250565b7f5061757361626c653a2070617573656400000000000000000000000000000000600082015250565b7f455243313135353a207472616e7366657220746f20746865207a65726f20616460008201527f6472657373000000000000000000000000000000000000000000000000000000602082015250565b7f455243313135353a207472616e736665722063616c6c6572206973206e6f742060008201527f6f776e6572206e6f7220617070726f7665640000000000000000000000000000602082015250565b7f45434453413a20696e76616c6964207369676e6174757265202776272076616c60008201527f7565000000000000000000000000000000000000000000000000000000000000602082015250565b7f455243313135353a206275726e2066726f6d20746865207a65726f206164647260008201527f6573730000000000000000000000000000000000000000000000000000000000602082015250565b7f455243313135353a20696e73756666696369656e742062616c616e636520666f60008201527f72207472616e7366657200000000000000000000000000000000000000000000602082015250565b7f4f776e61626c653a2063616c6c6572206973206e6f7420746865206f776e6572600082015250565b7f416363657373436f6e74726f6c3a206163636f756e7420000000000000000000600082015250565b7f496e76616c6964207369676e61747572652e0000000000000000000000000000600082015250565b7f455243313135353a2073657474696e6720617070726f76616c2073746174757360008201527f20666f722073656c660000000000000000000000000000000000000000000000602082015250565b7f455243313135353a206163636f756e747320616e6420696473206c656e67746860008201527f206d69736d617463680000000000000000000000000000000000000000000000602082015250565b7f455243313135353a2069647320616e6420616d6f756e7473206c656e6774682060008201527f6d69736d61746368000000000000000000000000000000000000000000000000602082015250565b7f455243313135353a206d696e7420746f20746865207a65726f2061646472657360008201527f7300000000000000000000000000000000000000000000000000000000000000602082015250565b7f206973206d697373696e6720726f6c6520000000000000000000000000000000600082015250565b7f416363657373436f6e74726f6c3a2063616e206f6e6c792072656e6f756e636560008201527f20726f6c657320666f722073656c660000000000000000000000000000000000602082015250565b600060443d1015615c9757615d1a565b615c9f61500c565b60043d036004823e80513d602482011167ffffffffffffffff82111715615cc7575050615d1a565b808201805167ffffffffffffffff811115615ce55750505050615d1a565b80602083010160043d038501811115615d02575050505050615d1a565b615d11826020018501866153ec565b82955050505050505b90565b615d268161527d565b8114615d3157600080fd5b50565b615d3d816152a1565b8114615d4857600080fd5b50565b615d54816152ad565b8114615d5f57600080fd5b50565b615d6b816152b7565b8114615d7657600080fd5b50565b615d8281615303565b8114615d8d57600080fd5b5056fea2646970667358221220ba48692912e8b156d0381ad811bcc9adcb4338c6e5160178320083d6f6bb079e64736f6c63430008040033",
  "immutableReferences": {},
  "source": "// SPDX-License-Identifier: MIT\npragma solidity ^0.8.0;\n\nimport \"./openzeppelin/contracts/token/ERC1155/ERC1155.sol\";\nimport \"./openzeppelin/contracts/access/AccessControl.sol\";\nimport \"./openzeppelin/contracts/access/Ownable.sol\";\nimport \"./openzeppelin/contracts/utils/cryptography/ECDSA.sol\";\nimport \"./openzeppelin/contracts/security/Pausable.sol\";\nimport \"./HasSecondarySaleFees.sol\";\n\nstruct Fee {\n  address payable recipient;\n  uint pct;\n}\n\nstruct TokenData {\n  address creator;\n  uint supply;\n  string metadataURI;\n}\n\ncontract Token is AccessControl, Ownable, Pausable, ERC1155, HasSecondarySaleFees {\n  using ECDSA for bytes32;\n\n  bytes internal constant EMPTY = \"\";\n\n  bytes32 public constant MINTER_ROLE = keccak256(\"MINTER\");\n\n  uint private _tokenId = 0;\n  mapping(uint => TokenData) _tokens;\n  mapping(uint => Fee[]) _fees;\n\n  mapping(bytes32 => bool) _tokensMinted;\n\n  constructor(string memory uri) ERC1155(uri) {\n    _setupRole(DEFAULT_ADMIN_ROLE, msg.sender);\n    _setupRole(MINTER_ROLE, msg.sender);\n  }\n\n  function supportsInterface(bytes4 interfaceId) public view override(AccessControl, ERC1155, HasSecondarySaleFees) returns (bool) {\n    return super.supportsInterface(interfaceId);\n  }\n\n  event Minted(uint256 indexed id, TokenData token, Fee[] fees, string data);\n\n  function mint(\n    address creator,\n    uint quantity,\n    string calldata metadataUri,\n    Fee[] calldata fees,\n    string calldata data,\n    uint nonce,\n    bytes calldata signature\n  ) public whenNotPaused {\n    bytes32 mintHash_ = mintHashMsg(creator, nonce);\n    require(!_tokensMinted[mintHash_], \"Hash already used.\");\n\n    require((creator == msg.sender && hasRole(MINTER_ROLE, mintHash_.recover(signature))) || hasRole(MINTER_ROLE, msg.sender), \"Invalid signature.\");\n    _tokensMinted[mintHash_] = true;\n\n    _tokenId++;\n\n    super._mint(creator, _tokenId, quantity, EMPTY);\n\n    TokenData memory token = TokenData(\n      creator,\n      quantity,\n      metadataUri\n    );\n\n    _tokens[_tokenId] = token;\n\n    // uint totalBps = 0;\n\n    // for (uint i = 0; i < fees.length; i++) {\n    //   totalBps += fees[i].pct;\n    //   if (totalBps <= 10**5)\n    //     _fees[_tokenId].push(fees[i]);\n    // }\n\n    emit Minted(_tokenId, token, _fees[_tokenId], data);\n  }\n\n  function mintHash(address creator, uint nonce) public view returns (bytes32) {\n    return keccak256(abi.encodePacked(\n      address(this),\n      creator,\n      nonce\n    ));\n  }\n\n  function mintHashMsg(address creator, uint nonce) public view returns (bytes32) {\n    return mintHash(creator, nonce).toEthSignedMessageHash();\n  }\n\n  function get(uint id) public view returns (TokenData memory) {\n    return _tokens[id];\n  }\n\n  function getFeeRecipients(uint256 id) override public view returns (address payable[] memory) {\n    Fee[] memory fees = _fees[id];\n    address payable[] memory result = new address payable[](fees.length);\n    for (uint i = 0; i < fees.length; i++) {\n      result[i] = fees[i].recipient;\n    }\n    return result;\n  }\n\n  function getFeeBps(uint256 id) override public view returns (uint[] memory) {\n    Fee[] memory fees = _fees[id];\n    uint[] memory result = new uint[](fees.length);\n    for (uint i = 0; i < fees.length; i++) {\n      result[i] = fees[i].pct;\n    }\n    return result;\n  }\n\n  function burn(address account, uint256 id, uint256 amount) public onlyOwner {\n    super._burn(account, id, amount);\n  }\n\n  function burnBatch(address account, uint256[] memory ids, uint256[] memory amounts) public onlyOwner {\n    super._burnBatch(account, ids, amounts);\n  }\n\n  function pause() public onlyOwner {\n    super._pause();\n  }\n\n  function resume() public onlyOwner {\n    super._unpause();\n  }\n}",
  "sourcePath": "C:/Users/Husnain/Documents/Projects/Fanbase/New/fanbase/packages/ethereum/contracts/solidity/Token.sol",
  "compiler": {
    "name": "solc",
    "version": "0.8.4+commit.c7e474f2.Emscripten.clang"
  },
  "schemaVersion": "3.4.1",
  "updatedAt": "2021-06-06T20:07:34.532Z",
  "networkType": "ethereum",
  "devdoc": {
    "kind": "dev",
    "methods": {
      "balanceOf(address,uint256)": {
        "details": "See {IERC1155-balanceOf}. Requirements: - `account` cannot be the zero address."
      },
      "balanceOfBatch(address[],uint256[])": {
        "details": "See {IERC1155-balanceOfBatch}. Requirements: - `accounts` and `ids` must have the same length."
      },
      "getRoleAdmin(bytes32)": {
        "details": "Returns the admin role that controls `role`. See {grantRole} and {revokeRole}. To change a role's admin, use {_setRoleAdmin}."
      },
      "grantRole(bytes32,address)": {
        "details": "Grants `role` to `account`. If `account` had not been already granted `role`, emits a {RoleGranted} event. Requirements: - the caller must have ``role``'s admin role."
      },
      "hasRole(bytes32,address)": {
        "details": "Returns `true` if `account` has been granted `role`."
      },
      "isApprovedForAll(address,address)": {
        "details": "See {IERC1155-isApprovedForAll}."
      },
      "owner()": {
        "details": "Returns the address of the current owner."
      },
      "paused()": {
        "details": "Returns true if the contract is paused, and false otherwise."
      },
      "renounceOwnership()": {
        "details": "Leaves the contract without owner. It will not be possible to call `onlyOwner` functions anymore. Can only be called by the current owner. NOTE: Renouncing ownership will leave the contract without an owner, thereby removing any functionality that is only available to the owner."
      },
      "renounceRole(bytes32,address)": {
        "details": "Revokes `role` from the calling account. Roles are often managed via {grantRole} and {revokeRole}: this function's purpose is to provide a mechanism for accounts to lose their privileges if they are compromised (such as when a trusted device is misplaced). If the calling account had been granted `role`, emits a {RoleRevoked} event. Requirements: - the caller must be `account`."
      },
      "revokeRole(bytes32,address)": {
        "details": "Revokes `role` from `account`. If `account` had been granted `role`, emits a {RoleRevoked} event. Requirements: - the caller must have ``role``'s admin role."
      },
      "safeBatchTransferFrom(address,address,uint256[],uint256[],bytes)": {
        "details": "See {IERC1155-safeBatchTransferFrom}."
      },
      "safeTransferFrom(address,address,uint256,uint256,bytes)": {
        "details": "See {IERC1155-safeTransferFrom}."
      },
      "setApprovalForAll(address,bool)": {
        "details": "See {IERC1155-setApprovalForAll}."
      },
      "transferOwnership(address)": {
        "details": "Transfers ownership of the contract to a new account (`newOwner`). Can only be called by the current owner."
      },
      "uri(uint256)": {
        "details": "See {IERC1155MetadataURI-uri}. This implementation returns the same URI for *all* token types. It relies on the token type ID substitution mechanism https://eips.ethereum.org/EIPS/eip-1155#metadata[defined in the EIP]. Clients calling this function must replace the `\\{id\\}` substring with the actual token type ID."
      }
    },
    "version": 1
  },
  "userdoc": {
    "kind": "user",
    "methods": {},
    "version": 1
  }
}