{
  "contractName": "TokenV1",
  "abi": [
    {
      "inputs": [
        {
          "internalType": "string",
          "name": "uri",
          "type": "string"
        }
      ],
      "stateMutability": "nonpayable",
      "type": "constructor"
    },
    {
      "anonymous": false,
      "inputs": [
        {
          "indexed": true,
          "internalType": "address",
          "name": "account",
          "type": "address"
        },
        {
          "indexed": true,
          "internalType": "address",
          "name": "operator",
          "type": "address"
        },
        {
          "indexed": false,
          "internalType": "bool",
          "name": "approved",
          "type": "bool"
        }
      ],
      "name": "ApprovalForAll",
      "type": "event"
    },
    {
      "anonymous": false,
      "inputs": [
        {
          "indexed": true,
          "internalType": "uint256",
          "name": "id",
          "type": "uint256"
        },
        {
          "components": [
            {
              "internalType": "uint256",
              "name": "dateCreated",
              "type": "uint256"
            },
            {
              "internalType": "address",
              "name": "creator",
              "type": "address"
            },
            {
              "internalType": "uint256",
              "name": "supply",
              "type": "uint256"
            }
          ],
          "indexed": false,
          "internalType": "struct Token",
          "name": "token",
          "type": "tuple"
        },
        {
          "components": [
            {
              "internalType": "address payable",
              "name": "recipient",
              "type": "address"
            },
            {
              "internalType": "uint256",
              "name": "pct",
              "type": "uint256"
            }
          ],
          "indexed": false,
          "internalType": "struct Fee[]",
          "name": "fees",
          "type": "tuple[]"
        },
        {
          "indexed": false,
          "internalType": "string",
          "name": "data",
          "type": "string"
        }
      ],
      "name": "Minted",
      "type": "event"
    },
    {
      "anonymous": false,
      "inputs": [
        {
          "indexed": false,
          "internalType": "address",
          "name": "operator",
          "type": "address"
        },
        {
          "indexed": false,
          "internalType": "address",
          "name": "creator",
          "type": "address"
        },
        {
          "indexed": true,
          "internalType": "uint256",
          "name": "supply",
          "type": "uint256"
        }
      ],
      "name": "RevokeMint",
      "type": "event"
    },
    {
      "anonymous": false,
      "inputs": [
        {
          "indexed": true,
          "internalType": "bytes32",
          "name": "role",
          "type": "bytes32"
        },
        {
          "indexed": true,
          "internalType": "bytes32",
          "name": "previousAdminRole",
          "type": "bytes32"
        },
        {
          "indexed": true,
          "internalType": "bytes32",
          "name": "newAdminRole",
          "type": "bytes32"
        }
      ],
      "name": "RoleAdminChanged",
      "type": "event"
    },
    {
      "anonymous": false,
      "inputs": [
        {
          "indexed": true,
          "internalType": "bytes32",
          "name": "role",
          "type": "bytes32"
        },
        {
          "indexed": true,
          "internalType": "address",
          "name": "account",
          "type": "address"
        },
        {
          "indexed": true,
          "internalType": "address",
          "name": "sender",
          "type": "address"
        }
      ],
      "name": "RoleGranted",
      "type": "event"
    },
    {
      "anonymous": false,
      "inputs": [
        {
          "indexed": true,
          "internalType": "bytes32",
          "name": "role",
          "type": "bytes32"
        },
        {
          "indexed": true,
          "internalType": "address",
          "name": "account",
          "type": "address"
        },
        {
          "indexed": true,
          "internalType": "address",
          "name": "sender",
          "type": "address"
        }
      ],
      "name": "RoleRevoked",
      "type": "event"
    },
    {
      "anonymous": false,
      "inputs": [
        {
          "indexed": false,
          "internalType": "uint256",
          "name": "tokenId",
          "type": "uint256"
        },
        {
          "indexed": false,
          "internalType": "address[]",
          "name": "recipients",
          "type": "address[]"
        },
        {
          "indexed": false,
          "internalType": "uint256[]",
          "name": "bps",
          "type": "uint256[]"
        }
      ],
      "name": "SecondarySaleFees",
      "type": "event"
    },
    {
      "anonymous": false,
      "inputs": [
        {
          "indexed": true,
          "internalType": "address",
          "name": "operator",
          "type": "address"
        },
        {
          "indexed": true,
          "internalType": "address",
          "name": "from",
          "type": "address"
        },
        {
          "indexed": true,
          "internalType": "address",
          "name": "to",
          "type": "address"
        },
        {
          "indexed": false,
          "internalType": "uint256[]",
          "name": "ids",
          "type": "uint256[]"
        },
        {
          "indexed": false,
          "internalType": "uint256[]",
          "name": "values",
          "type": "uint256[]"
        }
      ],
      "name": "TransferBatch",
      "type": "event"
    },
    {
      "anonymous": false,
      "inputs": [
        {
          "indexed": true,
          "internalType": "address",
          "name": "operator",
          "type": "address"
        },
        {
          "indexed": true,
          "internalType": "address",
          "name": "from",
          "type": "address"
        },
        {
          "indexed": true,
          "internalType": "address",
          "name": "to",
          "type": "address"
        },
        {
          "indexed": false,
          "internalType": "uint256",
          "name": "id",
          "type": "uint256"
        },
        {
          "indexed": false,
          "internalType": "uint256",
          "name": "value",
          "type": "uint256"
        }
      ],
      "name": "TransferSingle",
      "type": "event"
    },
    {
      "anonymous": false,
      "inputs": [
        {
          "indexed": false,
          "internalType": "string",
          "name": "value",
          "type": "string"
        },
        {
          "indexed": true,
          "internalType": "uint256",
          "name": "id",
          "type": "uint256"
        }
      ],
      "name": "URI",
      "type": "event"
    },
    {
      "inputs": [],
      "name": "ADMIN_ROLE",
      "outputs": [
        {
          "internalType": "bytes32",
          "name": "",
          "type": "bytes32"
        }
      ],
      "stateMutability": "view",
      "type": "function",
      "constant": true
    },
    {
      "inputs": [],
      "name": "DEFAULT_ADMIN_ROLE",
      "outputs": [
        {
          "internalType": "bytes32",
          "name": "",
          "type": "bytes32"
        }
      ],
      "stateMutability": "view",
      "type": "function",
      "constant": true
    },
    {
      "inputs": [],
      "name": "MINTER_ROLE",
      "outputs": [
        {
          "internalType": "bytes32",
          "name": "",
          "type": "bytes32"
        }
      ],
      "stateMutability": "view",
      "type": "function",
      "constant": true
    },
    {
      "inputs": [
        {
          "internalType": "address",
          "name": "account",
          "type": "address"
        },
        {
          "internalType": "uint256",
          "name": "id",
          "type": "uint256"
        }
      ],
      "name": "balanceOf",
      "outputs": [
        {
          "internalType": "uint256",
          "name": "",
          "type": "uint256"
        }
      ],
      "stateMutability": "view",
      "type": "function",
      "constant": true
    },
    {
      "inputs": [
        {
          "internalType": "address[]",
          "name": "accounts",
          "type": "address[]"
        },
        {
          "internalType": "uint256[]",
          "name": "ids",
          "type": "uint256[]"
        }
      ],
      "name": "balanceOfBatch",
      "outputs": [
        {
          "internalType": "uint256[]",
          "name": "",
          "type": "uint256[]"
        }
      ],
      "stateMutability": "view",
      "type": "function",
      "constant": true
    },
    {
      "inputs": [
        {
          "internalType": "bytes32",
          "name": "role",
          "type": "bytes32"
        }
      ],
      "name": "getRoleAdmin",
      "outputs": [
        {
          "internalType": "bytes32",
          "name": "",
          "type": "bytes32"
        }
      ],
      "stateMutability": "view",
      "type": "function",
      "constant": true
    },
    {
      "inputs": [
        {
          "internalType": "bytes32",
          "name": "role",
          "type": "bytes32"
        },
        {
          "internalType": "address",
          "name": "account",
          "type": "address"
        }
      ],
      "name": "grantRole",
      "outputs": [],
      "stateMutability": "nonpayable",
      "type": "function"
    },
    {
      "inputs": [
        {
          "internalType": "bytes32",
          "name": "role",
          "type": "bytes32"
        },
        {
          "internalType": "address",
          "name": "account",
          "type": "address"
        }
      ],
      "name": "hasRole",
      "outputs": [
        {
          "internalType": "bool",
          "name": "",
          "type": "bool"
        }
      ],
      "stateMutability": "view",
      "type": "function",
      "constant": true
    },
    {
      "inputs": [
        {
          "internalType": "address",
          "name": "account",
          "type": "address"
        },
        {
          "internalType": "address",
          "name": "operator",
          "type": "address"
        }
      ],
      "name": "isApprovedForAll",
      "outputs": [
        {
          "internalType": "bool",
          "name": "",
          "type": "bool"
        }
      ],
      "stateMutability": "view",
      "type": "function",
      "constant": true
    },
    {
      "inputs": [
        {
          "internalType": "bytes32",
          "name": "role",
          "type": "bytes32"
        },
        {
          "internalType": "address",
          "name": "account",
          "type": "address"
        }
      ],
      "name": "renounceRole",
      "outputs": [],
      "stateMutability": "nonpayable",
      "type": "function"
    },
    {
      "inputs": [
        {
          "internalType": "bytes32",
          "name": "role",
          "type": "bytes32"
        },
        {
          "internalType": "address",
          "name": "account",
          "type": "address"
        }
      ],
      "name": "revokeRole",
      "outputs": [],
      "stateMutability": "nonpayable",
      "type": "function"
    },
    {
      "inputs": [
        {
          "internalType": "address",
          "name": "from",
          "type": "address"
        },
        {
          "internalType": "address",
          "name": "to",
          "type": "address"
        },
        {
          "internalType": "uint256[]",
          "name": "ids",
          "type": "uint256[]"
        },
        {
          "internalType": "uint256[]",
          "name": "amounts",
          "type": "uint256[]"
        },
        {
          "internalType": "bytes",
          "name": "data",
          "type": "bytes"
        }
      ],
      "name": "safeBatchTransferFrom",
      "outputs": [],
      "stateMutability": "nonpayable",
      "type": "function"
    },
    {
      "inputs": [
        {
          "internalType": "address",
          "name": "from",
          "type": "address"
        },
        {
          "internalType": "address",
          "name": "to",
          "type": "address"
        },
        {
          "internalType": "uint256",
          "name": "id",
          "type": "uint256"
        },
        {
          "internalType": "uint256",
          "name": "amount",
          "type": "uint256"
        },
        {
          "internalType": "bytes",
          "name": "data",
          "type": "bytes"
        }
      ],
      "name": "safeTransferFrom",
      "outputs": [],
      "stateMutability": "nonpayable",
      "type": "function"
    },
    {
      "inputs": [
        {
          "internalType": "address",
          "name": "operator",
          "type": "address"
        },
        {
          "internalType": "bool",
          "name": "approved",
          "type": "bool"
        }
      ],
      "name": "setApprovalForAll",
      "outputs": [],
      "stateMutability": "nonpayable",
      "type": "function"
    },
    {
      "inputs": [
        {
          "internalType": "uint256",
          "name": "",
          "type": "uint256"
        }
      ],
      "name": "uri",
      "outputs": [
        {
          "internalType": "string",
          "name": "",
          "type": "string"
        }
      ],
      "stateMutability": "view",
      "type": "function",
      "constant": true
    },
    {
      "inputs": [
        {
          "internalType": "bytes4",
          "name": "interfaceId",
          "type": "bytes4"
        }
      ],
      "name": "supportsInterface",
      "outputs": [
        {
          "internalType": "bool",
          "name": "",
          "type": "bool"
        }
      ],
      "stateMutability": "view",
      "type": "function",
      "constant": true
    },
    {
      "inputs": [
        {
          "internalType": "string",
          "name": "uri",
          "type": "string"
        }
      ],
      "name": "setMetadataUri",
      "outputs": [],
      "stateMutability": "nonpayable",
      "type": "function"
    },
    {
      "inputs": [
        {
          "internalType": "address",
          "name": "creator",
          "type": "address"
        },
        {
          "internalType": "uint256",
          "name": "supply",
          "type": "uint256"
        },
        {
          "internalType": "uint256",
          "name": "expiry",
          "type": "uint256"
        },
        {
          "internalType": "uint256",
          "name": "salt",
          "type": "uint256"
        }
      ],
      "name": "getMintHash",
      "outputs": [
        {
          "internalType": "bytes32",
          "name": "",
          "type": "bytes32"
        }
      ],
      "stateMutability": "view",
      "type": "function",
      "constant": true
    },
    {
      "inputs": [
        {
          "internalType": "uint256",
          "name": "id",
          "type": "uint256"
        }
      ],
      "name": "get",
      "outputs": [
        {
          "components": [
            {
              "internalType": "uint256",
              "name": "dateCreated",
              "type": "uint256"
            },
            {
              "internalType": "address",
              "name": "creator",
              "type": "address"
            },
            {
              "internalType": "uint256",
              "name": "supply",
              "type": "uint256"
            }
          ],
          "internalType": "struct Token",
          "name": "",
          "type": "tuple"
        }
      ],
      "stateMutability": "view",
      "type": "function",
      "constant": true
    },
    {
      "inputs": [
        {
          "internalType": "address",
          "name": "creator",
          "type": "address"
        },
        {
          "internalType": "uint256",
          "name": "supply",
          "type": "uint256"
        },
        {
          "components": [
            {
              "internalType": "address payable",
              "name": "recipient",
              "type": "address"
            },
            {
              "internalType": "uint256",
              "name": "pct",
              "type": "uint256"
            }
          ],
          "internalType": "struct Fee[]",
          "name": "fees",
          "type": "tuple[]"
        },
        {
          "internalType": "string",
          "name": "data",
          "type": "string"
        },
        {
          "internalType": "uint256",
          "name": "expiry",
          "type": "uint256"
        },
        {
          "internalType": "uint256",
          "name": "salt",
          "type": "uint256"
        },
        {
          "internalType": "bytes",
          "name": "signature",
          "type": "bytes"
        }
      ],
      "name": "mint",
      "outputs": [],
      "stateMutability": "nonpayable",
      "type": "function"
    },
    {
      "inputs": [
        {
          "internalType": "address",
          "name": "creator",
          "type": "address"
        },
        {
          "internalType": "uint256",
          "name": "supply",
          "type": "uint256"
        },
        {
          "internalType": "uint256",
          "name": "expiry",
          "type": "uint256"
        },
        {
          "internalType": "uint256",
          "name": "salt",
          "type": "uint256"
        }
      ],
      "name": "revokeMintApproval",
      "outputs": [],
      "stateMutability": "nonpayable",
      "type": "function"
    },
    {
      "inputs": [
        {
          "internalType": "uint256",
          "name": "id",
          "type": "uint256"
        }
      ],
      "name": "getFeeRecipients",
      "outputs": [
        {
          "internalType": "address payable[]",
          "name": "",
          "type": "address[]"
        }
      ],
      "stateMutability": "view",
      "type": "function",
      "constant": true
    },
    {
      "inputs": [
        {
          "internalType": "uint256",
          "name": "id",
          "type": "uint256"
        }
      ],
      "name": "getFeeBps",
      "outputs": [
        {
          "internalType": "uint256[]",
          "name": "",
          "type": "uint256[]"
        }
      ],
      "stateMutability": "view",
      "type": "function",
      "constant": true
    },
    {
      "inputs": [
        {
          "internalType": "address",
          "name": "account",
          "type": "address"
        },
        {
          "internalType": "uint256",
          "name": "id",
          "type": "uint256"
        },
        {
          "internalType": "uint256",
          "name": "amount",
          "type": "uint256"
        }
      ],
      "name": "burn",
      "outputs": [],
      "stateMutability": "nonpayable",
      "type": "function"
    },
    {
      "inputs": [
        {
          "internalType": "address",
          "name": "account",
          "type": "address"
        },
        {
          "internalType": "uint256[]",
          "name": "ids",
          "type": "uint256[]"
        },
        {
          "internalType": "uint256[]",
          "name": "amounts",
          "type": "uint256[]"
        }
      ],
      "name": "burnBatch",
      "outputs": [],
      "stateMutability": "nonpayable",
      "type": "function"
    }
  ],
  "bytecode": "0x608060405260006004553480156200001657600080fd5b506040516200615d3803806200615d83398181016040528101906200003c91906200049b565b806200004e816200015660201b60201c565b50620000646000801b336200017260201b60201c565b620000967fa49807205ce4d355092ef5a8a18f56e8913cf4a201fbe287825b095693c21775336200017260201b60201c565b620000cb7fa49807205ce4d355092ef5a8a18f56e8913cf4a201fbe287825b095693c217756000801b6200018860201b60201c565b620000fd7f9f2df0fed2c77648de5860a4cc508cd0818c85b8b8a1ab4ceeef8d981c8956a6336200017260201b60201c565b6200014f7f9f2df0fed2c77648de5860a4cc508cd0818c85b8b8a1ab4ceeef8d981c8956a67fa49807205ce4d355092ef5a8a18f56e8913cf4a201fbe287825b095693c217756200018860201b60201c565b5062000670565b80600390805190602001906200016e9291906200036d565b5050565b620001848282620001eb60201b60201c565b5050565b60006200019b83620002dc60201b60201c565b905081600080858152602001908152602001600020600101819055508181847fbd79b86ffe0ab8e8776151514217cd7cacd52c909f66475c3af44e129f0b00ff60405160405180910390a4505050565b620001fd8282620002fb60201b60201c565b620002d857600160008084815260200190815260200160002060000160008373ffffffffffffffffffffffffffffffffffffffff1673ffffffffffffffffffffffffffffffffffffffff16815260200190815260200160002060006101000a81548160ff0219169083151502179055506200027d6200036560201b60201c565b73ffffffffffffffffffffffffffffffffffffffff168173ffffffffffffffffffffffffffffffffffffffff16837f2f8788117e7eff1d82e926ec794901d17c78024a50270940304540a733656f0d60405160405180910390a45b5050565b6000806000838152602001908152602001600020600101549050919050565b600080600084815260200190815260200160002060000160008373ffffffffffffffffffffffffffffffffffffffff1673ffffffffffffffffffffffffffffffffffffffff16815260200190815260200160002060009054906101000a900460ff16905092915050565b600033905090565b8280546200037b9062000581565b90600052602060002090601f0160209004810192826200039f5760008555620003eb565b82601f10620003ba57805160ff1916838001178555620003eb565b82800160010185558215620003eb579182015b82811115620003ea578251825591602001919060010190620003cd565b5b509050620003fa9190620003fe565b5090565b5b8082111562000419576000816000905550600101620003ff565b5090565b6000620004346200042e8462000515565b620004ec565b90508281526020810184848401111562000453576200045262000650565b5b620004608482856200054b565b509392505050565b600082601f83011262000480576200047f6200064b565b5b8151620004928482602086016200041d565b91505092915050565b600060208284031215620004b457620004b36200065a565b5b600082015167ffffffffffffffff811115620004d557620004d462000655565b5b620004e38482850162000468565b91505092915050565b6000620004f86200050b565b9050620005068282620005b7565b919050565b6000604051905090565b600067ffffffffffffffff8211156200053357620005326200061c565b5b6200053e826200065f565b9050602081019050919050565b60005b838110156200056b5780820151818401526020810190506200054e565b838111156200057b576000848401525b50505050565b600060028204905060018216806200059a57607f821691505b60208210811415620005b157620005b0620005ed565b5b50919050565b620005c2826200065f565b810181811067ffffffffffffffff82111715620005e457620005e36200061c565b5b80604052505050565b7f4e487b7100000000000000000000000000000000000000000000000000000000600052602260045260246000fd5b7f4e487b7100000000000000000000000000000000000000000000000000000000600052604160045260246000fd5b600080fd5b600080fd5b600080fd5b600080fd5b6000601f19601f8301169050919050565b615add80620006806000396000f3fe608060405234801561001057600080fd5b50600436106101725760003560e01c80636efb649f116100de578063b9c4d9fb11610097578063d547741f11610071578063d547741f14610491578063e985e9c5146104ad578063f242432a146104dd578063f5298aca146104f957610172565b8063b9c4d9fb14610413578063be95c02714610443578063d53913931461047357610172565b80636efb649f1461033f57806375b238fc1461035b57806391d14854146103795780639507d39a146103a9578063a217fddf146103d9578063a22cb465146103f757610172565b80632eb2c2d6116101305780632eb2c2d6146102835780632f2ff15d1461029f57806336568abe146102bb5780634b6a5432146102d75780634e1273f4146102f35780636b20c4541461032357610172565b8062fdd58e1461017757806301ffc9a7146101a75780630e89341c146101d75780630ebd4c7f146102075780631130630c14610237578063248a9ca314610253575b600080fd5b610191600480360381019061018c91906139e8565b610515565b60405161019e9190614aea565b60405180910390f35b6101c160048036038101906101bc9190613cca565b6105df565b6040516101ce91906146eb565b60405180910390f35b6101f160048036038101906101ec9190613d71565b6105f1565b6040516101fe9190614766565b60405180910390f35b610221600480360381019061021c9190613d71565b610685565b60405161022e9190614692565b60405180910390f35b610251600480360381019061024c9190613d24565b61080a565b005b61026d60048036038101906102689190613c5d565b61088e565b60405161027a9190614706565b60405180910390f35b61029d600480360381019061029891906137b7565b6108ad565b005b6102b960048036038101906102b49190613c8a565b61094e565b005b6102d560048036038101906102d09190613c8a565b610977565b005b6102f160048036038101906102ec9190613b7e565b6109fa565b005b61030d60048036038101906103089190613be5565b610b72565b60405161031a9190614692565b60405180910390f35b61033d6004803603810190610338919061391d565b610c8b565b005b61035960048036038101906103549190613a28565b610d3c565b005b61036361114e565b6040516103709190614706565b60405180910390f35b610393600480360381019061038e9190613c8a565b611172565b6040516103a091906146eb565b60405180910390f35b6103c360048036038101906103be9190613d71565b6111dc565b6040516103d09190614a88565b60405180910390f35b6103e1611273565b6040516103ee9190614706565b60405180910390f35b610411600480360381019061040c91906139a8565b61127a565b005b61042d60048036038101906104289190613d71565b6113fb565b60405161043a9190614670565b60405180910390f35b61045d60048036038101906104589190613b7e565b6115ae565b60405161046a9190614706565b60405180910390f35b61047b6115e9565b6040516104889190614706565b60405180910390f35b6104ab60048036038101906104a69190613c8a565b61160d565b005b6104c760048036038101906104c29190613777565b611636565b6040516104d491906146eb565b60405180910390f35b6104f760048036038101906104f29190613886565b6116ca565b005b610513600480360381019061050e9190613b2b565b61176b565b005b60008073ffffffffffffffffffffffffffffffffffffffff168373ffffffffffffffffffffffffffffffffffffffff161415610586576040517f08c379a000000000000000000000000000000000000000000000000000000000815260040161057d90614828565b60405180910390fd5b6001600083815260200190815260200160002060008473ffffffffffffffffffffffffffffffffffffffff1673ffffffffffffffffffffffffffffffffffffffff16815260200190815260200160002054905092915050565b60006105ea8261181c565b9050919050565b60606003805461060090614f40565b80601f016020809104026020016040519081016040528092919081815260200182805461062c90614f40565b80156106795780601f1061064e57610100808354040283529160200191610679565b820191906000526020600020905b81548152906001019060200180831161065c57829003601f168201915b50505050509050919050565b6060600060066000848152602001908152602001600020805480602002602001604051908101604052809291908181526020016000905b8282101561074e57838290600052602060002090600202016040518060400160405290816000820160009054906101000a900473ffffffffffffffffffffffffffffffffffffffff1673ffffffffffffffffffffffffffffffffffffffff1673ffffffffffffffffffffffffffffffffffffffff168152602001600182015481525050815260200190600101906106bc565b5050505090506000815167ffffffffffffffff81111561077157610770615114565b5b60405190808252806020026020018201604052801561079f5781602001602082028036833780820191505090505b50905060005b82518110156107ff578281815181106107c1576107c06150e5565b5b6020026020010151602001518282815181106107e0576107df6150e5565b5b60200260200101818152505080806107f790614fd7565b9150506107a5565b508092505050919050565b7fa49807205ce4d355092ef5a8a18f56e8913cf4a201fbe287825b095693c2177561083c8161083761187d565b611885565b61088983838080601f016020809104026020016040519081016040528093929190818152602001838380828437600081840152601f19601f82011690508083019250505050505050611922565b505050565b6000806000838152602001908152602001600020600101549050919050565b6108b561187d565b73ffffffffffffffffffffffffffffffffffffffff168573ffffffffffffffffffffffffffffffffffffffff1614806108fb57506108fa856108f561187d565b611636565b5b61093a576040517f08c379a0000000000000000000000000000000000000000000000000000000008152600401610931906148c8565b60405180910390fd5b610947858585858561193c565b5050505050565b6109578261088e565b6109688161096361187d565b611885565b6109728383611c53565b505050565b61097f61187d565b73ffffffffffffffffffffffffffffffffffffffff168173ffffffffffffffffffffffffffffffffffffffff16146109ec576040517f08c379a00000000000000000000000000000000000000000000000000000000081526004016109e390614a68565b60405180910390fd5b6109f68282611d33565b5050565b610a247fa49807205ce4d355092ef5a8a18f56e8913cf4a201fbe287825b095693c2177533611172565b80610a555750610a547f9f2df0fed2c77648de5860a4cc508cd0818c85b8b8a1ab4ceeef8d981c8956a633611172565b5b610a94576040517f08c379a0000000000000000000000000000000000000000000000000000000008152600401610a8b90614948565b60405180910390fd5b6000610aa2858585856115ae565b90506007600082815260200190815260200160002060009054906101000a900460ff1615610b05576040517f08c379a0000000000000000000000000000000000000000000000000000000008152600401610afc90614968565b60405180910390fd5b60016007600083815260200190815260200160002060006101000a81548160ff021916908315150217905550837f211d2d1fdf9c39f1a3bf82373c7a932720b8e2e1b8e15fdf393ef20a440e8b5e3387604051610b63929190614585565b60405180910390a25050505050565b60608151835114610bb8576040517f08c379a0000000000000000000000000000000000000000000000000000000008152600401610baf90614a08565b60405180910390fd5b6000835167ffffffffffffffff811115610bd557610bd4615114565b5b604051908082528060200260200182016040528015610c035781602001602082028036833780820191505090505b50905060005b8451811015610c8057610c50858281518110610c2857610c276150e5565b5b6020026020010151858381518110610c4357610c426150e5565b5b6020026020010151610515565b828281518110610c6357610c626150e5565b5b60200260200101818152505080610c7990614fd7565b9050610c09565b508091505092915050565b828073ffffffffffffffffffffffffffffffffffffffff163373ffffffffffffffffffffffffffffffffffffffff161480610cec5750610ceb7fa49807205ce4d355092ef5a8a18f56e8913cf4a201fbe287825b095693c2177533611172565b5b610d2b576040517f08c379a0000000000000000000000000000000000000000000000000000000008152600401610d2290614948565b60405180910390fd5b610d36848484611e14565b50505050565b610d667f9f2df0fed2c77648de5860a4cc508cd0818c85b8b8a1ab4ceeef8d981c8956a633611172565b610f5157428411610dac576040517f08c379a0000000000000000000000000000000000000000000000000000000008152600401610da390614988565b60405180910390fd5b6000610dba8b8b87876115ae565b90506007600082815260200190815260200160002060009054906101000a900460ff1615610e1d576040517f08c379a0000000000000000000000000000000000000000000000000000000008152600401610e14906149a8565b60405180910390fd5b6000610e7e84848080601f016020809104026020016040519081016040528093929190818152602001838380828437600081840152601f19601f82011690508083019250505050505050610e70846120c7565b6120f790919063ffffffff16565b9050600073ffffffffffffffffffffffffffffffffffffffff168173ffffffffffffffffffffffffffffffffffffffff1614158015610ee35750610ee27f9f2df0fed2c77648de5860a4cc508cd0818c85b8b8a1ab4ceeef8d981c8956a682611172565b5b610f22576040517f08c379a0000000000000000000000000000000000000000000000000000000008152600401610f19906149c8565b60405180910390fd5b60016007600084815260200190815260200160002060006101000a81548160ff02191690831515021790555050505b60046000815480929190610f6490614fd7565b9190505550610f868a6004548b6040518060200160405280600081525061211e565b600060405180606001604052804281526020018c73ffffffffffffffffffffffffffffffffffffffff1681526020018b8152509050806005600060045481526020019081526020016000206000820151816000015560208201518160010160006101000a81548173ffffffffffffffffffffffffffffffffffffffff021916908373ffffffffffffffffffffffffffffffffffffffff160217905550604082015181600201559050506000805b8a8a90508110156110eb578a8a82818110611051576110506150e5565b5b90506040020160200135826110669190614ccf565b9150620186a082116110d8576006600060045481526020019081526020016000208b8b8381811061109a576110996150e5565b5b905060400201908060018154018082558091505060019003906000526020600020906002020160009091909190915081816110d591906159ec565b50505b80806110e390614fd7565b915050611033565b506004547fcb6f24cc444f29f31a0a1ef14bd68429bcf9debc0bc46cbf192ad66edcfd99c2836006600060045481526020019081526020016000208b8b6040516111389493929190614aa3565b60405180910390a2505050505050505050505050565b7fa49807205ce4d355092ef5a8a18f56e8913cf4a201fbe287825b095693c2177581565b600080600084815260200190815260200160002060000160008373ffffffffffffffffffffffffffffffffffffffff1673ffffffffffffffffffffffffffffffffffffffff16815260200190815260200160002060009054906101000a900460ff16905092915050565b6111e4613371565b60056000838152602001908152602001600020604051806060016040529081600082015481526020016001820160009054906101000a900473ffffffffffffffffffffffffffffffffffffffff1673ffffffffffffffffffffffffffffffffffffffff1673ffffffffffffffffffffffffffffffffffffffff1681526020016002820154815250509050919050565b6000801b81565b8173ffffffffffffffffffffffffffffffffffffffff1661129961187d565b73ffffffffffffffffffffffffffffffffffffffff1614156112f0576040517f08c379a00000000000000000000000000000000000000000000000000000000081526004016112e7906149e8565b60405180910390fd5b80600260006112fd61187d565b73ffffffffffffffffffffffffffffffffffffffff1673ffffffffffffffffffffffffffffffffffffffff16815260200190815260200160002060008473ffffffffffffffffffffffffffffffffffffffff1673ffffffffffffffffffffffffffffffffffffffff16815260200190815260200160002060006101000a81548160ff0219169083151502179055508173ffffffffffffffffffffffffffffffffffffffff166113aa61187d565b73ffffffffffffffffffffffffffffffffffffffff167f17307eab39ab6107e8899845ad3d59bd9653f200f220920489ca2b5937696c31836040516113ef91906146eb565b60405180910390a35050565b6060600060066000848152602001908152602001600020805480602002602001604051908101604052809291908181526020016000905b828210156114c457838290600052602060002090600202016040518060400160405290816000820160009054906101000a900473ffffffffffffffffffffffffffffffffffffffff1673ffffffffffffffffffffffffffffffffffffffff1673ffffffffffffffffffffffffffffffffffffffff16815260200160018201548152505081526020019060010190611432565b5050505090506000815167ffffffffffffffff8111156114e7576114e6615114565b5b6040519080825280602002602001820160405280156115155781602001602082028036833780820191505090505b50905060005b82518110156115a357828181518110611537576115366150e5565b5b602002602001015160000151828281518110611556576115556150e5565b5b602002602001019073ffffffffffffffffffffffffffffffffffffffff16908173ffffffffffffffffffffffffffffffffffffffff1681525050808061159b90614fd7565b91505061151b565b508092505050919050565b600030858585856040516020016115c99594939291906144c6565b604051602081830303815290604052805190602001209050949350505050565b7f9f2df0fed2c77648de5860a4cc508cd0818c85b8b8a1ab4ceeef8d981c8956a681565b6116168261088e565b6116278161162261187d565b611885565b6116318383611d33565b505050565b6000600260008473ffffffffffffffffffffffffffffffffffffffff1673ffffffffffffffffffffffffffffffffffffffff16815260200190815260200160002060008373ffffffffffffffffffffffffffffffffffffffff1673ffffffffffffffffffffffffffffffffffffffff16815260200190815260200160002060009054906101000a900460ff16905092915050565b6116d261187d565b73ffffffffffffffffffffffffffffffffffffffff168573ffffffffffffffffffffffffffffffffffffffff16148061171857506117178561171261187d565b611636565b5b611757576040517f08c379a000000000000000000000000000000000000000000000000000000000815260040161174e90614868565b60405180910390fd5b61176485858585856122b5565b5050505050565b828073ffffffffffffffffffffffffffffffffffffffff163373ffffffffffffffffffffffffffffffffffffffff1614806117cc57506117cb7fa49807205ce4d355092ef5a8a18f56e8913cf4a201fbe287825b095693c2177533611172565b5b61180b576040517f08c379a000000000000000000000000000000000000000000000000000000000815260040161180290614948565b60405180910390fd5b61181684848461253a565b50505050565b600063b779958460e01b7bffffffffffffffffffffffffffffffffffffffffffffffffffffffff1916827bffffffffffffffffffffffffffffffffffffffffffffffffffffffff19161480611876575061187582612759565b5b9050919050565b600033905090565b61188f8282611172565b61191e576118b48173ffffffffffffffffffffffffffffffffffffffff16601461283b565b6118c28360001c602061283b565b6040516020016118d392919061454b565b6040516020818303038152906040526040517f08c379a00000000000000000000000000000000000000000000000000000000081526004016119159190614766565b60405180910390fd5b5050565b80600390805190602001906119389291906133a8565b5050565b8151835114611980576040517f08c379a000000000000000000000000000000000000000000000000000000000815260040161197790614a28565b60405180910390fd5b600073ffffffffffffffffffffffffffffffffffffffff168473ffffffffffffffffffffffffffffffffffffffff1614156119f0576040517f08c379a00000000000000000000000000000000000000000000000000000000081526004016119e7906148a8565b60405180910390fd5b60006119fa61187d565b9050611a0a818787878787612a77565b60005b8451811015611bbe576000858281518110611a2b57611a2a6150e5565b5b602002602001015190506000858381518110611a4a57611a496150e5565b5b6020026020010151905060006001600084815260200190815260200160002060008b73ffffffffffffffffffffffffffffffffffffffff1673ffffffffffffffffffffffffffffffffffffffff16815260200190815260200160002054905081811015611aec576040517f08c379a0000000000000000000000000000000000000000000000000000000008152600401611ae390614928565b60405180910390fd5b8181036001600085815260200190815260200160002060008c73ffffffffffffffffffffffffffffffffffffffff1673ffffffffffffffffffffffffffffffffffffffff16815260200190815260200160002081905550816001600085815260200190815260200160002060008b73ffffffffffffffffffffffffffffffffffffffff1673ffffffffffffffffffffffffffffffffffffffff1681526020019081526020016000206000828254611ba39190614ccf565b9250508190555050505080611bb790614fd7565b9050611a0d565b508473ffffffffffffffffffffffffffffffffffffffff168673ffffffffffffffffffffffffffffffffffffffff168273ffffffffffffffffffffffffffffffffffffffff167f4a39dc06d4c0dbc64b70af90fd698a233a518aa5d07e595d983b8c0526c8f7fb8787604051611c359291906146b4565b60405180910390a4611c4b818787878787612a7f565b505050505050565b611c5d8282611172565b611d2f57600160008084815260200190815260200160002060000160008373ffffffffffffffffffffffffffffffffffffffff1673ffffffffffffffffffffffffffffffffffffffff16815260200190815260200160002060006101000a81548160ff021916908315150217905550611cd461187d565b73ffffffffffffffffffffffffffffffffffffffff168173ffffffffffffffffffffffffffffffffffffffff16837f2f8788117e7eff1d82e926ec794901d17c78024a50270940304540a733656f0d60405160405180910390a45b5050565b611d3d8282611172565b15611e1057600080600084815260200190815260200160002060000160008373ffffffffffffffffffffffffffffffffffffffff1673ffffffffffffffffffffffffffffffffffffffff16815260200190815260200160002060006101000a81548160ff021916908315150217905550611db561187d565b73ffffffffffffffffffffffffffffffffffffffff168173ffffffffffffffffffffffffffffffffffffffff16837ff6391f5c32d9c69d2a47ea670b442974b53935d1edc7fd64eb21e047a839171b60405160405180910390a45b5050565b600073ffffffffffffffffffffffffffffffffffffffff168373ffffffffffffffffffffffffffffffffffffffff161415611e84576040517f08c379a0000000000000000000000000000000000000000000000000000000008152600401611e7b90614908565b60405180910390fd5b8051825114611ec8576040517f08c379a0000000000000000000000000000000000000000000000000000000008152600401611ebf90614a28565b60405180910390fd5b6000611ed261187d565b9050611ef281856000868660405180602001604052806000815250612a77565b60005b8351811015612041576000848281518110611f1357611f126150e5565b5b602002602001015190506000848381518110611f3257611f316150e5565b5b6020026020010151905060006001600084815260200190815260200160002060008973ffffffffffffffffffffffffffffffffffffffff1673ffffffffffffffffffffffffffffffffffffffff16815260200190815260200160002054905081811015611fd4576040517f08c379a0000000000000000000000000000000000000000000000000000000008152600401611fcb90614848565b60405180910390fd5b8181036001600085815260200190815260200160002060008a73ffffffffffffffffffffffffffffffffffffffff1673ffffffffffffffffffffffffffffffffffffffff16815260200190815260200160002081905550505050808061203990614fd7565b915050611ef5565b50600073ffffffffffffffffffffffffffffffffffffffff168473ffffffffffffffffffffffffffffffffffffffff168273ffffffffffffffffffffffffffffffffffffffff167f4a39dc06d4c0dbc64b70af90fd698a233a518aa5d07e595d983b8c0526c8f7fb86866040516120b99291906146b4565b60405180910390a450505050565b6000816040516020016120da9190614525565b604051602081830303815290604052805190602001209050919050565b60008060006121068585612c66565b9150915061211381612ce9565b819250505092915050565b600073ffffffffffffffffffffffffffffffffffffffff168473ffffffffffffffffffffffffffffffffffffffff16141561218e576040517f08c379a000000000000000000000000000000000000000000000000000000000815260040161218590614a48565b60405180910390fd5b600061219861187d565b90506121b9816000876121aa88612ebe565b6121b388612ebe565b87612a77565b826001600086815260200190815260200160002060008773ffffffffffffffffffffffffffffffffffffffff1673ffffffffffffffffffffffffffffffffffffffff16815260200190815260200160002060008282546122199190614ccf565b925050819055508473ffffffffffffffffffffffffffffffffffffffff16600073ffffffffffffffffffffffffffffffffffffffff168273ffffffffffffffffffffffffffffffffffffffff167fc3d58168c5ae7397731d063d5bbf3d657854427343f4c083240f7aacaa2d0f628787604051612297929190614b05565b60405180910390a46122ae81600087878787612f38565b5050505050565b600073ffffffffffffffffffffffffffffffffffffffff168473ffffffffffffffffffffffffffffffffffffffff161415612325576040517f08c379a000000000000000000000000000000000000000000000000000000000815260040161231c906148a8565b60405180910390fd5b600061232f61187d565b905061234f81878761234088612ebe565b61234988612ebe565b87612a77565b60006001600086815260200190815260200160002060008873ffffffffffffffffffffffffffffffffffffffff1673ffffffffffffffffffffffffffffffffffffffff168152602001908152602001600020549050838110156123e7576040517f08c379a00000000000000000000000000000000000000000000000000000000081526004016123de90614928565b60405180910390fd5b8381036001600087815260200190815260200160002060008973ffffffffffffffffffffffffffffffffffffffff1673ffffffffffffffffffffffffffffffffffffffff16815260200190815260200160002081905550836001600087815260200190815260200160002060008873ffffffffffffffffffffffffffffffffffffffff1673ffffffffffffffffffffffffffffffffffffffff168152602001908152602001600020600082825461249e9190614ccf565b925050819055508573ffffffffffffffffffffffffffffffffffffffff168773ffffffffffffffffffffffffffffffffffffffff168373ffffffffffffffffffffffffffffffffffffffff167fc3d58168c5ae7397731d063d5bbf3d657854427343f4c083240f7aacaa2d0f62888860405161251b929190614b05565b60405180910390a4612531828888888888612f38565b50505050505050565b600073ffffffffffffffffffffffffffffffffffffffff168373ffffffffffffffffffffffffffffffffffffffff1614156125aa576040517f08c379a00000000000000000000000000000000000000000000000000000000081526004016125a190614908565b60405180910390fd5b60006125b461187d565b90506125e4818560006125c687612ebe565b6125cf87612ebe565b60405180602001604052806000815250612a77565b60006001600085815260200190815260200160002060008673ffffffffffffffffffffffffffffffffffffffff1673ffffffffffffffffffffffffffffffffffffffff1681526020019081526020016000205490508281101561267c576040517f08c379a000000000000000000000000000000000000000000000000000000000815260040161267390614848565b60405180910390fd5b8281036001600086815260200190815260200160002060008773ffffffffffffffffffffffffffffffffffffffff1673ffffffffffffffffffffffffffffffffffffffff16815260200190815260200160002081905550600073ffffffffffffffffffffffffffffffffffffffff168573ffffffffffffffffffffffffffffffffffffffff168373ffffffffffffffffffffffffffffffffffffffff167fc3d58168c5ae7397731d063d5bbf3d657854427343f4c083240f7aacaa2d0f62878760405161274a929190614b05565b60405180910390a45050505050565b60007fd9b67a26000000000000000000000000000000000000000000000000000000007bffffffffffffffffffffffffffffffffffffffffffffffffffffffff1916827bffffffffffffffffffffffffffffffffffffffffffffffffffffffff1916148061282457507f0e89341c000000000000000000000000000000000000000000000000000000007bffffffffffffffffffffffffffffffffffffffffffffffffffffffff1916827bffffffffffffffffffffffffffffffffffffffffffffffffffffffff1916145b8061283457506128338261311f565b5b9050919050565b60606000600283600261284e9190614d25565b6128589190614ccf565b67ffffffffffffffff81111561287157612870615114565b5b6040519080825280601f01601f1916602001820160405280156128a35781602001600182028036833780820191505090505b5090507f3000000000000000000000000000000000000000000000000000000000000000816000815181106128db576128da6150e5565b5b60200101907effffffffffffffffffffffffffffffffffffffffffffffffffffffffffffff1916908160001a9053507f78000000000000000000000000000000000000000000000000000000000000008160018151811061293f5761293e6150e5565b5b60200101907effffffffffffffffffffffffffffffffffffffffffffffffffffffffffffff1916908160001a9053506000600184600261297f9190614d25565b6129899190614ccf565b90505b6001811115612a29577f3031323334353637383961626364656600000000000000000000000000000000600f8616601081106129cb576129ca6150e5565b5b1a60f81b8282815181106129e2576129e16150e5565b5b60200101907effffffffffffffffffffffffffffffffffffffffffffffffffffffffffffff1916908160001a905350600485901c945080612a2290614f16565b905061298c565b5060008414612a6d576040517f08c379a0000000000000000000000000000000000000000000000000000000008152600401612a64906147c8565b60405180910390fd5b8091505092915050565b505050505050565b612a9e8473ffffffffffffffffffffffffffffffffffffffff16613199565b15612c5e578373ffffffffffffffffffffffffffffffffffffffff1663bc197c8187878686866040518663ffffffff1660e01b8152600401612ae49594939291906145ae565b602060405180830381600087803b158015612afe57600080fd5b505af1925050508015612b2f57506040513d601f19601f82011682018060405250810190612b2c9190613cf7565b60015b612bd557612b3b615183565b806308c379a01415612b985750612b506158bb565b80612b5b5750612b9a565b806040517f08c379a0000000000000000000000000000000000000000000000000000000008152600401612b8f9190614766565b60405180910390fd5b505b6040517f08c379a0000000000000000000000000000000000000000000000000000000008152600401612bcc906147a8565b60405180910390fd5b63bc197c8160e01b7bffffffffffffffffffffffffffffffffffffffffffffffffffffffff1916817bffffffffffffffffffffffffffffffffffffffffffffffffffffffff191614612c5c576040517f08c379a0000000000000000000000000000000000000000000000000000000008152600401612c53906147e8565b60405180910390fd5b505b505050505050565b600080604183511415612ca85760008060006020860151925060408601519150606086015160001a9050612c9c878285856131ac565b94509450505050612ce2565b604083511415612cd9576000806020850151915060408501519050612cce8683836132b9565b935093505050612ce2565b60006002915091505b9250929050565b60006004811115612cfd57612cfc615087565b5b816004811115612d1057612d0f615087565b5b1415612d1b57612ebb565b60016004811115612d2f57612d2e615087565b5b816004811115612d4257612d41615087565b5b1415612d83576040517f08c379a0000000000000000000000000000000000000000000000000000000008152600401612d7a90614788565b60405180910390fd5b60026004811115612d9757612d96615087565b5b816004811115612daa57612da9615087565b5b1415612deb576040517f08c379a0000000000000000000000000000000000000000000000000000000008152600401612de290614808565b60405180910390fd5b60036004811115612dff57612dfe615087565b5b816004811115612e1257612e11615087565b5b1415612e53576040517f08c379a0000000000000000000000000000000000000000000000000000000008152600401612e4a90614888565b60405180910390fd5b600480811115612e6657612e65615087565b5b816004811115612e7957612e78615087565b5b1415612eba576040517f08c379a0000000000000000000000000000000000000000000000000000000008152600401612eb1906148e8565b60405180910390fd5b5b50565b60606000600167ffffffffffffffff811115612edd57612edc615114565b5b604051908082528060200260200182016040528015612f0b5781602001602082028036833780820191505090505b5090508281600081518110612f2357612f226150e5565b5b60200260200101818152505080915050919050565b612f578473ffffffffffffffffffffffffffffffffffffffff16613199565b15613117578373ffffffffffffffffffffffffffffffffffffffff1663f23a6e6187878686866040518663ffffffff1660e01b8152600401612f9d959493929190614616565b602060405180830381600087803b158015612fb757600080fd5b505af1925050508015612fe857506040513d601f19601f82011682018060405250810190612fe59190613cf7565b60015b61308e57612ff4615183565b806308c379a0141561305157506130096158bb565b806130145750613053565b806040517f08c379a00000000000000000000000000000000000000000000000000000000081526004016130489190614766565b60405180910390fd5b505b6040517f08c379a0000000000000000000000000000000000000000000000000000000008152600401613085906147a8565b60405180910390fd5b63f23a6e6160e01b7bffffffffffffffffffffffffffffffffffffffffffffffffffffffff1916817bffffffffffffffffffffffffffffffffffffffffffffffffffffffff191614613115576040517f08c379a000000000000000000000000000000000000000000000000000000000815260040161310c906147e8565b60405180910390fd5b505b505050505050565b60007f7965db0b000000000000000000000000000000000000000000000000000000007bffffffffffffffffffffffffffffffffffffffffffffffffffffffff1916827bffffffffffffffffffffffffffffffffffffffffffffffffffffffff19161480613192575061319182613307565b5b9050919050565b600080823b905060008111915050919050565b6000807f7fffffffffffffffffffffffffffffff5d576e7357a4501ddfe92f46681b20a08360001c11156131e75760006003915091506132b0565b601b8560ff16141580156131ff5750601c8560ff1614155b156132115760006004915091506132b0565b6000600187878787604051600081526020016040526040516132369493929190614721565b6020604051602081039080840390855afa158015613258573d6000803e3d6000fd5b505050602060405103519050600073ffffffffffffffffffffffffffffffffffffffff168173ffffffffffffffffffffffffffffffffffffffff1614156132a7576000600192509250506132b0565b80600092509250505b94509492505050565b6000806000807f7fffffffffffffffffffffffffffffffffffffffffffffffffffffffffffffff85169150601b8560ff1c0190506132f9878288856131ac565b935093505050935093915050565b60007f01ffc9a7000000000000000000000000000000000000000000000000000000007bffffffffffffffffffffffffffffffffffffffffffffffffffffffff1916827bffffffffffffffffffffffffffffffffffffffffffffffffffffffff1916149050919050565b604051806060016040528060008152602001600073ffffffffffffffffffffffffffffffffffffffff168152602001600081525090565b8280546133b490614f40565b90600052602060002090601f0160209004810192826133d6576000855561341d565b82601f106133ef57805160ff191683800117855561341d565b8280016001018555821561341d579182015b8281111561341c578251825591602001919060010190613401565b5b50905061342a919061342e565b5090565b5b8082111561344757600081600090555060010161342f565b5090565b600061345e61345984614b53565b614b2e565b90508083825260208201905082856020860282011115613481576134806151af565b5b60005b858110156134b15781613497888261356d565b845260208401935060208301925050600181019050613484565b5050509392505050565b60006134ce6134c984614b7f565b614b2e565b905080838252602082019050828560208602820111156134f1576134f06151af565b5b60005b8581101561352157816135078882613762565b8452602084019350602083019250506001810190506134f4565b5050509392505050565b600061353e61353984614bab565b614b2e565b90508281526020810184848401111561355a576135596151b4565b5b613565848285614e8e565b509392505050565b60008135905061357c81615a1d565b92915050565b600082601f830112613597576135966151aa565b5b81356135a784826020860161344b565b91505092915050565b60008083601f8401126135c6576135c56151aa565b5b8235905067ffffffffffffffff8111156135e3576135e26151a5565b5b6020830191508360408202830111156135ff576135fe6151af565b5b9250929050565b600082601f83011261361b5761361a6151aa565b5b813561362b8482602086016134bb565b91505092915050565b60008135905061364381615a4b565b92915050565b60008135905061365881615a62565b92915050565b60008135905061366d81615a79565b92915050565b60008151905061368281615a79565b92915050565b60008083601f84011261369e5761369d6151aa565b5b8235905067ffffffffffffffff8111156136bb576136ba6151a5565b5b6020830191508360018202830111156136d7576136d66151af565b5b9250929050565b600082601f8301126136f3576136f26151aa565b5b813561370384826020860161352b565b91505092915050565b60008083601f840112613722576137216151aa565b5b8235905067ffffffffffffffff81111561373f5761373e6151a5565b5b60208301915083600182028301111561375b5761375a6151af565b5b9250929050565b60008135905061377181615a90565b92915050565b6000806040838503121561378e5761378d6151be565b5b600061379c8582860161356d565b92505060206137ad8582860161356d565b9150509250929050565b600080600080600060a086880312156137d3576137d26151be565b5b60006137e18882890161356d565b95505060206137f28882890161356d565b945050604086013567ffffffffffffffff811115613813576138126151b9565b5b61381f88828901613606565b935050606086013567ffffffffffffffff8111156138405761383f6151b9565b5b61384c88828901613606565b925050608086013567ffffffffffffffff81111561386d5761386c6151b9565b5b613879888289016136de565b9150509295509295909350565b600080600080600060a086880312156138a2576138a16151be565b5b60006138b08882890161356d565b95505060206138c18882890161356d565b94505060406138d288828901613762565b93505060606138e388828901613762565b925050608086013567ffffffffffffffff811115613904576139036151b9565b5b613910888289016136de565b9150509295509295909350565b600080600060608486031215613936576139356151be565b5b60006139448682870161356d565b935050602084013567ffffffffffffffff811115613965576139646151b9565b5b61397186828701613606565b925050604084013567ffffffffffffffff811115613992576139916151b9565b5b61399e86828701613606565b9150509250925092565b600080604083850312156139bf576139be6151be565b5b60006139cd8582860161356d565b92505060206139de85828601613634565b9150509250929050565b600080604083850312156139ff576139fe6151be565b5b6000613a0d8582860161356d565b9250506020613a1e85828601613762565b9150509250929050565b60008060008060008060008060008060e08b8d031215613a4b57613a4a6151be565b5b6000613a598d828e0161356d565b9a50506020613a6a8d828e01613762565b99505060408b013567ffffffffffffffff811115613a8b57613a8a6151b9565b5b613a978d828e016135b0565b985098505060608b013567ffffffffffffffff811115613aba57613ab96151b9565b5b613ac68d828e0161370c565b96509650506080613ad98d828e01613762565b94505060a0613aea8d828e01613762565b93505060c08b013567ffffffffffffffff811115613b0b57613b0a6151b9565b5b613b178d828e01613688565b92509250509295989b9194979a5092959850565b600080600060608486031215613b4457613b436151be565b5b6000613b528682870161356d565b9350506020613b6386828701613762565b9250506040613b7486828701613762565b9150509250925092565b60008060008060808587031215613b9857613b976151be565b5b6000613ba68782880161356d565b9450506020613bb787828801613762565b9350506040613bc887828801613762565b9250506060613bd987828801613762565b91505092959194509250565b60008060408385031215613bfc57613bfb6151be565b5b600083013567ffffffffffffffff811115613c1a57613c196151b9565b5b613c2685828601613582565b925050602083013567ffffffffffffffff811115613c4757613c466151b9565b5b613c5385828601613606565b9150509250929050565b600060208284031215613c7357613c726151be565b5b6000613c8184828501613649565b91505092915050565b60008060408385031215613ca157613ca06151be565b5b6000613caf85828601613649565b9250506020613cc08582860161356d565b9150509250929050565b600060208284031215613ce057613cdf6151be565b5b6000613cee8482850161365e565b91505092915050565b600060208284031215613d0d57613d0c6151be565b5b6000613d1b84828501613673565b91505092915050565b60008060208385031215613d3b57613d3a6151be565b5b600083013567ffffffffffffffff811115613d5957613d586151b9565b5b613d658582860161370c565b92509250509250929050565b600060208284031215613d8757613d866151be565b5b6000613d9584828501613762565b91505092915050565b6000613daa8383613de6565b60208301905092915050565b6000613dc283836143f9565b60408301905092915050565b6000613dda8383614482565b60208301905092915050565b613def81614dbb565b82525050565b613dfe81614da9565b82525050565b613e0d81614da9565b82525050565b613e24613e1f82614da9565b615020565b82525050565b6000613e3582614c11565b613e3f8185614c6f565b9350613e4a83614bdc565b8060005b83811015613e7b578151613e628882613d9e565b9750613e6d83614c48565b925050600181019050613e4e565b5085935050505092915050565b6000613e9382614c1c565b613e9d8185614c80565b9350613ea883614bec565b8060005b83811015613ed85781613ebf8882613db6565b9750613eca83614c55565b925050600181019050613eac565b5085935050505092915050565b6000613ef082614c27565b613efa8185614c91565b9350613f0583614c01565b8060005b83811015613f36578151613f1d8882613dce565b9750613f2883614c62565b925050600181019050613f09565b5085935050505092915050565b613f4c81614dcd565b82525050565b613f5b81614dd9565b82525050565b613f72613f6d82614dd9565b615032565b82525050565b6000613f8382614c32565b613f8d8185614ca2565b9350613f9d818560208601614e9d565b613fa6816151c3565b840191505092915050565b6000613fbd8385614cb3565b9350613fca838584614e8e565b613fd3836151c3565b840190509392505050565b6000613fe982614c3d565b613ff38185614cb3565b9350614003818560208601614e9d565b61400c816151c3565b840191505092915050565b600061402282614c3d565b61402c8185614cc4565b935061403c818560208601614e9d565b80840191505092915050565b6000614055601883614cb3565b915061406082615208565b602082019050919050565b6000614078603483614cb3565b915061408382615231565b604082019050919050565b600061409b602083614cb3565b91506140a682615280565b602082019050919050565b60006140be602883614cb3565b91506140c9826152a9565b604082019050919050565b60006140e1601f83614cb3565b91506140ec826152f8565b602082019050919050565b6000614104601c83614cc4565b915061410f82615321565b601c82019050919050565b6000614127602b83614cb3565b91506141328261534a565b604082019050919050565b600061414a602483614cb3565b915061415582615399565b604082019050919050565b600061416d602983614cb3565b9150614178826153e8565b604082019050919050565b6000614190602283614cb3565b915061419b82615437565b604082019050919050565b60006141b3602583614cb3565b91506141be82615486565b604082019050919050565b60006141d6603283614cb3565b91506141e1826154d5565b604082019050919050565b60006141f9602283614cb3565b915061420482615524565b604082019050919050565b600061421c602383614cb3565b915061422782615573565b604082019050919050565b600061423f602a83614cb3565b915061424a826155c2565b604082019050919050565b6000614262601283614cb3565b915061426d82615611565b602082019050919050565b6000614285601b83614cb3565b91506142908261563a565b602082019050919050565b60006142a8601183614cb3565b91506142b382615663565b602082019050919050565b60006142cb601383614cb3565b91506142d68261568c565b602082019050919050565b60006142ee601783614cc4565b91506142f9826156b5565b601782019050919050565b6000614311601283614cb3565b915061431c826156de565b602082019050919050565b6000614334602983614cb3565b915061433f82615707565b604082019050919050565b6000614357602983614cb3565b915061436282615756565b604082019050919050565b600061437a602883614cb3565b9150614385826157a5565b604082019050919050565b600061439d602183614cb3565b91506143a8826157f4565b604082019050919050565b60006143c0601183614cc4565b91506143cb82615843565b601182019050919050565b60006143e3602f83614cb3565b91506143ee8261586c565b604082019050919050565b60408201600080830154905061440e81614f72565b61441b6000860182613de6565b506001830154905061442c81614f8c565b6144396020860182614482565b5050505050565b6060820160008201516144566000850182614482565b5060208201516144696020850182613df5565b50604082015161447c6040850182614482565b50505050565b61448b81614e2f565b82525050565b61449a81614e2f565b82525050565b6144b16144ac82614e2f565b61504e565b82525050565b6144c081614e39565b82525050565b60006144d28288613e13565b6014820191506144e28287613e13565b6014820191506144f282866144a0565b60208201915061450282856144a0565b60208201915061451282846144a0565b6020820191508190509695505050505050565b6000614530826140f7565b915061453c8284613f61565b60208201915081905092915050565b6000614556826142e1565b91506145628285614017565b915061456d826143b3565b91506145798284614017565b91508190509392505050565b600060408201905061459a6000830185613e04565b6145a76020830184613e04565b9392505050565b600060a0820190506145c36000830188613e04565b6145d06020830187613e04565b81810360408301526145e28186613ee5565b905081810360608301526145f68185613ee5565b9050818103608083015261460a8184613f78565b90509695505050505050565b600060a08201905061462b6000830188613e04565b6146386020830187613e04565b6146456040830186614491565b6146526060830185614491565b81810360808301526146648184613f78565b90509695505050505050565b6000602082019050818103600083015261468a8184613e2a565b905092915050565b600060208201905081810360008301526146ac8184613ee5565b905092915050565b600060408201905081810360008301526146ce8185613ee5565b905081810360208301526146e28184613ee5565b90509392505050565b60006020820190506147006000830184613f43565b92915050565b600060208201905061471b6000830184613f52565b92915050565b60006080820190506147366000830187613f52565b61474360208301866144b7565b6147506040830185613f52565b61475d6060830184613f52565b95945050505050565b600060208201905081810360008301526147808184613fde565b905092915050565b600060208201905081810360008301526147a181614048565b9050919050565b600060208201905081810360008301526147c18161406b565b9050919050565b600060208201905081810360008301526147e18161408e565b9050919050565b60006020820190508181036000830152614801816140b1565b9050919050565b60006020820190508181036000830152614821816140d4565b9050919050565b600060208201905081810360008301526148418161411a565b9050919050565b600060208201905081810360008301526148618161413d565b9050919050565b6000602082019050818103600083015261488181614160565b9050919050565b600060208201905081810360008301526148a181614183565b9050919050565b600060208201905081810360008301526148c1816141a6565b9050919050565b600060208201905081810360008301526148e1816141c9565b9050919050565b60006020820190508181036000830152614901816141ec565b9050919050565b600060208201905081810360008301526149218161420f565b9050919050565b6000602082019050818103600083015261494181614232565b9050919050565b6000602082019050818103600083015261496181614255565b9050919050565b6000602082019050818103600083015261498181614278565b9050919050565b600060208201905081810360008301526149a18161429b565b9050919050565b600060208201905081810360008301526149c1816142be565b9050919050565b600060208201905081810360008301526149e181614304565b9050919050565b60006020820190508181036000830152614a0181614327565b9050919050565b60006020820190508181036000830152614a218161434a565b9050919050565b60006020820190508181036000830152614a418161436d565b9050919050565b60006020820190508181036000830152614a6181614390565b9050919050565b60006020820190508181036000830152614a81816143d6565b9050919050565b6000606082019050614a9d6000830184614440565b92915050565b600060a082019050614ab86000830187614440565b8181036060830152614aca8186613e88565b90508181036080830152614adf818486613fb1565b905095945050505050565b6000602082019050614aff6000830184614491565b92915050565b6000604082019050614b1a6000830185614491565b614b276020830184614491565b9392505050565b6000614b38614b49565b9050614b448282614fa6565b919050565b6000604051905090565b600067ffffffffffffffff821115614b6e57614b6d615114565b5b602082029050602081019050919050565b600067ffffffffffffffff821115614b9a57614b99615114565b5b602082029050602081019050919050565b600067ffffffffffffffff821115614bc657614bc5615114565b5b614bcf826151c3565b9050602081019050919050565b6000819050602082019050919050565b60008190508160005260206000209050919050565b6000819050602082019050919050565b600081519050919050565b600081549050919050565b600081519050919050565b600081519050919050565b600081519050919050565b6000602082019050919050565b6000600282019050919050565b6000602082019050919050565b600082825260208201905092915050565b600082825260208201905092915050565b600082825260208201905092915050565b600082825260208201905092915050565b600082825260208201905092915050565b600081905092915050565b6000614cda82614e2f565b9150614ce583614e2f565b9250827fffffffffffffffffffffffffffffffffffffffffffffffffffffffffffffffff03821115614d1a57614d19615058565b5b828201905092915050565b6000614d3082614e2f565b9150614d3b83614e2f565b9250817fffffffffffffffffffffffffffffffffffffffffffffffffffffffffffffffff0483118215151615614d7457614d73615058565b5b828202905092915050565b600073ffffffffffffffffffffffffffffffffffffffff82169050919050565b6000819050919050565b6000614db482614e0f565b9050919050565b6000614dc682614e0f565b9050919050565b60008115159050919050565b6000819050919050565b60007fffffffff0000000000000000000000000000000000000000000000000000000082169050919050565b600073ffffffffffffffffffffffffffffffffffffffff82169050919050565b6000819050919050565b600060ff82169050919050565b6000614e5182614e58565b9050919050565b6000614e6382614e6a565b9050919050565b6000614e7582614e0f565b9050919050565b6000614e8782614e2f565b9050919050565b82818337600083830152505050565b60005b83811015614ebb578082015181840152602081019050614ea0565b83811115614eca576000848401525b50505050565b600081016000830180614ee281615157565b9050614eee81846159c9565b505050600181016020830180614f038161516d565b9050614f0f81846159fa565b5050505050565b6000614f2182614e2f565b91506000821415614f3557614f34615058565b5b600182039050919050565b60006002820490506001821680614f5857607f821691505b60208210811415614f6c57614f6b6150b6565b5b50919050565b6000614f85614f80836151ee565b614d7f565b9050919050565b6000614f9f614f9a836151ee565b614d9f565b9050919050565b614faf826151c3565b810181811067ffffffffffffffff82111715614fce57614fcd615114565b5b80604052505050565b6000614fe282614e2f565b91507fffffffffffffffffffffffffffffffffffffffffffffffffffffffffffffffff82141561501557615014615058565b5b600182019050919050565b600061502b8261503c565b9050919050565b6000819050919050565b6000615047826151e1565b9050919050565b6000819050919050565b7f4e487b7100000000000000000000000000000000000000000000000000000000600052601160045260246000fd5b7f4e487b7100000000000000000000000000000000000000000000000000000000600052602160045260246000fd5b7f4e487b7100000000000000000000000000000000000000000000000000000000600052602260045260246000fd5b7f4e487b7100000000000000000000000000000000000000000000000000000000600052603260045260246000fd5b7f4e487b7100000000000000000000000000000000000000000000000000000000600052604160045260246000fd5b6000819050919050565b6000819050919050565b6000813561516481615a34565b80915050919050565b6000813561517a81615a90565b80915050919050565b600060033d11156151a25760046000803e61519f6000516151fb565b90505b90565b600080fd5b600080fd5b600080fd5b600080fd5b600080fd5b600080fd5b6000601f19601f8301169050919050565b60008160001b9050919050565b60008160601b9050919050565b60008160001c9050919050565b60008160e01c9050919050565b7f45434453413a20696e76616c6964207369676e61747572650000000000000000600082015250565b7f455243313135353a207472616e7366657220746f206e6f6e204552433131353560008201527f526563656976657220696d706c656d656e746572000000000000000000000000602082015250565b7f537472696e67733a20686578206c656e67746820696e73756666696369656e74600082015250565b7f455243313135353a204552433131353552656365697665722072656a6563746560008201527f6420746f6b656e73000000000000000000000000000000000000000000000000602082015250565b7f45434453413a20696e76616c6964207369676e6174757265206c656e67746800600082015250565b7f19457468657265756d205369676e6564204d6573736167653a0a333200000000600082015250565b7f455243313135353a2062616c616e636520717565727920666f7220746865207a60008201527f65726f2061646472657373000000000000000000000000000000000000000000602082015250565b7f455243313135353a206275726e20616d6f756e7420657863656564732062616c60008201527f616e636500000000000000000000000000000000000000000000000000000000602082015250565b7f455243313135353a2063616c6c6572206973206e6f74206f776e6572206e6f7260008201527f20617070726f7665640000000000000000000000000000000000000000000000602082015250565b7f45434453413a20696e76616c6964207369676e6174757265202773272076616c60008201527f7565000000000000000000000000000000000000000000000000000000000000602082015250565b7f455243313135353a207472616e7366657220746f20746865207a65726f20616460008201527f6472657373000000000000000000000000000000000000000000000000000000602082015250565b7f455243313135353a207472616e736665722063616c6c6572206973206e6f742060008201527f6f776e6572206e6f7220617070726f7665640000000000000000000000000000602082015250565b7f45434453413a20696e76616c6964207369676e6174757265202776272076616c60008201527f7565000000000000000000000000000000000000000000000000000000000000602082015250565b7f455243313135353a206275726e2066726f6d20746865207a65726f206164647260008201527f6573730000000000000000000000000000000000000000000000000000000000602082015250565b7f455243313135353a20696e73756666696369656e742062616c616e636520666f60008201527f72207472616e7366657200000000000000000000000000000000000000000000602082015250565b7f5065726d697373696f6e2064656e6965642e0000000000000000000000000000600082015250565b7f417070726f76616c20616c7265616479206578686175737465642e0000000000600082015250565b7f417070726f76616c20657870697265642e000000000000000000000000000000600082015250565b7f417070726f76616c206578686175737465642e00000000000000000000000000600082015250565b7f416363657373436f6e74726f6c3a206163636f756e7420000000000000000000600082015250565b7f496e76616c6964207369676e61747572652e0000000000000000000000000000600082015250565b7f455243313135353a2073657474696e6720617070726f76616c2073746174757360008201527f20666f722073656c660000000000000000000000000000000000000000000000602082015250565b7f455243313135353a206163636f756e747320616e6420696473206c656e67746860008201527f206d69736d617463680000000000000000000000000000000000000000000000602082015250565b7f455243313135353a2069647320616e6420616d6f756e7473206c656e6774682060008201527f6d69736d61746368000000000000000000000000000000000000000000000000602082015250565b7f455243313135353a206d696e7420746f20746865207a65726f2061646472657360008201527f7300000000000000000000000000000000000000000000000000000000000000602082015250565b7f206973206d697373696e6720726f6c6520000000000000000000000000000000600082015250565b7f416363657373436f6e74726f6c3a2063616e206f6e6c792072656e6f756e636560008201527f20726f6c657320666f722073656c660000000000000000000000000000000000602082015250565b600060443d10156158cb5761594e565b6158d3614b49565b60043d036004823e80513d602482011167ffffffffffffffff821117156158fb57505061594e565b808201805167ffffffffffffffff811115615919575050505061594e565b80602083010160043d03850181111561593657505050505061594e565b61594582602001850186614fa6565b82955050505050505b90565b600073ffffffffffffffffffffffffffffffffffffffff615971846151d4565b9350801983169250808416831791505092915050565b60007fffffffffffffffffffffffffffffffffffffffffffffffffffffffffffffffff6159b3846151d4565b9350801983169250808416831791505092915050565b6159d282614e46565b6159e56159de82615143565b8354615951565b8255505050565b6159f68282614ed0565b5050565b615a0382614e7c565b615a16615a0f8261514d565b8354615987565b8255505050565b615a2681614da9565b8114615a3157600080fd5b50565b615a3d81614dbb565b8114615a4857600080fd5b50565b615a5481614dcd565b8114615a5f57600080fd5b50565b615a6b81614dd9565b8114615a7657600080fd5b50565b615a8281614de3565b8114615a8d57600080fd5b50565b615a9981614e2f565b8114615aa457600080fd5b5056fea2646970667358221220d270da3f8c1fbaa0436b61468f8899306074cbd9e02dd4fd0b1be41371561b9a64736f6c63430008070033",
  "immutableReferences": {},
  "source": "// SPDX-License-Identifier: MIT\r\npragma solidity ^0.8.0;\r\n\r\nimport \"@openzeppelin/contracts/access/AccessControl.sol\";\r\nimport \"@openzeppelin/contracts/token/ERC1155/ERC1155.sol\";\r\nimport \"@openzeppelin/contracts/utils/cryptography/ECDSA.sol\";\r\nimport \"./HasSecondarySaleFees.sol\";\r\n\r\nstruct Fee {\r\n  address payable recipient;\r\n  uint pct;\r\n}\r\n\r\nstruct Token {\r\n  uint dateCreated;\r\n  address creator;\r\n  uint supply;\r\n}\r\n\r\ncontract TokenV1 is AccessControl, ERC1155, HasSecondarySaleFees {\r\n  using ECDSA for bytes32;\r\n\r\n  bytes internal constant EMPTY = \"\";\r\n\r\n  bytes32 public constant ADMIN_ROLE = keccak256(\"ADMIN_ROLE\");\r\n  bytes32 public constant MINTER_ROLE = keccak256(\"MINTER_ROLE\");\r\n\r\n  uint private _tokenId = 0;\r\n  mapping(uint => Token) _tokens;\r\n\r\n  mapping(uint => Fee[]) _fees;\r\n\r\n  mapping(bytes32 => bool) _approvalsExhausted;\r\n\r\n  constructor(string memory uri) ERC1155(uri) {\r\n    _setupRole(DEFAULT_ADMIN_ROLE, msg.sender);\r\n    \r\n    _setupRole(ADMIN_ROLE, msg.sender);\r\n    _setRoleAdmin(ADMIN_ROLE, DEFAULT_ADMIN_ROLE);\r\n\r\n    _setupRole(MINTER_ROLE, msg.sender);\r\n    _setRoleAdmin(MINTER_ROLE, ADMIN_ROLE);\r\n  }\r\n\r\n  modifier onlyAdminOrMinter() {\r\n    require(\r\n      hasRole(ADMIN_ROLE, msg.sender) || hasRole(MINTER_ROLE, msg.sender),\r\n      \"Permission denied.\"\r\n    );\r\n    _;\r\n  }\r\n  \r\n  modifier onlyAdminOrTokenOwner(address account) {\r\n    require(\r\n      msg.sender == account || hasRole(ADMIN_ROLE, msg.sender),\r\n      \"Permission denied.\"\r\n    );\r\n    _;\r\n  }\r\n\r\n  function supportsInterface(bytes4 interfaceId) public view override(\r\n    AccessControl,\r\n    ERC1155,\r\n    HasSecondarySaleFees\r\n  ) returns (bool) {\r\n    return super.supportsInterface(interfaceId);\r\n  }\r\n\r\n  function setMetadataUri(string calldata uri)\r\n    public\r\n    onlyRole(ADMIN_ROLE)\r\n  {\r\n    super._setURI(uri);\r\n  }\r\n\r\n  function getMintHash(address creator, uint supply, uint expiry, uint salt) public view returns (bytes32) {\r\n    return keccak256(abi.encodePacked(\r\n      address(this),\r\n      creator,\r\n      supply,\r\n      expiry,\r\n      salt\r\n    ));\r\n  }\r\n  \r\n  function get(uint id) public view returns (Token memory) {\r\n    return _tokens[id];\r\n  }\r\n\r\n  event Minted(uint256 indexed id, Token token, Fee[] fees, string data);\r\n  event RevokeMint(address operator, address creator, uint256 indexed supply);\r\n\r\n  function mint(\r\n    address creator,\r\n    uint supply,\r\n    Fee[] calldata fees,\r\n    string calldata data,\r\n    uint expiry,\r\n    uint salt,\r\n    bytes calldata signature\r\n  ) public {\r\n    if (!hasRole(MINTER_ROLE, msg.sender)) {\r\n      require(expiry > block.timestamp, \"Approval expired.\");\r\n\r\n      bytes32 mintHash = getMintHash(creator, supply, expiry, salt);\r\n      require(!_approvalsExhausted[mintHash], \"Approval exhausted.\");\r\n      \r\n      address recoveredAddress =\r\n        mintHash.toEthSignedMessageHash().recover(signature);\r\n\r\n      require(\r\n        recoveredAddress != address(0)\r\n          && hasRole(MINTER_ROLE, recoveredAddress),\r\n        \"Invalid signature.\"\r\n      );\r\n\r\n      _approvalsExhausted[mintHash] = true;\r\n    }\r\n\r\n    _tokenId++;\r\n\r\n    super._mint(creator, _tokenId, supply, EMPTY);\r\n\r\n    Token memory token = Token(\r\n      block.timestamp,\r\n      creator,\r\n      supply\r\n    );\r\n\r\n    _tokens[_tokenId] = token;\r\n\r\n    uint totalBps = 0;\r\n\r\n    for (uint i = 0; i < fees.length; i++) {\r\n      totalBps += fees[i].pct;\r\n\r\n      if (totalBps <= 10**5)\r\n        _fees[_tokenId].push(fees[i]);\r\n    }\r\n\r\n    emit Minted(_tokenId, token, _fees[_tokenId], data);\r\n  }\r\n\r\n  function revokeMintApproval(\r\n    address creator,\r\n    uint supply,\r\n    uint expiry,\r\n    uint salt\r\n  ) public onlyAdminOrMinter {    \r\n    bytes32 mintHash = getMintHash(creator, supply, expiry, salt);\r\n    require(!_approvalsExhausted[mintHash], \"Approval already exhausted.\");\r\n\r\n    _approvalsExhausted[mintHash] = true;\r\n\r\n    emit RevokeMint(msg.sender, creator, supply);\r\n  }\r\n\r\n  function getFeeRecipients(uint256 id) override public view returns (address payable[] memory) {\r\n    Fee[] memory fees = _fees[id];\r\n    address payable[] memory result = new address payable[](fees.length);\r\n\r\n    for (uint i = 0; i < fees.length; i++) {\r\n      result[i] = fees[i].recipient;\r\n    }\r\n\r\n    return result;\r\n  }\r\n\r\n  function getFeeBps(uint256 id) override public view returns (uint[] memory) {\r\n    Fee[] memory fees = _fees[id];\r\n    uint[] memory result = new uint[](fees.length);\r\n\r\n    for (uint i = 0; i < fees.length; i++) {\r\n      result[i] = fees[i].pct;\r\n    }\r\n\r\n    return result;\r\n  }\r\n\r\n  function burn(address account, uint256 id, uint256 amount)\r\n    public\r\n    onlyAdminOrTokenOwner(account)\r\n  {\r\n    super._burn(account, id, amount);\r\n  }\r\n\r\n  function burnBatch(address account, uint256[] memory ids, uint256[] memory amounts)\r\n    public\r\n    onlyAdminOrTokenOwner(account)\r\n  {\r\n    super._burnBatch(account, ids, amounts);\r\n  }\r\n}",
  "sourcePath": "C:\\Users\\Husnain\\Documents\\Projects\\Fanbase\\fanbase\\packages\\ethereum\\contracts\\solidity\\contracts\\TokenV1.sol",
  "compiler": {
    "name": "solc",
    "version": "0.8.7+commit.e28d00a7.Emscripten.clang"
  },
  "schemaVersion": "3.4.3",
  "updatedAt": "2021-09-19T17:29:45.279Z",
  "networkType": "ethereum",
  "devdoc": {
    "kind": "dev",
    "methods": {
      "balanceOf(address,uint256)": {
        "details": "See {IERC1155-balanceOf}. Requirements: - `account` cannot be the zero address."
      },
      "balanceOfBatch(address[],uint256[])": {
        "details": "See {IERC1155-balanceOfBatch}. Requirements: - `accounts` and `ids` must have the same length."
      },
      "getRoleAdmin(bytes32)": {
        "details": "Returns the admin role that controls `role`. See {grantRole} and {revokeRole}. To change a role's admin, use {_setRoleAdmin}."
      },
      "grantRole(bytes32,address)": {
        "details": "Grants `role` to `account`. If `account` had not been already granted `role`, emits a {RoleGranted} event. Requirements: - the caller must have ``role``'s admin role."
      },
      "hasRole(bytes32,address)": {
        "details": "Returns `true` if `account` has been granted `role`."
      },
      "isApprovedForAll(address,address)": {
        "details": "See {IERC1155-isApprovedForAll}."
      },
      "renounceRole(bytes32,address)": {
        "details": "Revokes `role` from the calling account. Roles are often managed via {grantRole} and {revokeRole}: this function's purpose is to provide a mechanism for accounts to lose their privileges if they are compromised (such as when a trusted device is misplaced). If the calling account had been granted `role`, emits a {RoleRevoked} event. Requirements: - the caller must be `account`."
      },
      "revokeRole(bytes32,address)": {
        "details": "Revokes `role` from `account`. If `account` had been granted `role`, emits a {RoleRevoked} event. Requirements: - the caller must have ``role``'s admin role."
      },
      "safeBatchTransferFrom(address,address,uint256[],uint256[],bytes)": {
        "details": "See {IERC1155-safeBatchTransferFrom}."
      },
      "safeTransferFrom(address,address,uint256,uint256,bytes)": {
        "details": "See {IERC1155-safeTransferFrom}."
      },
      "setApprovalForAll(address,bool)": {
        "details": "See {IERC1155-setApprovalForAll}."
      },
      "uri(uint256)": {
        "details": "See {IERC1155MetadataURI-uri}. This implementation returns the same URI for *all* token types. It relies on the token type ID substitution mechanism https://eips.ethereum.org/EIPS/eip-1155#metadata[defined in the EIP]. Clients calling this function must replace the `\\{id\\}` substring with the actual token type ID."
      }
    },
    "version": 1
  },
  "userdoc": {
    "kind": "user",
    "methods": {},
    "version": 1
  }
}