{
  "contractName": "TokenV1",
  "abi": [
    {
      "inputs": [],
      "stateMutability": "nonpayable",
      "type": "constructor"
    },
    {
      "inputs": [],
      "name": "ApprovalExhausted",
      "type": "error"
    },
    {
      "inputs": [],
      "name": "ApprovalExpired",
      "type": "error"
    },
    {
      "inputs": [],
      "name": "InvalidSignature",
      "type": "error"
    },
    {
      "inputs": [],
      "name": "Unauthorized",
      "type": "error"
    },
    {
      "anonymous": false,
      "inputs": [
        {
          "indexed": true,
          "internalType": "address",
          "name": "account",
          "type": "address"
        },
        {
          "indexed": true,
          "internalType": "address",
          "name": "operator",
          "type": "address"
        },
        {
          "indexed": false,
          "internalType": "bool",
          "name": "approved",
          "type": "bool"
        }
      ],
      "name": "ApprovalForAll",
      "type": "event"
    },
    {
      "anonymous": false,
      "inputs": [
        {
          "indexed": false,
          "internalType": "address",
          "name": "operator",
          "type": "address"
        },
        {
          "indexed": false,
          "internalType": "uint256",
          "name": "id",
          "type": "uint256"
        },
        {
          "components": [
            {
              "internalType": "uint256",
              "name": "dateCreated",
              "type": "uint256"
            },
            {
              "internalType": "address",
              "name": "creator",
              "type": "address"
            },
            {
              "internalType": "uint256",
              "name": "supply",
              "type": "uint256"
            },
            {
              "internalType": "string",
              "name": "metadataUri",
              "type": "string"
            },
            {
              "internalType": "uint256",
              "name": "royaltyPct",
              "type": "uint256"
            }
          ],
          "indexed": false,
          "internalType": "struct TokenV1.Token",
          "name": "token",
          "type": "tuple"
        },
        {
          "indexed": false,
          "internalType": "string",
          "name": "data",
          "type": "string"
        }
      ],
      "name": "Mint",
      "type": "event"
    },
    {
      "anonymous": false,
      "inputs": [
        {
          "indexed": false,
          "internalType": "address",
          "name": "operator",
          "type": "address"
        },
        {
          "indexed": false,
          "internalType": "address",
          "name": "creator",
          "type": "address"
        },
        {
          "indexed": false,
          "internalType": "uint256",
          "name": "supply",
          "type": "uint256"
        },
        {
          "indexed": false,
          "internalType": "string",
          "name": "data",
          "type": "string"
        }
      ],
      "name": "RevokeMint",
      "type": "event"
    },
    {
      "anonymous": false,
      "inputs": [
        {
          "indexed": true,
          "internalType": "bytes32",
          "name": "role",
          "type": "bytes32"
        },
        {
          "indexed": true,
          "internalType": "bytes32",
          "name": "previousAdminRole",
          "type": "bytes32"
        },
        {
          "indexed": true,
          "internalType": "bytes32",
          "name": "newAdminRole",
          "type": "bytes32"
        }
      ],
      "name": "RoleAdminChanged",
      "type": "event"
    },
    {
      "anonymous": false,
      "inputs": [
        {
          "indexed": true,
          "internalType": "bytes32",
          "name": "role",
          "type": "bytes32"
        },
        {
          "indexed": true,
          "internalType": "address",
          "name": "account",
          "type": "address"
        },
        {
          "indexed": true,
          "internalType": "address",
          "name": "sender",
          "type": "address"
        }
      ],
      "name": "RoleGranted",
      "type": "event"
    },
    {
      "anonymous": false,
      "inputs": [
        {
          "indexed": true,
          "internalType": "bytes32",
          "name": "role",
          "type": "bytes32"
        },
        {
          "indexed": true,
          "internalType": "address",
          "name": "account",
          "type": "address"
        },
        {
          "indexed": true,
          "internalType": "address",
          "name": "sender",
          "type": "address"
        }
      ],
      "name": "RoleRevoked",
      "type": "event"
    },
    {
      "anonymous": false,
      "inputs": [
        {
          "indexed": true,
          "internalType": "address",
          "name": "operator",
          "type": "address"
        },
        {
          "indexed": true,
          "internalType": "address",
          "name": "from",
          "type": "address"
        },
        {
          "indexed": true,
          "internalType": "address",
          "name": "to",
          "type": "address"
        },
        {
          "indexed": false,
          "internalType": "uint256[]",
          "name": "ids",
          "type": "uint256[]"
        },
        {
          "indexed": false,
          "internalType": "uint256[]",
          "name": "values",
          "type": "uint256[]"
        }
      ],
      "name": "TransferBatch",
      "type": "event"
    },
    {
      "anonymous": false,
      "inputs": [
        {
          "indexed": true,
          "internalType": "address",
          "name": "operator",
          "type": "address"
        },
        {
          "indexed": true,
          "internalType": "address",
          "name": "from",
          "type": "address"
        },
        {
          "indexed": true,
          "internalType": "address",
          "name": "to",
          "type": "address"
        },
        {
          "indexed": false,
          "internalType": "uint256",
          "name": "id",
          "type": "uint256"
        },
        {
          "indexed": false,
          "internalType": "uint256",
          "name": "value",
          "type": "uint256"
        }
      ],
      "name": "TransferSingle",
      "type": "event"
    },
    {
      "anonymous": false,
      "inputs": [
        {
          "indexed": false,
          "internalType": "string",
          "name": "value",
          "type": "string"
        },
        {
          "indexed": true,
          "internalType": "uint256",
          "name": "id",
          "type": "uint256"
        }
      ],
      "name": "URI",
      "type": "event"
    },
    {
      "inputs": [],
      "name": "DEFAULT_ADMIN_ROLE",
      "outputs": [
        {
          "internalType": "bytes32",
          "name": "",
          "type": "bytes32"
        }
      ],
      "stateMutability": "view",
      "type": "function",
      "constant": true
    },
    {
      "inputs": [
        {
          "internalType": "address",
          "name": "account",
          "type": "address"
        },
        {
          "internalType": "uint256",
          "name": "id",
          "type": "uint256"
        }
      ],
      "name": "balanceOf",
      "outputs": [
        {
          "internalType": "uint256",
          "name": "",
          "type": "uint256"
        }
      ],
      "stateMutability": "view",
      "type": "function",
      "constant": true
    },
    {
      "inputs": [
        {
          "internalType": "address[]",
          "name": "accounts",
          "type": "address[]"
        },
        {
          "internalType": "uint256[]",
          "name": "ids",
          "type": "uint256[]"
        }
      ],
      "name": "balanceOfBatch",
      "outputs": [
        {
          "internalType": "uint256[]",
          "name": "",
          "type": "uint256[]"
        }
      ],
      "stateMutability": "view",
      "type": "function",
      "constant": true
    },
    {
      "inputs": [
        {
          "internalType": "bytes32",
          "name": "role",
          "type": "bytes32"
        }
      ],
      "name": "getRoleAdmin",
      "outputs": [
        {
          "internalType": "bytes32",
          "name": "",
          "type": "bytes32"
        }
      ],
      "stateMutability": "view",
      "type": "function",
      "constant": true
    },
    {
      "inputs": [
        {
          "internalType": "bytes32",
          "name": "role",
          "type": "bytes32"
        },
        {
          "internalType": "address",
          "name": "account",
          "type": "address"
        }
      ],
      "name": "grantRole",
      "outputs": [],
      "stateMutability": "nonpayable",
      "type": "function"
    },
    {
      "inputs": [
        {
          "internalType": "bytes32",
          "name": "role",
          "type": "bytes32"
        },
        {
          "internalType": "address",
          "name": "account",
          "type": "address"
        }
      ],
      "name": "hasRole",
      "outputs": [
        {
          "internalType": "bool",
          "name": "",
          "type": "bool"
        }
      ],
      "stateMutability": "view",
      "type": "function",
      "constant": true
    },
    {
      "inputs": [],
      "name": "hundredPct",
      "outputs": [
        {
          "internalType": "uint256",
          "name": "",
          "type": "uint256"
        }
      ],
      "stateMutability": "view",
      "type": "function",
      "constant": true
    },
    {
      "inputs": [
        {
          "internalType": "address",
          "name": "account",
          "type": "address"
        },
        {
          "internalType": "address",
          "name": "operator",
          "type": "address"
        }
      ],
      "name": "isApprovedForAll",
      "outputs": [
        {
          "internalType": "bool",
          "name": "",
          "type": "bool"
        }
      ],
      "stateMutability": "view",
      "type": "function",
      "constant": true
    },
    {
      "inputs": [],
      "name": "name",
      "outputs": [
        {
          "internalType": "string",
          "name": "",
          "type": "string"
        }
      ],
      "stateMutability": "view",
      "type": "function",
      "constant": true
    },
    {
      "inputs": [
        {
          "internalType": "bytes32",
          "name": "role",
          "type": "bytes32"
        },
        {
          "internalType": "address",
          "name": "account",
          "type": "address"
        }
      ],
      "name": "renounceRole",
      "outputs": [],
      "stateMutability": "nonpayable",
      "type": "function"
    },
    {
      "inputs": [
        {
          "internalType": "bytes32",
          "name": "role",
          "type": "bytes32"
        },
        {
          "internalType": "address",
          "name": "account",
          "type": "address"
        }
      ],
      "name": "revokeRole",
      "outputs": [],
      "stateMutability": "nonpayable",
      "type": "function"
    },
    {
      "inputs": [
        {
          "internalType": "address",
          "name": "from",
          "type": "address"
        },
        {
          "internalType": "address",
          "name": "to",
          "type": "address"
        },
        {
          "internalType": "uint256[]",
          "name": "ids",
          "type": "uint256[]"
        },
        {
          "internalType": "uint256[]",
          "name": "amounts",
          "type": "uint256[]"
        },
        {
          "internalType": "bytes",
          "name": "data",
          "type": "bytes"
        }
      ],
      "name": "safeBatchTransferFrom",
      "outputs": [],
      "stateMutability": "nonpayable",
      "type": "function"
    },
    {
      "inputs": [
        {
          "internalType": "address",
          "name": "from",
          "type": "address"
        },
        {
          "internalType": "address",
          "name": "to",
          "type": "address"
        },
        {
          "internalType": "uint256",
          "name": "id",
          "type": "uint256"
        },
        {
          "internalType": "uint256",
          "name": "amount",
          "type": "uint256"
        },
        {
          "internalType": "bytes",
          "name": "data",
          "type": "bytes"
        }
      ],
      "name": "safeTransferFrom",
      "outputs": [],
      "stateMutability": "nonpayable",
      "type": "function"
    },
    {
      "inputs": [
        {
          "internalType": "address",
          "name": "operator",
          "type": "address"
        },
        {
          "internalType": "bool",
          "name": "approved",
          "type": "bool"
        }
      ],
      "name": "setApprovalForAll",
      "outputs": [],
      "stateMutability": "nonpayable",
      "type": "function"
    },
    {
      "inputs": [],
      "name": "version",
      "outputs": [
        {
          "internalType": "string",
          "name": "",
          "type": "string"
        }
      ],
      "stateMutability": "view",
      "type": "function",
      "constant": true
    },
    {
      "inputs": [
        {
          "internalType": "uint256",
          "name": "id",
          "type": "uint256"
        }
      ],
      "name": "uri",
      "outputs": [
        {
          "internalType": "string",
          "name": "",
          "type": "string"
        }
      ],
      "stateMutability": "view",
      "type": "function",
      "constant": true
    },
    {
      "inputs": [
        {
          "internalType": "uint256",
          "name": "id",
          "type": "uint256"
        }
      ],
      "name": "get",
      "outputs": [
        {
          "components": [
            {
              "internalType": "uint256",
              "name": "dateCreated",
              "type": "uint256"
            },
            {
              "internalType": "address",
              "name": "creator",
              "type": "address"
            },
            {
              "internalType": "uint256",
              "name": "supply",
              "type": "uint256"
            },
            {
              "internalType": "string",
              "name": "metadataUri",
              "type": "string"
            },
            {
              "internalType": "uint256",
              "name": "royaltyPct",
              "type": "uint256"
            }
          ],
          "internalType": "struct TokenV1.Token",
          "name": "",
          "type": "tuple"
        }
      ],
      "stateMutability": "view",
      "type": "function",
      "constant": true
    },
    {
      "inputs": [
        {
          "internalType": "uint256",
          "name": "tokenId",
          "type": "uint256"
        },
        {
          "internalType": "uint256",
          "name": "salePrice",
          "type": "uint256"
        }
      ],
      "name": "royaltyInfo",
      "outputs": [
        {
          "internalType": "address",
          "name": "receiver",
          "type": "address"
        },
        {
          "internalType": "uint256",
          "name": "royaltyAmount",
          "type": "uint256"
        }
      ],
      "stateMutability": "view",
      "type": "function",
      "constant": true
    },
    {
      "inputs": [
        {
          "internalType": "bytes4",
          "name": "interfaceId",
          "type": "bytes4"
        }
      ],
      "name": "supportsInterface",
      "outputs": [
        {
          "internalType": "bool",
          "name": "",
          "type": "bool"
        }
      ],
      "stateMutability": "view",
      "type": "function",
      "constant": true
    },
    {
      "inputs": [
        {
          "internalType": "address",
          "name": "creator",
          "type": "address"
        },
        {
          "internalType": "uint256",
          "name": "supply",
          "type": "uint256"
        },
        {
          "internalType": "string",
          "name": "metadataUri",
          "type": "string"
        },
        {
          "internalType": "uint256",
          "name": "royaltyPct",
          "type": "uint256"
        },
        {
          "internalType": "string",
          "name": "data",
          "type": "string"
        },
        {
          "internalType": "uint256",
          "name": "nonce",
          "type": "uint256"
        },
        {
          "internalType": "uint256",
          "name": "deadline",
          "type": "uint256"
        }
      ],
      "name": "mintHash",
      "outputs": [
        {
          "internalType": "bytes32",
          "name": "",
          "type": "bytes32"
        }
      ],
      "stateMutability": "view",
      "type": "function",
      "constant": true
    },
    {
      "inputs": [
        {
          "internalType": "address",
          "name": "creator",
          "type": "address"
        },
        {
          "internalType": "uint256",
          "name": "supply",
          "type": "uint256"
        },
        {
          "internalType": "string",
          "name": "metadataUri",
          "type": "string"
        },
        {
          "internalType": "uint256",
          "name": "royaltyPct",
          "type": "uint256"
        },
        {
          "internalType": "string",
          "name": "data",
          "type": "string"
        },
        {
          "internalType": "uint256",
          "name": "nonce",
          "type": "uint256"
        },
        {
          "internalType": "uint256",
          "name": "deadline",
          "type": "uint256"
        },
        {
          "internalType": "bytes",
          "name": "signature",
          "type": "bytes"
        }
      ],
      "name": "mint",
      "outputs": [],
      "stateMutability": "nonpayable",
      "type": "function"
    },
    {
      "inputs": [
        {
          "internalType": "address",
          "name": "creator",
          "type": "address"
        },
        {
          "internalType": "uint256",
          "name": "supply",
          "type": "uint256"
        },
        {
          "internalType": "string",
          "name": "metadataUri",
          "type": "string"
        },
        {
          "internalType": "uint256",
          "name": "royaltyPct",
          "type": "uint256"
        },
        {
          "internalType": "string",
          "name": "data",
          "type": "string"
        },
        {
          "internalType": "uint256",
          "name": "nonce",
          "type": "uint256"
        },
        {
          "internalType": "uint256",
          "name": "deadline",
          "type": "uint256"
        }
      ],
      "name": "revokeMintApproval",
      "outputs": [],
      "stateMutability": "nonpayable",
      "type": "function"
    }
  ],
  "bytecode": "0x608060405260006004553480156200001657600080fd5b50604051806020016040528060008152506200003881620000bb60201b60201c565b506200004e6000801b33620000d760201b60201c565b620000807f9f2df0fed2c77648de5860a4cc508cd0818c85b8b8a1ab4ceeef8d981c8956a633620000d760201b60201c565b620000b57f9f2df0fed2c77648de5860a4cc508cd0818c85b8b8a1ab4ceeef8d981c8956a66000801b620000ed60201b60201c565b620003e7565b8060039080519060200190620000d3929190620002d2565b5050565b620000e982826200015060201b60201c565b5050565b600062000100836200024160201b60201c565b905081600080858152602001908152602001600020600101819055508181847fbd79b86ffe0ab8e8776151514217cd7cacd52c909f66475c3af44e129f0b00ff60405160405180910390a4505050565b6200016282826200026060201b60201c565b6200023d57600160008084815260200190815260200160002060000160008373ffffffffffffffffffffffffffffffffffffffff1673ffffffffffffffffffffffffffffffffffffffff16815260200190815260200160002060006101000a81548160ff021916908315150217905550620001e2620002ca60201b60201c565b73ffffffffffffffffffffffffffffffffffffffff168173ffffffffffffffffffffffffffffffffffffffff16837f2f8788117e7eff1d82e926ec794901d17c78024a50270940304540a733656f0d60405160405180910390a45b5050565b6000806000838152602001908152602001600020600101549050919050565b600080600084815260200190815260200160002060000160008373ffffffffffffffffffffffffffffffffffffffff1673ffffffffffffffffffffffffffffffffffffffff16815260200190815260200160002060009054906101000a900460ff16905092915050565b600033905090565b828054620002e090620003b1565b90600052602060002090601f01602090048101928262000304576000855562000350565b82601f106200031f57805160ff191683800117855562000350565b8280016001018555821562000350579182015b828111156200034f57825182559160200191906001019062000332565b5b5090506200035f919062000363565b5090565b5b808211156200037e57600081600090555060010162000364565b5090565b7f4e487b7100000000000000000000000000000000000000000000000000000000600052602260045260246000fd5b60006002820490506001821680620003ca57607f821691505b60208210811415620003e157620003e062000382565b5b50919050565b6149a880620003f76000396000f3fe608060405234801561001057600080fd5b50600436106101415760003560e01c806354fd4d50116100b8578063a22cb4651161007c578063a22cb465146103ad578063d428dc2b146103c9578063d547741f146103e7578063dd5025f214610403578063e985e9c514610433578063f242432a1461046357610141565b806354fd4d50146102f557806391d14854146103135780639507d39a146103435780639c63030d14610373578063a217fddf1461038f57610141565b80632a55205a1161010a5780632a55205a146102245780632eb2c2d6146102555780632f2ff15d1461027157806336568abe1461028d57806340f3bd4f146102a95780634e1273f4146102c557610141565b8062fdd58e1461014657806301ffc9a71461017657806306fdde03146101a65780630e89341c146101c4578063248a9ca3146101f4575b600080fd5b610160600480360381019061015b9190612a98565b61047f565b60405161016d9190612ae7565b60405180910390f35b610190600480360381019061018b9190612b5a565b610549565b60405161019d9190612ba2565b60405180910390f35b6101ae6105c3565b6040516101bb9190612c56565b60405180910390f35b6101de60048036038101906101d99190612c78565b6105fc565b6040516101eb9190612c56565b60405180910390f35b61020e60048036038101906102099190612cdb565b6106a4565b60405161021b9190612d17565b60405180910390f35b61023e60048036038101906102399190612d32565b6106c3565b60405161024c929190612d81565b60405180910390f35b61026f600480360381019061026a9190612fa7565b610737565b005b61028b60048036038101906102869190613076565b6107d8565b005b6102a760048036038101906102a29190613076565b610801565b005b6102c360048036038101906102be9190613111565b610884565b005b6102df60048036038101906102da91906132e7565b610bb3565b6040516102ec919061341d565b60405180910390f35b6102fd610ccc565b60405161030a9190612c56565b60405180910390f35b61032d60048036038101906103289190613076565b610d05565b60405161033a9190612ba2565b60405180910390f35b61035d60048036038101906103589190612c78565b610d6f565b60405161036a919061350e565b60405180910390f35b61038d60048036038101906103889190613530565b610ea2565b005b610397610fe6565b6040516103a49190612d17565b60405180910390f35b6103c760048036038101906103c2919061363e565b610fed565b005b6103d1611003565b6040516103de9190612ae7565b60405180910390f35b61040160048036038101906103fc9190613076565b611009565b005b61041d60048036038101906104189190613530565b611032565b60405161042a9190612d17565b60405180910390f35b61044d6004803603810190610448919061367e565b61107c565b60405161045a9190612ba2565b60405180910390f35b61047d600480360381019061047891906136be565b611110565b005b60008073ffffffffffffffffffffffffffffffffffffffff168373ffffffffffffffffffffffffffffffffffffffff1614156104f0576040517f08c379a00000000000000000000000000000000000000000000000000000000081526004016104e7906137c7565b60405180910390fd5b6001600083815260200190815260200160002060008473ffffffffffffffffffffffffffffffffffffffff1673ffffffffffffffffffffffffffffffffffffffff16815260200190815260200160002054905092915050565b60007f2a55205a000000000000000000000000000000000000000000000000000000007bffffffffffffffffffffffffffffffffffffffffffffffffffffffff1916827bffffffffffffffffffffffffffffffffffffffffffffffffffffffff191614806105bc57506105bb826111b1565b5b9050919050565b6040518060400160405280601081526020017f46657374204d756c74692d546f6b656e0000000000000000000000000000000081525081565b606060056000838152602001908152602001600020600301805461061f90613816565b80601f016020809104026020016040519081016040528092919081815260200182805461064b90613816565b80156106985780601f1061066d57610100808354040283529160200191610698565b820191906000526020600020905b81548152906001019060200180831161067b57829003601f168201915b50505050509050919050565b6000806000838152602001908152602001600020600101549050919050565b6000806005600085815260200190815260200160002060010160009054906101000a900473ffffffffffffffffffffffffffffffffffffffff1691506127106005600086815260200190815260200160002060040154846107249190613877565b61072e9190613900565b90509250929050565b61073f611293565b73ffffffffffffffffffffffffffffffffffffffff168573ffffffffffffffffffffffffffffffffffffffff16148061078557506107848561077f611293565b61107c565b5b6107c4576040517f08c379a00000000000000000000000000000000000000000000000000000000081526004016107bb906139a3565b60405180910390fd5b6107d1858585858561129b565b5050505050565b6107e1826106a4565b6107f2816107ed611293565b6115b2565b6107fc838361164f565b505050565b610809611293565b73ffffffffffffffffffffffffffffffffffffffff168173ffffffffffffffffffffffffffffffffffffffff1614610876576040517f08c379a000000000000000000000000000000000000000000000000000000000815260040161086d90613a35565b60405180910390fd5b610880828261172f565b5050565b4282116108bd576040517f955b334a00000000000000000000000000000000000000000000000000000000815260040160405180910390fd5b60006108d08b8b8b8b8b8b8b8b8b611032565b90506006600082815260200190815260200160002060009054906101000a900460ff161561092a576040517fb9ae9fd800000000000000000000000000000000000000000000000000000000815260040160405180910390fd5b60006109478361093984611810565b61184090919063ffffffff16565b9050600073ffffffffffffffffffffffffffffffffffffffff168173ffffffffffffffffffffffffffffffffffffffff1614806109ab57506109a97f9f2df0fed2c77648de5860a4cc508cd0818c85b8b8a1ab4ceeef8d981c8956a682610d05565b155b156109e2576040517f8baa579f00000000000000000000000000000000000000000000000000000000815260040160405180910390fd5b60016006600084815260200190815260200160002060006101000a81548160ff02191690831515021790555060046000815480929190610a2190613a55565b9190505550610a438c6004548d60405180602001604052806000815250611867565b60006040518060a001604052804281526020018e73ffffffffffffffffffffffffffffffffffffffff1681526020018d81526020018c8c8080601f016020809104026020016040519081016040528093929190818152602001838380828437600081840152601f19601f8201169050808301925050505050505081526020018a8152509050806005600060045481526020019081526020016000206000820151816000015560208201518160010160006101000a81548173ffffffffffffffffffffffffffffffffffffffff021916908373ffffffffffffffffffffffffffffffffffffffff160217905550604082015181600201556060820151816003019080519060200190610b55929190612908565b50608082015181600401559050507f970b257bd2218b82d499191dec6408b46d0f2a1c723891dba9249f76fde14fed33600454838b8b604051610b9c959493929190613acb565b60405180910390a150505050505050505050505050565b60608151835114610bf9576040517f08c379a0000000000000000000000000000000000000000000000000000000008152600401610bf090613b92565b60405180910390fd5b6000835167ffffffffffffffff811115610c1657610c15612daf565b5b604051908082528060200260200182016040528015610c445781602001602082028036833780820191505090505b50905060005b8451811015610cc157610c91858281518110610c6957610c68613bb2565b5b6020026020010151858381518110610c8457610c83613bb2565b5b602002602001015161047f565b828281518110610ca457610ca3613bb2565b5b60200260200101818152505080610cba90613a55565b9050610c4a565b508091505092915050565b6040518060400160405280600381526020017f312e30000000000000000000000000000000000000000000000000000000000081525081565b600080600084815260200190815260200160002060000160008373ffffffffffffffffffffffffffffffffffffffff1673ffffffffffffffffffffffffffffffffffffffff16815260200190815260200160002060009054906101000a900460ff16905092915050565b610d7761298e565b600560008381526020019081526020016000206040518060a0016040529081600082015481526020016001820160009054906101000a900473ffffffffffffffffffffffffffffffffffffffff1673ffffffffffffffffffffffffffffffffffffffff1673ffffffffffffffffffffffffffffffffffffffff16815260200160028201548152602001600382018054610e0f90613816565b80601f0160208091040260200160405190810160405280929190818152602001828054610e3b90613816565b8015610e885780601f10610e5d57610100808354040283529160200191610e88565b820191906000526020600020905b815481529060010190602001808311610e6b57829003601f168201915b505050505081526020016004820154815250509050919050565b610ecc7f9f2df0fed2c77648de5860a4cc508cd0818c85b8b8a1ab4ceeef8d981c8956a633610d05565b610f02576040517f82b4290000000000000000000000000000000000000000000000000000000000815260040160405180910390fd5b6000610f158a8a8a8a8a8a8a8a8a611032565b90506006600082815260200190815260200160002060009054906101000a900460ff1615610f6f576040517fb9ae9fd800000000000000000000000000000000000000000000000000000000815260040160405180910390fd5b60016006600083815260200190815260200160002060006101000a81548160ff0219169083151502179055507f4fbc860d2cbc005395b0c8062b69f6f63fa32d000f1f3822605e5bf5d1558654338b8b8888604051610fd2959493929190613be1565b60405180910390a150505050505050505050565b6000801b81565b610fff610ff8611293565b83836119fe565b5050565b61271081565b611012826106a4565b6110238161101e611293565b6115b2565b61102d838361172f565b505050565b6000308a8a8a8a8a8a8a8a8a6040516020016110579a99989796959493929190613cc8565b6040516020818303038152906040528051906020012090509998505050505050505050565b6000600260008473ffffffffffffffffffffffffffffffffffffffff1673ffffffffffffffffffffffffffffffffffffffff16815260200190815260200160002060008373ffffffffffffffffffffffffffffffffffffffff1673ffffffffffffffffffffffffffffffffffffffff16815260200190815260200160002060009054906101000a900460ff16905092915050565b611118611293565b73ffffffffffffffffffffffffffffffffffffffff168573ffffffffffffffffffffffffffffffffffffffff16148061115e575061115d85611158611293565b61107c565b5b61119d576040517f08c379a000000000000000000000000000000000000000000000000000000000815260040161119490613dc8565b60405180910390fd5b6111aa8585858585611b6b565b5050505050565b60007fd9b67a26000000000000000000000000000000000000000000000000000000007bffffffffffffffffffffffffffffffffffffffffffffffffffffffff1916827bffffffffffffffffffffffffffffffffffffffffffffffffffffffff1916148061127c57507f0e89341c000000000000000000000000000000000000000000000000000000007bffffffffffffffffffffffffffffffffffffffffffffffffffffffff1916827bffffffffffffffffffffffffffffffffffffffffffffffffffffffff1916145b8061128c575061128b82611df0565b5b9050919050565b600033905090565b81518351146112df576040517f08c379a00000000000000000000000000000000000000000000000000000000081526004016112d690613e5a565b60405180910390fd5b600073ffffffffffffffffffffffffffffffffffffffff168473ffffffffffffffffffffffffffffffffffffffff16141561134f576040517f08c379a000000000000000000000000000000000000000000000000000000000815260040161134690613eec565b60405180910390fd5b6000611359611293565b9050611369818787878787611e6a565b60005b845181101561151d57600085828151811061138a57611389613bb2565b5b6020026020010151905060008583815181106113a9576113a8613bb2565b5b6020026020010151905060006001600084815260200190815260200160002060008b73ffffffffffffffffffffffffffffffffffffffff1673ffffffffffffffffffffffffffffffffffffffff1681526020019081526020016000205490508181101561144b576040517f08c379a000000000000000000000000000000000000000000000000000000000815260040161144290613f7e565b60405180910390fd5b8181036001600085815260200190815260200160002060008c73ffffffffffffffffffffffffffffffffffffffff1673ffffffffffffffffffffffffffffffffffffffff16815260200190815260200160002081905550816001600085815260200190815260200160002060008b73ffffffffffffffffffffffffffffffffffffffff1673ffffffffffffffffffffffffffffffffffffffff16815260200190815260200160002060008282546115029190613f9e565b925050819055505050508061151690613a55565b905061136c565b508473ffffffffffffffffffffffffffffffffffffffff168673ffffffffffffffffffffffffffffffffffffffff168273ffffffffffffffffffffffffffffffffffffffff167f4a39dc06d4c0dbc64b70af90fd698a233a518aa5d07e595d983b8c0526c8f7fb8787604051611594929190613ff4565b60405180910390a46115aa818787878787611e72565b505050505050565b6115bc8282610d05565b61164b576115e18173ffffffffffffffffffffffffffffffffffffffff16601461204a565b6115ef8360001c602061204a565b6040516020016116009291906140f4565b6040516020818303038152906040526040517f08c379a00000000000000000000000000000000000000000000000000000000081526004016116429190612c56565b60405180910390fd5b5050565b6116598282610d05565b61172b57600160008084815260200190815260200160002060000160008373ffffffffffffffffffffffffffffffffffffffff1673ffffffffffffffffffffffffffffffffffffffff16815260200190815260200160002060006101000a81548160ff0219169083151502179055506116d0611293565b73ffffffffffffffffffffffffffffffffffffffff168173ffffffffffffffffffffffffffffffffffffffff16837f2f8788117e7eff1d82e926ec794901d17c78024a50270940304540a733656f0d60405160405180910390a45b5050565b6117398282610d05565b1561180c57600080600084815260200190815260200160002060000160008373ffffffffffffffffffffffffffffffffffffffff1673ffffffffffffffffffffffffffffffffffffffff16815260200190815260200160002060006101000a81548160ff0219169083151502179055506117b1611293565b73ffffffffffffffffffffffffffffffffffffffff168173ffffffffffffffffffffffffffffffffffffffff16837ff6391f5c32d9c69d2a47ea670b442974b53935d1edc7fd64eb21e047a839171b60405160405180910390a45b5050565b600081604051602001611823919061419b565b604051602081830303815290604052805190602001209050919050565b600080600061184f8585612286565b9150915061185c81612309565b819250505092915050565b600073ffffffffffffffffffffffffffffffffffffffff168473ffffffffffffffffffffffffffffffffffffffff1614156118d7576040517f08c379a00000000000000000000000000000000000000000000000000000000081526004016118ce90614233565b60405180910390fd5b60006118e1611293565b9050611902816000876118f3886124de565b6118fc886124de565b87611e6a565b826001600086815260200190815260200160002060008773ffffffffffffffffffffffffffffffffffffffff1673ffffffffffffffffffffffffffffffffffffffff16815260200190815260200160002060008282546119629190613f9e565b925050819055508473ffffffffffffffffffffffffffffffffffffffff16600073ffffffffffffffffffffffffffffffffffffffff168273ffffffffffffffffffffffffffffffffffffffff167fc3d58168c5ae7397731d063d5bbf3d657854427343f4c083240f7aacaa2d0f6287876040516119e0929190614253565b60405180910390a46119f781600087878787612558565b5050505050565b8173ffffffffffffffffffffffffffffffffffffffff168373ffffffffffffffffffffffffffffffffffffffff161415611a6d576040517f08c379a0000000000000000000000000000000000000000000000000000000008152600401611a64906142ee565b60405180910390fd5b80600260008573ffffffffffffffffffffffffffffffffffffffff1673ffffffffffffffffffffffffffffffffffffffff16815260200190815260200160002060008473ffffffffffffffffffffffffffffffffffffffff1673ffffffffffffffffffffffffffffffffffffffff16815260200190815260200160002060006101000a81548160ff0219169083151502179055508173ffffffffffffffffffffffffffffffffffffffff168373ffffffffffffffffffffffffffffffffffffffff167f17307eab39ab6107e8899845ad3d59bd9653f200f220920489ca2b5937696c3183604051611b5e9190612ba2565b60405180910390a3505050565b600073ffffffffffffffffffffffffffffffffffffffff168473ffffffffffffffffffffffffffffffffffffffff161415611bdb576040517f08c379a0000000000000000000000000000000000000000000000000000000008152600401611bd290613eec565b60405180910390fd5b6000611be5611293565b9050611c05818787611bf6886124de565b611bff886124de565b87611e6a565b60006001600086815260200190815260200160002060008873ffffffffffffffffffffffffffffffffffffffff1673ffffffffffffffffffffffffffffffffffffffff16815260200190815260200160002054905083811015611c9d576040517f08c379a0000000000000000000000000000000000000000000000000000000008152600401611c9490613f7e565b60405180910390fd5b8381036001600087815260200190815260200160002060008973ffffffffffffffffffffffffffffffffffffffff1673ffffffffffffffffffffffffffffffffffffffff16815260200190815260200160002081905550836001600087815260200190815260200160002060008873ffffffffffffffffffffffffffffffffffffffff1673ffffffffffffffffffffffffffffffffffffffff1681526020019081526020016000206000828254611d549190613f9e565b925050819055508573ffffffffffffffffffffffffffffffffffffffff168773ffffffffffffffffffffffffffffffffffffffff168373ffffffffffffffffffffffffffffffffffffffff167fc3d58168c5ae7397731d063d5bbf3d657854427343f4c083240f7aacaa2d0f628888604051611dd1929190614253565b60405180910390a4611de7828888888888612558565b50505050505050565b60007f7965db0b000000000000000000000000000000000000000000000000000000007bffffffffffffffffffffffffffffffffffffffffffffffffffffffff1916827bffffffffffffffffffffffffffffffffffffffffffffffffffffffff19161480611e635750611e6282612730565b5b9050919050565b505050505050565b611e918473ffffffffffffffffffffffffffffffffffffffff1661279a565b15612042578373ffffffffffffffffffffffffffffffffffffffff1663bc197c8187878686866040518663ffffffff1660e01b8152600401611ed7959493929190614363565b6020604051808303816000875af1925050508015611f1357506040513d601f19601f82011682018060405250810190611f1091906143e0565b60015b611fb957611f1f61441a565b806308c379a01415611f7c5750611f3461443c565b80611f3f5750611f7e565b806040517f08c379a0000000000000000000000000000000000000000000000000000000008152600401611f739190612c56565b60405180910390fd5b505b6040517f08c379a0000000000000000000000000000000000000000000000000000000008152600401611fb090614544565b60405180910390fd5b63bc197c8160e01b7bffffffffffffffffffffffffffffffffffffffffffffffffffffffff1916817bffffffffffffffffffffffffffffffffffffffffffffffffffffffff191614612040576040517f08c379a0000000000000000000000000000000000000000000000000000000008152600401612037906145d6565b60405180910390fd5b505b505050505050565b60606000600283600261205d9190613877565b6120679190613f9e565b67ffffffffffffffff8111156120805761207f612daf565b5b6040519080825280601f01601f1916602001820160405280156120b25781602001600182028036833780820191505090505b5090507f3000000000000000000000000000000000000000000000000000000000000000816000815181106120ea576120e9613bb2565b5b60200101907effffffffffffffffffffffffffffffffffffffffffffffffffffffffffffff1916908160001a9053507f78000000000000000000000000000000000000000000000000000000000000008160018151811061214e5761214d613bb2565b5b60200101907effffffffffffffffffffffffffffffffffffffffffffffffffffffffffffff1916908160001a9053506000600184600261218e9190613877565b6121989190613f9e565b90505b6001811115612238577f3031323334353637383961626364656600000000000000000000000000000000600f8616601081106121da576121d9613bb2565b5b1a60f81b8282815181106121f1576121f0613bb2565b5b60200101907effffffffffffffffffffffffffffffffffffffffffffffffffffffffffffff1916908160001a905350600485901c945080612231906145f6565b905061219b565b506000841461227c576040517f08c379a00000000000000000000000000000000000000000000000000000000081526004016122739061466c565b60405180910390fd5b8091505092915050565b6000806041835114156122c85760008060006020860151925060408601519150606086015160001a90506122bc878285856127ad565b94509450505050612302565b6040835114156122f95760008060208501519150604085015190506122ee8683836128ba565b935093505050612302565b60006002915091505b9250929050565b6000600481111561231d5761231c61468c565b5b8160048111156123305761232f61468c565b5b141561233b576124db565b6001600481111561234f5761234e61468c565b5b8160048111156123625761236161468c565b5b14156123a3576040517f08c379a000000000000000000000000000000000000000000000000000000000815260040161239a90614707565b60405180910390fd5b600260048111156123b7576123b661468c565b5b8160048111156123ca576123c961468c565b5b141561240b576040517f08c379a000000000000000000000000000000000000000000000000000000000815260040161240290614773565b60405180910390fd5b6003600481111561241f5761241e61468c565b5b8160048111156124325761243161468c565b5b1415612473576040517f08c379a000000000000000000000000000000000000000000000000000000000815260040161246a90614805565b60405180910390fd5b6004808111156124865761248561468c565b5b8160048111156124995761249861468c565b5b14156124da576040517f08c379a00000000000000000000000000000000000000000000000000000000081526004016124d190614897565b60405180910390fd5b5b50565b60606000600167ffffffffffffffff8111156124fd576124fc612daf565b5b60405190808252806020026020018201604052801561252b5781602001602082028036833780820191505090505b509050828160008151811061254357612542613bb2565b5b60200260200101818152505080915050919050565b6125778473ffffffffffffffffffffffffffffffffffffffff1661279a565b15612728578373ffffffffffffffffffffffffffffffffffffffff1663f23a6e6187878686866040518663ffffffff1660e01b81526004016125bd9594939291906148b7565b6020604051808303816000875af19250505080156125f957506040513d601f19601f820116820180604052508101906125f691906143e0565b60015b61269f5761260561441a565b806308c379a01415612662575061261a61443c565b806126255750612664565b806040517f08c379a00000000000000000000000000000000000000000000000000000000081526004016126599190612c56565b60405180910390fd5b505b6040517f08c379a000000000000000000000000000000000000000000000000000000000815260040161269690614544565b60405180910390fd5b63f23a6e6160e01b7bffffffffffffffffffffffffffffffffffffffffffffffffffffffff1916817bffffffffffffffffffffffffffffffffffffffffffffffffffffffff191614612726576040517f08c379a000000000000000000000000000000000000000000000000000000000815260040161271d906145d6565b60405180910390fd5b505b505050505050565b60007f01ffc9a7000000000000000000000000000000000000000000000000000000007bffffffffffffffffffffffffffffffffffffffffffffffffffffffff1916827bffffffffffffffffffffffffffffffffffffffffffffffffffffffff1916149050919050565b600080823b905060008111915050919050565b6000807f7fffffffffffffffffffffffffffffff5d576e7357a4501ddfe92f46681b20a08360001c11156127e85760006003915091506128b1565b601b8560ff16141580156128005750601c8560ff1614155b156128125760006004915091506128b1565b600060018787878760405160008152602001604052604051612837949392919061492d565b6020604051602081039080840390855afa158015612859573d6000803e3d6000fd5b505050602060405103519050600073ffffffffffffffffffffffffffffffffffffffff168173ffffffffffffffffffffffffffffffffffffffff1614156128a8576000600192509250506128b1565b80600092509250505b94509492505050565b6000806000807f7fffffffffffffffffffffffffffffffffffffffffffffffffffffffffffffff85169150601b8560ff1c0190506128fa878288856127ad565b935093505050935093915050565b82805461291490613816565b90600052602060002090601f016020900481019282612936576000855561297d565b82601f1061294f57805160ff191683800117855561297d565b8280016001018555821561297d579182015b8281111561297c578251825591602001919060010190612961565b5b50905061298a91906129d3565b5090565b6040518060a0016040528060008152602001600073ffffffffffffffffffffffffffffffffffffffff1681526020016000815260200160608152602001600081525090565b5b808211156129ec5760008160009055506001016129d4565b5090565b6000604051905090565b600080fd5b600080fd5b600073ffffffffffffffffffffffffffffffffffffffff82169050919050565b6000612a2f82612a04565b9050919050565b612a3f81612a24565b8114612a4a57600080fd5b50565b600081359050612a5c81612a36565b92915050565b6000819050919050565b612a7581612a62565b8114612a8057600080fd5b50565b600081359050612a9281612a6c565b92915050565b60008060408385031215612aaf57612aae6129fa565b5b6000612abd85828601612a4d565b9250506020612ace85828601612a83565b9150509250929050565b612ae181612a62565b82525050565b6000602082019050612afc6000830184612ad8565b92915050565b60007fffffffff0000000000000000000000000000000000000000000000000000000082169050919050565b612b3781612b02565b8114612b4257600080fd5b50565b600081359050612b5481612b2e565b92915050565b600060208284031215612b7057612b6f6129fa565b5b6000612b7e84828501612b45565b91505092915050565b60008115159050919050565b612b9c81612b87565b82525050565b6000602082019050612bb76000830184612b93565b92915050565b600081519050919050565b600082825260208201905092915050565b60005b83811015612bf7578082015181840152602081019050612bdc565b83811115612c06576000848401525b50505050565b6000601f19601f8301169050919050565b6000612c2882612bbd565b612c328185612bc8565b9350612c42818560208601612bd9565b612c4b81612c0c565b840191505092915050565b60006020820190508181036000830152612c708184612c1d565b905092915050565b600060208284031215612c8e57612c8d6129fa565b5b6000612c9c84828501612a83565b91505092915050565b6000819050919050565b612cb881612ca5565b8114612cc357600080fd5b50565b600081359050612cd581612caf565b92915050565b600060208284031215612cf157612cf06129fa565b5b6000612cff84828501612cc6565b91505092915050565b612d1181612ca5565b82525050565b6000602082019050612d2c6000830184612d08565b92915050565b60008060408385031215612d4957612d486129fa565b5b6000612d5785828601612a83565b9250506020612d6885828601612a83565b9150509250929050565b612d7b81612a24565b82525050565b6000604082019050612d966000830185612d72565b612da36020830184612ad8565b9392505050565b600080fd5b7f4e487b7100000000000000000000000000000000000000000000000000000000600052604160045260246000fd5b612de782612c0c565b810181811067ffffffffffffffff82111715612e0657612e05612daf565b5b80604052505050565b6000612e196129f0565b9050612e258282612dde565b919050565b600067ffffffffffffffff821115612e4557612e44612daf565b5b602082029050602081019050919050565b600080fd5b6000612e6e612e6984612e2a565b612e0f565b90508083825260208201905060208402830185811115612e9157612e90612e56565b5b835b81811015612eba5780612ea68882612a83565b845260208401935050602081019050612e93565b5050509392505050565b600082601f830112612ed957612ed8612daa565b5b8135612ee9848260208601612e5b565b91505092915050565b600080fd5b600067ffffffffffffffff821115612f1257612f11612daf565b5b612f1b82612c0c565b9050602081019050919050565b82818337600083830152505050565b6000612f4a612f4584612ef7565b612e0f565b905082815260208101848484011115612f6657612f65612ef2565b5b612f71848285612f28565b509392505050565b600082601f830112612f8e57612f8d612daa565b5b8135612f9e848260208601612f37565b91505092915050565b600080600080600060a08688031215612fc357612fc26129fa565b5b6000612fd188828901612a4d565b9550506020612fe288828901612a4d565b945050604086013567ffffffffffffffff811115613003576130026129ff565b5b61300f88828901612ec4565b935050606086013567ffffffffffffffff8111156130305761302f6129ff565b5b61303c88828901612ec4565b925050608086013567ffffffffffffffff81111561305d5761305c6129ff565b5b61306988828901612f79565b9150509295509295909350565b6000806040838503121561308d5761308c6129fa565b5b600061309b85828601612cc6565b92505060206130ac85828601612a4d565b9150509250929050565b600080fd5b60008083601f8401126130d1576130d0612daa565b5b8235905067ffffffffffffffff8111156130ee576130ed6130b6565b5b60208301915083600182028301111561310a57613109612e56565b5b9250929050565b6000806000806000806000806000806101008b8d031215613135576131346129fa565b5b60006131438d828e01612a4d565b9a505060206131548d828e01612a83565b99505060408b013567ffffffffffffffff811115613175576131746129ff565b5b6131818d828e016130bb565b985098505060606131948d828e01612a83565b96505060808b013567ffffffffffffffff8111156131b5576131b46129ff565b5b6131c18d828e016130bb565b955095505060a06131d48d828e01612a83565b93505060c06131e58d828e01612a83565b92505060e08b013567ffffffffffffffff811115613206576132056129ff565b5b6132128d828e01612f79565b9150509295989b9194979a5092959850565b600067ffffffffffffffff82111561323f5761323e612daf565b5b602082029050602081019050919050565b600061326361325e84613224565b612e0f565b9050808382526020820190506020840283018581111561328657613285612e56565b5b835b818110156132af578061329b8882612a4d565b845260208401935050602081019050613288565b5050509392505050565b600082601f8301126132ce576132cd612daa565b5b81356132de848260208601613250565b91505092915050565b600080604083850312156132fe576132fd6129fa565b5b600083013567ffffffffffffffff81111561331c5761331b6129ff565b5b613328858286016132b9565b925050602083013567ffffffffffffffff811115613349576133486129ff565b5b61335585828601612ec4565b9150509250929050565b600081519050919050565b600082825260208201905092915050565b6000819050602082019050919050565b61339481612a62565b82525050565b60006133a6838361338b565b60208301905092915050565b6000602082019050919050565b60006133ca8261335f565b6133d4818561336a565b93506133df8361337b565b8060005b838110156134105781516133f7888261339a565b9750613402836133b2565b9250506001810190506133e3565b5085935050505092915050565b6000602082019050818103600083015261343781846133bf565b905092915050565b61344881612a24565b82525050565b600082825260208201905092915050565b600061346a82612bbd565b613474818561344e565b9350613484818560208601612bd9565b61348d81612c0c565b840191505092915050565b600060a0830160008301516134b0600086018261338b565b5060208301516134c3602086018261343f565b5060408301516134d6604086018261338b565b50606083015184820360608601526134ee828261345f565b9150506080830151613503608086018261338b565b508091505092915050565b600060208201905081810360008301526135288184613498565b905092915050565b600080600080600080600080600060e08a8c031215613552576135516129fa565b5b60006135608c828d01612a4d565b99505060206135718c828d01612a83565b98505060408a013567ffffffffffffffff811115613592576135916129ff565b5b61359e8c828d016130bb565b975097505060606135b18c828d01612a83565b95505060808a013567ffffffffffffffff8111156135d2576135d16129ff565b5b6135de8c828d016130bb565b945094505060a06135f18c828d01612a83565b92505060c06136028c828d01612a83565b9150509295985092959850929598565b61361b81612b87565b811461362657600080fd5b50565b60008135905061363881613612565b92915050565b60008060408385031215613655576136546129fa565b5b600061366385828601612a4d565b925050602061367485828601613629565b9150509250929050565b60008060408385031215613695576136946129fa565b5b60006136a385828601612a4d565b92505060206136b485828601612a4d565b9150509250929050565b600080600080600060a086880312156136da576136d96129fa565b5b60006136e888828901612a4d565b95505060206136f988828901612a4d565b945050604061370a88828901612a83565b935050606061371b88828901612a83565b925050608086013567ffffffffffffffff81111561373c5761373b6129ff565b5b61374888828901612f79565b9150509295509295909350565b7f455243313135353a2062616c616e636520717565727920666f7220746865207a60008201527f65726f2061646472657373000000000000000000000000000000000000000000602082015250565b60006137b1602b83612bc8565b91506137bc82613755565b604082019050919050565b600060208201905081810360008301526137e0816137a4565b9050919050565b7f4e487b7100000000000000000000000000000000000000000000000000000000600052602260045260246000fd5b6000600282049050600182168061382e57607f821691505b60208210811415613842576138416137e7565b5b50919050565b7f4e487b7100000000000000000000000000000000000000000000000000000000600052601160045260246000fd5b600061388282612a62565b915061388d83612a62565b9250817fffffffffffffffffffffffffffffffffffffffffffffffffffffffffffffffff04831182151516156138c6576138c5613848565b5b828202905092915050565b7f4e487b7100000000000000000000000000000000000000000000000000000000600052601260045260246000fd5b600061390b82612a62565b915061391683612a62565b925082613926576139256138d1565b5b828204905092915050565b7f455243313135353a207472616e736665722063616c6c6572206973206e6f742060008201527f6f776e6572206e6f7220617070726f7665640000000000000000000000000000602082015250565b600061398d603283612bc8565b915061399882613931565b604082019050919050565b600060208201905081810360008301526139bc81613980565b9050919050565b7f416363657373436f6e74726f6c3a2063616e206f6e6c792072656e6f756e636560008201527f20726f6c657320666f722073656c660000000000000000000000000000000000602082015250565b6000613a1f602f83612bc8565b9150613a2a826139c3565b604082019050919050565b60006020820190508181036000830152613a4e81613a12565b9050919050565b6000613a6082612a62565b91507fffffffffffffffffffffffffffffffffffffffffffffffffffffffffffffffff821415613a9357613a92613848565b5b600182019050919050565b6000613aaa8385612bc8565b9350613ab7838584612f28565b613ac083612c0c565b840190509392505050565b6000608082019050613ae06000830188612d72565b613aed6020830187612ad8565b8181036040830152613aff8186613498565b90508181036060830152613b14818486613a9e565b90509695505050505050565b7f455243313135353a206163636f756e747320616e6420696473206c656e67746860008201527f206d69736d617463680000000000000000000000000000000000000000000000602082015250565b6000613b7c602983612bc8565b9150613b8782613b20565b604082019050919050565b60006020820190508181036000830152613bab81613b6f565b9050919050565b7f4e487b7100000000000000000000000000000000000000000000000000000000600052603260045260246000fd5b6000608082019050613bf66000830188612d72565b613c036020830187612d72565b613c106040830186612ad8565b8181036060830152613c23818486613a9e565b90509695505050505050565b60008160601b9050919050565b6000613c4782613c2f565b9050919050565b6000613c5982613c3c565b9050919050565b613c71613c6c82612a24565b613c4e565b82525050565b6000819050919050565b613c92613c8d82612a62565b613c77565b82525050565b600081905092915050565b6000613caf8385613c98565b9350613cbc838584612f28565b82840190509392505050565b6000613cd4828d613c60565b601482019150613ce4828c613c60565b601482019150613cf4828b613c81565b602082019150613d0582898b613ca3565b9150613d118288613c81565b602082019150613d22828688613ca3565b9150613d2e8285613c81565b602082019150613d3e8284613c81565b6020820191508190509b9a5050505050505050505050565b7f455243313135353a2063616c6c6572206973206e6f74206f776e6572206e6f7260008201527f20617070726f7665640000000000000000000000000000000000000000000000602082015250565b6000613db2602983612bc8565b9150613dbd82613d56565b604082019050919050565b60006020820190508181036000830152613de181613da5565b9050919050565b7f455243313135353a2069647320616e6420616d6f756e7473206c656e6774682060008201527f6d69736d61746368000000000000000000000000000000000000000000000000602082015250565b6000613e44602883612bc8565b9150613e4f82613de8565b604082019050919050565b60006020820190508181036000830152613e7381613e37565b9050919050565b7f455243313135353a207472616e7366657220746f20746865207a65726f20616460008201527f6472657373000000000000000000000000000000000000000000000000000000602082015250565b6000613ed6602583612bc8565b9150613ee182613e7a565b604082019050919050565b60006020820190508181036000830152613f0581613ec9565b9050919050565b7f455243313135353a20696e73756666696369656e742062616c616e636520666f60008201527f72207472616e7366657200000000000000000000000000000000000000000000602082015250565b6000613f68602a83612bc8565b9150613f7382613f0c565b604082019050919050565b60006020820190508181036000830152613f9781613f5b565b9050919050565b6000613fa982612a62565b9150613fb483612a62565b9250827fffffffffffffffffffffffffffffffffffffffffffffffffffffffffffffffff03821115613fe957613fe8613848565b5b828201905092915050565b6000604082019050818103600083015261400e81856133bf565b9050818103602083015261402281846133bf565b90509392505050565b7f416363657373436f6e74726f6c3a206163636f756e7420000000000000000000600082015250565b6000614061601783613c98565b915061406c8261402b565b601782019050919050565b600061408282612bbd565b61408c8185613c98565b935061409c818560208601612bd9565b80840191505092915050565b7f206973206d697373696e6720726f6c6520000000000000000000000000000000600082015250565b60006140de601183613c98565b91506140e9826140a8565b601182019050919050565b60006140ff82614054565b915061410b8285614077565b9150614116826140d1565b91506141228284614077565b91508190509392505050565b7f19457468657265756d205369676e6564204d6573736167653a0a333200000000600082015250565b6000614164601c83613c98565b915061416f8261412e565b601c82019050919050565b6000819050919050565b61419561419082612ca5565b61417a565b82525050565b60006141a682614157565b91506141b28284614184565b60208201915081905092915050565b7f455243313135353a206d696e7420746f20746865207a65726f2061646472657360008201527f7300000000000000000000000000000000000000000000000000000000000000602082015250565b600061421d602183612bc8565b9150614228826141c1565b604082019050919050565b6000602082019050818103600083015261424c81614210565b9050919050565b60006040820190506142686000830185612ad8565b6142756020830184612ad8565b9392505050565b7f455243313135353a2073657474696e6720617070726f76616c2073746174757360008201527f20666f722073656c660000000000000000000000000000000000000000000000602082015250565b60006142d8602983612bc8565b91506142e38261427c565b604082019050919050565b60006020820190508181036000830152614307816142cb565b9050919050565b600081519050919050565b600082825260208201905092915050565b60006143358261430e565b61433f8185614319565b935061434f818560208601612bd9565b61435881612c0c565b840191505092915050565b600060a0820190506143786000830188612d72565b6143856020830187612d72565b818103604083015261439781866133bf565b905081810360608301526143ab81856133bf565b905081810360808301526143bf818461432a565b90509695505050505050565b6000815190506143da81612b2e565b92915050565b6000602082840312156143f6576143f56129fa565b5b6000614404848285016143cb565b91505092915050565b60008160e01c9050919050565b600060033d11156144395760046000803e61443660005161440d565b90505b90565b600060443d101561444c576144cf565b6144546129f0565b60043d036004823e80513d602482011167ffffffffffffffff8211171561447c5750506144cf565b808201805167ffffffffffffffff81111561449a57505050506144cf565b80602083010160043d0385018111156144b75750505050506144cf565b6144c682602001850186612dde565b82955050505050505b90565b7f455243313135353a207472616e7366657220746f206e6f6e204552433131353560008201527f526563656976657220696d706c656d656e746572000000000000000000000000602082015250565b600061452e603483612bc8565b9150614539826144d2565b604082019050919050565b6000602082019050818103600083015261455d81614521565b9050919050565b7f455243313135353a204552433131353552656365697665722072656a6563746560008201527f6420746f6b656e73000000000000000000000000000000000000000000000000602082015250565b60006145c0602883612bc8565b91506145cb82614564565b604082019050919050565b600060208201905081810360008301526145ef816145b3565b9050919050565b600061460182612a62565b9150600082141561461557614614613848565b5b600182039050919050565b7f537472696e67733a20686578206c656e67746820696e73756666696369656e74600082015250565b6000614656602083612bc8565b915061466182614620565b602082019050919050565b6000602082019050818103600083015261468581614649565b9050919050565b7f4e487b7100000000000000000000000000000000000000000000000000000000600052602160045260246000fd5b7f45434453413a20696e76616c6964207369676e61747572650000000000000000600082015250565b60006146f1601883612bc8565b91506146fc826146bb565b602082019050919050565b60006020820190508181036000830152614720816146e4565b9050919050565b7f45434453413a20696e76616c6964207369676e6174757265206c656e67746800600082015250565b600061475d601f83612bc8565b915061476882614727565b602082019050919050565b6000602082019050818103600083015261478c81614750565b9050919050565b7f45434453413a20696e76616c6964207369676e6174757265202773272076616c60008201527f7565000000000000000000000000000000000000000000000000000000000000602082015250565b60006147ef602283612bc8565b91506147fa82614793565b604082019050919050565b6000602082019050818103600083015261481e816147e2565b9050919050565b7f45434453413a20696e76616c6964207369676e6174757265202776272076616c60008201527f7565000000000000000000000000000000000000000000000000000000000000602082015250565b6000614881602283612bc8565b915061488c82614825565b604082019050919050565b600060208201905081810360008301526148b081614874565b9050919050565b600060a0820190506148cc6000830188612d72565b6148d96020830187612d72565b6148e66040830186612ad8565b6148f36060830185612ad8565b8181036080830152614905818461432a565b90509695505050505050565b600060ff82169050919050565b61492781614911565b82525050565b60006080820190506149426000830187612d08565b61494f602083018661491e565b61495c6040830185612d08565b6149696060830184612d08565b9594505050505056fea2646970667358221220ecf07eb82e23f7389afc07b44717b558619b9ff898c067330d7f7efd5fe20b4364736f6c634300080c0033",
  "immutableReferences": {},
  "source": "// SPDX-License-Identifier: MIT\npragma solidity ^0.8.0;\n\nimport \"@openzeppelin/contracts/access/AccessControl.sol\";\nimport \"@openzeppelin/contracts/token/ERC1155/ERC1155.sol\";\nimport \"@openzeppelin/contracts/utils/introspection/ERC165.sol\";\nimport \"@openzeppelin/contracts/utils/cryptography/ECDSA.sol\";\n\nimport \"../interfaces/IERC2981.sol\";\nimport \"../errors.sol\";\n\ncontract TokenV1 is AccessControl, ERC1155, IERC2981 {\n  using ECDSA for bytes32;\n\n  struct Token {\n    uint256 dateCreated;\n    address creator;\n    uint256 supply;\n    string metadataUri;\n    uint256 royaltyPct;\n  }\n\n  event Mint(\n    address operator,\n    uint256 id,\n    Token token,\n    string data\n  );\n\n  event RevokeMint(\n    address operator,\n    address creator,\n    uint256 supply,\n    string data\n  );\n\n  modifier onlyMinter() {\n    if (!hasRole(MINTER_ROLE, msg.sender)) {\n      revert Unauthorized();\n    }\n    _;\n  }\n\n  string public constant name = \"Fest Multi-Token\";\n  string public constant version = \"1.0\";\n\n  uint256 public constant hundredPct = 10_000;\n\n  bytes32 internal constant MINTER_ROLE =\n    keccak256(\"MINTER_ROLE\");\n  bytes internal constant EMPTY = \"\";\n\n  uint256 private _tokenId = 0;\n  mapping(uint256 => Token) _tokens;\n\n  mapping(bytes32 => bool) _approvalsExhausted;\n\n  constructor() ERC1155(\"\") {\n    _setupRole(DEFAULT_ADMIN_ROLE, msg.sender);\n\n    _setupRole(MINTER_ROLE, msg.sender);\n    _setRoleAdmin(MINTER_ROLE, DEFAULT_ADMIN_ROLE);\n  }\n\n  function uri(uint256 id)\n    public\n    view\n    override\n    returns (string memory)\n  {\n    return _tokens[id].metadataUri;\n  }\n\n  function get(uint256 id)\n    public\n    view\n    returns (Token memory)\n  {\n    return _tokens[id];\n  }\n\n  function royaltyInfo(uint256 tokenId, uint256 salePrice)\n    external\n    view\n    returns (address receiver, uint256 royaltyAmount)\n  {\n    receiver = _tokens[tokenId].creator;\n    royaltyAmount =\n      (salePrice * _tokens[tokenId].royaltyPct) /\n      hundredPct;\n  }\n\n  function supportsInterface(bytes4 interfaceId)\n    public\n    view\n    override(AccessControl, ERC1155, IERC165)\n    returns (bool)\n  {\n    return\n      interfaceId == type(IERC2981).interfaceId ||\n      super.supportsInterface(interfaceId);\n  }\n\n  function mintHash(\n    address creator,\n    uint256 supply,\n    string calldata metadataUri,\n    uint256 royaltyPct,\n    string calldata data,\n    uint256 nonce,\n    uint256 deadline\n  ) public view returns (bytes32) {\n    return\n      keccak256(\n        abi.encodePacked(\n          address(this),\n          creator,\n          supply,\n          metadataUri,\n          royaltyPct,\n          data,\n          nonce,\n          deadline\n        )\n      );\n  }\n\n  function mint(\n    address creator,\n    uint256 supply,\n    string calldata metadataUri,\n    uint256 royaltyPct,\n    string calldata data,\n    uint256 nonce,\n    uint256 deadline,\n    bytes memory signature\n  ) public {\n    if (deadline <= block.timestamp) {\n      revert ApprovalExpired();\n    }\n\n    bytes32 mintHash_ = mintHash(\n      creator,\n      supply,\n      metadataUri,\n      royaltyPct,\n      data,\n      nonce,\n      deadline\n    );\n\n    if (_approvalsExhausted[mintHash_]) {\n      revert ApprovalExhausted();\n    }\n\n    address recoveredAddress = mintHash_\n      .toEthSignedMessageHash()\n      .recover(signature);\n\n    if (\n      recoveredAddress == address(0) ||\n      !hasRole(MINTER_ROLE, recoveredAddress)\n    ) {\n      revert InvalidSignature();\n    }\n\n    _approvalsExhausted[mintHash_] = true;\n\n    _tokenId++;\n\n    super._mint(creator, _tokenId, supply, EMPTY);\n\n    Token memory token = Token(\n      block.timestamp,\n      creator,\n      supply,\n      metadataUri,\n      royaltyPct\n    );\n\n    _tokens[_tokenId] = token;\n\n    emit Mint(msg.sender, _tokenId, token, data);\n  }\n\n  function revokeMintApproval(\n    address creator,\n    uint256 supply,\n    string calldata metadataUri,\n    uint256 royaltyPct,\n    string calldata data,\n    uint256 nonce,\n    uint256 deadline\n  ) public onlyMinter {\n    bytes32 mintHash_ = mintHash(\n      creator,\n      supply,\n      metadataUri,\n      royaltyPct,\n      data,\n      nonce,\n      deadline\n    );\n\n    if (_approvalsExhausted[mintHash_]) {\n      revert ApprovalExhausted();\n    }\n\n    _approvalsExhausted[mintHash_] = true;\n\n    emit RevokeMint(msg.sender, creator, supply, data);\n  }\n}\n",
  "sourcePath": "/Users/husnain/Desktop/other/fest/packages/ethereum/contracts/solidity/contracts/token/TokenV1.sol",
  "compiler": {
    "name": "solc",
    "version": "0.8.12+commit.f00d7308.Emscripten.clang"
  },
  "schemaVersion": "3.4.4",
  "updatedAt": "2022-03-12T21:45:01.010Z",
  "networkType": "ethereum",
  "devdoc": {
    "kind": "dev",
    "methods": {
      "balanceOf(address,uint256)": {
        "details": "See {IERC1155-balanceOf}. Requirements: - `account` cannot be the zero address."
      },
      "balanceOfBatch(address[],uint256[])": {
        "details": "See {IERC1155-balanceOfBatch}. Requirements: - `accounts` and `ids` must have the same length."
      },
      "getRoleAdmin(bytes32)": {
        "details": "Returns the admin role that controls `role`. See {grantRole} and {revokeRole}. To change a role's admin, use {_setRoleAdmin}."
      },
      "grantRole(bytes32,address)": {
        "details": "Grants `role` to `account`. If `account` had not been already granted `role`, emits a {RoleGranted} event. Requirements: - the caller must have ``role``'s admin role."
      },
      "hasRole(bytes32,address)": {
        "details": "Returns `true` if `account` has been granted `role`."
      },
      "isApprovedForAll(address,address)": {
        "details": "See {IERC1155-isApprovedForAll}."
      },
      "renounceRole(bytes32,address)": {
        "details": "Revokes `role` from the calling account. Roles are often managed via {grantRole} and {revokeRole}: this function's purpose is to provide a mechanism for accounts to lose their privileges if they are compromised (such as when a trusted device is misplaced). If the calling account had been revoked `role`, emits a {RoleRevoked} event. Requirements: - the caller must be `account`."
      },
      "revokeRole(bytes32,address)": {
        "details": "Revokes `role` from `account`. If `account` had been granted `role`, emits a {RoleRevoked} event. Requirements: - the caller must have ``role``'s admin role."
      },
      "safeBatchTransferFrom(address,address,uint256[],uint256[],bytes)": {
        "details": "See {IERC1155-safeBatchTransferFrom}."
      },
      "safeTransferFrom(address,address,uint256,uint256,bytes)": {
        "details": "See {IERC1155-safeTransferFrom}."
      },
      "setApprovalForAll(address,bool)": {
        "details": "See {IERC1155-setApprovalForAll}."
      }
    },
    "version": 1
  },
  "userdoc": {
    "kind": "user",
    "methods": {},
    "version": 1
  }
}