{
  "contractName": "UUPSUpgradeableMock",
  "abi": [
    {
      "anonymous": false,
      "inputs": [
        {
          "indexed": false,
          "internalType": "address",
          "name": "previousAdmin",
          "type": "address"
        },
        {
          "indexed": false,
          "internalType": "address",
          "name": "newAdmin",
          "type": "address"
        }
      ],
      "name": "AdminChanged",
      "type": "event"
    },
    {
      "anonymous": false,
      "inputs": [
        {
          "indexed": true,
          "internalType": "address",
          "name": "beacon",
          "type": "address"
        }
      ],
      "name": "BeaconUpgraded",
      "type": "event"
    },
    {
      "anonymous": false,
      "inputs": [
        {
          "indexed": true,
          "internalType": "address",
          "name": "implementation",
          "type": "address"
        }
      ],
      "name": "Upgraded",
      "type": "event"
    },
    {
      "inputs": [],
      "name": "current",
      "outputs": [
        {
          "internalType": "uint256",
          "name": "",
          "type": "uint256"
        }
      ],
      "stateMutability": "view",
      "type": "function"
    },
    {
      "inputs": [],
      "name": "decrement",
      "outputs": [],
      "stateMutability": "nonpayable",
      "type": "function"
    },
    {
      "inputs": [],
      "name": "increment",
      "outputs": [],
      "stateMutability": "nonpayable",
      "type": "function"
    },
    {
      "inputs": [],
      "name": "reset",
      "outputs": [],
      "stateMutability": "nonpayable",
      "type": "function"
    },
    {
      "inputs": [
        {
          "internalType": "address",
          "name": "newImplementation",
          "type": "address"
        }
      ],
      "name": "upgradeTo",
      "outputs": [],
      "stateMutability": "nonpayable",
      "type": "function"
    },
    {
      "inputs": [
        {
          "internalType": "address",
          "name": "newImplementation",
          "type": "address"
        },
        {
          "internalType": "bytes",
          "name": "data",
          "type": "bytes"
        }
      ],
      "name": "upgradeToAndCall",
      "outputs": [],
      "stateMutability": "payable",
      "type": "function"
    }
  ],
  "bytecode": "0x608060405234801561001057600080fd5b50610ce6806100206000396000f3fe6080604052600436106100555760003560e01c80632baeceb71461005a5780633659cfe6146100715780634f1ef2861461009a5780639fa6a6e3146100b6578063d09de08a146100e1578063d826f88f146100f8575b600080fd5b34801561006657600080fd5b5061006f61010f565b005b34801561007d57600080fd5b5061009860048036038101906100939190610745565b61011b565b005b6100b460048036038101906100af9190610772565b610142565b005b3480156100c257600080fd5b506100cb61015b565b6040516100d891906109b6565b60405180910390f35b3480156100ed57600080fd5b506100f661016c565b005b34801561010457600080fd5b5061010d610178565b005b6101196000610184565b565b610124816101e0565b61013f816040518060200160405280600081525060006101e3565b50565b61014b826101e0565b610157828260016101e3565b5050565b600061016760006103f7565b905090565b6101766000610405565b565b610182600061041b565b565b600081600001549050600081116101d0576040517f08c379a00000000000000000000000000000000000000000000000000000000081526004016101c790610936565b60405180910390fd5b6001810382600001819055505050565b50565b60006101ed610428565b90506101f88461047f565b6000835111806102055750815b15610216576102148484610538565b505b60006102447f4910fdfa16fed3260ed0e7147f7cc6da11a60208b5b9406d12a635614ffd914360001b610565565b90508060000160009054906101000a900460ff166103f05760018160000160006101000a81548160ff021916908315150217905550610310858360405160240161028e91906108f9565b6040516020818303038152906040527f3659cfe6000000000000000000000000000000000000000000000000000000007bffffffffffffffffffffffffffffffffffffffffffffffffffffffff19166020820180517bffffffffffffffffffffffffffffffffffffffffffffffffffffffff8381831617835250505050610538565b5060008160000160006101000a81548160ff021916908315150217905550610336610428565b73ffffffffffffffffffffffffffffffffffffffff168273ffffffffffffffffffffffffffffffffffffffff16146103a3576040517f08c379a000000000000000000000000000000000000000000000000000000000815260040161039a90610956565b60405180910390fd5b6103ac8561047f565b8473ffffffffffffffffffffffffffffffffffffffff167fbc7cd75a20ee27fd9adebab32041f755214dbc6bffa90cc0225b39da2e5c2d3b60405160405180910390a25b5050505050565b600081600001549050919050565b6001816000016000828254019250508190555050565b6000816000018190555050565b60006104567f360894a13ba1a3210667c828492db98dca3e2076cc3735a920a3ca505d382bbc60001b61056f565b60000160009054906101000a900473ffffffffffffffffffffffffffffffffffffffff16905090565b61048881610579565b6104c7576040517f08c379a00000000000000000000000000000000000000000000000000000000081526004016104be90610976565b60405180910390fd5b806104f47f360894a13ba1a3210667c828492db98dca3e2076cc3735a920a3ca505d382bbc60001b61056f565b60000160006101000a81548173ffffffffffffffffffffffffffffffffffffffff021916908373ffffffffffffffffffffffffffffffffffffffff16021790555050565b606061055d8383604051806060016040528060278152602001610c8a6027913961058c565b905092915050565b6000819050919050565b6000819050919050565b600080823b905060008111915050919050565b606061059784610579565b6105d6576040517f08c379a00000000000000000000000000000000000000000000000000000000081526004016105cd90610996565b60405180910390fd5b6000808573ffffffffffffffffffffffffffffffffffffffff16856040516105fe91906108e2565b600060405180830381855af49150503d8060008114610639576040519150601f19603f3d011682016040523d82523d6000602084013e61063e565b606091505b509150915061064e828286610659565b925050509392505050565b60608315610669578290506106b9565b60008351111561067c5782518084602001fd5b816040517f08c379a00000000000000000000000000000000000000000000000000000000081526004016106b09190610914565b60405180910390fd5b9392505050565b60006106d36106ce846109f6565b6109d1565b9050828152602081018484840111156106ef576106ee610b3c565b5b6106fa848285610a95565b509392505050565b60008135905061071181610c72565b92915050565b600082601f83011261072c5761072b610b37565b5b813561073c8482602086016106c0565b91505092915050565b60006020828403121561075b5761075a610b46565b5b600061076984828501610702565b91505092915050565b6000806040838503121561078957610788610b46565b5b600061079785828601610702565b925050602083013567ffffffffffffffff8111156107b8576107b7610b41565b5b6107c485828601610717565b9150509250929050565b6107d781610a59565b82525050565b60006107e882610a27565b6107f28185610a3d565b9350610802818560208601610aa4565b80840191505092915050565b600061081982610a32565b6108238185610a48565b9350610833818560208601610aa4565b61083c81610b4b565b840191505092915050565b6000610854601b83610a48565b915061085f82610b5c565b602082019050919050565b6000610877602f83610a48565b915061088282610b85565b604082019050919050565b600061089a602d83610a48565b91506108a582610bd4565b604082019050919050565b60006108bd602683610a48565b91506108c882610c23565b604082019050919050565b6108dc81610a8b565b82525050565b60006108ee82846107dd565b915081905092915050565b600060208201905061090e60008301846107ce565b92915050565b6000602082019050818103600083015261092e818461080e565b905092915050565b6000602082019050818103600083015261094f81610847565b9050919050565b6000602082019050818103600083015261096f8161086a565b9050919050565b6000602082019050818103600083015261098f8161088d565b9050919050565b600060208201905081810360008301526109af816108b0565b9050919050565b60006020820190506109cb60008301846108d3565b92915050565b60006109db6109ec565b90506109e78282610ad7565b919050565b6000604051905090565b600067ffffffffffffffff821115610a1157610a10610b08565b5b610a1a82610b4b565b9050602081019050919050565b600081519050919050565b600081519050919050565b600081905092915050565b600082825260208201905092915050565b6000610a6482610a6b565b9050919050565b600073ffffffffffffffffffffffffffffffffffffffff82169050919050565b6000819050919050565b82818337600083830152505050565b60005b83811015610ac2578082015181840152602081019050610aa7565b83811115610ad1576000848401525b50505050565b610ae082610b4b565b810181811067ffffffffffffffff82111715610aff57610afe610b08565b5b80604052505050565b7f4e487b7100000000000000000000000000000000000000000000000000000000600052604160045260246000fd5b600080fd5b600080fd5b600080fd5b600080fd5b6000601f19601f8301169050919050565b7f436f756e7465723a2064656372656d656e74206f766572666c6f770000000000600082015250565b7f45524331393637557067726164653a207570677261646520627265616b73206660008201527f7572746865722075706772616465730000000000000000000000000000000000602082015250565b7f455243313936373a206e657720696d706c656d656e746174696f6e206973206e60008201527f6f74206120636f6e747261637400000000000000000000000000000000000000602082015250565b7f416464726573733a2064656c65676174652063616c6c20746f206e6f6e2d636f60008201527f6e74726163740000000000000000000000000000000000000000000000000000602082015250565b610c7b81610a59565b8114610c8657600080fd5b5056fe416464726573733a206c6f772d6c6576656c2064656c65676174652063616c6c206661696c6564a2646970667358221220151c5417169910ebe07652854ff3a02d89700259902bae16621ca7d91f6be64664736f6c63430008060033",
  "immutableReferences": {},
  "source": "// SPDX-License-Identifier: MIT\n\npragma solidity ^0.8.0;\n\nimport \"../CountersImpl.sol\";\nimport \"../../proxy/utils/UUPSUpgradeable.sol\";\n\ncontract UUPSUpgradeableMock is CountersImpl, UUPSUpgradeable {\n    // Not having any checks in this function is dangerous! Do not do this outside tests!\n    function _authorizeUpgrade(address) internal virtual override {}\n}\n\ncontract UUPSUpgradeableUnsafeMock is UUPSUpgradeableMock {\n    function upgradeTo(address newImplementation) external virtual override {\n        ERC1967Upgrade._upgradeToAndCall(newImplementation, bytes(\"\"), false);\n    }\n\n    function upgradeToAndCall(address newImplementation, bytes memory data) external payable virtual override {\n        ERC1967Upgrade._upgradeToAndCall(newImplementation, data, false);\n    }\n}\n\ncontract UUPSUpgradeableBrokenMock is UUPSUpgradeableMock {\n    function upgradeTo(address) external virtual override {\n        // pass\n    }\n\n    function upgradeToAndCall(address, bytes memory) external payable virtual override {\n        // pass\n    }\n\n}\n",
  "sourcePath": "C:/Users/Husnain/Documents/Projects/Fanbase/New/fanbase/packages/ethereum/contracts/solidity/openzeppelin/contracts/mocks/UUPS/TestInProd.sol",
  "compiler": {
    "name": "solc",
    "version": "0.8.6+commit.11564f7e.Emscripten.clang"
  },
  "schemaVersion": "3.4.1",
  "updatedAt": "2021-07-13T12:16:32.143Z",
  "devdoc": {
    "kind": "dev",
    "methods": {
      "upgradeTo(address)": {
        "details": "Upgrade the implementation of the proxy to `newImplementation`. Calls {_authorizeUpgrade}. Emits an {Upgraded} event."
      },
      "upgradeToAndCall(address,bytes)": {
        "details": "Upgrade the implementation of the proxy to `newImplementation`, and subsequently execute the function call encoded in `data`. Calls {_authorizeUpgrade}. Emits an {Upgraded} event."
      }
    },
    "version": 1
  },
  "userdoc": {
    "kind": "user",
    "methods": {},
    "version": 1
  }
}